{
	"contracts/base/ERC721Test.sol": {
		"ERC721_2": {
			"abi": [
				{
					"anonymous": false,
					"inputs": [
						{
							"indexed": true,
							"internalType": "address",
							"name": "owner",
							"type": "address"
						},
						{
							"indexed": true,
							"internalType": "address",
							"name": "approved",
							"type": "address"
						},
						{
							"indexed": true,
							"internalType": "uint256",
							"name": "tokenId",
							"type": "uint256"
						}
					],
					"name": "Approval",
					"type": "event"
				},
				{
					"anonymous": false,
					"inputs": [
						{
							"indexed": true,
							"internalType": "address",
							"name": "owner",
							"type": "address"
						},
						{
							"indexed": true,
							"internalType": "address",
							"name": "operator",
							"type": "address"
						},
						{
							"indexed": false,
							"internalType": "bool",
							"name": "approved",
							"type": "bool"
						}
					],
					"name": "ApprovalForAll",
					"type": "event"
				},
				{
					"anonymous": false,
					"inputs": [
						{
							"indexed": true,
							"internalType": "address",
							"name": "from",
							"type": "address"
						},
						{
							"indexed": true,
							"internalType": "address",
							"name": "to",
							"type": "address"
						},
						{
							"indexed": true,
							"internalType": "uint256",
							"name": "tokenId",
							"type": "uint256"
						}
					],
					"name": "Transfer",
					"type": "event"
				},
				{
					"inputs": [
						{
							"internalType": "uint256",
							"name": "",
							"type": "uint256"
						}
					],
					"name": "_approves",
					"outputs": [
						{
							"internalType": "address",
							"name": "",
							"type": "address"
						}
					],
					"stateMutability": "view",
					"type": "function"
				},
				{
					"inputs": [
						{
							"internalType": "address",
							"name": "to",
							"type": "address"
						},
						{
							"internalType": "uint256",
							"name": "tokenId",
							"type": "uint256"
						}
					],
					"name": "approve",
					"outputs": [],
					"stateMutability": "nonpayable",
					"type": "function"
				},
				{
					"inputs": [
						{
							"internalType": "address",
							"name": "",
							"type": "address"
						}
					],
					"name": "balanceOf",
					"outputs": [
						{
							"internalType": "uint256",
							"name": "",
							"type": "uint256"
						}
					],
					"stateMutability": "view",
					"type": "function"
				},
				{
					"inputs": [
						{
							"internalType": "uint256",
							"name": "tokenId",
							"type": "uint256"
						}
					],
					"name": "getApproved",
					"outputs": [
						{
							"internalType": "address",
							"name": "operator",
							"type": "address"
						}
					],
					"stateMutability": "view",
					"type": "function"
				},
				{
					"inputs": [
						{
							"internalType": "address",
							"name": "",
							"type": "address"
						},
						{
							"internalType": "address",
							"name": "",
							"type": "address"
						}
					],
					"name": "isApprovedForAll",
					"outputs": [
						{
							"internalType": "bool",
							"name": "",
							"type": "bool"
						}
					],
					"stateMutability": "view",
					"type": "function"
				},
				{
					"inputs": [
						{
							"internalType": "uint256",
							"name": "",
							"type": "uint256"
						}
					],
					"name": "ownerOf",
					"outputs": [
						{
							"internalType": "address",
							"name": "",
							"type": "address"
						}
					],
					"stateMutability": "view",
					"type": "function"
				},
				{
					"inputs": [
						{
							"internalType": "address",
							"name": "from",
							"type": "address"
						},
						{
							"internalType": "address",
							"name": "to",
							"type": "address"
						},
						{
							"internalType": "uint256",
							"name": "tokenId",
							"type": "uint256"
						}
					],
					"name": "safeTransferFrom",
					"outputs": [],
					"stateMutability": "nonpayable",
					"type": "function"
				},
				{
					"inputs": [
						{
							"internalType": "address",
							"name": "from",
							"type": "address"
						},
						{
							"internalType": "address",
							"name": "to",
							"type": "address"
						},
						{
							"internalType": "uint256",
							"name": "tokenId",
							"type": "uint256"
						},
						{
							"internalType": "bytes",
							"name": "data",
							"type": "bytes"
						}
					],
					"name": "safeTransferFrom",
					"outputs": [],
					"stateMutability": "nonpayable",
					"type": "function"
				},
				{
					"inputs": [
						{
							"internalType": "address",
							"name": "operator",
							"type": "address"
						},
						{
							"internalType": "bool",
							"name": "_approved",
							"type": "bool"
						}
					],
					"name": "setApprovalForAll",
					"outputs": [],
					"stateMutability": "nonpayable",
					"type": "function"
				},
				{
					"inputs": [
						{
							"internalType": "bytes4",
							"name": "interfaceId",
							"type": "bytes4"
						}
					],
					"name": "supportsInterface",
					"outputs": [
						{
							"internalType": "bool",
							"name": "",
							"type": "bool"
						}
					],
					"stateMutability": "pure",
					"type": "function"
				},
				{
					"inputs": [
						{
							"internalType": "address",
							"name": "from",
							"type": "address"
						},
						{
							"internalType": "address",
							"name": "to",
							"type": "address"
						},
						{
							"internalType": "uint256",
							"name": "tokenId",
							"type": "uint256"
						}
					],
					"name": "transferFrom",
					"outputs": [],
					"stateMutability": "nonpayable",
					"type": "function"
				}
			],
			"devdoc": {
				"kind": "dev",
				"methods": {},
				"version": 1
			},
			"evm": {
				"assembly": "    /* \"contracts/base/ERC721Test.sol\":5547:11005  contract ERC721_2 is IERC721{\r... */\n  mstore(0x40, 0x80)\n  callvalue\n  dup1\n  iszero\n  tag_1\n  jumpi\n  0x00\n  dup1\n  revert\ntag_1:\n  pop\n  dataSize(sub_0)\n  dup1\n  dataOffset(sub_0)\n  0x00\n  codecopy\n  0x00\n  return\nstop\n\nsub_0: assembly {\n        /* \"contracts/base/ERC721Test.sol\":5547:11005  contract ERC721_2 is IERC721{\r... */\n      mstore(0x40, 0x80)\n      callvalue\n      dup1\n      iszero\n      tag_1\n      jumpi\n      0x00\n      dup1\n      revert\n    tag_1:\n      pop\n      jumpi(tag_2, lt(calldatasize, 0x04))\n      shr(0xe0, calldataload(0x00))\n      dup1\n      0x6352211e\n      gt\n      tag_14\n      jumpi\n      dup1\n      0x6352211e\n      eq\n      tag_8\n      jumpi\n      dup1\n      0x70a08231\n      eq\n      tag_9\n      jumpi\n      dup1\n      0xa22cb465\n      eq\n      tag_10\n      jumpi\n      dup1\n      0xb88d4fde\n      eq\n      tag_11\n      jumpi\n      dup1\n      0xe7c19a0f\n      eq\n      tag_12\n      jumpi\n      dup1\n      0xe985e9c5\n      eq\n      tag_13\n      jumpi\n      jump(tag_2)\n    tag_14:\n      dup1\n      0x01ffc9a7\n      eq\n      tag_3\n      jumpi\n      dup1\n      0x081812fc\n      eq\n      tag_4\n      jumpi\n      dup1\n      0x095ea7b3\n      eq\n      tag_5\n      jumpi\n      dup1\n      0x23b872dd\n      eq\n      tag_6\n      jumpi\n      dup1\n      0x42842e0e\n      eq\n      tag_7\n      jumpi\n    tag_2:\n      0x00\n      dup1\n      revert\n        /* \"contracts/base/ERC721Test.sol\":6753:6950  function supportsInterface(bytes4 interfaceId) override  external pure  returns (bool){\r... */\n    tag_3:\n      tag_15\n      0x04\n      dup1\n      calldatasize\n      sub\n      dup2\n      add\n      swap1\n      tag_16\n      swap2\n      swap1\n      tag_17\n      jump\t// in\n    tag_16:\n      tag_18\n      jump\t// in\n    tag_15:\n      mload(0x40)\n      tag_19\n      swap2\n      swap1\n      tag_20\n      jump\t// in\n    tag_19:\n      mload(0x40)\n      dup1\n      swap2\n      sub\n      swap1\n      return\n        /* \"contracts/base/ERC721Test.sol\":10192:10457  function getApproved(uint256 tokenId)  override external view returns (address operator){\r... */\n    tag_4:\n      tag_21\n      0x04\n      dup1\n      calldatasize\n      sub\n      dup2\n      add\n      swap1\n      tag_22\n      swap2\n      swap1\n      tag_23\n      jump\t// in\n    tag_22:\n      tag_24\n      jump\t// in\n    tag_21:\n      mload(0x40)\n      tag_25\n      swap2\n      swap1\n      tag_26\n      jump\t// in\n    tag_25:\n      mload(0x40)\n      dup1\n      swap2\n      sub\n      swap1\n      return\n        /* \"contracts/base/ERC721Test.sol\":9653:9994  function approve(address to, uint256 tokenId) override external{\r... */\n    tag_5:\n      tag_27\n      0x04\n      dup1\n      calldatasize\n      sub\n      dup2\n      add\n      swap1\n      tag_28\n      swap2\n      swap1\n      tag_29\n      jump\t// in\n    tag_28:\n      tag_30\n      jump\t// in\n    tag_27:\n      stop\n        /* \"contracts/base/ERC721Test.sol\":8790:9480  function transferFrom(address from, address to, uint256 tokenId) override public {\r... */\n    tag_6:\n      tag_31\n      0x04\n      dup1\n      calldatasize\n      sub\n      dup2\n      add\n      swap1\n      tag_32\n      swap2\n      swap1\n      tag_33\n      jump\t// in\n    tag_32:\n      tag_34\n      jump\t// in\n    tag_31:\n      stop\n        /* \"contracts/base/ERC721Test.sol\":7365:7694  function safeTransferFrom(address from, address to, uint256 tokenId) override external{\r... */\n    tag_7:\n      tag_35\n      0x04\n      dup1\n      calldatasize\n      sub\n      dup2\n      add\n      swap1\n      tag_36\n      swap2\n      swap1\n      tag_33\n      jump\t// in\n    tag_36:\n      tag_37\n      jump\t// in\n    tag_35:\n      stop\n        /* \"contracts/base/ERC721Test.sol\":5719:5770  mapping(uint256 => address) public override ownerOf */\n    tag_8:\n      tag_38\n      0x04\n      dup1\n      calldatasize\n      sub\n      dup2\n      add\n      swap1\n      tag_39\n      swap2\n      swap1\n      tag_23\n      jump\t// in\n    tag_39:\n      tag_40\n      jump\t// in\n    tag_38:\n      mload(0x40)\n      tag_41\n      swap2\n      swap1\n      tag_26\n      jump\t// in\n    tag_41:\n      mload(0x40)\n      dup1\n      swap2\n      sub\n      swap1\n      return\n        /* \"contracts/base/ERC721Test.sol\":5619:5672  mapping(address => uint256) public override balanceOf */\n    tag_9:\n      tag_42\n      0x04\n      dup1\n      calldatasize\n      sub\n      dup2\n      add\n      swap1\n      tag_43\n      swap2\n      swap1\n      tag_44\n      jump\t// in\n    tag_43:\n      tag_45\n      jump\t// in\n    tag_42:\n      mload(0x40)\n      tag_46\n      swap2\n      swap1\n      tag_47\n      jump\t// in\n    tag_46:\n      mload(0x40)\n      dup1\n      swap2\n      sub\n      swap1\n      return\n        /* \"contracts/base/ERC721Test.sol\":10696:10986  function setApprovalForAll(address operator, bool _approved) override external{\r... */\n    tag_10:\n      tag_48\n      0x04\n      dup1\n      calldatasize\n      sub\n      dup2\n      add\n      swap1\n      tag_49\n      swap2\n      swap1\n      tag_50\n      jump\t// in\n    tag_49:\n      tag_51\n      jump\t// in\n    tag_48:\n      stop\n        /* \"contracts/base/ERC721Test.sol\":8110:8467  function safeTransferFrom(address from, address to, uint256 tokenId, bytes calldata data) override external{\r... */\n    tag_11:\n      tag_52\n      0x04\n      dup1\n      calldatasize\n      sub\n      dup2\n      add\n      swap1\n      tag_53\n      swap2\n      swap1\n      tag_54\n      jump\t// in\n    tag_53:\n      tag_55\n      jump\t// in\n    tag_52:\n      stop\n        /* \"contracts/base/ERC721Test.sol\":5811:5855  mapping(uint256 => address) public _approves */\n    tag_12:\n      tag_56\n      0x04\n      dup1\n      calldatasize\n      sub\n      dup2\n      add\n      swap1\n      tag_57\n      swap2\n      swap1\n      tag_23\n      jump\t// in\n    tag_57:\n      tag_58\n      jump\t// in\n    tag_56:\n      mload(0x40)\n      tag_59\n      swap2\n      swap1\n      tag_26\n      jump\t// in\n    tag_59:\n      mload(0x40)\n      dup1\n      swap2\n      sub\n      swap1\n      return\n        /* \"contracts/base/ERC721Test.sol\":5902:5979  mapping(address => mapping(address => bool)) public override isApprovedForAll */\n    tag_13:\n      tag_60\n      0x04\n      dup1\n      calldatasize\n      sub\n      dup2\n      add\n      swap1\n      tag_61\n      swap2\n      swap1\n      tag_62\n      jump\t// in\n    tag_61:\n      tag_63\n      jump\t// in\n    tag_60:\n      mload(0x40)\n      tag_64\n      swap2\n      swap1\n      tag_20\n      jump\t// in\n    tag_64:\n      mload(0x40)\n      dup1\n      swap2\n      sub\n      swap1\n      return\n        /* \"contracts/base/ERC721Test.sol\":6753:6950  function supportsInterface(bytes4 interfaceId) override  external pure  returns (bool){\r... */\n    tag_18:\n        /* \"contracts/base/ERC721Test.sol\":6834:6838  bool */\n      0x00\n        /* \"contracts/base/ERC721Test.sol\":6872:6897  type(IERC721).interfaceId */\n      0x80ac58cd00000000000000000000000000000000000000000000000000000000\n        /* \"contracts/base/ERC721Test.sol\":6857:6897  interfaceId == type(IERC721).interfaceId */\n      not(0xffffffffffffffffffffffffffffffffffffffffffffffffffffffff)\n      and\n        /* \"contracts/base/ERC721Test.sol\":6857:6868  interfaceId */\n      dup3\n        /* \"contracts/base/ERC721Test.sol\":6857:6897  interfaceId == type(IERC721).interfaceId */\n      not(0xffffffffffffffffffffffffffffffffffffffffffffffffffffffff)\n      and\n      eq\n        /* \"contracts/base/ERC721Test.sol\":6857:6941  interfaceId == type(IERC721).interfaceId || interfaceId == type(IERC165).interfaceId */\n      dup1\n      tag_66\n      jumpi\n      pop\n        /* \"contracts/base/ERC721Test.sol\":6916:6941  type(IERC165).interfaceId */\n      0x01ffc9a700000000000000000000000000000000000000000000000000000000\n        /* \"contracts/base/ERC721Test.sol\":6901:6941  interfaceId == type(IERC165).interfaceId */\n      not(0xffffffffffffffffffffffffffffffffffffffffffffffffffffffff)\n      and\n        /* \"contracts/base/ERC721Test.sol\":6901:6912  interfaceId */\n      dup3\n        /* \"contracts/base/ERC721Test.sol\":6901:6941  interfaceId == type(IERC165).interfaceId */\n      not(0xffffffffffffffffffffffffffffffffffffffffffffffffffffffff)\n      and\n      eq\n        /* \"contracts/base/ERC721Test.sol\":6857:6941  interfaceId == type(IERC721).interfaceId || interfaceId == type(IERC165).interfaceId */\n    tag_66:\n        /* \"contracts/base/ERC721Test.sol\":6850:6941  return interfaceId == type(IERC721).interfaceId || interfaceId == type(IERC165).interfaceId */\n      swap1\n      pop\n        /* \"contracts/base/ERC721Test.sol\":6753:6950  function supportsInterface(bytes4 interfaceId) override  external pure  returns (bool){\r... */\n      swap2\n      swap1\n      pop\n      jump\t// out\n        /* \"contracts/base/ERC721Test.sol\":10192:10457  function getApproved(uint256 tokenId)  override external view returns (address operator){\r... */\n    tag_24:\n        /* \"contracts/base/ERC721Test.sol\":10263:10279  address operator */\n      0x00\n        /* \"contracts/base/ERC721Test.sol\":10310:10311  0 */\n      dup1\n        /* \"contracts/base/ERC721Test.sol\":10299:10306  tokenId */\n      dup3\n        /* \"contracts/base/ERC721Test.sol\":10299:10311  tokenId != 0 */\n      eq\n      iszero\n        /* \"contracts/base/ERC721Test.sol\":10291:10335  require(tokenId != 0 , \"tokenId is cannt 0\") */\n      tag_68\n      jumpi\n      mload(0x40)\n      0x08c379a000000000000000000000000000000000000000000000000000000000\n      dup2\n      mstore\n      0x04\n      add\n      tag_69\n      swap1\n      tag_70\n      jump\t// in\n    tag_69:\n      mload(0x40)\n      dup1\n      swap2\n      sub\n      swap1\n      revert\n    tag_68:\n        /* \"contracts/base/ERC721Test.sol\":10357:10366  _approves */\n      0x02\n        /* \"contracts/base/ERC721Test.sol\":10357:10375  _approves[tokenId] */\n      0x00\n        /* \"contracts/base/ERC721Test.sol\":10367:10374  tokenId */\n      dup4\n        /* \"contracts/base/ERC721Test.sol\":10357:10375  _approves[tokenId] */\n      dup2\n      mstore\n      0x20\n      add\n      swap1\n      dup2\n      mstore\n      0x20\n      add\n      0x00\n      keccak256\n      0x00\n      swap1\n      sload\n      swap1\n      0x0100\n      exp\n      swap1\n      div\n      0xffffffffffffffffffffffffffffffffffffffff\n      and\n        /* \"contracts/base/ERC721Test.sol\":10346:10375  operator = _approves[tokenId] */\n      swap1\n      pop\n        /* \"contracts/base/ERC721Test.sol\":10414:10415  0 */\n      0x00\n        /* \"contracts/base/ERC721Test.sol\":10394:10416  operator != address(0) */\n      0xffffffffffffffffffffffffffffffffffffffff\n      and\n        /* \"contracts/base/ERC721Test.sol\":10394:10402  operator */\n      dup2\n        /* \"contracts/base/ERC721Test.sol\":10394:10416  operator != address(0) */\n      0xffffffffffffffffffffffffffffffffffffffff\n      and\n      eq\n      iszero\n        /* \"contracts/base/ERC721Test.sol\":10386:10440  require(operator != address(0) , \"tokenId is cannt 0\") */\n      tag_71\n      jumpi\n      mload(0x40)\n      0x08c379a000000000000000000000000000000000000000000000000000000000\n      dup2\n      mstore\n      0x04\n      add\n      tag_72\n      swap1\n      tag_70\n      jump\t// in\n    tag_72:\n      mload(0x40)\n      dup1\n      swap2\n      sub\n      swap1\n      revert\n    tag_71:\n        /* \"contracts/base/ERC721Test.sol\":10192:10457  function getApproved(uint256 tokenId)  override external view returns (address operator){\r... */\n      swap2\n      swap1\n      pop\n      jump\t// out\n        /* \"contracts/base/ERC721Test.sol\":9653:9994  function approve(address to, uint256 tokenId) override external{\r... */\n    tag_30:\n        /* \"contracts/base/ERC721Test.sol\":9757:9759  to */\n      dup2\n        /* \"contracts/base/ERC721Test.sol\":9735:9759  _approves[tokenId] != to */\n      0xffffffffffffffffffffffffffffffffffffffff\n      and\n        /* \"contracts/base/ERC721Test.sol\":9735:9744  _approves */\n      0x02\n        /* \"contracts/base/ERC721Test.sol\":9735:9753  _approves[tokenId] */\n      0x00\n        /* \"contracts/base/ERC721Test.sol\":9745:9752  tokenId */\n      dup4\n        /* \"contracts/base/ERC721Test.sol\":9735:9753  _approves[tokenId] */\n      dup2\n      mstore\n      0x20\n      add\n      swap1\n      dup2\n      mstore\n      0x20\n      add\n      0x00\n      keccak256\n      0x00\n      swap1\n      sload\n      swap1\n      0x0100\n      exp\n      swap1\n      div\n      0xffffffffffffffffffffffffffffffffffffffff\n      and\n        /* \"contracts/base/ERC721Test.sol\":9735:9759  _approves[tokenId] != to */\n      0xffffffffffffffffffffffffffffffffffffffff\n      and\n      eq\n      iszero\n        /* \"contracts/base/ERC721Test.sol\":9727:9795  require(_approves[tokenId] != to, \"ERC721: approved is already set\") */\n      tag_74\n      jumpi\n      mload(0x40)\n      0x08c379a000000000000000000000000000000000000000000000000000000000\n      dup2\n      mstore\n      0x04\n      add\n      tag_75\n      swap1\n      tag_76\n      jump\t// in\n    tag_75:\n      mload(0x40)\n      dup1\n      swap2\n      sub\n      swap1\n      revert\n    tag_74:\n        /* \"contracts/base/ERC721Test.sol\":9834:9844  msg.sender */\n      caller\n        /* \"contracts/base/ERC721Test.sol\":9814:9844  ownerOf[tokenId] == msg.sender */\n      0xffffffffffffffffffffffffffffffffffffffff\n      and\n        /* \"contracts/base/ERC721Test.sol\":9814:9821  ownerOf */\n      0x01\n        /* \"contracts/base/ERC721Test.sol\":9814:9830  ownerOf[tokenId] */\n      0x00\n        /* \"contracts/base/ERC721Test.sol\":9822:9829  tokenId */\n      dup4\n        /* \"contracts/base/ERC721Test.sol\":9814:9830  ownerOf[tokenId] */\n      dup2\n      mstore\n      0x20\n      add\n      swap1\n      dup2\n      mstore\n      0x20\n      add\n      0x00\n      keccak256\n      0x00\n      swap1\n      sload\n      swap1\n      0x0100\n      exp\n      swap1\n      div\n      0xffffffffffffffffffffffffffffffffffffffff\n      and\n        /* \"contracts/base/ERC721Test.sol\":9814:9844  ownerOf[tokenId] == msg.sender */\n      0xffffffffffffffffffffffffffffffffffffffff\n      and\n      eq\n        /* \"contracts/base/ERC721Test.sol\":9806:9903  require(ownerOf[tokenId] == msg.sender , \"ERC721: approved caller is not owner nor approved for\") */\n      tag_77\n      jumpi\n      mload(0x40)\n      0x08c379a000000000000000000000000000000000000000000000000000000000\n      dup2\n      mstore\n      0x04\n      add\n      tag_78\n      swap1\n      tag_79\n      jump\t// in\n    tag_78:\n      mload(0x40)\n      dup1\n      swap2\n      sub\n      swap1\n      revert\n    tag_77:\n        /* \"contracts/base/ERC721Test.sol\":9935:9937  to */\n      dup2\n        /* \"contracts/base/ERC721Test.sol\":9914:9923  _approves */\n      0x02\n        /* \"contracts/base/ERC721Test.sol\":9914:9932  _approves[tokenId] */\n      0x00\n        /* \"contracts/base/ERC721Test.sol\":9924:9931  tokenId */\n      dup4\n        /* \"contracts/base/ERC721Test.sol\":9914:9932  _approves[tokenId] */\n      dup2\n      mstore\n      0x20\n      add\n      swap1\n      dup2\n      mstore\n      0x20\n      add\n      0x00\n      keccak256\n      0x00\n        /* \"contracts/base/ERC721Test.sol\":9914:9937  _approves[tokenId] = to */\n      0x0100\n      exp\n      dup2\n      sload\n      dup2\n      0xffffffffffffffffffffffffffffffffffffffff\n      mul\n      not\n      and\n      swap1\n      dup4\n      0xffffffffffffffffffffffffffffffffffffffff\n      and\n      mul\n      or\n      swap1\n      sstore\n      pop\n        /* \"contracts/base/ERC721Test.sol\":9978:9985  tokenId */\n      dup1\n        /* \"contracts/base/ERC721Test.sol\":9975:9977  to */\n      dup3\n        /* \"contracts/base/ERC721Test.sol\":9954:9986  Approval(msg.sender, to,tokenId) */\n      0xffffffffffffffffffffffffffffffffffffffff\n      and\n        /* \"contracts/base/ERC721Test.sol\":9963:9973  msg.sender */\n      caller\n        /* \"contracts/base/ERC721Test.sol\":9954:9986  Approval(msg.sender, to,tokenId) */\n      0xffffffffffffffffffffffffffffffffffffffff\n      and\n      0x8c5be1e5ebec7d5bd14f71427d1e84f3dd0314c0f7b2291e5b200ac8c7c3b925\n      mload(0x40)\n      mload(0x40)\n      dup1\n      swap2\n      sub\n      swap1\n      log4\n        /* \"contracts/base/ERC721Test.sol\":9653:9994  function approve(address to, uint256 tokenId) override external{\r... */\n      pop\n      pop\n      jump\t// out\n        /* \"contracts/base/ERC721Test.sol\":8790:9480  function transferFrom(address from, address to, uint256 tokenId) override public {\r... */\n    tag_34:\n        /* \"contracts/base/ERC721Test.sol\":8907:8908  0 */\n      0x00\n        /* \"contracts/base/ERC721Test.sol\":8891:8909  from != address(0) */\n      0xffffffffffffffffffffffffffffffffffffffff\n      and\n        /* \"contracts/base/ERC721Test.sol\":8891:8895  from */\n      dup4\n        /* \"contracts/base/ERC721Test.sol\":8891:8909  from != address(0) */\n      0xffffffffffffffffffffffffffffffffffffffff\n      and\n      eq\n      iszero\n        /* \"contracts/base/ERC721Test.sol\":8891:8929  from != address(0) && to != address(0) */\n      dup1\n      iszero\n      tag_81\n      jumpi\n      pop\n        /* \"contracts/base/ERC721Test.sol\":8927:8928  0 */\n      0x00\n        /* \"contracts/base/ERC721Test.sol\":8913:8929  to != address(0) */\n      0xffffffffffffffffffffffffffffffffffffffff\n      and\n        /* \"contracts/base/ERC721Test.sol\":8913:8915  to */\n      dup3\n        /* \"contracts/base/ERC721Test.sol\":8913:8929  to != address(0) */\n      0xffffffffffffffffffffffffffffffffffffffff\n      and\n      eq\n      iszero\n        /* \"contracts/base/ERC721Test.sol\":8891:8929  from != address(0) && to != address(0) */\n    tag_81:\n        /* \"contracts/base/ERC721Test.sol\":8883:8966  require(from != address(0) && to != address(0), \"address or toAddress zero is not\") */\n      tag_82\n      jumpi\n      mload(0x40)\n      0x08c379a000000000000000000000000000000000000000000000000000000000\n      dup2\n      mstore\n      0x04\n      add\n      tag_83\n      swap1\n      tag_84\n      jump\t// in\n    tag_83:\n      mload(0x40)\n      dup1\n      swap2\n      sub\n      swap1\n      revert\n    tag_82:\n        /* \"contracts/base/ERC721Test.sol\":8997:8998  0 */\n      0x00\n        /* \"contracts/base/ERC721Test.sol\":8986:8993  tokenId */\n      dup2\n        /* \"contracts/base/ERC721Test.sol\":8986:8998  tokenId != 0 */\n      eq\n      iszero\n        /* \"contracts/base/ERC721Test.sol\":8978:9015  require(tokenId != 0, \"tokenId zero\") */\n      tag_85\n      jumpi\n      mload(0x40)\n      0x08c379a000000000000000000000000000000000000000000000000000000000\n      dup2\n      mstore\n      0x04\n      add\n      tag_86\n      swap1\n      tag_87\n      jump\t// in\n    tag_86:\n      mload(0x40)\n      dup1\n      swap2\n      sub\n      swap1\n      revert\n    tag_85:\n        /* \"contracts/base/ERC721Test.sol\":9055:9059  from */\n      dup3\n        /* \"contracts/base/ERC721Test.sol\":9035:9059  ownerOf[tokenId] == from */\n      0xffffffffffffffffffffffffffffffffffffffff\n      and\n        /* \"contracts/base/ERC721Test.sol\":9035:9042  ownerOf */\n      0x01\n        /* \"contracts/base/ERC721Test.sol\":9035:9051  ownerOf[tokenId] */\n      0x00\n        /* \"contracts/base/ERC721Test.sol\":9043:9050  tokenId */\n      dup4\n        /* \"contracts/base/ERC721Test.sol\":9035:9051  ownerOf[tokenId] */\n      dup2\n      mstore\n      0x20\n      add\n      swap1\n      dup2\n      mstore\n      0x20\n      add\n      0x00\n      keccak256\n      0x00\n      swap1\n      sload\n      swap1\n      0x0100\n      exp\n      swap1\n      div\n      0xffffffffffffffffffffffffffffffffffffffff\n      and\n        /* \"contracts/base/ERC721Test.sol\":9035:9059  ownerOf[tokenId] == from */\n      0xffffffffffffffffffffffffffffffffffffffff\n      and\n      eq\n        /* \"contracts/base/ERC721Test.sol\":9027:9076  require(ownerOf[tokenId] == from, \"tokenId zero\") */\n      tag_88\n      jumpi\n      mload(0x40)\n      0x08c379a000000000000000000000000000000000000000000000000000000000\n      dup2\n      mstore\n      0x04\n      add\n      tag_89\n      swap1\n      tag_87\n      jump\t// in\n    tag_89:\n      mload(0x40)\n      dup1\n      swap2\n      sub\n      swap1\n      revert\n    tag_88:\n        /* \"contracts/base/ERC721Test.sol\":9130:9146  isApprovedForAll */\n      0x03\n        /* \"contracts/base/ERC721Test.sol\":9130:9152  isApprovedForAll[from] */\n      0x00\n        /* \"contracts/base/ERC721Test.sol\":9147:9151  from */\n      dup5\n        /* \"contracts/base/ERC721Test.sol\":9130:9152  isApprovedForAll[from] */\n      0xffffffffffffffffffffffffffffffffffffffff\n      and\n      0xffffffffffffffffffffffffffffffffffffffff\n      and\n      dup2\n      mstore\n      0x20\n      add\n      swap1\n      dup2\n      mstore\n      0x20\n      add\n      0x00\n      keccak256\n        /* \"contracts/base/ERC721Test.sol\":9130:9164  isApprovedForAll[from][msg.sender] */\n      0x00\n        /* \"contracts/base/ERC721Test.sol\":9153:9163  msg.sender */\n      caller\n        /* \"contracts/base/ERC721Test.sol\":9130:9164  isApprovedForAll[from][msg.sender] */\n      0xffffffffffffffffffffffffffffffffffffffff\n      and\n      0xffffffffffffffffffffffffffffffffffffffff\n      and\n      dup2\n      mstore\n      0x20\n      add\n      swap1\n      dup2\n      mstore\n      0x20\n      add\n      0x00\n      keccak256\n      0x00\n      swap1\n      sload\n      swap1\n      0x0100\n      exp\n      swap1\n      div\n      0xff\n      and\n        /* \"contracts/base/ERC721Test.sol\":9130:9199  isApprovedForAll[from][msg.sender]\r... */\n      dup1\n      tag_90\n      jumpi\n      pop\n        /* \"contracts/base/ERC721Test.sol\":9189:9199  msg.sender */\n      caller\n        /* \"contracts/base/ERC721Test.sol\":9181:9199  from == msg.sender */\n      0xffffffffffffffffffffffffffffffffffffffff\n      and\n        /* \"contracts/base/ERC721Test.sol\":9181:9185  from */\n      dup4\n        /* \"contracts/base/ERC721Test.sol\":9181:9199  from == msg.sender */\n      0xffffffffffffffffffffffffffffffffffffffff\n      and\n      eq\n        /* \"contracts/base/ERC721Test.sol\":9130:9199  isApprovedForAll[from][msg.sender]\r... */\n    tag_90:\n        /* \"contracts/base/ERC721Test.sol\":9130:9236  isApprovedForAll[from][msg.sender]\r... */\n      dup1\n      tag_91\n      jumpi\n      pop\n        /* \"contracts/base/ERC721Test.sol\":9226:9236  msg.sender */\n      caller\n        /* \"contracts/base/ERC721Test.sol\":9204:9236  _approves[tokenId] == msg.sender */\n      0xffffffffffffffffffffffffffffffffffffffff\n      and\n        /* \"contracts/base/ERC721Test.sol\":9204:9213  _approves */\n      0x02\n        /* \"contracts/base/ERC721Test.sol\":9204:9222  _approves[tokenId] */\n      0x00\n        /* \"contracts/base/ERC721Test.sol\":9214:9221  tokenId */\n      dup4\n        /* \"contracts/base/ERC721Test.sol\":9204:9222  _approves[tokenId] */\n      dup2\n      mstore\n      0x20\n      add\n      swap1\n      dup2\n      mstore\n      0x20\n      add\n      0x00\n      keccak256\n      0x00\n      swap1\n      sload\n      swap1\n      0x0100\n      exp\n      swap1\n      div\n      0xffffffffffffffffffffffffffffffffffffffff\n      and\n        /* \"contracts/base/ERC721Test.sol\":9204:9236  _approves[tokenId] == msg.sender */\n      0xffffffffffffffffffffffffffffffffffffffff\n      and\n      eq\n        /* \"contracts/base/ERC721Test.sol\":9130:9236  isApprovedForAll[from][msg.sender]\r... */\n    tag_91:\n        /* \"contracts/base/ERC721Test.sol\":9122:9301  require(isApprovedForAll[from][msg.sender]\r... */\n      tag_92\n      jumpi\n      mload(0x40)\n      0x08c379a000000000000000000000000000000000000000000000000000000000\n      dup2\n      mstore\n      0x04\n      add\n      tag_93\n      swap1\n      tag_94\n      jump\t// in\n    tag_93:\n      mload(0x40)\n      dup1\n      swap2\n      sub\n      swap1\n      revert\n    tag_92:\n        /* \"contracts/base/ERC721Test.sol\":9313:9322  balanceOf */\n      0x00\n        /* \"contracts/base/ERC721Test.sol\":9313:9328  balanceOf[from] */\n      dup1\n        /* \"contracts/base/ERC721Test.sol\":9323:9327  from */\n      dup5\n        /* \"contracts/base/ERC721Test.sol\":9313:9328  balanceOf[from] */\n      0xffffffffffffffffffffffffffffffffffffffff\n      and\n      0xffffffffffffffffffffffffffffffffffffffff\n      and\n      dup2\n      mstore\n      0x20\n      add\n      swap1\n      dup2\n      mstore\n      0x20\n      add\n      0x00\n      keccak256\n      0x00\n        /* \"contracts/base/ERC721Test.sol\":9313:9330  balanceOf[from]-- */\n      dup2\n      sload\n      dup1\n      swap3\n      swap2\n      swap1\n      tag_95\n      swap1\n      tag_96\n      jump\t// in\n    tag_95:\n      swap2\n      swap1\n      pop\n      sstore\n      pop\n        /* \"contracts/base/ERC721Test.sol\":9342:9351  balanceOf */\n      0x00\n        /* \"contracts/base/ERC721Test.sol\":9342:9355  balanceOf[to] */\n      dup1\n        /* \"contracts/base/ERC721Test.sol\":9352:9354  to */\n      dup4\n        /* \"contracts/base/ERC721Test.sol\":9342:9355  balanceOf[to] */\n      0xffffffffffffffffffffffffffffffffffffffff\n      and\n      0xffffffffffffffffffffffffffffffffffffffff\n      and\n      dup2\n      mstore\n      0x20\n      add\n      swap1\n      dup2\n      mstore\n      0x20\n      add\n      0x00\n      keccak256\n      0x00\n        /* \"contracts/base/ERC721Test.sol\":9342:9357  balanceOf[to]++ */\n      dup2\n      sload\n      dup1\n      swap3\n      swap2\n      swap1\n      tag_97\n      swap1\n      tag_98\n      jump\t// in\n    tag_97:\n      swap2\n      swap1\n      pop\n      sstore\n      pop\n        /* \"contracts/base/ERC721Test.sol\":9388:9390  to */\n      dup2\n        /* \"contracts/base/ERC721Test.sol\":9369:9376  ownerOf */\n      0x01\n        /* \"contracts/base/ERC721Test.sol\":9369:9385  ownerOf[tokenId] */\n      0x00\n        /* \"contracts/base/ERC721Test.sol\":9377:9384  tokenId */\n      dup4\n        /* \"contracts/base/ERC721Test.sol\":9369:9385  ownerOf[tokenId] */\n      dup2\n      mstore\n      0x20\n      add\n      swap1\n      dup2\n      mstore\n      0x20\n      add\n      0x00\n      keccak256\n      0x00\n        /* \"contracts/base/ERC721Test.sol\":9369:9390  ownerOf[tokenId] = to */\n      0x0100\n      exp\n      dup2\n      sload\n      dup2\n      0xffffffffffffffffffffffffffffffffffffffff\n      mul\n      not\n      and\n      swap1\n      dup4\n      0xffffffffffffffffffffffffffffffffffffffff\n      and\n      mul\n      or\n      swap1\n      sstore\n      pop\n        /* \"contracts/base/ERC721Test.sol\":9409:9418  _approves */\n      0x02\n        /* \"contracts/base/ERC721Test.sol\":9409:9427  _approves[tokenId] */\n      0x00\n        /* \"contracts/base/ERC721Test.sol\":9419:9426  tokenId */\n      dup3\n        /* \"contracts/base/ERC721Test.sol\":9409:9427  _approves[tokenId] */\n      dup2\n      mstore\n      0x20\n      add\n      swap1\n      dup2\n      mstore\n      0x20\n      add\n      0x00\n      keccak256\n      0x00\n        /* \"contracts/base/ERC721Test.sol\":9402:9427  delete _approves[tokenId] */\n      0x0100\n      exp\n      dup2\n      sload\n      swap1\n      0xffffffffffffffffffffffffffffffffffffffff\n      mul\n      not\n      and\n      swap1\n      sstore\n        /* \"contracts/base/ERC721Test.sol\":9464:9471  tokenId */\n      dup1\n        /* \"contracts/base/ERC721Test.sol\":9460:9462  to */\n      dup3\n        /* \"contracts/base/ERC721Test.sol\":9444:9472  Transfer(from,  to, tokenId) */\n      0xffffffffffffffffffffffffffffffffffffffff\n      and\n        /* \"contracts/base/ERC721Test.sol\":9453:9457  from */\n      dup5\n        /* \"contracts/base/ERC721Test.sol\":9444:9472  Transfer(from,  to, tokenId) */\n      0xffffffffffffffffffffffffffffffffffffffff\n      and\n      0xddf252ad1be2c89b69c2b068fc378daa952ba7f163c4a11628f55a4df523b3ef\n      mload(0x40)\n      mload(0x40)\n      dup1\n      swap2\n      sub\n      swap1\n      log4\n        /* \"contracts/base/ERC721Test.sol\":8790:9480  function transferFrom(address from, address to, uint256 tokenId) override public {\r... */\n      pop\n      pop\n      pop\n      jump\t// out\n        /* \"contracts/base/ERC721Test.sol\":7365:7694  function safeTransferFrom(address from, address to, uint256 tokenId) override external{\r... */\n    tag_37:\n        /* \"contracts/base/ERC721Test.sol\":7462:7491  transferFrom(from,to,tokenId) */\n      tag_100\n        /* \"contracts/base/ERC721Test.sol\":7475:7479  from */\n      dup4\n        /* \"contracts/base/ERC721Test.sol\":7480:7482  to */\n      dup4\n        /* \"contracts/base/ERC721Test.sol\":7483:7490  tokenId */\n      dup4\n        /* \"contracts/base/ERC721Test.sol\":7462:7474  transferFrom */\n      tag_34\n        /* \"contracts/base/ERC721Test.sol\":7462:7491  transferFrom(from,to,tokenId) */\n      jump\t// in\n    tag_100:\n        /* \"contracts/base/ERC721Test.sol\":7528:7529  0 */\n      0x00\n        /* \"contracts/base/ERC721Test.sol\":7510:7512  to */\n      dup3\n        /* \"contracts/base/ERC721Test.sol\":7510:7524  to.code.length */\n      0xffffffffffffffffffffffffffffffffffffffff\n      and\n      extcodesize\n        /* \"contracts/base/ERC721Test.sol\":7510:7529  to.code.length == 0 */\n      eq\n        /* \"contracts/base/ERC721Test.sol\":7510:7650  to.code.length == 0 \r... */\n      dup1\n      tag_101\n      jumpi\n      pop\n        /* \"contracts/base/ERC721Test.sol\":7609:7650  IERC721Receiver.onERC721Received.selector */\n      shl(0xe0, 0x150b7a02)\n        /* \"contracts/base/ERC721Test.sol\":7543:7650  IERC721Receiver(to).onERC721Received(msg.sender,to,tokenId,\"\") == IERC721Receiver.onERC721Received.selector */\n      not(0xffffffffffffffffffffffffffffffffffffffffffffffffffffffff)\n      and\n        /* \"contracts/base/ERC721Test.sol\":7559:7561  to */\n      dup3\n        /* \"contracts/base/ERC721Test.sol\":7543:7579  IERC721Receiver(to).onERC721Received */\n      0xffffffffffffffffffffffffffffffffffffffff\n      and\n      0x150b7a02\n        /* \"contracts/base/ERC721Test.sol\":7580:7590  msg.sender */\n      caller\n        /* \"contracts/base/ERC721Test.sol\":7591:7593  to */\n      dup6\n        /* \"contracts/base/ERC721Test.sol\":7594:7601  tokenId */\n      dup6\n        /* \"contracts/base/ERC721Test.sol\":7543:7605  IERC721Receiver(to).onERC721Received(msg.sender,to,tokenId,\"\") */\n      mload(0x40)\n      dup5\n      0xffffffff\n      and\n      0xe0\n      shl\n      dup2\n      mstore\n      0x04\n      add\n      tag_102\n      swap4\n      swap3\n      swap2\n      swap1\n      tag_103\n      jump\t// in\n    tag_102:\n      0x20\n      mload(0x40)\n      dup1\n      dup4\n      sub\n      dup2\n      0x00\n      dup8\n      dup1\n      extcodesize\n      iszero\n      dup1\n      iszero\n      tag_104\n      jumpi\n      0x00\n      dup1\n      revert\n    tag_104:\n      pop\n      gas\n      call\n      iszero\n      dup1\n      iszero\n      tag_106\n      jumpi\n      returndatasize\n      0x00\n      dup1\n      returndatacopy\n      revert(0x00, returndatasize)\n    tag_106:\n      pop\n      pop\n      pop\n      pop\n      mload(0x40)\n      returndatasize\n      not(0x1f)\n      0x1f\n      dup3\n      add\n      and\n      dup3\n      add\n      dup1\n      0x40\n      mstore\n      pop\n      dup2\n      add\n      swap1\n      tag_107\n      swap2\n      swap1\n      tag_108\n      jump\t// in\n    tag_107:\n        /* \"contracts/base/ERC721Test.sol\":7543:7650  IERC721Receiver(to).onERC721Received(msg.sender,to,tokenId,\"\") == IERC721Receiver.onERC721Received.selector */\n      not(0xffffffffffffffffffffffffffffffffffffffffffffffffffffffff)\n      and\n      eq\n        /* \"contracts/base/ERC721Test.sol\":7510:7650  to.code.length == 0 \r... */\n    tag_101:\n        /* \"contracts/base/ERC721Test.sol\":7502:7686  require(to.code.length == 0 \r... */\n      tag_109\n      jumpi\n      mload(0x40)\n      0x08c379a000000000000000000000000000000000000000000000000000000000\n      dup2\n      mstore\n      0x04\n      add\n      tag_110\n      swap1\n      tag_111\n      jump\t// in\n    tag_110:\n      mload(0x40)\n      dup1\n      swap2\n      sub\n      swap1\n      revert\n    tag_109:\n        /* \"contracts/base/ERC721Test.sol\":7365:7694  function safeTransferFrom(address from, address to, uint256 tokenId) override external{\r... */\n      pop\n      pop\n      pop\n      jump\t// out\n        /* \"contracts/base/ERC721Test.sol\":5719:5770  mapping(uint256 => address) public override ownerOf */\n    tag_40:\n      mstore(0x20, 0x01)\n      dup1\n      0x00\n      mstore\n      keccak256(0x00, 0x40)\n      0x00\n      swap2\n      pop\n      sload\n      swap1\n      0x0100\n      exp\n      swap1\n      div\n      0xffffffffffffffffffffffffffffffffffffffff\n      and\n      dup2\n      jump\t// out\n        /* \"contracts/base/ERC721Test.sol\":5619:5672  mapping(address => uint256) public override balanceOf */\n    tag_45:\n      mstore(0x20, 0x00)\n      dup1\n      0x00\n      mstore\n      keccak256(0x00, 0x40)\n      0x00\n      swap2\n      pop\n      swap1\n      pop\n      sload\n      dup2\n      jump\t// out\n        /* \"contracts/base/ERC721Test.sol\":10696:10986  function setApprovalForAll(address operator, bool _approved) override external{\r... */\n    tag_51:\n        /* \"contracts/base/ERC721Test.sol\":10813:10814  0 */\n      0x00\n        /* \"contracts/base/ERC721Test.sol\":10793:10815  operator != address(0) */\n      0xffffffffffffffffffffffffffffffffffffffff\n      and\n        /* \"contracts/base/ERC721Test.sol\":10793:10801  operator */\n      dup3\n        /* \"contracts/base/ERC721Test.sol\":10793:10815  operator != address(0) */\n      0xffffffffffffffffffffffffffffffffffffffff\n      and\n      eq\n      iszero\n        /* \"contracts/base/ERC721Test.sol\":10785:10852  require(operator != address(0), \"operator address is 0 or not set\") */\n      tag_113\n      jumpi\n      mload(0x40)\n      0x08c379a000000000000000000000000000000000000000000000000000000000\n      dup2\n      mstore\n      0x04\n      add\n      tag_114\n      swap1\n      tag_115\n      jump\t// in\n    tag_114:\n      mload(0x40)\n      dup1\n      swap2\n      sub\n      swap1\n      revert\n    tag_113:\n        /* \"contracts/base/ERC721Test.sol\":10904:10913  _approved */\n      dup1\n        /* \"contracts/base/ERC721Test.sol\":10863:10879  isApprovedForAll */\n      0x03\n        /* \"contracts/base/ERC721Test.sol\":10863:10891  isApprovedForAll[msg.sender] */\n      0x00\n        /* \"contracts/base/ERC721Test.sol\":10880:10890  msg.sender */\n      caller\n        /* \"contracts/base/ERC721Test.sol\":10863:10891  isApprovedForAll[msg.sender] */\n      0xffffffffffffffffffffffffffffffffffffffff\n      and\n      0xffffffffffffffffffffffffffffffffffffffff\n      and\n      dup2\n      mstore\n      0x20\n      add\n      swap1\n      dup2\n      mstore\n      0x20\n      add\n      0x00\n      keccak256\n        /* \"contracts/base/ERC721Test.sol\":10863:10901  isApprovedForAll[msg.sender][operator] */\n      0x00\n        /* \"contracts/base/ERC721Test.sol\":10892:10900  operator */\n      dup5\n        /* \"contracts/base/ERC721Test.sol\":10863:10901  isApprovedForAll[msg.sender][operator] */\n      0xffffffffffffffffffffffffffffffffffffffff\n      and\n      0xffffffffffffffffffffffffffffffffffffffff\n      and\n      dup2\n      mstore\n      0x20\n      add\n      swap1\n      dup2\n      mstore\n      0x20\n      add\n      0x00\n      keccak256\n      0x00\n        /* \"contracts/base/ERC721Test.sol\":10863:10913  isApprovedForAll[msg.sender][operator] = _approved */\n      0x0100\n      exp\n      dup2\n      sload\n      dup2\n      0xff\n      mul\n      not\n      and\n      swap1\n      dup4\n      iszero\n      iszero\n      mul\n      or\n      swap1\n      sstore\n      pop\n        /* \"contracts/base/ERC721Test.sol\":10957:10965  operator */\n      dup2\n        /* \"contracts/base/ERC721Test.sol\":10930:10978  ApprovalForAll(msg.sender, operator,  _approved) */\n      0xffffffffffffffffffffffffffffffffffffffff\n      and\n        /* \"contracts/base/ERC721Test.sol\":10945:10955  msg.sender */\n      caller\n        /* \"contracts/base/ERC721Test.sol\":10930:10978  ApprovalForAll(msg.sender, operator,  _approved) */\n      0xffffffffffffffffffffffffffffffffffffffff\n      and\n      0x17307eab39ab6107e8899845ad3d59bd9653f200f220920489ca2b5937696c31\n        /* \"contracts/base/ERC721Test.sol\":10968:10977  _approved */\n      dup4\n        /* \"contracts/base/ERC721Test.sol\":10930:10978  ApprovalForAll(msg.sender, operator,  _approved) */\n      mload(0x40)\n      tag_116\n      swap2\n      swap1\n      tag_20\n      jump\t// in\n    tag_116:\n      mload(0x40)\n      dup1\n      swap2\n      sub\n      swap1\n      log3\n        /* \"contracts/base/ERC721Test.sol\":10696:10986  function setApprovalForAll(address operator, bool _approved) override external{\r... */\n      pop\n      pop\n      jump\t// out\n        /* \"contracts/base/ERC721Test.sol\":8110:8467  function safeTransferFrom(address from, address to, uint256 tokenId, bytes calldata data) override external{\r... */\n    tag_55:\n        /* \"contracts/base/ERC721Test.sol\":8233:8262  transferFrom(from,to,tokenId) */\n      tag_118\n        /* \"contracts/base/ERC721Test.sol\":8246:8250  from */\n      dup6\n        /* \"contracts/base/ERC721Test.sol\":8251:8253  to */\n      dup6\n        /* \"contracts/base/ERC721Test.sol\":8254:8261  tokenId */\n      dup6\n        /* \"contracts/base/ERC721Test.sol\":8233:8245  transferFrom */\n      tag_34\n        /* \"contracts/base/ERC721Test.sol\":8233:8262  transferFrom(from,to,tokenId) */\n      jump\t// in\n    tag_118:\n        /* \"contracts/base/ERC721Test.sol\":8299:8300  0 */\n      0x00\n        /* \"contracts/base/ERC721Test.sol\":8281:8283  to */\n      dup5\n        /* \"contracts/base/ERC721Test.sol\":8281:8295  to.code.length */\n      0xffffffffffffffffffffffffffffffffffffffff\n      and\n      extcodesize\n        /* \"contracts/base/ERC721Test.sol\":8281:8300  to.code.length == 0 */\n      eq\n        /* \"contracts/base/ERC721Test.sol\":8281:8423  to.code.length == 0 \r... */\n      dup1\n      tag_119\n      jumpi\n      pop\n        /* \"contracts/base/ERC721Test.sol\":8382:8423  IERC721Receiver.onERC721Received.selector */\n      shl(0xe0, 0x150b7a02)\n        /* \"contracts/base/ERC721Test.sol\":8314:8423  IERC721Receiver(to).onERC721Received(msg.sender,to,tokenId,data) == IERC721Receiver.onERC721Received.selector */\n      not(0xffffffffffffffffffffffffffffffffffffffffffffffffffffffff)\n      and\n        /* \"contracts/base/ERC721Test.sol\":8330:8332  to */\n      dup5\n        /* \"contracts/base/ERC721Test.sol\":8314:8350  IERC721Receiver(to).onERC721Received */\n      0xffffffffffffffffffffffffffffffffffffffff\n      and\n      0x150b7a02\n        /* \"contracts/base/ERC721Test.sol\":8351:8361  msg.sender */\n      caller\n        /* \"contracts/base/ERC721Test.sol\":8362:8364  to */\n      dup8\n        /* \"contracts/base/ERC721Test.sol\":8365:8372  tokenId */\n      dup8\n        /* \"contracts/base/ERC721Test.sol\":8373:8377  data */\n      dup8\n      dup8\n        /* \"contracts/base/ERC721Test.sol\":8314:8378  IERC721Receiver(to).onERC721Received(msg.sender,to,tokenId,data) */\n      mload(0x40)\n      dup7\n      0xffffffff\n      and\n      0xe0\n      shl\n      dup2\n      mstore\n      0x04\n      add\n      tag_120\n      swap6\n      swap5\n      swap4\n      swap3\n      swap2\n      swap1\n      tag_121\n      jump\t// in\n    tag_120:\n      0x20\n      mload(0x40)\n      dup1\n      dup4\n      sub\n      dup2\n      0x00\n      dup8\n      dup1\n      extcodesize\n      iszero\n      dup1\n      iszero\n      tag_122\n      jumpi\n      0x00\n      dup1\n      revert\n    tag_122:\n      pop\n      gas\n      call\n      iszero\n      dup1\n      iszero\n      tag_124\n      jumpi\n      returndatasize\n      0x00\n      dup1\n      returndatacopy\n      revert(0x00, returndatasize)\n    tag_124:\n      pop\n      pop\n      pop\n      pop\n      mload(0x40)\n      returndatasize\n      not(0x1f)\n      0x1f\n      dup3\n      add\n      and\n      dup3\n      add\n      dup1\n      0x40\n      mstore\n      pop\n      dup2\n      add\n      swap1\n      tag_125\n      swap2\n      swap1\n      tag_108\n      jump\t// in\n    tag_125:\n        /* \"contracts/base/ERC721Test.sol\":8314:8423  IERC721Receiver(to).onERC721Received(msg.sender,to,tokenId,data) == IERC721Receiver.onERC721Received.selector */\n      not(0xffffffffffffffffffffffffffffffffffffffffffffffffffffffff)\n      and\n      eq\n        /* \"contracts/base/ERC721Test.sol\":8281:8423  to.code.length == 0 \r... */\n    tag_119:\n        /* \"contracts/base/ERC721Test.sol\":8273:8459  require(to.code.length == 0 \r... */\n      tag_126\n      jumpi\n      mload(0x40)\n      0x08c379a000000000000000000000000000000000000000000000000000000000\n      dup2\n      mstore\n      0x04\n      add\n      tag_127\n      swap1\n      tag_111\n      jump\t// in\n    tag_127:\n      mload(0x40)\n      dup1\n      swap2\n      sub\n      swap1\n      revert\n    tag_126:\n        /* \"contracts/base/ERC721Test.sol\":8110:8467  function safeTransferFrom(address from, address to, uint256 tokenId, bytes calldata data) override external{\r... */\n      pop\n      pop\n      pop\n      pop\n      pop\n      jump\t// out\n        /* \"contracts/base/ERC721Test.sol\":5811:5855  mapping(uint256 => address) public _approves */\n    tag_58:\n      mstore(0x20, 0x02)\n      dup1\n      0x00\n      mstore\n      keccak256(0x00, 0x40)\n      0x00\n      swap2\n      pop\n      sload\n      swap1\n      0x0100\n      exp\n      swap1\n      div\n      0xffffffffffffffffffffffffffffffffffffffff\n      and\n      dup2\n      jump\t// out\n        /* \"contracts/base/ERC721Test.sol\":5902:5979  mapping(address => mapping(address => bool)) public override isApprovedForAll */\n    tag_63:\n      mstore(0x20, 0x03)\n      dup2\n      0x00\n      mstore\n      mstore(0x20, keccak256(0x00, 0x40))\n      dup1\n      0x00\n      mstore\n      keccak256(0x00, 0x40)\n      0x00\n      swap2\n      pop\n      swap2\n      pop\n      swap1\n      sload\n      swap1\n      0x0100\n      exp\n      swap1\n      div\n      0xff\n      and\n      dup2\n      jump\t// out\n        /* \"#utility.yul\":7:146   */\n    tag_129:\n        /* \"#utility.yul\":53:58   */\n      0x00\n        /* \"#utility.yul\":91:97   */\n      dup2\n        /* \"#utility.yul\":78:98   */\n      calldataload\n        /* \"#utility.yul\":69:98   */\n      swap1\n      pop\n        /* \"#utility.yul\":107:140   */\n      tag_131\n        /* \"#utility.yul\":134:139   */\n      dup2\n        /* \"#utility.yul\":107:140   */\n      tag_132\n      jump\t// in\n    tag_131:\n        /* \"#utility.yul\":59:146   */\n      swap3\n      swap2\n      pop\n      pop\n      jump\t// out\n        /* \"#utility.yul\":152:285   */\n    tag_133:\n        /* \"#utility.yul\":195:200   */\n      0x00\n        /* \"#utility.yul\":233:239   */\n      dup2\n        /* \"#utility.yul\":220:240   */\n      calldataload\n        /* \"#utility.yul\":211:240   */\n      swap1\n      pop\n        /* \"#utility.yul\":249:279   */\n      tag_135\n        /* \"#utility.yul\":273:278   */\n      dup2\n        /* \"#utility.yul\":249:279   */\n      tag_136\n      jump\t// in\n    tag_135:\n        /* \"#utility.yul\":201:285   */\n      swap3\n      swap2\n      pop\n      pop\n      jump\t// out\n        /* \"#utility.yul\":291:428   */\n    tag_137:\n        /* \"#utility.yul\":336:341   */\n      0x00\n        /* \"#utility.yul\":374:380   */\n      dup2\n        /* \"#utility.yul\":361:381   */\n      calldataload\n        /* \"#utility.yul\":352:381   */\n      swap1\n      pop\n        /* \"#utility.yul\":390:422   */\n      tag_139\n        /* \"#utility.yul\":416:421   */\n      dup2\n        /* \"#utility.yul\":390:422   */\n      tag_140\n      jump\t// in\n    tag_139:\n        /* \"#utility.yul\":342:428   */\n      swap3\n      swap2\n      pop\n      pop\n      jump\t// out\n        /* \"#utility.yul\":434:575   */\n    tag_141:\n        /* \"#utility.yul\":490:495   */\n      0x00\n        /* \"#utility.yul\":521:527   */\n      dup2\n        /* \"#utility.yul\":515:528   */\n      mload\n        /* \"#utility.yul\":506:528   */\n      swap1\n      pop\n        /* \"#utility.yul\":537:569   */\n      tag_143\n        /* \"#utility.yul\":563:568   */\n      dup2\n        /* \"#utility.yul\":537:569   */\n      tag_140\n      jump\t// in\n    tag_143:\n        /* \"#utility.yul\":496:575   */\n      swap3\n      swap2\n      pop\n      pop\n      jump\t// out\n        /* \"#utility.yul\":594:945   */\n    tag_144:\n        /* \"#utility.yul\":651:659   */\n      0x00\n        /* \"#utility.yul\":661:667   */\n      dup1\n        /* \"#utility.yul\":711:714   */\n      dup4\n        /* \"#utility.yul\":704:708   */\n      0x1f\n        /* \"#utility.yul\":696:702   */\n      dup5\n        /* \"#utility.yul\":692:709   */\n      add\n        /* \"#utility.yul\":688:715   */\n      slt\n        /* \"#utility.yul\":678:680   */\n      tag_146\n      jumpi\n        /* \"#utility.yul\":729:730   */\n      0x00\n        /* \"#utility.yul\":726:727   */\n      dup1\n        /* \"#utility.yul\":719:731   */\n      revert\n        /* \"#utility.yul\":678:680   */\n    tag_146:\n        /* \"#utility.yul\":765:771   */\n      dup3\n        /* \"#utility.yul\":752:772   */\n      calldataload\n        /* \"#utility.yul\":742:772   */\n      swap1\n      pop\n        /* \"#utility.yul\":795:813   */\n      0xffffffffffffffff\n        /* \"#utility.yul\":787:793   */\n      dup2\n        /* \"#utility.yul\":784:814   */\n      gt\n        /* \"#utility.yul\":781:783   */\n      iszero\n      tag_147\n      jumpi\n        /* \"#utility.yul\":827:828   */\n      0x00\n        /* \"#utility.yul\":824:825   */\n      dup1\n        /* \"#utility.yul\":817:829   */\n      revert\n        /* \"#utility.yul\":781:783   */\n    tag_147:\n        /* \"#utility.yul\":864:868   */\n      0x20\n        /* \"#utility.yul\":856:862   */\n      dup4\n        /* \"#utility.yul\":852:869   */\n      add\n        /* \"#utility.yul\":840:869   */\n      swap2\n      pop\n        /* \"#utility.yul\":918:921   */\n      dup4\n        /* \"#utility.yul\":910:914   */\n      0x01\n        /* \"#utility.yul\":902:908   */\n      dup3\n        /* \"#utility.yul\":898:915   */\n      mul\n        /* \"#utility.yul\":888:896   */\n      dup4\n        /* \"#utility.yul\":884:916   */\n      add\n        /* \"#utility.yul\":881:922   */\n      gt\n        /* \"#utility.yul\":878:880   */\n      iszero\n      tag_148\n      jumpi\n        /* \"#utility.yul\":935:936   */\n      0x00\n        /* \"#utility.yul\":932:933   */\n      dup1\n        /* \"#utility.yul\":925:937   */\n      revert\n        /* \"#utility.yul\":878:880   */\n    tag_148:\n        /* \"#utility.yul\":668:945   */\n      swap3\n      pop\n      swap3\n      swap1\n      pop\n      jump\t// out\n        /* \"#utility.yul\":951:1090   */\n    tag_149:\n        /* \"#utility.yul\":997:1002   */\n      0x00\n        /* \"#utility.yul\":1035:1041   */\n      dup2\n        /* \"#utility.yul\":1022:1042   */\n      calldataload\n        /* \"#utility.yul\":1013:1042   */\n      swap1\n      pop\n        /* \"#utility.yul\":1051:1084   */\n      tag_151\n        /* \"#utility.yul\":1078:1083   */\n      dup2\n        /* \"#utility.yul\":1051:1084   */\n      tag_152\n      jump\t// in\n    tag_151:\n        /* \"#utility.yul\":1003:1090   */\n      swap3\n      swap2\n      pop\n      pop\n      jump\t// out\n        /* \"#utility.yul\":1096:1358   */\n    tag_44:\n        /* \"#utility.yul\":1155:1161   */\n      0x00\n        /* \"#utility.yul\":1204:1206   */\n      0x20\n        /* \"#utility.yul\":1192:1201   */\n      dup3\n        /* \"#utility.yul\":1183:1190   */\n      dup5\n        /* \"#utility.yul\":1179:1202   */\n      sub\n        /* \"#utility.yul\":1175:1207   */\n      slt\n        /* \"#utility.yul\":1172:1174   */\n      iszero\n      tag_154\n      jumpi\n        /* \"#utility.yul\":1220:1221   */\n      0x00\n        /* \"#utility.yul\":1217:1218   */\n      dup1\n        /* \"#utility.yul\":1210:1222   */\n      revert\n        /* \"#utility.yul\":1172:1174   */\n    tag_154:\n        /* \"#utility.yul\":1263:1264   */\n      0x00\n        /* \"#utility.yul\":1288:1341   */\n      tag_155\n        /* \"#utility.yul\":1333:1340   */\n      dup5\n        /* \"#utility.yul\":1324:1330   */\n      dup3\n        /* \"#utility.yul\":1313:1322   */\n      dup6\n        /* \"#utility.yul\":1309:1331   */\n      add\n        /* \"#utility.yul\":1288:1341   */\n      tag_129\n      jump\t// in\n    tag_155:\n        /* \"#utility.yul\":1278:1341   */\n      swap2\n      pop\n        /* \"#utility.yul\":1234:1351   */\n      pop\n        /* \"#utility.yul\":1162:1358   */\n      swap3\n      swap2\n      pop\n      pop\n      jump\t// out\n        /* \"#utility.yul\":1364:1771   */\n    tag_62:\n        /* \"#utility.yul\":1432:1438   */\n      0x00\n        /* \"#utility.yul\":1440:1446   */\n      dup1\n        /* \"#utility.yul\":1489:1491   */\n      0x40\n        /* \"#utility.yul\":1477:1486   */\n      dup4\n        /* \"#utility.yul\":1468:1475   */\n      dup6\n        /* \"#utility.yul\":1464:1487   */\n      sub\n        /* \"#utility.yul\":1460:1492   */\n      slt\n        /* \"#utility.yul\":1457:1459   */\n      iszero\n      tag_157\n      jumpi\n        /* \"#utility.yul\":1505:1506   */\n      0x00\n        /* \"#utility.yul\":1502:1503   */\n      dup1\n        /* \"#utility.yul\":1495:1507   */\n      revert\n        /* \"#utility.yul\":1457:1459   */\n    tag_157:\n        /* \"#utility.yul\":1548:1549   */\n      0x00\n        /* \"#utility.yul\":1573:1626   */\n      tag_158\n        /* \"#utility.yul\":1618:1625   */\n      dup6\n        /* \"#utility.yul\":1609:1615   */\n      dup3\n        /* \"#utility.yul\":1598:1607   */\n      dup7\n        /* \"#utility.yul\":1594:1616   */\n      add\n        /* \"#utility.yul\":1573:1626   */\n      tag_129\n      jump\t// in\n    tag_158:\n        /* \"#utility.yul\":1563:1626   */\n      swap3\n      pop\n        /* \"#utility.yul\":1519:1636   */\n      pop\n        /* \"#utility.yul\":1675:1677   */\n      0x20\n        /* \"#utility.yul\":1701:1754   */\n      tag_159\n        /* \"#utility.yul\":1746:1753   */\n      dup6\n        /* \"#utility.yul\":1737:1743   */\n      dup3\n        /* \"#utility.yul\":1726:1735   */\n      dup7\n        /* \"#utility.yul\":1722:1744   */\n      add\n        /* \"#utility.yul\":1701:1754   */\n      tag_129\n      jump\t// in\n    tag_159:\n        /* \"#utility.yul\":1691:1754   */\n      swap2\n      pop\n        /* \"#utility.yul\":1646:1764   */\n      pop\n        /* \"#utility.yul\":1447:1771   */\n      swap3\n      pop\n      swap3\n      swap1\n      pop\n      jump\t// out\n        /* \"#utility.yul\":1777:2329   */\n    tag_33:\n        /* \"#utility.yul\":1854:1860   */\n      0x00\n        /* \"#utility.yul\":1862:1868   */\n      dup1\n        /* \"#utility.yul\":1870:1876   */\n      0x00\n        /* \"#utility.yul\":1919:1921   */\n      0x60\n        /* \"#utility.yul\":1907:1916   */\n      dup5\n        /* \"#utility.yul\":1898:1905   */\n      dup7\n        /* \"#utility.yul\":1894:1917   */\n      sub\n        /* \"#utility.yul\":1890:1922   */\n      slt\n        /* \"#utility.yul\":1887:1889   */\n      iszero\n      tag_161\n      jumpi\n        /* \"#utility.yul\":1935:1936   */\n      0x00\n        /* \"#utility.yul\":1932:1933   */\n      dup1\n        /* \"#utility.yul\":1925:1937   */\n      revert\n        /* \"#utility.yul\":1887:1889   */\n    tag_161:\n        /* \"#utility.yul\":1978:1979   */\n      0x00\n        /* \"#utility.yul\":2003:2056   */\n      tag_162\n        /* \"#utility.yul\":2048:2055   */\n      dup7\n        /* \"#utility.yul\":2039:2045   */\n      dup3\n        /* \"#utility.yul\":2028:2037   */\n      dup8\n        /* \"#utility.yul\":2024:2046   */\n      add\n        /* \"#utility.yul\":2003:2056   */\n      tag_129\n      jump\t// in\n    tag_162:\n        /* \"#utility.yul\":1993:2056   */\n      swap4\n      pop\n        /* \"#utility.yul\":1949:2066   */\n      pop\n        /* \"#utility.yul\":2105:2107   */\n      0x20\n        /* \"#utility.yul\":2131:2184   */\n      tag_163\n        /* \"#utility.yul\":2176:2183   */\n      dup7\n        /* \"#utility.yul\":2167:2173   */\n      dup3\n        /* \"#utility.yul\":2156:2165   */\n      dup8\n        /* \"#utility.yul\":2152:2174   */\n      add\n        /* \"#utility.yul\":2131:2184   */\n      tag_129\n      jump\t// in\n    tag_163:\n        /* \"#utility.yul\":2121:2184   */\n      swap3\n      pop\n        /* \"#utility.yul\":2076:2194   */\n      pop\n        /* \"#utility.yul\":2233:2235   */\n      0x40\n        /* \"#utility.yul\":2259:2312   */\n      tag_164\n        /* \"#utility.yul\":2304:2311   */\n      dup7\n        /* \"#utility.yul\":2295:2301   */\n      dup3\n        /* \"#utility.yul\":2284:2293   */\n      dup8\n        /* \"#utility.yul\":2280:2302   */\n      add\n        /* \"#utility.yul\":2259:2312   */\n      tag_149\n      jump\t// in\n    tag_164:\n        /* \"#utility.yul\":2249:2312   */\n      swap2\n      pop\n        /* \"#utility.yul\":2204:2322   */\n      pop\n        /* \"#utility.yul\":1877:2329   */\n      swap3\n      pop\n      swap3\n      pop\n      swap3\n      jump\t// out\n        /* \"#utility.yul\":2335:3164   */\n    tag_54:\n        /* \"#utility.yul\":2432:2438   */\n      0x00\n        /* \"#utility.yul\":2440:2446   */\n      dup1\n        /* \"#utility.yul\":2448:2454   */\n      0x00\n        /* \"#utility.yul\":2456:2462   */\n      dup1\n        /* \"#utility.yul\":2464:2470   */\n      0x00\n        /* \"#utility.yul\":2513:2516   */\n      0x80\n        /* \"#utility.yul\":2501:2510   */\n      dup7\n        /* \"#utility.yul\":2492:2499   */\n      dup9\n        /* \"#utility.yul\":2488:2511   */\n      sub\n        /* \"#utility.yul\":2484:2517   */\n      slt\n        /* \"#utility.yul\":2481:2483   */\n      iszero\n      tag_166\n      jumpi\n        /* \"#utility.yul\":2530:2531   */\n      0x00\n        /* \"#utility.yul\":2527:2528   */\n      dup1\n        /* \"#utility.yul\":2520:2532   */\n      revert\n        /* \"#utility.yul\":2481:2483   */\n    tag_166:\n        /* \"#utility.yul\":2573:2574   */\n      0x00\n        /* \"#utility.yul\":2598:2651   */\n      tag_167\n        /* \"#utility.yul\":2643:2650   */\n      dup9\n        /* \"#utility.yul\":2634:2640   */\n      dup3\n        /* \"#utility.yul\":2623:2632   */\n      dup10\n        /* \"#utility.yul\":2619:2641   */\n      add\n        /* \"#utility.yul\":2598:2651   */\n      tag_129\n      jump\t// in\n    tag_167:\n        /* \"#utility.yul\":2588:2651   */\n      swap6\n      pop\n        /* \"#utility.yul\":2544:2661   */\n      pop\n        /* \"#utility.yul\":2700:2702   */\n      0x20\n        /* \"#utility.yul\":2726:2779   */\n      tag_168\n        /* \"#utility.yul\":2771:2778   */\n      dup9\n        /* \"#utility.yul\":2762:2768   */\n      dup3\n        /* \"#utility.yul\":2751:2760   */\n      dup10\n        /* \"#utility.yul\":2747:2769   */\n      add\n        /* \"#utility.yul\":2726:2779   */\n      tag_129\n      jump\t// in\n    tag_168:\n        /* \"#utility.yul\":2716:2779   */\n      swap5\n      pop\n        /* \"#utility.yul\":2671:2789   */\n      pop\n        /* \"#utility.yul\":2828:2830   */\n      0x40\n        /* \"#utility.yul\":2854:2907   */\n      tag_169\n        /* \"#utility.yul\":2899:2906   */\n      dup9\n        /* \"#utility.yul\":2890:2896   */\n      dup3\n        /* \"#utility.yul\":2879:2888   */\n      dup10\n        /* \"#utility.yul\":2875:2897   */\n      add\n        /* \"#utility.yul\":2854:2907   */\n      tag_149\n      jump\t// in\n    tag_169:\n        /* \"#utility.yul\":2844:2907   */\n      swap4\n      pop\n        /* \"#utility.yul\":2799:2917   */\n      pop\n        /* \"#utility.yul\":2984:2986   */\n      0x60\n        /* \"#utility.yul\":2973:2982   */\n      dup7\n        /* \"#utility.yul\":2969:2987   */\n      add\n        /* \"#utility.yul\":2956:2988   */\n      calldataload\n        /* \"#utility.yul\":3015:3033   */\n      0xffffffffffffffff\n        /* \"#utility.yul\":3007:3013   */\n      dup2\n        /* \"#utility.yul\":3004:3034   */\n      gt\n        /* \"#utility.yul\":3001:3003   */\n      iszero\n      tag_170\n      jumpi\n        /* \"#utility.yul\":3047:3048   */\n      0x00\n        /* \"#utility.yul\":3044:3045   */\n      dup1\n        /* \"#utility.yul\":3037:3049   */\n      revert\n        /* \"#utility.yul\":3001:3003   */\n    tag_170:\n        /* \"#utility.yul\":3083:3147   */\n      tag_171\n        /* \"#utility.yul\":3139:3146   */\n      dup9\n        /* \"#utility.yul\":3130:3136   */\n      dup3\n        /* \"#utility.yul\":3119:3128   */\n      dup10\n        /* \"#utility.yul\":3115:3137   */\n      add\n        /* \"#utility.yul\":3083:3147   */\n      tag_144\n      jump\t// in\n    tag_171:\n        /* \"#utility.yul\":3065:3147   */\n      swap3\n      pop\n      swap3\n      pop\n        /* \"#utility.yul\":2927:3157   */\n      pop\n        /* \"#utility.yul\":2471:3164   */\n      swap3\n      swap6\n      pop\n      swap3\n      swap6\n      swap1\n      swap4\n      pop\n      jump\t// out\n        /* \"#utility.yul\":3170:3571   */\n    tag_50:\n        /* \"#utility.yul\":3235:3241   */\n      0x00\n        /* \"#utility.yul\":3243:3249   */\n      dup1\n        /* \"#utility.yul\":3292:3294   */\n      0x40\n        /* \"#utility.yul\":3280:3289   */\n      dup4\n        /* \"#utility.yul\":3271:3278   */\n      dup6\n        /* \"#utility.yul\":3267:3290   */\n      sub\n        /* \"#utility.yul\":3263:3295   */\n      slt\n        /* \"#utility.yul\":3260:3262   */\n      iszero\n      tag_173\n      jumpi\n        /* \"#utility.yul\":3308:3309   */\n      0x00\n        /* \"#utility.yul\":3305:3306   */\n      dup1\n        /* \"#utility.yul\":3298:3310   */\n      revert\n        /* \"#utility.yul\":3260:3262   */\n    tag_173:\n        /* \"#utility.yul\":3351:3352   */\n      0x00\n        /* \"#utility.yul\":3376:3429   */\n      tag_174\n        /* \"#utility.yul\":3421:3428   */\n      dup6\n        /* \"#utility.yul\":3412:3418   */\n      dup3\n        /* \"#utility.yul\":3401:3410   */\n      dup7\n        /* \"#utility.yul\":3397:3419   */\n      add\n        /* \"#utility.yul\":3376:3429   */\n      tag_129\n      jump\t// in\n    tag_174:\n        /* \"#utility.yul\":3366:3429   */\n      swap3\n      pop\n        /* \"#utility.yul\":3322:3439   */\n      pop\n        /* \"#utility.yul\":3478:3480   */\n      0x20\n        /* \"#utility.yul\":3504:3554   */\n      tag_175\n        /* \"#utility.yul\":3546:3553   */\n      dup6\n        /* \"#utility.yul\":3537:3543   */\n      dup3\n        /* \"#utility.yul\":3526:3535   */\n      dup7\n        /* \"#utility.yul\":3522:3544   */\n      add\n        /* \"#utility.yul\":3504:3554   */\n      tag_133\n      jump\t// in\n    tag_175:\n        /* \"#utility.yul\":3494:3554   */\n      swap2\n      pop\n        /* \"#utility.yul\":3449:3564   */\n      pop\n        /* \"#utility.yul\":3250:3571   */\n      swap3\n      pop\n      swap3\n      swap1\n      pop\n      jump\t// out\n        /* \"#utility.yul\":3577:3984   */\n    tag_29:\n        /* \"#utility.yul\":3645:3651   */\n      0x00\n        /* \"#utility.yul\":3653:3659   */\n      dup1\n        /* \"#utility.yul\":3702:3704   */\n      0x40\n        /* \"#utility.yul\":3690:3699   */\n      dup4\n        /* \"#utility.yul\":3681:3688   */\n      dup6\n        /* \"#utility.yul\":3677:3700   */\n      sub\n        /* \"#utility.yul\":3673:3705   */\n      slt\n        /* \"#utility.yul\":3670:3672   */\n      iszero\n      tag_177\n      jumpi\n        /* \"#utility.yul\":3718:3719   */\n      0x00\n        /* \"#utility.yul\":3715:3716   */\n      dup1\n        /* \"#utility.yul\":3708:3720   */\n      revert\n        /* \"#utility.yul\":3670:3672   */\n    tag_177:\n        /* \"#utility.yul\":3761:3762   */\n      0x00\n        /* \"#utility.yul\":3786:3839   */\n      tag_178\n        /* \"#utility.yul\":3831:3838   */\n      dup6\n        /* \"#utility.yul\":3822:3828   */\n      dup3\n        /* \"#utility.yul\":3811:3820   */\n      dup7\n        /* \"#utility.yul\":3807:3829   */\n      add\n        /* \"#utility.yul\":3786:3839   */\n      tag_129\n      jump\t// in\n    tag_178:\n        /* \"#utility.yul\":3776:3839   */\n      swap3\n      pop\n        /* \"#utility.yul\":3732:3849   */\n      pop\n        /* \"#utility.yul\":3888:3890   */\n      0x20\n        /* \"#utility.yul\":3914:3967   */\n      tag_179\n        /* \"#utility.yul\":3959:3966   */\n      dup6\n        /* \"#utility.yul\":3950:3956   */\n      dup3\n        /* \"#utility.yul\":3939:3948   */\n      dup7\n        /* \"#utility.yul\":3935:3957   */\n      add\n        /* \"#utility.yul\":3914:3967   */\n      tag_149\n      jump\t// in\n    tag_179:\n        /* \"#utility.yul\":3904:3967   */\n      swap2\n      pop\n        /* \"#utility.yul\":3859:3977   */\n      pop\n        /* \"#utility.yul\":3660:3984   */\n      swap3\n      pop\n      swap3\n      swap1\n      pop\n      jump\t// out\n        /* \"#utility.yul\":3990:4250   */\n    tag_17:\n        /* \"#utility.yul\":4048:4054   */\n      0x00\n        /* \"#utility.yul\":4097:4099   */\n      0x20\n        /* \"#utility.yul\":4085:4094   */\n      dup3\n        /* \"#utility.yul\":4076:4083   */\n      dup5\n        /* \"#utility.yul\":4072:4095   */\n      sub\n        /* \"#utility.yul\":4068:4100   */\n      slt\n        /* \"#utility.yul\":4065:4067   */\n      iszero\n      tag_181\n      jumpi\n        /* \"#utility.yul\":4113:4114   */\n      0x00\n        /* \"#utility.yul\":4110:4111   */\n      dup1\n        /* \"#utility.yul\":4103:4115   */\n      revert\n        /* \"#utility.yul\":4065:4067   */\n    tag_181:\n        /* \"#utility.yul\":4156:4157   */\n      0x00\n        /* \"#utility.yul\":4181:4233   */\n      tag_182\n        /* \"#utility.yul\":4225:4232   */\n      dup5\n        /* \"#utility.yul\":4216:4222   */\n      dup3\n        /* \"#utility.yul\":4205:4214   */\n      dup6\n        /* \"#utility.yul\":4201:4223   */\n      add\n        /* \"#utility.yul\":4181:4233   */\n      tag_137\n      jump\t// in\n    tag_182:\n        /* \"#utility.yul\":4171:4233   */\n      swap2\n      pop\n        /* \"#utility.yul\":4127:4243   */\n      pop\n        /* \"#utility.yul\":4055:4250   */\n      swap3\n      swap2\n      pop\n      pop\n      jump\t// out\n        /* \"#utility.yul\":4256:4538   */\n    tag_108:\n        /* \"#utility.yul\":4325:4331   */\n      0x00\n        /* \"#utility.yul\":4374:4376   */\n      0x20\n        /* \"#utility.yul\":4362:4371   */\n      dup3\n        /* \"#utility.yul\":4353:4360   */\n      dup5\n        /* \"#utility.yul\":4349:4372   */\n      sub\n        /* \"#utility.yul\":4345:4377   */\n      slt\n        /* \"#utility.yul\":4342:4344   */\n      iszero\n      tag_184\n      jumpi\n        /* \"#utility.yul\":4390:4391   */\n      0x00\n        /* \"#utility.yul\":4387:4388   */\n      dup1\n        /* \"#utility.yul\":4380:4392   */\n      revert\n        /* \"#utility.yul\":4342:4344   */\n    tag_184:\n        /* \"#utility.yul\":4433:4434   */\n      0x00\n        /* \"#utility.yul\":4458:4521   */\n      tag_185\n        /* \"#utility.yul\":4513:4520   */\n      dup5\n        /* \"#utility.yul\":4504:4510   */\n      dup3\n        /* \"#utility.yul\":4493:4502   */\n      dup6\n        /* \"#utility.yul\":4489:4511   */\n      add\n        /* \"#utility.yul\":4458:4521   */\n      tag_141\n      jump\t// in\n    tag_185:\n        /* \"#utility.yul\":4448:4521   */\n      swap2\n      pop\n        /* \"#utility.yul\":4404:4531   */\n      pop\n        /* \"#utility.yul\":4332:4538   */\n      swap3\n      swap2\n      pop\n      pop\n      jump\t// out\n        /* \"#utility.yul\":4544:4806   */\n    tag_23:\n        /* \"#utility.yul\":4603:4609   */\n      0x00\n        /* \"#utility.yul\":4652:4654   */\n      0x20\n        /* \"#utility.yul\":4640:4649   */\n      dup3\n        /* \"#utility.yul\":4631:4638   */\n      dup5\n        /* \"#utility.yul\":4627:4650   */\n      sub\n        /* \"#utility.yul\":4623:4655   */\n      slt\n        /* \"#utility.yul\":4620:4622   */\n      iszero\n      tag_187\n      jumpi\n        /* \"#utility.yul\":4668:4669   */\n      0x00\n        /* \"#utility.yul\":4665:4666   */\n      dup1\n        /* \"#utility.yul\":4658:4670   */\n      revert\n        /* \"#utility.yul\":4620:4622   */\n    tag_187:\n        /* \"#utility.yul\":4711:4712   */\n      0x00\n        /* \"#utility.yul\":4736:4789   */\n      tag_188\n        /* \"#utility.yul\":4781:4788   */\n      dup5\n        /* \"#utility.yul\":4772:4778   */\n      dup3\n        /* \"#utility.yul\":4761:4770   */\n      dup6\n        /* \"#utility.yul\":4757:4779   */\n      add\n        /* \"#utility.yul\":4736:4789   */\n      tag_149\n      jump\t// in\n    tag_188:\n        /* \"#utility.yul\":4726:4789   */\n      swap2\n      pop\n        /* \"#utility.yul\":4682:4799   */\n      pop\n        /* \"#utility.yul\":4610:4806   */\n      swap3\n      swap2\n      pop\n      pop\n      jump\t// out\n        /* \"#utility.yul\":4812:4930   */\n    tag_189:\n        /* \"#utility.yul\":4899:4923   */\n      tag_191\n        /* \"#utility.yul\":4917:4922   */\n      dup2\n        /* \"#utility.yul\":4899:4923   */\n      tag_192\n      jump\t// in\n    tag_191:\n        /* \"#utility.yul\":4894:4897   */\n      dup3\n        /* \"#utility.yul\":4887:4924   */\n      mstore\n        /* \"#utility.yul\":4877:4930   */\n      pop\n      pop\n      jump\t// out\n        /* \"#utility.yul\":4936:5045   */\n    tag_193:\n        /* \"#utility.yul\":5017:5038   */\n      tag_195\n        /* \"#utility.yul\":5032:5037   */\n      dup2\n        /* \"#utility.yul\":5017:5038   */\n      tag_196\n      jump\t// in\n    tag_195:\n        /* \"#utility.yul\":5012:5015   */\n      dup3\n        /* \"#utility.yul\":5005:5039   */\n      mstore\n        /* \"#utility.yul\":4995:5045   */\n      pop\n      pop\n      jump\t// out\n        /* \"#utility.yul\":5073:5374   */\n    tag_197:\n        /* \"#utility.yul\":5169:5172   */\n      0x00\n        /* \"#utility.yul\":5190:5260   */\n      tag_199\n        /* \"#utility.yul\":5253:5259   */\n      dup4\n        /* \"#utility.yul\":5248:5251   */\n      dup6\n        /* \"#utility.yul\":5190:5260   */\n      tag_200\n      jump\t// in\n    tag_199:\n        /* \"#utility.yul\":5183:5260   */\n      swap4\n      pop\n        /* \"#utility.yul\":5270:5313   */\n      tag_201\n        /* \"#utility.yul\":5306:5312   */\n      dup4\n        /* \"#utility.yul\":5301:5304   */\n      dup6\n        /* \"#utility.yul\":5294:5299   */\n      dup5\n        /* \"#utility.yul\":5270:5313   */\n      tag_202\n      jump\t// in\n    tag_201:\n        /* \"#utility.yul\":5338:5367   */\n      tag_203\n        /* \"#utility.yul\":5360:5366   */\n      dup4\n        /* \"#utility.yul\":5338:5367   */\n      tag_204\n      jump\t// in\n    tag_203:\n        /* \"#utility.yul\":5333:5336   */\n      dup5\n        /* \"#utility.yul\":5329:5368   */\n      add\n        /* \"#utility.yul\":5322:5368   */\n      swap1\n      pop\n        /* \"#utility.yul\":5173:5374   */\n      swap4\n      swap3\n      pop\n      pop\n      pop\n      jump\t// out\n        /* \"#utility.yul\":5380:5746   */\n    tag_205:\n        /* \"#utility.yul\":5522:5525   */\n      0x00\n        /* \"#utility.yul\":5543:5610   */\n      tag_207\n        /* \"#utility.yul\":5607:5609   */\n      0x0c\n        /* \"#utility.yul\":5602:5605   */\n      dup4\n        /* \"#utility.yul\":5543:5610   */\n      tag_208\n      jump\t// in\n    tag_207:\n        /* \"#utility.yul\":5536:5610   */\n      swap2\n      pop\n        /* \"#utility.yul\":5619:5712   */\n      tag_209\n        /* \"#utility.yul\":5708:5711   */\n      dup3\n        /* \"#utility.yul\":5619:5712   */\n      tag_210\n      jump\t// in\n    tag_209:\n        /* \"#utility.yul\":5737:5739   */\n      0x20\n        /* \"#utility.yul\":5732:5735   */\n      dup3\n        /* \"#utility.yul\":5728:5740   */\n      add\n        /* \"#utility.yul\":5721:5740   */\n      swap1\n      pop\n        /* \"#utility.yul\":5526:5746   */\n      swap2\n      swap1\n      pop\n      jump\t// out\n        /* \"#utility.yul\":5752:6118   */\n    tag_211:\n        /* \"#utility.yul\":5894:5897   */\n      0x00\n        /* \"#utility.yul\":5915:5982   */\n      tag_213\n        /* \"#utility.yul\":5979:5981   */\n      0x12\n        /* \"#utility.yul\":5974:5977   */\n      dup4\n        /* \"#utility.yul\":5915:5982   */\n      tag_208\n      jump\t// in\n    tag_213:\n        /* \"#utility.yul\":5908:5982   */\n      swap2\n      pop\n        /* \"#utility.yul\":5991:6084   */\n      tag_214\n        /* \"#utility.yul\":6080:6083   */\n      dup3\n        /* \"#utility.yul\":5991:6084   */\n      tag_215\n      jump\t// in\n    tag_214:\n        /* \"#utility.yul\":6109:6111   */\n      0x20\n        /* \"#utility.yul\":6104:6107   */\n      dup3\n        /* \"#utility.yul\":6100:6112   */\n      add\n        /* \"#utility.yul\":6093:6112   */\n      swap1\n      pop\n        /* \"#utility.yul\":5898:6118   */\n      swap2\n      swap1\n      pop\n      jump\t// out\n        /* \"#utility.yul\":6124:6490   */\n    tag_216:\n        /* \"#utility.yul\":6266:6269   */\n      0x00\n        /* \"#utility.yul\":6287:6354   */\n      tag_218\n        /* \"#utility.yul\":6351:6353   */\n      0x1f\n        /* \"#utility.yul\":6346:6349   */\n      dup4\n        /* \"#utility.yul\":6287:6354   */\n      tag_208\n      jump\t// in\n    tag_218:\n        /* \"#utility.yul\":6280:6354   */\n      swap2\n      pop\n        /* \"#utility.yul\":6363:6456   */\n      tag_219\n        /* \"#utility.yul\":6452:6455   */\n      dup3\n        /* \"#utility.yul\":6363:6456   */\n      tag_220\n      jump\t// in\n    tag_219:\n        /* \"#utility.yul\":6481:6483   */\n      0x20\n        /* \"#utility.yul\":6476:6479   */\n      dup3\n        /* \"#utility.yul\":6472:6484   */\n      add\n        /* \"#utility.yul\":6465:6484   */\n      swap1\n      pop\n        /* \"#utility.yul\":6270:6490   */\n      swap2\n      swap1\n      pop\n      jump\t// out\n        /* \"#utility.yul\":6496:6862   */\n    tag_221:\n        /* \"#utility.yul\":6638:6641   */\n      0x00\n        /* \"#utility.yul\":6659:6726   */\n      tag_223\n        /* \"#utility.yul\":6723:6725   */\n      0x15\n        /* \"#utility.yul\":6718:6721   */\n      dup4\n        /* \"#utility.yul\":6659:6726   */\n      tag_208\n      jump\t// in\n    tag_223:\n        /* \"#utility.yul\":6652:6726   */\n      swap2\n      pop\n        /* \"#utility.yul\":6735:6828   */\n      tag_224\n        /* \"#utility.yul\":6824:6827   */\n      dup3\n        /* \"#utility.yul\":6735:6828   */\n      tag_225\n      jump\t// in\n    tag_224:\n        /* \"#utility.yul\":6853:6855   */\n      0x20\n        /* \"#utility.yul\":6848:6851   */\n      dup3\n        /* \"#utility.yul\":6844:6856   */\n      add\n        /* \"#utility.yul\":6837:6856   */\n      swap1\n      pop\n        /* \"#utility.yul\":6642:6862   */\n      swap2\n      swap1\n      pop\n      jump\t// out\n        /* \"#utility.yul\":6868:7234   */\n    tag_226:\n        /* \"#utility.yul\":7010:7013   */\n      0x00\n        /* \"#utility.yul\":7031:7098   */\n      tag_228\n        /* \"#utility.yul\":7095:7097   */\n      0x20\n        /* \"#utility.yul\":7090:7093   */\n      dup4\n        /* \"#utility.yul\":7031:7098   */\n      tag_208\n      jump\t// in\n    tag_228:\n        /* \"#utility.yul\":7024:7098   */\n      swap2\n      pop\n        /* \"#utility.yul\":7107:7200   */\n      tag_229\n        /* \"#utility.yul\":7196:7199   */\n      dup3\n        /* \"#utility.yul\":7107:7200   */\n      tag_230\n      jump\t// in\n    tag_229:\n        /* \"#utility.yul\":7225:7227   */\n      0x20\n        /* \"#utility.yul\":7220:7223   */\n      dup3\n        /* \"#utility.yul\":7216:7228   */\n      add\n        /* \"#utility.yul\":7209:7228   */\n      swap1\n      pop\n        /* \"#utility.yul\":7014:7234   */\n      swap2\n      swap1\n      pop\n      jump\t// out\n        /* \"#utility.yul\":7240:7606   */\n    tag_231:\n        /* \"#utility.yul\":7382:7385   */\n      0x00\n        /* \"#utility.yul\":7403:7470   */\n      tag_233\n        /* \"#utility.yul\":7467:7469   */\n      0x35\n        /* \"#utility.yul\":7462:7465   */\n      dup4\n        /* \"#utility.yul\":7403:7470   */\n      tag_208\n      jump\t// in\n    tag_233:\n        /* \"#utility.yul\":7396:7470   */\n      swap2\n      pop\n        /* \"#utility.yul\":7479:7572   */\n      tag_234\n        /* \"#utility.yul\":7568:7571   */\n      dup3\n        /* \"#utility.yul\":7479:7572   */\n      tag_235\n      jump\t// in\n    tag_234:\n        /* \"#utility.yul\":7597:7599   */\n      0x40\n        /* \"#utility.yul\":7592:7595   */\n      dup3\n        /* \"#utility.yul\":7588:7600   */\n      add\n        /* \"#utility.yul\":7581:7600   */\n      swap1\n      pop\n        /* \"#utility.yul\":7386:7606   */\n      swap2\n      swap1\n      pop\n      jump\t// out\n        /* \"#utility.yul\":7612:7974   */\n    tag_236:\n        /* \"#utility.yul\":7753:7756   */\n      0x00\n        /* \"#utility.yul\":7774:7839   */\n      tag_238\n        /* \"#utility.yul\":7837:7838   */\n      0x00\n        /* \"#utility.yul\":7832:7835   */\n      dup4\n        /* \"#utility.yul\":7774:7839   */\n      tag_200\n      jump\t// in\n    tag_238:\n        /* \"#utility.yul\":7767:7839   */\n      swap2\n      pop\n        /* \"#utility.yul\":7848:7941   */\n      tag_239\n        /* \"#utility.yul\":7937:7940   */\n      dup3\n        /* \"#utility.yul\":7848:7941   */\n      tag_240\n      jump\t// in\n    tag_239:\n        /* \"#utility.yul\":7966:7967   */\n      0x00\n        /* \"#utility.yul\":7961:7964   */\n      dup3\n        /* \"#utility.yul\":7957:7968   */\n      add\n        /* \"#utility.yul\":7950:7968   */\n      swap1\n      pop\n        /* \"#utility.yul\":7757:7974   */\n      swap2\n      swap1\n      pop\n      jump\t// out\n        /* \"#utility.yul\":7980:8346   */\n    tag_241:\n        /* \"#utility.yul\":8122:8125   */\n      0x00\n        /* \"#utility.yul\":8143:8210   */\n      tag_243\n        /* \"#utility.yul\":8207:8209   */\n      0x31\n        /* \"#utility.yul\":8202:8205   */\n      dup4\n        /* \"#utility.yul\":8143:8210   */\n      tag_208\n      jump\t// in\n    tag_243:\n        /* \"#utility.yul\":8136:8210   */\n      swap2\n      pop\n        /* \"#utility.yul\":8219:8312   */\n      tag_244\n        /* \"#utility.yul\":8308:8311   */\n      dup3\n        /* \"#utility.yul\":8219:8312   */\n      tag_245\n      jump\t// in\n    tag_244:\n        /* \"#utility.yul\":8337:8339   */\n      0x40\n        /* \"#utility.yul\":8332:8335   */\n      dup3\n        /* \"#utility.yul\":8328:8340   */\n      add\n        /* \"#utility.yul\":8321:8340   */\n      swap1\n      pop\n        /* \"#utility.yul\":8126:8346   */\n      swap2\n      swap1\n      pop\n      jump\t// out\n        /* \"#utility.yul\":8352:8718   */\n    tag_246:\n        /* \"#utility.yul\":8494:8497   */\n      0x00\n        /* \"#utility.yul\":8515:8582   */\n      tag_248\n        /* \"#utility.yul\":8579:8581   */\n      0x20\n        /* \"#utility.yul\":8574:8577   */\n      dup4\n        /* \"#utility.yul\":8515:8582   */\n      tag_208\n      jump\t// in\n    tag_248:\n        /* \"#utility.yul\":8508:8582   */\n      swap2\n      pop\n        /* \"#utility.yul\":8591:8684   */\n      tag_249\n        /* \"#utility.yul\":8680:8683   */\n      dup3\n        /* \"#utility.yul\":8591:8684   */\n      tag_250\n      jump\t// in\n    tag_249:\n        /* \"#utility.yul\":8709:8711   */\n      0x20\n        /* \"#utility.yul\":8704:8707   */\n      dup3\n        /* \"#utility.yul\":8700:8712   */\n      add\n        /* \"#utility.yul\":8693:8712   */\n      swap1\n      pop\n        /* \"#utility.yul\":8498:8718   */\n      swap2\n      swap1\n      pop\n      jump\t// out\n        /* \"#utility.yul\":8724:8842   */\n    tag_251:\n        /* \"#utility.yul\":8811:8835   */\n      tag_253\n        /* \"#utility.yul\":8829:8834   */\n      dup2\n        /* \"#utility.yul\":8811:8835   */\n      tag_254\n      jump\t// in\n    tag_253:\n        /* \"#utility.yul\":8806:8809   */\n      dup3\n        /* \"#utility.yul\":8799:8836   */\n      mstore\n        /* \"#utility.yul\":8789:8842   */\n      pop\n      pop\n      jump\t// out\n        /* \"#utility.yul\":8848:9070   */\n    tag_26:\n        /* \"#utility.yul\":8941:8945   */\n      0x00\n        /* \"#utility.yul\":8979:8981   */\n      0x20\n        /* \"#utility.yul\":8968:8977   */\n      dup3\n        /* \"#utility.yul\":8964:8982   */\n      add\n        /* \"#utility.yul\":8956:8982   */\n      swap1\n      pop\n        /* \"#utility.yul\":8992:9063   */\n      tag_256\n        /* \"#utility.yul\":9060:9061   */\n      0x00\n        /* \"#utility.yul\":9049:9058   */\n      dup4\n        /* \"#utility.yul\":9045:9062   */\n      add\n        /* \"#utility.yul\":9036:9042   */\n      dup5\n        /* \"#utility.yul\":8992:9063   */\n      tag_189\n      jump\t// in\n    tag_256:\n        /* \"#utility.yul\":8946:9070   */\n      swap3\n      swap2\n      pop\n      pop\n      jump\t// out\n        /* \"#utility.yul\":9076:9736   */\n    tag_121:\n        /* \"#utility.yul\":9281:9285   */\n      0x00\n        /* \"#utility.yul\":9319:9322   */\n      0x80\n        /* \"#utility.yul\":9308:9317   */\n      dup3\n        /* \"#utility.yul\":9304:9323   */\n      add\n        /* \"#utility.yul\":9296:9323   */\n      swap1\n      pop\n        /* \"#utility.yul\":9333:9404   */\n      tag_258\n        /* \"#utility.yul\":9401:9402   */\n      0x00\n        /* \"#utility.yul\":9390:9399   */\n      dup4\n        /* \"#utility.yul\":9386:9403   */\n      add\n        /* \"#utility.yul\":9377:9383   */\n      dup9\n        /* \"#utility.yul\":9333:9404   */\n      tag_189\n      jump\t// in\n    tag_258:\n        /* \"#utility.yul\":9414:9486   */\n      tag_259\n        /* \"#utility.yul\":9482:9484   */\n      0x20\n        /* \"#utility.yul\":9471:9480   */\n      dup4\n        /* \"#utility.yul\":9467:9485   */\n      add\n        /* \"#utility.yul\":9458:9464   */\n      dup8\n        /* \"#utility.yul\":9414:9486   */\n      tag_189\n      jump\t// in\n    tag_259:\n        /* \"#utility.yul\":9496:9568   */\n      tag_260\n        /* \"#utility.yul\":9564:9566   */\n      0x40\n        /* \"#utility.yul\":9553:9562   */\n      dup4\n        /* \"#utility.yul\":9549:9567   */\n      add\n        /* \"#utility.yul\":9540:9546   */\n      dup7\n        /* \"#utility.yul\":9496:9568   */\n      tag_251\n      jump\t// in\n    tag_260:\n        /* \"#utility.yul\":9615:9624   */\n      dup2\n        /* \"#utility.yul\":9609:9613   */\n      dup2\n        /* \"#utility.yul\":9605:9625   */\n      sub\n        /* \"#utility.yul\":9600:9602   */\n      0x60\n        /* \"#utility.yul\":9589:9598   */\n      dup4\n        /* \"#utility.yul\":9585:9603   */\n      add\n        /* \"#utility.yul\":9578:9626   */\n      mstore\n        /* \"#utility.yul\":9643:9729   */\n      tag_261\n        /* \"#utility.yul\":9724:9728   */\n      dup2\n        /* \"#utility.yul\":9715:9721   */\n      dup5\n        /* \"#utility.yul\":9707:9713   */\n      dup7\n        /* \"#utility.yul\":9643:9729   */\n      tag_197\n      jump\t// in\n    tag_261:\n        /* \"#utility.yul\":9635:9729   */\n      swap1\n      pop\n        /* \"#utility.yul\":9286:9736   */\n      swap7\n      swap6\n      pop\n      pop\n      pop\n      pop\n      pop\n      pop\n      jump\t// out\n        /* \"#utility.yul\":9742:10490   */\n    tag_103:\n        /* \"#utility.yul\":9991:9995   */\n      0x00\n        /* \"#utility.yul\":10029:10032   */\n      0x80\n        /* \"#utility.yul\":10018:10027   */\n      dup3\n        /* \"#utility.yul\":10014:10033   */\n      add\n        /* \"#utility.yul\":10006:10033   */\n      swap1\n      pop\n        /* \"#utility.yul\":10043:10114   */\n      tag_263\n        /* \"#utility.yul\":10111:10112   */\n      0x00\n        /* \"#utility.yul\":10100:10109   */\n      dup4\n        /* \"#utility.yul\":10096:10113   */\n      add\n        /* \"#utility.yul\":10087:10093   */\n      dup7\n        /* \"#utility.yul\":10043:10114   */\n      tag_189\n      jump\t// in\n    tag_263:\n        /* \"#utility.yul\":10124:10196   */\n      tag_264\n        /* \"#utility.yul\":10192:10194   */\n      0x20\n        /* \"#utility.yul\":10181:10190   */\n      dup4\n        /* \"#utility.yul\":10177:10195   */\n      add\n        /* \"#utility.yul\":10168:10174   */\n      dup6\n        /* \"#utility.yul\":10124:10196   */\n      tag_189\n      jump\t// in\n    tag_264:\n        /* \"#utility.yul\":10206:10278   */\n      tag_265\n        /* \"#utility.yul\":10274:10276   */\n      0x40\n        /* \"#utility.yul\":10263:10272   */\n      dup4\n        /* \"#utility.yul\":10259:10277   */\n      add\n        /* \"#utility.yul\":10250:10256   */\n      dup5\n        /* \"#utility.yul\":10206:10278   */\n      tag_251\n      jump\t// in\n    tag_265:\n        /* \"#utility.yul\":10325:10334   */\n      dup2\n        /* \"#utility.yul\":10319:10323   */\n      dup2\n        /* \"#utility.yul\":10315:10335   */\n      sub\n        /* \"#utility.yul\":10310:10312   */\n      0x60\n        /* \"#utility.yul\":10299:10308   */\n      dup4\n        /* \"#utility.yul\":10295:10313   */\n      add\n        /* \"#utility.yul\":10288:10336   */\n      mstore\n        /* \"#utility.yul\":10353:10483   */\n      tag_266\n        /* \"#utility.yul\":10478:10482   */\n      dup2\n        /* \"#utility.yul\":10353:10483   */\n      tag_236\n      jump\t// in\n    tag_266:\n        /* \"#utility.yul\":10345:10483   */\n      swap1\n      pop\n        /* \"#utility.yul\":9996:10490   */\n      swap5\n      swap4\n      pop\n      pop\n      pop\n      pop\n      jump\t// out\n        /* \"#utility.yul\":10496:10706   */\n    tag_20:\n        /* \"#utility.yul\":10583:10587   */\n      0x00\n        /* \"#utility.yul\":10621:10623   */\n      0x20\n        /* \"#utility.yul\":10610:10619   */\n      dup3\n        /* \"#utility.yul\":10606:10624   */\n      add\n        /* \"#utility.yul\":10598:10624   */\n      swap1\n      pop\n        /* \"#utility.yul\":10634:10699   */\n      tag_268\n        /* \"#utility.yul\":10696:10697   */\n      0x00\n        /* \"#utility.yul\":10685:10694   */\n      dup4\n        /* \"#utility.yul\":10681:10698   */\n      add\n        /* \"#utility.yul\":10672:10678   */\n      dup5\n        /* \"#utility.yul\":10634:10699   */\n      tag_193\n      jump\t// in\n    tag_268:\n        /* \"#utility.yul\":10588:10706   */\n      swap3\n      swap2\n      pop\n      pop\n      jump\t// out\n        /* \"#utility.yul\":10712:11131   */\n    tag_87:\n        /* \"#utility.yul\":10878:10882   */\n      0x00\n        /* \"#utility.yul\":10916:10918   */\n      0x20\n        /* \"#utility.yul\":10905:10914   */\n      dup3\n        /* \"#utility.yul\":10901:10919   */\n      add\n        /* \"#utility.yul\":10893:10919   */\n      swap1\n      pop\n        /* \"#utility.yul\":10965:10974   */\n      dup2\n        /* \"#utility.yul\":10959:10963   */\n      dup2\n        /* \"#utility.yul\":10955:10975   */\n      sub\n        /* \"#utility.yul\":10951:10952   */\n      0x00\n        /* \"#utility.yul\":10940:10949   */\n      dup4\n        /* \"#utility.yul\":10936:10953   */\n      add\n        /* \"#utility.yul\":10929:10976   */\n      mstore\n        /* \"#utility.yul\":10993:11124   */\n      tag_270\n        /* \"#utility.yul\":11119:11123   */\n      dup2\n        /* \"#utility.yul\":10993:11124   */\n      tag_205\n      jump\t// in\n    tag_270:\n        /* \"#utility.yul\":10985:11124   */\n      swap1\n      pop\n        /* \"#utility.yul\":10883:11131   */\n      swap2\n      swap1\n      pop\n      jump\t// out\n        /* \"#utility.yul\":11137:11556   */\n    tag_70:\n        /* \"#utility.yul\":11303:11307   */\n      0x00\n        /* \"#utility.yul\":11341:11343   */\n      0x20\n        /* \"#utility.yul\":11330:11339   */\n      dup3\n        /* \"#utility.yul\":11326:11344   */\n      add\n        /* \"#utility.yul\":11318:11344   */\n      swap1\n      pop\n        /* \"#utility.yul\":11390:11399   */\n      dup2\n        /* \"#utility.yul\":11384:11388   */\n      dup2\n        /* \"#utility.yul\":11380:11400   */\n      sub\n        /* \"#utility.yul\":11376:11377   */\n      0x00\n        /* \"#utility.yul\":11365:11374   */\n      dup4\n        /* \"#utility.yul\":11361:11378   */\n      add\n        /* \"#utility.yul\":11354:11401   */\n      mstore\n        /* \"#utility.yul\":11418:11549   */\n      tag_272\n        /* \"#utility.yul\":11544:11548   */\n      dup2\n        /* \"#utility.yul\":11418:11549   */\n      tag_211\n      jump\t// in\n    tag_272:\n        /* \"#utility.yul\":11410:11549   */\n      swap1\n      pop\n        /* \"#utility.yul\":11308:11556   */\n      swap2\n      swap1\n      pop\n      jump\t// out\n        /* \"#utility.yul\":11562:11981   */\n    tag_76:\n        /* \"#utility.yul\":11728:11732   */\n      0x00\n        /* \"#utility.yul\":11766:11768   */\n      0x20\n        /* \"#utility.yul\":11755:11764   */\n      dup3\n        /* \"#utility.yul\":11751:11769   */\n      add\n        /* \"#utility.yul\":11743:11769   */\n      swap1\n      pop\n        /* \"#utility.yul\":11815:11824   */\n      dup2\n        /* \"#utility.yul\":11809:11813   */\n      dup2\n        /* \"#utility.yul\":11805:11825   */\n      sub\n        /* \"#utility.yul\":11801:11802   */\n      0x00\n        /* \"#utility.yul\":11790:11799   */\n      dup4\n        /* \"#utility.yul\":11786:11803   */\n      add\n        /* \"#utility.yul\":11779:11826   */\n      mstore\n        /* \"#utility.yul\":11843:11974   */\n      tag_274\n        /* \"#utility.yul\":11969:11973   */\n      dup2\n        /* \"#utility.yul\":11843:11974   */\n      tag_216\n      jump\t// in\n    tag_274:\n        /* \"#utility.yul\":11835:11974   */\n      swap1\n      pop\n        /* \"#utility.yul\":11733:11981   */\n      swap2\n      swap1\n      pop\n      jump\t// out\n        /* \"#utility.yul\":11987:12406   */\n    tag_111:\n        /* \"#utility.yul\":12153:12157   */\n      0x00\n        /* \"#utility.yul\":12191:12193   */\n      0x20\n        /* \"#utility.yul\":12180:12189   */\n      dup3\n        /* \"#utility.yul\":12176:12194   */\n      add\n        /* \"#utility.yul\":12168:12194   */\n      swap1\n      pop\n        /* \"#utility.yul\":12240:12249   */\n      dup2\n        /* \"#utility.yul\":12234:12238   */\n      dup2\n        /* \"#utility.yul\":12230:12250   */\n      sub\n        /* \"#utility.yul\":12226:12227   */\n      0x00\n        /* \"#utility.yul\":12215:12224   */\n      dup4\n        /* \"#utility.yul\":12211:12228   */\n      add\n        /* \"#utility.yul\":12204:12251   */\n      mstore\n        /* \"#utility.yul\":12268:12399   */\n      tag_276\n        /* \"#utility.yul\":12394:12398   */\n      dup2\n        /* \"#utility.yul\":12268:12399   */\n      tag_221\n      jump\t// in\n    tag_276:\n        /* \"#utility.yul\":12260:12399   */\n      swap1\n      pop\n        /* \"#utility.yul\":12158:12406   */\n      swap2\n      swap1\n      pop\n      jump\t// out\n        /* \"#utility.yul\":12412:12831   */\n    tag_84:\n        /* \"#utility.yul\":12578:12582   */\n      0x00\n        /* \"#utility.yul\":12616:12618   */\n      0x20\n        /* \"#utility.yul\":12605:12614   */\n      dup3\n        /* \"#utility.yul\":12601:12619   */\n      add\n        /* \"#utility.yul\":12593:12619   */\n      swap1\n      pop\n        /* \"#utility.yul\":12665:12674   */\n      dup2\n        /* \"#utility.yul\":12659:12663   */\n      dup2\n        /* \"#utility.yul\":12655:12675   */\n      sub\n        /* \"#utility.yul\":12651:12652   */\n      0x00\n        /* \"#utility.yul\":12640:12649   */\n      dup4\n        /* \"#utility.yul\":12636:12653   */\n      add\n        /* \"#utility.yul\":12629:12676   */\n      mstore\n        /* \"#utility.yul\":12693:12824   */\n      tag_278\n        /* \"#utility.yul\":12819:12823   */\n      dup2\n        /* \"#utility.yul\":12693:12824   */\n      tag_226\n      jump\t// in\n    tag_278:\n        /* \"#utility.yul\":12685:12824   */\n      swap1\n      pop\n        /* \"#utility.yul\":12583:12831   */\n      swap2\n      swap1\n      pop\n      jump\t// out\n        /* \"#utility.yul\":12837:13256   */\n    tag_79:\n        /* \"#utility.yul\":13003:13007   */\n      0x00\n        /* \"#utility.yul\":13041:13043   */\n      0x20\n        /* \"#utility.yul\":13030:13039   */\n      dup3\n        /* \"#utility.yul\":13026:13044   */\n      add\n        /* \"#utility.yul\":13018:13044   */\n      swap1\n      pop\n        /* \"#utility.yul\":13090:13099   */\n      dup2\n        /* \"#utility.yul\":13084:13088   */\n      dup2\n        /* \"#utility.yul\":13080:13100   */\n      sub\n        /* \"#utility.yul\":13076:13077   */\n      0x00\n        /* \"#utility.yul\":13065:13074   */\n      dup4\n        /* \"#utility.yul\":13061:13078   */\n      add\n        /* \"#utility.yul\":13054:13101   */\n      mstore\n        /* \"#utility.yul\":13118:13249   */\n      tag_280\n        /* \"#utility.yul\":13244:13248   */\n      dup2\n        /* \"#utility.yul\":13118:13249   */\n      tag_231\n      jump\t// in\n    tag_280:\n        /* \"#utility.yul\":13110:13249   */\n      swap1\n      pop\n        /* \"#utility.yul\":13008:13256   */\n      swap2\n      swap1\n      pop\n      jump\t// out\n        /* \"#utility.yul\":13262:13681   */\n    tag_94:\n        /* \"#utility.yul\":13428:13432   */\n      0x00\n        /* \"#utility.yul\":13466:13468   */\n      0x20\n        /* \"#utility.yul\":13455:13464   */\n      dup3\n        /* \"#utility.yul\":13451:13469   */\n      add\n        /* \"#utility.yul\":13443:13469   */\n      swap1\n      pop\n        /* \"#utility.yul\":13515:13524   */\n      dup2\n        /* \"#utility.yul\":13509:13513   */\n      dup2\n        /* \"#utility.yul\":13505:13525   */\n      sub\n        /* \"#utility.yul\":13501:13502   */\n      0x00\n        /* \"#utility.yul\":13490:13499   */\n      dup4\n        /* \"#utility.yul\":13486:13503   */\n      add\n        /* \"#utility.yul\":13479:13526   */\n      mstore\n        /* \"#utility.yul\":13543:13674   */\n      tag_282\n        /* \"#utility.yul\":13669:13673   */\n      dup2\n        /* \"#utility.yul\":13543:13674   */\n      tag_241\n      jump\t// in\n    tag_282:\n        /* \"#utility.yul\":13535:13674   */\n      swap1\n      pop\n        /* \"#utility.yul\":13433:13681   */\n      swap2\n      swap1\n      pop\n      jump\t// out\n        /* \"#utility.yul\":13687:14106   */\n    tag_115:\n        /* \"#utility.yul\":13853:13857   */\n      0x00\n        /* \"#utility.yul\":13891:13893   */\n      0x20\n        /* \"#utility.yul\":13880:13889   */\n      dup3\n        /* \"#utility.yul\":13876:13894   */\n      add\n        /* \"#utility.yul\":13868:13894   */\n      swap1\n      pop\n        /* \"#utility.yul\":13940:13949   */\n      dup2\n        /* \"#utility.yul\":13934:13938   */\n      dup2\n        /* \"#utility.yul\":13930:13950   */\n      sub\n        /* \"#utility.yul\":13926:13927   */\n      0x00\n        /* \"#utility.yul\":13915:13924   */\n      dup4\n        /* \"#utility.yul\":13911:13928   */\n      add\n        /* \"#utility.yul\":13904:13951   */\n      mstore\n        /* \"#utility.yul\":13968:14099   */\n      tag_284\n        /* \"#utility.yul\":14094:14098   */\n      dup2\n        /* \"#utility.yul\":13968:14099   */\n      tag_246\n      jump\t// in\n    tag_284:\n        /* \"#utility.yul\":13960:14099   */\n      swap1\n      pop\n        /* \"#utility.yul\":13858:14106   */\n      swap2\n      swap1\n      pop\n      jump\t// out\n        /* \"#utility.yul\":14112:14334   */\n    tag_47:\n        /* \"#utility.yul\":14205:14209   */\n      0x00\n        /* \"#utility.yul\":14243:14245   */\n      0x20\n        /* \"#utility.yul\":14232:14241   */\n      dup3\n        /* \"#utility.yul\":14228:14246   */\n      add\n        /* \"#utility.yul\":14220:14246   */\n      swap1\n      pop\n        /* \"#utility.yul\":14256:14327   */\n      tag_286\n        /* \"#utility.yul\":14324:14325   */\n      0x00\n        /* \"#utility.yul\":14313:14322   */\n      dup4\n        /* \"#utility.yul\":14309:14326   */\n      add\n        /* \"#utility.yul\":14300:14306   */\n      dup5\n        /* \"#utility.yul\":14256:14327   */\n      tag_251\n      jump\t// in\n    tag_286:\n        /* \"#utility.yul\":14210:14334   */\n      swap3\n      swap2\n      pop\n      pop\n      jump\t// out\n        /* \"#utility.yul\":14340:14508   */\n    tag_200:\n        /* \"#utility.yul\":14423:14434   */\n      0x00\n        /* \"#utility.yul\":14457:14463   */\n      dup3\n        /* \"#utility.yul\":14452:14455   */\n      dup3\n        /* \"#utility.yul\":14445:14464   */\n      mstore\n        /* \"#utility.yul\":14497:14501   */\n      0x20\n        /* \"#utility.yul\":14492:14495   */\n      dup3\n        /* \"#utility.yul\":14488:14502   */\n      add\n        /* \"#utility.yul\":14473:14502   */\n      swap1\n      pop\n        /* \"#utility.yul\":14435:14508   */\n      swap3\n      swap2\n      pop\n      pop\n      jump\t// out\n        /* \"#utility.yul\":14514:14683   */\n    tag_208:\n        /* \"#utility.yul\":14598:14609   */\n      0x00\n        /* \"#utility.yul\":14632:14638   */\n      dup3\n        /* \"#utility.yul\":14627:14630   */\n      dup3\n        /* \"#utility.yul\":14620:14639   */\n      mstore\n        /* \"#utility.yul\":14672:14676   */\n      0x20\n        /* \"#utility.yul\":14667:14670   */\n      dup3\n        /* \"#utility.yul\":14663:14677   */\n      add\n        /* \"#utility.yul\":14648:14677   */\n      swap1\n      pop\n        /* \"#utility.yul\":14610:14683   */\n      swap3\n      swap2\n      pop\n      pop\n      jump\t// out\n        /* \"#utility.yul\":14689:14785   */\n    tag_192:\n        /* \"#utility.yul\":14726:14733   */\n      0x00\n        /* \"#utility.yul\":14755:14779   */\n      tag_290\n        /* \"#utility.yul\":14773:14778   */\n      dup3\n        /* \"#utility.yul\":14755:14779   */\n      tag_291\n      jump\t// in\n    tag_290:\n        /* \"#utility.yul\":14744:14779   */\n      swap1\n      pop\n        /* \"#utility.yul\":14734:14785   */\n      swap2\n      swap1\n      pop\n      jump\t// out\n        /* \"#utility.yul\":14791:14881   */\n    tag_196:\n        /* \"#utility.yul\":14825:14832   */\n      0x00\n        /* \"#utility.yul\":14868:14873   */\n      dup2\n        /* \"#utility.yul\":14861:14874   */\n      iszero\n        /* \"#utility.yul\":14854:14875   */\n      iszero\n        /* \"#utility.yul\":14843:14875   */\n      swap1\n      pop\n        /* \"#utility.yul\":14833:14881   */\n      swap2\n      swap1\n      pop\n      jump\t// out\n        /* \"#utility.yul\":14887:15036   */\n    tag_293:\n        /* \"#utility.yul\":14923:14930   */\n      0x00\n        /* \"#utility.yul\":14963:15029   */\n      0xffffffff00000000000000000000000000000000000000000000000000000000\n        /* \"#utility.yul\":14956:14961   */\n      dup3\n        /* \"#utility.yul\":14952:15030   */\n      and\n        /* \"#utility.yul\":14941:15030   */\n      swap1\n      pop\n        /* \"#utility.yul\":14931:15036   */\n      swap2\n      swap1\n      pop\n      jump\t// out\n        /* \"#utility.yul\":15042:15168   */\n    tag_291:\n        /* \"#utility.yul\":15079:15086   */\n      0x00\n        /* \"#utility.yul\":15119:15161   */\n      0xffffffffffffffffffffffffffffffffffffffff\n        /* \"#utility.yul\":15112:15117   */\n      dup3\n        /* \"#utility.yul\":15108:15162   */\n      and\n        /* \"#utility.yul\":15097:15162   */\n      swap1\n      pop\n        /* \"#utility.yul\":15087:15168   */\n      swap2\n      swap1\n      pop\n      jump\t// out\n        /* \"#utility.yul\":15174:15251   */\n    tag_254:\n        /* \"#utility.yul\":15211:15218   */\n      0x00\n        /* \"#utility.yul\":15240:15245   */\n      dup2\n        /* \"#utility.yul\":15229:15245   */\n      swap1\n      pop\n        /* \"#utility.yul\":15219:15251   */\n      swap2\n      swap1\n      pop\n      jump\t// out\n        /* \"#utility.yul\":15257:15411   */\n    tag_202:\n        /* \"#utility.yul\":15341:15347   */\n      dup3\n        /* \"#utility.yul\":15336:15339   */\n      dup2\n        /* \"#utility.yul\":15331:15334   */\n      dup4\n        /* \"#utility.yul\":15318:15348   */\n      calldatacopy\n        /* \"#utility.yul\":15403:15404   */\n      0x00\n        /* \"#utility.yul\":15394:15400   */\n      dup4\n        /* \"#utility.yul\":15389:15392   */\n      dup4\n        /* \"#utility.yul\":15385:15401   */\n      add\n        /* \"#utility.yul\":15378:15405   */\n      mstore\n        /* \"#utility.yul\":15308:15411   */\n      pop\n      pop\n      pop\n      jump\t// out\n        /* \"#utility.yul\":15417:15588   */\n    tag_96:\n        /* \"#utility.yul\":15456:15459   */\n      0x00\n        /* \"#utility.yul\":15479:15503   */\n      tag_299\n        /* \"#utility.yul\":15497:15502   */\n      dup3\n        /* \"#utility.yul\":15479:15503   */\n      tag_254\n      jump\t// in\n    tag_299:\n        /* \"#utility.yul\":15470:15503   */\n      swap2\n      pop\n        /* \"#utility.yul\":15525:15529   */\n      0x00\n        /* \"#utility.yul\":15518:15523   */\n      dup3\n        /* \"#utility.yul\":15515:15530   */\n      eq\n        /* \"#utility.yul\":15512:15514   */\n      iszero\n      tag_300\n      jumpi\n        /* \"#utility.yul\":15533:15551   */\n      tag_301\n      tag_302\n      jump\t// in\n    tag_301:\n        /* \"#utility.yul\":15512:15514   */\n    tag_300:\n        /* \"#utility.yul\":15580:15581   */\n      0x01\n        /* \"#utility.yul\":15573:15578   */\n      dup3\n        /* \"#utility.yul\":15569:15582   */\n      sub\n        /* \"#utility.yul\":15562:15582   */\n      swap1\n      pop\n        /* \"#utility.yul\":15460:15588   */\n      swap2\n      swap1\n      pop\n      jump\t// out\n        /* \"#utility.yul\":15594:15827   */\n    tag_98:\n        /* \"#utility.yul\":15633:15636   */\n      0x00\n        /* \"#utility.yul\":15656:15680   */\n      tag_304\n        /* \"#utility.yul\":15674:15679   */\n      dup3\n        /* \"#utility.yul\":15656:15680   */\n      tag_254\n      jump\t// in\n    tag_304:\n        /* \"#utility.yul\":15647:15680   */\n      swap2\n      pop\n        /* \"#utility.yul\":15702:15768   */\n      0xffffffffffffffffffffffffffffffffffffffffffffffffffffffffffffffff\n        /* \"#utility.yul\":15695:15700   */\n      dup3\n        /* \"#utility.yul\":15692:15769   */\n      eq\n        /* \"#utility.yul\":15689:15691   */\n      iszero\n      tag_305\n      jumpi\n        /* \"#utility.yul\":15772:15790   */\n      tag_306\n      tag_302\n      jump\t// in\n    tag_306:\n        /* \"#utility.yul\":15689:15691   */\n    tag_305:\n        /* \"#utility.yul\":15819:15820   */\n      0x01\n        /* \"#utility.yul\":15812:15817   */\n      dup3\n        /* \"#utility.yul\":15808:15821   */\n      add\n        /* \"#utility.yul\":15801:15821   */\n      swap1\n      pop\n        /* \"#utility.yul\":15637:15827   */\n      swap2\n      swap1\n      pop\n      jump\t// out\n        /* \"#utility.yul\":15833:16013   */\n    tag_302:\n        /* \"#utility.yul\":15881:15958   */\n      0x4e487b7100000000000000000000000000000000000000000000000000000000\n        /* \"#utility.yul\":15878:15879   */\n      0x00\n        /* \"#utility.yul\":15871:15959   */\n      mstore\n        /* \"#utility.yul\":15978:15982   */\n      0x11\n        /* \"#utility.yul\":15975:15976   */\n      0x04\n        /* \"#utility.yul\":15968:15983   */\n      mstore\n        /* \"#utility.yul\":16002:16006   */\n      0x24\n        /* \"#utility.yul\":15999:16000   */\n      0x00\n        /* \"#utility.yul\":15992:16007   */\n      revert\n        /* \"#utility.yul\":16019:16121   */\n    tag_204:\n        /* \"#utility.yul\":16060:16066   */\n      0x00\n        /* \"#utility.yul\":16111:16113   */\n      0x1f\n        /* \"#utility.yul\":16107:16114   */\n      not\n        /* \"#utility.yul\":16102:16104   */\n      0x1f\n        /* \"#utility.yul\":16095:16100   */\n      dup4\n        /* \"#utility.yul\":16091:16105   */\n      add\n        /* \"#utility.yul\":16087:16115   */\n      and\n        /* \"#utility.yul\":16077:16115   */\n      swap1\n      pop\n        /* \"#utility.yul\":16067:16121   */\n      swap2\n      swap1\n      pop\n      jump\t// out\n        /* \"#utility.yul\":16127:16289   */\n    tag_210:\n        /* \"#utility.yul\":16267:16281   */\n      0x746f6b656e4964207a65726f0000000000000000000000000000000000000000\n        /* \"#utility.yul\":16263:16264   */\n      0x00\n        /* \"#utility.yul\":16255:16261   */\n      dup3\n        /* \"#utility.yul\":16251:16265   */\n      add\n        /* \"#utility.yul\":16244:16282   */\n      mstore\n        /* \"#utility.yul\":16233:16289   */\n      pop\n      jump\t// out\n        /* \"#utility.yul\":16295:16463   */\n    tag_215:\n        /* \"#utility.yul\":16435:16455   */\n      0x746f6b656e49642069732063616e6e7420300000000000000000000000000000\n        /* \"#utility.yul\":16431:16432   */\n      0x00\n        /* \"#utility.yul\":16423:16429   */\n      dup3\n        /* \"#utility.yul\":16419:16433   */\n      add\n        /* \"#utility.yul\":16412:16456   */\n      mstore\n        /* \"#utility.yul\":16401:16463   */\n      pop\n      jump\t// out\n        /* \"#utility.yul\":16469:16650   */\n    tag_220:\n        /* \"#utility.yul\":16609:16642   */\n      0x4552433732313a20617070726f76656420697320616c72656164792073657400\n        /* \"#utility.yul\":16605:16606   */\n      0x00\n        /* \"#utility.yul\":16597:16603   */\n      dup3\n        /* \"#utility.yul\":16593:16607   */\n      add\n        /* \"#utility.yul\":16586:16643   */\n      mstore\n        /* \"#utility.yul\":16575:16650   */\n      pop\n      jump\t// out\n        /* \"#utility.yul\":16656:16827   */\n    tag_225:\n        /* \"#utility.yul\":16796:16819   */\n      0x736166655472616e7366657246726f6d206661696c0000000000000000000000\n        /* \"#utility.yul\":16792:16793   */\n      0x00\n        /* \"#utility.yul\":16784:16790   */\n      dup3\n        /* \"#utility.yul\":16780:16794   */\n      add\n        /* \"#utility.yul\":16773:16820   */\n      mstore\n        /* \"#utility.yul\":16762:16827   */\n      pop\n      jump\t// out\n        /* \"#utility.yul\":16833:17015   */\n    tag_230:\n        /* \"#utility.yul\":16973:17007   */\n      0x61646472657373206f7220746f41646472657373207a65726f206973206e6f74\n        /* \"#utility.yul\":16969:16970   */\n      0x00\n        /* \"#utility.yul\":16961:16967   */\n      dup3\n        /* \"#utility.yul\":16957:16971   */\n      add\n        /* \"#utility.yul\":16950:17008   */\n      mstore\n        /* \"#utility.yul\":16939:17015   */\n      pop\n      jump\t// out\n        /* \"#utility.yul\":17021:17261   */\n    tag_235:\n        /* \"#utility.yul\":17161:17195   */\n      0x4552433732313a20617070726f7665642063616c6c6572206973206e6f74206f\n        /* \"#utility.yul\":17157:17158   */\n      0x00\n        /* \"#utility.yul\":17149:17155   */\n      dup3\n        /* \"#utility.yul\":17145:17159   */\n      add\n        /* \"#utility.yul\":17138:17196   */\n      mstore\n        /* \"#utility.yul\":17230:17253   */\n      0x776e6572206e6f7220617070726f76656420666f720000000000000000000000\n        /* \"#utility.yul\":17225:17227   */\n      0x20\n        /* \"#utility.yul\":17217:17223   */\n      dup3\n        /* \"#utility.yul\":17213:17228   */\n      add\n        /* \"#utility.yul\":17206:17254   */\n      mstore\n        /* \"#utility.yul\":17127:17261   */\n      pop\n      jump\t// out\n        /* \"#utility.yul\":17267:17381   */\n    tag_240:\n        /* \"#utility.yul\":17373:17381   */\n      pop\n      jump\t// out\n        /* \"#utility.yul\":17387:17623   */\n    tag_245:\n        /* \"#utility.yul\":17527:17561   */\n      0x4552433732313a207472616e736665722063616c6c6572206973206e6f74206f\n        /* \"#utility.yul\":17523:17524   */\n      0x00\n        /* \"#utility.yul\":17515:17521   */\n      dup3\n        /* \"#utility.yul\":17511:17525   */\n      add\n        /* \"#utility.yul\":17504:17562   */\n      mstore\n        /* \"#utility.yul\":17596:17615   */\n      0x776e6572206e6f7220617070726f766564000000000000000000000000000000\n        /* \"#utility.yul\":17591:17593   */\n      0x20\n        /* \"#utility.yul\":17583:17589   */\n      dup3\n        /* \"#utility.yul\":17579:17594   */\n      add\n        /* \"#utility.yul\":17572:17616   */\n      mstore\n        /* \"#utility.yul\":17493:17623   */\n      pop\n      jump\t// out\n        /* \"#utility.yul\":17629:17811   */\n    tag_250:\n        /* \"#utility.yul\":17769:17803   */\n      0x6f70657261746f7220616464726573732069732030206f72206e6f7420736574\n        /* \"#utility.yul\":17765:17766   */\n      0x00\n        /* \"#utility.yul\":17757:17763   */\n      dup3\n        /* \"#utility.yul\":17753:17767   */\n      add\n        /* \"#utility.yul\":17746:17804   */\n      mstore\n        /* \"#utility.yul\":17735:17811   */\n      pop\n      jump\t// out\n        /* \"#utility.yul\":17817:17939   */\n    tag_132:\n        /* \"#utility.yul\":17890:17914   */\n      tag_319\n        /* \"#utility.yul\":17908:17913   */\n      dup2\n        /* \"#utility.yul\":17890:17914   */\n      tag_192\n      jump\t// in\n    tag_319:\n        /* \"#utility.yul\":17883:17888   */\n      dup2\n        /* \"#utility.yul\":17880:17915   */\n      eq\n        /* \"#utility.yul\":17870:17872   */\n      tag_320\n      jumpi\n        /* \"#utility.yul\":17929:17930   */\n      0x00\n        /* \"#utility.yul\":17926:17927   */\n      dup1\n        /* \"#utility.yul\":17919:17931   */\n      revert\n        /* \"#utility.yul\":17870:17872   */\n    tag_320:\n        /* \"#utility.yul\":17860:17939   */\n      pop\n      jump\t// out\n        /* \"#utility.yul\":17945:18061   */\n    tag_136:\n        /* \"#utility.yul\":18015:18036   */\n      tag_322\n        /* \"#utility.yul\":18030:18035   */\n      dup2\n        /* \"#utility.yul\":18015:18036   */\n      tag_196\n      jump\t// in\n    tag_322:\n        /* \"#utility.yul\":18008:18013   */\n      dup2\n        /* \"#utility.yul\":18005:18037   */\n      eq\n        /* \"#utility.yul\":17995:17997   */\n      tag_323\n      jumpi\n        /* \"#utility.yul\":18051:18052   */\n      0x00\n        /* \"#utility.yul\":18048:18049   */\n      dup1\n        /* \"#utility.yul\":18041:18053   */\n      revert\n        /* \"#utility.yul\":17995:17997   */\n    tag_323:\n        /* \"#utility.yul\":17985:18061   */\n      pop\n      jump\t// out\n        /* \"#utility.yul\":18067:18187   */\n    tag_140:\n        /* \"#utility.yul\":18139:18162   */\n      tag_325\n        /* \"#utility.yul\":18156:18161   */\n      dup2\n        /* \"#utility.yul\":18139:18162   */\n      tag_293\n      jump\t// in\n    tag_325:\n        /* \"#utility.yul\":18132:18137   */\n      dup2\n        /* \"#utility.yul\":18129:18163   */\n      eq\n        /* \"#utility.yul\":18119:18121   */\n      tag_326\n      jumpi\n        /* \"#utility.yul\":18177:18178   */\n      0x00\n        /* \"#utility.yul\":18174:18175   */\n      dup1\n        /* \"#utility.yul\":18167:18179   */\n      revert\n        /* \"#utility.yul\":18119:18121   */\n    tag_326:\n        /* \"#utility.yul\":18109:18187   */\n      pop\n      jump\t// out\n        /* \"#utility.yul\":18193:18315   */\n    tag_152:\n        /* \"#utility.yul\":18266:18290   */\n      tag_328\n        /* \"#utility.yul\":18284:18289   */\n      dup2\n        /* \"#utility.yul\":18266:18290   */\n      tag_254\n      jump\t// in\n    tag_328:\n        /* \"#utility.yul\":18259:18264   */\n      dup2\n        /* \"#utility.yul\":18256:18291   */\n      eq\n        /* \"#utility.yul\":18246:18248   */\n      tag_329\n      jumpi\n        /* \"#utility.yul\":18305:18306   */\n      0x00\n        /* \"#utility.yul\":18302:18303   */\n      dup1\n        /* \"#utility.yul\":18295:18307   */\n      revert\n        /* \"#utility.yul\":18246:18248   */\n    tag_329:\n        /* \"#utility.yul\":18236:18315   */\n      pop\n      jump\t// out\n\n    auxdata: 0xa26469706673582212209ba72a5be3fc9fffb905c33e1dde877e514ba34895f0ad69549b5416e30b1d1e64736f6c63430008040033\n}\n",
				"bytecode": {
					"linkReferences": {},
					"object": "608060405234801561001057600080fd5b5061191d806100206000396000f3fe608060405234801561001057600080fd5b50600436106100a95760003560e01c80636352211e116100715780636352211e1461016257806370a0823114610192578063a22cb465146101c2578063b88d4fde146101de578063e7c19a0f146101fa578063e985e9c51461022a576100a9565b806301ffc9a7146100ae578063081812fc146100de578063095ea7b31461010e57806323b872dd1461012a57806342842e0e14610146575b600080fd5b6100c860048036038101906100c391906111a3565b61025a565b6040516100d59190611466565b60405180910390f35b6100f860048036038101906100f391906111f5565b61032c565b60405161010591906113b3565b60405180910390f35b61012860048036038101906101239190611167565b61041c565b005b610144600480360381019061013f919061105c565b610610565b005b610160600480360381019061015b919061105c565b610a96565b005b61017c600480360381019061017791906111f5565b610bdd565b60405161018991906113b3565b60405180910390f35b6101ac60048036038101906101a79190610ff7565b610c10565b6040516101b99190611581565b60405180910390f35b6101dc60048036038101906101d7919061112b565b610c28565b005b6101f860048036038101906101f391906110ab565b610d95565b005b610214600480360381019061020f91906111f5565b610ee2565b60405161022191906113b3565b60405180910390f35b610244600480360381019061023f9190611020565b610f15565b6040516102519190611466565b60405180910390f35b60007f80ac58cd000000000000000000000000000000000000000000000000000000007bffffffffffffffffffffffffffffffffffffffffffffffffffffffff1916827bffffffffffffffffffffffffffffffffffffffffffffffffffffffff1916148061032557507f01ffc9a7000000000000000000000000000000000000000000000000000000007bffffffffffffffffffffffffffffffffffffffffffffffffffffffff1916827bffffffffffffffffffffffffffffffffffffffffffffffffffffffff1916145b9050919050565b600080821415610371576040517f08c379a0000000000000000000000000000000000000000000000000000000008152600401610368906114a1565b60405180910390fd5b6002600083815260200190815260200160002060009054906101000a900473ffffffffffffffffffffffffffffffffffffffff169050600073ffffffffffffffffffffffffffffffffffffffff168173ffffffffffffffffffffffffffffffffffffffff161415610417576040517f08c379a000000000000000000000000000000000000000000000000000000000815260040161040e906114a1565b60405180910390fd5b919050565b8173ffffffffffffffffffffffffffffffffffffffff166002600083815260200190815260200160002060009054906101000a900473ffffffffffffffffffffffffffffffffffffffff1673ffffffffffffffffffffffffffffffffffffffff1614156104be576040517f08c379a00000000000000000000000000000000000000000000000000000000081526004016104b5906114c1565b60405180910390fd5b3373ffffffffffffffffffffffffffffffffffffffff166001600083815260200190815260200160002060009054906101000a900473ffffffffffffffffffffffffffffffffffffffff1673ffffffffffffffffffffffffffffffffffffffff161461055f576040517f08c379a000000000000000000000000000000000000000000000000000000000815260040161055690611521565b60405180910390fd5b816002600083815260200190815260200160002060006101000a81548173ffffffffffffffffffffffffffffffffffffffff021916908373ffffffffffffffffffffffffffffffffffffffff160217905550808273ffffffffffffffffffffffffffffffffffffffff163373ffffffffffffffffffffffffffffffffffffffff167f8c5be1e5ebec7d5bd14f71427d1e84f3dd0314c0f7b2291e5b200ac8c7c3b92560405160405180910390a45050565b600073ffffffffffffffffffffffffffffffffffffffff168373ffffffffffffffffffffffffffffffffffffffff161415801561067a5750600073ffffffffffffffffffffffffffffffffffffffff168273ffffffffffffffffffffffffffffffffffffffff1614155b6106b9576040517f08c379a00000000000000000000000000000000000000000000000000000000081526004016106b090611501565b60405180910390fd5b60008114156106fd576040517f08c379a00000000000000000000000000000000000000000000000000000000081526004016106f490611481565b60405180910390fd5b8273ffffffffffffffffffffffffffffffffffffffff166001600083815260200190815260200160002060009054906101000a900473ffffffffffffffffffffffffffffffffffffffff1673ffffffffffffffffffffffffffffffffffffffff161461079e576040517f08c379a000000000000000000000000000000000000000000000000000000000815260040161079590611481565b60405180910390fd5b600360008473ffffffffffffffffffffffffffffffffffffffff1673ffffffffffffffffffffffffffffffffffffffff16815260200190815260200160002060003373ffffffffffffffffffffffffffffffffffffffff1673ffffffffffffffffffffffffffffffffffffffff16815260200190815260200160002060009054906101000a900460ff168061085e57503373ffffffffffffffffffffffffffffffffffffffff168373ffffffffffffffffffffffffffffffffffffffff16145b806108c757503373ffffffffffffffffffffffffffffffffffffffff166002600083815260200190815260200160002060009054906101000a900473ffffffffffffffffffffffffffffffffffffffff1673ffffffffffffffffffffffffffffffffffffffff16145b610906576040517f08c379a00000000000000000000000000000000000000000000000000000000081526004016108fd90611541565b60405180910390fd5b6000808473ffffffffffffffffffffffffffffffffffffffff1673ffffffffffffffffffffffffffffffffffffffff168152602001908152602001600020600081548092919061095590611641565b91905055506000808373ffffffffffffffffffffffffffffffffffffffff1673ffffffffffffffffffffffffffffffffffffffff16815260200190815260200160002060008154809291906109a99061166b565b9190505550816001600083815260200190815260200160002060006101000a81548173ffffffffffffffffffffffffffffffffffffffff021916908373ffffffffffffffffffffffffffffffffffffffff1602179055506002600082815260200190815260200160002060006101000a81549073ffffffffffffffffffffffffffffffffffffffff0219169055808273ffffffffffffffffffffffffffffffffffffffff168473ffffffffffffffffffffffffffffffffffffffff167fddf252ad1be2c89b69c2b068fc378daa952ba7f163c4a11628f55a4df523b3ef60405160405180910390a4505050565b610aa1838383610610565b60008273ffffffffffffffffffffffffffffffffffffffff163b1480610b99575063150b7a0260e01b7bffffffffffffffffffffffffffffffffffffffffffffffffffffffff19168273ffffffffffffffffffffffffffffffffffffffff1663150b7a023385856040518463ffffffff1660e01b8152600401610b269392919061141c565b602060405180830381600087803b158015610b4057600080fd5b505af1158015610b54573d6000803e3d6000fd5b505050506040513d601f19601f82011682018060405250810190610b7891906111cc565b7bffffffffffffffffffffffffffffffffffffffffffffffffffffffff1916145b610bd8576040517f08c379a0000000000000000000000000000000000000000000000000000000008152600401610bcf906114e1565b60405180910390fd5b505050565b60016020528060005260406000206000915054906101000a900473ffffffffffffffffffffffffffffffffffffffff1681565b60006020528060005260406000206000915090505481565b600073ffffffffffffffffffffffffffffffffffffffff168273ffffffffffffffffffffffffffffffffffffffff161415610c98576040517f08c379a0000000000000000000000000000000000000000000000000000000008152600401610c8f90611561565b60405180910390fd5b80600360003373ffffffffffffffffffffffffffffffffffffffff1673ffffffffffffffffffffffffffffffffffffffff16815260200190815260200160002060008473ffffffffffffffffffffffffffffffffffffffff1673ffffffffffffffffffffffffffffffffffffffff16815260200190815260200160002060006101000a81548160ff0219169083151502179055508173ffffffffffffffffffffffffffffffffffffffff163373ffffffffffffffffffffffffffffffffffffffff167f17307eab39ab6107e8899845ad3d59bd9653f200f220920489ca2b5937696c3183604051610d899190611466565b60405180910390a35050565b610da0858585610610565b60008473ffffffffffffffffffffffffffffffffffffffff163b1480610e9c575063150b7a0260e01b7bffffffffffffffffffffffffffffffffffffffffffffffffffffffff19168473ffffffffffffffffffffffffffffffffffffffff1663150b7a0233878787876040518663ffffffff1660e01b8152600401610e299594939291906113ce565b602060405180830381600087803b158015610e4357600080fd5b505af1158015610e57573d6000803e3d6000fd5b505050506040513d601f19601f82011682018060405250810190610e7b91906111cc565b7bffffffffffffffffffffffffffffffffffffffffffffffffffffffff1916145b610edb576040517f08c379a0000000000000000000000000000000000000000000000000000000008152600401610ed2906114e1565b60405180910390fd5b5050505050565b60026020528060005260406000206000915054906101000a900473ffffffffffffffffffffffffffffffffffffffff1681565b60036020528160005260406000206020528060005260406000206000915091509054906101000a900460ff1681565b600081359050610f538161188b565b92915050565b600081359050610f68816118a2565b92915050565b600081359050610f7d816118b9565b92915050565b600081519050610f92816118b9565b92915050565b60008083601f840112610faa57600080fd5b8235905067ffffffffffffffff811115610fc357600080fd5b602083019150836001820283011115610fdb57600080fd5b9250929050565b600081359050610ff1816118d0565b92915050565b60006020828403121561100957600080fd5b600061101784828501610f44565b91505092915050565b6000806040838503121561103357600080fd5b600061104185828601610f44565b925050602061105285828601610f44565b9150509250929050565b60008060006060848603121561107157600080fd5b600061107f86828701610f44565b935050602061109086828701610f44565b92505060406110a186828701610fe2565b9150509250925092565b6000806000806000608086880312156110c357600080fd5b60006110d188828901610f44565b95505060206110e288828901610f44565b94505060406110f388828901610fe2565b935050606086013567ffffffffffffffff81111561111057600080fd5b61111c88828901610f98565b92509250509295509295909350565b6000806040838503121561113e57600080fd5b600061114c85828601610f44565b925050602061115d85828601610f59565b9150509250929050565b6000806040838503121561117a57600080fd5b600061118885828601610f44565b925050602061119985828601610fe2565b9150509250929050565b6000602082840312156111b557600080fd5b60006111c384828501610f6e565b91505092915050565b6000602082840312156111de57600080fd5b60006111ec84828501610f83565b91505092915050565b60006020828403121561120757600080fd5b600061121584828501610fe2565b91505092915050565b611227816115be565b82525050565b611236816115d0565b82525050565b6000611248838561159c565b9350611255838584611632565b61125e836116e3565b840190509392505050565b6000611276600c836115ad565b9150611281826116f4565b602082019050919050565b60006112996012836115ad565b91506112a48261171d565b602082019050919050565b60006112bc601f836115ad565b91506112c782611746565b602082019050919050565b60006112df6015836115ad565b91506112ea8261176f565b602082019050919050565b60006113026020836115ad565b915061130d82611798565b602082019050919050565b60006113256035836115ad565b9150611330826117c1565b604082019050919050565b600061134860008361159c565b915061135382611810565b600082019050919050565b600061136b6031836115ad565b915061137682611813565b604082019050919050565b600061138e6020836115ad565b915061139982611862565b602082019050919050565b6113ad81611628565b82525050565b60006020820190506113c8600083018461121e565b92915050565b60006080820190506113e3600083018861121e565b6113f0602083018761121e565b6113fd60408301866113a4565b818103606083015261141081848661123c565b90509695505050505050565b6000608082019050611431600083018661121e565b61143e602083018561121e565b61144b60408301846113a4565b818103606083015261145c8161133b565b9050949350505050565b600060208201905061147b600083018461122d565b92915050565b6000602082019050818103600083015261149a81611269565b9050919050565b600060208201905081810360008301526114ba8161128c565b9050919050565b600060208201905081810360008301526114da816112af565b9050919050565b600060208201905081810360008301526114fa816112d2565b9050919050565b6000602082019050818103600083015261151a816112f5565b9050919050565b6000602082019050818103600083015261153a81611318565b9050919050565b6000602082019050818103600083015261155a8161135e565b9050919050565b6000602082019050818103600083015261157a81611381565b9050919050565b600060208201905061159660008301846113a4565b92915050565b600082825260208201905092915050565b600082825260208201905092915050565b60006115c982611608565b9050919050565b60008115159050919050565b60007fffffffff0000000000000000000000000000000000000000000000000000000082169050919050565b600073ffffffffffffffffffffffffffffffffffffffff82169050919050565b6000819050919050565b82818337600083830152505050565b600061164c82611628565b915060008214156116605761165f6116b4565b5b600182039050919050565b600061167682611628565b91507fffffffffffffffffffffffffffffffffffffffffffffffffffffffffffffffff8214156116a9576116a86116b4565b5b600182019050919050565b7f4e487b7100000000000000000000000000000000000000000000000000000000600052601160045260246000fd5b6000601f19601f8301169050919050565b7f746f6b656e4964207a65726f0000000000000000000000000000000000000000600082015250565b7f746f6b656e49642069732063616e6e7420300000000000000000000000000000600082015250565b7f4552433732313a20617070726f76656420697320616c72656164792073657400600082015250565b7f736166655472616e7366657246726f6d206661696c0000000000000000000000600082015250565b7f61646472657373206f7220746f41646472657373207a65726f206973206e6f74600082015250565b7f4552433732313a20617070726f7665642063616c6c6572206973206e6f74206f60008201527f776e6572206e6f7220617070726f76656420666f720000000000000000000000602082015250565b50565b7f4552433732313a207472616e736665722063616c6c6572206973206e6f74206f60008201527f776e6572206e6f7220617070726f766564000000000000000000000000000000602082015250565b7f6f70657261746f7220616464726573732069732030206f72206e6f7420736574600082015250565b611894816115be565b811461189f57600080fd5b50565b6118ab816115d0565b81146118b657600080fd5b50565b6118c2816115dc565b81146118cd57600080fd5b50565b6118d981611628565b81146118e457600080fd5b5056fea26469706673582212209ba72a5be3fc9fffb905c33e1dde877e514ba34895f0ad69549b5416e30b1d1e64736f6c63430008040033",
					"opcodes": "PUSH1 0x80 PUSH1 0x40 MSTORE CALLVALUE DUP1 ISZERO PUSH2 0x10 JUMPI PUSH1 0x0 DUP1 REVERT JUMPDEST POP PUSH2 0x191D DUP1 PUSH2 0x20 PUSH1 0x0 CODECOPY PUSH1 0x0 RETURN INVALID PUSH1 0x80 PUSH1 0x40 MSTORE CALLVALUE DUP1 ISZERO PUSH2 0x10 JUMPI PUSH1 0x0 DUP1 REVERT JUMPDEST POP PUSH1 0x4 CALLDATASIZE LT PUSH2 0xA9 JUMPI PUSH1 0x0 CALLDATALOAD PUSH1 0xE0 SHR DUP1 PUSH4 0x6352211E GT PUSH2 0x71 JUMPI DUP1 PUSH4 0x6352211E EQ PUSH2 0x162 JUMPI DUP1 PUSH4 0x70A08231 EQ PUSH2 0x192 JUMPI DUP1 PUSH4 0xA22CB465 EQ PUSH2 0x1C2 JUMPI DUP1 PUSH4 0xB88D4FDE EQ PUSH2 0x1DE JUMPI DUP1 PUSH4 0xE7C19A0F EQ PUSH2 0x1FA JUMPI DUP1 PUSH4 0xE985E9C5 EQ PUSH2 0x22A JUMPI PUSH2 0xA9 JUMP JUMPDEST DUP1 PUSH4 0x1FFC9A7 EQ PUSH2 0xAE JUMPI DUP1 PUSH4 0x81812FC EQ PUSH2 0xDE JUMPI DUP1 PUSH4 0x95EA7B3 EQ PUSH2 0x10E JUMPI DUP1 PUSH4 0x23B872DD EQ PUSH2 0x12A JUMPI DUP1 PUSH4 0x42842E0E EQ PUSH2 0x146 JUMPI JUMPDEST PUSH1 0x0 DUP1 REVERT JUMPDEST PUSH2 0xC8 PUSH1 0x4 DUP1 CALLDATASIZE SUB DUP2 ADD SWAP1 PUSH2 0xC3 SWAP2 SWAP1 PUSH2 0x11A3 JUMP JUMPDEST PUSH2 0x25A JUMP JUMPDEST PUSH1 0x40 MLOAD PUSH2 0xD5 SWAP2 SWAP1 PUSH2 0x1466 JUMP JUMPDEST PUSH1 0x40 MLOAD DUP1 SWAP2 SUB SWAP1 RETURN JUMPDEST PUSH2 0xF8 PUSH1 0x4 DUP1 CALLDATASIZE SUB DUP2 ADD SWAP1 PUSH2 0xF3 SWAP2 SWAP1 PUSH2 0x11F5 JUMP JUMPDEST PUSH2 0x32C JUMP JUMPDEST PUSH1 0x40 MLOAD PUSH2 0x105 SWAP2 SWAP1 PUSH2 0x13B3 JUMP JUMPDEST PUSH1 0x40 MLOAD DUP1 SWAP2 SUB SWAP1 RETURN JUMPDEST PUSH2 0x128 PUSH1 0x4 DUP1 CALLDATASIZE SUB DUP2 ADD SWAP1 PUSH2 0x123 SWAP2 SWAP1 PUSH2 0x1167 JUMP JUMPDEST PUSH2 0x41C JUMP JUMPDEST STOP JUMPDEST PUSH2 0x144 PUSH1 0x4 DUP1 CALLDATASIZE SUB DUP2 ADD SWAP1 PUSH2 0x13F SWAP2 SWAP1 PUSH2 0x105C JUMP JUMPDEST PUSH2 0x610 JUMP JUMPDEST STOP JUMPDEST PUSH2 0x160 PUSH1 0x4 DUP1 CALLDATASIZE SUB DUP2 ADD SWAP1 PUSH2 0x15B SWAP2 SWAP1 PUSH2 0x105C JUMP JUMPDEST PUSH2 0xA96 JUMP JUMPDEST STOP JUMPDEST PUSH2 0x17C PUSH1 0x4 DUP1 CALLDATASIZE SUB DUP2 ADD SWAP1 PUSH2 0x177 SWAP2 SWAP1 PUSH2 0x11F5 JUMP JUMPDEST PUSH2 0xBDD JUMP JUMPDEST PUSH1 0x40 MLOAD PUSH2 0x189 SWAP2 SWAP1 PUSH2 0x13B3 JUMP JUMPDEST PUSH1 0x40 MLOAD DUP1 SWAP2 SUB SWAP1 RETURN JUMPDEST PUSH2 0x1AC PUSH1 0x4 DUP1 CALLDATASIZE SUB DUP2 ADD SWAP1 PUSH2 0x1A7 SWAP2 SWAP1 PUSH2 0xFF7 JUMP JUMPDEST PUSH2 0xC10 JUMP JUMPDEST PUSH1 0x40 MLOAD PUSH2 0x1B9 SWAP2 SWAP1 PUSH2 0x1581 JUMP JUMPDEST PUSH1 0x40 MLOAD DUP1 SWAP2 SUB SWAP1 RETURN JUMPDEST PUSH2 0x1DC PUSH1 0x4 DUP1 CALLDATASIZE SUB DUP2 ADD SWAP1 PUSH2 0x1D7 SWAP2 SWAP1 PUSH2 0x112B JUMP JUMPDEST PUSH2 0xC28 JUMP JUMPDEST STOP JUMPDEST PUSH2 0x1F8 PUSH1 0x4 DUP1 CALLDATASIZE SUB DUP2 ADD SWAP1 PUSH2 0x1F3 SWAP2 SWAP1 PUSH2 0x10AB JUMP JUMPDEST PUSH2 0xD95 JUMP JUMPDEST STOP JUMPDEST PUSH2 0x214 PUSH1 0x4 DUP1 CALLDATASIZE SUB DUP2 ADD SWAP1 PUSH2 0x20F SWAP2 SWAP1 PUSH2 0x11F5 JUMP JUMPDEST PUSH2 0xEE2 JUMP JUMPDEST PUSH1 0x40 MLOAD PUSH2 0x221 SWAP2 SWAP1 PUSH2 0x13B3 JUMP JUMPDEST PUSH1 0x40 MLOAD DUP1 SWAP2 SUB SWAP1 RETURN JUMPDEST PUSH2 0x244 PUSH1 0x4 DUP1 CALLDATASIZE SUB DUP2 ADD SWAP1 PUSH2 0x23F SWAP2 SWAP1 PUSH2 0x1020 JUMP JUMPDEST PUSH2 0xF15 JUMP JUMPDEST PUSH1 0x40 MLOAD PUSH2 0x251 SWAP2 SWAP1 PUSH2 0x1466 JUMP JUMPDEST PUSH1 0x40 MLOAD DUP1 SWAP2 SUB SWAP1 RETURN JUMPDEST PUSH1 0x0 PUSH32 0x80AC58CD00000000000000000000000000000000000000000000000000000000 PUSH28 0xFFFFFFFFFFFFFFFFFFFFFFFFFFFFFFFFFFFFFFFFFFFFFFFFFFFFFFFF NOT AND DUP3 PUSH28 0xFFFFFFFFFFFFFFFFFFFFFFFFFFFFFFFFFFFFFFFFFFFFFFFFFFFFFFFF NOT AND EQ DUP1 PUSH2 0x325 JUMPI POP PUSH32 0x1FFC9A700000000000000000000000000000000000000000000000000000000 PUSH28 0xFFFFFFFFFFFFFFFFFFFFFFFFFFFFFFFFFFFFFFFFFFFFFFFFFFFFFFFF NOT AND DUP3 PUSH28 0xFFFFFFFFFFFFFFFFFFFFFFFFFFFFFFFFFFFFFFFFFFFFFFFFFFFFFFFF NOT AND EQ JUMPDEST SWAP1 POP SWAP2 SWAP1 POP JUMP JUMPDEST PUSH1 0x0 DUP1 DUP3 EQ ISZERO PUSH2 0x371 JUMPI PUSH1 0x40 MLOAD PUSH32 0x8C379A000000000000000000000000000000000000000000000000000000000 DUP2 MSTORE PUSH1 0x4 ADD PUSH2 0x368 SWAP1 PUSH2 0x14A1 JUMP JUMPDEST PUSH1 0x40 MLOAD DUP1 SWAP2 SUB SWAP1 REVERT JUMPDEST PUSH1 0x2 PUSH1 0x0 DUP4 DUP2 MSTORE PUSH1 0x20 ADD SWAP1 DUP2 MSTORE PUSH1 0x20 ADD PUSH1 0x0 KECCAK256 PUSH1 0x0 SWAP1 SLOAD SWAP1 PUSH2 0x100 EXP SWAP1 DIV PUSH20 0xFFFFFFFFFFFFFFFFFFFFFFFFFFFFFFFFFFFFFFFF AND SWAP1 POP PUSH1 0x0 PUSH20 0xFFFFFFFFFFFFFFFFFFFFFFFFFFFFFFFFFFFFFFFF AND DUP2 PUSH20 0xFFFFFFFFFFFFFFFFFFFFFFFFFFFFFFFFFFFFFFFF AND EQ ISZERO PUSH2 0x417 JUMPI PUSH1 0x40 MLOAD PUSH32 0x8C379A000000000000000000000000000000000000000000000000000000000 DUP2 MSTORE PUSH1 0x4 ADD PUSH2 0x40E SWAP1 PUSH2 0x14A1 JUMP JUMPDEST PUSH1 0x40 MLOAD DUP1 SWAP2 SUB SWAP1 REVERT JUMPDEST SWAP2 SWAP1 POP JUMP JUMPDEST DUP2 PUSH20 0xFFFFFFFFFFFFFFFFFFFFFFFFFFFFFFFFFFFFFFFF AND PUSH1 0x2 PUSH1 0x0 DUP4 DUP2 MSTORE PUSH1 0x20 ADD SWAP1 DUP2 MSTORE PUSH1 0x20 ADD PUSH1 0x0 KECCAK256 PUSH1 0x0 SWAP1 SLOAD SWAP1 PUSH2 0x100 EXP SWAP1 DIV PUSH20 0xFFFFFFFFFFFFFFFFFFFFFFFFFFFFFFFFFFFFFFFF AND PUSH20 0xFFFFFFFFFFFFFFFFFFFFFFFFFFFFFFFFFFFFFFFF AND EQ ISZERO PUSH2 0x4BE JUMPI PUSH1 0x40 MLOAD PUSH32 0x8C379A000000000000000000000000000000000000000000000000000000000 DUP2 MSTORE PUSH1 0x4 ADD PUSH2 0x4B5 SWAP1 PUSH2 0x14C1 JUMP JUMPDEST PUSH1 0x40 MLOAD DUP1 SWAP2 SUB SWAP1 REVERT JUMPDEST CALLER PUSH20 0xFFFFFFFFFFFFFFFFFFFFFFFFFFFFFFFFFFFFFFFF AND PUSH1 0x1 PUSH1 0x0 DUP4 DUP2 MSTORE PUSH1 0x20 ADD SWAP1 DUP2 MSTORE PUSH1 0x20 ADD PUSH1 0x0 KECCAK256 PUSH1 0x0 SWAP1 SLOAD SWAP1 PUSH2 0x100 EXP SWAP1 DIV PUSH20 0xFFFFFFFFFFFFFFFFFFFFFFFFFFFFFFFFFFFFFFFF AND PUSH20 0xFFFFFFFFFFFFFFFFFFFFFFFFFFFFFFFFFFFFFFFF AND EQ PUSH2 0x55F JUMPI PUSH1 0x40 MLOAD PUSH32 0x8C379A000000000000000000000000000000000000000000000000000000000 DUP2 MSTORE PUSH1 0x4 ADD PUSH2 0x556 SWAP1 PUSH2 0x1521 JUMP JUMPDEST PUSH1 0x40 MLOAD DUP1 SWAP2 SUB SWAP1 REVERT JUMPDEST DUP2 PUSH1 0x2 PUSH1 0x0 DUP4 DUP2 MSTORE PUSH1 0x20 ADD SWAP1 DUP2 MSTORE PUSH1 0x20 ADD PUSH1 0x0 KECCAK256 PUSH1 0x0 PUSH2 0x100 EXP DUP2 SLOAD DUP2 PUSH20 0xFFFFFFFFFFFFFFFFFFFFFFFFFFFFFFFFFFFFFFFF MUL NOT AND SWAP1 DUP4 PUSH20 0xFFFFFFFFFFFFFFFFFFFFFFFFFFFFFFFFFFFFFFFF AND MUL OR SWAP1 SSTORE POP DUP1 DUP3 PUSH20 0xFFFFFFFFFFFFFFFFFFFFFFFFFFFFFFFFFFFFFFFF AND CALLER PUSH20 0xFFFFFFFFFFFFFFFFFFFFFFFFFFFFFFFFFFFFFFFF AND PUSH32 0x8C5BE1E5EBEC7D5BD14F71427D1E84F3DD0314C0F7B2291E5B200AC8C7C3B925 PUSH1 0x40 MLOAD PUSH1 0x40 MLOAD DUP1 SWAP2 SUB SWAP1 LOG4 POP POP JUMP JUMPDEST PUSH1 0x0 PUSH20 0xFFFFFFFFFFFFFFFFFFFFFFFFFFFFFFFFFFFFFFFF AND DUP4 PUSH20 0xFFFFFFFFFFFFFFFFFFFFFFFFFFFFFFFFFFFFFFFF AND EQ ISZERO DUP1 ISZERO PUSH2 0x67A JUMPI POP PUSH1 0x0 PUSH20 0xFFFFFFFFFFFFFFFFFFFFFFFFFFFFFFFFFFFFFFFF AND DUP3 PUSH20 0xFFFFFFFFFFFFFFFFFFFFFFFFFFFFFFFFFFFFFFFF AND EQ ISZERO JUMPDEST PUSH2 0x6B9 JUMPI PUSH1 0x40 MLOAD PUSH32 0x8C379A000000000000000000000000000000000000000000000000000000000 DUP2 MSTORE PUSH1 0x4 ADD PUSH2 0x6B0 SWAP1 PUSH2 0x1501 JUMP JUMPDEST PUSH1 0x40 MLOAD DUP1 SWAP2 SUB SWAP1 REVERT JUMPDEST PUSH1 0x0 DUP2 EQ ISZERO PUSH2 0x6FD JUMPI PUSH1 0x40 MLOAD PUSH32 0x8C379A000000000000000000000000000000000000000000000000000000000 DUP2 MSTORE PUSH1 0x4 ADD PUSH2 0x6F4 SWAP1 PUSH2 0x1481 JUMP JUMPDEST PUSH1 0x40 MLOAD DUP1 SWAP2 SUB SWAP1 REVERT JUMPDEST DUP3 PUSH20 0xFFFFFFFFFFFFFFFFFFFFFFFFFFFFFFFFFFFFFFFF AND PUSH1 0x1 PUSH1 0x0 DUP4 DUP2 MSTORE PUSH1 0x20 ADD SWAP1 DUP2 MSTORE PUSH1 0x20 ADD PUSH1 0x0 KECCAK256 PUSH1 0x0 SWAP1 SLOAD SWAP1 PUSH2 0x100 EXP SWAP1 DIV PUSH20 0xFFFFFFFFFFFFFFFFFFFFFFFFFFFFFFFFFFFFFFFF AND PUSH20 0xFFFFFFFFFFFFFFFFFFFFFFFFFFFFFFFFFFFFFFFF AND EQ PUSH2 0x79E JUMPI PUSH1 0x40 MLOAD PUSH32 0x8C379A000000000000000000000000000000000000000000000000000000000 DUP2 MSTORE PUSH1 0x4 ADD PUSH2 0x795 SWAP1 PUSH2 0x1481 JUMP JUMPDEST PUSH1 0x40 MLOAD DUP1 SWAP2 SUB SWAP1 REVERT JUMPDEST PUSH1 0x3 PUSH1 0x0 DUP5 PUSH20 0xFFFFFFFFFFFFFFFFFFFFFFFFFFFFFFFFFFFFFFFF AND PUSH20 0xFFFFFFFFFFFFFFFFFFFFFFFFFFFFFFFFFFFFFFFF AND DUP2 MSTORE PUSH1 0x20 ADD SWAP1 DUP2 MSTORE PUSH1 0x20 ADD PUSH1 0x0 KECCAK256 PUSH1 0x0 CALLER PUSH20 0xFFFFFFFFFFFFFFFFFFFFFFFFFFFFFFFFFFFFFFFF AND PUSH20 0xFFFFFFFFFFFFFFFFFFFFFFFFFFFFFFFFFFFFFFFF AND DUP2 MSTORE PUSH1 0x20 ADD SWAP1 DUP2 MSTORE PUSH1 0x20 ADD PUSH1 0x0 KECCAK256 PUSH1 0x0 SWAP1 SLOAD SWAP1 PUSH2 0x100 EXP SWAP1 DIV PUSH1 0xFF AND DUP1 PUSH2 0x85E JUMPI POP CALLER PUSH20 0xFFFFFFFFFFFFFFFFFFFFFFFFFFFFFFFFFFFFFFFF AND DUP4 PUSH20 0xFFFFFFFFFFFFFFFFFFFFFFFFFFFFFFFFFFFFFFFF AND EQ JUMPDEST DUP1 PUSH2 0x8C7 JUMPI POP CALLER PUSH20 0xFFFFFFFFFFFFFFFFFFFFFFFFFFFFFFFFFFFFFFFF AND PUSH1 0x2 PUSH1 0x0 DUP4 DUP2 MSTORE PUSH1 0x20 ADD SWAP1 DUP2 MSTORE PUSH1 0x20 ADD PUSH1 0x0 KECCAK256 PUSH1 0x0 SWAP1 SLOAD SWAP1 PUSH2 0x100 EXP SWAP1 DIV PUSH20 0xFFFFFFFFFFFFFFFFFFFFFFFFFFFFFFFFFFFFFFFF AND PUSH20 0xFFFFFFFFFFFFFFFFFFFFFFFFFFFFFFFFFFFFFFFF AND EQ JUMPDEST PUSH2 0x906 JUMPI PUSH1 0x40 MLOAD PUSH32 0x8C379A000000000000000000000000000000000000000000000000000000000 DUP2 MSTORE PUSH1 0x4 ADD PUSH2 0x8FD SWAP1 PUSH2 0x1541 JUMP JUMPDEST PUSH1 0x40 MLOAD DUP1 SWAP2 SUB SWAP1 REVERT JUMPDEST PUSH1 0x0 DUP1 DUP5 PUSH20 0xFFFFFFFFFFFFFFFFFFFFFFFFFFFFFFFFFFFFFFFF AND PUSH20 0xFFFFFFFFFFFFFFFFFFFFFFFFFFFFFFFFFFFFFFFF AND DUP2 MSTORE PUSH1 0x20 ADD SWAP1 DUP2 MSTORE PUSH1 0x20 ADD PUSH1 0x0 KECCAK256 PUSH1 0x0 DUP2 SLOAD DUP1 SWAP3 SWAP2 SWAP1 PUSH2 0x955 SWAP1 PUSH2 0x1641 JUMP JUMPDEST SWAP2 SWAP1 POP SSTORE POP PUSH1 0x0 DUP1 DUP4 PUSH20 0xFFFFFFFFFFFFFFFFFFFFFFFFFFFFFFFFFFFFFFFF AND PUSH20 0xFFFFFFFFFFFFFFFFFFFFFFFFFFFFFFFFFFFFFFFF AND DUP2 MSTORE PUSH1 0x20 ADD SWAP1 DUP2 MSTORE PUSH1 0x20 ADD PUSH1 0x0 KECCAK256 PUSH1 0x0 DUP2 SLOAD DUP1 SWAP3 SWAP2 SWAP1 PUSH2 0x9A9 SWAP1 PUSH2 0x166B JUMP JUMPDEST SWAP2 SWAP1 POP SSTORE POP DUP2 PUSH1 0x1 PUSH1 0x0 DUP4 DUP2 MSTORE PUSH1 0x20 ADD SWAP1 DUP2 MSTORE PUSH1 0x20 ADD PUSH1 0x0 KECCAK256 PUSH1 0x0 PUSH2 0x100 EXP DUP2 SLOAD DUP2 PUSH20 0xFFFFFFFFFFFFFFFFFFFFFFFFFFFFFFFFFFFFFFFF MUL NOT AND SWAP1 DUP4 PUSH20 0xFFFFFFFFFFFFFFFFFFFFFFFFFFFFFFFFFFFFFFFF AND MUL OR SWAP1 SSTORE POP PUSH1 0x2 PUSH1 0x0 DUP3 DUP2 MSTORE PUSH1 0x20 ADD SWAP1 DUP2 MSTORE PUSH1 0x20 ADD PUSH1 0x0 KECCAK256 PUSH1 0x0 PUSH2 0x100 EXP DUP2 SLOAD SWAP1 PUSH20 0xFFFFFFFFFFFFFFFFFFFFFFFFFFFFFFFFFFFFFFFF MUL NOT AND SWAP1 SSTORE DUP1 DUP3 PUSH20 0xFFFFFFFFFFFFFFFFFFFFFFFFFFFFFFFFFFFFFFFF AND DUP5 PUSH20 0xFFFFFFFFFFFFFFFFFFFFFFFFFFFFFFFFFFFFFFFF AND PUSH32 0xDDF252AD1BE2C89B69C2B068FC378DAA952BA7F163C4A11628F55A4DF523B3EF PUSH1 0x40 MLOAD PUSH1 0x40 MLOAD DUP1 SWAP2 SUB SWAP1 LOG4 POP POP POP JUMP JUMPDEST PUSH2 0xAA1 DUP4 DUP4 DUP4 PUSH2 0x610 JUMP JUMPDEST PUSH1 0x0 DUP3 PUSH20 0xFFFFFFFFFFFFFFFFFFFFFFFFFFFFFFFFFFFFFFFF AND EXTCODESIZE EQ DUP1 PUSH2 0xB99 JUMPI POP PUSH4 0x150B7A02 PUSH1 0xE0 SHL PUSH28 0xFFFFFFFFFFFFFFFFFFFFFFFFFFFFFFFFFFFFFFFFFFFFFFFFFFFFFFFF NOT AND DUP3 PUSH20 0xFFFFFFFFFFFFFFFFFFFFFFFFFFFFFFFFFFFFFFFF AND PUSH4 0x150B7A02 CALLER DUP6 DUP6 PUSH1 0x40 MLOAD DUP5 PUSH4 0xFFFFFFFF AND PUSH1 0xE0 SHL DUP2 MSTORE PUSH1 0x4 ADD PUSH2 0xB26 SWAP4 SWAP3 SWAP2 SWAP1 PUSH2 0x141C JUMP JUMPDEST PUSH1 0x20 PUSH1 0x40 MLOAD DUP1 DUP4 SUB DUP2 PUSH1 0x0 DUP8 DUP1 EXTCODESIZE ISZERO DUP1 ISZERO PUSH2 0xB40 JUMPI PUSH1 0x0 DUP1 REVERT JUMPDEST POP GAS CALL ISZERO DUP1 ISZERO PUSH2 0xB54 JUMPI RETURNDATASIZE PUSH1 0x0 DUP1 RETURNDATACOPY RETURNDATASIZE PUSH1 0x0 REVERT JUMPDEST POP POP POP POP PUSH1 0x40 MLOAD RETURNDATASIZE PUSH1 0x1F NOT PUSH1 0x1F DUP3 ADD AND DUP3 ADD DUP1 PUSH1 0x40 MSTORE POP DUP2 ADD SWAP1 PUSH2 0xB78 SWAP2 SWAP1 PUSH2 0x11CC JUMP JUMPDEST PUSH28 0xFFFFFFFFFFFFFFFFFFFFFFFFFFFFFFFFFFFFFFFFFFFFFFFFFFFFFFFF NOT AND EQ JUMPDEST PUSH2 0xBD8 JUMPI PUSH1 0x40 MLOAD PUSH32 0x8C379A000000000000000000000000000000000000000000000000000000000 DUP2 MSTORE PUSH1 0x4 ADD PUSH2 0xBCF SWAP1 PUSH2 0x14E1 JUMP JUMPDEST PUSH1 0x40 MLOAD DUP1 SWAP2 SUB SWAP1 REVERT JUMPDEST POP POP POP JUMP JUMPDEST PUSH1 0x1 PUSH1 0x20 MSTORE DUP1 PUSH1 0x0 MSTORE PUSH1 0x40 PUSH1 0x0 KECCAK256 PUSH1 0x0 SWAP2 POP SLOAD SWAP1 PUSH2 0x100 EXP SWAP1 DIV PUSH20 0xFFFFFFFFFFFFFFFFFFFFFFFFFFFFFFFFFFFFFFFF AND DUP2 JUMP JUMPDEST PUSH1 0x0 PUSH1 0x20 MSTORE DUP1 PUSH1 0x0 MSTORE PUSH1 0x40 PUSH1 0x0 KECCAK256 PUSH1 0x0 SWAP2 POP SWAP1 POP SLOAD DUP2 JUMP JUMPDEST PUSH1 0x0 PUSH20 0xFFFFFFFFFFFFFFFFFFFFFFFFFFFFFFFFFFFFFFFF AND DUP3 PUSH20 0xFFFFFFFFFFFFFFFFFFFFFFFFFFFFFFFFFFFFFFFF AND EQ ISZERO PUSH2 0xC98 JUMPI PUSH1 0x40 MLOAD PUSH32 0x8C379A000000000000000000000000000000000000000000000000000000000 DUP2 MSTORE PUSH1 0x4 ADD PUSH2 0xC8F SWAP1 PUSH2 0x1561 JUMP JUMPDEST PUSH1 0x40 MLOAD DUP1 SWAP2 SUB SWAP1 REVERT JUMPDEST DUP1 PUSH1 0x3 PUSH1 0x0 CALLER PUSH20 0xFFFFFFFFFFFFFFFFFFFFFFFFFFFFFFFFFFFFFFFF AND PUSH20 0xFFFFFFFFFFFFFFFFFFFFFFFFFFFFFFFFFFFFFFFF AND DUP2 MSTORE PUSH1 0x20 ADD SWAP1 DUP2 MSTORE PUSH1 0x20 ADD PUSH1 0x0 KECCAK256 PUSH1 0x0 DUP5 PUSH20 0xFFFFFFFFFFFFFFFFFFFFFFFFFFFFFFFFFFFFFFFF AND PUSH20 0xFFFFFFFFFFFFFFFFFFFFFFFFFFFFFFFFFFFFFFFF AND DUP2 MSTORE PUSH1 0x20 ADD SWAP1 DUP2 MSTORE PUSH1 0x20 ADD PUSH1 0x0 KECCAK256 PUSH1 0x0 PUSH2 0x100 EXP DUP2 SLOAD DUP2 PUSH1 0xFF MUL NOT AND SWAP1 DUP4 ISZERO ISZERO MUL OR SWAP1 SSTORE POP DUP2 PUSH20 0xFFFFFFFFFFFFFFFFFFFFFFFFFFFFFFFFFFFFFFFF AND CALLER PUSH20 0xFFFFFFFFFFFFFFFFFFFFFFFFFFFFFFFFFFFFFFFF AND PUSH32 0x17307EAB39AB6107E8899845AD3D59BD9653F200F220920489CA2B5937696C31 DUP4 PUSH1 0x40 MLOAD PUSH2 0xD89 SWAP2 SWAP1 PUSH2 0x1466 JUMP JUMPDEST PUSH1 0x40 MLOAD DUP1 SWAP2 SUB SWAP1 LOG3 POP POP JUMP JUMPDEST PUSH2 0xDA0 DUP6 DUP6 DUP6 PUSH2 0x610 JUMP JUMPDEST PUSH1 0x0 DUP5 PUSH20 0xFFFFFFFFFFFFFFFFFFFFFFFFFFFFFFFFFFFFFFFF AND EXTCODESIZE EQ DUP1 PUSH2 0xE9C JUMPI POP PUSH4 0x150B7A02 PUSH1 0xE0 SHL PUSH28 0xFFFFFFFFFFFFFFFFFFFFFFFFFFFFFFFFFFFFFFFFFFFFFFFFFFFFFFFF NOT AND DUP5 PUSH20 0xFFFFFFFFFFFFFFFFFFFFFFFFFFFFFFFFFFFFFFFF AND PUSH4 0x150B7A02 CALLER DUP8 DUP8 DUP8 DUP8 PUSH1 0x40 MLOAD DUP7 PUSH4 0xFFFFFFFF AND PUSH1 0xE0 SHL DUP2 MSTORE PUSH1 0x4 ADD PUSH2 0xE29 SWAP6 SWAP5 SWAP4 SWAP3 SWAP2 SWAP1 PUSH2 0x13CE JUMP JUMPDEST PUSH1 0x20 PUSH1 0x40 MLOAD DUP1 DUP4 SUB DUP2 PUSH1 0x0 DUP8 DUP1 EXTCODESIZE ISZERO DUP1 ISZERO PUSH2 0xE43 JUMPI PUSH1 0x0 DUP1 REVERT JUMPDEST POP GAS CALL ISZERO DUP1 ISZERO PUSH2 0xE57 JUMPI RETURNDATASIZE PUSH1 0x0 DUP1 RETURNDATACOPY RETURNDATASIZE PUSH1 0x0 REVERT JUMPDEST POP POP POP POP PUSH1 0x40 MLOAD RETURNDATASIZE PUSH1 0x1F NOT PUSH1 0x1F DUP3 ADD AND DUP3 ADD DUP1 PUSH1 0x40 MSTORE POP DUP2 ADD SWAP1 PUSH2 0xE7B SWAP2 SWAP1 PUSH2 0x11CC JUMP JUMPDEST PUSH28 0xFFFFFFFFFFFFFFFFFFFFFFFFFFFFFFFFFFFFFFFFFFFFFFFFFFFFFFFF NOT AND EQ JUMPDEST PUSH2 0xEDB JUMPI PUSH1 0x40 MLOAD PUSH32 0x8C379A000000000000000000000000000000000000000000000000000000000 DUP2 MSTORE PUSH1 0x4 ADD PUSH2 0xED2 SWAP1 PUSH2 0x14E1 JUMP JUMPDEST PUSH1 0x40 MLOAD DUP1 SWAP2 SUB SWAP1 REVERT JUMPDEST POP POP POP POP POP JUMP JUMPDEST PUSH1 0x2 PUSH1 0x20 MSTORE DUP1 PUSH1 0x0 MSTORE PUSH1 0x40 PUSH1 0x0 KECCAK256 PUSH1 0x0 SWAP2 POP SLOAD SWAP1 PUSH2 0x100 EXP SWAP1 DIV PUSH20 0xFFFFFFFFFFFFFFFFFFFFFFFFFFFFFFFFFFFFFFFF AND DUP2 JUMP JUMPDEST PUSH1 0x3 PUSH1 0x20 MSTORE DUP2 PUSH1 0x0 MSTORE PUSH1 0x40 PUSH1 0x0 KECCAK256 PUSH1 0x20 MSTORE DUP1 PUSH1 0x0 MSTORE PUSH1 0x40 PUSH1 0x0 KECCAK256 PUSH1 0x0 SWAP2 POP SWAP2 POP SWAP1 SLOAD SWAP1 PUSH2 0x100 EXP SWAP1 DIV PUSH1 0xFF AND DUP2 JUMP JUMPDEST PUSH1 0x0 DUP2 CALLDATALOAD SWAP1 POP PUSH2 0xF53 DUP2 PUSH2 0x188B JUMP JUMPDEST SWAP3 SWAP2 POP POP JUMP JUMPDEST PUSH1 0x0 DUP2 CALLDATALOAD SWAP1 POP PUSH2 0xF68 DUP2 PUSH2 0x18A2 JUMP JUMPDEST SWAP3 SWAP2 POP POP JUMP JUMPDEST PUSH1 0x0 DUP2 CALLDATALOAD SWAP1 POP PUSH2 0xF7D DUP2 PUSH2 0x18B9 JUMP JUMPDEST SWAP3 SWAP2 POP POP JUMP JUMPDEST PUSH1 0x0 DUP2 MLOAD SWAP1 POP PUSH2 0xF92 DUP2 PUSH2 0x18B9 JUMP JUMPDEST SWAP3 SWAP2 POP POP JUMP JUMPDEST PUSH1 0x0 DUP1 DUP4 PUSH1 0x1F DUP5 ADD SLT PUSH2 0xFAA JUMPI PUSH1 0x0 DUP1 REVERT JUMPDEST DUP3 CALLDATALOAD SWAP1 POP PUSH8 0xFFFFFFFFFFFFFFFF DUP2 GT ISZERO PUSH2 0xFC3 JUMPI PUSH1 0x0 DUP1 REVERT JUMPDEST PUSH1 0x20 DUP4 ADD SWAP2 POP DUP4 PUSH1 0x1 DUP3 MUL DUP4 ADD GT ISZERO PUSH2 0xFDB JUMPI PUSH1 0x0 DUP1 REVERT JUMPDEST SWAP3 POP SWAP3 SWAP1 POP JUMP JUMPDEST PUSH1 0x0 DUP2 CALLDATALOAD SWAP1 POP PUSH2 0xFF1 DUP2 PUSH2 0x18D0 JUMP JUMPDEST SWAP3 SWAP2 POP POP JUMP JUMPDEST PUSH1 0x0 PUSH1 0x20 DUP3 DUP5 SUB SLT ISZERO PUSH2 0x1009 JUMPI PUSH1 0x0 DUP1 REVERT JUMPDEST PUSH1 0x0 PUSH2 0x1017 DUP5 DUP3 DUP6 ADD PUSH2 0xF44 JUMP JUMPDEST SWAP2 POP POP SWAP3 SWAP2 POP POP JUMP JUMPDEST PUSH1 0x0 DUP1 PUSH1 0x40 DUP4 DUP6 SUB SLT ISZERO PUSH2 0x1033 JUMPI PUSH1 0x0 DUP1 REVERT JUMPDEST PUSH1 0x0 PUSH2 0x1041 DUP6 DUP3 DUP7 ADD PUSH2 0xF44 JUMP JUMPDEST SWAP3 POP POP PUSH1 0x20 PUSH2 0x1052 DUP6 DUP3 DUP7 ADD PUSH2 0xF44 JUMP JUMPDEST SWAP2 POP POP SWAP3 POP SWAP3 SWAP1 POP JUMP JUMPDEST PUSH1 0x0 DUP1 PUSH1 0x0 PUSH1 0x60 DUP5 DUP7 SUB SLT ISZERO PUSH2 0x1071 JUMPI PUSH1 0x0 DUP1 REVERT JUMPDEST PUSH1 0x0 PUSH2 0x107F DUP7 DUP3 DUP8 ADD PUSH2 0xF44 JUMP JUMPDEST SWAP4 POP POP PUSH1 0x20 PUSH2 0x1090 DUP7 DUP3 DUP8 ADD PUSH2 0xF44 JUMP JUMPDEST SWAP3 POP POP PUSH1 0x40 PUSH2 0x10A1 DUP7 DUP3 DUP8 ADD PUSH2 0xFE2 JUMP JUMPDEST SWAP2 POP POP SWAP3 POP SWAP3 POP SWAP3 JUMP JUMPDEST PUSH1 0x0 DUP1 PUSH1 0x0 DUP1 PUSH1 0x0 PUSH1 0x80 DUP7 DUP9 SUB SLT ISZERO PUSH2 0x10C3 JUMPI PUSH1 0x0 DUP1 REVERT JUMPDEST PUSH1 0x0 PUSH2 0x10D1 DUP9 DUP3 DUP10 ADD PUSH2 0xF44 JUMP JUMPDEST SWAP6 POP POP PUSH1 0x20 PUSH2 0x10E2 DUP9 DUP3 DUP10 ADD PUSH2 0xF44 JUMP JUMPDEST SWAP5 POP POP PUSH1 0x40 PUSH2 0x10F3 DUP9 DUP3 DUP10 ADD PUSH2 0xFE2 JUMP JUMPDEST SWAP4 POP POP PUSH1 0x60 DUP7 ADD CALLDATALOAD PUSH8 0xFFFFFFFFFFFFFFFF DUP2 GT ISZERO PUSH2 0x1110 JUMPI PUSH1 0x0 DUP1 REVERT JUMPDEST PUSH2 0x111C DUP9 DUP3 DUP10 ADD PUSH2 0xF98 JUMP JUMPDEST SWAP3 POP SWAP3 POP POP SWAP3 SWAP6 POP SWAP3 SWAP6 SWAP1 SWAP4 POP JUMP JUMPDEST PUSH1 0x0 DUP1 PUSH1 0x40 DUP4 DUP6 SUB SLT ISZERO PUSH2 0x113E JUMPI PUSH1 0x0 DUP1 REVERT JUMPDEST PUSH1 0x0 PUSH2 0x114C DUP6 DUP3 DUP7 ADD PUSH2 0xF44 JUMP JUMPDEST SWAP3 POP POP PUSH1 0x20 PUSH2 0x115D DUP6 DUP3 DUP7 ADD PUSH2 0xF59 JUMP JUMPDEST SWAP2 POP POP SWAP3 POP SWAP3 SWAP1 POP JUMP JUMPDEST PUSH1 0x0 DUP1 PUSH1 0x40 DUP4 DUP6 SUB SLT ISZERO PUSH2 0x117A JUMPI PUSH1 0x0 DUP1 REVERT JUMPDEST PUSH1 0x0 PUSH2 0x1188 DUP6 DUP3 DUP7 ADD PUSH2 0xF44 JUMP JUMPDEST SWAP3 POP POP PUSH1 0x20 PUSH2 0x1199 DUP6 DUP3 DUP7 ADD PUSH2 0xFE2 JUMP JUMPDEST SWAP2 POP POP SWAP3 POP SWAP3 SWAP1 POP JUMP JUMPDEST PUSH1 0x0 PUSH1 0x20 DUP3 DUP5 SUB SLT ISZERO PUSH2 0x11B5 JUMPI PUSH1 0x0 DUP1 REVERT JUMPDEST PUSH1 0x0 PUSH2 0x11C3 DUP5 DUP3 DUP6 ADD PUSH2 0xF6E JUMP JUMPDEST SWAP2 POP POP SWAP3 SWAP2 POP POP JUMP JUMPDEST PUSH1 0x0 PUSH1 0x20 DUP3 DUP5 SUB SLT ISZERO PUSH2 0x11DE JUMPI PUSH1 0x0 DUP1 REVERT JUMPDEST PUSH1 0x0 PUSH2 0x11EC DUP5 DUP3 DUP6 ADD PUSH2 0xF83 JUMP JUMPDEST SWAP2 POP POP SWAP3 SWAP2 POP POP JUMP JUMPDEST PUSH1 0x0 PUSH1 0x20 DUP3 DUP5 SUB SLT ISZERO PUSH2 0x1207 JUMPI PUSH1 0x0 DUP1 REVERT JUMPDEST PUSH1 0x0 PUSH2 0x1215 DUP5 DUP3 DUP6 ADD PUSH2 0xFE2 JUMP JUMPDEST SWAP2 POP POP SWAP3 SWAP2 POP POP JUMP JUMPDEST PUSH2 0x1227 DUP2 PUSH2 0x15BE JUMP JUMPDEST DUP3 MSTORE POP POP JUMP JUMPDEST PUSH2 0x1236 DUP2 PUSH2 0x15D0 JUMP JUMPDEST DUP3 MSTORE POP POP JUMP JUMPDEST PUSH1 0x0 PUSH2 0x1248 DUP4 DUP6 PUSH2 0x159C JUMP JUMPDEST SWAP4 POP PUSH2 0x1255 DUP4 DUP6 DUP5 PUSH2 0x1632 JUMP JUMPDEST PUSH2 0x125E DUP4 PUSH2 0x16E3 JUMP JUMPDEST DUP5 ADD SWAP1 POP SWAP4 SWAP3 POP POP POP JUMP JUMPDEST PUSH1 0x0 PUSH2 0x1276 PUSH1 0xC DUP4 PUSH2 0x15AD JUMP JUMPDEST SWAP2 POP PUSH2 0x1281 DUP3 PUSH2 0x16F4 JUMP JUMPDEST PUSH1 0x20 DUP3 ADD SWAP1 POP SWAP2 SWAP1 POP JUMP JUMPDEST PUSH1 0x0 PUSH2 0x1299 PUSH1 0x12 DUP4 PUSH2 0x15AD JUMP JUMPDEST SWAP2 POP PUSH2 0x12A4 DUP3 PUSH2 0x171D JUMP JUMPDEST PUSH1 0x20 DUP3 ADD SWAP1 POP SWAP2 SWAP1 POP JUMP JUMPDEST PUSH1 0x0 PUSH2 0x12BC PUSH1 0x1F DUP4 PUSH2 0x15AD JUMP JUMPDEST SWAP2 POP PUSH2 0x12C7 DUP3 PUSH2 0x1746 JUMP JUMPDEST PUSH1 0x20 DUP3 ADD SWAP1 POP SWAP2 SWAP1 POP JUMP JUMPDEST PUSH1 0x0 PUSH2 0x12DF PUSH1 0x15 DUP4 PUSH2 0x15AD JUMP JUMPDEST SWAP2 POP PUSH2 0x12EA DUP3 PUSH2 0x176F JUMP JUMPDEST PUSH1 0x20 DUP3 ADD SWAP1 POP SWAP2 SWAP1 POP JUMP JUMPDEST PUSH1 0x0 PUSH2 0x1302 PUSH1 0x20 DUP4 PUSH2 0x15AD JUMP JUMPDEST SWAP2 POP PUSH2 0x130D DUP3 PUSH2 0x1798 JUMP JUMPDEST PUSH1 0x20 DUP3 ADD SWAP1 POP SWAP2 SWAP1 POP JUMP JUMPDEST PUSH1 0x0 PUSH2 0x1325 PUSH1 0x35 DUP4 PUSH2 0x15AD JUMP JUMPDEST SWAP2 POP PUSH2 0x1330 DUP3 PUSH2 0x17C1 JUMP JUMPDEST PUSH1 0x40 DUP3 ADD SWAP1 POP SWAP2 SWAP1 POP JUMP JUMPDEST PUSH1 0x0 PUSH2 0x1348 PUSH1 0x0 DUP4 PUSH2 0x159C JUMP JUMPDEST SWAP2 POP PUSH2 0x1353 DUP3 PUSH2 0x1810 JUMP JUMPDEST PUSH1 0x0 DUP3 ADD SWAP1 POP SWAP2 SWAP1 POP JUMP JUMPDEST PUSH1 0x0 PUSH2 0x136B PUSH1 0x31 DUP4 PUSH2 0x15AD JUMP JUMPDEST SWAP2 POP PUSH2 0x1376 DUP3 PUSH2 0x1813 JUMP JUMPDEST PUSH1 0x40 DUP3 ADD SWAP1 POP SWAP2 SWAP1 POP JUMP JUMPDEST PUSH1 0x0 PUSH2 0x138E PUSH1 0x20 DUP4 PUSH2 0x15AD JUMP JUMPDEST SWAP2 POP PUSH2 0x1399 DUP3 PUSH2 0x1862 JUMP JUMPDEST PUSH1 0x20 DUP3 ADD SWAP1 POP SWAP2 SWAP1 POP JUMP JUMPDEST PUSH2 0x13AD DUP2 PUSH2 0x1628 JUMP JUMPDEST DUP3 MSTORE POP POP JUMP JUMPDEST PUSH1 0x0 PUSH1 0x20 DUP3 ADD SWAP1 POP PUSH2 0x13C8 PUSH1 0x0 DUP4 ADD DUP5 PUSH2 0x121E JUMP JUMPDEST SWAP3 SWAP2 POP POP JUMP JUMPDEST PUSH1 0x0 PUSH1 0x80 DUP3 ADD SWAP1 POP PUSH2 0x13E3 PUSH1 0x0 DUP4 ADD DUP9 PUSH2 0x121E JUMP JUMPDEST PUSH2 0x13F0 PUSH1 0x20 DUP4 ADD DUP8 PUSH2 0x121E JUMP JUMPDEST PUSH2 0x13FD PUSH1 0x40 DUP4 ADD DUP7 PUSH2 0x13A4 JUMP JUMPDEST DUP2 DUP2 SUB PUSH1 0x60 DUP4 ADD MSTORE PUSH2 0x1410 DUP2 DUP5 DUP7 PUSH2 0x123C JUMP JUMPDEST SWAP1 POP SWAP7 SWAP6 POP POP POP POP POP POP JUMP JUMPDEST PUSH1 0x0 PUSH1 0x80 DUP3 ADD SWAP1 POP PUSH2 0x1431 PUSH1 0x0 DUP4 ADD DUP7 PUSH2 0x121E JUMP JUMPDEST PUSH2 0x143E PUSH1 0x20 DUP4 ADD DUP6 PUSH2 0x121E JUMP JUMPDEST PUSH2 0x144B PUSH1 0x40 DUP4 ADD DUP5 PUSH2 0x13A4 JUMP JUMPDEST DUP2 DUP2 SUB PUSH1 0x60 DUP4 ADD MSTORE PUSH2 0x145C DUP2 PUSH2 0x133B JUMP JUMPDEST SWAP1 POP SWAP5 SWAP4 POP POP POP POP JUMP JUMPDEST PUSH1 0x0 PUSH1 0x20 DUP3 ADD SWAP1 POP PUSH2 0x147B PUSH1 0x0 DUP4 ADD DUP5 PUSH2 0x122D JUMP JUMPDEST SWAP3 SWAP2 POP POP JUMP JUMPDEST PUSH1 0x0 PUSH1 0x20 DUP3 ADD SWAP1 POP DUP2 DUP2 SUB PUSH1 0x0 DUP4 ADD MSTORE PUSH2 0x149A DUP2 PUSH2 0x1269 JUMP JUMPDEST SWAP1 POP SWAP2 SWAP1 POP JUMP JUMPDEST PUSH1 0x0 PUSH1 0x20 DUP3 ADD SWAP1 POP DUP2 DUP2 SUB PUSH1 0x0 DUP4 ADD MSTORE PUSH2 0x14BA DUP2 PUSH2 0x128C JUMP JUMPDEST SWAP1 POP SWAP2 SWAP1 POP JUMP JUMPDEST PUSH1 0x0 PUSH1 0x20 DUP3 ADD SWAP1 POP DUP2 DUP2 SUB PUSH1 0x0 DUP4 ADD MSTORE PUSH2 0x14DA DUP2 PUSH2 0x12AF JUMP JUMPDEST SWAP1 POP SWAP2 SWAP1 POP JUMP JUMPDEST PUSH1 0x0 PUSH1 0x20 DUP3 ADD SWAP1 POP DUP2 DUP2 SUB PUSH1 0x0 DUP4 ADD MSTORE PUSH2 0x14FA DUP2 PUSH2 0x12D2 JUMP JUMPDEST SWAP1 POP SWAP2 SWAP1 POP JUMP JUMPDEST PUSH1 0x0 PUSH1 0x20 DUP3 ADD SWAP1 POP DUP2 DUP2 SUB PUSH1 0x0 DUP4 ADD MSTORE PUSH2 0x151A DUP2 PUSH2 0x12F5 JUMP JUMPDEST SWAP1 POP SWAP2 SWAP1 POP JUMP JUMPDEST PUSH1 0x0 PUSH1 0x20 DUP3 ADD SWAP1 POP DUP2 DUP2 SUB PUSH1 0x0 DUP4 ADD MSTORE PUSH2 0x153A DUP2 PUSH2 0x1318 JUMP JUMPDEST SWAP1 POP SWAP2 SWAP1 POP JUMP JUMPDEST PUSH1 0x0 PUSH1 0x20 DUP3 ADD SWAP1 POP DUP2 DUP2 SUB PUSH1 0x0 DUP4 ADD MSTORE PUSH2 0x155A DUP2 PUSH2 0x135E JUMP JUMPDEST SWAP1 POP SWAP2 SWAP1 POP JUMP JUMPDEST PUSH1 0x0 PUSH1 0x20 DUP3 ADD SWAP1 POP DUP2 DUP2 SUB PUSH1 0x0 DUP4 ADD MSTORE PUSH2 0x157A DUP2 PUSH2 0x1381 JUMP JUMPDEST SWAP1 POP SWAP2 SWAP1 POP JUMP JUMPDEST PUSH1 0x0 PUSH1 0x20 DUP3 ADD SWAP1 POP PUSH2 0x1596 PUSH1 0x0 DUP4 ADD DUP5 PUSH2 0x13A4 JUMP JUMPDEST SWAP3 SWAP2 POP POP JUMP JUMPDEST PUSH1 0x0 DUP3 DUP3 MSTORE PUSH1 0x20 DUP3 ADD SWAP1 POP SWAP3 SWAP2 POP POP JUMP JUMPDEST PUSH1 0x0 DUP3 DUP3 MSTORE PUSH1 0x20 DUP3 ADD SWAP1 POP SWAP3 SWAP2 POP POP JUMP JUMPDEST PUSH1 0x0 PUSH2 0x15C9 DUP3 PUSH2 0x1608 JUMP JUMPDEST SWAP1 POP SWAP2 SWAP1 POP JUMP JUMPDEST PUSH1 0x0 DUP2 ISZERO ISZERO SWAP1 POP SWAP2 SWAP1 POP JUMP JUMPDEST PUSH1 0x0 PUSH32 0xFFFFFFFF00000000000000000000000000000000000000000000000000000000 DUP3 AND SWAP1 POP SWAP2 SWAP1 POP JUMP JUMPDEST PUSH1 0x0 PUSH20 0xFFFFFFFFFFFFFFFFFFFFFFFFFFFFFFFFFFFFFFFF DUP3 AND SWAP1 POP SWAP2 SWAP1 POP JUMP JUMPDEST PUSH1 0x0 DUP2 SWAP1 POP SWAP2 SWAP1 POP JUMP JUMPDEST DUP3 DUP2 DUP4 CALLDATACOPY PUSH1 0x0 DUP4 DUP4 ADD MSTORE POP POP POP JUMP JUMPDEST PUSH1 0x0 PUSH2 0x164C DUP3 PUSH2 0x1628 JUMP JUMPDEST SWAP2 POP PUSH1 0x0 DUP3 EQ ISZERO PUSH2 0x1660 JUMPI PUSH2 0x165F PUSH2 0x16B4 JUMP JUMPDEST JUMPDEST PUSH1 0x1 DUP3 SUB SWAP1 POP SWAP2 SWAP1 POP JUMP JUMPDEST PUSH1 0x0 PUSH2 0x1676 DUP3 PUSH2 0x1628 JUMP JUMPDEST SWAP2 POP PUSH32 0xFFFFFFFFFFFFFFFFFFFFFFFFFFFFFFFFFFFFFFFFFFFFFFFFFFFFFFFFFFFFFFFF DUP3 EQ ISZERO PUSH2 0x16A9 JUMPI PUSH2 0x16A8 PUSH2 0x16B4 JUMP JUMPDEST JUMPDEST PUSH1 0x1 DUP3 ADD SWAP1 POP SWAP2 SWAP1 POP JUMP JUMPDEST PUSH32 0x4E487B7100000000000000000000000000000000000000000000000000000000 PUSH1 0x0 MSTORE PUSH1 0x11 PUSH1 0x4 MSTORE PUSH1 0x24 PUSH1 0x0 REVERT JUMPDEST PUSH1 0x0 PUSH1 0x1F NOT PUSH1 0x1F DUP4 ADD AND SWAP1 POP SWAP2 SWAP1 POP JUMP JUMPDEST PUSH32 0x746F6B656E4964207A65726F0000000000000000000000000000000000000000 PUSH1 0x0 DUP3 ADD MSTORE POP JUMP JUMPDEST PUSH32 0x746F6B656E49642069732063616E6E7420300000000000000000000000000000 PUSH1 0x0 DUP3 ADD MSTORE POP JUMP JUMPDEST PUSH32 0x4552433732313A20617070726F76656420697320616C72656164792073657400 PUSH1 0x0 DUP3 ADD MSTORE POP JUMP JUMPDEST PUSH32 0x736166655472616E7366657246726F6D206661696C0000000000000000000000 PUSH1 0x0 DUP3 ADD MSTORE POP JUMP JUMPDEST PUSH32 0x61646472657373206F7220746F41646472657373207A65726F206973206E6F74 PUSH1 0x0 DUP3 ADD MSTORE POP JUMP JUMPDEST PUSH32 0x4552433732313A20617070726F7665642063616C6C6572206973206E6F74206F PUSH1 0x0 DUP3 ADD MSTORE PUSH32 0x776E6572206E6F7220617070726F76656420666F720000000000000000000000 PUSH1 0x20 DUP3 ADD MSTORE POP JUMP JUMPDEST POP JUMP JUMPDEST PUSH32 0x4552433732313A207472616E736665722063616C6C6572206973206E6F74206F PUSH1 0x0 DUP3 ADD MSTORE PUSH32 0x776E6572206E6F7220617070726F766564000000000000000000000000000000 PUSH1 0x20 DUP3 ADD MSTORE POP JUMP JUMPDEST PUSH32 0x6F70657261746F7220616464726573732069732030206F72206E6F7420736574 PUSH1 0x0 DUP3 ADD MSTORE POP JUMP JUMPDEST PUSH2 0x1894 DUP2 PUSH2 0x15BE JUMP JUMPDEST DUP2 EQ PUSH2 0x189F JUMPI PUSH1 0x0 DUP1 REVERT JUMPDEST POP JUMP JUMPDEST PUSH2 0x18AB DUP2 PUSH2 0x15D0 JUMP JUMPDEST DUP2 EQ PUSH2 0x18B6 JUMPI PUSH1 0x0 DUP1 REVERT JUMPDEST POP JUMP JUMPDEST PUSH2 0x18C2 DUP2 PUSH2 0x15DC JUMP JUMPDEST DUP2 EQ PUSH2 0x18CD JUMPI PUSH1 0x0 DUP1 REVERT JUMPDEST POP JUMP JUMPDEST PUSH2 0x18D9 DUP2 PUSH2 0x1628 JUMP JUMPDEST DUP2 EQ PUSH2 0x18E4 JUMPI PUSH1 0x0 DUP1 REVERT JUMPDEST POP JUMP INVALID LOG2 PUSH5 0x6970667358 0x22 SLT KECCAK256 SWAP12 0xA7 0x2A JUMPDEST 0xE3 0xFC SWAP16 SELFDESTRUCT 0xB9 SDIV 0xC3 RETURNDATACOPY SAR 0xDE DUP8 PUSH31 0x514BA34895F0AD69549B5416E30B1D1E64736F6C6343000804003300000000 "
				},
				"gasEstimates": {
					"creation": {
						"codeDepositCost": "1285800",
						"executionCost": "1335",
						"totalCost": "1287135"
					},
					"external": {
						"_approves(uint256)": "1627",
						"approve(address,uint256)": "25440",
						"balanceOf(address)": "1536",
						"getApproved(uint256)": "1705",
						"isApprovedForAll(address,address)": "infinite",
						"ownerOf(uint256)": "1539",
						"safeTransferFrom(address,address,uint256)": "infinite",
						"safeTransferFrom(address,address,uint256,bytes)": "infinite",
						"setApprovalForAll(address,bool)": "infinite",
						"supportsInterface(bytes4)": "685",
						"transferFrom(address,address,uint256)": "infinite"
					}
				},
				"methodIdentifiers": {
					"_approves(uint256)": "e7c19a0f",
					"approve(address,uint256)": "095ea7b3",
					"balanceOf(address)": "70a08231",
					"getApproved(uint256)": "081812fc",
					"isApprovedForAll(address,address)": "e985e9c5",
					"ownerOf(uint256)": "6352211e",
					"safeTransferFrom(address,address,uint256)": "42842e0e",
					"safeTransferFrom(address,address,uint256,bytes)": "b88d4fde",
					"setApprovalForAll(address,bool)": "a22cb465",
					"supportsInterface(bytes4)": "01ffc9a7",
					"transferFrom(address,address,uint256)": "23b872dd"
				}
			},
			"storageLayout": {
				"storage": [
					{
						"astId": 141,
						"contract": "contracts/base/ERC721Test.sol:ERC721_2",
						"label": "balanceOf",
						"offset": 0,
						"slot": "0",
						"type": "t_mapping(t_address,t_uint256)"
					},
					{
						"astId": 146,
						"contract": "contracts/base/ERC721Test.sol:ERC721_2",
						"label": "ownerOf",
						"offset": 0,
						"slot": "1",
						"type": "t_mapping(t_uint256,t_address)"
					},
					{
						"astId": 150,
						"contract": "contracts/base/ERC721Test.sol:ERC721_2",
						"label": "_approves",
						"offset": 0,
						"slot": "2",
						"type": "t_mapping(t_uint256,t_address)"
					},
					{
						"astId": 157,
						"contract": "contracts/base/ERC721Test.sol:ERC721_2",
						"label": "isApprovedForAll",
						"offset": 0,
						"slot": "3",
						"type": "t_mapping(t_address,t_mapping(t_address,t_bool))"
					}
				],
				"types": {
					"t_address": {
						"encoding": "inplace",
						"label": "address",
						"numberOfBytes": "20"
					},
					"t_bool": {
						"encoding": "inplace",
						"label": "bool",
						"numberOfBytes": "1"
					},
					"t_mapping(t_address,t_bool)": {
						"encoding": "mapping",
						"key": "t_address",
						"label": "mapping(address => bool)",
						"numberOfBytes": "32",
						"value": "t_bool"
					},
					"t_mapping(t_address,t_mapping(t_address,t_bool))": {
						"encoding": "mapping",
						"key": "t_address",
						"label": "mapping(address => mapping(address => bool))",
						"numberOfBytes": "32",
						"value": "t_mapping(t_address,t_bool)"
					},
					"t_mapping(t_address,t_uint256)": {
						"encoding": "mapping",
						"key": "t_address",
						"label": "mapping(address => uint256)",
						"numberOfBytes": "32",
						"value": "t_uint256"
					},
					"t_mapping(t_uint256,t_address)": {
						"encoding": "mapping",
						"key": "t_uint256",
						"label": "mapping(uint256 => address)",
						"numberOfBytes": "32",
						"value": "t_address"
					},
					"t_uint256": {
						"encoding": "inplace",
						"label": "uint256",
						"numberOfBytes": "32"
					}
				}
			},
			"userdoc": {
				"kind": "user",
				"methods": {
					"approve(address,uint256)": {
						"notice": "描述：授权某个地址管理特定的ERC721代币 参数： _approved：被授权的地址 _tokenId：代币的唯一识别 ID"
					},
					"balanceOf(address)": {
						"notice": "描述：返回指定地址所拥有的代币数量 参数：_owner：代币拥有者的地址 返回值：该地址拥有的代币数量"
					},
					"getApproved(uint256)": {
						"notice": "描述：获取被授权管理特定代币的地址 参数：_tokenId：代币的唯一识别 ID 返回值：被授权的管理该代币的地址"
					},
					"isApprovedForAll(address,address)": {
						"notice": "描述：查询一个操作者是否被批准管理某个所有者的所有代币 参数： _owner：代币拥有者的地址 _operator：操作者的地址 返回值：是否被授权的布尔值"
					},
					"ownerOf(uint256)": {
						"notice": "描述：查询某个代币的所有者 参数：_tokenId：代币的唯一识别 ID 返回值：拥有此代币的地址"
					},
					"safeTransferFrom(address,address,uint256)": {
						"notice": "描述：安全地将代币从一个地址转移到另一个地址，调用时会检查接收者地址是否具备处理 ERC721 代币的能力 参数： _from：当前代币的拥有者地址 _to：代币将要被转移至的目标地址 _tokenId：将要被转移的代币的 ID data：额外的数据，可能会在调用中使用"
					},
					"safeTransferFrom(address,address,uint256,bytes)": {
						"notice": "描述：安全地将代币从一个地址转移到另一个地址，调用时会检查接收者地址是否具备处理 ERC721 代币的能力 参数： _from：当前代币的拥有者地址 _to：代币将要被转移至的目标地址 _tokenId：将要被转移的代币的 ID data：额外的数据，可能会在调用中使用"
					},
					"setApprovalForAll(address,bool)": {
						"notice": "描述：将一个操作者地址设置为被批准或取消批准管理所有代币的权利 参数： _operator：操作者的地址 _approved：批准或取消批准的标志"
					},
					"supportsInterface(bytes4)": {
						"notice": "作用场景： 当合约A需要调用合约B的特定功能（如转账、查询余额）时， 可先通过supportsInterface检查合约B是否支持相关接口（如ERC20、ERC721），避免调用失败。 实际应用场景 1. ​DeFi协议集成 钱包或交易所调用supportsInterface检测代币合约是否兼容ERC20，以决定是否展示余额或支持交易。 2. ​NFT市场 交易平台通过检查IERC721Receiver接口（ID：0x150b7a02），确认目标合约能否安全接收NFT，避免资产锁定。 3. ​可升级合约 代理合约在升级后，调用方需验证新逻辑合约是否支持原有接口，确保兼容性"
					},
					"transferFrom(address,address,uint256)": {
						"notice": "描述：将代币从一个地址转移到另一个地址，不检查接收者地址是否能处理 ERC721 代币 参数： _from：当前代币的拥有者地址 _to：代币将要被转移至的目标地址 _tokenId：将要被转移的代币的 ID"
					}
				},
				"version": 1
			}
		}
	}
}