{
	"contracts/base/ERC721Test.sol": {
		"MyNFT": {
			"abi": [
				{
					"anonymous": false,
					"inputs": [
						{
							"indexed": true,
							"internalType": "address",
							"name": "owner",
							"type": "address"
						},
						{
							"indexed": true,
							"internalType": "address",
							"name": "approved",
							"type": "address"
						},
						{
							"indexed": true,
							"internalType": "uint256",
							"name": "tokenId",
							"type": "uint256"
						}
					],
					"name": "Approval",
					"type": "event"
				},
				{
					"anonymous": false,
					"inputs": [
						{
							"indexed": true,
							"internalType": "address",
							"name": "owner",
							"type": "address"
						},
						{
							"indexed": true,
							"internalType": "address",
							"name": "operator",
							"type": "address"
						},
						{
							"indexed": false,
							"internalType": "bool",
							"name": "approved",
							"type": "bool"
						}
					],
					"name": "ApprovalForAll",
					"type": "event"
				},
				{
					"anonymous": false,
					"inputs": [
						{
							"indexed": true,
							"internalType": "address",
							"name": "from",
							"type": "address"
						},
						{
							"indexed": true,
							"internalType": "address",
							"name": "to",
							"type": "address"
						},
						{
							"indexed": true,
							"internalType": "uint256",
							"name": "tokenId",
							"type": "uint256"
						}
					],
					"name": "Transfer",
					"type": "event"
				},
				{
					"inputs": [
						{
							"internalType": "address",
							"name": "to",
							"type": "address"
						},
						{
							"internalType": "uint256",
							"name": "tokenId",
							"type": "uint256"
						}
					],
					"name": "approve",
					"outputs": [],
					"stateMutability": "nonpayable",
					"type": "function"
				},
				{
					"inputs": [
						{
							"internalType": "address",
							"name": "owner",
							"type": "address"
						}
					],
					"name": "balanceOf",
					"outputs": [
						{
							"internalType": "uint256",
							"name": "balance",
							"type": "uint256"
						}
					],
					"stateMutability": "view",
					"type": "function"
				},
				{
					"inputs": [
						{
							"internalType": "uint256",
							"name": "tokenId",
							"type": "uint256"
						}
					],
					"name": "burn",
					"outputs": [],
					"stateMutability": "nonpayable",
					"type": "function"
				},
				{
					"inputs": [
						{
							"internalType": "uint256",
							"name": "tokenId",
							"type": "uint256"
						}
					],
					"name": "getApproved",
					"outputs": [
						{
							"internalType": "address",
							"name": "operator",
							"type": "address"
						}
					],
					"stateMutability": "view",
					"type": "function"
				},
				{
					"inputs": [
						{
							"internalType": "address",
							"name": "",
							"type": "address"
						},
						{
							"internalType": "address",
							"name": "",
							"type": "address"
						}
					],
					"name": "isApprovedForAll",
					"outputs": [
						{
							"internalType": "bool",
							"name": "",
							"type": "bool"
						}
					],
					"stateMutability": "view",
					"type": "function"
				},
				{
					"inputs": [
						{
							"internalType": "address",
							"name": "to",
							"type": "address"
						},
						{
							"internalType": "uint256",
							"name": "tokenId",
							"type": "uint256"
						}
					],
					"name": "mint",
					"outputs": [],
					"stateMutability": "nonpayable",
					"type": "function"
				},
				{
					"inputs": [
						{
							"internalType": "uint256",
							"name": "tokenId",
							"type": "uint256"
						}
					],
					"name": "ownerOf",
					"outputs": [
						{
							"internalType": "address",
							"name": "owner",
							"type": "address"
						}
					],
					"stateMutability": "view",
					"type": "function"
				},
				{
					"inputs": [
						{
							"internalType": "address",
							"name": "from",
							"type": "address"
						},
						{
							"internalType": "address",
							"name": "to",
							"type": "address"
						},
						{
							"internalType": "uint256",
							"name": "tokenId",
							"type": "uint256"
						}
					],
					"name": "safeTransferFrom",
					"outputs": [],
					"stateMutability": "nonpayable",
					"type": "function"
				},
				{
					"inputs": [
						{
							"internalType": "address",
							"name": "from",
							"type": "address"
						},
						{
							"internalType": "address",
							"name": "to",
							"type": "address"
						},
						{
							"internalType": "uint256",
							"name": "tokenId",
							"type": "uint256"
						},
						{
							"internalType": "bytes",
							"name": "data",
							"type": "bytes"
						}
					],
					"name": "safeTransferFrom",
					"outputs": [],
					"stateMutability": "nonpayable",
					"type": "function"
				},
				{
					"inputs": [
						{
							"internalType": "address",
							"name": "operator",
							"type": "address"
						},
						{
							"internalType": "bool",
							"name": "_approved",
							"type": "bool"
						}
					],
					"name": "setApprovalForAll",
					"outputs": [],
					"stateMutability": "nonpayable",
					"type": "function"
				},
				{
					"inputs": [
						{
							"internalType": "bytes4",
							"name": "interfaceId",
							"type": "bytes4"
						}
					],
					"name": "supportsInterface",
					"outputs": [
						{
							"internalType": "bool",
							"name": "",
							"type": "bool"
						}
					],
					"stateMutability": "pure",
					"type": "function"
				},
				{
					"inputs": [
						{
							"internalType": "address",
							"name": "from",
							"type": "address"
						},
						{
							"internalType": "address",
							"name": "to",
							"type": "address"
						},
						{
							"internalType": "uint256",
							"name": "tokenId",
							"type": "uint256"
						}
					],
					"name": "transferFrom",
					"outputs": [],
					"stateMutability": "nonpayable",
					"type": "function"
				}
			],
			"devdoc": {
				"kind": "dev",
				"methods": {},
				"version": 1
			},
			"evm": {
				"assembly": "    /* \"contracts/base/ERC721Test.sol\":17337:17599  contract MyNFT is ERC721 {\r... */\n  mstore(0x40, 0x80)\n  callvalue\n  dup1\n  iszero\n  tag_1\n  jumpi\n  0x00\n  dup1\n  revert\ntag_1:\n  pop\n  dataSize(sub_0)\n  dup1\n  dataOffset(sub_0)\n  0x00\n  codecopy\n  0x00\n  return\nstop\n\nsub_0: assembly {\n        /* \"contracts/base/ERC721Test.sol\":17337:17599  contract MyNFT is ERC721 {\r... */\n      mstore(0x40, 0x80)\n      callvalue\n      dup1\n      iszero\n      tag_1\n      jumpi\n      0x00\n      dup1\n      revert\n    tag_1:\n      pop\n      jumpi(tag_2, lt(calldatasize, 0x04))\n      shr(0xe0, calldataload(0x00))\n      dup1\n      0x42966c68\n      gt\n      tag_15\n      jumpi\n      dup1\n      0x42966c68\n      eq\n      tag_9\n      jumpi\n      dup1\n      0x6352211e\n      eq\n      tag_10\n      jumpi\n      dup1\n      0x70a08231\n      eq\n      tag_11\n      jumpi\n      dup1\n      0xa22cb465\n      eq\n      tag_12\n      jumpi\n      dup1\n      0xb88d4fde\n      eq\n      tag_13\n      jumpi\n      dup1\n      0xe985e9c5\n      eq\n      tag_14\n      jumpi\n      jump(tag_2)\n    tag_15:\n      dup1\n      0x01ffc9a7\n      eq\n      tag_3\n      jumpi\n      dup1\n      0x081812fc\n      eq\n      tag_4\n      jumpi\n      dup1\n      0x095ea7b3\n      eq\n      tag_5\n      jumpi\n      dup1\n      0x23b872dd\n      eq\n      tag_6\n      jumpi\n      dup1\n      0x40c10f19\n      eq\n      tag_7\n      jumpi\n      dup1\n      0x42842e0e\n      eq\n      tag_8\n      jumpi\n    tag_2:\n      0x00\n      dup1\n      revert\n        /* \"contracts/base/ERC721Test.sol\":11979:12176  function supportsInterface(bytes4 interfaceId) override  external pure  returns (bool){\r... */\n    tag_3:\n      tag_16\n      0x04\n      dup1\n      calldatasize\n      sub\n      dup2\n      add\n      swap1\n      tag_17\n      swap2\n      swap1\n      tag_18\n      jump\t// in\n    tag_17:\n      tag_19\n      jump\t// in\n    tag_16:\n      mload(0x40)\n      tag_20\n      swap2\n      swap1\n      tag_21\n      jump\t// in\n    tag_20:\n      mload(0x40)\n      dup1\n      swap2\n      sub\n      swap1\n      return\n        /* \"contracts/base/ERC721Test.sol\":16020:16223  function getApproved(uint256 tokenId) override external view returns (address operator){\r... */\n    tag_4:\n      tag_22\n      0x04\n      dup1\n      calldatasize\n      sub\n      dup2\n      add\n      swap1\n      tag_23\n      swap2\n      swap1\n      tag_24\n      jump\t// in\n    tag_23:\n      tag_25\n      jump\t// in\n    tag_22:\n      mload(0x40)\n      tag_26\n      swap2\n      swap1\n      tag_27\n      jump\t// in\n    tag_26:\n      mload(0x40)\n      dup1\n      swap2\n      sub\n      swap1\n      return\n        /* \"contracts/base/ERC721Test.sol\":15517:15820  function approve(address to, uint256 tokenId) override external{\r... */\n    tag_5:\n      tag_28\n      0x04\n      dup1\n      calldatasize\n      sub\n      dup2\n      add\n      swap1\n      tag_29\n      swap2\n      swap1\n      tag_30\n      jump\t// in\n    tag_29:\n      tag_31\n      jump\t// in\n    tag_28:\n      stop\n        /* \"contracts/base/ERC721Test.sol\":14461:15070  function transferFrom(address from, address to, uint256 tokenId) override  public {\r... */\n    tag_6:\n      tag_32\n      0x04\n      dup1\n      calldatasize\n      sub\n      dup2\n      add\n      swap1\n      tag_33\n      swap2\n      swap1\n      tag_34\n      jump\t// in\n    tag_33:\n      tag_35\n      jump\t// in\n    tag_32:\n      stop\n        /* \"contracts/base/ERC721Test.sol\":17369:17455  function mint(address to, uint tokenId) external {\r... */\n    tag_7:\n      tag_36\n      0x04\n      dup1\n      calldatasize\n      sub\n      dup2\n      add\n      swap1\n      tag_37\n      swap2\n      swap1\n      tag_30\n      jump\t// in\n    tag_37:\n      tag_38\n      jump\t// in\n    tag_36:\n      stop\n        /* \"contracts/base/ERC721Test.sol\":12975:13359  function safeTransferFrom(address from, address to, uint256 tokenId) override external{\r... */\n    tag_8:\n      tag_39\n      0x04\n      dup1\n      calldatasize\n      sub\n      dup2\n      add\n      swap1\n      tag_40\n      swap2\n      swap1\n      tag_34\n      jump\t// in\n    tag_40:\n      tag_41\n      jump\t// in\n    tag_39:\n      stop\n        /* \"contracts/base/ERC721Test.sol\":17461:17594  function burn(uint tokenId) external {\r... */\n    tag_9:\n      tag_42\n      0x04\n      dup1\n      calldatasize\n      sub\n      dup2\n      add\n      swap1\n      tag_43\n      swap2\n      swap1\n      tag_24\n      jump\t// in\n    tag_43:\n      tag_44\n      jump\t// in\n    tag_42:\n      stop\n        /* \"contracts/base/ERC721Test.sol\":12738:12965  function ownerOf(uint256 tokenId) override public  view returns (address owner){\r... */\n    tag_10:\n      tag_45\n      0x04\n      dup1\n      calldatasize\n      sub\n      dup2\n      add\n      swap1\n      tag_46\n      swap2\n      swap1\n      tag_24\n      jump\t// in\n    tag_46:\n      tag_47\n      jump\t// in\n    tag_45:\n      mload(0x40)\n      tag_48\n      swap2\n      swap1\n      tag_27\n      jump\t// in\n    tag_48:\n      mload(0x40)\n      dup1\n      swap2\n      sub\n      swap1\n      return\n        /* \"contracts/base/ERC721Test.sol\":12369:12561  function balanceOf(address owner) override external view returns (uint256 balance){\r... */\n    tag_11:\n      tag_49\n      0x04\n      dup1\n      calldatasize\n      sub\n      dup2\n      add\n      swap1\n      tag_50\n      swap2\n      swap1\n      tag_51\n      jump\t// in\n    tag_50:\n      tag_52\n      jump\t// in\n    tag_49:\n      mload(0x40)\n      tag_53\n      swap2\n      swap1\n      tag_54\n      jump\t// in\n    tag_53:\n      mload(0x40)\n      dup1\n      swap2\n      sub\n      swap1\n      return\n        /* \"contracts/base/ERC721Test.sol\":16462:16738  function setApprovalForAll(address operator, bool _approved) override external{\r... */\n    tag_12:\n      tag_55\n      0x04\n      dup1\n      calldatasize\n      sub\n      dup2\n      add\n      swap1\n      tag_56\n      swap2\n      swap1\n      tag_57\n      jump\t// in\n    tag_56:\n      tag_58\n      jump\t// in\n    tag_55:\n      stop\n        /* \"contracts/base/ERC721Test.sol\":13774:14138  function safeTransferFrom(address from, address to, uint256 tokenId, bytes calldata data) override external{\r... */\n    tag_13:\n      tag_59\n      0x04\n      dup1\n      calldatasize\n      sub\n      dup2\n      add\n      swap1\n      tag_60\n      swap2\n      swap1\n      tag_61\n      jump\t// in\n    tag_60:\n      tag_62\n      jump\t// in\n    tag_59:\n      stop\n        /* \"contracts/base/ERC721Test.sol\":11821:11899  mapping(address => mapping(address => bool)) override  public isApprovedForAll */\n    tag_14:\n      tag_63\n      0x04\n      dup1\n      calldatasize\n      sub\n      dup2\n      add\n      swap1\n      tag_64\n      swap2\n      swap1\n      tag_65\n      jump\t// in\n    tag_64:\n      tag_66\n      jump\t// in\n    tag_63:\n      mload(0x40)\n      tag_67\n      swap2\n      swap1\n      tag_21\n      jump\t// in\n    tag_67:\n      mload(0x40)\n      dup1\n      swap2\n      sub\n      swap1\n      return\n        /* \"contracts/base/ERC721Test.sol\":11979:12176  function supportsInterface(bytes4 interfaceId) override  external pure  returns (bool){\r... */\n    tag_19:\n        /* \"contracts/base/ERC721Test.sol\":12060:12064  bool */\n      0x00\n        /* \"contracts/base/ERC721Test.sol\":12098:12123  type(IERC721).interfaceId */\n      0x80ac58cd00000000000000000000000000000000000000000000000000000000\n        /* \"contracts/base/ERC721Test.sol\":12083:12123  interfaceId == type(IERC721).interfaceId */\n      not(0xffffffffffffffffffffffffffffffffffffffffffffffffffffffff)\n      and\n        /* \"contracts/base/ERC721Test.sol\":12083:12094  interfaceId */\n      dup3\n        /* \"contracts/base/ERC721Test.sol\":12083:12123  interfaceId == type(IERC721).interfaceId */\n      not(0xffffffffffffffffffffffffffffffffffffffffffffffffffffffff)\n      and\n      eq\n        /* \"contracts/base/ERC721Test.sol\":12083:12167  interfaceId == type(IERC721).interfaceId || interfaceId == type(IERC165).interfaceId */\n      dup1\n      tag_69\n      jumpi\n      pop\n        /* \"contracts/base/ERC721Test.sol\":12142:12167  type(IERC165).interfaceId */\n      0x01ffc9a700000000000000000000000000000000000000000000000000000000\n        /* \"contracts/base/ERC721Test.sol\":12127:12167  interfaceId == type(IERC165).interfaceId */\n      not(0xffffffffffffffffffffffffffffffffffffffffffffffffffffffff)\n      and\n        /* \"contracts/base/ERC721Test.sol\":12127:12138  interfaceId */\n      dup3\n        /* \"contracts/base/ERC721Test.sol\":12127:12167  interfaceId == type(IERC165).interfaceId */\n      not(0xffffffffffffffffffffffffffffffffffffffffffffffffffffffff)\n      and\n      eq\n        /* \"contracts/base/ERC721Test.sol\":12083:12167  interfaceId == type(IERC721).interfaceId || interfaceId == type(IERC165).interfaceId */\n    tag_69:\n        /* \"contracts/base/ERC721Test.sol\":12076:12167  return interfaceId == type(IERC721).interfaceId || interfaceId == type(IERC165).interfaceId */\n      swap1\n      pop\n        /* \"contracts/base/ERC721Test.sol\":11979:12176  function supportsInterface(bytes4 interfaceId) override  external pure  returns (bool){\r... */\n      swap2\n      swap1\n      pop\n      jump\t// out\n        /* \"contracts/base/ERC721Test.sol\":16020:16223  function getApproved(uint256 tokenId) override external view returns (address operator){\r... */\n    tag_25:\n        /* \"contracts/base/ERC721Test.sol\":16090:16106  address operator */\n      0x00\n        /* \"contracts/base/ERC721Test.sol\":16154:16155  0 */\n      dup1\n        /* \"contracts/base/ERC721Test.sol\":16126:16156  _owners[tokenId] != address(0) */\n      0xffffffffffffffffffffffffffffffffffffffff\n      and\n        /* \"contracts/base/ERC721Test.sol\":16126:16133  _owners */\n      0x01\n        /* \"contracts/base/ERC721Test.sol\":16126:16142  _owners[tokenId] */\n      0x00\n        /* \"contracts/base/ERC721Test.sol\":16134:16141  tokenId */\n      dup5\n        /* \"contracts/base/ERC721Test.sol\":16126:16142  _owners[tokenId] */\n      dup2\n      mstore\n      0x20\n      add\n      swap1\n      dup2\n      mstore\n      0x20\n      add\n      0x00\n      keccak256\n      0x00\n      swap1\n      sload\n      swap1\n      0x0100\n      exp\n      swap1\n      div\n      0xffffffffffffffffffffffffffffffffffffffff\n      and\n        /* \"contracts/base/ERC721Test.sol\":16126:16156  _owners[tokenId] != address(0) */\n      0xffffffffffffffffffffffffffffffffffffffff\n      and\n      eq\n      iszero\n        /* \"contracts/base/ERC721Test.sol\":16118:16179  require(_owners[tokenId] != address(0), \"ERC, address is  0\") */\n      tag_71\n      jumpi\n      mload(0x40)\n      0x08c379a000000000000000000000000000000000000000000000000000000000\n      dup2\n      mstore\n      0x04\n      add\n      tag_72\n      swap1\n      tag_73\n      jump\t// in\n    tag_72:\n      mload(0x40)\n      dup1\n      swap2\n      sub\n      swap1\n      revert\n    tag_71:\n        /* \"contracts/base/ERC721Test.sol\":16197:16206  _approves */\n      0x03\n        /* \"contracts/base/ERC721Test.sol\":16197:16215  _approves[tokenId] */\n      0x00\n        /* \"contracts/base/ERC721Test.sol\":16207:16214  tokenId */\n      dup4\n        /* \"contracts/base/ERC721Test.sol\":16197:16215  _approves[tokenId] */\n      dup2\n      mstore\n      0x20\n      add\n      swap1\n      dup2\n      mstore\n      0x20\n      add\n      0x00\n      keccak256\n      0x00\n      swap1\n      sload\n      swap1\n      0x0100\n      exp\n      swap1\n      div\n      0xffffffffffffffffffffffffffffffffffffffff\n      and\n        /* \"contracts/base/ERC721Test.sol\":16190:16215  return _approves[tokenId] */\n      swap1\n      pop\n        /* \"contracts/base/ERC721Test.sol\":16020:16223  function getApproved(uint256 tokenId) override external view returns (address operator){\r... */\n      swap2\n      swap1\n      pop\n      jump\t// out\n        /* \"contracts/base/ERC721Test.sol\":15517:15820  function approve(address to, uint256 tokenId) override external{\r... */\n    tag_31:\n        /* \"contracts/base/ERC721Test.sol\":15595:15608  address owner */\n      0x00\n        /* \"contracts/base/ERC721Test.sol\":15612:15619  _owners */\n      0x01\n        /* \"contracts/base/ERC721Test.sol\":15612:15628  _owners[tokenId] */\n      0x00\n        /* \"contracts/base/ERC721Test.sol\":15620:15627  tokenId */\n      dup4\n        /* \"contracts/base/ERC721Test.sol\":15612:15628  _owners[tokenId] */\n      dup2\n      mstore\n      0x20\n      add\n      swap1\n      dup2\n      mstore\n      0x20\n      add\n      0x00\n      keccak256\n      0x00\n      swap1\n      sload\n      swap1\n      0x0100\n      exp\n      swap1\n      div\n      0xffffffffffffffffffffffffffffffffffffffff\n      and\n        /* \"contracts/base/ERC721Test.sol\":15595:15628  address owner =  _owners[tokenId] */\n      swap1\n      pop\n        /* \"contracts/base/ERC721Test.sol\":15665:15670  owner */\n      dup1\n        /* \"contracts/base/ERC721Test.sol\":15651:15670  msg.sender == owner */\n      0xffffffffffffffffffffffffffffffffffffffff\n      and\n        /* \"contracts/base/ERC721Test.sol\":15651:15661  msg.sender */\n      caller\n        /* \"contracts/base/ERC721Test.sol\":15651:15670  msg.sender == owner */\n      0xffffffffffffffffffffffffffffffffffffffff\n      and\n      eq\n        /* \"contracts/base/ERC721Test.sol\":15651:15709  msg.sender == owner || isApprovedForAll[owner][msg.sender] */\n      dup1\n      tag_75\n      jumpi\n      pop\n        /* \"contracts/base/ERC721Test.sol\":15674:15690  isApprovedForAll */\n      0x02\n        /* \"contracts/base/ERC721Test.sol\":15674:15697  isApprovedForAll[owner] */\n      0x00\n        /* \"contracts/base/ERC721Test.sol\":15691:15696  owner */\n      dup3\n        /* \"contracts/base/ERC721Test.sol\":15674:15697  isApprovedForAll[owner] */\n      0xffffffffffffffffffffffffffffffffffffffff\n      and\n      0xffffffffffffffffffffffffffffffffffffffff\n      and\n      dup2\n      mstore\n      0x20\n      add\n      swap1\n      dup2\n      mstore\n      0x20\n      add\n      0x00\n      keccak256\n        /* \"contracts/base/ERC721Test.sol\":15674:15709  isApprovedForAll[owner][msg.sender] */\n      0x00\n        /* \"contracts/base/ERC721Test.sol\":15698:15708  msg.sender */\n      caller\n        /* \"contracts/base/ERC721Test.sol\":15674:15709  isApprovedForAll[owner][msg.sender] */\n      0xffffffffffffffffffffffffffffffffffffffff\n      and\n      0xffffffffffffffffffffffffffffffffffffffff\n      and\n      dup2\n      mstore\n      0x20\n      add\n      swap1\n      dup2\n      mstore\n      0x20\n      add\n      0x00\n      keccak256\n      0x00\n      swap1\n      sload\n      swap1\n      0x0100\n      exp\n      swap1\n      div\n      0xff\n      and\n        /* \"contracts/base/ERC721Test.sol\":15651:15709  msg.sender == owner || isApprovedForAll[owner][msg.sender] */\n    tag_75:\n        /* \"contracts/base/ERC721Test.sol\":15643:15728  require(msg.sender == owner || isApprovedForAll[owner][msg.sender], \"not authorized\") */\n      tag_76\n      jumpi\n      mload(0x40)\n      0x08c379a000000000000000000000000000000000000000000000000000000000\n      dup2\n      mstore\n      0x04\n      add\n      tag_77\n      swap1\n      tag_78\n      jump\t// in\n    tag_77:\n      mload(0x40)\n      dup1\n      swap2\n      sub\n      swap1\n      revert\n    tag_76:\n        /* \"contracts/base/ERC721Test.sol\":15764:15766  to */\n      dup3\n        /* \"contracts/base/ERC721Test.sol\":15743:15752  _approves */\n      0x03\n        /* \"contracts/base/ERC721Test.sol\":15743:15761  _approves[tokenId] */\n      0x00\n        /* \"contracts/base/ERC721Test.sol\":15753:15760  tokenId */\n      dup5\n        /* \"contracts/base/ERC721Test.sol\":15743:15761  _approves[tokenId] */\n      dup2\n      mstore\n      0x20\n      add\n      swap1\n      dup2\n      mstore\n      0x20\n      add\n      0x00\n      keccak256\n      0x00\n        /* \"contracts/base/ERC721Test.sol\":15743:15766  _approves[tokenId] = to */\n      0x0100\n      exp\n      dup2\n      sload\n      dup2\n      0xffffffffffffffffffffffffffffffffffffffff\n      mul\n      not\n      and\n      swap1\n      dup4\n      0xffffffffffffffffffffffffffffffffffffffff\n      and\n      mul\n      or\n      swap1\n      sstore\n      pop\n        /* \"contracts/base/ERC721Test.sol\":15804:15811  tokenId */\n      dup2\n        /* \"contracts/base/ERC721Test.sol\":15801:15803  to */\n      dup4\n        /* \"contracts/base/ERC721Test.sol\":15786:15812  Approval(owner,to,tokenId) */\n      0xffffffffffffffffffffffffffffffffffffffff\n      and\n        /* \"contracts/base/ERC721Test.sol\":15795:15800  owner */\n      dup3\n        /* \"contracts/base/ERC721Test.sol\":15786:15812  Approval(owner,to,tokenId) */\n      0xffffffffffffffffffffffffffffffffffffffff\n      and\n      0x8c5be1e5ebec7d5bd14f71427d1e84f3dd0314c0f7b2291e5b200ac8c7c3b925\n      mload(0x40)\n      mload(0x40)\n      dup1\n      swap2\n      sub\n      swap1\n      log4\n        /* \"contracts/base/ERC721Test.sol\":15517:15820  function approve(address to, uint256 tokenId) override external{\r... */\n      pop\n      pop\n      pop\n      jump\t// out\n        /* \"contracts/base/ERC721Test.sol\":14461:15070  function transferFrom(address from, address to, uint256 tokenId) override  public {\r... */\n    tag_35:\n        /* \"contracts/base/ERC721Test.sol\":14578:14579  0 */\n      0x00\n        /* \"contracts/base/ERC721Test.sol\":14562:14580  from != address(0) */\n      0xffffffffffffffffffffffffffffffffffffffff\n      and\n        /* \"contracts/base/ERC721Test.sol\":14562:14566  from */\n      dup4\n        /* \"contracts/base/ERC721Test.sol\":14562:14580  from != address(0) */\n      0xffffffffffffffffffffffffffffffffffffffff\n      and\n      eq\n      iszero\n        /* \"contracts/base/ERC721Test.sol\":14562:14600  from != address(0) && to != address(0) */\n      dup1\n      iszero\n      tag_80\n      jumpi\n      pop\n        /* \"contracts/base/ERC721Test.sol\":14598:14599  0 */\n      0x00\n        /* \"contracts/base/ERC721Test.sol\":14584:14600  to != address(0) */\n      0xffffffffffffffffffffffffffffffffffffffff\n      and\n        /* \"contracts/base/ERC721Test.sol\":14584:14586  to */\n      dup3\n        /* \"contracts/base/ERC721Test.sol\":14584:14600  to != address(0) */\n      0xffffffffffffffffffffffffffffffffffffffff\n      and\n      eq\n      iszero\n        /* \"contracts/base/ERC721Test.sol\":14562:14600  from != address(0) && to != address(0) */\n    tag_80:\n        /* \"contracts/base/ERC721Test.sol\":14554:14637  require(from != address(0) && to != address(0), \"address or toAddress zero is not\") */\n      tag_81\n      jumpi\n      mload(0x40)\n      0x08c379a000000000000000000000000000000000000000000000000000000000\n      dup2\n      mstore\n      0x04\n      add\n      tag_82\n      swap1\n      tag_83\n      jump\t// in\n    tag_82:\n      mload(0x40)\n      dup1\n      swap2\n      sub\n      swap1\n      revert\n    tag_81:\n        /* \"contracts/base/ERC721Test.sol\":14667:14668  0 */\n      0x00\n        /* \"contracts/base/ERC721Test.sol\":14656:14663  tokenId */\n      dup2\n        /* \"contracts/base/ERC721Test.sol\":14656:14668  tokenId != 0 */\n      eq\n      iszero\n        /* \"contracts/base/ERC721Test.sol\":14648:14685  require(tokenId != 0, \"tokenId zero\") */\n      tag_84\n      jumpi\n      mload(0x40)\n      0x08c379a000000000000000000000000000000000000000000000000000000000\n      dup2\n      mstore\n      0x04\n      add\n      tag_85\n      swap1\n      tag_86\n      jump\t// in\n    tag_85:\n      mload(0x40)\n      dup1\n      swap2\n      sub\n      swap1\n      revert\n    tag_84:\n        /* \"contracts/base/ERC721Test.sol\":14755:14762  _owners */\n      0x01\n        /* \"contracts/base/ERC721Test.sol\":14755:14771  _owners[tokenId] */\n      0x00\n        /* \"contracts/base/ERC721Test.sol\":14763:14770  tokenId */\n      dup3\n        /* \"contracts/base/ERC721Test.sol\":14755:14771  _owners[tokenId] */\n      dup2\n      mstore\n      0x20\n      add\n      swap1\n      dup2\n      mstore\n      0x20\n      add\n      0x00\n      keccak256\n      0x00\n      swap1\n      sload\n      swap1\n      0x0100\n      exp\n      swap1\n      div\n      0xffffffffffffffffffffffffffffffffffffffff\n      and\n        /* \"contracts/base/ERC721Test.sol\":14747:14771  from == _owners[tokenId] */\n      0xffffffffffffffffffffffffffffffffffffffff\n      and\n        /* \"contracts/base/ERC721Test.sol\":14747:14751  from */\n      dup4\n        /* \"contracts/base/ERC721Test.sol\":14747:14771  from == _owners[tokenId] */\n      0xffffffffffffffffffffffffffffffffffffffff\n      and\n      eq\n        /* \"contracts/base/ERC721Test.sol\":14739:14815  require(from == _owners[tokenId], \"owner of tokenId not match fromAddress \") */\n      tag_87\n      jumpi\n      mload(0x40)\n      0x08c379a000000000000000000000000000000000000000000000000000000000\n      dup2\n      mstore\n      0x04\n      add\n      tag_88\n      swap1\n      tag_89\n      jump\t// in\n    tag_88:\n      mload(0x40)\n      dup1\n      swap2\n      sub\n      swap1\n      revert\n    tag_87:\n        /* \"contracts/base/ERC721Test.sol\":14834:14879  _isApprovedOrOwner(from, msg.sender, tokenId) */\n      tag_90\n        /* \"contracts/base/ERC721Test.sol\":14853:14857  from */\n      dup4\n        /* \"contracts/base/ERC721Test.sol\":14859:14869  msg.sender */\n      caller\n        /* \"contracts/base/ERC721Test.sol\":14871:14878  tokenId */\n      dup4\n        /* \"contracts/base/ERC721Test.sol\":14834:14852  _isApprovedOrOwner */\n      tag_91\n        /* \"contracts/base/ERC721Test.sol\":14834:14879  _isApprovedOrOwner(from, msg.sender, tokenId) */\n      jump\t// in\n    tag_90:\n        /* \"contracts/base/ERC721Test.sol\":14826:14897  require(_isApprovedOrOwner(from, msg.sender, tokenId), \"not authrized\") */\n      tag_92\n      jumpi\n      mload(0x40)\n      0x08c379a000000000000000000000000000000000000000000000000000000000\n      dup2\n      mstore\n      0x04\n      add\n      tag_93\n      swap1\n      tag_94\n      jump\t// in\n    tag_93:\n      mload(0x40)\n      dup1\n      swap2\n      sub\n      swap1\n      revert\n    tag_92:\n        /* \"contracts/base/ERC721Test.sol\":14910:14918  balances */\n      0x00\n        /* \"contracts/base/ERC721Test.sol\":14910:14924  balances[from] */\n      dup1\n        /* \"contracts/base/ERC721Test.sol\":14919:14923  from */\n      dup5\n        /* \"contracts/base/ERC721Test.sol\":14910:14924  balances[from] */\n      0xffffffffffffffffffffffffffffffffffffffff\n      and\n      0xffffffffffffffffffffffffffffffffffffffff\n      and\n      dup2\n      mstore\n      0x20\n      add\n      swap1\n      dup2\n      mstore\n      0x20\n      add\n      0x00\n      keccak256\n      0x00\n        /* \"contracts/base/ERC721Test.sol\":14910:14926  balances[from]-- */\n      dup2\n      sload\n      dup1\n      swap3\n      swap2\n      swap1\n      tag_95\n      swap1\n      tag_96\n      jump\t// in\n    tag_95:\n      swap2\n      swap1\n      pop\n      sstore\n      pop\n        /* \"contracts/base/ERC721Test.sol\":14937:14945  balances */\n      0x00\n        /* \"contracts/base/ERC721Test.sol\":14937:14949  balances[to] */\n      dup1\n        /* \"contracts/base/ERC721Test.sol\":14946:14948  to */\n      dup4\n        /* \"contracts/base/ERC721Test.sol\":14937:14949  balances[to] */\n      0xffffffffffffffffffffffffffffffffffffffff\n      and\n      0xffffffffffffffffffffffffffffffffffffffff\n      and\n      dup2\n      mstore\n      0x20\n      add\n      swap1\n      dup2\n      mstore\n      0x20\n      add\n      0x00\n      keccak256\n      0x00\n        /* \"contracts/base/ERC721Test.sol\":14937:14951  balances[to]++ */\n      dup2\n      sload\n      dup1\n      swap3\n      swap2\n      swap1\n      tag_97\n      swap1\n      tag_98\n      jump\t// in\n    tag_97:\n      swap2\n      swap1\n      pop\n      sstore\n      pop\n        /* \"contracts/base/ERC721Test.sol\":14981:14983  to */\n      dup2\n        /* \"contracts/base/ERC721Test.sol\":14962:14969  _owners */\n      0x01\n        /* \"contracts/base/ERC721Test.sol\":14962:14978  _owners[tokenId] */\n      0x00\n        /* \"contracts/base/ERC721Test.sol\":14970:14977  tokenId */\n      dup4\n        /* \"contracts/base/ERC721Test.sol\":14962:14978  _owners[tokenId] */\n      dup2\n      mstore\n      0x20\n      add\n      swap1\n      dup2\n      mstore\n      0x20\n      add\n      0x00\n      keccak256\n      0x00\n        /* \"contracts/base/ERC721Test.sol\":14962:14983  _owners[tokenId] = to */\n      0x0100\n      exp\n      dup2\n      sload\n      dup2\n      0xffffffffffffffffffffffffffffffffffffffff\n      mul\n      not\n      and\n      swap1\n      dup4\n      0xffffffffffffffffffffffffffffffffffffffff\n      and\n      mul\n      or\n      swap1\n      sstore\n      pop\n        /* \"contracts/base/ERC721Test.sol\":15001:15010  _approves */\n      0x03\n        /* \"contracts/base/ERC721Test.sol\":15001:15019  _approves[tokenId] */\n      0x00\n        /* \"contracts/base/ERC721Test.sol\":15011:15018  tokenId */\n      dup3\n        /* \"contracts/base/ERC721Test.sol\":15001:15019  _approves[tokenId] */\n      dup2\n      mstore\n      0x20\n      add\n      swap1\n      dup2\n      mstore\n      0x20\n      add\n      0x00\n      keccak256\n      0x00\n        /* \"contracts/base/ERC721Test.sol\":14994:15019  delete _approves[tokenId] */\n      0x0100\n      exp\n      dup2\n      sload\n      swap1\n      0xffffffffffffffffffffffffffffffffffffffff\n      mul\n      not\n      and\n      swap1\n      sstore\n        /* \"contracts/base/ERC721Test.sol\":15054:15061  tokenId */\n      dup1\n        /* \"contracts/base/ERC721Test.sol\":15050:15052  to */\n      dup3\n        /* \"contracts/base/ERC721Test.sol\":15035:15062  Transfer(from, to, tokenId) */\n      0xffffffffffffffffffffffffffffffffffffffff\n      and\n        /* \"contracts/base/ERC721Test.sol\":15044:15048  from */\n      dup5\n        /* \"contracts/base/ERC721Test.sol\":15035:15062  Transfer(from, to, tokenId) */\n      0xffffffffffffffffffffffffffffffffffffffff\n      and\n      0xddf252ad1be2c89b69c2b068fc378daa952ba7f163c4a11628f55a4df523b3ef\n      mload(0x40)\n      mload(0x40)\n      dup1\n      swap2\n      sub\n      swap1\n      log4\n        /* \"contracts/base/ERC721Test.sol\":14461:15070  function transferFrom(address from, address to, uint256 tokenId) override  public {\r... */\n      pop\n      pop\n      pop\n      jump\t// out\n        /* \"contracts/base/ERC721Test.sol\":17369:17455  function mint(address to, uint tokenId) external {\r... */\n    tag_38:\n        /* \"contracts/base/ERC721Test.sol\":17429:17447  _mint(to, tokenId) */\n      tag_100\n        /* \"contracts/base/ERC721Test.sol\":17435:17437  to */\n      dup3\n        /* \"contracts/base/ERC721Test.sol\":17439:17446  tokenId */\n      dup3\n        /* \"contracts/base/ERC721Test.sol\":17429:17434  _mint */\n      tag_101\n        /* \"contracts/base/ERC721Test.sol\":17429:17447  _mint(to, tokenId) */\n      jump\t// in\n    tag_100:\n        /* \"contracts/base/ERC721Test.sol\":17369:17455  function mint(address to, uint tokenId) external {\r... */\n      pop\n      pop\n      jump\t// out\n        /* \"contracts/base/ERC721Test.sol\":12975:13359  function safeTransferFrom(address from, address to, uint256 tokenId) override external{\r... */\n    tag_41:\n        /* \"contracts/base/ERC721Test.sol\":13072:13103  transferFrom(from, to, tokenId) */\n      tag_103\n        /* \"contracts/base/ERC721Test.sol\":13085:13089  from */\n      dup4\n        /* \"contracts/base/ERC721Test.sol\":13091:13093  to */\n      dup4\n        /* \"contracts/base/ERC721Test.sol\":13095:13102  tokenId */\n      dup4\n        /* \"contracts/base/ERC721Test.sol\":13072:13084  transferFrom */\n      tag_35\n        /* \"contracts/base/ERC721Test.sol\":13072:13103  transferFrom(from, to, tokenId) */\n      jump\t// in\n    tag_103:\n        /* \"contracts/base/ERC721Test.sol\":13196:13197  0 */\n      0x00\n        /* \"contracts/base/ERC721Test.sol\":13178:13180  to */\n      dup3\n        /* \"contracts/base/ERC721Test.sol\":13178:13192  to.code.length */\n      0xffffffffffffffffffffffffffffffffffffffff\n      and\n      extcodesize\n        /* \"contracts/base/ERC721Test.sol\":13178:13197  to.code.length == 0 */\n      eq\n        /* \"contracts/base/ERC721Test.sol\":13178:13331  to.code.length == 0 ||\r... */\n      dup1\n      tag_104\n      jumpi\n      pop\n        /* \"contracts/base/ERC721Test.sol\":13290:13331  IERC721Receiver.onERC721Received.selector */\n      shl(0xe0, 0x150b7a02)\n        /* \"contracts/base/ERC721Test.sol\":13210:13331  IERC721Receiver(to).onERC721Received(msg.sender, from, tokenId, \"\") ==\r... */\n      not(0xffffffffffffffffffffffffffffffffffffffffffffffffffffffff)\n      and\n        /* \"contracts/base/ERC721Test.sol\":13226:13228  to */\n      dup3\n        /* \"contracts/base/ERC721Test.sol\":13210:13246  IERC721Receiver(to).onERC721Received */\n      0xffffffffffffffffffffffffffffffffffffffff\n      and\n      0x150b7a02\n        /* \"contracts/base/ERC721Test.sol\":13247:13257  msg.sender */\n      caller\n        /* \"contracts/base/ERC721Test.sol\":13259:13263  from */\n      dup7\n        /* \"contracts/base/ERC721Test.sol\":13265:13272  tokenId */\n      dup6\n        /* \"contracts/base/ERC721Test.sol\":13210:13277  IERC721Receiver(to).onERC721Received(msg.sender, from, tokenId, \"\") */\n      mload(0x40)\n      dup5\n      0xffffffff\n      and\n      0xe0\n      shl\n      dup2\n      mstore\n      0x04\n      add\n      tag_105\n      swap4\n      swap3\n      swap2\n      swap1\n      tag_106\n      jump\t// in\n    tag_105:\n      0x20\n      mload(0x40)\n      dup1\n      dup4\n      sub\n      dup2\n      0x00\n      dup8\n      dup1\n      extcodesize\n      iszero\n      dup1\n      iszero\n      tag_107\n      jumpi\n      0x00\n      dup1\n      revert\n    tag_107:\n      pop\n      gas\n      call\n      iszero\n      dup1\n      iszero\n      tag_109\n      jumpi\n      returndatasize\n      0x00\n      dup1\n      returndatacopy\n      revert(0x00, returndatasize)\n    tag_109:\n      pop\n      pop\n      pop\n      pop\n      mload(0x40)\n      returndatasize\n      not(0x1f)\n      0x1f\n      dup3\n      add\n      and\n      dup3\n      add\n      dup1\n      0x40\n      mstore\n      pop\n      dup2\n      add\n      swap1\n      tag_110\n      swap2\n      swap1\n      tag_111\n      jump\t// in\n    tag_110:\n        /* \"contracts/base/ERC721Test.sol\":13210:13331  IERC721Receiver(to).onERC721Received(msg.sender, from, tokenId, \"\") ==\r... */\n      not(0xffffffffffffffffffffffffffffffffffffffffffffffffffffffff)\n      and\n      eq\n        /* \"contracts/base/ERC721Test.sol\":13178:13331  to.code.length == 0 ||\r... */\n    tag_104:\n        /* \"contracts/base/ERC721Test.sol\":13170:13351  require(to.code.length == 0 ||\r... */\n      tag_112\n      jumpi\n      mload(0x40)\n      0x08c379a000000000000000000000000000000000000000000000000000000000\n      dup2\n      mstore\n      0x04\n      add\n      tag_113\n      swap1\n      tag_114\n      jump\t// in\n    tag_113:\n      mload(0x40)\n      dup1\n      swap2\n      sub\n      swap1\n      revert\n    tag_112:\n        /* \"contracts/base/ERC721Test.sol\":12975:13359  function safeTransferFrom(address from, address to, uint256 tokenId) override external{\r... */\n      pop\n      pop\n      pop\n      jump\t// out\n        /* \"contracts/base/ERC721Test.sol\":17461:17594  function burn(uint tokenId) external {\r... */\n    tag_44:\n        /* \"contracts/base/ERC721Test.sol\":17531:17538  _owners */\n      0x01\n        /* \"contracts/base/ERC721Test.sol\":17531:17547  _owners[tokenId] */\n      0x00\n        /* \"contracts/base/ERC721Test.sol\":17539:17546  tokenId */\n      dup3\n        /* \"contracts/base/ERC721Test.sol\":17531:17547  _owners[tokenId] */\n      dup2\n      mstore\n      0x20\n      add\n      swap1\n      dup2\n      mstore\n      0x20\n      add\n      0x00\n      keccak256\n      0x00\n      swap1\n      sload\n      swap1\n      0x0100\n      exp\n      swap1\n      div\n      0xffffffffffffffffffffffffffffffffffffffff\n      and\n        /* \"contracts/base/ERC721Test.sol\":17517:17547  msg.sender == _owners[tokenId] */\n      0xffffffffffffffffffffffffffffffffffffffff\n      and\n        /* \"contracts/base/ERC721Test.sol\":17517:17527  msg.sender */\n      caller\n        /* \"contracts/base/ERC721Test.sol\":17517:17547  msg.sender == _owners[tokenId] */\n      0xffffffffffffffffffffffffffffffffffffffff\n      and\n      eq\n        /* \"contracts/base/ERC721Test.sol\":17509:17561  require(msg.sender == _owners[tokenId], \"not owner\") */\n      tag_116\n      jumpi\n      mload(0x40)\n      0x08c379a000000000000000000000000000000000000000000000000000000000\n      dup2\n      mstore\n      0x04\n      add\n      tag_117\n      swap1\n      tag_118\n      jump\t// in\n    tag_117:\n      mload(0x40)\n      dup1\n      swap2\n      sub\n      swap1\n      revert\n    tag_116:\n        /* \"contracts/base/ERC721Test.sol\":17572:17586  _burn(tokenId) */\n      tag_119\n        /* \"contracts/base/ERC721Test.sol\":17578:17585  tokenId */\n      dup2\n        /* \"contracts/base/ERC721Test.sol\":17572:17577  _burn */\n      tag_120\n        /* \"contracts/base/ERC721Test.sol\":17572:17586  _burn(tokenId) */\n      jump\t// in\n    tag_119:\n        /* \"contracts/base/ERC721Test.sol\":17461:17594  function burn(uint tokenId) external {\r... */\n      pop\n      jump\t// out\n        /* \"contracts/base/ERC721Test.sol\":12738:12965  function ownerOf(uint256 tokenId) override public  view returns (address owner){\r... */\n    tag_47:\n        /* \"contracts/base/ERC721Test.sol\":12803:12816  address owner */\n      0x00\n        /* \"contracts/base/ERC721Test.sol\":12832:12845  address adder */\n      dup1\n        /* \"contracts/base/ERC721Test.sol\":12848:12855  _owners */\n      0x01\n        /* \"contracts/base/ERC721Test.sol\":12848:12864  _owners[tokenId] */\n      0x00\n        /* \"contracts/base/ERC721Test.sol\":12856:12863  tokenId */\n      dup5\n        /* \"contracts/base/ERC721Test.sol\":12848:12864  _owners[tokenId] */\n      dup2\n      mstore\n      0x20\n      add\n      swap1\n      dup2\n      mstore\n      0x20\n      add\n      0x00\n      keccak256\n      0x00\n      swap1\n      sload\n      swap1\n      0x0100\n      exp\n      swap1\n      div\n      0xffffffffffffffffffffffffffffffffffffffff\n      and\n        /* \"contracts/base/ERC721Test.sol\":12832:12864  address adder = _owners[tokenId] */\n      swap1\n      pop\n        /* \"contracts/base/ERC721Test.sol\":12904:12905  0 */\n      0x00\n        /* \"contracts/base/ERC721Test.sol\":12887:12906  adder != address(0) */\n      0xffffffffffffffffffffffffffffffffffffffff\n      and\n        /* \"contracts/base/ERC721Test.sol\":12887:12892  adder */\n      dup2\n        /* \"contracts/base/ERC721Test.sol\":12887:12906  adder != address(0) */\n      0xffffffffffffffffffffffffffffffffffffffff\n      and\n      eq\n      iszero\n        /* \"contracts/base/ERC721Test.sol\":12879:12930  require(adder != address(0), \"address zero is not\") */\n      tag_122\n      jumpi\n      mload(0x40)\n      0x08c379a000000000000000000000000000000000000000000000000000000000\n      dup2\n      mstore\n      0x04\n      add\n      tag_123\n      swap1\n      tag_124\n      jump\t// in\n    tag_123:\n      mload(0x40)\n      dup1\n      swap2\n      sub\n      swap1\n      revert\n    tag_122:\n        /* \"contracts/base/ERC721Test.sol\":12952:12957  adder */\n      dup1\n        /* \"contracts/base/ERC721Test.sol\":12945:12957  return adder */\n      swap2\n      pop\n      pop\n        /* \"contracts/base/ERC721Test.sol\":12738:12965  function ownerOf(uint256 tokenId) override public  view returns (address owner){\r... */\n      swap2\n      swap1\n      pop\n      jump\t// out\n        /* \"contracts/base/ERC721Test.sol\":12369:12561  function balanceOf(address owner) override external view returns (uint256 balance){\r... */\n    tag_52:\n        /* \"contracts/base/ERC721Test.sol\":12435:12450  uint256 balance */\n      0x00\n        /* \"contracts/base/ERC721Test.sol\":12487:12488  0 */\n      dup1\n        /* \"contracts/base/ERC721Test.sol\":12470:12489  owner != address(0) */\n      0xffffffffffffffffffffffffffffffffffffffff\n      and\n        /* \"contracts/base/ERC721Test.sol\":12470:12475  owner */\n      dup3\n        /* \"contracts/base/ERC721Test.sol\":12470:12489  owner != address(0) */\n      0xffffffffffffffffffffffffffffffffffffffff\n      and\n      eq\n      iszero\n        /* \"contracts/base/ERC721Test.sol\":12462:12520  require(owner != address(0),\"ERC721: address zero is not\") */\n      tag_126\n      jumpi\n      mload(0x40)\n      0x08c379a000000000000000000000000000000000000000000000000000000000\n      dup2\n      mstore\n      0x04\n      add\n      tag_127\n      swap1\n      tag_128\n      jump\t// in\n    tag_127:\n      mload(0x40)\n      dup1\n      swap2\n      sub\n      swap1\n      revert\n    tag_126:\n        /* \"contracts/base/ERC721Test.sol\":12538:12546  balances */\n      0x00\n        /* \"contracts/base/ERC721Test.sol\":12538:12553  balances[owner] */\n      dup1\n        /* \"contracts/base/ERC721Test.sol\":12547:12552  owner */\n      dup4\n        /* \"contracts/base/ERC721Test.sol\":12538:12553  balances[owner] */\n      0xffffffffffffffffffffffffffffffffffffffff\n      and\n      0xffffffffffffffffffffffffffffffffffffffff\n      and\n      dup2\n      mstore\n      0x20\n      add\n      swap1\n      dup2\n      mstore\n      0x20\n      add\n      0x00\n      keccak256\n      sload\n        /* \"contracts/base/ERC721Test.sol\":12531:12553  return balances[owner] */\n      swap1\n      pop\n        /* \"contracts/base/ERC721Test.sol\":12369:12561  function balanceOf(address owner) override external view returns (uint256 balance){\r... */\n      swap2\n      swap1\n      pop\n      jump\t// out\n        /* \"contracts/base/ERC721Test.sol\":16462:16738  function setApprovalForAll(address operator, bool _approved) override external{\r... */\n    tag_58:\n        /* \"contracts/base/ERC721Test.sol\":16579:16580  0 */\n      0x00\n        /* \"contracts/base/ERC721Test.sol\":16559:16581  operator != address(0) */\n      0xffffffffffffffffffffffffffffffffffffffff\n      and\n        /* \"contracts/base/ERC721Test.sol\":16559:16567  operator */\n      dup3\n        /* \"contracts/base/ERC721Test.sol\":16559:16581  operator != address(0) */\n      0xffffffffffffffffffffffffffffffffffffffff\n      and\n      eq\n      iszero\n        /* \"contracts/base/ERC721Test.sol\":16551:16608  require(operator != address(0), \"operator address is  0\") */\n      tag_130\n      jumpi\n      mload(0x40)\n      0x08c379a000000000000000000000000000000000000000000000000000000000\n      dup2\n      mstore\n      0x04\n      add\n      tag_131\n      swap1\n      tag_132\n      jump\t// in\n    tag_131:\n      mload(0x40)\n      dup1\n      swap2\n      sub\n      swap1\n      revert\n    tag_130:\n        /* \"contracts/base/ERC721Test.sol\":16660:16669  _approved */\n      dup1\n        /* \"contracts/base/ERC721Test.sol\":16619:16635  isApprovedForAll */\n      0x02\n        /* \"contracts/base/ERC721Test.sol\":16619:16647  isApprovedForAll[msg.sender] */\n      0x00\n        /* \"contracts/base/ERC721Test.sol\":16636:16646  msg.sender */\n      caller\n        /* \"contracts/base/ERC721Test.sol\":16619:16647  isApprovedForAll[msg.sender] */\n      0xffffffffffffffffffffffffffffffffffffffff\n      and\n      0xffffffffffffffffffffffffffffffffffffffff\n      and\n      dup2\n      mstore\n      0x20\n      add\n      swap1\n      dup2\n      mstore\n      0x20\n      add\n      0x00\n      keccak256\n        /* \"contracts/base/ERC721Test.sol\":16619:16657  isApprovedForAll[msg.sender][operator] */\n      0x00\n        /* \"contracts/base/ERC721Test.sol\":16648:16656  operator */\n      dup5\n        /* \"contracts/base/ERC721Test.sol\":16619:16657  isApprovedForAll[msg.sender][operator] */\n      0xffffffffffffffffffffffffffffffffffffffff\n      and\n      0xffffffffffffffffffffffffffffffffffffffff\n      and\n      dup2\n      mstore\n      0x20\n      add\n      swap1\n      dup2\n      mstore\n      0x20\n      add\n      0x00\n      keccak256\n      0x00\n        /* \"contracts/base/ERC721Test.sol\":16619:16669  isApprovedForAll[msg.sender][operator] = _approved */\n      0x0100\n      exp\n      dup2\n      sload\n      dup2\n      0xff\n      mul\n      not\n      and\n      swap1\n      dup4\n      iszero\n      iszero\n      mul\n      or\n      swap1\n      sstore\n      pop\n        /* \"contracts/base/ERC721Test.sol\":16711:16719  operator */\n      dup2\n        /* \"contracts/base/ERC721Test.sol\":16685:16730  ApprovalForAll(msg.sender,operator,_approved) */\n      0xffffffffffffffffffffffffffffffffffffffff\n      and\n        /* \"contracts/base/ERC721Test.sol\":16700:16710  msg.sender */\n      caller\n        /* \"contracts/base/ERC721Test.sol\":16685:16730  ApprovalForAll(msg.sender,operator,_approved) */\n      0xffffffffffffffffffffffffffffffffffffffff\n      and\n      0x17307eab39ab6107e8899845ad3d59bd9653f200f220920489ca2b5937696c31\n        /* \"contracts/base/ERC721Test.sol\":16720:16729  _approved */\n      dup4\n        /* \"contracts/base/ERC721Test.sol\":16685:16730  ApprovalForAll(msg.sender,operator,_approved) */\n      mload(0x40)\n      tag_133\n      swap2\n      swap1\n      tag_21\n      jump\t// in\n    tag_133:\n      mload(0x40)\n      dup1\n      swap2\n      sub\n      swap1\n      log3\n        /* \"contracts/base/ERC721Test.sol\":16462:16738  function setApprovalForAll(address operator, bool _approved) override external{\r... */\n      pop\n      pop\n      jump\t// out\n        /* \"contracts/base/ERC721Test.sol\":13774:14138  function safeTransferFrom(address from, address to, uint256 tokenId, bytes calldata data) override external{\r... */\n    tag_62:\n        /* \"contracts/base/ERC721Test.sol\":13892:13923  transferFrom(from, to, tokenId) */\n      tag_135\n        /* \"contracts/base/ERC721Test.sol\":13905:13909  from */\n      dup6\n        /* \"contracts/base/ERC721Test.sol\":13911:13913  to */\n      dup6\n        /* \"contracts/base/ERC721Test.sol\":13915:13922  tokenId */\n      dup6\n        /* \"contracts/base/ERC721Test.sol\":13892:13904  transferFrom */\n      tag_35\n        /* \"contracts/base/ERC721Test.sol\":13892:13923  transferFrom(from, to, tokenId) */\n      jump\t// in\n    tag_135:\n        /* \"contracts/base/ERC721Test.sol\":13960:13961  0 */\n      0x00\n        /* \"contracts/base/ERC721Test.sol\":13942:13944  to */\n      dup5\n        /* \"contracts/base/ERC721Test.sol\":13942:13956  to.code.length */\n      0xffffffffffffffffffffffffffffffffffffffff\n      and\n      extcodesize\n        /* \"contracts/base/ERC721Test.sol\":13942:13961  to.code.length == 0 */\n      eq\n        /* \"contracts/base/ERC721Test.sol\":13942:14099  to.code.length == 0 || \r... */\n      dup1\n      tag_136\n      jumpi\n      pop\n        /* \"contracts/base/ERC721Test.sol\":14058:14099  IERC721Receiver.onERC721Received.selector */\n      shl(0xe0, 0x150b7a02)\n        /* \"contracts/base/ERC721Test.sol\":13975:14099  IERC721Receiver(to).onERC721Received(msg.sender, from, tokenId, data) == \r... */\n      not(0xffffffffffffffffffffffffffffffffffffffffffffffffffffffff)\n      and\n        /* \"contracts/base/ERC721Test.sol\":13991:13993  to */\n      dup5\n        /* \"contracts/base/ERC721Test.sol\":13975:14011  IERC721Receiver(to).onERC721Received */\n      0xffffffffffffffffffffffffffffffffffffffff\n      and\n      0x150b7a02\n        /* \"contracts/base/ERC721Test.sol\":14012:14022  msg.sender */\n      caller\n        /* \"contracts/base/ERC721Test.sol\":14024:14028  from */\n      dup9\n        /* \"contracts/base/ERC721Test.sol\":14030:14037  tokenId */\n      dup8\n        /* \"contracts/base/ERC721Test.sol\":14039:14043  data */\n      dup8\n      dup8\n        /* \"contracts/base/ERC721Test.sol\":13975:14044  IERC721Receiver(to).onERC721Received(msg.sender, from, tokenId, data) */\n      mload(0x40)\n      dup7\n      0xffffffff\n      and\n      0xe0\n      shl\n      dup2\n      mstore\n      0x04\n      add\n      tag_137\n      swap6\n      swap5\n      swap4\n      swap3\n      swap2\n      swap1\n      tag_138\n      jump\t// in\n    tag_137:\n      0x20\n      mload(0x40)\n      dup1\n      dup4\n      sub\n      dup2\n      0x00\n      dup8\n      dup1\n      extcodesize\n      iszero\n      dup1\n      iszero\n      tag_139\n      jumpi\n      0x00\n      dup1\n      revert\n    tag_139:\n      pop\n      gas\n      call\n      iszero\n      dup1\n      iszero\n      tag_141\n      jumpi\n      returndatasize\n      0x00\n      dup1\n      returndatacopy\n      revert(0x00, returndatasize)\n    tag_141:\n      pop\n      pop\n      pop\n      pop\n      mload(0x40)\n      returndatasize\n      not(0x1f)\n      0x1f\n      dup3\n      add\n      and\n      dup3\n      add\n      dup1\n      0x40\n      mstore\n      pop\n      dup2\n      add\n      swap1\n      tag_142\n      swap2\n      swap1\n      tag_111\n      jump\t// in\n    tag_142:\n        /* \"contracts/base/ERC721Test.sol\":13975:14099  IERC721Receiver(to).onERC721Received(msg.sender, from, tokenId, data) == \r... */\n      not(0xffffffffffffffffffffffffffffffffffffffffffffffffffffffff)\n      and\n      eq\n        /* \"contracts/base/ERC721Test.sol\":13942:14099  to.code.length == 0 || \r... */\n    tag_136:\n        /* \"contracts/base/ERC721Test.sol\":13934:14130  require(to.code.length == 0 || \r... */\n      tag_143\n      jumpi\n      mload(0x40)\n      0x08c379a000000000000000000000000000000000000000000000000000000000\n      dup2\n      mstore\n      0x04\n      add\n      tag_144\n      swap1\n      tag_114\n      jump\t// in\n    tag_144:\n      mload(0x40)\n      dup1\n      swap2\n      sub\n      swap1\n      revert\n    tag_143:\n        /* \"contracts/base/ERC721Test.sol\":13774:14138  function safeTransferFrom(address from, address to, uint256 tokenId, bytes calldata data) override external{\r... */\n      pop\n      pop\n      pop\n      pop\n      pop\n      jump\t// out\n        /* \"contracts/base/ERC721Test.sol\":11821:11899  mapping(address => mapping(address => bool)) override  public isApprovedForAll */\n    tag_66:\n      mstore(0x20, 0x02)\n      dup2\n      0x00\n      mstore\n      mstore(0x20, keccak256(0x00, 0x40))\n      dup1\n      0x00\n      mstore\n      keccak256(0x00, 0x40)\n      0x00\n      swap2\n      pop\n      swap2\n      pop\n      swap1\n      sload\n      swap1\n      0x0100\n      exp\n      swap1\n      div\n      0xff\n      and\n      dup2\n      jump\t// out\n        /* \"contracts/base/ERC721Test.sol\":15128:15344  function _isApprovedOrOwner(address owner ,address spender,uint256 tokenId) internal view  returns(bool) {\r... */\n    tag_91:\n        /* \"contracts/base/ERC721Test.sol\":15227:15231  bool */\n      0x00\n        /* \"contracts/base/ERC721Test.sol\":15260:15267  spender */\n      dup3\n        /* \"contracts/base/ERC721Test.sol\":15251:15267  owner == spender */\n      0xffffffffffffffffffffffffffffffffffffffff\n      and\n        /* \"contracts/base/ERC721Test.sol\":15251:15256  owner */\n      dup5\n        /* \"contracts/base/ERC721Test.sol\":15251:15267  owner == spender */\n      0xffffffffffffffffffffffffffffffffffffffff\n      and\n      eq\n        /* \"contracts/base/ERC721Test.sol\":15251:15300  owner == spender || _approves[tokenId] == spender */\n      dup1\n      tag_146\n      jumpi\n      pop\n        /* \"contracts/base/ERC721Test.sol\":15293:15300  spender */\n      dup3\n        /* \"contracts/base/ERC721Test.sol\":15271:15300  _approves[tokenId] == spender */\n      0xffffffffffffffffffffffffffffffffffffffff\n      and\n        /* \"contracts/base/ERC721Test.sol\":15271:15280  _approves */\n      0x03\n        /* \"contracts/base/ERC721Test.sol\":15271:15289  _approves[tokenId] */\n      0x00\n        /* \"contracts/base/ERC721Test.sol\":15281:15288  tokenId */\n      dup5\n        /* \"contracts/base/ERC721Test.sol\":15271:15289  _approves[tokenId] */\n      dup2\n      mstore\n      0x20\n      add\n      swap1\n      dup2\n      mstore\n      0x20\n      add\n      0x00\n      keccak256\n      0x00\n      swap1\n      sload\n      swap1\n      0x0100\n      exp\n      swap1\n      div\n      0xffffffffffffffffffffffffffffffffffffffff\n      and\n        /* \"contracts/base/ERC721Test.sol\":15271:15300  _approves[tokenId] == spender */\n      0xffffffffffffffffffffffffffffffffffffffff\n      and\n      eq\n        /* \"contracts/base/ERC721Test.sol\":15251:15300  owner == spender || _approves[tokenId] == spender */\n    tag_146:\n        /* \"contracts/base/ERC721Test.sol\":15251:15336  owner == spender || _approves[tokenId] == spender || isApprovedForAll[owner][spender] */\n      dup1\n      tag_147\n      jumpi\n      pop\n        /* \"contracts/base/ERC721Test.sol\":15304:15320  isApprovedForAll */\n      0x02\n        /* \"contracts/base/ERC721Test.sol\":15304:15327  isApprovedForAll[owner] */\n      0x00\n        /* \"contracts/base/ERC721Test.sol\":15321:15326  owner */\n      dup6\n        /* \"contracts/base/ERC721Test.sol\":15304:15327  isApprovedForAll[owner] */\n      0xffffffffffffffffffffffffffffffffffffffff\n      and\n      0xffffffffffffffffffffffffffffffffffffffff\n      and\n      dup2\n      mstore\n      0x20\n      add\n      swap1\n      dup2\n      mstore\n      0x20\n      add\n      0x00\n      keccak256\n        /* \"contracts/base/ERC721Test.sol\":15304:15336  isApprovedForAll[owner][spender] */\n      0x00\n        /* \"contracts/base/ERC721Test.sol\":15328:15335  spender */\n      dup5\n        /* \"contracts/base/ERC721Test.sol\":15304:15336  isApprovedForAll[owner][spender] */\n      0xffffffffffffffffffffffffffffffffffffffff\n      and\n      0xffffffffffffffffffffffffffffffffffffffff\n      and\n      dup2\n      mstore\n      0x20\n      add\n      swap1\n      dup2\n      mstore\n      0x20\n      add\n      0x00\n      keccak256\n      0x00\n      swap1\n      sload\n      swap1\n      0x0100\n      exp\n      swap1\n      div\n      0xff\n      and\n        /* \"contracts/base/ERC721Test.sol\":15251:15336  owner == spender || _approves[tokenId] == spender || isApprovedForAll[owner][spender] */\n    tag_147:\n        /* \"contracts/base/ERC721Test.sol\":15244:15336  return owner == spender || _approves[tokenId] == spender || isApprovedForAll[owner][spender] */\n      swap1\n      pop\n        /* \"contracts/base/ERC721Test.sol\":15128:15344  function _isApprovedOrOwner(address owner ,address spender,uint256 tokenId) internal view  returns(bool) {\r... */\n      swap4\n      swap3\n      pop\n      pop\n      pop\n      jump\t// out\n        /* \"contracts/base/ERC721Test.sol\":16768:16989  function _mint(address to, uint tokenId) internal {\r... */\n    tag_101:\n        /* \"contracts/base/ERC721Test.sol\":16851:16852  0 */\n      0x00\n        /* \"contracts/base/ERC721Test.sol\":16837:16853  to != address(0) */\n      0xffffffffffffffffffffffffffffffffffffffff\n      and\n        /* \"contracts/base/ERC721Test.sol\":16837:16839  to */\n      dup3\n        /* \"contracts/base/ERC721Test.sol\":16837:16853  to != address(0) */\n      0xffffffffffffffffffffffffffffffffffffffff\n      and\n      eq\n      iszero\n        /* \"contracts/base/ERC721Test.sol\":16829:16875  require(to != address(0), \"to = zero address\") */\n      tag_149\n      jumpi\n      mload(0x40)\n      0x08c379a000000000000000000000000000000000000000000000000000000000\n      dup2\n      mstore\n      0x04\n      add\n      tag_150\n      swap1\n      tag_151\n      jump\t// in\n    tag_150:\n      mload(0x40)\n      dup1\n      swap2\n      sub\n      swap1\n      revert\n    tag_149:\n        /* \"contracts/base/ERC721Test.sol\":16886:16894  balances */\n      0x00\n        /* \"contracts/base/ERC721Test.sol\":16886:16898  balances[to] */\n      dup1\n        /* \"contracts/base/ERC721Test.sol\":16895:16897  to */\n      dup4\n        /* \"contracts/base/ERC721Test.sol\":16886:16898  balances[to] */\n      0xffffffffffffffffffffffffffffffffffffffff\n      and\n      0xffffffffffffffffffffffffffffffffffffffff\n      and\n      dup2\n      mstore\n      0x20\n      add\n      swap1\n      dup2\n      mstore\n      0x20\n      add\n      0x00\n      keccak256\n      0x00\n        /* \"contracts/base/ERC721Test.sol\":16886:16900  balances[to]++ */\n      dup2\n      sload\n      dup1\n      swap3\n      swap2\n      swap1\n      tag_152\n      swap1\n      tag_98\n      jump\t// in\n    tag_152:\n      swap2\n      swap1\n      pop\n      sstore\n      pop\n        /* \"contracts/base/ERC721Test.sol\":16930:16932  to */\n      dup2\n        /* \"contracts/base/ERC721Test.sol\":16911:16918  _owners */\n      0x01\n        /* \"contracts/base/ERC721Test.sol\":16911:16927  _owners[tokenId] */\n      0x00\n        /* \"contracts/base/ERC721Test.sol\":16919:16926  tokenId */\n      dup4\n        /* \"contracts/base/ERC721Test.sol\":16911:16927  _owners[tokenId] */\n      dup2\n      mstore\n      0x20\n      add\n      swap1\n      dup2\n      mstore\n      0x20\n      add\n      0x00\n      keccak256\n      0x00\n        /* \"contracts/base/ERC721Test.sol\":16911:16932  _owners[tokenId] = to */\n      0x0100\n      exp\n      dup2\n      sload\n      dup2\n      0xffffffffffffffffffffffffffffffffffffffff\n      mul\n      not\n      and\n      swap1\n      dup4\n      0xffffffffffffffffffffffffffffffffffffffff\n      and\n      mul\n      or\n      swap1\n      sstore\n      pop\n        /* \"contracts/base/ERC721Test.sol\":16973:16980  tokenId */\n      dup1\n        /* \"contracts/base/ERC721Test.sol\":16969:16971  to */\n      dup3\n        /* \"contracts/base/ERC721Test.sol\":16948:16981  Transfer(address(0), to, tokenId) */\n      0xffffffffffffffffffffffffffffffffffffffff\n      and\n        /* \"contracts/base/ERC721Test.sol\":16965:16966  0 */\n      0x00\n        /* \"contracts/base/ERC721Test.sol\":16948:16981  Transfer(address(0), to, tokenId) */\n      0xffffffffffffffffffffffffffffffffffffffff\n      and\n      0xddf252ad1be2c89b69c2b068fc378daa952ba7f163c4a11628f55a4df523b3ef\n      mload(0x40)\n      mload(0x40)\n      dup1\n      swap2\n      sub\n      swap1\n      log4\n        /* \"contracts/base/ERC721Test.sol\":16768:16989  function _mint(address to, uint tokenId) internal {\r... */\n      pop\n      pop\n      jump\t// out\n        /* \"contracts/base/ERC721Test.sol\":17017:17328  function _burn(uint tokenId) internal{\r... */\n    tag_120:\n        /* \"contracts/base/ERC721Test.sol\":17064:17077  address owner */\n      0x00\n        /* \"contracts/base/ERC721Test.sol\":17081:17097  ownerOf(tokenId) */\n      tag_154\n        /* \"contracts/base/ERC721Test.sol\":17089:17096  tokenId */\n      dup3\n        /* \"contracts/base/ERC721Test.sol\":17081:17088  ownerOf */\n      tag_47\n        /* \"contracts/base/ERC721Test.sol\":17081:17097  ownerOf(tokenId) */\n      jump\t// in\n    tag_154:\n        /* \"contracts/base/ERC721Test.sol\":17064:17097  address owner =  ownerOf(tokenId) */\n      swap1\n      pop\n        /* \"contracts/base/ERC721Test.sol\":17132:17133  0 */\n      0x00\n        /* \"contracts/base/ERC721Test.sol\":17115:17134  owner != address(0) */\n      0xffffffffffffffffffffffffffffffffffffffff\n      and\n        /* \"contracts/base/ERC721Test.sol\":17115:17120  owner */\n      dup2\n        /* \"contracts/base/ERC721Test.sol\":17115:17134  owner != address(0) */\n      0xffffffffffffffffffffffffffffffffffffffff\n      and\n      eq\n      iszero\n        /* \"contracts/base/ERC721Test.sol\":17107:17155  require(owner != address(0), \"address is  zero\") */\n      tag_155\n      jumpi\n      mload(0x40)\n      0x08c379a000000000000000000000000000000000000000000000000000000000\n      dup2\n      mstore\n      0x04\n      add\n      tag_156\n      swap1\n      tag_157\n      jump\t// in\n    tag_156:\n      mload(0x40)\n      dup1\n      swap2\n      sub\n      swap1\n      revert\n    tag_155:\n        /* \"contracts/base/ERC721Test.sol\":17165:17173  balances */\n      0x00\n        /* \"contracts/base/ERC721Test.sol\":17165:17180  balances[owner] */\n      dup1\n        /* \"contracts/base/ERC721Test.sol\":17174:17179  owner */\n      dup3\n        /* \"contracts/base/ERC721Test.sol\":17165:17180  balances[owner] */\n      0xffffffffffffffffffffffffffffffffffffffff\n      and\n      0xffffffffffffffffffffffffffffffffffffffff\n      and\n      dup2\n      mstore\n      0x20\n      add\n      swap1\n      dup2\n      mstore\n      0x20\n      add\n      0x00\n      keccak256\n      0x00\n        /* \"contracts/base/ERC721Test.sol\":17165:17182  balances[owner]-- */\n      dup2\n      sload\n      dup1\n      swap3\n      swap2\n      swap1\n      tag_158\n      swap1\n      tag_96\n      jump\t// in\n    tag_158:\n      swap2\n      swap1\n      pop\n      sstore\n      pop\n        /* \"contracts/base/ERC721Test.sol\":17237:17246  _approves */\n      0x03\n        /* \"contracts/base/ERC721Test.sol\":17237:17255  _approves[tokenId] */\n      0x00\n        /* \"contracts/base/ERC721Test.sol\":17247:17254  tokenId */\n      dup4\n        /* \"contracts/base/ERC721Test.sol\":17237:17255  _approves[tokenId] */\n      dup2\n      mstore\n      0x20\n      add\n      swap1\n      dup2\n      mstore\n      0x20\n      add\n      0x00\n      keccak256\n      0x00\n        /* \"contracts/base/ERC721Test.sol\":17230:17255  delete _approves[tokenId] */\n      0x0100\n      exp\n      dup2\n      sload\n      swap1\n      0xffffffffffffffffffffffffffffffffffffffff\n      mul\n      not\n      and\n      swap1\n      sstore\n        /* \"contracts/base/ERC721Test.sol\":17304:17311  _owners */\n      0x01\n        /* \"contracts/base/ERC721Test.sol\":17304:17320  _owners[tokenId] */\n      0x00\n        /* \"contracts/base/ERC721Test.sol\":17312:17319  tokenId */\n      dup4\n        /* \"contracts/base/ERC721Test.sol\":17304:17320  _owners[tokenId] */\n      dup2\n      mstore\n      0x20\n      add\n      swap1\n      dup2\n      mstore\n      0x20\n      add\n      0x00\n      keccak256\n      0x00\n        /* \"contracts/base/ERC721Test.sol\":17297:17320  delete _owners[tokenId] */\n      0x0100\n      exp\n      dup2\n      sload\n      swap1\n      0xffffffffffffffffffffffffffffffffffffffff\n      mul\n      not\n      and\n      swap1\n      sstore\n        /* \"contracts/base/ERC721Test.sol\":17017:17328  function _burn(uint tokenId) internal{\r... */\n      pop\n      pop\n      jump\t// out\n        /* \"#utility.yul\":7:146   */\n    tag_160:\n        /* \"#utility.yul\":53:58   */\n      0x00\n        /* \"#utility.yul\":91:97   */\n      dup2\n        /* \"#utility.yul\":78:98   */\n      calldataload\n        /* \"#utility.yul\":69:98   */\n      swap1\n      pop\n        /* \"#utility.yul\":107:140   */\n      tag_162\n        /* \"#utility.yul\":134:139   */\n      dup2\n        /* \"#utility.yul\":107:140   */\n      tag_163\n      jump\t// in\n    tag_162:\n        /* \"#utility.yul\":59:146   */\n      swap3\n      swap2\n      pop\n      pop\n      jump\t// out\n        /* \"#utility.yul\":152:285   */\n    tag_164:\n        /* \"#utility.yul\":195:200   */\n      0x00\n        /* \"#utility.yul\":233:239   */\n      dup2\n        /* \"#utility.yul\":220:240   */\n      calldataload\n        /* \"#utility.yul\":211:240   */\n      swap1\n      pop\n        /* \"#utility.yul\":249:279   */\n      tag_166\n        /* \"#utility.yul\":273:278   */\n      dup2\n        /* \"#utility.yul\":249:279   */\n      tag_167\n      jump\t// in\n    tag_166:\n        /* \"#utility.yul\":201:285   */\n      swap3\n      swap2\n      pop\n      pop\n      jump\t// out\n        /* \"#utility.yul\":291:428   */\n    tag_168:\n        /* \"#utility.yul\":336:341   */\n      0x00\n        /* \"#utility.yul\":374:380   */\n      dup2\n        /* \"#utility.yul\":361:381   */\n      calldataload\n        /* \"#utility.yul\":352:381   */\n      swap1\n      pop\n        /* \"#utility.yul\":390:422   */\n      tag_170\n        /* \"#utility.yul\":416:421   */\n      dup2\n        /* \"#utility.yul\":390:422   */\n      tag_171\n      jump\t// in\n    tag_170:\n        /* \"#utility.yul\":342:428   */\n      swap3\n      swap2\n      pop\n      pop\n      jump\t// out\n        /* \"#utility.yul\":434:575   */\n    tag_172:\n        /* \"#utility.yul\":490:495   */\n      0x00\n        /* \"#utility.yul\":521:527   */\n      dup2\n        /* \"#utility.yul\":515:528   */\n      mload\n        /* \"#utility.yul\":506:528   */\n      swap1\n      pop\n        /* \"#utility.yul\":537:569   */\n      tag_174\n        /* \"#utility.yul\":563:568   */\n      dup2\n        /* \"#utility.yul\":537:569   */\n      tag_171\n      jump\t// in\n    tag_174:\n        /* \"#utility.yul\":496:575   */\n      swap3\n      swap2\n      pop\n      pop\n      jump\t// out\n        /* \"#utility.yul\":594:945   */\n    tag_175:\n        /* \"#utility.yul\":651:659   */\n      0x00\n        /* \"#utility.yul\":661:667   */\n      dup1\n        /* \"#utility.yul\":711:714   */\n      dup4\n        /* \"#utility.yul\":704:708   */\n      0x1f\n        /* \"#utility.yul\":696:702   */\n      dup5\n        /* \"#utility.yul\":692:709   */\n      add\n        /* \"#utility.yul\":688:715   */\n      slt\n        /* \"#utility.yul\":678:680   */\n      tag_177\n      jumpi\n        /* \"#utility.yul\":729:730   */\n      0x00\n        /* \"#utility.yul\":726:727   */\n      dup1\n        /* \"#utility.yul\":719:731   */\n      revert\n        /* \"#utility.yul\":678:680   */\n    tag_177:\n        /* \"#utility.yul\":765:771   */\n      dup3\n        /* \"#utility.yul\":752:772   */\n      calldataload\n        /* \"#utility.yul\":742:772   */\n      swap1\n      pop\n        /* \"#utility.yul\":795:813   */\n      0xffffffffffffffff\n        /* \"#utility.yul\":787:793   */\n      dup2\n        /* \"#utility.yul\":784:814   */\n      gt\n        /* \"#utility.yul\":781:783   */\n      iszero\n      tag_178\n      jumpi\n        /* \"#utility.yul\":827:828   */\n      0x00\n        /* \"#utility.yul\":824:825   */\n      dup1\n        /* \"#utility.yul\":817:829   */\n      revert\n        /* \"#utility.yul\":781:783   */\n    tag_178:\n        /* \"#utility.yul\":864:868   */\n      0x20\n        /* \"#utility.yul\":856:862   */\n      dup4\n        /* \"#utility.yul\":852:869   */\n      add\n        /* \"#utility.yul\":840:869   */\n      swap2\n      pop\n        /* \"#utility.yul\":918:921   */\n      dup4\n        /* \"#utility.yul\":910:914   */\n      0x01\n        /* \"#utility.yul\":902:908   */\n      dup3\n        /* \"#utility.yul\":898:915   */\n      mul\n        /* \"#utility.yul\":888:896   */\n      dup4\n        /* \"#utility.yul\":884:916   */\n      add\n        /* \"#utility.yul\":881:922   */\n      gt\n        /* \"#utility.yul\":878:880   */\n      iszero\n      tag_179\n      jumpi\n        /* \"#utility.yul\":935:936   */\n      0x00\n        /* \"#utility.yul\":932:933   */\n      dup1\n        /* \"#utility.yul\":925:937   */\n      revert\n        /* \"#utility.yul\":878:880   */\n    tag_179:\n        /* \"#utility.yul\":668:945   */\n      swap3\n      pop\n      swap3\n      swap1\n      pop\n      jump\t// out\n        /* \"#utility.yul\":951:1090   */\n    tag_180:\n        /* \"#utility.yul\":997:1002   */\n      0x00\n        /* \"#utility.yul\":1035:1041   */\n      dup2\n        /* \"#utility.yul\":1022:1042   */\n      calldataload\n        /* \"#utility.yul\":1013:1042   */\n      swap1\n      pop\n        /* \"#utility.yul\":1051:1084   */\n      tag_182\n        /* \"#utility.yul\":1078:1083   */\n      dup2\n        /* \"#utility.yul\":1051:1084   */\n      tag_183\n      jump\t// in\n    tag_182:\n        /* \"#utility.yul\":1003:1090   */\n      swap3\n      swap2\n      pop\n      pop\n      jump\t// out\n        /* \"#utility.yul\":1096:1358   */\n    tag_51:\n        /* \"#utility.yul\":1155:1161   */\n      0x00\n        /* \"#utility.yul\":1204:1206   */\n      0x20\n        /* \"#utility.yul\":1192:1201   */\n      dup3\n        /* \"#utility.yul\":1183:1190   */\n      dup5\n        /* \"#utility.yul\":1179:1202   */\n      sub\n        /* \"#utility.yul\":1175:1207   */\n      slt\n        /* \"#utility.yul\":1172:1174   */\n      iszero\n      tag_185\n      jumpi\n        /* \"#utility.yul\":1220:1221   */\n      0x00\n        /* \"#utility.yul\":1217:1218   */\n      dup1\n        /* \"#utility.yul\":1210:1222   */\n      revert\n        /* \"#utility.yul\":1172:1174   */\n    tag_185:\n        /* \"#utility.yul\":1263:1264   */\n      0x00\n        /* \"#utility.yul\":1288:1341   */\n      tag_186\n        /* \"#utility.yul\":1333:1340   */\n      dup5\n        /* \"#utility.yul\":1324:1330   */\n      dup3\n        /* \"#utility.yul\":1313:1322   */\n      dup6\n        /* \"#utility.yul\":1309:1331   */\n      add\n        /* \"#utility.yul\":1288:1341   */\n      tag_160\n      jump\t// in\n    tag_186:\n        /* \"#utility.yul\":1278:1341   */\n      swap2\n      pop\n        /* \"#utility.yul\":1234:1351   */\n      pop\n        /* \"#utility.yul\":1162:1358   */\n      swap3\n      swap2\n      pop\n      pop\n      jump\t// out\n        /* \"#utility.yul\":1364:1771   */\n    tag_65:\n        /* \"#utility.yul\":1432:1438   */\n      0x00\n        /* \"#utility.yul\":1440:1446   */\n      dup1\n        /* \"#utility.yul\":1489:1491   */\n      0x40\n        /* \"#utility.yul\":1477:1486   */\n      dup4\n        /* \"#utility.yul\":1468:1475   */\n      dup6\n        /* \"#utility.yul\":1464:1487   */\n      sub\n        /* \"#utility.yul\":1460:1492   */\n      slt\n        /* \"#utility.yul\":1457:1459   */\n      iszero\n      tag_188\n      jumpi\n        /* \"#utility.yul\":1505:1506   */\n      0x00\n        /* \"#utility.yul\":1502:1503   */\n      dup1\n        /* \"#utility.yul\":1495:1507   */\n      revert\n        /* \"#utility.yul\":1457:1459   */\n    tag_188:\n        /* \"#utility.yul\":1548:1549   */\n      0x00\n        /* \"#utility.yul\":1573:1626   */\n      tag_189\n        /* \"#utility.yul\":1618:1625   */\n      dup6\n        /* \"#utility.yul\":1609:1615   */\n      dup3\n        /* \"#utility.yul\":1598:1607   */\n      dup7\n        /* \"#utility.yul\":1594:1616   */\n      add\n        /* \"#utility.yul\":1573:1626   */\n      tag_160\n      jump\t// in\n    tag_189:\n        /* \"#utility.yul\":1563:1626   */\n      swap3\n      pop\n        /* \"#utility.yul\":1519:1636   */\n      pop\n        /* \"#utility.yul\":1675:1677   */\n      0x20\n        /* \"#utility.yul\":1701:1754   */\n      tag_190\n        /* \"#utility.yul\":1746:1753   */\n      dup6\n        /* \"#utility.yul\":1737:1743   */\n      dup3\n        /* \"#utility.yul\":1726:1735   */\n      dup7\n        /* \"#utility.yul\":1722:1744   */\n      add\n        /* \"#utility.yul\":1701:1754   */\n      tag_160\n      jump\t// in\n    tag_190:\n        /* \"#utility.yul\":1691:1754   */\n      swap2\n      pop\n        /* \"#utility.yul\":1646:1764   */\n      pop\n        /* \"#utility.yul\":1447:1771   */\n      swap3\n      pop\n      swap3\n      swap1\n      pop\n      jump\t// out\n        /* \"#utility.yul\":1777:2329   */\n    tag_34:\n        /* \"#utility.yul\":1854:1860   */\n      0x00\n        /* \"#utility.yul\":1862:1868   */\n      dup1\n        /* \"#utility.yul\":1870:1876   */\n      0x00\n        /* \"#utility.yul\":1919:1921   */\n      0x60\n        /* \"#utility.yul\":1907:1916   */\n      dup5\n        /* \"#utility.yul\":1898:1905   */\n      dup7\n        /* \"#utility.yul\":1894:1917   */\n      sub\n        /* \"#utility.yul\":1890:1922   */\n      slt\n        /* \"#utility.yul\":1887:1889   */\n      iszero\n      tag_192\n      jumpi\n        /* \"#utility.yul\":1935:1936   */\n      0x00\n        /* \"#utility.yul\":1932:1933   */\n      dup1\n        /* \"#utility.yul\":1925:1937   */\n      revert\n        /* \"#utility.yul\":1887:1889   */\n    tag_192:\n        /* \"#utility.yul\":1978:1979   */\n      0x00\n        /* \"#utility.yul\":2003:2056   */\n      tag_193\n        /* \"#utility.yul\":2048:2055   */\n      dup7\n        /* \"#utility.yul\":2039:2045   */\n      dup3\n        /* \"#utility.yul\":2028:2037   */\n      dup8\n        /* \"#utility.yul\":2024:2046   */\n      add\n        /* \"#utility.yul\":2003:2056   */\n      tag_160\n      jump\t// in\n    tag_193:\n        /* \"#utility.yul\":1993:2056   */\n      swap4\n      pop\n        /* \"#utility.yul\":1949:2066   */\n      pop\n        /* \"#utility.yul\":2105:2107   */\n      0x20\n        /* \"#utility.yul\":2131:2184   */\n      tag_194\n        /* \"#utility.yul\":2176:2183   */\n      dup7\n        /* \"#utility.yul\":2167:2173   */\n      dup3\n        /* \"#utility.yul\":2156:2165   */\n      dup8\n        /* \"#utility.yul\":2152:2174   */\n      add\n        /* \"#utility.yul\":2131:2184   */\n      tag_160\n      jump\t// in\n    tag_194:\n        /* \"#utility.yul\":2121:2184   */\n      swap3\n      pop\n        /* \"#utility.yul\":2076:2194   */\n      pop\n        /* \"#utility.yul\":2233:2235   */\n      0x40\n        /* \"#utility.yul\":2259:2312   */\n      tag_195\n        /* \"#utility.yul\":2304:2311   */\n      dup7\n        /* \"#utility.yul\":2295:2301   */\n      dup3\n        /* \"#utility.yul\":2284:2293   */\n      dup8\n        /* \"#utility.yul\":2280:2302   */\n      add\n        /* \"#utility.yul\":2259:2312   */\n      tag_180\n      jump\t// in\n    tag_195:\n        /* \"#utility.yul\":2249:2312   */\n      swap2\n      pop\n        /* \"#utility.yul\":2204:2322   */\n      pop\n        /* \"#utility.yul\":1877:2329   */\n      swap3\n      pop\n      swap3\n      pop\n      swap3\n      jump\t// out\n        /* \"#utility.yul\":2335:3164   */\n    tag_61:\n        /* \"#utility.yul\":2432:2438   */\n      0x00\n        /* \"#utility.yul\":2440:2446   */\n      dup1\n        /* \"#utility.yul\":2448:2454   */\n      0x00\n        /* \"#utility.yul\":2456:2462   */\n      dup1\n        /* \"#utility.yul\":2464:2470   */\n      0x00\n        /* \"#utility.yul\":2513:2516   */\n      0x80\n        /* \"#utility.yul\":2501:2510   */\n      dup7\n        /* \"#utility.yul\":2492:2499   */\n      dup9\n        /* \"#utility.yul\":2488:2511   */\n      sub\n        /* \"#utility.yul\":2484:2517   */\n      slt\n        /* \"#utility.yul\":2481:2483   */\n      iszero\n      tag_197\n      jumpi\n        /* \"#utility.yul\":2530:2531   */\n      0x00\n        /* \"#utility.yul\":2527:2528   */\n      dup1\n        /* \"#utility.yul\":2520:2532   */\n      revert\n        /* \"#utility.yul\":2481:2483   */\n    tag_197:\n        /* \"#utility.yul\":2573:2574   */\n      0x00\n        /* \"#utility.yul\":2598:2651   */\n      tag_198\n        /* \"#utility.yul\":2643:2650   */\n      dup9\n        /* \"#utility.yul\":2634:2640   */\n      dup3\n        /* \"#utility.yul\":2623:2632   */\n      dup10\n        /* \"#utility.yul\":2619:2641   */\n      add\n        /* \"#utility.yul\":2598:2651   */\n      tag_160\n      jump\t// in\n    tag_198:\n        /* \"#utility.yul\":2588:2651   */\n      swap6\n      pop\n        /* \"#utility.yul\":2544:2661   */\n      pop\n        /* \"#utility.yul\":2700:2702   */\n      0x20\n        /* \"#utility.yul\":2726:2779   */\n      tag_199\n        /* \"#utility.yul\":2771:2778   */\n      dup9\n        /* \"#utility.yul\":2762:2768   */\n      dup3\n        /* \"#utility.yul\":2751:2760   */\n      dup10\n        /* \"#utility.yul\":2747:2769   */\n      add\n        /* \"#utility.yul\":2726:2779   */\n      tag_160\n      jump\t// in\n    tag_199:\n        /* \"#utility.yul\":2716:2779   */\n      swap5\n      pop\n        /* \"#utility.yul\":2671:2789   */\n      pop\n        /* \"#utility.yul\":2828:2830   */\n      0x40\n        /* \"#utility.yul\":2854:2907   */\n      tag_200\n        /* \"#utility.yul\":2899:2906   */\n      dup9\n        /* \"#utility.yul\":2890:2896   */\n      dup3\n        /* \"#utility.yul\":2879:2888   */\n      dup10\n        /* \"#utility.yul\":2875:2897   */\n      add\n        /* \"#utility.yul\":2854:2907   */\n      tag_180\n      jump\t// in\n    tag_200:\n        /* \"#utility.yul\":2844:2907   */\n      swap4\n      pop\n        /* \"#utility.yul\":2799:2917   */\n      pop\n        /* \"#utility.yul\":2984:2986   */\n      0x60\n        /* \"#utility.yul\":2973:2982   */\n      dup7\n        /* \"#utility.yul\":2969:2987   */\n      add\n        /* \"#utility.yul\":2956:2988   */\n      calldataload\n        /* \"#utility.yul\":3015:3033   */\n      0xffffffffffffffff\n        /* \"#utility.yul\":3007:3013   */\n      dup2\n        /* \"#utility.yul\":3004:3034   */\n      gt\n        /* \"#utility.yul\":3001:3003   */\n      iszero\n      tag_201\n      jumpi\n        /* \"#utility.yul\":3047:3048   */\n      0x00\n        /* \"#utility.yul\":3044:3045   */\n      dup1\n        /* \"#utility.yul\":3037:3049   */\n      revert\n        /* \"#utility.yul\":3001:3003   */\n    tag_201:\n        /* \"#utility.yul\":3083:3147   */\n      tag_202\n        /* \"#utility.yul\":3139:3146   */\n      dup9\n        /* \"#utility.yul\":3130:3136   */\n      dup3\n        /* \"#utility.yul\":3119:3128   */\n      dup10\n        /* \"#utility.yul\":3115:3137   */\n      add\n        /* \"#utility.yul\":3083:3147   */\n      tag_175\n      jump\t// in\n    tag_202:\n        /* \"#utility.yul\":3065:3147   */\n      swap3\n      pop\n      swap3\n      pop\n        /* \"#utility.yul\":2927:3157   */\n      pop\n        /* \"#utility.yul\":2471:3164   */\n      swap3\n      swap6\n      pop\n      swap3\n      swap6\n      swap1\n      swap4\n      pop\n      jump\t// out\n        /* \"#utility.yul\":3170:3571   */\n    tag_57:\n        /* \"#utility.yul\":3235:3241   */\n      0x00\n        /* \"#utility.yul\":3243:3249   */\n      dup1\n        /* \"#utility.yul\":3292:3294   */\n      0x40\n        /* \"#utility.yul\":3280:3289   */\n      dup4\n        /* \"#utility.yul\":3271:3278   */\n      dup6\n        /* \"#utility.yul\":3267:3290   */\n      sub\n        /* \"#utility.yul\":3263:3295   */\n      slt\n        /* \"#utility.yul\":3260:3262   */\n      iszero\n      tag_204\n      jumpi\n        /* \"#utility.yul\":3308:3309   */\n      0x00\n        /* \"#utility.yul\":3305:3306   */\n      dup1\n        /* \"#utility.yul\":3298:3310   */\n      revert\n        /* \"#utility.yul\":3260:3262   */\n    tag_204:\n        /* \"#utility.yul\":3351:3352   */\n      0x00\n        /* \"#utility.yul\":3376:3429   */\n      tag_205\n        /* \"#utility.yul\":3421:3428   */\n      dup6\n        /* \"#utility.yul\":3412:3418   */\n      dup3\n        /* \"#utility.yul\":3401:3410   */\n      dup7\n        /* \"#utility.yul\":3397:3419   */\n      add\n        /* \"#utility.yul\":3376:3429   */\n      tag_160\n      jump\t// in\n    tag_205:\n        /* \"#utility.yul\":3366:3429   */\n      swap3\n      pop\n        /* \"#utility.yul\":3322:3439   */\n      pop\n        /* \"#utility.yul\":3478:3480   */\n      0x20\n        /* \"#utility.yul\":3504:3554   */\n      tag_206\n        /* \"#utility.yul\":3546:3553   */\n      dup6\n        /* \"#utility.yul\":3537:3543   */\n      dup3\n        /* \"#utility.yul\":3526:3535   */\n      dup7\n        /* \"#utility.yul\":3522:3544   */\n      add\n        /* \"#utility.yul\":3504:3554   */\n      tag_164\n      jump\t// in\n    tag_206:\n        /* \"#utility.yul\":3494:3554   */\n      swap2\n      pop\n        /* \"#utility.yul\":3449:3564   */\n      pop\n        /* \"#utility.yul\":3250:3571   */\n      swap3\n      pop\n      swap3\n      swap1\n      pop\n      jump\t// out\n        /* \"#utility.yul\":3577:3984   */\n    tag_30:\n        /* \"#utility.yul\":3645:3651   */\n      0x00\n        /* \"#utility.yul\":3653:3659   */\n      dup1\n        /* \"#utility.yul\":3702:3704   */\n      0x40\n        /* \"#utility.yul\":3690:3699   */\n      dup4\n        /* \"#utility.yul\":3681:3688   */\n      dup6\n        /* \"#utility.yul\":3677:3700   */\n      sub\n        /* \"#utility.yul\":3673:3705   */\n      slt\n        /* \"#utility.yul\":3670:3672   */\n      iszero\n      tag_208\n      jumpi\n        /* \"#utility.yul\":3718:3719   */\n      0x00\n        /* \"#utility.yul\":3715:3716   */\n      dup1\n        /* \"#utility.yul\":3708:3720   */\n      revert\n        /* \"#utility.yul\":3670:3672   */\n    tag_208:\n        /* \"#utility.yul\":3761:3762   */\n      0x00\n        /* \"#utility.yul\":3786:3839   */\n      tag_209\n        /* \"#utility.yul\":3831:3838   */\n      dup6\n        /* \"#utility.yul\":3822:3828   */\n      dup3\n        /* \"#utility.yul\":3811:3820   */\n      dup7\n        /* \"#utility.yul\":3807:3829   */\n      add\n        /* \"#utility.yul\":3786:3839   */\n      tag_160\n      jump\t// in\n    tag_209:\n        /* \"#utility.yul\":3776:3839   */\n      swap3\n      pop\n        /* \"#utility.yul\":3732:3849   */\n      pop\n        /* \"#utility.yul\":3888:3890   */\n      0x20\n        /* \"#utility.yul\":3914:3967   */\n      tag_210\n        /* \"#utility.yul\":3959:3966   */\n      dup6\n        /* \"#utility.yul\":3950:3956   */\n      dup3\n        /* \"#utility.yul\":3939:3948   */\n      dup7\n        /* \"#utility.yul\":3935:3957   */\n      add\n        /* \"#utility.yul\":3914:3967   */\n      tag_180\n      jump\t// in\n    tag_210:\n        /* \"#utility.yul\":3904:3967   */\n      swap2\n      pop\n        /* \"#utility.yul\":3859:3977   */\n      pop\n        /* \"#utility.yul\":3660:3984   */\n      swap3\n      pop\n      swap3\n      swap1\n      pop\n      jump\t// out\n        /* \"#utility.yul\":3990:4250   */\n    tag_18:\n        /* \"#utility.yul\":4048:4054   */\n      0x00\n        /* \"#utility.yul\":4097:4099   */\n      0x20\n        /* \"#utility.yul\":4085:4094   */\n      dup3\n        /* \"#utility.yul\":4076:4083   */\n      dup5\n        /* \"#utility.yul\":4072:4095   */\n      sub\n        /* \"#utility.yul\":4068:4100   */\n      slt\n        /* \"#utility.yul\":4065:4067   */\n      iszero\n      tag_212\n      jumpi\n        /* \"#utility.yul\":4113:4114   */\n      0x00\n        /* \"#utility.yul\":4110:4111   */\n      dup1\n        /* \"#utility.yul\":4103:4115   */\n      revert\n        /* \"#utility.yul\":4065:4067   */\n    tag_212:\n        /* \"#utility.yul\":4156:4157   */\n      0x00\n        /* \"#utility.yul\":4181:4233   */\n      tag_213\n        /* \"#utility.yul\":4225:4232   */\n      dup5\n        /* \"#utility.yul\":4216:4222   */\n      dup3\n        /* \"#utility.yul\":4205:4214   */\n      dup6\n        /* \"#utility.yul\":4201:4223   */\n      add\n        /* \"#utility.yul\":4181:4233   */\n      tag_168\n      jump\t// in\n    tag_213:\n        /* \"#utility.yul\":4171:4233   */\n      swap2\n      pop\n        /* \"#utility.yul\":4127:4243   */\n      pop\n        /* \"#utility.yul\":4055:4250   */\n      swap3\n      swap2\n      pop\n      pop\n      jump\t// out\n        /* \"#utility.yul\":4256:4538   */\n    tag_111:\n        /* \"#utility.yul\":4325:4331   */\n      0x00\n        /* \"#utility.yul\":4374:4376   */\n      0x20\n        /* \"#utility.yul\":4362:4371   */\n      dup3\n        /* \"#utility.yul\":4353:4360   */\n      dup5\n        /* \"#utility.yul\":4349:4372   */\n      sub\n        /* \"#utility.yul\":4345:4377   */\n      slt\n        /* \"#utility.yul\":4342:4344   */\n      iszero\n      tag_215\n      jumpi\n        /* \"#utility.yul\":4390:4391   */\n      0x00\n        /* \"#utility.yul\":4387:4388   */\n      dup1\n        /* \"#utility.yul\":4380:4392   */\n      revert\n        /* \"#utility.yul\":4342:4344   */\n    tag_215:\n        /* \"#utility.yul\":4433:4434   */\n      0x00\n        /* \"#utility.yul\":4458:4521   */\n      tag_216\n        /* \"#utility.yul\":4513:4520   */\n      dup5\n        /* \"#utility.yul\":4504:4510   */\n      dup3\n        /* \"#utility.yul\":4493:4502   */\n      dup6\n        /* \"#utility.yul\":4489:4511   */\n      add\n        /* \"#utility.yul\":4458:4521   */\n      tag_172\n      jump\t// in\n    tag_216:\n        /* \"#utility.yul\":4448:4521   */\n      swap2\n      pop\n        /* \"#utility.yul\":4404:4531   */\n      pop\n        /* \"#utility.yul\":4332:4538   */\n      swap3\n      swap2\n      pop\n      pop\n      jump\t// out\n        /* \"#utility.yul\":4544:4806   */\n    tag_24:\n        /* \"#utility.yul\":4603:4609   */\n      0x00\n        /* \"#utility.yul\":4652:4654   */\n      0x20\n        /* \"#utility.yul\":4640:4649   */\n      dup3\n        /* \"#utility.yul\":4631:4638   */\n      dup5\n        /* \"#utility.yul\":4627:4650   */\n      sub\n        /* \"#utility.yul\":4623:4655   */\n      slt\n        /* \"#utility.yul\":4620:4622   */\n      iszero\n      tag_218\n      jumpi\n        /* \"#utility.yul\":4668:4669   */\n      0x00\n        /* \"#utility.yul\":4665:4666   */\n      dup1\n        /* \"#utility.yul\":4658:4670   */\n      revert\n        /* \"#utility.yul\":4620:4622   */\n    tag_218:\n        /* \"#utility.yul\":4711:4712   */\n      0x00\n        /* \"#utility.yul\":4736:4789   */\n      tag_219\n        /* \"#utility.yul\":4781:4788   */\n      dup5\n        /* \"#utility.yul\":4772:4778   */\n      dup3\n        /* \"#utility.yul\":4761:4770   */\n      dup6\n        /* \"#utility.yul\":4757:4779   */\n      add\n        /* \"#utility.yul\":4736:4789   */\n      tag_180\n      jump\t// in\n    tag_219:\n        /* \"#utility.yul\":4726:4789   */\n      swap2\n      pop\n        /* \"#utility.yul\":4682:4799   */\n      pop\n        /* \"#utility.yul\":4610:4806   */\n      swap3\n      swap2\n      pop\n      pop\n      jump\t// out\n        /* \"#utility.yul\":4812:4930   */\n    tag_220:\n        /* \"#utility.yul\":4899:4923   */\n      tag_222\n        /* \"#utility.yul\":4917:4922   */\n      dup2\n        /* \"#utility.yul\":4899:4923   */\n      tag_223\n      jump\t// in\n    tag_222:\n        /* \"#utility.yul\":4894:4897   */\n      dup3\n        /* \"#utility.yul\":4887:4924   */\n      mstore\n        /* \"#utility.yul\":4877:4930   */\n      pop\n      pop\n      jump\t// out\n        /* \"#utility.yul\":4936:5045   */\n    tag_224:\n        /* \"#utility.yul\":5017:5038   */\n      tag_226\n        /* \"#utility.yul\":5032:5037   */\n      dup2\n        /* \"#utility.yul\":5017:5038   */\n      tag_227\n      jump\t// in\n    tag_226:\n        /* \"#utility.yul\":5012:5015   */\n      dup3\n        /* \"#utility.yul\":5005:5039   */\n      mstore\n        /* \"#utility.yul\":4995:5045   */\n      pop\n      pop\n      jump\t// out\n        /* \"#utility.yul\":5073:5374   */\n    tag_228:\n        /* \"#utility.yul\":5169:5172   */\n      0x00\n        /* \"#utility.yul\":5190:5260   */\n      tag_230\n        /* \"#utility.yul\":5253:5259   */\n      dup4\n        /* \"#utility.yul\":5248:5251   */\n      dup6\n        /* \"#utility.yul\":5190:5260   */\n      tag_231\n      jump\t// in\n    tag_230:\n        /* \"#utility.yul\":5183:5260   */\n      swap4\n      pop\n        /* \"#utility.yul\":5270:5313   */\n      tag_232\n        /* \"#utility.yul\":5306:5312   */\n      dup4\n        /* \"#utility.yul\":5301:5304   */\n      dup6\n        /* \"#utility.yul\":5294:5299   */\n      dup5\n        /* \"#utility.yul\":5270:5313   */\n      tag_233\n      jump\t// in\n    tag_232:\n        /* \"#utility.yul\":5338:5367   */\n      tag_234\n        /* \"#utility.yul\":5360:5366   */\n      dup4\n        /* \"#utility.yul\":5338:5367   */\n      tag_235\n      jump\t// in\n    tag_234:\n        /* \"#utility.yul\":5333:5336   */\n      dup5\n        /* \"#utility.yul\":5329:5368   */\n      add\n        /* \"#utility.yul\":5322:5368   */\n      swap1\n      pop\n        /* \"#utility.yul\":5173:5374   */\n      swap4\n      swap3\n      pop\n      pop\n      pop\n      jump\t// out\n        /* \"#utility.yul\":5380:5746   */\n    tag_236:\n        /* \"#utility.yul\":5522:5525   */\n      0x00\n        /* \"#utility.yul\":5543:5610   */\n      tag_238\n        /* \"#utility.yul\":5607:5609   */\n      0x10\n        /* \"#utility.yul\":5602:5605   */\n      dup4\n        /* \"#utility.yul\":5543:5610   */\n      tag_239\n      jump\t// in\n    tag_238:\n        /* \"#utility.yul\":5536:5610   */\n      swap2\n      pop\n        /* \"#utility.yul\":5619:5712   */\n      tag_240\n        /* \"#utility.yul\":5708:5711   */\n      dup3\n        /* \"#utility.yul\":5619:5712   */\n      tag_241\n      jump\t// in\n    tag_240:\n        /* \"#utility.yul\":5737:5739   */\n      0x20\n        /* \"#utility.yul\":5732:5735   */\n      dup3\n        /* \"#utility.yul\":5728:5740   */\n      add\n        /* \"#utility.yul\":5721:5740   */\n      swap1\n      pop\n        /* \"#utility.yul\":5526:5746   */\n      swap2\n      swap1\n      pop\n      jump\t// out\n        /* \"#utility.yul\":5752:6118   */\n    tag_242:\n        /* \"#utility.yul\":5894:5897   */\n      0x00\n        /* \"#utility.yul\":5915:5982   */\n      tag_244\n        /* \"#utility.yul\":5979:5981   */\n      0x0c\n        /* \"#utility.yul\":5974:5977   */\n      dup4\n        /* \"#utility.yul\":5915:5982   */\n      tag_239\n      jump\t// in\n    tag_244:\n        /* \"#utility.yul\":5908:5982   */\n      swap2\n      pop\n        /* \"#utility.yul\":5991:6084   */\n      tag_245\n        /* \"#utility.yul\":6080:6083   */\n      dup3\n        /* \"#utility.yul\":5991:6084   */\n      tag_246\n      jump\t// in\n    tag_245:\n        /* \"#utility.yul\":6109:6111   */\n      0x20\n        /* \"#utility.yul\":6104:6107   */\n      dup3\n        /* \"#utility.yul\":6100:6112   */\n      add\n        /* \"#utility.yul\":6093:6112   */\n      swap1\n      pop\n        /* \"#utility.yul\":5898:6118   */\n      swap2\n      swap1\n      pop\n      jump\t// out\n        /* \"#utility.yul\":6124:6490   */\n    tag_247:\n        /* \"#utility.yul\":6266:6269   */\n      0x00\n        /* \"#utility.yul\":6287:6354   */\n      tag_249\n        /* \"#utility.yul\":6351:6353   */\n      0x27\n        /* \"#utility.yul\":6346:6349   */\n      dup4\n        /* \"#utility.yul\":6287:6354   */\n      tag_239\n      jump\t// in\n    tag_249:\n        /* \"#utility.yul\":6280:6354   */\n      swap2\n      pop\n        /* \"#utility.yul\":6363:6456   */\n      tag_250\n        /* \"#utility.yul\":6452:6455   */\n      dup3\n        /* \"#utility.yul\":6363:6456   */\n      tag_251\n      jump\t// in\n    tag_250:\n        /* \"#utility.yul\":6481:6483   */\n      0x40\n        /* \"#utility.yul\":6476:6479   */\n      dup3\n        /* \"#utility.yul\":6472:6484   */\n      add\n        /* \"#utility.yul\":6465:6484   */\n      swap1\n      pop\n        /* \"#utility.yul\":6270:6490   */\n      swap2\n      swap1\n      pop\n      jump\t// out\n        /* \"#utility.yul\":6496:6862   */\n    tag_252:\n        /* \"#utility.yul\":6638:6641   */\n      0x00\n        /* \"#utility.yul\":6659:6726   */\n      tag_254\n        /* \"#utility.yul\":6723:6725   */\n      0x11\n        /* \"#utility.yul\":6718:6721   */\n      dup4\n        /* \"#utility.yul\":6659:6726   */\n      tag_239\n      jump\t// in\n    tag_254:\n        /* \"#utility.yul\":6652:6726   */\n      swap2\n      pop\n        /* \"#utility.yul\":6735:6828   */\n      tag_255\n        /* \"#utility.yul\":6824:6827   */\n      dup3\n        /* \"#utility.yul\":6735:6828   */\n      tag_256\n      jump\t// in\n    tag_255:\n        /* \"#utility.yul\":6853:6855   */\n      0x20\n        /* \"#utility.yul\":6848:6851   */\n      dup3\n        /* \"#utility.yul\":6844:6856   */\n      add\n        /* \"#utility.yul\":6837:6856   */\n      swap1\n      pop\n        /* \"#utility.yul\":6642:6862   */\n      swap2\n      swap1\n      pop\n      jump\t// out\n        /* \"#utility.yul\":6868:7234   */\n    tag_257:\n        /* \"#utility.yul\":7010:7013   */\n      0x00\n        /* \"#utility.yul\":7031:7098   */\n      tag_259\n        /* \"#utility.yul\":7095:7097   */\n      0x1b\n        /* \"#utility.yul\":7090:7093   */\n      dup4\n        /* \"#utility.yul\":7031:7098   */\n      tag_239\n      jump\t// in\n    tag_259:\n        /* \"#utility.yul\":7024:7098   */\n      swap2\n      pop\n        /* \"#utility.yul\":7107:7200   */\n      tag_260\n        /* \"#utility.yul\":7196:7199   */\n      dup3\n        /* \"#utility.yul\":7107:7200   */\n      tag_261\n      jump\t// in\n    tag_260:\n        /* \"#utility.yul\":7225:7227   */\n      0x20\n        /* \"#utility.yul\":7220:7223   */\n      dup3\n        /* \"#utility.yul\":7216:7228   */\n      add\n        /* \"#utility.yul\":7209:7228   */\n      swap1\n      pop\n        /* \"#utility.yul\":7014:7234   */\n      swap2\n      swap1\n      pop\n      jump\t// out\n        /* \"#utility.yul\":7240:7606   */\n    tag_262:\n        /* \"#utility.yul\":7382:7385   */\n      0x00\n        /* \"#utility.yul\":7403:7470   */\n      tag_264\n        /* \"#utility.yul\":7467:7469   */\n      0x13\n        /* \"#utility.yul\":7462:7465   */\n      dup4\n        /* \"#utility.yul\":7403:7470   */\n      tag_239\n      jump\t// in\n    tag_264:\n        /* \"#utility.yul\":7396:7470   */\n      swap2\n      pop\n        /* \"#utility.yul\":7479:7572   */\n      tag_265\n        /* \"#utility.yul\":7568:7571   */\n      dup3\n        /* \"#utility.yul\":7479:7572   */\n      tag_266\n      jump\t// in\n    tag_265:\n        /* \"#utility.yul\":7597:7599   */\n      0x20\n        /* \"#utility.yul\":7592:7595   */\n      dup3\n        /* \"#utility.yul\":7588:7600   */\n      add\n        /* \"#utility.yul\":7581:7600   */\n      swap1\n      pop\n        /* \"#utility.yul\":7386:7606   */\n      swap2\n      swap1\n      pop\n      jump\t// out\n        /* \"#utility.yul\":7612:7978   */\n    tag_267:\n        /* \"#utility.yul\":7754:7757   */\n      0x00\n        /* \"#utility.yul\":7775:7842   */\n      tag_269\n        /* \"#utility.yul\":7839:7841   */\n      0x20\n        /* \"#utility.yul\":7834:7837   */\n      dup4\n        /* \"#utility.yul\":7775:7842   */\n      tag_239\n      jump\t// in\n    tag_269:\n        /* \"#utility.yul\":7768:7842   */\n      swap2\n      pop\n        /* \"#utility.yul\":7851:7944   */\n      tag_270\n        /* \"#utility.yul\":7940:7943   */\n      dup3\n        /* \"#utility.yul\":7851:7944   */\n      tag_271\n      jump\t// in\n    tag_270:\n        /* \"#utility.yul\":7969:7971   */\n      0x20\n        /* \"#utility.yul\":7964:7967   */\n      dup3\n        /* \"#utility.yul\":7960:7972   */\n      add\n        /* \"#utility.yul\":7953:7972   */\n      swap1\n      pop\n        /* \"#utility.yul\":7758:7978   */\n      swap2\n      swap1\n      pop\n      jump\t// out\n        /* \"#utility.yul\":7984:8350   */\n    tag_272:\n        /* \"#utility.yul\":8126:8129   */\n      0x00\n        /* \"#utility.yul\":8147:8214   */\n      tag_274\n        /* \"#utility.yul\":8211:8213   */\n      0x0e\n        /* \"#utility.yul\":8206:8209   */\n      dup4\n        /* \"#utility.yul\":8147:8214   */\n      tag_239\n      jump\t// in\n    tag_274:\n        /* \"#utility.yul\":8140:8214   */\n      swap2\n      pop\n        /* \"#utility.yul\":8223:8316   */\n      tag_275\n        /* \"#utility.yul\":8312:8315   */\n      dup3\n        /* \"#utility.yul\":8223:8316   */\n      tag_276\n      jump\t// in\n    tag_275:\n        /* \"#utility.yul\":8341:8343   */\n      0x20\n        /* \"#utility.yul\":8336:8339   */\n      dup3\n        /* \"#utility.yul\":8332:8344   */\n      add\n        /* \"#utility.yul\":8325:8344   */\n      swap1\n      pop\n        /* \"#utility.yul\":8130:8350   */\n      swap2\n      swap1\n      pop\n      jump\t// out\n        /* \"#utility.yul\":8356:8722   */\n    tag_277:\n        /* \"#utility.yul\":8498:8501   */\n      0x00\n        /* \"#utility.yul\":8519:8586   */\n      tag_279\n        /* \"#utility.yul\":8583:8585   */\n      0x12\n        /* \"#utility.yul\":8578:8581   */\n      dup4\n        /* \"#utility.yul\":8519:8586   */\n      tag_239\n      jump\t// in\n    tag_279:\n        /* \"#utility.yul\":8512:8586   */\n      swap2\n      pop\n        /* \"#utility.yul\":8595:8688   */\n      tag_280\n        /* \"#utility.yul\":8684:8687   */\n      dup3\n        /* \"#utility.yul\":8595:8688   */\n      tag_281\n      jump\t// in\n    tag_280:\n        /* \"#utility.yul\":8713:8715   */\n      0x20\n        /* \"#utility.yul\":8708:8711   */\n      dup3\n        /* \"#utility.yul\":8704:8716   */\n      add\n        /* \"#utility.yul\":8697:8716   */\n      swap1\n      pop\n        /* \"#utility.yul\":8502:8722   */\n      swap2\n      swap1\n      pop\n      jump\t// out\n        /* \"#utility.yul\":8728:9090   */\n    tag_282:\n        /* \"#utility.yul\":8869:8872   */\n      0x00\n        /* \"#utility.yul\":8890:8955   */\n      tag_284\n        /* \"#utility.yul\":8953:8954   */\n      0x00\n        /* \"#utility.yul\":8948:8951   */\n      dup4\n        /* \"#utility.yul\":8890:8955   */\n      tag_231\n      jump\t// in\n    tag_284:\n        /* \"#utility.yul\":8883:8955   */\n      swap2\n      pop\n        /* \"#utility.yul\":8964:9057   */\n      tag_285\n        /* \"#utility.yul\":9053:9056   */\n      dup3\n        /* \"#utility.yul\":8964:9057   */\n      tag_286\n      jump\t// in\n    tag_285:\n        /* \"#utility.yul\":9082:9083   */\n      0x00\n        /* \"#utility.yul\":9077:9080   */\n      dup3\n        /* \"#utility.yul\":9073:9084   */\n      add\n        /* \"#utility.yul\":9066:9084   */\n      swap1\n      pop\n        /* \"#utility.yul\":8873:9090   */\n      swap2\n      swap1\n      pop\n      jump\t// out\n        /* \"#utility.yul\":9096:9462   */\n    tag_287:\n        /* \"#utility.yul\":9238:9241   */\n      0x00\n        /* \"#utility.yul\":9259:9326   */\n      tag_289\n        /* \"#utility.yul\":9323:9325   */\n      0x16\n        /* \"#utility.yul\":9318:9321   */\n      dup4\n        /* \"#utility.yul\":9259:9326   */\n      tag_239\n      jump\t// in\n    tag_289:\n        /* \"#utility.yul\":9252:9326   */\n      swap2\n      pop\n        /* \"#utility.yul\":9335:9428   */\n      tag_290\n        /* \"#utility.yul\":9424:9427   */\n      dup3\n        /* \"#utility.yul\":9335:9428   */\n      tag_291\n      jump\t// in\n    tag_290:\n        /* \"#utility.yul\":9453:9455   */\n      0x20\n        /* \"#utility.yul\":9448:9451   */\n      dup3\n        /* \"#utility.yul\":9444:9456   */\n      add\n        /* \"#utility.yul\":9437:9456   */\n      swap1\n      pop\n        /* \"#utility.yul\":9242:9462   */\n      swap2\n      swap1\n      pop\n      jump\t// out\n        /* \"#utility.yul\":9468:9834   */\n    tag_292:\n        /* \"#utility.yul\":9610:9613   */\n      0x00\n        /* \"#utility.yul\":9631:9698   */\n      tag_294\n        /* \"#utility.yul\":9695:9697   */\n      0x10\n        /* \"#utility.yul\":9690:9693   */\n      dup4\n        /* \"#utility.yul\":9631:9698   */\n      tag_239\n      jump\t// in\n    tag_294:\n        /* \"#utility.yul\":9624:9698   */\n      swap2\n      pop\n        /* \"#utility.yul\":9707:9800   */\n      tag_295\n        /* \"#utility.yul\":9796:9799   */\n      dup3\n        /* \"#utility.yul\":9707:9800   */\n      tag_296\n      jump\t// in\n    tag_295:\n        /* \"#utility.yul\":9825:9827   */\n      0x20\n        /* \"#utility.yul\":9820:9823   */\n      dup3\n        /* \"#utility.yul\":9816:9828   */\n      add\n        /* \"#utility.yul\":9809:9828   */\n      swap1\n      pop\n        /* \"#utility.yul\":9614:9834   */\n      swap2\n      swap1\n      pop\n      jump\t// out\n        /* \"#utility.yul\":9840:10205   */\n    tag_297:\n        /* \"#utility.yul\":9982:9985   */\n      0x00\n        /* \"#utility.yul\":10003:10069   */\n      tag_299\n        /* \"#utility.yul\":10067:10068   */\n      0x09\n        /* \"#utility.yul\":10062:10065   */\n      dup4\n        /* \"#utility.yul\":10003:10069   */\n      tag_239\n      jump\t// in\n    tag_299:\n        /* \"#utility.yul\":9996:10069   */\n      swap2\n      pop\n        /* \"#utility.yul\":10078:10171   */\n      tag_300\n        /* \"#utility.yul\":10167:10170   */\n      dup3\n        /* \"#utility.yul\":10078:10171   */\n      tag_301\n      jump\t// in\n    tag_300:\n        /* \"#utility.yul\":10196:10198   */\n      0x20\n        /* \"#utility.yul\":10191:10194   */\n      dup3\n        /* \"#utility.yul\":10187:10199   */\n      add\n        /* \"#utility.yul\":10180:10199   */\n      swap1\n      pop\n        /* \"#utility.yul\":9986:10205   */\n      swap2\n      swap1\n      pop\n      jump\t// out\n        /* \"#utility.yul\":10211:10577   */\n    tag_302:\n        /* \"#utility.yul\":10353:10356   */\n      0x00\n        /* \"#utility.yul\":10374:10441   */\n      tag_304\n        /* \"#utility.yul\":10438:10440   */\n      0x0d\n        /* \"#utility.yul\":10433:10436   */\n      dup4\n        /* \"#utility.yul\":10374:10441   */\n      tag_239\n      jump\t// in\n    tag_304:\n        /* \"#utility.yul\":10367:10441   */\n      swap2\n      pop\n        /* \"#utility.yul\":10450:10543   */\n      tag_305\n        /* \"#utility.yul\":10539:10542   */\n      dup3\n        /* \"#utility.yul\":10450:10543   */\n      tag_306\n      jump\t// in\n    tag_305:\n        /* \"#utility.yul\":10568:10570   */\n      0x20\n        /* \"#utility.yul\":10563:10566   */\n      dup3\n        /* \"#utility.yul\":10559:10571   */\n      add\n        /* \"#utility.yul\":10552:10571   */\n      swap1\n      pop\n        /* \"#utility.yul\":10357:10577   */\n      swap2\n      swap1\n      pop\n      jump\t// out\n        /* \"#utility.yul\":10583:10701   */\n    tag_307:\n        /* \"#utility.yul\":10670:10694   */\n      tag_309\n        /* \"#utility.yul\":10688:10693   */\n      dup2\n        /* \"#utility.yul\":10670:10694   */\n      tag_310\n      jump\t// in\n    tag_309:\n        /* \"#utility.yul\":10665:10668   */\n      dup3\n        /* \"#utility.yul\":10658:10695   */\n      mstore\n        /* \"#utility.yul\":10648:10701   */\n      pop\n      pop\n      jump\t// out\n        /* \"#utility.yul\":10707:10929   */\n    tag_27:\n        /* \"#utility.yul\":10800:10804   */\n      0x00\n        /* \"#utility.yul\":10838:10840   */\n      0x20\n        /* \"#utility.yul\":10827:10836   */\n      dup3\n        /* \"#utility.yul\":10823:10841   */\n      add\n        /* \"#utility.yul\":10815:10841   */\n      swap1\n      pop\n        /* \"#utility.yul\":10851:10922   */\n      tag_312\n        /* \"#utility.yul\":10919:10920   */\n      0x00\n        /* \"#utility.yul\":10908:10917   */\n      dup4\n        /* \"#utility.yul\":10904:10921   */\n      add\n        /* \"#utility.yul\":10895:10901   */\n      dup5\n        /* \"#utility.yul\":10851:10922   */\n      tag_220\n      jump\t// in\n    tag_312:\n        /* \"#utility.yul\":10805:10929   */\n      swap3\n      swap2\n      pop\n      pop\n      jump\t// out\n        /* \"#utility.yul\":10935:11595   */\n    tag_138:\n        /* \"#utility.yul\":11140:11144   */\n      0x00\n        /* \"#utility.yul\":11178:11181   */\n      0x80\n        /* \"#utility.yul\":11167:11176   */\n      dup3\n        /* \"#utility.yul\":11163:11182   */\n      add\n        /* \"#utility.yul\":11155:11182   */\n      swap1\n      pop\n        /* \"#utility.yul\":11192:11263   */\n      tag_314\n        /* \"#utility.yul\":11260:11261   */\n      0x00\n        /* \"#utility.yul\":11249:11258   */\n      dup4\n        /* \"#utility.yul\":11245:11262   */\n      add\n        /* \"#utility.yul\":11236:11242   */\n      dup9\n        /* \"#utility.yul\":11192:11263   */\n      tag_220\n      jump\t// in\n    tag_314:\n        /* \"#utility.yul\":11273:11345   */\n      tag_315\n        /* \"#utility.yul\":11341:11343   */\n      0x20\n        /* \"#utility.yul\":11330:11339   */\n      dup4\n        /* \"#utility.yul\":11326:11344   */\n      add\n        /* \"#utility.yul\":11317:11323   */\n      dup8\n        /* \"#utility.yul\":11273:11345   */\n      tag_220\n      jump\t// in\n    tag_315:\n        /* \"#utility.yul\":11355:11427   */\n      tag_316\n        /* \"#utility.yul\":11423:11425   */\n      0x40\n        /* \"#utility.yul\":11412:11421   */\n      dup4\n        /* \"#utility.yul\":11408:11426   */\n      add\n        /* \"#utility.yul\":11399:11405   */\n      dup7\n        /* \"#utility.yul\":11355:11427   */\n      tag_307\n      jump\t// in\n    tag_316:\n        /* \"#utility.yul\":11474:11483   */\n      dup2\n        /* \"#utility.yul\":11468:11472   */\n      dup2\n        /* \"#utility.yul\":11464:11484   */\n      sub\n        /* \"#utility.yul\":11459:11461   */\n      0x60\n        /* \"#utility.yul\":11448:11457   */\n      dup4\n        /* \"#utility.yul\":11444:11462   */\n      add\n        /* \"#utility.yul\":11437:11485   */\n      mstore\n        /* \"#utility.yul\":11502:11588   */\n      tag_317\n        /* \"#utility.yul\":11583:11587   */\n      dup2\n        /* \"#utility.yul\":11574:11580   */\n      dup5\n        /* \"#utility.yul\":11566:11572   */\n      dup7\n        /* \"#utility.yul\":11502:11588   */\n      tag_228\n      jump\t// in\n    tag_317:\n        /* \"#utility.yul\":11494:11588   */\n      swap1\n      pop\n        /* \"#utility.yul\":11145:11595   */\n      swap7\n      swap6\n      pop\n      pop\n      pop\n      pop\n      pop\n      pop\n      jump\t// out\n        /* \"#utility.yul\":11601:12349   */\n    tag_106:\n        /* \"#utility.yul\":11850:11854   */\n      0x00\n        /* \"#utility.yul\":11888:11891   */\n      0x80\n        /* \"#utility.yul\":11877:11886   */\n      dup3\n        /* \"#utility.yul\":11873:11892   */\n      add\n        /* \"#utility.yul\":11865:11892   */\n      swap1\n      pop\n        /* \"#utility.yul\":11902:11973   */\n      tag_319\n        /* \"#utility.yul\":11970:11971   */\n      0x00\n        /* \"#utility.yul\":11959:11968   */\n      dup4\n        /* \"#utility.yul\":11955:11972   */\n      add\n        /* \"#utility.yul\":11946:11952   */\n      dup7\n        /* \"#utility.yul\":11902:11973   */\n      tag_220\n      jump\t// in\n    tag_319:\n        /* \"#utility.yul\":11983:12055   */\n      tag_320\n        /* \"#utility.yul\":12051:12053   */\n      0x20\n        /* \"#utility.yul\":12040:12049   */\n      dup4\n        /* \"#utility.yul\":12036:12054   */\n      add\n        /* \"#utility.yul\":12027:12033   */\n      dup6\n        /* \"#utility.yul\":11983:12055   */\n      tag_220\n      jump\t// in\n    tag_320:\n        /* \"#utility.yul\":12065:12137   */\n      tag_321\n        /* \"#utility.yul\":12133:12135   */\n      0x40\n        /* \"#utility.yul\":12122:12131   */\n      dup4\n        /* \"#utility.yul\":12118:12136   */\n      add\n        /* \"#utility.yul\":12109:12115   */\n      dup5\n        /* \"#utility.yul\":12065:12137   */\n      tag_307\n      jump\t// in\n    tag_321:\n        /* \"#utility.yul\":12184:12193   */\n      dup2\n        /* \"#utility.yul\":12178:12182   */\n      dup2\n        /* \"#utility.yul\":12174:12194   */\n      sub\n        /* \"#utility.yul\":12169:12171   */\n      0x60\n        /* \"#utility.yul\":12158:12167   */\n      dup4\n        /* \"#utility.yul\":12154:12172   */\n      add\n        /* \"#utility.yul\":12147:12195   */\n      mstore\n        /* \"#utility.yul\":12212:12342   */\n      tag_322\n        /* \"#utility.yul\":12337:12341   */\n      dup2\n        /* \"#utility.yul\":12212:12342   */\n      tag_282\n      jump\t// in\n    tag_322:\n        /* \"#utility.yul\":12204:12342   */\n      swap1\n      pop\n        /* \"#utility.yul\":11855:12349   */\n      swap5\n      swap4\n      pop\n      pop\n      pop\n      pop\n      jump\t// out\n        /* \"#utility.yul\":12355:12565   */\n    tag_21:\n        /* \"#utility.yul\":12442:12446   */\n      0x00\n        /* \"#utility.yul\":12480:12482   */\n      0x20\n        /* \"#utility.yul\":12469:12478   */\n      dup3\n        /* \"#utility.yul\":12465:12483   */\n      add\n        /* \"#utility.yul\":12457:12483   */\n      swap1\n      pop\n        /* \"#utility.yul\":12493:12558   */\n      tag_324\n        /* \"#utility.yul\":12555:12556   */\n      0x00\n        /* \"#utility.yul\":12544:12553   */\n      dup4\n        /* \"#utility.yul\":12540:12557   */\n      add\n        /* \"#utility.yul\":12531:12537   */\n      dup5\n        /* \"#utility.yul\":12493:12558   */\n      tag_224\n      jump\t// in\n    tag_324:\n        /* \"#utility.yul\":12447:12565   */\n      swap3\n      swap2\n      pop\n      pop\n      jump\t// out\n        /* \"#utility.yul\":12571:12990   */\n    tag_114:\n        /* \"#utility.yul\":12737:12741   */\n      0x00\n        /* \"#utility.yul\":12775:12777   */\n      0x20\n        /* \"#utility.yul\":12764:12773   */\n      dup3\n        /* \"#utility.yul\":12760:12778   */\n      add\n        /* \"#utility.yul\":12752:12778   */\n      swap1\n      pop\n        /* \"#utility.yul\":12824:12833   */\n      dup2\n        /* \"#utility.yul\":12818:12822   */\n      dup2\n        /* \"#utility.yul\":12814:12834   */\n      sub\n        /* \"#utility.yul\":12810:12811   */\n      0x00\n        /* \"#utility.yul\":12799:12808   */\n      dup4\n        /* \"#utility.yul\":12795:12812   */\n      add\n        /* \"#utility.yul\":12788:12835   */\n      mstore\n        /* \"#utility.yul\":12852:12983   */\n      tag_326\n        /* \"#utility.yul\":12978:12982   */\n      dup2\n        /* \"#utility.yul\":12852:12983   */\n      tag_236\n      jump\t// in\n    tag_326:\n        /* \"#utility.yul\":12844:12983   */\n      swap1\n      pop\n        /* \"#utility.yul\":12742:12990   */\n      swap2\n      swap1\n      pop\n      jump\t// out\n        /* \"#utility.yul\":12996:13415   */\n    tag_86:\n        /* \"#utility.yul\":13162:13166   */\n      0x00\n        /* \"#utility.yul\":13200:13202   */\n      0x20\n        /* \"#utility.yul\":13189:13198   */\n      dup3\n        /* \"#utility.yul\":13185:13203   */\n      add\n        /* \"#utility.yul\":13177:13203   */\n      swap1\n      pop\n        /* \"#utility.yul\":13249:13258   */\n      dup2\n        /* \"#utility.yul\":13243:13247   */\n      dup2\n        /* \"#utility.yul\":13239:13259   */\n      sub\n        /* \"#utility.yul\":13235:13236   */\n      0x00\n        /* \"#utility.yul\":13224:13233   */\n      dup4\n        /* \"#utility.yul\":13220:13237   */\n      add\n        /* \"#utility.yul\":13213:13260   */\n      mstore\n        /* \"#utility.yul\":13277:13408   */\n      tag_328\n        /* \"#utility.yul\":13403:13407   */\n      dup2\n        /* \"#utility.yul\":13277:13408   */\n      tag_242\n      jump\t// in\n    tag_328:\n        /* \"#utility.yul\":13269:13408   */\n      swap1\n      pop\n        /* \"#utility.yul\":13167:13415   */\n      swap2\n      swap1\n      pop\n      jump\t// out\n        /* \"#utility.yul\":13421:13840   */\n    tag_89:\n        /* \"#utility.yul\":13587:13591   */\n      0x00\n        /* \"#utility.yul\":13625:13627   */\n      0x20\n        /* \"#utility.yul\":13614:13623   */\n      dup3\n        /* \"#utility.yul\":13610:13628   */\n      add\n        /* \"#utility.yul\":13602:13628   */\n      swap1\n      pop\n        /* \"#utility.yul\":13674:13683   */\n      dup2\n        /* \"#utility.yul\":13668:13672   */\n      dup2\n        /* \"#utility.yul\":13664:13684   */\n      sub\n        /* \"#utility.yul\":13660:13661   */\n      0x00\n        /* \"#utility.yul\":13649:13658   */\n      dup4\n        /* \"#utility.yul\":13645:13662   */\n      add\n        /* \"#utility.yul\":13638:13685   */\n      mstore\n        /* \"#utility.yul\":13702:13833   */\n      tag_330\n        /* \"#utility.yul\":13828:13832   */\n      dup2\n        /* \"#utility.yul\":13702:13833   */\n      tag_247\n      jump\t// in\n    tag_330:\n        /* \"#utility.yul\":13694:13833   */\n      swap1\n      pop\n        /* \"#utility.yul\":13592:13840   */\n      swap2\n      swap1\n      pop\n      jump\t// out\n        /* \"#utility.yul\":13846:14265   */\n    tag_151:\n        /* \"#utility.yul\":14012:14016   */\n      0x00\n        /* \"#utility.yul\":14050:14052   */\n      0x20\n        /* \"#utility.yul\":14039:14048   */\n      dup3\n        /* \"#utility.yul\":14035:14053   */\n      add\n        /* \"#utility.yul\":14027:14053   */\n      swap1\n      pop\n        /* \"#utility.yul\":14099:14108   */\n      dup2\n        /* \"#utility.yul\":14093:14097   */\n      dup2\n        /* \"#utility.yul\":14089:14109   */\n      sub\n        /* \"#utility.yul\":14085:14086   */\n      0x00\n        /* \"#utility.yul\":14074:14083   */\n      dup4\n        /* \"#utility.yul\":14070:14087   */\n      add\n        /* \"#utility.yul\":14063:14110   */\n      mstore\n        /* \"#utility.yul\":14127:14258   */\n      tag_332\n        /* \"#utility.yul\":14253:14257   */\n      dup2\n        /* \"#utility.yul\":14127:14258   */\n      tag_252\n      jump\t// in\n    tag_332:\n        /* \"#utility.yul\":14119:14258   */\n      swap1\n      pop\n        /* \"#utility.yul\":14017:14265   */\n      swap2\n      swap1\n      pop\n      jump\t// out\n        /* \"#utility.yul\":14271:14690   */\n    tag_128:\n        /* \"#utility.yul\":14437:14441   */\n      0x00\n        /* \"#utility.yul\":14475:14477   */\n      0x20\n        /* \"#utility.yul\":14464:14473   */\n      dup3\n        /* \"#utility.yul\":14460:14478   */\n      add\n        /* \"#utility.yul\":14452:14478   */\n      swap1\n      pop\n        /* \"#utility.yul\":14524:14533   */\n      dup2\n        /* \"#utility.yul\":14518:14522   */\n      dup2\n        /* \"#utility.yul\":14514:14534   */\n      sub\n        /* \"#utility.yul\":14510:14511   */\n      0x00\n        /* \"#utility.yul\":14499:14508   */\n      dup4\n        /* \"#utility.yul\":14495:14512   */\n      add\n        /* \"#utility.yul\":14488:14535   */\n      mstore\n        /* \"#utility.yul\":14552:14683   */\n      tag_334\n        /* \"#utility.yul\":14678:14682   */\n      dup2\n        /* \"#utility.yul\":14552:14683   */\n      tag_257\n      jump\t// in\n    tag_334:\n        /* \"#utility.yul\":14544:14683   */\n      swap1\n      pop\n        /* \"#utility.yul\":14442:14690   */\n      swap2\n      swap1\n      pop\n      jump\t// out\n        /* \"#utility.yul\":14696:15115   */\n    tag_124:\n        /* \"#utility.yul\":14862:14866   */\n      0x00\n        /* \"#utility.yul\":14900:14902   */\n      0x20\n        /* \"#utility.yul\":14889:14898   */\n      dup3\n        /* \"#utility.yul\":14885:14903   */\n      add\n        /* \"#utility.yul\":14877:14903   */\n      swap1\n      pop\n        /* \"#utility.yul\":14949:14958   */\n      dup2\n        /* \"#utility.yul\":14943:14947   */\n      dup2\n        /* \"#utility.yul\":14939:14959   */\n      sub\n        /* \"#utility.yul\":14935:14936   */\n      0x00\n        /* \"#utility.yul\":14924:14933   */\n      dup4\n        /* \"#utility.yul\":14920:14937   */\n      add\n        /* \"#utility.yul\":14913:14960   */\n      mstore\n        /* \"#utility.yul\":14977:15108   */\n      tag_336\n        /* \"#utility.yul\":15103:15107   */\n      dup2\n        /* \"#utility.yul\":14977:15108   */\n      tag_262\n      jump\t// in\n    tag_336:\n        /* \"#utility.yul\":14969:15108   */\n      swap1\n      pop\n        /* \"#utility.yul\":14867:15115   */\n      swap2\n      swap1\n      pop\n      jump\t// out\n        /* \"#utility.yul\":15121:15540   */\n    tag_83:\n        /* \"#utility.yul\":15287:15291   */\n      0x00\n        /* \"#utility.yul\":15325:15327   */\n      0x20\n        /* \"#utility.yul\":15314:15323   */\n      dup3\n        /* \"#utility.yul\":15310:15328   */\n      add\n        /* \"#utility.yul\":15302:15328   */\n      swap1\n      pop\n        /* \"#utility.yul\":15374:15383   */\n      dup2\n        /* \"#utility.yul\":15368:15372   */\n      dup2\n        /* \"#utility.yul\":15364:15384   */\n      sub\n        /* \"#utility.yul\":15360:15361   */\n      0x00\n        /* \"#utility.yul\":15349:15358   */\n      dup4\n        /* \"#utility.yul\":15345:15362   */\n      add\n        /* \"#utility.yul\":15338:15385   */\n      mstore\n        /* \"#utility.yul\":15402:15533   */\n      tag_338\n        /* \"#utility.yul\":15528:15532   */\n      dup2\n        /* \"#utility.yul\":15402:15533   */\n      tag_267\n      jump\t// in\n    tag_338:\n        /* \"#utility.yul\":15394:15533   */\n      swap1\n      pop\n        /* \"#utility.yul\":15292:15540   */\n      swap2\n      swap1\n      pop\n      jump\t// out\n        /* \"#utility.yul\":15546:15965   */\n    tag_78:\n        /* \"#utility.yul\":15712:15716   */\n      0x00\n        /* \"#utility.yul\":15750:15752   */\n      0x20\n        /* \"#utility.yul\":15739:15748   */\n      dup3\n        /* \"#utility.yul\":15735:15753   */\n      add\n        /* \"#utility.yul\":15727:15753   */\n      swap1\n      pop\n        /* \"#utility.yul\":15799:15808   */\n      dup2\n        /* \"#utility.yul\":15793:15797   */\n      dup2\n        /* \"#utility.yul\":15789:15809   */\n      sub\n        /* \"#utility.yul\":15785:15786   */\n      0x00\n        /* \"#utility.yul\":15774:15783   */\n      dup4\n        /* \"#utility.yul\":15770:15787   */\n      add\n        /* \"#utility.yul\":15763:15810   */\n      mstore\n        /* \"#utility.yul\":15827:15958   */\n      tag_340\n        /* \"#utility.yul\":15953:15957   */\n      dup2\n        /* \"#utility.yul\":15827:15958   */\n      tag_272\n      jump\t// in\n    tag_340:\n        /* \"#utility.yul\":15819:15958   */\n      swap1\n      pop\n        /* \"#utility.yul\":15717:15965   */\n      swap2\n      swap1\n      pop\n      jump\t// out\n        /* \"#utility.yul\":15971:16390   */\n    tag_73:\n        /* \"#utility.yul\":16137:16141   */\n      0x00\n        /* \"#utility.yul\":16175:16177   */\n      0x20\n        /* \"#utility.yul\":16164:16173   */\n      dup3\n        /* \"#utility.yul\":16160:16178   */\n      add\n        /* \"#utility.yul\":16152:16178   */\n      swap1\n      pop\n        /* \"#utility.yul\":16224:16233   */\n      dup2\n        /* \"#utility.yul\":16218:16222   */\n      dup2\n        /* \"#utility.yul\":16214:16234   */\n      sub\n        /* \"#utility.yul\":16210:16211   */\n      0x00\n        /* \"#utility.yul\":16199:16208   */\n      dup4\n        /* \"#utility.yul\":16195:16212   */\n      add\n        /* \"#utility.yul\":16188:16235   */\n      mstore\n        /* \"#utility.yul\":16252:16383   */\n      tag_342\n        /* \"#utility.yul\":16378:16382   */\n      dup2\n        /* \"#utility.yul\":16252:16383   */\n      tag_277\n      jump\t// in\n    tag_342:\n        /* \"#utility.yul\":16244:16383   */\n      swap1\n      pop\n        /* \"#utility.yul\":16142:16390   */\n      swap2\n      swap1\n      pop\n      jump\t// out\n        /* \"#utility.yul\":16396:16815   */\n    tag_132:\n        /* \"#utility.yul\":16562:16566   */\n      0x00\n        /* \"#utility.yul\":16600:16602   */\n      0x20\n        /* \"#utility.yul\":16589:16598   */\n      dup3\n        /* \"#utility.yul\":16585:16603   */\n      add\n        /* \"#utility.yul\":16577:16603   */\n      swap1\n      pop\n        /* \"#utility.yul\":16649:16658   */\n      dup2\n        /* \"#utility.yul\":16643:16647   */\n      dup2\n        /* \"#utility.yul\":16639:16659   */\n      sub\n        /* \"#utility.yul\":16635:16636   */\n      0x00\n        /* \"#utility.yul\":16624:16633   */\n      dup4\n        /* \"#utility.yul\":16620:16637   */\n      add\n        /* \"#utility.yul\":16613:16660   */\n      mstore\n        /* \"#utility.yul\":16677:16808   */\n      tag_344\n        /* \"#utility.yul\":16803:16807   */\n      dup2\n        /* \"#utility.yul\":16677:16808   */\n      tag_287\n      jump\t// in\n    tag_344:\n        /* \"#utility.yul\":16669:16808   */\n      swap1\n      pop\n        /* \"#utility.yul\":16567:16815   */\n      swap2\n      swap1\n      pop\n      jump\t// out\n        /* \"#utility.yul\":16821:17240   */\n    tag_157:\n        /* \"#utility.yul\":16987:16991   */\n      0x00\n        /* \"#utility.yul\":17025:17027   */\n      0x20\n        /* \"#utility.yul\":17014:17023   */\n      dup3\n        /* \"#utility.yul\":17010:17028   */\n      add\n        /* \"#utility.yul\":17002:17028   */\n      swap1\n      pop\n        /* \"#utility.yul\":17074:17083   */\n      dup2\n        /* \"#utility.yul\":17068:17072   */\n      dup2\n        /* \"#utility.yul\":17064:17084   */\n      sub\n        /* \"#utility.yul\":17060:17061   */\n      0x00\n        /* \"#utility.yul\":17049:17058   */\n      dup4\n        /* \"#utility.yul\":17045:17062   */\n      add\n        /* \"#utility.yul\":17038:17085   */\n      mstore\n        /* \"#utility.yul\":17102:17233   */\n      tag_346\n        /* \"#utility.yul\":17228:17232   */\n      dup2\n        /* \"#utility.yul\":17102:17233   */\n      tag_292\n      jump\t// in\n    tag_346:\n        /* \"#utility.yul\":17094:17233   */\n      swap1\n      pop\n        /* \"#utility.yul\":16992:17240   */\n      swap2\n      swap1\n      pop\n      jump\t// out\n        /* \"#utility.yul\":17246:17665   */\n    tag_118:\n        /* \"#utility.yul\":17412:17416   */\n      0x00\n        /* \"#utility.yul\":17450:17452   */\n      0x20\n        /* \"#utility.yul\":17439:17448   */\n      dup3\n        /* \"#utility.yul\":17435:17453   */\n      add\n        /* \"#utility.yul\":17427:17453   */\n      swap1\n      pop\n        /* \"#utility.yul\":17499:17508   */\n      dup2\n        /* \"#utility.yul\":17493:17497   */\n      dup2\n        /* \"#utility.yul\":17489:17509   */\n      sub\n        /* \"#utility.yul\":17485:17486   */\n      0x00\n        /* \"#utility.yul\":17474:17483   */\n      dup4\n        /* \"#utility.yul\":17470:17487   */\n      add\n        /* \"#utility.yul\":17463:17510   */\n      mstore\n        /* \"#utility.yul\":17527:17658   */\n      tag_348\n        /* \"#utility.yul\":17653:17657   */\n      dup2\n        /* \"#utility.yul\":17527:17658   */\n      tag_297\n      jump\t// in\n    tag_348:\n        /* \"#utility.yul\":17519:17658   */\n      swap1\n      pop\n        /* \"#utility.yul\":17417:17665   */\n      swap2\n      swap1\n      pop\n      jump\t// out\n        /* \"#utility.yul\":17671:18090   */\n    tag_94:\n        /* \"#utility.yul\":17837:17841   */\n      0x00\n        /* \"#utility.yul\":17875:17877   */\n      0x20\n        /* \"#utility.yul\":17864:17873   */\n      dup3\n        /* \"#utility.yul\":17860:17878   */\n      add\n        /* \"#utility.yul\":17852:17878   */\n      swap1\n      pop\n        /* \"#utility.yul\":17924:17933   */\n      dup2\n        /* \"#utility.yul\":17918:17922   */\n      dup2\n        /* \"#utility.yul\":17914:17934   */\n      sub\n        /* \"#utility.yul\":17910:17911   */\n      0x00\n        /* \"#utility.yul\":17899:17908   */\n      dup4\n        /* \"#utility.yul\":17895:17912   */\n      add\n        /* \"#utility.yul\":17888:17935   */\n      mstore\n        /* \"#utility.yul\":17952:18083   */\n      tag_350\n        /* \"#utility.yul\":18078:18082   */\n      dup2\n        /* \"#utility.yul\":17952:18083   */\n      tag_302\n      jump\t// in\n    tag_350:\n        /* \"#utility.yul\":17944:18083   */\n      swap1\n      pop\n        /* \"#utility.yul\":17842:18090   */\n      swap2\n      swap1\n      pop\n      jump\t// out\n        /* \"#utility.yul\":18096:18318   */\n    tag_54:\n        /* \"#utility.yul\":18189:18193   */\n      0x00\n        /* \"#utility.yul\":18227:18229   */\n      0x20\n        /* \"#utility.yul\":18216:18225   */\n      dup3\n        /* \"#utility.yul\":18212:18230   */\n      add\n        /* \"#utility.yul\":18204:18230   */\n      swap1\n      pop\n        /* \"#utility.yul\":18240:18311   */\n      tag_352\n        /* \"#utility.yul\":18308:18309   */\n      0x00\n        /* \"#utility.yul\":18297:18306   */\n      dup4\n        /* \"#utility.yul\":18293:18310   */\n      add\n        /* \"#utility.yul\":18284:18290   */\n      dup5\n        /* \"#utility.yul\":18240:18311   */\n      tag_307\n      jump\t// in\n    tag_352:\n        /* \"#utility.yul\":18194:18318   */\n      swap3\n      swap2\n      pop\n      pop\n      jump\t// out\n        /* \"#utility.yul\":18324:18492   */\n    tag_231:\n        /* \"#utility.yul\":18407:18418   */\n      0x00\n        /* \"#utility.yul\":18441:18447   */\n      dup3\n        /* \"#utility.yul\":18436:18439   */\n      dup3\n        /* \"#utility.yul\":18429:18448   */\n      mstore\n        /* \"#utility.yul\":18481:18485   */\n      0x20\n        /* \"#utility.yul\":18476:18479   */\n      dup3\n        /* \"#utility.yul\":18472:18486   */\n      add\n        /* \"#utility.yul\":18457:18486   */\n      swap1\n      pop\n        /* \"#utility.yul\":18419:18492   */\n      swap3\n      swap2\n      pop\n      pop\n      jump\t// out\n        /* \"#utility.yul\":18498:18667   */\n    tag_239:\n        /* \"#utility.yul\":18582:18593   */\n      0x00\n        /* \"#utility.yul\":18616:18622   */\n      dup3\n        /* \"#utility.yul\":18611:18614   */\n      dup3\n        /* \"#utility.yul\":18604:18623   */\n      mstore\n        /* \"#utility.yul\":18656:18660   */\n      0x20\n        /* \"#utility.yul\":18651:18654   */\n      dup3\n        /* \"#utility.yul\":18647:18661   */\n      add\n        /* \"#utility.yul\":18632:18661   */\n      swap1\n      pop\n        /* \"#utility.yul\":18594:18667   */\n      swap3\n      swap2\n      pop\n      pop\n      jump\t// out\n        /* \"#utility.yul\":18673:18769   */\n    tag_223:\n        /* \"#utility.yul\":18710:18717   */\n      0x00\n        /* \"#utility.yul\":18739:18763   */\n      tag_356\n        /* \"#utility.yul\":18757:18762   */\n      dup3\n        /* \"#utility.yul\":18739:18763   */\n      tag_357\n      jump\t// in\n    tag_356:\n        /* \"#utility.yul\":18728:18763   */\n      swap1\n      pop\n        /* \"#utility.yul\":18718:18769   */\n      swap2\n      swap1\n      pop\n      jump\t// out\n        /* \"#utility.yul\":18775:18865   */\n    tag_227:\n        /* \"#utility.yul\":18809:18816   */\n      0x00\n        /* \"#utility.yul\":18852:18857   */\n      dup2\n        /* \"#utility.yul\":18845:18858   */\n      iszero\n        /* \"#utility.yul\":18838:18859   */\n      iszero\n        /* \"#utility.yul\":18827:18859   */\n      swap1\n      pop\n        /* \"#utility.yul\":18817:18865   */\n      swap2\n      swap1\n      pop\n      jump\t// out\n        /* \"#utility.yul\":18871:19020   */\n    tag_359:\n        /* \"#utility.yul\":18907:18914   */\n      0x00\n        /* \"#utility.yul\":18947:19013   */\n      0xffffffff00000000000000000000000000000000000000000000000000000000\n        /* \"#utility.yul\":18940:18945   */\n      dup3\n        /* \"#utility.yul\":18936:19014   */\n      and\n        /* \"#utility.yul\":18925:19014   */\n      swap1\n      pop\n        /* \"#utility.yul\":18915:19020   */\n      swap2\n      swap1\n      pop\n      jump\t// out\n        /* \"#utility.yul\":19026:19152   */\n    tag_357:\n        /* \"#utility.yul\":19063:19070   */\n      0x00\n        /* \"#utility.yul\":19103:19145   */\n      0xffffffffffffffffffffffffffffffffffffffff\n        /* \"#utility.yul\":19096:19101   */\n      dup3\n        /* \"#utility.yul\":19092:19146   */\n      and\n        /* \"#utility.yul\":19081:19146   */\n      swap1\n      pop\n        /* \"#utility.yul\":19071:19152   */\n      swap2\n      swap1\n      pop\n      jump\t// out\n        /* \"#utility.yul\":19158:19235   */\n    tag_310:\n        /* \"#utility.yul\":19195:19202   */\n      0x00\n        /* \"#utility.yul\":19224:19229   */\n      dup2\n        /* \"#utility.yul\":19213:19229   */\n      swap1\n      pop\n        /* \"#utility.yul\":19203:19235   */\n      swap2\n      swap1\n      pop\n      jump\t// out\n        /* \"#utility.yul\":19241:19395   */\n    tag_233:\n        /* \"#utility.yul\":19325:19331   */\n      dup3\n        /* \"#utility.yul\":19320:19323   */\n      dup2\n        /* \"#utility.yul\":19315:19318   */\n      dup4\n        /* \"#utility.yul\":19302:19332   */\n      calldatacopy\n        /* \"#utility.yul\":19387:19388   */\n      0x00\n        /* \"#utility.yul\":19378:19384   */\n      dup4\n        /* \"#utility.yul\":19373:19376   */\n      dup4\n        /* \"#utility.yul\":19369:19385   */\n      add\n        /* \"#utility.yul\":19362:19389   */\n      mstore\n        /* \"#utility.yul\":19292:19395   */\n      pop\n      pop\n      pop\n      jump\t// out\n        /* \"#utility.yul\":19401:19572   */\n    tag_96:\n        /* \"#utility.yul\":19440:19443   */\n      0x00\n        /* \"#utility.yul\":19463:19487   */\n      tag_365\n        /* \"#utility.yul\":19481:19486   */\n      dup3\n        /* \"#utility.yul\":19463:19487   */\n      tag_310\n      jump\t// in\n    tag_365:\n        /* \"#utility.yul\":19454:19487   */\n      swap2\n      pop\n        /* \"#utility.yul\":19509:19513   */\n      0x00\n        /* \"#utility.yul\":19502:19507   */\n      dup3\n        /* \"#utility.yul\":19499:19514   */\n      eq\n        /* \"#utility.yul\":19496:19498   */\n      iszero\n      tag_366\n      jumpi\n        /* \"#utility.yul\":19517:19535   */\n      tag_367\n      tag_368\n      jump\t// in\n    tag_367:\n        /* \"#utility.yul\":19496:19498   */\n    tag_366:\n        /* \"#utility.yul\":19564:19565   */\n      0x01\n        /* \"#utility.yul\":19557:19562   */\n      dup3\n        /* \"#utility.yul\":19553:19566   */\n      sub\n        /* \"#utility.yul\":19546:19566   */\n      swap1\n      pop\n        /* \"#utility.yul\":19444:19572   */\n      swap2\n      swap1\n      pop\n      jump\t// out\n        /* \"#utility.yul\":19578:19811   */\n    tag_98:\n        /* \"#utility.yul\":19617:19620   */\n      0x00\n        /* \"#utility.yul\":19640:19664   */\n      tag_370\n        /* \"#utility.yul\":19658:19663   */\n      dup3\n        /* \"#utility.yul\":19640:19664   */\n      tag_310\n      jump\t// in\n    tag_370:\n        /* \"#utility.yul\":19631:19664   */\n      swap2\n      pop\n        /* \"#utility.yul\":19686:19752   */\n      0xffffffffffffffffffffffffffffffffffffffffffffffffffffffffffffffff\n        /* \"#utility.yul\":19679:19684   */\n      dup3\n        /* \"#utility.yul\":19676:19753   */\n      eq\n        /* \"#utility.yul\":19673:19675   */\n      iszero\n      tag_371\n      jumpi\n        /* \"#utility.yul\":19756:19774   */\n      tag_372\n      tag_368\n      jump\t// in\n    tag_372:\n        /* \"#utility.yul\":19673:19675   */\n    tag_371:\n        /* \"#utility.yul\":19803:19804   */\n      0x01\n        /* \"#utility.yul\":19796:19801   */\n      dup3\n        /* \"#utility.yul\":19792:19805   */\n      add\n        /* \"#utility.yul\":19785:19805   */\n      swap1\n      pop\n        /* \"#utility.yul\":19621:19811   */\n      swap2\n      swap1\n      pop\n      jump\t// out\n        /* \"#utility.yul\":19817:19997   */\n    tag_368:\n        /* \"#utility.yul\":19865:19942   */\n      0x4e487b7100000000000000000000000000000000000000000000000000000000\n        /* \"#utility.yul\":19862:19863   */\n      0x00\n        /* \"#utility.yul\":19855:19943   */\n      mstore\n        /* \"#utility.yul\":19962:19966   */\n      0x11\n        /* \"#utility.yul\":19959:19960   */\n      0x04\n        /* \"#utility.yul\":19952:19967   */\n      mstore\n        /* \"#utility.yul\":19986:19990   */\n      0x24\n        /* \"#utility.yul\":19983:19984   */\n      0x00\n        /* \"#utility.yul\":19976:19991   */\n      revert\n        /* \"#utility.yul\":20003:20105   */\n    tag_235:\n        /* \"#utility.yul\":20044:20050   */\n      0x00\n        /* \"#utility.yul\":20095:20097   */\n      0x1f\n        /* \"#utility.yul\":20091:20098   */\n      not\n        /* \"#utility.yul\":20086:20088   */\n      0x1f\n        /* \"#utility.yul\":20079:20084   */\n      dup4\n        /* \"#utility.yul\":20075:20089   */\n      add\n        /* \"#utility.yul\":20071:20099   */\n      and\n        /* \"#utility.yul\":20061:20099   */\n      swap1\n      pop\n        /* \"#utility.yul\":20051:20105   */\n      swap2\n      swap1\n      pop\n      jump\t// out\n        /* \"#utility.yul\":20111:20277   */\n    tag_241:\n        /* \"#utility.yul\":20251:20269   */\n      0x756e7361666520726563697069656e7400000000000000000000000000000000\n        /* \"#utility.yul\":20247:20248   */\n      0x00\n        /* \"#utility.yul\":20239:20245   */\n      dup3\n        /* \"#utility.yul\":20235:20249   */\n      add\n        /* \"#utility.yul\":20228:20270   */\n      mstore\n        /* \"#utility.yul\":20217:20277   */\n      pop\n      jump\t// out\n        /* \"#utility.yul\":20283:20445   */\n    tag_246:\n        /* \"#utility.yul\":20423:20437   */\n      0x746f6b656e4964207a65726f0000000000000000000000000000000000000000\n        /* \"#utility.yul\":20419:20420   */\n      0x00\n        /* \"#utility.yul\":20411:20417   */\n      dup3\n        /* \"#utility.yul\":20407:20421   */\n      add\n        /* \"#utility.yul\":20400:20438   */\n      mstore\n        /* \"#utility.yul\":20389:20445   */\n      pop\n      jump\t// out\n        /* \"#utility.yul\":20451:20677   */\n    tag_251:\n        /* \"#utility.yul\":20591:20625   */\n      0x6f776e6572206f6620746f6b656e4964206e6f74206d617463682066726f6d41\n        /* \"#utility.yul\":20587:20588   */\n      0x00\n        /* \"#utility.yul\":20579:20585   */\n      dup3\n        /* \"#utility.yul\":20575:20589   */\n      add\n        /* \"#utility.yul\":20568:20626   */\n      mstore\n        /* \"#utility.yul\":20660:20669   */\n      0x6464726573732000000000000000000000000000000000000000000000000000\n        /* \"#utility.yul\":20655:20657   */\n      0x20\n        /* \"#utility.yul\":20647:20653   */\n      dup3\n        /* \"#utility.yul\":20643:20658   */\n      add\n        /* \"#utility.yul\":20636:20670   */\n      mstore\n        /* \"#utility.yul\":20557:20677   */\n      pop\n      jump\t// out\n        /* \"#utility.yul\":20683:20850   */\n    tag_256:\n        /* \"#utility.yul\":20823:20842   */\n      0x746f203d207a65726f2061646472657373000000000000000000000000000000\n        /* \"#utility.yul\":20819:20820   */\n      0x00\n        /* \"#utility.yul\":20811:20817   */\n      dup3\n        /* \"#utility.yul\":20807:20821   */\n      add\n        /* \"#utility.yul\":20800:20843   */\n      mstore\n        /* \"#utility.yul\":20789:20850   */\n      pop\n      jump\t// out\n        /* \"#utility.yul\":20856:21033   */\n    tag_261:\n        /* \"#utility.yul\":20996:21025   */\n      0x4552433732313a2061646472657373207a65726f206973206e6f740000000000\n        /* \"#utility.yul\":20992:20993   */\n      0x00\n        /* \"#utility.yul\":20984:20990   */\n      dup3\n        /* \"#utility.yul\":20980:20994   */\n      add\n        /* \"#utility.yul\":20973:21026   */\n      mstore\n        /* \"#utility.yul\":20962:21033   */\n      pop\n      jump\t// out\n        /* \"#utility.yul\":21039:21208   */\n    tag_266:\n        /* \"#utility.yul\":21179:21200   */\n      0x61646472657373207a65726f206973206e6f7400000000000000000000000000\n        /* \"#utility.yul\":21175:21176   */\n      0x00\n        /* \"#utility.yul\":21167:21173   */\n      dup3\n        /* \"#utility.yul\":21163:21177   */\n      add\n        /* \"#utility.yul\":21156:21201   */\n      mstore\n        /* \"#utility.yul\":21145:21208   */\n      pop\n      jump\t// out\n        /* \"#utility.yul\":21214:21396   */\n    tag_271:\n        /* \"#utility.yul\":21354:21388   */\n      0x61646472657373206f7220746f41646472657373207a65726f206973206e6f74\n        /* \"#utility.yul\":21350:21351   */\n      0x00\n        /* \"#utility.yul\":21342:21348   */\n      dup3\n        /* \"#utility.yul\":21338:21352   */\n      add\n        /* \"#utility.yul\":21331:21389   */\n      mstore\n        /* \"#utility.yul\":21320:21396   */\n      pop\n      jump\t// out\n        /* \"#utility.yul\":21402:21566   */\n    tag_276:\n        /* \"#utility.yul\":21542:21558   */\n      0x6e6f7420617574686f72697a6564000000000000000000000000000000000000\n        /* \"#utility.yul\":21538:21539   */\n      0x00\n        /* \"#utility.yul\":21530:21536   */\n      dup3\n        /* \"#utility.yul\":21526:21540   */\n      add\n        /* \"#utility.yul\":21519:21559   */\n      mstore\n        /* \"#utility.yul\":21508:21566   */\n      pop\n      jump\t// out\n        /* \"#utility.yul\":21572:21740   */\n    tag_281:\n        /* \"#utility.yul\":21712:21732   */\n      0x4552432c20616464726573732069732020300000000000000000000000000000\n        /* \"#utility.yul\":21708:21709   */\n      0x00\n        /* \"#utility.yul\":21700:21706   */\n      dup3\n        /* \"#utility.yul\":21696:21710   */\n      add\n        /* \"#utility.yul\":21689:21733   */\n      mstore\n        /* \"#utility.yul\":21678:21740   */\n      pop\n      jump\t// out\n        /* \"#utility.yul\":21746:21860   */\n    tag_286:\n        /* \"#utility.yul\":21852:21860   */\n      pop\n      jump\t// out\n        /* \"#utility.yul\":21866:22038   */\n    tag_291:\n        /* \"#utility.yul\":22006:22030   */\n      0x6f70657261746f72206164647265737320697320203000000000000000000000\n        /* \"#utility.yul\":22002:22003   */\n      0x00\n        /* \"#utility.yul\":21994:22000   */\n      dup3\n        /* \"#utility.yul\":21990:22004   */\n      add\n        /* \"#utility.yul\":21983:22031   */\n      mstore\n        /* \"#utility.yul\":21972:22038   */\n      pop\n      jump\t// out\n        /* \"#utility.yul\":22044:22210   */\n    tag_296:\n        /* \"#utility.yul\":22184:22202   */\n      0x6164647265737320697320207a65726f00000000000000000000000000000000\n        /* \"#utility.yul\":22180:22181   */\n      0x00\n        /* \"#utility.yul\":22172:22178   */\n      dup3\n        /* \"#utility.yul\":22168:22182   */\n      add\n        /* \"#utility.yul\":22161:22203   */\n      mstore\n        /* \"#utility.yul\":22150:22210   */\n      pop\n      jump\t// out\n        /* \"#utility.yul\":22216:22375   */\n    tag_301:\n        /* \"#utility.yul\":22356:22367   */\n      0x6e6f74206f776e65720000000000000000000000000000000000000000000000\n        /* \"#utility.yul\":22352:22353   */\n      0x00\n        /* \"#utility.yul\":22344:22350   */\n      dup3\n        /* \"#utility.yul\":22340:22354   */\n      add\n        /* \"#utility.yul\":22333:22368   */\n      mstore\n        /* \"#utility.yul\":22322:22375   */\n      pop\n      jump\t// out\n        /* \"#utility.yul\":22381:22544   */\n    tag_306:\n        /* \"#utility.yul\":22521:22536   */\n      0x6e6f74206175746872697a656400000000000000000000000000000000000000\n        /* \"#utility.yul\":22517:22518   */\n      0x00\n        /* \"#utility.yul\":22509:22515   */\n      dup3\n        /* \"#utility.yul\":22505:22519   */\n      add\n        /* \"#utility.yul\":22498:22537   */\n      mstore\n        /* \"#utility.yul\":22487:22544   */\n      pop\n      jump\t// out\n        /* \"#utility.yul\":22550:22672   */\n    tag_163:\n        /* \"#utility.yul\":22623:22647   */\n      tag_390\n        /* \"#utility.yul\":22641:22646   */\n      dup2\n        /* \"#utility.yul\":22623:22647   */\n      tag_223\n      jump\t// in\n    tag_390:\n        /* \"#utility.yul\":22616:22621   */\n      dup2\n        /* \"#utility.yul\":22613:22648   */\n      eq\n        /* \"#utility.yul\":22603:22605   */\n      tag_391\n      jumpi\n        /* \"#utility.yul\":22662:22663   */\n      0x00\n        /* \"#utility.yul\":22659:22660   */\n      dup1\n        /* \"#utility.yul\":22652:22664   */\n      revert\n        /* \"#utility.yul\":22603:22605   */\n    tag_391:\n        /* \"#utility.yul\":22593:22672   */\n      pop\n      jump\t// out\n        /* \"#utility.yul\":22678:22794   */\n    tag_167:\n        /* \"#utility.yul\":22748:22769   */\n      tag_393\n        /* \"#utility.yul\":22763:22768   */\n      dup2\n        /* \"#utility.yul\":22748:22769   */\n      tag_227\n      jump\t// in\n    tag_393:\n        /* \"#utility.yul\":22741:22746   */\n      dup2\n        /* \"#utility.yul\":22738:22770   */\n      eq\n        /* \"#utility.yul\":22728:22730   */\n      tag_394\n      jumpi\n        /* \"#utility.yul\":22784:22785   */\n      0x00\n        /* \"#utility.yul\":22781:22782   */\n      dup1\n        /* \"#utility.yul\":22774:22786   */\n      revert\n        /* \"#utility.yul\":22728:22730   */\n    tag_394:\n        /* \"#utility.yul\":22718:22794   */\n      pop\n      jump\t// out\n        /* \"#utility.yul\":22800:22920   */\n    tag_171:\n        /* \"#utility.yul\":22872:22895   */\n      tag_396\n        /* \"#utility.yul\":22889:22894   */\n      dup2\n        /* \"#utility.yul\":22872:22895   */\n      tag_359\n      jump\t// in\n    tag_396:\n        /* \"#utility.yul\":22865:22870   */\n      dup2\n        /* \"#utility.yul\":22862:22896   */\n      eq\n        /* \"#utility.yul\":22852:22854   */\n      tag_397\n      jumpi\n        /* \"#utility.yul\":22910:22911   */\n      0x00\n        /* \"#utility.yul\":22907:22908   */\n      dup1\n        /* \"#utility.yul\":22900:22912   */\n      revert\n        /* \"#utility.yul\":22852:22854   */\n    tag_397:\n        /* \"#utility.yul\":22842:22920   */\n      pop\n      jump\t// out\n        /* \"#utility.yul\":22926:23048   */\n    tag_183:\n        /* \"#utility.yul\":22999:23023   */\n      tag_399\n        /* \"#utility.yul\":23017:23022   */\n      dup2\n        /* \"#utility.yul\":22999:23023   */\n      tag_310\n      jump\t// in\n    tag_399:\n        /* \"#utility.yul\":22992:22997   */\n      dup2\n        /* \"#utility.yul\":22989:23024   */\n      eq\n        /* \"#utility.yul\":22979:22981   */\n      tag_400\n      jumpi\n        /* \"#utility.yul\":23038:23039   */\n      0x00\n        /* \"#utility.yul\":23035:23036   */\n      dup1\n        /* \"#utility.yul\":23028:23040   */\n      revert\n        /* \"#utility.yul\":22979:22981   */\n    tag_400:\n        /* \"#utility.yul\":22969:23048   */\n      pop\n      jump\t// out\n\n    auxdata: 0xa264697066735822122074004b8c94605661331aedbd8a6f498d74f277fcaa62852cc95dd91de06b1ad164736f6c63430008040033\n}\n",
				"bytecode": {
					"linkReferences": {},
					"object": "608060405234801561001057600080fd5b50611f7d806100206000396000f3fe608060405234801561001057600080fd5b50600436106100b45760003560e01c806342966c681161007157806342966c68146101895780636352211e146101a557806370a08231146101d5578063a22cb46514610205578063b88d4fde14610221578063e985e9c51461023d576100b4565b806301ffc9a7146100b9578063081812fc146100e9578063095ea7b31461011957806323b872dd1461013557806340c10f191461015157806342842e0e1461016d575b600080fd5b6100d360048036038101906100ce919061160d565b61026d565b6040516100e0919061197f565b60405180910390f35b61010360048036038101906100fe919061165f565b61033f565b60405161011091906118cc565b60405180910390f35b610133600480360381019061012e91906115d1565b61041e565b005b61014f600480360381019061014a91906114c6565b610607565b005b61016b600480360381019061016691906115d1565b61096f565b005b610187600480360381019061018291906114c6565b61097d565b005b6101a3600480360381019061019e919061165f565b610ac4565b005b6101bf60048036038101906101ba919061165f565b610b71565b6040516101cc91906118cc565b60405180910390f35b6101ef60048036038101906101ea9190611461565b610c23565b6040516101fc9190611b3a565b60405180910390f35b61021f600480360381019061021a9190611595565b610cda565b005b61023b60048036038101906102369190611515565b610e47565b005b6102576004803603810190610252919061148a565b610f94565b604051610264919061197f565b60405180910390f35b60007f80ac58cd000000000000000000000000000000000000000000000000000000007bffffffffffffffffffffffffffffffffffffffffffffffffffffffff1916827bffffffffffffffffffffffffffffffffffffffffffffffffffffffff1916148061033857507f01ffc9a7000000000000000000000000000000000000000000000000000000007bffffffffffffffffffffffffffffffffffffffffffffffffffffffff1916827bffffffffffffffffffffffffffffffffffffffffffffffffffffffff1916145b9050919050565b60008073ffffffffffffffffffffffffffffffffffffffff166001600084815260200190815260200160002060009054906101000a900473ffffffffffffffffffffffffffffffffffffffff1673ffffffffffffffffffffffffffffffffffffffff1614156103e3576040517f08c379a00000000000000000000000000000000000000000000000000000000081526004016103da90611a9a565b60405180910390fd5b6003600083815260200190815260200160002060009054906101000a900473ffffffffffffffffffffffffffffffffffffffff169050919050565b60006001600083815260200190815260200160002060009054906101000a900473ffffffffffffffffffffffffffffffffffffffff1690508073ffffffffffffffffffffffffffffffffffffffff163373ffffffffffffffffffffffffffffffffffffffff1614806105165750600260008273ffffffffffffffffffffffffffffffffffffffff1673ffffffffffffffffffffffffffffffffffffffff16815260200190815260200160002060003373ffffffffffffffffffffffffffffffffffffffff1673ffffffffffffffffffffffffffffffffffffffff16815260200190815260200160002060009054906101000a900460ff165b610555576040517f08c379a000000000000000000000000000000000000000000000000000000000815260040161054c90611a7a565b60405180910390fd5b826003600084815260200190815260200160002060006101000a81548173ffffffffffffffffffffffffffffffffffffffff021916908373ffffffffffffffffffffffffffffffffffffffff160217905550818373ffffffffffffffffffffffffffffffffffffffff168273ffffffffffffffffffffffffffffffffffffffff167f8c5be1e5ebec7d5bd14f71427d1e84f3dd0314c0f7b2291e5b200ac8c7c3b92560405160405180910390a4505050565b600073ffffffffffffffffffffffffffffffffffffffff168373ffffffffffffffffffffffffffffffffffffffff16141580156106715750600073ffffffffffffffffffffffffffffffffffffffff168273ffffffffffffffffffffffffffffffffffffffff1614155b6106b0576040517f08c379a00000000000000000000000000000000000000000000000000000000081526004016106a790611a5a565b60405180910390fd5b60008114156106f4576040517f08c379a00000000000000000000000000000000000000000000000000000000081526004016106eb906119ba565b60405180910390fd5b6001600082815260200190815260200160002060009054906101000a900473ffffffffffffffffffffffffffffffffffffffff1673ffffffffffffffffffffffffffffffffffffffff168373ffffffffffffffffffffffffffffffffffffffff1614610795576040517f08c379a000000000000000000000000000000000000000000000000000000000815260040161078c906119da565b60405180910390fd5b6107a0833383610fc3565b6107df576040517f08c379a00000000000000000000000000000000000000000000000000000000081526004016107d690611b1a565b60405180910390fd5b6000808473ffffffffffffffffffffffffffffffffffffffff1673ffffffffffffffffffffffffffffffffffffffff168152602001908152602001600020600081548092919061082e90611bfa565b91905055506000808373ffffffffffffffffffffffffffffffffffffffff1673ffffffffffffffffffffffffffffffffffffffff168152602001908152602001600020600081548092919061088290611c24565b9190505550816001600083815260200190815260200160002060006101000a81548173ffffffffffffffffffffffffffffffffffffffff021916908373ffffffffffffffffffffffffffffffffffffffff1602179055506003600082815260200190815260200160002060006101000a81549073ffffffffffffffffffffffffffffffffffffffff0219169055808273ffffffffffffffffffffffffffffffffffffffff168473ffffffffffffffffffffffffffffffffffffffff167fddf252ad1be2c89b69c2b068fc378daa952ba7f163c4a11628f55a4df523b3ef60405160405180910390a4505050565b61097982826110f7565b5050565b610988838383610607565b60008273ffffffffffffffffffffffffffffffffffffffff163b1480610a80575063150b7a0260e01b7bffffffffffffffffffffffffffffffffffffffffffffffffffffffff19168273ffffffffffffffffffffffffffffffffffffffff1663150b7a023386856040518463ffffffff1660e01b8152600401610a0d93929190611935565b602060405180830381600087803b158015610a2757600080fd5b505af1158015610a3b573d6000803e3d6000fd5b505050506040513d601f19601f82011682018060405250810190610a5f9190611636565b7bffffffffffffffffffffffffffffffffffffffffffffffffffffffff1916145b610abf576040517f08c379a0000000000000000000000000000000000000000000000000000000008152600401610ab69061199a565b60405180910390fd5b505050565b6001600082815260200190815260200160002060009054906101000a900473ffffffffffffffffffffffffffffffffffffffff1673ffffffffffffffffffffffffffffffffffffffff163373ffffffffffffffffffffffffffffffffffffffff1614610b65576040517f08c379a0000000000000000000000000000000000000000000000000000000008152600401610b5c90611afa565b60405180910390fd5b610b6e8161126d565b50565b6000806001600084815260200190815260200160002060009054906101000a900473ffffffffffffffffffffffffffffffffffffffff169050600073ffffffffffffffffffffffffffffffffffffffff168173ffffffffffffffffffffffffffffffffffffffff161415610c1a576040517f08c379a0000000000000000000000000000000000000000000000000000000008152600401610c1190611a3a565b60405180910390fd5b80915050919050565b60008073ffffffffffffffffffffffffffffffffffffffff168273ffffffffffffffffffffffffffffffffffffffff161415610c94576040517f08c379a0000000000000000000000000000000000000000000000000000000008152600401610c8b90611a1a565b60405180910390fd5b6000808373ffffffffffffffffffffffffffffffffffffffff1673ffffffffffffffffffffffffffffffffffffffff168152602001908152602001600020549050919050565b600073ffffffffffffffffffffffffffffffffffffffff168273ffffffffffffffffffffffffffffffffffffffff161415610d4a576040517f08c379a0000000000000000000000000000000000000000000000000000000008152600401610d4190611aba565b60405180910390fd5b80600260003373ffffffffffffffffffffffffffffffffffffffff1673ffffffffffffffffffffffffffffffffffffffff16815260200190815260200160002060008473ffffffffffffffffffffffffffffffffffffffff1673ffffffffffffffffffffffffffffffffffffffff16815260200190815260200160002060006101000a81548160ff0219169083151502179055508173ffffffffffffffffffffffffffffffffffffffff163373ffffffffffffffffffffffffffffffffffffffff167f17307eab39ab6107e8899845ad3d59bd9653f200f220920489ca2b5937696c3183604051610e3b919061197f565b60405180910390a35050565b610e52858585610607565b60008473ffffffffffffffffffffffffffffffffffffffff163b1480610f4e575063150b7a0260e01b7bffffffffffffffffffffffffffffffffffffffffffffffffffffffff19168473ffffffffffffffffffffffffffffffffffffffff1663150b7a0233888787876040518663ffffffff1660e01b8152600401610edb9594939291906118e7565b602060405180830381600087803b158015610ef557600080fd5b505af1158015610f09573d6000803e3d6000fd5b505050506040513d601f19601f82011682018060405250810190610f2d9190611636565b7bffffffffffffffffffffffffffffffffffffffffffffffffffffffff1916145b610f8d576040517f08c379a0000000000000000000000000000000000000000000000000000000008152600401610f849061199a565b60405180910390fd5b5050505050565b60026020528160005260406000206020528060005260406000206000915091509054906101000a900460ff1681565b60008273ffffffffffffffffffffffffffffffffffffffff168473ffffffffffffffffffffffffffffffffffffffff16148061105d57508273ffffffffffffffffffffffffffffffffffffffff166003600084815260200190815260200160002060009054906101000a900473ffffffffffffffffffffffffffffffffffffffff1673ffffffffffffffffffffffffffffffffffffffff16145b806110ee5750600260008573ffffffffffffffffffffffffffffffffffffffff1673ffffffffffffffffffffffffffffffffffffffff16815260200190815260200160002060008473ffffffffffffffffffffffffffffffffffffffff1673ffffffffffffffffffffffffffffffffffffffff16815260200190815260200160002060009054906101000a900460ff165b90509392505050565b600073ffffffffffffffffffffffffffffffffffffffff168273ffffffffffffffffffffffffffffffffffffffff161415611167576040517f08c379a000000000000000000000000000000000000000000000000000000000815260040161115e906119fa565b60405180910390fd5b6000808373ffffffffffffffffffffffffffffffffffffffff1673ffffffffffffffffffffffffffffffffffffffff16815260200190815260200160002060008154809291906111b690611c24565b9190505550816001600083815260200190815260200160002060006101000a81548173ffffffffffffffffffffffffffffffffffffffff021916908373ffffffffffffffffffffffffffffffffffffffff160217905550808273ffffffffffffffffffffffffffffffffffffffff16600073ffffffffffffffffffffffffffffffffffffffff167fddf252ad1be2c89b69c2b068fc378daa952ba7f163c4a11628f55a4df523b3ef60405160405180910390a45050565b600061127882610b71565b9050600073ffffffffffffffffffffffffffffffffffffffff168173ffffffffffffffffffffffffffffffffffffffff1614156112ea576040517f08c379a00000000000000000000000000000000000000000000000000000000081526004016112e190611ada565b60405180910390fd5b6000808273ffffffffffffffffffffffffffffffffffffffff1673ffffffffffffffffffffffffffffffffffffffff168152602001908152602001600020600081548092919061133990611bfa565b91905055506003600083815260200190815260200160002060006101000a81549073ffffffffffffffffffffffffffffffffffffffff02191690556001600083815260200190815260200160002060006101000a81549073ffffffffffffffffffffffffffffffffffffffff02191690555050565b6000813590506113bd81611eeb565b92915050565b6000813590506113d281611f02565b92915050565b6000813590506113e781611f19565b92915050565b6000815190506113fc81611f19565b92915050565b60008083601f84011261141457600080fd5b8235905067ffffffffffffffff81111561142d57600080fd5b60208301915083600182028301111561144557600080fd5b9250929050565b60008135905061145b81611f30565b92915050565b60006020828403121561147357600080fd5b6000611481848285016113ae565b91505092915050565b6000806040838503121561149d57600080fd5b60006114ab858286016113ae565b92505060206114bc858286016113ae565b9150509250929050565b6000806000606084860312156114db57600080fd5b60006114e9868287016113ae565b93505060206114fa868287016113ae565b925050604061150b8682870161144c565b9150509250925092565b60008060008060006080868803121561152d57600080fd5b600061153b888289016113ae565b955050602061154c888289016113ae565b945050604061155d8882890161144c565b935050606086013567ffffffffffffffff81111561157a57600080fd5b61158688828901611402565b92509250509295509295909350565b600080604083850312156115a857600080fd5b60006115b6858286016113ae565b92505060206115c7858286016113c3565b9150509250929050565b600080604083850312156115e457600080fd5b60006115f2858286016113ae565b92505060206116038582860161144c565b9150509250929050565b60006020828403121561161f57600080fd5b600061162d848285016113d8565b91505092915050565b60006020828403121561164857600080fd5b6000611656848285016113ed565b91505092915050565b60006020828403121561167157600080fd5b600061167f8482850161144c565b91505092915050565b61169181611b77565b82525050565b6116a081611b89565b82525050565b60006116b28385611b55565b93506116bf838584611beb565b6116c883611c9c565b840190509392505050565b60006116e0601083611b66565b91506116eb82611cad565b602082019050919050565b6000611703600c83611b66565b915061170e82611cd6565b602082019050919050565b6000611726602783611b66565b915061173182611cff565b604082019050919050565b6000611749601183611b66565b915061175482611d4e565b602082019050919050565b600061176c601b83611b66565b915061177782611d77565b602082019050919050565b600061178f601383611b66565b915061179a82611da0565b602082019050919050565b60006117b2602083611b66565b91506117bd82611dc9565b602082019050919050565b60006117d5600e83611b66565b91506117e082611df2565b602082019050919050565b60006117f8601283611b66565b915061180382611e1b565b602082019050919050565b600061181b600083611b55565b915061182682611e44565b600082019050919050565b600061183e601683611b66565b915061184982611e47565b602082019050919050565b6000611861601083611b66565b915061186c82611e70565b602082019050919050565b6000611884600983611b66565b915061188f82611e99565b602082019050919050565b60006118a7600d83611b66565b91506118b282611ec2565b602082019050919050565b6118c681611be1565b82525050565b60006020820190506118e16000830184611688565b92915050565b60006080820190506118fc6000830188611688565b6119096020830187611688565b61191660408301866118bd565b81810360608301526119298184866116a6565b90509695505050505050565b600060808201905061194a6000830186611688565b6119576020830185611688565b61196460408301846118bd565b81810360608301526119758161180e565b9050949350505050565b60006020820190506119946000830184611697565b92915050565b600060208201905081810360008301526119b3816116d3565b9050919050565b600060208201905081810360008301526119d3816116f6565b9050919050565b600060208201905081810360008301526119f381611719565b9050919050565b60006020820190508181036000830152611a138161173c565b9050919050565b60006020820190508181036000830152611a338161175f565b9050919050565b60006020820190508181036000830152611a5381611782565b9050919050565b60006020820190508181036000830152611a73816117a5565b9050919050565b60006020820190508181036000830152611a93816117c8565b9050919050565b60006020820190508181036000830152611ab3816117eb565b9050919050565b60006020820190508181036000830152611ad381611831565b9050919050565b60006020820190508181036000830152611af381611854565b9050919050565b60006020820190508181036000830152611b1381611877565b9050919050565b60006020820190508181036000830152611b338161189a565b9050919050565b6000602082019050611b4f60008301846118bd565b92915050565b600082825260208201905092915050565b600082825260208201905092915050565b6000611b8282611bc1565b9050919050565b60008115159050919050565b60007fffffffff0000000000000000000000000000000000000000000000000000000082169050919050565b600073ffffffffffffffffffffffffffffffffffffffff82169050919050565b6000819050919050565b82818337600083830152505050565b6000611c0582611be1565b91506000821415611c1957611c18611c6d565b5b600182039050919050565b6000611c2f82611be1565b91507fffffffffffffffffffffffffffffffffffffffffffffffffffffffffffffffff821415611c6257611c61611c6d565b5b600182019050919050565b7f4e487b7100000000000000000000000000000000000000000000000000000000600052601160045260246000fd5b6000601f19601f8301169050919050565b7f756e7361666520726563697069656e7400000000000000000000000000000000600082015250565b7f746f6b656e4964207a65726f0000000000000000000000000000000000000000600082015250565b7f6f776e6572206f6620746f6b656e4964206e6f74206d617463682066726f6d4160008201527f6464726573732000000000000000000000000000000000000000000000000000602082015250565b7f746f203d207a65726f2061646472657373000000000000000000000000000000600082015250565b7f4552433732313a2061646472657373207a65726f206973206e6f740000000000600082015250565b7f61646472657373207a65726f206973206e6f7400000000000000000000000000600082015250565b7f61646472657373206f7220746f41646472657373207a65726f206973206e6f74600082015250565b7f6e6f7420617574686f72697a6564000000000000000000000000000000000000600082015250565b7f4552432c20616464726573732069732020300000000000000000000000000000600082015250565b50565b7f6f70657261746f72206164647265737320697320203000000000000000000000600082015250565b7f6164647265737320697320207a65726f00000000000000000000000000000000600082015250565b7f6e6f74206f776e65720000000000000000000000000000000000000000000000600082015250565b7f6e6f74206175746872697a656400000000000000000000000000000000000000600082015250565b611ef481611b77565b8114611eff57600080fd5b50565b611f0b81611b89565b8114611f1657600080fd5b50565b611f2281611b95565b8114611f2d57600080fd5b50565b611f3981611be1565b8114611f4457600080fd5b5056fea264697066735822122074004b8c94605661331aedbd8a6f498d74f277fcaa62852cc95dd91de06b1ad164736f6c63430008040033",
					"opcodes": "PUSH1 0x80 PUSH1 0x40 MSTORE CALLVALUE DUP1 ISZERO PUSH2 0x10 JUMPI PUSH1 0x0 DUP1 REVERT JUMPDEST POP PUSH2 0x1F7D DUP1 PUSH2 0x20 PUSH1 0x0 CODECOPY PUSH1 0x0 RETURN INVALID PUSH1 0x80 PUSH1 0x40 MSTORE CALLVALUE DUP1 ISZERO PUSH2 0x10 JUMPI PUSH1 0x0 DUP1 REVERT JUMPDEST POP PUSH1 0x4 CALLDATASIZE LT PUSH2 0xB4 JUMPI PUSH1 0x0 CALLDATALOAD PUSH1 0xE0 SHR DUP1 PUSH4 0x42966C68 GT PUSH2 0x71 JUMPI DUP1 PUSH4 0x42966C68 EQ PUSH2 0x189 JUMPI DUP1 PUSH4 0x6352211E EQ PUSH2 0x1A5 JUMPI DUP1 PUSH4 0x70A08231 EQ PUSH2 0x1D5 JUMPI DUP1 PUSH4 0xA22CB465 EQ PUSH2 0x205 JUMPI DUP1 PUSH4 0xB88D4FDE EQ PUSH2 0x221 JUMPI DUP1 PUSH4 0xE985E9C5 EQ PUSH2 0x23D JUMPI PUSH2 0xB4 JUMP JUMPDEST DUP1 PUSH4 0x1FFC9A7 EQ PUSH2 0xB9 JUMPI DUP1 PUSH4 0x81812FC EQ PUSH2 0xE9 JUMPI DUP1 PUSH4 0x95EA7B3 EQ PUSH2 0x119 JUMPI DUP1 PUSH4 0x23B872DD EQ PUSH2 0x135 JUMPI DUP1 PUSH4 0x40C10F19 EQ PUSH2 0x151 JUMPI DUP1 PUSH4 0x42842E0E EQ PUSH2 0x16D JUMPI JUMPDEST PUSH1 0x0 DUP1 REVERT JUMPDEST PUSH2 0xD3 PUSH1 0x4 DUP1 CALLDATASIZE SUB DUP2 ADD SWAP1 PUSH2 0xCE SWAP2 SWAP1 PUSH2 0x160D JUMP JUMPDEST PUSH2 0x26D JUMP JUMPDEST PUSH1 0x40 MLOAD PUSH2 0xE0 SWAP2 SWAP1 PUSH2 0x197F JUMP JUMPDEST PUSH1 0x40 MLOAD DUP1 SWAP2 SUB SWAP1 RETURN JUMPDEST PUSH2 0x103 PUSH1 0x4 DUP1 CALLDATASIZE SUB DUP2 ADD SWAP1 PUSH2 0xFE SWAP2 SWAP1 PUSH2 0x165F JUMP JUMPDEST PUSH2 0x33F JUMP JUMPDEST PUSH1 0x40 MLOAD PUSH2 0x110 SWAP2 SWAP1 PUSH2 0x18CC JUMP JUMPDEST PUSH1 0x40 MLOAD DUP1 SWAP2 SUB SWAP1 RETURN JUMPDEST PUSH2 0x133 PUSH1 0x4 DUP1 CALLDATASIZE SUB DUP2 ADD SWAP1 PUSH2 0x12E SWAP2 SWAP1 PUSH2 0x15D1 JUMP JUMPDEST PUSH2 0x41E JUMP JUMPDEST STOP JUMPDEST PUSH2 0x14F PUSH1 0x4 DUP1 CALLDATASIZE SUB DUP2 ADD SWAP1 PUSH2 0x14A SWAP2 SWAP1 PUSH2 0x14C6 JUMP JUMPDEST PUSH2 0x607 JUMP JUMPDEST STOP JUMPDEST PUSH2 0x16B PUSH1 0x4 DUP1 CALLDATASIZE SUB DUP2 ADD SWAP1 PUSH2 0x166 SWAP2 SWAP1 PUSH2 0x15D1 JUMP JUMPDEST PUSH2 0x96F JUMP JUMPDEST STOP JUMPDEST PUSH2 0x187 PUSH1 0x4 DUP1 CALLDATASIZE SUB DUP2 ADD SWAP1 PUSH2 0x182 SWAP2 SWAP1 PUSH2 0x14C6 JUMP JUMPDEST PUSH2 0x97D JUMP JUMPDEST STOP JUMPDEST PUSH2 0x1A3 PUSH1 0x4 DUP1 CALLDATASIZE SUB DUP2 ADD SWAP1 PUSH2 0x19E SWAP2 SWAP1 PUSH2 0x165F JUMP JUMPDEST PUSH2 0xAC4 JUMP JUMPDEST STOP JUMPDEST PUSH2 0x1BF PUSH1 0x4 DUP1 CALLDATASIZE SUB DUP2 ADD SWAP1 PUSH2 0x1BA SWAP2 SWAP1 PUSH2 0x165F JUMP JUMPDEST PUSH2 0xB71 JUMP JUMPDEST PUSH1 0x40 MLOAD PUSH2 0x1CC SWAP2 SWAP1 PUSH2 0x18CC JUMP JUMPDEST PUSH1 0x40 MLOAD DUP1 SWAP2 SUB SWAP1 RETURN JUMPDEST PUSH2 0x1EF PUSH1 0x4 DUP1 CALLDATASIZE SUB DUP2 ADD SWAP1 PUSH2 0x1EA SWAP2 SWAP1 PUSH2 0x1461 JUMP JUMPDEST PUSH2 0xC23 JUMP JUMPDEST PUSH1 0x40 MLOAD PUSH2 0x1FC SWAP2 SWAP1 PUSH2 0x1B3A JUMP JUMPDEST PUSH1 0x40 MLOAD DUP1 SWAP2 SUB SWAP1 RETURN JUMPDEST PUSH2 0x21F PUSH1 0x4 DUP1 CALLDATASIZE SUB DUP2 ADD SWAP1 PUSH2 0x21A SWAP2 SWAP1 PUSH2 0x1595 JUMP JUMPDEST PUSH2 0xCDA JUMP JUMPDEST STOP JUMPDEST PUSH2 0x23B PUSH1 0x4 DUP1 CALLDATASIZE SUB DUP2 ADD SWAP1 PUSH2 0x236 SWAP2 SWAP1 PUSH2 0x1515 JUMP JUMPDEST PUSH2 0xE47 JUMP JUMPDEST STOP JUMPDEST PUSH2 0x257 PUSH1 0x4 DUP1 CALLDATASIZE SUB DUP2 ADD SWAP1 PUSH2 0x252 SWAP2 SWAP1 PUSH2 0x148A JUMP JUMPDEST PUSH2 0xF94 JUMP JUMPDEST PUSH1 0x40 MLOAD PUSH2 0x264 SWAP2 SWAP1 PUSH2 0x197F JUMP JUMPDEST PUSH1 0x40 MLOAD DUP1 SWAP2 SUB SWAP1 RETURN JUMPDEST PUSH1 0x0 PUSH32 0x80AC58CD00000000000000000000000000000000000000000000000000000000 PUSH28 0xFFFFFFFFFFFFFFFFFFFFFFFFFFFFFFFFFFFFFFFFFFFFFFFFFFFFFFFF NOT AND DUP3 PUSH28 0xFFFFFFFFFFFFFFFFFFFFFFFFFFFFFFFFFFFFFFFFFFFFFFFFFFFFFFFF NOT AND EQ DUP1 PUSH2 0x338 JUMPI POP PUSH32 0x1FFC9A700000000000000000000000000000000000000000000000000000000 PUSH28 0xFFFFFFFFFFFFFFFFFFFFFFFFFFFFFFFFFFFFFFFFFFFFFFFFFFFFFFFF NOT AND DUP3 PUSH28 0xFFFFFFFFFFFFFFFFFFFFFFFFFFFFFFFFFFFFFFFFFFFFFFFFFFFFFFFF NOT AND EQ JUMPDEST SWAP1 POP SWAP2 SWAP1 POP JUMP JUMPDEST PUSH1 0x0 DUP1 PUSH20 0xFFFFFFFFFFFFFFFFFFFFFFFFFFFFFFFFFFFFFFFF AND PUSH1 0x1 PUSH1 0x0 DUP5 DUP2 MSTORE PUSH1 0x20 ADD SWAP1 DUP2 MSTORE PUSH1 0x20 ADD PUSH1 0x0 KECCAK256 PUSH1 0x0 SWAP1 SLOAD SWAP1 PUSH2 0x100 EXP SWAP1 DIV PUSH20 0xFFFFFFFFFFFFFFFFFFFFFFFFFFFFFFFFFFFFFFFF AND PUSH20 0xFFFFFFFFFFFFFFFFFFFFFFFFFFFFFFFFFFFFFFFF AND EQ ISZERO PUSH2 0x3E3 JUMPI PUSH1 0x40 MLOAD PUSH32 0x8C379A000000000000000000000000000000000000000000000000000000000 DUP2 MSTORE PUSH1 0x4 ADD PUSH2 0x3DA SWAP1 PUSH2 0x1A9A JUMP JUMPDEST PUSH1 0x40 MLOAD DUP1 SWAP2 SUB SWAP1 REVERT JUMPDEST PUSH1 0x3 PUSH1 0x0 DUP4 DUP2 MSTORE PUSH1 0x20 ADD SWAP1 DUP2 MSTORE PUSH1 0x20 ADD PUSH1 0x0 KECCAK256 PUSH1 0x0 SWAP1 SLOAD SWAP1 PUSH2 0x100 EXP SWAP1 DIV PUSH20 0xFFFFFFFFFFFFFFFFFFFFFFFFFFFFFFFFFFFFFFFF AND SWAP1 POP SWAP2 SWAP1 POP JUMP JUMPDEST PUSH1 0x0 PUSH1 0x1 PUSH1 0x0 DUP4 DUP2 MSTORE PUSH1 0x20 ADD SWAP1 DUP2 MSTORE PUSH1 0x20 ADD PUSH1 0x0 KECCAK256 PUSH1 0x0 SWAP1 SLOAD SWAP1 PUSH2 0x100 EXP SWAP1 DIV PUSH20 0xFFFFFFFFFFFFFFFFFFFFFFFFFFFFFFFFFFFFFFFF AND SWAP1 POP DUP1 PUSH20 0xFFFFFFFFFFFFFFFFFFFFFFFFFFFFFFFFFFFFFFFF AND CALLER PUSH20 0xFFFFFFFFFFFFFFFFFFFFFFFFFFFFFFFFFFFFFFFF AND EQ DUP1 PUSH2 0x516 JUMPI POP PUSH1 0x2 PUSH1 0x0 DUP3 PUSH20 0xFFFFFFFFFFFFFFFFFFFFFFFFFFFFFFFFFFFFFFFF AND PUSH20 0xFFFFFFFFFFFFFFFFFFFFFFFFFFFFFFFFFFFFFFFF AND DUP2 MSTORE PUSH1 0x20 ADD SWAP1 DUP2 MSTORE PUSH1 0x20 ADD PUSH1 0x0 KECCAK256 PUSH1 0x0 CALLER PUSH20 0xFFFFFFFFFFFFFFFFFFFFFFFFFFFFFFFFFFFFFFFF AND PUSH20 0xFFFFFFFFFFFFFFFFFFFFFFFFFFFFFFFFFFFFFFFF AND DUP2 MSTORE PUSH1 0x20 ADD SWAP1 DUP2 MSTORE PUSH1 0x20 ADD PUSH1 0x0 KECCAK256 PUSH1 0x0 SWAP1 SLOAD SWAP1 PUSH2 0x100 EXP SWAP1 DIV PUSH1 0xFF AND JUMPDEST PUSH2 0x555 JUMPI PUSH1 0x40 MLOAD PUSH32 0x8C379A000000000000000000000000000000000000000000000000000000000 DUP2 MSTORE PUSH1 0x4 ADD PUSH2 0x54C SWAP1 PUSH2 0x1A7A JUMP JUMPDEST PUSH1 0x40 MLOAD DUP1 SWAP2 SUB SWAP1 REVERT JUMPDEST DUP3 PUSH1 0x3 PUSH1 0x0 DUP5 DUP2 MSTORE PUSH1 0x20 ADD SWAP1 DUP2 MSTORE PUSH1 0x20 ADD PUSH1 0x0 KECCAK256 PUSH1 0x0 PUSH2 0x100 EXP DUP2 SLOAD DUP2 PUSH20 0xFFFFFFFFFFFFFFFFFFFFFFFFFFFFFFFFFFFFFFFF MUL NOT AND SWAP1 DUP4 PUSH20 0xFFFFFFFFFFFFFFFFFFFFFFFFFFFFFFFFFFFFFFFF AND MUL OR SWAP1 SSTORE POP DUP2 DUP4 PUSH20 0xFFFFFFFFFFFFFFFFFFFFFFFFFFFFFFFFFFFFFFFF AND DUP3 PUSH20 0xFFFFFFFFFFFFFFFFFFFFFFFFFFFFFFFFFFFFFFFF AND PUSH32 0x8C5BE1E5EBEC7D5BD14F71427D1E84F3DD0314C0F7B2291E5B200AC8C7C3B925 PUSH1 0x40 MLOAD PUSH1 0x40 MLOAD DUP1 SWAP2 SUB SWAP1 LOG4 POP POP POP JUMP JUMPDEST PUSH1 0x0 PUSH20 0xFFFFFFFFFFFFFFFFFFFFFFFFFFFFFFFFFFFFFFFF AND DUP4 PUSH20 0xFFFFFFFFFFFFFFFFFFFFFFFFFFFFFFFFFFFFFFFF AND EQ ISZERO DUP1 ISZERO PUSH2 0x671 JUMPI POP PUSH1 0x0 PUSH20 0xFFFFFFFFFFFFFFFFFFFFFFFFFFFFFFFFFFFFFFFF AND DUP3 PUSH20 0xFFFFFFFFFFFFFFFFFFFFFFFFFFFFFFFFFFFFFFFF AND EQ ISZERO JUMPDEST PUSH2 0x6B0 JUMPI PUSH1 0x40 MLOAD PUSH32 0x8C379A000000000000000000000000000000000000000000000000000000000 DUP2 MSTORE PUSH1 0x4 ADD PUSH2 0x6A7 SWAP1 PUSH2 0x1A5A JUMP JUMPDEST PUSH1 0x40 MLOAD DUP1 SWAP2 SUB SWAP1 REVERT JUMPDEST PUSH1 0x0 DUP2 EQ ISZERO PUSH2 0x6F4 JUMPI PUSH1 0x40 MLOAD PUSH32 0x8C379A000000000000000000000000000000000000000000000000000000000 DUP2 MSTORE PUSH1 0x4 ADD PUSH2 0x6EB SWAP1 PUSH2 0x19BA JUMP JUMPDEST PUSH1 0x40 MLOAD DUP1 SWAP2 SUB SWAP1 REVERT JUMPDEST PUSH1 0x1 PUSH1 0x0 DUP3 DUP2 MSTORE PUSH1 0x20 ADD SWAP1 DUP2 MSTORE PUSH1 0x20 ADD PUSH1 0x0 KECCAK256 PUSH1 0x0 SWAP1 SLOAD SWAP1 PUSH2 0x100 EXP SWAP1 DIV PUSH20 0xFFFFFFFFFFFFFFFFFFFFFFFFFFFFFFFFFFFFFFFF AND PUSH20 0xFFFFFFFFFFFFFFFFFFFFFFFFFFFFFFFFFFFFFFFF AND DUP4 PUSH20 0xFFFFFFFFFFFFFFFFFFFFFFFFFFFFFFFFFFFFFFFF AND EQ PUSH2 0x795 JUMPI PUSH1 0x40 MLOAD PUSH32 0x8C379A000000000000000000000000000000000000000000000000000000000 DUP2 MSTORE PUSH1 0x4 ADD PUSH2 0x78C SWAP1 PUSH2 0x19DA JUMP JUMPDEST PUSH1 0x40 MLOAD DUP1 SWAP2 SUB SWAP1 REVERT JUMPDEST PUSH2 0x7A0 DUP4 CALLER DUP4 PUSH2 0xFC3 JUMP JUMPDEST PUSH2 0x7DF JUMPI PUSH1 0x40 MLOAD PUSH32 0x8C379A000000000000000000000000000000000000000000000000000000000 DUP2 MSTORE PUSH1 0x4 ADD PUSH2 0x7D6 SWAP1 PUSH2 0x1B1A JUMP JUMPDEST PUSH1 0x40 MLOAD DUP1 SWAP2 SUB SWAP1 REVERT JUMPDEST PUSH1 0x0 DUP1 DUP5 PUSH20 0xFFFFFFFFFFFFFFFFFFFFFFFFFFFFFFFFFFFFFFFF AND PUSH20 0xFFFFFFFFFFFFFFFFFFFFFFFFFFFFFFFFFFFFFFFF AND DUP2 MSTORE PUSH1 0x20 ADD SWAP1 DUP2 MSTORE PUSH1 0x20 ADD PUSH1 0x0 KECCAK256 PUSH1 0x0 DUP2 SLOAD DUP1 SWAP3 SWAP2 SWAP1 PUSH2 0x82E SWAP1 PUSH2 0x1BFA JUMP JUMPDEST SWAP2 SWAP1 POP SSTORE POP PUSH1 0x0 DUP1 DUP4 PUSH20 0xFFFFFFFFFFFFFFFFFFFFFFFFFFFFFFFFFFFFFFFF AND PUSH20 0xFFFFFFFFFFFFFFFFFFFFFFFFFFFFFFFFFFFFFFFF AND DUP2 MSTORE PUSH1 0x20 ADD SWAP1 DUP2 MSTORE PUSH1 0x20 ADD PUSH1 0x0 KECCAK256 PUSH1 0x0 DUP2 SLOAD DUP1 SWAP3 SWAP2 SWAP1 PUSH2 0x882 SWAP1 PUSH2 0x1C24 JUMP JUMPDEST SWAP2 SWAP1 POP SSTORE POP DUP2 PUSH1 0x1 PUSH1 0x0 DUP4 DUP2 MSTORE PUSH1 0x20 ADD SWAP1 DUP2 MSTORE PUSH1 0x20 ADD PUSH1 0x0 KECCAK256 PUSH1 0x0 PUSH2 0x100 EXP DUP2 SLOAD DUP2 PUSH20 0xFFFFFFFFFFFFFFFFFFFFFFFFFFFFFFFFFFFFFFFF MUL NOT AND SWAP1 DUP4 PUSH20 0xFFFFFFFFFFFFFFFFFFFFFFFFFFFFFFFFFFFFFFFF AND MUL OR SWAP1 SSTORE POP PUSH1 0x3 PUSH1 0x0 DUP3 DUP2 MSTORE PUSH1 0x20 ADD SWAP1 DUP2 MSTORE PUSH1 0x20 ADD PUSH1 0x0 KECCAK256 PUSH1 0x0 PUSH2 0x100 EXP DUP2 SLOAD SWAP1 PUSH20 0xFFFFFFFFFFFFFFFFFFFFFFFFFFFFFFFFFFFFFFFF MUL NOT AND SWAP1 SSTORE DUP1 DUP3 PUSH20 0xFFFFFFFFFFFFFFFFFFFFFFFFFFFFFFFFFFFFFFFF AND DUP5 PUSH20 0xFFFFFFFFFFFFFFFFFFFFFFFFFFFFFFFFFFFFFFFF AND PUSH32 0xDDF252AD1BE2C89B69C2B068FC378DAA952BA7F163C4A11628F55A4DF523B3EF PUSH1 0x40 MLOAD PUSH1 0x40 MLOAD DUP1 SWAP2 SUB SWAP1 LOG4 POP POP POP JUMP JUMPDEST PUSH2 0x979 DUP3 DUP3 PUSH2 0x10F7 JUMP JUMPDEST POP POP JUMP JUMPDEST PUSH2 0x988 DUP4 DUP4 DUP4 PUSH2 0x607 JUMP JUMPDEST PUSH1 0x0 DUP3 PUSH20 0xFFFFFFFFFFFFFFFFFFFFFFFFFFFFFFFFFFFFFFFF AND EXTCODESIZE EQ DUP1 PUSH2 0xA80 JUMPI POP PUSH4 0x150B7A02 PUSH1 0xE0 SHL PUSH28 0xFFFFFFFFFFFFFFFFFFFFFFFFFFFFFFFFFFFFFFFFFFFFFFFFFFFFFFFF NOT AND DUP3 PUSH20 0xFFFFFFFFFFFFFFFFFFFFFFFFFFFFFFFFFFFFFFFF AND PUSH4 0x150B7A02 CALLER DUP7 DUP6 PUSH1 0x40 MLOAD DUP5 PUSH4 0xFFFFFFFF AND PUSH1 0xE0 SHL DUP2 MSTORE PUSH1 0x4 ADD PUSH2 0xA0D SWAP4 SWAP3 SWAP2 SWAP1 PUSH2 0x1935 JUMP JUMPDEST PUSH1 0x20 PUSH1 0x40 MLOAD DUP1 DUP4 SUB DUP2 PUSH1 0x0 DUP8 DUP1 EXTCODESIZE ISZERO DUP1 ISZERO PUSH2 0xA27 JUMPI PUSH1 0x0 DUP1 REVERT JUMPDEST POP GAS CALL ISZERO DUP1 ISZERO PUSH2 0xA3B JUMPI RETURNDATASIZE PUSH1 0x0 DUP1 RETURNDATACOPY RETURNDATASIZE PUSH1 0x0 REVERT JUMPDEST POP POP POP POP PUSH1 0x40 MLOAD RETURNDATASIZE PUSH1 0x1F NOT PUSH1 0x1F DUP3 ADD AND DUP3 ADD DUP1 PUSH1 0x40 MSTORE POP DUP2 ADD SWAP1 PUSH2 0xA5F SWAP2 SWAP1 PUSH2 0x1636 JUMP JUMPDEST PUSH28 0xFFFFFFFFFFFFFFFFFFFFFFFFFFFFFFFFFFFFFFFFFFFFFFFFFFFFFFFF NOT AND EQ JUMPDEST PUSH2 0xABF JUMPI PUSH1 0x40 MLOAD PUSH32 0x8C379A000000000000000000000000000000000000000000000000000000000 DUP2 MSTORE PUSH1 0x4 ADD PUSH2 0xAB6 SWAP1 PUSH2 0x199A JUMP JUMPDEST PUSH1 0x40 MLOAD DUP1 SWAP2 SUB SWAP1 REVERT JUMPDEST POP POP POP JUMP JUMPDEST PUSH1 0x1 PUSH1 0x0 DUP3 DUP2 MSTORE PUSH1 0x20 ADD SWAP1 DUP2 MSTORE PUSH1 0x20 ADD PUSH1 0x0 KECCAK256 PUSH1 0x0 SWAP1 SLOAD SWAP1 PUSH2 0x100 EXP SWAP1 DIV PUSH20 0xFFFFFFFFFFFFFFFFFFFFFFFFFFFFFFFFFFFFFFFF AND PUSH20 0xFFFFFFFFFFFFFFFFFFFFFFFFFFFFFFFFFFFFFFFF AND CALLER PUSH20 0xFFFFFFFFFFFFFFFFFFFFFFFFFFFFFFFFFFFFFFFF AND EQ PUSH2 0xB65 JUMPI PUSH1 0x40 MLOAD PUSH32 0x8C379A000000000000000000000000000000000000000000000000000000000 DUP2 MSTORE PUSH1 0x4 ADD PUSH2 0xB5C SWAP1 PUSH2 0x1AFA JUMP JUMPDEST PUSH1 0x40 MLOAD DUP1 SWAP2 SUB SWAP1 REVERT JUMPDEST PUSH2 0xB6E DUP2 PUSH2 0x126D JUMP JUMPDEST POP JUMP JUMPDEST PUSH1 0x0 DUP1 PUSH1 0x1 PUSH1 0x0 DUP5 DUP2 MSTORE PUSH1 0x20 ADD SWAP1 DUP2 MSTORE PUSH1 0x20 ADD PUSH1 0x0 KECCAK256 PUSH1 0x0 SWAP1 SLOAD SWAP1 PUSH2 0x100 EXP SWAP1 DIV PUSH20 0xFFFFFFFFFFFFFFFFFFFFFFFFFFFFFFFFFFFFFFFF AND SWAP1 POP PUSH1 0x0 PUSH20 0xFFFFFFFFFFFFFFFFFFFFFFFFFFFFFFFFFFFFFFFF AND DUP2 PUSH20 0xFFFFFFFFFFFFFFFFFFFFFFFFFFFFFFFFFFFFFFFF AND EQ ISZERO PUSH2 0xC1A JUMPI PUSH1 0x40 MLOAD PUSH32 0x8C379A000000000000000000000000000000000000000000000000000000000 DUP2 MSTORE PUSH1 0x4 ADD PUSH2 0xC11 SWAP1 PUSH2 0x1A3A JUMP JUMPDEST PUSH1 0x40 MLOAD DUP1 SWAP2 SUB SWAP1 REVERT JUMPDEST DUP1 SWAP2 POP POP SWAP2 SWAP1 POP JUMP JUMPDEST PUSH1 0x0 DUP1 PUSH20 0xFFFFFFFFFFFFFFFFFFFFFFFFFFFFFFFFFFFFFFFF AND DUP3 PUSH20 0xFFFFFFFFFFFFFFFFFFFFFFFFFFFFFFFFFFFFFFFF AND EQ ISZERO PUSH2 0xC94 JUMPI PUSH1 0x40 MLOAD PUSH32 0x8C379A000000000000000000000000000000000000000000000000000000000 DUP2 MSTORE PUSH1 0x4 ADD PUSH2 0xC8B SWAP1 PUSH2 0x1A1A JUMP JUMPDEST PUSH1 0x40 MLOAD DUP1 SWAP2 SUB SWAP1 REVERT JUMPDEST PUSH1 0x0 DUP1 DUP4 PUSH20 0xFFFFFFFFFFFFFFFFFFFFFFFFFFFFFFFFFFFFFFFF AND PUSH20 0xFFFFFFFFFFFFFFFFFFFFFFFFFFFFFFFFFFFFFFFF AND DUP2 MSTORE PUSH1 0x20 ADD SWAP1 DUP2 MSTORE PUSH1 0x20 ADD PUSH1 0x0 KECCAK256 SLOAD SWAP1 POP SWAP2 SWAP1 POP JUMP JUMPDEST PUSH1 0x0 PUSH20 0xFFFFFFFFFFFFFFFFFFFFFFFFFFFFFFFFFFFFFFFF AND DUP3 PUSH20 0xFFFFFFFFFFFFFFFFFFFFFFFFFFFFFFFFFFFFFFFF AND EQ ISZERO PUSH2 0xD4A JUMPI PUSH1 0x40 MLOAD PUSH32 0x8C379A000000000000000000000000000000000000000000000000000000000 DUP2 MSTORE PUSH1 0x4 ADD PUSH2 0xD41 SWAP1 PUSH2 0x1ABA JUMP JUMPDEST PUSH1 0x40 MLOAD DUP1 SWAP2 SUB SWAP1 REVERT JUMPDEST DUP1 PUSH1 0x2 PUSH1 0x0 CALLER PUSH20 0xFFFFFFFFFFFFFFFFFFFFFFFFFFFFFFFFFFFFFFFF AND PUSH20 0xFFFFFFFFFFFFFFFFFFFFFFFFFFFFFFFFFFFFFFFF AND DUP2 MSTORE PUSH1 0x20 ADD SWAP1 DUP2 MSTORE PUSH1 0x20 ADD PUSH1 0x0 KECCAK256 PUSH1 0x0 DUP5 PUSH20 0xFFFFFFFFFFFFFFFFFFFFFFFFFFFFFFFFFFFFFFFF AND PUSH20 0xFFFFFFFFFFFFFFFFFFFFFFFFFFFFFFFFFFFFFFFF AND DUP2 MSTORE PUSH1 0x20 ADD SWAP1 DUP2 MSTORE PUSH1 0x20 ADD PUSH1 0x0 KECCAK256 PUSH1 0x0 PUSH2 0x100 EXP DUP2 SLOAD DUP2 PUSH1 0xFF MUL NOT AND SWAP1 DUP4 ISZERO ISZERO MUL OR SWAP1 SSTORE POP DUP2 PUSH20 0xFFFFFFFFFFFFFFFFFFFFFFFFFFFFFFFFFFFFFFFF AND CALLER PUSH20 0xFFFFFFFFFFFFFFFFFFFFFFFFFFFFFFFFFFFFFFFF AND PUSH32 0x17307EAB39AB6107E8899845AD3D59BD9653F200F220920489CA2B5937696C31 DUP4 PUSH1 0x40 MLOAD PUSH2 0xE3B SWAP2 SWAP1 PUSH2 0x197F JUMP JUMPDEST PUSH1 0x40 MLOAD DUP1 SWAP2 SUB SWAP1 LOG3 POP POP JUMP JUMPDEST PUSH2 0xE52 DUP6 DUP6 DUP6 PUSH2 0x607 JUMP JUMPDEST PUSH1 0x0 DUP5 PUSH20 0xFFFFFFFFFFFFFFFFFFFFFFFFFFFFFFFFFFFFFFFF AND EXTCODESIZE EQ DUP1 PUSH2 0xF4E JUMPI POP PUSH4 0x150B7A02 PUSH1 0xE0 SHL PUSH28 0xFFFFFFFFFFFFFFFFFFFFFFFFFFFFFFFFFFFFFFFFFFFFFFFFFFFFFFFF NOT AND DUP5 PUSH20 0xFFFFFFFFFFFFFFFFFFFFFFFFFFFFFFFFFFFFFFFF AND PUSH4 0x150B7A02 CALLER DUP9 DUP8 DUP8 DUP8 PUSH1 0x40 MLOAD DUP7 PUSH4 0xFFFFFFFF AND PUSH1 0xE0 SHL DUP2 MSTORE PUSH1 0x4 ADD PUSH2 0xEDB SWAP6 SWAP5 SWAP4 SWAP3 SWAP2 SWAP1 PUSH2 0x18E7 JUMP JUMPDEST PUSH1 0x20 PUSH1 0x40 MLOAD DUP1 DUP4 SUB DUP2 PUSH1 0x0 DUP8 DUP1 EXTCODESIZE ISZERO DUP1 ISZERO PUSH2 0xEF5 JUMPI PUSH1 0x0 DUP1 REVERT JUMPDEST POP GAS CALL ISZERO DUP1 ISZERO PUSH2 0xF09 JUMPI RETURNDATASIZE PUSH1 0x0 DUP1 RETURNDATACOPY RETURNDATASIZE PUSH1 0x0 REVERT JUMPDEST POP POP POP POP PUSH1 0x40 MLOAD RETURNDATASIZE PUSH1 0x1F NOT PUSH1 0x1F DUP3 ADD AND DUP3 ADD DUP1 PUSH1 0x40 MSTORE POP DUP2 ADD SWAP1 PUSH2 0xF2D SWAP2 SWAP1 PUSH2 0x1636 JUMP JUMPDEST PUSH28 0xFFFFFFFFFFFFFFFFFFFFFFFFFFFFFFFFFFFFFFFFFFFFFFFFFFFFFFFF NOT AND EQ JUMPDEST PUSH2 0xF8D JUMPI PUSH1 0x40 MLOAD PUSH32 0x8C379A000000000000000000000000000000000000000000000000000000000 DUP2 MSTORE PUSH1 0x4 ADD PUSH2 0xF84 SWAP1 PUSH2 0x199A JUMP JUMPDEST PUSH1 0x40 MLOAD DUP1 SWAP2 SUB SWAP1 REVERT JUMPDEST POP POP POP POP POP JUMP JUMPDEST PUSH1 0x2 PUSH1 0x20 MSTORE DUP2 PUSH1 0x0 MSTORE PUSH1 0x40 PUSH1 0x0 KECCAK256 PUSH1 0x20 MSTORE DUP1 PUSH1 0x0 MSTORE PUSH1 0x40 PUSH1 0x0 KECCAK256 PUSH1 0x0 SWAP2 POP SWAP2 POP SWAP1 SLOAD SWAP1 PUSH2 0x100 EXP SWAP1 DIV PUSH1 0xFF AND DUP2 JUMP JUMPDEST PUSH1 0x0 DUP3 PUSH20 0xFFFFFFFFFFFFFFFFFFFFFFFFFFFFFFFFFFFFFFFF AND DUP5 PUSH20 0xFFFFFFFFFFFFFFFFFFFFFFFFFFFFFFFFFFFFFFFF AND EQ DUP1 PUSH2 0x105D JUMPI POP DUP3 PUSH20 0xFFFFFFFFFFFFFFFFFFFFFFFFFFFFFFFFFFFFFFFF AND PUSH1 0x3 PUSH1 0x0 DUP5 DUP2 MSTORE PUSH1 0x20 ADD SWAP1 DUP2 MSTORE PUSH1 0x20 ADD PUSH1 0x0 KECCAK256 PUSH1 0x0 SWAP1 SLOAD SWAP1 PUSH2 0x100 EXP SWAP1 DIV PUSH20 0xFFFFFFFFFFFFFFFFFFFFFFFFFFFFFFFFFFFFFFFF AND PUSH20 0xFFFFFFFFFFFFFFFFFFFFFFFFFFFFFFFFFFFFFFFF AND EQ JUMPDEST DUP1 PUSH2 0x10EE JUMPI POP PUSH1 0x2 PUSH1 0x0 DUP6 PUSH20 0xFFFFFFFFFFFFFFFFFFFFFFFFFFFFFFFFFFFFFFFF AND PUSH20 0xFFFFFFFFFFFFFFFFFFFFFFFFFFFFFFFFFFFFFFFF AND DUP2 MSTORE PUSH1 0x20 ADD SWAP1 DUP2 MSTORE PUSH1 0x20 ADD PUSH1 0x0 KECCAK256 PUSH1 0x0 DUP5 PUSH20 0xFFFFFFFFFFFFFFFFFFFFFFFFFFFFFFFFFFFFFFFF AND PUSH20 0xFFFFFFFFFFFFFFFFFFFFFFFFFFFFFFFFFFFFFFFF AND DUP2 MSTORE PUSH1 0x20 ADD SWAP1 DUP2 MSTORE PUSH1 0x20 ADD PUSH1 0x0 KECCAK256 PUSH1 0x0 SWAP1 SLOAD SWAP1 PUSH2 0x100 EXP SWAP1 DIV PUSH1 0xFF AND JUMPDEST SWAP1 POP SWAP4 SWAP3 POP POP POP JUMP JUMPDEST PUSH1 0x0 PUSH20 0xFFFFFFFFFFFFFFFFFFFFFFFFFFFFFFFFFFFFFFFF AND DUP3 PUSH20 0xFFFFFFFFFFFFFFFFFFFFFFFFFFFFFFFFFFFFFFFF AND EQ ISZERO PUSH2 0x1167 JUMPI PUSH1 0x40 MLOAD PUSH32 0x8C379A000000000000000000000000000000000000000000000000000000000 DUP2 MSTORE PUSH1 0x4 ADD PUSH2 0x115E SWAP1 PUSH2 0x19FA JUMP JUMPDEST PUSH1 0x40 MLOAD DUP1 SWAP2 SUB SWAP1 REVERT JUMPDEST PUSH1 0x0 DUP1 DUP4 PUSH20 0xFFFFFFFFFFFFFFFFFFFFFFFFFFFFFFFFFFFFFFFF AND PUSH20 0xFFFFFFFFFFFFFFFFFFFFFFFFFFFFFFFFFFFFFFFF AND DUP2 MSTORE PUSH1 0x20 ADD SWAP1 DUP2 MSTORE PUSH1 0x20 ADD PUSH1 0x0 KECCAK256 PUSH1 0x0 DUP2 SLOAD DUP1 SWAP3 SWAP2 SWAP1 PUSH2 0x11B6 SWAP1 PUSH2 0x1C24 JUMP JUMPDEST SWAP2 SWAP1 POP SSTORE POP DUP2 PUSH1 0x1 PUSH1 0x0 DUP4 DUP2 MSTORE PUSH1 0x20 ADD SWAP1 DUP2 MSTORE PUSH1 0x20 ADD PUSH1 0x0 KECCAK256 PUSH1 0x0 PUSH2 0x100 EXP DUP2 SLOAD DUP2 PUSH20 0xFFFFFFFFFFFFFFFFFFFFFFFFFFFFFFFFFFFFFFFF MUL NOT AND SWAP1 DUP4 PUSH20 0xFFFFFFFFFFFFFFFFFFFFFFFFFFFFFFFFFFFFFFFF AND MUL OR SWAP1 SSTORE POP DUP1 DUP3 PUSH20 0xFFFFFFFFFFFFFFFFFFFFFFFFFFFFFFFFFFFFFFFF AND PUSH1 0x0 PUSH20 0xFFFFFFFFFFFFFFFFFFFFFFFFFFFFFFFFFFFFFFFF AND PUSH32 0xDDF252AD1BE2C89B69C2B068FC378DAA952BA7F163C4A11628F55A4DF523B3EF PUSH1 0x40 MLOAD PUSH1 0x40 MLOAD DUP1 SWAP2 SUB SWAP1 LOG4 POP POP JUMP JUMPDEST PUSH1 0x0 PUSH2 0x1278 DUP3 PUSH2 0xB71 JUMP JUMPDEST SWAP1 POP PUSH1 0x0 PUSH20 0xFFFFFFFFFFFFFFFFFFFFFFFFFFFFFFFFFFFFFFFF AND DUP2 PUSH20 0xFFFFFFFFFFFFFFFFFFFFFFFFFFFFFFFFFFFFFFFF AND EQ ISZERO PUSH2 0x12EA JUMPI PUSH1 0x40 MLOAD PUSH32 0x8C379A000000000000000000000000000000000000000000000000000000000 DUP2 MSTORE PUSH1 0x4 ADD PUSH2 0x12E1 SWAP1 PUSH2 0x1ADA JUMP JUMPDEST PUSH1 0x40 MLOAD DUP1 SWAP2 SUB SWAP1 REVERT JUMPDEST PUSH1 0x0 DUP1 DUP3 PUSH20 0xFFFFFFFFFFFFFFFFFFFFFFFFFFFFFFFFFFFFFFFF AND PUSH20 0xFFFFFFFFFFFFFFFFFFFFFFFFFFFFFFFFFFFFFFFF AND DUP2 MSTORE PUSH1 0x20 ADD SWAP1 DUP2 MSTORE PUSH1 0x20 ADD PUSH1 0x0 KECCAK256 PUSH1 0x0 DUP2 SLOAD DUP1 SWAP3 SWAP2 SWAP1 PUSH2 0x1339 SWAP1 PUSH2 0x1BFA JUMP JUMPDEST SWAP2 SWAP1 POP SSTORE POP PUSH1 0x3 PUSH1 0x0 DUP4 DUP2 MSTORE PUSH1 0x20 ADD SWAP1 DUP2 MSTORE PUSH1 0x20 ADD PUSH1 0x0 KECCAK256 PUSH1 0x0 PUSH2 0x100 EXP DUP2 SLOAD SWAP1 PUSH20 0xFFFFFFFFFFFFFFFFFFFFFFFFFFFFFFFFFFFFFFFF MUL NOT AND SWAP1 SSTORE PUSH1 0x1 PUSH1 0x0 DUP4 DUP2 MSTORE PUSH1 0x20 ADD SWAP1 DUP2 MSTORE PUSH1 0x20 ADD PUSH1 0x0 KECCAK256 PUSH1 0x0 PUSH2 0x100 EXP DUP2 SLOAD SWAP1 PUSH20 0xFFFFFFFFFFFFFFFFFFFFFFFFFFFFFFFFFFFFFFFF MUL NOT AND SWAP1 SSTORE POP POP JUMP JUMPDEST PUSH1 0x0 DUP2 CALLDATALOAD SWAP1 POP PUSH2 0x13BD DUP2 PUSH2 0x1EEB JUMP JUMPDEST SWAP3 SWAP2 POP POP JUMP JUMPDEST PUSH1 0x0 DUP2 CALLDATALOAD SWAP1 POP PUSH2 0x13D2 DUP2 PUSH2 0x1F02 JUMP JUMPDEST SWAP3 SWAP2 POP POP JUMP JUMPDEST PUSH1 0x0 DUP2 CALLDATALOAD SWAP1 POP PUSH2 0x13E7 DUP2 PUSH2 0x1F19 JUMP JUMPDEST SWAP3 SWAP2 POP POP JUMP JUMPDEST PUSH1 0x0 DUP2 MLOAD SWAP1 POP PUSH2 0x13FC DUP2 PUSH2 0x1F19 JUMP JUMPDEST SWAP3 SWAP2 POP POP JUMP JUMPDEST PUSH1 0x0 DUP1 DUP4 PUSH1 0x1F DUP5 ADD SLT PUSH2 0x1414 JUMPI PUSH1 0x0 DUP1 REVERT JUMPDEST DUP3 CALLDATALOAD SWAP1 POP PUSH8 0xFFFFFFFFFFFFFFFF DUP2 GT ISZERO PUSH2 0x142D JUMPI PUSH1 0x0 DUP1 REVERT JUMPDEST PUSH1 0x20 DUP4 ADD SWAP2 POP DUP4 PUSH1 0x1 DUP3 MUL DUP4 ADD GT ISZERO PUSH2 0x1445 JUMPI PUSH1 0x0 DUP1 REVERT JUMPDEST SWAP3 POP SWAP3 SWAP1 POP JUMP JUMPDEST PUSH1 0x0 DUP2 CALLDATALOAD SWAP1 POP PUSH2 0x145B DUP2 PUSH2 0x1F30 JUMP JUMPDEST SWAP3 SWAP2 POP POP JUMP JUMPDEST PUSH1 0x0 PUSH1 0x20 DUP3 DUP5 SUB SLT ISZERO PUSH2 0x1473 JUMPI PUSH1 0x0 DUP1 REVERT JUMPDEST PUSH1 0x0 PUSH2 0x1481 DUP5 DUP3 DUP6 ADD PUSH2 0x13AE JUMP JUMPDEST SWAP2 POP POP SWAP3 SWAP2 POP POP JUMP JUMPDEST PUSH1 0x0 DUP1 PUSH1 0x40 DUP4 DUP6 SUB SLT ISZERO PUSH2 0x149D JUMPI PUSH1 0x0 DUP1 REVERT JUMPDEST PUSH1 0x0 PUSH2 0x14AB DUP6 DUP3 DUP7 ADD PUSH2 0x13AE JUMP JUMPDEST SWAP3 POP POP PUSH1 0x20 PUSH2 0x14BC DUP6 DUP3 DUP7 ADD PUSH2 0x13AE JUMP JUMPDEST SWAP2 POP POP SWAP3 POP SWAP3 SWAP1 POP JUMP JUMPDEST PUSH1 0x0 DUP1 PUSH1 0x0 PUSH1 0x60 DUP5 DUP7 SUB SLT ISZERO PUSH2 0x14DB JUMPI PUSH1 0x0 DUP1 REVERT JUMPDEST PUSH1 0x0 PUSH2 0x14E9 DUP7 DUP3 DUP8 ADD PUSH2 0x13AE JUMP JUMPDEST SWAP4 POP POP PUSH1 0x20 PUSH2 0x14FA DUP7 DUP3 DUP8 ADD PUSH2 0x13AE JUMP JUMPDEST SWAP3 POP POP PUSH1 0x40 PUSH2 0x150B DUP7 DUP3 DUP8 ADD PUSH2 0x144C JUMP JUMPDEST SWAP2 POP POP SWAP3 POP SWAP3 POP SWAP3 JUMP JUMPDEST PUSH1 0x0 DUP1 PUSH1 0x0 DUP1 PUSH1 0x0 PUSH1 0x80 DUP7 DUP9 SUB SLT ISZERO PUSH2 0x152D JUMPI PUSH1 0x0 DUP1 REVERT JUMPDEST PUSH1 0x0 PUSH2 0x153B DUP9 DUP3 DUP10 ADD PUSH2 0x13AE JUMP JUMPDEST SWAP6 POP POP PUSH1 0x20 PUSH2 0x154C DUP9 DUP3 DUP10 ADD PUSH2 0x13AE JUMP JUMPDEST SWAP5 POP POP PUSH1 0x40 PUSH2 0x155D DUP9 DUP3 DUP10 ADD PUSH2 0x144C JUMP JUMPDEST SWAP4 POP POP PUSH1 0x60 DUP7 ADD CALLDATALOAD PUSH8 0xFFFFFFFFFFFFFFFF DUP2 GT ISZERO PUSH2 0x157A JUMPI PUSH1 0x0 DUP1 REVERT JUMPDEST PUSH2 0x1586 DUP9 DUP3 DUP10 ADD PUSH2 0x1402 JUMP JUMPDEST SWAP3 POP SWAP3 POP POP SWAP3 SWAP6 POP SWAP3 SWAP6 SWAP1 SWAP4 POP JUMP JUMPDEST PUSH1 0x0 DUP1 PUSH1 0x40 DUP4 DUP6 SUB SLT ISZERO PUSH2 0x15A8 JUMPI PUSH1 0x0 DUP1 REVERT JUMPDEST PUSH1 0x0 PUSH2 0x15B6 DUP6 DUP3 DUP7 ADD PUSH2 0x13AE JUMP JUMPDEST SWAP3 POP POP PUSH1 0x20 PUSH2 0x15C7 DUP6 DUP3 DUP7 ADD PUSH2 0x13C3 JUMP JUMPDEST SWAP2 POP POP SWAP3 POP SWAP3 SWAP1 POP JUMP JUMPDEST PUSH1 0x0 DUP1 PUSH1 0x40 DUP4 DUP6 SUB SLT ISZERO PUSH2 0x15E4 JUMPI PUSH1 0x0 DUP1 REVERT JUMPDEST PUSH1 0x0 PUSH2 0x15F2 DUP6 DUP3 DUP7 ADD PUSH2 0x13AE JUMP JUMPDEST SWAP3 POP POP PUSH1 0x20 PUSH2 0x1603 DUP6 DUP3 DUP7 ADD PUSH2 0x144C JUMP JUMPDEST SWAP2 POP POP SWAP3 POP SWAP3 SWAP1 POP JUMP JUMPDEST PUSH1 0x0 PUSH1 0x20 DUP3 DUP5 SUB SLT ISZERO PUSH2 0x161F JUMPI PUSH1 0x0 DUP1 REVERT JUMPDEST PUSH1 0x0 PUSH2 0x162D DUP5 DUP3 DUP6 ADD PUSH2 0x13D8 JUMP JUMPDEST SWAP2 POP POP SWAP3 SWAP2 POP POP JUMP JUMPDEST PUSH1 0x0 PUSH1 0x20 DUP3 DUP5 SUB SLT ISZERO PUSH2 0x1648 JUMPI PUSH1 0x0 DUP1 REVERT JUMPDEST PUSH1 0x0 PUSH2 0x1656 DUP5 DUP3 DUP6 ADD PUSH2 0x13ED JUMP JUMPDEST SWAP2 POP POP SWAP3 SWAP2 POP POP JUMP JUMPDEST PUSH1 0x0 PUSH1 0x20 DUP3 DUP5 SUB SLT ISZERO PUSH2 0x1671 JUMPI PUSH1 0x0 DUP1 REVERT JUMPDEST PUSH1 0x0 PUSH2 0x167F DUP5 DUP3 DUP6 ADD PUSH2 0x144C JUMP JUMPDEST SWAP2 POP POP SWAP3 SWAP2 POP POP JUMP JUMPDEST PUSH2 0x1691 DUP2 PUSH2 0x1B77 JUMP JUMPDEST DUP3 MSTORE POP POP JUMP JUMPDEST PUSH2 0x16A0 DUP2 PUSH2 0x1B89 JUMP JUMPDEST DUP3 MSTORE POP POP JUMP JUMPDEST PUSH1 0x0 PUSH2 0x16B2 DUP4 DUP6 PUSH2 0x1B55 JUMP JUMPDEST SWAP4 POP PUSH2 0x16BF DUP4 DUP6 DUP5 PUSH2 0x1BEB JUMP JUMPDEST PUSH2 0x16C8 DUP4 PUSH2 0x1C9C JUMP JUMPDEST DUP5 ADD SWAP1 POP SWAP4 SWAP3 POP POP POP JUMP JUMPDEST PUSH1 0x0 PUSH2 0x16E0 PUSH1 0x10 DUP4 PUSH2 0x1B66 JUMP JUMPDEST SWAP2 POP PUSH2 0x16EB DUP3 PUSH2 0x1CAD JUMP JUMPDEST PUSH1 0x20 DUP3 ADD SWAP1 POP SWAP2 SWAP1 POP JUMP JUMPDEST PUSH1 0x0 PUSH2 0x1703 PUSH1 0xC DUP4 PUSH2 0x1B66 JUMP JUMPDEST SWAP2 POP PUSH2 0x170E DUP3 PUSH2 0x1CD6 JUMP JUMPDEST PUSH1 0x20 DUP3 ADD SWAP1 POP SWAP2 SWAP1 POP JUMP JUMPDEST PUSH1 0x0 PUSH2 0x1726 PUSH1 0x27 DUP4 PUSH2 0x1B66 JUMP JUMPDEST SWAP2 POP PUSH2 0x1731 DUP3 PUSH2 0x1CFF JUMP JUMPDEST PUSH1 0x40 DUP3 ADD SWAP1 POP SWAP2 SWAP1 POP JUMP JUMPDEST PUSH1 0x0 PUSH2 0x1749 PUSH1 0x11 DUP4 PUSH2 0x1B66 JUMP JUMPDEST SWAP2 POP PUSH2 0x1754 DUP3 PUSH2 0x1D4E JUMP JUMPDEST PUSH1 0x20 DUP3 ADD SWAP1 POP SWAP2 SWAP1 POP JUMP JUMPDEST PUSH1 0x0 PUSH2 0x176C PUSH1 0x1B DUP4 PUSH2 0x1B66 JUMP JUMPDEST SWAP2 POP PUSH2 0x1777 DUP3 PUSH2 0x1D77 JUMP JUMPDEST PUSH1 0x20 DUP3 ADD SWAP1 POP SWAP2 SWAP1 POP JUMP JUMPDEST PUSH1 0x0 PUSH2 0x178F PUSH1 0x13 DUP4 PUSH2 0x1B66 JUMP JUMPDEST SWAP2 POP PUSH2 0x179A DUP3 PUSH2 0x1DA0 JUMP JUMPDEST PUSH1 0x20 DUP3 ADD SWAP1 POP SWAP2 SWAP1 POP JUMP JUMPDEST PUSH1 0x0 PUSH2 0x17B2 PUSH1 0x20 DUP4 PUSH2 0x1B66 JUMP JUMPDEST SWAP2 POP PUSH2 0x17BD DUP3 PUSH2 0x1DC9 JUMP JUMPDEST PUSH1 0x20 DUP3 ADD SWAP1 POP SWAP2 SWAP1 POP JUMP JUMPDEST PUSH1 0x0 PUSH2 0x17D5 PUSH1 0xE DUP4 PUSH2 0x1B66 JUMP JUMPDEST SWAP2 POP PUSH2 0x17E0 DUP3 PUSH2 0x1DF2 JUMP JUMPDEST PUSH1 0x20 DUP3 ADD SWAP1 POP SWAP2 SWAP1 POP JUMP JUMPDEST PUSH1 0x0 PUSH2 0x17F8 PUSH1 0x12 DUP4 PUSH2 0x1B66 JUMP JUMPDEST SWAP2 POP PUSH2 0x1803 DUP3 PUSH2 0x1E1B JUMP JUMPDEST PUSH1 0x20 DUP3 ADD SWAP1 POP SWAP2 SWAP1 POP JUMP JUMPDEST PUSH1 0x0 PUSH2 0x181B PUSH1 0x0 DUP4 PUSH2 0x1B55 JUMP JUMPDEST SWAP2 POP PUSH2 0x1826 DUP3 PUSH2 0x1E44 JUMP JUMPDEST PUSH1 0x0 DUP3 ADD SWAP1 POP SWAP2 SWAP1 POP JUMP JUMPDEST PUSH1 0x0 PUSH2 0x183E PUSH1 0x16 DUP4 PUSH2 0x1B66 JUMP JUMPDEST SWAP2 POP PUSH2 0x1849 DUP3 PUSH2 0x1E47 JUMP JUMPDEST PUSH1 0x20 DUP3 ADD SWAP1 POP SWAP2 SWAP1 POP JUMP JUMPDEST PUSH1 0x0 PUSH2 0x1861 PUSH1 0x10 DUP4 PUSH2 0x1B66 JUMP JUMPDEST SWAP2 POP PUSH2 0x186C DUP3 PUSH2 0x1E70 JUMP JUMPDEST PUSH1 0x20 DUP3 ADD SWAP1 POP SWAP2 SWAP1 POP JUMP JUMPDEST PUSH1 0x0 PUSH2 0x1884 PUSH1 0x9 DUP4 PUSH2 0x1B66 JUMP JUMPDEST SWAP2 POP PUSH2 0x188F DUP3 PUSH2 0x1E99 JUMP JUMPDEST PUSH1 0x20 DUP3 ADD SWAP1 POP SWAP2 SWAP1 POP JUMP JUMPDEST PUSH1 0x0 PUSH2 0x18A7 PUSH1 0xD DUP4 PUSH2 0x1B66 JUMP JUMPDEST SWAP2 POP PUSH2 0x18B2 DUP3 PUSH2 0x1EC2 JUMP JUMPDEST PUSH1 0x20 DUP3 ADD SWAP1 POP SWAP2 SWAP1 POP JUMP JUMPDEST PUSH2 0x18C6 DUP2 PUSH2 0x1BE1 JUMP JUMPDEST DUP3 MSTORE POP POP JUMP JUMPDEST PUSH1 0x0 PUSH1 0x20 DUP3 ADD SWAP1 POP PUSH2 0x18E1 PUSH1 0x0 DUP4 ADD DUP5 PUSH2 0x1688 JUMP JUMPDEST SWAP3 SWAP2 POP POP JUMP JUMPDEST PUSH1 0x0 PUSH1 0x80 DUP3 ADD SWAP1 POP PUSH2 0x18FC PUSH1 0x0 DUP4 ADD DUP9 PUSH2 0x1688 JUMP JUMPDEST PUSH2 0x1909 PUSH1 0x20 DUP4 ADD DUP8 PUSH2 0x1688 JUMP JUMPDEST PUSH2 0x1916 PUSH1 0x40 DUP4 ADD DUP7 PUSH2 0x18BD JUMP JUMPDEST DUP2 DUP2 SUB PUSH1 0x60 DUP4 ADD MSTORE PUSH2 0x1929 DUP2 DUP5 DUP7 PUSH2 0x16A6 JUMP JUMPDEST SWAP1 POP SWAP7 SWAP6 POP POP POP POP POP POP JUMP JUMPDEST PUSH1 0x0 PUSH1 0x80 DUP3 ADD SWAP1 POP PUSH2 0x194A PUSH1 0x0 DUP4 ADD DUP7 PUSH2 0x1688 JUMP JUMPDEST PUSH2 0x1957 PUSH1 0x20 DUP4 ADD DUP6 PUSH2 0x1688 JUMP JUMPDEST PUSH2 0x1964 PUSH1 0x40 DUP4 ADD DUP5 PUSH2 0x18BD JUMP JUMPDEST DUP2 DUP2 SUB PUSH1 0x60 DUP4 ADD MSTORE PUSH2 0x1975 DUP2 PUSH2 0x180E JUMP JUMPDEST SWAP1 POP SWAP5 SWAP4 POP POP POP POP JUMP JUMPDEST PUSH1 0x0 PUSH1 0x20 DUP3 ADD SWAP1 POP PUSH2 0x1994 PUSH1 0x0 DUP4 ADD DUP5 PUSH2 0x1697 JUMP JUMPDEST SWAP3 SWAP2 POP POP JUMP JUMPDEST PUSH1 0x0 PUSH1 0x20 DUP3 ADD SWAP1 POP DUP2 DUP2 SUB PUSH1 0x0 DUP4 ADD MSTORE PUSH2 0x19B3 DUP2 PUSH2 0x16D3 JUMP JUMPDEST SWAP1 POP SWAP2 SWAP1 POP JUMP JUMPDEST PUSH1 0x0 PUSH1 0x20 DUP3 ADD SWAP1 POP DUP2 DUP2 SUB PUSH1 0x0 DUP4 ADD MSTORE PUSH2 0x19D3 DUP2 PUSH2 0x16F6 JUMP JUMPDEST SWAP1 POP SWAP2 SWAP1 POP JUMP JUMPDEST PUSH1 0x0 PUSH1 0x20 DUP3 ADD SWAP1 POP DUP2 DUP2 SUB PUSH1 0x0 DUP4 ADD MSTORE PUSH2 0x19F3 DUP2 PUSH2 0x1719 JUMP JUMPDEST SWAP1 POP SWAP2 SWAP1 POP JUMP JUMPDEST PUSH1 0x0 PUSH1 0x20 DUP3 ADD SWAP1 POP DUP2 DUP2 SUB PUSH1 0x0 DUP4 ADD MSTORE PUSH2 0x1A13 DUP2 PUSH2 0x173C JUMP JUMPDEST SWAP1 POP SWAP2 SWAP1 POP JUMP JUMPDEST PUSH1 0x0 PUSH1 0x20 DUP3 ADD SWAP1 POP DUP2 DUP2 SUB PUSH1 0x0 DUP4 ADD MSTORE PUSH2 0x1A33 DUP2 PUSH2 0x175F JUMP JUMPDEST SWAP1 POP SWAP2 SWAP1 POP JUMP JUMPDEST PUSH1 0x0 PUSH1 0x20 DUP3 ADD SWAP1 POP DUP2 DUP2 SUB PUSH1 0x0 DUP4 ADD MSTORE PUSH2 0x1A53 DUP2 PUSH2 0x1782 JUMP JUMPDEST SWAP1 POP SWAP2 SWAP1 POP JUMP JUMPDEST PUSH1 0x0 PUSH1 0x20 DUP3 ADD SWAP1 POP DUP2 DUP2 SUB PUSH1 0x0 DUP4 ADD MSTORE PUSH2 0x1A73 DUP2 PUSH2 0x17A5 JUMP JUMPDEST SWAP1 POP SWAP2 SWAP1 POP JUMP JUMPDEST PUSH1 0x0 PUSH1 0x20 DUP3 ADD SWAP1 POP DUP2 DUP2 SUB PUSH1 0x0 DUP4 ADD MSTORE PUSH2 0x1A93 DUP2 PUSH2 0x17C8 JUMP JUMPDEST SWAP1 POP SWAP2 SWAP1 POP JUMP JUMPDEST PUSH1 0x0 PUSH1 0x20 DUP3 ADD SWAP1 POP DUP2 DUP2 SUB PUSH1 0x0 DUP4 ADD MSTORE PUSH2 0x1AB3 DUP2 PUSH2 0x17EB JUMP JUMPDEST SWAP1 POP SWAP2 SWAP1 POP JUMP JUMPDEST PUSH1 0x0 PUSH1 0x20 DUP3 ADD SWAP1 POP DUP2 DUP2 SUB PUSH1 0x0 DUP4 ADD MSTORE PUSH2 0x1AD3 DUP2 PUSH2 0x1831 JUMP JUMPDEST SWAP1 POP SWAP2 SWAP1 POP JUMP JUMPDEST PUSH1 0x0 PUSH1 0x20 DUP3 ADD SWAP1 POP DUP2 DUP2 SUB PUSH1 0x0 DUP4 ADD MSTORE PUSH2 0x1AF3 DUP2 PUSH2 0x1854 JUMP JUMPDEST SWAP1 POP SWAP2 SWAP1 POP JUMP JUMPDEST PUSH1 0x0 PUSH1 0x20 DUP3 ADD SWAP1 POP DUP2 DUP2 SUB PUSH1 0x0 DUP4 ADD MSTORE PUSH2 0x1B13 DUP2 PUSH2 0x1877 JUMP JUMPDEST SWAP1 POP SWAP2 SWAP1 POP JUMP JUMPDEST PUSH1 0x0 PUSH1 0x20 DUP3 ADD SWAP1 POP DUP2 DUP2 SUB PUSH1 0x0 DUP4 ADD MSTORE PUSH2 0x1B33 DUP2 PUSH2 0x189A JUMP JUMPDEST SWAP1 POP SWAP2 SWAP1 POP JUMP JUMPDEST PUSH1 0x0 PUSH1 0x20 DUP3 ADD SWAP1 POP PUSH2 0x1B4F PUSH1 0x0 DUP4 ADD DUP5 PUSH2 0x18BD JUMP JUMPDEST SWAP3 SWAP2 POP POP JUMP JUMPDEST PUSH1 0x0 DUP3 DUP3 MSTORE PUSH1 0x20 DUP3 ADD SWAP1 POP SWAP3 SWAP2 POP POP JUMP JUMPDEST PUSH1 0x0 DUP3 DUP3 MSTORE PUSH1 0x20 DUP3 ADD SWAP1 POP SWAP3 SWAP2 POP POP JUMP JUMPDEST PUSH1 0x0 PUSH2 0x1B82 DUP3 PUSH2 0x1BC1 JUMP JUMPDEST SWAP1 POP SWAP2 SWAP1 POP JUMP JUMPDEST PUSH1 0x0 DUP2 ISZERO ISZERO SWAP1 POP SWAP2 SWAP1 POP JUMP JUMPDEST PUSH1 0x0 PUSH32 0xFFFFFFFF00000000000000000000000000000000000000000000000000000000 DUP3 AND SWAP1 POP SWAP2 SWAP1 POP JUMP JUMPDEST PUSH1 0x0 PUSH20 0xFFFFFFFFFFFFFFFFFFFFFFFFFFFFFFFFFFFFFFFF DUP3 AND SWAP1 POP SWAP2 SWAP1 POP JUMP JUMPDEST PUSH1 0x0 DUP2 SWAP1 POP SWAP2 SWAP1 POP JUMP JUMPDEST DUP3 DUP2 DUP4 CALLDATACOPY PUSH1 0x0 DUP4 DUP4 ADD MSTORE POP POP POP JUMP JUMPDEST PUSH1 0x0 PUSH2 0x1C05 DUP3 PUSH2 0x1BE1 JUMP JUMPDEST SWAP2 POP PUSH1 0x0 DUP3 EQ ISZERO PUSH2 0x1C19 JUMPI PUSH2 0x1C18 PUSH2 0x1C6D JUMP JUMPDEST JUMPDEST PUSH1 0x1 DUP3 SUB SWAP1 POP SWAP2 SWAP1 POP JUMP JUMPDEST PUSH1 0x0 PUSH2 0x1C2F DUP3 PUSH2 0x1BE1 JUMP JUMPDEST SWAP2 POP PUSH32 0xFFFFFFFFFFFFFFFFFFFFFFFFFFFFFFFFFFFFFFFFFFFFFFFFFFFFFFFFFFFFFFFF DUP3 EQ ISZERO PUSH2 0x1C62 JUMPI PUSH2 0x1C61 PUSH2 0x1C6D JUMP JUMPDEST JUMPDEST PUSH1 0x1 DUP3 ADD SWAP1 POP SWAP2 SWAP1 POP JUMP JUMPDEST PUSH32 0x4E487B7100000000000000000000000000000000000000000000000000000000 PUSH1 0x0 MSTORE PUSH1 0x11 PUSH1 0x4 MSTORE PUSH1 0x24 PUSH1 0x0 REVERT JUMPDEST PUSH1 0x0 PUSH1 0x1F NOT PUSH1 0x1F DUP4 ADD AND SWAP1 POP SWAP2 SWAP1 POP JUMP JUMPDEST PUSH32 0x756E7361666520726563697069656E7400000000000000000000000000000000 PUSH1 0x0 DUP3 ADD MSTORE POP JUMP JUMPDEST PUSH32 0x746F6B656E4964207A65726F0000000000000000000000000000000000000000 PUSH1 0x0 DUP3 ADD MSTORE POP JUMP JUMPDEST PUSH32 0x6F776E6572206F6620746F6B656E4964206E6F74206D617463682066726F6D41 PUSH1 0x0 DUP3 ADD MSTORE PUSH32 0x6464726573732000000000000000000000000000000000000000000000000000 PUSH1 0x20 DUP3 ADD MSTORE POP JUMP JUMPDEST PUSH32 0x746F203D207A65726F2061646472657373000000000000000000000000000000 PUSH1 0x0 DUP3 ADD MSTORE POP JUMP JUMPDEST PUSH32 0x4552433732313A2061646472657373207A65726F206973206E6F740000000000 PUSH1 0x0 DUP3 ADD MSTORE POP JUMP JUMPDEST PUSH32 0x61646472657373207A65726F206973206E6F7400000000000000000000000000 PUSH1 0x0 DUP3 ADD MSTORE POP JUMP JUMPDEST PUSH32 0x61646472657373206F7220746F41646472657373207A65726F206973206E6F74 PUSH1 0x0 DUP3 ADD MSTORE POP JUMP JUMPDEST PUSH32 0x6E6F7420617574686F72697A6564000000000000000000000000000000000000 PUSH1 0x0 DUP3 ADD MSTORE POP JUMP JUMPDEST PUSH32 0x4552432C20616464726573732069732020300000000000000000000000000000 PUSH1 0x0 DUP3 ADD MSTORE POP JUMP JUMPDEST POP JUMP JUMPDEST PUSH32 0x6F70657261746F72206164647265737320697320203000000000000000000000 PUSH1 0x0 DUP3 ADD MSTORE POP JUMP JUMPDEST PUSH32 0x6164647265737320697320207A65726F00000000000000000000000000000000 PUSH1 0x0 DUP3 ADD MSTORE POP JUMP JUMPDEST PUSH32 0x6E6F74206F776E65720000000000000000000000000000000000000000000000 PUSH1 0x0 DUP3 ADD MSTORE POP JUMP JUMPDEST PUSH32 0x6E6F74206175746872697A656400000000000000000000000000000000000000 PUSH1 0x0 DUP3 ADD MSTORE POP JUMP JUMPDEST PUSH2 0x1EF4 DUP2 PUSH2 0x1B77 JUMP JUMPDEST DUP2 EQ PUSH2 0x1EFF JUMPI PUSH1 0x0 DUP1 REVERT JUMPDEST POP JUMP JUMPDEST PUSH2 0x1F0B DUP2 PUSH2 0x1B89 JUMP JUMPDEST DUP2 EQ PUSH2 0x1F16 JUMPI PUSH1 0x0 DUP1 REVERT JUMPDEST POP JUMP JUMPDEST PUSH2 0x1F22 DUP2 PUSH2 0x1B95 JUMP JUMPDEST DUP2 EQ PUSH2 0x1F2D JUMPI PUSH1 0x0 DUP1 REVERT JUMPDEST POP JUMP JUMPDEST PUSH2 0x1F39 DUP2 PUSH2 0x1BE1 JUMP JUMPDEST DUP2 EQ PUSH2 0x1F44 JUMPI PUSH1 0x0 DUP1 REVERT JUMPDEST POP JUMP INVALID LOG2 PUSH5 0x6970667358 0x22 SLT KECCAK256 PUSH21 0x4B8C94605661331AEDBD8A6F498D74F277FCAA62 DUP6 0x2C 0xC9 0x5D 0xD9 SAR 0xE0 PUSH12 0x1AD164736F6C634300080400 CALLER "
				},
				"gasEstimates": {
					"creation": {
						"codeDepositCost": "1612200",
						"executionCost": "1687",
						"totalCost": "1613887"
					},
					"external": {
						"approve(address,uint256)": "25539",
						"balanceOf(address)": "1623",
						"burn(uint256)": "infinite",
						"getApproved(uint256)": "2540",
						"isApprovedForAll(address,address)": "infinite",
						"mint(address,uint256)": "infinite",
						"ownerOf(uint256)": "1681",
						"safeTransferFrom(address,address,uint256)": "infinite",
						"safeTransferFrom(address,address,uint256,bytes)": "infinite",
						"setApprovalForAll(address,bool)": "infinite",
						"supportsInterface(bytes4)": "685",
						"transferFrom(address,address,uint256)": "infinite"
					}
				},
				"methodIdentifiers": {
					"approve(address,uint256)": "095ea7b3",
					"balanceOf(address)": "70a08231",
					"burn(uint256)": "42966c68",
					"getApproved(uint256)": "081812fc",
					"isApprovedForAll(address,address)": "e985e9c5",
					"mint(address,uint256)": "40c10f19",
					"ownerOf(uint256)": "6352211e",
					"safeTransferFrom(address,address,uint256)": "42842e0e",
					"safeTransferFrom(address,address,uint256,bytes)": "b88d4fde",
					"setApprovalForAll(address,bool)": "a22cb465",
					"supportsInterface(bytes4)": "01ffc9a7",
					"transferFrom(address,address,uint256)": "23b872dd"
				}
			},
			"storageLayout": {
				"storage": [
					{
						"astId": 480,
						"contract": "contracts/base/ERC721Test.sol:MyNFT",
						"label": "balances",
						"offset": 0,
						"slot": "0",
						"type": "t_mapping(t_address,t_uint256)"
					},
					{
						"astId": 484,
						"contract": "contracts/base/ERC721Test.sol:MyNFT",
						"label": "_owners",
						"offset": 0,
						"slot": "1",
						"type": "t_mapping(t_uint256,t_address)"
					},
					{
						"astId": 491,
						"contract": "contracts/base/ERC721Test.sol:MyNFT",
						"label": "isApprovedForAll",
						"offset": 0,
						"slot": "2",
						"type": "t_mapping(t_address,t_mapping(t_address,t_bool))"
					},
					{
						"astId": 495,
						"contract": "contracts/base/ERC721Test.sol:MyNFT",
						"label": "_approves",
						"offset": 0,
						"slot": "3",
						"type": "t_mapping(t_uint256,t_address)"
					}
				],
				"types": {
					"t_address": {
						"encoding": "inplace",
						"label": "address",
						"numberOfBytes": "20"
					},
					"t_bool": {
						"encoding": "inplace",
						"label": "bool",
						"numberOfBytes": "1"
					},
					"t_mapping(t_address,t_bool)": {
						"encoding": "mapping",
						"key": "t_address",
						"label": "mapping(address => bool)",
						"numberOfBytes": "32",
						"value": "t_bool"
					},
					"t_mapping(t_address,t_mapping(t_address,t_bool))": {
						"encoding": "mapping",
						"key": "t_address",
						"label": "mapping(address => mapping(address => bool))",
						"numberOfBytes": "32",
						"value": "t_mapping(t_address,t_bool)"
					},
					"t_mapping(t_address,t_uint256)": {
						"encoding": "mapping",
						"key": "t_address",
						"label": "mapping(address => uint256)",
						"numberOfBytes": "32",
						"value": "t_uint256"
					},
					"t_mapping(t_uint256,t_address)": {
						"encoding": "mapping",
						"key": "t_uint256",
						"label": "mapping(uint256 => address)",
						"numberOfBytes": "32",
						"value": "t_address"
					},
					"t_uint256": {
						"encoding": "inplace",
						"label": "uint256",
						"numberOfBytes": "32"
					}
				}
			},
			"userdoc": {
				"kind": "user",
				"methods": {
					"approve(address,uint256)": {
						"notice": "描述：授权某个地址管理特定的ERC721代币 参数： _approved：被授权的地址 _tokenId：代币的唯一识别 ID"
					},
					"balanceOf(address)": {
						"notice": "描述：返回指定地址所拥有的代币数量 参数：_owner：代币拥有者的地址 返回值：该地址拥有的代币数量"
					},
					"getApproved(uint256)": {
						"notice": "描述：获取被授权管理特定代币的地址 参数：_tokenId：代币的唯一识别 ID 返回值：被授权的管理该代币的地址"
					},
					"isApprovedForAll(address,address)": {
						"notice": "描述：查询一个操作者是否被批准管理某个所有者的所有代币 参数： _owner：代币拥有者的地址 _operator：操作者的地址 返回值：是否被授权的布尔值"
					},
					"ownerOf(uint256)": {
						"notice": "描述：查询某个代币的所有者 参数：_tokenId：代币的唯一识别 ID 返回值：拥有此代币的地址"
					},
					"safeTransferFrom(address,address,uint256)": {
						"notice": "描述：安全地将代币从一个地址转移到另一个地址，调用时会检查接收者地址是否具备处理 ERC721 代币的能力 参数： _from：当前代币的拥有者地址 _to：代币将要被转移至的目标地址 _tokenId：将要被转移的代币的 ID data：额外的数据，可能会在调用中使用"
					},
					"safeTransferFrom(address,address,uint256,bytes)": {
						"notice": "描述：安全地将代币从一个地址转移到另一个地址，调用时会检查接收者地址是否具备处理 ERC721 代币的能力 参数： _from：当前代币的拥有者地址 _to：代币将要被转移至的目标地址 _tokenId：将要被转移的代币的 ID data：额外的数据，可能会在调用中使用"
					},
					"setApprovalForAll(address,bool)": {
						"notice": "描述：将一个操作者地址设置为被批准或取消批准管理所有代币的权利 参数： _operator：操作者的地址 _approved：批准或取消批准的标志"
					},
					"supportsInterface(bytes4)": {
						"notice": "作用场景： 当合约A需要调用合约B的特定功能（如转账、查询余额）时， 可先通过supportsInterface检查合约B是否支持相关接口（如ERC20、ERC721），避免调用失败。 实际应用场景 1. ​DeFi协议集成 钱包或交易所调用supportsInterface检测代币合约是否兼容ERC20，以决定是否展示余额或支持交易。 2. ​NFT市场 交易平台通过检查IERC721Receiver接口（ID：0x150b7a02），确认目标合约能否安全接收NFT，避免资产锁定。 3. ​可升级合约 代理合约在升级后，调用方需验证新逻辑合约是否支持原有接口，确保兼容性"
					},
					"transferFrom(address,address,uint256)": {
						"notice": "描述：将代币从一个地址转移到另一个地址，不检查接收者地址是否能处理 ERC721 代币 参数： _from：当前代币的拥有者地址 _to：代币将要被转移至的目标地址 _tokenId：将要被转移的代币的 ID"
					}
				},
				"version": 1
			}
		}
	}
}