{
	"contracts/StakingRewards/StakingRewards.sol": {
		"StakingRewards": {
			"abi": [
				{
					"inputs": [
						{
							"internalType": "address",
							"name": "_stakingToken",
							"type": "address"
						},
						{
							"internalType": "address",
							"name": "_rewardsToken",
							"type": "address"
						}
					],
					"stateMutability": "nonpayable",
					"type": "constructor"
				},
				{
					"anonymous": false,
					"inputs": [
						{
							"indexed": false,
							"internalType": "uint256",
							"name": "r",
							"type": "uint256"
						}
					],
					"name": "Log",
					"type": "event"
				},
				{
					"inputs": [],
					"name": "_minTime",
					"outputs": [
						{
							"internalType": "uint256",
							"name": "min",
							"type": "uint256"
						}
					],
					"stateMutability": "nonpayable",
					"type": "function"
				},
				{
					"inputs": [
						{
							"internalType": "address",
							"name": "",
							"type": "address"
						}
					],
					"name": "balanceOf",
					"outputs": [
						{
							"internalType": "uint256",
							"name": "",
							"type": "uint256"
						}
					],
					"stateMutability": "view",
					"type": "function"
				},
				{
					"inputs": [],
					"name": "duration",
					"outputs": [
						{
							"internalType": "uint256",
							"name": "",
							"type": "uint256"
						}
					],
					"stateMutability": "view",
					"type": "function"
				},
				{
					"inputs": [],
					"name": "endTime",
					"outputs": [
						{
							"internalType": "uint256",
							"name": "",
							"type": "uint256"
						}
					],
					"stateMutability": "view",
					"type": "function"
				},
				{
					"inputs": [],
					"name": "getReward",
					"outputs": [],
					"stateMutability": "nonpayable",
					"type": "function"
				},
				{
					"inputs": [],
					"name": "getUseEarned",
					"outputs": [
						{
							"internalType": "uint256",
							"name": "",
							"type": "uint256"
						}
					],
					"stateMutability": "nonpayable",
					"type": "function"
				},
				{
					"inputs": [],
					"name": "getUseEarned2",
					"outputs": [
						{
							"internalType": "uint256",
							"name": "",
							"type": "uint256"
						}
					],
					"stateMutability": "view",
					"type": "function"
				},
				{
					"inputs": [
						{
							"internalType": "uint256",
							"name": "_amont",
							"type": "uint256"
						}
					],
					"name": "notifyRewardAmount",
					"outputs": [],
					"stateMutability": "nonpayable",
					"type": "function"
				},
				{
					"inputs": [],
					"name": "owner",
					"outputs": [
						{
							"internalType": "address",
							"name": "",
							"type": "address"
						}
					],
					"stateMutability": "view",
					"type": "function"
				},
				{
					"inputs": [],
					"name": "rewardCoefficient",
					"outputs": [
						{
							"internalType": "uint256",
							"name": "",
							"type": "uint256"
						}
					],
					"stateMutability": "view",
					"type": "function"
				},
				{
					"inputs": [
						{
							"internalType": "address",
							"name": "",
							"type": "address"
						}
					],
					"name": "rewardOf",
					"outputs": [
						{
							"internalType": "uint256",
							"name": "",
							"type": "uint256"
						}
					],
					"stateMutability": "view",
					"type": "function"
				},
				{
					"inputs": [],
					"name": "rewardPerTokenStored",
					"outputs": [
						{
							"internalType": "uint256",
							"name": "",
							"type": "uint256"
						}
					],
					"stateMutability": "view",
					"type": "function"
				},
				{
					"inputs": [
						{
							"internalType": "address",
							"name": "",
							"type": "address"
						}
					],
					"name": "rewardPerTokenStoredOf",
					"outputs": [
						{
							"internalType": "uint256",
							"name": "",
							"type": "uint256"
						}
					],
					"stateMutability": "view",
					"type": "function"
				},
				{
					"inputs": [],
					"name": "rewardRate",
					"outputs": [
						{
							"internalType": "uint256",
							"name": "",
							"type": "uint256"
						}
					],
					"stateMutability": "view",
					"type": "function"
				},
				{
					"inputs": [],
					"name": "rewardsToken",
					"outputs": [
						{
							"internalType": "contract IERC20",
							"name": "",
							"type": "address"
						}
					],
					"stateMutability": "view",
					"type": "function"
				},
				{
					"inputs": [
						{
							"internalType": "uint256",
							"name": "_duration",
							"type": "uint256"
						}
					],
					"name": "setDuration",
					"outputs": [],
					"stateMutability": "nonpayable",
					"type": "function"
				},
				{
					"inputs": [
						{
							"internalType": "uint256",
							"name": "_amont",
							"type": "uint256"
						}
					],
					"name": "stake",
					"outputs": [],
					"stateMutability": "payable",
					"type": "function"
				},
				{
					"inputs": [],
					"name": "stakingToken",
					"outputs": [
						{
							"internalType": "contract IERC20",
							"name": "",
							"type": "address"
						}
					],
					"stateMutability": "view",
					"type": "function"
				},
				{
					"inputs": [],
					"name": "totalBalance",
					"outputs": [
						{
							"internalType": "uint256",
							"name": "",
							"type": "uint256"
						}
					],
					"stateMutability": "view",
					"type": "function"
				},
				{
					"inputs": [],
					"name": "updateReward2",
					"outputs": [],
					"stateMutability": "nonpayable",
					"type": "function"
				},
				{
					"inputs": [],
					"name": "updatedAt",
					"outputs": [
						{
							"internalType": "uint256",
							"name": "",
							"type": "uint256"
						}
					],
					"stateMutability": "view",
					"type": "function"
				},
				{
					"inputs": [
						{
							"internalType": "uint256",
							"name": "_amont",
							"type": "uint256"
						}
					],
					"name": "withdraw",
					"outputs": [],
					"stateMutability": "nonpayable",
					"type": "function"
				}
			],
			"devdoc": {
				"kind": "dev",
				"methods": {},
				"version": 1
			},
			"evm": {
				"assembly": "    /* \"contracts/StakingRewards/StakingRewards.sol\":267:5235  contract StakingRewards{... */\n  mstore(0x40, 0xc0)\n    /* \"contracts/StakingRewards/StakingRewards.sol\":1222:1410  constructor(address _stakingToken,address _rewardsToken) {... */\n  callvalue\n  dup1\n  iszero\n  tag_1\n  jumpi\n  revert(0x00, 0x00)\ntag_1:\n  pop\n  mload(0x40)\n  sub(codesize, bytecodeSize)\n  dup1\n  bytecodeSize\n  dup4\n  codecopy\n  dup2\n  dup2\n  add\n  0x40\n  mstore\n  dup2\n  add\n  swap1\n  tag_2\n  swap2\n  swap1\n  tag_3\n  jump\t// in\ntag_2:\n    /* \"contracts/StakingRewards/StakingRewards.sol\":1312:1325  _stakingToken */\n  dup2\n    /* \"contracts/StakingRewards/StakingRewards.sol\":1290:1326  stakingToken = IERC20(_stakingToken) */\n  0xffffffffffffffffffffffffffffffffffffffff\n  and\n  0x80\n  dup2\n  0xffffffffffffffffffffffffffffffffffffffff\n  and\n  dup2\n  mstore\n  pop\n  pop\n    /* \"contracts/StakingRewards/StakingRewards.sol\":1359:1372  _rewardsToken */\n  dup1\n    /* \"contracts/StakingRewards/StakingRewards.sol\":1337:1373  rewardsToken = IERC20(_rewardsToken) */\n  0xffffffffffffffffffffffffffffffffffffffff\n  and\n  0xa0\n  dup2\n  0xffffffffffffffffffffffffffffffffffffffff\n  and\n  dup2\n  mstore\n  pop\n  pop\n    /* \"contracts/StakingRewards/StakingRewards.sol\":1392:1402  msg.sender */\n  caller\n    /* \"contracts/StakingRewards/StakingRewards.sol\":1384:1389  owner */\n  0x00\n  0x00\n    /* \"contracts/StakingRewards/StakingRewards.sol\":1384:1402  owner = msg.sender */\n  0x0100\n  exp\n  dup2\n  sload\n  dup2\n  0xffffffffffffffffffffffffffffffffffffffff\n  mul\n  not\n  and\n  swap1\n  dup4\n  0xffffffffffffffffffffffffffffffffffffffff\n  and\n  mul\n  or\n  swap1\n  sstore\n  pop\n    /* \"contracts/StakingRewards/StakingRewards.sol\":1222:1410  constructor(address _stakingToken,address _rewardsToken) {... */\n  pop\n  pop\n    /* \"contracts/StakingRewards/StakingRewards.sol\":267:5235  contract StakingRewards{... */\n  jump(tag_6)\n    /* \"#utility.yul\":88:205   */\ntag_8:\n    /* \"#utility.yul\":197:198   */\n  0x00\n    /* \"#utility.yul\":194:195   */\n  0x00\n    /* \"#utility.yul\":187:199   */\n  revert\n    /* \"#utility.yul\":334:460   */\ntag_10:\n    /* \"#utility.yul\":371:378   */\n  0x00\n    /* \"#utility.yul\":411:453   */\n  0xffffffffffffffffffffffffffffffffffffffff\n    /* \"#utility.yul\":404:409   */\n  dup3\n    /* \"#utility.yul\":400:454   */\n  and\n    /* \"#utility.yul\":389:454   */\n  swap1\n  pop\n    /* \"#utility.yul\":334:460   */\n  swap2\n  swap1\n  pop\n  jump\t// out\n    /* \"#utility.yul\":466:562   */\ntag_11:\n    /* \"#utility.yul\":503:510   */\n  0x00\n    /* \"#utility.yul\":532:556   */\n  tag_20\n    /* \"#utility.yul\":550:555   */\n  dup3\n    /* \"#utility.yul\":532:556   */\n  tag_10\n  jump\t// in\ntag_20:\n    /* \"#utility.yul\":521:556   */\n  swap1\n  pop\n    /* \"#utility.yul\":466:562   */\n  swap2\n  swap1\n  pop\n  jump\t// out\n    /* \"#utility.yul\":568:690   */\ntag_12:\n    /* \"#utility.yul\":641:665   */\n  tag_22\n    /* \"#utility.yul\":659:664   */\n  dup2\n    /* \"#utility.yul\":641:665   */\n  tag_11\n  jump\t// in\ntag_22:\n    /* \"#utility.yul\":634:639   */\n  dup2\n    /* \"#utility.yul\":631:666   */\n  eq\n    /* \"#utility.yul\":621:684   */\n  tag_23\n  jumpi\n    /* \"#utility.yul\":680:681   */\n  0x00\n    /* \"#utility.yul\":677:678   */\n  0x00\n    /* \"#utility.yul\":670:682   */\n  revert\n    /* \"#utility.yul\":621:684   */\ntag_23:\n    /* \"#utility.yul\":568:690   */\n  pop\n  jump\t// out\n    /* \"#utility.yul\":696:839   */\ntag_13:\n    /* \"#utility.yul\":753:758   */\n  0x00\n    /* \"#utility.yul\":784:790   */\n  dup2\n    /* \"#utility.yul\":778:791   */\n  mload\n    /* \"#utility.yul\":769:791   */\n  swap1\n  pop\n    /* \"#utility.yul\":800:833   */\n  tag_25\n    /* \"#utility.yul\":827:832   */\n  dup2\n    /* \"#utility.yul\":800:833   */\n  tag_12\n  jump\t// in\ntag_25:\n    /* \"#utility.yul\":696:839   */\n  swap3\n  swap2\n  pop\n  pop\n  jump\t// out\n    /* \"#utility.yul\":845:1352   */\ntag_3:\n    /* \"#utility.yul\":924:930   */\n  0x00\n    /* \"#utility.yul\":932:938   */\n  0x00\n    /* \"#utility.yul\":981:983   */\n  0x40\n    /* \"#utility.yul\":969:978   */\n  dup4\n    /* \"#utility.yul\":960:967   */\n  dup6\n    /* \"#utility.yul\":956:979   */\n  sub\n    /* \"#utility.yul\":952:984   */\n  slt\n    /* \"#utility.yul\":949:1068   */\n  iszero\n  tag_27\n  jumpi\n    /* \"#utility.yul\":987:1066   */\n  tag_28\n  tag_8\n  jump\t// in\ntag_28:\n    /* \"#utility.yul\":949:1068   */\ntag_27:\n    /* \"#utility.yul\":1107:1108   */\n  0x00\n    /* \"#utility.yul\":1132:1196   */\n  tag_29\n    /* \"#utility.yul\":1188:1195   */\n  dup6\n    /* \"#utility.yul\":1179:1185   */\n  dup3\n    /* \"#utility.yul\":1168:1177   */\n  dup7\n    /* \"#utility.yul\":1164:1186   */\n  add\n    /* \"#utility.yul\":1132:1196   */\n  tag_13\n  jump\t// in\ntag_29:\n    /* \"#utility.yul\":1122:1196   */\n  swap3\n  pop\n    /* \"#utility.yul\":1078:1206   */\n  pop\n    /* \"#utility.yul\":1245:1247   */\n  0x20\n    /* \"#utility.yul\":1271:1335   */\n  tag_30\n    /* \"#utility.yul\":1327:1334   */\n  dup6\n    /* \"#utility.yul\":1318:1324   */\n  dup3\n    /* \"#utility.yul\":1307:1316   */\n  dup7\n    /* \"#utility.yul\":1303:1325   */\n  add\n    /* \"#utility.yul\":1271:1335   */\n  tag_13\n  jump\t// in\ntag_30:\n    /* \"#utility.yul\":1261:1335   */\n  swap2\n  pop\n    /* \"#utility.yul\":1216:1345   */\n  pop\n    /* \"#utility.yul\":845:1352   */\n  swap3\n  pop\n  swap3\n  swap1\n  pop\n  jump\t// out\n    /* \"contracts/StakingRewards/StakingRewards.sol\":267:5235  contract StakingRewards{... */\ntag_6:\n  mload(0x80)\n  mload(0xa0)\n  codecopy(0x00, dataOffset(sub_0), dataSize(sub_0))\n  0x00\n  assignImmutable(\"0x5b9d82bdb7ae056a203cf64bdf26f3fdec584cdfaca2ac8b4c3d0c5b66e90969\")\n  0x00\n  assignImmutable(\"0xaf057546d61dd28804ca035e688a36db5f311bb8c4c9d2e1e5e44c0555cfe3bf\")\n  return(0x00, dataSize(sub_0))\nstop\n\nsub_0: assembly {\n        /* \"contracts/StakingRewards/StakingRewards.sol\":267:5235  contract StakingRewards{... */\n      mstore(0x40, 0x80)\n      jumpi(tag_1, lt(calldatasize, 0x04))\n      shr(0xe0, calldataload(0x00))\n      dup1\n      0x7519ab50\n      gt\n      tag_24\n      jumpi\n      dup1\n      0xad7a672f\n      gt\n      tag_25\n      jumpi\n      dup1\n      0xad7a672f\n      eq\n      tag_18\n      jumpi\n      dup1\n      0xd1af0c7d\n      eq\n      tag_19\n      jumpi\n      dup1\n      0xdcb640cd\n      eq\n      tag_20\n      jumpi\n      dup1\n      0xdf136d65\n      eq\n      tag_21\n      jumpi\n      dup1\n      0xf6be71d1\n      eq\n      tag_22\n      jumpi\n      dup1\n      0xfc9daa07\n      eq\n      tag_23\n      jumpi\n      jump(tag_1)\n    tag_25:\n      dup1\n      0x7519ab50\n      eq\n      tag_13\n      jumpi\n      dup1\n      0x7b0a47ee\n      eq\n      tag_14\n      jumpi\n      dup1\n      0x8da5cb5b\n      eq\n      tag_15\n      jumpi\n      dup1\n      0x8f5fb40e\n      eq\n      tag_16\n      jumpi\n      dup1\n      0xa694fc3a\n      eq\n      tag_17\n      jumpi\n      jump(tag_1)\n    tag_24:\n      dup1\n      0x3c6b16ab\n      gt\n      tag_26\n      jumpi\n      dup1\n      0x3c6b16ab\n      eq\n      tag_7\n      jumpi\n      dup1\n      0x3d18b912\n      eq\n      tag_8\n      jumpi\n      dup1\n      0x46377982\n      eq\n      tag_9\n      jumpi\n      dup1\n      0x628e4a62\n      eq\n      tag_10\n      jumpi\n      dup1\n      0x70a08231\n      eq\n      tag_11\n      jumpi\n      dup1\n      0x72f702f3\n      eq\n      tag_12\n      jumpi\n      jump(tag_1)\n    tag_26:\n      dup1\n      0x0fb5a6b4\n      eq\n      tag_2\n      jumpi\n      dup1\n      0x199af55d\n      eq\n      tag_3\n      jumpi\n      dup1\n      0x1d62ebd9\n      eq\n      tag_4\n      jumpi\n      dup1\n      0x2e1a7d4d\n      eq\n      tag_5\n      jumpi\n      dup1\n      0x3197cbb6\n      eq\n      tag_6\n      jumpi\n    tag_1:\n      revert(0x00, 0x00)\n        /* \"contracts/StakingRewards/StakingRewards.sol\":651:674  uint256 public duration */\n    tag_2:\n      callvalue\n      dup1\n      iszero\n      tag_27\n      jumpi\n      revert(0x00, 0x00)\n    tag_27:\n      pop\n      tag_28\n      tag_29\n      jump\t// in\n    tag_28:\n      mload(0x40)\n      tag_30\n      swap2\n      swap1\n      tag_31\n      jump\t// in\n    tag_30:\n      mload(0x40)\n      dup1\n      swap2\n      sub\n      swap1\n      return\n        /* \"contracts/StakingRewards/StakingRewards.sol\":926:980  mapping(address => uint) public rewardPerTokenStoredOf */\n    tag_3:\n      callvalue\n      dup1\n      iszero\n      tag_32\n      jumpi\n      revert(0x00, 0x00)\n    tag_32:\n      pop\n      tag_33\n      0x04\n      dup1\n      calldatasize\n      sub\n      dup2\n      add\n      swap1\n      tag_34\n      swap2\n      swap1\n      tag_35\n      jump\t// in\n    tag_34:\n      tag_36\n      jump\t// in\n    tag_33:\n      mload(0x40)\n      tag_37\n      swap2\n      swap1\n      tag_31\n      jump\t// in\n    tag_37:\n      mload(0x40)\n      dup1\n      swap2\n      sub\n      swap1\n      return\n        /* \"contracts/StakingRewards/StakingRewards.sol\":1111:1151  mapping(address => uint) public rewardOf */\n    tag_4:\n      callvalue\n      dup1\n      iszero\n      tag_38\n      jumpi\n      revert(0x00, 0x00)\n    tag_38:\n      pop\n      tag_39\n      0x04\n      dup1\n      calldatasize\n      sub\n      dup2\n      add\n      swap1\n      tag_40\n      swap2\n      swap1\n      tag_35\n      jump\t// in\n    tag_40:\n      tag_41\n      jump\t// in\n    tag_39:\n      mload(0x40)\n      tag_42\n      swap2\n      swap1\n      tag_31\n      jump\t// in\n    tag_42:\n      mload(0x40)\n      dup1\n      swap2\n      sub\n      swap1\n      return\n        /* \"contracts/StakingRewards/StakingRewards.sol\":4718:4963  function withdraw(uint256 _amont) external updateReward{... */\n    tag_5:\n      callvalue\n      dup1\n      iszero\n      tag_43\n      jumpi\n      revert(0x00, 0x00)\n    tag_43:\n      pop\n      tag_44\n      0x04\n      dup1\n      calldatasize\n      sub\n      dup2\n      add\n      swap1\n      tag_45\n      swap2\n      swap1\n      tag_46\n      jump\t// in\n    tag_45:\n      tag_47\n      jump\t// in\n    tag_44:\n      stop\n        /* \"contracts/StakingRewards/StakingRewards.sol\":515:537  uint256 public endTime */\n    tag_6:\n      callvalue\n      dup1\n      iszero\n      tag_48\n      jumpi\n      revert(0x00, 0x00)\n    tag_48:\n      pop\n      tag_49\n      tag_50\n      jump\t// in\n    tag_49:\n      mload(0x40)\n      tag_51\n      swap2\n      swap1\n      tag_31\n      jump\t// in\n    tag_51:\n      mload(0x40)\n      dup1\n      swap2\n      sub\n      swap1\n      return\n        /* \"contracts/StakingRewards/StakingRewards.sol\":3565:4309  function notifyRewardAmount(uint256 _amont) external onlyOwner updateReward{... */\n    tag_7:\n      callvalue\n      dup1\n      iszero\n      tag_52\n      jumpi\n      revert(0x00, 0x00)\n    tag_52:\n      pop\n      tag_53\n      0x04\n      dup1\n      calldatasize\n      sub\n      dup2\n      add\n      swap1\n      tag_54\n      swap2\n      swap1\n      tag_46\n      jump\t// in\n    tag_54:\n      tag_55\n      jump\t// in\n    tag_53:\n      stop\n        /* \"contracts/StakingRewards/StakingRewards.sol\":4991:5226  function getReward() external updateReward{... */\n    tag_8:\n      callvalue\n      dup1\n      iszero\n      tag_56\n      jumpi\n      revert(0x00, 0x00)\n    tag_56:\n      pop\n      tag_57\n      tag_58\n      jump\t// in\n    tag_57:\n      stop\n        /* \"contracts/StakingRewards/StakingRewards.sol\":1939:1993  function updateReward2() public updateReward{... */\n    tag_9:\n      callvalue\n      dup1\n      iszero\n      tag_59\n      jumpi\n      revert(0x00, 0x00)\n    tag_59:\n      pop\n      tag_60\n      tag_61\n      jump\t// in\n    tag_60:\n      stop\n        /* \"contracts/StakingRewards/StakingRewards.sol\":2568:2657  function getUseEarned() public  returns(uint){... */\n    tag_10:\n      callvalue\n      dup1\n      iszero\n      tag_62\n      jumpi\n      revert(0x00, 0x00)\n    tag_62:\n      pop\n      tag_63\n      tag_64\n      jump\t// in\n    tag_63:\n      mload(0x40)\n      tag_65\n      swap2\n      swap1\n      tag_31\n      jump\t// in\n    tag_65:\n      mload(0x40)\n      dup1\n      swap2\n      sub\n      swap1\n      return\n        /* \"contracts/StakingRewards/StakingRewards.sol\":1022:1063  mapping(address => uint) public balanceOf */\n    tag_11:\n      callvalue\n      dup1\n      iszero\n      tag_66\n      jumpi\n      revert(0x00, 0x00)\n    tag_66:\n      pop\n      tag_67\n      0x04\n      dup1\n      calldatasize\n      sub\n      dup2\n      add\n      swap1\n      tag_68\n      swap2\n      swap1\n      tag_35\n      jump\t// in\n    tag_68:\n      tag_69\n      jump\t// in\n    tag_67:\n      mload(0x40)\n      tag_70\n      swap2\n      swap1\n      tag_31\n      jump\t// in\n    tag_70:\n      mload(0x40)\n      dup1\n      swap2\n      sub\n      swap1\n      return\n        /* \"contracts/StakingRewards/StakingRewards.sol\":345:381  IERC20 public immutable stakingToken */\n    tag_12:\n      callvalue\n      dup1\n      iszero\n      tag_71\n      jumpi\n      revert(0x00, 0x00)\n    tag_71:\n      pop\n      tag_72\n      tag_73\n      jump\t// in\n    tag_72:\n      mload(0x40)\n      tag_74\n      swap2\n      swap1\n      tag_75\n      jump\t// in\n    tag_74:\n      mload(0x40)\n      dup1\n      swap2\n      sub\n      swap1\n      return\n        /* \"contracts/StakingRewards/StakingRewards.sol\":588:612  uint256 public updatedAt */\n    tag_13:\n      callvalue\n      dup1\n      iszero\n      tag_76\n      jumpi\n      revert(0x00, 0x00)\n    tag_76:\n      pop\n      tag_77\n      tag_78\n      jump\t// in\n    tag_77:\n      mload(0x40)\n      tag_79\n      swap2\n      swap1\n      tag_31\n      jump\t// in\n    tag_79:\n      mload(0x40)\n      dup1\n      swap2\n      sub\n      swap1\n      return\n        /* \"contracts/StakingRewards/StakingRewards.sol\":708:733  uint256 public rewardRate */\n    tag_14:\n      callvalue\n      dup1\n      iszero\n      tag_80\n      jumpi\n      revert(0x00, 0x00)\n    tag_80:\n      pop\n      tag_81\n      tag_82\n      jump\t// in\n    tag_81:\n      mload(0x40)\n      tag_83\n      swap2\n      swap1\n      tag_31\n      jump\t// in\n    tag_83:\n      mload(0x40)\n      dup1\n      swap2\n      sub\n      swap1\n      return\n        /* \"contracts/StakingRewards/StakingRewards.sol\":468:488  address public owner */\n    tag_15:\n      callvalue\n      dup1\n      iszero\n      tag_84\n      jumpi\n      revert(0x00, 0x00)\n    tag_84:\n      pop\n      tag_85\n      tag_86\n      jump\t// in\n    tag_85:\n      mload(0x40)\n      tag_87\n      swap2\n      swap1\n      tag_88\n      jump\t// in\n    tag_87:\n      mload(0x40)\n      dup1\n      swap2\n      sub\n      swap1\n      return\n        /* \"contracts/StakingRewards/StakingRewards.sol\":2665:2842  function getUseEarned2() public view returns(uint){... */\n    tag_16:\n      callvalue\n      dup1\n      iszero\n      tag_89\n      jumpi\n      revert(0x00, 0x00)\n    tag_89:\n      pop\n      tag_90\n      tag_91\n      jump\t// in\n    tag_90:\n      mload(0x40)\n      tag_92\n      swap2\n      swap1\n      tag_31\n      jump\t// in\n    tag_92:\n      mload(0x40)\n      dup1\n      swap2\n      sub\n      swap1\n      return\n        /* \"contracts/StakingRewards/StakingRewards.sol\":4339:4692  function stake(uint256 _amont) external payable updateReward{... */\n    tag_17:\n      tag_93\n      0x04\n      dup1\n      calldatasize\n      sub\n      dup2\n      add\n      swap1\n      tag_94\n      swap2\n      swap1\n      tag_46\n      jump\t// in\n    tag_94:\n      tag_95\n      jump\t// in\n    tag_93:\n      stop\n        /* \"contracts/StakingRewards/StakingRewards.sol\":1184:1211  uint256 public totalBalance */\n    tag_18:\n      callvalue\n      dup1\n      iszero\n      tag_96\n      jumpi\n      revert(0x00, 0x00)\n    tag_96:\n      pop\n      tag_97\n      tag_98\n      jump\t// in\n    tag_97:\n      mload(0x40)\n      tag_99\n      swap2\n      swap1\n      tag_31\n      jump\t// in\n    tag_99:\n      mload(0x40)\n      dup1\n      swap2\n      sub\n      swap1\n      return\n        /* \"contracts/StakingRewards/StakingRewards.sol\":408:444  IERC20 public immutable rewardsToken */\n    tag_19:\n      callvalue\n      dup1\n      iszero\n      tag_100\n      jumpi\n      revert(0x00, 0x00)\n    tag_100:\n      pop\n      tag_101\n      tag_102\n      jump\t// in\n    tag_101:\n      mload(0x40)\n      tag_103\n      swap2\n      swap1\n      tag_75\n      jump\t// in\n    tag_103:\n      mload(0x40)\n      dup1\n      swap2\n      sub\n      swap1\n      return\n        /* \"contracts/StakingRewards/StakingRewards.sol\":3140:3288  function _minTime() public   returns(uint min){... */\n    tag_20:\n      callvalue\n      dup1\n      iszero\n      tag_104\n      jumpi\n      revert(0x00, 0x00)\n    tag_104:\n      pop\n      tag_105\n      tag_106\n      jump\t// in\n    tag_105:\n      mload(0x40)\n      tag_107\n      swap2\n      swap1\n      tag_31\n      jump\t// in\n    tag_107:\n      mload(0x40)\n      dup1\n      swap2\n      sub\n      swap1\n      return\n        /* \"contracts/StakingRewards/StakingRewards.sol\":834:869  uint256 public rewardPerTokenStored */\n    tag_21:\n      callvalue\n      dup1\n      iszero\n      tag_108\n      jumpi\n      revert(0x00, 0x00)\n    tag_108:\n      pop\n      tag_109\n      tag_110\n      jump\t// in\n    tag_109:\n      mload(0x40)\n      tag_111\n      swap2\n      swap1\n      tag_31\n      jump\t// in\n    tag_111:\n      mload(0x40)\n      dup1\n      swap2\n      sub\n      swap1\n      return\n        /* \"contracts/StakingRewards/StakingRewards.sol\":3296:3480  function setDuration(uint256 _duration) external onlyOwner{... */\n    tag_22:\n      callvalue\n      dup1\n      iszero\n      tag_112\n      jumpi\n      revert(0x00, 0x00)\n    tag_112:\n      pop\n      tag_113\n      0x04\n      dup1\n      calldatasize\n      sub\n      dup2\n      add\n      swap1\n      tag_114\n      swap2\n      swap1\n      tag_46\n      jump\t// in\n    tag_114:\n      tag_115\n      jump\t// in\n    tag_113:\n      stop\n        /* \"contracts/StakingRewards/StakingRewards.sol\":760:792  uint256 public rewardCoefficient */\n    tag_23:\n      callvalue\n      dup1\n      iszero\n      tag_116\n      jumpi\n      revert(0x00, 0x00)\n    tag_116:\n      pop\n      tag_117\n      tag_118\n      jump\t// in\n    tag_117:\n      mload(0x40)\n      tag_119\n      swap2\n      swap1\n      tag_31\n      jump\t// in\n    tag_119:\n      mload(0x40)\n      dup1\n      swap2\n      sub\n      swap1\n      return\n        /* \"contracts/StakingRewards/StakingRewards.sol\":651:674  uint256 public duration */\n    tag_29:\n      sload(0x03)\n      dup2\n      jump\t// out\n        /* \"contracts/StakingRewards/StakingRewards.sol\":926:980  mapping(address => uint) public rewardPerTokenStoredOf */\n    tag_36:\n      mstore(0x20, 0x07)\n      dup1\n      0x00\n      mstore\n      keccak256(0x00, 0x40)\n      0x00\n      swap2\n      pop\n      swap1\n      pop\n      sload\n      dup2\n      jump\t// out\n        /* \"contracts/StakingRewards/StakingRewards.sol\":1111:1151  mapping(address => uint) public rewardOf */\n    tag_41:\n      mstore(0x20, 0x09)\n      dup1\n      0x00\n      mstore\n      keccak256(0x00, 0x40)\n      0x00\n      swap2\n      pop\n      swap1\n      pop\n      sload\n      dup2\n      jump\t// out\n        /* \"contracts/StakingRewards/StakingRewards.sol\":4718:4963  function withdraw(uint256 _amont) external updateReward{... */\n    tag_47:\n        /* \"contracts/StakingRewards/StakingRewards.sol\":1662:1690  updateRewardPerTokenStored() */\n      tag_121\n        /* \"contracts/StakingRewards/StakingRewards.sol\":1662:1688  updateRewardPerTokenStored */\n      tag_122\n        /* \"contracts/StakingRewards/StakingRewards.sol\":1662:1690  updateRewardPerTokenStored() */\n      jump\t// in\n    tag_121:\n        /* \"contracts/StakingRewards/StakingRewards.sol\":1639:1659  rewardPerTokenStored */\n      0x06\n        /* \"contracts/StakingRewards/StakingRewards.sol\":1639:1690  rewardPerTokenStored = updateRewardPerTokenStored() */\n      dup2\n      swap1\n      sstore\n      pop\n        /* \"contracts/StakingRewards/StakingRewards.sol\":1714:1724  _minTime() */\n      tag_123\n        /* \"contracts/StakingRewards/StakingRewards.sol\":1714:1722  _minTime */\n      tag_106\n        /* \"contracts/StakingRewards/StakingRewards.sol\":1714:1724  _minTime() */\n      jump\t// in\n    tag_123:\n        /* \"contracts/StakingRewards/StakingRewards.sol\":1701:1710  updatedAt */\n      0x02\n        /* \"contracts/StakingRewards/StakingRewards.sol\":1701:1724  updatedAt =  _minTime() */\n      dup2\n      swap1\n      sstore\n      pop\n        /* \"contracts/StakingRewards/StakingRewards.sol\":1770:1771  0 */\n      0x00\n        /* \"contracts/StakingRewards/StakingRewards.sol\":1747:1767  rewardPerTokenStored */\n      sload(0x06)\n        /* \"contracts/StakingRewards/StakingRewards.sol\":1747:1771  rewardPerTokenStored > 0 */\n      gt\n        /* \"contracts/StakingRewards/StakingRewards.sol\":1744:1902  if(rewardPerTokenStored > 0){... */\n      iszero\n      tag_124\n      jumpi\n        /* \"contracts/StakingRewards/StakingRewards.sol\":1810:1818  earned() */\n      tag_125\n        /* \"contracts/StakingRewards/StakingRewards.sol\":1810:1816  earned */\n      tag_126\n        /* \"contracts/StakingRewards/StakingRewards.sol\":1810:1818  earned() */\n      jump\t// in\n    tag_125:\n        /* \"contracts/StakingRewards/StakingRewards.sol\":1787:1795  rewardOf */\n      0x09\n        /* \"contracts/StakingRewards/StakingRewards.sol\":1787:1807  rewardOf[msg.sender] */\n      0x00\n        /* \"contracts/StakingRewards/StakingRewards.sol\":1796:1806  msg.sender */\n      caller\n        /* \"contracts/StakingRewards/StakingRewards.sol\":1787:1807  rewardOf[msg.sender] */\n      0xffffffffffffffffffffffffffffffffffffffff\n      and\n      0xffffffffffffffffffffffffffffffffffffffff\n      and\n      dup2\n      mstore\n      0x20\n      add\n      swap1\n      dup2\n      mstore\n      0x20\n      add\n      0x00\n      keccak256\n        /* \"contracts/StakingRewards/StakingRewards.sol\":1787:1818  rewardOf[msg.sender] = earned() */\n      dup2\n      swap1\n      sstore\n      pop\n        /* \"contracts/StakingRewards/StakingRewards.sol\":1870:1890  rewardPerTokenStored */\n      sload(0x06)\n        /* \"contracts/StakingRewards/StakingRewards.sol\":1833:1855  rewardPerTokenStoredOf */\n      0x07\n        /* \"contracts/StakingRewards/StakingRewards.sol\":1833:1867  rewardPerTokenStoredOf[msg.sender] */\n      0x00\n        /* \"contracts/StakingRewards/StakingRewards.sol\":1856:1866  msg.sender */\n      caller\n        /* \"contracts/StakingRewards/StakingRewards.sol\":1833:1867  rewardPerTokenStoredOf[msg.sender] */\n      0xffffffffffffffffffffffffffffffffffffffff\n      and\n      0xffffffffffffffffffffffffffffffffffffffff\n      and\n      dup2\n      mstore\n      0x20\n      add\n      swap1\n      dup2\n      mstore\n      0x20\n      add\n      0x00\n      keccak256\n        /* \"contracts/StakingRewards/StakingRewards.sol\":1833:1890  rewardPerTokenStoredOf[msg.sender] = rewardPerTokenStored */\n      dup2\n      swap1\n      sstore\n      pop\n        /* \"contracts/StakingRewards/StakingRewards.sol\":1744:1902  if(rewardPerTokenStored > 0){... */\n    tag_124:\n        /* \"contracts/StakingRewards/StakingRewards.sol\":4802:4803  0 */\n      0x00\n        /* \"contracts/StakingRewards/StakingRewards.sol\":4793:4799  _amont */\n      dup2\n        /* \"contracts/StakingRewards/StakingRewards.sol\":4793:4803  _amont > 0 */\n      gt\n        /* \"contracts/StakingRewards/StakingRewards.sol\":4785:4825  require(_amont > 0,\"stake _amont error\") */\n      tag_128\n      jumpi\n      mload(0x40)\n      0x08c379a000000000000000000000000000000000000000000000000000000000\n      dup2\n      mstore\n      0x04\n      add\n      tag_129\n      swap1\n      tag_130\n      jump\t// in\n    tag_129:\n      mload(0x40)\n      dup1\n      swap2\n      sub\n      swap1\n      revert\n    tag_128:\n        /* \"contracts/StakingRewards/StakingRewards.sol\":4853:4859  _amont */\n      dup1\n        /* \"contracts/StakingRewards/StakingRewards.sol\":4837:4849  totalBalance */\n      0x0a\n      0x00\n        /* \"contracts/StakingRewards/StakingRewards.sol\":4837:4859  totalBalance -= _amont */\n      dup3\n      dup3\n      sload\n      tag_131\n      swap2\n      swap1\n      tag_132\n      jump\t// in\n    tag_131:\n      swap3\n      pop\n      pop\n      dup2\n      swap1\n      sstore\n      pop\n        /* \"contracts/StakingRewards/StakingRewards.sol\":4896:4902  _amont */\n      dup1\n        /* \"contracts/StakingRewards/StakingRewards.sol\":4871:4880  balanceOf */\n      0x08\n        /* \"contracts/StakingRewards/StakingRewards.sol\":4871:4892  balanceOf[msg.sender] */\n      0x00\n        /* \"contracts/StakingRewards/StakingRewards.sol\":4881:4891  msg.sender */\n      caller\n        /* \"contracts/StakingRewards/StakingRewards.sol\":4871:4892  balanceOf[msg.sender] */\n      0xffffffffffffffffffffffffffffffffffffffff\n      and\n      0xffffffffffffffffffffffffffffffffffffffff\n      and\n      dup2\n      mstore\n      0x20\n      add\n      swap1\n      dup2\n      mstore\n      0x20\n      add\n      0x00\n      keccak256\n      0x00\n        /* \"contracts/StakingRewards/StakingRewards.sol\":4871:4902  balanceOf[msg.sender] -= _amont */\n      dup3\n      dup3\n      sload\n      tag_133\n      swap2\n      swap1\n      tag_132\n      jump\t// in\n    tag_133:\n      swap3\n      pop\n      pop\n      dup2\n      swap1\n      sstore\n      pop\n        /* \"contracts/StakingRewards/StakingRewards.sol\":4914:4926  stakingToken */\n      immutable(\"0xaf057546d61dd28804ca035e688a36db5f311bb8c4c9d2e1e5e44c0555cfe3bf\")\n        /* \"contracts/StakingRewards/StakingRewards.sol\":4914:4935  stakingToken.transfer */\n      0xffffffffffffffffffffffffffffffffffffffff\n      and\n      0xa9059cbb\n        /* \"contracts/StakingRewards/StakingRewards.sol\":4936:4946  msg.sender */\n      caller\n        /* \"contracts/StakingRewards/StakingRewards.sol\":4948:4954  _amont */\n      dup4\n        /* \"contracts/StakingRewards/StakingRewards.sol\":4914:4955  stakingToken.transfer(msg.sender, _amont) */\n      mload(0x40)\n      dup4\n      0xffffffff\n      and\n      0xe0\n      shl\n      dup2\n      mstore\n      0x04\n      add\n      tag_134\n      swap3\n      swap2\n      swap1\n      tag_135\n      jump\t// in\n    tag_134:\n      0x20\n      mload(0x40)\n      dup1\n      dup4\n      sub\n      dup2\n      0x00\n      dup8\n      gas\n      call\n      iszero\n      dup1\n      iszero\n      tag_137\n      jumpi\n      returndatacopy(0x00, 0x00, returndatasize)\n      revert(0x00, returndatasize)\n    tag_137:\n      pop\n      pop\n      pop\n      pop\n      mload(0x40)\n      returndatasize\n      not(0x1f)\n      0x1f\n      dup3\n      add\n      and\n      dup3\n      add\n      dup1\n      0x40\n      mstore\n      pop\n      dup2\n      add\n      swap1\n      tag_138\n      swap2\n      swap1\n      tag_139\n      jump\t// in\n    tag_138:\n      pop\n        /* \"contracts/StakingRewards/StakingRewards.sol\":4718:4963  function withdraw(uint256 _amont) external updateReward{... */\n      pop\n      jump\t// out\n        /* \"contracts/StakingRewards/StakingRewards.sol\":515:537  uint256 public endTime */\n    tag_50:\n      sload(0x01)\n      dup2\n      jump\t// out\n        /* \"contracts/StakingRewards/StakingRewards.sol\":3565:4309  function notifyRewardAmount(uint256 _amont) external onlyOwner updateReward{... */\n    tag_55:\n        /* \"contracts/StakingRewards/StakingRewards.sol\":1494:1499  owner */\n      0x00\n      0x00\n      swap1\n      sload\n      swap1\n      0x0100\n      exp\n      swap1\n      div\n      0xffffffffffffffffffffffffffffffffffffffff\n      and\n        /* \"contracts/StakingRewards/StakingRewards.sol\":1480:1499  msg.sender == owner */\n      0xffffffffffffffffffffffffffffffffffffffff\n      and\n        /* \"contracts/StakingRewards/StakingRewards.sol\":1480:1490  msg.sender */\n      caller\n        /* \"contracts/StakingRewards/StakingRewards.sol\":1480:1499  msg.sender == owner */\n      0xffffffffffffffffffffffffffffffffffffffff\n      and\n      eq\n        /* \"contracts/StakingRewards/StakingRewards.sol\":1472:1512  require(msg.sender == owner,\"not owner\") */\n      tag_141\n      jumpi\n      mload(0x40)\n      0x08c379a000000000000000000000000000000000000000000000000000000000\n      dup2\n      mstore\n      0x04\n      add\n      tag_142\n      swap1\n      tag_143\n      jump\t// in\n    tag_142:\n      mload(0x40)\n      dup1\n      swap2\n      sub\n      swap1\n      revert\n    tag_141:\n        /* \"contracts/StakingRewards/StakingRewards.sol\":1662:1690  updateRewardPerTokenStored() */\n      tag_145\n        /* \"contracts/StakingRewards/StakingRewards.sol\":1662:1688  updateRewardPerTokenStored */\n      tag_122\n        /* \"contracts/StakingRewards/StakingRewards.sol\":1662:1690  updateRewardPerTokenStored() */\n      jump\t// in\n    tag_145:\n        /* \"contracts/StakingRewards/StakingRewards.sol\":1639:1659  rewardPerTokenStored */\n      0x06\n        /* \"contracts/StakingRewards/StakingRewards.sol\":1639:1690  rewardPerTokenStored = updateRewardPerTokenStored() */\n      dup2\n      swap1\n      sstore\n      pop\n        /* \"contracts/StakingRewards/StakingRewards.sol\":1714:1724  _minTime() */\n      tag_146\n        /* \"contracts/StakingRewards/StakingRewards.sol\":1714:1722  _minTime */\n      tag_106\n        /* \"contracts/StakingRewards/StakingRewards.sol\":1714:1724  _minTime() */\n      jump\t// in\n    tag_146:\n        /* \"contracts/StakingRewards/StakingRewards.sol\":1701:1710  updatedAt */\n      0x02\n        /* \"contracts/StakingRewards/StakingRewards.sol\":1701:1724  updatedAt =  _minTime() */\n      dup2\n      swap1\n      sstore\n      pop\n        /* \"contracts/StakingRewards/StakingRewards.sol\":1770:1771  0 */\n      0x00\n        /* \"contracts/StakingRewards/StakingRewards.sol\":1747:1767  rewardPerTokenStored */\n      sload(0x06)\n        /* \"contracts/StakingRewards/StakingRewards.sol\":1747:1771  rewardPerTokenStored > 0 */\n      gt\n        /* \"contracts/StakingRewards/StakingRewards.sol\":1744:1902  if(rewardPerTokenStored > 0){... */\n      iszero\n      tag_147\n      jumpi\n        /* \"contracts/StakingRewards/StakingRewards.sol\":1810:1818  earned() */\n      tag_148\n        /* \"contracts/StakingRewards/StakingRewards.sol\":1810:1816  earned */\n      tag_126\n        /* \"contracts/StakingRewards/StakingRewards.sol\":1810:1818  earned() */\n      jump\t// in\n    tag_148:\n        /* \"contracts/StakingRewards/StakingRewards.sol\":1787:1795  rewardOf */\n      0x09\n        /* \"contracts/StakingRewards/StakingRewards.sol\":1787:1807  rewardOf[msg.sender] */\n      0x00\n        /* \"contracts/StakingRewards/StakingRewards.sol\":1796:1806  msg.sender */\n      caller\n        /* \"contracts/StakingRewards/StakingRewards.sol\":1787:1807  rewardOf[msg.sender] */\n      0xffffffffffffffffffffffffffffffffffffffff\n      and\n      0xffffffffffffffffffffffffffffffffffffffff\n      and\n      dup2\n      mstore\n      0x20\n      add\n      swap1\n      dup2\n      mstore\n      0x20\n      add\n      0x00\n      keccak256\n        /* \"contracts/StakingRewards/StakingRewards.sol\":1787:1818  rewardOf[msg.sender] = earned() */\n      dup2\n      swap1\n      sstore\n      pop\n        /* \"contracts/StakingRewards/StakingRewards.sol\":1870:1890  rewardPerTokenStored */\n      sload(0x06)\n        /* \"contracts/StakingRewards/StakingRewards.sol\":1833:1855  rewardPerTokenStoredOf */\n      0x07\n        /* \"contracts/StakingRewards/StakingRewards.sol\":1833:1867  rewardPerTokenStoredOf[msg.sender] */\n      0x00\n        /* \"contracts/StakingRewards/StakingRewards.sol\":1856:1866  msg.sender */\n      caller\n        /* \"contracts/StakingRewards/StakingRewards.sol\":1833:1867  rewardPerTokenStoredOf[msg.sender] */\n      0xffffffffffffffffffffffffffffffffffffffff\n      and\n      0xffffffffffffffffffffffffffffffffffffffff\n      and\n      dup2\n      mstore\n      0x20\n      add\n      swap1\n      dup2\n      mstore\n      0x20\n      add\n      0x00\n      keccak256\n        /* \"contracts/StakingRewards/StakingRewards.sol\":1833:1890  rewardPerTokenStoredOf[msg.sender] = rewardPerTokenStored */\n      dup2\n      swap1\n      sstore\n      pop\n        /* \"contracts/StakingRewards/StakingRewards.sol\":1744:1902  if(rewardPerTokenStored > 0){... */\n    tag_147:\n        /* \"contracts/StakingRewards/StakingRewards.sol\":3668:3669  0 */\n      0x00\n        /* \"contracts/StakingRewards/StakingRewards.sol\":3659:3665  _amont */\n      dup2\n        /* \"contracts/StakingRewards/StakingRewards.sol\":3659:3669  _amont > 0 */\n      gt\n        /* \"contracts/StakingRewards/StakingRewards.sol\":3651:3689  require(_amont > 0,\"set _amont error\") */\n      tag_150\n      jumpi\n      mload(0x40)\n      0x08c379a000000000000000000000000000000000000000000000000000000000\n      dup2\n      mstore\n      0x04\n      add\n      tag_151\n      swap1\n      tag_152\n      jump\t// in\n    tag_151:\n      mload(0x40)\n      dup1\n      swap2\n      sub\n      swap1\n      revert\n    tag_150:\n        /* \"contracts/StakingRewards/StakingRewards.sol\":3767:3774  endTime */\n      sload(0x01)\n        /* \"contracts/StakingRewards/StakingRewards.sol\":3749:3764  block.timestamp */\n      timestamp\n        /* \"contracts/StakingRewards/StakingRewards.sol\":3749:3774  block.timestamp > endTime */\n      gt\n        /* \"contracts/StakingRewards/StakingRewards.sol\":3745:4206  if (block.timestamp > endTime){... */\n      iszero\n      tag_153\n      jumpi\n        /* \"contracts/StakingRewards/StakingRewards.sol\":3812:3820  duration */\n      sload(0x03)\n        /* \"contracts/StakingRewards/StakingRewards.sol\":3803:3809  _amont */\n      dup2\n        /* \"contracts/StakingRewards/StakingRewards.sol\":3803:3820  _amont / duration */\n      tag_154\n      swap2\n      swap1\n      tag_155\n      jump\t// in\n    tag_154:\n        /* \"contracts/StakingRewards/StakingRewards.sol\":3790:3800  rewardRate */\n      0x04\n        /* \"contracts/StakingRewards/StakingRewards.sol\":3790:3820  rewardRate = _amont / duration */\n      dup2\n      swap1\n      sstore\n      pop\n        /* \"contracts/StakingRewards/StakingRewards.sol\":3745:4206  if (block.timestamp > endTime){... */\n      jump(tag_156)\n    tag_153:\n        /* \"contracts/StakingRewards/StakingRewards.sol\":4008:4016  duration */\n      sload(0x03)\n        /* \"contracts/StakingRewards/StakingRewards.sol\":3998:4004  _amont */\n      dup2\n        /* \"contracts/StakingRewards/StakingRewards.sol\":3978:3993  block.timestamp */\n      timestamp\n        /* \"contracts/StakingRewards/StakingRewards.sol\":3968:3975  endTime */\n      sload(0x01)\n        /* \"contracts/StakingRewards/StakingRewards.sol\":3968:3993  endTime - block.timestamp */\n      tag_157\n      swap2\n      swap1\n      tag_132\n      jump\t// in\n    tag_157:\n        /* \"contracts/StakingRewards/StakingRewards.sol\":3954:3964  rewardRate */\n      sload(0x04)\n        /* \"contracts/StakingRewards/StakingRewards.sol\":3954:3994  rewardRate * (endTime - block.timestamp) */\n      tag_158\n      swap2\n      swap1\n      tag_159\n      jump\t// in\n    tag_158:\n        /* \"contracts/StakingRewards/StakingRewards.sol\":3953:4004  (rewardRate * (endTime - block.timestamp)) + _amont */\n      tag_160\n      swap2\n      swap1\n      tag_161\n      jump\t// in\n    tag_160:\n        /* \"contracts/StakingRewards/StakingRewards.sol\":3952:4016  ((rewardRate * (endTime - block.timestamp)) + _amont) / duration */\n      tag_162\n      swap2\n      swap1\n      tag_155\n      jump\t// in\n    tag_162:\n        /* \"contracts/StakingRewards/StakingRewards.sol\":3939:3949  rewardRate */\n      0x04\n        /* \"contracts/StakingRewards/StakingRewards.sol\":3939:4016  rewardRate = ((rewardRate * (endTime - block.timestamp)) + _amont) / duration */\n      dup2\n      swap1\n      sstore\n      pop\n        /* \"contracts/StakingRewards/StakingRewards.sol\":4052:4053  0 */\n      0x00\n        /* \"contracts/StakingRewards/StakingRewards.sol\":4039:4049  rewardRate */\n      sload(0x04)\n        /* \"contracts/StakingRewards/StakingRewards.sol\":4039:4053  rewardRate > 0 */\n      gt\n        /* \"contracts/StakingRewards/StakingRewards.sol\":4031:4072  require(rewardRate > 0,\"reward rate = 0\") */\n      tag_163\n      jumpi\n      mload(0x40)\n      0x08c379a000000000000000000000000000000000000000000000000000000000\n      dup2\n      mstore\n      0x04\n      add\n      tag_164\n      swap1\n      tag_165\n      jump\t// in\n    tag_164:\n      mload(0x40)\n      dup1\n      swap2\n      sub\n      swap1\n      revert\n    tag_163:\n        /* \"contracts/StakingRewards/StakingRewards.sol\":4120:4132  rewardsToken */\n      immutable(\"0x5b9d82bdb7ae056a203cf64bdf26f3fdec584cdfaca2ac8b4c3d0c5b66e90969\")\n        /* \"contracts/StakingRewards/StakingRewards.sol\":4120:4142  rewardsToken.balanceOf */\n      0xffffffffffffffffffffffffffffffffffffffff\n      and\n      0x70a08231\n        /* \"contracts/StakingRewards/StakingRewards.sol\":4143:4153  msg.sender */\n      caller\n        /* \"contracts/StakingRewards/StakingRewards.sol\":4120:4154  rewardsToken.balanceOf(msg.sender) */\n      mload(0x40)\n      dup3\n      0xffffffff\n      and\n      0xe0\n      shl\n      dup2\n      mstore\n      0x04\n      add\n      tag_166\n      swap2\n      swap1\n      tag_88\n      jump\t// in\n    tag_166:\n      0x20\n      mload(0x40)\n      dup1\n      dup4\n      sub\n      dup2\n      dup7\n      gas\n      staticcall\n      iszero\n      dup1\n      iszero\n      tag_168\n      jumpi\n      returndatacopy(0x00, 0x00, returndatasize)\n      revert(0x00, returndatasize)\n    tag_168:\n      pop\n      pop\n      pop\n      pop\n      mload(0x40)\n      returndatasize\n      not(0x1f)\n      0x1f\n      dup3\n      add\n      and\n      dup3\n      add\n      dup1\n      0x40\n      mstore\n      pop\n      dup2\n      add\n      swap1\n      tag_169\n      swap2\n      swap1\n      tag_170\n      jump\t// in\n    tag_169:\n        /* \"contracts/StakingRewards/StakingRewards.sol\":4108:4116  duration */\n      sload(0x03)\n        /* \"contracts/StakingRewards/StakingRewards.sol\":4095:4105  rewardRate */\n      sload(0x04)\n        /* \"contracts/StakingRewards/StakingRewards.sol\":4095:4116  rewardRate * duration */\n      tag_171\n      swap2\n      swap1\n      tag_159\n      jump\t// in\n    tag_171:\n        /* \"contracts/StakingRewards/StakingRewards.sol\":4095:4154  rewardRate * duration <= rewardsToken.balanceOf(msg.sender) */\n      gt\n      iszero\n        /* \"contracts/StakingRewards/StakingRewards.sol\":4087:4181  require(rewardRate * duration <= rewardsToken.balanceOf(msg.sender),\"reward amount > balance\") */\n      tag_172\n      jumpi\n      mload(0x40)\n      0x08c379a000000000000000000000000000000000000000000000000000000000\n      dup2\n      mstore\n      0x04\n      add\n      tag_173\n      swap1\n      tag_174\n      jump\t// in\n    tag_173:\n      mload(0x40)\n      dup1\n      swap2\n      sub\n      swap1\n      revert\n    tag_172:\n        /* \"contracts/StakingRewards/StakingRewards.sol\":3745:4206  if (block.timestamp > endTime){... */\n    tag_156:\n        /* \"contracts/StakingRewards/StakingRewards.sol\":4245:4253  duration */\n      sload(0x03)\n        /* \"contracts/StakingRewards/StakingRewards.sol\":4227:4242  block.timestamp */\n      timestamp\n        /* \"contracts/StakingRewards/StakingRewards.sol\":4227:4253  block.timestamp + duration */\n      tag_175\n      swap2\n      swap1\n      tag_161\n      jump\t// in\n    tag_175:\n        /* \"contracts/StakingRewards/StakingRewards.sol\":4217:4224  endTime */\n      0x01\n        /* \"contracts/StakingRewards/StakingRewards.sol\":4217:4253  endTime = block.timestamp + duration */\n      dup2\n      swap1\n      sstore\n      pop\n        /* \"contracts/StakingRewards/StakingRewards.sol\":4276:4291  block.timestamp */\n      timestamp\n        /* \"contracts/StakingRewards/StakingRewards.sol\":4264:4273  updatedAt */\n      0x02\n        /* \"contracts/StakingRewards/StakingRewards.sol\":4264:4291  updatedAt = block.timestamp */\n      dup2\n      swap1\n      sstore\n      pop\n        /* \"contracts/StakingRewards/StakingRewards.sol\":3565:4309  function notifyRewardAmount(uint256 _amont) external onlyOwner updateReward{... */\n      pop\n      jump\t// out\n        /* \"contracts/StakingRewards/StakingRewards.sol\":4991:5226  function getReward() external updateReward{... */\n    tag_58:\n        /* \"contracts/StakingRewards/StakingRewards.sol\":1662:1690  updateRewardPerTokenStored() */\n      tag_177\n        /* \"contracts/StakingRewards/StakingRewards.sol\":1662:1688  updateRewardPerTokenStored */\n      tag_122\n        /* \"contracts/StakingRewards/StakingRewards.sol\":1662:1690  updateRewardPerTokenStored() */\n      jump\t// in\n    tag_177:\n        /* \"contracts/StakingRewards/StakingRewards.sol\":1639:1659  rewardPerTokenStored */\n      0x06\n        /* \"contracts/StakingRewards/StakingRewards.sol\":1639:1690  rewardPerTokenStored = updateRewardPerTokenStored() */\n      dup2\n      swap1\n      sstore\n      pop\n        /* \"contracts/StakingRewards/StakingRewards.sol\":1714:1724  _minTime() */\n      tag_178\n        /* \"contracts/StakingRewards/StakingRewards.sol\":1714:1722  _minTime */\n      tag_106\n        /* \"contracts/StakingRewards/StakingRewards.sol\":1714:1724  _minTime() */\n      jump\t// in\n    tag_178:\n        /* \"contracts/StakingRewards/StakingRewards.sol\":1701:1710  updatedAt */\n      0x02\n        /* \"contracts/StakingRewards/StakingRewards.sol\":1701:1724  updatedAt =  _minTime() */\n      dup2\n      swap1\n      sstore\n      pop\n        /* \"contracts/StakingRewards/StakingRewards.sol\":1770:1771  0 */\n      0x00\n        /* \"contracts/StakingRewards/StakingRewards.sol\":1747:1767  rewardPerTokenStored */\n      sload(0x06)\n        /* \"contracts/StakingRewards/StakingRewards.sol\":1747:1771  rewardPerTokenStored > 0 */\n      gt\n        /* \"contracts/StakingRewards/StakingRewards.sol\":1744:1902  if(rewardPerTokenStored > 0){... */\n      iszero\n      tag_179\n      jumpi\n        /* \"contracts/StakingRewards/StakingRewards.sol\":1810:1818  earned() */\n      tag_180\n        /* \"contracts/StakingRewards/StakingRewards.sol\":1810:1816  earned */\n      tag_126\n        /* \"contracts/StakingRewards/StakingRewards.sol\":1810:1818  earned() */\n      jump\t// in\n    tag_180:\n        /* \"contracts/StakingRewards/StakingRewards.sol\":1787:1795  rewardOf */\n      0x09\n        /* \"contracts/StakingRewards/StakingRewards.sol\":1787:1807  rewardOf[msg.sender] */\n      0x00\n        /* \"contracts/StakingRewards/StakingRewards.sol\":1796:1806  msg.sender */\n      caller\n        /* \"contracts/StakingRewards/StakingRewards.sol\":1787:1807  rewardOf[msg.sender] */\n      0xffffffffffffffffffffffffffffffffffffffff\n      and\n      0xffffffffffffffffffffffffffffffffffffffff\n      and\n      dup2\n      mstore\n      0x20\n      add\n      swap1\n      dup2\n      mstore\n      0x20\n      add\n      0x00\n      keccak256\n        /* \"contracts/StakingRewards/StakingRewards.sol\":1787:1818  rewardOf[msg.sender] = earned() */\n      dup2\n      swap1\n      sstore\n      pop\n        /* \"contracts/StakingRewards/StakingRewards.sol\":1870:1890  rewardPerTokenStored */\n      sload(0x06)\n        /* \"contracts/StakingRewards/StakingRewards.sol\":1833:1855  rewardPerTokenStoredOf */\n      0x07\n        /* \"contracts/StakingRewards/StakingRewards.sol\":1833:1867  rewardPerTokenStoredOf[msg.sender] */\n      0x00\n        /* \"contracts/StakingRewards/StakingRewards.sol\":1856:1866  msg.sender */\n      caller\n        /* \"contracts/StakingRewards/StakingRewards.sol\":1833:1867  rewardPerTokenStoredOf[msg.sender] */\n      0xffffffffffffffffffffffffffffffffffffffff\n      and\n      0xffffffffffffffffffffffffffffffffffffffff\n      and\n      dup2\n      mstore\n      0x20\n      add\n      swap1\n      dup2\n      mstore\n      0x20\n      add\n      0x00\n      keccak256\n        /* \"contracts/StakingRewards/StakingRewards.sol\":1833:1890  rewardPerTokenStoredOf[msg.sender] = rewardPerTokenStored */\n      dup2\n      swap1\n      sstore\n      pop\n        /* \"contracts/StakingRewards/StakingRewards.sol\":1744:1902  if(rewardPerTokenStored > 0){... */\n    tag_179:\n        /* \"contracts/StakingRewards/StakingRewards.sol\":5044:5059  uint256 rewards */\n      0x00\n        /* \"contracts/StakingRewards/StakingRewards.sol\":5062:5070  rewardOf */\n      0x09\n        /* \"contracts/StakingRewards/StakingRewards.sol\":5062:5082  rewardOf[msg.sender] */\n      0x00\n        /* \"contracts/StakingRewards/StakingRewards.sol\":5071:5081  msg.sender */\n      caller\n        /* \"contracts/StakingRewards/StakingRewards.sol\":5062:5082  rewardOf[msg.sender] */\n      0xffffffffffffffffffffffffffffffffffffffff\n      and\n      0xffffffffffffffffffffffffffffffffffffffff\n      and\n      dup2\n      mstore\n      0x20\n      add\n      swap1\n      dup2\n      mstore\n      0x20\n      add\n      0x00\n      keccak256\n      sload\n        /* \"contracts/StakingRewards/StakingRewards.sol\":5044:5082  uint256 rewards = rewardOf[msg.sender] */\n      swap1\n      pop\n        /* \"contracts/StakingRewards/StakingRewards.sol\":5107:5108  0 */\n      0x00\n        /* \"contracts/StakingRewards/StakingRewards.sol\":5097:5104  rewards */\n      dup2\n        /* \"contracts/StakingRewards/StakingRewards.sol\":5097:5108  rewards > 0 */\n      gt\n        /* \"contracts/StakingRewards/StakingRewards.sol\":5093:5217  if (rewards > 0){... */\n      iszero\n      tag_182\n      jumpi\n        /* \"contracts/StakingRewards/StakingRewards.sol\":5147:5148  0 */\n      0x00\n        /* \"contracts/StakingRewards/StakingRewards.sol\":5124:5132  rewardOf */\n      0x09\n        /* \"contracts/StakingRewards/StakingRewards.sol\":5124:5144  rewardOf[msg.sender] */\n      0x00\n        /* \"contracts/StakingRewards/StakingRewards.sol\":5133:5143  msg.sender */\n      caller\n        /* \"contracts/StakingRewards/StakingRewards.sol\":5124:5144  rewardOf[msg.sender] */\n      0xffffffffffffffffffffffffffffffffffffffff\n      and\n      0xffffffffffffffffffffffffffffffffffffffff\n      and\n      dup2\n      mstore\n      0x20\n      add\n      swap1\n      dup2\n      mstore\n      0x20\n      add\n      0x00\n      keccak256\n        /* \"contracts/StakingRewards/StakingRewards.sol\":5124:5148  rewardOf[msg.sender] = 0 */\n      dup2\n      swap1\n      sstore\n      pop\n        /* \"contracts/StakingRewards/StakingRewards.sol\":5163:5175  rewardsToken */\n      immutable(\"0x5b9d82bdb7ae056a203cf64bdf26f3fdec584cdfaca2ac8b4c3d0c5b66e90969\")\n        /* \"contracts/StakingRewards/StakingRewards.sol\":5163:5184  rewardsToken.transfer */\n      0xffffffffffffffffffffffffffffffffffffffff\n      and\n      0xa9059cbb\n        /* \"contracts/StakingRewards/StakingRewards.sol\":5185:5195  msg.sender */\n      caller\n        /* \"contracts/StakingRewards/StakingRewards.sol\":5197:5204  rewards */\n      dup4\n        /* \"contracts/StakingRewards/StakingRewards.sol\":5163:5205  rewardsToken.transfer(msg.sender, rewards) */\n      mload(0x40)\n      dup4\n      0xffffffff\n      and\n      0xe0\n      shl\n      dup2\n      mstore\n      0x04\n      add\n      tag_183\n      swap3\n      swap2\n      swap1\n      tag_135\n      jump\t// in\n    tag_183:\n      0x20\n      mload(0x40)\n      dup1\n      dup4\n      sub\n      dup2\n      0x00\n      dup8\n      gas\n      call\n      iszero\n      dup1\n      iszero\n      tag_185\n      jumpi\n      returndatacopy(0x00, 0x00, returndatasize)\n      revert(0x00, returndatasize)\n    tag_185:\n      pop\n      pop\n      pop\n      pop\n      mload(0x40)\n      returndatasize\n      not(0x1f)\n      0x1f\n      dup3\n      add\n      and\n      dup3\n      add\n      dup1\n      0x40\n      mstore\n      pop\n      dup2\n      add\n      swap1\n      tag_186\n      swap2\n      swap1\n      tag_139\n      jump\t// in\n    tag_186:\n      pop\n        /* \"contracts/StakingRewards/StakingRewards.sol\":5093:5217  if (rewards > 0){... */\n    tag_182:\n        /* \"contracts/StakingRewards/StakingRewards.sol\":5033:5226  {... */\n      pop\n        /* \"contracts/StakingRewards/StakingRewards.sol\":4991:5226  function getReward() external updateReward{... */\n      jump\t// out\n        /* \"contracts/StakingRewards/StakingRewards.sol\":1939:1993  function updateReward2() public updateReward{... */\n    tag_61:\n        /* \"contracts/StakingRewards/StakingRewards.sol\":1662:1690  updateRewardPerTokenStored() */\n      tag_188\n        /* \"contracts/StakingRewards/StakingRewards.sol\":1662:1688  updateRewardPerTokenStored */\n      tag_122\n        /* \"contracts/StakingRewards/StakingRewards.sol\":1662:1690  updateRewardPerTokenStored() */\n      jump\t// in\n    tag_188:\n        /* \"contracts/StakingRewards/StakingRewards.sol\":1639:1659  rewardPerTokenStored */\n      0x06\n        /* \"contracts/StakingRewards/StakingRewards.sol\":1639:1690  rewardPerTokenStored = updateRewardPerTokenStored() */\n      dup2\n      swap1\n      sstore\n      pop\n        /* \"contracts/StakingRewards/StakingRewards.sol\":1714:1724  _minTime() */\n      tag_189\n        /* \"contracts/StakingRewards/StakingRewards.sol\":1714:1722  _minTime */\n      tag_106\n        /* \"contracts/StakingRewards/StakingRewards.sol\":1714:1724  _minTime() */\n      jump\t// in\n    tag_189:\n        /* \"contracts/StakingRewards/StakingRewards.sol\":1701:1710  updatedAt */\n      0x02\n        /* \"contracts/StakingRewards/StakingRewards.sol\":1701:1724  updatedAt =  _minTime() */\n      dup2\n      swap1\n      sstore\n      pop\n        /* \"contracts/StakingRewards/StakingRewards.sol\":1770:1771  0 */\n      0x00\n        /* \"contracts/StakingRewards/StakingRewards.sol\":1747:1767  rewardPerTokenStored */\n      sload(0x06)\n        /* \"contracts/StakingRewards/StakingRewards.sol\":1747:1771  rewardPerTokenStored > 0 */\n      gt\n        /* \"contracts/StakingRewards/StakingRewards.sol\":1744:1902  if(rewardPerTokenStored > 0){... */\n      iszero\n      tag_190\n      jumpi\n        /* \"contracts/StakingRewards/StakingRewards.sol\":1810:1818  earned() */\n      tag_191\n        /* \"contracts/StakingRewards/StakingRewards.sol\":1810:1816  earned */\n      tag_126\n        /* \"contracts/StakingRewards/StakingRewards.sol\":1810:1818  earned() */\n      jump\t// in\n    tag_191:\n        /* \"contracts/StakingRewards/StakingRewards.sol\":1787:1795  rewardOf */\n      0x09\n        /* \"contracts/StakingRewards/StakingRewards.sol\":1787:1807  rewardOf[msg.sender] */\n      0x00\n        /* \"contracts/StakingRewards/StakingRewards.sol\":1796:1806  msg.sender */\n      caller\n        /* \"contracts/StakingRewards/StakingRewards.sol\":1787:1807  rewardOf[msg.sender] */\n      0xffffffffffffffffffffffffffffffffffffffff\n      and\n      0xffffffffffffffffffffffffffffffffffffffff\n      and\n      dup2\n      mstore\n      0x20\n      add\n      swap1\n      dup2\n      mstore\n      0x20\n      add\n      0x00\n      keccak256\n        /* \"contracts/StakingRewards/StakingRewards.sol\":1787:1818  rewardOf[msg.sender] = earned() */\n      dup2\n      swap1\n      sstore\n      pop\n        /* \"contracts/StakingRewards/StakingRewards.sol\":1870:1890  rewardPerTokenStored */\n      sload(0x06)\n        /* \"contracts/StakingRewards/StakingRewards.sol\":1833:1855  rewardPerTokenStoredOf */\n      0x07\n        /* \"contracts/StakingRewards/StakingRewards.sol\":1833:1867  rewardPerTokenStoredOf[msg.sender] */\n      0x00\n        /* \"contracts/StakingRewards/StakingRewards.sol\":1856:1866  msg.sender */\n      caller\n        /* \"contracts/StakingRewards/StakingRewards.sol\":1833:1867  rewardPerTokenStoredOf[msg.sender] */\n      0xffffffffffffffffffffffffffffffffffffffff\n      and\n      0xffffffffffffffffffffffffffffffffffffffff\n      and\n      dup2\n      mstore\n      0x20\n      add\n      swap1\n      dup2\n      mstore\n      0x20\n      add\n      0x00\n      keccak256\n        /* \"contracts/StakingRewards/StakingRewards.sol\":1833:1890  rewardPerTokenStoredOf[msg.sender] = rewardPerTokenStored */\n      dup2\n      swap1\n      sstore\n      pop\n        /* \"contracts/StakingRewards/StakingRewards.sol\":1744:1902  if(rewardPerTokenStored > 0){... */\n    tag_190:\n        /* \"contracts/StakingRewards/StakingRewards.sol\":1939:1993  function updateReward2() public updateReward{... */\n      jump\t// out\n        /* \"contracts/StakingRewards/StakingRewards.sol\":2568:2657  function getUseEarned() public  returns(uint){... */\n    tag_64:\n        /* \"contracts/StakingRewards/StakingRewards.sol\":2608:2612  uint */\n      0x00\n        /* \"contracts/StakingRewards/StakingRewards.sol\":2641:2649  earned() */\n      tag_194\n        /* \"contracts/StakingRewards/StakingRewards.sol\":2641:2647  earned */\n      tag_126\n        /* \"contracts/StakingRewards/StakingRewards.sol\":2641:2649  earned() */\n      jump\t// in\n    tag_194:\n        /* \"contracts/StakingRewards/StakingRewards.sol\":2634:2649  return earned() */\n      swap1\n      pop\n        /* \"contracts/StakingRewards/StakingRewards.sol\":2568:2657  function getUseEarned() public  returns(uint){... */\n      swap1\n      jump\t// out\n        /* \"contracts/StakingRewards/StakingRewards.sol\":1022:1063  mapping(address => uint) public balanceOf */\n    tag_69:\n      mstore(0x20, 0x08)\n      dup1\n      0x00\n      mstore\n      keccak256(0x00, 0x40)\n      0x00\n      swap2\n      pop\n      swap1\n      pop\n      sload\n      dup2\n      jump\t// out\n        /* \"contracts/StakingRewards/StakingRewards.sol\":345:381  IERC20 public immutable stakingToken */\n    tag_73:\n      immutable(\"0xaf057546d61dd28804ca035e688a36db5f311bb8c4c9d2e1e5e44c0555cfe3bf\")\n      dup2\n      jump\t// out\n        /* \"contracts/StakingRewards/StakingRewards.sol\":588:612  uint256 public updatedAt */\n    tag_78:\n      sload(0x02)\n      dup2\n      jump\t// out\n        /* \"contracts/StakingRewards/StakingRewards.sol\":708:733  uint256 public rewardRate */\n    tag_82:\n      sload(0x04)\n      dup2\n      jump\t// out\n        /* \"contracts/StakingRewards/StakingRewards.sol\":468:488  address public owner */\n    tag_86:\n      0x00\n      0x00\n      swap1\n      sload\n      swap1\n      0x0100\n      exp\n      swap1\n      div\n      0xffffffffffffffffffffffffffffffffffffffff\n      and\n      dup2\n      jump\t// out\n        /* \"contracts/StakingRewards/StakingRewards.sol\":2665:2842  function getUseEarned2() public view returns(uint){... */\n    tag_91:\n        /* \"contracts/StakingRewards/StakingRewards.sol\":2710:2714  uint */\n      0x00\n        /* \"contracts/StakingRewards/StakingRewards.sol\":2814:2822  rewardOf */\n      0x09\n        /* \"contracts/StakingRewards/StakingRewards.sol\":2814:2834  rewardOf[msg.sender] */\n      0x00\n        /* \"contracts/StakingRewards/StakingRewards.sol\":2823:2833  msg.sender */\n      caller\n        /* \"contracts/StakingRewards/StakingRewards.sol\":2814:2834  rewardOf[msg.sender] */\n      0xffffffffffffffffffffffffffffffffffffffff\n      and\n      0xffffffffffffffffffffffffffffffffffffffff\n      and\n      dup2\n      mstore\n      0x20\n      add\n      swap1\n      dup2\n      mstore\n      0x20\n      add\n      0x00\n      keccak256\n      sload\n        /* \"contracts/StakingRewards/StakingRewards.sol\":2807:2811  1e18 */\n      0x0de0b6b3a7640000\n        /* \"contracts/StakingRewards/StakingRewards.sol\":2783:2792  balanceOf */\n      0x08\n        /* \"contracts/StakingRewards/StakingRewards.sol\":2783:2804  balanceOf[msg.sender] */\n      0x00\n        /* \"contracts/StakingRewards/StakingRewards.sol\":2793:2803  msg.sender */\n      caller\n        /* \"contracts/StakingRewards/StakingRewards.sol\":2783:2804  balanceOf[msg.sender] */\n      0xffffffffffffffffffffffffffffffffffffffff\n      and\n      0xffffffffffffffffffffffffffffffffffffffff\n      and\n      dup2\n      mstore\n      0x20\n      add\n      swap1\n      dup2\n      mstore\n      0x20\n      add\n      0x00\n      keccak256\n      sload\n        /* \"contracts/StakingRewards/StakingRewards.sol\":2774:2778  1e18 */\n      0x0de0b6b3a7640000\n        /* \"contracts/StakingRewards/StakingRewards.sol\":2758:2770  totalBalance */\n      sload(0x0a)\n        /* \"contracts/StakingRewards/StakingRewards.sol\":2745:2755  rewardRate */\n      sload(0x04)\n        /* \"contracts/StakingRewards/StakingRewards.sol\":2745:2770  rewardRate / totalBalance */\n      tag_196\n      swap2\n      swap1\n      tag_155\n      jump\t// in\n    tag_196:\n        /* \"contracts/StakingRewards/StakingRewards.sol\":2744:2778  (rewardRate / totalBalance) * 1e18 */\n      tag_197\n      swap2\n      swap1\n      tag_159\n      jump\t// in\n    tag_197:\n        /* \"contracts/StakingRewards/StakingRewards.sol\":2743:2804  ((rewardRate / totalBalance) * 1e18) *  balanceOf[msg.sender] */\n      tag_198\n      swap2\n      swap1\n      tag_159\n      jump\t// in\n    tag_198:\n        /* \"contracts/StakingRewards/StakingRewards.sol\":2743:2811  ((rewardRate / totalBalance) * 1e18) *  balanceOf[msg.sender] / 1e18 */\n      tag_199\n      swap2\n      swap1\n      tag_155\n      jump\t// in\n    tag_199:\n        /* \"contracts/StakingRewards/StakingRewards.sol\":2743:2834  ((rewardRate / totalBalance) * 1e18) *  balanceOf[msg.sender] / 1e18 + rewardOf[msg.sender] */\n      tag_200\n      swap2\n      swap1\n      tag_161\n      jump\t// in\n    tag_200:\n        /* \"contracts/StakingRewards/StakingRewards.sol\":2736:2834  return ((rewardRate / totalBalance) * 1e18) *  balanceOf[msg.sender] / 1e18 + rewardOf[msg.sender] */\n      swap1\n      pop\n        /* \"contracts/StakingRewards/StakingRewards.sol\":2665:2842  function getUseEarned2() public view returns(uint){... */\n      swap1\n      jump\t// out\n        /* \"contracts/StakingRewards/StakingRewards.sol\":4339:4692  function stake(uint256 _amont) external payable updateReward{... */\n    tag_95:\n        /* \"contracts/StakingRewards/StakingRewards.sol\":1662:1690  updateRewardPerTokenStored() */\n      tag_202\n        /* \"contracts/StakingRewards/StakingRewards.sol\":1662:1688  updateRewardPerTokenStored */\n      tag_122\n        /* \"contracts/StakingRewards/StakingRewards.sol\":1662:1690  updateRewardPerTokenStored() */\n      jump\t// in\n    tag_202:\n        /* \"contracts/StakingRewards/StakingRewards.sol\":1639:1659  rewardPerTokenStored */\n      0x06\n        /* \"contracts/StakingRewards/StakingRewards.sol\":1639:1690  rewardPerTokenStored = updateRewardPerTokenStored() */\n      dup2\n      swap1\n      sstore\n      pop\n        /* \"contracts/StakingRewards/StakingRewards.sol\":1714:1724  _minTime() */\n      tag_203\n        /* \"contracts/StakingRewards/StakingRewards.sol\":1714:1722  _minTime */\n      tag_106\n        /* \"contracts/StakingRewards/StakingRewards.sol\":1714:1724  _minTime() */\n      jump\t// in\n    tag_203:\n        /* \"contracts/StakingRewards/StakingRewards.sol\":1701:1710  updatedAt */\n      0x02\n        /* \"contracts/StakingRewards/StakingRewards.sol\":1701:1724  updatedAt =  _minTime() */\n      dup2\n      swap1\n      sstore\n      pop\n        /* \"contracts/StakingRewards/StakingRewards.sol\":1770:1771  0 */\n      0x00\n        /* \"contracts/StakingRewards/StakingRewards.sol\":1747:1767  rewardPerTokenStored */\n      sload(0x06)\n        /* \"contracts/StakingRewards/StakingRewards.sol\":1747:1771  rewardPerTokenStored > 0 */\n      gt\n        /* \"contracts/StakingRewards/StakingRewards.sol\":1744:1902  if(rewardPerTokenStored > 0){... */\n      iszero\n      tag_204\n      jumpi\n        /* \"contracts/StakingRewards/StakingRewards.sol\":1810:1818  earned() */\n      tag_205\n        /* \"contracts/StakingRewards/StakingRewards.sol\":1810:1816  earned */\n      tag_126\n        /* \"contracts/StakingRewards/StakingRewards.sol\":1810:1818  earned() */\n      jump\t// in\n    tag_205:\n        /* \"contracts/StakingRewards/StakingRewards.sol\":1787:1795  rewardOf */\n      0x09\n        /* \"contracts/StakingRewards/StakingRewards.sol\":1787:1807  rewardOf[msg.sender] */\n      0x00\n        /* \"contracts/StakingRewards/StakingRewards.sol\":1796:1806  msg.sender */\n      caller\n        /* \"contracts/StakingRewards/StakingRewards.sol\":1787:1807  rewardOf[msg.sender] */\n      0xffffffffffffffffffffffffffffffffffffffff\n      and\n      0xffffffffffffffffffffffffffffffffffffffff\n      and\n      dup2\n      mstore\n      0x20\n      add\n      swap1\n      dup2\n      mstore\n      0x20\n      add\n      0x00\n      keccak256\n        /* \"contracts/StakingRewards/StakingRewards.sol\":1787:1818  rewardOf[msg.sender] = earned() */\n      dup2\n      swap1\n      sstore\n      pop\n        /* \"contracts/StakingRewards/StakingRewards.sol\":1870:1890  rewardPerTokenStored */\n      sload(0x06)\n        /* \"contracts/StakingRewards/StakingRewards.sol\":1833:1855  rewardPerTokenStoredOf */\n      0x07\n        /* \"contracts/StakingRewards/StakingRewards.sol\":1833:1867  rewardPerTokenStoredOf[msg.sender] */\n      0x00\n        /* \"contracts/StakingRewards/StakingRewards.sol\":1856:1866  msg.sender */\n      caller\n        /* \"contracts/StakingRewards/StakingRewards.sol\":1833:1867  rewardPerTokenStoredOf[msg.sender] */\n      0xffffffffffffffffffffffffffffffffffffffff\n      and\n      0xffffffffffffffffffffffffffffffffffffffff\n      and\n      dup2\n      mstore\n      0x20\n      add\n      swap1\n      dup2\n      mstore\n      0x20\n      add\n      0x00\n      keccak256\n        /* \"contracts/StakingRewards/StakingRewards.sol\":1833:1890  rewardPerTokenStoredOf[msg.sender] = rewardPerTokenStored */\n      dup2\n      swap1\n      sstore\n      pop\n        /* \"contracts/StakingRewards/StakingRewards.sol\":1744:1902  if(rewardPerTokenStored > 0){... */\n    tag_204:\n        /* \"contracts/StakingRewards/StakingRewards.sol\":4428:4429  0 */\n      0x00\n        /* \"contracts/StakingRewards/StakingRewards.sol\":4419:4425  _amont */\n      dup2\n        /* \"contracts/StakingRewards/StakingRewards.sol\":4419:4429  _amont > 0 */\n      gt\n        /* \"contracts/StakingRewards/StakingRewards.sol\":4411:4451  require(_amont > 0,\"stake _amont error\") */\n      tag_207\n      jumpi\n      mload(0x40)\n      0x08c379a000000000000000000000000000000000000000000000000000000000\n      dup2\n      mstore\n      0x04\n      add\n      tag_208\n      swap1\n      tag_130\n      jump\t// in\n    tag_208:\n      mload(0x40)\n      dup1\n      swap2\n      sub\n      swap1\n      revert\n    tag_207:\n        /* \"contracts/StakingRewards/StakingRewards.sol\":4509:4515  _amont */\n      dup1\n        /* \"contracts/StakingRewards/StakingRewards.sol\":4471:4483  stakingToken */\n      immutable(\"0xaf057546d61dd28804ca035e688a36db5f311bb8c4c9d2e1e5e44c0555cfe3bf\")\n        /* \"contracts/StakingRewards/StakingRewards.sol\":4471:4493  stakingToken.balanceOf */\n      0xffffffffffffffffffffffffffffffffffffffff\n      and\n      0x70a08231\n        /* \"contracts/StakingRewards/StakingRewards.sol\":4494:4504  msg.sender */\n      caller\n        /* \"contracts/StakingRewards/StakingRewards.sol\":4471:4505  stakingToken.balanceOf(msg.sender) */\n      mload(0x40)\n      dup3\n      0xffffffff\n      and\n      0xe0\n      shl\n      dup2\n      mstore\n      0x04\n      add\n      tag_209\n      swap2\n      swap1\n      tag_88\n      jump\t// in\n    tag_209:\n      0x20\n      mload(0x40)\n      dup1\n      dup4\n      sub\n      dup2\n      dup7\n      gas\n      staticcall\n      iszero\n      dup1\n      iszero\n      tag_211\n      jumpi\n      returndatacopy(0x00, 0x00, returndatasize)\n      revert(0x00, returndatasize)\n    tag_211:\n      pop\n      pop\n      pop\n      pop\n      mload(0x40)\n      returndatasize\n      not(0x1f)\n      0x1f\n      dup3\n      add\n      and\n      dup3\n      add\n      dup1\n      0x40\n      mstore\n      pop\n      dup2\n      add\n      swap1\n      tag_212\n      swap2\n      swap1\n      tag_170\n      jump\t// in\n    tag_212:\n        /* \"contracts/StakingRewards/StakingRewards.sol\":4471:4515  stakingToken.balanceOf(msg.sender) >= _amont */\n      lt\n      iszero\n        /* \"contracts/StakingRewards/StakingRewards.sol\":4463:4535  require(stakingToken.balanceOf(msg.sender) >= _amont,\"money not enough\") */\n      tag_213\n      jumpi\n      mload(0x40)\n      0x08c379a000000000000000000000000000000000000000000000000000000000\n      dup2\n      mstore\n      0x04\n      add\n      tag_214\n      swap1\n      tag_215\n      jump\t// in\n    tag_214:\n      mload(0x40)\n      dup1\n      swap2\n      sub\n      swap1\n      revert\n    tag_213:\n        /* \"contracts/StakingRewards/StakingRewards.sol\":4563:4569  _amont */\n      dup1\n        /* \"contracts/StakingRewards/StakingRewards.sol\":4547:4559  totalBalance */\n      0x0a\n      0x00\n        /* \"contracts/StakingRewards/StakingRewards.sol\":4547:4569  totalBalance += _amont */\n      dup3\n      dup3\n      sload\n      tag_216\n      swap2\n      swap1\n      tag_161\n      jump\t// in\n    tag_216:\n      swap3\n      pop\n      pop\n      dup2\n      swap1\n      sstore\n      pop\n        /* \"contracts/StakingRewards/StakingRewards.sol\":4606:4612  _amont */\n      dup1\n        /* \"contracts/StakingRewards/StakingRewards.sol\":4581:4590  balanceOf */\n      0x08\n        /* \"contracts/StakingRewards/StakingRewards.sol\":4581:4602  balanceOf[msg.sender] */\n      0x00\n        /* \"contracts/StakingRewards/StakingRewards.sol\":4591:4601  msg.sender */\n      caller\n        /* \"contracts/StakingRewards/StakingRewards.sol\":4581:4602  balanceOf[msg.sender] */\n      0xffffffffffffffffffffffffffffffffffffffff\n      and\n      0xffffffffffffffffffffffffffffffffffffffff\n      and\n      dup2\n      mstore\n      0x20\n      add\n      swap1\n      dup2\n      mstore\n      0x20\n      add\n      0x00\n      keccak256\n      0x00\n        /* \"contracts/StakingRewards/StakingRewards.sol\":4581:4612  balanceOf[msg.sender] += _amont */\n      dup3\n      dup3\n      sload\n      tag_217\n      swap2\n      swap1\n      tag_161\n      jump\t// in\n    tag_217:\n      swap3\n      pop\n      pop\n      dup2\n      swap1\n      sstore\n      pop\n        /* \"contracts/StakingRewards/StakingRewards.sol\":4624:4636  stakingToken */\n      immutable(\"0xaf057546d61dd28804ca035e688a36db5f311bb8c4c9d2e1e5e44c0555cfe3bf\")\n        /* \"contracts/StakingRewards/StakingRewards.sol\":4624:4649  stakingToken.transferFrom */\n      0xffffffffffffffffffffffffffffffffffffffff\n      and\n      0x23b872dd\n        /* \"contracts/StakingRewards/StakingRewards.sol\":4650:4660  msg.sender */\n      caller\n        /* \"contracts/StakingRewards/StakingRewards.sol\":4670:4674  this */\n      address\n        /* \"contracts/StakingRewards/StakingRewards.sol\":4677:4683  _amont */\n      dup5\n        /* \"contracts/StakingRewards/StakingRewards.sol\":4624:4684  stakingToken.transferFrom(msg.sender, address(this), _amont) */\n      mload(0x40)\n      dup5\n      0xffffffff\n      and\n      0xe0\n      shl\n      dup2\n      mstore\n      0x04\n      add\n      tag_218\n      swap4\n      swap3\n      swap2\n      swap1\n      tag_219\n      jump\t// in\n    tag_218:\n      0x20\n      mload(0x40)\n      dup1\n      dup4\n      sub\n      dup2\n      0x00\n      dup8\n      gas\n      call\n      iszero\n      dup1\n      iszero\n      tag_221\n      jumpi\n      returndatacopy(0x00, 0x00, returndatasize)\n      revert(0x00, returndatasize)\n    tag_221:\n      pop\n      pop\n      pop\n      pop\n      mload(0x40)\n      returndatasize\n      not(0x1f)\n      0x1f\n      dup3\n      add\n      and\n      dup3\n      add\n      dup1\n      0x40\n      mstore\n      pop\n      dup2\n      add\n      swap1\n      tag_222\n      swap2\n      swap1\n      tag_139\n      jump\t// in\n    tag_222:\n      pop\n        /* \"contracts/StakingRewards/StakingRewards.sol\":4339:4692  function stake(uint256 _amont) external payable updateReward{... */\n      pop\n      jump\t// out\n        /* \"contracts/StakingRewards/StakingRewards.sol\":1184:1211  uint256 public totalBalance */\n    tag_98:\n      sload(0x0a)\n      dup2\n      jump\t// out\n        /* \"contracts/StakingRewards/StakingRewards.sol\":408:444  IERC20 public immutable rewardsToken */\n    tag_102:\n      immutable(\"0x5b9d82bdb7ae056a203cf64bdf26f3fdec584cdfaca2ac8b4c3d0c5b66e90969\")\n      dup2\n      jump\t// out\n        /* \"contracts/StakingRewards/StakingRewards.sol\":3140:3288  function _minTime() public   returns(uint min){... */\n    tag_106:\n        /* \"contracts/StakingRewards/StakingRewards.sol\":3177:3185  uint min */\n      0x00\n        /* \"contracts/StakingRewards/StakingRewards.sol\":3221:3228  endTime */\n      sload(0x01)\n        /* \"contracts/StakingRewards/StakingRewards.sol\":3203:3218  block.timestamp */\n      timestamp\n        /* \"contracts/StakingRewards/StakingRewards.sol\":3203:3228  block.timestamp > endTime */\n      gt\n        /* \"contracts/StakingRewards/StakingRewards.sol\":3203:3256  block.timestamp > endTime ? endTime : block.timestamp */\n      tag_224\n      jumpi\n        /* \"contracts/StakingRewards/StakingRewards.sol\":3241:3256  block.timestamp */\n      timestamp\n        /* \"contracts/StakingRewards/StakingRewards.sol\":3203:3256  block.timestamp > endTime ? endTime : block.timestamp */\n      jump(tag_225)\n    tag_224:\n        /* \"contracts/StakingRewards/StakingRewards.sol\":3231:3238  endTime */\n      sload(0x01)\n        /* \"contracts/StakingRewards/StakingRewards.sol\":3203:3256  block.timestamp > endTime ? endTime : block.timestamp */\n    tag_225:\n        /* \"contracts/StakingRewards/StakingRewards.sol\":3197:3256  min = block.timestamp > endTime ? endTime : block.timestamp */\n      swap1\n      pop\n        /* \"contracts/StakingRewards/StakingRewards.sol\":3272:3280  Log(min) */\n      0x909c57d5c6ac08245cf2a6de3900e2b868513fa59099b92b27d8db823d92df9c\n        /* \"contracts/StakingRewards/StakingRewards.sol\":3276:3279  min */\n      dup2\n        /* \"contracts/StakingRewards/StakingRewards.sol\":3272:3280  Log(min) */\n      mload(0x40)\n      tag_226\n      swap2\n      swap1\n      tag_31\n      jump\t// in\n    tag_226:\n      mload(0x40)\n      dup1\n      swap2\n      sub\n      swap1\n      log1\n        /* \"contracts/StakingRewards/StakingRewards.sol\":3140:3288  function _minTime() public   returns(uint min){... */\n      swap1\n      jump\t// out\n        /* \"contracts/StakingRewards/StakingRewards.sol\":834:869  uint256 public rewardPerTokenStored */\n    tag_110:\n      sload(0x06)\n      dup2\n      jump\t// out\n        /* \"contracts/StakingRewards/StakingRewards.sol\":3296:3480  function setDuration(uint256 _duration) external onlyOwner{... */\n    tag_115:\n        /* \"contracts/StakingRewards/StakingRewards.sol\":1494:1499  owner */\n      0x00\n      0x00\n      swap1\n      sload\n      swap1\n      0x0100\n      exp\n      swap1\n      div\n      0xffffffffffffffffffffffffffffffffffffffff\n      and\n        /* \"contracts/StakingRewards/StakingRewards.sol\":1480:1499  msg.sender == owner */\n      0xffffffffffffffffffffffffffffffffffffffff\n      and\n        /* \"contracts/StakingRewards/StakingRewards.sol\":1480:1490  msg.sender */\n      caller\n        /* \"contracts/StakingRewards/StakingRewards.sol\":1480:1499  msg.sender == owner */\n      0xffffffffffffffffffffffffffffffffffffffff\n      and\n      eq\n        /* \"contracts/StakingRewards/StakingRewards.sol\":1472:1512  require(msg.sender == owner,\"not owner\") */\n      tag_228\n      jumpi\n      mload(0x40)\n      0x08c379a000000000000000000000000000000000000000000000000000000000\n      dup2\n      mstore\n      0x04\n      add\n      tag_229\n      swap1\n      tag_143\n      jump\t// in\n    tag_229:\n      mload(0x40)\n      dup1\n      swap2\n      sub\n      swap1\n      revert\n    tag_228:\n        /* \"contracts/StakingRewards/StakingRewards.sol\":3383:3398  block.timestamp */\n      timestamp\n        /* \"contracts/StakingRewards/StakingRewards.sol\":3373:3380  endTime */\n      sload(0x01)\n        /* \"contracts/StakingRewards/StakingRewards.sol\":3373:3398  endTime < block.timestamp */\n      lt\n        /* \"contracts/StakingRewards/StakingRewards.sol\":3365:3431  require(endTime < block.timestamp, \"reward duration not finished\") */\n      tag_231\n      jumpi\n      mload(0x40)\n      0x08c379a000000000000000000000000000000000000000000000000000000000\n      dup2\n      mstore\n      0x04\n      add\n      tag_232\n      swap1\n      tag_233\n      jump\t// in\n    tag_232:\n      mload(0x40)\n      dup1\n      swap2\n      sub\n      swap1\n      revert\n    tag_231:\n        /* \"contracts/StakingRewards/StakingRewards.sol\":3453:3462  _duration */\n      dup1\n        /* \"contracts/StakingRewards/StakingRewards.sol\":3442:3450  duration */\n      0x03\n        /* \"contracts/StakingRewards/StakingRewards.sol\":3442:3462  duration = _duration */\n      dup2\n      swap1\n      sstore\n      pop\n        /* \"contracts/StakingRewards/StakingRewards.sol\":3296:3480  function setDuration(uint256 _duration) external onlyOwner{... */\n      pop\n      jump\t// out\n        /* \"contracts/StakingRewards/StakingRewards.sol\":760:792  uint256 public rewardCoefficient */\n    tag_118:\n      sload(0x05)\n      dup2\n      jump\t// out\n        /* \"contracts/StakingRewards/StakingRewards.sol\":2891:3132  function updateRewardPerTokenStored() private returns(uint){... */\n    tag_122:\n        /* \"contracts/StakingRewards/StakingRewards.sol\":2945:2949  uint */\n      0x00\n        /* \"contracts/StakingRewards/StakingRewards.sol\":2961:2967  uint r */\n      0x00\n        /* \"contracts/StakingRewards/StakingRewards.sol\":2986:2987  0 */\n      0x00\n        /* \"contracts/StakingRewards/StakingRewards.sol\":2970:2982  totalBalance */\n      sload(0x0a)\n        /* \"contracts/StakingRewards/StakingRewards.sol\":2970:2987  totalBalance == 0 */\n      eq\n        /* \"contracts/StakingRewards/StakingRewards.sol\":2970:3105  totalBalance == 0 ? rewardPerTokenStored :... */\n      tag_235\n      jumpi\n        /* \"contracts/StakingRewards/StakingRewards.sol\":3092:3104  totalBalance */\n      sload(0x0a)\n        /* \"contracts/StakingRewards/StakingRewards.sol\":3086:3090  1e18 */\n      0x0de0b6b3a7640000\n        /* \"contracts/StakingRewards/StakingRewards.sol\":3073:3082  updatedAt */\n      sload(0x02)\n        /* \"contracts/StakingRewards/StakingRewards.sol\":3060:3070  _minTime() */\n      tag_236\n        /* \"contracts/StakingRewards/StakingRewards.sol\":3060:3068  _minTime */\n      tag_106\n        /* \"contracts/StakingRewards/StakingRewards.sol\":3060:3070  _minTime() */\n      jump\t// in\n    tag_236:\n        /* \"contracts/StakingRewards/StakingRewards.sol\":3060:3082  _minTime() - updatedAt */\n      tag_237\n      swap2\n      swap1\n      tag_132\n      jump\t// in\n    tag_237:\n        /* \"contracts/StakingRewards/StakingRewards.sol\":3046:3056  rewardRate */\n      sload(0x04)\n        /* \"contracts/StakingRewards/StakingRewards.sol\":3046:3083  rewardRate * (_minTime() - updatedAt) */\n      tag_238\n      swap2\n      swap1\n      tag_159\n      jump\t// in\n    tag_238:\n        /* \"contracts/StakingRewards/StakingRewards.sol\":3046:3090  rewardRate * (_minTime() - updatedAt) * 1e18 */\n      tag_239\n      swap2\n      swap1\n      tag_159\n      jump\t// in\n    tag_239:\n        /* \"contracts/StakingRewards/StakingRewards.sol\":3046:3104  rewardRate * (_minTime() - updatedAt) * 1e18 /totalBalance */\n      tag_240\n      swap2\n      swap1\n      tag_155\n      jump\t// in\n    tag_240:\n        /* \"contracts/StakingRewards/StakingRewards.sol\":3022:3042  rewardPerTokenStored */\n      sload(0x06)\n        /* \"contracts/StakingRewards/StakingRewards.sol\":3022:3105  rewardPerTokenStored + (rewardRate * (_minTime() - updatedAt) * 1e18 /totalBalance) */\n      tag_241\n      swap2\n      swap1\n      tag_161\n      jump\t// in\n    tag_241:\n        /* \"contracts/StakingRewards/StakingRewards.sol\":2970:3105  totalBalance == 0 ? rewardPerTokenStored :... */\n      jump(tag_242)\n    tag_235:\n        /* \"contracts/StakingRewards/StakingRewards.sol\":2990:3010  rewardPerTokenStored */\n      sload(0x06)\n        /* \"contracts/StakingRewards/StakingRewards.sol\":2970:3105  totalBalance == 0 ? rewardPerTokenStored :... */\n    tag_242:\n        /* \"contracts/StakingRewards/StakingRewards.sol\":2961:3105  uint r = totalBalance == 0 ? rewardPerTokenStored :... */\n      swap1\n      pop\n        /* \"contracts/StakingRewards/StakingRewards.sol\":3123:3124  r */\n      dup1\n        /* \"contracts/StakingRewards/StakingRewards.sol\":3116:3124  return r */\n      swap2\n      pop\n      pop\n        /* \"contracts/StakingRewards/StakingRewards.sol\":2891:3132  function updateRewardPerTokenStored() private returns(uint){... */\n      swap1\n      jump\t// out\n        /* \"contracts/StakingRewards/StakingRewards.sol\":2039:2244  function earned() private  returns(uint){... */\n    tag_126:\n        /* \"contracts/StakingRewards/StakingRewards.sol\":2074:2078  uint */\n      0x00\n        /* \"contracts/StakingRewards/StakingRewards.sol\":2216:2224  rewardOf */\n      0x09\n        /* \"contracts/StakingRewards/StakingRewards.sol\":2216:2236  rewardOf[msg.sender] */\n      0x00\n        /* \"contracts/StakingRewards/StakingRewards.sol\":2225:2235  msg.sender */\n      caller\n        /* \"contracts/StakingRewards/StakingRewards.sol\":2216:2236  rewardOf[msg.sender] */\n      0xffffffffffffffffffffffffffffffffffffffff\n      and\n      0xffffffffffffffffffffffffffffffffffffffff\n      and\n      dup2\n      mstore\n      0x20\n      add\n      swap1\n      dup2\n      mstore\n      0x20\n      add\n      0x00\n      keccak256\n      sload\n        /* \"contracts/StakingRewards/StakingRewards.sol\":2209:2213  1e18 */\n      0x0de0b6b3a7640000\n        /* \"contracts/StakingRewards/StakingRewards.sol\":2186:2195  balanceOf */\n      0x08\n        /* \"contracts/StakingRewards/StakingRewards.sol\":2186:2207  balanceOf[msg.sender] */\n      0x00\n        /* \"contracts/StakingRewards/StakingRewards.sol\":2196:2206  msg.sender */\n      caller\n        /* \"contracts/StakingRewards/StakingRewards.sol\":2186:2207  balanceOf[msg.sender] */\n      0xffffffffffffffffffffffffffffffffffffffff\n      and\n      0xffffffffffffffffffffffffffffffffffffffff\n      and\n      dup2\n      mstore\n      0x20\n      add\n      swap1\n      dup2\n      mstore\n      0x20\n      add\n      0x00\n      keccak256\n      sload\n        /* \"contracts/StakingRewards/StakingRewards.sol\":2130:2152  rewardPerTokenStoredOf */\n      0x07\n        /* \"contracts/StakingRewards/StakingRewards.sol\":2130:2164  rewardPerTokenStoredOf[msg.sender] */\n      0x00\n        /* \"contracts/StakingRewards/StakingRewards.sol\":2153:2163  msg.sender */\n      caller\n        /* \"contracts/StakingRewards/StakingRewards.sol\":2130:2164  rewardPerTokenStoredOf[msg.sender] */\n      0xffffffffffffffffffffffffffffffffffffffff\n      and\n      0xffffffffffffffffffffffffffffffffffffffff\n      and\n      dup2\n      mstore\n      0x20\n      add\n      swap1\n      dup2\n      mstore\n      0x20\n      add\n      0x00\n      keccak256\n      sload\n        /* \"contracts/StakingRewards/StakingRewards.sol\":2099:2127  updateRewardPerTokenStored() */\n      tag_244\n        /* \"contracts/StakingRewards/StakingRewards.sol\":2099:2125  updateRewardPerTokenStored */\n      tag_122\n        /* \"contracts/StakingRewards/StakingRewards.sol\":2099:2127  updateRewardPerTokenStored() */\n      jump\t// in\n    tag_244:\n        /* \"contracts/StakingRewards/StakingRewards.sol\":2099:2164  updateRewardPerTokenStored() - rewardPerTokenStoredOf[msg.sender] */\n      tag_245\n      swap2\n      swap1\n      tag_132\n      jump\t// in\n    tag_245:\n        /* \"contracts/StakingRewards/StakingRewards.sol\":2098:2207  (updateRewardPerTokenStored() - rewardPerTokenStoredOf[msg.sender]) ... */\n      tag_246\n      swap2\n      swap1\n      tag_159\n      jump\t// in\n    tag_246:\n        /* \"contracts/StakingRewards/StakingRewards.sol\":2098:2213  (updateRewardPerTokenStored() - rewardPerTokenStoredOf[msg.sender]) ... */\n      tag_247\n      swap2\n      swap1\n      tag_155\n      jump\t// in\n    tag_247:\n        /* \"contracts/StakingRewards/StakingRewards.sol\":2097:2236  ((updateRewardPerTokenStored() - rewardPerTokenStoredOf[msg.sender]) ... */\n      tag_248\n      swap2\n      swap1\n      tag_161\n      jump\t// in\n    tag_248:\n        /* \"contracts/StakingRewards/StakingRewards.sol\":2090:2236  return ((updateRewardPerTokenStored() - rewardPerTokenStoredOf[msg.sender]) ... */\n      swap1\n      pop\n        /* \"contracts/StakingRewards/StakingRewards.sol\":2039:2244  function earned() private  returns(uint){... */\n      swap1\n      jump\t// out\n        /* \"#utility.yul\":7:84   */\n    tag_249:\n        /* \"#utility.yul\":44:51   */\n      0x00\n        /* \"#utility.yul\":73:78   */\n      dup2\n        /* \"#utility.yul\":62:78   */\n      swap1\n      pop\n        /* \"#utility.yul\":7:84   */\n      swap2\n      swap1\n      pop\n      jump\t// out\n        /* \"#utility.yul\":90:208   */\n    tag_250:\n        /* \"#utility.yul\":177:201   */\n      tag_290\n        /* \"#utility.yul\":195:200   */\n      dup2\n        /* \"#utility.yul\":177:201   */\n      tag_249\n      jump\t// in\n    tag_290:\n        /* \"#utility.yul\":172:175   */\n      dup3\n        /* \"#utility.yul\":165:202   */\n      mstore\n        /* \"#utility.yul\":90:208   */\n      pop\n      pop\n      jump\t// out\n        /* \"#utility.yul\":214:436   */\n    tag_31:\n        /* \"#utility.yul\":307:311   */\n      0x00\n        /* \"#utility.yul\":345:347   */\n      0x20\n        /* \"#utility.yul\":334:343   */\n      dup3\n        /* \"#utility.yul\":330:348   */\n      add\n        /* \"#utility.yul\":322:348   */\n      swap1\n      pop\n        /* \"#utility.yul\":358:429   */\n      tag_292\n        /* \"#utility.yul\":426:427   */\n      0x00\n        /* \"#utility.yul\":415:424   */\n      dup4\n        /* \"#utility.yul\":411:428   */\n      add\n        /* \"#utility.yul\":402:408   */\n      dup5\n        /* \"#utility.yul\":358:429   */\n      tag_250\n      jump\t// in\n    tag_292:\n        /* \"#utility.yul\":214:436   */\n      swap3\n      swap2\n      pop\n      pop\n      jump\t// out\n        /* \"#utility.yul\":523:640   */\n    tag_252:\n        /* \"#utility.yul\":632:633   */\n      0x00\n        /* \"#utility.yul\":629:630   */\n      0x00\n        /* \"#utility.yul\":622:634   */\n      revert\n        /* \"#utility.yul\":769:895   */\n    tag_254:\n        /* \"#utility.yul\":806:813   */\n      0x00\n        /* \"#utility.yul\":846:888   */\n      0xffffffffffffffffffffffffffffffffffffffff\n        /* \"#utility.yul\":839:844   */\n      dup3\n        /* \"#utility.yul\":835:889   */\n      and\n        /* \"#utility.yul\":824:889   */\n      swap1\n      pop\n        /* \"#utility.yul\":769:895   */\n      swap2\n      swap1\n      pop\n      jump\t// out\n        /* \"#utility.yul\":901:997   */\n    tag_255:\n        /* \"#utility.yul\":938:945   */\n      0x00\n        /* \"#utility.yul\":967:991   */\n      tag_298\n        /* \"#utility.yul\":985:990   */\n      dup3\n        /* \"#utility.yul\":967:991   */\n      tag_254\n      jump\t// in\n    tag_298:\n        /* \"#utility.yul\":956:991   */\n      swap1\n      pop\n        /* \"#utility.yul\":901:997   */\n      swap2\n      swap1\n      pop\n      jump\t// out\n        /* \"#utility.yul\":1003:1125   */\n    tag_256:\n        /* \"#utility.yul\":1076:1100   */\n      tag_300\n        /* \"#utility.yul\":1094:1099   */\n      dup2\n        /* \"#utility.yul\":1076:1100   */\n      tag_255\n      jump\t// in\n    tag_300:\n        /* \"#utility.yul\":1069:1074   */\n      dup2\n        /* \"#utility.yul\":1066:1101   */\n      eq\n        /* \"#utility.yul\":1056:1119   */\n      tag_301\n      jumpi\n        /* \"#utility.yul\":1115:1116   */\n      0x00\n        /* \"#utility.yul\":1112:1113   */\n      0x00\n        /* \"#utility.yul\":1105:1117   */\n      revert\n        /* \"#utility.yul\":1056:1119   */\n    tag_301:\n        /* \"#utility.yul\":1003:1125   */\n      pop\n      jump\t// out\n        /* \"#utility.yul\":1131:1270   */\n    tag_257:\n        /* \"#utility.yul\":1177:1182   */\n      0x00\n        /* \"#utility.yul\":1215:1221   */\n      dup2\n        /* \"#utility.yul\":1202:1222   */\n      calldataload\n        /* \"#utility.yul\":1193:1222   */\n      swap1\n      pop\n        /* \"#utility.yul\":1231:1264   */\n      tag_303\n        /* \"#utility.yul\":1258:1263   */\n      dup2\n        /* \"#utility.yul\":1231:1264   */\n      tag_256\n      jump\t// in\n    tag_303:\n        /* \"#utility.yul\":1131:1270   */\n      swap3\n      swap2\n      pop\n      pop\n      jump\t// out\n        /* \"#utility.yul\":1276:1605   */\n    tag_35:\n        /* \"#utility.yul\":1335:1341   */\n      0x00\n        /* \"#utility.yul\":1384:1386   */\n      0x20\n        /* \"#utility.yul\":1372:1381   */\n      dup3\n        /* \"#utility.yul\":1363:1370   */\n      dup5\n        /* \"#utility.yul\":1359:1382   */\n      sub\n        /* \"#utility.yul\":1355:1387   */\n      slt\n        /* \"#utility.yul\":1352:1471   */\n      iszero\n      tag_305\n      jumpi\n        /* \"#utility.yul\":1390:1469   */\n      tag_306\n      tag_252\n      jump\t// in\n    tag_306:\n        /* \"#utility.yul\":1352:1471   */\n    tag_305:\n        /* \"#utility.yul\":1510:1511   */\n      0x00\n        /* \"#utility.yul\":1535:1588   */\n      tag_307\n        /* \"#utility.yul\":1580:1587   */\n      dup5\n        /* \"#utility.yul\":1571:1577   */\n      dup3\n        /* \"#utility.yul\":1560:1569   */\n      dup6\n        /* \"#utility.yul\":1556:1578   */\n      add\n        /* \"#utility.yul\":1535:1588   */\n      tag_257\n      jump\t// in\n    tag_307:\n        /* \"#utility.yul\":1525:1588   */\n      swap2\n      pop\n        /* \"#utility.yul\":1481:1598   */\n      pop\n        /* \"#utility.yul\":1276:1605   */\n      swap3\n      swap2\n      pop\n      pop\n      jump\t// out\n        /* \"#utility.yul\":1611:1733   */\n    tag_258:\n        /* \"#utility.yul\":1684:1708   */\n      tag_309\n        /* \"#utility.yul\":1702:1707   */\n      dup2\n        /* \"#utility.yul\":1684:1708   */\n      tag_249\n      jump\t// in\n    tag_309:\n        /* \"#utility.yul\":1677:1682   */\n      dup2\n        /* \"#utility.yul\":1674:1709   */\n      eq\n        /* \"#utility.yul\":1664:1727   */\n      tag_310\n      jumpi\n        /* \"#utility.yul\":1723:1724   */\n      0x00\n        /* \"#utility.yul\":1720:1721   */\n      0x00\n        /* \"#utility.yul\":1713:1725   */\n      revert\n        /* \"#utility.yul\":1664:1727   */\n    tag_310:\n        /* \"#utility.yul\":1611:1733   */\n      pop\n      jump\t// out\n        /* \"#utility.yul\":1739:1878   */\n    tag_259:\n        /* \"#utility.yul\":1785:1790   */\n      0x00\n        /* \"#utility.yul\":1823:1829   */\n      dup2\n        /* \"#utility.yul\":1810:1830   */\n      calldataload\n        /* \"#utility.yul\":1801:1830   */\n      swap1\n      pop\n        /* \"#utility.yul\":1839:1872   */\n      tag_312\n        /* \"#utility.yul\":1866:1871   */\n      dup2\n        /* \"#utility.yul\":1839:1872   */\n      tag_258\n      jump\t// in\n    tag_312:\n        /* \"#utility.yul\":1739:1878   */\n      swap3\n      swap2\n      pop\n      pop\n      jump\t// out\n        /* \"#utility.yul\":1884:2213   */\n    tag_46:\n        /* \"#utility.yul\":1943:1949   */\n      0x00\n        /* \"#utility.yul\":1992:1994   */\n      0x20\n        /* \"#utility.yul\":1980:1989   */\n      dup3\n        /* \"#utility.yul\":1971:1978   */\n      dup5\n        /* \"#utility.yul\":1967:1990   */\n      sub\n        /* \"#utility.yul\":1963:1995   */\n      slt\n        /* \"#utility.yul\":1960:2079   */\n      iszero\n      tag_314\n      jumpi\n        /* \"#utility.yul\":1998:2077   */\n      tag_315\n      tag_252\n      jump\t// in\n    tag_315:\n        /* \"#utility.yul\":1960:2079   */\n    tag_314:\n        /* \"#utility.yul\":2118:2119   */\n      0x00\n        /* \"#utility.yul\":2143:2196   */\n      tag_316\n        /* \"#utility.yul\":2188:2195   */\n      dup5\n        /* \"#utility.yul\":2179:2185   */\n      dup3\n        /* \"#utility.yul\":2168:2177   */\n      dup6\n        /* \"#utility.yul\":2164:2186   */\n      add\n        /* \"#utility.yul\":2143:2196   */\n      tag_259\n      jump\t// in\n    tag_316:\n        /* \"#utility.yul\":2133:2196   */\n      swap2\n      pop\n        /* \"#utility.yul\":2089:2206   */\n      pop\n        /* \"#utility.yul\":1884:2213   */\n      swap3\n      swap2\n      pop\n      pop\n      jump\t// out\n        /* \"#utility.yul\":2219:2279   */\n    tag_260:\n        /* \"#utility.yul\":2247:2250   */\n      0x00\n        /* \"#utility.yul\":2268:2273   */\n      dup2\n        /* \"#utility.yul\":2261:2273   */\n      swap1\n      pop\n        /* \"#utility.yul\":2219:2279   */\n      swap2\n      swap1\n      pop\n      jump\t// out\n        /* \"#utility.yul\":2285:2427   */\n    tag_261:\n        /* \"#utility.yul\":2335:2344   */\n      0x00\n        /* \"#utility.yul\":2368:2421   */\n      tag_319\n        /* \"#utility.yul\":2386:2420   */\n      tag_320\n        /* \"#utility.yul\":2395:2419   */\n      tag_321\n        /* \"#utility.yul\":2413:2418   */\n      dup5\n        /* \"#utility.yul\":2395:2419   */\n      tag_254\n      jump\t// in\n    tag_321:\n        /* \"#utility.yul\":2386:2420   */\n      tag_260\n      jump\t// in\n    tag_320:\n        /* \"#utility.yul\":2368:2421   */\n      tag_254\n      jump\t// in\n    tag_319:\n        /* \"#utility.yul\":2355:2421   */\n      swap1\n      pop\n        /* \"#utility.yul\":2285:2427   */\n      swap2\n      swap1\n      pop\n      jump\t// out\n        /* \"#utility.yul\":2433:2559   */\n    tag_262:\n        /* \"#utility.yul\":2483:2492   */\n      0x00\n        /* \"#utility.yul\":2516:2553   */\n      tag_323\n        /* \"#utility.yul\":2547:2552   */\n      dup3\n        /* \"#utility.yul\":2516:2553   */\n      tag_261\n      jump\t// in\n    tag_323:\n        /* \"#utility.yul\":2503:2553   */\n      swap1\n      pop\n        /* \"#utility.yul\":2433:2559   */\n      swap2\n      swap1\n      pop\n      jump\t// out\n        /* \"#utility.yul\":2565:2704   */\n    tag_263:\n        /* \"#utility.yul\":2628:2637   */\n      0x00\n        /* \"#utility.yul\":2661:2698   */\n      tag_325\n        /* \"#utility.yul\":2692:2697   */\n      dup3\n        /* \"#utility.yul\":2661:2698   */\n      tag_262\n      jump\t// in\n    tag_325:\n        /* \"#utility.yul\":2648:2698   */\n      swap1\n      pop\n        /* \"#utility.yul\":2565:2704   */\n      swap2\n      swap1\n      pop\n      jump\t// out\n        /* \"#utility.yul\":2710:2867   */\n    tag_264:\n        /* \"#utility.yul\":2810:2860   */\n      tag_327\n        /* \"#utility.yul\":2854:2859   */\n      dup2\n        /* \"#utility.yul\":2810:2860   */\n      tag_263\n      jump\t// in\n    tag_327:\n        /* \"#utility.yul\":2805:2808   */\n      dup3\n        /* \"#utility.yul\":2798:2861   */\n      mstore\n        /* \"#utility.yul\":2710:2867   */\n      pop\n      pop\n      jump\t// out\n        /* \"#utility.yul\":2873:3121   */\n    tag_75:\n        /* \"#utility.yul\":2979:2983   */\n      0x00\n        /* \"#utility.yul\":3017:3019   */\n      0x20\n        /* \"#utility.yul\":3006:3015   */\n      dup3\n        /* \"#utility.yul\":3002:3020   */\n      add\n        /* \"#utility.yul\":2994:3020   */\n      swap1\n      pop\n        /* \"#utility.yul\":3030:3114   */\n      tag_329\n        /* \"#utility.yul\":3111:3112   */\n      0x00\n        /* \"#utility.yul\":3100:3109   */\n      dup4\n        /* \"#utility.yul\":3096:3113   */\n      add\n        /* \"#utility.yul\":3087:3093   */\n      dup5\n        /* \"#utility.yul\":3030:3114   */\n      tag_264\n      jump\t// in\n    tag_329:\n        /* \"#utility.yul\":2873:3121   */\n      swap3\n      swap2\n      pop\n      pop\n      jump\t// out\n        /* \"#utility.yul\":3127:3245   */\n    tag_265:\n        /* \"#utility.yul\":3214:3238   */\n      tag_331\n        /* \"#utility.yul\":3232:3237   */\n      dup2\n        /* \"#utility.yul\":3214:3238   */\n      tag_255\n      jump\t// in\n    tag_331:\n        /* \"#utility.yul\":3209:3212   */\n      dup3\n        /* \"#utility.yul\":3202:3239   */\n      mstore\n        /* \"#utility.yul\":3127:3245   */\n      pop\n      pop\n      jump\t// out\n        /* \"#utility.yul\":3251:3473   */\n    tag_88:\n        /* \"#utility.yul\":3344:3348   */\n      0x00\n        /* \"#utility.yul\":3382:3384   */\n      0x20\n        /* \"#utility.yul\":3371:3380   */\n      dup3\n        /* \"#utility.yul\":3367:3385   */\n      add\n        /* \"#utility.yul\":3359:3385   */\n      swap1\n      pop\n        /* \"#utility.yul\":3395:3466   */\n      tag_333\n        /* \"#utility.yul\":3463:3464   */\n      0x00\n        /* \"#utility.yul\":3452:3461   */\n      dup4\n        /* \"#utility.yul\":3448:3465   */\n      add\n        /* \"#utility.yul\":3439:3445   */\n      dup5\n        /* \"#utility.yul\":3395:3466   */\n      tag_265\n      jump\t// in\n    tag_333:\n        /* \"#utility.yul\":3251:3473   */\n      swap3\n      swap2\n      pop\n      pop\n      jump\t// out\n        /* \"#utility.yul\":3479:3648   */\n    tag_266:\n        /* \"#utility.yul\":3563:3574   */\n      0x00\n        /* \"#utility.yul\":3597:3603   */\n      dup3\n        /* \"#utility.yul\":3592:3595   */\n      dup3\n        /* \"#utility.yul\":3585:3604   */\n      mstore\n        /* \"#utility.yul\":3637:3641   */\n      0x20\n        /* \"#utility.yul\":3632:3635   */\n      dup3\n        /* \"#utility.yul\":3628:3642   */\n      add\n        /* \"#utility.yul\":3613:3642   */\n      swap1\n      pop\n        /* \"#utility.yul\":3479:3648   */\n      swap3\n      swap2\n      pop\n      pop\n      jump\t// out\n        /* \"#utility.yul\":3654:3822   */\n    tag_267:\n        /* \"#utility.yul\":3794:3814   */\n      0x7374616b65205f616d6f6e74206572726f720000000000000000000000000000\n        /* \"#utility.yul\":3790:3791   */\n      0x00\n        /* \"#utility.yul\":3782:3788   */\n      dup3\n        /* \"#utility.yul\":3778:3792   */\n      add\n        /* \"#utility.yul\":3771:3815   */\n      mstore\n        /* \"#utility.yul\":3654:3822   */\n      pop\n      jump\t// out\n        /* \"#utility.yul\":3828:4194   */\n    tag_268:\n        /* \"#utility.yul\":3970:3973   */\n      0x00\n        /* \"#utility.yul\":3991:4058   */\n      tag_337\n        /* \"#utility.yul\":4055:4057   */\n      0x12\n        /* \"#utility.yul\":4050:4053   */\n      dup4\n        /* \"#utility.yul\":3991:4058   */\n      tag_266\n      jump\t// in\n    tag_337:\n        /* \"#utility.yul\":3984:4058   */\n      swap2\n      pop\n        /* \"#utility.yul\":4067:4160   */\n      tag_338\n        /* \"#utility.yul\":4156:4159   */\n      dup3\n        /* \"#utility.yul\":4067:4160   */\n      tag_267\n      jump\t// in\n    tag_338:\n        /* \"#utility.yul\":4185:4187   */\n      0x20\n        /* \"#utility.yul\":4180:4183   */\n      dup3\n        /* \"#utility.yul\":4176:4188   */\n      add\n        /* \"#utility.yul\":4169:4188   */\n      swap1\n      pop\n        /* \"#utility.yul\":3828:4194   */\n      swap2\n      swap1\n      pop\n      jump\t// out\n        /* \"#utility.yul\":4200:4619   */\n    tag_130:\n        /* \"#utility.yul\":4366:4370   */\n      0x00\n        /* \"#utility.yul\":4404:4406   */\n      0x20\n        /* \"#utility.yul\":4393:4402   */\n      dup3\n        /* \"#utility.yul\":4389:4407   */\n      add\n        /* \"#utility.yul\":4381:4407   */\n      swap1\n      pop\n        /* \"#utility.yul\":4453:4462   */\n      dup2\n        /* \"#utility.yul\":4447:4451   */\n      dup2\n        /* \"#utility.yul\":4443:4463   */\n      sub\n        /* \"#utility.yul\":4439:4440   */\n      0x00\n        /* \"#utility.yul\":4428:4437   */\n      dup4\n        /* \"#utility.yul\":4424:4441   */\n      add\n        /* \"#utility.yul\":4417:4464   */\n      mstore\n        /* \"#utility.yul\":4481:4612   */\n      tag_340\n        /* \"#utility.yul\":4607:4611   */\n      dup2\n        /* \"#utility.yul\":4481:4612   */\n      tag_268\n      jump\t// in\n    tag_340:\n        /* \"#utility.yul\":4473:4612   */\n      swap1\n      pop\n        /* \"#utility.yul\":4200:4619   */\n      swap2\n      swap1\n      pop\n      jump\t// out\n        /* \"#utility.yul\":4625:4805   */\n    tag_269:\n        /* \"#utility.yul\":4673:4750   */\n      0x4e487b7100000000000000000000000000000000000000000000000000000000\n        /* \"#utility.yul\":4670:4671   */\n      0x00\n        /* \"#utility.yul\":4663:4751   */\n      mstore\n        /* \"#utility.yul\":4770:4774   */\n      0x11\n        /* \"#utility.yul\":4767:4768   */\n      0x04\n        /* \"#utility.yul\":4760:4775   */\n      mstore\n        /* \"#utility.yul\":4794:4798   */\n      0x24\n        /* \"#utility.yul\":4791:4792   */\n      0x00\n        /* \"#utility.yul\":4784:4799   */\n      revert\n        /* \"#utility.yul\":4811:5005   */\n    tag_132:\n        /* \"#utility.yul\":4851:4855   */\n      0x00\n        /* \"#utility.yul\":4871:4891   */\n      tag_343\n        /* \"#utility.yul\":4889:4890   */\n      dup3\n        /* \"#utility.yul\":4871:4891   */\n      tag_249\n      jump\t// in\n    tag_343:\n        /* \"#utility.yul\":4866:4891   */\n      swap2\n      pop\n        /* \"#utility.yul\":4905:4925   */\n      tag_344\n        /* \"#utility.yul\":4923:4924   */\n      dup4\n        /* \"#utility.yul\":4905:4925   */\n      tag_249\n      jump\t// in\n    tag_344:\n        /* \"#utility.yul\":4900:4925   */\n      swap3\n      pop\n        /* \"#utility.yul\":4949:4950   */\n      dup3\n        /* \"#utility.yul\":4946:4947   */\n      dup3\n        /* \"#utility.yul\":4942:4951   */\n      sub\n        /* \"#utility.yul\":4934:4951   */\n      swap1\n      pop\n        /* \"#utility.yul\":4973:4974   */\n      dup2\n        /* \"#utility.yul\":4967:4971   */\n      dup2\n        /* \"#utility.yul\":4964:4975   */\n      gt\n        /* \"#utility.yul\":4961:4998   */\n      iszero\n      tag_345\n      jumpi\n        /* \"#utility.yul\":4978:4996   */\n      tag_346\n      tag_269\n      jump\t// in\n    tag_346:\n        /* \"#utility.yul\":4961:4998   */\n    tag_345:\n        /* \"#utility.yul\":4811:5005   */\n      swap3\n      swap2\n      pop\n      pop\n      jump\t// out\n        /* \"#utility.yul\":5011:5343   */\n    tag_135:\n        /* \"#utility.yul\":5132:5136   */\n      0x00\n        /* \"#utility.yul\":5170:5172   */\n      0x40\n        /* \"#utility.yul\":5159:5168   */\n      dup3\n        /* \"#utility.yul\":5155:5173   */\n      add\n        /* \"#utility.yul\":5147:5173   */\n      swap1\n      pop\n        /* \"#utility.yul\":5183:5254   */\n      tag_348\n        /* \"#utility.yul\":5251:5252   */\n      0x00\n        /* \"#utility.yul\":5240:5249   */\n      dup4\n        /* \"#utility.yul\":5236:5253   */\n      add\n        /* \"#utility.yul\":5227:5233   */\n      dup6\n        /* \"#utility.yul\":5183:5254   */\n      tag_265\n      jump\t// in\n    tag_348:\n        /* \"#utility.yul\":5264:5336   */\n      tag_349\n        /* \"#utility.yul\":5332:5334   */\n      0x20\n        /* \"#utility.yul\":5321:5330   */\n      dup4\n        /* \"#utility.yul\":5317:5335   */\n      add\n        /* \"#utility.yul\":5308:5314   */\n      dup5\n        /* \"#utility.yul\":5264:5336   */\n      tag_250\n      jump\t// in\n    tag_349:\n        /* \"#utility.yul\":5011:5343   */\n      swap4\n      swap3\n      pop\n      pop\n      pop\n      jump\t// out\n        /* \"#utility.yul\":5349:5439   */\n    tag_270:\n        /* \"#utility.yul\":5383:5390   */\n      0x00\n        /* \"#utility.yul\":5426:5431   */\n      dup2\n        /* \"#utility.yul\":5419:5432   */\n      iszero\n        /* \"#utility.yul\":5412:5433   */\n      iszero\n        /* \"#utility.yul\":5401:5433   */\n      swap1\n      pop\n        /* \"#utility.yul\":5349:5439   */\n      swap2\n      swap1\n      pop\n      jump\t// out\n        /* \"#utility.yul\":5445:5561   */\n    tag_271:\n        /* \"#utility.yul\":5515:5536   */\n      tag_352\n        /* \"#utility.yul\":5530:5535   */\n      dup2\n        /* \"#utility.yul\":5515:5536   */\n      tag_270\n      jump\t// in\n    tag_352:\n        /* \"#utility.yul\":5508:5513   */\n      dup2\n        /* \"#utility.yul\":5505:5537   */\n      eq\n        /* \"#utility.yul\":5495:5555   */\n      tag_353\n      jumpi\n        /* \"#utility.yul\":5551:5552   */\n      0x00\n        /* \"#utility.yul\":5548:5549   */\n      0x00\n        /* \"#utility.yul\":5541:5553   */\n      revert\n        /* \"#utility.yul\":5495:5555   */\n    tag_353:\n        /* \"#utility.yul\":5445:5561   */\n      pop\n      jump\t// out\n        /* \"#utility.yul\":5567:5704   */\n    tag_272:\n        /* \"#utility.yul\":5621:5626   */\n      0x00\n        /* \"#utility.yul\":5652:5658   */\n      dup2\n        /* \"#utility.yul\":5646:5659   */\n      mload\n        /* \"#utility.yul\":5637:5659   */\n      swap1\n      pop\n        /* \"#utility.yul\":5668:5698   */\n      tag_355\n        /* \"#utility.yul\":5692:5697   */\n      dup2\n        /* \"#utility.yul\":5668:5698   */\n      tag_271\n      jump\t// in\n    tag_355:\n        /* \"#utility.yul\":5567:5704   */\n      swap3\n      swap2\n      pop\n      pop\n      jump\t// out\n        /* \"#utility.yul\":5710:6055   */\n    tag_139:\n        /* \"#utility.yul\":5777:5783   */\n      0x00\n        /* \"#utility.yul\":5826:5828   */\n      0x20\n        /* \"#utility.yul\":5814:5823   */\n      dup3\n        /* \"#utility.yul\":5805:5812   */\n      dup5\n        /* \"#utility.yul\":5801:5824   */\n      sub\n        /* \"#utility.yul\":5797:5829   */\n      slt\n        /* \"#utility.yul\":5794:5913   */\n      iszero\n      tag_357\n      jumpi\n        /* \"#utility.yul\":5832:5911   */\n      tag_358\n      tag_252\n      jump\t// in\n    tag_358:\n        /* \"#utility.yul\":5794:5913   */\n    tag_357:\n        /* \"#utility.yul\":5952:5953   */\n      0x00\n        /* \"#utility.yul\":5977:6038   */\n      tag_359\n        /* \"#utility.yul\":6030:6037   */\n      dup5\n        /* \"#utility.yul\":6021:6027   */\n      dup3\n        /* \"#utility.yul\":6010:6019   */\n      dup6\n        /* \"#utility.yul\":6006:6028   */\n      add\n        /* \"#utility.yul\":5977:6038   */\n      tag_272\n      jump\t// in\n    tag_359:\n        /* \"#utility.yul\":5967:6038   */\n      swap2\n      pop\n        /* \"#utility.yul\":5923:6048   */\n      pop\n        /* \"#utility.yul\":5710:6055   */\n      swap3\n      swap2\n      pop\n      pop\n      jump\t// out\n        /* \"#utility.yul\":6061:6220   */\n    tag_273:\n        /* \"#utility.yul\":6201:6212   */\n      0x6e6f74206f776e65720000000000000000000000000000000000000000000000\n        /* \"#utility.yul\":6197:6198   */\n      0x00\n        /* \"#utility.yul\":6189:6195   */\n      dup3\n        /* \"#utility.yul\":6185:6199   */\n      add\n        /* \"#utility.yul\":6178:6213   */\n      mstore\n        /* \"#utility.yul\":6061:6220   */\n      pop\n      jump\t// out\n        /* \"#utility.yul\":6226:6591   */\n    tag_274:\n        /* \"#utility.yul\":6368:6371   */\n      0x00\n        /* \"#utility.yul\":6389:6455   */\n      tag_362\n        /* \"#utility.yul\":6453:6454   */\n      0x09\n        /* \"#utility.yul\":6448:6451   */\n      dup4\n        /* \"#utility.yul\":6389:6455   */\n      tag_266\n      jump\t// in\n    tag_362:\n        /* \"#utility.yul\":6382:6455   */\n      swap2\n      pop\n        /* \"#utility.yul\":6464:6557   */\n      tag_363\n        /* \"#utility.yul\":6553:6556   */\n      dup3\n        /* \"#utility.yul\":6464:6557   */\n      tag_273\n      jump\t// in\n    tag_363:\n        /* \"#utility.yul\":6582:6584   */\n      0x20\n        /* \"#utility.yul\":6577:6580   */\n      dup3\n        /* \"#utility.yul\":6573:6585   */\n      add\n        /* \"#utility.yul\":6566:6585   */\n      swap1\n      pop\n        /* \"#utility.yul\":6226:6591   */\n      swap2\n      swap1\n      pop\n      jump\t// out\n        /* \"#utility.yul\":6597:7016   */\n    tag_143:\n        /* \"#utility.yul\":6763:6767   */\n      0x00\n        /* \"#utility.yul\":6801:6803   */\n      0x20\n        /* \"#utility.yul\":6790:6799   */\n      dup3\n        /* \"#utility.yul\":6786:6804   */\n      add\n        /* \"#utility.yul\":6778:6804   */\n      swap1\n      pop\n        /* \"#utility.yul\":6850:6859   */\n      dup2\n        /* \"#utility.yul\":6844:6848   */\n      dup2\n        /* \"#utility.yul\":6840:6860   */\n      sub\n        /* \"#utility.yul\":6836:6837   */\n      0x00\n        /* \"#utility.yul\":6825:6834   */\n      dup4\n        /* \"#utility.yul\":6821:6838   */\n      add\n        /* \"#utility.yul\":6814:6861   */\n      mstore\n        /* \"#utility.yul\":6878:7009   */\n      tag_365\n        /* \"#utility.yul\":7004:7008   */\n      dup2\n        /* \"#utility.yul\":6878:7009   */\n      tag_274\n      jump\t// in\n    tag_365:\n        /* \"#utility.yul\":6870:7009   */\n      swap1\n      pop\n        /* \"#utility.yul\":6597:7016   */\n      swap2\n      swap1\n      pop\n      jump\t// out\n        /* \"#utility.yul\":7022:7188   */\n    tag_275:\n        /* \"#utility.yul\":7162:7180   */\n      0x736574205f616d6f6e74206572726f7200000000000000000000000000000000\n        /* \"#utility.yul\":7158:7159   */\n      0x00\n        /* \"#utility.yul\":7150:7156   */\n      dup3\n        /* \"#utility.yul\":7146:7160   */\n      add\n        /* \"#utility.yul\":7139:7181   */\n      mstore\n        /* \"#utility.yul\":7022:7188   */\n      pop\n      jump\t// out\n        /* \"#utility.yul\":7194:7560   */\n    tag_276:\n        /* \"#utility.yul\":7336:7339   */\n      0x00\n        /* \"#utility.yul\":7357:7424   */\n      tag_368\n        /* \"#utility.yul\":7421:7423   */\n      0x10\n        /* \"#utility.yul\":7416:7419   */\n      dup4\n        /* \"#utility.yul\":7357:7424   */\n      tag_266\n      jump\t// in\n    tag_368:\n        /* \"#utility.yul\":7350:7424   */\n      swap2\n      pop\n        /* \"#utility.yul\":7433:7526   */\n      tag_369\n        /* \"#utility.yul\":7522:7525   */\n      dup3\n        /* \"#utility.yul\":7433:7526   */\n      tag_275\n      jump\t// in\n    tag_369:\n        /* \"#utility.yul\":7551:7553   */\n      0x20\n        /* \"#utility.yul\":7546:7549   */\n      dup3\n        /* \"#utility.yul\":7542:7554   */\n      add\n        /* \"#utility.yul\":7535:7554   */\n      swap1\n      pop\n        /* \"#utility.yul\":7194:7560   */\n      swap2\n      swap1\n      pop\n      jump\t// out\n        /* \"#utility.yul\":7566:7985   */\n    tag_152:\n        /* \"#utility.yul\":7732:7736   */\n      0x00\n        /* \"#utility.yul\":7770:7772   */\n      0x20\n        /* \"#utility.yul\":7759:7768   */\n      dup3\n        /* \"#utility.yul\":7755:7773   */\n      add\n        /* \"#utility.yul\":7747:7773   */\n      swap1\n      pop\n        /* \"#utility.yul\":7819:7828   */\n      dup2\n        /* \"#utility.yul\":7813:7817   */\n      dup2\n        /* \"#utility.yul\":7809:7829   */\n      sub\n        /* \"#utility.yul\":7805:7806   */\n      0x00\n        /* \"#utility.yul\":7794:7803   */\n      dup4\n        /* \"#utility.yul\":7790:7807   */\n      add\n        /* \"#utility.yul\":7783:7830   */\n      mstore\n        /* \"#utility.yul\":7847:7978   */\n      tag_371\n        /* \"#utility.yul\":7973:7977   */\n      dup2\n        /* \"#utility.yul\":7847:7978   */\n      tag_276\n      jump\t// in\n    tag_371:\n        /* \"#utility.yul\":7839:7978   */\n      swap1\n      pop\n        /* \"#utility.yul\":7566:7985   */\n      swap2\n      swap1\n      pop\n      jump\t// out\n        /* \"#utility.yul\":7991:8171   */\n    tag_277:\n        /* \"#utility.yul\":8039:8116   */\n      0x4e487b7100000000000000000000000000000000000000000000000000000000\n        /* \"#utility.yul\":8036:8037   */\n      0x00\n        /* \"#utility.yul\":8029:8117   */\n      mstore\n        /* \"#utility.yul\":8136:8140   */\n      0x12\n        /* \"#utility.yul\":8133:8134   */\n      0x04\n        /* \"#utility.yul\":8126:8141   */\n      mstore\n        /* \"#utility.yul\":8160:8164   */\n      0x24\n        /* \"#utility.yul\":8157:8158   */\n      0x00\n        /* \"#utility.yul\":8150:8165   */\n      revert\n        /* \"#utility.yul\":8177:8362   */\n    tag_155:\n        /* \"#utility.yul\":8217:8218   */\n      0x00\n        /* \"#utility.yul\":8234:8254   */\n      tag_374\n        /* \"#utility.yul\":8252:8253   */\n      dup3\n        /* \"#utility.yul\":8234:8254   */\n      tag_249\n      jump\t// in\n    tag_374:\n        /* \"#utility.yul\":8229:8254   */\n      swap2\n      pop\n        /* \"#utility.yul\":8268:8288   */\n      tag_375\n        /* \"#utility.yul\":8286:8287   */\n      dup4\n        /* \"#utility.yul\":8268:8288   */\n      tag_249\n      jump\t// in\n    tag_375:\n        /* \"#utility.yul\":8263:8288   */\n      swap3\n      pop\n        /* \"#utility.yul\":8307:8308   */\n      dup3\n        /* \"#utility.yul\":8297:8332   */\n      tag_376\n      jumpi\n        /* \"#utility.yul\":8312:8330   */\n      tag_377\n      tag_277\n      jump\t// in\n    tag_377:\n        /* \"#utility.yul\":8297:8332   */\n    tag_376:\n        /* \"#utility.yul\":8354:8355   */\n      dup3\n        /* \"#utility.yul\":8351:8352   */\n      dup3\n        /* \"#utility.yul\":8347:8356   */\n      div\n        /* \"#utility.yul\":8342:8356   */\n      swap1\n      pop\n        /* \"#utility.yul\":8177:8362   */\n      swap3\n      swap2\n      pop\n      pop\n      jump\t// out\n        /* \"#utility.yul\":8368:8778   */\n    tag_159:\n        /* \"#utility.yul\":8408:8415   */\n      0x00\n        /* \"#utility.yul\":8431:8451   */\n      tag_379\n        /* \"#utility.yul\":8449:8450   */\n      dup3\n        /* \"#utility.yul\":8431:8451   */\n      tag_249\n      jump\t// in\n    tag_379:\n        /* \"#utility.yul\":8426:8451   */\n      swap2\n      pop\n        /* \"#utility.yul\":8465:8485   */\n      tag_380\n        /* \"#utility.yul\":8483:8484   */\n      dup4\n        /* \"#utility.yul\":8465:8485   */\n      tag_249\n      jump\t// in\n    tag_380:\n        /* \"#utility.yul\":8460:8485   */\n      swap3\n      pop\n        /* \"#utility.yul\":8520:8521   */\n      dup3\n        /* \"#utility.yul\":8517:8518   */\n      dup3\n        /* \"#utility.yul\":8513:8522   */\n      mul\n        /* \"#utility.yul\":8542:8572   */\n      tag_381\n        /* \"#utility.yul\":8560:8571   */\n      dup2\n        /* \"#utility.yul\":8542:8572   */\n      tag_249\n      jump\t// in\n    tag_381:\n        /* \"#utility.yul\":8531:8572   */\n      swap2\n      pop\n        /* \"#utility.yul\":8721:8722   */\n      dup3\n        /* \"#utility.yul\":8712:8719   */\n      dup3\n        /* \"#utility.yul\":8708:8723   */\n      div\n        /* \"#utility.yul\":8705:8706   */\n      dup5\n        /* \"#utility.yul\":8702:8724   */\n      eq\n        /* \"#utility.yul\":8682:8683   */\n      dup4\n        /* \"#utility.yul\":8675:8684   */\n      iszero\n        /* \"#utility.yul\":8655:8738   */\n      or\n        /* \"#utility.yul\":8632:8771   */\n      tag_382\n      jumpi\n        /* \"#utility.yul\":8751:8769   */\n      tag_383\n      tag_269\n      jump\t// in\n    tag_383:\n        /* \"#utility.yul\":8632:8771   */\n    tag_382:\n        /* \"#utility.yul\":8416:8778   */\n      pop\n        /* \"#utility.yul\":8368:8778   */\n      swap3\n      swap2\n      pop\n      pop\n      jump\t// out\n        /* \"#utility.yul\":8784:8975   */\n    tag_161:\n        /* \"#utility.yul\":8824:8827   */\n      0x00\n        /* \"#utility.yul\":8843:8863   */\n      tag_385\n        /* \"#utility.yul\":8861:8862   */\n      dup3\n        /* \"#utility.yul\":8843:8863   */\n      tag_249\n      jump\t// in\n    tag_385:\n        /* \"#utility.yul\":8838:8863   */\n      swap2\n      pop\n        /* \"#utility.yul\":8877:8897   */\n      tag_386\n        /* \"#utility.yul\":8895:8896   */\n      dup4\n        /* \"#utility.yul\":8877:8897   */\n      tag_249\n      jump\t// in\n    tag_386:\n        /* \"#utility.yul\":8872:8897   */\n      swap3\n      pop\n        /* \"#utility.yul\":8920:8921   */\n      dup3\n        /* \"#utility.yul\":8917:8918   */\n      dup3\n        /* \"#utility.yul\":8913:8922   */\n      add\n        /* \"#utility.yul\":8906:8922   */\n      swap1\n      pop\n        /* \"#utility.yul\":8941:8944   */\n      dup1\n        /* \"#utility.yul\":8938:8939   */\n      dup3\n        /* \"#utility.yul\":8935:8945   */\n      gt\n        /* \"#utility.yul\":8932:8968   */\n      iszero\n      tag_387\n      jumpi\n        /* \"#utility.yul\":8948:8966   */\n      tag_388\n      tag_269\n      jump\t// in\n    tag_388:\n        /* \"#utility.yul\":8932:8968   */\n    tag_387:\n        /* \"#utility.yul\":8784:8975   */\n      swap3\n      swap2\n      pop\n      pop\n      jump\t// out\n        /* \"#utility.yul\":8981:9146   */\n    tag_278:\n        /* \"#utility.yul\":9121:9138   */\n      0x7265776172642072617465203d20300000000000000000000000000000000000\n        /* \"#utility.yul\":9117:9118   */\n      0x00\n        /* \"#utility.yul\":9109:9115   */\n      dup3\n        /* \"#utility.yul\":9105:9119   */\n      add\n        /* \"#utility.yul\":9098:9139   */\n      mstore\n        /* \"#utility.yul\":8981:9146   */\n      pop\n      jump\t// out\n        /* \"#utility.yul\":9152:9518   */\n    tag_279:\n        /* \"#utility.yul\":9294:9297   */\n      0x00\n        /* \"#utility.yul\":9315:9382   */\n      tag_391\n        /* \"#utility.yul\":9379:9381   */\n      0x0f\n        /* \"#utility.yul\":9374:9377   */\n      dup4\n        /* \"#utility.yul\":9315:9382   */\n      tag_266\n      jump\t// in\n    tag_391:\n        /* \"#utility.yul\":9308:9382   */\n      swap2\n      pop\n        /* \"#utility.yul\":9391:9484   */\n      tag_392\n        /* \"#utility.yul\":9480:9483   */\n      dup3\n        /* \"#utility.yul\":9391:9484   */\n      tag_278\n      jump\t// in\n    tag_392:\n        /* \"#utility.yul\":9509:9511   */\n      0x20\n        /* \"#utility.yul\":9504:9507   */\n      dup3\n        /* \"#utility.yul\":9500:9512   */\n      add\n        /* \"#utility.yul\":9493:9512   */\n      swap1\n      pop\n        /* \"#utility.yul\":9152:9518   */\n      swap2\n      swap1\n      pop\n      jump\t// out\n        /* \"#utility.yul\":9524:9943   */\n    tag_165:\n        /* \"#utility.yul\":9690:9694   */\n      0x00\n        /* \"#utility.yul\":9728:9730   */\n      0x20\n        /* \"#utility.yul\":9717:9726   */\n      dup3\n        /* \"#utility.yul\":9713:9731   */\n      add\n        /* \"#utility.yul\":9705:9731   */\n      swap1\n      pop\n        /* \"#utility.yul\":9777:9786   */\n      dup2\n        /* \"#utility.yul\":9771:9775   */\n      dup2\n        /* \"#utility.yul\":9767:9787   */\n      sub\n        /* \"#utility.yul\":9763:9764   */\n      0x00\n        /* \"#utility.yul\":9752:9761   */\n      dup4\n        /* \"#utility.yul\":9748:9765   */\n      add\n        /* \"#utility.yul\":9741:9788   */\n      mstore\n        /* \"#utility.yul\":9805:9936   */\n      tag_394\n        /* \"#utility.yul\":9931:9935   */\n      dup2\n        /* \"#utility.yul\":9805:9936   */\n      tag_279\n      jump\t// in\n    tag_394:\n        /* \"#utility.yul\":9797:9936   */\n      swap1\n      pop\n        /* \"#utility.yul\":9524:9943   */\n      swap2\n      swap1\n      pop\n      jump\t// out\n        /* \"#utility.yul\":9949:10092   */\n    tag_280:\n        /* \"#utility.yul\":10006:10011   */\n      0x00\n        /* \"#utility.yul\":10037:10043   */\n      dup2\n        /* \"#utility.yul\":10031:10044   */\n      mload\n        /* \"#utility.yul\":10022:10044   */\n      swap1\n      pop\n        /* \"#utility.yul\":10053:10086   */\n      tag_396\n        /* \"#utility.yul\":10080:10085   */\n      dup2\n        /* \"#utility.yul\":10053:10086   */\n      tag_258\n      jump\t// in\n    tag_396:\n        /* \"#utility.yul\":9949:10092   */\n      swap3\n      swap2\n      pop\n      pop\n      jump\t// out\n        /* \"#utility.yul\":10098:10449   */\n    tag_170:\n        /* \"#utility.yul\":10168:10174   */\n      0x00\n        /* \"#utility.yul\":10217:10219   */\n      0x20\n        /* \"#utility.yul\":10205:10214   */\n      dup3\n        /* \"#utility.yul\":10196:10203   */\n      dup5\n        /* \"#utility.yul\":10192:10215   */\n      sub\n        /* \"#utility.yul\":10188:10220   */\n      slt\n        /* \"#utility.yul\":10185:10304   */\n      iszero\n      tag_398\n      jumpi\n        /* \"#utility.yul\":10223:10302   */\n      tag_399\n      tag_252\n      jump\t// in\n    tag_399:\n        /* \"#utility.yul\":10185:10304   */\n    tag_398:\n        /* \"#utility.yul\":10343:10344   */\n      0x00\n        /* \"#utility.yul\":10368:10432   */\n      tag_400\n        /* \"#utility.yul\":10424:10431   */\n      dup5\n        /* \"#utility.yul\":10415:10421   */\n      dup3\n        /* \"#utility.yul\":10404:10413   */\n      dup6\n        /* \"#utility.yul\":10400:10422   */\n      add\n        /* \"#utility.yul\":10368:10432   */\n      tag_280\n      jump\t// in\n    tag_400:\n        /* \"#utility.yul\":10358:10432   */\n      swap2\n      pop\n        /* \"#utility.yul\":10314:10442   */\n      pop\n        /* \"#utility.yul\":10098:10449   */\n      swap3\n      swap2\n      pop\n      pop\n      jump\t// out\n        /* \"#utility.yul\":10455:10628   */\n    tag_281:\n        /* \"#utility.yul\":10595:10620   */\n      0x72657761726420616d6f756e74203e2062616c616e6365000000000000000000\n        /* \"#utility.yul\":10591:10592   */\n      0x00\n        /* \"#utility.yul\":10583:10589   */\n      dup3\n        /* \"#utility.yul\":10579:10593   */\n      add\n        /* \"#utility.yul\":10572:10621   */\n      mstore\n        /* \"#utility.yul\":10455:10628   */\n      pop\n      jump\t// out\n        /* \"#utility.yul\":10634:11000   */\n    tag_282:\n        /* \"#utility.yul\":10776:10779   */\n      0x00\n        /* \"#utility.yul\":10797:10864   */\n      tag_403\n        /* \"#utility.yul\":10861:10863   */\n      0x17\n        /* \"#utility.yul\":10856:10859   */\n      dup4\n        /* \"#utility.yul\":10797:10864   */\n      tag_266\n      jump\t// in\n    tag_403:\n        /* \"#utility.yul\":10790:10864   */\n      swap2\n      pop\n        /* \"#utility.yul\":10873:10966   */\n      tag_404\n        /* \"#utility.yul\":10962:10965   */\n      dup3\n        /* \"#utility.yul\":10873:10966   */\n      tag_281\n      jump\t// in\n    tag_404:\n        /* \"#utility.yul\":10991:10993   */\n      0x20\n        /* \"#utility.yul\":10986:10989   */\n      dup3\n        /* \"#utility.yul\":10982:10994   */\n      add\n        /* \"#utility.yul\":10975:10994   */\n      swap1\n      pop\n        /* \"#utility.yul\":10634:11000   */\n      swap2\n      swap1\n      pop\n      jump\t// out\n        /* \"#utility.yul\":11006:11425   */\n    tag_174:\n        /* \"#utility.yul\":11172:11176   */\n      0x00\n        /* \"#utility.yul\":11210:11212   */\n      0x20\n        /* \"#utility.yul\":11199:11208   */\n      dup3\n        /* \"#utility.yul\":11195:11213   */\n      add\n        /* \"#utility.yul\":11187:11213   */\n      swap1\n      pop\n        /* \"#utility.yul\":11259:11268   */\n      dup2\n        /* \"#utility.yul\":11253:11257   */\n      dup2\n        /* \"#utility.yul\":11249:11269   */\n      sub\n        /* \"#utility.yul\":11245:11246   */\n      0x00\n        /* \"#utility.yul\":11234:11243   */\n      dup4\n        /* \"#utility.yul\":11230:11247   */\n      add\n        /* \"#utility.yul\":11223:11270   */\n      mstore\n        /* \"#utility.yul\":11287:11418   */\n      tag_406\n        /* \"#utility.yul\":11413:11417   */\n      dup2\n        /* \"#utility.yul\":11287:11418   */\n      tag_282\n      jump\t// in\n    tag_406:\n        /* \"#utility.yul\":11279:11418   */\n      swap1\n      pop\n        /* \"#utility.yul\":11006:11425   */\n      swap2\n      swap1\n      pop\n      jump\t// out\n        /* \"#utility.yul\":11431:11597   */\n    tag_283:\n        /* \"#utility.yul\":11571:11589   */\n      0x6d6f6e6579206e6f7420656e6f75676800000000000000000000000000000000\n        /* \"#utility.yul\":11567:11568   */\n      0x00\n        /* \"#utility.yul\":11559:11565   */\n      dup3\n        /* \"#utility.yul\":11555:11569   */\n      add\n        /* \"#utility.yul\":11548:11590   */\n      mstore\n        /* \"#utility.yul\":11431:11597   */\n      pop\n      jump\t// out\n        /* \"#utility.yul\":11603:11969   */\n    tag_284:\n        /* \"#utility.yul\":11745:11748   */\n      0x00\n        /* \"#utility.yul\":11766:11833   */\n      tag_409\n        /* \"#utility.yul\":11830:11832   */\n      0x10\n        /* \"#utility.yul\":11825:11828   */\n      dup4\n        /* \"#utility.yul\":11766:11833   */\n      tag_266\n      jump\t// in\n    tag_409:\n        /* \"#utility.yul\":11759:11833   */\n      swap2\n      pop\n        /* \"#utility.yul\":11842:11935   */\n      tag_410\n        /* \"#utility.yul\":11931:11934   */\n      dup3\n        /* \"#utility.yul\":11842:11935   */\n      tag_283\n      jump\t// in\n    tag_410:\n        /* \"#utility.yul\":11960:11962   */\n      0x20\n        /* \"#utility.yul\":11955:11958   */\n      dup3\n        /* \"#utility.yul\":11951:11963   */\n      add\n        /* \"#utility.yul\":11944:11963   */\n      swap1\n      pop\n        /* \"#utility.yul\":11603:11969   */\n      swap2\n      swap1\n      pop\n      jump\t// out\n        /* \"#utility.yul\":11975:12394   */\n    tag_215:\n        /* \"#utility.yul\":12141:12145   */\n      0x00\n        /* \"#utility.yul\":12179:12181   */\n      0x20\n        /* \"#utility.yul\":12168:12177   */\n      dup3\n        /* \"#utility.yul\":12164:12182   */\n      add\n        /* \"#utility.yul\":12156:12182   */\n      swap1\n      pop\n        /* \"#utility.yul\":12228:12237   */\n      dup2\n        /* \"#utility.yul\":12222:12226   */\n      dup2\n        /* \"#utility.yul\":12218:12238   */\n      sub\n        /* \"#utility.yul\":12214:12215   */\n      0x00\n        /* \"#utility.yul\":12203:12212   */\n      dup4\n        /* \"#utility.yul\":12199:12216   */\n      add\n        /* \"#utility.yul\":12192:12239   */\n      mstore\n        /* \"#utility.yul\":12256:12387   */\n      tag_412\n        /* \"#utility.yul\":12382:12386   */\n      dup2\n        /* \"#utility.yul\":12256:12387   */\n      tag_284\n      jump\t// in\n    tag_412:\n        /* \"#utility.yul\":12248:12387   */\n      swap1\n      pop\n        /* \"#utility.yul\":11975:12394   */\n      swap2\n      swap1\n      pop\n      jump\t// out\n        /* \"#utility.yul\":12400:12842   */\n    tag_219:\n        /* \"#utility.yul\":12549:12553   */\n      0x00\n        /* \"#utility.yul\":12587:12589   */\n      0x60\n        /* \"#utility.yul\":12576:12585   */\n      dup3\n        /* \"#utility.yul\":12572:12590   */\n      add\n        /* \"#utility.yul\":12564:12590   */\n      swap1\n      pop\n        /* \"#utility.yul\":12600:12671   */\n      tag_414\n        /* \"#utility.yul\":12668:12669   */\n      0x00\n        /* \"#utility.yul\":12657:12666   */\n      dup4\n        /* \"#utility.yul\":12653:12670   */\n      add\n        /* \"#utility.yul\":12644:12650   */\n      dup7\n        /* \"#utility.yul\":12600:12671   */\n      tag_265\n      jump\t// in\n    tag_414:\n        /* \"#utility.yul\":12681:12753   */\n      tag_415\n        /* \"#utility.yul\":12749:12751   */\n      0x20\n        /* \"#utility.yul\":12738:12747   */\n      dup4\n        /* \"#utility.yul\":12734:12752   */\n      add\n        /* \"#utility.yul\":12725:12731   */\n      dup6\n        /* \"#utility.yul\":12681:12753   */\n      tag_265\n      jump\t// in\n    tag_415:\n        /* \"#utility.yul\":12763:12835   */\n      tag_416\n        /* \"#utility.yul\":12831:12833   */\n      0x40\n        /* \"#utility.yul\":12820:12829   */\n      dup4\n        /* \"#utility.yul\":12816:12834   */\n      add\n        /* \"#utility.yul\":12807:12813   */\n      dup5\n        /* \"#utility.yul\":12763:12835   */\n      tag_250\n      jump\t// in\n    tag_416:\n        /* \"#utility.yul\":12400:12842   */\n      swap5\n      swap4\n      pop\n      pop\n      pop\n      pop\n      jump\t// out\n        /* \"#utility.yul\":12848:13026   */\n    tag_285:\n        /* \"#utility.yul\":12988:13018   */\n      0x726577617264206475726174696f6e206e6f742066696e697368656400000000\n        /* \"#utility.yul\":12984:12985   */\n      0x00\n        /* \"#utility.yul\":12976:12982   */\n      dup3\n        /* \"#utility.yul\":12972:12986   */\n      add\n        /* \"#utility.yul\":12965:13019   */\n      mstore\n        /* \"#utility.yul\":12848:13026   */\n      pop\n      jump\t// out\n        /* \"#utility.yul\":13032:13398   */\n    tag_286:\n        /* \"#utility.yul\":13174:13177   */\n      0x00\n        /* \"#utility.yul\":13195:13262   */\n      tag_419\n        /* \"#utility.yul\":13259:13261   */\n      0x1c\n        /* \"#utility.yul\":13254:13257   */\n      dup4\n        /* \"#utility.yul\":13195:13262   */\n      tag_266\n      jump\t// in\n    tag_419:\n        /* \"#utility.yul\":13188:13262   */\n      swap2\n      pop\n        /* \"#utility.yul\":13271:13364   */\n      tag_420\n        /* \"#utility.yul\":13360:13363   */\n      dup3\n        /* \"#utility.yul\":13271:13364   */\n      tag_285\n      jump\t// in\n    tag_420:\n        /* \"#utility.yul\":13389:13391   */\n      0x20\n        /* \"#utility.yul\":13384:13387   */\n      dup3\n        /* \"#utility.yul\":13380:13392   */\n      add\n        /* \"#utility.yul\":13373:13392   */\n      swap1\n      pop\n        /* \"#utility.yul\":13032:13398   */\n      swap2\n      swap1\n      pop\n      jump\t// out\n        /* \"#utility.yul\":13404:13823   */\n    tag_233:\n        /* \"#utility.yul\":13570:13574   */\n      0x00\n        /* \"#utility.yul\":13608:13610   */\n      0x20\n        /* \"#utility.yul\":13597:13606   */\n      dup3\n        /* \"#utility.yul\":13593:13611   */\n      add\n        /* \"#utility.yul\":13585:13611   */\n      swap1\n      pop\n        /* \"#utility.yul\":13657:13666   */\n      dup2\n        /* \"#utility.yul\":13651:13655   */\n      dup2\n        /* \"#utility.yul\":13647:13667   */\n      sub\n        /* \"#utility.yul\":13643:13644   */\n      0x00\n        /* \"#utility.yul\":13632:13641   */\n      dup4\n        /* \"#utility.yul\":13628:13645   */\n      add\n        /* \"#utility.yul\":13621:13668   */\n      mstore\n        /* \"#utility.yul\":13685:13816   */\n      tag_422\n        /* \"#utility.yul\":13811:13815   */\n      dup2\n        /* \"#utility.yul\":13685:13816   */\n      tag_286\n      jump\t// in\n    tag_422:\n        /* \"#utility.yul\":13677:13816   */\n      swap1\n      pop\n        /* \"#utility.yul\":13404:13823   */\n      swap2\n      swap1\n      pop\n      jump\t// out\n\n    auxdata: 0xa2646970667358221220d2f9f00f9aef1643f545f8f4a95832db1f00f09a40aab6c6140350a26a8045c464736f6c634300081e0033\n}\n",
				"bytecode": {
					"linkReferences": {},
					"object": "60c060405234801561000f575f5ffd5b50604051611c5f380380611c5f8339818101604052810190610031919061013d565b8173ffffffffffffffffffffffffffffffffffffffff1660808173ffffffffffffffffffffffffffffffffffffffff16815250508073ffffffffffffffffffffffffffffffffffffffff1660a08173ffffffffffffffffffffffffffffffffffffffff1681525050335f5f6101000a81548173ffffffffffffffffffffffffffffffffffffffff021916908373ffffffffffffffffffffffffffffffffffffffff160217905550505061017b565b5f5ffd5b5f73ffffffffffffffffffffffffffffffffffffffff82169050919050565b5f61010c826100e3565b9050919050565b61011c81610102565b8114610126575f5ffd5b50565b5f8151905061013781610113565b92915050565b5f5f60408385031215610153576101526100df565b5b5f61016085828601610129565b925050602061017185828601610129565b9150509250929050565b60805160a051611aa06101bf5f395f818161092a01528181610b7101526110ec01525f818161066101528181610cea01528181610f0101526110450152611aa05ff3fe608060405260043610610134575f3560e01c80637519ab50116100aa578063ad7a672f1161006e578063ad7a672f146103d4578063d1af0c7d146103fe578063dcb640cd14610428578063df136d6514610452578063f6be71d11461047c578063fc9daa07146104a457610134565b80637519ab50146103105780637b0a47ee1461033a5780638da5cb5b146103645780638f5fb40e1461038e578063a694fc3a146103b857610134565b80633c6b16ab116100fc5780633c6b16ab1461022c5780633d18b91214610254578063463779821461026a578063628e4a621461028057806370a08231146102aa57806372f702f3146102e657610134565b80630fb5a6b414610138578063199af55d146101625780631d62ebd91461019e5780632e1a7d4d146101da5780633197cbb614610202575b5f5ffd5b348015610143575f5ffd5b5061014c6104ce565b60405161015991906113c3565b60405180910390f35b34801561016d575f5ffd5b506101886004803603810190610183919061143a565b6104d4565b60405161019591906113c3565b60405180910390f35b3480156101a9575f5ffd5b506101c460048036038101906101bf919061143a565b6104e9565b6040516101d191906113c3565b60405180910390f35b3480156101e5575f5ffd5b5061020060048036038101906101fb919061148f565b6104fe565b005b34801561020d575f5ffd5b506102166106fe565b60405161022391906113c3565b60405180910390f35b348015610237575f5ffd5b50610252600480360381019061024d919061148f565b610704565b005b34801561025f575f5ffd5b50610268610a30565b005b348015610275575f5ffd5b5061027e610c0f565b005b34801561028b575f5ffd5b50610294610cc5565b6040516102a191906113c3565b60405180910390f35b3480156102b5575f5ffd5b506102d060048036038101906102cb919061143a565b610cd3565b6040516102dd91906113c3565b60405180910390f35b3480156102f1575f5ffd5b506102fa610ce8565b6040516103079190611515565b60405180910390f35b34801561031b575f5ffd5b50610324610d0c565b60405161033191906113c3565b60405180910390f35b348015610345575f5ffd5b5061034e610d12565b60405161035b91906113c3565b60405180910390f35b34801561036f575f5ffd5b50610378610d18565b604051610385919061153d565b60405180910390f35b348015610399575f5ffd5b506103a2610d3c565b6040516103af91906113c3565b60405180910390f35b6103d260048036038101906103cd919061148f565b610e08565b005b3480156103df575f5ffd5b506103e86110e4565b6040516103f591906113c3565b60405180910390f35b348015610409575f5ffd5b506104126110ea565b60405161041f9190611515565b60405180910390f35b348015610433575f5ffd5b5061043c61110e565b60405161044991906113c3565b60405180910390f35b34801561045d575f5ffd5b5061046661115e565b60405161047391906113c3565b60405180910390f35b348015610487575f5ffd5b506104a2600480360381019061049d919061148f565b611164565b005b3480156104af575f5ffd5b506104b8611240565b6040516104c591906113c3565b60405180910390f35b60035481565b6007602052805f5260405f205f915090505481565b6009602052805f5260405f205f915090505481565b610506611246565b60068190555061051461110e565b6002819055505f60065411156105b25761052c6112b2565b60095f3373ffffffffffffffffffffffffffffffffffffffff1673ffffffffffffffffffffffffffffffffffffffff1681526020019081526020015f208190555060065460075f3373ffffffffffffffffffffffffffffffffffffffff1673ffffffffffffffffffffffffffffffffffffffff1681526020019081526020015f20819055505b5f81116105f4576040517f08c379a00000000000000000000000000000000000000000000000000000000081526004016105eb906115b0565b60405180910390fd5b80600a5f82825461060591906115fb565b925050819055508060085f3373ffffffffffffffffffffffffffffffffffffffff1673ffffffffffffffffffffffffffffffffffffffff1681526020019081526020015f205f82825461065891906115fb565b925050819055507f000000000000000000000000000000000000000000000000000000000000000073ffffffffffffffffffffffffffffffffffffffff1663a9059cbb33836040518363ffffffff1660e01b81526004016106ba92919061162e565b6020604051808303815f875af11580156106d6573d5f5f3e3d5ffd5b505050506040513d601f19601f820116820180604052508101906106fa919061168a565b5050565b60015481565b5f5f9054906101000a900473ffffffffffffffffffffffffffffffffffffffff1673ffffffffffffffffffffffffffffffffffffffff163373ffffffffffffffffffffffffffffffffffffffff1614610792576040517f08c379a0000000000000000000000000000000000000000000000000000000008152600401610789906116ff565b60405180910390fd5b61079a611246565b6006819055506107a861110e565b6002819055505f6006541115610846576107c06112b2565b60095f3373ffffffffffffffffffffffffffffffffffffffff1673ffffffffffffffffffffffffffffffffffffffff1681526020019081526020015f208190555060065460075f3373ffffffffffffffffffffffffffffffffffffffff1673ffffffffffffffffffffffffffffffffffffffff1681526020019081526020015f20819055505b5f8111610888576040517f08c379a000000000000000000000000000000000000000000000000000000000815260040161087f90611767565b60405180910390fd5b6001544211156108ab57600354816108a091906117b2565b600481905550610a12565b60035481426001546108bd91906115fb565b6004546108ca91906117e2565b6108d49190611823565b6108de91906117b2565b6004819055505f60045411610928576040517f08c379a000000000000000000000000000000000000000000000000000000000815260040161091f906118a0565b60405180910390fd5b7f000000000000000000000000000000000000000000000000000000000000000073ffffffffffffffffffffffffffffffffffffffff166370a08231336040518263ffffffff1660e01b8152600401610981919061153d565b602060405180830381865afa15801561099c573d5f5f3e3d5ffd5b505050506040513d601f19601f820116820180604052508101906109c091906118d2565b6003546004546109d091906117e2565b1115610a11576040517f08c379a0000000000000000000000000000000000000000000000000000000008152600401610a0890611947565b60405180910390fd5b5b60035442610a209190611823565b6001819055504260028190555050565b610a38611246565b600681905550610a4661110e565b6002819055505f6006541115610ae457610a5e6112b2565b60095f3373ffffffffffffffffffffffffffffffffffffffff1673ffffffffffffffffffffffffffffffffffffffff1681526020019081526020015f208190555060065460075f3373ffffffffffffffffffffffffffffffffffffffff1673ffffffffffffffffffffffffffffffffffffffff1681526020019081526020015f20819055505b5f60095f3373ffffffffffffffffffffffffffffffffffffffff1673ffffffffffffffffffffffffffffffffffffffff1681526020019081526020015f205490505f811115610c0c575f60095f3373ffffffffffffffffffffffffffffffffffffffff1673ffffffffffffffffffffffffffffffffffffffff1681526020019081526020015f20819055507f000000000000000000000000000000000000000000000000000000000000000073ffffffffffffffffffffffffffffffffffffffff1663a9059cbb33836040518363ffffffff1660e01b8152600401610bca92919061162e565b6020604051808303815f875af1158015610be6573d5f5f3e3d5ffd5b505050506040513d601f19601f82011682018060405250810190610c0a919061168a565b505b50565b610c17611246565b600681905550610c2561110e565b6002819055505f6006541115610cc357610c3d6112b2565b60095f3373ffffffffffffffffffffffffffffffffffffffff1673ffffffffffffffffffffffffffffffffffffffff1681526020019081526020015f208190555060065460075f3373ffffffffffffffffffffffffffffffffffffffff1673ffffffffffffffffffffffffffffffffffffffff1681526020019081526020015f20819055505b565b5f610cce6112b2565b905090565b6008602052805f5260405f205f915090505481565b7f000000000000000000000000000000000000000000000000000000000000000081565b60025481565b60045481565b5f5f9054906101000a900473ffffffffffffffffffffffffffffffffffffffff1681565b5f60095f3373ffffffffffffffffffffffffffffffffffffffff1673ffffffffffffffffffffffffffffffffffffffff1681526020019081526020015f2054670de0b6b3a764000060085f3373ffffffffffffffffffffffffffffffffffffffff1673ffffffffffffffffffffffffffffffffffffffff1681526020019081526020015f2054670de0b6b3a7640000600a54600454610ddb91906117b2565b610de591906117e2565b610def91906117e2565b610df991906117b2565b610e039190611823565b905090565b610e10611246565b600681905550610e1e61110e565b6002819055505f6006541115610ebc57610e366112b2565b60095f3373ffffffffffffffffffffffffffffffffffffffff1673ffffffffffffffffffffffffffffffffffffffff1681526020019081526020015f208190555060065460075f3373ffffffffffffffffffffffffffffffffffffffff1673ffffffffffffffffffffffffffffffffffffffff1681526020019081526020015f20819055505b5f8111610efe576040517f08c379a0000000000000000000000000000000000000000000000000000000008152600401610ef5906115b0565b60405180910390fd5b807f000000000000000000000000000000000000000000000000000000000000000073ffffffffffffffffffffffffffffffffffffffff166370a08231336040518263ffffffff1660e01b8152600401610f58919061153d565b602060405180830381865afa158015610f73573d5f5f3e3d5ffd5b505050506040513d601f19601f82011682018060405250810190610f9791906118d2565b1015610fd8576040517f08c379a0000000000000000000000000000000000000000000000000000000008152600401610fcf906119af565b60405180910390fd5b80600a5f828254610fe99190611823565b925050819055508060085f3373ffffffffffffffffffffffffffffffffffffffff1673ffffffffffffffffffffffffffffffffffffffff1681526020019081526020015f205f82825461103c9190611823565b925050819055507f000000000000000000000000000000000000000000000000000000000000000073ffffffffffffffffffffffffffffffffffffffff166323b872dd3330846040518463ffffffff1660e01b81526004016110a0939291906119cd565b6020604051808303815f875af11580156110bc573d5f5f3e3d5ffd5b505050506040513d601f19601f820116820180604052508101906110e0919061168a565b5050565b600a5481565b7f000000000000000000000000000000000000000000000000000000000000000081565b5f600154421161111e5742611122565b6001545b90507f909c57d5c6ac08245cf2a6de3900e2b868513fa59099b92b27d8db823d92df9c8160405161115391906113c3565b60405180910390a190565b60065481565b5f5f9054906101000a900473ffffffffffffffffffffffffffffffffffffffff1673ffffffffffffffffffffffffffffffffffffffff163373ffffffffffffffffffffffffffffffffffffffff16146111f2576040517f08c379a00000000000000000000000000000000000000000000000000000000081526004016111e9906116ff565b60405180910390fd5b4260015410611236576040517f08c379a000000000000000000000000000000000000000000000000000000000815260040161122d90611a4c565b60405180910390fd5b8060038190555050565b60055481565b5f5f5f600a54146112a557600a54670de0b6b3a764000060025461126861110e565b61127291906115fb565b60045461127f91906117e2565b61128991906117e2565b61129391906117b2565b6006546112a09190611823565b6112a9565b6006545b90508091505090565b5f60095f3373ffffffffffffffffffffffffffffffffffffffff1673ffffffffffffffffffffffffffffffffffffffff1681526020019081526020015f2054670de0b6b3a764000060085f3373ffffffffffffffffffffffffffffffffffffffff1673ffffffffffffffffffffffffffffffffffffffff1681526020019081526020015f205460075f3373ffffffffffffffffffffffffffffffffffffffff1673ffffffffffffffffffffffffffffffffffffffff1681526020019081526020015f205461137e611246565b61138891906115fb565b61139291906117e2565b61139c91906117b2565b6113a69190611823565b905090565b5f819050919050565b6113bd816113ab565b82525050565b5f6020820190506113d65f8301846113b4565b92915050565b5f5ffd5b5f73ffffffffffffffffffffffffffffffffffffffff82169050919050565b5f611409826113e0565b9050919050565b611419816113ff565b8114611423575f5ffd5b50565b5f8135905061143481611410565b92915050565b5f6020828403121561144f5761144e6113dc565b5b5f61145c84828501611426565b91505092915050565b61146e816113ab565b8114611478575f5ffd5b50565b5f8135905061148981611465565b92915050565b5f602082840312156114a4576114a36113dc565b5b5f6114b18482850161147b565b91505092915050565b5f819050919050565b5f6114dd6114d86114d3846113e0565b6114ba565b6113e0565b9050919050565b5f6114ee826114c3565b9050919050565b5f6114ff826114e4565b9050919050565b61150f816114f5565b82525050565b5f6020820190506115285f830184611506565b92915050565b611537816113ff565b82525050565b5f6020820190506115505f83018461152e565b92915050565b5f82825260208201905092915050565b7f7374616b65205f616d6f6e74206572726f7200000000000000000000000000005f82015250565b5f61159a601283611556565b91506115a582611566565b602082019050919050565b5f6020820190508181035f8301526115c78161158e565b9050919050565b7f4e487b71000000000000000000000000000000000000000000000000000000005f52601160045260245ffd5b5f611605826113ab565b9150611610836113ab565b9250828203905081811115611628576116276115ce565b5b92915050565b5f6040820190506116415f83018561152e565b61164e60208301846113b4565b9392505050565b5f8115159050919050565b61166981611655565b8114611673575f5ffd5b50565b5f8151905061168481611660565b92915050565b5f6020828403121561169f5761169e6113dc565b5b5f6116ac84828501611676565b91505092915050565b7f6e6f74206f776e657200000000000000000000000000000000000000000000005f82015250565b5f6116e9600983611556565b91506116f4826116b5565b602082019050919050565b5f6020820190508181035f830152611716816116dd565b9050919050565b7f736574205f616d6f6e74206572726f72000000000000000000000000000000005f82015250565b5f611751601083611556565b915061175c8261171d565b602082019050919050565b5f6020820190508181035f83015261177e81611745565b9050919050565b7f4e487b71000000000000000000000000000000000000000000000000000000005f52601260045260245ffd5b5f6117bc826113ab565b91506117c7836113ab565b9250826117d7576117d6611785565b5b828204905092915050565b5f6117ec826113ab565b91506117f7836113ab565b9250828202611805816113ab565b9150828204841483151761181c5761181b6115ce565b5b5092915050565b5f61182d826113ab565b9150611838836113ab565b92508282019050808211156118505761184f6115ce565b5b92915050565b7f7265776172642072617465203d203000000000000000000000000000000000005f82015250565b5f61188a600f83611556565b915061189582611856565b602082019050919050565b5f6020820190508181035f8301526118b78161187e565b9050919050565b5f815190506118cc81611465565b92915050565b5f602082840312156118e7576118e66113dc565b5b5f6118f4848285016118be565b91505092915050565b7f72657761726420616d6f756e74203e2062616c616e63650000000000000000005f82015250565b5f611931601783611556565b915061193c826118fd565b602082019050919050565b5f6020820190508181035f83015261195e81611925565b9050919050565b7f6d6f6e6579206e6f7420656e6f756768000000000000000000000000000000005f82015250565b5f611999601083611556565b91506119a482611965565b602082019050919050565b5f6020820190508181035f8301526119c68161198d565b9050919050565b5f6060820190506119e05f83018661152e565b6119ed602083018561152e565b6119fa60408301846113b4565b949350505050565b7f726577617264206475726174696f6e206e6f742066696e6973686564000000005f82015250565b5f611a36601c83611556565b9150611a4182611a02565b602082019050919050565b5f6020820190508181035f830152611a6381611a2a565b905091905056fea2646970667358221220d2f9f00f9aef1643f545f8f4a95832db1f00f09a40aab6c6140350a26a8045c464736f6c634300081e0033",
					"opcodes": "PUSH1 0xC0 PUSH1 0x40 MSTORE CALLVALUE DUP1 ISZERO PUSH2 0xF JUMPI PUSH0 PUSH0 REVERT JUMPDEST POP PUSH1 0x40 MLOAD PUSH2 0x1C5F CODESIZE SUB DUP1 PUSH2 0x1C5F DUP4 CODECOPY DUP2 DUP2 ADD PUSH1 0x40 MSTORE DUP2 ADD SWAP1 PUSH2 0x31 SWAP2 SWAP1 PUSH2 0x13D JUMP JUMPDEST DUP2 PUSH20 0xFFFFFFFFFFFFFFFFFFFFFFFFFFFFFFFFFFFFFFFF AND PUSH1 0x80 DUP2 PUSH20 0xFFFFFFFFFFFFFFFFFFFFFFFFFFFFFFFFFFFFFFFF AND DUP2 MSTORE POP POP DUP1 PUSH20 0xFFFFFFFFFFFFFFFFFFFFFFFFFFFFFFFFFFFFFFFF AND PUSH1 0xA0 DUP2 PUSH20 0xFFFFFFFFFFFFFFFFFFFFFFFFFFFFFFFFFFFFFFFF AND DUP2 MSTORE POP POP CALLER PUSH0 PUSH0 PUSH2 0x100 EXP DUP2 SLOAD DUP2 PUSH20 0xFFFFFFFFFFFFFFFFFFFFFFFFFFFFFFFFFFFFFFFF MUL NOT AND SWAP1 DUP4 PUSH20 0xFFFFFFFFFFFFFFFFFFFFFFFFFFFFFFFFFFFFFFFF AND MUL OR SWAP1 SSTORE POP POP POP PUSH2 0x17B JUMP JUMPDEST PUSH0 PUSH0 REVERT JUMPDEST PUSH0 PUSH20 0xFFFFFFFFFFFFFFFFFFFFFFFFFFFFFFFFFFFFFFFF DUP3 AND SWAP1 POP SWAP2 SWAP1 POP JUMP JUMPDEST PUSH0 PUSH2 0x10C DUP3 PUSH2 0xE3 JUMP JUMPDEST SWAP1 POP SWAP2 SWAP1 POP JUMP JUMPDEST PUSH2 0x11C DUP2 PUSH2 0x102 JUMP JUMPDEST DUP2 EQ PUSH2 0x126 JUMPI PUSH0 PUSH0 REVERT JUMPDEST POP JUMP JUMPDEST PUSH0 DUP2 MLOAD SWAP1 POP PUSH2 0x137 DUP2 PUSH2 0x113 JUMP JUMPDEST SWAP3 SWAP2 POP POP JUMP JUMPDEST PUSH0 PUSH0 PUSH1 0x40 DUP4 DUP6 SUB SLT ISZERO PUSH2 0x153 JUMPI PUSH2 0x152 PUSH2 0xDF JUMP JUMPDEST JUMPDEST PUSH0 PUSH2 0x160 DUP6 DUP3 DUP7 ADD PUSH2 0x129 JUMP JUMPDEST SWAP3 POP POP PUSH1 0x20 PUSH2 0x171 DUP6 DUP3 DUP7 ADD PUSH2 0x129 JUMP JUMPDEST SWAP2 POP POP SWAP3 POP SWAP3 SWAP1 POP JUMP JUMPDEST PUSH1 0x80 MLOAD PUSH1 0xA0 MLOAD PUSH2 0x1AA0 PUSH2 0x1BF PUSH0 CODECOPY PUSH0 DUP2 DUP2 PUSH2 0x92A ADD MSTORE DUP2 DUP2 PUSH2 0xB71 ADD MSTORE PUSH2 0x10EC ADD MSTORE PUSH0 DUP2 DUP2 PUSH2 0x661 ADD MSTORE DUP2 DUP2 PUSH2 0xCEA ADD MSTORE DUP2 DUP2 PUSH2 0xF01 ADD MSTORE PUSH2 0x1045 ADD MSTORE PUSH2 0x1AA0 PUSH0 RETURN INVALID PUSH1 0x80 PUSH1 0x40 MSTORE PUSH1 0x4 CALLDATASIZE LT PUSH2 0x134 JUMPI PUSH0 CALLDATALOAD PUSH1 0xE0 SHR DUP1 PUSH4 0x7519AB50 GT PUSH2 0xAA JUMPI DUP1 PUSH4 0xAD7A672F GT PUSH2 0x6E JUMPI DUP1 PUSH4 0xAD7A672F EQ PUSH2 0x3D4 JUMPI DUP1 PUSH4 0xD1AF0C7D EQ PUSH2 0x3FE JUMPI DUP1 PUSH4 0xDCB640CD EQ PUSH2 0x428 JUMPI DUP1 PUSH4 0xDF136D65 EQ PUSH2 0x452 JUMPI DUP1 PUSH4 0xF6BE71D1 EQ PUSH2 0x47C JUMPI DUP1 PUSH4 0xFC9DAA07 EQ PUSH2 0x4A4 JUMPI PUSH2 0x134 JUMP JUMPDEST DUP1 PUSH4 0x7519AB50 EQ PUSH2 0x310 JUMPI DUP1 PUSH4 0x7B0A47EE EQ PUSH2 0x33A JUMPI DUP1 PUSH4 0x8DA5CB5B EQ PUSH2 0x364 JUMPI DUP1 PUSH4 0x8F5FB40E EQ PUSH2 0x38E JUMPI DUP1 PUSH4 0xA694FC3A EQ PUSH2 0x3B8 JUMPI PUSH2 0x134 JUMP JUMPDEST DUP1 PUSH4 0x3C6B16AB GT PUSH2 0xFC JUMPI DUP1 PUSH4 0x3C6B16AB EQ PUSH2 0x22C JUMPI DUP1 PUSH4 0x3D18B912 EQ PUSH2 0x254 JUMPI DUP1 PUSH4 0x46377982 EQ PUSH2 0x26A JUMPI DUP1 PUSH4 0x628E4A62 EQ PUSH2 0x280 JUMPI DUP1 PUSH4 0x70A08231 EQ PUSH2 0x2AA JUMPI DUP1 PUSH4 0x72F702F3 EQ PUSH2 0x2E6 JUMPI PUSH2 0x134 JUMP JUMPDEST DUP1 PUSH4 0xFB5A6B4 EQ PUSH2 0x138 JUMPI DUP1 PUSH4 0x199AF55D EQ PUSH2 0x162 JUMPI DUP1 PUSH4 0x1D62EBD9 EQ PUSH2 0x19E JUMPI DUP1 PUSH4 0x2E1A7D4D EQ PUSH2 0x1DA JUMPI DUP1 PUSH4 0x3197CBB6 EQ PUSH2 0x202 JUMPI JUMPDEST PUSH0 PUSH0 REVERT JUMPDEST CALLVALUE DUP1 ISZERO PUSH2 0x143 JUMPI PUSH0 PUSH0 REVERT JUMPDEST POP PUSH2 0x14C PUSH2 0x4CE JUMP JUMPDEST PUSH1 0x40 MLOAD PUSH2 0x159 SWAP2 SWAP1 PUSH2 0x13C3 JUMP JUMPDEST PUSH1 0x40 MLOAD DUP1 SWAP2 SUB SWAP1 RETURN JUMPDEST CALLVALUE DUP1 ISZERO PUSH2 0x16D JUMPI PUSH0 PUSH0 REVERT JUMPDEST POP PUSH2 0x188 PUSH1 0x4 DUP1 CALLDATASIZE SUB DUP2 ADD SWAP1 PUSH2 0x183 SWAP2 SWAP1 PUSH2 0x143A JUMP JUMPDEST PUSH2 0x4D4 JUMP JUMPDEST PUSH1 0x40 MLOAD PUSH2 0x195 SWAP2 SWAP1 PUSH2 0x13C3 JUMP JUMPDEST PUSH1 0x40 MLOAD DUP1 SWAP2 SUB SWAP1 RETURN JUMPDEST CALLVALUE DUP1 ISZERO PUSH2 0x1A9 JUMPI PUSH0 PUSH0 REVERT JUMPDEST POP PUSH2 0x1C4 PUSH1 0x4 DUP1 CALLDATASIZE SUB DUP2 ADD SWAP1 PUSH2 0x1BF SWAP2 SWAP1 PUSH2 0x143A JUMP JUMPDEST PUSH2 0x4E9 JUMP JUMPDEST PUSH1 0x40 MLOAD PUSH2 0x1D1 SWAP2 SWAP1 PUSH2 0x13C3 JUMP JUMPDEST PUSH1 0x40 MLOAD DUP1 SWAP2 SUB SWAP1 RETURN JUMPDEST CALLVALUE DUP1 ISZERO PUSH2 0x1E5 JUMPI PUSH0 PUSH0 REVERT JUMPDEST POP PUSH2 0x200 PUSH1 0x4 DUP1 CALLDATASIZE SUB DUP2 ADD SWAP1 PUSH2 0x1FB SWAP2 SWAP1 PUSH2 0x148F JUMP JUMPDEST PUSH2 0x4FE JUMP JUMPDEST STOP JUMPDEST CALLVALUE DUP1 ISZERO PUSH2 0x20D JUMPI PUSH0 PUSH0 REVERT JUMPDEST POP PUSH2 0x216 PUSH2 0x6FE JUMP JUMPDEST PUSH1 0x40 MLOAD PUSH2 0x223 SWAP2 SWAP1 PUSH2 0x13C3 JUMP JUMPDEST PUSH1 0x40 MLOAD DUP1 SWAP2 SUB SWAP1 RETURN JUMPDEST CALLVALUE DUP1 ISZERO PUSH2 0x237 JUMPI PUSH0 PUSH0 REVERT JUMPDEST POP PUSH2 0x252 PUSH1 0x4 DUP1 CALLDATASIZE SUB DUP2 ADD SWAP1 PUSH2 0x24D SWAP2 SWAP1 PUSH2 0x148F JUMP JUMPDEST PUSH2 0x704 JUMP JUMPDEST STOP JUMPDEST CALLVALUE DUP1 ISZERO PUSH2 0x25F JUMPI PUSH0 PUSH0 REVERT JUMPDEST POP PUSH2 0x268 PUSH2 0xA30 JUMP JUMPDEST STOP JUMPDEST CALLVALUE DUP1 ISZERO PUSH2 0x275 JUMPI PUSH0 PUSH0 REVERT JUMPDEST POP PUSH2 0x27E PUSH2 0xC0F JUMP JUMPDEST STOP JUMPDEST CALLVALUE DUP1 ISZERO PUSH2 0x28B JUMPI PUSH0 PUSH0 REVERT JUMPDEST POP PUSH2 0x294 PUSH2 0xCC5 JUMP JUMPDEST PUSH1 0x40 MLOAD PUSH2 0x2A1 SWAP2 SWAP1 PUSH2 0x13C3 JUMP JUMPDEST PUSH1 0x40 MLOAD DUP1 SWAP2 SUB SWAP1 RETURN JUMPDEST CALLVALUE DUP1 ISZERO PUSH2 0x2B5 JUMPI PUSH0 PUSH0 REVERT JUMPDEST POP PUSH2 0x2D0 PUSH1 0x4 DUP1 CALLDATASIZE SUB DUP2 ADD SWAP1 PUSH2 0x2CB SWAP2 SWAP1 PUSH2 0x143A JUMP JUMPDEST PUSH2 0xCD3 JUMP JUMPDEST PUSH1 0x40 MLOAD PUSH2 0x2DD SWAP2 SWAP1 PUSH2 0x13C3 JUMP JUMPDEST PUSH1 0x40 MLOAD DUP1 SWAP2 SUB SWAP1 RETURN JUMPDEST CALLVALUE DUP1 ISZERO PUSH2 0x2F1 JUMPI PUSH0 PUSH0 REVERT JUMPDEST POP PUSH2 0x2FA PUSH2 0xCE8 JUMP JUMPDEST PUSH1 0x40 MLOAD PUSH2 0x307 SWAP2 SWAP1 PUSH2 0x1515 JUMP JUMPDEST PUSH1 0x40 MLOAD DUP1 SWAP2 SUB SWAP1 RETURN JUMPDEST CALLVALUE DUP1 ISZERO PUSH2 0x31B JUMPI PUSH0 PUSH0 REVERT JUMPDEST POP PUSH2 0x324 PUSH2 0xD0C JUMP JUMPDEST PUSH1 0x40 MLOAD PUSH2 0x331 SWAP2 SWAP1 PUSH2 0x13C3 JUMP JUMPDEST PUSH1 0x40 MLOAD DUP1 SWAP2 SUB SWAP1 RETURN JUMPDEST CALLVALUE DUP1 ISZERO PUSH2 0x345 JUMPI PUSH0 PUSH0 REVERT JUMPDEST POP PUSH2 0x34E PUSH2 0xD12 JUMP JUMPDEST PUSH1 0x40 MLOAD PUSH2 0x35B SWAP2 SWAP1 PUSH2 0x13C3 JUMP JUMPDEST PUSH1 0x40 MLOAD DUP1 SWAP2 SUB SWAP1 RETURN JUMPDEST CALLVALUE DUP1 ISZERO PUSH2 0x36F JUMPI PUSH0 PUSH0 REVERT JUMPDEST POP PUSH2 0x378 PUSH2 0xD18 JUMP JUMPDEST PUSH1 0x40 MLOAD PUSH2 0x385 SWAP2 SWAP1 PUSH2 0x153D JUMP JUMPDEST PUSH1 0x40 MLOAD DUP1 SWAP2 SUB SWAP1 RETURN JUMPDEST CALLVALUE DUP1 ISZERO PUSH2 0x399 JUMPI PUSH0 PUSH0 REVERT JUMPDEST POP PUSH2 0x3A2 PUSH2 0xD3C JUMP JUMPDEST PUSH1 0x40 MLOAD PUSH2 0x3AF SWAP2 SWAP1 PUSH2 0x13C3 JUMP JUMPDEST PUSH1 0x40 MLOAD DUP1 SWAP2 SUB SWAP1 RETURN JUMPDEST PUSH2 0x3D2 PUSH1 0x4 DUP1 CALLDATASIZE SUB DUP2 ADD SWAP1 PUSH2 0x3CD SWAP2 SWAP1 PUSH2 0x148F JUMP JUMPDEST PUSH2 0xE08 JUMP JUMPDEST STOP JUMPDEST CALLVALUE DUP1 ISZERO PUSH2 0x3DF JUMPI PUSH0 PUSH0 REVERT JUMPDEST POP PUSH2 0x3E8 PUSH2 0x10E4 JUMP JUMPDEST PUSH1 0x40 MLOAD PUSH2 0x3F5 SWAP2 SWAP1 PUSH2 0x13C3 JUMP JUMPDEST PUSH1 0x40 MLOAD DUP1 SWAP2 SUB SWAP1 RETURN JUMPDEST CALLVALUE DUP1 ISZERO PUSH2 0x409 JUMPI PUSH0 PUSH0 REVERT JUMPDEST POP PUSH2 0x412 PUSH2 0x10EA JUMP JUMPDEST PUSH1 0x40 MLOAD PUSH2 0x41F SWAP2 SWAP1 PUSH2 0x1515 JUMP JUMPDEST PUSH1 0x40 MLOAD DUP1 SWAP2 SUB SWAP1 RETURN JUMPDEST CALLVALUE DUP1 ISZERO PUSH2 0x433 JUMPI PUSH0 PUSH0 REVERT JUMPDEST POP PUSH2 0x43C PUSH2 0x110E JUMP JUMPDEST PUSH1 0x40 MLOAD PUSH2 0x449 SWAP2 SWAP1 PUSH2 0x13C3 JUMP JUMPDEST PUSH1 0x40 MLOAD DUP1 SWAP2 SUB SWAP1 RETURN JUMPDEST CALLVALUE DUP1 ISZERO PUSH2 0x45D JUMPI PUSH0 PUSH0 REVERT JUMPDEST POP PUSH2 0x466 PUSH2 0x115E JUMP JUMPDEST PUSH1 0x40 MLOAD PUSH2 0x473 SWAP2 SWAP1 PUSH2 0x13C3 JUMP JUMPDEST PUSH1 0x40 MLOAD DUP1 SWAP2 SUB SWAP1 RETURN JUMPDEST CALLVALUE DUP1 ISZERO PUSH2 0x487 JUMPI PUSH0 PUSH0 REVERT JUMPDEST POP PUSH2 0x4A2 PUSH1 0x4 DUP1 CALLDATASIZE SUB DUP2 ADD SWAP1 PUSH2 0x49D SWAP2 SWAP1 PUSH2 0x148F JUMP JUMPDEST PUSH2 0x1164 JUMP JUMPDEST STOP JUMPDEST CALLVALUE DUP1 ISZERO PUSH2 0x4AF JUMPI PUSH0 PUSH0 REVERT JUMPDEST POP PUSH2 0x4B8 PUSH2 0x1240 JUMP JUMPDEST PUSH1 0x40 MLOAD PUSH2 0x4C5 SWAP2 SWAP1 PUSH2 0x13C3 JUMP JUMPDEST PUSH1 0x40 MLOAD DUP1 SWAP2 SUB SWAP1 RETURN JUMPDEST PUSH1 0x3 SLOAD DUP2 JUMP JUMPDEST PUSH1 0x7 PUSH1 0x20 MSTORE DUP1 PUSH0 MSTORE PUSH1 0x40 PUSH0 KECCAK256 PUSH0 SWAP2 POP SWAP1 POP SLOAD DUP2 JUMP JUMPDEST PUSH1 0x9 PUSH1 0x20 MSTORE DUP1 PUSH0 MSTORE PUSH1 0x40 PUSH0 KECCAK256 PUSH0 SWAP2 POP SWAP1 POP SLOAD DUP2 JUMP JUMPDEST PUSH2 0x506 PUSH2 0x1246 JUMP JUMPDEST PUSH1 0x6 DUP2 SWAP1 SSTORE POP PUSH2 0x514 PUSH2 0x110E JUMP JUMPDEST PUSH1 0x2 DUP2 SWAP1 SSTORE POP PUSH0 PUSH1 0x6 SLOAD GT ISZERO PUSH2 0x5B2 JUMPI PUSH2 0x52C PUSH2 0x12B2 JUMP JUMPDEST PUSH1 0x9 PUSH0 CALLER PUSH20 0xFFFFFFFFFFFFFFFFFFFFFFFFFFFFFFFFFFFFFFFF AND PUSH20 0xFFFFFFFFFFFFFFFFFFFFFFFFFFFFFFFFFFFFFFFF AND DUP2 MSTORE PUSH1 0x20 ADD SWAP1 DUP2 MSTORE PUSH1 0x20 ADD PUSH0 KECCAK256 DUP2 SWAP1 SSTORE POP PUSH1 0x6 SLOAD PUSH1 0x7 PUSH0 CALLER PUSH20 0xFFFFFFFFFFFFFFFFFFFFFFFFFFFFFFFFFFFFFFFF AND PUSH20 0xFFFFFFFFFFFFFFFFFFFFFFFFFFFFFFFFFFFFFFFF AND DUP2 MSTORE PUSH1 0x20 ADD SWAP1 DUP2 MSTORE PUSH1 0x20 ADD PUSH0 KECCAK256 DUP2 SWAP1 SSTORE POP JUMPDEST PUSH0 DUP2 GT PUSH2 0x5F4 JUMPI PUSH1 0x40 MLOAD PUSH32 0x8C379A000000000000000000000000000000000000000000000000000000000 DUP2 MSTORE PUSH1 0x4 ADD PUSH2 0x5EB SWAP1 PUSH2 0x15B0 JUMP JUMPDEST PUSH1 0x40 MLOAD DUP1 SWAP2 SUB SWAP1 REVERT JUMPDEST DUP1 PUSH1 0xA PUSH0 DUP3 DUP3 SLOAD PUSH2 0x605 SWAP2 SWAP1 PUSH2 0x15FB JUMP JUMPDEST SWAP3 POP POP DUP2 SWAP1 SSTORE POP DUP1 PUSH1 0x8 PUSH0 CALLER PUSH20 0xFFFFFFFFFFFFFFFFFFFFFFFFFFFFFFFFFFFFFFFF AND PUSH20 0xFFFFFFFFFFFFFFFFFFFFFFFFFFFFFFFFFFFFFFFF AND DUP2 MSTORE PUSH1 0x20 ADD SWAP1 DUP2 MSTORE PUSH1 0x20 ADD PUSH0 KECCAK256 PUSH0 DUP3 DUP3 SLOAD PUSH2 0x658 SWAP2 SWAP1 PUSH2 0x15FB JUMP JUMPDEST SWAP3 POP POP DUP2 SWAP1 SSTORE POP PUSH32 0x0 PUSH20 0xFFFFFFFFFFFFFFFFFFFFFFFFFFFFFFFFFFFFFFFF AND PUSH4 0xA9059CBB CALLER DUP4 PUSH1 0x40 MLOAD DUP4 PUSH4 0xFFFFFFFF AND PUSH1 0xE0 SHL DUP2 MSTORE PUSH1 0x4 ADD PUSH2 0x6BA SWAP3 SWAP2 SWAP1 PUSH2 0x162E JUMP JUMPDEST PUSH1 0x20 PUSH1 0x40 MLOAD DUP1 DUP4 SUB DUP2 PUSH0 DUP8 GAS CALL ISZERO DUP1 ISZERO PUSH2 0x6D6 JUMPI RETURNDATASIZE PUSH0 PUSH0 RETURNDATACOPY RETURNDATASIZE PUSH0 REVERT JUMPDEST POP POP POP POP PUSH1 0x40 MLOAD RETURNDATASIZE PUSH1 0x1F NOT PUSH1 0x1F DUP3 ADD AND DUP3 ADD DUP1 PUSH1 0x40 MSTORE POP DUP2 ADD SWAP1 PUSH2 0x6FA SWAP2 SWAP1 PUSH2 0x168A JUMP JUMPDEST POP POP JUMP JUMPDEST PUSH1 0x1 SLOAD DUP2 JUMP JUMPDEST PUSH0 PUSH0 SWAP1 SLOAD SWAP1 PUSH2 0x100 EXP SWAP1 DIV PUSH20 0xFFFFFFFFFFFFFFFFFFFFFFFFFFFFFFFFFFFFFFFF AND PUSH20 0xFFFFFFFFFFFFFFFFFFFFFFFFFFFFFFFFFFFFFFFF AND CALLER PUSH20 0xFFFFFFFFFFFFFFFFFFFFFFFFFFFFFFFFFFFFFFFF AND EQ PUSH2 0x792 JUMPI PUSH1 0x40 MLOAD PUSH32 0x8C379A000000000000000000000000000000000000000000000000000000000 DUP2 MSTORE PUSH1 0x4 ADD PUSH2 0x789 SWAP1 PUSH2 0x16FF JUMP JUMPDEST PUSH1 0x40 MLOAD DUP1 SWAP2 SUB SWAP1 REVERT JUMPDEST PUSH2 0x79A PUSH2 0x1246 JUMP JUMPDEST PUSH1 0x6 DUP2 SWAP1 SSTORE POP PUSH2 0x7A8 PUSH2 0x110E JUMP JUMPDEST PUSH1 0x2 DUP2 SWAP1 SSTORE POP PUSH0 PUSH1 0x6 SLOAD GT ISZERO PUSH2 0x846 JUMPI PUSH2 0x7C0 PUSH2 0x12B2 JUMP JUMPDEST PUSH1 0x9 PUSH0 CALLER PUSH20 0xFFFFFFFFFFFFFFFFFFFFFFFFFFFFFFFFFFFFFFFF AND PUSH20 0xFFFFFFFFFFFFFFFFFFFFFFFFFFFFFFFFFFFFFFFF AND DUP2 MSTORE PUSH1 0x20 ADD SWAP1 DUP2 MSTORE PUSH1 0x20 ADD PUSH0 KECCAK256 DUP2 SWAP1 SSTORE POP PUSH1 0x6 SLOAD PUSH1 0x7 PUSH0 CALLER PUSH20 0xFFFFFFFFFFFFFFFFFFFFFFFFFFFFFFFFFFFFFFFF AND PUSH20 0xFFFFFFFFFFFFFFFFFFFFFFFFFFFFFFFFFFFFFFFF AND DUP2 MSTORE PUSH1 0x20 ADD SWAP1 DUP2 MSTORE PUSH1 0x20 ADD PUSH0 KECCAK256 DUP2 SWAP1 SSTORE POP JUMPDEST PUSH0 DUP2 GT PUSH2 0x888 JUMPI PUSH1 0x40 MLOAD PUSH32 0x8C379A000000000000000000000000000000000000000000000000000000000 DUP2 MSTORE PUSH1 0x4 ADD PUSH2 0x87F SWAP1 PUSH2 0x1767 JUMP JUMPDEST PUSH1 0x40 MLOAD DUP1 SWAP2 SUB SWAP1 REVERT JUMPDEST PUSH1 0x1 SLOAD TIMESTAMP GT ISZERO PUSH2 0x8AB JUMPI PUSH1 0x3 SLOAD DUP2 PUSH2 0x8A0 SWAP2 SWAP1 PUSH2 0x17B2 JUMP JUMPDEST PUSH1 0x4 DUP2 SWAP1 SSTORE POP PUSH2 0xA12 JUMP JUMPDEST PUSH1 0x3 SLOAD DUP2 TIMESTAMP PUSH1 0x1 SLOAD PUSH2 0x8BD SWAP2 SWAP1 PUSH2 0x15FB JUMP JUMPDEST PUSH1 0x4 SLOAD PUSH2 0x8CA SWAP2 SWAP1 PUSH2 0x17E2 JUMP JUMPDEST PUSH2 0x8D4 SWAP2 SWAP1 PUSH2 0x1823 JUMP JUMPDEST PUSH2 0x8DE SWAP2 SWAP1 PUSH2 0x17B2 JUMP JUMPDEST PUSH1 0x4 DUP2 SWAP1 SSTORE POP PUSH0 PUSH1 0x4 SLOAD GT PUSH2 0x928 JUMPI PUSH1 0x40 MLOAD PUSH32 0x8C379A000000000000000000000000000000000000000000000000000000000 DUP2 MSTORE PUSH1 0x4 ADD PUSH2 0x91F SWAP1 PUSH2 0x18A0 JUMP JUMPDEST PUSH1 0x40 MLOAD DUP1 SWAP2 SUB SWAP1 REVERT JUMPDEST PUSH32 0x0 PUSH20 0xFFFFFFFFFFFFFFFFFFFFFFFFFFFFFFFFFFFFFFFF AND PUSH4 0x70A08231 CALLER PUSH1 0x40 MLOAD DUP3 PUSH4 0xFFFFFFFF AND PUSH1 0xE0 SHL DUP2 MSTORE PUSH1 0x4 ADD PUSH2 0x981 SWAP2 SWAP1 PUSH2 0x153D JUMP JUMPDEST PUSH1 0x20 PUSH1 0x40 MLOAD DUP1 DUP4 SUB DUP2 DUP7 GAS STATICCALL ISZERO DUP1 ISZERO PUSH2 0x99C JUMPI RETURNDATASIZE PUSH0 PUSH0 RETURNDATACOPY RETURNDATASIZE PUSH0 REVERT JUMPDEST POP POP POP POP PUSH1 0x40 MLOAD RETURNDATASIZE PUSH1 0x1F NOT PUSH1 0x1F DUP3 ADD AND DUP3 ADD DUP1 PUSH1 0x40 MSTORE POP DUP2 ADD SWAP1 PUSH2 0x9C0 SWAP2 SWAP1 PUSH2 0x18D2 JUMP JUMPDEST PUSH1 0x3 SLOAD PUSH1 0x4 SLOAD PUSH2 0x9D0 SWAP2 SWAP1 PUSH2 0x17E2 JUMP JUMPDEST GT ISZERO PUSH2 0xA11 JUMPI PUSH1 0x40 MLOAD PUSH32 0x8C379A000000000000000000000000000000000000000000000000000000000 DUP2 MSTORE PUSH1 0x4 ADD PUSH2 0xA08 SWAP1 PUSH2 0x1947 JUMP JUMPDEST PUSH1 0x40 MLOAD DUP1 SWAP2 SUB SWAP1 REVERT JUMPDEST JUMPDEST PUSH1 0x3 SLOAD TIMESTAMP PUSH2 0xA20 SWAP2 SWAP1 PUSH2 0x1823 JUMP JUMPDEST PUSH1 0x1 DUP2 SWAP1 SSTORE POP TIMESTAMP PUSH1 0x2 DUP2 SWAP1 SSTORE POP POP JUMP JUMPDEST PUSH2 0xA38 PUSH2 0x1246 JUMP JUMPDEST PUSH1 0x6 DUP2 SWAP1 SSTORE POP PUSH2 0xA46 PUSH2 0x110E JUMP JUMPDEST PUSH1 0x2 DUP2 SWAP1 SSTORE POP PUSH0 PUSH1 0x6 SLOAD GT ISZERO PUSH2 0xAE4 JUMPI PUSH2 0xA5E PUSH2 0x12B2 JUMP JUMPDEST PUSH1 0x9 PUSH0 CALLER PUSH20 0xFFFFFFFFFFFFFFFFFFFFFFFFFFFFFFFFFFFFFFFF AND PUSH20 0xFFFFFFFFFFFFFFFFFFFFFFFFFFFFFFFFFFFFFFFF AND DUP2 MSTORE PUSH1 0x20 ADD SWAP1 DUP2 MSTORE PUSH1 0x20 ADD PUSH0 KECCAK256 DUP2 SWAP1 SSTORE POP PUSH1 0x6 SLOAD PUSH1 0x7 PUSH0 CALLER PUSH20 0xFFFFFFFFFFFFFFFFFFFFFFFFFFFFFFFFFFFFFFFF AND PUSH20 0xFFFFFFFFFFFFFFFFFFFFFFFFFFFFFFFFFFFFFFFF AND DUP2 MSTORE PUSH1 0x20 ADD SWAP1 DUP2 MSTORE PUSH1 0x20 ADD PUSH0 KECCAK256 DUP2 SWAP1 SSTORE POP JUMPDEST PUSH0 PUSH1 0x9 PUSH0 CALLER PUSH20 0xFFFFFFFFFFFFFFFFFFFFFFFFFFFFFFFFFFFFFFFF AND PUSH20 0xFFFFFFFFFFFFFFFFFFFFFFFFFFFFFFFFFFFFFFFF AND DUP2 MSTORE PUSH1 0x20 ADD SWAP1 DUP2 MSTORE PUSH1 0x20 ADD PUSH0 KECCAK256 SLOAD SWAP1 POP PUSH0 DUP2 GT ISZERO PUSH2 0xC0C JUMPI PUSH0 PUSH1 0x9 PUSH0 CALLER PUSH20 0xFFFFFFFFFFFFFFFFFFFFFFFFFFFFFFFFFFFFFFFF AND PUSH20 0xFFFFFFFFFFFFFFFFFFFFFFFFFFFFFFFFFFFFFFFF AND DUP2 MSTORE PUSH1 0x20 ADD SWAP1 DUP2 MSTORE PUSH1 0x20 ADD PUSH0 KECCAK256 DUP2 SWAP1 SSTORE POP PUSH32 0x0 PUSH20 0xFFFFFFFFFFFFFFFFFFFFFFFFFFFFFFFFFFFFFFFF AND PUSH4 0xA9059CBB CALLER DUP4 PUSH1 0x40 MLOAD DUP4 PUSH4 0xFFFFFFFF AND PUSH1 0xE0 SHL DUP2 MSTORE PUSH1 0x4 ADD PUSH2 0xBCA SWAP3 SWAP2 SWAP1 PUSH2 0x162E JUMP JUMPDEST PUSH1 0x20 PUSH1 0x40 MLOAD DUP1 DUP4 SUB DUP2 PUSH0 DUP8 GAS CALL ISZERO DUP1 ISZERO PUSH2 0xBE6 JUMPI RETURNDATASIZE PUSH0 PUSH0 RETURNDATACOPY RETURNDATASIZE PUSH0 REVERT JUMPDEST POP POP POP POP PUSH1 0x40 MLOAD RETURNDATASIZE PUSH1 0x1F NOT PUSH1 0x1F DUP3 ADD AND DUP3 ADD DUP1 PUSH1 0x40 MSTORE POP DUP2 ADD SWAP1 PUSH2 0xC0A SWAP2 SWAP1 PUSH2 0x168A JUMP JUMPDEST POP JUMPDEST POP JUMP JUMPDEST PUSH2 0xC17 PUSH2 0x1246 JUMP JUMPDEST PUSH1 0x6 DUP2 SWAP1 SSTORE POP PUSH2 0xC25 PUSH2 0x110E JUMP JUMPDEST PUSH1 0x2 DUP2 SWAP1 SSTORE POP PUSH0 PUSH1 0x6 SLOAD GT ISZERO PUSH2 0xCC3 JUMPI PUSH2 0xC3D PUSH2 0x12B2 JUMP JUMPDEST PUSH1 0x9 PUSH0 CALLER PUSH20 0xFFFFFFFFFFFFFFFFFFFFFFFFFFFFFFFFFFFFFFFF AND PUSH20 0xFFFFFFFFFFFFFFFFFFFFFFFFFFFFFFFFFFFFFFFF AND DUP2 MSTORE PUSH1 0x20 ADD SWAP1 DUP2 MSTORE PUSH1 0x20 ADD PUSH0 KECCAK256 DUP2 SWAP1 SSTORE POP PUSH1 0x6 SLOAD PUSH1 0x7 PUSH0 CALLER PUSH20 0xFFFFFFFFFFFFFFFFFFFFFFFFFFFFFFFFFFFFFFFF AND PUSH20 0xFFFFFFFFFFFFFFFFFFFFFFFFFFFFFFFFFFFFFFFF AND DUP2 MSTORE PUSH1 0x20 ADD SWAP1 DUP2 MSTORE PUSH1 0x20 ADD PUSH0 KECCAK256 DUP2 SWAP1 SSTORE POP JUMPDEST JUMP JUMPDEST PUSH0 PUSH2 0xCCE PUSH2 0x12B2 JUMP JUMPDEST SWAP1 POP SWAP1 JUMP JUMPDEST PUSH1 0x8 PUSH1 0x20 MSTORE DUP1 PUSH0 MSTORE PUSH1 0x40 PUSH0 KECCAK256 PUSH0 SWAP2 POP SWAP1 POP SLOAD DUP2 JUMP JUMPDEST PUSH32 0x0 DUP2 JUMP JUMPDEST PUSH1 0x2 SLOAD DUP2 JUMP JUMPDEST PUSH1 0x4 SLOAD DUP2 JUMP JUMPDEST PUSH0 PUSH0 SWAP1 SLOAD SWAP1 PUSH2 0x100 EXP SWAP1 DIV PUSH20 0xFFFFFFFFFFFFFFFFFFFFFFFFFFFFFFFFFFFFFFFF AND DUP2 JUMP JUMPDEST PUSH0 PUSH1 0x9 PUSH0 CALLER PUSH20 0xFFFFFFFFFFFFFFFFFFFFFFFFFFFFFFFFFFFFFFFF AND PUSH20 0xFFFFFFFFFFFFFFFFFFFFFFFFFFFFFFFFFFFFFFFF AND DUP2 MSTORE PUSH1 0x20 ADD SWAP1 DUP2 MSTORE PUSH1 0x20 ADD PUSH0 KECCAK256 SLOAD PUSH8 0xDE0B6B3A7640000 PUSH1 0x8 PUSH0 CALLER PUSH20 0xFFFFFFFFFFFFFFFFFFFFFFFFFFFFFFFFFFFFFFFF AND PUSH20 0xFFFFFFFFFFFFFFFFFFFFFFFFFFFFFFFFFFFFFFFF AND DUP2 MSTORE PUSH1 0x20 ADD SWAP1 DUP2 MSTORE PUSH1 0x20 ADD PUSH0 KECCAK256 SLOAD PUSH8 0xDE0B6B3A7640000 PUSH1 0xA SLOAD PUSH1 0x4 SLOAD PUSH2 0xDDB SWAP2 SWAP1 PUSH2 0x17B2 JUMP JUMPDEST PUSH2 0xDE5 SWAP2 SWAP1 PUSH2 0x17E2 JUMP JUMPDEST PUSH2 0xDEF SWAP2 SWAP1 PUSH2 0x17E2 JUMP JUMPDEST PUSH2 0xDF9 SWAP2 SWAP1 PUSH2 0x17B2 JUMP JUMPDEST PUSH2 0xE03 SWAP2 SWAP1 PUSH2 0x1823 JUMP JUMPDEST SWAP1 POP SWAP1 JUMP JUMPDEST PUSH2 0xE10 PUSH2 0x1246 JUMP JUMPDEST PUSH1 0x6 DUP2 SWAP1 SSTORE POP PUSH2 0xE1E PUSH2 0x110E JUMP JUMPDEST PUSH1 0x2 DUP2 SWAP1 SSTORE POP PUSH0 PUSH1 0x6 SLOAD GT ISZERO PUSH2 0xEBC JUMPI PUSH2 0xE36 PUSH2 0x12B2 JUMP JUMPDEST PUSH1 0x9 PUSH0 CALLER PUSH20 0xFFFFFFFFFFFFFFFFFFFFFFFFFFFFFFFFFFFFFFFF AND PUSH20 0xFFFFFFFFFFFFFFFFFFFFFFFFFFFFFFFFFFFFFFFF AND DUP2 MSTORE PUSH1 0x20 ADD SWAP1 DUP2 MSTORE PUSH1 0x20 ADD PUSH0 KECCAK256 DUP2 SWAP1 SSTORE POP PUSH1 0x6 SLOAD PUSH1 0x7 PUSH0 CALLER PUSH20 0xFFFFFFFFFFFFFFFFFFFFFFFFFFFFFFFFFFFFFFFF AND PUSH20 0xFFFFFFFFFFFFFFFFFFFFFFFFFFFFFFFFFFFFFFFF AND DUP2 MSTORE PUSH1 0x20 ADD SWAP1 DUP2 MSTORE PUSH1 0x20 ADD PUSH0 KECCAK256 DUP2 SWAP1 SSTORE POP JUMPDEST PUSH0 DUP2 GT PUSH2 0xEFE JUMPI PUSH1 0x40 MLOAD PUSH32 0x8C379A000000000000000000000000000000000000000000000000000000000 DUP2 MSTORE PUSH1 0x4 ADD PUSH2 0xEF5 SWAP1 PUSH2 0x15B0 JUMP JUMPDEST PUSH1 0x40 MLOAD DUP1 SWAP2 SUB SWAP1 REVERT JUMPDEST DUP1 PUSH32 0x0 PUSH20 0xFFFFFFFFFFFFFFFFFFFFFFFFFFFFFFFFFFFFFFFF AND PUSH4 0x70A08231 CALLER PUSH1 0x40 MLOAD DUP3 PUSH4 0xFFFFFFFF AND PUSH1 0xE0 SHL DUP2 MSTORE PUSH1 0x4 ADD PUSH2 0xF58 SWAP2 SWAP1 PUSH2 0x153D JUMP JUMPDEST PUSH1 0x20 PUSH1 0x40 MLOAD DUP1 DUP4 SUB DUP2 DUP7 GAS STATICCALL ISZERO DUP1 ISZERO PUSH2 0xF73 JUMPI RETURNDATASIZE PUSH0 PUSH0 RETURNDATACOPY RETURNDATASIZE PUSH0 REVERT JUMPDEST POP POP POP POP PUSH1 0x40 MLOAD RETURNDATASIZE PUSH1 0x1F NOT PUSH1 0x1F DUP3 ADD AND DUP3 ADD DUP1 PUSH1 0x40 MSTORE POP DUP2 ADD SWAP1 PUSH2 0xF97 SWAP2 SWAP1 PUSH2 0x18D2 JUMP JUMPDEST LT ISZERO PUSH2 0xFD8 JUMPI PUSH1 0x40 MLOAD PUSH32 0x8C379A000000000000000000000000000000000000000000000000000000000 DUP2 MSTORE PUSH1 0x4 ADD PUSH2 0xFCF SWAP1 PUSH2 0x19AF JUMP JUMPDEST PUSH1 0x40 MLOAD DUP1 SWAP2 SUB SWAP1 REVERT JUMPDEST DUP1 PUSH1 0xA PUSH0 DUP3 DUP3 SLOAD PUSH2 0xFE9 SWAP2 SWAP1 PUSH2 0x1823 JUMP JUMPDEST SWAP3 POP POP DUP2 SWAP1 SSTORE POP DUP1 PUSH1 0x8 PUSH0 CALLER PUSH20 0xFFFFFFFFFFFFFFFFFFFFFFFFFFFFFFFFFFFFFFFF AND PUSH20 0xFFFFFFFFFFFFFFFFFFFFFFFFFFFFFFFFFFFFFFFF AND DUP2 MSTORE PUSH1 0x20 ADD SWAP1 DUP2 MSTORE PUSH1 0x20 ADD PUSH0 KECCAK256 PUSH0 DUP3 DUP3 SLOAD PUSH2 0x103C SWAP2 SWAP1 PUSH2 0x1823 JUMP JUMPDEST SWAP3 POP POP DUP2 SWAP1 SSTORE POP PUSH32 0x0 PUSH20 0xFFFFFFFFFFFFFFFFFFFFFFFFFFFFFFFFFFFFFFFF AND PUSH4 0x23B872DD CALLER ADDRESS DUP5 PUSH1 0x40 MLOAD DUP5 PUSH4 0xFFFFFFFF AND PUSH1 0xE0 SHL DUP2 MSTORE PUSH1 0x4 ADD PUSH2 0x10A0 SWAP4 SWAP3 SWAP2 SWAP1 PUSH2 0x19CD JUMP JUMPDEST PUSH1 0x20 PUSH1 0x40 MLOAD DUP1 DUP4 SUB DUP2 PUSH0 DUP8 GAS CALL ISZERO DUP1 ISZERO PUSH2 0x10BC JUMPI RETURNDATASIZE PUSH0 PUSH0 RETURNDATACOPY RETURNDATASIZE PUSH0 REVERT JUMPDEST POP POP POP POP PUSH1 0x40 MLOAD RETURNDATASIZE PUSH1 0x1F NOT PUSH1 0x1F DUP3 ADD AND DUP3 ADD DUP1 PUSH1 0x40 MSTORE POP DUP2 ADD SWAP1 PUSH2 0x10E0 SWAP2 SWAP1 PUSH2 0x168A JUMP JUMPDEST POP POP JUMP JUMPDEST PUSH1 0xA SLOAD DUP2 JUMP JUMPDEST PUSH32 0x0 DUP2 JUMP JUMPDEST PUSH0 PUSH1 0x1 SLOAD TIMESTAMP GT PUSH2 0x111E JUMPI TIMESTAMP PUSH2 0x1122 JUMP JUMPDEST PUSH1 0x1 SLOAD JUMPDEST SWAP1 POP PUSH32 0x909C57D5C6AC08245CF2A6DE3900E2B868513FA59099B92B27D8DB823D92DF9C DUP2 PUSH1 0x40 MLOAD PUSH2 0x1153 SWAP2 SWAP1 PUSH2 0x13C3 JUMP JUMPDEST PUSH1 0x40 MLOAD DUP1 SWAP2 SUB SWAP1 LOG1 SWAP1 JUMP JUMPDEST PUSH1 0x6 SLOAD DUP2 JUMP JUMPDEST PUSH0 PUSH0 SWAP1 SLOAD SWAP1 PUSH2 0x100 EXP SWAP1 DIV PUSH20 0xFFFFFFFFFFFFFFFFFFFFFFFFFFFFFFFFFFFFFFFF AND PUSH20 0xFFFFFFFFFFFFFFFFFFFFFFFFFFFFFFFFFFFFFFFF AND CALLER PUSH20 0xFFFFFFFFFFFFFFFFFFFFFFFFFFFFFFFFFFFFFFFF AND EQ PUSH2 0x11F2 JUMPI PUSH1 0x40 MLOAD PUSH32 0x8C379A000000000000000000000000000000000000000000000000000000000 DUP2 MSTORE PUSH1 0x4 ADD PUSH2 0x11E9 SWAP1 PUSH2 0x16FF JUMP JUMPDEST PUSH1 0x40 MLOAD DUP1 SWAP2 SUB SWAP1 REVERT JUMPDEST TIMESTAMP PUSH1 0x1 SLOAD LT PUSH2 0x1236 JUMPI PUSH1 0x40 MLOAD PUSH32 0x8C379A000000000000000000000000000000000000000000000000000000000 DUP2 MSTORE PUSH1 0x4 ADD PUSH2 0x122D SWAP1 PUSH2 0x1A4C JUMP JUMPDEST PUSH1 0x40 MLOAD DUP1 SWAP2 SUB SWAP1 REVERT JUMPDEST DUP1 PUSH1 0x3 DUP2 SWAP1 SSTORE POP POP JUMP JUMPDEST PUSH1 0x5 SLOAD DUP2 JUMP JUMPDEST PUSH0 PUSH0 PUSH0 PUSH1 0xA SLOAD EQ PUSH2 0x12A5 JUMPI PUSH1 0xA SLOAD PUSH8 0xDE0B6B3A7640000 PUSH1 0x2 SLOAD PUSH2 0x1268 PUSH2 0x110E JUMP JUMPDEST PUSH2 0x1272 SWAP2 SWAP1 PUSH2 0x15FB JUMP JUMPDEST PUSH1 0x4 SLOAD PUSH2 0x127F SWAP2 SWAP1 PUSH2 0x17E2 JUMP JUMPDEST PUSH2 0x1289 SWAP2 SWAP1 PUSH2 0x17E2 JUMP JUMPDEST PUSH2 0x1293 SWAP2 SWAP1 PUSH2 0x17B2 JUMP JUMPDEST PUSH1 0x6 SLOAD PUSH2 0x12A0 SWAP2 SWAP1 PUSH2 0x1823 JUMP JUMPDEST PUSH2 0x12A9 JUMP JUMPDEST PUSH1 0x6 SLOAD JUMPDEST SWAP1 POP DUP1 SWAP2 POP POP SWAP1 JUMP JUMPDEST PUSH0 PUSH1 0x9 PUSH0 CALLER PUSH20 0xFFFFFFFFFFFFFFFFFFFFFFFFFFFFFFFFFFFFFFFF AND PUSH20 0xFFFFFFFFFFFFFFFFFFFFFFFFFFFFFFFFFFFFFFFF AND DUP2 MSTORE PUSH1 0x20 ADD SWAP1 DUP2 MSTORE PUSH1 0x20 ADD PUSH0 KECCAK256 SLOAD PUSH8 0xDE0B6B3A7640000 PUSH1 0x8 PUSH0 CALLER PUSH20 0xFFFFFFFFFFFFFFFFFFFFFFFFFFFFFFFFFFFFFFFF AND PUSH20 0xFFFFFFFFFFFFFFFFFFFFFFFFFFFFFFFFFFFFFFFF AND DUP2 MSTORE PUSH1 0x20 ADD SWAP1 DUP2 MSTORE PUSH1 0x20 ADD PUSH0 KECCAK256 SLOAD PUSH1 0x7 PUSH0 CALLER PUSH20 0xFFFFFFFFFFFFFFFFFFFFFFFFFFFFFFFFFFFFFFFF AND PUSH20 0xFFFFFFFFFFFFFFFFFFFFFFFFFFFFFFFFFFFFFFFF AND DUP2 MSTORE PUSH1 0x20 ADD SWAP1 DUP2 MSTORE PUSH1 0x20 ADD PUSH0 KECCAK256 SLOAD PUSH2 0x137E PUSH2 0x1246 JUMP JUMPDEST PUSH2 0x1388 SWAP2 SWAP1 PUSH2 0x15FB JUMP JUMPDEST PUSH2 0x1392 SWAP2 SWAP1 PUSH2 0x17E2 JUMP JUMPDEST PUSH2 0x139C SWAP2 SWAP1 PUSH2 0x17B2 JUMP JUMPDEST PUSH2 0x13A6 SWAP2 SWAP1 PUSH2 0x1823 JUMP JUMPDEST SWAP1 POP SWAP1 JUMP JUMPDEST PUSH0 DUP2 SWAP1 POP SWAP2 SWAP1 POP JUMP JUMPDEST PUSH2 0x13BD DUP2 PUSH2 0x13AB JUMP JUMPDEST DUP3 MSTORE POP POP JUMP JUMPDEST PUSH0 PUSH1 0x20 DUP3 ADD SWAP1 POP PUSH2 0x13D6 PUSH0 DUP4 ADD DUP5 PUSH2 0x13B4 JUMP JUMPDEST SWAP3 SWAP2 POP POP JUMP JUMPDEST PUSH0 PUSH0 REVERT JUMPDEST PUSH0 PUSH20 0xFFFFFFFFFFFFFFFFFFFFFFFFFFFFFFFFFFFFFFFF DUP3 AND SWAP1 POP SWAP2 SWAP1 POP JUMP JUMPDEST PUSH0 PUSH2 0x1409 DUP3 PUSH2 0x13E0 JUMP JUMPDEST SWAP1 POP SWAP2 SWAP1 POP JUMP JUMPDEST PUSH2 0x1419 DUP2 PUSH2 0x13FF JUMP JUMPDEST DUP2 EQ PUSH2 0x1423 JUMPI PUSH0 PUSH0 REVERT JUMPDEST POP JUMP JUMPDEST PUSH0 DUP2 CALLDATALOAD SWAP1 POP PUSH2 0x1434 DUP2 PUSH2 0x1410 JUMP JUMPDEST SWAP3 SWAP2 POP POP JUMP JUMPDEST PUSH0 PUSH1 0x20 DUP3 DUP5 SUB SLT ISZERO PUSH2 0x144F JUMPI PUSH2 0x144E PUSH2 0x13DC JUMP JUMPDEST JUMPDEST PUSH0 PUSH2 0x145C DUP5 DUP3 DUP6 ADD PUSH2 0x1426 JUMP JUMPDEST SWAP2 POP POP SWAP3 SWAP2 POP POP JUMP JUMPDEST PUSH2 0x146E DUP2 PUSH2 0x13AB JUMP JUMPDEST DUP2 EQ PUSH2 0x1478 JUMPI PUSH0 PUSH0 REVERT JUMPDEST POP JUMP JUMPDEST PUSH0 DUP2 CALLDATALOAD SWAP1 POP PUSH2 0x1489 DUP2 PUSH2 0x1465 JUMP JUMPDEST SWAP3 SWAP2 POP POP JUMP JUMPDEST PUSH0 PUSH1 0x20 DUP3 DUP5 SUB SLT ISZERO PUSH2 0x14A4 JUMPI PUSH2 0x14A3 PUSH2 0x13DC JUMP JUMPDEST JUMPDEST PUSH0 PUSH2 0x14B1 DUP5 DUP3 DUP6 ADD PUSH2 0x147B JUMP JUMPDEST SWAP2 POP POP SWAP3 SWAP2 POP POP JUMP JUMPDEST PUSH0 DUP2 SWAP1 POP SWAP2 SWAP1 POP JUMP JUMPDEST PUSH0 PUSH2 0x14DD PUSH2 0x14D8 PUSH2 0x14D3 DUP5 PUSH2 0x13E0 JUMP JUMPDEST PUSH2 0x14BA JUMP JUMPDEST PUSH2 0x13E0 JUMP JUMPDEST SWAP1 POP SWAP2 SWAP1 POP JUMP JUMPDEST PUSH0 PUSH2 0x14EE DUP3 PUSH2 0x14C3 JUMP JUMPDEST SWAP1 POP SWAP2 SWAP1 POP JUMP JUMPDEST PUSH0 PUSH2 0x14FF DUP3 PUSH2 0x14E4 JUMP JUMPDEST SWAP1 POP SWAP2 SWAP1 POP JUMP JUMPDEST PUSH2 0x150F DUP2 PUSH2 0x14F5 JUMP JUMPDEST DUP3 MSTORE POP POP JUMP JUMPDEST PUSH0 PUSH1 0x20 DUP3 ADD SWAP1 POP PUSH2 0x1528 PUSH0 DUP4 ADD DUP5 PUSH2 0x1506 JUMP JUMPDEST SWAP3 SWAP2 POP POP JUMP JUMPDEST PUSH2 0x1537 DUP2 PUSH2 0x13FF JUMP JUMPDEST DUP3 MSTORE POP POP JUMP JUMPDEST PUSH0 PUSH1 0x20 DUP3 ADD SWAP1 POP PUSH2 0x1550 PUSH0 DUP4 ADD DUP5 PUSH2 0x152E JUMP JUMPDEST SWAP3 SWAP2 POP POP JUMP JUMPDEST PUSH0 DUP3 DUP3 MSTORE PUSH1 0x20 DUP3 ADD SWAP1 POP SWAP3 SWAP2 POP POP JUMP JUMPDEST PUSH32 0x7374616B65205F616D6F6E74206572726F720000000000000000000000000000 PUSH0 DUP3 ADD MSTORE POP JUMP JUMPDEST PUSH0 PUSH2 0x159A PUSH1 0x12 DUP4 PUSH2 0x1556 JUMP JUMPDEST SWAP2 POP PUSH2 0x15A5 DUP3 PUSH2 0x1566 JUMP JUMPDEST PUSH1 0x20 DUP3 ADD SWAP1 POP SWAP2 SWAP1 POP JUMP JUMPDEST PUSH0 PUSH1 0x20 DUP3 ADD SWAP1 POP DUP2 DUP2 SUB PUSH0 DUP4 ADD MSTORE PUSH2 0x15C7 DUP2 PUSH2 0x158E JUMP JUMPDEST SWAP1 POP SWAP2 SWAP1 POP JUMP JUMPDEST PUSH32 0x4E487B7100000000000000000000000000000000000000000000000000000000 PUSH0 MSTORE PUSH1 0x11 PUSH1 0x4 MSTORE PUSH1 0x24 PUSH0 REVERT JUMPDEST PUSH0 PUSH2 0x1605 DUP3 PUSH2 0x13AB JUMP JUMPDEST SWAP2 POP PUSH2 0x1610 DUP4 PUSH2 0x13AB JUMP JUMPDEST SWAP3 POP DUP3 DUP3 SUB SWAP1 POP DUP2 DUP2 GT ISZERO PUSH2 0x1628 JUMPI PUSH2 0x1627 PUSH2 0x15CE JUMP JUMPDEST JUMPDEST SWAP3 SWAP2 POP POP JUMP JUMPDEST PUSH0 PUSH1 0x40 DUP3 ADD SWAP1 POP PUSH2 0x1641 PUSH0 DUP4 ADD DUP6 PUSH2 0x152E JUMP JUMPDEST PUSH2 0x164E PUSH1 0x20 DUP4 ADD DUP5 PUSH2 0x13B4 JUMP JUMPDEST SWAP4 SWAP3 POP POP POP JUMP JUMPDEST PUSH0 DUP2 ISZERO ISZERO SWAP1 POP SWAP2 SWAP1 POP JUMP JUMPDEST PUSH2 0x1669 DUP2 PUSH2 0x1655 JUMP JUMPDEST DUP2 EQ PUSH2 0x1673 JUMPI PUSH0 PUSH0 REVERT JUMPDEST POP JUMP JUMPDEST PUSH0 DUP2 MLOAD SWAP1 POP PUSH2 0x1684 DUP2 PUSH2 0x1660 JUMP JUMPDEST SWAP3 SWAP2 POP POP JUMP JUMPDEST PUSH0 PUSH1 0x20 DUP3 DUP5 SUB SLT ISZERO PUSH2 0x169F JUMPI PUSH2 0x169E PUSH2 0x13DC JUMP JUMPDEST JUMPDEST PUSH0 PUSH2 0x16AC DUP5 DUP3 DUP6 ADD PUSH2 0x1676 JUMP JUMPDEST SWAP2 POP POP SWAP3 SWAP2 POP POP JUMP JUMPDEST PUSH32 0x6E6F74206F776E65720000000000000000000000000000000000000000000000 PUSH0 DUP3 ADD MSTORE POP JUMP JUMPDEST PUSH0 PUSH2 0x16E9 PUSH1 0x9 DUP4 PUSH2 0x1556 JUMP JUMPDEST SWAP2 POP PUSH2 0x16F4 DUP3 PUSH2 0x16B5 JUMP JUMPDEST PUSH1 0x20 DUP3 ADD SWAP1 POP SWAP2 SWAP1 POP JUMP JUMPDEST PUSH0 PUSH1 0x20 DUP3 ADD SWAP1 POP DUP2 DUP2 SUB PUSH0 DUP4 ADD MSTORE PUSH2 0x1716 DUP2 PUSH2 0x16DD JUMP JUMPDEST SWAP1 POP SWAP2 SWAP1 POP JUMP JUMPDEST PUSH32 0x736574205F616D6F6E74206572726F7200000000000000000000000000000000 PUSH0 DUP3 ADD MSTORE POP JUMP JUMPDEST PUSH0 PUSH2 0x1751 PUSH1 0x10 DUP4 PUSH2 0x1556 JUMP JUMPDEST SWAP2 POP PUSH2 0x175C DUP3 PUSH2 0x171D JUMP JUMPDEST PUSH1 0x20 DUP3 ADD SWAP1 POP SWAP2 SWAP1 POP JUMP JUMPDEST PUSH0 PUSH1 0x20 DUP3 ADD SWAP1 POP DUP2 DUP2 SUB PUSH0 DUP4 ADD MSTORE PUSH2 0x177E DUP2 PUSH2 0x1745 JUMP JUMPDEST SWAP1 POP SWAP2 SWAP1 POP JUMP JUMPDEST PUSH32 0x4E487B7100000000000000000000000000000000000000000000000000000000 PUSH0 MSTORE PUSH1 0x12 PUSH1 0x4 MSTORE PUSH1 0x24 PUSH0 REVERT JUMPDEST PUSH0 PUSH2 0x17BC DUP3 PUSH2 0x13AB JUMP JUMPDEST SWAP2 POP PUSH2 0x17C7 DUP4 PUSH2 0x13AB JUMP JUMPDEST SWAP3 POP DUP3 PUSH2 0x17D7 JUMPI PUSH2 0x17D6 PUSH2 0x1785 JUMP JUMPDEST JUMPDEST DUP3 DUP3 DIV SWAP1 POP SWAP3 SWAP2 POP POP JUMP JUMPDEST PUSH0 PUSH2 0x17EC DUP3 PUSH2 0x13AB JUMP JUMPDEST SWAP2 POP PUSH2 0x17F7 DUP4 PUSH2 0x13AB JUMP JUMPDEST SWAP3 POP DUP3 DUP3 MUL PUSH2 0x1805 DUP2 PUSH2 0x13AB JUMP JUMPDEST SWAP2 POP DUP3 DUP3 DIV DUP5 EQ DUP4 ISZERO OR PUSH2 0x181C JUMPI PUSH2 0x181B PUSH2 0x15CE JUMP JUMPDEST JUMPDEST POP SWAP3 SWAP2 POP POP JUMP JUMPDEST PUSH0 PUSH2 0x182D DUP3 PUSH2 0x13AB JUMP JUMPDEST SWAP2 POP PUSH2 0x1838 DUP4 PUSH2 0x13AB JUMP JUMPDEST SWAP3 POP DUP3 DUP3 ADD SWAP1 POP DUP1 DUP3 GT ISZERO PUSH2 0x1850 JUMPI PUSH2 0x184F PUSH2 0x15CE JUMP JUMPDEST JUMPDEST SWAP3 SWAP2 POP POP JUMP JUMPDEST PUSH32 0x7265776172642072617465203D20300000000000000000000000000000000000 PUSH0 DUP3 ADD MSTORE POP JUMP JUMPDEST PUSH0 PUSH2 0x188A PUSH1 0xF DUP4 PUSH2 0x1556 JUMP JUMPDEST SWAP2 POP PUSH2 0x1895 DUP3 PUSH2 0x1856 JUMP JUMPDEST PUSH1 0x20 DUP3 ADD SWAP1 POP SWAP2 SWAP1 POP JUMP JUMPDEST PUSH0 PUSH1 0x20 DUP3 ADD SWAP1 POP DUP2 DUP2 SUB PUSH0 DUP4 ADD MSTORE PUSH2 0x18B7 DUP2 PUSH2 0x187E JUMP JUMPDEST SWAP1 POP SWAP2 SWAP1 POP JUMP JUMPDEST PUSH0 DUP2 MLOAD SWAP1 POP PUSH2 0x18CC DUP2 PUSH2 0x1465 JUMP JUMPDEST SWAP3 SWAP2 POP POP JUMP JUMPDEST PUSH0 PUSH1 0x20 DUP3 DUP5 SUB SLT ISZERO PUSH2 0x18E7 JUMPI PUSH2 0x18E6 PUSH2 0x13DC JUMP JUMPDEST JUMPDEST PUSH0 PUSH2 0x18F4 DUP5 DUP3 DUP6 ADD PUSH2 0x18BE JUMP JUMPDEST SWAP2 POP POP SWAP3 SWAP2 POP POP JUMP JUMPDEST PUSH32 0x72657761726420616D6F756E74203E2062616C616E6365000000000000000000 PUSH0 DUP3 ADD MSTORE POP JUMP JUMPDEST PUSH0 PUSH2 0x1931 PUSH1 0x17 DUP4 PUSH2 0x1556 JUMP JUMPDEST SWAP2 POP PUSH2 0x193C DUP3 PUSH2 0x18FD JUMP JUMPDEST PUSH1 0x20 DUP3 ADD SWAP1 POP SWAP2 SWAP1 POP JUMP JUMPDEST PUSH0 PUSH1 0x20 DUP3 ADD SWAP1 POP DUP2 DUP2 SUB PUSH0 DUP4 ADD MSTORE PUSH2 0x195E DUP2 PUSH2 0x1925 JUMP JUMPDEST SWAP1 POP SWAP2 SWAP1 POP JUMP JUMPDEST PUSH32 0x6D6F6E6579206E6F7420656E6F75676800000000000000000000000000000000 PUSH0 DUP3 ADD MSTORE POP JUMP JUMPDEST PUSH0 PUSH2 0x1999 PUSH1 0x10 DUP4 PUSH2 0x1556 JUMP JUMPDEST SWAP2 POP PUSH2 0x19A4 DUP3 PUSH2 0x1965 JUMP JUMPDEST PUSH1 0x20 DUP3 ADD SWAP1 POP SWAP2 SWAP1 POP JUMP JUMPDEST PUSH0 PUSH1 0x20 DUP3 ADD SWAP1 POP DUP2 DUP2 SUB PUSH0 DUP4 ADD MSTORE PUSH2 0x19C6 DUP2 PUSH2 0x198D JUMP JUMPDEST SWAP1 POP SWAP2 SWAP1 POP JUMP JUMPDEST PUSH0 PUSH1 0x60 DUP3 ADD SWAP1 POP PUSH2 0x19E0 PUSH0 DUP4 ADD DUP7 PUSH2 0x152E JUMP JUMPDEST PUSH2 0x19ED PUSH1 0x20 DUP4 ADD DUP6 PUSH2 0x152E JUMP JUMPDEST PUSH2 0x19FA PUSH1 0x40 DUP4 ADD DUP5 PUSH2 0x13B4 JUMP JUMPDEST SWAP5 SWAP4 POP POP POP POP JUMP JUMPDEST PUSH32 0x726577617264206475726174696F6E206E6F742066696E697368656400000000 PUSH0 DUP3 ADD MSTORE POP JUMP JUMPDEST PUSH0 PUSH2 0x1A36 PUSH1 0x1C DUP4 PUSH2 0x1556 JUMP JUMPDEST SWAP2 POP PUSH2 0x1A41 DUP3 PUSH2 0x1A02 JUMP JUMPDEST PUSH1 0x20 DUP3 ADD SWAP1 POP SWAP2 SWAP1 POP JUMP JUMPDEST PUSH0 PUSH1 0x20 DUP3 ADD SWAP1 POP DUP2 DUP2 SUB PUSH0 DUP4 ADD MSTORE PUSH2 0x1A63 DUP2 PUSH2 0x1A2A JUMP JUMPDEST SWAP1 POP SWAP2 SWAP1 POP JUMP INVALID LOG2 PUSH5 0x6970667358 0x22 SLT KECCAK256 0xD2 EXTDELEGATECALL CREATE 0xF SWAP11 0xEF AND NUMBER CREATE2 GASLIMIT EXTCALL DELEGATECALL 0xA9 PC ORIGIN 0xDB 0x1F STOP CREATE SWAP11 BLOCKHASH 0xAA 0xB6 0xC6 EQ SUB POP LOG2 PUSH11 0x8045C464736F6C63430008 0x1E STOP CALLER "
				},
				"gasEstimates": {
					"creation": {
						"codeDepositCost": "1363200",
						"executionCost": "infinite",
						"totalCost": "infinite"
					},
					"external": {
						"_minTime()": "infinite",
						"balanceOf(address)": "2913",
						"duration()": "2449",
						"endTime()": "2537",
						"getReward()": "infinite",
						"getUseEarned()": "infinite",
						"getUseEarned2()": "infinite",
						"notifyRewardAmount(uint256)": "infinite",
						"owner()": "2574",
						"rewardCoefficient()": "2557",
						"rewardOf(address)": "2870",
						"rewardPerTokenStored()": "2513",
						"rewardPerTokenStoredOf(address)": "2848",
						"rewardRate()": "2470",
						"rewardsToken()": "infinite",
						"setDuration(uint256)": "26915",
						"stake(uint256)": "infinite",
						"stakingToken()": "infinite",
						"totalBalance()": "2447",
						"updateReward2()": "infinite",
						"updatedAt()": "2448",
						"withdraw(uint256)": "infinite"
					},
					"internal": {
						"earned()": "infinite",
						"earned2()": "infinite",
						"updateRewardPerTokenStored()": "infinite"
					}
				},
				"methodIdentifiers": {
					"_minTime()": "dcb640cd",
					"balanceOf(address)": "70a08231",
					"duration()": "0fb5a6b4",
					"endTime()": "3197cbb6",
					"getReward()": "3d18b912",
					"getUseEarned()": "628e4a62",
					"getUseEarned2()": "8f5fb40e",
					"notifyRewardAmount(uint256)": "3c6b16ab",
					"owner()": "8da5cb5b",
					"rewardCoefficient()": "fc9daa07",
					"rewardOf(address)": "1d62ebd9",
					"rewardPerTokenStored()": "df136d65",
					"rewardPerTokenStoredOf(address)": "199af55d",
					"rewardRate()": "7b0a47ee",
					"rewardsToken()": "d1af0c7d",
					"setDuration(uint256)": "f6be71d1",
					"stake(uint256)": "a694fc3a",
					"stakingToken()": "72f702f3",
					"totalBalance()": "ad7a672f",
					"updateReward2()": "46377982",
					"updatedAt()": "7519ab50",
					"withdraw(uint256)": "2e1a7d4d"
				}
			},
			"storageLayout": {
				"storage": [
					{
						"astId": 97,
						"contract": "contracts/StakingRewards/StakingRewards.sol:StakingRewards",
						"label": "owner",
						"offset": 0,
						"slot": "0",
						"type": "t_address"
					},
					{
						"astId": 99,
						"contract": "contracts/StakingRewards/StakingRewards.sol:StakingRewards",
						"label": "endTime",
						"offset": 0,
						"slot": "1",
						"type": "t_uint256"
					},
					{
						"astId": 101,
						"contract": "contracts/StakingRewards/StakingRewards.sol:StakingRewards",
						"label": "updatedAt",
						"offset": 0,
						"slot": "2",
						"type": "t_uint256"
					},
					{
						"astId": 103,
						"contract": "contracts/StakingRewards/StakingRewards.sol:StakingRewards",
						"label": "duration",
						"offset": 0,
						"slot": "3",
						"type": "t_uint256"
					},
					{
						"astId": 105,
						"contract": "contracts/StakingRewards/StakingRewards.sol:StakingRewards",
						"label": "rewardRate",
						"offset": 0,
						"slot": "4",
						"type": "t_uint256"
					},
					{
						"astId": 107,
						"contract": "contracts/StakingRewards/StakingRewards.sol:StakingRewards",
						"label": "rewardCoefficient",
						"offset": 0,
						"slot": "5",
						"type": "t_uint256"
					},
					{
						"astId": 109,
						"contract": "contracts/StakingRewards/StakingRewards.sol:StakingRewards",
						"label": "rewardPerTokenStored",
						"offset": 0,
						"slot": "6",
						"type": "t_uint256"
					},
					{
						"astId": 113,
						"contract": "contracts/StakingRewards/StakingRewards.sol:StakingRewards",
						"label": "rewardPerTokenStoredOf",
						"offset": 0,
						"slot": "7",
						"type": "t_mapping(t_address,t_uint256)"
					},
					{
						"astId": 117,
						"contract": "contracts/StakingRewards/StakingRewards.sol:StakingRewards",
						"label": "balanceOf",
						"offset": 0,
						"slot": "8",
						"type": "t_mapping(t_address,t_uint256)"
					},
					{
						"astId": 121,
						"contract": "contracts/StakingRewards/StakingRewards.sol:StakingRewards",
						"label": "rewardOf",
						"offset": 0,
						"slot": "9",
						"type": "t_mapping(t_address,t_uint256)"
					},
					{
						"astId": 123,
						"contract": "contracts/StakingRewards/StakingRewards.sol:StakingRewards",
						"label": "totalBalance",
						"offset": 0,
						"slot": "10",
						"type": "t_uint256"
					}
				],
				"types": {
					"t_address": {
						"encoding": "inplace",
						"label": "address",
						"numberOfBytes": "20"
					},
					"t_mapping(t_address,t_uint256)": {
						"encoding": "mapping",
						"key": "t_address",
						"label": "mapping(address => uint256)",
						"numberOfBytes": "32",
						"value": "t_uint256"
					},
					"t_uint256": {
						"encoding": "inplace",
						"label": "uint256",
						"numberOfBytes": "32"
					}
				}
			},
			"userdoc": {
				"kind": "user",
				"methods": {},
				"notice": "质押代币（角色：奖励发放者，质押用户） 奖励发放者发放奖励，质押用户质押代币获取奖励",
				"version": 1
			}
		}
	}
}