{
	"contracts/Vault/TokenVault.sol": {
		"TokenVault": {
			"abi": [
				{
					"inputs": [
						{
							"internalType": "contract ERC20",
							"name": "_asset",
							"type": "address"
						},
						{
							"internalType": "string",
							"name": "_name",
							"type": "string"
						},
						{
							"internalType": "string",
							"name": "_symbol",
							"type": "string"
						}
					],
					"stateMutability": "nonpayable",
					"type": "constructor"
				},
				{
					"anonymous": false,
					"inputs": [
						{
							"indexed": true,
							"internalType": "address",
							"name": "owner",
							"type": "address"
						},
						{
							"indexed": true,
							"internalType": "address",
							"name": "spender",
							"type": "address"
						},
						{
							"indexed": false,
							"internalType": "uint256",
							"name": "amount",
							"type": "uint256"
						}
					],
					"name": "Approval",
					"type": "event"
				},
				{
					"anonymous": false,
					"inputs": [
						{
							"indexed": true,
							"internalType": "address",
							"name": "caller",
							"type": "address"
						},
						{
							"indexed": true,
							"internalType": "address",
							"name": "owner",
							"type": "address"
						},
						{
							"indexed": false,
							"internalType": "uint256",
							"name": "assets",
							"type": "uint256"
						},
						{
							"indexed": false,
							"internalType": "uint256",
							"name": "shares",
							"type": "uint256"
						}
					],
					"name": "Deposit",
					"type": "event"
				},
				{
					"anonymous": false,
					"inputs": [
						{
							"indexed": true,
							"internalType": "address",
							"name": "from",
							"type": "address"
						},
						{
							"indexed": true,
							"internalType": "address",
							"name": "to",
							"type": "address"
						},
						{
							"indexed": false,
							"internalType": "uint256",
							"name": "amount",
							"type": "uint256"
						}
					],
					"name": "Transfer",
					"type": "event"
				},
				{
					"anonymous": false,
					"inputs": [
						{
							"indexed": true,
							"internalType": "address",
							"name": "caller",
							"type": "address"
						},
						{
							"indexed": true,
							"internalType": "address",
							"name": "receiver",
							"type": "address"
						},
						{
							"indexed": true,
							"internalType": "address",
							"name": "owner",
							"type": "address"
						},
						{
							"indexed": false,
							"internalType": "uint256",
							"name": "assets",
							"type": "uint256"
						},
						{
							"indexed": false,
							"internalType": "uint256",
							"name": "shares",
							"type": "uint256"
						}
					],
					"name": "Withdraw",
					"type": "event"
				},
				{
					"inputs": [],
					"name": "DOMAIN_SEPARATOR",
					"outputs": [
						{
							"internalType": "bytes32",
							"name": "",
							"type": "bytes32"
						}
					],
					"stateMutability": "view",
					"type": "function"
				},
				{
					"inputs": [
						{
							"internalType": "address",
							"name": "",
							"type": "address"
						},
						{
							"internalType": "address",
							"name": "",
							"type": "address"
						}
					],
					"name": "allowance",
					"outputs": [
						{
							"internalType": "uint256",
							"name": "",
							"type": "uint256"
						}
					],
					"stateMutability": "view",
					"type": "function"
				},
				{
					"inputs": [
						{
							"internalType": "address",
							"name": "spender",
							"type": "address"
						},
						{
							"internalType": "uint256",
							"name": "amount",
							"type": "uint256"
						}
					],
					"name": "approve",
					"outputs": [
						{
							"internalType": "bool",
							"name": "",
							"type": "bool"
						}
					],
					"stateMutability": "nonpayable",
					"type": "function"
				},
				{
					"inputs": [],
					"name": "asset",
					"outputs": [
						{
							"internalType": "contract ERC20",
							"name": "",
							"type": "address"
						}
					],
					"stateMutability": "view",
					"type": "function"
				},
				{
					"inputs": [
						{
							"internalType": "address",
							"name": "",
							"type": "address"
						}
					],
					"name": "balanceOf",
					"outputs": [
						{
							"internalType": "uint256",
							"name": "",
							"type": "uint256"
						}
					],
					"stateMutability": "view",
					"type": "function"
				},
				{
					"inputs": [
						{
							"internalType": "uint256",
							"name": "shares",
							"type": "uint256"
						}
					],
					"name": "convertToAssets",
					"outputs": [
						{
							"internalType": "uint256",
							"name": "",
							"type": "uint256"
						}
					],
					"stateMutability": "view",
					"type": "function"
				},
				{
					"inputs": [
						{
							"internalType": "uint256",
							"name": "assets",
							"type": "uint256"
						}
					],
					"name": "convertToShares",
					"outputs": [
						{
							"internalType": "uint256",
							"name": "",
							"type": "uint256"
						}
					],
					"stateMutability": "view",
					"type": "function"
				},
				{
					"inputs": [],
					"name": "decimals",
					"outputs": [
						{
							"internalType": "uint8",
							"name": "",
							"type": "uint8"
						}
					],
					"stateMutability": "view",
					"type": "function"
				},
				{
					"inputs": [
						{
							"internalType": "uint256",
							"name": "assets",
							"type": "uint256"
						},
						{
							"internalType": "address",
							"name": "receiver",
							"type": "address"
						}
					],
					"name": "deposit",
					"outputs": [
						{
							"internalType": "uint256",
							"name": "shares",
							"type": "uint256"
						}
					],
					"stateMutability": "nonpayable",
					"type": "function"
				},
				{
					"inputs": [
						{
							"internalType": "address",
							"name": "",
							"type": "address"
						}
					],
					"name": "maxDeposit",
					"outputs": [
						{
							"internalType": "uint256",
							"name": "",
							"type": "uint256"
						}
					],
					"stateMutability": "view",
					"type": "function"
				},
				{
					"inputs": [
						{
							"internalType": "address",
							"name": "",
							"type": "address"
						}
					],
					"name": "maxMint",
					"outputs": [
						{
							"internalType": "uint256",
							"name": "",
							"type": "uint256"
						}
					],
					"stateMutability": "view",
					"type": "function"
				},
				{
					"inputs": [
						{
							"internalType": "address",
							"name": "owner",
							"type": "address"
						}
					],
					"name": "maxRedeem",
					"outputs": [
						{
							"internalType": "uint256",
							"name": "",
							"type": "uint256"
						}
					],
					"stateMutability": "view",
					"type": "function"
				},
				{
					"inputs": [
						{
							"internalType": "address",
							"name": "owner",
							"type": "address"
						}
					],
					"name": "maxWithdraw",
					"outputs": [
						{
							"internalType": "uint256",
							"name": "",
							"type": "uint256"
						}
					],
					"stateMutability": "view",
					"type": "function"
				},
				{
					"inputs": [
						{
							"internalType": "uint256",
							"name": "shares",
							"type": "uint256"
						},
						{
							"internalType": "address",
							"name": "receiver",
							"type": "address"
						}
					],
					"name": "mint",
					"outputs": [
						{
							"internalType": "uint256",
							"name": "assets",
							"type": "uint256"
						}
					],
					"stateMutability": "nonpayable",
					"type": "function"
				},
				{
					"inputs": [],
					"name": "name",
					"outputs": [
						{
							"internalType": "string",
							"name": "",
							"type": "string"
						}
					],
					"stateMutability": "view",
					"type": "function"
				},
				{
					"inputs": [
						{
							"internalType": "address",
							"name": "",
							"type": "address"
						}
					],
					"name": "nonces",
					"outputs": [
						{
							"internalType": "uint256",
							"name": "",
							"type": "uint256"
						}
					],
					"stateMutability": "view",
					"type": "function"
				},
				{
					"inputs": [
						{
							"internalType": "address",
							"name": "owner",
							"type": "address"
						},
						{
							"internalType": "address",
							"name": "spender",
							"type": "address"
						},
						{
							"internalType": "uint256",
							"name": "value",
							"type": "uint256"
						},
						{
							"internalType": "uint256",
							"name": "deadline",
							"type": "uint256"
						},
						{
							"internalType": "uint8",
							"name": "v",
							"type": "uint8"
						},
						{
							"internalType": "bytes32",
							"name": "r",
							"type": "bytes32"
						},
						{
							"internalType": "bytes32",
							"name": "s",
							"type": "bytes32"
						}
					],
					"name": "permit",
					"outputs": [],
					"stateMutability": "nonpayable",
					"type": "function"
				},
				{
					"inputs": [
						{
							"internalType": "uint256",
							"name": "assets",
							"type": "uint256"
						}
					],
					"name": "previewDeposit",
					"outputs": [
						{
							"internalType": "uint256",
							"name": "",
							"type": "uint256"
						}
					],
					"stateMutability": "view",
					"type": "function"
				},
				{
					"inputs": [
						{
							"internalType": "uint256",
							"name": "shares",
							"type": "uint256"
						}
					],
					"name": "previewMint",
					"outputs": [
						{
							"internalType": "uint256",
							"name": "",
							"type": "uint256"
						}
					],
					"stateMutability": "view",
					"type": "function"
				},
				{
					"inputs": [
						{
							"internalType": "uint256",
							"name": "shares",
							"type": "uint256"
						}
					],
					"name": "previewRedeem",
					"outputs": [
						{
							"internalType": "uint256",
							"name": "",
							"type": "uint256"
						}
					],
					"stateMutability": "view",
					"type": "function"
				},
				{
					"inputs": [
						{
							"internalType": "uint256",
							"name": "assets",
							"type": "uint256"
						}
					],
					"name": "previewWithdraw",
					"outputs": [
						{
							"internalType": "uint256",
							"name": "",
							"type": "uint256"
						}
					],
					"stateMutability": "view",
					"type": "function"
				},
				{
					"inputs": [
						{
							"internalType": "uint256",
							"name": "shares",
							"type": "uint256"
						},
						{
							"internalType": "address",
							"name": "receiver",
							"type": "address"
						},
						{
							"internalType": "address",
							"name": "owner",
							"type": "address"
						}
					],
					"name": "redeem",
					"outputs": [
						{
							"internalType": "uint256",
							"name": "assets",
							"type": "uint256"
						}
					],
					"stateMutability": "nonpayable",
					"type": "function"
				},
				{
					"inputs": [],
					"name": "symbol",
					"outputs": [
						{
							"internalType": "string",
							"name": "",
							"type": "string"
						}
					],
					"stateMutability": "view",
					"type": "function"
				},
				{
					"inputs": [],
					"name": "totalAssets",
					"outputs": [
						{
							"internalType": "uint256",
							"name": "",
							"type": "uint256"
						}
					],
					"stateMutability": "view",
					"type": "function"
				},
				{
					"inputs": [],
					"name": "totalSupply",
					"outputs": [
						{
							"internalType": "uint256",
							"name": "",
							"type": "uint256"
						}
					],
					"stateMutability": "view",
					"type": "function"
				},
				{
					"inputs": [
						{
							"internalType": "address",
							"name": "to",
							"type": "address"
						},
						{
							"internalType": "uint256",
							"name": "amount",
							"type": "uint256"
						}
					],
					"name": "transfer",
					"outputs": [
						{
							"internalType": "bool",
							"name": "",
							"type": "bool"
						}
					],
					"stateMutability": "nonpayable",
					"type": "function"
				},
				{
					"inputs": [
						{
							"internalType": "address",
							"name": "from",
							"type": "address"
						},
						{
							"internalType": "address",
							"name": "to",
							"type": "address"
						},
						{
							"internalType": "uint256",
							"name": "amount",
							"type": "uint256"
						}
					],
					"name": "transferFrom",
					"outputs": [
						{
							"internalType": "bool",
							"name": "",
							"type": "bool"
						}
					],
					"stateMutability": "nonpayable",
					"type": "function"
				},
				{
					"inputs": [
						{
							"internalType": "uint256",
							"name": "assets",
							"type": "uint256"
						},
						{
							"internalType": "address",
							"name": "receiver",
							"type": "address"
						},
						{
							"internalType": "address",
							"name": "owner",
							"type": "address"
						}
					],
					"name": "withdraw",
					"outputs": [
						{
							"internalType": "uint256",
							"name": "shares",
							"type": "uint256"
						}
					],
					"stateMutability": "nonpayable",
					"type": "function"
				}
			],
			"devdoc": {
				"kind": "dev",
				"methods": {},
				"version": 1
			},
			"evm": {
				"assembly": "    /* \"contracts/Vault/TokenVault.sol\":159:431  contract TokenVault is ERC4626 {... */\n  mstore(0x40, 0x0100)\n    /* \"contracts/Vault/TokenVault.sol\":203:341  constructor(... */\n  callvalue\n  dup1\n  iszero\n  tag_1\n  jumpi\n  revert(0x00, 0x00)\ntag_1:\n  pop\n  mload(0x40)\n  sub(codesize, bytecodeSize)\n  dup1\n  bytecodeSize\n  dup4\n  codecopy\n  dup2\n  dup2\n  add\n  0x40\n  mstore\n  dup2\n  add\n  swap1\n  tag_2\n  swap2\n  swap1\n  tag_3\n  jump\t// in\ntag_2:\n    /* \"contracts/Vault/TokenVault.sol\":315:321  _asset */\n  dup3\n    /* \"contracts/Vault/TokenVault.sol\":323:328  _name */\n  dup3\n    /* \"contracts/Vault/TokenVault.sol\":330:337  _symbol */\n  dup3\n    /* \"https://github.com/transmissions11/solmate/blob/main/src/tokens/ERC4626.sol\":1290:1295  _name */\n  dup2\n    /* \"https://github.com/transmissions11/solmate/blob/main/src/tokens/ERC4626.sol\":1297:1304  _symbol */\n  dup2\n    /* \"https://github.com/transmissions11/solmate/blob/main/src/tokens/ERC4626.sol\":1306:1312  _asset */\n  dup5\n    /* \"https://github.com/transmissions11/solmate/blob/main/src/tokens/ERC4626.sol\":1306:1321  _asset.decimals */\n  0xffffffffffffffffffffffffffffffffffffffff\n  and\n  0x313ce567\n    /* \"https://github.com/transmissions11/solmate/blob/main/src/tokens/ERC4626.sol\":1306:1323  _asset.decimals() */\n  mload(0x40)\n  dup2\n  0xffffffff\n  and\n  0xe0\n  shl\n  dup2\n  mstore\n  0x04\n  add\n  0x20\n  mload(0x40)\n  dup1\n  dup4\n  sub\n  dup2\n  dup7\n  gas\n  staticcall\n  iszero\n  dup1\n  iszero\n  tag_7\n  jumpi\n  returndatacopy(0x00, 0x00, returndatasize)\n  revert(0x00, returndatasize)\ntag_7:\n  pop\n  pop\n  pop\n  pop\n  mload(0x40)\n  returndatasize\n  not(0x1f)\n  0x1f\n  dup3\n  add\n  and\n  dup3\n  add\n  dup1\n  0x40\n  mstore\n  pop\n  dup2\n  add\n  swap1\n  tag_8\n  swap2\n  swap1\n  tag_9\n  jump\t// in\ntag_8:\n    /* \"https://github.com/transmissions11/solmate/blob/main/src/tokens/ERC20.sol\":2101:2106  _name */\n  dup3\n    /* \"https://github.com/transmissions11/solmate/blob/main/src/tokens/ERC20.sol\":2094:2098  name */\n  0x00\n    /* \"https://github.com/transmissions11/solmate/blob/main/src/tokens/ERC20.sol\":2094:2106  name = _name */\n  swap1\n  dup2\n  tag_12\n  swap2\n  swap1\n  tag_13\n  jump\t// in\ntag_12:\n  pop\n    /* \"https://github.com/transmissions11/solmate/blob/main/src/tokens/ERC20.sol\":2125:2132  _symbol */\n  dup2\n    /* \"https://github.com/transmissions11/solmate/blob/main/src/tokens/ERC20.sol\":2116:2122  symbol */\n  0x01\n    /* \"https://github.com/transmissions11/solmate/blob/main/src/tokens/ERC20.sol\":2116:2132  symbol = _symbol */\n  swap1\n  dup2\n  tag_14\n  swap2\n  swap1\n  tag_13\n  jump\t// in\ntag_14:\n  pop\n    /* \"https://github.com/transmissions11/solmate/blob/main/src/tokens/ERC20.sol\":2153:2162  _decimals */\n  dup1\n    /* \"https://github.com/transmissions11/solmate/blob/main/src/tokens/ERC20.sol\":2142:2162  decimals = _decimals */\n  0xff\n  and\n  0x80\n  dup2\n  0xff\n  and\n  dup2\n  mstore\n  pop\n  pop\n    /* \"https://github.com/transmissions11/solmate/blob/main/src/tokens/ERC20.sol\":2192:2205  block.chainid */\n  chainid\n    /* \"https://github.com/transmissions11/solmate/blob/main/src/tokens/ERC20.sol\":2173:2205  INITIAL_CHAIN_ID = block.chainid */\n  0xa0\n  dup2\n  dup2\n  mstore\n  pop\n  pop\n    /* \"https://github.com/transmissions11/solmate/blob/main/src/tokens/ERC20.sol\":2242:2266  computeDomainSeparator() */\n  tag_15\n    /* \"https://github.com/transmissions11/solmate/blob/main/src/tokens/ERC20.sol\":2242:2264  computeDomainSeparator */\n  shl(0x20, tag_16)\n    /* \"https://github.com/transmissions11/solmate/blob/main/src/tokens/ERC20.sol\":2242:2266  computeDomainSeparator() */\n  0x20\n  shr\n  jump\t// in\ntag_15:\n    /* \"https://github.com/transmissions11/solmate/blob/main/src/tokens/ERC20.sol\":2215:2266  INITIAL_DOMAIN_SEPARATOR = computeDomainSeparator() */\n  0xc0\n  dup2\n  dup2\n  mstore\n  pop\n  pop\n    /* \"https://github.com/transmissions11/solmate/blob/main/src/tokens/ERC20.sol\":1981:2273  constructor(... */\n  pop\n  pop\n  pop\n    /* \"https://github.com/transmissions11/solmate/blob/main/src/tokens/ERC4626.sol\":1343:1349  _asset */\n  dup3\n    /* \"https://github.com/transmissions11/solmate/blob/main/src/tokens/ERC4626.sol\":1335:1349  asset = _asset */\n  0xffffffffffffffffffffffffffffffffffffffff\n  and\n  0xe0\n  dup2\n  0xffffffffffffffffffffffffffffffffffffffff\n  and\n  dup2\n  mstore\n  pop\n  pop\n    /* \"https://github.com/transmissions11/solmate/blob/main/src/tokens/ERC4626.sol\":1184:1356  constructor(... */\n  pop\n  pop\n  pop\n    /* \"contracts/Vault/TokenVault.sol\":203:341  constructor(... */\n  pop\n  pop\n  pop\n    /* \"contracts/Vault/TokenVault.sol\":159:431  contract TokenVault is ERC4626 {... */\n  jump(tag_19)\n    /* \"https://github.com/transmissions11/solmate/blob/main/src/tokens/ERC20.sol\":5510:5956  function computeDomainSeparator() internal view virtual returns (bytes32) {... */\ntag_16:\n    /* \"https://github.com/transmissions11/solmate/blob/main/src/tokens/ERC20.sol\":5575:5582  bytes32 */\n  0x00\n    /* \"https://github.com/transmissions11/solmate/blob/main/src/tokens/ERC20.sol\":5672:5767  keccak256(\"EIP712Domain(string name,string version,uint256 chainId,address verifyingContract)\") */\n  0x8b73c3c69bb8fe3d512ecc4cf759cc79239f7b179b0ffacaa9a75d522b39400f\n    /* \"https://github.com/transmissions11/solmate/blob/main/src/tokens/ERC20.sol\":5805:5809  name */\n  0x00\n    /* \"https://github.com/transmissions11/solmate/blob/main/src/tokens/ERC20.sol\":5789:5811  keccak256(bytes(name)) */\n  mload(0x40)\n  tag_21\n  swap2\n  swap1\n  tag_22\n  jump\t// in\ntag_21:\n  mload(0x40)\n  dup1\n  swap2\n  sub\n  swap1\n  keccak256\n    /* \"https://github.com/transmissions11/solmate/blob/main/src/tokens/ERC20.sol\":5833:5847  keccak256(\"1\") */\n  0xc89efdaa54c0f20c7adf612882df0950f5a951637e0307cdcb4c672f298b8bc6\n    /* \"https://github.com/transmissions11/solmate/blob/main/src/tokens/ERC20.sol\":5869:5882  block.chainid */\n  chainid\n    /* \"https://github.com/transmissions11/solmate/blob/main/src/tokens/ERC20.sol\":5912:5916  this */\n  address\n    /* \"https://github.com/transmissions11/solmate/blob/main/src/tokens/ERC20.sol\":5640:5935  abi.encode(... */\n  add(0x20, mload(0x40))\n  tag_23\n  swap6\n  swap5\n  swap4\n  swap3\n  swap2\n  swap1\n  tag_24\n  jump\t// in\ntag_23:\n  mload(0x40)\n  0x20\n  dup2\n  dup4\n  sub\n  sub\n  dup2\n  mstore\n  swap1\n  0x40\n  mstore\n    /* \"https://github.com/transmissions11/solmate/blob/main/src/tokens/ERC20.sol\":5613:5949  keccak256(... */\n  dup1\n  mload\n  swap1\n  0x20\n  add\n  keccak256\n    /* \"https://github.com/transmissions11/solmate/blob/main/src/tokens/ERC20.sol\":5594:5949  return... */\n  swap1\n  pop\n    /* \"https://github.com/transmissions11/solmate/blob/main/src/tokens/ERC20.sol\":5510:5956  function computeDomainSeparator() internal view virtual returns (bytes32) {... */\n  swap1\n  jump\t// out\n    /* \"#utility.yul\":7:82   */\ntag_25:\n    /* \"#utility.yul\":40:46   */\n  0x00\n    /* \"#utility.yul\":73:75   */\n  0x40\n    /* \"#utility.yul\":67:76   */\n  mload\n    /* \"#utility.yul\":57:76   */\n  swap1\n  pop\n    /* \"#utility.yul\":7:82   */\n  swap1\n  jump\t// out\n    /* \"#utility.yul\":88:205   */\ntag_26:\n    /* \"#utility.yul\":197:198   */\n  0x00\n    /* \"#utility.yul\":194:195   */\n  0x00\n    /* \"#utility.yul\":187:199   */\n  revert\n    /* \"#utility.yul\":211:328   */\ntag_27:\n    /* \"#utility.yul\":320:321   */\n  0x00\n    /* \"#utility.yul\":317:318   */\n  0x00\n    /* \"#utility.yul\":310:322   */\n  revert\n    /* \"#utility.yul\":334:460   */\ntag_28:\n    /* \"#utility.yul\":371:378   */\n  0x00\n    /* \"#utility.yul\":411:453   */\n  0xffffffffffffffffffffffffffffffffffffffff\n    /* \"#utility.yul\":404:409   */\n  dup3\n    /* \"#utility.yul\":400:454   */\n  and\n    /* \"#utility.yul\":389:454   */\n  swap1\n  pop\n    /* \"#utility.yul\":334:460   */\n  swap2\n  swap1\n  pop\n  jump\t// out\n    /* \"#utility.yul\":466:562   */\ntag_29:\n    /* \"#utility.yul\":503:510   */\n  0x00\n    /* \"#utility.yul\":532:556   */\n  tag_78\n    /* \"#utility.yul\":550:555   */\n  dup3\n    /* \"#utility.yul\":532:556   */\n  tag_28\n  jump\t// in\ntag_78:\n    /* \"#utility.yul\":521:556   */\n  swap1\n  pop\n    /* \"#utility.yul\":466:562   */\n  swap2\n  swap1\n  pop\n  jump\t// out\n    /* \"#utility.yul\":568:677   */\ntag_30:\n    /* \"#utility.yul\":618:625   */\n  0x00\n    /* \"#utility.yul\":647:671   */\n  tag_80\n    /* \"#utility.yul\":665:670   */\n  dup3\n    /* \"#utility.yul\":647:671   */\n  tag_29\n  jump\t// in\ntag_80:\n    /* \"#utility.yul\":636:671   */\n  swap1\n  pop\n    /* \"#utility.yul\":568:677   */\n  swap2\n  swap1\n  pop\n  jump\t// out\n    /* \"#utility.yul\":683:831   */\ntag_31:\n    /* \"#utility.yul\":769:806   */\n  tag_82\n    /* \"#utility.yul\":800:805   */\n  dup2\n    /* \"#utility.yul\":769:806   */\n  tag_30\n  jump\t// in\ntag_82:\n    /* \"#utility.yul\":762:767   */\n  dup2\n    /* \"#utility.yul\":759:807   */\n  eq\n    /* \"#utility.yul\":749:825   */\n  tag_83\n  jumpi\n    /* \"#utility.yul\":821:822   */\n  0x00\n    /* \"#utility.yul\":818:819   */\n  0x00\n    /* \"#utility.yul\":811:823   */\n  revert\n    /* \"#utility.yul\":749:825   */\ntag_83:\n    /* \"#utility.yul\":683:831   */\n  pop\n  jump\t// out\n    /* \"#utility.yul\":837:1006   */\ntag_32:\n    /* \"#utility.yul\":907:912   */\n  0x00\n    /* \"#utility.yul\":938:944   */\n  dup2\n    /* \"#utility.yul\":932:945   */\n  mload\n    /* \"#utility.yul\":923:945   */\n  swap1\n  pop\n    /* \"#utility.yul\":954:1000   */\n  tag_85\n    /* \"#utility.yul\":994:999   */\n  dup2\n    /* \"#utility.yul\":954:1000   */\n  tag_31\n  jump\t// in\ntag_85:\n    /* \"#utility.yul\":837:1006   */\n  swap3\n  swap2\n  pop\n  pop\n  jump\t// out\n    /* \"#utility.yul\":1012:1129   */\ntag_33:\n    /* \"#utility.yul\":1121:1122   */\n  0x00\n    /* \"#utility.yul\":1118:1119   */\n  0x00\n    /* \"#utility.yul\":1111:1123   */\n  revert\n    /* \"#utility.yul\":1135:1252   */\ntag_34:\n    /* \"#utility.yul\":1244:1245   */\n  0x00\n    /* \"#utility.yul\":1241:1242   */\n  0x00\n    /* \"#utility.yul\":1234:1246   */\n  revert\n    /* \"#utility.yul\":1258:1360   */\ntag_35:\n    /* \"#utility.yul\":1299:1305   */\n  0x00\n    /* \"#utility.yul\":1350:1352   */\n  0x1f\n    /* \"#utility.yul\":1346:1353   */\n  not\n    /* \"#utility.yul\":1341:1343   */\n  0x1f\n    /* \"#utility.yul\":1334:1339   */\n  dup4\n    /* \"#utility.yul\":1330:1344   */\n  add\n    /* \"#utility.yul\":1326:1354   */\n  and\n    /* \"#utility.yul\":1316:1354   */\n  swap1\n  pop\n    /* \"#utility.yul\":1258:1360   */\n  swap2\n  swap1\n  pop\n  jump\t// out\n    /* \"#utility.yul\":1366:1546   */\ntag_36:\n    /* \"#utility.yul\":1414:1491   */\n  0x4e487b7100000000000000000000000000000000000000000000000000000000\n    /* \"#utility.yul\":1411:1412   */\n  0x00\n    /* \"#utility.yul\":1404:1492   */\n  mstore\n    /* \"#utility.yul\":1511:1515   */\n  0x41\n    /* \"#utility.yul\":1508:1509   */\n  0x04\n    /* \"#utility.yul\":1501:1516   */\n  mstore\n    /* \"#utility.yul\":1535:1539   */\n  0x24\n    /* \"#utility.yul\":1532:1533   */\n  0x00\n    /* \"#utility.yul\":1525:1540   */\n  revert\n    /* \"#utility.yul\":1552:1833   */\ntag_37:\n    /* \"#utility.yul\":1635:1662   */\n  tag_91\n    /* \"#utility.yul\":1657:1661   */\n  dup3\n    /* \"#utility.yul\":1635:1662   */\n  tag_35\n  jump\t// in\ntag_91:\n    /* \"#utility.yul\":1627:1633   */\n  dup2\n    /* \"#utility.yul\":1623:1663   */\n  add\n    /* \"#utility.yul\":1765:1771   */\n  dup2\n    /* \"#utility.yul\":1753:1763   */\n  dup2\n    /* \"#utility.yul\":1750:1772   */\n  lt\n    /* \"#utility.yul\":1729:1747   */\n  0xffffffffffffffff\n    /* \"#utility.yul\":1717:1727   */\n  dup3\n    /* \"#utility.yul\":1714:1748   */\n  gt\n    /* \"#utility.yul\":1711:1773   */\n  or\n    /* \"#utility.yul\":1708:1796   */\n  iszero\n  tag_92\n  jumpi\n    /* \"#utility.yul\":1776:1794   */\n  tag_93\n  tag_36\n  jump\t// in\ntag_93:\n    /* \"#utility.yul\":1708:1796   */\ntag_92:\n    /* \"#utility.yul\":1816:1826   */\n  dup1\n    /* \"#utility.yul\":1812:1814   */\n  0x40\n    /* \"#utility.yul\":1805:1827   */\n  mstore\n    /* \"#utility.yul\":1595:1833   */\n  pop\n    /* \"#utility.yul\":1552:1833   */\n  pop\n  pop\n  jump\t// out\n    /* \"#utility.yul\":1839:1968   */\ntag_38:\n    /* \"#utility.yul\":1873:1879   */\n  0x00\n    /* \"#utility.yul\":1900:1920   */\n  tag_95\n  tag_25\n  jump\t// in\ntag_95:\n    /* \"#utility.yul\":1890:1920   */\n  swap1\n  pop\n    /* \"#utility.yul\":1929:1962   */\n  tag_96\n    /* \"#utility.yul\":1957:1961   */\n  dup3\n    /* \"#utility.yul\":1949:1955   */\n  dup3\n    /* \"#utility.yul\":1929:1962   */\n  tag_37\n  jump\t// in\ntag_96:\n    /* \"#utility.yul\":1839:1968   */\n  swap2\n  swap1\n  pop\n  jump\t// out\n    /* \"#utility.yul\":1974:2282   */\ntag_39:\n    /* \"#utility.yul\":2036:2040   */\n  0x00\n    /* \"#utility.yul\":2126:2144   */\n  0xffffffffffffffff\n    /* \"#utility.yul\":2118:2124   */\n  dup3\n    /* \"#utility.yul\":2115:2145   */\n  gt\n    /* \"#utility.yul\":2112:2168   */\n  iszero\n  tag_98\n  jumpi\n    /* \"#utility.yul\":2148:2166   */\n  tag_99\n  tag_36\n  jump\t// in\ntag_99:\n    /* \"#utility.yul\":2112:2168   */\ntag_98:\n    /* \"#utility.yul\":2186:2215   */\n  tag_100\n    /* \"#utility.yul\":2208:2214   */\n  dup3\n    /* \"#utility.yul\":2186:2215   */\n  tag_35\n  jump\t// in\ntag_100:\n    /* \"#utility.yul\":2178:2215   */\n  swap1\n  pop\n    /* \"#utility.yul\":2270:2274   */\n  0x20\n    /* \"#utility.yul\":2264:2268   */\n  dup2\n    /* \"#utility.yul\":2260:2275   */\n  add\n    /* \"#utility.yul\":2252:2275   */\n  swap1\n  pop\n    /* \"#utility.yul\":1974:2282   */\n  swap2\n  swap1\n  pop\n  jump\t// out\n    /* \"#utility.yul\":2288:2427   */\ntag_40:\n    /* \"#utility.yul\":2377:2383   */\n  dup3\n    /* \"#utility.yul\":2372:2375   */\n  dup2\n    /* \"#utility.yul\":2367:2370   */\n  dup4\n    /* \"#utility.yul\":2361:2384   */\n  mcopy\n    /* \"#utility.yul\":2418:2419   */\n  0x00\n    /* \"#utility.yul\":2409:2415   */\n  dup4\n    /* \"#utility.yul\":2404:2407   */\n  dup4\n    /* \"#utility.yul\":2400:2416   */\n  add\n    /* \"#utility.yul\":2393:2420   */\n  mstore\n    /* \"#utility.yul\":2288:2427   */\n  pop\n  pop\n  pop\n  jump\t// out\n    /* \"#utility.yul\":2433:2867   */\ntag_41:\n    /* \"#utility.yul\":2522:2527   */\n  0x00\n    /* \"#utility.yul\":2547:2613   */\n  tag_103\n    /* \"#utility.yul\":2563:2612   */\n  tag_104\n    /* \"#utility.yul\":2605:2611   */\n  dup5\n    /* \"#utility.yul\":2563:2612   */\n  tag_39\n  jump\t// in\ntag_104:\n    /* \"#utility.yul\":2547:2613   */\n  tag_38\n  jump\t// in\ntag_103:\n    /* \"#utility.yul\":2538:2613   */\n  swap1\n  pop\n    /* \"#utility.yul\":2636:2642   */\n  dup3\n    /* \"#utility.yul\":2629:2634   */\n  dup2\n    /* \"#utility.yul\":2622:2643   */\n  mstore\n    /* \"#utility.yul\":2674:2678   */\n  0x20\n    /* \"#utility.yul\":2667:2672   */\n  dup2\n    /* \"#utility.yul\":2663:2679   */\n  add\n    /* \"#utility.yul\":2712:2715   */\n  dup5\n    /* \"#utility.yul\":2703:2709   */\n  dup5\n    /* \"#utility.yul\":2698:2701   */\n  dup5\n    /* \"#utility.yul\":2694:2710   */\n  add\n    /* \"#utility.yul\":2691:2716   */\n  gt\n    /* \"#utility.yul\":2688:2800   */\n  iszero\n  tag_105\n  jumpi\n    /* \"#utility.yul\":2719:2798   */\n  tag_106\n  tag_34\n  jump\t// in\ntag_106:\n    /* \"#utility.yul\":2688:2800   */\ntag_105:\n    /* \"#utility.yul\":2809:2861   */\n  tag_107\n    /* \"#utility.yul\":2854:2860   */\n  dup5\n    /* \"#utility.yul\":2849:2852   */\n  dup3\n    /* \"#utility.yul\":2844:2847   */\n  dup6\n    /* \"#utility.yul\":2809:2861   */\n  tag_40\n  jump\t// in\ntag_107:\n    /* \"#utility.yul\":2528:2867   */\n  pop\n    /* \"#utility.yul\":2433:2867   */\n  swap4\n  swap3\n  pop\n  pop\n  pop\n  jump\t// out\n    /* \"#utility.yul\":2887:3242   */\ntag_42:\n    /* \"#utility.yul\":2954:2959   */\n  0x00\n    /* \"#utility.yul\":3003:3006   */\n  dup3\n    /* \"#utility.yul\":2996:3000   */\n  0x1f\n    /* \"#utility.yul\":2988:2994   */\n  dup4\n    /* \"#utility.yul\":2984:3001   */\n  add\n    /* \"#utility.yul\":2980:3007   */\n  slt\n    /* \"#utility.yul\":2970:3092   */\n  tag_109\n  jumpi\n    /* \"#utility.yul\":3011:3090   */\n  tag_110\n  tag_33\n  jump\t// in\ntag_110:\n    /* \"#utility.yul\":2970:3092   */\ntag_109:\n    /* \"#utility.yul\":3121:3127   */\n  dup2\n    /* \"#utility.yul\":3115:3128   */\n  mload\n    /* \"#utility.yul\":3146:3236   */\n  tag_111\n    /* \"#utility.yul\":3232:3235   */\n  dup5\n    /* \"#utility.yul\":3224:3230   */\n  dup3\n    /* \"#utility.yul\":3217:3221   */\n  0x20\n    /* \"#utility.yul\":3209:3215   */\n  dup7\n    /* \"#utility.yul\":3205:3222   */\n  add\n    /* \"#utility.yul\":3146:3236   */\n  tag_41\n  jump\t// in\ntag_111:\n    /* \"#utility.yul\":3137:3236   */\n  swap2\n  pop\n    /* \"#utility.yul\":2960:3242   */\n  pop\n    /* \"#utility.yul\":2887:3242   */\n  swap3\n  swap2\n  pop\n  pop\n  jump\t// out\n    /* \"#utility.yul\":3248:4283   */\ntag_3:\n    /* \"#utility.yul\":3369:3375   */\n  0x00\n    /* \"#utility.yul\":3377:3383   */\n  0x00\n    /* \"#utility.yul\":3385:3391   */\n  0x00\n    /* \"#utility.yul\":3434:3436   */\n  0x60\n    /* \"#utility.yul\":3422:3431   */\n  dup5\n    /* \"#utility.yul\":3413:3420   */\n  dup7\n    /* \"#utility.yul\":3409:3432   */\n  sub\n    /* \"#utility.yul\":3405:3437   */\n  slt\n    /* \"#utility.yul\":3402:3521   */\n  iszero\n  tag_113\n  jumpi\n    /* \"#utility.yul\":3440:3519   */\n  tag_114\n  tag_26\n  jump\t// in\ntag_114:\n    /* \"#utility.yul\":3402:3521   */\ntag_113:\n    /* \"#utility.yul\":3560:3561   */\n  0x00\n    /* \"#utility.yul\":3585:3662   */\n  tag_115\n    /* \"#utility.yul\":3654:3661   */\n  dup7\n    /* \"#utility.yul\":3645:3651   */\n  dup3\n    /* \"#utility.yul\":3634:3643   */\n  dup8\n    /* \"#utility.yul\":3630:3652   */\n  add\n    /* \"#utility.yul\":3585:3662   */\n  tag_32\n  jump\t// in\ntag_115:\n    /* \"#utility.yul\":3575:3662   */\n  swap4\n  pop\n    /* \"#utility.yul\":3531:3672   */\n  pop\n    /* \"#utility.yul\":3732:3734   */\n  0x20\n    /* \"#utility.yul\":3721:3730   */\n  dup5\n    /* \"#utility.yul\":3717:3735   */\n  add\n    /* \"#utility.yul\":3711:3736   */\n  mload\n    /* \"#utility.yul\":3763:3781   */\n  0xffffffffffffffff\n    /* \"#utility.yul\":3755:3761   */\n  dup2\n    /* \"#utility.yul\":3752:3782   */\n  gt\n    /* \"#utility.yul\":3749:3866   */\n  iszero\n  tag_116\n  jumpi\n    /* \"#utility.yul\":3785:3864   */\n  tag_117\n  tag_27\n  jump\t// in\ntag_117:\n    /* \"#utility.yul\":3749:3866   */\ntag_116:\n    /* \"#utility.yul\":3890:3964   */\n  tag_118\n    /* \"#utility.yul\":3956:3963   */\n  dup7\n    /* \"#utility.yul\":3947:3953   */\n  dup3\n    /* \"#utility.yul\":3936:3945   */\n  dup8\n    /* \"#utility.yul\":3932:3954   */\n  add\n    /* \"#utility.yul\":3890:3964   */\n  tag_42\n  jump\t// in\ntag_118:\n    /* \"#utility.yul\":3880:3964   */\n  swap3\n  pop\n    /* \"#utility.yul\":3682:3974   */\n  pop\n    /* \"#utility.yul\":4034:4036   */\n  0x40\n    /* \"#utility.yul\":4023:4032   */\n  dup5\n    /* \"#utility.yul\":4019:4037   */\n  add\n    /* \"#utility.yul\":4013:4038   */\n  mload\n    /* \"#utility.yul\":4065:4083   */\n  0xffffffffffffffff\n    /* \"#utility.yul\":4057:4063   */\n  dup2\n    /* \"#utility.yul\":4054:4084   */\n  gt\n    /* \"#utility.yul\":4051:4168   */\n  iszero\n  tag_119\n  jumpi\n    /* \"#utility.yul\":4087:4166   */\n  tag_120\n  tag_27\n  jump\t// in\ntag_120:\n    /* \"#utility.yul\":4051:4168   */\ntag_119:\n    /* \"#utility.yul\":4192:4266   */\n  tag_121\n    /* \"#utility.yul\":4258:4265   */\n  dup7\n    /* \"#utility.yul\":4249:4255   */\n  dup3\n    /* \"#utility.yul\":4238:4247   */\n  dup8\n    /* \"#utility.yul\":4234:4256   */\n  add\n    /* \"#utility.yul\":4192:4266   */\n  tag_42\n  jump\t// in\ntag_121:\n    /* \"#utility.yul\":4182:4266   */\n  swap2\n  pop\n    /* \"#utility.yul\":3984:4276   */\n  pop\n    /* \"#utility.yul\":3248:4283   */\n  swap3\n  pop\n  swap3\n  pop\n  swap3\n  jump\t// out\n    /* \"#utility.yul\":4289:4375   */\ntag_43:\n    /* \"#utility.yul\":4324:4331   */\n  0x00\n    /* \"#utility.yul\":4364:4368   */\n  0xff\n    /* \"#utility.yul\":4357:4362   */\n  dup3\n    /* \"#utility.yul\":4353:4369   */\n  and\n    /* \"#utility.yul\":4342:4369   */\n  swap1\n  pop\n    /* \"#utility.yul\":4289:4375   */\n  swap2\n  swap1\n  pop\n  jump\t// out\n    /* \"#utility.yul\":4381:4499   */\ntag_44:\n    /* \"#utility.yul\":4452:4474   */\n  tag_124\n    /* \"#utility.yul\":4468:4473   */\n  dup2\n    /* \"#utility.yul\":4452:4474   */\n  tag_43\n  jump\t// in\ntag_124:\n    /* \"#utility.yul\":4445:4450   */\n  dup2\n    /* \"#utility.yul\":4442:4475   */\n  eq\n    /* \"#utility.yul\":4432:4493   */\n  tag_125\n  jumpi\n    /* \"#utility.yul\":4489:4490   */\n  0x00\n    /* \"#utility.yul\":4486:4487   */\n  0x00\n    /* \"#utility.yul\":4479:4491   */\n  revert\n    /* \"#utility.yul\":4432:4493   */\ntag_125:\n    /* \"#utility.yul\":4381:4499   */\n  pop\n  jump\t// out\n    /* \"#utility.yul\":4505:4644   */\ntag_45:\n    /* \"#utility.yul\":4560:4565   */\n  0x00\n    /* \"#utility.yul\":4591:4597   */\n  dup2\n    /* \"#utility.yul\":4585:4598   */\n  mload\n    /* \"#utility.yul\":4576:4598   */\n  swap1\n  pop\n    /* \"#utility.yul\":4607:4638   */\n  tag_127\n    /* \"#utility.yul\":4632:4637   */\n  dup2\n    /* \"#utility.yul\":4607:4638   */\n  tag_44\n  jump\t// in\ntag_127:\n    /* \"#utility.yul\":4505:4644   */\n  swap3\n  swap2\n  pop\n  pop\n  jump\t// out\n    /* \"#utility.yul\":4650:4997   */\ntag_9:\n    /* \"#utility.yul\":4718:4724   */\n  0x00\n    /* \"#utility.yul\":4767:4769   */\n  0x20\n    /* \"#utility.yul\":4755:4764   */\n  dup3\n    /* \"#utility.yul\":4746:4753   */\n  dup5\n    /* \"#utility.yul\":4742:4765   */\n  sub\n    /* \"#utility.yul\":4738:4770   */\n  slt\n    /* \"#utility.yul\":4735:4854   */\n  iszero\n  tag_129\n  jumpi\n    /* \"#utility.yul\":4773:4852   */\n  tag_130\n  tag_26\n  jump\t// in\ntag_130:\n    /* \"#utility.yul\":4735:4854   */\ntag_129:\n    /* \"#utility.yul\":4893:4894   */\n  0x00\n    /* \"#utility.yul\":4918:4980   */\n  tag_131\n    /* \"#utility.yul\":4972:4979   */\n  dup5\n    /* \"#utility.yul\":4963:4969   */\n  dup3\n    /* \"#utility.yul\":4952:4961   */\n  dup6\n    /* \"#utility.yul\":4948:4970   */\n  add\n    /* \"#utility.yul\":4918:4980   */\n  tag_45\n  jump\t// in\ntag_131:\n    /* \"#utility.yul\":4908:4980   */\n  swap2\n  pop\n    /* \"#utility.yul\":4864:4990   */\n  pop\n    /* \"#utility.yul\":4650:4997   */\n  swap3\n  swap2\n  pop\n  pop\n  jump\t// out\n    /* \"#utility.yul\":5003:5102   */\ntag_46:\n    /* \"#utility.yul\":5055:5061   */\n  0x00\n    /* \"#utility.yul\":5089:5094   */\n  dup2\n    /* \"#utility.yul\":5083:5095   */\n  mload\n    /* \"#utility.yul\":5073:5095   */\n  swap1\n  pop\n    /* \"#utility.yul\":5003:5102   */\n  swap2\n  swap1\n  pop\n  jump\t// out\n    /* \"#utility.yul\":5108:5288   */\ntag_47:\n    /* \"#utility.yul\":5156:5233   */\n  0x4e487b7100000000000000000000000000000000000000000000000000000000\n    /* \"#utility.yul\":5153:5154   */\n  0x00\n    /* \"#utility.yul\":5146:5234   */\n  mstore\n    /* \"#utility.yul\":5253:5257   */\n  0x22\n    /* \"#utility.yul\":5250:5251   */\n  0x04\n    /* \"#utility.yul\":5243:5258   */\n  mstore\n    /* \"#utility.yul\":5277:5281   */\n  0x24\n    /* \"#utility.yul\":5274:5275   */\n  0x00\n    /* \"#utility.yul\":5267:5282   */\n  revert\n    /* \"#utility.yul\":5294:5614   */\ntag_48:\n    /* \"#utility.yul\":5338:5344   */\n  0x00\n    /* \"#utility.yul\":5375:5376   */\n  0x02\n    /* \"#utility.yul\":5369:5373   */\n  dup3\n    /* \"#utility.yul\":5365:5377   */\n  div\n    /* \"#utility.yul\":5355:5377   */\n  swap1\n  pop\n    /* \"#utility.yul\":5422:5423   */\n  0x01\n    /* \"#utility.yul\":5416:5420   */\n  dup3\n    /* \"#utility.yul\":5412:5424   */\n  and\n    /* \"#utility.yul\":5443:5461   */\n  dup1\n    /* \"#utility.yul\":5433:5514   */\n  tag_135\n  jumpi\n    /* \"#utility.yul\":5499:5503   */\n  0x7f\n    /* \"#utility.yul\":5491:5497   */\n  dup3\n    /* \"#utility.yul\":5487:5504   */\n  and\n    /* \"#utility.yul\":5477:5504   */\n  swap2\n  pop\n    /* \"#utility.yul\":5433:5514   */\ntag_135:\n    /* \"#utility.yul\":5561:5563   */\n  0x20\n    /* \"#utility.yul\":5553:5559   */\n  dup3\n    /* \"#utility.yul\":5550:5564   */\n  lt\n    /* \"#utility.yul\":5530:5548   */\n  dup2\n    /* \"#utility.yul\":5527:5565   */\n  sub\n    /* \"#utility.yul\":5524:5608   */\n  tag_136\n  jumpi\n    /* \"#utility.yul\":5580:5598   */\n  tag_137\n  tag_47\n  jump\t// in\ntag_137:\n    /* \"#utility.yul\":5524:5608   */\ntag_136:\n    /* \"#utility.yul\":5345:5614   */\n  pop\n    /* \"#utility.yul\":5294:5614   */\n  swap2\n  swap1\n  pop\n  jump\t// out\n    /* \"#utility.yul\":5620:5761   */\ntag_49:\n    /* \"#utility.yul\":5669:5673   */\n  0x00\n    /* \"#utility.yul\":5692:5695   */\n  dup2\n    /* \"#utility.yul\":5684:5695   */\n  swap1\n  pop\n    /* \"#utility.yul\":5715:5718   */\n  dup2\n    /* \"#utility.yul\":5712:5713   */\n  0x00\n    /* \"#utility.yul\":5705:5719   */\n  mstore\n    /* \"#utility.yul\":5749:5753   */\n  0x20\n    /* \"#utility.yul\":5746:5747   */\n  0x00\n    /* \"#utility.yul\":5736:5754   */\n  keccak256\n    /* \"#utility.yul\":5728:5754   */\n  swap1\n  pop\n    /* \"#utility.yul\":5620:5761   */\n  swap2\n  swap1\n  pop\n  jump\t// out\n    /* \"#utility.yul\":5767:5860   */\ntag_50:\n    /* \"#utility.yul\":5804:5810   */\n  0x00\n    /* \"#utility.yul\":5851:5853   */\n  0x20\n    /* \"#utility.yul\":5846:5848   */\n  0x1f\n    /* \"#utility.yul\":5839:5844   */\n  dup4\n    /* \"#utility.yul\":5835:5849   */\n  add\n    /* \"#utility.yul\":5831:5854   */\n  div\n    /* \"#utility.yul\":5821:5854   */\n  swap1\n  pop\n    /* \"#utility.yul\":5767:5860   */\n  swap2\n  swap1\n  pop\n  jump\t// out\n    /* \"#utility.yul\":5866:5973   */\ntag_51:\n    /* \"#utility.yul\":5910:5918   */\n  0x00\n    /* \"#utility.yul\":5960:5965   */\n  dup3\n    /* \"#utility.yul\":5954:5958   */\n  dup3\n    /* \"#utility.yul\":5950:5966   */\n  shl\n    /* \"#utility.yul\":5929:5966   */\n  swap1\n  pop\n    /* \"#utility.yul\":5866:5973   */\n  swap3\n  swap2\n  pop\n  pop\n  jump\t// out\n    /* \"#utility.yul\":5979:6372   */\ntag_52:\n    /* \"#utility.yul\":6048:6054   */\n  0x00\n    /* \"#utility.yul\":6098:6099   */\n  0x08\n    /* \"#utility.yul\":6086:6096   */\n  dup4\n    /* \"#utility.yul\":6082:6100   */\n  mul\n    /* \"#utility.yul\":6121:6218   */\n  tag_142\n    /* \"#utility.yul\":6151:6217   */\n  0xffffffffffffffffffffffffffffffffffffffffffffffffffffffffffffffff\n    /* \"#utility.yul\":6140:6149   */\n  dup3\n    /* \"#utility.yul\":6121:6218   */\n  tag_51\n  jump\t// in\ntag_142:\n    /* \"#utility.yul\":6239:6278   */\n  tag_143\n    /* \"#utility.yul\":6269:6277   */\n  dup7\n    /* \"#utility.yul\":6258:6267   */\n  dup4\n    /* \"#utility.yul\":6239:6278   */\n  tag_51\n  jump\t// in\ntag_143:\n    /* \"#utility.yul\":6227:6278   */\n  swap6\n  pop\n    /* \"#utility.yul\":6311:6315   */\n  dup1\n    /* \"#utility.yul\":6307:6316   */\n  not\n    /* \"#utility.yul\":6300:6305   */\n  dup5\n    /* \"#utility.yul\":6296:6317   */\n  and\n    /* \"#utility.yul\":6287:6317   */\n  swap4\n  pop\n    /* \"#utility.yul\":6360:6364   */\n  dup1\n    /* \"#utility.yul\":6350:6358   */\n  dup7\n    /* \"#utility.yul\":6346:6365   */\n  and\n    /* \"#utility.yul\":6339:6344   */\n  dup5\n    /* \"#utility.yul\":6336:6366   */\n  or\n    /* \"#utility.yul\":6326:6366   */\n  swap3\n  pop\n    /* \"#utility.yul\":6055:6372   */\n  pop\n  pop\n    /* \"#utility.yul\":5979:6372   */\n  swap4\n  swap3\n  pop\n  pop\n  pop\n  jump\t// out\n    /* \"#utility.yul\":6378:6455   */\ntag_53:\n    /* \"#utility.yul\":6415:6422   */\n  0x00\n    /* \"#utility.yul\":6444:6449   */\n  dup2\n    /* \"#utility.yul\":6433:6449   */\n  swap1\n  pop\n    /* \"#utility.yul\":6378:6455   */\n  swap2\n  swap1\n  pop\n  jump\t// out\n    /* \"#utility.yul\":6461:6521   */\ntag_54:\n    /* \"#utility.yul\":6489:6492   */\n  0x00\n    /* \"#utility.yul\":6510:6515   */\n  dup2\n    /* \"#utility.yul\":6503:6515   */\n  swap1\n  pop\n    /* \"#utility.yul\":6461:6521   */\n  swap2\n  swap1\n  pop\n  jump\t// out\n    /* \"#utility.yul\":6527:6669   */\ntag_55:\n    /* \"#utility.yul\":6577:6586   */\n  0x00\n    /* \"#utility.yul\":6610:6663   */\n  tag_147\n    /* \"#utility.yul\":6628:6662   */\n  tag_148\n    /* \"#utility.yul\":6637:6661   */\n  tag_149\n    /* \"#utility.yul\":6655:6660   */\n  dup5\n    /* \"#utility.yul\":6637:6661   */\n  tag_53\n  jump\t// in\ntag_149:\n    /* \"#utility.yul\":6628:6662   */\n  tag_54\n  jump\t// in\ntag_148:\n    /* \"#utility.yul\":6610:6663   */\n  tag_53\n  jump\t// in\ntag_147:\n    /* \"#utility.yul\":6597:6663   */\n  swap1\n  pop\n    /* \"#utility.yul\":6527:6669   */\n  swap2\n  swap1\n  pop\n  jump\t// out\n    /* \"#utility.yul\":6675:6750   */\ntag_56:\n    /* \"#utility.yul\":6718:6721   */\n  0x00\n    /* \"#utility.yul\":6739:6744   */\n  dup2\n    /* \"#utility.yul\":6732:6744   */\n  swap1\n  pop\n    /* \"#utility.yul\":6675:6750   */\n  swap2\n  swap1\n  pop\n  jump\t// out\n    /* \"#utility.yul\":6756:7025   */\ntag_57:\n    /* \"#utility.yul\":6866:6905   */\n  tag_152\n    /* \"#utility.yul\":6897:6904   */\n  dup4\n    /* \"#utility.yul\":6866:6905   */\n  tag_55\n  jump\t// in\ntag_152:\n    /* \"#utility.yul\":6927:7018   */\n  tag_153\n    /* \"#utility.yul\":6976:7017   */\n  tag_154\n    /* \"#utility.yul\":7000:7016   */\n  dup3\n    /* \"#utility.yul\":6976:7017   */\n  tag_56\n  jump\t// in\ntag_154:\n    /* \"#utility.yul\":6968:6974   */\n  dup5\n    /* \"#utility.yul\":6961:6965   */\n  dup5\n    /* \"#utility.yul\":6955:6966   */\n  sload\n    /* \"#utility.yul\":6927:7018   */\n  tag_52\n  jump\t// in\ntag_153:\n    /* \"#utility.yul\":6921:6925   */\n  dup3\n    /* \"#utility.yul\":6914:7019   */\n  sstore\n    /* \"#utility.yul\":6832:7025   */\n  pop\n    /* \"#utility.yul\":6756:7025   */\n  pop\n  pop\n  pop\n  jump\t// out\n    /* \"#utility.yul\":7031:7104   */\ntag_58:\n    /* \"#utility.yul\":7076:7079   */\n  0x00\n    /* \"#utility.yul\":7097:7098   */\n  0x00\n    /* \"#utility.yul\":7090:7098   */\n  swap1\n  pop\n    /* \"#utility.yul\":7031:7104   */\n  swap1\n  jump\t// out\n    /* \"#utility.yul\":7110:7299   */\ntag_59:\n    /* \"#utility.yul\":7187:7219   */\n  tag_157\n  tag_58\n  jump\t// in\ntag_157:\n    /* \"#utility.yul\":7228:7293   */\n  tag_158\n    /* \"#utility.yul\":7286:7292   */\n  dup2\n    /* \"#utility.yul\":7278:7284   */\n  dup5\n    /* \"#utility.yul\":7272:7276   */\n  dup5\n    /* \"#utility.yul\":7228:7293   */\n  tag_57\n  jump\t// in\ntag_158:\n    /* \"#utility.yul\":7163:7299   */\n  pop\n    /* \"#utility.yul\":7110:7299   */\n  pop\n  pop\n  jump\t// out\n    /* \"#utility.yul\":7305:7491   */\ntag_60:\n    /* \"#utility.yul\":7365:7485   */\ntag_160:\n    /* \"#utility.yul\":7382:7385   */\n  dup2\n    /* \"#utility.yul\":7375:7380   */\n  dup2\n    /* \"#utility.yul\":7372:7386   */\n  lt\n    /* \"#utility.yul\":7365:7485   */\n  iszero\n  tag_162\n  jumpi\n    /* \"#utility.yul\":7436:7475   */\n  tag_163\n    /* \"#utility.yul\":7473:7474   */\n  0x00\n    /* \"#utility.yul\":7466:7471   */\n  dup3\n    /* \"#utility.yul\":7436:7475   */\n  tag_59\n  jump\t// in\ntag_163:\n    /* \"#utility.yul\":7409:7410   */\n  0x01\n    /* \"#utility.yul\":7402:7407   */\n  dup2\n    /* \"#utility.yul\":7398:7411   */\n  add\n    /* \"#utility.yul\":7389:7411   */\n  swap1\n  pop\n    /* \"#utility.yul\":7365:7485   */\n  jump(tag_160)\ntag_162:\n    /* \"#utility.yul\":7305:7491   */\n  pop\n  pop\n  jump\t// out\n    /* \"#utility.yul\":7497:8040   */\ntag_61:\n    /* \"#utility.yul\":7598:7600   */\n  0x1f\n    /* \"#utility.yul\":7593:7596   */\n  dup3\n    /* \"#utility.yul\":7590:7601   */\n  gt\n    /* \"#utility.yul\":7587:8033   */\n  iszero\n  tag_165\n  jumpi\n    /* \"#utility.yul\":7632:7670   */\n  tag_166\n    /* \"#utility.yul\":7664:7669   */\n  dup2\n    /* \"#utility.yul\":7632:7670   */\n  tag_49\n  jump\t// in\ntag_166:\n    /* \"#utility.yul\":7716:7745   */\n  tag_167\n    /* \"#utility.yul\":7734:7744   */\n  dup5\n    /* \"#utility.yul\":7716:7745   */\n  tag_50\n  jump\t// in\ntag_167:\n    /* \"#utility.yul\":7706:7714   */\n  dup2\n    /* \"#utility.yul\":7702:7746   */\n  add\n    /* \"#utility.yul\":7899:7901   */\n  0x20\n    /* \"#utility.yul\":7887:7897   */\n  dup6\n    /* \"#utility.yul\":7884:7902   */\n  lt\n    /* \"#utility.yul\":7881:7930   */\n  iszero\n  tag_168\n  jumpi\n    /* \"#utility.yul\":7920:7928   */\n  dup2\n    /* \"#utility.yul\":7905:7928   */\n  swap1\n  pop\n    /* \"#utility.yul\":7881:7930   */\ntag_168:\n    /* \"#utility.yul\":7943:8023   */\n  tag_169\n    /* \"#utility.yul\":7999:8021   */\n  tag_170\n    /* \"#utility.yul\":8017:8020   */\n  dup6\n    /* \"#utility.yul\":7999:8021   */\n  tag_50\n  jump\t// in\ntag_170:\n    /* \"#utility.yul\":7989:7997   */\n  dup4\n    /* \"#utility.yul\":7985:8022   */\n  add\n    /* \"#utility.yul\":7972:7983   */\n  dup3\n    /* \"#utility.yul\":7943:8023   */\n  tag_60\n  jump\t// in\ntag_169:\n    /* \"#utility.yul\":7602:8033   */\n  pop\n  pop\n    /* \"#utility.yul\":7587:8033   */\ntag_165:\n    /* \"#utility.yul\":7497:8040   */\n  pop\n  pop\n  pop\n  jump\t// out\n    /* \"#utility.yul\":8046:8163   */\ntag_62:\n    /* \"#utility.yul\":8100:8108   */\n  0x00\n    /* \"#utility.yul\":8150:8155   */\n  dup3\n    /* \"#utility.yul\":8144:8148   */\n  dup3\n    /* \"#utility.yul\":8140:8156   */\n  shr\n    /* \"#utility.yul\":8119:8156   */\n  swap1\n  pop\n    /* \"#utility.yul\":8046:8163   */\n  swap3\n  swap2\n  pop\n  pop\n  jump\t// out\n    /* \"#utility.yul\":8169:8338   */\ntag_63:\n    /* \"#utility.yul\":8213:8219   */\n  0x00\n    /* \"#utility.yul\":8246:8297   */\n  tag_173\n    /* \"#utility.yul\":8294:8295   */\n  0x00\n    /* \"#utility.yul\":8290:8296   */\n  not\n    /* \"#utility.yul\":8282:8287   */\n  dup5\n    /* \"#utility.yul\":8279:8280   */\n  0x08\n    /* \"#utility.yul\":8275:8288   */\n  mul\n    /* \"#utility.yul\":8246:8297   */\n  tag_62\n  jump\t// in\ntag_173:\n    /* \"#utility.yul\":8242:8298   */\n  not\n    /* \"#utility.yul\":8327:8331   */\n  dup1\n    /* \"#utility.yul\":8321:8325   */\n  dup4\n    /* \"#utility.yul\":8317:8332   */\n  and\n    /* \"#utility.yul\":8307:8332   */\n  swap2\n  pop\n    /* \"#utility.yul\":8220:8338   */\n  pop\n    /* \"#utility.yul\":8169:8338   */\n  swap3\n  swap2\n  pop\n  pop\n  jump\t// out\n    /* \"#utility.yul\":8343:8638   */\ntag_64:\n    /* \"#utility.yul\":8419:8423   */\n  0x00\n    /* \"#utility.yul\":8565:8594   */\n  tag_175\n    /* \"#utility.yul\":8590:8593   */\n  dup4\n    /* \"#utility.yul\":8584:8588   */\n  dup4\n    /* \"#utility.yul\":8565:8594   */\n  tag_63\n  jump\t// in\ntag_175:\n    /* \"#utility.yul\":8557:8594   */\n  swap2\n  pop\n    /* \"#utility.yul\":8627:8630   */\n  dup3\n    /* \"#utility.yul\":8624:8625   */\n  0x02\n    /* \"#utility.yul\":8620:8631   */\n  mul\n    /* \"#utility.yul\":8614:8618   */\n  dup3\n    /* \"#utility.yul\":8611:8632   */\n  or\n    /* \"#utility.yul\":8603:8632   */\n  swap1\n  pop\n    /* \"#utility.yul\":8343:8638   */\n  swap3\n  swap2\n  pop\n  pop\n  jump\t// out\n    /* \"#utility.yul\":8643:10038   */\ntag_13:\n    /* \"#utility.yul\":8760:8797   */\n  tag_177\n    /* \"#utility.yul\":8793:8796   */\n  dup3\n    /* \"#utility.yul\":8760:8797   */\n  tag_46\n  jump\t// in\ntag_177:\n    /* \"#utility.yul\":8862:8880   */\n  0xffffffffffffffff\n    /* \"#utility.yul\":8854:8860   */\n  dup2\n    /* \"#utility.yul\":8851:8881   */\n  gt\n    /* \"#utility.yul\":8848:8904   */\n  iszero\n  tag_178\n  jumpi\n    /* \"#utility.yul\":8884:8902   */\n  tag_179\n  tag_36\n  jump\t// in\ntag_179:\n    /* \"#utility.yul\":8848:8904   */\ntag_178:\n    /* \"#utility.yul\":8928:8966   */\n  tag_180\n    /* \"#utility.yul\":8960:8964   */\n  dup3\n    /* \"#utility.yul\":8954:8965   */\n  sload\n    /* \"#utility.yul\":8928:8966   */\n  tag_48\n  jump\t// in\ntag_180:\n    /* \"#utility.yul\":9013:9080   */\n  tag_181\n    /* \"#utility.yul\":9073:9079   */\n  dup3\n    /* \"#utility.yul\":9065:9071   */\n  dup3\n    /* \"#utility.yul\":9059:9063   */\n  dup6\n    /* \"#utility.yul\":9013:9080   */\n  tag_61\n  jump\t// in\ntag_181:\n    /* \"#utility.yul\":9107:9108   */\n  0x00\n    /* \"#utility.yul\":9131:9135   */\n  0x20\n    /* \"#utility.yul\":9118:9135   */\n  swap1\n  pop\n    /* \"#utility.yul\":9163:9165   */\n  0x1f\n    /* \"#utility.yul\":9155:9161   */\n  dup4\n    /* \"#utility.yul\":9152:9166   */\n  gt\n    /* \"#utility.yul\":9180:9181   */\n  0x01\n    /* \"#utility.yul\":9175:9793   */\n  dup2\n  eq\n  tag_183\n  jumpi\n    /* \"#utility.yul\":9837:9838   */\n  0x00\n    /* \"#utility.yul\":9854:9860   */\n  dup5\n    /* \"#utility.yul\":9851:9928   */\n  iszero\n  tag_184\n  jumpi\n    /* \"#utility.yul\":9903:9912   */\n  dup3\n    /* \"#utility.yul\":9898:9901   */\n  dup8\n    /* \"#utility.yul\":9894:9913   */\n  add\n    /* \"#utility.yul\":9888:9914   */\n  mload\n    /* \"#utility.yul\":9879:9914   */\n  swap1\n  pop\n    /* \"#utility.yul\":9851:9928   */\ntag_184:\n    /* \"#utility.yul\":9954:10021   */\n  tag_185\n    /* \"#utility.yul\":10014:10020   */\n  dup6\n    /* \"#utility.yul\":10007:10012   */\n  dup3\n    /* \"#utility.yul\":9954:10021   */\n  tag_64\n  jump\t// in\ntag_185:\n    /* \"#utility.yul\":9948:9952   */\n  dup7\n    /* \"#utility.yul\":9941:10022   */\n  sstore\n    /* \"#utility.yul\":9810:10032   */\n  pop\n    /* \"#utility.yul\":9145:10032   */\n  jump(tag_182)\n    /* \"#utility.yul\":9175:9793   */\ntag_183:\n    /* \"#utility.yul\":9227:9231   */\n  0x1f\n    /* \"#utility.yul\":9223:9232   */\n  not\n    /* \"#utility.yul\":9215:9221   */\n  dup5\n    /* \"#utility.yul\":9211:9233   */\n  and\n    /* \"#utility.yul\":9261:9298   */\n  tag_186\n    /* \"#utility.yul\":9293:9297   */\n  dup7\n    /* \"#utility.yul\":9261:9298   */\n  tag_49\n  jump\t// in\ntag_186:\n    /* \"#utility.yul\":9320:9321   */\n  0x00\n    /* \"#utility.yul\":9334:9542   */\ntag_187:\n    /* \"#utility.yul\":9348:9355   */\n  dup3\n    /* \"#utility.yul\":9345:9346   */\n  dup2\n    /* \"#utility.yul\":9342:9356   */\n  lt\n    /* \"#utility.yul\":9334:9542   */\n  iszero\n  tag_189\n  jumpi\n    /* \"#utility.yul\":9427:9436   */\n  dup5\n    /* \"#utility.yul\":9422:9425   */\n  dup10\n    /* \"#utility.yul\":9418:9437   */\n  add\n    /* \"#utility.yul\":9412:9438   */\n  mload\n    /* \"#utility.yul\":9404:9410   */\n  dup3\n    /* \"#utility.yul\":9397:9439   */\n  sstore\n    /* \"#utility.yul\":9478:9479   */\n  0x01\n    /* \"#utility.yul\":9470:9476   */\n  dup3\n    /* \"#utility.yul\":9466:9480   */\n  add\n    /* \"#utility.yul\":9456:9480   */\n  swap2\n  pop\n    /* \"#utility.yul\":9525:9527   */\n  0x20\n    /* \"#utility.yul\":9514:9523   */\n  dup6\n    /* \"#utility.yul\":9510:9528   */\n  add\n    /* \"#utility.yul\":9497:9528   */\n  swap5\n  pop\n    /* \"#utility.yul\":9371:9375   */\n  0x20\n    /* \"#utility.yul\":9368:9369   */\n  dup2\n    /* \"#utility.yul\":9364:9376   */\n  add\n    /* \"#utility.yul\":9359:9376   */\n  swap1\n  pop\n    /* \"#utility.yul\":9334:9542   */\n  jump(tag_187)\ntag_189:\n    /* \"#utility.yul\":9570:9576   */\n  dup7\n    /* \"#utility.yul\":9561:9568   */\n  dup4\n    /* \"#utility.yul\":9558:9577   */\n  lt\n    /* \"#utility.yul\":9555:9734   */\n  iszero\n  tag_190\n  jumpi\n    /* \"#utility.yul\":9628:9637   */\n  dup5\n    /* \"#utility.yul\":9623:9626   */\n  dup10\n    /* \"#utility.yul\":9619:9638   */\n  add\n    /* \"#utility.yul\":9613:9639   */\n  mload\n    /* \"#utility.yul\":9671:9719   */\n  tag_191\n    /* \"#utility.yul\":9713:9717   */\n  0x1f\n    /* \"#utility.yul\":9705:9711   */\n  dup10\n    /* \"#utility.yul\":9701:9718   */\n  and\n    /* \"#utility.yul\":9690:9699   */\n  dup3\n    /* \"#utility.yul\":9671:9719   */\n  tag_63\n  jump\t// in\ntag_191:\n    /* \"#utility.yul\":9663:9669   */\n  dup4\n    /* \"#utility.yul\":9656:9720   */\n  sstore\n    /* \"#utility.yul\":9578:9734   */\n  pop\n    /* \"#utility.yul\":9555:9734   */\ntag_190:\n    /* \"#utility.yul\":9780:9781   */\n  0x01\n    /* \"#utility.yul\":9776:9777   */\n  0x02\n    /* \"#utility.yul\":9768:9774   */\n  dup9\n    /* \"#utility.yul\":9764:9778   */\n  mul\n    /* \"#utility.yul\":9760:9782   */\n  add\n    /* \"#utility.yul\":9754:9758   */\n  dup9\n    /* \"#utility.yul\":9747:9783   */\n  sstore\n    /* \"#utility.yul\":9182:9793   */\n  pop\n  pop\n  pop\n    /* \"#utility.yul\":9145:10032   */\ntag_182:\n  pop\n    /* \"#utility.yul\":8735:10038   */\n  pop\n  pop\n  pop\n    /* \"#utility.yul\":8643:10038   */\n  pop\n  pop\n  jump\t// out\n    /* \"#utility.yul\":10044:10191   */\ntag_65:\n    /* \"#utility.yul\":10145:10156   */\n  0x00\n    /* \"#utility.yul\":10182:10185   */\n  dup2\n    /* \"#utility.yul\":10167:10185   */\n  swap1\n  pop\n    /* \"#utility.yul\":10044:10191   */\n  swap3\n  swap2\n  pop\n  pop\n  jump\t// out\n    /* \"#utility.yul\":10197:10341   */\ntag_66:\n    /* \"#utility.yul\":10249:10253   */\n  0x00\n    /* \"#utility.yul\":10272:10275   */\n  dup2\n    /* \"#utility.yul\":10264:10275   */\n  swap1\n  pop\n    /* \"#utility.yul\":10295:10298   */\n  dup2\n    /* \"#utility.yul\":10292:10293   */\n  0x00\n    /* \"#utility.yul\":10285:10299   */\n  mstore\n    /* \"#utility.yul\":10329:10333   */\n  0x20\n    /* \"#utility.yul\":10326:10327   */\n  0x00\n    /* \"#utility.yul\":10316:10334   */\n  keccak256\n    /* \"#utility.yul\":10308:10334   */\n  swap1\n  pop\n    /* \"#utility.yul\":10197:10341   */\n  swap2\n  swap1\n  pop\n  jump\t// out\n    /* \"#utility.yul\":10369:11247   */\ntag_67:\n    /* \"#utility.yul\":10474:10477   */\n  0x00\n    /* \"#utility.yul\":10511:10516   */\n  dup2\n    /* \"#utility.yul\":10505:10517   */\n  sload\n    /* \"#utility.yul\":10540:10576   */\n  tag_195\n    /* \"#utility.yul\":10566:10575   */\n  dup2\n    /* \"#utility.yul\":10540:10576   */\n  tag_48\n  jump\t// in\ntag_195:\n    /* \"#utility.yul\":10592:10680   */\n  tag_196\n    /* \"#utility.yul\":10673:10679   */\n  dup2\n    /* \"#utility.yul\":10668:10671   */\n  dup7\n    /* \"#utility.yul\":10592:10680   */\n  tag_65\n  jump\t// in\ntag_196:\n    /* \"#utility.yul\":10585:10680   */\n  swap5\n  pop\n    /* \"#utility.yul\":10711:10712   */\n  0x01\n    /* \"#utility.yul\":10700:10709   */\n  dup3\n    /* \"#utility.yul\":10696:10713   */\n  and\n    /* \"#utility.yul\":10727:10728   */\n  0x00\n    /* \"#utility.yul\":10722:10888   */\n  dup2\n  eq\n  tag_198\n  jumpi\n    /* \"#utility.yul\":10902:10903   */\n  0x01\n    /* \"#utility.yul\":10897:11241   */\n  dup2\n  eq\n  tag_199\n  jumpi\n    /* \"#utility.yul\":10689:11241   */\n  jump(tag_197)\n    /* \"#utility.yul\":10722:10888   */\ntag_198:\n    /* \"#utility.yul\":10806:10810   */\n  0xff\n    /* \"#utility.yul\":10802:10811   */\n  not\n    /* \"#utility.yul\":10791:10800   */\n  dup4\n    /* \"#utility.yul\":10787:10812   */\n  and\n    /* \"#utility.yul\":10782:10785   */\n  dup7\n    /* \"#utility.yul\":10775:10813   */\n  mstore\n    /* \"#utility.yul\":10868:10874   */\n  dup2\n    /* \"#utility.yul\":10861:10875   */\n  iszero\n    /* \"#utility.yul\":10854:10876   */\n  iszero\n    /* \"#utility.yul\":10846:10852   */\n  dup3\n    /* \"#utility.yul\":10842:10877   */\n  mul\n    /* \"#utility.yul\":10837:10840   */\n  dup7\n    /* \"#utility.yul\":10833:10878   */\n  add\n    /* \"#utility.yul\":10826:10878   */\n  swap4\n  pop\n    /* \"#utility.yul\":10722:10888   */\n  jump(tag_197)\n    /* \"#utility.yul\":10897:11241   */\ntag_199:\n    /* \"#utility.yul\":10964:11005   */\n  tag_200\n    /* \"#utility.yul\":10999:11004   */\n  dup6\n    /* \"#utility.yul\":10964:11005   */\n  tag_66\n  jump\t// in\ntag_200:\n    /* \"#utility.yul\":11027:11028   */\n  0x00\n    /* \"#utility.yul\":11041:11195   */\ntag_201:\n    /* \"#utility.yul\":11055:11061   */\n  dup4\n    /* \"#utility.yul\":11052:11053   */\n  dup2\n    /* \"#utility.yul\":11049:11062   */\n  lt\n    /* \"#utility.yul\":11041:11195   */\n  iszero\n  tag_203\n  jumpi\n    /* \"#utility.yul\":11129:11136   */\n  dup2\n    /* \"#utility.yul\":11123:11137   */\n  sload\n    /* \"#utility.yul\":11119:11120   */\n  dup2\n    /* \"#utility.yul\":11114:11117   */\n  dup10\n    /* \"#utility.yul\":11110:11121   */\n  add\n    /* \"#utility.yul\":11103:11138   */\n  mstore\n    /* \"#utility.yul\":11179:11180   */\n  0x01\n    /* \"#utility.yul\":11170:11177   */\n  dup3\n    /* \"#utility.yul\":11166:11181   */\n  add\n    /* \"#utility.yul\":11155:11181   */\n  swap2\n  pop\n    /* \"#utility.yul\":11077:11081   */\n  0x20\n    /* \"#utility.yul\":11074:11075   */\n  dup2\n    /* \"#utility.yul\":11070:11082   */\n  add\n    /* \"#utility.yul\":11065:11082   */\n  swap1\n  pop\n    /* \"#utility.yul\":11041:11195   */\n  jump(tag_201)\ntag_203:\n    /* \"#utility.yul\":11224:11230   */\n  dup4\n    /* \"#utility.yul\":11219:11222   */\n  dup9\n    /* \"#utility.yul\":11215:11231   */\n  add\n    /* \"#utility.yul\":11208:11231   */\n  swap6\n  pop\n    /* \"#utility.yul\":10904:11241   */\n  pop\n  pop\n    /* \"#utility.yul\":10689:11241   */\ntag_197:\n  pop\n    /* \"#utility.yul\":10478:11247   */\n  pop\n  pop\n    /* \"#utility.yul\":10369:11247   */\n  swap3\n  swap2\n  pop\n  pop\n  jump\t// out\n    /* \"#utility.yul\":11253:11526   */\ntag_22:\n    /* \"#utility.yul\":11384:11387   */\n  0x00\n    /* \"#utility.yul\":11406:11500   */\n  tag_205\n    /* \"#utility.yul\":11496:11499   */\n  dup3\n    /* \"#utility.yul\":11487:11493   */\n  dup5\n    /* \"#utility.yul\":11406:11500   */\n  tag_67\n  jump\t// in\ntag_205:\n    /* \"#utility.yul\":11399:11500   */\n  swap2\n  pop\n    /* \"#utility.yul\":11517:11520   */\n  dup2\n    /* \"#utility.yul\":11510:11520   */\n  swap1\n  pop\n    /* \"#utility.yul\":11253:11526   */\n  swap3\n  swap2\n  pop\n  pop\n  jump\t// out\n    /* \"#utility.yul\":11532:11609   */\ntag_68:\n    /* \"#utility.yul\":11569:11576   */\n  0x00\n    /* \"#utility.yul\":11598:11603   */\n  dup2\n    /* \"#utility.yul\":11587:11603   */\n  swap1\n  pop\n    /* \"#utility.yul\":11532:11609   */\n  swap2\n  swap1\n  pop\n  jump\t// out\n    /* \"#utility.yul\":11615:11733   */\ntag_69:\n    /* \"#utility.yul\":11702:11726   */\n  tag_208\n    /* \"#utility.yul\":11720:11725   */\n  dup2\n    /* \"#utility.yul\":11702:11726   */\n  tag_68\n  jump\t// in\ntag_208:\n    /* \"#utility.yul\":11697:11700   */\n  dup3\n    /* \"#utility.yul\":11690:11727   */\n  mstore\n    /* \"#utility.yul\":11615:11733   */\n  pop\n  pop\n  jump\t// out\n    /* \"#utility.yul\":11739:11857   */\ntag_70:\n    /* \"#utility.yul\":11826:11850   */\n  tag_210\n    /* \"#utility.yul\":11844:11849   */\n  dup2\n    /* \"#utility.yul\":11826:11850   */\n  tag_53\n  jump\t// in\ntag_210:\n    /* \"#utility.yul\":11821:11824   */\n  dup3\n    /* \"#utility.yul\":11814:11851   */\n  mstore\n    /* \"#utility.yul\":11739:11857   */\n  pop\n  pop\n  jump\t// out\n    /* \"#utility.yul\":11863:11981   */\ntag_71:\n    /* \"#utility.yul\":11950:11974   */\n  tag_212\n    /* \"#utility.yul\":11968:11973   */\n  dup2\n    /* \"#utility.yul\":11950:11974   */\n  tag_29\n  jump\t// in\ntag_212:\n    /* \"#utility.yul\":11945:11948   */\n  dup3\n    /* \"#utility.yul\":11938:11975   */\n  mstore\n    /* \"#utility.yul\":11863:11981   */\n  pop\n  pop\n  jump\t// out\n    /* \"#utility.yul\":11987:12651   */\ntag_24:\n    /* \"#utility.yul\":12192:12196   */\n  0x00\n    /* \"#utility.yul\":12230:12233   */\n  0xa0\n    /* \"#utility.yul\":12219:12228   */\n  dup3\n    /* \"#utility.yul\":12215:12234   */\n  add\n    /* \"#utility.yul\":12207:12234   */\n  swap1\n  pop\n    /* \"#utility.yul\":12244:12315   */\n  tag_214\n    /* \"#utility.yul\":12312:12313   */\n  0x00\n    /* \"#utility.yul\":12301:12310   */\n  dup4\n    /* \"#utility.yul\":12297:12314   */\n  add\n    /* \"#utility.yul\":12288:12294   */\n  dup9\n    /* \"#utility.yul\":12244:12315   */\n  tag_69\n  jump\t// in\ntag_214:\n    /* \"#utility.yul\":12325:12397   */\n  tag_215\n    /* \"#utility.yul\":12393:12395   */\n  0x20\n    /* \"#utility.yul\":12382:12391   */\n  dup4\n    /* \"#utility.yul\":12378:12396   */\n  add\n    /* \"#utility.yul\":12369:12375   */\n  dup8\n    /* \"#utility.yul\":12325:12397   */\n  tag_69\n  jump\t// in\ntag_215:\n    /* \"#utility.yul\":12407:12479   */\n  tag_216\n    /* \"#utility.yul\":12475:12477   */\n  0x40\n    /* \"#utility.yul\":12464:12473   */\n  dup4\n    /* \"#utility.yul\":12460:12478   */\n  add\n    /* \"#utility.yul\":12451:12457   */\n  dup7\n    /* \"#utility.yul\":12407:12479   */\n  tag_69\n  jump\t// in\ntag_216:\n    /* \"#utility.yul\":12489:12561   */\n  tag_217\n    /* \"#utility.yul\":12557:12559   */\n  0x60\n    /* \"#utility.yul\":12546:12555   */\n  dup4\n    /* \"#utility.yul\":12542:12560   */\n  add\n    /* \"#utility.yul\":12533:12539   */\n  dup6\n    /* \"#utility.yul\":12489:12561   */\n  tag_70\n  jump\t// in\ntag_217:\n    /* \"#utility.yul\":12571:12644   */\n  tag_218\n    /* \"#utility.yul\":12639:12642   */\n  0x80\n    /* \"#utility.yul\":12628:12637   */\n  dup4\n    /* \"#utility.yul\":12624:12643   */\n  add\n    /* \"#utility.yul\":12615:12621   */\n  dup5\n    /* \"#utility.yul\":12571:12644   */\n  tag_71\n  jump\t// in\ntag_218:\n    /* \"#utility.yul\":11987:12651   */\n  swap7\n  swap6\n  pop\n  pop\n  pop\n  pop\n  pop\n  pop\n  jump\t// out\n    /* \"contracts/Vault/TokenVault.sol\":159:431  contract TokenVault is ERC4626 {... */\ntag_19:\n  mload(0x80)\n  mload(0xa0)\n  mload(0xc0)\n  mload(0xe0)\n  codecopy(0x00, dataOffset(sub_0), dataSize(sub_0))\n  0x00\n  assignImmutable(\"0xcce53c114a2b1a6aca1689829ad3f0fe22ece37ee649b7e0d854100cbad0f4f5\")\n  0x00\n  assignImmutable(\"0xdb37925934a3d3177db64e11f5e0156ceb8a756fee58ded16e549afa607ddb1d\")\n  0x00\n  assignImmutable(\"0xeafa31dc210956fc0884ec5660eba9405197797219cbbda41b6aaf7118c651d8\")\n  0x00\n  assignImmutable(\"0xbbd48b257be1b8216d144ef9be5734f8d11697959c9e0f7768bec89db74a63a3\")\n  return(0x00, dataSize(sub_0))\nstop\n\nsub_0: assembly {\n        /* \"contracts/Vault/TokenVault.sol\":159:431  contract TokenVault is ERC4626 {... */\n      mstore(0x40, 0x80)\n      callvalue\n      dup1\n      iszero\n      tag_1\n      jumpi\n      revert(0x00, 0x00)\n    tag_1:\n      pop\n      jumpi(tag_2, lt(calldatasize, 0x04))\n      shr(0xe0, calldataload(0x00))\n      dup1\n      0x7ecebe00\n      gt\n      tag_31\n      jumpi\n      dup1\n      0xc63d75b6\n      gt\n      tag_32\n      jumpi\n      dup1\n      0xd505accf\n      gt\n      tag_33\n      jumpi\n      dup1\n      0xd505accf\n      eq\n      tag_27\n      jumpi\n      dup1\n      0xd905777e\n      eq\n      tag_28\n      jumpi\n      dup1\n      0xdd62ed3e\n      eq\n      tag_29\n      jumpi\n      dup1\n      0xef8b30f7\n      eq\n      tag_30\n      jumpi\n      jump(tag_2)\n    tag_33:\n      dup1\n      0xc63d75b6\n      eq\n      tag_24\n      jumpi\n      dup1\n      0xc6e6f592\n      eq\n      tag_25\n      jumpi\n      dup1\n      0xce96cb77\n      eq\n      tag_26\n      jumpi\n      jump(tag_2)\n    tag_32:\n      dup1\n      0xa9059cbb\n      gt\n      tag_34\n      jumpi\n      dup1\n      0xa9059cbb\n      eq\n      tag_20\n      jumpi\n      dup1\n      0xb3d7f6b9\n      eq\n      tag_21\n      jumpi\n      dup1\n      0xb460af94\n      eq\n      tag_22\n      jumpi\n      dup1\n      0xba087652\n      eq\n      tag_23\n      jumpi\n      jump(tag_2)\n    tag_34:\n      dup1\n      0x7ecebe00\n      eq\n      tag_17\n      jumpi\n      dup1\n      0x94bf804d\n      eq\n      tag_18\n      jumpi\n      dup1\n      0x95d89b41\n      eq\n      tag_19\n      jumpi\n      jump(tag_2)\n    tag_31:\n      dup1\n      0x313ce567\n      gt\n      tag_35\n      jumpi\n      dup1\n      0x402d267d\n      gt\n      tag_36\n      jumpi\n      dup1\n      0x402d267d\n      eq\n      tag_13\n      jumpi\n      dup1\n      0x4cdad506\n      eq\n      tag_14\n      jumpi\n      dup1\n      0x6e553f65\n      eq\n      tag_15\n      jumpi\n      dup1\n      0x70a08231\n      eq\n      tag_16\n      jumpi\n      jump(tag_2)\n    tag_36:\n      dup1\n      0x313ce567\n      eq\n      tag_10\n      jumpi\n      dup1\n      0x3644e515\n      eq\n      tag_11\n      jumpi\n      dup1\n      0x38d52e0f\n      eq\n      tag_12\n      jumpi\n      jump(tag_2)\n    tag_35:\n      dup1\n      0x095ea7b3\n      gt\n      tag_37\n      jumpi\n      dup1\n      0x095ea7b3\n      eq\n      tag_6\n      jumpi\n      dup1\n      0x0a28a477\n      eq\n      tag_7\n      jumpi\n      dup1\n      0x18160ddd\n      eq\n      tag_8\n      jumpi\n      dup1\n      0x23b872dd\n      eq\n      tag_9\n      jumpi\n      jump(tag_2)\n    tag_37:\n      dup1\n      0x01e1d114\n      eq\n      tag_3\n      jumpi\n      dup1\n      0x06fdde03\n      eq\n      tag_4\n      jumpi\n      dup1\n      0x07a2d13a\n      eq\n      tag_5\n      jumpi\n    tag_2:\n      revert(0x00, 0x00)\n        /* \"contracts/Vault/TokenVault.sol\":349:422  function totalAssets() override  public view  returns (uint256){... */\n    tag_3:\n      tag_38\n      tag_39\n      jump\t// in\n    tag_38:\n      mload(0x40)\n      tag_40\n      swap2\n      swap1\n      tag_41\n      jump\t// in\n    tag_40:\n      mload(0x40)\n      dup1\n      swap2\n      sub\n      swap1\n      return\n        /* \"https://github.com/transmissions11/solmate/blob/main/src/tokens/ERC20.sol\":1031:1049  string public name */\n    tag_4:\n      tag_42\n      tag_43\n      jump\t// in\n    tag_42:\n      mload(0x40)\n      tag_44\n      swap2\n      swap1\n      tag_45\n      jump\t// in\n    tag_44:\n      mload(0x40)\n      dup1\n      swap2\n      sub\n      swap1\n      return\n        /* \"https://github.com/transmissions11/solmate/blob/main/src/tokens/ERC4626.sol\":4463:4720  function convertToAssets(uint256 shares) public view virtual returns (uint256) {... */\n    tag_5:\n      tag_46\n      0x04\n      dup1\n      calldatasize\n      sub\n      dup2\n      add\n      swap1\n      tag_47\n      swap2\n      swap1\n      tag_48\n      jump\t// in\n    tag_47:\n      tag_49\n      jump\t// in\n    tag_46:\n      mload(0x40)\n      tag_50\n      swap2\n      swap1\n      tag_41\n      jump\t// in\n    tag_50:\n      mload(0x40)\n      dup1\n      swap2\n      sub\n      swap1\n      return\n        /* \"https://github.com/transmissions11/solmate/blob/main/src/tokens/ERC20.sol\":2461:2672  function approve(address spender, uint256 amount) public virtual returns (bool) {... */\n    tag_6:\n      tag_51\n      0x04\n      dup1\n      calldatasize\n      sub\n      dup2\n      add\n      swap1\n      tag_52\n      swap2\n      swap1\n      tag_53\n      jump\t// in\n    tag_52:\n      tag_54\n      jump\t// in\n    tag_51:\n      mload(0x40)\n      tag_55\n      swap2\n      swap1\n      tag_56\n      jump\t// in\n    tag_55:\n      mload(0x40)\n      dup1\n      swap2\n      sub\n      swap1\n      return\n        /* \"https://github.com/transmissions11/solmate/blob/main/src/tokens/ERC4626.sol\":5114:5369  function previewWithdraw(uint256 assets) public view virtual returns (uint256) {... */\n    tag_7:\n      tag_57\n      0x04\n      dup1\n      calldatasize\n      sub\n      dup2\n      add\n      swap1\n      tag_58\n      swap2\n      swap1\n      tag_48\n      jump\t// in\n    tag_58:\n      tag_59\n      jump\t// in\n    tag_57:\n      mload(0x40)\n      tag_60\n      swap2\n      swap1\n      tag_41\n      jump\t// in\n    tag_60:\n      mload(0x40)\n      dup1\n      swap2\n      sub\n      swap1\n      return\n        /* \"https://github.com/transmissions11/solmate/blob/main/src/tokens/ERC20.sol\":1304:1330  uint256 public totalSupply */\n    tag_8:\n      tag_61\n      tag_62\n      jump\t// in\n    tag_61:\n      mload(0x40)\n      tag_63\n      swap2\n      swap1\n      tag_41\n      jump\t// in\n    tag_63:\n      mload(0x40)\n      dup1\n      swap2\n      sub\n      swap1\n      return\n        /* \"https://github.com/transmissions11/solmate/blob/main/src/tokens/ERC20.sol\":3057:3649  function transferFrom(... */\n    tag_9:\n      tag_64\n      0x04\n      dup1\n      calldatasize\n      sub\n      dup2\n      add\n      swap1\n      tag_65\n      swap2\n      swap1\n      tag_66\n      jump\t// in\n    tag_65:\n      tag_67\n      jump\t// in\n    tag_64:\n      mload(0x40)\n      tag_68\n      swap2\n      swap1\n      tag_56\n      jump\t// in\n    tag_68:\n      mload(0x40)\n      dup1\n      swap2\n      sub\n      swap1\n      return\n        /* \"https://github.com/transmissions11/solmate/blob/main/src/tokens/ERC20.sol\":1083:1114  uint8 public immutable decimals */\n    tag_10:\n      tag_69\n      tag_70\n      jump\t// in\n    tag_69:\n      mload(0x40)\n      tag_71\n      swap2\n      swap1\n      tag_72\n      jump\t// in\n    tag_71:\n      mload(0x40)\n      dup1\n      swap2\n      sub\n      swap1\n      return\n        /* \"https://github.com/transmissions11/solmate/blob/main/src/tokens/ERC20.sol\":5327:5504  function DOMAIN_SEPARATOR() public view virtual returns (bytes32) {... */\n    tag_11:\n      tag_73\n      tag_74\n      jump\t// in\n    tag_73:\n      mload(0x40)\n      tag_75\n      swap2\n      swap1\n      tag_76\n      jump\t// in\n    tag_75:\n      mload(0x40)\n      dup1\n      swap2\n      sub\n      swap1\n      return\n        /* \"https://github.com/transmissions11/solmate/blob/main/src/tokens/ERC4626.sol\":1149:1177  ERC20 public immutable asset */\n    tag_12:\n      tag_77\n      tag_78\n      jump\t// in\n    tag_77:\n      mload(0x40)\n      tag_79\n      swap2\n      swap1\n      tag_80\n      jump\t// in\n    tag_79:\n      mload(0x40)\n      dup1\n      swap2\n      sub\n      swap1\n      return\n        /* \"https://github.com/transmissions11/solmate/blob/main/src/tokens/ERC4626.sol\":5696:5804  function maxDeposit(address) public view virtual returns (uint256) {... */\n    tag_13:\n      tag_81\n      0x04\n      dup1\n      calldatasize\n      sub\n      dup2\n      add\n      swap1\n      tag_82\n      swap2\n      swap1\n      tag_83\n      jump\t// in\n    tag_82:\n      tag_84\n      jump\t// in\n    tag_81:\n      mload(0x40)\n      tag_85\n      swap2\n      swap1\n      tag_41\n      jump\t// in\n    tag_85:\n      mload(0x40)\n      dup1\n      swap2\n      sub\n      swap1\n      return\n        /* \"https://github.com/transmissions11/solmate/blob/main/src/tokens/ERC4626.sol\":5375:5499  function previewRedeem(uint256 shares) public view virtual returns (uint256) {... */\n    tag_14:\n      tag_86\n      0x04\n      dup1\n      calldatasize\n      sub\n      dup2\n      add\n      swap1\n      tag_87\n      swap2\n      swap1\n      tag_48\n      jump\t// in\n    tag_87:\n      tag_88\n      jump\t// in\n    tag_86:\n      mload(0x40)\n      tag_89\n      swap2\n      swap1\n      tag_41\n      jump\t// in\n    tag_89:\n      mload(0x40)\n      dup1\n      swap2\n      sub\n      swap1\n      return\n        /* \"https://github.com/transmissions11/solmate/blob/main/src/tokens/ERC4626.sol\":1550:2066  function deposit(uint256 assets, address receiver) public virtual returns (uint256 shares) {... */\n    tag_15:\n      tag_90\n      0x04\n      dup1\n      calldatasize\n      sub\n      dup2\n      add\n      swap1\n      tag_91\n      swap2\n      swap1\n      tag_92\n      jump\t// in\n    tag_91:\n      tag_93\n      jump\t// in\n    tag_90:\n      mload(0x40)\n      tag_94\n      swap2\n      swap1\n      tag_41\n      jump\t// in\n    tag_94:\n      mload(0x40)\n      dup1\n      swap2\n      sub\n      swap1\n      return\n        /* \"https://github.com/transmissions11/solmate/blob/main/src/tokens/ERC20.sol\":1337:1381  mapping(address => uint256) public balanceOf */\n    tag_16:\n      tag_95\n      0x04\n      dup1\n      calldatasize\n      sub\n      dup2\n      add\n      swap1\n      tag_96\n      swap2\n      swap1\n      tag_83\n      jump\t// in\n    tag_96:\n      tag_97\n      jump\t// in\n    tag_95:\n      mload(0x40)\n      tag_98\n      swap2\n      swap1\n      tag_41\n      jump\t// in\n    tag_98:\n      mload(0x40)\n      dup1\n      swap2\n      sub\n      swap1\n      return\n        /* \"https://github.com/transmissions11/solmate/blob/main/src/tokens/ERC20.sol\":1751:1792  mapping(address => uint256) public nonces */\n    tag_17:\n      tag_99\n      0x04\n      dup1\n      calldatasize\n      sub\n      dup2\n      add\n      swap1\n      tag_100\n      swap2\n      swap1\n      tag_83\n      jump\t// in\n    tag_100:\n      tag_101\n      jump\t// in\n    tag_99:\n      mload(0x40)\n      tag_102\n      swap2\n      swap1\n      tag_41\n      jump\t// in\n    tag_102:\n      mload(0x40)\n      dup1\n      swap2\n      sub\n      swap1\n      return\n        /* \"https://github.com/transmissions11/solmate/blob/main/src/tokens/ERC4626.sol\":2072:2539  function mint(uint256 shares, address receiver) public virtual returns (uint256 assets) {... */\n    tag_18:\n      tag_103\n      0x04\n      dup1\n      calldatasize\n      sub\n      dup2\n      add\n      swap1\n      tag_104\n      swap2\n      swap1\n      tag_92\n      jump\t// in\n    tag_104:\n      tag_105\n      jump\t// in\n    tag_103:\n      mload(0x40)\n      tag_106\n      swap2\n      swap1\n      tag_41\n      jump\t// in\n    tag_106:\n      mload(0x40)\n      dup1\n      swap2\n      sub\n      swap1\n      return\n        /* \"https://github.com/transmissions11/solmate/blob/main/src/tokens/ERC20.sol\":1056:1076  string public symbol */\n    tag_19:\n      tag_107\n      tag_108\n      jump\t// in\n    tag_107:\n      mload(0x40)\n      tag_109\n      swap2\n      swap1\n      tag_45\n      jump\t// in\n    tag_109:\n      mload(0x40)\n      dup1\n      swap2\n      sub\n      swap1\n      return\n        /* \"https://github.com/transmissions11/solmate/blob/main/src/tokens/ERC20.sol\":2678:3051  function transfer(address to, uint256 amount) public virtual returns (bool) {... */\n    tag_20:\n      tag_110\n      0x04\n      dup1\n      calldatasize\n      sub\n      dup2\n      add\n      swap1\n      tag_111\n      swap2\n      swap1\n      tag_53\n      jump\t// in\n    tag_111:\n      tag_112\n      jump\t// in\n    tag_110:\n      mload(0x40)\n      tag_113\n      swap2\n      swap1\n      tag_56\n      jump\t// in\n    tag_113:\n      mload(0x40)\n      dup1\n      swap2\n      sub\n      swap1\n      return\n        /* \"https://github.com/transmissions11/solmate/blob/main/src/tokens/ERC4626.sol\":4857:5108  function previewMint(uint256 shares) public view virtual returns (uint256) {... */\n    tag_21:\n      tag_114\n      0x04\n      dup1\n      calldatasize\n      sub\n      dup2\n      add\n      swap1\n      tag_115\n      swap2\n      swap1\n      tag_48\n      jump\t// in\n    tag_115:\n      tag_116\n      jump\t// in\n    tag_114:\n      mload(0x40)\n      tag_117\n      swap2\n      swap1\n      tag_41\n      jump\t// in\n    tag_117:\n      mload(0x40)\n      dup1\n      swap2\n      sub\n      swap1\n      return\n        /* \"https://github.com/transmissions11/solmate/blob/main/src/tokens/ERC4626.sol\":2545:3224  function withdraw(... */\n    tag_22:\n      tag_118\n      0x04\n      dup1\n      calldatasize\n      sub\n      dup2\n      add\n      swap1\n      tag_119\n      swap2\n      swap1\n      tag_120\n      jump\t// in\n    tag_119:\n      tag_121\n      jump\t// in\n    tag_118:\n      mload(0x40)\n      tag_122\n      swap2\n      swap1\n      tag_41\n      jump\t// in\n    tag_122:\n      mload(0x40)\n      dup1\n      swap2\n      sub\n      swap1\n      return\n        /* \"https://github.com/transmissions11/solmate/blob/main/src/tokens/ERC4626.sol\":3230:3943  function redeem(... */\n    tag_23:\n      tag_123\n      0x04\n      dup1\n      calldatasize\n      sub\n      dup2\n      add\n      swap1\n      tag_124\n      swap2\n      swap1\n      tag_120\n      jump\t// in\n    tag_124:\n      tag_125\n      jump\t// in\n    tag_123:\n      mload(0x40)\n      tag_126\n      swap2\n      swap1\n      tag_41\n      jump\t// in\n    tag_126:\n      mload(0x40)\n      dup1\n      swap2\n      sub\n      swap1\n      return\n        /* \"https://github.com/transmissions11/solmate/blob/main/src/tokens/ERC4626.sol\":5810:5915  function maxMint(address) public view virtual returns (uint256) {... */\n    tag_24:\n      tag_127\n      0x04\n      dup1\n      calldatasize\n      sub\n      dup2\n      add\n      swap1\n      tag_128\n      swap2\n      swap1\n      tag_83\n      jump\t// in\n    tag_128:\n      tag_129\n      jump\t// in\n    tag_127:\n      mload(0x40)\n      tag_130\n      swap2\n      swap1\n      tag_41\n      jump\t// in\n    tag_130:\n      mload(0x40)\n      dup1\n      swap2\n      sub\n      swap1\n      return\n        /* \"https://github.com/transmissions11/solmate/blob/main/src/tokens/ERC4626.sol\":4200:4457  function convertToShares(uint256 assets) public view virtual returns (uint256) {... */\n    tag_25:\n      tag_131\n      0x04\n      dup1\n      calldatasize\n      sub\n      dup2\n      add\n      swap1\n      tag_132\n      swap2\n      swap1\n      tag_48\n      jump\t// in\n    tag_132:\n      tag_133\n      jump\t// in\n    tag_131:\n      mload(0x40)\n      tag_134\n      swap2\n      swap1\n      tag_41\n      jump\t// in\n    tag_134:\n      mload(0x40)\n      dup1\n      swap2\n      sub\n      swap1\n      return\n        /* \"https://github.com/transmissions11/solmate/blob/main/src/tokens/ERC4626.sol\":5921:6052  function maxWithdraw(address owner) public view virtual returns (uint256) {... */\n    tag_26:\n      tag_135\n      0x04\n      dup1\n      calldatasize\n      sub\n      dup2\n      add\n      swap1\n      tag_136\n      swap2\n      swap1\n      tag_83\n      jump\t// in\n    tag_136:\n      tag_137\n      jump\t// in\n    tag_135:\n      mload(0x40)\n      tag_138\n      swap2\n      swap1\n      tag_41\n      jump\t// in\n    tag_138:\n      mload(0x40)\n      dup1\n      swap2\n      sub\n      swap1\n      return\n        /* \"https://github.com/transmissions11/solmate/blob/main/src/tokens/ERC20.sol\":3838:5321  function permit(... */\n    tag_27:\n      tag_139\n      0x04\n      dup1\n      calldatasize\n      sub\n      dup2\n      add\n      swap1\n      tag_140\n      swap2\n      swap1\n      tag_141\n      jump\t// in\n    tag_140:\n      tag_142\n      jump\t// in\n    tag_139:\n      stop\n        /* \"https://github.com/transmissions11/solmate/blob/main/src/tokens/ERC4626.sol\":6058:6170  function maxRedeem(address owner) public view virtual returns (uint256) {... */\n    tag_28:\n      tag_143\n      0x04\n      dup1\n      calldatasize\n      sub\n      dup2\n      add\n      swap1\n      tag_144\n      swap2\n      swap1\n      tag_83\n      jump\t// in\n    tag_144:\n      tag_145\n      jump\t// in\n    tag_143:\n      mload(0x40)\n      tag_146\n      swap2\n      swap1\n      tag_41\n      jump\t// in\n    tag_146:\n      mload(0x40)\n      dup1\n      swap2\n      sub\n      swap1\n      return\n        /* \"https://github.com/transmissions11/solmate/blob/main/src/tokens/ERC20.sol\":1388:1452  mapping(address => mapping(address => uint256)) public allowance */\n    tag_29:\n      tag_147\n      0x04\n      dup1\n      calldatasize\n      sub\n      dup2\n      add\n      swap1\n      tag_148\n      swap2\n      swap1\n      tag_149\n      jump\t// in\n    tag_148:\n      tag_150\n      jump\t// in\n    tag_147:\n      mload(0x40)\n      tag_151\n      swap2\n      swap1\n      tag_41\n      jump\t// in\n    tag_151:\n      mload(0x40)\n      dup1\n      swap2\n      sub\n      swap1\n      return\n        /* \"https://github.com/transmissions11/solmate/blob/main/src/tokens/ERC4626.sol\":4726:4851  function previewDeposit(uint256 assets) public view virtual returns (uint256) {... */\n    tag_30:\n      tag_152\n      0x04\n      dup1\n      calldatasize\n      sub\n      dup2\n      add\n      swap1\n      tag_153\n      swap2\n      swap1\n      tag_48\n      jump\t// in\n    tag_153:\n      tag_154\n      jump\t// in\n    tag_152:\n      mload(0x40)\n      tag_155\n      swap2\n      swap1\n      tag_41\n      jump\t// in\n    tag_155:\n      mload(0x40)\n      dup1\n      swap2\n      sub\n      swap1\n      return\n        /* \"contracts/Vault/TokenVault.sol\":349:422  function totalAssets() override  public view  returns (uint256){... */\n    tag_39:\n        /* \"contracts/Vault/TokenVault.sol\":404:411  uint256 */\n      0x00\n        /* \"contracts/Vault/TokenVault.sol\":349:422  function totalAssets() override  public view  returns (uint256){... */\n      swap1\n      jump\t// out\n        /* \"https://github.com/transmissions11/solmate/blob/main/src/tokens/ERC20.sol\":1031:1049  string public name */\n    tag_43:\n      0x00\n      dup1\n      sload\n      tag_157\n      swap1\n      tag_158\n      jump\t// in\n    tag_157:\n      dup1\n      0x1f\n      add\n      0x20\n      dup1\n      swap2\n      div\n      mul\n      0x20\n      add\n      mload(0x40)\n      swap1\n      dup2\n      add\n      0x40\n      mstore\n      dup1\n      swap3\n      swap2\n      swap1\n      dup2\n      dup2\n      mstore\n      0x20\n      add\n      dup3\n      dup1\n      sload\n      tag_159\n      swap1\n      tag_158\n      jump\t// in\n    tag_159:\n      dup1\n      iszero\n      tag_160\n      jumpi\n      dup1\n      0x1f\n      lt\n      tag_161\n      jumpi\n      0x0100\n      dup1\n      dup4\n      sload\n      div\n      mul\n      dup4\n      mstore\n      swap2\n      0x20\n      add\n      swap2\n      jump(tag_160)\n    tag_161:\n      dup3\n      add\n      swap2\n      swap1\n      0x00\n      mstore\n      keccak256(0x00, 0x20)\n      swap1\n    tag_162:\n      dup2\n      sload\n      dup2\n      mstore\n      swap1\n      0x01\n      add\n      swap1\n      0x20\n      add\n      dup1\n      dup4\n      gt\n      tag_162\n      jumpi\n      dup3\n      swap1\n      sub\n      0x1f\n      and\n      dup3\n      add\n      swap2\n    tag_160:\n      pop\n      pop\n      pop\n      pop\n      pop\n      dup2\n      jump\t// out\n        /* \"https://github.com/transmissions11/solmate/blob/main/src/tokens/ERC4626.sol\":4463:4720  function convertToAssets(uint256 shares) public view virtual returns (uint256) {... */\n    tag_49:\n        /* \"https://github.com/transmissions11/solmate/blob/main/src/tokens/ERC4626.sol\":4533:4540  uint256 */\n      0x00\n        /* \"https://github.com/transmissions11/solmate/blob/main/src/tokens/ERC4626.sol\":4552:4566  uint256 supply */\n      0x00\n        /* \"https://github.com/transmissions11/solmate/blob/main/src/tokens/ERC4626.sol\":4569:4580  totalSupply */\n      sload(0x02)\n        /* \"https://github.com/transmissions11/solmate/blob/main/src/tokens/ERC4626.sol\":4552:4580  uint256 supply = totalSupply */\n      swap1\n      pop\n        /* \"https://github.com/transmissions11/solmate/blob/main/src/tokens/ERC4626.sol\":4660:4661  0 */\n      0x00\n        /* \"https://github.com/transmissions11/solmate/blob/main/src/tokens/ERC4626.sol\":4650:4656  supply */\n      dup2\n        /* \"https://github.com/transmissions11/solmate/blob/main/src/tokens/ERC4626.sol\":4650:4661  supply == 0 */\n      eq\n        /* \"https://github.com/transmissions11/solmate/blob/main/src/tokens/ERC4626.sol\":4650:4713  supply == 0 ? shares : shares.mulDivDown(totalAssets(), supply) */\n      tag_164\n      jumpi\n        /* \"https://github.com/transmissions11/solmate/blob/main/src/tokens/ERC4626.sol\":4673:4713  shares.mulDivDown(totalAssets(), supply) */\n      tag_165\n        /* \"https://github.com/transmissions11/solmate/blob/main/src/tokens/ERC4626.sol\":4691:4704  totalAssets() */\n      tag_166\n        /* \"https://github.com/transmissions11/solmate/blob/main/src/tokens/ERC4626.sol\":4691:4702  totalAssets */\n      tag_39\n        /* \"https://github.com/transmissions11/solmate/blob/main/src/tokens/ERC4626.sol\":4691:4704  totalAssets() */\n      jump\t// in\n    tag_166:\n        /* \"https://github.com/transmissions11/solmate/blob/main/src/tokens/ERC4626.sol\":4706:4712  supply */\n      dup3\n        /* \"https://github.com/transmissions11/solmate/blob/main/src/tokens/ERC4626.sol\":4673:4679  shares */\n      dup6\n        /* \"https://github.com/transmissions11/solmate/blob/main/src/tokens/ERC4626.sol\":4673:4690  shares.mulDivDown */\n      tag_167\n      swap1\n        /* \"https://github.com/transmissions11/solmate/blob/main/src/tokens/ERC4626.sol\":4673:4713  shares.mulDivDown(totalAssets(), supply) */\n      swap3\n      swap2\n      swap1\n      0xffffffff\n      and\n      jump\t// in\n    tag_165:\n        /* \"https://github.com/transmissions11/solmate/blob/main/src/tokens/ERC4626.sol\":4650:4713  supply == 0 ? shares : shares.mulDivDown(totalAssets(), supply) */\n      jump(tag_168)\n    tag_164:\n        /* \"https://github.com/transmissions11/solmate/blob/main/src/tokens/ERC4626.sol\":4664:4670  shares */\n      dup3\n        /* \"https://github.com/transmissions11/solmate/blob/main/src/tokens/ERC4626.sol\":4650:4713  supply == 0 ? shares : shares.mulDivDown(totalAssets(), supply) */\n    tag_168:\n        /* \"https://github.com/transmissions11/solmate/blob/main/src/tokens/ERC4626.sol\":4643:4713  return supply == 0 ? shares : shares.mulDivDown(totalAssets(), supply) */\n      swap2\n      pop\n      pop\n        /* \"https://github.com/transmissions11/solmate/blob/main/src/tokens/ERC4626.sol\":4463:4720  function convertToAssets(uint256 shares) public view virtual returns (uint256) {... */\n      swap2\n      swap1\n      pop\n      jump\t// out\n        /* \"https://github.com/transmissions11/solmate/blob/main/src/tokens/ERC20.sol\":2461:2672  function approve(address spender, uint256 amount) public virtual returns (bool) {... */\n    tag_54:\n        /* \"https://github.com/transmissions11/solmate/blob/main/src/tokens/ERC20.sol\":2535:2539  bool */\n      0x00\n        /* \"https://github.com/transmissions11/solmate/blob/main/src/tokens/ERC20.sol\":2584:2590  amount */\n      dup2\n        /* \"https://github.com/transmissions11/solmate/blob/main/src/tokens/ERC20.sol\":2551:2560  allowance */\n      0x04\n        /* \"https://github.com/transmissions11/solmate/blob/main/src/tokens/ERC20.sol\":2551:2572  allowance[msg.sender] */\n      0x00\n        /* \"https://github.com/transmissions11/solmate/blob/main/src/tokens/ERC20.sol\":2561:2571  msg.sender */\n      caller\n        /* \"https://github.com/transmissions11/solmate/blob/main/src/tokens/ERC20.sol\":2551:2572  allowance[msg.sender] */\n      0xffffffffffffffffffffffffffffffffffffffff\n      and\n      0xffffffffffffffffffffffffffffffffffffffff\n      and\n      dup2\n      mstore\n      0x20\n      add\n      swap1\n      dup2\n      mstore\n      0x20\n      add\n      0x00\n      keccak256\n        /* \"https://github.com/transmissions11/solmate/blob/main/src/tokens/ERC20.sol\":2551:2581  allowance[msg.sender][spender] */\n      0x00\n        /* \"https://github.com/transmissions11/solmate/blob/main/src/tokens/ERC20.sol\":2573:2580  spender */\n      dup6\n        /* \"https://github.com/transmissions11/solmate/blob/main/src/tokens/ERC20.sol\":2551:2581  allowance[msg.sender][spender] */\n      0xffffffffffffffffffffffffffffffffffffffff\n      and\n      0xffffffffffffffffffffffffffffffffffffffff\n      and\n      dup2\n      mstore\n      0x20\n      add\n      swap1\n      dup2\n      mstore\n      0x20\n      add\n      0x00\n      keccak256\n        /* \"https://github.com/transmissions11/solmate/blob/main/src/tokens/ERC20.sol\":2551:2590  allowance[msg.sender][spender] = amount */\n      dup2\n      swap1\n      sstore\n      pop\n        /* \"https://github.com/transmissions11/solmate/blob/main/src/tokens/ERC20.sol\":2627:2634  spender */\n      dup3\n        /* \"https://github.com/transmissions11/solmate/blob/main/src/tokens/ERC20.sol\":2606:2643  Approval(msg.sender, spender, amount) */\n      0xffffffffffffffffffffffffffffffffffffffff\n      and\n        /* \"https://github.com/transmissions11/solmate/blob/main/src/tokens/ERC20.sol\":2615:2625  msg.sender */\n      caller\n        /* \"https://github.com/transmissions11/solmate/blob/main/src/tokens/ERC20.sol\":2606:2643  Approval(msg.sender, spender, amount) */\n      0xffffffffffffffffffffffffffffffffffffffff\n      and\n      0x8c5be1e5ebec7d5bd14f71427d1e84f3dd0314c0f7b2291e5b200ac8c7c3b925\n        /* \"https://github.com/transmissions11/solmate/blob/main/src/tokens/ERC20.sol\":2636:2642  amount */\n      dup5\n        /* \"https://github.com/transmissions11/solmate/blob/main/src/tokens/ERC20.sol\":2606:2643  Approval(msg.sender, spender, amount) */\n      mload(0x40)\n      tag_170\n      swap2\n      swap1\n      tag_41\n      jump\t// in\n    tag_170:\n      mload(0x40)\n      dup1\n      swap2\n      sub\n      swap1\n      log3\n        /* \"https://github.com/transmissions11/solmate/blob/main/src/tokens/ERC20.sol\":2661:2665  true */\n      0x01\n        /* \"https://github.com/transmissions11/solmate/blob/main/src/tokens/ERC20.sol\":2654:2665  return true */\n      swap1\n      pop\n        /* \"https://github.com/transmissions11/solmate/blob/main/src/tokens/ERC20.sol\":2461:2672  function approve(address spender, uint256 amount) public virtual returns (bool) {... */\n      swap3\n      swap2\n      pop\n      pop\n      jump\t// out\n        /* \"https://github.com/transmissions11/solmate/blob/main/src/tokens/ERC4626.sol\":5114:5369  function previewWithdraw(uint256 assets) public view virtual returns (uint256) {... */\n    tag_59:\n        /* \"https://github.com/transmissions11/solmate/blob/main/src/tokens/ERC4626.sol\":5184:5191  uint256 */\n      0x00\n        /* \"https://github.com/transmissions11/solmate/blob/main/src/tokens/ERC4626.sol\":5203:5217  uint256 supply */\n      0x00\n        /* \"https://github.com/transmissions11/solmate/blob/main/src/tokens/ERC4626.sol\":5220:5231  totalSupply */\n      sload(0x02)\n        /* \"https://github.com/transmissions11/solmate/blob/main/src/tokens/ERC4626.sol\":5203:5231  uint256 supply = totalSupply */\n      swap1\n      pop\n        /* \"https://github.com/transmissions11/solmate/blob/main/src/tokens/ERC4626.sol\":5311:5312  0 */\n      0x00\n        /* \"https://github.com/transmissions11/solmate/blob/main/src/tokens/ERC4626.sol\":5301:5307  supply */\n      dup2\n        /* \"https://github.com/transmissions11/solmate/blob/main/src/tokens/ERC4626.sol\":5301:5312  supply == 0 */\n      eq\n        /* \"https://github.com/transmissions11/solmate/blob/main/src/tokens/ERC4626.sol\":5301:5362  supply == 0 ? assets : assets.mulDivUp(supply, totalAssets()) */\n      tag_172\n      jumpi\n        /* \"https://github.com/transmissions11/solmate/blob/main/src/tokens/ERC4626.sol\":5324:5362  assets.mulDivUp(supply, totalAssets()) */\n      tag_173\n        /* \"https://github.com/transmissions11/solmate/blob/main/src/tokens/ERC4626.sol\":5340:5346  supply */\n      dup2\n        /* \"https://github.com/transmissions11/solmate/blob/main/src/tokens/ERC4626.sol\":5348:5361  totalAssets() */\n      tag_174\n        /* \"https://github.com/transmissions11/solmate/blob/main/src/tokens/ERC4626.sol\":5348:5359  totalAssets */\n      tag_39\n        /* \"https://github.com/transmissions11/solmate/blob/main/src/tokens/ERC4626.sol\":5348:5361  totalAssets() */\n      jump\t// in\n    tag_174:\n        /* \"https://github.com/transmissions11/solmate/blob/main/src/tokens/ERC4626.sol\":5324:5330  assets */\n      dup6\n        /* \"https://github.com/transmissions11/solmate/blob/main/src/tokens/ERC4626.sol\":5324:5339  assets.mulDivUp */\n      tag_175\n      swap1\n        /* \"https://github.com/transmissions11/solmate/blob/main/src/tokens/ERC4626.sol\":5324:5362  assets.mulDivUp(supply, totalAssets()) */\n      swap3\n      swap2\n      swap1\n      0xffffffff\n      and\n      jump\t// in\n    tag_173:\n        /* \"https://github.com/transmissions11/solmate/blob/main/src/tokens/ERC4626.sol\":5301:5362  supply == 0 ? assets : assets.mulDivUp(supply, totalAssets()) */\n      jump(tag_176)\n    tag_172:\n        /* \"https://github.com/transmissions11/solmate/blob/main/src/tokens/ERC4626.sol\":5315:5321  assets */\n      dup3\n        /* \"https://github.com/transmissions11/solmate/blob/main/src/tokens/ERC4626.sol\":5301:5362  supply == 0 ? assets : assets.mulDivUp(supply, totalAssets()) */\n    tag_176:\n        /* \"https://github.com/transmissions11/solmate/blob/main/src/tokens/ERC4626.sol\":5294:5362  return supply == 0 ? assets : assets.mulDivUp(supply, totalAssets()) */\n      swap2\n      pop\n      pop\n        /* \"https://github.com/transmissions11/solmate/blob/main/src/tokens/ERC4626.sol\":5114:5369  function previewWithdraw(uint256 assets) public view virtual returns (uint256) {... */\n      swap2\n      swap1\n      pop\n      jump\t// out\n        /* \"https://github.com/transmissions11/solmate/blob/main/src/tokens/ERC20.sol\":1304:1330  uint256 public totalSupply */\n    tag_62:\n      sload(0x02)\n      dup2\n      jump\t// out\n        /* \"https://github.com/transmissions11/solmate/blob/main/src/tokens/ERC20.sol\":3057:3649  function transferFrom(... */\n    tag_67:\n        /* \"https://github.com/transmissions11/solmate/blob/main/src/tokens/ERC20.sol\":3175:3179  bool */\n      0x00\n        /* \"https://github.com/transmissions11/solmate/blob/main/src/tokens/ERC20.sol\":3191:3206  uint256 allowed */\n      0x00\n        /* \"https://github.com/transmissions11/solmate/blob/main/src/tokens/ERC20.sol\":3209:3218  allowance */\n      0x04\n        /* \"https://github.com/transmissions11/solmate/blob/main/src/tokens/ERC20.sol\":3209:3224  allowance[from] */\n      0x00\n        /* \"https://github.com/transmissions11/solmate/blob/main/src/tokens/ERC20.sol\":3219:3223  from */\n      dup7\n        /* \"https://github.com/transmissions11/solmate/blob/main/src/tokens/ERC20.sol\":3209:3224  allowance[from] */\n      0xffffffffffffffffffffffffffffffffffffffff\n      and\n      0xffffffffffffffffffffffffffffffffffffffff\n      and\n      dup2\n      mstore\n      0x20\n      add\n      swap1\n      dup2\n      mstore\n      0x20\n      add\n      0x00\n      keccak256\n        /* \"https://github.com/transmissions11/solmate/blob/main/src/tokens/ERC20.sol\":3209:3236  allowance[from][msg.sender] */\n      0x00\n        /* \"https://github.com/transmissions11/solmate/blob/main/src/tokens/ERC20.sol\":3225:3235  msg.sender */\n      caller\n        /* \"https://github.com/transmissions11/solmate/blob/main/src/tokens/ERC20.sol\":3209:3236  allowance[from][msg.sender] */\n      0xffffffffffffffffffffffffffffffffffffffff\n      and\n      0xffffffffffffffffffffffffffffffffffffffff\n      and\n      dup2\n      mstore\n      0x20\n      add\n      swap1\n      dup2\n      mstore\n      0x20\n      add\n      0x00\n      keccak256\n      sload\n        /* \"https://github.com/transmissions11/solmate/blob/main/src/tokens/ERC20.sol\":3191:3236  uint256 allowed = allowance[from][msg.sender] */\n      swap1\n      pop\n        /* \"https://github.com/transmissions11/solmate/blob/main/src/tokens/ERC20.sol\":3298:3315  type(uint256).max */\n      0xffffffffffffffffffffffffffffffffffffffffffffffffffffffffffffffff\n        /* \"https://github.com/transmissions11/solmate/blob/main/src/tokens/ERC20.sol\":3287:3294  allowed */\n      dup2\n        /* \"https://github.com/transmissions11/solmate/blob/main/src/tokens/ERC20.sol\":3287:3315  allowed != type(uint256).max */\n      eq\n        /* \"https://github.com/transmissions11/solmate/blob/main/src/tokens/ERC20.sol\":3283:3363  if (allowed != type(uint256).max) allowance[from][msg.sender] = allowed - amount */\n      tag_178\n      jumpi\n        /* \"https://github.com/transmissions11/solmate/blob/main/src/tokens/ERC20.sol\":3357:3363  amount */\n      dup3\n        /* \"https://github.com/transmissions11/solmate/blob/main/src/tokens/ERC20.sol\":3347:3354  allowed */\n      dup2\n        /* \"https://github.com/transmissions11/solmate/blob/main/src/tokens/ERC20.sol\":3347:3363  allowed - amount */\n      tag_179\n      swap2\n      swap1\n      tag_180\n      jump\t// in\n    tag_179:\n        /* \"https://github.com/transmissions11/solmate/blob/main/src/tokens/ERC20.sol\":3317:3326  allowance */\n      0x04\n        /* \"https://github.com/transmissions11/solmate/blob/main/src/tokens/ERC20.sol\":3317:3332  allowance[from] */\n      0x00\n        /* \"https://github.com/transmissions11/solmate/blob/main/src/tokens/ERC20.sol\":3327:3331  from */\n      dup8\n        /* \"https://github.com/transmissions11/solmate/blob/main/src/tokens/ERC20.sol\":3317:3332  allowance[from] */\n      0xffffffffffffffffffffffffffffffffffffffff\n      and\n      0xffffffffffffffffffffffffffffffffffffffff\n      and\n      dup2\n      mstore\n      0x20\n      add\n      swap1\n      dup2\n      mstore\n      0x20\n      add\n      0x00\n      keccak256\n        /* \"https://github.com/transmissions11/solmate/blob/main/src/tokens/ERC20.sol\":3317:3344  allowance[from][msg.sender] */\n      0x00\n        /* \"https://github.com/transmissions11/solmate/blob/main/src/tokens/ERC20.sol\":3333:3343  msg.sender */\n      caller\n        /* \"https://github.com/transmissions11/solmate/blob/main/src/tokens/ERC20.sol\":3317:3344  allowance[from][msg.sender] */\n      0xffffffffffffffffffffffffffffffffffffffff\n      and\n      0xffffffffffffffffffffffffffffffffffffffff\n      and\n      dup2\n      mstore\n      0x20\n      add\n      swap1\n      dup2\n      mstore\n      0x20\n      add\n      0x00\n      keccak256\n        /* \"https://github.com/transmissions11/solmate/blob/main/src/tokens/ERC20.sol\":3317:3363  allowance[from][msg.sender] = allowed - amount */\n      dup2\n      swap1\n      sstore\n      pop\n        /* \"https://github.com/transmissions11/solmate/blob/main/src/tokens/ERC20.sol\":3283:3363  if (allowed != type(uint256).max) allowance[from][msg.sender] = allowed - amount */\n    tag_178:\n        /* \"https://github.com/transmissions11/solmate/blob/main/src/tokens/ERC20.sol\":3393:3399  amount */\n      dup3\n        /* \"https://github.com/transmissions11/solmate/blob/main/src/tokens/ERC20.sol\":3374:3383  balanceOf */\n      0x03\n        /* \"https://github.com/transmissions11/solmate/blob/main/src/tokens/ERC20.sol\":3374:3389  balanceOf[from] */\n      0x00\n        /* \"https://github.com/transmissions11/solmate/blob/main/src/tokens/ERC20.sol\":3384:3388  from */\n      dup8\n        /* \"https://github.com/transmissions11/solmate/blob/main/src/tokens/ERC20.sol\":3374:3389  balanceOf[from] */\n      0xffffffffffffffffffffffffffffffffffffffff\n      and\n      0xffffffffffffffffffffffffffffffffffffffff\n      and\n      dup2\n      mstore\n      0x20\n      add\n      swap1\n      dup2\n      mstore\n      0x20\n      add\n      0x00\n      keccak256\n      0x00\n        /* \"https://github.com/transmissions11/solmate/blob/main/src/tokens/ERC20.sol\":3374:3399  balanceOf[from] -= amount */\n      dup3\n      dup3\n      sload\n      tag_181\n      swap2\n      swap1\n      tag_180\n      jump\t// in\n    tag_181:\n      swap3\n      pop\n      pop\n      dup2\n      swap1\n      sstore\n      pop\n        /* \"https://github.com/transmissions11/solmate/blob/main/src/tokens/ERC20.sol\":3562:3568  amount */\n      dup3\n        /* \"https://github.com/transmissions11/solmate/blob/main/src/tokens/ERC20.sol\":3545:3554  balanceOf */\n      0x03\n        /* \"https://github.com/transmissions11/solmate/blob/main/src/tokens/ERC20.sol\":3545:3558  balanceOf[to] */\n      0x00\n        /* \"https://github.com/transmissions11/solmate/blob/main/src/tokens/ERC20.sol\":3555:3557  to */\n      dup7\n        /* \"https://github.com/transmissions11/solmate/blob/main/src/tokens/ERC20.sol\":3545:3558  balanceOf[to] */\n      0xffffffffffffffffffffffffffffffffffffffff\n      and\n      0xffffffffffffffffffffffffffffffffffffffff\n      and\n      dup2\n      mstore\n      0x20\n      add\n      swap1\n      dup2\n      mstore\n      0x20\n      add\n      0x00\n      keccak256\n      0x00\n        /* \"https://github.com/transmissions11/solmate/blob/main/src/tokens/ERC20.sol\":3545:3568  balanceOf[to] += amount */\n      dup3\n      dup3\n      sload\n      add\n      swap3\n      pop\n      pop\n      dup2\n      swap1\n      sstore\n      pop\n        /* \"https://github.com/transmissions11/solmate/blob/main/src/tokens/ERC20.sol\":3609:3611  to */\n      dup4\n        /* \"https://github.com/transmissions11/solmate/blob/main/src/tokens/ERC20.sol\":3594:3620  Transfer(from, to, amount) */\n      0xffffffffffffffffffffffffffffffffffffffff\n      and\n        /* \"https://github.com/transmissions11/solmate/blob/main/src/tokens/ERC20.sol\":3603:3607  from */\n      dup6\n        /* \"https://github.com/transmissions11/solmate/blob/main/src/tokens/ERC20.sol\":3594:3620  Transfer(from, to, amount) */\n      0xffffffffffffffffffffffffffffffffffffffff\n      and\n      0xddf252ad1be2c89b69c2b068fc378daa952ba7f163c4a11628f55a4df523b3ef\n        /* \"https://github.com/transmissions11/solmate/blob/main/src/tokens/ERC20.sol\":3613:3619  amount */\n      dup6\n        /* \"https://github.com/transmissions11/solmate/blob/main/src/tokens/ERC20.sol\":3594:3620  Transfer(from, to, amount) */\n      mload(0x40)\n      tag_182\n      swap2\n      swap1\n      tag_41\n      jump\t// in\n    tag_182:\n      mload(0x40)\n      dup1\n      swap2\n      sub\n      swap1\n      log3\n        /* \"https://github.com/transmissions11/solmate/blob/main/src/tokens/ERC20.sol\":3638:3642  true */\n      0x01\n        /* \"https://github.com/transmissions11/solmate/blob/main/src/tokens/ERC20.sol\":3631:3642  return true */\n      swap2\n      pop\n      pop\n        /* \"https://github.com/transmissions11/solmate/blob/main/src/tokens/ERC20.sol\":3057:3649  function transferFrom(... */\n      swap4\n      swap3\n      pop\n      pop\n      pop\n      jump\t// out\n        /* \"https://github.com/transmissions11/solmate/blob/main/src/tokens/ERC20.sol\":1083:1114  uint8 public immutable decimals */\n    tag_70:\n      immutable(\"0xbbd48b257be1b8216d144ef9be5734f8d11697959c9e0f7768bec89db74a63a3\")\n      dup2\n      jump\t// out\n        /* \"https://github.com/transmissions11/solmate/blob/main/src/tokens/ERC20.sol\":5327:5504  function DOMAIN_SEPARATOR() public view virtual returns (bytes32) {... */\n    tag_74:\n        /* \"https://github.com/transmissions11/solmate/blob/main/src/tokens/ERC20.sol\":5384:5391  bytes32 */\n      0x00\n        /* \"https://github.com/transmissions11/solmate/blob/main/src/tokens/ERC20.sol\":5427:5443  INITIAL_CHAIN_ID */\n      immutable(\"0xeafa31dc210956fc0884ec5660eba9405197797219cbbda41b6aaf7118c651d8\")\n        /* \"https://github.com/transmissions11/solmate/blob/main/src/tokens/ERC20.sol\":5410:5423  block.chainid */\n      chainid\n        /* \"https://github.com/transmissions11/solmate/blob/main/src/tokens/ERC20.sol\":5410:5443  block.chainid == INITIAL_CHAIN_ID */\n      eq\n        /* \"https://github.com/transmissions11/solmate/blob/main/src/tokens/ERC20.sol\":5410:5497  block.chainid == INITIAL_CHAIN_ID ? INITIAL_DOMAIN_SEPARATOR : computeDomainSeparator() */\n      tag_184\n      jumpi\n        /* \"https://github.com/transmissions11/solmate/blob/main/src/tokens/ERC20.sol\":5473:5497  computeDomainSeparator() */\n      tag_185\n        /* \"https://github.com/transmissions11/solmate/blob/main/src/tokens/ERC20.sol\":5473:5495  computeDomainSeparator */\n      tag_186\n        /* \"https://github.com/transmissions11/solmate/blob/main/src/tokens/ERC20.sol\":5473:5497  computeDomainSeparator() */\n      jump\t// in\n    tag_185:\n        /* \"https://github.com/transmissions11/solmate/blob/main/src/tokens/ERC20.sol\":5410:5497  block.chainid == INITIAL_CHAIN_ID ? INITIAL_DOMAIN_SEPARATOR : computeDomainSeparator() */\n      jump(tag_187)\n    tag_184:\n        /* \"https://github.com/transmissions11/solmate/blob/main/src/tokens/ERC20.sol\":5446:5470  INITIAL_DOMAIN_SEPARATOR */\n      immutable(\"0xdb37925934a3d3177db64e11f5e0156ceb8a756fee58ded16e549afa607ddb1d\")\n        /* \"https://github.com/transmissions11/solmate/blob/main/src/tokens/ERC20.sol\":5410:5497  block.chainid == INITIAL_CHAIN_ID ? INITIAL_DOMAIN_SEPARATOR : computeDomainSeparator() */\n    tag_187:\n        /* \"https://github.com/transmissions11/solmate/blob/main/src/tokens/ERC20.sol\":5403:5497  return block.chainid == INITIAL_CHAIN_ID ? INITIAL_DOMAIN_SEPARATOR : computeDomainSeparator() */\n      swap1\n      pop\n        /* \"https://github.com/transmissions11/solmate/blob/main/src/tokens/ERC20.sol\":5327:5504  function DOMAIN_SEPARATOR() public view virtual returns (bytes32) {... */\n      swap1\n      jump\t// out\n        /* \"https://github.com/transmissions11/solmate/blob/main/src/tokens/ERC4626.sol\":1149:1177  ERC20 public immutable asset */\n    tag_78:\n      immutable(\"0xcce53c114a2b1a6aca1689829ad3f0fe22ece37ee649b7e0d854100cbad0f4f5\")\n      dup2\n      jump\t// out\n        /* \"https://github.com/transmissions11/solmate/blob/main/src/tokens/ERC4626.sol\":5696:5804  function maxDeposit(address) public view virtual returns (uint256) {... */\n    tag_84:\n        /* \"https://github.com/transmissions11/solmate/blob/main/src/tokens/ERC4626.sol\":5754:5761  uint256 */\n      0x00\n        /* \"https://github.com/transmissions11/solmate/blob/main/src/tokens/ERC4626.sol\":5780:5797  type(uint256).max */\n      0xffffffffffffffffffffffffffffffffffffffffffffffffffffffffffffffff\n        /* \"https://github.com/transmissions11/solmate/blob/main/src/tokens/ERC4626.sol\":5773:5797  return type(uint256).max */\n      swap1\n      pop\n        /* \"https://github.com/transmissions11/solmate/blob/main/src/tokens/ERC4626.sol\":5696:5804  function maxDeposit(address) public view virtual returns (uint256) {... */\n      swap2\n      swap1\n      pop\n      jump\t// out\n        /* \"https://github.com/transmissions11/solmate/blob/main/src/tokens/ERC4626.sol\":5375:5499  function previewRedeem(uint256 shares) public view virtual returns (uint256) {... */\n    tag_88:\n        /* \"https://github.com/transmissions11/solmate/blob/main/src/tokens/ERC4626.sol\":5443:5450  uint256 */\n      0x00\n        /* \"https://github.com/transmissions11/solmate/blob/main/src/tokens/ERC4626.sol\":5469:5492  convertToAssets(shares) */\n      tag_190\n        /* \"https://github.com/transmissions11/solmate/blob/main/src/tokens/ERC4626.sol\":5485:5491  shares */\n      dup3\n        /* \"https://github.com/transmissions11/solmate/blob/main/src/tokens/ERC4626.sol\":5469:5484  convertToAssets */\n      tag_49\n        /* \"https://github.com/transmissions11/solmate/blob/main/src/tokens/ERC4626.sol\":5469:5492  convertToAssets(shares) */\n      jump\t// in\n    tag_190:\n        /* \"https://github.com/transmissions11/solmate/blob/main/src/tokens/ERC4626.sol\":5462:5492  return convertToAssets(shares) */\n      swap1\n      pop\n        /* \"https://github.com/transmissions11/solmate/blob/main/src/tokens/ERC4626.sol\":5375:5499  function previewRedeem(uint256 shares) public view virtual returns (uint256) {... */\n      swap2\n      swap1\n      pop\n      jump\t// out\n        /* \"https://github.com/transmissions11/solmate/blob/main/src/tokens/ERC4626.sol\":1550:2066  function deposit(uint256 assets, address receiver) public virtual returns (uint256 shares) {... */\n    tag_93:\n        /* \"https://github.com/transmissions11/solmate/blob/main/src/tokens/ERC4626.sol\":1625:1639  uint256 shares */\n      0x00\n        /* \"https://github.com/transmissions11/solmate/blob/main/src/tokens/ERC4626.sol\":1771:1772  0 */\n      0x00\n        /* \"https://github.com/transmissions11/solmate/blob/main/src/tokens/ERC4626.sol\":1744:1766  previewDeposit(assets) */\n      tag_192\n        /* \"https://github.com/transmissions11/solmate/blob/main/src/tokens/ERC4626.sol\":1759:1765  assets */\n      dup5\n        /* \"https://github.com/transmissions11/solmate/blob/main/src/tokens/ERC4626.sol\":1744:1758  previewDeposit */\n      tag_154\n        /* \"https://github.com/transmissions11/solmate/blob/main/src/tokens/ERC4626.sol\":1744:1766  previewDeposit(assets) */\n      jump\t// in\n    tag_192:\n        /* \"https://github.com/transmissions11/solmate/blob/main/src/tokens/ERC4626.sol\":1735:1766  shares = previewDeposit(assets) */\n      swap2\n      pop\n      dup2\n        /* \"https://github.com/transmissions11/solmate/blob/main/src/tokens/ERC4626.sol\":1734:1772  (shares = previewDeposit(assets)) != 0 */\n      sub\n        /* \"https://github.com/transmissions11/solmate/blob/main/src/tokens/ERC4626.sol\":1726:1788  require((shares = previewDeposit(assets)) != 0, \"ZERO_SHARES\") */\n      tag_193\n      jumpi\n      mload(0x40)\n      0x08c379a000000000000000000000000000000000000000000000000000000000\n      dup2\n      mstore\n      0x04\n      add\n      tag_194\n      swap1\n      tag_195\n      jump\t// in\n    tag_194:\n      mload(0x40)\n      dup1\n      swap2\n      sub\n      swap1\n      revert\n    tag_193:\n        /* \"https://github.com/transmissions11/solmate/blob/main/src/tokens/ERC4626.sol\":1868:1925  asset.safeTransferFrom(msg.sender, address(this), assets) */\n      tag_196\n        /* \"https://github.com/transmissions11/solmate/blob/main/src/tokens/ERC4626.sol\":1891:1901  msg.sender */\n      caller\n        /* \"https://github.com/transmissions11/solmate/blob/main/src/tokens/ERC4626.sol\":1911:1915  this */\n      address\n        /* \"https://github.com/transmissions11/solmate/blob/main/src/tokens/ERC4626.sol\":1918:1924  assets */\n      dup6\n        /* \"https://github.com/transmissions11/solmate/blob/main/src/tokens/ERC4626.sol\":1868:1873  asset */\n      immutable(\"0xcce53c114a2b1a6aca1689829ad3f0fe22ece37ee649b7e0d854100cbad0f4f5\")\n        /* \"https://github.com/transmissions11/solmate/blob/main/src/tokens/ERC4626.sol\":1868:1890  asset.safeTransferFrom */\n      0xffffffffffffffffffffffffffffffffffffffff\n      and\n      tag_197\n      swap1\n        /* \"https://github.com/transmissions11/solmate/blob/main/src/tokens/ERC4626.sol\":1868:1925  asset.safeTransferFrom(msg.sender, address(this), assets) */\n      swap4\n      swap3\n      swap2\n      swap1\n      0xffffffff\n      and\n      jump\t// in\n    tag_196:\n        /* \"https://github.com/transmissions11/solmate/blob/main/src/tokens/ERC4626.sol\":1936:1959  _mint(receiver, shares) */\n      tag_198\n        /* \"https://github.com/transmissions11/solmate/blob/main/src/tokens/ERC4626.sol\":1942:1950  receiver */\n      dup3\n        /* \"https://github.com/transmissions11/solmate/blob/main/src/tokens/ERC4626.sol\":1952:1958  shares */\n      dup3\n        /* \"https://github.com/transmissions11/solmate/blob/main/src/tokens/ERC4626.sol\":1936:1941  _mint */\n      tag_199\n        /* \"https://github.com/transmissions11/solmate/blob/main/src/tokens/ERC4626.sol\":1936:1959  _mint(receiver, shares) */\n      jump\t// in\n    tag_198:\n        /* \"https://github.com/transmissions11/solmate/blob/main/src/tokens/ERC4626.sol\":1995:2003  receiver */\n      dup2\n        /* \"https://github.com/transmissions11/solmate/blob/main/src/tokens/ERC4626.sol\":1975:2020  Deposit(msg.sender, receiver, assets, shares) */\n      0xffffffffffffffffffffffffffffffffffffffff\n      and\n        /* \"https://github.com/transmissions11/solmate/blob/main/src/tokens/ERC4626.sol\":1983:1993  msg.sender */\n      caller\n        /* \"https://github.com/transmissions11/solmate/blob/main/src/tokens/ERC4626.sol\":1975:2020  Deposit(msg.sender, receiver, assets, shares) */\n      0xffffffffffffffffffffffffffffffffffffffff\n      and\n      0xdcbc1c05240f31ff3ad067ef1ee35ce4997762752e3a095284754544f4c709d7\n        /* \"https://github.com/transmissions11/solmate/blob/main/src/tokens/ERC4626.sol\":2005:2011  assets */\n      dup6\n        /* \"https://github.com/transmissions11/solmate/blob/main/src/tokens/ERC4626.sol\":2013:2019  shares */\n      dup5\n        /* \"https://github.com/transmissions11/solmate/blob/main/src/tokens/ERC4626.sol\":1975:2020  Deposit(msg.sender, receiver, assets, shares) */\n      mload(0x40)\n      tag_200\n      swap3\n      swap2\n      swap1\n      tag_201\n      jump\t// in\n    tag_200:\n      mload(0x40)\n      dup1\n      swap2\n      sub\n      swap1\n      log3\n        /* \"https://github.com/transmissions11/solmate/blob/main/src/tokens/ERC4626.sol\":2031:2059  afterDeposit(assets, shares) */\n      tag_202\n        /* \"https://github.com/transmissions11/solmate/blob/main/src/tokens/ERC4626.sol\":2044:2050  assets */\n      dup4\n        /* \"https://github.com/transmissions11/solmate/blob/main/src/tokens/ERC4626.sol\":2052:2058  shares */\n      dup3\n        /* \"https://github.com/transmissions11/solmate/blob/main/src/tokens/ERC4626.sol\":2031:2043  afterDeposit */\n      tag_203\n        /* \"https://github.com/transmissions11/solmate/blob/main/src/tokens/ERC4626.sol\":2031:2059  afterDeposit(assets, shares) */\n      jump\t// in\n    tag_202:\n        /* \"https://github.com/transmissions11/solmate/blob/main/src/tokens/ERC4626.sol\":1550:2066  function deposit(uint256 assets, address receiver) public virtual returns (uint256 shares) {... */\n      swap3\n      swap2\n      pop\n      pop\n      jump\t// out\n        /* \"https://github.com/transmissions11/solmate/blob/main/src/tokens/ERC20.sol\":1337:1381  mapping(address => uint256) public balanceOf */\n    tag_97:\n      mstore(0x20, 0x03)\n      dup1\n      0x00\n      mstore\n      keccak256(0x00, 0x40)\n      0x00\n      swap2\n      pop\n      swap1\n      pop\n      sload\n      dup2\n      jump\t// out\n        /* \"https://github.com/transmissions11/solmate/blob/main/src/tokens/ERC20.sol\":1751:1792  mapping(address => uint256) public nonces */\n    tag_101:\n      mstore(0x20, 0x05)\n      dup1\n      0x00\n      mstore\n      keccak256(0x00, 0x40)\n      0x00\n      swap2\n      pop\n      swap1\n      pop\n      sload\n      dup2\n      jump\t// out\n        /* \"https://github.com/transmissions11/solmate/blob/main/src/tokens/ERC4626.sol\":2072:2539  function mint(uint256 shares, address receiver) public virtual returns (uint256 assets) {... */\n    tag_105:\n        /* \"https://github.com/transmissions11/solmate/blob/main/src/tokens/ERC4626.sol\":2144:2158  uint256 assets */\n      0x00\n        /* \"https://github.com/transmissions11/solmate/blob/main/src/tokens/ERC4626.sol\":2179:2198  previewMint(shares) */\n      tag_205\n        /* \"https://github.com/transmissions11/solmate/blob/main/src/tokens/ERC4626.sol\":2191:2197  shares */\n      dup4\n        /* \"https://github.com/transmissions11/solmate/blob/main/src/tokens/ERC4626.sol\":2179:2190  previewMint */\n      tag_116\n        /* \"https://github.com/transmissions11/solmate/blob/main/src/tokens/ERC4626.sol\":2179:2198  previewMint(shares) */\n      jump\t// in\n    tag_205:\n        /* \"https://github.com/transmissions11/solmate/blob/main/src/tokens/ERC4626.sol\":2170:2198  assets = previewMint(shares) */\n      swap1\n      pop\n        /* \"https://github.com/transmissions11/solmate/blob/main/src/tokens/ERC4626.sol\":2341:2398  asset.safeTransferFrom(msg.sender, address(this), assets) */\n      tag_206\n        /* \"https://github.com/transmissions11/solmate/blob/main/src/tokens/ERC4626.sol\":2364:2374  msg.sender */\n      caller\n        /* \"https://github.com/transmissions11/solmate/blob/main/src/tokens/ERC4626.sol\":2384:2388  this */\n      address\n        /* \"https://github.com/transmissions11/solmate/blob/main/src/tokens/ERC4626.sol\":2391:2397  assets */\n      dup4\n        /* \"https://github.com/transmissions11/solmate/blob/main/src/tokens/ERC4626.sol\":2341:2346  asset */\n      immutable(\"0xcce53c114a2b1a6aca1689829ad3f0fe22ece37ee649b7e0d854100cbad0f4f5\")\n        /* \"https://github.com/transmissions11/solmate/blob/main/src/tokens/ERC4626.sol\":2341:2363  asset.safeTransferFrom */\n      0xffffffffffffffffffffffffffffffffffffffff\n      and\n      tag_197\n      swap1\n        /* \"https://github.com/transmissions11/solmate/blob/main/src/tokens/ERC4626.sol\":2341:2398  asset.safeTransferFrom(msg.sender, address(this), assets) */\n      swap4\n      swap3\n      swap2\n      swap1\n      0xffffffff\n      and\n      jump\t// in\n    tag_206:\n        /* \"https://github.com/transmissions11/solmate/blob/main/src/tokens/ERC4626.sol\":2409:2432  _mint(receiver, shares) */\n      tag_207\n        /* \"https://github.com/transmissions11/solmate/blob/main/src/tokens/ERC4626.sol\":2415:2423  receiver */\n      dup3\n        /* \"https://github.com/transmissions11/solmate/blob/main/src/tokens/ERC4626.sol\":2425:2431  shares */\n      dup5\n        /* \"https://github.com/transmissions11/solmate/blob/main/src/tokens/ERC4626.sol\":2409:2414  _mint */\n      tag_199\n        /* \"https://github.com/transmissions11/solmate/blob/main/src/tokens/ERC4626.sol\":2409:2432  _mint(receiver, shares) */\n      jump\t// in\n    tag_207:\n        /* \"https://github.com/transmissions11/solmate/blob/main/src/tokens/ERC4626.sol\":2468:2476  receiver */\n      dup2\n        /* \"https://github.com/transmissions11/solmate/blob/main/src/tokens/ERC4626.sol\":2448:2493  Deposit(msg.sender, receiver, assets, shares) */\n      0xffffffffffffffffffffffffffffffffffffffff\n      and\n        /* \"https://github.com/transmissions11/solmate/blob/main/src/tokens/ERC4626.sol\":2456:2466  msg.sender */\n      caller\n        /* \"https://github.com/transmissions11/solmate/blob/main/src/tokens/ERC4626.sol\":2448:2493  Deposit(msg.sender, receiver, assets, shares) */\n      0xffffffffffffffffffffffffffffffffffffffff\n      and\n      0xdcbc1c05240f31ff3ad067ef1ee35ce4997762752e3a095284754544f4c709d7\n        /* \"https://github.com/transmissions11/solmate/blob/main/src/tokens/ERC4626.sol\":2478:2484  assets */\n      dup4\n        /* \"https://github.com/transmissions11/solmate/blob/main/src/tokens/ERC4626.sol\":2486:2492  shares */\n      dup7\n        /* \"https://github.com/transmissions11/solmate/blob/main/src/tokens/ERC4626.sol\":2448:2493  Deposit(msg.sender, receiver, assets, shares) */\n      mload(0x40)\n      tag_208\n      swap3\n      swap2\n      swap1\n      tag_201\n      jump\t// in\n    tag_208:\n      mload(0x40)\n      dup1\n      swap2\n      sub\n      swap1\n      log3\n        /* \"https://github.com/transmissions11/solmate/blob/main/src/tokens/ERC4626.sol\":2504:2532  afterDeposit(assets, shares) */\n      tag_209\n        /* \"https://github.com/transmissions11/solmate/blob/main/src/tokens/ERC4626.sol\":2517:2523  assets */\n      dup2\n        /* \"https://github.com/transmissions11/solmate/blob/main/src/tokens/ERC4626.sol\":2525:2531  shares */\n      dup5\n        /* \"https://github.com/transmissions11/solmate/blob/main/src/tokens/ERC4626.sol\":2504:2516  afterDeposit */\n      tag_203\n        /* \"https://github.com/transmissions11/solmate/blob/main/src/tokens/ERC4626.sol\":2504:2532  afterDeposit(assets, shares) */\n      jump\t// in\n    tag_209:\n        /* \"https://github.com/transmissions11/solmate/blob/main/src/tokens/ERC4626.sol\":2072:2539  function mint(uint256 shares, address receiver) public virtual returns (uint256 assets) {... */\n      swap3\n      swap2\n      pop\n      pop\n      jump\t// out\n        /* \"https://github.com/transmissions11/solmate/blob/main/src/tokens/ERC20.sol\":1056:1076  string public symbol */\n    tag_108:\n      0x01\n      dup1\n      sload\n      tag_210\n      swap1\n      tag_158\n      jump\t// in\n    tag_210:\n      dup1\n      0x1f\n      add\n      0x20\n      dup1\n      swap2\n      div\n      mul\n      0x20\n      add\n      mload(0x40)\n      swap1\n      dup2\n      add\n      0x40\n      mstore\n      dup1\n      swap3\n      swap2\n      swap1\n      dup2\n      dup2\n      mstore\n      0x20\n      add\n      dup3\n      dup1\n      sload\n      tag_211\n      swap1\n      tag_158\n      jump\t// in\n    tag_211:\n      dup1\n      iszero\n      tag_212\n      jumpi\n      dup1\n      0x1f\n      lt\n      tag_213\n      jumpi\n      0x0100\n      dup1\n      dup4\n      sload\n      div\n      mul\n      dup4\n      mstore\n      swap2\n      0x20\n      add\n      swap2\n      jump(tag_212)\n    tag_213:\n      dup3\n      add\n      swap2\n      swap1\n      0x00\n      mstore\n      keccak256(0x00, 0x20)\n      swap1\n    tag_214:\n      dup2\n      sload\n      dup2\n      mstore\n      swap1\n      0x01\n      add\n      swap1\n      0x20\n      add\n      dup1\n      dup4\n      gt\n      tag_214\n      jumpi\n      dup3\n      swap1\n      sub\n      0x1f\n      and\n      dup3\n      add\n      swap2\n    tag_212:\n      pop\n      pop\n      pop\n      pop\n      pop\n      dup2\n      jump\t// out\n        /* \"https://github.com/transmissions11/solmate/blob/main/src/tokens/ERC20.sol\":2678:3051  function transfer(address to, uint256 amount) public virtual returns (bool) {... */\n    tag_112:\n        /* \"https://github.com/transmissions11/solmate/blob/main/src/tokens/ERC20.sol\":2748:2752  bool */\n      0x00\n        /* \"https://github.com/transmissions11/solmate/blob/main/src/tokens/ERC20.sol\":2789:2795  amount */\n      dup2\n        /* \"https://github.com/transmissions11/solmate/blob/main/src/tokens/ERC20.sol\":2764:2773  balanceOf */\n      0x03\n        /* \"https://github.com/transmissions11/solmate/blob/main/src/tokens/ERC20.sol\":2764:2785  balanceOf[msg.sender] */\n      0x00\n        /* \"https://github.com/transmissions11/solmate/blob/main/src/tokens/ERC20.sol\":2774:2784  msg.sender */\n      caller\n        /* \"https://github.com/transmissions11/solmate/blob/main/src/tokens/ERC20.sol\":2764:2785  balanceOf[msg.sender] */\n      0xffffffffffffffffffffffffffffffffffffffff\n      and\n      0xffffffffffffffffffffffffffffffffffffffff\n      and\n      dup2\n      mstore\n      0x20\n      add\n      swap1\n      dup2\n      mstore\n      0x20\n      add\n      0x00\n      keccak256\n      0x00\n        /* \"https://github.com/transmissions11/solmate/blob/main/src/tokens/ERC20.sol\":2764:2795  balanceOf[msg.sender] -= amount */\n      dup3\n      dup3\n      sload\n      tag_216\n      swap2\n      swap1\n      tag_180\n      jump\t// in\n    tag_216:\n      swap3\n      pop\n      pop\n      dup2\n      swap1\n      sstore\n      pop\n        /* \"https://github.com/transmissions11/solmate/blob/main/src/tokens/ERC20.sol\":2958:2964  amount */\n      dup2\n        /* \"https://github.com/transmissions11/solmate/blob/main/src/tokens/ERC20.sol\":2941:2950  balanceOf */\n      0x03\n        /* \"https://github.com/transmissions11/solmate/blob/main/src/tokens/ERC20.sol\":2941:2954  balanceOf[to] */\n      0x00\n        /* \"https://github.com/transmissions11/solmate/blob/main/src/tokens/ERC20.sol\":2951:2953  to */\n      dup6\n        /* \"https://github.com/transmissions11/solmate/blob/main/src/tokens/ERC20.sol\":2941:2954  balanceOf[to] */\n      0xffffffffffffffffffffffffffffffffffffffff\n      and\n      0xffffffffffffffffffffffffffffffffffffffff\n      and\n      dup2\n      mstore\n      0x20\n      add\n      swap1\n      dup2\n      mstore\n      0x20\n      add\n      0x00\n      keccak256\n      0x00\n        /* \"https://github.com/transmissions11/solmate/blob/main/src/tokens/ERC20.sol\":2941:2964  balanceOf[to] += amount */\n      dup3\n      dup3\n      sload\n      add\n      swap3\n      pop\n      pop\n      dup2\n      swap1\n      sstore\n      pop\n        /* \"https://github.com/transmissions11/solmate/blob/main/src/tokens/ERC20.sol\":3011:3013  to */\n      dup3\n        /* \"https://github.com/transmissions11/solmate/blob/main/src/tokens/ERC20.sol\":2990:3022  Transfer(msg.sender, to, amount) */\n      0xffffffffffffffffffffffffffffffffffffffff\n      and\n        /* \"https://github.com/transmissions11/solmate/blob/main/src/tokens/ERC20.sol\":2999:3009  msg.sender */\n      caller\n        /* \"https://github.com/transmissions11/solmate/blob/main/src/tokens/ERC20.sol\":2990:3022  Transfer(msg.sender, to, amount) */\n      0xffffffffffffffffffffffffffffffffffffffff\n      and\n      0xddf252ad1be2c89b69c2b068fc378daa952ba7f163c4a11628f55a4df523b3ef\n        /* \"https://github.com/transmissions11/solmate/blob/main/src/tokens/ERC20.sol\":3015:3021  amount */\n      dup5\n        /* \"https://github.com/transmissions11/solmate/blob/main/src/tokens/ERC20.sol\":2990:3022  Transfer(msg.sender, to, amount) */\n      mload(0x40)\n      tag_217\n      swap2\n      swap1\n      tag_41\n      jump\t// in\n    tag_217:\n      mload(0x40)\n      dup1\n      swap2\n      sub\n      swap1\n      log3\n        /* \"https://github.com/transmissions11/solmate/blob/main/src/tokens/ERC20.sol\":3040:3044  true */\n      0x01\n        /* \"https://github.com/transmissions11/solmate/blob/main/src/tokens/ERC20.sol\":3033:3044  return true */\n      swap1\n      pop\n        /* \"https://github.com/transmissions11/solmate/blob/main/src/tokens/ERC20.sol\":2678:3051  function transfer(address to, uint256 amount) public virtual returns (bool) {... */\n      swap3\n      swap2\n      pop\n      pop\n      jump\t// out\n        /* \"https://github.com/transmissions11/solmate/blob/main/src/tokens/ERC4626.sol\":4857:5108  function previewMint(uint256 shares) public view virtual returns (uint256) {... */\n    tag_116:\n        /* \"https://github.com/transmissions11/solmate/blob/main/src/tokens/ERC4626.sol\":4923:4930  uint256 */\n      0x00\n        /* \"https://github.com/transmissions11/solmate/blob/main/src/tokens/ERC4626.sol\":4942:4956  uint256 supply */\n      0x00\n        /* \"https://github.com/transmissions11/solmate/blob/main/src/tokens/ERC4626.sol\":4959:4970  totalSupply */\n      sload(0x02)\n        /* \"https://github.com/transmissions11/solmate/blob/main/src/tokens/ERC4626.sol\":4942:4970  uint256 supply = totalSupply */\n      swap1\n      pop\n        /* \"https://github.com/transmissions11/solmate/blob/main/src/tokens/ERC4626.sol\":5050:5051  0 */\n      0x00\n        /* \"https://github.com/transmissions11/solmate/blob/main/src/tokens/ERC4626.sol\":5040:5046  supply */\n      dup2\n        /* \"https://github.com/transmissions11/solmate/blob/main/src/tokens/ERC4626.sol\":5040:5051  supply == 0 */\n      eq\n        /* \"https://github.com/transmissions11/solmate/blob/main/src/tokens/ERC4626.sol\":5040:5101  supply == 0 ? shares : shares.mulDivUp(totalAssets(), supply) */\n      tag_219\n      jumpi\n        /* \"https://github.com/transmissions11/solmate/blob/main/src/tokens/ERC4626.sol\":5063:5101  shares.mulDivUp(totalAssets(), supply) */\n      tag_220\n        /* \"https://github.com/transmissions11/solmate/blob/main/src/tokens/ERC4626.sol\":5079:5092  totalAssets() */\n      tag_221\n        /* \"https://github.com/transmissions11/solmate/blob/main/src/tokens/ERC4626.sol\":5079:5090  totalAssets */\n      tag_39\n        /* \"https://github.com/transmissions11/solmate/blob/main/src/tokens/ERC4626.sol\":5079:5092  totalAssets() */\n      jump\t// in\n    tag_221:\n        /* \"https://github.com/transmissions11/solmate/blob/main/src/tokens/ERC4626.sol\":5094:5100  supply */\n      dup3\n        /* \"https://github.com/transmissions11/solmate/blob/main/src/tokens/ERC4626.sol\":5063:5069  shares */\n      dup6\n        /* \"https://github.com/transmissions11/solmate/blob/main/src/tokens/ERC4626.sol\":5063:5078  shares.mulDivUp */\n      tag_175\n      swap1\n        /* \"https://github.com/transmissions11/solmate/blob/main/src/tokens/ERC4626.sol\":5063:5101  shares.mulDivUp(totalAssets(), supply) */\n      swap3\n      swap2\n      swap1\n      0xffffffff\n      and\n      jump\t// in\n    tag_220:\n        /* \"https://github.com/transmissions11/solmate/blob/main/src/tokens/ERC4626.sol\":5040:5101  supply == 0 ? shares : shares.mulDivUp(totalAssets(), supply) */\n      jump(tag_222)\n    tag_219:\n        /* \"https://github.com/transmissions11/solmate/blob/main/src/tokens/ERC4626.sol\":5054:5060  shares */\n      dup3\n        /* \"https://github.com/transmissions11/solmate/blob/main/src/tokens/ERC4626.sol\":5040:5101  supply == 0 ? shares : shares.mulDivUp(totalAssets(), supply) */\n    tag_222:\n        /* \"https://github.com/transmissions11/solmate/blob/main/src/tokens/ERC4626.sol\":5033:5101  return supply == 0 ? shares : shares.mulDivUp(totalAssets(), supply) */\n      swap2\n      pop\n      pop\n        /* \"https://github.com/transmissions11/solmate/blob/main/src/tokens/ERC4626.sol\":4857:5108  function previewMint(uint256 shares) public view virtual returns (uint256) {... */\n      swap2\n      swap1\n      pop\n      jump\t// out\n        /* \"https://github.com/transmissions11/solmate/blob/main/src/tokens/ERC4626.sol\":2545:3224  function withdraw(... */\n    tag_121:\n        /* \"https://github.com/transmissions11/solmate/blob/main/src/tokens/ERC4626.sol\":2666:2680  uint256 shares */\n      0x00\n        /* \"https://github.com/transmissions11/solmate/blob/main/src/tokens/ERC4626.sol\":2701:2724  previewWithdraw(assets) */\n      tag_224\n        /* \"https://github.com/transmissions11/solmate/blob/main/src/tokens/ERC4626.sol\":2717:2723  assets */\n      dup5\n        /* \"https://github.com/transmissions11/solmate/blob/main/src/tokens/ERC4626.sol\":2701:2716  previewWithdraw */\n      tag_59\n        /* \"https://github.com/transmissions11/solmate/blob/main/src/tokens/ERC4626.sol\":2701:2724  previewWithdraw(assets) */\n      jump\t// in\n    tag_224:\n        /* \"https://github.com/transmissions11/solmate/blob/main/src/tokens/ERC4626.sol\":2692:2724  shares = previewWithdraw(assets) */\n      swap1\n      pop\n        /* \"https://github.com/transmissions11/solmate/blob/main/src/tokens/ERC4626.sol\":2820:2825  owner */\n      dup2\n        /* \"https://github.com/transmissions11/solmate/blob/main/src/tokens/ERC4626.sol\":2806:2825  msg.sender != owner */\n      0xffffffffffffffffffffffffffffffffffffffff\n      and\n        /* \"https://github.com/transmissions11/solmate/blob/main/src/tokens/ERC4626.sol\":2806:2816  msg.sender */\n      caller\n        /* \"https://github.com/transmissions11/solmate/blob/main/src/tokens/ERC4626.sol\":2806:2825  msg.sender != owner */\n      0xffffffffffffffffffffffffffffffffffffffff\n      and\n      eq\n        /* \"https://github.com/transmissions11/solmate/blob/main/src/tokens/ERC4626.sol\":2802:3030  if (msg.sender != owner) {... */\n      tag_225\n      jumpi\n        /* \"https://github.com/transmissions11/solmate/blob/main/src/tokens/ERC4626.sol\":2841:2856  uint256 allowed */\n      0x00\n        /* \"https://github.com/transmissions11/solmate/blob/main/src/tokens/ERC4626.sol\":2859:2868  allowance */\n      0x04\n        /* \"https://github.com/transmissions11/solmate/blob/main/src/tokens/ERC4626.sol\":2859:2875  allowance[owner] */\n      0x00\n        /* \"https://github.com/transmissions11/solmate/blob/main/src/tokens/ERC4626.sol\":2869:2874  owner */\n      dup5\n        /* \"https://github.com/transmissions11/solmate/blob/main/src/tokens/ERC4626.sol\":2859:2875  allowance[owner] */\n      0xffffffffffffffffffffffffffffffffffffffff\n      and\n      0xffffffffffffffffffffffffffffffffffffffff\n      and\n      dup2\n      mstore\n      0x20\n      add\n      swap1\n      dup2\n      mstore\n      0x20\n      add\n      0x00\n      keccak256\n        /* \"https://github.com/transmissions11/solmate/blob/main/src/tokens/ERC4626.sol\":2859:2887  allowance[owner][msg.sender] */\n      0x00\n        /* \"https://github.com/transmissions11/solmate/blob/main/src/tokens/ERC4626.sol\":2876:2886  msg.sender */\n      caller\n        /* \"https://github.com/transmissions11/solmate/blob/main/src/tokens/ERC4626.sol\":2859:2887  allowance[owner][msg.sender] */\n      0xffffffffffffffffffffffffffffffffffffffff\n      and\n      0xffffffffffffffffffffffffffffffffffffffff\n      and\n      dup2\n      mstore\n      0x20\n      add\n      swap1\n      dup2\n      mstore\n      0x20\n      add\n      0x00\n      keccak256\n      sload\n        /* \"https://github.com/transmissions11/solmate/blob/main/src/tokens/ERC4626.sol\":2841:2887  uint256 allowed = allowance[owner][msg.sender] */\n      swap1\n      pop\n        /* \"https://github.com/transmissions11/solmate/blob/main/src/tokens/ERC4626.sol\":2953:2970  type(uint256).max */\n      0xffffffffffffffffffffffffffffffffffffffffffffffffffffffffffffffff\n        /* \"https://github.com/transmissions11/solmate/blob/main/src/tokens/ERC4626.sol\":2942:2949  allowed */\n      dup2\n        /* \"https://github.com/transmissions11/solmate/blob/main/src/tokens/ERC4626.sol\":2942:2970  allowed != type(uint256).max */\n      eq\n        /* \"https://github.com/transmissions11/solmate/blob/main/src/tokens/ERC4626.sol\":2938:3019  if (allowed != type(uint256).max) allowance[owner][msg.sender] = allowed - shares */\n      tag_226\n      jumpi\n        /* \"https://github.com/transmissions11/solmate/blob/main/src/tokens/ERC4626.sol\":3013:3019  shares */\n      dup2\n        /* \"https://github.com/transmissions11/solmate/blob/main/src/tokens/ERC4626.sol\":3003:3010  allowed */\n      dup2\n        /* \"https://github.com/transmissions11/solmate/blob/main/src/tokens/ERC4626.sol\":3003:3019  allowed - shares */\n      tag_227\n      swap2\n      swap1\n      tag_180\n      jump\t// in\n    tag_227:\n        /* \"https://github.com/transmissions11/solmate/blob/main/src/tokens/ERC4626.sol\":2972:2981  allowance */\n      0x04\n        /* \"https://github.com/transmissions11/solmate/blob/main/src/tokens/ERC4626.sol\":2972:2988  allowance[owner] */\n      0x00\n        /* \"https://github.com/transmissions11/solmate/blob/main/src/tokens/ERC4626.sol\":2982:2987  owner */\n      dup6\n        /* \"https://github.com/transmissions11/solmate/blob/main/src/tokens/ERC4626.sol\":2972:2988  allowance[owner] */\n      0xffffffffffffffffffffffffffffffffffffffff\n      and\n      0xffffffffffffffffffffffffffffffffffffffff\n      and\n      dup2\n      mstore\n      0x20\n      add\n      swap1\n      dup2\n      mstore\n      0x20\n      add\n      0x00\n      keccak256\n        /* \"https://github.com/transmissions11/solmate/blob/main/src/tokens/ERC4626.sol\":2972:3000  allowance[owner][msg.sender] */\n      0x00\n        /* \"https://github.com/transmissions11/solmate/blob/main/src/tokens/ERC4626.sol\":2989:2999  msg.sender */\n      caller\n        /* \"https://github.com/transmissions11/solmate/blob/main/src/tokens/ERC4626.sol\":2972:3000  allowance[owner][msg.sender] */\n      0xffffffffffffffffffffffffffffffffffffffff\n      and\n      0xffffffffffffffffffffffffffffffffffffffff\n      and\n      dup2\n      mstore\n      0x20\n      add\n      swap1\n      dup2\n      mstore\n      0x20\n      add\n      0x00\n      keccak256\n        /* \"https://github.com/transmissions11/solmate/blob/main/src/tokens/ERC4626.sol\":2972:3019  allowance[owner][msg.sender] = allowed - shares */\n      dup2\n      swap1\n      sstore\n      pop\n        /* \"https://github.com/transmissions11/solmate/blob/main/src/tokens/ERC4626.sol\":2938:3019  if (allowed != type(uint256).max) allowance[owner][msg.sender] = allowed - shares */\n    tag_226:\n        /* \"https://github.com/transmissions11/solmate/blob/main/src/tokens/ERC4626.sol\":2827:3030  {... */\n      pop\n        /* \"https://github.com/transmissions11/solmate/blob/main/src/tokens/ERC4626.sol\":2802:3030  if (msg.sender != owner) {... */\n    tag_225:\n        /* \"https://github.com/transmissions11/solmate/blob/main/src/tokens/ERC4626.sol\":3040:3070  beforeWithdraw(assets, shares) */\n      tag_228\n        /* \"https://github.com/transmissions11/solmate/blob/main/src/tokens/ERC4626.sol\":3055:3061  assets */\n      dup5\n        /* \"https://github.com/transmissions11/solmate/blob/main/src/tokens/ERC4626.sol\":3063:3069  shares */\n      dup3\n        /* \"https://github.com/transmissions11/solmate/blob/main/src/tokens/ERC4626.sol\":3040:3054  beforeWithdraw */\n      tag_229\n        /* \"https://github.com/transmissions11/solmate/blob/main/src/tokens/ERC4626.sol\":3040:3070  beforeWithdraw(assets, shares) */\n      jump\t// in\n    tag_228:\n        /* \"https://github.com/transmissions11/solmate/blob/main/src/tokens/ERC4626.sol\":3081:3101  _burn(owner, shares) */\n      tag_230\n        /* \"https://github.com/transmissions11/solmate/blob/main/src/tokens/ERC4626.sol\":3087:3092  owner */\n      dup3\n        /* \"https://github.com/transmissions11/solmate/blob/main/src/tokens/ERC4626.sol\":3094:3100  shares */\n      dup3\n        /* \"https://github.com/transmissions11/solmate/blob/main/src/tokens/ERC4626.sol\":3081:3086  _burn */\n      tag_231\n        /* \"https://github.com/transmissions11/solmate/blob/main/src/tokens/ERC4626.sol\":3081:3101  _burn(owner, shares) */\n      jump\t// in\n    tag_230:\n        /* \"https://github.com/transmissions11/solmate/blob/main/src/tokens/ERC4626.sol\":3148:3153  owner */\n      dup2\n        /* \"https://github.com/transmissions11/solmate/blob/main/src/tokens/ERC4626.sol\":3117:3170  Withdraw(msg.sender, receiver, owner, assets, shares) */\n      0xffffffffffffffffffffffffffffffffffffffff\n      and\n        /* \"https://github.com/transmissions11/solmate/blob/main/src/tokens/ERC4626.sol\":3138:3146  receiver */\n      dup4\n        /* \"https://github.com/transmissions11/solmate/blob/main/src/tokens/ERC4626.sol\":3117:3170  Withdraw(msg.sender, receiver, owner, assets, shares) */\n      0xffffffffffffffffffffffffffffffffffffffff\n      and\n        /* \"https://github.com/transmissions11/solmate/blob/main/src/tokens/ERC4626.sol\":3126:3136  msg.sender */\n      caller\n        /* \"https://github.com/transmissions11/solmate/blob/main/src/tokens/ERC4626.sol\":3117:3170  Withdraw(msg.sender, receiver, owner, assets, shares) */\n      0xffffffffffffffffffffffffffffffffffffffff\n      and\n      0xfbde797d201c681b91056529119e0b02407c7bb96a4a2c75c01fc9667232c8db\n        /* \"https://github.com/transmissions11/solmate/blob/main/src/tokens/ERC4626.sol\":3155:3161  assets */\n      dup8\n        /* \"https://github.com/transmissions11/solmate/blob/main/src/tokens/ERC4626.sol\":3163:3169  shares */\n      dup6\n        /* \"https://github.com/transmissions11/solmate/blob/main/src/tokens/ERC4626.sol\":3117:3170  Withdraw(msg.sender, receiver, owner, assets, shares) */\n      mload(0x40)\n      tag_232\n      swap3\n      swap2\n      swap1\n      tag_201\n      jump\t// in\n    tag_232:\n      mload(0x40)\n      dup1\n      swap2\n      sub\n      swap1\n      log4\n        /* \"https://github.com/transmissions11/solmate/blob/main/src/tokens/ERC4626.sol\":3181:3217  asset.safeTransfer(receiver, assets) */\n      tag_233\n        /* \"https://github.com/transmissions11/solmate/blob/main/src/tokens/ERC4626.sol\":3200:3208  receiver */\n      dup4\n        /* \"https://github.com/transmissions11/solmate/blob/main/src/tokens/ERC4626.sol\":3210:3216  assets */\n      dup6\n        /* \"https://github.com/transmissions11/solmate/blob/main/src/tokens/ERC4626.sol\":3181:3186  asset */\n      immutable(\"0xcce53c114a2b1a6aca1689829ad3f0fe22ece37ee649b7e0d854100cbad0f4f5\")\n        /* \"https://github.com/transmissions11/solmate/blob/main/src/tokens/ERC4626.sol\":3181:3199  asset.safeTransfer */\n      0xffffffffffffffffffffffffffffffffffffffff\n      and\n      tag_234\n      swap1\n        /* \"https://github.com/transmissions11/solmate/blob/main/src/tokens/ERC4626.sol\":3181:3217  asset.safeTransfer(receiver, assets) */\n      swap3\n      swap2\n      swap1\n      0xffffffff\n      and\n      jump\t// in\n    tag_233:\n        /* \"https://github.com/transmissions11/solmate/blob/main/src/tokens/ERC4626.sol\":2545:3224  function withdraw(... */\n      swap4\n      swap3\n      pop\n      pop\n      pop\n      jump\t// out\n        /* \"https://github.com/transmissions11/solmate/blob/main/src/tokens/ERC4626.sol\":3230:3943  function redeem(... */\n    tag_125:\n        /* \"https://github.com/transmissions11/solmate/blob/main/src/tokens/ERC4626.sol\":3349:3363  uint256 assets */\n      0x00\n        /* \"https://github.com/transmissions11/solmate/blob/main/src/tokens/ERC4626.sol\":3393:3398  owner */\n      dup2\n        /* \"https://github.com/transmissions11/solmate/blob/main/src/tokens/ERC4626.sol\":3379:3398  msg.sender != owner */\n      0xffffffffffffffffffffffffffffffffffffffff\n      and\n        /* \"https://github.com/transmissions11/solmate/blob/main/src/tokens/ERC4626.sol\":3379:3389  msg.sender */\n      caller\n        /* \"https://github.com/transmissions11/solmate/blob/main/src/tokens/ERC4626.sol\":3379:3398  msg.sender != owner */\n      0xffffffffffffffffffffffffffffffffffffffff\n      and\n      eq\n        /* \"https://github.com/transmissions11/solmate/blob/main/src/tokens/ERC4626.sol\":3375:3603  if (msg.sender != owner) {... */\n      tag_236\n      jumpi\n        /* \"https://github.com/transmissions11/solmate/blob/main/src/tokens/ERC4626.sol\":3414:3429  uint256 allowed */\n      0x00\n        /* \"https://github.com/transmissions11/solmate/blob/main/src/tokens/ERC4626.sol\":3432:3441  allowance */\n      0x04\n        /* \"https://github.com/transmissions11/solmate/blob/main/src/tokens/ERC4626.sol\":3432:3448  allowance[owner] */\n      0x00\n        /* \"https://github.com/transmissions11/solmate/blob/main/src/tokens/ERC4626.sol\":3442:3447  owner */\n      dup5\n        /* \"https://github.com/transmissions11/solmate/blob/main/src/tokens/ERC4626.sol\":3432:3448  allowance[owner] */\n      0xffffffffffffffffffffffffffffffffffffffff\n      and\n      0xffffffffffffffffffffffffffffffffffffffff\n      and\n      dup2\n      mstore\n      0x20\n      add\n      swap1\n      dup2\n      mstore\n      0x20\n      add\n      0x00\n      keccak256\n        /* \"https://github.com/transmissions11/solmate/blob/main/src/tokens/ERC4626.sol\":3432:3460  allowance[owner][msg.sender] */\n      0x00\n        /* \"https://github.com/transmissions11/solmate/blob/main/src/tokens/ERC4626.sol\":3449:3459  msg.sender */\n      caller\n        /* \"https://github.com/transmissions11/solmate/blob/main/src/tokens/ERC4626.sol\":3432:3460  allowance[owner][msg.sender] */\n      0xffffffffffffffffffffffffffffffffffffffff\n      and\n      0xffffffffffffffffffffffffffffffffffffffff\n      and\n      dup2\n      mstore\n      0x20\n      add\n      swap1\n      dup2\n      mstore\n      0x20\n      add\n      0x00\n      keccak256\n      sload\n        /* \"https://github.com/transmissions11/solmate/blob/main/src/tokens/ERC4626.sol\":3414:3460  uint256 allowed = allowance[owner][msg.sender] */\n      swap1\n      pop\n        /* \"https://github.com/transmissions11/solmate/blob/main/src/tokens/ERC4626.sol\":3526:3543  type(uint256).max */\n      0xffffffffffffffffffffffffffffffffffffffffffffffffffffffffffffffff\n        /* \"https://github.com/transmissions11/solmate/blob/main/src/tokens/ERC4626.sol\":3515:3522  allowed */\n      dup2\n        /* \"https://github.com/transmissions11/solmate/blob/main/src/tokens/ERC4626.sol\":3515:3543  allowed != type(uint256).max */\n      eq\n        /* \"https://github.com/transmissions11/solmate/blob/main/src/tokens/ERC4626.sol\":3511:3592  if (allowed != type(uint256).max) allowance[owner][msg.sender] = allowed - shares */\n      tag_237\n      jumpi\n        /* \"https://github.com/transmissions11/solmate/blob/main/src/tokens/ERC4626.sol\":3586:3592  shares */\n      dup5\n        /* \"https://github.com/transmissions11/solmate/blob/main/src/tokens/ERC4626.sol\":3576:3583  allowed */\n      dup2\n        /* \"https://github.com/transmissions11/solmate/blob/main/src/tokens/ERC4626.sol\":3576:3592  allowed - shares */\n      tag_238\n      swap2\n      swap1\n      tag_180\n      jump\t// in\n    tag_238:\n        /* \"https://github.com/transmissions11/solmate/blob/main/src/tokens/ERC4626.sol\":3545:3554  allowance */\n      0x04\n        /* \"https://github.com/transmissions11/solmate/blob/main/src/tokens/ERC4626.sol\":3545:3561  allowance[owner] */\n      0x00\n        /* \"https://github.com/transmissions11/solmate/blob/main/src/tokens/ERC4626.sol\":3555:3560  owner */\n      dup6\n        /* \"https://github.com/transmissions11/solmate/blob/main/src/tokens/ERC4626.sol\":3545:3561  allowance[owner] */\n      0xffffffffffffffffffffffffffffffffffffffff\n      and\n      0xffffffffffffffffffffffffffffffffffffffff\n      and\n      dup2\n      mstore\n      0x20\n      add\n      swap1\n      dup2\n      mstore\n      0x20\n      add\n      0x00\n      keccak256\n        /* \"https://github.com/transmissions11/solmate/blob/main/src/tokens/ERC4626.sol\":3545:3573  allowance[owner][msg.sender] */\n      0x00\n        /* \"https://github.com/transmissions11/solmate/blob/main/src/tokens/ERC4626.sol\":3562:3572  msg.sender */\n      caller\n        /* \"https://github.com/transmissions11/solmate/blob/main/src/tokens/ERC4626.sol\":3545:3573  allowance[owner][msg.sender] */\n      0xffffffffffffffffffffffffffffffffffffffff\n      and\n      0xffffffffffffffffffffffffffffffffffffffff\n      and\n      dup2\n      mstore\n      0x20\n      add\n      swap1\n      dup2\n      mstore\n      0x20\n      add\n      0x00\n      keccak256\n        /* \"https://github.com/transmissions11/solmate/blob/main/src/tokens/ERC4626.sol\":3545:3592  allowance[owner][msg.sender] = allowed - shares */\n      dup2\n      swap1\n      sstore\n      pop\n        /* \"https://github.com/transmissions11/solmate/blob/main/src/tokens/ERC4626.sol\":3511:3592  if (allowed != type(uint256).max) allowance[owner][msg.sender] = allowed - shares */\n    tag_237:\n        /* \"https://github.com/transmissions11/solmate/blob/main/src/tokens/ERC4626.sol\":3400:3603  {... */\n      pop\n        /* \"https://github.com/transmissions11/solmate/blob/main/src/tokens/ERC4626.sol\":3375:3603  if (msg.sender != owner) {... */\n    tag_236:\n        /* \"https://github.com/transmissions11/solmate/blob/main/src/tokens/ERC4626.sol\":3731:3732  0 */\n      0x00\n        /* \"https://github.com/transmissions11/solmate/blob/main/src/tokens/ERC4626.sol\":3705:3726  previewRedeem(shares) */\n      tag_239\n        /* \"https://github.com/transmissions11/solmate/blob/main/src/tokens/ERC4626.sol\":3719:3725  shares */\n      dup6\n        /* \"https://github.com/transmissions11/solmate/blob/main/src/tokens/ERC4626.sol\":3705:3718  previewRedeem */\n      tag_88\n        /* \"https://github.com/transmissions11/solmate/blob/main/src/tokens/ERC4626.sol\":3705:3726  previewRedeem(shares) */\n      jump\t// in\n    tag_239:\n        /* \"https://github.com/transmissions11/solmate/blob/main/src/tokens/ERC4626.sol\":3696:3726  assets = previewRedeem(shares) */\n      swap2\n      pop\n      dup2\n        /* \"https://github.com/transmissions11/solmate/blob/main/src/tokens/ERC4626.sol\":3695:3732  (assets = previewRedeem(shares)) != 0 */\n      sub\n        /* \"https://github.com/transmissions11/solmate/blob/main/src/tokens/ERC4626.sol\":3687:3748  require((assets = previewRedeem(shares)) != 0, \"ZERO_ASSETS\") */\n      tag_240\n      jumpi\n      mload(0x40)\n      0x08c379a000000000000000000000000000000000000000000000000000000000\n      dup2\n      mstore\n      0x04\n      add\n      tag_241\n      swap1\n      tag_242\n      jump\t// in\n    tag_241:\n      mload(0x40)\n      dup1\n      swap2\n      sub\n      swap1\n      revert\n    tag_240:\n        /* \"https://github.com/transmissions11/solmate/blob/main/src/tokens/ERC4626.sol\":3759:3789  beforeWithdraw(assets, shares) */\n      tag_243\n        /* \"https://github.com/transmissions11/solmate/blob/main/src/tokens/ERC4626.sol\":3774:3780  assets */\n      dup2\n        /* \"https://github.com/transmissions11/solmate/blob/main/src/tokens/ERC4626.sol\":3782:3788  shares */\n      dup6\n        /* \"https://github.com/transmissions11/solmate/blob/main/src/tokens/ERC4626.sol\":3759:3773  beforeWithdraw */\n      tag_229\n        /* \"https://github.com/transmissions11/solmate/blob/main/src/tokens/ERC4626.sol\":3759:3789  beforeWithdraw(assets, shares) */\n      jump\t// in\n    tag_243:\n        /* \"https://github.com/transmissions11/solmate/blob/main/src/tokens/ERC4626.sol\":3800:3820  _burn(owner, shares) */\n      tag_244\n        /* \"https://github.com/transmissions11/solmate/blob/main/src/tokens/ERC4626.sol\":3806:3811  owner */\n      dup3\n        /* \"https://github.com/transmissions11/solmate/blob/main/src/tokens/ERC4626.sol\":3813:3819  shares */\n      dup6\n        /* \"https://github.com/transmissions11/solmate/blob/main/src/tokens/ERC4626.sol\":3800:3805  _burn */\n      tag_231\n        /* \"https://github.com/transmissions11/solmate/blob/main/src/tokens/ERC4626.sol\":3800:3820  _burn(owner, shares) */\n      jump\t// in\n    tag_244:\n        /* \"https://github.com/transmissions11/solmate/blob/main/src/tokens/ERC4626.sol\":3867:3872  owner */\n      dup2\n        /* \"https://github.com/transmissions11/solmate/blob/main/src/tokens/ERC4626.sol\":3836:3889  Withdraw(msg.sender, receiver, owner, assets, shares) */\n      0xffffffffffffffffffffffffffffffffffffffff\n      and\n        /* \"https://github.com/transmissions11/solmate/blob/main/src/tokens/ERC4626.sol\":3857:3865  receiver */\n      dup4\n        /* \"https://github.com/transmissions11/solmate/blob/main/src/tokens/ERC4626.sol\":3836:3889  Withdraw(msg.sender, receiver, owner, assets, shares) */\n      0xffffffffffffffffffffffffffffffffffffffff\n      and\n        /* \"https://github.com/transmissions11/solmate/blob/main/src/tokens/ERC4626.sol\":3845:3855  msg.sender */\n      caller\n        /* \"https://github.com/transmissions11/solmate/blob/main/src/tokens/ERC4626.sol\":3836:3889  Withdraw(msg.sender, receiver, owner, assets, shares) */\n      0xffffffffffffffffffffffffffffffffffffffff\n      and\n      0xfbde797d201c681b91056529119e0b02407c7bb96a4a2c75c01fc9667232c8db\n        /* \"https://github.com/transmissions11/solmate/blob/main/src/tokens/ERC4626.sol\":3874:3880  assets */\n      dup5\n        /* \"https://github.com/transmissions11/solmate/blob/main/src/tokens/ERC4626.sol\":3882:3888  shares */\n      dup9\n        /* \"https://github.com/transmissions11/solmate/blob/main/src/tokens/ERC4626.sol\":3836:3889  Withdraw(msg.sender, receiver, owner, assets, shares) */\n      mload(0x40)\n      tag_245\n      swap3\n      swap2\n      swap1\n      tag_201\n      jump\t// in\n    tag_245:\n      mload(0x40)\n      dup1\n      swap2\n      sub\n      swap1\n      log4\n        /* \"https://github.com/transmissions11/solmate/blob/main/src/tokens/ERC4626.sol\":3900:3936  asset.safeTransfer(receiver, assets) */\n      tag_246\n        /* \"https://github.com/transmissions11/solmate/blob/main/src/tokens/ERC4626.sol\":3919:3927  receiver */\n      dup4\n        /* \"https://github.com/transmissions11/solmate/blob/main/src/tokens/ERC4626.sol\":3929:3935  assets */\n      dup3\n        /* \"https://github.com/transmissions11/solmate/blob/main/src/tokens/ERC4626.sol\":3900:3905  asset */\n      immutable(\"0xcce53c114a2b1a6aca1689829ad3f0fe22ece37ee649b7e0d854100cbad0f4f5\")\n        /* \"https://github.com/transmissions11/solmate/blob/main/src/tokens/ERC4626.sol\":3900:3918  asset.safeTransfer */\n      0xffffffffffffffffffffffffffffffffffffffff\n      and\n      tag_234\n      swap1\n        /* \"https://github.com/transmissions11/solmate/blob/main/src/tokens/ERC4626.sol\":3900:3936  asset.safeTransfer(receiver, assets) */\n      swap3\n      swap2\n      swap1\n      0xffffffff\n      and\n      jump\t// in\n    tag_246:\n        /* \"https://github.com/transmissions11/solmate/blob/main/src/tokens/ERC4626.sol\":3230:3943  function redeem(... */\n      swap4\n      swap3\n      pop\n      pop\n      pop\n      jump\t// out\n        /* \"https://github.com/transmissions11/solmate/blob/main/src/tokens/ERC4626.sol\":5810:5915  function maxMint(address) public view virtual returns (uint256) {... */\n    tag_129:\n        /* \"https://github.com/transmissions11/solmate/blob/main/src/tokens/ERC4626.sol\":5865:5872  uint256 */\n      0x00\n        /* \"https://github.com/transmissions11/solmate/blob/main/src/tokens/ERC4626.sol\":5891:5908  type(uint256).max */\n      0xffffffffffffffffffffffffffffffffffffffffffffffffffffffffffffffff\n        /* \"https://github.com/transmissions11/solmate/blob/main/src/tokens/ERC4626.sol\":5884:5908  return type(uint256).max */\n      swap1\n      pop\n        /* \"https://github.com/transmissions11/solmate/blob/main/src/tokens/ERC4626.sol\":5810:5915  function maxMint(address) public view virtual returns (uint256) {... */\n      swap2\n      swap1\n      pop\n      jump\t// out\n        /* \"https://github.com/transmissions11/solmate/blob/main/src/tokens/ERC4626.sol\":4200:4457  function convertToShares(uint256 assets) public view virtual returns (uint256) {... */\n    tag_133:\n        /* \"https://github.com/transmissions11/solmate/blob/main/src/tokens/ERC4626.sol\":4270:4277  uint256 */\n      0x00\n        /* \"https://github.com/transmissions11/solmate/blob/main/src/tokens/ERC4626.sol\":4289:4303  uint256 supply */\n      0x00\n        /* \"https://github.com/transmissions11/solmate/blob/main/src/tokens/ERC4626.sol\":4306:4317  totalSupply */\n      sload(0x02)\n        /* \"https://github.com/transmissions11/solmate/blob/main/src/tokens/ERC4626.sol\":4289:4317  uint256 supply = totalSupply */\n      swap1\n      pop\n        /* \"https://github.com/transmissions11/solmate/blob/main/src/tokens/ERC4626.sol\":4397:4398  0 */\n      0x00\n        /* \"https://github.com/transmissions11/solmate/blob/main/src/tokens/ERC4626.sol\":4387:4393  supply */\n      dup2\n        /* \"https://github.com/transmissions11/solmate/blob/main/src/tokens/ERC4626.sol\":4387:4398  supply == 0 */\n      eq\n        /* \"https://github.com/transmissions11/solmate/blob/main/src/tokens/ERC4626.sol\":4387:4450  supply == 0 ? assets : assets.mulDivDown(supply, totalAssets()) */\n      tag_249\n      jumpi\n        /* \"https://github.com/transmissions11/solmate/blob/main/src/tokens/ERC4626.sol\":4410:4450  assets.mulDivDown(supply, totalAssets()) */\n      tag_250\n        /* \"https://github.com/transmissions11/solmate/blob/main/src/tokens/ERC4626.sol\":4428:4434  supply */\n      dup2\n        /* \"https://github.com/transmissions11/solmate/blob/main/src/tokens/ERC4626.sol\":4436:4449  totalAssets() */\n      tag_251\n        /* \"https://github.com/transmissions11/solmate/blob/main/src/tokens/ERC4626.sol\":4436:4447  totalAssets */\n      tag_39\n        /* \"https://github.com/transmissions11/solmate/blob/main/src/tokens/ERC4626.sol\":4436:4449  totalAssets() */\n      jump\t// in\n    tag_251:\n        /* \"https://github.com/transmissions11/solmate/blob/main/src/tokens/ERC4626.sol\":4410:4416  assets */\n      dup6\n        /* \"https://github.com/transmissions11/solmate/blob/main/src/tokens/ERC4626.sol\":4410:4427  assets.mulDivDown */\n      tag_167\n      swap1\n        /* \"https://github.com/transmissions11/solmate/blob/main/src/tokens/ERC4626.sol\":4410:4450  assets.mulDivDown(supply, totalAssets()) */\n      swap3\n      swap2\n      swap1\n      0xffffffff\n      and\n      jump\t// in\n    tag_250:\n        /* \"https://github.com/transmissions11/solmate/blob/main/src/tokens/ERC4626.sol\":4387:4450  supply == 0 ? assets : assets.mulDivDown(supply, totalAssets()) */\n      jump(tag_252)\n    tag_249:\n        /* \"https://github.com/transmissions11/solmate/blob/main/src/tokens/ERC4626.sol\":4401:4407  assets */\n      dup3\n        /* \"https://github.com/transmissions11/solmate/blob/main/src/tokens/ERC4626.sol\":4387:4450  supply == 0 ? assets : assets.mulDivDown(supply, totalAssets()) */\n    tag_252:\n        /* \"https://github.com/transmissions11/solmate/blob/main/src/tokens/ERC4626.sol\":4380:4450  return supply == 0 ? assets : assets.mulDivDown(supply, totalAssets()) */\n      swap2\n      pop\n      pop\n        /* \"https://github.com/transmissions11/solmate/blob/main/src/tokens/ERC4626.sol\":4200:4457  function convertToShares(uint256 assets) public view virtual returns (uint256) {... */\n      swap2\n      swap1\n      pop\n      jump\t// out\n        /* \"https://github.com/transmissions11/solmate/blob/main/src/tokens/ERC4626.sol\":5921:6052  function maxWithdraw(address owner) public view virtual returns (uint256) {... */\n    tag_137:\n        /* \"https://github.com/transmissions11/solmate/blob/main/src/tokens/ERC4626.sol\":5986:5993  uint256 */\n      0x00\n        /* \"https://github.com/transmissions11/solmate/blob/main/src/tokens/ERC4626.sol\":6012:6045  convertToAssets(balanceOf[owner]) */\n      tag_254\n        /* \"https://github.com/transmissions11/solmate/blob/main/src/tokens/ERC4626.sol\":6028:6037  balanceOf */\n      0x03\n        /* \"https://github.com/transmissions11/solmate/blob/main/src/tokens/ERC4626.sol\":6028:6044  balanceOf[owner] */\n      0x00\n        /* \"https://github.com/transmissions11/solmate/blob/main/src/tokens/ERC4626.sol\":6038:6043  owner */\n      dup5\n        /* \"https://github.com/transmissions11/solmate/blob/main/src/tokens/ERC4626.sol\":6028:6044  balanceOf[owner] */\n      0xffffffffffffffffffffffffffffffffffffffff\n      and\n      0xffffffffffffffffffffffffffffffffffffffff\n      and\n      dup2\n      mstore\n      0x20\n      add\n      swap1\n      dup2\n      mstore\n      0x20\n      add\n      0x00\n      keccak256\n      sload\n        /* \"https://github.com/transmissions11/solmate/blob/main/src/tokens/ERC4626.sol\":6012:6027  convertToAssets */\n      tag_49\n        /* \"https://github.com/transmissions11/solmate/blob/main/src/tokens/ERC4626.sol\":6012:6045  convertToAssets(balanceOf[owner]) */\n      jump\t// in\n    tag_254:\n        /* \"https://github.com/transmissions11/solmate/blob/main/src/tokens/ERC4626.sol\":6005:6045  return convertToAssets(balanceOf[owner]) */\n      swap1\n      pop\n        /* \"https://github.com/transmissions11/solmate/blob/main/src/tokens/ERC4626.sol\":5921:6052  function maxWithdraw(address owner) public view virtual returns (uint256) {... */\n      swap2\n      swap1\n      pop\n      jump\t// out\n        /* \"https://github.com/transmissions11/solmate/blob/main/src/tokens/ERC20.sol\":3838:5321  function permit(... */\n    tag_142:\n        /* \"https://github.com/transmissions11/solmate/blob/main/src/tokens/ERC20.sol\":4057:4072  block.timestamp */\n      timestamp\n        /* \"https://github.com/transmissions11/solmate/blob/main/src/tokens/ERC20.sol\":4045:4053  deadline */\n      dup5\n        /* \"https://github.com/transmissions11/solmate/blob/main/src/tokens/ERC20.sol\":4045:4072  deadline >= block.timestamp */\n      lt\n      iszero\n        /* \"https://github.com/transmissions11/solmate/blob/main/src/tokens/ERC20.sol\":4037:4100  require(deadline >= block.timestamp, \"PERMIT_DEADLINE_EXPIRED\") */\n      tag_256\n      jumpi\n      mload(0x40)\n      0x08c379a000000000000000000000000000000000000000000000000000000000\n      dup2\n      mstore\n      0x04\n      add\n      tag_257\n      swap1\n      tag_258\n      jump\t// in\n    tag_257:\n      mload(0x40)\n      dup1\n      swap2\n      sub\n      swap1\n      revert\n    tag_256:\n        /* \"https://github.com/transmissions11/solmate/blob/main/src/tokens/ERC20.sol\":4265:4289  address recoveredAddress */\n      0x00\n        /* \"https://github.com/transmissions11/solmate/blob/main/src/tokens/ERC20.sol\":4292:5097  ecrecover(... */\n      0x01\n        /* \"https://github.com/transmissions11/solmate/blob/main/src/tokens/ERC20.sol\":4428:4446  DOMAIN_SEPARATOR() */\n      tag_259\n        /* \"https://github.com/transmissions11/solmate/blob/main/src/tokens/ERC20.sol\":4428:4444  DOMAIN_SEPARATOR */\n      tag_74\n        /* \"https://github.com/transmissions11/solmate/blob/main/src/tokens/ERC20.sol\":4428:4446  DOMAIN_SEPARATOR() */\n      jump\t// in\n    tag_259:\n        /* \"https://github.com/transmissions11/solmate/blob/main/src/tokens/ERC20.sol\":4555:4720  keccak256(... */\n      0x6e71edae12b1b97f4d1f60370fef10105fa2faae0126114a169c64845d6126c9\n        /* \"https://github.com/transmissions11/solmate/blob/main/src/tokens/ERC20.sol\":4754:4759  owner */\n      dup11\n        /* \"https://github.com/transmissions11/solmate/blob/main/src/tokens/ERC20.sol\":4793:4800  spender */\n      dup11\n        /* \"https://github.com/transmissions11/solmate/blob/main/src/tokens/ERC20.sol\":4834:4839  value */\n      dup11\n        /* \"https://github.com/transmissions11/solmate/blob/main/src/tokens/ERC20.sol\":4873:4879  nonces */\n      0x05\n        /* \"https://github.com/transmissions11/solmate/blob/main/src/tokens/ERC20.sol\":4873:4886  nonces[owner] */\n      0x00\n        /* \"https://github.com/transmissions11/solmate/blob/main/src/tokens/ERC20.sol\":4880:4885  owner */\n      dup16\n        /* \"https://github.com/transmissions11/solmate/blob/main/src/tokens/ERC20.sol\":4873:4886  nonces[owner] */\n      0xffffffffffffffffffffffffffffffffffffffff\n      and\n      0xffffffffffffffffffffffffffffffffffffffff\n      and\n      dup2\n      mstore\n      0x20\n      add\n      swap1\n      dup2\n      mstore\n      0x20\n      add\n      0x00\n      keccak256\n      0x00\n        /* \"https://github.com/transmissions11/solmate/blob/main/src/tokens/ERC20.sol\":4873:4888  nonces[owner]++ */\n      dup2\n      sload\n      dup1\n      swap3\n      swap2\n      swap1\n      0x01\n      add\n      swap2\n      swap1\n      pop\n      sstore\n        /* \"https://github.com/transmissions11/solmate/blob/main/src/tokens/ERC20.sol\":4922:4930  deadline */\n      dup12\n        /* \"https://github.com/transmissions11/solmate/blob/main/src/tokens/ERC20.sol\":4511:4960  abi.encode(... */\n      add(0x20, mload(0x40))\n      tag_260\n      swap7\n      swap6\n      swap5\n      swap4\n      swap3\n      swap2\n      swap1\n      tag_261\n      jump\t// in\n    tag_260:\n      mload(0x40)\n      0x20\n      dup2\n      dup4\n      sub\n      sub\n      dup2\n      mstore\n      swap1\n      0x40\n      mstore\n        /* \"https://github.com/transmissions11/solmate/blob/main/src/tokens/ERC20.sol\":4472:4986  keccak256(... */\n      dup1\n      mload\n      swap1\n      0x20\n      add\n      keccak256\n        /* \"https://github.com/transmissions11/solmate/blob/main/src/tokens/ERC20.sol\":4350:5008  abi.encodePacked(... */\n      add(0x20, mload(0x40))\n      tag_262\n      swap3\n      swap2\n      swap1\n      tag_263\n      jump\t// in\n    tag_262:\n      mload(0x40)\n      0x20\n      dup2\n      dup4\n      sub\n      sub\n      dup2\n      mstore\n      swap1\n      0x40\n      mstore\n        /* \"https://github.com/transmissions11/solmate/blob/main/src/tokens/ERC20.sol\":4319:5026  keccak256(... */\n      dup1\n      mload\n      swap1\n      0x20\n      add\n      keccak256\n        /* \"https://github.com/transmissions11/solmate/blob/main/src/tokens/ERC20.sol\":5044:5045  v */\n      dup6\n        /* \"https://github.com/transmissions11/solmate/blob/main/src/tokens/ERC20.sol\":5063:5064  r */\n      dup6\n        /* \"https://github.com/transmissions11/solmate/blob/main/src/tokens/ERC20.sol\":5082:5083  s */\n      dup6\n        /* \"https://github.com/transmissions11/solmate/blob/main/src/tokens/ERC20.sol\":4292:5097  ecrecover(... */\n      mload(0x40)\n      0x00\n      dup2\n      mstore\n      0x20\n      add\n      0x40\n      mstore\n      mload(0x40)\n      tag_264\n      swap5\n      swap4\n      swap3\n      swap2\n      swap1\n      tag_265\n      jump\t// in\n    tag_264:\n      0x20\n      mload(0x40)\n      0x20\n      dup2\n      sub\n      swap1\n      dup1\n      dup5\n      sub\n      swap1\n      dup6\n      gas\n      staticcall\n      iszero\n      dup1\n      iszero\n      tag_267\n      jumpi\n      returndatacopy(0x00, 0x00, returndatasize)\n      revert(0x00, returndatasize)\n    tag_267:\n      pop\n      pop\n      pop\n      mload(sub(mload(0x40), 0x20))\n        /* \"https://github.com/transmissions11/solmate/blob/main/src/tokens/ERC20.sol\":4265:5097  address recoveredAddress = ecrecover(... */\n      swap1\n      pop\n        /* \"https://github.com/transmissions11/solmate/blob/main/src/tokens/ERC20.sol\":5148:5149  0 */\n      0x00\n        /* \"https://github.com/transmissions11/solmate/blob/main/src/tokens/ERC20.sol\":5120:5150  recoveredAddress != address(0) */\n      0xffffffffffffffffffffffffffffffffffffffff\n      and\n        /* \"https://github.com/transmissions11/solmate/blob/main/src/tokens/ERC20.sol\":5120:5136  recoveredAddress */\n      dup2\n        /* \"https://github.com/transmissions11/solmate/blob/main/src/tokens/ERC20.sol\":5120:5150  recoveredAddress != address(0) */\n      0xffffffffffffffffffffffffffffffffffffffff\n      and\n      eq\n      iszero\n        /* \"https://github.com/transmissions11/solmate/blob/main/src/tokens/ERC20.sol\":5120:5179  recoveredAddress != address(0) && recoveredAddress == owner */\n      dup1\n      iszero\n      tag_268\n      jumpi\n      pop\n        /* \"https://github.com/transmissions11/solmate/blob/main/src/tokens/ERC20.sol\":5174:5179  owner */\n      dup8\n        /* \"https://github.com/transmissions11/solmate/blob/main/src/tokens/ERC20.sol\":5154:5179  recoveredAddress == owner */\n      0xffffffffffffffffffffffffffffffffffffffff\n      and\n        /* \"https://github.com/transmissions11/solmate/blob/main/src/tokens/ERC20.sol\":5154:5170  recoveredAddress */\n      dup2\n        /* \"https://github.com/transmissions11/solmate/blob/main/src/tokens/ERC20.sol\":5154:5179  recoveredAddress == owner */\n      0xffffffffffffffffffffffffffffffffffffffff\n      and\n      eq\n        /* \"https://github.com/transmissions11/solmate/blob/main/src/tokens/ERC20.sol\":5120:5179  recoveredAddress != address(0) && recoveredAddress == owner */\n    tag_268:\n        /* \"https://github.com/transmissions11/solmate/blob/main/src/tokens/ERC20.sol\":5112:5198  require(recoveredAddress != address(0) && recoveredAddress == owner, \"INVALID_SIGNER\") */\n      tag_269\n      jumpi\n      mload(0x40)\n      0x08c379a000000000000000000000000000000000000000000000000000000000\n      dup2\n      mstore\n      0x04\n      add\n      tag_270\n      swap1\n      tag_271\n      jump\t// in\n    tag_270:\n      mload(0x40)\n      dup1\n      swap2\n      sub\n      swap1\n      revert\n    tag_269:\n        /* \"https://github.com/transmissions11/solmate/blob/main/src/tokens/ERC20.sol\":5252:5257  value */\n      dup6\n        /* \"https://github.com/transmissions11/solmate/blob/main/src/tokens/ERC20.sol\":5213:5222  allowance */\n      0x04\n        /* \"https://github.com/transmissions11/solmate/blob/main/src/tokens/ERC20.sol\":5213:5240  allowance[recoveredAddress] */\n      0x00\n        /* \"https://github.com/transmissions11/solmate/blob/main/src/tokens/ERC20.sol\":5223:5239  recoveredAddress */\n      dup4\n        /* \"https://github.com/transmissions11/solmate/blob/main/src/tokens/ERC20.sol\":5213:5240  allowance[recoveredAddress] */\n      0xffffffffffffffffffffffffffffffffffffffff\n      and\n      0xffffffffffffffffffffffffffffffffffffffff\n      and\n      dup2\n      mstore\n      0x20\n      add\n      swap1\n      dup2\n      mstore\n      0x20\n      add\n      0x00\n      keccak256\n        /* \"https://github.com/transmissions11/solmate/blob/main/src/tokens/ERC20.sol\":5213:5249  allowance[recoveredAddress][spender] */\n      0x00\n        /* \"https://github.com/transmissions11/solmate/blob/main/src/tokens/ERC20.sol\":5241:5248  spender */\n      dup10\n        /* \"https://github.com/transmissions11/solmate/blob/main/src/tokens/ERC20.sol\":5213:5249  allowance[recoveredAddress][spender] */\n      0xffffffffffffffffffffffffffffffffffffffff\n      and\n      0xffffffffffffffffffffffffffffffffffffffff\n      and\n      dup2\n      mstore\n      0x20\n      add\n      swap1\n      dup2\n      mstore\n      0x20\n      add\n      0x00\n      keccak256\n        /* \"https://github.com/transmissions11/solmate/blob/main/src/tokens/ERC20.sol\":5213:5257  allowance[recoveredAddress][spender] = value */\n      dup2\n      swap1\n      sstore\n      pop\n        /* \"https://github.com/transmissions11/solmate/blob/main/src/tokens/ERC20.sol\":4241:5268  unchecked {... */\n      pop\n        /* \"https://github.com/transmissions11/solmate/blob/main/src/tokens/ERC20.sol\":5299:5306  spender */\n      dup6\n        /* \"https://github.com/transmissions11/solmate/blob/main/src/tokens/ERC20.sol\":5283:5314  Approval(owner, spender, value) */\n      0xffffffffffffffffffffffffffffffffffffffff\n      and\n        /* \"https://github.com/transmissions11/solmate/blob/main/src/tokens/ERC20.sol\":5292:5297  owner */\n      dup8\n        /* \"https://github.com/transmissions11/solmate/blob/main/src/tokens/ERC20.sol\":5283:5314  Approval(owner, spender, value) */\n      0xffffffffffffffffffffffffffffffffffffffff\n      and\n      0x8c5be1e5ebec7d5bd14f71427d1e84f3dd0314c0f7b2291e5b200ac8c7c3b925\n        /* \"https://github.com/transmissions11/solmate/blob/main/src/tokens/ERC20.sol\":5308:5313  value */\n      dup8\n        /* \"https://github.com/transmissions11/solmate/blob/main/src/tokens/ERC20.sol\":5283:5314  Approval(owner, spender, value) */\n      mload(0x40)\n      tag_272\n      swap2\n      swap1\n      tag_41\n      jump\t// in\n    tag_272:\n      mload(0x40)\n      dup1\n      swap2\n      sub\n      swap1\n      log3\n        /* \"https://github.com/transmissions11/solmate/blob/main/src/tokens/ERC20.sol\":3838:5321  function permit(... */\n      pop\n      pop\n      pop\n      pop\n      pop\n      pop\n      pop\n      jump\t// out\n        /* \"https://github.com/transmissions11/solmate/blob/main/src/tokens/ERC4626.sol\":6058:6170  function maxRedeem(address owner) public view virtual returns (uint256) {... */\n    tag_145:\n        /* \"https://github.com/transmissions11/solmate/blob/main/src/tokens/ERC4626.sol\":6121:6128  uint256 */\n      0x00\n        /* \"https://github.com/transmissions11/solmate/blob/main/src/tokens/ERC4626.sol\":6147:6156  balanceOf */\n      0x03\n        /* \"https://github.com/transmissions11/solmate/blob/main/src/tokens/ERC4626.sol\":6147:6163  balanceOf[owner] */\n      0x00\n        /* \"https://github.com/transmissions11/solmate/blob/main/src/tokens/ERC4626.sol\":6157:6162  owner */\n      dup4\n        /* \"https://github.com/transmissions11/solmate/blob/main/src/tokens/ERC4626.sol\":6147:6163  balanceOf[owner] */\n      0xffffffffffffffffffffffffffffffffffffffff\n      and\n      0xffffffffffffffffffffffffffffffffffffffff\n      and\n      dup2\n      mstore\n      0x20\n      add\n      swap1\n      dup2\n      mstore\n      0x20\n      add\n      0x00\n      keccak256\n      sload\n        /* \"https://github.com/transmissions11/solmate/blob/main/src/tokens/ERC4626.sol\":6140:6163  return balanceOf[owner] */\n      swap1\n      pop\n        /* \"https://github.com/transmissions11/solmate/blob/main/src/tokens/ERC4626.sol\":6058:6170  function maxRedeem(address owner) public view virtual returns (uint256) {... */\n      swap2\n      swap1\n      pop\n      jump\t// out\n        /* \"https://github.com/transmissions11/solmate/blob/main/src/tokens/ERC20.sol\":1388:1452  mapping(address => mapping(address => uint256)) public allowance */\n    tag_150:\n      mstore(0x20, 0x04)\n      dup2\n      0x00\n      mstore\n      mstore(0x20, keccak256(0x00, 0x40))\n      dup1\n      0x00\n      mstore\n      keccak256(0x00, 0x40)\n      0x00\n      swap2\n      pop\n      swap2\n      pop\n      pop\n      sload\n      dup2\n      jump\t// out\n        /* \"https://github.com/transmissions11/solmate/blob/main/src/tokens/ERC4626.sol\":4726:4851  function previewDeposit(uint256 assets) public view virtual returns (uint256) {... */\n    tag_154:\n        /* \"https://github.com/transmissions11/solmate/blob/main/src/tokens/ERC4626.sol\":4795:4802  uint256 */\n      0x00\n        /* \"https://github.com/transmissions11/solmate/blob/main/src/tokens/ERC4626.sol\":4821:4844  convertToShares(assets) */\n      tag_275\n        /* \"https://github.com/transmissions11/solmate/blob/main/src/tokens/ERC4626.sol\":4837:4843  assets */\n      dup3\n        /* \"https://github.com/transmissions11/solmate/blob/main/src/tokens/ERC4626.sol\":4821:4836  convertToShares */\n      tag_133\n        /* \"https://github.com/transmissions11/solmate/blob/main/src/tokens/ERC4626.sol\":4821:4844  convertToShares(assets) */\n      jump\t// in\n    tag_275:\n        /* \"https://github.com/transmissions11/solmate/blob/main/src/tokens/ERC4626.sol\":4814:4844  return convertToShares(assets) */\n      swap1\n      pop\n        /* \"https://github.com/transmissions11/solmate/blob/main/src/tokens/ERC4626.sol\":4726:4851  function previewDeposit(uint256 assets) public view virtual returns (uint256) {... */\n      swap2\n      swap1\n      pop\n      jump\t// out\n        /* \"https://github.com/transmissions11/solmate/blob/main/src/utils/FixedPointMathLib.sol\":1564:2090  function mulDivDown(... */\n    tag_167:\n        /* \"https://github.com/transmissions11/solmate/blob/main/src/utils/FixedPointMathLib.sol\":1680:1689  uint256 z */\n      0x00\n        /* \"https://github.com/transmissions11/solmate/blob/main/src/utils/FixedPointMathLib.sol\":1928:1929  y */\n      dup3\n        /* \"https://github.com/transmissions11/solmate/blob/main/src/utils/FixedPointMathLib.sol\":1915:1926  MAX_UINT256 */\n      0xffffffffffffffffffffffffffffffffffffffffffffffffffffffffffffffff\n        /* \"https://github.com/transmissions11/solmate/blob/main/src/utils/FixedPointMathLib.sol\":1911:1930  div(MAX_UINT256, y) */\n      div\n        /* \"https://github.com/transmissions11/solmate/blob/main/src/utils/FixedPointMathLib.sol\":1908:1909  x */\n      dup5\n        /* \"https://github.com/transmissions11/solmate/blob/main/src/utils/FixedPointMathLib.sol\":1905:1931  gt(x, div(MAX_UINT256, y)) */\n      gt\n        /* \"https://github.com/transmissions11/solmate/blob/main/src/utils/FixedPointMathLib.sol\":1902:1903  y */\n      dup4\n        /* \"https://github.com/transmissions11/solmate/blob/main/src/utils/FixedPointMathLib.sol\":1898:1932  mul(y, gt(x, div(MAX_UINT256, y))) */\n      mul\n        /* \"https://github.com/transmissions11/solmate/blob/main/src/utils/FixedPointMathLib.sol\":1891:1933  iszero(mul(y, gt(x, div(MAX_UINT256, y)))) */\n      iszero\n        /* \"https://github.com/transmissions11/solmate/blob/main/src/utils/FixedPointMathLib.sol\":1878:1889  denominator */\n      dup3\n        /* \"https://github.com/transmissions11/solmate/blob/main/src/utils/FixedPointMathLib.sol\":1874:1934  mul(denominator, iszero(mul(y, gt(x, div(MAX_UINT256, y))))) */\n      mul\n        /* \"https://github.com/transmissions11/solmate/blob/main/src/utils/FixedPointMathLib.sol\":1864:1980  if iszero(mul(denominator, iszero(mul(y, gt(x, div(MAX_UINT256, y)))))) {... */\n      tag_277\n      jumpi\n        /* \"https://github.com/transmissions11/solmate/blob/main/src/utils/FixedPointMathLib.sol\":1964:1965  0 */\n      0x00\n        /* \"https://github.com/transmissions11/solmate/blob/main/src/utils/FixedPointMathLib.sol\":1961:1962  0 */\n      0x00\n        /* \"https://github.com/transmissions11/solmate/blob/main/src/utils/FixedPointMathLib.sol\":1954:1966  revert(0, 0) */\n      revert\n        /* \"https://github.com/transmissions11/solmate/blob/main/src/utils/FixedPointMathLib.sol\":1864:1980  if iszero(mul(denominator, iszero(mul(y, gt(x, div(MAX_UINT256, y)))))) {... */\n    tag_277:\n        /* \"https://github.com/transmissions11/solmate/blob/main/src/utils/FixedPointMathLib.sol\":2062:2073  denominator */\n      dup2\n        /* \"https://github.com/transmissions11/solmate/blob/main/src/utils/FixedPointMathLib.sol\":2058:2059  y */\n      dup4\n        /* \"https://github.com/transmissions11/solmate/blob/main/src/utils/FixedPointMathLib.sol\":2055:2056  x */\n      dup6\n        /* \"https://github.com/transmissions11/solmate/blob/main/src/utils/FixedPointMathLib.sol\":2051:2060  mul(x, y) */\n      mul\n        /* \"https://github.com/transmissions11/solmate/blob/main/src/utils/FixedPointMathLib.sol\":2047:2074  div(mul(x, y), denominator) */\n      div\n        /* \"https://github.com/transmissions11/solmate/blob/main/src/utils/FixedPointMathLib.sol\":2042:2074  z := div(mul(x, y), denominator) */\n      swap1\n      pop\n        /* \"https://github.com/transmissions11/solmate/blob/main/src/utils/FixedPointMathLib.sol\":1564:2090  function mulDivDown(... */\n      swap4\n      swap3\n      pop\n      pop\n      pop\n      jump\t// out\n        /* \"https://github.com/transmissions11/solmate/blob/main/src/utils/FixedPointMathLib.sol\":2096:2768  function mulDivUp(... */\n    tag_175:\n        /* \"https://github.com/transmissions11/solmate/blob/main/src/utils/FixedPointMathLib.sol\":2210:2219  uint256 z */\n      0x00\n        /* \"https://github.com/transmissions11/solmate/blob/main/src/utils/FixedPointMathLib.sol\":2458:2459  y */\n      dup3\n        /* \"https://github.com/transmissions11/solmate/blob/main/src/utils/FixedPointMathLib.sol\":2445:2456  MAX_UINT256 */\n      0xffffffffffffffffffffffffffffffffffffffffffffffffffffffffffffffff\n        /* \"https://github.com/transmissions11/solmate/blob/main/src/utils/FixedPointMathLib.sol\":2441:2460  div(MAX_UINT256, y) */\n      div\n        /* \"https://github.com/transmissions11/solmate/blob/main/src/utils/FixedPointMathLib.sol\":2438:2439  x */\n      dup5\n        /* \"https://github.com/transmissions11/solmate/blob/main/src/utils/FixedPointMathLib.sol\":2435:2461  gt(x, div(MAX_UINT256, y)) */\n      gt\n        /* \"https://github.com/transmissions11/solmate/blob/main/src/utils/FixedPointMathLib.sol\":2432:2433  y */\n      dup4\n        /* \"https://github.com/transmissions11/solmate/blob/main/src/utils/FixedPointMathLib.sol\":2428:2462  mul(y, gt(x, div(MAX_UINT256, y))) */\n      mul\n        /* \"https://github.com/transmissions11/solmate/blob/main/src/utils/FixedPointMathLib.sol\":2421:2463  iszero(mul(y, gt(x, div(MAX_UINT256, y)))) */\n      iszero\n        /* \"https://github.com/transmissions11/solmate/blob/main/src/utils/FixedPointMathLib.sol\":2408:2419  denominator */\n      dup3\n        /* \"https://github.com/transmissions11/solmate/blob/main/src/utils/FixedPointMathLib.sol\":2404:2464  mul(denominator, iszero(mul(y, gt(x, div(MAX_UINT256, y))))) */\n      mul\n        /* \"https://github.com/transmissions11/solmate/blob/main/src/utils/FixedPointMathLib.sol\":2394:2510  if iszero(mul(denominator, iszero(mul(y, gt(x, div(MAX_UINT256, y)))))) {... */\n      tag_279\n      jumpi\n        /* \"https://github.com/transmissions11/solmate/blob/main/src/utils/FixedPointMathLib.sol\":2494:2495  0 */\n      0x00\n        /* \"https://github.com/transmissions11/solmate/blob/main/src/utils/FixedPointMathLib.sol\":2491:2492  0 */\n      0x00\n        /* \"https://github.com/transmissions11/solmate/blob/main/src/utils/FixedPointMathLib.sol\":2484:2496  revert(0, 0) */\n      revert\n        /* \"https://github.com/transmissions11/solmate/blob/main/src/utils/FixedPointMathLib.sol\":2394:2510  if iszero(mul(denominator, iszero(mul(y, gt(x, div(MAX_UINT256, y)))))) {... */\n    tag_279:\n        /* \"https://github.com/transmissions11/solmate/blob/main/src/utils/FixedPointMathLib.sol\":2739:2750  denominator */\n      dup2\n        /* \"https://github.com/transmissions11/solmate/blob/main/src/utils/FixedPointMathLib.sol\":2735:2736  y */\n      dup4\n        /* \"https://github.com/transmissions11/solmate/blob/main/src/utils/FixedPointMathLib.sol\":2732:2733  x */\n      dup6\n        /* \"https://github.com/transmissions11/solmate/blob/main/src/utils/FixedPointMathLib.sol\":2728:2737  mul(x, y) */\n      mul\n        /* \"https://github.com/transmissions11/solmate/blob/main/src/utils/FixedPointMathLib.sol\":2724:2751  div(mul(x, y), denominator) */\n      div\n        /* \"https://github.com/transmissions11/solmate/blob/main/src/utils/FixedPointMathLib.sol\":2720:2721  0 */\n      0x00\n        /* \"https://github.com/transmissions11/solmate/blob/main/src/utils/FixedPointMathLib.sol\":2706:2717  denominator */\n      dup4\n        /* \"https://github.com/transmissions11/solmate/blob/main/src/utils/FixedPointMathLib.sol\":2702:2703  y */\n      dup6\n        /* \"https://github.com/transmissions11/solmate/blob/main/src/utils/FixedPointMathLib.sol\":2699:2700  x */\n      dup8\n        /* \"https://github.com/transmissions11/solmate/blob/main/src/utils/FixedPointMathLib.sol\":2695:2704  mul(x, y) */\n      mul\n        /* \"https://github.com/transmissions11/solmate/blob/main/src/utils/FixedPointMathLib.sol\":2691:2718  mod(mul(x, y), denominator) */\n      mod\n        /* \"https://github.com/transmissions11/solmate/blob/main/src/utils/FixedPointMathLib.sol\":2688:2722  gt(mod(mul(x, y), denominator), 0) */\n      gt\n        /* \"https://github.com/transmissions11/solmate/blob/main/src/utils/FixedPointMathLib.sol\":2684:2752  add(gt(mod(mul(x, y), denominator), 0), div(mul(x, y), denominator)) */\n      add\n        /* \"https://github.com/transmissions11/solmate/blob/main/src/utils/FixedPointMathLib.sol\":2679:2752  z := add(gt(mod(mul(x, y), denominator), 0), div(mul(x, y), denominator)) */\n      swap1\n      pop\n        /* \"https://github.com/transmissions11/solmate/blob/main/src/utils/FixedPointMathLib.sol\":2096:2768  function mulDivUp(... */\n      swap4\n      swap3\n      pop\n      pop\n      pop\n      jump\t// out\n        /* \"https://github.com/transmissions11/solmate/blob/main/src/tokens/ERC20.sol\":5510:5956  function computeDomainSeparator() internal view virtual returns (bytes32) {... */\n    tag_186:\n        /* \"https://github.com/transmissions11/solmate/blob/main/src/tokens/ERC20.sol\":5575:5582  bytes32 */\n      0x00\n        /* \"https://github.com/transmissions11/solmate/blob/main/src/tokens/ERC20.sol\":5672:5767  keccak256(\"EIP712Domain(string name,string version,uint256 chainId,address verifyingContract)\") */\n      0x8b73c3c69bb8fe3d512ecc4cf759cc79239f7b179b0ffacaa9a75d522b39400f\n        /* \"https://github.com/transmissions11/solmate/blob/main/src/tokens/ERC20.sol\":5805:5809  name */\n      0x00\n        /* \"https://github.com/transmissions11/solmate/blob/main/src/tokens/ERC20.sol\":5789:5811  keccak256(bytes(name)) */\n      mload(0x40)\n      tag_281\n      swap2\n      swap1\n      tag_282\n      jump\t// in\n    tag_281:\n      mload(0x40)\n      dup1\n      swap2\n      sub\n      swap1\n      keccak256\n        /* \"https://github.com/transmissions11/solmate/blob/main/src/tokens/ERC20.sol\":5833:5847  keccak256(\"1\") */\n      0xc89efdaa54c0f20c7adf612882df0950f5a951637e0307cdcb4c672f298b8bc6\n        /* \"https://github.com/transmissions11/solmate/blob/main/src/tokens/ERC20.sol\":5869:5882  block.chainid */\n      chainid\n        /* \"https://github.com/transmissions11/solmate/blob/main/src/tokens/ERC20.sol\":5912:5916  this */\n      address\n        /* \"https://github.com/transmissions11/solmate/blob/main/src/tokens/ERC20.sol\":5640:5935  abi.encode(... */\n      add(0x20, mload(0x40))\n      tag_283\n      swap6\n      swap5\n      swap4\n      swap3\n      swap2\n      swap1\n      tag_284\n      jump\t// in\n    tag_283:\n      mload(0x40)\n      0x20\n      dup2\n      dup4\n      sub\n      sub\n      dup2\n      mstore\n      swap1\n      0x40\n      mstore\n        /* \"https://github.com/transmissions11/solmate/blob/main/src/tokens/ERC20.sol\":5613:5949  keccak256(... */\n      dup1\n      mload\n      swap1\n      0x20\n      add\n      keccak256\n        /* \"https://github.com/transmissions11/solmate/blob/main/src/tokens/ERC20.sol\":5594:5949  return... */\n      swap1\n      pop\n        /* \"https://github.com/transmissions11/solmate/blob/main/src/tokens/ERC20.sol\":5510:5956  function computeDomainSeparator() internal view virtual returns (bytes32) {... */\n      swap1\n      jump\t// out\n        /* \"https://github.com/transmissions11/solmate/blob/main/src/utils/SafeTransferLib.sol\":1187:2826  function safeTransferFrom(... */\n    tag_197:\n        /* \"https://github.com/transmissions11/solmate/blob/main/src/utils/SafeTransferLib.sol\":1325:1337  bool success */\n      0x00\n        /* \"https://github.com/transmissions11/solmate/blob/main/src/utils/SafeTransferLib.sol\":1495:1499  0x40 */\n      0x40\n        /* \"https://github.com/transmissions11/solmate/blob/main/src/utils/SafeTransferLib.sol\":1489:1500  mload(0x40) */\n      mload\n        /* \"https://github.com/transmissions11/solmate/blob/main/src/utils/SafeTransferLib.sol\":1637:1703  0x23b872dd00000000000000000000000000000000000000000000000000000000 */\n      0x23b872dd00000000000000000000000000000000000000000000000000000000\n        /* \"https://github.com/transmissions11/solmate/blob/main/src/utils/SafeTransferLib.sol\":1618:1635  freeMemoryPointer */\n      dup2\n        /* \"https://github.com/transmissions11/solmate/blob/main/src/utils/SafeTransferLib.sol\":1611:1704  mstore(freeMemoryPointer, 0x23b872dd00000000000000000000000000000000000000000000000000000000) */\n      mstore\n        /* \"https://github.com/transmissions11/solmate/blob/main/src/utils/SafeTransferLib.sol\":1761:1803  0xffffffffffffffffffffffffffffffffffffffff */\n      0xffffffffffffffffffffffffffffffffffffffff\n        /* \"https://github.com/transmissions11/solmate/blob/main/src/utils/SafeTransferLib.sol\":1755:1759  from */\n      dup6\n        /* \"https://github.com/transmissions11/solmate/blob/main/src/utils/SafeTransferLib.sol\":1751:1804  and(from, 0xffffffffffffffffffffffffffffffffffffffff) */\n      and\n        /* \"https://github.com/transmissions11/solmate/blob/main/src/utils/SafeTransferLib.sol\":1747:1748  4 */\n      0x04\n        /* \"https://github.com/transmissions11/solmate/blob/main/src/utils/SafeTransferLib.sol\":1728:1745  freeMemoryPointer */\n      dup3\n        /* \"https://github.com/transmissions11/solmate/blob/main/src/utils/SafeTransferLib.sol\":1724:1749  add(freeMemoryPointer, 4) */\n      add\n        /* \"https://github.com/transmissions11/solmate/blob/main/src/utils/SafeTransferLib.sol\":1717:1805  mstore(add(freeMemoryPointer, 4), and(from, 0xffffffffffffffffffffffffffffffffffffffff)) */\n      mstore\n        /* \"https://github.com/transmissions11/solmate/blob/main/src/utils/SafeTransferLib.sol\":1901:1943  0xffffffffffffffffffffffffffffffffffffffff */\n      0xffffffffffffffffffffffffffffffffffffffff\n        /* \"https://github.com/transmissions11/solmate/blob/main/src/utils/SafeTransferLib.sol\":1897:1899  to */\n      dup5\n        /* \"https://github.com/transmissions11/solmate/blob/main/src/utils/SafeTransferLib.sol\":1893:1944  and(to, 0xffffffffffffffffffffffffffffffffffffffff) */\n      and\n        /* \"https://github.com/transmissions11/solmate/blob/main/src/utils/SafeTransferLib.sol\":1888:1890  36 */\n      0x24\n        /* \"https://github.com/transmissions11/solmate/blob/main/src/utils/SafeTransferLib.sol\":1869:1886  freeMemoryPointer */\n      dup3\n        /* \"https://github.com/transmissions11/solmate/blob/main/src/utils/SafeTransferLib.sol\":1865:1891  add(freeMemoryPointer, 36) */\n      add\n        /* \"https://github.com/transmissions11/solmate/blob/main/src/utils/SafeTransferLib.sol\":1858:1945  mstore(add(freeMemoryPointer, 36), and(to, 0xffffffffffffffffffffffffffffffffffffffff)) */\n      mstore\n        /* \"https://github.com/transmissions11/solmate/blob/main/src/utils/SafeTransferLib.sol\":2031:2037  amount */\n      dup3\n        /* \"https://github.com/transmissions11/solmate/blob/main/src/utils/SafeTransferLib.sol\":2026:2028  68 */\n      0x44\n        /* \"https://github.com/transmissions11/solmate/blob/main/src/utils/SafeTransferLib.sol\":2007:2024  freeMemoryPointer */\n      dup3\n        /* \"https://github.com/transmissions11/solmate/blob/main/src/utils/SafeTransferLib.sol\":2003:2029  add(freeMemoryPointer, 68) */\n      add\n        /* \"https://github.com/transmissions11/solmate/blob/main/src/utils/SafeTransferLib.sol\":1996:2038  mstore(add(freeMemoryPointer, 68), amount) */\n      mstore\n        /* \"https://github.com/transmissions11/solmate/blob/main/src/utils/SafeTransferLib.sol\":2380:2382  32 */\n      0x20\n        /* \"https://github.com/transmissions11/solmate/blob/main/src/utils/SafeTransferLib.sol\":2377:2378  0 */\n      0x00\n        /* \"https://github.com/transmissions11/solmate/blob/main/src/utils/SafeTransferLib.sol\":2372:2375  100 */\n      0x64\n        /* \"https://github.com/transmissions11/solmate/blob/main/src/utils/SafeTransferLib.sol\":2353:2370  freeMemoryPointer */\n      dup4\n        /* \"https://github.com/transmissions11/solmate/blob/main/src/utils/SafeTransferLib.sol\":2350:2351  0 */\n      0x00\n        /* \"https://github.com/transmissions11/solmate/blob/main/src/utils/SafeTransferLib.sol\":2343:2348  token */\n      dup11\n        /* \"https://github.com/transmissions11/solmate/blob/main/src/utils/SafeTransferLib.sol\":2336:2341  gas() */\n      gas\n        /* \"https://github.com/transmissions11/solmate/blob/main/src/utils/SafeTransferLib.sol\":2331:2383  call(gas(), token, 0, freeMemoryPointer, 100, 0, 32) */\n      call\n        /* \"https://github.com/transmissions11/solmate/blob/main/src/utils/SafeTransferLib.sol\":2320:2383  success := call(gas(), token, 0, freeMemoryPointer, 100, 0, 32) */\n      swap2\n      pop\n        /* \"https://github.com/transmissions11/solmate/blob/main/src/utils/SafeTransferLib.sol\":2650:2657  success */\n      dup2\n        /* \"https://github.com/transmissions11/solmate/blob/main/src/utils/SafeTransferLib.sol\":2643:2645  31 */\n      0x1f\n        /* \"https://github.com/transmissions11/solmate/blob/main/src/utils/SafeTransferLib.sol\":2625:2641  returndatasize() */\n      returndatasize\n        /* \"https://github.com/transmissions11/solmate/blob/main/src/utils/SafeTransferLib.sol\":2622:2646  gt(returndatasize(), 31) */\n      gt\n        /* \"https://github.com/transmissions11/solmate/blob/main/src/utils/SafeTransferLib.sol\":2618:2619  1 */\n      0x01\n        /* \"https://github.com/transmissions11/solmate/blob/main/src/utils/SafeTransferLib.sol\":2614:2615  0 */\n      0x00\n        /* \"https://github.com/transmissions11/solmate/blob/main/src/utils/SafeTransferLib.sol\":2608:2616  mload(0) */\n      mload\n        /* \"https://github.com/transmissions11/solmate/blob/main/src/utils/SafeTransferLib.sol\":2605:2620  eq(mload(0), 1) */\n      eq\n        /* \"https://github.com/transmissions11/solmate/blob/main/src/utils/SafeTransferLib.sol\":2601:2647  and(eq(mload(0), 1), gt(returndatasize(), 31)) */\n      and\n        /* \"https://github.com/transmissions11/solmate/blob/main/src/utils/SafeTransferLib.sol\":2594:2648  iszero(and(eq(mload(0), 1), gt(returndatasize(), 31))) */\n      iszero\n        /* \"https://github.com/transmissions11/solmate/blob/main/src/utils/SafeTransferLib.sol\":2590:2658  and(iszero(and(eq(mload(0), 1), gt(returndatasize(), 31))), success) */\n      and\n        /* \"https://github.com/transmissions11/solmate/blob/main/src/utils/SafeTransferLib.sol\":2587:2759  if and(iszero(and(eq(mload(0), 1), gt(returndatasize(), 31))), success) {... */\n      iszero\n      tag_286\n      jumpi\n        /* \"https://github.com/transmissions11/solmate/blob/main/src/utils/SafeTransferLib.sol\":2726:2742  returndatasize() */\n      returndatasize\n        /* \"https://github.com/transmissions11/solmate/blob/main/src/utils/SafeTransferLib.sol\":2717:2722  token */\n      dup7\n        /* \"https://github.com/transmissions11/solmate/blob/main/src/utils/SafeTransferLib.sol\":2705:2723  extcodesize(token) */\n      extcodesize\n        /* \"https://github.com/transmissions11/solmate/blob/main/src/utils/SafeTransferLib.sol\":2698:2724  iszero(extcodesize(token)) */\n      iszero\n        /* \"https://github.com/transmissions11/solmate/blob/main/src/utils/SafeTransferLib.sol\":2695:2743  or(iszero(extcodesize(token)), returndatasize()) */\n      or\n        /* \"https://github.com/transmissions11/solmate/blob/main/src/utils/SafeTransferLib.sol\":2688:2744  iszero(or(iszero(extcodesize(token)), returndatasize())) */\n      iszero\n        /* \"https://github.com/transmissions11/solmate/blob/main/src/utils/SafeTransferLib.sol\":2677:2744  success := iszero(or(iszero(extcodesize(token)), returndatasize())) */\n      swap2\n      pop\n        /* \"https://github.com/transmissions11/solmate/blob/main/src/utils/SafeTransferLib.sol\":2587:2759  if and(iszero(and(eq(mload(0), 1), gt(returndatasize(), 31))), success) {... */\n    tag_286:\n        /* \"https://github.com/transmissions11/solmate/blob/main/src/utils/SafeTransferLib.sol\":1400:2769  {... */\n      pop\n        /* \"https://github.com/transmissions11/solmate/blob/main/src/utils/SafeTransferLib.sol\":2787:2794  success */\n      dup1\n        /* \"https://github.com/transmissions11/solmate/blob/main/src/utils/SafeTransferLib.sol\":2779:2819  require(success, \"TRANSFER_FROM_FAILED\") */\n      tag_287\n      jumpi\n      mload(0x40)\n      0x08c379a000000000000000000000000000000000000000000000000000000000\n      dup2\n      mstore\n      0x04\n      add\n      tag_288\n      swap1\n      tag_289\n      jump\t// in\n    tag_288:\n      mload(0x40)\n      dup1\n      swap2\n      sub\n      swap1\n      revert\n    tag_287:\n        /* \"https://github.com/transmissions11/solmate/blob/main/src/utils/SafeTransferLib.sol\":1315:2826  {... */\n      pop\n        /* \"https://github.com/transmissions11/solmate/blob/main/src/utils/SafeTransferLib.sol\":1187:2826  function safeTransferFrom(... */\n      pop\n      pop\n      pop\n      pop\n      jump\t// out\n        /* \"https://github.com/transmissions11/solmate/blob/main/src/tokens/ERC20.sol\":6150:6475  function _mint(address to, uint256 amount) internal virtual {... */\n    tag_199:\n        /* \"https://github.com/transmissions11/solmate/blob/main/src/tokens/ERC20.sol\":6235:6241  amount */\n      dup1\n        /* \"https://github.com/transmissions11/solmate/blob/main/src/tokens/ERC20.sol\":6220:6231  totalSupply */\n      0x02\n      0x00\n        /* \"https://github.com/transmissions11/solmate/blob/main/src/tokens/ERC20.sol\":6220:6241  totalSupply += amount */\n      dup3\n      dup3\n      sload\n      tag_291\n      swap2\n      swap1\n      tag_292\n      jump\t// in\n    tag_291:\n      swap3\n      pop\n      pop\n      dup2\n      swap1\n      sstore\n      pop\n        /* \"https://github.com/transmissions11/solmate/blob/main/src/tokens/ERC20.sol\":6404:6410  amount */\n      dup1\n        /* \"https://github.com/transmissions11/solmate/blob/main/src/tokens/ERC20.sol\":6387:6396  balanceOf */\n      0x03\n        /* \"https://github.com/transmissions11/solmate/blob/main/src/tokens/ERC20.sol\":6387:6400  balanceOf[to] */\n      0x00\n        /* \"https://github.com/transmissions11/solmate/blob/main/src/tokens/ERC20.sol\":6397:6399  to */\n      dup5\n        /* \"https://github.com/transmissions11/solmate/blob/main/src/tokens/ERC20.sol\":6387:6400  balanceOf[to] */\n      0xffffffffffffffffffffffffffffffffffffffff\n      and\n      0xffffffffffffffffffffffffffffffffffffffff\n      and\n      dup2\n      mstore\n      0x20\n      add\n      swap1\n      dup2\n      mstore\n      0x20\n      add\n      0x00\n      keccak256\n      0x00\n        /* \"https://github.com/transmissions11/solmate/blob/main/src/tokens/ERC20.sol\":6387:6410  balanceOf[to] += amount */\n      dup3\n      dup3\n      sload\n      add\n      swap3\n      pop\n      pop\n      dup2\n      swap1\n      sstore\n      pop\n        /* \"https://github.com/transmissions11/solmate/blob/main/src/tokens/ERC20.sol\":6457:6459  to */\n      dup2\n        /* \"https://github.com/transmissions11/solmate/blob/main/src/tokens/ERC20.sol\":6436:6468  Transfer(address(0), to, amount) */\n      0xffffffffffffffffffffffffffffffffffffffff\n      and\n        /* \"https://github.com/transmissions11/solmate/blob/main/src/tokens/ERC20.sol\":6453:6454  0 */\n      0x00\n        /* \"https://github.com/transmissions11/solmate/blob/main/src/tokens/ERC20.sol\":6436:6468  Transfer(address(0), to, amount) */\n      0xffffffffffffffffffffffffffffffffffffffff\n      and\n      0xddf252ad1be2c89b69c2b068fc378daa952ba7f163c4a11628f55a4df523b3ef\n        /* \"https://github.com/transmissions11/solmate/blob/main/src/tokens/ERC20.sol\":6461:6467  amount */\n      dup4\n        /* \"https://github.com/transmissions11/solmate/blob/main/src/tokens/ERC20.sol\":6436:6468  Transfer(address(0), to, amount) */\n      mload(0x40)\n      tag_293\n      swap2\n      swap1\n      tag_41\n      jump\t// in\n    tag_293:\n      mload(0x40)\n      dup1\n      swap2\n      sub\n      swap1\n      log3\n        /* \"https://github.com/transmissions11/solmate/blob/main/src/tokens/ERC20.sol\":6150:6475  function _mint(address to, uint256 amount) internal virtual {... */\n      pop\n      pop\n      jump\t// out\n        /* \"https://github.com/transmissions11/solmate/blob/main/src/tokens/ERC4626.sol\":6443:6516  function afterDeposit(uint256 assets, uint256 shares) internal virtual {} */\n    tag_203:\n      pop\n      pop\n      jump\t// out\n        /* \"https://github.com/transmissions11/solmate/blob/main/src/tokens/ERC4626.sol\":6362:6437  function beforeWithdraw(uint256 assets, uint256 shares) internal virtual {} */\n    tag_229:\n      pop\n      pop\n      jump\t// out\n        /* \"https://github.com/transmissions11/solmate/blob/main/src/tokens/ERC20.sol\":6481:6809  function _burn(address from, uint256 amount) internal virtual {... */\n    tag_231:\n        /* \"https://github.com/transmissions11/solmate/blob/main/src/tokens/ERC20.sol\":6572:6578  amount */\n      dup1\n        /* \"https://github.com/transmissions11/solmate/blob/main/src/tokens/ERC20.sol\":6553:6562  balanceOf */\n      0x03\n        /* \"https://github.com/transmissions11/solmate/blob/main/src/tokens/ERC20.sol\":6553:6568  balanceOf[from] */\n      0x00\n        /* \"https://github.com/transmissions11/solmate/blob/main/src/tokens/ERC20.sol\":6563:6567  from */\n      dup5\n        /* \"https://github.com/transmissions11/solmate/blob/main/src/tokens/ERC20.sol\":6553:6568  balanceOf[from] */\n      0xffffffffffffffffffffffffffffffffffffffff\n      and\n      0xffffffffffffffffffffffffffffffffffffffff\n      and\n      dup2\n      mstore\n      0x20\n      add\n      swap1\n      dup2\n      mstore\n      0x20\n      add\n      0x00\n      keccak256\n      0x00\n        /* \"https://github.com/transmissions11/solmate/blob/main/src/tokens/ERC20.sol\":6553:6578  balanceOf[from] -= amount */\n      dup3\n      dup3\n      sload\n      tag_297\n      swap2\n      swap1\n      tag_180\n      jump\t// in\n    tag_297:\n      swap3\n      pop\n      pop\n      dup2\n      swap1\n      sstore\n      pop\n        /* \"https://github.com/transmissions11/solmate/blob/main/src/tokens/ERC20.sol\":6736:6742  amount */\n      dup1\n        /* \"https://github.com/transmissions11/solmate/blob/main/src/tokens/ERC20.sol\":6721:6732  totalSupply */\n      0x02\n      0x00\n        /* \"https://github.com/transmissions11/solmate/blob/main/src/tokens/ERC20.sol\":6721:6742  totalSupply -= amount */\n      dup3\n      dup3\n      sload\n      sub\n      swap3\n      pop\n      pop\n      dup2\n      swap1\n      sstore\n      pop\n        /* \"https://github.com/transmissions11/solmate/blob/main/src/tokens/ERC20.sol\":6791:6792  0 */\n      0x00\n        /* \"https://github.com/transmissions11/solmate/blob/main/src/tokens/ERC20.sol\":6768:6802  Transfer(from, address(0), amount) */\n      0xffffffffffffffffffffffffffffffffffffffff\n      and\n        /* \"https://github.com/transmissions11/solmate/blob/main/src/tokens/ERC20.sol\":6777:6781  from */\n      dup3\n        /* \"https://github.com/transmissions11/solmate/blob/main/src/tokens/ERC20.sol\":6768:6802  Transfer(from, address(0), amount) */\n      0xffffffffffffffffffffffffffffffffffffffff\n      and\n      0xddf252ad1be2c89b69c2b068fc378daa952ba7f163c4a11628f55a4df523b3ef\n        /* \"https://github.com/transmissions11/solmate/blob/main/src/tokens/ERC20.sol\":6795:6801  amount */\n      dup4\n        /* \"https://github.com/transmissions11/solmate/blob/main/src/tokens/ERC20.sol\":6768:6802  Transfer(from, address(0), amount) */\n      mload(0x40)\n      tag_298\n      swap2\n      swap1\n      tag_41\n      jump\t// in\n    tag_298:\n      mload(0x40)\n      dup1\n      swap2\n      sub\n      swap1\n      log3\n        /* \"https://github.com/transmissions11/solmate/blob/main/src/tokens/ERC20.sol\":6481:6809  function _burn(address from, uint256 amount) internal virtual {... */\n      pop\n      pop\n      jump\t// out\n        /* \"https://github.com/transmissions11/solmate/blob/main/src/utils/SafeTransferLib.sol\":2832:4296  function safeTransfer(... */\n    tag_234:\n        /* \"https://github.com/transmissions11/solmate/blob/main/src/utils/SafeTransferLib.sol\":2944:2956  bool success */\n      0x00\n        /* \"https://github.com/transmissions11/solmate/blob/main/src/utils/SafeTransferLib.sol\":3114:3118  0x40 */\n      0x40\n        /* \"https://github.com/transmissions11/solmate/blob/main/src/utils/SafeTransferLib.sol\":3108:3119  mload(0x40) */\n      mload\n        /* \"https://github.com/transmissions11/solmate/blob/main/src/utils/SafeTransferLib.sol\":3256:3322  0xa9059cbb00000000000000000000000000000000000000000000000000000000 */\n      0xa9059cbb00000000000000000000000000000000000000000000000000000000\n        /* \"https://github.com/transmissions11/solmate/blob/main/src/utils/SafeTransferLib.sol\":3237:3254  freeMemoryPointer */\n      dup2\n        /* \"https://github.com/transmissions11/solmate/blob/main/src/utils/SafeTransferLib.sol\":3230:3323  mstore(freeMemoryPointer, 0xa9059cbb00000000000000000000000000000000000000000000000000000000) */\n      mstore\n        /* \"https://github.com/transmissions11/solmate/blob/main/src/utils/SafeTransferLib.sol\":3378:3420  0xffffffffffffffffffffffffffffffffffffffff */\n      0xffffffffffffffffffffffffffffffffffffffff\n        /* \"https://github.com/transmissions11/solmate/blob/main/src/utils/SafeTransferLib.sol\":3374:3376  to */\n      dup5\n        /* \"https://github.com/transmissions11/solmate/blob/main/src/utils/SafeTransferLib.sol\":3370:3421  and(to, 0xffffffffffffffffffffffffffffffffffffffff) */\n      and\n        /* \"https://github.com/transmissions11/solmate/blob/main/src/utils/SafeTransferLib.sol\":3366:3367  4 */\n      0x04\n        /* \"https://github.com/transmissions11/solmate/blob/main/src/utils/SafeTransferLib.sol\":3347:3364  freeMemoryPointer */\n      dup3\n        /* \"https://github.com/transmissions11/solmate/blob/main/src/utils/SafeTransferLib.sol\":3343:3368  add(freeMemoryPointer, 4) */\n      add\n        /* \"https://github.com/transmissions11/solmate/blob/main/src/utils/SafeTransferLib.sol\":3336:3422  mstore(add(freeMemoryPointer, 4), and(to, 0xffffffffffffffffffffffffffffffffffffffff)) */\n      mstore\n        /* \"https://github.com/transmissions11/solmate/blob/main/src/utils/SafeTransferLib.sol\":3508:3514  amount */\n      dup3\n        /* \"https://github.com/transmissions11/solmate/blob/main/src/utils/SafeTransferLib.sol\":3503:3505  36 */\n      0x24\n        /* \"https://github.com/transmissions11/solmate/blob/main/src/utils/SafeTransferLib.sol\":3484:3501  freeMemoryPointer */\n      dup3\n        /* \"https://github.com/transmissions11/solmate/blob/main/src/utils/SafeTransferLib.sol\":3480:3506  add(freeMemoryPointer, 36) */\n      add\n        /* \"https://github.com/transmissions11/solmate/blob/main/src/utils/SafeTransferLib.sol\":3473:3515  mstore(add(freeMemoryPointer, 36), amount) */\n      mstore\n        /* \"https://github.com/transmissions11/solmate/blob/main/src/utils/SafeTransferLib.sol\":3855:3857  32 */\n      0x20\n        /* \"https://github.com/transmissions11/solmate/blob/main/src/utils/SafeTransferLib.sol\":3852:3853  0 */\n      0x00\n        /* \"https://github.com/transmissions11/solmate/blob/main/src/utils/SafeTransferLib.sol\":3848:3850  68 */\n      0x44\n        /* \"https://github.com/transmissions11/solmate/blob/main/src/utils/SafeTransferLib.sol\":3829:3846  freeMemoryPointer */\n      dup4\n        /* \"https://github.com/transmissions11/solmate/blob/main/src/utils/SafeTransferLib.sol\":3826:3827  0 */\n      0x00\n        /* \"https://github.com/transmissions11/solmate/blob/main/src/utils/SafeTransferLib.sol\":3819:3824  token */\n      dup10\n        /* \"https://github.com/transmissions11/solmate/blob/main/src/utils/SafeTransferLib.sol\":3812:3817  gas() */\n      gas\n        /* \"https://github.com/transmissions11/solmate/blob/main/src/utils/SafeTransferLib.sol\":3807:3858  call(gas(), token, 0, freeMemoryPointer, 68, 0, 32) */\n      call\n        /* \"https://github.com/transmissions11/solmate/blob/main/src/utils/SafeTransferLib.sol\":3796:3858  success := call(gas(), token, 0, freeMemoryPointer, 68, 0, 32) */\n      swap2\n      pop\n        /* \"https://github.com/transmissions11/solmate/blob/main/src/utils/SafeTransferLib.sol\":4125:4132  success */\n      dup2\n        /* \"https://github.com/transmissions11/solmate/blob/main/src/utils/SafeTransferLib.sol\":4118:4120  31 */\n      0x1f\n        /* \"https://github.com/transmissions11/solmate/blob/main/src/utils/SafeTransferLib.sol\":4100:4116  returndatasize() */\n      returndatasize\n        /* \"https://github.com/transmissions11/solmate/blob/main/src/utils/SafeTransferLib.sol\":4097:4121  gt(returndatasize(), 31) */\n      gt\n        /* \"https://github.com/transmissions11/solmate/blob/main/src/utils/SafeTransferLib.sol\":4093:4094  1 */\n      0x01\n        /* \"https://github.com/transmissions11/solmate/blob/main/src/utils/SafeTransferLib.sol\":4089:4090  0 */\n      0x00\n        /* \"https://github.com/transmissions11/solmate/blob/main/src/utils/SafeTransferLib.sol\":4083:4091  mload(0) */\n      mload\n        /* \"https://github.com/transmissions11/solmate/blob/main/src/utils/SafeTransferLib.sol\":4080:4095  eq(mload(0), 1) */\n      eq\n        /* \"https://github.com/transmissions11/solmate/blob/main/src/utils/SafeTransferLib.sol\":4076:4122  and(eq(mload(0), 1), gt(returndatasize(), 31)) */\n      and\n        /* \"https://github.com/transmissions11/solmate/blob/main/src/utils/SafeTransferLib.sol\":4069:4123  iszero(and(eq(mload(0), 1), gt(returndatasize(), 31))) */\n      iszero\n        /* \"https://github.com/transmissions11/solmate/blob/main/src/utils/SafeTransferLib.sol\":4065:4133  and(iszero(and(eq(mload(0), 1), gt(returndatasize(), 31))), success) */\n      and\n        /* \"https://github.com/transmissions11/solmate/blob/main/src/utils/SafeTransferLib.sol\":4062:4234  if and(iszero(and(eq(mload(0), 1), gt(returndatasize(), 31))), success) {... */\n      iszero\n      tag_300\n      jumpi\n        /* \"https://github.com/transmissions11/solmate/blob/main/src/utils/SafeTransferLib.sol\":4201:4217  returndatasize() */\n      returndatasize\n        /* \"https://github.com/transmissions11/solmate/blob/main/src/utils/SafeTransferLib.sol\":4192:4197  token */\n      dup6\n        /* \"https://github.com/transmissions11/solmate/blob/main/src/utils/SafeTransferLib.sol\":4180:4198  extcodesize(token) */\n      extcodesize\n        /* \"https://github.com/transmissions11/solmate/blob/main/src/utils/SafeTransferLib.sol\":4173:4199  iszero(extcodesize(token)) */\n      iszero\n        /* \"https://github.com/transmissions11/solmate/blob/main/src/utils/SafeTransferLib.sol\":4170:4218  or(iszero(extcodesize(token)), returndatasize()) */\n      or\n        /* \"https://github.com/transmissions11/solmate/blob/main/src/utils/SafeTransferLib.sol\":4163:4219  iszero(or(iszero(extcodesize(token)), returndatasize())) */\n      iszero\n        /* \"https://github.com/transmissions11/solmate/blob/main/src/utils/SafeTransferLib.sol\":4152:4219  success := iszero(or(iszero(extcodesize(token)), returndatasize())) */\n      swap2\n      pop\n        /* \"https://github.com/transmissions11/solmate/blob/main/src/utils/SafeTransferLib.sol\":4062:4234  if and(iszero(and(eq(mload(0), 1), gt(returndatasize(), 31))), success) {... */\n    tag_300:\n        /* \"https://github.com/transmissions11/solmate/blob/main/src/utils/SafeTransferLib.sol\":3019:4244  {... */\n      pop\n        /* \"https://github.com/transmissions11/solmate/blob/main/src/utils/SafeTransferLib.sol\":4262:4269  success */\n      dup1\n        /* \"https://github.com/transmissions11/solmate/blob/main/src/utils/SafeTransferLib.sol\":4254:4289  require(success, \"TRANSFER_FAILED\") */\n      tag_301\n      jumpi\n      mload(0x40)\n      0x08c379a000000000000000000000000000000000000000000000000000000000\n      dup2\n      mstore\n      0x04\n      add\n      tag_302\n      swap1\n      tag_303\n      jump\t// in\n    tag_302:\n      mload(0x40)\n      dup1\n      swap2\n      sub\n      swap1\n      revert\n    tag_301:\n        /* \"https://github.com/transmissions11/solmate/blob/main/src/utils/SafeTransferLib.sol\":2934:4296  {... */\n      pop\n        /* \"https://github.com/transmissions11/solmate/blob/main/src/utils/SafeTransferLib.sol\":2832:4296  function safeTransfer(... */\n      pop\n      pop\n      pop\n      jump\t// out\n        /* \"#utility.yul\":7:84   */\n    tag_304:\n        /* \"#utility.yul\":44:51   */\n      0x00\n        /* \"#utility.yul\":73:78   */\n      dup2\n        /* \"#utility.yul\":62:78   */\n      swap1\n      pop\n        /* \"#utility.yul\":7:84   */\n      swap2\n      swap1\n      pop\n      jump\t// out\n        /* \"#utility.yul\":90:208   */\n    tag_305:\n        /* \"#utility.yul\":177:201   */\n      tag_361\n        /* \"#utility.yul\":195:200   */\n      dup2\n        /* \"#utility.yul\":177:201   */\n      tag_304\n      jump\t// in\n    tag_361:\n        /* \"#utility.yul\":172:175   */\n      dup3\n        /* \"#utility.yul\":165:202   */\n      mstore\n        /* \"#utility.yul\":90:208   */\n      pop\n      pop\n      jump\t// out\n        /* \"#utility.yul\":214:436   */\n    tag_41:\n        /* \"#utility.yul\":307:311   */\n      0x00\n        /* \"#utility.yul\":345:347   */\n      0x20\n        /* \"#utility.yul\":334:343   */\n      dup3\n        /* \"#utility.yul\":330:348   */\n      add\n        /* \"#utility.yul\":322:348   */\n      swap1\n      pop\n        /* \"#utility.yul\":358:429   */\n      tag_363\n        /* \"#utility.yul\":426:427   */\n      0x00\n        /* \"#utility.yul\":415:424   */\n      dup4\n        /* \"#utility.yul\":411:428   */\n      add\n        /* \"#utility.yul\":402:408   */\n      dup5\n        /* \"#utility.yul\":358:429   */\n      tag_305\n      jump\t// in\n    tag_363:\n        /* \"#utility.yul\":214:436   */\n      swap3\n      swap2\n      pop\n      pop\n      jump\t// out\n        /* \"#utility.yul\":442:541   */\n    tag_306:\n        /* \"#utility.yul\":494:500   */\n      0x00\n        /* \"#utility.yul\":528:533   */\n      dup2\n        /* \"#utility.yul\":522:534   */\n      mload\n        /* \"#utility.yul\":512:534   */\n      swap1\n      pop\n        /* \"#utility.yul\":442:541   */\n      swap2\n      swap1\n      pop\n      jump\t// out\n        /* \"#utility.yul\":547:716   */\n    tag_307:\n        /* \"#utility.yul\":631:642   */\n      0x00\n        /* \"#utility.yul\":665:671   */\n      dup3\n        /* \"#utility.yul\":660:663   */\n      dup3\n        /* \"#utility.yul\":653:672   */\n      mstore\n        /* \"#utility.yul\":705:709   */\n      0x20\n        /* \"#utility.yul\":700:703   */\n      dup3\n        /* \"#utility.yul\":696:710   */\n      add\n        /* \"#utility.yul\":681:710   */\n      swap1\n      pop\n        /* \"#utility.yul\":547:716   */\n      swap3\n      swap2\n      pop\n      pop\n      jump\t// out\n        /* \"#utility.yul\":722:861   */\n    tag_308:\n        /* \"#utility.yul\":811:817   */\n      dup3\n        /* \"#utility.yul\":806:809   */\n      dup2\n        /* \"#utility.yul\":801:804   */\n      dup4\n        /* \"#utility.yul\":795:818   */\n      mcopy\n        /* \"#utility.yul\":852:853   */\n      0x00\n        /* \"#utility.yul\":843:849   */\n      dup4\n        /* \"#utility.yul\":838:841   */\n      dup4\n        /* \"#utility.yul\":834:850   */\n      add\n        /* \"#utility.yul\":827:854   */\n      mstore\n        /* \"#utility.yul\":722:861   */\n      pop\n      pop\n      pop\n      jump\t// out\n        /* \"#utility.yul\":867:969   */\n    tag_309:\n        /* \"#utility.yul\":908:914   */\n      0x00\n        /* \"#utility.yul\":959:961   */\n      0x1f\n        /* \"#utility.yul\":955:962   */\n      not\n        /* \"#utility.yul\":950:952   */\n      0x1f\n        /* \"#utility.yul\":943:948   */\n      dup4\n        /* \"#utility.yul\":939:953   */\n      add\n        /* \"#utility.yul\":935:963   */\n      and\n        /* \"#utility.yul\":925:963   */\n      swap1\n      pop\n        /* \"#utility.yul\":867:969   */\n      swap2\n      swap1\n      pop\n      jump\t// out\n        /* \"#utility.yul\":975:1352   */\n    tag_310:\n        /* \"#utility.yul\":1063:1066   */\n      0x00\n        /* \"#utility.yul\":1091:1130   */\n      tag_369\n        /* \"#utility.yul\":1124:1129   */\n      dup3\n        /* \"#utility.yul\":1091:1130   */\n      tag_306\n      jump\t// in\n    tag_369:\n        /* \"#utility.yul\":1146:1217   */\n      tag_370\n        /* \"#utility.yul\":1210:1216   */\n      dup2\n        /* \"#utility.yul\":1205:1208   */\n      dup6\n        /* \"#utility.yul\":1146:1217   */\n      tag_307\n      jump\t// in\n    tag_370:\n        /* \"#utility.yul\":1139:1217   */\n      swap4\n      pop\n        /* \"#utility.yul\":1226:1291   */\n      tag_371\n        /* \"#utility.yul\":1284:1290   */\n      dup2\n        /* \"#utility.yul\":1279:1282   */\n      dup6\n        /* \"#utility.yul\":1272:1276   */\n      0x20\n        /* \"#utility.yul\":1265:1270   */\n      dup7\n        /* \"#utility.yul\":1261:1277   */\n      add\n        /* \"#utility.yul\":1226:1291   */\n      tag_308\n      jump\t// in\n    tag_371:\n        /* \"#utility.yul\":1316:1345   */\n      tag_372\n        /* \"#utility.yul\":1338:1344   */\n      dup2\n        /* \"#utility.yul\":1316:1345   */\n      tag_309\n      jump\t// in\n    tag_372:\n        /* \"#utility.yul\":1311:1314   */\n      dup5\n        /* \"#utility.yul\":1307:1346   */\n      add\n        /* \"#utility.yul\":1300:1346   */\n      swap2\n      pop\n        /* \"#utility.yul\":1067:1352   */\n      pop\n        /* \"#utility.yul\":975:1352   */\n      swap3\n      swap2\n      pop\n      pop\n      jump\t// out\n        /* \"#utility.yul\":1358:1671   */\n    tag_45:\n        /* \"#utility.yul\":1471:1475   */\n      0x00\n        /* \"#utility.yul\":1509:1511   */\n      0x20\n        /* \"#utility.yul\":1498:1507   */\n      dup3\n        /* \"#utility.yul\":1494:1512   */\n      add\n        /* \"#utility.yul\":1486:1512   */\n      swap1\n      pop\n        /* \"#utility.yul\":1558:1567   */\n      dup2\n        /* \"#utility.yul\":1552:1556   */\n      dup2\n        /* \"#utility.yul\":1548:1568   */\n      sub\n        /* \"#utility.yul\":1544:1545   */\n      0x00\n        /* \"#utility.yul\":1533:1542   */\n      dup4\n        /* \"#utility.yul\":1529:1546   */\n      add\n        /* \"#utility.yul\":1522:1569   */\n      mstore\n        /* \"#utility.yul\":1586:1664   */\n      tag_374\n        /* \"#utility.yul\":1659:1663   */\n      dup2\n        /* \"#utility.yul\":1650:1656   */\n      dup5\n        /* \"#utility.yul\":1586:1664   */\n      tag_310\n      jump\t// in\n    tag_374:\n        /* \"#utility.yul\":1578:1664   */\n      swap1\n      pop\n        /* \"#utility.yul\":1358:1671   */\n      swap3\n      swap2\n      pop\n      pop\n      jump\t// out\n        /* \"#utility.yul\":1758:1875   */\n    tag_312:\n        /* \"#utility.yul\":1867:1868   */\n      0x00\n        /* \"#utility.yul\":1864:1865   */\n      0x00\n        /* \"#utility.yul\":1857:1869   */\n      revert\n        /* \"#utility.yul\":2004:2126   */\n    tag_314:\n        /* \"#utility.yul\":2077:2101   */\n      tag_379\n        /* \"#utility.yul\":2095:2100   */\n      dup2\n        /* \"#utility.yul\":2077:2101   */\n      tag_304\n      jump\t// in\n    tag_379:\n        /* \"#utility.yul\":2070:2075   */\n      dup2\n        /* \"#utility.yul\":2067:2102   */\n      eq\n        /* \"#utility.yul\":2057:2120   */\n      tag_380\n      jumpi\n        /* \"#utility.yul\":2116:2117   */\n      0x00\n        /* \"#utility.yul\":2113:2114   */\n      0x00\n        /* \"#utility.yul\":2106:2118   */\n      revert\n        /* \"#utility.yul\":2057:2120   */\n    tag_380:\n        /* \"#utility.yul\":2004:2126   */\n      pop\n      jump\t// out\n        /* \"#utility.yul\":2132:2271   */\n    tag_315:\n        /* \"#utility.yul\":2178:2183   */\n      0x00\n        /* \"#utility.yul\":2216:2222   */\n      dup2\n        /* \"#utility.yul\":2203:2223   */\n      calldataload\n        /* \"#utility.yul\":2194:2223   */\n      swap1\n      pop\n        /* \"#utility.yul\":2232:2265   */\n      tag_382\n        /* \"#utility.yul\":2259:2264   */\n      dup2\n        /* \"#utility.yul\":2232:2265   */\n      tag_314\n      jump\t// in\n    tag_382:\n        /* \"#utility.yul\":2132:2271   */\n      swap3\n      swap2\n      pop\n      pop\n      jump\t// out\n        /* \"#utility.yul\":2277:2606   */\n    tag_48:\n        /* \"#utility.yul\":2336:2342   */\n      0x00\n        /* \"#utility.yul\":2385:2387   */\n      0x20\n        /* \"#utility.yul\":2373:2382   */\n      dup3\n        /* \"#utility.yul\":2364:2371   */\n      dup5\n        /* \"#utility.yul\":2360:2383   */\n      sub\n        /* \"#utility.yul\":2356:2388   */\n      slt\n        /* \"#utility.yul\":2353:2472   */\n      iszero\n      tag_384\n      jumpi\n        /* \"#utility.yul\":2391:2470   */\n      tag_385\n      tag_312\n      jump\t// in\n    tag_385:\n        /* \"#utility.yul\":2353:2472   */\n    tag_384:\n        /* \"#utility.yul\":2511:2512   */\n      0x00\n        /* \"#utility.yul\":2536:2589   */\n      tag_386\n        /* \"#utility.yul\":2581:2588   */\n      dup5\n        /* \"#utility.yul\":2572:2578   */\n      dup3\n        /* \"#utility.yul\":2561:2570   */\n      dup6\n        /* \"#utility.yul\":2557:2579   */\n      add\n        /* \"#utility.yul\":2536:2589   */\n      tag_315\n      jump\t// in\n    tag_386:\n        /* \"#utility.yul\":2526:2589   */\n      swap2\n      pop\n        /* \"#utility.yul\":2482:2599   */\n      pop\n        /* \"#utility.yul\":2277:2606   */\n      swap3\n      swap2\n      pop\n      pop\n      jump\t// out\n        /* \"#utility.yul\":2612:2738   */\n    tag_316:\n        /* \"#utility.yul\":2649:2656   */\n      0x00\n        /* \"#utility.yul\":2689:2731   */\n      0xffffffffffffffffffffffffffffffffffffffff\n        /* \"#utility.yul\":2682:2687   */\n      dup3\n        /* \"#utility.yul\":2678:2732   */\n      and\n        /* \"#utility.yul\":2667:2732   */\n      swap1\n      pop\n        /* \"#utility.yul\":2612:2738   */\n      swap2\n      swap1\n      pop\n      jump\t// out\n        /* \"#utility.yul\":2744:2840   */\n    tag_317:\n        /* \"#utility.yul\":2781:2788   */\n      0x00\n        /* \"#utility.yul\":2810:2834   */\n      tag_389\n        /* \"#utility.yul\":2828:2833   */\n      dup3\n        /* \"#utility.yul\":2810:2834   */\n      tag_316\n      jump\t// in\n    tag_389:\n        /* \"#utility.yul\":2799:2834   */\n      swap1\n      pop\n        /* \"#utility.yul\":2744:2840   */\n      swap2\n      swap1\n      pop\n      jump\t// out\n        /* \"#utility.yul\":2846:2968   */\n    tag_318:\n        /* \"#utility.yul\":2919:2943   */\n      tag_391\n        /* \"#utility.yul\":2937:2942   */\n      dup2\n        /* \"#utility.yul\":2919:2943   */\n      tag_317\n      jump\t// in\n    tag_391:\n        /* \"#utility.yul\":2912:2917   */\n      dup2\n        /* \"#utility.yul\":2909:2944   */\n      eq\n        /* \"#utility.yul\":2899:2962   */\n      tag_392\n      jumpi\n        /* \"#utility.yul\":2958:2959   */\n      0x00\n        /* \"#utility.yul\":2955:2956   */\n      0x00\n        /* \"#utility.yul\":2948:2960   */\n      revert\n        /* \"#utility.yul\":2899:2962   */\n    tag_392:\n        /* \"#utility.yul\":2846:2968   */\n      pop\n      jump\t// out\n        /* \"#utility.yul\":2974:3113   */\n    tag_319:\n        /* \"#utility.yul\":3020:3025   */\n      0x00\n        /* \"#utility.yul\":3058:3064   */\n      dup2\n        /* \"#utility.yul\":3045:3065   */\n      calldataload\n        /* \"#utility.yul\":3036:3065   */\n      swap1\n      pop\n        /* \"#utility.yul\":3074:3107   */\n      tag_394\n        /* \"#utility.yul\":3101:3106   */\n      dup2\n        /* \"#utility.yul\":3074:3107   */\n      tag_318\n      jump\t// in\n    tag_394:\n        /* \"#utility.yul\":2974:3113   */\n      swap3\n      swap2\n      pop\n      pop\n      jump\t// out\n        /* \"#utility.yul\":3119:3593   */\n    tag_53:\n        /* \"#utility.yul\":3187:3193   */\n      0x00\n        /* \"#utility.yul\":3195:3201   */\n      0x00\n        /* \"#utility.yul\":3244:3246   */\n      0x40\n        /* \"#utility.yul\":3232:3241   */\n      dup4\n        /* \"#utility.yul\":3223:3230   */\n      dup6\n        /* \"#utility.yul\":3219:3242   */\n      sub\n        /* \"#utility.yul\":3215:3247   */\n      slt\n        /* \"#utility.yul\":3212:3331   */\n      iszero\n      tag_396\n      jumpi\n        /* \"#utility.yul\":3250:3329   */\n      tag_397\n      tag_312\n      jump\t// in\n    tag_397:\n        /* \"#utility.yul\":3212:3331   */\n    tag_396:\n        /* \"#utility.yul\":3370:3371   */\n      0x00\n        /* \"#utility.yul\":3395:3448   */\n      tag_398\n        /* \"#utility.yul\":3440:3447   */\n      dup6\n        /* \"#utility.yul\":3431:3437   */\n      dup3\n        /* \"#utility.yul\":3420:3429   */\n      dup7\n        /* \"#utility.yul\":3416:3438   */\n      add\n        /* \"#utility.yul\":3395:3448   */\n      tag_319\n      jump\t// in\n    tag_398:\n        /* \"#utility.yul\":3385:3448   */\n      swap3\n      pop\n        /* \"#utility.yul\":3341:3458   */\n      pop\n        /* \"#utility.yul\":3497:3499   */\n      0x20\n        /* \"#utility.yul\":3523:3576   */\n      tag_399\n        /* \"#utility.yul\":3568:3575   */\n      dup6\n        /* \"#utility.yul\":3559:3565   */\n      dup3\n        /* \"#utility.yul\":3548:3557   */\n      dup7\n        /* \"#utility.yul\":3544:3566   */\n      add\n        /* \"#utility.yul\":3523:3576   */\n      tag_315\n      jump\t// in\n    tag_399:\n        /* \"#utility.yul\":3513:3576   */\n      swap2\n      pop\n        /* \"#utility.yul\":3468:3586   */\n      pop\n        /* \"#utility.yul\":3119:3593   */\n      swap3\n      pop\n      swap3\n      swap1\n      pop\n      jump\t// out\n        /* \"#utility.yul\":3599:3689   */\n    tag_320:\n        /* \"#utility.yul\":3633:3640   */\n      0x00\n        /* \"#utility.yul\":3676:3681   */\n      dup2\n        /* \"#utility.yul\":3669:3682   */\n      iszero\n        /* \"#utility.yul\":3662:3683   */\n      iszero\n        /* \"#utility.yul\":3651:3683   */\n      swap1\n      pop\n        /* \"#utility.yul\":3599:3689   */\n      swap2\n      swap1\n      pop\n      jump\t// out\n        /* \"#utility.yul\":3695:3804   */\n    tag_321:\n        /* \"#utility.yul\":3776:3797   */\n      tag_402\n        /* \"#utility.yul\":3791:3796   */\n      dup2\n        /* \"#utility.yul\":3776:3797   */\n      tag_320\n      jump\t// in\n    tag_402:\n        /* \"#utility.yul\":3771:3774   */\n      dup3\n        /* \"#utility.yul\":3764:3798   */\n      mstore\n        /* \"#utility.yul\":3695:3804   */\n      pop\n      pop\n      jump\t// out\n        /* \"#utility.yul\":3810:4020   */\n    tag_56:\n        /* \"#utility.yul\":3897:3901   */\n      0x00\n        /* \"#utility.yul\":3935:3937   */\n      0x20\n        /* \"#utility.yul\":3924:3933   */\n      dup3\n        /* \"#utility.yul\":3920:3938   */\n      add\n        /* \"#utility.yul\":3912:3938   */\n      swap1\n      pop\n        /* \"#utility.yul\":3948:4013   */\n      tag_404\n        /* \"#utility.yul\":4010:4011   */\n      0x00\n        /* \"#utility.yul\":3999:4008   */\n      dup4\n        /* \"#utility.yul\":3995:4012   */\n      add\n        /* \"#utility.yul\":3986:3992   */\n      dup5\n        /* \"#utility.yul\":3948:4013   */\n      tag_321\n      jump\t// in\n    tag_404:\n        /* \"#utility.yul\":3810:4020   */\n      swap3\n      swap2\n      pop\n      pop\n      jump\t// out\n        /* \"#utility.yul\":4026:4645   */\n    tag_66:\n        /* \"#utility.yul\":4103:4109   */\n      0x00\n        /* \"#utility.yul\":4111:4117   */\n      0x00\n        /* \"#utility.yul\":4119:4125   */\n      0x00\n        /* \"#utility.yul\":4168:4170   */\n      0x60\n        /* \"#utility.yul\":4156:4165   */\n      dup5\n        /* \"#utility.yul\":4147:4154   */\n      dup7\n        /* \"#utility.yul\":4143:4166   */\n      sub\n        /* \"#utility.yul\":4139:4171   */\n      slt\n        /* \"#utility.yul\":4136:4255   */\n      iszero\n      tag_406\n      jumpi\n        /* \"#utility.yul\":4174:4253   */\n      tag_407\n      tag_312\n      jump\t// in\n    tag_407:\n        /* \"#utility.yul\":4136:4255   */\n    tag_406:\n        /* \"#utility.yul\":4294:4295   */\n      0x00\n        /* \"#utility.yul\":4319:4372   */\n      tag_408\n        /* \"#utility.yul\":4364:4371   */\n      dup7\n        /* \"#utility.yul\":4355:4361   */\n      dup3\n        /* \"#utility.yul\":4344:4353   */\n      dup8\n        /* \"#utility.yul\":4340:4362   */\n      add\n        /* \"#utility.yul\":4319:4372   */\n      tag_319\n      jump\t// in\n    tag_408:\n        /* \"#utility.yul\":4309:4372   */\n      swap4\n      pop\n        /* \"#utility.yul\":4265:4382   */\n      pop\n        /* \"#utility.yul\":4421:4423   */\n      0x20\n        /* \"#utility.yul\":4447:4500   */\n      tag_409\n        /* \"#utility.yul\":4492:4499   */\n      dup7\n        /* \"#utility.yul\":4483:4489   */\n      dup3\n        /* \"#utility.yul\":4472:4481   */\n      dup8\n        /* \"#utility.yul\":4468:4490   */\n      add\n        /* \"#utility.yul\":4447:4500   */\n      tag_319\n      jump\t// in\n    tag_409:\n        /* \"#utility.yul\":4437:4500   */\n      swap3\n      pop\n        /* \"#utility.yul\":4392:4510   */\n      pop\n        /* \"#utility.yul\":4549:4551   */\n      0x40\n        /* \"#utility.yul\":4575:4628   */\n      tag_410\n        /* \"#utility.yul\":4620:4627   */\n      dup7\n        /* \"#utility.yul\":4611:4617   */\n      dup3\n        /* \"#utility.yul\":4600:4609   */\n      dup8\n        /* \"#utility.yul\":4596:4618   */\n      add\n        /* \"#utility.yul\":4575:4628   */\n      tag_315\n      jump\t// in\n    tag_410:\n        /* \"#utility.yul\":4565:4628   */\n      swap2\n      pop\n        /* \"#utility.yul\":4520:4638   */\n      pop\n        /* \"#utility.yul\":4026:4645   */\n      swap3\n      pop\n      swap3\n      pop\n      swap3\n      jump\t// out\n        /* \"#utility.yul\":4651:4737   */\n    tag_322:\n        /* \"#utility.yul\":4686:4693   */\n      0x00\n        /* \"#utility.yul\":4726:4730   */\n      0xff\n        /* \"#utility.yul\":4719:4724   */\n      dup3\n        /* \"#utility.yul\":4715:4731   */\n      and\n        /* \"#utility.yul\":4704:4731   */\n      swap1\n      pop\n        /* \"#utility.yul\":4651:4737   */\n      swap2\n      swap1\n      pop\n      jump\t// out\n        /* \"#utility.yul\":4743:4855   */\n    tag_323:\n        /* \"#utility.yul\":4826:4848   */\n      tag_413\n        /* \"#utility.yul\":4842:4847   */\n      dup2\n        /* \"#utility.yul\":4826:4848   */\n      tag_322\n      jump\t// in\n    tag_413:\n        /* \"#utility.yul\":4821:4824   */\n      dup3\n        /* \"#utility.yul\":4814:4849   */\n      mstore\n        /* \"#utility.yul\":4743:4855   */\n      pop\n      pop\n      jump\t// out\n        /* \"#utility.yul\":4861:5075   */\n    tag_72:\n        /* \"#utility.yul\":4950:4954   */\n      0x00\n        /* \"#utility.yul\":4988:4990   */\n      0x20\n        /* \"#utility.yul\":4977:4986   */\n      dup3\n        /* \"#utility.yul\":4973:4991   */\n      add\n        /* \"#utility.yul\":4965:4991   */\n      swap1\n      pop\n        /* \"#utility.yul\":5001:5068   */\n      tag_415\n        /* \"#utility.yul\":5065:5066   */\n      0x00\n        /* \"#utility.yul\":5054:5063   */\n      dup4\n        /* \"#utility.yul\":5050:5067   */\n      add\n        /* \"#utility.yul\":5041:5047   */\n      dup5\n        /* \"#utility.yul\":5001:5068   */\n      tag_323\n      jump\t// in\n    tag_415:\n        /* \"#utility.yul\":4861:5075   */\n      swap3\n      swap2\n      pop\n      pop\n      jump\t// out\n        /* \"#utility.yul\":5081:5158   */\n    tag_324:\n        /* \"#utility.yul\":5118:5125   */\n      0x00\n        /* \"#utility.yul\":5147:5152   */\n      dup2\n        /* \"#utility.yul\":5136:5152   */\n      swap1\n      pop\n        /* \"#utility.yul\":5081:5158   */\n      swap2\n      swap1\n      pop\n      jump\t// out\n        /* \"#utility.yul\":5164:5282   */\n    tag_325:\n        /* \"#utility.yul\":5251:5275   */\n      tag_418\n        /* \"#utility.yul\":5269:5274   */\n      dup2\n        /* \"#utility.yul\":5251:5275   */\n      tag_324\n      jump\t// in\n    tag_418:\n        /* \"#utility.yul\":5246:5249   */\n      dup3\n        /* \"#utility.yul\":5239:5276   */\n      mstore\n        /* \"#utility.yul\":5164:5282   */\n      pop\n      pop\n      jump\t// out\n        /* \"#utility.yul\":5288:5510   */\n    tag_76:\n        /* \"#utility.yul\":5381:5385   */\n      0x00\n        /* \"#utility.yul\":5419:5421   */\n      0x20\n        /* \"#utility.yul\":5408:5417   */\n      dup3\n        /* \"#utility.yul\":5404:5422   */\n      add\n        /* \"#utility.yul\":5396:5422   */\n      swap1\n      pop\n        /* \"#utility.yul\":5432:5503   */\n      tag_420\n        /* \"#utility.yul\":5500:5501   */\n      0x00\n        /* \"#utility.yul\":5489:5498   */\n      dup4\n        /* \"#utility.yul\":5485:5502   */\n      add\n        /* \"#utility.yul\":5476:5482   */\n      dup5\n        /* \"#utility.yul\":5432:5503   */\n      tag_325\n      jump\t// in\n    tag_420:\n        /* \"#utility.yul\":5288:5510   */\n      swap3\n      swap2\n      pop\n      pop\n      jump\t// out\n        /* \"#utility.yul\":5516:5576   */\n    tag_326:\n        /* \"#utility.yul\":5544:5547   */\n      0x00\n        /* \"#utility.yul\":5565:5570   */\n      dup2\n        /* \"#utility.yul\":5558:5570   */\n      swap1\n      pop\n        /* \"#utility.yul\":5516:5576   */\n      swap2\n      swap1\n      pop\n      jump\t// out\n        /* \"#utility.yul\":5582:5724   */\n    tag_327:\n        /* \"#utility.yul\":5632:5641   */\n      0x00\n        /* \"#utility.yul\":5665:5718   */\n      tag_423\n        /* \"#utility.yul\":5683:5717   */\n      tag_424\n        /* \"#utility.yul\":5692:5716   */\n      tag_425\n        /* \"#utility.yul\":5710:5715   */\n      dup5\n        /* \"#utility.yul\":5692:5716   */\n      tag_316\n      jump\t// in\n    tag_425:\n        /* \"#utility.yul\":5683:5717   */\n      tag_326\n      jump\t// in\n    tag_424:\n        /* \"#utility.yul\":5665:5718   */\n      tag_316\n      jump\t// in\n    tag_423:\n        /* \"#utility.yul\":5652:5718   */\n      swap1\n      pop\n        /* \"#utility.yul\":5582:5724   */\n      swap2\n      swap1\n      pop\n      jump\t// out\n        /* \"#utility.yul\":5730:5856   */\n    tag_328:\n        /* \"#utility.yul\":5780:5789   */\n      0x00\n        /* \"#utility.yul\":5813:5850   */\n      tag_427\n        /* \"#utility.yul\":5844:5849   */\n      dup3\n        /* \"#utility.yul\":5813:5850   */\n      tag_327\n      jump\t// in\n    tag_427:\n        /* \"#utility.yul\":5800:5850   */\n      swap1\n      pop\n        /* \"#utility.yul\":5730:5856   */\n      swap2\n      swap1\n      pop\n      jump\t// out\n        /* \"#utility.yul\":5862:6001   */\n    tag_329:\n        /* \"#utility.yul\":5925:5934   */\n      0x00\n        /* \"#utility.yul\":5958:5995   */\n      tag_429\n        /* \"#utility.yul\":5989:5994   */\n      dup3\n        /* \"#utility.yul\":5958:5995   */\n      tag_328\n      jump\t// in\n    tag_429:\n        /* \"#utility.yul\":5945:5995   */\n      swap1\n      pop\n        /* \"#utility.yul\":5862:6001   */\n      swap2\n      swap1\n      pop\n      jump\t// out\n        /* \"#utility.yul\":6007:6164   */\n    tag_330:\n        /* \"#utility.yul\":6107:6157   */\n      tag_431\n        /* \"#utility.yul\":6151:6156   */\n      dup2\n        /* \"#utility.yul\":6107:6157   */\n      tag_329\n      jump\t// in\n    tag_431:\n        /* \"#utility.yul\":6102:6105   */\n      dup3\n        /* \"#utility.yul\":6095:6158   */\n      mstore\n        /* \"#utility.yul\":6007:6164   */\n      pop\n      pop\n      jump\t// out\n        /* \"#utility.yul\":6170:6418   */\n    tag_80:\n        /* \"#utility.yul\":6276:6280   */\n      0x00\n        /* \"#utility.yul\":6314:6316   */\n      0x20\n        /* \"#utility.yul\":6303:6312   */\n      dup3\n        /* \"#utility.yul\":6299:6317   */\n      add\n        /* \"#utility.yul\":6291:6317   */\n      swap1\n      pop\n        /* \"#utility.yul\":6327:6411   */\n      tag_433\n        /* \"#utility.yul\":6408:6409   */\n      0x00\n        /* \"#utility.yul\":6397:6406   */\n      dup4\n        /* \"#utility.yul\":6393:6410   */\n      add\n        /* \"#utility.yul\":6384:6390   */\n      dup5\n        /* \"#utility.yul\":6327:6411   */\n      tag_330\n      jump\t// in\n    tag_433:\n        /* \"#utility.yul\":6170:6418   */\n      swap3\n      swap2\n      pop\n      pop\n      jump\t// out\n        /* \"#utility.yul\":6424:6753   */\n    tag_83:\n        /* \"#utility.yul\":6483:6489   */\n      0x00\n        /* \"#utility.yul\":6532:6534   */\n      0x20\n        /* \"#utility.yul\":6520:6529   */\n      dup3\n        /* \"#utility.yul\":6511:6518   */\n      dup5\n        /* \"#utility.yul\":6507:6530   */\n      sub\n        /* \"#utility.yul\":6503:6535   */\n      slt\n        /* \"#utility.yul\":6500:6619   */\n      iszero\n      tag_435\n      jumpi\n        /* \"#utility.yul\":6538:6617   */\n      tag_436\n      tag_312\n      jump\t// in\n    tag_436:\n        /* \"#utility.yul\":6500:6619   */\n    tag_435:\n        /* \"#utility.yul\":6658:6659   */\n      0x00\n        /* \"#utility.yul\":6683:6736   */\n      tag_437\n        /* \"#utility.yul\":6728:6735   */\n      dup5\n        /* \"#utility.yul\":6719:6725   */\n      dup3\n        /* \"#utility.yul\":6708:6717   */\n      dup6\n        /* \"#utility.yul\":6704:6726   */\n      add\n        /* \"#utility.yul\":6683:6736   */\n      tag_319\n      jump\t// in\n    tag_437:\n        /* \"#utility.yul\":6673:6736   */\n      swap2\n      pop\n        /* \"#utility.yul\":6629:6746   */\n      pop\n        /* \"#utility.yul\":6424:6753   */\n      swap3\n      swap2\n      pop\n      pop\n      jump\t// out\n        /* \"#utility.yul\":6759:7233   */\n    tag_92:\n        /* \"#utility.yul\":6827:6833   */\n      0x00\n        /* \"#utility.yul\":6835:6841   */\n      0x00\n        /* \"#utility.yul\":6884:6886   */\n      0x40\n        /* \"#utility.yul\":6872:6881   */\n      dup4\n        /* \"#utility.yul\":6863:6870   */\n      dup6\n        /* \"#utility.yul\":6859:6882   */\n      sub\n        /* \"#utility.yul\":6855:6887   */\n      slt\n        /* \"#utility.yul\":6852:6971   */\n      iszero\n      tag_439\n      jumpi\n        /* \"#utility.yul\":6890:6969   */\n      tag_440\n      tag_312\n      jump\t// in\n    tag_440:\n        /* \"#utility.yul\":6852:6971   */\n    tag_439:\n        /* \"#utility.yul\":7010:7011   */\n      0x00\n        /* \"#utility.yul\":7035:7088   */\n      tag_441\n        /* \"#utility.yul\":7080:7087   */\n      dup6\n        /* \"#utility.yul\":7071:7077   */\n      dup3\n        /* \"#utility.yul\":7060:7069   */\n      dup7\n        /* \"#utility.yul\":7056:7078   */\n      add\n        /* \"#utility.yul\":7035:7088   */\n      tag_315\n      jump\t// in\n    tag_441:\n        /* \"#utility.yul\":7025:7088   */\n      swap3\n      pop\n        /* \"#utility.yul\":6981:7098   */\n      pop\n        /* \"#utility.yul\":7137:7139   */\n      0x20\n        /* \"#utility.yul\":7163:7216   */\n      tag_442\n        /* \"#utility.yul\":7208:7215   */\n      dup6\n        /* \"#utility.yul\":7199:7205   */\n      dup3\n        /* \"#utility.yul\":7188:7197   */\n      dup7\n        /* \"#utility.yul\":7184:7206   */\n      add\n        /* \"#utility.yul\":7163:7216   */\n      tag_319\n      jump\t// in\n    tag_442:\n        /* \"#utility.yul\":7153:7216   */\n      swap2\n      pop\n        /* \"#utility.yul\":7108:7226   */\n      pop\n        /* \"#utility.yul\":6759:7233   */\n      swap3\n      pop\n      swap3\n      swap1\n      pop\n      jump\t// out\n        /* \"#utility.yul\":7239:7858   */\n    tag_120:\n        /* \"#utility.yul\":7316:7322   */\n      0x00\n        /* \"#utility.yul\":7324:7330   */\n      0x00\n        /* \"#utility.yul\":7332:7338   */\n      0x00\n        /* \"#utility.yul\":7381:7383   */\n      0x60\n        /* \"#utility.yul\":7369:7378   */\n      dup5\n        /* \"#utility.yul\":7360:7367   */\n      dup7\n        /* \"#utility.yul\":7356:7379   */\n      sub\n        /* \"#utility.yul\":7352:7384   */\n      slt\n        /* \"#utility.yul\":7349:7468   */\n      iszero\n      tag_444\n      jumpi\n        /* \"#utility.yul\":7387:7466   */\n      tag_445\n      tag_312\n      jump\t// in\n    tag_445:\n        /* \"#utility.yul\":7349:7468   */\n    tag_444:\n        /* \"#utility.yul\":7507:7508   */\n      0x00\n        /* \"#utility.yul\":7532:7585   */\n      tag_446\n        /* \"#utility.yul\":7577:7584   */\n      dup7\n        /* \"#utility.yul\":7568:7574   */\n      dup3\n        /* \"#utility.yul\":7557:7566   */\n      dup8\n        /* \"#utility.yul\":7553:7575   */\n      add\n        /* \"#utility.yul\":7532:7585   */\n      tag_315\n      jump\t// in\n    tag_446:\n        /* \"#utility.yul\":7522:7585   */\n      swap4\n      pop\n        /* \"#utility.yul\":7478:7595   */\n      pop\n        /* \"#utility.yul\":7634:7636   */\n      0x20\n        /* \"#utility.yul\":7660:7713   */\n      tag_447\n        /* \"#utility.yul\":7705:7712   */\n      dup7\n        /* \"#utility.yul\":7696:7702   */\n      dup3\n        /* \"#utility.yul\":7685:7694   */\n      dup8\n        /* \"#utility.yul\":7681:7703   */\n      add\n        /* \"#utility.yul\":7660:7713   */\n      tag_319\n      jump\t// in\n    tag_447:\n        /* \"#utility.yul\":7650:7713   */\n      swap3\n      pop\n        /* \"#utility.yul\":7605:7723   */\n      pop\n        /* \"#utility.yul\":7762:7764   */\n      0x40\n        /* \"#utility.yul\":7788:7841   */\n      tag_448\n        /* \"#utility.yul\":7833:7840   */\n      dup7\n        /* \"#utility.yul\":7824:7830   */\n      dup3\n        /* \"#utility.yul\":7813:7822   */\n      dup8\n        /* \"#utility.yul\":7809:7831   */\n      add\n        /* \"#utility.yul\":7788:7841   */\n      tag_319\n      jump\t// in\n    tag_448:\n        /* \"#utility.yul\":7778:7841   */\n      swap2\n      pop\n        /* \"#utility.yul\":7733:7851   */\n      pop\n        /* \"#utility.yul\":7239:7858   */\n      swap3\n      pop\n      swap3\n      pop\n      swap3\n      jump\t// out\n        /* \"#utility.yul\":7864:7982   */\n    tag_331:\n        /* \"#utility.yul\":7935:7957   */\n      tag_450\n        /* \"#utility.yul\":7951:7956   */\n      dup2\n        /* \"#utility.yul\":7935:7957   */\n      tag_322\n      jump\t// in\n    tag_450:\n        /* \"#utility.yul\":7928:7933   */\n      dup2\n        /* \"#utility.yul\":7925:7958   */\n      eq\n        /* \"#utility.yul\":7915:7976   */\n      tag_451\n      jumpi\n        /* \"#utility.yul\":7972:7973   */\n      0x00\n        /* \"#utility.yul\":7969:7970   */\n      0x00\n        /* \"#utility.yul\":7962:7974   */\n      revert\n        /* \"#utility.yul\":7915:7976   */\n    tag_451:\n        /* \"#utility.yul\":7864:7982   */\n      pop\n      jump\t// out\n        /* \"#utility.yul\":7988:8123   */\n    tag_332:\n        /* \"#utility.yul\":8032:8037   */\n      0x00\n        /* \"#utility.yul\":8070:8076   */\n      dup2\n        /* \"#utility.yul\":8057:8077   */\n      calldataload\n        /* \"#utility.yul\":8048:8077   */\n      swap1\n      pop\n        /* \"#utility.yul\":8086:8117   */\n      tag_453\n        /* \"#utility.yul\":8111:8116   */\n      dup2\n        /* \"#utility.yul\":8086:8117   */\n      tag_331\n      jump\t// in\n    tag_453:\n        /* \"#utility.yul\":7988:8123   */\n      swap3\n      swap2\n      pop\n      pop\n      jump\t// out\n        /* \"#utility.yul\":8129:8251   */\n    tag_333:\n        /* \"#utility.yul\":8202:8226   */\n      tag_455\n        /* \"#utility.yul\":8220:8225   */\n      dup2\n        /* \"#utility.yul\":8202:8226   */\n      tag_324\n      jump\t// in\n    tag_455:\n        /* \"#utility.yul\":8195:8200   */\n      dup2\n        /* \"#utility.yul\":8192:8227   */\n      eq\n        /* \"#utility.yul\":8182:8245   */\n      tag_456\n      jumpi\n        /* \"#utility.yul\":8241:8242   */\n      0x00\n        /* \"#utility.yul\":8238:8239   */\n      0x00\n        /* \"#utility.yul\":8231:8243   */\n      revert\n        /* \"#utility.yul\":8182:8245   */\n    tag_456:\n        /* \"#utility.yul\":8129:8251   */\n      pop\n      jump\t// out\n        /* \"#utility.yul\":8257:8396   */\n    tag_334:\n        /* \"#utility.yul\":8303:8308   */\n      0x00\n        /* \"#utility.yul\":8341:8347   */\n      dup2\n        /* \"#utility.yul\":8328:8348   */\n      calldataload\n        /* \"#utility.yul\":8319:8348   */\n      swap1\n      pop\n        /* \"#utility.yul\":8357:8390   */\n      tag_458\n        /* \"#utility.yul\":8384:8389   */\n      dup2\n        /* \"#utility.yul\":8357:8390   */\n      tag_333\n      jump\t// in\n    tag_458:\n        /* \"#utility.yul\":8257:8396   */\n      swap3\n      swap2\n      pop\n      pop\n      jump\t// out\n        /* \"#utility.yul\":8402:9601   */\n    tag_141:\n        /* \"#utility.yul\":8513:8519   */\n      0x00\n        /* \"#utility.yul\":8521:8527   */\n      0x00\n        /* \"#utility.yul\":8529:8535   */\n      0x00\n        /* \"#utility.yul\":8537:8543   */\n      0x00\n        /* \"#utility.yul\":8545:8551   */\n      0x00\n        /* \"#utility.yul\":8553:8559   */\n      0x00\n        /* \"#utility.yul\":8561:8567   */\n      0x00\n        /* \"#utility.yul\":8610:8613   */\n      0xe0\n        /* \"#utility.yul\":8598:8607   */\n      dup9\n        /* \"#utility.yul\":8589:8596   */\n      dup11\n        /* \"#utility.yul\":8585:8608   */\n      sub\n        /* \"#utility.yul\":8581:8614   */\n      slt\n        /* \"#utility.yul\":8578:8698   */\n      iszero\n      tag_460\n      jumpi\n        /* \"#utility.yul\":8617:8696   */\n      tag_461\n      tag_312\n      jump\t// in\n    tag_461:\n        /* \"#utility.yul\":8578:8698   */\n    tag_460:\n        /* \"#utility.yul\":8737:8738   */\n      0x00\n        /* \"#utility.yul\":8762:8815   */\n      tag_462\n        /* \"#utility.yul\":8807:8814   */\n      dup11\n        /* \"#utility.yul\":8798:8804   */\n      dup3\n        /* \"#utility.yul\":8787:8796   */\n      dup12\n        /* \"#utility.yul\":8783:8805   */\n      add\n        /* \"#utility.yul\":8762:8815   */\n      tag_319\n      jump\t// in\n    tag_462:\n        /* \"#utility.yul\":8752:8815   */\n      swap8\n      pop\n        /* \"#utility.yul\":8708:8825   */\n      pop\n        /* \"#utility.yul\":8864:8866   */\n      0x20\n        /* \"#utility.yul\":8890:8943   */\n      tag_463\n        /* \"#utility.yul\":8935:8942   */\n      dup11\n        /* \"#utility.yul\":8926:8932   */\n      dup3\n        /* \"#utility.yul\":8915:8924   */\n      dup12\n        /* \"#utility.yul\":8911:8933   */\n      add\n        /* \"#utility.yul\":8890:8943   */\n      tag_319\n      jump\t// in\n    tag_463:\n        /* \"#utility.yul\":8880:8943   */\n      swap7\n      pop\n        /* \"#utility.yul\":8835:8953   */\n      pop\n        /* \"#utility.yul\":8992:8994   */\n      0x40\n        /* \"#utility.yul\":9018:9071   */\n      tag_464\n        /* \"#utility.yul\":9063:9070   */\n      dup11\n        /* \"#utility.yul\":9054:9060   */\n      dup3\n        /* \"#utility.yul\":9043:9052   */\n      dup12\n        /* \"#utility.yul\":9039:9061   */\n      add\n        /* \"#utility.yul\":9018:9071   */\n      tag_315\n      jump\t// in\n    tag_464:\n        /* \"#utility.yul\":9008:9071   */\n      swap6\n      pop\n        /* \"#utility.yul\":8963:9081   */\n      pop\n        /* \"#utility.yul\":9120:9122   */\n      0x60\n        /* \"#utility.yul\":9146:9199   */\n      tag_465\n        /* \"#utility.yul\":9191:9198   */\n      dup11\n        /* \"#utility.yul\":9182:9188   */\n      dup3\n        /* \"#utility.yul\":9171:9180   */\n      dup12\n        /* \"#utility.yul\":9167:9189   */\n      add\n        /* \"#utility.yul\":9146:9199   */\n      tag_315\n      jump\t// in\n    tag_465:\n        /* \"#utility.yul\":9136:9199   */\n      swap5\n      pop\n        /* \"#utility.yul\":9091:9209   */\n      pop\n        /* \"#utility.yul\":9248:9251   */\n      0x80\n        /* \"#utility.yul\":9275:9326   */\n      tag_466\n        /* \"#utility.yul\":9318:9325   */\n      dup11\n        /* \"#utility.yul\":9309:9315   */\n      dup3\n        /* \"#utility.yul\":9298:9307   */\n      dup12\n        /* \"#utility.yul\":9294:9316   */\n      add\n        /* \"#utility.yul\":9275:9326   */\n      tag_332\n      jump\t// in\n    tag_466:\n        /* \"#utility.yul\":9265:9326   */\n      swap4\n      pop\n        /* \"#utility.yul\":9219:9336   */\n      pop\n        /* \"#utility.yul\":9375:9378   */\n      0xa0\n        /* \"#utility.yul\":9402:9455   */\n      tag_467\n        /* \"#utility.yul\":9447:9454   */\n      dup11\n        /* \"#utility.yul\":9438:9444   */\n      dup3\n        /* \"#utility.yul\":9427:9436   */\n      dup12\n        /* \"#utility.yul\":9423:9445   */\n      add\n        /* \"#utility.yul\":9402:9455   */\n      tag_334\n      jump\t// in\n    tag_467:\n        /* \"#utility.yul\":9392:9455   */\n      swap3\n      pop\n        /* \"#utility.yul\":9346:9465   */\n      pop\n        /* \"#utility.yul\":9504:9507   */\n      0xc0\n        /* \"#utility.yul\":9531:9584   */\n      tag_468\n        /* \"#utility.yul\":9576:9583   */\n      dup11\n        /* \"#utility.yul\":9567:9573   */\n      dup3\n        /* \"#utility.yul\":9556:9565   */\n      dup12\n        /* \"#utility.yul\":9552:9574   */\n      add\n        /* \"#utility.yul\":9531:9584   */\n      tag_334\n      jump\t// in\n    tag_468:\n        /* \"#utility.yul\":9521:9584   */\n      swap2\n      pop\n        /* \"#utility.yul\":9475:9594   */\n      pop\n        /* \"#utility.yul\":8402:9601   */\n      swap3\n      swap6\n      swap9\n      swap2\n      swap5\n      swap8\n      pop\n      swap3\n      swap6\n      pop\n      jump\t// out\n        /* \"#utility.yul\":9607:10081   */\n    tag_149:\n        /* \"#utility.yul\":9675:9681   */\n      0x00\n        /* \"#utility.yul\":9683:9689   */\n      0x00\n        /* \"#utility.yul\":9732:9734   */\n      0x40\n        /* \"#utility.yul\":9720:9729   */\n      dup4\n        /* \"#utility.yul\":9711:9718   */\n      dup6\n        /* \"#utility.yul\":9707:9730   */\n      sub\n        /* \"#utility.yul\":9703:9735   */\n      slt\n        /* \"#utility.yul\":9700:9819   */\n      iszero\n      tag_470\n      jumpi\n        /* \"#utility.yul\":9738:9817   */\n      tag_471\n      tag_312\n      jump\t// in\n    tag_471:\n        /* \"#utility.yul\":9700:9819   */\n    tag_470:\n        /* \"#utility.yul\":9858:9859   */\n      0x00\n        /* \"#utility.yul\":9883:9936   */\n      tag_472\n        /* \"#utility.yul\":9928:9935   */\n      dup6\n        /* \"#utility.yul\":9919:9925   */\n      dup3\n        /* \"#utility.yul\":9908:9917   */\n      dup7\n        /* \"#utility.yul\":9904:9926   */\n      add\n        /* \"#utility.yul\":9883:9936   */\n      tag_319\n      jump\t// in\n    tag_472:\n        /* \"#utility.yul\":9873:9936   */\n      swap3\n      pop\n        /* \"#utility.yul\":9829:9946   */\n      pop\n        /* \"#utility.yul\":9985:9987   */\n      0x20\n        /* \"#utility.yul\":10011:10064   */\n      tag_473\n        /* \"#utility.yul\":10056:10063   */\n      dup6\n        /* \"#utility.yul\":10047:10053   */\n      dup3\n        /* \"#utility.yul\":10036:10045   */\n      dup7\n        /* \"#utility.yul\":10032:10054   */\n      add\n        /* \"#utility.yul\":10011:10064   */\n      tag_319\n      jump\t// in\n    tag_473:\n        /* \"#utility.yul\":10001:10064   */\n      swap2\n      pop\n        /* \"#utility.yul\":9956:10074   */\n      pop\n        /* \"#utility.yul\":9607:10081   */\n      swap3\n      pop\n      swap3\n      swap1\n      pop\n      jump\t// out\n        /* \"#utility.yul\":10087:10267   */\n    tag_335:\n        /* \"#utility.yul\":10135:10212   */\n      0x4e487b7100000000000000000000000000000000000000000000000000000000\n        /* \"#utility.yul\":10132:10133   */\n      0x00\n        /* \"#utility.yul\":10125:10213   */\n      mstore\n        /* \"#utility.yul\":10232:10236   */\n      0x22\n        /* \"#utility.yul\":10229:10230   */\n      0x04\n        /* \"#utility.yul\":10222:10237   */\n      mstore\n        /* \"#utility.yul\":10256:10260   */\n      0x24\n        /* \"#utility.yul\":10253:10254   */\n      0x00\n        /* \"#utility.yul\":10246:10261   */\n      revert\n        /* \"#utility.yul\":10273:10593   */\n    tag_158:\n        /* \"#utility.yul\":10317:10323   */\n      0x00\n        /* \"#utility.yul\":10354:10355   */\n      0x02\n        /* \"#utility.yul\":10348:10352   */\n      dup3\n        /* \"#utility.yul\":10344:10356   */\n      div\n        /* \"#utility.yul\":10334:10356   */\n      swap1\n      pop\n        /* \"#utility.yul\":10401:10402   */\n      0x01\n        /* \"#utility.yul\":10395:10399   */\n      dup3\n        /* \"#utility.yul\":10391:10403   */\n      and\n        /* \"#utility.yul\":10422:10440   */\n      dup1\n        /* \"#utility.yul\":10412:10493   */\n      tag_476\n      jumpi\n        /* \"#utility.yul\":10478:10482   */\n      0x7f\n        /* \"#utility.yul\":10470:10476   */\n      dup3\n        /* \"#utility.yul\":10466:10483   */\n      and\n        /* \"#utility.yul\":10456:10483   */\n      swap2\n      pop\n        /* \"#utility.yul\":10412:10493   */\n    tag_476:\n        /* \"#utility.yul\":10540:10542   */\n      0x20\n        /* \"#utility.yul\":10532:10538   */\n      dup3\n        /* \"#utility.yul\":10529:10543   */\n      lt\n        /* \"#utility.yul\":10509:10527   */\n      dup2\n        /* \"#utility.yul\":10506:10544   */\n      sub\n        /* \"#utility.yul\":10503:10587   */\n      tag_477\n      jumpi\n        /* \"#utility.yul\":10559:10577   */\n      tag_478\n      tag_335\n      jump\t// in\n    tag_478:\n        /* \"#utility.yul\":10503:10587   */\n    tag_477:\n        /* \"#utility.yul\":10324:10593   */\n      pop\n        /* \"#utility.yul\":10273:10593   */\n      swap2\n      swap1\n      pop\n      jump\t// out\n        /* \"#utility.yul\":10599:10779   */\n    tag_336:\n        /* \"#utility.yul\":10647:10724   */\n      0x4e487b7100000000000000000000000000000000000000000000000000000000\n        /* \"#utility.yul\":10644:10645   */\n      0x00\n        /* \"#utility.yul\":10637:10725   */\n      mstore\n        /* \"#utility.yul\":10744:10748   */\n      0x11\n        /* \"#utility.yul\":10741:10742   */\n      0x04\n        /* \"#utility.yul\":10734:10749   */\n      mstore\n        /* \"#utility.yul\":10768:10772   */\n      0x24\n        /* \"#utility.yul\":10765:10766   */\n      0x00\n        /* \"#utility.yul\":10758:10773   */\n      revert\n        /* \"#utility.yul\":10785:10979   */\n    tag_180:\n        /* \"#utility.yul\":10825:10829   */\n      0x00\n        /* \"#utility.yul\":10845:10865   */\n      tag_481\n        /* \"#utility.yul\":10863:10864   */\n      dup3\n        /* \"#utility.yul\":10845:10865   */\n      tag_304\n      jump\t// in\n    tag_481:\n        /* \"#utility.yul\":10840:10865   */\n      swap2\n      pop\n        /* \"#utility.yul\":10879:10899   */\n      tag_482\n        /* \"#utility.yul\":10897:10898   */\n      dup4\n        /* \"#utility.yul\":10879:10899   */\n      tag_304\n      jump\t// in\n    tag_482:\n        /* \"#utility.yul\":10874:10899   */\n      swap3\n      pop\n        /* \"#utility.yul\":10923:10924   */\n      dup3\n        /* \"#utility.yul\":10920:10921   */\n      dup3\n        /* \"#utility.yul\":10916:10925   */\n      sub\n        /* \"#utility.yul\":10908:10925   */\n      swap1\n      pop\n        /* \"#utility.yul\":10947:10948   */\n      dup2\n        /* \"#utility.yul\":10941:10945   */\n      dup2\n        /* \"#utility.yul\":10938:10949   */\n      gt\n        /* \"#utility.yul\":10935:10972   */\n      iszero\n      tag_483\n      jumpi\n        /* \"#utility.yul\":10952:10970   */\n      tag_484\n      tag_336\n      jump\t// in\n    tag_484:\n        /* \"#utility.yul\":10935:10972   */\n    tag_483:\n        /* \"#utility.yul\":10785:10979   */\n      swap3\n      swap2\n      pop\n      pop\n      jump\t// out\n        /* \"#utility.yul\":10985:11146   */\n    tag_337:\n        /* \"#utility.yul\":11125:11138   */\n      0x5a45524f5f534841524553000000000000000000000000000000000000000000\n        /* \"#utility.yul\":11121:11122   */\n      0x00\n        /* \"#utility.yul\":11113:11119   */\n      dup3\n        /* \"#utility.yul\":11109:11123   */\n      add\n        /* \"#utility.yul\":11102:11139   */\n      mstore\n        /* \"#utility.yul\":10985:11146   */\n      pop\n      jump\t// out\n        /* \"#utility.yul\":11152:11518   */\n    tag_338:\n        /* \"#utility.yul\":11294:11297   */\n      0x00\n        /* \"#utility.yul\":11315:11382   */\n      tag_487\n        /* \"#utility.yul\":11379:11381   */\n      0x0b\n        /* \"#utility.yul\":11374:11377   */\n      dup4\n        /* \"#utility.yul\":11315:11382   */\n      tag_307\n      jump\t// in\n    tag_487:\n        /* \"#utility.yul\":11308:11382   */\n      swap2\n      pop\n        /* \"#utility.yul\":11391:11484   */\n      tag_488\n        /* \"#utility.yul\":11480:11483   */\n      dup3\n        /* \"#utility.yul\":11391:11484   */\n      tag_337\n      jump\t// in\n    tag_488:\n        /* \"#utility.yul\":11509:11511   */\n      0x20\n        /* \"#utility.yul\":11504:11507   */\n      dup3\n        /* \"#utility.yul\":11500:11512   */\n      add\n        /* \"#utility.yul\":11493:11512   */\n      swap1\n      pop\n        /* \"#utility.yul\":11152:11518   */\n      swap2\n      swap1\n      pop\n      jump\t// out\n        /* \"#utility.yul\":11524:11943   */\n    tag_195:\n        /* \"#utility.yul\":11690:11694   */\n      0x00\n        /* \"#utility.yul\":11728:11730   */\n      0x20\n        /* \"#utility.yul\":11717:11726   */\n      dup3\n        /* \"#utility.yul\":11713:11731   */\n      add\n        /* \"#utility.yul\":11705:11731   */\n      swap1\n      pop\n        /* \"#utility.yul\":11777:11786   */\n      dup2\n        /* \"#utility.yul\":11771:11775   */\n      dup2\n        /* \"#utility.yul\":11767:11787   */\n      sub\n        /* \"#utility.yul\":11763:11764   */\n      0x00\n        /* \"#utility.yul\":11752:11761   */\n      dup4\n        /* \"#utility.yul\":11748:11765   */\n      add\n        /* \"#utility.yul\":11741:11788   */\n      mstore\n        /* \"#utility.yul\":11805:11936   */\n      tag_490\n        /* \"#utility.yul\":11931:11935   */\n      dup2\n        /* \"#utility.yul\":11805:11936   */\n      tag_338\n      jump\t// in\n    tag_490:\n        /* \"#utility.yul\":11797:11936   */\n      swap1\n      pop\n        /* \"#utility.yul\":11524:11943   */\n      swap2\n      swap1\n      pop\n      jump\t// out\n        /* \"#utility.yul\":11949:12281   */\n    tag_201:\n        /* \"#utility.yul\":12070:12074   */\n      0x00\n        /* \"#utility.yul\":12108:12110   */\n      0x40\n        /* \"#utility.yul\":12097:12106   */\n      dup3\n        /* \"#utility.yul\":12093:12111   */\n      add\n        /* \"#utility.yul\":12085:12111   */\n      swap1\n      pop\n        /* \"#utility.yul\":12121:12192   */\n      tag_492\n        /* \"#utility.yul\":12189:12190   */\n      0x00\n        /* \"#utility.yul\":12178:12187   */\n      dup4\n        /* \"#utility.yul\":12174:12191   */\n      add\n        /* \"#utility.yul\":12165:12171   */\n      dup6\n        /* \"#utility.yul\":12121:12192   */\n      tag_305\n      jump\t// in\n    tag_492:\n        /* \"#utility.yul\":12202:12274   */\n      tag_493\n        /* \"#utility.yul\":12270:12272   */\n      0x20\n        /* \"#utility.yul\":12259:12268   */\n      dup4\n        /* \"#utility.yul\":12255:12273   */\n      add\n        /* \"#utility.yul\":12246:12252   */\n      dup5\n        /* \"#utility.yul\":12202:12274   */\n      tag_305\n      jump\t// in\n    tag_493:\n        /* \"#utility.yul\":11949:12281   */\n      swap4\n      swap3\n      pop\n      pop\n      pop\n      jump\t// out\n        /* \"#utility.yul\":12287:12448   */\n    tag_339:\n        /* \"#utility.yul\":12427:12440   */\n      0x5a45524f5f415353455453000000000000000000000000000000000000000000\n        /* \"#utility.yul\":12423:12424   */\n      0x00\n        /* \"#utility.yul\":12415:12421   */\n      dup3\n        /* \"#utility.yul\":12411:12425   */\n      add\n        /* \"#utility.yul\":12404:12441   */\n      mstore\n        /* \"#utility.yul\":12287:12448   */\n      pop\n      jump\t// out\n        /* \"#utility.yul\":12454:12820   */\n    tag_340:\n        /* \"#utility.yul\":12596:12599   */\n      0x00\n        /* \"#utility.yul\":12617:12684   */\n      tag_496\n        /* \"#utility.yul\":12681:12683   */\n      0x0b\n        /* \"#utility.yul\":12676:12679   */\n      dup4\n        /* \"#utility.yul\":12617:12684   */\n      tag_307\n      jump\t// in\n    tag_496:\n        /* \"#utility.yul\":12610:12684   */\n      swap2\n      pop\n        /* \"#utility.yul\":12693:12786   */\n      tag_497\n        /* \"#utility.yul\":12782:12785   */\n      dup3\n        /* \"#utility.yul\":12693:12786   */\n      tag_339\n      jump\t// in\n    tag_497:\n        /* \"#utility.yul\":12811:12813   */\n      0x20\n        /* \"#utility.yul\":12806:12809   */\n      dup3\n        /* \"#utility.yul\":12802:12814   */\n      add\n        /* \"#utility.yul\":12795:12814   */\n      swap1\n      pop\n        /* \"#utility.yul\":12454:12820   */\n      swap2\n      swap1\n      pop\n      jump\t// out\n        /* \"#utility.yul\":12826:13245   */\n    tag_242:\n        /* \"#utility.yul\":12992:12996   */\n      0x00\n        /* \"#utility.yul\":13030:13032   */\n      0x20\n        /* \"#utility.yul\":13019:13028   */\n      dup3\n        /* \"#utility.yul\":13015:13033   */\n      add\n        /* \"#utility.yul\":13007:13033   */\n      swap1\n      pop\n        /* \"#utility.yul\":13079:13088   */\n      dup2\n        /* \"#utility.yul\":13073:13077   */\n      dup2\n        /* \"#utility.yul\":13069:13089   */\n      sub\n        /* \"#utility.yul\":13065:13066   */\n      0x00\n        /* \"#utility.yul\":13054:13063   */\n      dup4\n        /* \"#utility.yul\":13050:13067   */\n      add\n        /* \"#utility.yul\":13043:13090   */\n      mstore\n        /* \"#utility.yul\":13107:13238   */\n      tag_499\n        /* \"#utility.yul\":13233:13237   */\n      dup2\n        /* \"#utility.yul\":13107:13238   */\n      tag_340\n      jump\t// in\n    tag_499:\n        /* \"#utility.yul\":13099:13238   */\n      swap1\n      pop\n        /* \"#utility.yul\":12826:13245   */\n      swap2\n      swap1\n      pop\n      jump\t// out\n        /* \"#utility.yul\":13251:13424   */\n    tag_341:\n        /* \"#utility.yul\":13391:13416   */\n      0x5045524d49545f444541444c494e455f45585049524544000000000000000000\n        /* \"#utility.yul\":13387:13388   */\n      0x00\n        /* \"#utility.yul\":13379:13385   */\n      dup3\n        /* \"#utility.yul\":13375:13389   */\n      add\n        /* \"#utility.yul\":13368:13417   */\n      mstore\n        /* \"#utility.yul\":13251:13424   */\n      pop\n      jump\t// out\n        /* \"#utility.yul\":13430:13796   */\n    tag_342:\n        /* \"#utility.yul\":13572:13575   */\n      0x00\n        /* \"#utility.yul\":13593:13660   */\n      tag_502\n        /* \"#utility.yul\":13657:13659   */\n      0x17\n        /* \"#utility.yul\":13652:13655   */\n      dup4\n        /* \"#utility.yul\":13593:13660   */\n      tag_307\n      jump\t// in\n    tag_502:\n        /* \"#utility.yul\":13586:13660   */\n      swap2\n      pop\n        /* \"#utility.yul\":13669:13762   */\n      tag_503\n        /* \"#utility.yul\":13758:13761   */\n      dup3\n        /* \"#utility.yul\":13669:13762   */\n      tag_341\n      jump\t// in\n    tag_503:\n        /* \"#utility.yul\":13787:13789   */\n      0x20\n        /* \"#utility.yul\":13782:13785   */\n      dup3\n        /* \"#utility.yul\":13778:13790   */\n      add\n        /* \"#utility.yul\":13771:13790   */\n      swap1\n      pop\n        /* \"#utility.yul\":13430:13796   */\n      swap2\n      swap1\n      pop\n      jump\t// out\n        /* \"#utility.yul\":13802:14221   */\n    tag_258:\n        /* \"#utility.yul\":13968:13972   */\n      0x00\n        /* \"#utility.yul\":14006:14008   */\n      0x20\n        /* \"#utility.yul\":13995:14004   */\n      dup3\n        /* \"#utility.yul\":13991:14009   */\n      add\n        /* \"#utility.yul\":13983:14009   */\n      swap1\n      pop\n        /* \"#utility.yul\":14055:14064   */\n      dup2\n        /* \"#utility.yul\":14049:14053   */\n      dup2\n        /* \"#utility.yul\":14045:14065   */\n      sub\n        /* \"#utility.yul\":14041:14042   */\n      0x00\n        /* \"#utility.yul\":14030:14039   */\n      dup4\n        /* \"#utility.yul\":14026:14043   */\n      add\n        /* \"#utility.yul\":14019:14066   */\n      mstore\n        /* \"#utility.yul\":14083:14214   */\n      tag_505\n        /* \"#utility.yul\":14209:14213   */\n      dup2\n        /* \"#utility.yul\":14083:14214   */\n      tag_342\n      jump\t// in\n    tag_505:\n        /* \"#utility.yul\":14075:14214   */\n      swap1\n      pop\n        /* \"#utility.yul\":13802:14221   */\n      swap2\n      swap1\n      pop\n      jump\t// out\n        /* \"#utility.yul\":14227:14345   */\n    tag_343:\n        /* \"#utility.yul\":14314:14338   */\n      tag_507\n        /* \"#utility.yul\":14332:14337   */\n      dup2\n        /* \"#utility.yul\":14314:14338   */\n      tag_317\n      jump\t// in\n    tag_507:\n        /* \"#utility.yul\":14309:14312   */\n      dup3\n        /* \"#utility.yul\":14302:14339   */\n      mstore\n        /* \"#utility.yul\":14227:14345   */\n      pop\n      pop\n      jump\t// out\n        /* \"#utility.yul\":14351:15126   */\n    tag_261:\n        /* \"#utility.yul\":14584:14588   */\n      0x00\n        /* \"#utility.yul\":14622:14625   */\n      0xc0\n        /* \"#utility.yul\":14611:14620   */\n      dup3\n        /* \"#utility.yul\":14607:14626   */\n      add\n        /* \"#utility.yul\":14599:14626   */\n      swap1\n      pop\n        /* \"#utility.yul\":14636:14707   */\n      tag_509\n        /* \"#utility.yul\":14704:14705   */\n      0x00\n        /* \"#utility.yul\":14693:14702   */\n      dup4\n        /* \"#utility.yul\":14689:14706   */\n      add\n        /* \"#utility.yul\":14680:14686   */\n      dup10\n        /* \"#utility.yul\":14636:14707   */\n      tag_325\n      jump\t// in\n    tag_509:\n        /* \"#utility.yul\":14717:14789   */\n      tag_510\n        /* \"#utility.yul\":14785:14787   */\n      0x20\n        /* \"#utility.yul\":14774:14783   */\n      dup4\n        /* \"#utility.yul\":14770:14788   */\n      add\n        /* \"#utility.yul\":14761:14767   */\n      dup9\n        /* \"#utility.yul\":14717:14789   */\n      tag_343\n      jump\t// in\n    tag_510:\n        /* \"#utility.yul\":14799:14871   */\n      tag_511\n        /* \"#utility.yul\":14867:14869   */\n      0x40\n        /* \"#utility.yul\":14856:14865   */\n      dup4\n        /* \"#utility.yul\":14852:14870   */\n      add\n        /* \"#utility.yul\":14843:14849   */\n      dup8\n        /* \"#utility.yul\":14799:14871   */\n      tag_343\n      jump\t// in\n    tag_511:\n        /* \"#utility.yul\":14881:14953   */\n      tag_512\n        /* \"#utility.yul\":14949:14951   */\n      0x60\n        /* \"#utility.yul\":14938:14947   */\n      dup4\n        /* \"#utility.yul\":14934:14952   */\n      add\n        /* \"#utility.yul\":14925:14931   */\n      dup7\n        /* \"#utility.yul\":14881:14953   */\n      tag_305\n      jump\t// in\n    tag_512:\n        /* \"#utility.yul\":14963:15036   */\n      tag_513\n        /* \"#utility.yul\":15031:15034   */\n      0x80\n        /* \"#utility.yul\":15020:15029   */\n      dup4\n        /* \"#utility.yul\":15016:15035   */\n      add\n        /* \"#utility.yul\":15007:15013   */\n      dup6\n        /* \"#utility.yul\":14963:15036   */\n      tag_305\n      jump\t// in\n    tag_513:\n        /* \"#utility.yul\":15046:15119   */\n      tag_514\n        /* \"#utility.yul\":15114:15117   */\n      0xa0\n        /* \"#utility.yul\":15103:15112   */\n      dup4\n        /* \"#utility.yul\":15099:15118   */\n      add\n        /* \"#utility.yul\":15090:15096   */\n      dup5\n        /* \"#utility.yul\":15046:15119   */\n      tag_305\n      jump\t// in\n    tag_514:\n        /* \"#utility.yul\":14351:15126   */\n      swap8\n      swap7\n      pop\n      pop\n      pop\n      pop\n      pop\n      pop\n      pop\n      jump\t// out\n        /* \"#utility.yul\":15132:15280   */\n    tag_344:\n        /* \"#utility.yul\":15234:15245   */\n      0x00\n        /* \"#utility.yul\":15271:15274   */\n      dup2\n        /* \"#utility.yul\":15256:15274   */\n      swap1\n      pop\n        /* \"#utility.yul\":15132:15280   */\n      swap3\n      swap2\n      pop\n      pop\n      jump\t// out\n        /* \"#utility.yul\":15286:15500   */\n    tag_345:\n        /* \"#utility.yul\":15426:15492   */\n      0x1901000000000000000000000000000000000000000000000000000000000000\n        /* \"#utility.yul\":15422:15423   */\n      0x00\n        /* \"#utility.yul\":15414:15420   */\n      dup3\n        /* \"#utility.yul\":15410:15424   */\n      add\n        /* \"#utility.yul\":15403:15493   */\n      mstore\n        /* \"#utility.yul\":15286:15500   */\n      pop\n      jump\t// out\n        /* \"#utility.yul\":15506:15906   */\n    tag_346:\n        /* \"#utility.yul\":15666:15669   */\n      0x00\n        /* \"#utility.yul\":15687:15771   */\n      tag_518\n        /* \"#utility.yul\":15769:15770   */\n      0x02\n        /* \"#utility.yul\":15764:15767   */\n      dup4\n        /* \"#utility.yul\":15687:15771   */\n      tag_344\n      jump\t// in\n    tag_518:\n        /* \"#utility.yul\":15680:15771   */\n      swap2\n      pop\n        /* \"#utility.yul\":15780:15873   */\n      tag_519\n        /* \"#utility.yul\":15869:15872   */\n      dup3\n        /* \"#utility.yul\":15780:15873   */\n      tag_345\n      jump\t// in\n    tag_519:\n        /* \"#utility.yul\":15898:15899   */\n      0x02\n        /* \"#utility.yul\":15893:15896   */\n      dup3\n        /* \"#utility.yul\":15889:15900   */\n      add\n        /* \"#utility.yul\":15882:15900   */\n      swap1\n      pop\n        /* \"#utility.yul\":15506:15906   */\n      swap2\n      swap1\n      pop\n      jump\t// out\n        /* \"#utility.yul\":15912:15991   */\n    tag_347:\n        /* \"#utility.yul\":15951:15958   */\n      0x00\n        /* \"#utility.yul\":15980:15985   */\n      dup2\n        /* \"#utility.yul\":15969:15985   */\n      swap1\n      pop\n        /* \"#utility.yul\":15912:15991   */\n      swap2\n      swap1\n      pop\n      jump\t// out\n        /* \"#utility.yul\":15997:16154   */\n    tag_348:\n        /* \"#utility.yul\":16102:16147   */\n      tag_522\n        /* \"#utility.yul\":16122:16146   */\n      tag_523\n        /* \"#utility.yul\":16140:16145   */\n      dup3\n        /* \"#utility.yul\":16122:16146   */\n      tag_324\n      jump\t// in\n    tag_523:\n        /* \"#utility.yul\":16102:16147   */\n      tag_347\n      jump\t// in\n    tag_522:\n        /* \"#utility.yul\":16097:16100   */\n      dup3\n        /* \"#utility.yul\":16090:16148   */\n      mstore\n        /* \"#utility.yul\":15997:16154   */\n      pop\n      pop\n      jump\t// out\n        /* \"#utility.yul\":16160:16823   */\n    tag_263:\n        /* \"#utility.yul\":16401:16404   */\n      0x00\n        /* \"#utility.yul\":16423:16571   */\n      tag_525\n        /* \"#utility.yul\":16567:16570   */\n      dup3\n        /* \"#utility.yul\":16423:16571   */\n      tag_346\n      jump\t// in\n    tag_525:\n        /* \"#utility.yul\":16416:16571   */\n      swap2\n      pop\n        /* \"#utility.yul\":16581:16656   */\n      tag_526\n        /* \"#utility.yul\":16652:16655   */\n      dup3\n        /* \"#utility.yul\":16643:16649   */\n      dup6\n        /* \"#utility.yul\":16581:16656   */\n      tag_348\n      jump\t// in\n    tag_526:\n        /* \"#utility.yul\":16681:16683   */\n      0x20\n        /* \"#utility.yul\":16676:16679   */\n      dup3\n        /* \"#utility.yul\":16672:16684   */\n      add\n        /* \"#utility.yul\":16665:16684   */\n      swap2\n      pop\n        /* \"#utility.yul\":16694:16769   */\n      tag_527\n        /* \"#utility.yul\":16765:16768   */\n      dup3\n        /* \"#utility.yul\":16756:16762   */\n      dup5\n        /* \"#utility.yul\":16694:16769   */\n      tag_348\n      jump\t// in\n    tag_527:\n        /* \"#utility.yul\":16794:16796   */\n      0x20\n        /* \"#utility.yul\":16789:16792   */\n      dup3\n        /* \"#utility.yul\":16785:16797   */\n      add\n        /* \"#utility.yul\":16778:16797   */\n      swap2\n      pop\n        /* \"#utility.yul\":16814:16817   */\n      dup2\n        /* \"#utility.yul\":16807:16817   */\n      swap1\n      pop\n        /* \"#utility.yul\":16160:16823   */\n      swap4\n      swap3\n      pop\n      pop\n      pop\n      jump\t// out\n        /* \"#utility.yul\":16829:17374   */\n    tag_265:\n        /* \"#utility.yul\":17002:17006   */\n      0x00\n        /* \"#utility.yul\":17040:17043   */\n      0x80\n        /* \"#utility.yul\":17029:17038   */\n      dup3\n        /* \"#utility.yul\":17025:17044   */\n      add\n        /* \"#utility.yul\":17017:17044   */\n      swap1\n      pop\n        /* \"#utility.yul\":17054:17125   */\n      tag_529\n        /* \"#utility.yul\":17122:17123   */\n      0x00\n        /* \"#utility.yul\":17111:17120   */\n      dup4\n        /* \"#utility.yul\":17107:17124   */\n      add\n        /* \"#utility.yul\":17098:17104   */\n      dup8\n        /* \"#utility.yul\":17054:17125   */\n      tag_325\n      jump\t// in\n    tag_529:\n        /* \"#utility.yul\":17135:17203   */\n      tag_530\n        /* \"#utility.yul\":17199:17201   */\n      0x20\n        /* \"#utility.yul\":17188:17197   */\n      dup4\n        /* \"#utility.yul\":17184:17202   */\n      add\n        /* \"#utility.yul\":17175:17181   */\n      dup7\n        /* \"#utility.yul\":17135:17203   */\n      tag_323\n      jump\t// in\n    tag_530:\n        /* \"#utility.yul\":17213:17285   */\n      tag_531\n        /* \"#utility.yul\":17281:17283   */\n      0x40\n        /* \"#utility.yul\":17270:17279   */\n      dup4\n        /* \"#utility.yul\":17266:17284   */\n      add\n        /* \"#utility.yul\":17257:17263   */\n      dup6\n        /* \"#utility.yul\":17213:17285   */\n      tag_325\n      jump\t// in\n    tag_531:\n        /* \"#utility.yul\":17295:17367   */\n      tag_532\n        /* \"#utility.yul\":17363:17365   */\n      0x60\n        /* \"#utility.yul\":17352:17361   */\n      dup4\n        /* \"#utility.yul\":17348:17366   */\n      add\n        /* \"#utility.yul\":17339:17345   */\n      dup5\n        /* \"#utility.yul\":17295:17367   */\n      tag_325\n      jump\t// in\n    tag_532:\n        /* \"#utility.yul\":16829:17374   */\n      swap6\n      swap5\n      pop\n      pop\n      pop\n      pop\n      pop\n      jump\t// out\n        /* \"#utility.yul\":17380:17544   */\n    tag_349:\n        /* \"#utility.yul\":17520:17536   */\n      0x494e56414c49445f5349474e4552000000000000000000000000000000000000\n        /* \"#utility.yul\":17516:17517   */\n      0x00\n        /* \"#utility.yul\":17508:17514   */\n      dup3\n        /* \"#utility.yul\":17504:17518   */\n      add\n        /* \"#utility.yul\":17497:17537   */\n      mstore\n        /* \"#utility.yul\":17380:17544   */\n      pop\n      jump\t// out\n        /* \"#utility.yul\":17550:17916   */\n    tag_350:\n        /* \"#utility.yul\":17692:17695   */\n      0x00\n        /* \"#utility.yul\":17713:17780   */\n      tag_535\n        /* \"#utility.yul\":17777:17779   */\n      0x0e\n        /* \"#utility.yul\":17772:17775   */\n      dup4\n        /* \"#utility.yul\":17713:17780   */\n      tag_307\n      jump\t// in\n    tag_535:\n        /* \"#utility.yul\":17706:17780   */\n      swap2\n      pop\n        /* \"#utility.yul\":17789:17882   */\n      tag_536\n        /* \"#utility.yul\":17878:17881   */\n      dup3\n        /* \"#utility.yul\":17789:17882   */\n      tag_349\n      jump\t// in\n    tag_536:\n        /* \"#utility.yul\":17907:17909   */\n      0x20\n        /* \"#utility.yul\":17902:17905   */\n      dup3\n        /* \"#utility.yul\":17898:17910   */\n      add\n        /* \"#utility.yul\":17891:17910   */\n      swap1\n      pop\n        /* \"#utility.yul\":17550:17916   */\n      swap2\n      swap1\n      pop\n      jump\t// out\n        /* \"#utility.yul\":17922:18341   */\n    tag_271:\n        /* \"#utility.yul\":18088:18092   */\n      0x00\n        /* \"#utility.yul\":18126:18128   */\n      0x20\n        /* \"#utility.yul\":18115:18124   */\n      dup3\n        /* \"#utility.yul\":18111:18129   */\n      add\n        /* \"#utility.yul\":18103:18129   */\n      swap1\n      pop\n        /* \"#utility.yul\":18175:18184   */\n      dup2\n        /* \"#utility.yul\":18169:18173   */\n      dup2\n        /* \"#utility.yul\":18165:18185   */\n      sub\n        /* \"#utility.yul\":18161:18162   */\n      0x00\n        /* \"#utility.yul\":18150:18159   */\n      dup4\n        /* \"#utility.yul\":18146:18163   */\n      add\n        /* \"#utility.yul\":18139:18186   */\n      mstore\n        /* \"#utility.yul\":18203:18334   */\n      tag_538\n        /* \"#utility.yul\":18329:18333   */\n      dup2\n        /* \"#utility.yul\":18203:18334   */\n      tag_350\n      jump\t// in\n    tag_538:\n        /* \"#utility.yul\":18195:18334   */\n      swap1\n      pop\n        /* \"#utility.yul\":17922:18341   */\n      swap2\n      swap1\n      pop\n      jump\t// out\n        /* \"#utility.yul\":18347:18494   */\n    tag_351:\n        /* \"#utility.yul\":18448:18459   */\n      0x00\n        /* \"#utility.yul\":18485:18488   */\n      dup2\n        /* \"#utility.yul\":18470:18488   */\n      swap1\n      pop\n        /* \"#utility.yul\":18347:18494   */\n      swap3\n      swap2\n      pop\n      pop\n      jump\t// out\n        /* \"#utility.yul\":18500:18644   */\n    tag_352:\n        /* \"#utility.yul\":18552:18556   */\n      0x00\n        /* \"#utility.yul\":18575:18578   */\n      dup2\n        /* \"#utility.yul\":18567:18578   */\n      swap1\n      pop\n        /* \"#utility.yul\":18598:18601   */\n      dup2\n        /* \"#utility.yul\":18595:18596   */\n      0x00\n        /* \"#utility.yul\":18588:18602   */\n      mstore\n        /* \"#utility.yul\":18632:18636   */\n      0x20\n        /* \"#utility.yul\":18629:18630   */\n      0x00\n        /* \"#utility.yul\":18619:18637   */\n      keccak256\n        /* \"#utility.yul\":18611:18637   */\n      swap1\n      pop\n        /* \"#utility.yul\":18500:18644   */\n      swap2\n      swap1\n      pop\n      jump\t// out\n        /* \"#utility.yul\":18672:19550   */\n    tag_353:\n        /* \"#utility.yul\":18777:18780   */\n      0x00\n        /* \"#utility.yul\":18814:18819   */\n      dup2\n        /* \"#utility.yul\":18808:18820   */\n      sload\n        /* \"#utility.yul\":18843:18879   */\n      tag_542\n        /* \"#utility.yul\":18869:18878   */\n      dup2\n        /* \"#utility.yul\":18843:18879   */\n      tag_158\n      jump\t// in\n    tag_542:\n        /* \"#utility.yul\":18895:18983   */\n      tag_543\n        /* \"#utility.yul\":18976:18982   */\n      dup2\n        /* \"#utility.yul\":18971:18974   */\n      dup7\n        /* \"#utility.yul\":18895:18983   */\n      tag_351\n      jump\t// in\n    tag_543:\n        /* \"#utility.yul\":18888:18983   */\n      swap5\n      pop\n        /* \"#utility.yul\":19014:19015   */\n      0x01\n        /* \"#utility.yul\":19003:19012   */\n      dup3\n        /* \"#utility.yul\":18999:19016   */\n      and\n        /* \"#utility.yul\":19030:19031   */\n      0x00\n        /* \"#utility.yul\":19025:19191   */\n      dup2\n      eq\n      tag_545\n      jumpi\n        /* \"#utility.yul\":19205:19206   */\n      0x01\n        /* \"#utility.yul\":19200:19544   */\n      dup2\n      eq\n      tag_546\n      jumpi\n        /* \"#utility.yul\":18992:19544   */\n      jump(tag_544)\n        /* \"#utility.yul\":19025:19191   */\n    tag_545:\n        /* \"#utility.yul\":19109:19113   */\n      0xff\n        /* \"#utility.yul\":19105:19114   */\n      not\n        /* \"#utility.yul\":19094:19103   */\n      dup4\n        /* \"#utility.yul\":19090:19115   */\n      and\n        /* \"#utility.yul\":19085:19088   */\n      dup7\n        /* \"#utility.yul\":19078:19116   */\n      mstore\n        /* \"#utility.yul\":19171:19177   */\n      dup2\n        /* \"#utility.yul\":19164:19178   */\n      iszero\n        /* \"#utility.yul\":19157:19179   */\n      iszero\n        /* \"#utility.yul\":19149:19155   */\n      dup3\n        /* \"#utility.yul\":19145:19180   */\n      mul\n        /* \"#utility.yul\":19140:19143   */\n      dup7\n        /* \"#utility.yul\":19136:19181   */\n      add\n        /* \"#utility.yul\":19129:19181   */\n      swap4\n      pop\n        /* \"#utility.yul\":19025:19191   */\n      jump(tag_544)\n        /* \"#utility.yul\":19200:19544   */\n    tag_546:\n        /* \"#utility.yul\":19267:19308   */\n      tag_547\n        /* \"#utility.yul\":19302:19307   */\n      dup6\n        /* \"#utility.yul\":19267:19308   */\n      tag_352\n      jump\t// in\n    tag_547:\n        /* \"#utility.yul\":19330:19331   */\n      0x00\n        /* \"#utility.yul\":19344:19498   */\n    tag_548:\n        /* \"#utility.yul\":19358:19364   */\n      dup4\n        /* \"#utility.yul\":19355:19356   */\n      dup2\n        /* \"#utility.yul\":19352:19365   */\n      lt\n        /* \"#utility.yul\":19344:19498   */\n      iszero\n      tag_550\n      jumpi\n        /* \"#utility.yul\":19432:19439   */\n      dup2\n        /* \"#utility.yul\":19426:19440   */\n      sload\n        /* \"#utility.yul\":19422:19423   */\n      dup2\n        /* \"#utility.yul\":19417:19420   */\n      dup10\n        /* \"#utility.yul\":19413:19424   */\n      add\n        /* \"#utility.yul\":19406:19441   */\n      mstore\n        /* \"#utility.yul\":19482:19483   */\n      0x01\n        /* \"#utility.yul\":19473:19480   */\n      dup3\n        /* \"#utility.yul\":19469:19484   */\n      add\n        /* \"#utility.yul\":19458:19484   */\n      swap2\n      pop\n        /* \"#utility.yul\":19380:19384   */\n      0x20\n        /* \"#utility.yul\":19377:19378   */\n      dup2\n        /* \"#utility.yul\":19373:19385   */\n      add\n        /* \"#utility.yul\":19368:19385   */\n      swap1\n      pop\n        /* \"#utility.yul\":19344:19498   */\n      jump(tag_548)\n    tag_550:\n        /* \"#utility.yul\":19527:19533   */\n      dup4\n        /* \"#utility.yul\":19522:19525   */\n      dup9\n        /* \"#utility.yul\":19518:19534   */\n      add\n        /* \"#utility.yul\":19511:19534   */\n      swap6\n      pop\n        /* \"#utility.yul\":19207:19544   */\n      pop\n      pop\n        /* \"#utility.yul\":18992:19544   */\n    tag_544:\n      pop\n        /* \"#utility.yul\":18781:19550   */\n      pop\n      pop\n        /* \"#utility.yul\":18672:19550   */\n      swap3\n      swap2\n      pop\n      pop\n      jump\t// out\n        /* \"#utility.yul\":19556:19829   */\n    tag_282:\n        /* \"#utility.yul\":19687:19690   */\n      0x00\n        /* \"#utility.yul\":19709:19803   */\n      tag_552\n        /* \"#utility.yul\":19799:19802   */\n      dup3\n        /* \"#utility.yul\":19790:19796   */\n      dup5\n        /* \"#utility.yul\":19709:19803   */\n      tag_353\n      jump\t// in\n    tag_552:\n        /* \"#utility.yul\":19702:19803   */\n      swap2\n      pop\n        /* \"#utility.yul\":19820:19823   */\n      dup2\n        /* \"#utility.yul\":19813:19823   */\n      swap1\n      pop\n        /* \"#utility.yul\":19556:19829   */\n      swap3\n      swap2\n      pop\n      pop\n      jump\t// out\n        /* \"#utility.yul\":19835:20499   */\n    tag_284:\n        /* \"#utility.yul\":20040:20044   */\n      0x00\n        /* \"#utility.yul\":20078:20081   */\n      0xa0\n        /* \"#utility.yul\":20067:20076   */\n      dup3\n        /* \"#utility.yul\":20063:20082   */\n      add\n        /* \"#utility.yul\":20055:20082   */\n      swap1\n      pop\n        /* \"#utility.yul\":20092:20163   */\n      tag_554\n        /* \"#utility.yul\":20160:20161   */\n      0x00\n        /* \"#utility.yul\":20149:20158   */\n      dup4\n        /* \"#utility.yul\":20145:20162   */\n      add\n        /* \"#utility.yul\":20136:20142   */\n      dup9\n        /* \"#utility.yul\":20092:20163   */\n      tag_325\n      jump\t// in\n    tag_554:\n        /* \"#utility.yul\":20173:20245   */\n      tag_555\n        /* \"#utility.yul\":20241:20243   */\n      0x20\n        /* \"#utility.yul\":20230:20239   */\n      dup4\n        /* \"#utility.yul\":20226:20244   */\n      add\n        /* \"#utility.yul\":20217:20223   */\n      dup8\n        /* \"#utility.yul\":20173:20245   */\n      tag_325\n      jump\t// in\n    tag_555:\n        /* \"#utility.yul\":20255:20327   */\n      tag_556\n        /* \"#utility.yul\":20323:20325   */\n      0x40\n        /* \"#utility.yul\":20312:20321   */\n      dup4\n        /* \"#utility.yul\":20308:20326   */\n      add\n        /* \"#utility.yul\":20299:20305   */\n      dup7\n        /* \"#utility.yul\":20255:20327   */\n      tag_325\n      jump\t// in\n    tag_556:\n        /* \"#utility.yul\":20337:20409   */\n      tag_557\n        /* \"#utility.yul\":20405:20407   */\n      0x60\n        /* \"#utility.yul\":20394:20403   */\n      dup4\n        /* \"#utility.yul\":20390:20408   */\n      add\n        /* \"#utility.yul\":20381:20387   */\n      dup6\n        /* \"#utility.yul\":20337:20409   */\n      tag_305\n      jump\t// in\n    tag_557:\n        /* \"#utility.yul\":20419:20492   */\n      tag_558\n        /* \"#utility.yul\":20487:20490   */\n      0x80\n        /* \"#utility.yul\":20476:20485   */\n      dup4\n        /* \"#utility.yul\":20472:20491   */\n      add\n        /* \"#utility.yul\":20463:20469   */\n      dup5\n        /* \"#utility.yul\":20419:20492   */\n      tag_343\n      jump\t// in\n    tag_558:\n        /* \"#utility.yul\":19835:20499   */\n      swap7\n      swap6\n      pop\n      pop\n      pop\n      pop\n      pop\n      pop\n      jump\t// out\n        /* \"#utility.yul\":20505:20675   */\n    tag_354:\n        /* \"#utility.yul\":20645:20667   */\n      0x5452414e534645525f46524f4d5f4641494c4544000000000000000000000000\n        /* \"#utility.yul\":20641:20642   */\n      0x00\n        /* \"#utility.yul\":20633:20639   */\n      dup3\n        /* \"#utility.yul\":20629:20643   */\n      add\n        /* \"#utility.yul\":20622:20668   */\n      mstore\n        /* \"#utility.yul\":20505:20675   */\n      pop\n      jump\t// out\n        /* \"#utility.yul\":20681:21047   */\n    tag_355:\n        /* \"#utility.yul\":20823:20826   */\n      0x00\n        /* \"#utility.yul\":20844:20911   */\n      tag_561\n        /* \"#utility.yul\":20908:20910   */\n      0x14\n        /* \"#utility.yul\":20903:20906   */\n      dup4\n        /* \"#utility.yul\":20844:20911   */\n      tag_307\n      jump\t// in\n    tag_561:\n        /* \"#utility.yul\":20837:20911   */\n      swap2\n      pop\n        /* \"#utility.yul\":20920:21013   */\n      tag_562\n        /* \"#utility.yul\":21009:21012   */\n      dup3\n        /* \"#utility.yul\":20920:21013   */\n      tag_354\n      jump\t// in\n    tag_562:\n        /* \"#utility.yul\":21038:21040   */\n      0x20\n        /* \"#utility.yul\":21033:21036   */\n      dup3\n        /* \"#utility.yul\":21029:21041   */\n      add\n        /* \"#utility.yul\":21022:21041   */\n      swap1\n      pop\n        /* \"#utility.yul\":20681:21047   */\n      swap2\n      swap1\n      pop\n      jump\t// out\n        /* \"#utility.yul\":21053:21472   */\n    tag_289:\n        /* \"#utility.yul\":21219:21223   */\n      0x00\n        /* \"#utility.yul\":21257:21259   */\n      0x20\n        /* \"#utility.yul\":21246:21255   */\n      dup3\n        /* \"#utility.yul\":21242:21260   */\n      add\n        /* \"#utility.yul\":21234:21260   */\n      swap1\n      pop\n        /* \"#utility.yul\":21306:21315   */\n      dup2\n        /* \"#utility.yul\":21300:21304   */\n      dup2\n        /* \"#utility.yul\":21296:21316   */\n      sub\n        /* \"#utility.yul\":21292:21293   */\n      0x00\n        /* \"#utility.yul\":21281:21290   */\n      dup4\n        /* \"#utility.yul\":21277:21294   */\n      add\n        /* \"#utility.yul\":21270:21317   */\n      mstore\n        /* \"#utility.yul\":21334:21465   */\n      tag_564\n        /* \"#utility.yul\":21460:21464   */\n      dup2\n        /* \"#utility.yul\":21334:21465   */\n      tag_355\n      jump\t// in\n    tag_564:\n        /* \"#utility.yul\":21326:21465   */\n      swap1\n      pop\n        /* \"#utility.yul\":21053:21472   */\n      swap2\n      swap1\n      pop\n      jump\t// out\n        /* \"#utility.yul\":21478:21669   */\n    tag_292:\n        /* \"#utility.yul\":21518:21521   */\n      0x00\n        /* \"#utility.yul\":21537:21557   */\n      tag_566\n        /* \"#utility.yul\":21555:21556   */\n      dup3\n        /* \"#utility.yul\":21537:21557   */\n      tag_304\n      jump\t// in\n    tag_566:\n        /* \"#utility.yul\":21532:21557   */\n      swap2\n      pop\n        /* \"#utility.yul\":21571:21591   */\n      tag_567\n        /* \"#utility.yul\":21589:21590   */\n      dup4\n        /* \"#utility.yul\":21571:21591   */\n      tag_304\n      jump\t// in\n    tag_567:\n        /* \"#utility.yul\":21566:21591   */\n      swap3\n      pop\n        /* \"#utility.yul\":21614:21615   */\n      dup3\n        /* \"#utility.yul\":21611:21612   */\n      dup3\n        /* \"#utility.yul\":21607:21616   */\n      add\n        /* \"#utility.yul\":21600:21616   */\n      swap1\n      pop\n        /* \"#utility.yul\":21635:21638   */\n      dup1\n        /* \"#utility.yul\":21632:21633   */\n      dup3\n        /* \"#utility.yul\":21629:21639   */\n      gt\n        /* \"#utility.yul\":21626:21662   */\n      iszero\n      tag_568\n      jumpi\n        /* \"#utility.yul\":21642:21660   */\n      tag_569\n      tag_336\n      jump\t// in\n    tag_569:\n        /* \"#utility.yul\":21626:21662   */\n    tag_568:\n        /* \"#utility.yul\":21478:21669   */\n      swap3\n      swap2\n      pop\n      pop\n      jump\t// out\n        /* \"#utility.yul\":21675:21840   */\n    tag_356:\n        /* \"#utility.yul\":21815:21832   */\n      0x5452414e534645525f4641494c45440000000000000000000000000000000000\n        /* \"#utility.yul\":21811:21812   */\n      0x00\n        /* \"#utility.yul\":21803:21809   */\n      dup3\n        /* \"#utility.yul\":21799:21813   */\n      add\n        /* \"#utility.yul\":21792:21833   */\n      mstore\n        /* \"#utility.yul\":21675:21840   */\n      pop\n      jump\t// out\n        /* \"#utility.yul\":21846:22212   */\n    tag_357:\n        /* \"#utility.yul\":21988:21991   */\n      0x00\n        /* \"#utility.yul\":22009:22076   */\n      tag_572\n        /* \"#utility.yul\":22073:22075   */\n      0x0f\n        /* \"#utility.yul\":22068:22071   */\n      dup4\n        /* \"#utility.yul\":22009:22076   */\n      tag_307\n      jump\t// in\n    tag_572:\n        /* \"#utility.yul\":22002:22076   */\n      swap2\n      pop\n        /* \"#utility.yul\":22085:22178   */\n      tag_573\n        /* \"#utility.yul\":22174:22177   */\n      dup3\n        /* \"#utility.yul\":22085:22178   */\n      tag_356\n      jump\t// in\n    tag_573:\n        /* \"#utility.yul\":22203:22205   */\n      0x20\n        /* \"#utility.yul\":22198:22201   */\n      dup3\n        /* \"#utility.yul\":22194:22206   */\n      add\n        /* \"#utility.yul\":22187:22206   */\n      swap1\n      pop\n        /* \"#utility.yul\":21846:22212   */\n      swap2\n      swap1\n      pop\n      jump\t// out\n        /* \"#utility.yul\":22218:22637   */\n    tag_303:\n        /* \"#utility.yul\":22384:22388   */\n      0x00\n        /* \"#utility.yul\":22422:22424   */\n      0x20\n        /* \"#utility.yul\":22411:22420   */\n      dup3\n        /* \"#utility.yul\":22407:22425   */\n      add\n        /* \"#utility.yul\":22399:22425   */\n      swap1\n      pop\n        /* \"#utility.yul\":22471:22480   */\n      dup2\n        /* \"#utility.yul\":22465:22469   */\n      dup2\n        /* \"#utility.yul\":22461:22481   */\n      sub\n        /* \"#utility.yul\":22457:22458   */\n      0x00\n        /* \"#utility.yul\":22446:22455   */\n      dup4\n        /* \"#utility.yul\":22442:22459   */\n      add\n        /* \"#utility.yul\":22435:22482   */\n      mstore\n        /* \"#utility.yul\":22499:22630   */\n      tag_575\n        /* \"#utility.yul\":22625:22629   */\n      dup2\n        /* \"#utility.yul\":22499:22630   */\n      tag_357\n      jump\t// in\n    tag_575:\n        /* \"#utility.yul\":22491:22630   */\n      swap1\n      pop\n        /* \"#utility.yul\":22218:22637   */\n      swap2\n      swap1\n      pop\n      jump\t// out\n\n    auxdata: 0xa26469706673582212204980ceebcea5a772f8074463d845fe0ac18c14fab48eaad84bdaea7f30c0767b64736f6c634300081e0033\n}\n",
				"bytecode": {
					"linkReferences": {},
					"object": "610100604052348015610010575f5ffd5b5060405161307b38038061307b83398181016040528101906100329190610372565b82828281818473ffffffffffffffffffffffffffffffffffffffff1663313ce5676040518163ffffffff1660e01b8152600401602060405180830381865afa158015610080573d5f5f3e3d5ffd5b505050506040513d601f19601f820116820180604052508101906100a49190610430565b825f90816100b2919061066b565b5081600190816100c2919061066b565b508060ff1660808160ff16815250504660a081815250506100e761013060201b60201c565b60c081815250505050508273ffffffffffffffffffffffffffffffffffffffff1660e08173ffffffffffffffffffffffffffffffffffffffff1681525050505050505050610873565b5f7f8b73c3c69bb8fe3d512ecc4cf759cc79239f7b179b0ffacaa9a75d522b39400f5f60405161016091906107d6565b60405180910390207fc89efdaa54c0f20c7adf612882df0950f5a951637e0307cdcb4c672f298b8bc6463060405160200161019f959493929190610822565b60405160208183030381529060405280519060200120905090565b5f604051905090565b5f5ffd5b5f5ffd5b5f73ffffffffffffffffffffffffffffffffffffffff82169050919050565b5f6101f4826101cb565b9050919050565b5f610205826101ea565b9050919050565b610215816101fb565b811461021f575f5ffd5b50565b5f815190506102308161020c565b92915050565b5f5ffd5b5f5ffd5b5f601f19601f8301169050919050565b7f4e487b71000000000000000000000000000000000000000000000000000000005f52604160045260245ffd5b6102848261023e565b810181811067ffffffffffffffff821117156102a3576102a261024e565b5b80604052505050565b5f6102b56101ba565b90506102c1828261027b565b919050565b5f67ffffffffffffffff8211156102e0576102df61024e565b5b6102e98261023e565b9050602081019050919050565b8281835e5f83830152505050565b5f610316610311846102c6565b6102ac565b9050828152602081018484840111156103325761033161023a565b5b61033d8482856102f6565b509392505050565b5f82601f83011261035957610358610236565b5b8151610369848260208601610304565b91505092915050565b5f5f5f60608486031215610389576103886101c3565b5b5f61039686828701610222565b935050602084015167ffffffffffffffff8111156103b7576103b66101c7565b5b6103c386828701610345565b925050604084015167ffffffffffffffff8111156103e4576103e36101c7565b5b6103f086828701610345565b9150509250925092565b5f60ff82169050919050565b61040f816103fa565b8114610419575f5ffd5b50565b5f8151905061042a81610406565b92915050565b5f60208284031215610445576104446101c3565b5b5f6104528482850161041c565b91505092915050565b5f81519050919050565b7f4e487b71000000000000000000000000000000000000000000000000000000005f52602260045260245ffd5b5f60028204905060018216806104a957607f821691505b6020821081036104bc576104bb610465565b5b50919050565b5f819050815f5260205f209050919050565b5f6020601f8301049050919050565b5f82821b905092915050565b5f6008830261051e7fffffffffffffffffffffffffffffffffffffffffffffffffffffffffffffffff826104e3565b61052886836104e3565b95508019841693508086168417925050509392505050565b5f819050919050565b5f819050919050565b5f61056c61056761056284610540565b610549565b610540565b9050919050565b5f819050919050565b61058583610552565b61059961059182610573565b8484546104ef565b825550505050565b5f5f905090565b6105b06105a1565b6105bb81848461057c565b505050565b5b818110156105de576105d35f826105a8565b6001810190506105c1565b5050565b601f821115610623576105f4816104c2565b6105fd846104d4565b8101602085101561060c578190505b610620610618856104d4565b8301826105c0565b50505b505050565b5f82821c905092915050565b5f6106435f1984600802610628565b1980831691505092915050565b5f61065b8383610634565b9150826002028217905092915050565b6106748261045b565b67ffffffffffffffff81111561068d5761068c61024e565b5b6106978254610492565b6106a28282856105e2565b5f60209050601f8311600181146106d3575f84156106c1578287015190505b6106cb8582610650565b865550610732565b601f1984166106e1866104c2565b5f5b82811015610708578489015182556001820191506020850194506020810190506106e3565b868310156107255784890151610721601f891682610634565b8355505b6001600288020188555050505b505050505050565b5f81905092915050565b5f819050815f5260205f209050919050565b5f815461076281610492565b61076c818661073a565b9450600182165f8114610786576001811461079b576107cd565b60ff19831686528115158202860193506107cd565b6107a485610744565b5f5b838110156107c5578154818901526001820191506020810190506107a6565b838801955050505b50505092915050565b5f6107e18284610756565b915081905092915050565b5f819050919050565b6107fe816107ec565b82525050565b61080d81610540565b82525050565b61081c816101ea565b82525050565b5f60a0820190506108355f8301886107f5565b61084260208301876107f5565b61084f60408301866107f5565b61085c6060830185610804565b6108696080830184610813565b9695505050505050565b60805160a05160c05160e0516127b96108c25f395f8181610b2501528181610bd701528181610cdb01528181611179015261140c01525f610afe01525f610aca01525f610aa501526127b95ff3fe608060405234801561000f575f5ffd5b50600436106101c2575f3560e01c80637ecebe00116100f7578063c63d75b611610095578063d505accf1161006f578063d505accf146105c8578063d905777e146105e4578063dd62ed3e14610614578063ef8b30f714610644576101c2565b8063c63d75b614610538578063c6e6f59214610568578063ce96cb7714610598576101c2565b8063a9059cbb116100d1578063a9059cbb14610478578063b3d7f6b9146104a8578063b460af94146104d8578063ba08765214610508576101c2565b80637ecebe00146103fa57806394bf804d1461042a57806395d89b411461045a576101c2565b8063313ce56711610164578063402d267d1161013e578063402d267d1461033a5780634cdad5061461036a5780636e553f651461039a57806370a08231146103ca576101c2565b8063313ce567146102e05780633644e515146102fe57806338d52e0f1461031c576101c2565b8063095ea7b3116101a0578063095ea7b3146102325780630a28a4771461026257806318160ddd1461029257806323b872dd146102b0576101c2565b806301e1d114146101c657806306fdde03146101e457806307a2d13a14610202575b5f5ffd5b6101ce610674565b6040516101db9190611cc0565b60405180910390f35b6101ec610678565b6040516101f99190611d49565b60405180910390f35b61021c60048036038101906102179190611d97565b610703565b6040516102299190611cc0565b60405180910390f35b61024c60048036038101906102479190611e1c565b61073c565b6040516102599190611e74565b60405180910390f35b61027c60048036038101906102779190611d97565b610829565b6040516102899190611cc0565b60405180910390f35b61029a610862565b6040516102a79190611cc0565b60405180910390f35b6102ca60048036038101906102c59190611e8d565b610868565b6040516102d79190611e74565b60405180910390f35b6102e8610aa3565b6040516102f59190611ef8565b60405180910390f35b610306610ac7565b6040516103139190611f29565b60405180910390f35b610324610b23565b6040516103319190611f9d565b60405180910390f35b610354600480360381019061034f9190611fb6565b610b47565b6040516103619190611cc0565b60405180910390f35b610384600480360381019061037f9190611d97565b610b70565b6040516103919190611cc0565b60405180910390f35b6103b460048036038101906103af9190611fe1565b610b81565b6040516103c19190611cc0565b60405180910390f35b6103e460048036038101906103df9190611fb6565b610c9d565b6040516103f19190611cc0565b60405180910390f35b610414600480360381019061040f9190611fb6565b610cb2565b6040516104219190611cc0565b60405180910390f35b610444600480360381019061043f9190611fe1565b610cc7565b6040516104519190611cc0565b60405180910390f35b610462610da1565b60405161046f9190611d49565b60405180910390f35b610492600480360381019061048d9190611e1c565b610e2d565b60405161049f9190611e74565b60405180910390f35b6104c260048036038101906104bd9190611d97565b610f3a565b6040516104cf9190611cc0565b60405180910390f35b6104f260048036038101906104ed919061201f565b610f73565b6040516104ff9190611cc0565b60405180910390f35b610522600480360381019061051d919061201f565b6111c4565b60405161052f9190611cc0565b60405180910390f35b610552600480360381019061054d9190611fb6565b611457565b60405161055f9190611cc0565b60405180910390f35b610582600480360381019061057d9190611d97565b611480565b60405161058f9190611cc0565b60405180910390f35b6105b260048036038101906105ad9190611fb6565b6114b9565b6040516105bf9190611cc0565b60405180910390f35b6105e260048036038101906105dd91906120c3565b611507565b005b6105fe60048036038101906105f99190611fb6565b6117f4565b60405161060b9190611cc0565b60405180910390f35b61062e60048036038101906106299190612160565b61183a565b60405161063b9190611cc0565b60405180910390f35b61065e60048036038101906106599190611d97565b61185a565b60405161066b9190611cc0565b60405180910390f35b5f90565b5f8054610684906121cb565b80601f01602080910402602001604051908101604052809291908181526020018280546106b0906121cb565b80156106fb5780601f106106d2576101008083540402835291602001916106fb565b820191905f5260205f20905b8154815290600101906020018083116106de57829003601f168201915b505050505081565b5f5f60025490505f81146107325761072d61071c610674565b828561186b9092919063ffffffff16565b610734565b825b915050919050565b5f8160045f3373ffffffffffffffffffffffffffffffffffffffff1673ffffffffffffffffffffffffffffffffffffffff1681526020019081526020015f205f8573ffffffffffffffffffffffffffffffffffffffff1673ffffffffffffffffffffffffffffffffffffffff1681526020019081526020015f20819055508273ffffffffffffffffffffffffffffffffffffffff163373ffffffffffffffffffffffffffffffffffffffff167f8c5be1e5ebec7d5bd14f71427d1e84f3dd0314c0f7b2291e5b200ac8c7c3b925846040516108179190611cc0565b60405180910390a36001905092915050565b5f5f60025490505f81146108585761085381610843610674565b856118ac9092919063ffffffff16565b61085a565b825b915050919050565b60025481565b5f5f60045f8673ffffffffffffffffffffffffffffffffffffffff1673ffffffffffffffffffffffffffffffffffffffff1681526020019081526020015f205f3373ffffffffffffffffffffffffffffffffffffffff1673ffffffffffffffffffffffffffffffffffffffff1681526020019081526020015f205490507fffffffffffffffffffffffffffffffffffffffffffffffffffffffffffffffff81146109955782816109189190612228565b60045f8773ffffffffffffffffffffffffffffffffffffffff1673ffffffffffffffffffffffffffffffffffffffff1681526020019081526020015f205f3373ffffffffffffffffffffffffffffffffffffffff1673ffffffffffffffffffffffffffffffffffffffff1681526020019081526020015f20819055505b8260035f8773ffffffffffffffffffffffffffffffffffffffff1673ffffffffffffffffffffffffffffffffffffffff1681526020019081526020015f205f8282546109e19190612228565b925050819055508260035f8673ffffffffffffffffffffffffffffffffffffffff1673ffffffffffffffffffffffffffffffffffffffff1681526020019081526020015f205f82825401925050819055508373ffffffffffffffffffffffffffffffffffffffff168573ffffffffffffffffffffffffffffffffffffffff167fddf252ad1be2c89b69c2b068fc378daa952ba7f163c4a11628f55a4df523b3ef85604051610a8f9190611cc0565b60405180910390a360019150509392505050565b7f000000000000000000000000000000000000000000000000000000000000000081565b5f7f00000000000000000000000000000000000000000000000000000000000000004614610afc57610af76118f5565b610b1e565b7f00000000000000000000000000000000000000000000000000000000000000005b905090565b7f000000000000000000000000000000000000000000000000000000000000000081565b5f7fffffffffffffffffffffffffffffffffffffffffffffffffffffffffffffffff9050919050565b5f610b7a82610703565b9050919050565b5f5f610b8c8461185a565b91508103610bcf576040517f08c379a0000000000000000000000000000000000000000000000000000000008152600401610bc6906122a5565b60405180910390fd5b610c1c3330857f000000000000000000000000000000000000000000000000000000000000000073ffffffffffffffffffffffffffffffffffffffff1661197f909392919063ffffffff16565b610c268282611a53565b8173ffffffffffffffffffffffffffffffffffffffff163373ffffffffffffffffffffffffffffffffffffffff167fdcbc1c05240f31ff3ad067ef1ee35ce4997762752e3a095284754544f4c709d78584604051610c859291906122c3565b60405180910390a3610c978382611b1e565b92915050565b6003602052805f5260405f205f915090505481565b6005602052805f5260405f205f915090505481565b5f610cd183610f3a565b9050610d203330837f000000000000000000000000000000000000000000000000000000000000000073ffffffffffffffffffffffffffffffffffffffff1661197f909392919063ffffffff16565b610d2a8284611a53565b8173ffffffffffffffffffffffffffffffffffffffff163373ffffffffffffffffffffffffffffffffffffffff167fdcbc1c05240f31ff3ad067ef1ee35ce4997762752e3a095284754544f4c709d78386604051610d899291906122c3565b60405180910390a3610d9b8184611b1e565b92915050565b60018054610dae906121cb565b80601f0160208091040260200160405190810160405280929190818152602001828054610dda906121cb565b8015610e255780601f10610dfc57610100808354040283529160200191610e25565b820191905f5260205f20905b815481529060010190602001808311610e0857829003601f168201915b505050505081565b5f8160035f3373ffffffffffffffffffffffffffffffffffffffff1673ffffffffffffffffffffffffffffffffffffffff1681526020019081526020015f205f828254610e7a9190612228565b925050819055508160035f8573ffffffffffffffffffffffffffffffffffffffff1673ffffffffffffffffffffffffffffffffffffffff1681526020019081526020015f205f82825401925050819055508273ffffffffffffffffffffffffffffffffffffffff163373ffffffffffffffffffffffffffffffffffffffff167fddf252ad1be2c89b69c2b068fc378daa952ba7f163c4a11628f55a4df523b3ef84604051610f289190611cc0565b60405180910390a36001905092915050565b5f5f60025490505f8114610f6957610f64610f53610674565b82856118ac9092919063ffffffff16565b610f6b565b825b915050919050565b5f610f7d84610829565b90508173ffffffffffffffffffffffffffffffffffffffff163373ffffffffffffffffffffffffffffffffffffffff16146110e0575f60045f8473ffffffffffffffffffffffffffffffffffffffff1673ffffffffffffffffffffffffffffffffffffffff1681526020019081526020015f205f3373ffffffffffffffffffffffffffffffffffffffff1673ffffffffffffffffffffffffffffffffffffffff1681526020019081526020015f205490507fffffffffffffffffffffffffffffffffffffffffffffffffffffffffffffffff81146110de5781816110619190612228565b60045f8573ffffffffffffffffffffffffffffffffffffffff1673ffffffffffffffffffffffffffffffffffffffff1681526020019081526020015f205f3373ffffffffffffffffffffffffffffffffffffffff1673ffffffffffffffffffffffffffffffffffffffff1681526020019081526020015f20819055505b505b6110ea8482611b22565b6110f48282611b26565b8173ffffffffffffffffffffffffffffffffffffffff168373ffffffffffffffffffffffffffffffffffffffff163373ffffffffffffffffffffffffffffffffffffffff167ffbde797d201c681b91056529119e0b02407c7bb96a4a2c75c01fc9667232c8db878560405161116a9291906122c3565b60405180910390a46111bd83857f000000000000000000000000000000000000000000000000000000000000000073ffffffffffffffffffffffffffffffffffffffff16611bf19092919063ffffffff16565b9392505050565b5f8173ffffffffffffffffffffffffffffffffffffffff163373ffffffffffffffffffffffffffffffffffffffff1614611326575f60045f8473ffffffffffffffffffffffffffffffffffffffff1673ffffffffffffffffffffffffffffffffffffffff1681526020019081526020015f205f3373ffffffffffffffffffffffffffffffffffffffff1673ffffffffffffffffffffffffffffffffffffffff1681526020019081526020015f205490507fffffffffffffffffffffffffffffffffffffffffffffffffffffffffffffffff81146113245784816112a79190612228565b60045f8573ffffffffffffffffffffffffffffffffffffffff1673ffffffffffffffffffffffffffffffffffffffff1681526020019081526020015f205f3373ffffffffffffffffffffffffffffffffffffffff1673ffffffffffffffffffffffffffffffffffffffff1681526020019081526020015f20819055505b505b5f61133085610b70565b91508103611373576040517f08c379a000000000000000000000000000000000000000000000000000000000815260040161136a90612334565b60405180910390fd5b61137d8185611b22565b6113878285611b26565b8173ffffffffffffffffffffffffffffffffffffffff168373ffffffffffffffffffffffffffffffffffffffff163373ffffffffffffffffffffffffffffffffffffffff167ffbde797d201c681b91056529119e0b02407c7bb96a4a2c75c01fc9667232c8db84886040516113fd9291906122c3565b60405180910390a461145083827f000000000000000000000000000000000000000000000000000000000000000073ffffffffffffffffffffffffffffffffffffffff16611bf19092919063ffffffff16565b9392505050565b5f7fffffffffffffffffffffffffffffffffffffffffffffffffffffffffffffffff9050919050565b5f5f60025490505f81146114af576114aa8161149a610674565b8561186b9092919063ffffffff16565b6114b1565b825b915050919050565b5f61150060035f8473ffffffffffffffffffffffffffffffffffffffff1673ffffffffffffffffffffffffffffffffffffffff1681526020019081526020015f2054610703565b9050919050565b4284101561154a576040517f08c379a00000000000000000000000000000000000000000000000000000000081526004016115419061239c565b60405180910390fd5b5f6001611555610ac7565b7f6e71edae12b1b97f4d1f60370fef10105fa2faae0126114a169c64845d6126c98a8a8a60055f8f73ffffffffffffffffffffffffffffffffffffffff1673ffffffffffffffffffffffffffffffffffffffff1681526020019081526020015f205f815480929190600101919050558b6040516020016115da969594939291906123c9565b6040516020818303038152906040528051906020012060405160200161160192919061249c565b604051602081830303815290604052805190602001208585856040515f815260200160405260405161163694939291906124d2565b6020604051602081039080840390855afa158015611656573d5f5f3e3d5ffd5b5050506020604051035190505f73ffffffffffffffffffffffffffffffffffffffff168173ffffffffffffffffffffffffffffffffffffffff16141580156116c957508773ffffffffffffffffffffffffffffffffffffffff168173ffffffffffffffffffffffffffffffffffffffff16145b611708576040517f08c379a00000000000000000000000000000000000000000000000000000000081526004016116ff9061255f565b60405180910390fd5b8560045f8373ffffffffffffffffffffffffffffffffffffffff1673ffffffffffffffffffffffffffffffffffffffff1681526020019081526020015f205f8973ffffffffffffffffffffffffffffffffffffffff1673ffffffffffffffffffffffffffffffffffffffff1681526020019081526020015f2081905550508573ffffffffffffffffffffffffffffffffffffffff168773ffffffffffffffffffffffffffffffffffffffff167f8c5be1e5ebec7d5bd14f71427d1e84f3dd0314c0f7b2291e5b200ac8c7c3b925876040516117e39190611cc0565b60405180910390a350505050505050565b5f60035f8373ffffffffffffffffffffffffffffffffffffffff1673ffffffffffffffffffffffffffffffffffffffff1681526020019081526020015f20549050919050565b6004602052815f5260405f20602052805f5260405f205f91509150505481565b5f61186482611480565b9050919050565b5f827fffffffffffffffffffffffffffffffffffffffffffffffffffffffffffffffff048411830215820261189e575f5ffd5b818385020490509392505050565b5f827fffffffffffffffffffffffffffffffffffffffffffffffffffffffffffffffff04841183021582026118df575f5ffd5b81838502045f8385870206110190509392505050565b5f7f8b73c3c69bb8fe3d512ecc4cf759cc79239f7b179b0ffacaa9a75d522b39400f5f6040516119259190612619565b60405180910390207fc89efdaa54c0f20c7adf612882df0950f5a951637e0307cdcb4c672f298b8bc6463060405160200161196495949392919061262f565b60405160208183030381529060405280519060200120905090565b5f6040517f23b872dd00000000000000000000000000000000000000000000000000000000815273ffffffffffffffffffffffffffffffffffffffff8516600482015273ffffffffffffffffffffffffffffffffffffffff8416602482015282604482015260205f6064835f8a5af1915081601f3d1160015f511416151615611a0b573d863b15171591505b5080611a4c576040517f08c379a0000000000000000000000000000000000000000000000000000000008152600401611a43906126ca565b60405180910390fd5b5050505050565b8060025f828254611a6491906126e8565b925050819055508060035f8473ffffffffffffffffffffffffffffffffffffffff1673ffffffffffffffffffffffffffffffffffffffff1681526020019081526020015f205f82825401925050819055508173ffffffffffffffffffffffffffffffffffffffff165f73ffffffffffffffffffffffffffffffffffffffff167fddf252ad1be2c89b69c2b068fc378daa952ba7f163c4a11628f55a4df523b3ef83604051611b129190611cc0565b60405180910390a35050565b5050565b5050565b8060035f8473ffffffffffffffffffffffffffffffffffffffff1673ffffffffffffffffffffffffffffffffffffffff1681526020019081526020015f205f828254611b729190612228565b925050819055508060025f82825403925050819055505f73ffffffffffffffffffffffffffffffffffffffff168273ffffffffffffffffffffffffffffffffffffffff167fddf252ad1be2c89b69c2b068fc378daa952ba7f163c4a11628f55a4df523b3ef83604051611be59190611cc0565b60405180910390a35050565b5f6040517fa9059cbb00000000000000000000000000000000000000000000000000000000815273ffffffffffffffffffffffffffffffffffffffff8416600482015282602482015260205f6044835f895af1915081601f3d1160015f511416151615611c61573d853b15171591505b5080611ca2576040517f08c379a0000000000000000000000000000000000000000000000000000000008152600401611c9990612765565b60405180910390fd5b50505050565b5f819050919050565b611cba81611ca8565b82525050565b5f602082019050611cd35f830184611cb1565b92915050565b5f81519050919050565b5f82825260208201905092915050565b8281835e5f83830152505050565b5f601f19601f8301169050919050565b5f611d1b82611cd9565b611d258185611ce3565b9350611d35818560208601611cf3565b611d3e81611d01565b840191505092915050565b5f6020820190508181035f830152611d618184611d11565b905092915050565b5f5ffd5b611d7681611ca8565b8114611d80575f5ffd5b50565b5f81359050611d9181611d6d565b92915050565b5f60208284031215611dac57611dab611d69565b5b5f611db984828501611d83565b91505092915050565b5f73ffffffffffffffffffffffffffffffffffffffff82169050919050565b5f611deb82611dc2565b9050919050565b611dfb81611de1565b8114611e05575f5ffd5b50565b5f81359050611e1681611df2565b92915050565b5f5f60408385031215611e3257611e31611d69565b5b5f611e3f85828601611e08565b9250506020611e5085828601611d83565b9150509250929050565b5f8115159050919050565b611e6e81611e5a565b82525050565b5f602082019050611e875f830184611e65565b92915050565b5f5f5f60608486031215611ea457611ea3611d69565b5b5f611eb186828701611e08565b9350506020611ec286828701611e08565b9250506040611ed386828701611d83565b9150509250925092565b5f60ff82169050919050565b611ef281611edd565b82525050565b5f602082019050611f0b5f830184611ee9565b92915050565b5f819050919050565b611f2381611f11565b82525050565b5f602082019050611f3c5f830184611f1a565b92915050565b5f819050919050565b5f611f65611f60611f5b84611dc2565b611f42565b611dc2565b9050919050565b5f611f7682611f4b565b9050919050565b5f611f8782611f6c565b9050919050565b611f9781611f7d565b82525050565b5f602082019050611fb05f830184611f8e565b92915050565b5f60208284031215611fcb57611fca611d69565b5b5f611fd884828501611e08565b91505092915050565b5f5f60408385031215611ff757611ff6611d69565b5b5f61200485828601611d83565b925050602061201585828601611e08565b9150509250929050565b5f5f5f6060848603121561203657612035611d69565b5b5f61204386828701611d83565b935050602061205486828701611e08565b925050604061206586828701611e08565b9150509250925092565b61207881611edd565b8114612082575f5ffd5b50565b5f813590506120938161206f565b92915050565b6120a281611f11565b81146120ac575f5ffd5b50565b5f813590506120bd81612099565b92915050565b5f5f5f5f5f5f5f60e0888a0312156120de576120dd611d69565b5b5f6120eb8a828b01611e08565b97505060206120fc8a828b01611e08565b965050604061210d8a828b01611d83565b955050606061211e8a828b01611d83565b945050608061212f8a828b01612085565b93505060a06121408a828b016120af565b92505060c06121518a828b016120af565b91505092959891949750929550565b5f5f6040838503121561217657612175611d69565b5b5f61218385828601611e08565b925050602061219485828601611e08565b9150509250929050565b7f4e487b71000000000000000000000000000000000000000000000000000000005f52602260045260245ffd5b5f60028204905060018216806121e257607f821691505b6020821081036121f5576121f461219e565b5b50919050565b7f4e487b71000000000000000000000000000000000000000000000000000000005f52601160045260245ffd5b5f61223282611ca8565b915061223d83611ca8565b9250828203905081811115612255576122546121fb565b5b92915050565b7f5a45524f5f5348415245530000000000000000000000000000000000000000005f82015250565b5f61228f600b83611ce3565b915061229a8261225b565b602082019050919050565b5f6020820190508181035f8301526122bc81612283565b9050919050565b5f6040820190506122d65f830185611cb1565b6122e36020830184611cb1565b9392505050565b7f5a45524f5f4153534554530000000000000000000000000000000000000000005f82015250565b5f61231e600b83611ce3565b9150612329826122ea565b602082019050919050565b5f6020820190508181035f83015261234b81612312565b9050919050565b7f5045524d49545f444541444c494e455f455850495245440000000000000000005f82015250565b5f612386601783611ce3565b915061239182612352565b602082019050919050565b5f6020820190508181035f8301526123b38161237a565b9050919050565b6123c381611de1565b82525050565b5f60c0820190506123dc5f830189611f1a565b6123e960208301886123ba565b6123f660408301876123ba565b6124036060830186611cb1565b6124106080830185611cb1565b61241d60a0830184611cb1565b979650505050505050565b5f81905092915050565b7f19010000000000000000000000000000000000000000000000000000000000005f82015250565b5f612466600283612428565b915061247182612432565b600282019050919050565b5f819050919050565b61249661249182611f11565b61247c565b82525050565b5f6124a68261245a565b91506124b28285612485565b6020820191506124c28284612485565b6020820191508190509392505050565b5f6080820190506124e55f830187611f1a565b6124f26020830186611ee9565b6124ff6040830185611f1a565b61250c6060830184611f1a565b95945050505050565b7f494e56414c49445f5349474e45520000000000000000000000000000000000005f82015250565b5f612549600e83611ce3565b915061255482612515565b602082019050919050565b5f6020820190508181035f8301526125768161253d565b9050919050565b5f81905092915050565b5f819050815f5260205f209050919050565b5f81546125a5816121cb565b6125af818661257d565b9450600182165f81146125c957600181146125de57612610565b60ff1983168652811515820286019350612610565b6125e785612587565b5f5b83811015612608578154818901526001820191506020810190506125e9565b838801955050505b50505092915050565b5f6126248284612599565b915081905092915050565b5f60a0820190506126425f830188611f1a565b61264f6020830187611f1a565b61265c6040830186611f1a565b6126696060830185611cb1565b61267660808301846123ba565b9695505050505050565b7f5452414e534645525f46524f4d5f4641494c45440000000000000000000000005f82015250565b5f6126b4601483611ce3565b91506126bf82612680565b602082019050919050565b5f6020820190508181035f8301526126e1816126a8565b9050919050565b5f6126f282611ca8565b91506126fd83611ca8565b9250828201905080821115612715576127146121fb565b5b92915050565b7f5452414e534645525f4641494c454400000000000000000000000000000000005f82015250565b5f61274f600f83611ce3565b915061275a8261271b565b602082019050919050565b5f6020820190508181035f83015261277c81612743565b905091905056fea26469706673582212204980ceebcea5a772f8074463d845fe0ac18c14fab48eaad84bdaea7f30c0767b64736f6c634300081e0033",
					"opcodes": "PUSH2 0x100 PUSH1 0x40 MSTORE CALLVALUE DUP1 ISZERO PUSH2 0x10 JUMPI PUSH0 PUSH0 REVERT JUMPDEST POP PUSH1 0x40 MLOAD PUSH2 0x307B CODESIZE SUB DUP1 PUSH2 0x307B DUP4 CODECOPY DUP2 DUP2 ADD PUSH1 0x40 MSTORE DUP2 ADD SWAP1 PUSH2 0x32 SWAP2 SWAP1 PUSH2 0x372 JUMP JUMPDEST DUP3 DUP3 DUP3 DUP2 DUP2 DUP5 PUSH20 0xFFFFFFFFFFFFFFFFFFFFFFFFFFFFFFFFFFFFFFFF AND PUSH4 0x313CE567 PUSH1 0x40 MLOAD DUP2 PUSH4 0xFFFFFFFF AND PUSH1 0xE0 SHL DUP2 MSTORE PUSH1 0x4 ADD PUSH1 0x20 PUSH1 0x40 MLOAD DUP1 DUP4 SUB DUP2 DUP7 GAS STATICCALL ISZERO DUP1 ISZERO PUSH2 0x80 JUMPI RETURNDATASIZE PUSH0 PUSH0 RETURNDATACOPY RETURNDATASIZE PUSH0 REVERT JUMPDEST POP POP POP POP PUSH1 0x40 MLOAD RETURNDATASIZE PUSH1 0x1F NOT PUSH1 0x1F DUP3 ADD AND DUP3 ADD DUP1 PUSH1 0x40 MSTORE POP DUP2 ADD SWAP1 PUSH2 0xA4 SWAP2 SWAP1 PUSH2 0x430 JUMP JUMPDEST DUP3 PUSH0 SWAP1 DUP2 PUSH2 0xB2 SWAP2 SWAP1 PUSH2 0x66B JUMP JUMPDEST POP DUP2 PUSH1 0x1 SWAP1 DUP2 PUSH2 0xC2 SWAP2 SWAP1 PUSH2 0x66B JUMP JUMPDEST POP DUP1 PUSH1 0xFF AND PUSH1 0x80 DUP2 PUSH1 0xFF AND DUP2 MSTORE POP POP CHAINID PUSH1 0xA0 DUP2 DUP2 MSTORE POP POP PUSH2 0xE7 PUSH2 0x130 PUSH1 0x20 SHL PUSH1 0x20 SHR JUMP JUMPDEST PUSH1 0xC0 DUP2 DUP2 MSTORE POP POP POP POP POP DUP3 PUSH20 0xFFFFFFFFFFFFFFFFFFFFFFFFFFFFFFFFFFFFFFFF AND PUSH1 0xE0 DUP2 PUSH20 0xFFFFFFFFFFFFFFFFFFFFFFFFFFFFFFFFFFFFFFFF AND DUP2 MSTORE POP POP POP POP POP POP POP POP PUSH2 0x873 JUMP JUMPDEST PUSH0 PUSH32 0x8B73C3C69BB8FE3D512ECC4CF759CC79239F7B179B0FFACAA9A75D522B39400F PUSH0 PUSH1 0x40 MLOAD PUSH2 0x160 SWAP2 SWAP1 PUSH2 0x7D6 JUMP JUMPDEST PUSH1 0x40 MLOAD DUP1 SWAP2 SUB SWAP1 KECCAK256 PUSH32 0xC89EFDAA54C0F20C7ADF612882DF0950F5A951637E0307CDCB4C672F298B8BC6 CHAINID ADDRESS PUSH1 0x40 MLOAD PUSH1 0x20 ADD PUSH2 0x19F SWAP6 SWAP5 SWAP4 SWAP3 SWAP2 SWAP1 PUSH2 0x822 JUMP JUMPDEST PUSH1 0x40 MLOAD PUSH1 0x20 DUP2 DUP4 SUB SUB DUP2 MSTORE SWAP1 PUSH1 0x40 MSTORE DUP1 MLOAD SWAP1 PUSH1 0x20 ADD KECCAK256 SWAP1 POP SWAP1 JUMP JUMPDEST PUSH0 PUSH1 0x40 MLOAD SWAP1 POP SWAP1 JUMP JUMPDEST PUSH0 PUSH0 REVERT JUMPDEST PUSH0 PUSH0 REVERT JUMPDEST PUSH0 PUSH20 0xFFFFFFFFFFFFFFFFFFFFFFFFFFFFFFFFFFFFFFFF DUP3 AND SWAP1 POP SWAP2 SWAP1 POP JUMP JUMPDEST PUSH0 PUSH2 0x1F4 DUP3 PUSH2 0x1CB JUMP JUMPDEST SWAP1 POP SWAP2 SWAP1 POP JUMP JUMPDEST PUSH0 PUSH2 0x205 DUP3 PUSH2 0x1EA JUMP JUMPDEST SWAP1 POP SWAP2 SWAP1 POP JUMP JUMPDEST PUSH2 0x215 DUP2 PUSH2 0x1FB JUMP JUMPDEST DUP2 EQ PUSH2 0x21F JUMPI PUSH0 PUSH0 REVERT JUMPDEST POP JUMP JUMPDEST PUSH0 DUP2 MLOAD SWAP1 POP PUSH2 0x230 DUP2 PUSH2 0x20C JUMP JUMPDEST SWAP3 SWAP2 POP POP JUMP JUMPDEST PUSH0 PUSH0 REVERT JUMPDEST PUSH0 PUSH0 REVERT JUMPDEST PUSH0 PUSH1 0x1F NOT PUSH1 0x1F DUP4 ADD AND SWAP1 POP SWAP2 SWAP1 POP JUMP JUMPDEST PUSH32 0x4E487B7100000000000000000000000000000000000000000000000000000000 PUSH0 MSTORE PUSH1 0x41 PUSH1 0x4 MSTORE PUSH1 0x24 PUSH0 REVERT JUMPDEST PUSH2 0x284 DUP3 PUSH2 0x23E JUMP JUMPDEST DUP2 ADD DUP2 DUP2 LT PUSH8 0xFFFFFFFFFFFFFFFF DUP3 GT OR ISZERO PUSH2 0x2A3 JUMPI PUSH2 0x2A2 PUSH2 0x24E JUMP JUMPDEST JUMPDEST DUP1 PUSH1 0x40 MSTORE POP POP POP JUMP JUMPDEST PUSH0 PUSH2 0x2B5 PUSH2 0x1BA JUMP JUMPDEST SWAP1 POP PUSH2 0x2C1 DUP3 DUP3 PUSH2 0x27B JUMP JUMPDEST SWAP2 SWAP1 POP JUMP JUMPDEST PUSH0 PUSH8 0xFFFFFFFFFFFFFFFF DUP3 GT ISZERO PUSH2 0x2E0 JUMPI PUSH2 0x2DF PUSH2 0x24E JUMP JUMPDEST JUMPDEST PUSH2 0x2E9 DUP3 PUSH2 0x23E JUMP JUMPDEST SWAP1 POP PUSH1 0x20 DUP2 ADD SWAP1 POP SWAP2 SWAP1 POP JUMP JUMPDEST DUP3 DUP2 DUP4 MCOPY PUSH0 DUP4 DUP4 ADD MSTORE POP POP POP JUMP JUMPDEST PUSH0 PUSH2 0x316 PUSH2 0x311 DUP5 PUSH2 0x2C6 JUMP JUMPDEST PUSH2 0x2AC JUMP JUMPDEST SWAP1 POP DUP3 DUP2 MSTORE PUSH1 0x20 DUP2 ADD DUP5 DUP5 DUP5 ADD GT ISZERO PUSH2 0x332 JUMPI PUSH2 0x331 PUSH2 0x23A JUMP JUMPDEST JUMPDEST PUSH2 0x33D DUP5 DUP3 DUP6 PUSH2 0x2F6 JUMP JUMPDEST POP SWAP4 SWAP3 POP POP POP JUMP JUMPDEST PUSH0 DUP3 PUSH1 0x1F DUP4 ADD SLT PUSH2 0x359 JUMPI PUSH2 0x358 PUSH2 0x236 JUMP JUMPDEST JUMPDEST DUP2 MLOAD PUSH2 0x369 DUP5 DUP3 PUSH1 0x20 DUP7 ADD PUSH2 0x304 JUMP JUMPDEST SWAP2 POP POP SWAP3 SWAP2 POP POP JUMP JUMPDEST PUSH0 PUSH0 PUSH0 PUSH1 0x60 DUP5 DUP7 SUB SLT ISZERO PUSH2 0x389 JUMPI PUSH2 0x388 PUSH2 0x1C3 JUMP JUMPDEST JUMPDEST PUSH0 PUSH2 0x396 DUP7 DUP3 DUP8 ADD PUSH2 0x222 JUMP JUMPDEST SWAP4 POP POP PUSH1 0x20 DUP5 ADD MLOAD PUSH8 0xFFFFFFFFFFFFFFFF DUP2 GT ISZERO PUSH2 0x3B7 JUMPI PUSH2 0x3B6 PUSH2 0x1C7 JUMP JUMPDEST JUMPDEST PUSH2 0x3C3 DUP7 DUP3 DUP8 ADD PUSH2 0x345 JUMP JUMPDEST SWAP3 POP POP PUSH1 0x40 DUP5 ADD MLOAD PUSH8 0xFFFFFFFFFFFFFFFF DUP2 GT ISZERO PUSH2 0x3E4 JUMPI PUSH2 0x3E3 PUSH2 0x1C7 JUMP JUMPDEST JUMPDEST PUSH2 0x3F0 DUP7 DUP3 DUP8 ADD PUSH2 0x345 JUMP JUMPDEST SWAP2 POP POP SWAP3 POP SWAP3 POP SWAP3 JUMP JUMPDEST PUSH0 PUSH1 0xFF DUP3 AND SWAP1 POP SWAP2 SWAP1 POP JUMP JUMPDEST PUSH2 0x40F DUP2 PUSH2 0x3FA JUMP JUMPDEST DUP2 EQ PUSH2 0x419 JUMPI PUSH0 PUSH0 REVERT JUMPDEST POP JUMP JUMPDEST PUSH0 DUP2 MLOAD SWAP1 POP PUSH2 0x42A DUP2 PUSH2 0x406 JUMP JUMPDEST SWAP3 SWAP2 POP POP JUMP JUMPDEST PUSH0 PUSH1 0x20 DUP3 DUP5 SUB SLT ISZERO PUSH2 0x445 JUMPI PUSH2 0x444 PUSH2 0x1C3 JUMP JUMPDEST JUMPDEST PUSH0 PUSH2 0x452 DUP5 DUP3 DUP6 ADD PUSH2 0x41C JUMP JUMPDEST SWAP2 POP POP SWAP3 SWAP2 POP POP JUMP JUMPDEST PUSH0 DUP2 MLOAD SWAP1 POP SWAP2 SWAP1 POP JUMP JUMPDEST PUSH32 0x4E487B7100000000000000000000000000000000000000000000000000000000 PUSH0 MSTORE PUSH1 0x22 PUSH1 0x4 MSTORE PUSH1 0x24 PUSH0 REVERT JUMPDEST PUSH0 PUSH1 0x2 DUP3 DIV SWAP1 POP PUSH1 0x1 DUP3 AND DUP1 PUSH2 0x4A9 JUMPI PUSH1 0x7F DUP3 AND SWAP2 POP JUMPDEST PUSH1 0x20 DUP3 LT DUP2 SUB PUSH2 0x4BC JUMPI PUSH2 0x4BB PUSH2 0x465 JUMP JUMPDEST JUMPDEST POP SWAP2 SWAP1 POP JUMP JUMPDEST PUSH0 DUP2 SWAP1 POP DUP2 PUSH0 MSTORE PUSH1 0x20 PUSH0 KECCAK256 SWAP1 POP SWAP2 SWAP1 POP JUMP JUMPDEST PUSH0 PUSH1 0x20 PUSH1 0x1F DUP4 ADD DIV SWAP1 POP SWAP2 SWAP1 POP JUMP JUMPDEST PUSH0 DUP3 DUP3 SHL SWAP1 POP SWAP3 SWAP2 POP POP JUMP JUMPDEST PUSH0 PUSH1 0x8 DUP4 MUL PUSH2 0x51E PUSH32 0xFFFFFFFFFFFFFFFFFFFFFFFFFFFFFFFFFFFFFFFFFFFFFFFFFFFFFFFFFFFFFFFF DUP3 PUSH2 0x4E3 JUMP JUMPDEST PUSH2 0x528 DUP7 DUP4 PUSH2 0x4E3 JUMP JUMPDEST SWAP6 POP DUP1 NOT DUP5 AND SWAP4 POP DUP1 DUP7 AND DUP5 OR SWAP3 POP POP POP SWAP4 SWAP3 POP POP POP JUMP JUMPDEST PUSH0 DUP2 SWAP1 POP SWAP2 SWAP1 POP JUMP JUMPDEST PUSH0 DUP2 SWAP1 POP SWAP2 SWAP1 POP JUMP JUMPDEST PUSH0 PUSH2 0x56C PUSH2 0x567 PUSH2 0x562 DUP5 PUSH2 0x540 JUMP JUMPDEST PUSH2 0x549 JUMP JUMPDEST PUSH2 0x540 JUMP JUMPDEST SWAP1 POP SWAP2 SWAP1 POP JUMP JUMPDEST PUSH0 DUP2 SWAP1 POP SWAP2 SWAP1 POP JUMP JUMPDEST PUSH2 0x585 DUP4 PUSH2 0x552 JUMP JUMPDEST PUSH2 0x599 PUSH2 0x591 DUP3 PUSH2 0x573 JUMP JUMPDEST DUP5 DUP5 SLOAD PUSH2 0x4EF JUMP JUMPDEST DUP3 SSTORE POP POP POP POP JUMP JUMPDEST PUSH0 PUSH0 SWAP1 POP SWAP1 JUMP JUMPDEST PUSH2 0x5B0 PUSH2 0x5A1 JUMP JUMPDEST PUSH2 0x5BB DUP2 DUP5 DUP5 PUSH2 0x57C JUMP JUMPDEST POP POP POP JUMP JUMPDEST JUMPDEST DUP2 DUP2 LT ISZERO PUSH2 0x5DE JUMPI PUSH2 0x5D3 PUSH0 DUP3 PUSH2 0x5A8 JUMP JUMPDEST PUSH1 0x1 DUP2 ADD SWAP1 POP PUSH2 0x5C1 JUMP JUMPDEST POP POP JUMP JUMPDEST PUSH1 0x1F DUP3 GT ISZERO PUSH2 0x623 JUMPI PUSH2 0x5F4 DUP2 PUSH2 0x4C2 JUMP JUMPDEST PUSH2 0x5FD DUP5 PUSH2 0x4D4 JUMP JUMPDEST DUP2 ADD PUSH1 0x20 DUP6 LT ISZERO PUSH2 0x60C JUMPI DUP2 SWAP1 POP JUMPDEST PUSH2 0x620 PUSH2 0x618 DUP6 PUSH2 0x4D4 JUMP JUMPDEST DUP4 ADD DUP3 PUSH2 0x5C0 JUMP JUMPDEST POP POP JUMPDEST POP POP POP JUMP JUMPDEST PUSH0 DUP3 DUP3 SHR SWAP1 POP SWAP3 SWAP2 POP POP JUMP JUMPDEST PUSH0 PUSH2 0x643 PUSH0 NOT DUP5 PUSH1 0x8 MUL PUSH2 0x628 JUMP JUMPDEST NOT DUP1 DUP4 AND SWAP2 POP POP SWAP3 SWAP2 POP POP JUMP JUMPDEST PUSH0 PUSH2 0x65B DUP4 DUP4 PUSH2 0x634 JUMP JUMPDEST SWAP2 POP DUP3 PUSH1 0x2 MUL DUP3 OR SWAP1 POP SWAP3 SWAP2 POP POP JUMP JUMPDEST PUSH2 0x674 DUP3 PUSH2 0x45B JUMP JUMPDEST PUSH8 0xFFFFFFFFFFFFFFFF DUP2 GT ISZERO PUSH2 0x68D JUMPI PUSH2 0x68C PUSH2 0x24E JUMP JUMPDEST JUMPDEST PUSH2 0x697 DUP3 SLOAD PUSH2 0x492 JUMP JUMPDEST PUSH2 0x6A2 DUP3 DUP3 DUP6 PUSH2 0x5E2 JUMP JUMPDEST PUSH0 PUSH1 0x20 SWAP1 POP PUSH1 0x1F DUP4 GT PUSH1 0x1 DUP2 EQ PUSH2 0x6D3 JUMPI PUSH0 DUP5 ISZERO PUSH2 0x6C1 JUMPI DUP3 DUP8 ADD MLOAD SWAP1 POP JUMPDEST PUSH2 0x6CB DUP6 DUP3 PUSH2 0x650 JUMP JUMPDEST DUP7 SSTORE POP PUSH2 0x732 JUMP JUMPDEST PUSH1 0x1F NOT DUP5 AND PUSH2 0x6E1 DUP7 PUSH2 0x4C2 JUMP JUMPDEST PUSH0 JUMPDEST DUP3 DUP2 LT ISZERO PUSH2 0x708 JUMPI DUP5 DUP10 ADD MLOAD DUP3 SSTORE PUSH1 0x1 DUP3 ADD SWAP2 POP PUSH1 0x20 DUP6 ADD SWAP5 POP PUSH1 0x20 DUP2 ADD SWAP1 POP PUSH2 0x6E3 JUMP JUMPDEST DUP7 DUP4 LT ISZERO PUSH2 0x725 JUMPI DUP5 DUP10 ADD MLOAD PUSH2 0x721 PUSH1 0x1F DUP10 AND DUP3 PUSH2 0x634 JUMP JUMPDEST DUP4 SSTORE POP JUMPDEST PUSH1 0x1 PUSH1 0x2 DUP9 MUL ADD DUP9 SSTORE POP POP POP JUMPDEST POP POP POP POP POP POP JUMP JUMPDEST PUSH0 DUP2 SWAP1 POP SWAP3 SWAP2 POP POP JUMP JUMPDEST PUSH0 DUP2 SWAP1 POP DUP2 PUSH0 MSTORE PUSH1 0x20 PUSH0 KECCAK256 SWAP1 POP SWAP2 SWAP1 POP JUMP JUMPDEST PUSH0 DUP2 SLOAD PUSH2 0x762 DUP2 PUSH2 0x492 JUMP JUMPDEST PUSH2 0x76C DUP2 DUP7 PUSH2 0x73A JUMP JUMPDEST SWAP5 POP PUSH1 0x1 DUP3 AND PUSH0 DUP2 EQ PUSH2 0x786 JUMPI PUSH1 0x1 DUP2 EQ PUSH2 0x79B JUMPI PUSH2 0x7CD JUMP JUMPDEST PUSH1 0xFF NOT DUP4 AND DUP7 MSTORE DUP2 ISZERO ISZERO DUP3 MUL DUP7 ADD SWAP4 POP PUSH2 0x7CD JUMP JUMPDEST PUSH2 0x7A4 DUP6 PUSH2 0x744 JUMP JUMPDEST PUSH0 JUMPDEST DUP4 DUP2 LT ISZERO PUSH2 0x7C5 JUMPI DUP2 SLOAD DUP2 DUP10 ADD MSTORE PUSH1 0x1 DUP3 ADD SWAP2 POP PUSH1 0x20 DUP2 ADD SWAP1 POP PUSH2 0x7A6 JUMP JUMPDEST DUP4 DUP9 ADD SWAP6 POP POP POP JUMPDEST POP POP POP SWAP3 SWAP2 POP POP JUMP JUMPDEST PUSH0 PUSH2 0x7E1 DUP3 DUP5 PUSH2 0x756 JUMP JUMPDEST SWAP2 POP DUP2 SWAP1 POP SWAP3 SWAP2 POP POP JUMP JUMPDEST PUSH0 DUP2 SWAP1 POP SWAP2 SWAP1 POP JUMP JUMPDEST PUSH2 0x7FE DUP2 PUSH2 0x7EC JUMP JUMPDEST DUP3 MSTORE POP POP JUMP JUMPDEST PUSH2 0x80D DUP2 PUSH2 0x540 JUMP JUMPDEST DUP3 MSTORE POP POP JUMP JUMPDEST PUSH2 0x81C DUP2 PUSH2 0x1EA JUMP JUMPDEST DUP3 MSTORE POP POP JUMP JUMPDEST PUSH0 PUSH1 0xA0 DUP3 ADD SWAP1 POP PUSH2 0x835 PUSH0 DUP4 ADD DUP9 PUSH2 0x7F5 JUMP JUMPDEST PUSH2 0x842 PUSH1 0x20 DUP4 ADD DUP8 PUSH2 0x7F5 JUMP JUMPDEST PUSH2 0x84F PUSH1 0x40 DUP4 ADD DUP7 PUSH2 0x7F5 JUMP JUMPDEST PUSH2 0x85C PUSH1 0x60 DUP4 ADD DUP6 PUSH2 0x804 JUMP JUMPDEST PUSH2 0x869 PUSH1 0x80 DUP4 ADD DUP5 PUSH2 0x813 JUMP JUMPDEST SWAP7 SWAP6 POP POP POP POP POP POP JUMP JUMPDEST PUSH1 0x80 MLOAD PUSH1 0xA0 MLOAD PUSH1 0xC0 MLOAD PUSH1 0xE0 MLOAD PUSH2 0x27B9 PUSH2 0x8C2 PUSH0 CODECOPY PUSH0 DUP2 DUP2 PUSH2 0xB25 ADD MSTORE DUP2 DUP2 PUSH2 0xBD7 ADD MSTORE DUP2 DUP2 PUSH2 0xCDB ADD MSTORE DUP2 DUP2 PUSH2 0x1179 ADD MSTORE PUSH2 0x140C ADD MSTORE PUSH0 PUSH2 0xAFE ADD MSTORE PUSH0 PUSH2 0xACA ADD MSTORE PUSH0 PUSH2 0xAA5 ADD MSTORE PUSH2 0x27B9 PUSH0 RETURN INVALID PUSH1 0x80 PUSH1 0x40 MSTORE CALLVALUE DUP1 ISZERO PUSH2 0xF JUMPI PUSH0 PUSH0 REVERT JUMPDEST POP PUSH1 0x4 CALLDATASIZE LT PUSH2 0x1C2 JUMPI PUSH0 CALLDATALOAD PUSH1 0xE0 SHR DUP1 PUSH4 0x7ECEBE00 GT PUSH2 0xF7 JUMPI DUP1 PUSH4 0xC63D75B6 GT PUSH2 0x95 JUMPI DUP1 PUSH4 0xD505ACCF GT PUSH2 0x6F JUMPI DUP1 PUSH4 0xD505ACCF EQ PUSH2 0x5C8 JUMPI DUP1 PUSH4 0xD905777E EQ PUSH2 0x5E4 JUMPI DUP1 PUSH4 0xDD62ED3E EQ PUSH2 0x614 JUMPI DUP1 PUSH4 0xEF8B30F7 EQ PUSH2 0x644 JUMPI PUSH2 0x1C2 JUMP JUMPDEST DUP1 PUSH4 0xC63D75B6 EQ PUSH2 0x538 JUMPI DUP1 PUSH4 0xC6E6F592 EQ PUSH2 0x568 JUMPI DUP1 PUSH4 0xCE96CB77 EQ PUSH2 0x598 JUMPI PUSH2 0x1C2 JUMP JUMPDEST DUP1 PUSH4 0xA9059CBB GT PUSH2 0xD1 JUMPI DUP1 PUSH4 0xA9059CBB EQ PUSH2 0x478 JUMPI DUP1 PUSH4 0xB3D7F6B9 EQ PUSH2 0x4A8 JUMPI DUP1 PUSH4 0xB460AF94 EQ PUSH2 0x4D8 JUMPI DUP1 PUSH4 0xBA087652 EQ PUSH2 0x508 JUMPI PUSH2 0x1C2 JUMP JUMPDEST DUP1 PUSH4 0x7ECEBE00 EQ PUSH2 0x3FA JUMPI DUP1 PUSH4 0x94BF804D EQ PUSH2 0x42A JUMPI DUP1 PUSH4 0x95D89B41 EQ PUSH2 0x45A JUMPI PUSH2 0x1C2 JUMP JUMPDEST DUP1 PUSH4 0x313CE567 GT PUSH2 0x164 JUMPI DUP1 PUSH4 0x402D267D GT PUSH2 0x13E JUMPI DUP1 PUSH4 0x402D267D EQ PUSH2 0x33A JUMPI DUP1 PUSH4 0x4CDAD506 EQ PUSH2 0x36A JUMPI DUP1 PUSH4 0x6E553F65 EQ PUSH2 0x39A JUMPI DUP1 PUSH4 0x70A08231 EQ PUSH2 0x3CA JUMPI PUSH2 0x1C2 JUMP JUMPDEST DUP1 PUSH4 0x313CE567 EQ PUSH2 0x2E0 JUMPI DUP1 PUSH4 0x3644E515 EQ PUSH2 0x2FE JUMPI DUP1 PUSH4 0x38D52E0F EQ PUSH2 0x31C JUMPI PUSH2 0x1C2 JUMP JUMPDEST DUP1 PUSH4 0x95EA7B3 GT PUSH2 0x1A0 JUMPI DUP1 PUSH4 0x95EA7B3 EQ PUSH2 0x232 JUMPI DUP1 PUSH4 0xA28A477 EQ PUSH2 0x262 JUMPI DUP1 PUSH4 0x18160DDD EQ PUSH2 0x292 JUMPI DUP1 PUSH4 0x23B872DD EQ PUSH2 0x2B0 JUMPI PUSH2 0x1C2 JUMP JUMPDEST DUP1 PUSH4 0x1E1D114 EQ PUSH2 0x1C6 JUMPI DUP1 PUSH4 0x6FDDE03 EQ PUSH2 0x1E4 JUMPI DUP1 PUSH4 0x7A2D13A EQ PUSH2 0x202 JUMPI JUMPDEST PUSH0 PUSH0 REVERT JUMPDEST PUSH2 0x1CE PUSH2 0x674 JUMP JUMPDEST PUSH1 0x40 MLOAD PUSH2 0x1DB SWAP2 SWAP1 PUSH2 0x1CC0 JUMP JUMPDEST PUSH1 0x40 MLOAD DUP1 SWAP2 SUB SWAP1 RETURN JUMPDEST PUSH2 0x1EC PUSH2 0x678 JUMP JUMPDEST PUSH1 0x40 MLOAD PUSH2 0x1F9 SWAP2 SWAP1 PUSH2 0x1D49 JUMP JUMPDEST PUSH1 0x40 MLOAD DUP1 SWAP2 SUB SWAP1 RETURN JUMPDEST PUSH2 0x21C PUSH1 0x4 DUP1 CALLDATASIZE SUB DUP2 ADD SWAP1 PUSH2 0x217 SWAP2 SWAP1 PUSH2 0x1D97 JUMP JUMPDEST PUSH2 0x703 JUMP JUMPDEST PUSH1 0x40 MLOAD PUSH2 0x229 SWAP2 SWAP1 PUSH2 0x1CC0 JUMP JUMPDEST PUSH1 0x40 MLOAD DUP1 SWAP2 SUB SWAP1 RETURN JUMPDEST PUSH2 0x24C PUSH1 0x4 DUP1 CALLDATASIZE SUB DUP2 ADD SWAP1 PUSH2 0x247 SWAP2 SWAP1 PUSH2 0x1E1C JUMP JUMPDEST PUSH2 0x73C JUMP JUMPDEST PUSH1 0x40 MLOAD PUSH2 0x259 SWAP2 SWAP1 PUSH2 0x1E74 JUMP JUMPDEST PUSH1 0x40 MLOAD DUP1 SWAP2 SUB SWAP1 RETURN JUMPDEST PUSH2 0x27C PUSH1 0x4 DUP1 CALLDATASIZE SUB DUP2 ADD SWAP1 PUSH2 0x277 SWAP2 SWAP1 PUSH2 0x1D97 JUMP JUMPDEST PUSH2 0x829 JUMP JUMPDEST PUSH1 0x40 MLOAD PUSH2 0x289 SWAP2 SWAP1 PUSH2 0x1CC0 JUMP JUMPDEST PUSH1 0x40 MLOAD DUP1 SWAP2 SUB SWAP1 RETURN JUMPDEST PUSH2 0x29A PUSH2 0x862 JUMP JUMPDEST PUSH1 0x40 MLOAD PUSH2 0x2A7 SWAP2 SWAP1 PUSH2 0x1CC0 JUMP JUMPDEST PUSH1 0x40 MLOAD DUP1 SWAP2 SUB SWAP1 RETURN JUMPDEST PUSH2 0x2CA PUSH1 0x4 DUP1 CALLDATASIZE SUB DUP2 ADD SWAP1 PUSH2 0x2C5 SWAP2 SWAP1 PUSH2 0x1E8D JUMP JUMPDEST PUSH2 0x868 JUMP JUMPDEST PUSH1 0x40 MLOAD PUSH2 0x2D7 SWAP2 SWAP1 PUSH2 0x1E74 JUMP JUMPDEST PUSH1 0x40 MLOAD DUP1 SWAP2 SUB SWAP1 RETURN JUMPDEST PUSH2 0x2E8 PUSH2 0xAA3 JUMP JUMPDEST PUSH1 0x40 MLOAD PUSH2 0x2F5 SWAP2 SWAP1 PUSH2 0x1EF8 JUMP JUMPDEST PUSH1 0x40 MLOAD DUP1 SWAP2 SUB SWAP1 RETURN JUMPDEST PUSH2 0x306 PUSH2 0xAC7 JUMP JUMPDEST PUSH1 0x40 MLOAD PUSH2 0x313 SWAP2 SWAP1 PUSH2 0x1F29 JUMP JUMPDEST PUSH1 0x40 MLOAD DUP1 SWAP2 SUB SWAP1 RETURN JUMPDEST PUSH2 0x324 PUSH2 0xB23 JUMP JUMPDEST PUSH1 0x40 MLOAD PUSH2 0x331 SWAP2 SWAP1 PUSH2 0x1F9D JUMP JUMPDEST PUSH1 0x40 MLOAD DUP1 SWAP2 SUB SWAP1 RETURN JUMPDEST PUSH2 0x354 PUSH1 0x4 DUP1 CALLDATASIZE SUB DUP2 ADD SWAP1 PUSH2 0x34F SWAP2 SWAP1 PUSH2 0x1FB6 JUMP JUMPDEST PUSH2 0xB47 JUMP JUMPDEST PUSH1 0x40 MLOAD PUSH2 0x361 SWAP2 SWAP1 PUSH2 0x1CC0 JUMP JUMPDEST PUSH1 0x40 MLOAD DUP1 SWAP2 SUB SWAP1 RETURN JUMPDEST PUSH2 0x384 PUSH1 0x4 DUP1 CALLDATASIZE SUB DUP2 ADD SWAP1 PUSH2 0x37F SWAP2 SWAP1 PUSH2 0x1D97 JUMP JUMPDEST PUSH2 0xB70 JUMP JUMPDEST PUSH1 0x40 MLOAD PUSH2 0x391 SWAP2 SWAP1 PUSH2 0x1CC0 JUMP JUMPDEST PUSH1 0x40 MLOAD DUP1 SWAP2 SUB SWAP1 RETURN JUMPDEST PUSH2 0x3B4 PUSH1 0x4 DUP1 CALLDATASIZE SUB DUP2 ADD SWAP1 PUSH2 0x3AF SWAP2 SWAP1 PUSH2 0x1FE1 JUMP JUMPDEST PUSH2 0xB81 JUMP JUMPDEST PUSH1 0x40 MLOAD PUSH2 0x3C1 SWAP2 SWAP1 PUSH2 0x1CC0 JUMP JUMPDEST PUSH1 0x40 MLOAD DUP1 SWAP2 SUB SWAP1 RETURN JUMPDEST PUSH2 0x3E4 PUSH1 0x4 DUP1 CALLDATASIZE SUB DUP2 ADD SWAP1 PUSH2 0x3DF SWAP2 SWAP1 PUSH2 0x1FB6 JUMP JUMPDEST PUSH2 0xC9D JUMP JUMPDEST PUSH1 0x40 MLOAD PUSH2 0x3F1 SWAP2 SWAP1 PUSH2 0x1CC0 JUMP JUMPDEST PUSH1 0x40 MLOAD DUP1 SWAP2 SUB SWAP1 RETURN JUMPDEST PUSH2 0x414 PUSH1 0x4 DUP1 CALLDATASIZE SUB DUP2 ADD SWAP1 PUSH2 0x40F SWAP2 SWAP1 PUSH2 0x1FB6 JUMP JUMPDEST PUSH2 0xCB2 JUMP JUMPDEST PUSH1 0x40 MLOAD PUSH2 0x421 SWAP2 SWAP1 PUSH2 0x1CC0 JUMP JUMPDEST PUSH1 0x40 MLOAD DUP1 SWAP2 SUB SWAP1 RETURN JUMPDEST PUSH2 0x444 PUSH1 0x4 DUP1 CALLDATASIZE SUB DUP2 ADD SWAP1 PUSH2 0x43F SWAP2 SWAP1 PUSH2 0x1FE1 JUMP JUMPDEST PUSH2 0xCC7 JUMP JUMPDEST PUSH1 0x40 MLOAD PUSH2 0x451 SWAP2 SWAP1 PUSH2 0x1CC0 JUMP JUMPDEST PUSH1 0x40 MLOAD DUP1 SWAP2 SUB SWAP1 RETURN JUMPDEST PUSH2 0x462 PUSH2 0xDA1 JUMP JUMPDEST PUSH1 0x40 MLOAD PUSH2 0x46F SWAP2 SWAP1 PUSH2 0x1D49 JUMP JUMPDEST PUSH1 0x40 MLOAD DUP1 SWAP2 SUB SWAP1 RETURN JUMPDEST PUSH2 0x492 PUSH1 0x4 DUP1 CALLDATASIZE SUB DUP2 ADD SWAP1 PUSH2 0x48D SWAP2 SWAP1 PUSH2 0x1E1C JUMP JUMPDEST PUSH2 0xE2D JUMP JUMPDEST PUSH1 0x40 MLOAD PUSH2 0x49F SWAP2 SWAP1 PUSH2 0x1E74 JUMP JUMPDEST PUSH1 0x40 MLOAD DUP1 SWAP2 SUB SWAP1 RETURN JUMPDEST PUSH2 0x4C2 PUSH1 0x4 DUP1 CALLDATASIZE SUB DUP2 ADD SWAP1 PUSH2 0x4BD SWAP2 SWAP1 PUSH2 0x1D97 JUMP JUMPDEST PUSH2 0xF3A JUMP JUMPDEST PUSH1 0x40 MLOAD PUSH2 0x4CF SWAP2 SWAP1 PUSH2 0x1CC0 JUMP JUMPDEST PUSH1 0x40 MLOAD DUP1 SWAP2 SUB SWAP1 RETURN JUMPDEST PUSH2 0x4F2 PUSH1 0x4 DUP1 CALLDATASIZE SUB DUP2 ADD SWAP1 PUSH2 0x4ED SWAP2 SWAP1 PUSH2 0x201F JUMP JUMPDEST PUSH2 0xF73 JUMP JUMPDEST PUSH1 0x40 MLOAD PUSH2 0x4FF SWAP2 SWAP1 PUSH2 0x1CC0 JUMP JUMPDEST PUSH1 0x40 MLOAD DUP1 SWAP2 SUB SWAP1 RETURN JUMPDEST PUSH2 0x522 PUSH1 0x4 DUP1 CALLDATASIZE SUB DUP2 ADD SWAP1 PUSH2 0x51D SWAP2 SWAP1 PUSH2 0x201F JUMP JUMPDEST PUSH2 0x11C4 JUMP JUMPDEST PUSH1 0x40 MLOAD PUSH2 0x52F SWAP2 SWAP1 PUSH2 0x1CC0 JUMP JUMPDEST PUSH1 0x40 MLOAD DUP1 SWAP2 SUB SWAP1 RETURN JUMPDEST PUSH2 0x552 PUSH1 0x4 DUP1 CALLDATASIZE SUB DUP2 ADD SWAP1 PUSH2 0x54D SWAP2 SWAP1 PUSH2 0x1FB6 JUMP JUMPDEST PUSH2 0x1457 JUMP JUMPDEST PUSH1 0x40 MLOAD PUSH2 0x55F SWAP2 SWAP1 PUSH2 0x1CC0 JUMP JUMPDEST PUSH1 0x40 MLOAD DUP1 SWAP2 SUB SWAP1 RETURN JUMPDEST PUSH2 0x582 PUSH1 0x4 DUP1 CALLDATASIZE SUB DUP2 ADD SWAP1 PUSH2 0x57D SWAP2 SWAP1 PUSH2 0x1D97 JUMP JUMPDEST PUSH2 0x1480 JUMP JUMPDEST PUSH1 0x40 MLOAD PUSH2 0x58F SWAP2 SWAP1 PUSH2 0x1CC0 JUMP JUMPDEST PUSH1 0x40 MLOAD DUP1 SWAP2 SUB SWAP1 RETURN JUMPDEST PUSH2 0x5B2 PUSH1 0x4 DUP1 CALLDATASIZE SUB DUP2 ADD SWAP1 PUSH2 0x5AD SWAP2 SWAP1 PUSH2 0x1FB6 JUMP JUMPDEST PUSH2 0x14B9 JUMP JUMPDEST PUSH1 0x40 MLOAD PUSH2 0x5BF SWAP2 SWAP1 PUSH2 0x1CC0 JUMP JUMPDEST PUSH1 0x40 MLOAD DUP1 SWAP2 SUB SWAP1 RETURN JUMPDEST PUSH2 0x5E2 PUSH1 0x4 DUP1 CALLDATASIZE SUB DUP2 ADD SWAP1 PUSH2 0x5DD SWAP2 SWAP1 PUSH2 0x20C3 JUMP JUMPDEST PUSH2 0x1507 JUMP JUMPDEST STOP JUMPDEST PUSH2 0x5FE PUSH1 0x4 DUP1 CALLDATASIZE SUB DUP2 ADD SWAP1 PUSH2 0x5F9 SWAP2 SWAP1 PUSH2 0x1FB6 JUMP JUMPDEST PUSH2 0x17F4 JUMP JUMPDEST PUSH1 0x40 MLOAD PUSH2 0x60B SWAP2 SWAP1 PUSH2 0x1CC0 JUMP JUMPDEST PUSH1 0x40 MLOAD DUP1 SWAP2 SUB SWAP1 RETURN JUMPDEST PUSH2 0x62E PUSH1 0x4 DUP1 CALLDATASIZE SUB DUP2 ADD SWAP1 PUSH2 0x629 SWAP2 SWAP1 PUSH2 0x2160 JUMP JUMPDEST PUSH2 0x183A JUMP JUMPDEST PUSH1 0x40 MLOAD PUSH2 0x63B SWAP2 SWAP1 PUSH2 0x1CC0 JUMP JUMPDEST PUSH1 0x40 MLOAD DUP1 SWAP2 SUB SWAP1 RETURN JUMPDEST PUSH2 0x65E PUSH1 0x4 DUP1 CALLDATASIZE SUB DUP2 ADD SWAP1 PUSH2 0x659 SWAP2 SWAP1 PUSH2 0x1D97 JUMP JUMPDEST PUSH2 0x185A JUMP JUMPDEST PUSH1 0x40 MLOAD PUSH2 0x66B SWAP2 SWAP1 PUSH2 0x1CC0 JUMP JUMPDEST PUSH1 0x40 MLOAD DUP1 SWAP2 SUB SWAP1 RETURN JUMPDEST PUSH0 SWAP1 JUMP JUMPDEST PUSH0 DUP1 SLOAD PUSH2 0x684 SWAP1 PUSH2 0x21CB JUMP JUMPDEST DUP1 PUSH1 0x1F ADD PUSH1 0x20 DUP1 SWAP2 DIV MUL PUSH1 0x20 ADD PUSH1 0x40 MLOAD SWAP1 DUP2 ADD PUSH1 0x40 MSTORE DUP1 SWAP3 SWAP2 SWAP1 DUP2 DUP2 MSTORE PUSH1 0x20 ADD DUP3 DUP1 SLOAD PUSH2 0x6B0 SWAP1 PUSH2 0x21CB JUMP JUMPDEST DUP1 ISZERO PUSH2 0x6FB JUMPI DUP1 PUSH1 0x1F LT PUSH2 0x6D2 JUMPI PUSH2 0x100 DUP1 DUP4 SLOAD DIV MUL DUP4 MSTORE SWAP2 PUSH1 0x20 ADD SWAP2 PUSH2 0x6FB JUMP JUMPDEST DUP3 ADD SWAP2 SWAP1 PUSH0 MSTORE PUSH1 0x20 PUSH0 KECCAK256 SWAP1 JUMPDEST DUP2 SLOAD DUP2 MSTORE SWAP1 PUSH1 0x1 ADD SWAP1 PUSH1 0x20 ADD DUP1 DUP4 GT PUSH2 0x6DE JUMPI DUP3 SWAP1 SUB PUSH1 0x1F AND DUP3 ADD SWAP2 JUMPDEST POP POP POP POP POP DUP2 JUMP JUMPDEST PUSH0 PUSH0 PUSH1 0x2 SLOAD SWAP1 POP PUSH0 DUP2 EQ PUSH2 0x732 JUMPI PUSH2 0x72D PUSH2 0x71C PUSH2 0x674 JUMP JUMPDEST DUP3 DUP6 PUSH2 0x186B SWAP1 SWAP3 SWAP2 SWAP1 PUSH4 0xFFFFFFFF AND JUMP JUMPDEST PUSH2 0x734 JUMP JUMPDEST DUP3 JUMPDEST SWAP2 POP POP SWAP2 SWAP1 POP JUMP JUMPDEST PUSH0 DUP2 PUSH1 0x4 PUSH0 CALLER PUSH20 0xFFFFFFFFFFFFFFFFFFFFFFFFFFFFFFFFFFFFFFFF AND PUSH20 0xFFFFFFFFFFFFFFFFFFFFFFFFFFFFFFFFFFFFFFFF AND DUP2 MSTORE PUSH1 0x20 ADD SWAP1 DUP2 MSTORE PUSH1 0x20 ADD PUSH0 KECCAK256 PUSH0 DUP6 PUSH20 0xFFFFFFFFFFFFFFFFFFFFFFFFFFFFFFFFFFFFFFFF AND PUSH20 0xFFFFFFFFFFFFFFFFFFFFFFFFFFFFFFFFFFFFFFFF AND DUP2 MSTORE PUSH1 0x20 ADD SWAP1 DUP2 MSTORE PUSH1 0x20 ADD PUSH0 KECCAK256 DUP2 SWAP1 SSTORE POP DUP3 PUSH20 0xFFFFFFFFFFFFFFFFFFFFFFFFFFFFFFFFFFFFFFFF AND CALLER PUSH20 0xFFFFFFFFFFFFFFFFFFFFFFFFFFFFFFFFFFFFFFFF AND PUSH32 0x8C5BE1E5EBEC7D5BD14F71427D1E84F3DD0314C0F7B2291E5B200AC8C7C3B925 DUP5 PUSH1 0x40 MLOAD PUSH2 0x817 SWAP2 SWAP1 PUSH2 0x1CC0 JUMP JUMPDEST PUSH1 0x40 MLOAD DUP1 SWAP2 SUB SWAP1 LOG3 PUSH1 0x1 SWAP1 POP SWAP3 SWAP2 POP POP JUMP JUMPDEST PUSH0 PUSH0 PUSH1 0x2 SLOAD SWAP1 POP PUSH0 DUP2 EQ PUSH2 0x858 JUMPI PUSH2 0x853 DUP2 PUSH2 0x843 PUSH2 0x674 JUMP JUMPDEST DUP6 PUSH2 0x18AC SWAP1 SWAP3 SWAP2 SWAP1 PUSH4 0xFFFFFFFF AND JUMP JUMPDEST PUSH2 0x85A JUMP JUMPDEST DUP3 JUMPDEST SWAP2 POP POP SWAP2 SWAP1 POP JUMP JUMPDEST PUSH1 0x2 SLOAD DUP2 JUMP JUMPDEST PUSH0 PUSH0 PUSH1 0x4 PUSH0 DUP7 PUSH20 0xFFFFFFFFFFFFFFFFFFFFFFFFFFFFFFFFFFFFFFFF AND PUSH20 0xFFFFFFFFFFFFFFFFFFFFFFFFFFFFFFFFFFFFFFFF AND DUP2 MSTORE PUSH1 0x20 ADD SWAP1 DUP2 MSTORE PUSH1 0x20 ADD PUSH0 KECCAK256 PUSH0 CALLER PUSH20 0xFFFFFFFFFFFFFFFFFFFFFFFFFFFFFFFFFFFFFFFF AND PUSH20 0xFFFFFFFFFFFFFFFFFFFFFFFFFFFFFFFFFFFFFFFF AND DUP2 MSTORE PUSH1 0x20 ADD SWAP1 DUP2 MSTORE PUSH1 0x20 ADD PUSH0 KECCAK256 SLOAD SWAP1 POP PUSH32 0xFFFFFFFFFFFFFFFFFFFFFFFFFFFFFFFFFFFFFFFFFFFFFFFFFFFFFFFFFFFFFFFF DUP2 EQ PUSH2 0x995 JUMPI DUP3 DUP2 PUSH2 0x918 SWAP2 SWAP1 PUSH2 0x2228 JUMP JUMPDEST PUSH1 0x4 PUSH0 DUP8 PUSH20 0xFFFFFFFFFFFFFFFFFFFFFFFFFFFFFFFFFFFFFFFF AND PUSH20 0xFFFFFFFFFFFFFFFFFFFFFFFFFFFFFFFFFFFFFFFF AND DUP2 MSTORE PUSH1 0x20 ADD SWAP1 DUP2 MSTORE PUSH1 0x20 ADD PUSH0 KECCAK256 PUSH0 CALLER PUSH20 0xFFFFFFFFFFFFFFFFFFFFFFFFFFFFFFFFFFFFFFFF AND PUSH20 0xFFFFFFFFFFFFFFFFFFFFFFFFFFFFFFFFFFFFFFFF AND DUP2 MSTORE PUSH1 0x20 ADD SWAP1 DUP2 MSTORE PUSH1 0x20 ADD PUSH0 KECCAK256 DUP2 SWAP1 SSTORE POP JUMPDEST DUP3 PUSH1 0x3 PUSH0 DUP8 PUSH20 0xFFFFFFFFFFFFFFFFFFFFFFFFFFFFFFFFFFFFFFFF AND PUSH20 0xFFFFFFFFFFFFFFFFFFFFFFFFFFFFFFFFFFFFFFFF AND DUP2 MSTORE PUSH1 0x20 ADD SWAP1 DUP2 MSTORE PUSH1 0x20 ADD PUSH0 KECCAK256 PUSH0 DUP3 DUP3 SLOAD PUSH2 0x9E1 SWAP2 SWAP1 PUSH2 0x2228 JUMP JUMPDEST SWAP3 POP POP DUP2 SWAP1 SSTORE POP DUP3 PUSH1 0x3 PUSH0 DUP7 PUSH20 0xFFFFFFFFFFFFFFFFFFFFFFFFFFFFFFFFFFFFFFFF AND PUSH20 0xFFFFFFFFFFFFFFFFFFFFFFFFFFFFFFFFFFFFFFFF AND DUP2 MSTORE PUSH1 0x20 ADD SWAP1 DUP2 MSTORE PUSH1 0x20 ADD PUSH0 KECCAK256 PUSH0 DUP3 DUP3 SLOAD ADD SWAP3 POP POP DUP2 SWAP1 SSTORE POP DUP4 PUSH20 0xFFFFFFFFFFFFFFFFFFFFFFFFFFFFFFFFFFFFFFFF AND DUP6 PUSH20 0xFFFFFFFFFFFFFFFFFFFFFFFFFFFFFFFFFFFFFFFF AND PUSH32 0xDDF252AD1BE2C89B69C2B068FC378DAA952BA7F163C4A11628F55A4DF523B3EF DUP6 PUSH1 0x40 MLOAD PUSH2 0xA8F SWAP2 SWAP1 PUSH2 0x1CC0 JUMP JUMPDEST PUSH1 0x40 MLOAD DUP1 SWAP2 SUB SWAP1 LOG3 PUSH1 0x1 SWAP2 POP POP SWAP4 SWAP3 POP POP POP JUMP JUMPDEST PUSH32 0x0 DUP2 JUMP JUMPDEST PUSH0 PUSH32 0x0 CHAINID EQ PUSH2 0xAFC JUMPI PUSH2 0xAF7 PUSH2 0x18F5 JUMP JUMPDEST PUSH2 0xB1E JUMP JUMPDEST PUSH32 0x0 JUMPDEST SWAP1 POP SWAP1 JUMP JUMPDEST PUSH32 0x0 DUP2 JUMP JUMPDEST PUSH0 PUSH32 0xFFFFFFFFFFFFFFFFFFFFFFFFFFFFFFFFFFFFFFFFFFFFFFFFFFFFFFFFFFFFFFFF SWAP1 POP SWAP2 SWAP1 POP JUMP JUMPDEST PUSH0 PUSH2 0xB7A DUP3 PUSH2 0x703 JUMP JUMPDEST SWAP1 POP SWAP2 SWAP1 POP JUMP JUMPDEST PUSH0 PUSH0 PUSH2 0xB8C DUP5 PUSH2 0x185A JUMP JUMPDEST SWAP2 POP DUP2 SUB PUSH2 0xBCF JUMPI PUSH1 0x40 MLOAD PUSH32 0x8C379A000000000000000000000000000000000000000000000000000000000 DUP2 MSTORE PUSH1 0x4 ADD PUSH2 0xBC6 SWAP1 PUSH2 0x22A5 JUMP JUMPDEST PUSH1 0x40 MLOAD DUP1 SWAP2 SUB SWAP1 REVERT JUMPDEST PUSH2 0xC1C CALLER ADDRESS DUP6 PUSH32 0x0 PUSH20 0xFFFFFFFFFFFFFFFFFFFFFFFFFFFFFFFFFFFFFFFF AND PUSH2 0x197F SWAP1 SWAP4 SWAP3 SWAP2 SWAP1 PUSH4 0xFFFFFFFF AND JUMP JUMPDEST PUSH2 0xC26 DUP3 DUP3 PUSH2 0x1A53 JUMP JUMPDEST DUP2 PUSH20 0xFFFFFFFFFFFFFFFFFFFFFFFFFFFFFFFFFFFFFFFF AND CALLER PUSH20 0xFFFFFFFFFFFFFFFFFFFFFFFFFFFFFFFFFFFFFFFF AND PUSH32 0xDCBC1C05240F31FF3AD067EF1EE35CE4997762752E3A095284754544F4C709D7 DUP6 DUP5 PUSH1 0x40 MLOAD PUSH2 0xC85 SWAP3 SWAP2 SWAP1 PUSH2 0x22C3 JUMP JUMPDEST PUSH1 0x40 MLOAD DUP1 SWAP2 SUB SWAP1 LOG3 PUSH2 0xC97 DUP4 DUP3 PUSH2 0x1B1E JUMP JUMPDEST SWAP3 SWAP2 POP POP JUMP JUMPDEST PUSH1 0x3 PUSH1 0x20 MSTORE DUP1 PUSH0 MSTORE PUSH1 0x40 PUSH0 KECCAK256 PUSH0 SWAP2 POP SWAP1 POP SLOAD DUP2 JUMP JUMPDEST PUSH1 0x5 PUSH1 0x20 MSTORE DUP1 PUSH0 MSTORE PUSH1 0x40 PUSH0 KECCAK256 PUSH0 SWAP2 POP SWAP1 POP SLOAD DUP2 JUMP JUMPDEST PUSH0 PUSH2 0xCD1 DUP4 PUSH2 0xF3A JUMP JUMPDEST SWAP1 POP PUSH2 0xD20 CALLER ADDRESS DUP4 PUSH32 0x0 PUSH20 0xFFFFFFFFFFFFFFFFFFFFFFFFFFFFFFFFFFFFFFFF AND PUSH2 0x197F SWAP1 SWAP4 SWAP3 SWAP2 SWAP1 PUSH4 0xFFFFFFFF AND JUMP JUMPDEST PUSH2 0xD2A DUP3 DUP5 PUSH2 0x1A53 JUMP JUMPDEST DUP2 PUSH20 0xFFFFFFFFFFFFFFFFFFFFFFFFFFFFFFFFFFFFFFFF AND CALLER PUSH20 0xFFFFFFFFFFFFFFFFFFFFFFFFFFFFFFFFFFFFFFFF AND PUSH32 0xDCBC1C05240F31FF3AD067EF1EE35CE4997762752E3A095284754544F4C709D7 DUP4 DUP7 PUSH1 0x40 MLOAD PUSH2 0xD89 SWAP3 SWAP2 SWAP1 PUSH2 0x22C3 JUMP JUMPDEST PUSH1 0x40 MLOAD DUP1 SWAP2 SUB SWAP1 LOG3 PUSH2 0xD9B DUP2 DUP5 PUSH2 0x1B1E JUMP JUMPDEST SWAP3 SWAP2 POP POP JUMP JUMPDEST PUSH1 0x1 DUP1 SLOAD PUSH2 0xDAE SWAP1 PUSH2 0x21CB JUMP JUMPDEST DUP1 PUSH1 0x1F ADD PUSH1 0x20 DUP1 SWAP2 DIV MUL PUSH1 0x20 ADD PUSH1 0x40 MLOAD SWAP1 DUP2 ADD PUSH1 0x40 MSTORE DUP1 SWAP3 SWAP2 SWAP1 DUP2 DUP2 MSTORE PUSH1 0x20 ADD DUP3 DUP1 SLOAD PUSH2 0xDDA SWAP1 PUSH2 0x21CB JUMP JUMPDEST DUP1 ISZERO PUSH2 0xE25 JUMPI DUP1 PUSH1 0x1F LT PUSH2 0xDFC JUMPI PUSH2 0x100 DUP1 DUP4 SLOAD DIV MUL DUP4 MSTORE SWAP2 PUSH1 0x20 ADD SWAP2 PUSH2 0xE25 JUMP JUMPDEST DUP3 ADD SWAP2 SWAP1 PUSH0 MSTORE PUSH1 0x20 PUSH0 KECCAK256 SWAP1 JUMPDEST DUP2 SLOAD DUP2 MSTORE SWAP1 PUSH1 0x1 ADD SWAP1 PUSH1 0x20 ADD DUP1 DUP4 GT PUSH2 0xE08 JUMPI DUP3 SWAP1 SUB PUSH1 0x1F AND DUP3 ADD SWAP2 JUMPDEST POP POP POP POP POP DUP2 JUMP JUMPDEST PUSH0 DUP2 PUSH1 0x3 PUSH0 CALLER PUSH20 0xFFFFFFFFFFFFFFFFFFFFFFFFFFFFFFFFFFFFFFFF AND PUSH20 0xFFFFFFFFFFFFFFFFFFFFFFFFFFFFFFFFFFFFFFFF AND DUP2 MSTORE PUSH1 0x20 ADD SWAP1 DUP2 MSTORE PUSH1 0x20 ADD PUSH0 KECCAK256 PUSH0 DUP3 DUP3 SLOAD PUSH2 0xE7A SWAP2 SWAP1 PUSH2 0x2228 JUMP JUMPDEST SWAP3 POP POP DUP2 SWAP1 SSTORE POP DUP2 PUSH1 0x3 PUSH0 DUP6 PUSH20 0xFFFFFFFFFFFFFFFFFFFFFFFFFFFFFFFFFFFFFFFF AND PUSH20 0xFFFFFFFFFFFFFFFFFFFFFFFFFFFFFFFFFFFFFFFF AND DUP2 MSTORE PUSH1 0x20 ADD SWAP1 DUP2 MSTORE PUSH1 0x20 ADD PUSH0 KECCAK256 PUSH0 DUP3 DUP3 SLOAD ADD SWAP3 POP POP DUP2 SWAP1 SSTORE POP DUP3 PUSH20 0xFFFFFFFFFFFFFFFFFFFFFFFFFFFFFFFFFFFFFFFF AND CALLER PUSH20 0xFFFFFFFFFFFFFFFFFFFFFFFFFFFFFFFFFFFFFFFF AND PUSH32 0xDDF252AD1BE2C89B69C2B068FC378DAA952BA7F163C4A11628F55A4DF523B3EF DUP5 PUSH1 0x40 MLOAD PUSH2 0xF28 SWAP2 SWAP1 PUSH2 0x1CC0 JUMP JUMPDEST PUSH1 0x40 MLOAD DUP1 SWAP2 SUB SWAP1 LOG3 PUSH1 0x1 SWAP1 POP SWAP3 SWAP2 POP POP JUMP JUMPDEST PUSH0 PUSH0 PUSH1 0x2 SLOAD SWAP1 POP PUSH0 DUP2 EQ PUSH2 0xF69 JUMPI PUSH2 0xF64 PUSH2 0xF53 PUSH2 0x674 JUMP JUMPDEST DUP3 DUP6 PUSH2 0x18AC SWAP1 SWAP3 SWAP2 SWAP1 PUSH4 0xFFFFFFFF AND JUMP JUMPDEST PUSH2 0xF6B JUMP JUMPDEST DUP3 JUMPDEST SWAP2 POP POP SWAP2 SWAP1 POP JUMP JUMPDEST PUSH0 PUSH2 0xF7D DUP5 PUSH2 0x829 JUMP JUMPDEST SWAP1 POP DUP2 PUSH20 0xFFFFFFFFFFFFFFFFFFFFFFFFFFFFFFFFFFFFFFFF AND CALLER PUSH20 0xFFFFFFFFFFFFFFFFFFFFFFFFFFFFFFFFFFFFFFFF AND EQ PUSH2 0x10E0 JUMPI PUSH0 PUSH1 0x4 PUSH0 DUP5 PUSH20 0xFFFFFFFFFFFFFFFFFFFFFFFFFFFFFFFFFFFFFFFF AND PUSH20 0xFFFFFFFFFFFFFFFFFFFFFFFFFFFFFFFFFFFFFFFF AND DUP2 MSTORE PUSH1 0x20 ADD SWAP1 DUP2 MSTORE PUSH1 0x20 ADD PUSH0 KECCAK256 PUSH0 CALLER PUSH20 0xFFFFFFFFFFFFFFFFFFFFFFFFFFFFFFFFFFFFFFFF AND PUSH20 0xFFFFFFFFFFFFFFFFFFFFFFFFFFFFFFFFFFFFFFFF AND DUP2 MSTORE PUSH1 0x20 ADD SWAP1 DUP2 MSTORE PUSH1 0x20 ADD PUSH0 KECCAK256 SLOAD SWAP1 POP PUSH32 0xFFFFFFFFFFFFFFFFFFFFFFFFFFFFFFFFFFFFFFFFFFFFFFFFFFFFFFFFFFFFFFFF DUP2 EQ PUSH2 0x10DE JUMPI DUP2 DUP2 PUSH2 0x1061 SWAP2 SWAP1 PUSH2 0x2228 JUMP JUMPDEST PUSH1 0x4 PUSH0 DUP6 PUSH20 0xFFFFFFFFFFFFFFFFFFFFFFFFFFFFFFFFFFFFFFFF AND PUSH20 0xFFFFFFFFFFFFFFFFFFFFFFFFFFFFFFFFFFFFFFFF AND DUP2 MSTORE PUSH1 0x20 ADD SWAP1 DUP2 MSTORE PUSH1 0x20 ADD PUSH0 KECCAK256 PUSH0 CALLER PUSH20 0xFFFFFFFFFFFFFFFFFFFFFFFFFFFFFFFFFFFFFFFF AND PUSH20 0xFFFFFFFFFFFFFFFFFFFFFFFFFFFFFFFFFFFFFFFF AND DUP2 MSTORE PUSH1 0x20 ADD SWAP1 DUP2 MSTORE PUSH1 0x20 ADD PUSH0 KECCAK256 DUP2 SWAP1 SSTORE POP JUMPDEST POP JUMPDEST PUSH2 0x10EA DUP5 DUP3 PUSH2 0x1B22 JUMP JUMPDEST PUSH2 0x10F4 DUP3 DUP3 PUSH2 0x1B26 JUMP JUMPDEST DUP2 PUSH20 0xFFFFFFFFFFFFFFFFFFFFFFFFFFFFFFFFFFFFFFFF AND DUP4 PUSH20 0xFFFFFFFFFFFFFFFFFFFFFFFFFFFFFFFFFFFFFFFF AND CALLER PUSH20 0xFFFFFFFFFFFFFFFFFFFFFFFFFFFFFFFFFFFFFFFF AND PUSH32 0xFBDE797D201C681B91056529119E0B02407C7BB96A4A2C75C01FC9667232C8DB DUP8 DUP6 PUSH1 0x40 MLOAD PUSH2 0x116A SWAP3 SWAP2 SWAP1 PUSH2 0x22C3 JUMP JUMPDEST PUSH1 0x40 MLOAD DUP1 SWAP2 SUB SWAP1 LOG4 PUSH2 0x11BD DUP4 DUP6 PUSH32 0x0 PUSH20 0xFFFFFFFFFFFFFFFFFFFFFFFFFFFFFFFFFFFFFFFF AND PUSH2 0x1BF1 SWAP1 SWAP3 SWAP2 SWAP1 PUSH4 0xFFFFFFFF AND JUMP JUMPDEST SWAP4 SWAP3 POP POP POP JUMP JUMPDEST PUSH0 DUP2 PUSH20 0xFFFFFFFFFFFFFFFFFFFFFFFFFFFFFFFFFFFFFFFF AND CALLER PUSH20 0xFFFFFFFFFFFFFFFFFFFFFFFFFFFFFFFFFFFFFFFF AND EQ PUSH2 0x1326 JUMPI PUSH0 PUSH1 0x4 PUSH0 DUP5 PUSH20 0xFFFFFFFFFFFFFFFFFFFFFFFFFFFFFFFFFFFFFFFF AND PUSH20 0xFFFFFFFFFFFFFFFFFFFFFFFFFFFFFFFFFFFFFFFF AND DUP2 MSTORE PUSH1 0x20 ADD SWAP1 DUP2 MSTORE PUSH1 0x20 ADD PUSH0 KECCAK256 PUSH0 CALLER PUSH20 0xFFFFFFFFFFFFFFFFFFFFFFFFFFFFFFFFFFFFFFFF AND PUSH20 0xFFFFFFFFFFFFFFFFFFFFFFFFFFFFFFFFFFFFFFFF AND DUP2 MSTORE PUSH1 0x20 ADD SWAP1 DUP2 MSTORE PUSH1 0x20 ADD PUSH0 KECCAK256 SLOAD SWAP1 POP PUSH32 0xFFFFFFFFFFFFFFFFFFFFFFFFFFFFFFFFFFFFFFFFFFFFFFFFFFFFFFFFFFFFFFFF DUP2 EQ PUSH2 0x1324 JUMPI DUP5 DUP2 PUSH2 0x12A7 SWAP2 SWAP1 PUSH2 0x2228 JUMP JUMPDEST PUSH1 0x4 PUSH0 DUP6 PUSH20 0xFFFFFFFFFFFFFFFFFFFFFFFFFFFFFFFFFFFFFFFF AND PUSH20 0xFFFFFFFFFFFFFFFFFFFFFFFFFFFFFFFFFFFFFFFF AND DUP2 MSTORE PUSH1 0x20 ADD SWAP1 DUP2 MSTORE PUSH1 0x20 ADD PUSH0 KECCAK256 PUSH0 CALLER PUSH20 0xFFFFFFFFFFFFFFFFFFFFFFFFFFFFFFFFFFFFFFFF AND PUSH20 0xFFFFFFFFFFFFFFFFFFFFFFFFFFFFFFFFFFFFFFFF AND DUP2 MSTORE PUSH1 0x20 ADD SWAP1 DUP2 MSTORE PUSH1 0x20 ADD PUSH0 KECCAK256 DUP2 SWAP1 SSTORE POP JUMPDEST POP JUMPDEST PUSH0 PUSH2 0x1330 DUP6 PUSH2 0xB70 JUMP JUMPDEST SWAP2 POP DUP2 SUB PUSH2 0x1373 JUMPI PUSH1 0x40 MLOAD PUSH32 0x8C379A000000000000000000000000000000000000000000000000000000000 DUP2 MSTORE PUSH1 0x4 ADD PUSH2 0x136A SWAP1 PUSH2 0x2334 JUMP JUMPDEST PUSH1 0x40 MLOAD DUP1 SWAP2 SUB SWAP1 REVERT JUMPDEST PUSH2 0x137D DUP2 DUP6 PUSH2 0x1B22 JUMP JUMPDEST PUSH2 0x1387 DUP3 DUP6 PUSH2 0x1B26 JUMP JUMPDEST DUP2 PUSH20 0xFFFFFFFFFFFFFFFFFFFFFFFFFFFFFFFFFFFFFFFF AND DUP4 PUSH20 0xFFFFFFFFFFFFFFFFFFFFFFFFFFFFFFFFFFFFFFFF AND CALLER PUSH20 0xFFFFFFFFFFFFFFFFFFFFFFFFFFFFFFFFFFFFFFFF AND PUSH32 0xFBDE797D201C681B91056529119E0B02407C7BB96A4A2C75C01FC9667232C8DB DUP5 DUP9 PUSH1 0x40 MLOAD PUSH2 0x13FD SWAP3 SWAP2 SWAP1 PUSH2 0x22C3 JUMP JUMPDEST PUSH1 0x40 MLOAD DUP1 SWAP2 SUB SWAP1 LOG4 PUSH2 0x1450 DUP4 DUP3 PUSH32 0x0 PUSH20 0xFFFFFFFFFFFFFFFFFFFFFFFFFFFFFFFFFFFFFFFF AND PUSH2 0x1BF1 SWAP1 SWAP3 SWAP2 SWAP1 PUSH4 0xFFFFFFFF AND JUMP JUMPDEST SWAP4 SWAP3 POP POP POP JUMP JUMPDEST PUSH0 PUSH32 0xFFFFFFFFFFFFFFFFFFFFFFFFFFFFFFFFFFFFFFFFFFFFFFFFFFFFFFFFFFFFFFFF SWAP1 POP SWAP2 SWAP1 POP JUMP JUMPDEST PUSH0 PUSH0 PUSH1 0x2 SLOAD SWAP1 POP PUSH0 DUP2 EQ PUSH2 0x14AF JUMPI PUSH2 0x14AA DUP2 PUSH2 0x149A PUSH2 0x674 JUMP JUMPDEST DUP6 PUSH2 0x186B SWAP1 SWAP3 SWAP2 SWAP1 PUSH4 0xFFFFFFFF AND JUMP JUMPDEST PUSH2 0x14B1 JUMP JUMPDEST DUP3 JUMPDEST SWAP2 POP POP SWAP2 SWAP1 POP JUMP JUMPDEST PUSH0 PUSH2 0x1500 PUSH1 0x3 PUSH0 DUP5 PUSH20 0xFFFFFFFFFFFFFFFFFFFFFFFFFFFFFFFFFFFFFFFF AND PUSH20 0xFFFFFFFFFFFFFFFFFFFFFFFFFFFFFFFFFFFFFFFF AND DUP2 MSTORE PUSH1 0x20 ADD SWAP1 DUP2 MSTORE PUSH1 0x20 ADD PUSH0 KECCAK256 SLOAD PUSH2 0x703 JUMP JUMPDEST SWAP1 POP SWAP2 SWAP1 POP JUMP JUMPDEST TIMESTAMP DUP5 LT ISZERO PUSH2 0x154A JUMPI PUSH1 0x40 MLOAD PUSH32 0x8C379A000000000000000000000000000000000000000000000000000000000 DUP2 MSTORE PUSH1 0x4 ADD PUSH2 0x1541 SWAP1 PUSH2 0x239C JUMP JUMPDEST PUSH1 0x40 MLOAD DUP1 SWAP2 SUB SWAP1 REVERT JUMPDEST PUSH0 PUSH1 0x1 PUSH2 0x1555 PUSH2 0xAC7 JUMP JUMPDEST PUSH32 0x6E71EDAE12B1B97F4D1F60370FEF10105FA2FAAE0126114A169C64845D6126C9 DUP11 DUP11 DUP11 PUSH1 0x5 PUSH0 DUP16 PUSH20 0xFFFFFFFFFFFFFFFFFFFFFFFFFFFFFFFFFFFFFFFF AND PUSH20 0xFFFFFFFFFFFFFFFFFFFFFFFFFFFFFFFFFFFFFFFF AND DUP2 MSTORE PUSH1 0x20 ADD SWAP1 DUP2 MSTORE PUSH1 0x20 ADD PUSH0 KECCAK256 PUSH0 DUP2 SLOAD DUP1 SWAP3 SWAP2 SWAP1 PUSH1 0x1 ADD SWAP2 SWAP1 POP SSTORE DUP12 PUSH1 0x40 MLOAD PUSH1 0x20 ADD PUSH2 0x15DA SWAP7 SWAP6 SWAP5 SWAP4 SWAP3 SWAP2 SWAP1 PUSH2 0x23C9 JUMP JUMPDEST PUSH1 0x40 MLOAD PUSH1 0x20 DUP2 DUP4 SUB SUB DUP2 MSTORE SWAP1 PUSH1 0x40 MSTORE DUP1 MLOAD SWAP1 PUSH1 0x20 ADD KECCAK256 PUSH1 0x40 MLOAD PUSH1 0x20 ADD PUSH2 0x1601 SWAP3 SWAP2 SWAP1 PUSH2 0x249C JUMP JUMPDEST PUSH1 0x40 MLOAD PUSH1 0x20 DUP2 DUP4 SUB SUB DUP2 MSTORE SWAP1 PUSH1 0x40 MSTORE DUP1 MLOAD SWAP1 PUSH1 0x20 ADD KECCAK256 DUP6 DUP6 DUP6 PUSH1 0x40 MLOAD PUSH0 DUP2 MSTORE PUSH1 0x20 ADD PUSH1 0x40 MSTORE PUSH1 0x40 MLOAD PUSH2 0x1636 SWAP5 SWAP4 SWAP3 SWAP2 SWAP1 PUSH2 0x24D2 JUMP JUMPDEST PUSH1 0x20 PUSH1 0x40 MLOAD PUSH1 0x20 DUP2 SUB SWAP1 DUP1 DUP5 SUB SWAP1 DUP6 GAS STATICCALL ISZERO DUP1 ISZERO PUSH2 0x1656 JUMPI RETURNDATASIZE PUSH0 PUSH0 RETURNDATACOPY RETURNDATASIZE PUSH0 REVERT JUMPDEST POP POP POP PUSH1 0x20 PUSH1 0x40 MLOAD SUB MLOAD SWAP1 POP PUSH0 PUSH20 0xFFFFFFFFFFFFFFFFFFFFFFFFFFFFFFFFFFFFFFFF AND DUP2 PUSH20 0xFFFFFFFFFFFFFFFFFFFFFFFFFFFFFFFFFFFFFFFF AND EQ ISZERO DUP1 ISZERO PUSH2 0x16C9 JUMPI POP DUP8 PUSH20 0xFFFFFFFFFFFFFFFFFFFFFFFFFFFFFFFFFFFFFFFF AND DUP2 PUSH20 0xFFFFFFFFFFFFFFFFFFFFFFFFFFFFFFFFFFFFFFFF AND EQ JUMPDEST PUSH2 0x1708 JUMPI PUSH1 0x40 MLOAD PUSH32 0x8C379A000000000000000000000000000000000000000000000000000000000 DUP2 MSTORE PUSH1 0x4 ADD PUSH2 0x16FF SWAP1 PUSH2 0x255F JUMP JUMPDEST PUSH1 0x40 MLOAD DUP1 SWAP2 SUB SWAP1 REVERT JUMPDEST DUP6 PUSH1 0x4 PUSH0 DUP4 PUSH20 0xFFFFFFFFFFFFFFFFFFFFFFFFFFFFFFFFFFFFFFFF AND PUSH20 0xFFFFFFFFFFFFFFFFFFFFFFFFFFFFFFFFFFFFFFFF AND DUP2 MSTORE PUSH1 0x20 ADD SWAP1 DUP2 MSTORE PUSH1 0x20 ADD PUSH0 KECCAK256 PUSH0 DUP10 PUSH20 0xFFFFFFFFFFFFFFFFFFFFFFFFFFFFFFFFFFFFFFFF AND PUSH20 0xFFFFFFFFFFFFFFFFFFFFFFFFFFFFFFFFFFFFFFFF AND DUP2 MSTORE PUSH1 0x20 ADD SWAP1 DUP2 MSTORE PUSH1 0x20 ADD PUSH0 KECCAK256 DUP2 SWAP1 SSTORE POP POP DUP6 PUSH20 0xFFFFFFFFFFFFFFFFFFFFFFFFFFFFFFFFFFFFFFFF AND DUP8 PUSH20 0xFFFFFFFFFFFFFFFFFFFFFFFFFFFFFFFFFFFFFFFF AND PUSH32 0x8C5BE1E5EBEC7D5BD14F71427D1E84F3DD0314C0F7B2291E5B200AC8C7C3B925 DUP8 PUSH1 0x40 MLOAD PUSH2 0x17E3 SWAP2 SWAP1 PUSH2 0x1CC0 JUMP JUMPDEST PUSH1 0x40 MLOAD DUP1 SWAP2 SUB SWAP1 LOG3 POP POP POP POP POP POP POP JUMP JUMPDEST PUSH0 PUSH1 0x3 PUSH0 DUP4 PUSH20 0xFFFFFFFFFFFFFFFFFFFFFFFFFFFFFFFFFFFFFFFF AND PUSH20 0xFFFFFFFFFFFFFFFFFFFFFFFFFFFFFFFFFFFFFFFF AND DUP2 MSTORE PUSH1 0x20 ADD SWAP1 DUP2 MSTORE PUSH1 0x20 ADD PUSH0 KECCAK256 SLOAD SWAP1 POP SWAP2 SWAP1 POP JUMP JUMPDEST PUSH1 0x4 PUSH1 0x20 MSTORE DUP2 PUSH0 MSTORE PUSH1 0x40 PUSH0 KECCAK256 PUSH1 0x20 MSTORE DUP1 PUSH0 MSTORE PUSH1 0x40 PUSH0 KECCAK256 PUSH0 SWAP2 POP SWAP2 POP POP SLOAD DUP2 JUMP JUMPDEST PUSH0 PUSH2 0x1864 DUP3 PUSH2 0x1480 JUMP JUMPDEST SWAP1 POP SWAP2 SWAP1 POP JUMP JUMPDEST PUSH0 DUP3 PUSH32 0xFFFFFFFFFFFFFFFFFFFFFFFFFFFFFFFFFFFFFFFFFFFFFFFFFFFFFFFFFFFFFFFF DIV DUP5 GT DUP4 MUL ISZERO DUP3 MUL PUSH2 0x189E JUMPI PUSH0 PUSH0 REVERT JUMPDEST DUP2 DUP4 DUP6 MUL DIV SWAP1 POP SWAP4 SWAP3 POP POP POP JUMP JUMPDEST PUSH0 DUP3 PUSH32 0xFFFFFFFFFFFFFFFFFFFFFFFFFFFFFFFFFFFFFFFFFFFFFFFFFFFFFFFFFFFFFFFF DIV DUP5 GT DUP4 MUL ISZERO DUP3 MUL PUSH2 0x18DF JUMPI PUSH0 PUSH0 REVERT JUMPDEST DUP2 DUP4 DUP6 MUL DIV PUSH0 DUP4 DUP6 DUP8 MUL MOD GT ADD SWAP1 POP SWAP4 SWAP3 POP POP POP JUMP JUMPDEST PUSH0 PUSH32 0x8B73C3C69BB8FE3D512ECC4CF759CC79239F7B179B0FFACAA9A75D522B39400F PUSH0 PUSH1 0x40 MLOAD PUSH2 0x1925 SWAP2 SWAP1 PUSH2 0x2619 JUMP JUMPDEST PUSH1 0x40 MLOAD DUP1 SWAP2 SUB SWAP1 KECCAK256 PUSH32 0xC89EFDAA54C0F20C7ADF612882DF0950F5A951637E0307CDCB4C672F298B8BC6 CHAINID ADDRESS PUSH1 0x40 MLOAD PUSH1 0x20 ADD PUSH2 0x1964 SWAP6 SWAP5 SWAP4 SWAP3 SWAP2 SWAP1 PUSH2 0x262F JUMP JUMPDEST PUSH1 0x40 MLOAD PUSH1 0x20 DUP2 DUP4 SUB SUB DUP2 MSTORE SWAP1 PUSH1 0x40 MSTORE DUP1 MLOAD SWAP1 PUSH1 0x20 ADD KECCAK256 SWAP1 POP SWAP1 JUMP JUMPDEST PUSH0 PUSH1 0x40 MLOAD PUSH32 0x23B872DD00000000000000000000000000000000000000000000000000000000 DUP2 MSTORE PUSH20 0xFFFFFFFFFFFFFFFFFFFFFFFFFFFFFFFFFFFFFFFF DUP6 AND PUSH1 0x4 DUP3 ADD MSTORE PUSH20 0xFFFFFFFFFFFFFFFFFFFFFFFFFFFFFFFFFFFFFFFF DUP5 AND PUSH1 0x24 DUP3 ADD MSTORE DUP3 PUSH1 0x44 DUP3 ADD MSTORE PUSH1 0x20 PUSH0 PUSH1 0x64 DUP4 PUSH0 DUP11 GAS CALL SWAP2 POP DUP2 PUSH1 0x1F RETURNDATASIZE GT PUSH1 0x1 PUSH0 MLOAD EQ AND ISZERO AND ISZERO PUSH2 0x1A0B JUMPI RETURNDATASIZE DUP7 EXTCODESIZE ISZERO OR ISZERO SWAP2 POP JUMPDEST POP DUP1 PUSH2 0x1A4C JUMPI PUSH1 0x40 MLOAD PUSH32 0x8C379A000000000000000000000000000000000000000000000000000000000 DUP2 MSTORE PUSH1 0x4 ADD PUSH2 0x1A43 SWAP1 PUSH2 0x26CA JUMP JUMPDEST PUSH1 0x40 MLOAD DUP1 SWAP2 SUB SWAP1 REVERT JUMPDEST POP POP POP POP POP JUMP JUMPDEST DUP1 PUSH1 0x2 PUSH0 DUP3 DUP3 SLOAD PUSH2 0x1A64 SWAP2 SWAP1 PUSH2 0x26E8 JUMP JUMPDEST SWAP3 POP POP DUP2 SWAP1 SSTORE POP DUP1 PUSH1 0x3 PUSH0 DUP5 PUSH20 0xFFFFFFFFFFFFFFFFFFFFFFFFFFFFFFFFFFFFFFFF AND PUSH20 0xFFFFFFFFFFFFFFFFFFFFFFFFFFFFFFFFFFFFFFFF AND DUP2 MSTORE PUSH1 0x20 ADD SWAP1 DUP2 MSTORE PUSH1 0x20 ADD PUSH0 KECCAK256 PUSH0 DUP3 DUP3 SLOAD ADD SWAP3 POP POP DUP2 SWAP1 SSTORE POP DUP2 PUSH20 0xFFFFFFFFFFFFFFFFFFFFFFFFFFFFFFFFFFFFFFFF AND PUSH0 PUSH20 0xFFFFFFFFFFFFFFFFFFFFFFFFFFFFFFFFFFFFFFFF AND PUSH32 0xDDF252AD1BE2C89B69C2B068FC378DAA952BA7F163C4A11628F55A4DF523B3EF DUP4 PUSH1 0x40 MLOAD PUSH2 0x1B12 SWAP2 SWAP1 PUSH2 0x1CC0 JUMP JUMPDEST PUSH1 0x40 MLOAD DUP1 SWAP2 SUB SWAP1 LOG3 POP POP JUMP JUMPDEST POP POP JUMP JUMPDEST POP POP JUMP JUMPDEST DUP1 PUSH1 0x3 PUSH0 DUP5 PUSH20 0xFFFFFFFFFFFFFFFFFFFFFFFFFFFFFFFFFFFFFFFF AND PUSH20 0xFFFFFFFFFFFFFFFFFFFFFFFFFFFFFFFFFFFFFFFF AND DUP2 MSTORE PUSH1 0x20 ADD SWAP1 DUP2 MSTORE PUSH1 0x20 ADD PUSH0 KECCAK256 PUSH0 DUP3 DUP3 SLOAD PUSH2 0x1B72 SWAP2 SWAP1 PUSH2 0x2228 JUMP JUMPDEST SWAP3 POP POP DUP2 SWAP1 SSTORE POP DUP1 PUSH1 0x2 PUSH0 DUP3 DUP3 SLOAD SUB SWAP3 POP POP DUP2 SWAP1 SSTORE POP PUSH0 PUSH20 0xFFFFFFFFFFFFFFFFFFFFFFFFFFFFFFFFFFFFFFFF AND DUP3 PUSH20 0xFFFFFFFFFFFFFFFFFFFFFFFFFFFFFFFFFFFFFFFF AND PUSH32 0xDDF252AD1BE2C89B69C2B068FC378DAA952BA7F163C4A11628F55A4DF523B3EF DUP4 PUSH1 0x40 MLOAD PUSH2 0x1BE5 SWAP2 SWAP1 PUSH2 0x1CC0 JUMP JUMPDEST PUSH1 0x40 MLOAD DUP1 SWAP2 SUB SWAP1 LOG3 POP POP JUMP JUMPDEST PUSH0 PUSH1 0x40 MLOAD PUSH32 0xA9059CBB00000000000000000000000000000000000000000000000000000000 DUP2 MSTORE PUSH20 0xFFFFFFFFFFFFFFFFFFFFFFFFFFFFFFFFFFFFFFFF DUP5 AND PUSH1 0x4 DUP3 ADD MSTORE DUP3 PUSH1 0x24 DUP3 ADD MSTORE PUSH1 0x20 PUSH0 PUSH1 0x44 DUP4 PUSH0 DUP10 GAS CALL SWAP2 POP DUP2 PUSH1 0x1F RETURNDATASIZE GT PUSH1 0x1 PUSH0 MLOAD EQ AND ISZERO AND ISZERO PUSH2 0x1C61 JUMPI RETURNDATASIZE DUP6 EXTCODESIZE ISZERO OR ISZERO SWAP2 POP JUMPDEST POP DUP1 PUSH2 0x1CA2 JUMPI PUSH1 0x40 MLOAD PUSH32 0x8C379A000000000000000000000000000000000000000000000000000000000 DUP2 MSTORE PUSH1 0x4 ADD PUSH2 0x1C99 SWAP1 PUSH2 0x2765 JUMP JUMPDEST PUSH1 0x40 MLOAD DUP1 SWAP2 SUB SWAP1 REVERT JUMPDEST POP POP POP POP JUMP JUMPDEST PUSH0 DUP2 SWAP1 POP SWAP2 SWAP1 POP JUMP JUMPDEST PUSH2 0x1CBA DUP2 PUSH2 0x1CA8 JUMP JUMPDEST DUP3 MSTORE POP POP JUMP JUMPDEST PUSH0 PUSH1 0x20 DUP3 ADD SWAP1 POP PUSH2 0x1CD3 PUSH0 DUP4 ADD DUP5 PUSH2 0x1CB1 JUMP JUMPDEST SWAP3 SWAP2 POP POP JUMP JUMPDEST PUSH0 DUP2 MLOAD SWAP1 POP SWAP2 SWAP1 POP JUMP JUMPDEST PUSH0 DUP3 DUP3 MSTORE PUSH1 0x20 DUP3 ADD SWAP1 POP SWAP3 SWAP2 POP POP JUMP JUMPDEST DUP3 DUP2 DUP4 MCOPY PUSH0 DUP4 DUP4 ADD MSTORE POP POP POP JUMP JUMPDEST PUSH0 PUSH1 0x1F NOT PUSH1 0x1F DUP4 ADD AND SWAP1 POP SWAP2 SWAP1 POP JUMP JUMPDEST PUSH0 PUSH2 0x1D1B DUP3 PUSH2 0x1CD9 JUMP JUMPDEST PUSH2 0x1D25 DUP2 DUP6 PUSH2 0x1CE3 JUMP JUMPDEST SWAP4 POP PUSH2 0x1D35 DUP2 DUP6 PUSH1 0x20 DUP7 ADD PUSH2 0x1CF3 JUMP JUMPDEST PUSH2 0x1D3E DUP2 PUSH2 0x1D01 JUMP JUMPDEST DUP5 ADD SWAP2 POP POP SWAP3 SWAP2 POP POP JUMP JUMPDEST PUSH0 PUSH1 0x20 DUP3 ADD SWAP1 POP DUP2 DUP2 SUB PUSH0 DUP4 ADD MSTORE PUSH2 0x1D61 DUP2 DUP5 PUSH2 0x1D11 JUMP JUMPDEST SWAP1 POP SWAP3 SWAP2 POP POP JUMP JUMPDEST PUSH0 PUSH0 REVERT JUMPDEST PUSH2 0x1D76 DUP2 PUSH2 0x1CA8 JUMP JUMPDEST DUP2 EQ PUSH2 0x1D80 JUMPI PUSH0 PUSH0 REVERT JUMPDEST POP JUMP JUMPDEST PUSH0 DUP2 CALLDATALOAD SWAP1 POP PUSH2 0x1D91 DUP2 PUSH2 0x1D6D JUMP JUMPDEST SWAP3 SWAP2 POP POP JUMP JUMPDEST PUSH0 PUSH1 0x20 DUP3 DUP5 SUB SLT ISZERO PUSH2 0x1DAC JUMPI PUSH2 0x1DAB PUSH2 0x1D69 JUMP JUMPDEST JUMPDEST PUSH0 PUSH2 0x1DB9 DUP5 DUP3 DUP6 ADD PUSH2 0x1D83 JUMP JUMPDEST SWAP2 POP POP SWAP3 SWAP2 POP POP JUMP JUMPDEST PUSH0 PUSH20 0xFFFFFFFFFFFFFFFFFFFFFFFFFFFFFFFFFFFFFFFF DUP3 AND SWAP1 POP SWAP2 SWAP1 POP JUMP JUMPDEST PUSH0 PUSH2 0x1DEB DUP3 PUSH2 0x1DC2 JUMP JUMPDEST SWAP1 POP SWAP2 SWAP1 POP JUMP JUMPDEST PUSH2 0x1DFB DUP2 PUSH2 0x1DE1 JUMP JUMPDEST DUP2 EQ PUSH2 0x1E05 JUMPI PUSH0 PUSH0 REVERT JUMPDEST POP JUMP JUMPDEST PUSH0 DUP2 CALLDATALOAD SWAP1 POP PUSH2 0x1E16 DUP2 PUSH2 0x1DF2 JUMP JUMPDEST SWAP3 SWAP2 POP POP JUMP JUMPDEST PUSH0 PUSH0 PUSH1 0x40 DUP4 DUP6 SUB SLT ISZERO PUSH2 0x1E32 JUMPI PUSH2 0x1E31 PUSH2 0x1D69 JUMP JUMPDEST JUMPDEST PUSH0 PUSH2 0x1E3F DUP6 DUP3 DUP7 ADD PUSH2 0x1E08 JUMP JUMPDEST SWAP3 POP POP PUSH1 0x20 PUSH2 0x1E50 DUP6 DUP3 DUP7 ADD PUSH2 0x1D83 JUMP JUMPDEST SWAP2 POP POP SWAP3 POP SWAP3 SWAP1 POP JUMP JUMPDEST PUSH0 DUP2 ISZERO ISZERO SWAP1 POP SWAP2 SWAP1 POP JUMP JUMPDEST PUSH2 0x1E6E DUP2 PUSH2 0x1E5A JUMP JUMPDEST DUP3 MSTORE POP POP JUMP JUMPDEST PUSH0 PUSH1 0x20 DUP3 ADD SWAP1 POP PUSH2 0x1E87 PUSH0 DUP4 ADD DUP5 PUSH2 0x1E65 JUMP JUMPDEST SWAP3 SWAP2 POP POP JUMP JUMPDEST PUSH0 PUSH0 PUSH0 PUSH1 0x60 DUP5 DUP7 SUB SLT ISZERO PUSH2 0x1EA4 JUMPI PUSH2 0x1EA3 PUSH2 0x1D69 JUMP JUMPDEST JUMPDEST PUSH0 PUSH2 0x1EB1 DUP7 DUP3 DUP8 ADD PUSH2 0x1E08 JUMP JUMPDEST SWAP4 POP POP PUSH1 0x20 PUSH2 0x1EC2 DUP7 DUP3 DUP8 ADD PUSH2 0x1E08 JUMP JUMPDEST SWAP3 POP POP PUSH1 0x40 PUSH2 0x1ED3 DUP7 DUP3 DUP8 ADD PUSH2 0x1D83 JUMP JUMPDEST SWAP2 POP POP SWAP3 POP SWAP3 POP SWAP3 JUMP JUMPDEST PUSH0 PUSH1 0xFF DUP3 AND SWAP1 POP SWAP2 SWAP1 POP JUMP JUMPDEST PUSH2 0x1EF2 DUP2 PUSH2 0x1EDD JUMP JUMPDEST DUP3 MSTORE POP POP JUMP JUMPDEST PUSH0 PUSH1 0x20 DUP3 ADD SWAP1 POP PUSH2 0x1F0B PUSH0 DUP4 ADD DUP5 PUSH2 0x1EE9 JUMP JUMPDEST SWAP3 SWAP2 POP POP JUMP JUMPDEST PUSH0 DUP2 SWAP1 POP SWAP2 SWAP1 POP JUMP JUMPDEST PUSH2 0x1F23 DUP2 PUSH2 0x1F11 JUMP JUMPDEST DUP3 MSTORE POP POP JUMP JUMPDEST PUSH0 PUSH1 0x20 DUP3 ADD SWAP1 POP PUSH2 0x1F3C PUSH0 DUP4 ADD DUP5 PUSH2 0x1F1A JUMP JUMPDEST SWAP3 SWAP2 POP POP JUMP JUMPDEST PUSH0 DUP2 SWAP1 POP SWAP2 SWAP1 POP JUMP JUMPDEST PUSH0 PUSH2 0x1F65 PUSH2 0x1F60 PUSH2 0x1F5B DUP5 PUSH2 0x1DC2 JUMP JUMPDEST PUSH2 0x1F42 JUMP JUMPDEST PUSH2 0x1DC2 JUMP JUMPDEST SWAP1 POP SWAP2 SWAP1 POP JUMP JUMPDEST PUSH0 PUSH2 0x1F76 DUP3 PUSH2 0x1F4B JUMP JUMPDEST SWAP1 POP SWAP2 SWAP1 POP JUMP JUMPDEST PUSH0 PUSH2 0x1F87 DUP3 PUSH2 0x1F6C JUMP JUMPDEST SWAP1 POP SWAP2 SWAP1 POP JUMP JUMPDEST PUSH2 0x1F97 DUP2 PUSH2 0x1F7D JUMP JUMPDEST DUP3 MSTORE POP POP JUMP JUMPDEST PUSH0 PUSH1 0x20 DUP3 ADD SWAP1 POP PUSH2 0x1FB0 PUSH0 DUP4 ADD DUP5 PUSH2 0x1F8E JUMP JUMPDEST SWAP3 SWAP2 POP POP JUMP JUMPDEST PUSH0 PUSH1 0x20 DUP3 DUP5 SUB SLT ISZERO PUSH2 0x1FCB JUMPI PUSH2 0x1FCA PUSH2 0x1D69 JUMP JUMPDEST JUMPDEST PUSH0 PUSH2 0x1FD8 DUP5 DUP3 DUP6 ADD PUSH2 0x1E08 JUMP JUMPDEST SWAP2 POP POP SWAP3 SWAP2 POP POP JUMP JUMPDEST PUSH0 PUSH0 PUSH1 0x40 DUP4 DUP6 SUB SLT ISZERO PUSH2 0x1FF7 JUMPI PUSH2 0x1FF6 PUSH2 0x1D69 JUMP JUMPDEST JUMPDEST PUSH0 PUSH2 0x2004 DUP6 DUP3 DUP7 ADD PUSH2 0x1D83 JUMP JUMPDEST SWAP3 POP POP PUSH1 0x20 PUSH2 0x2015 DUP6 DUP3 DUP7 ADD PUSH2 0x1E08 JUMP JUMPDEST SWAP2 POP POP SWAP3 POP SWAP3 SWAP1 POP JUMP JUMPDEST PUSH0 PUSH0 PUSH0 PUSH1 0x60 DUP5 DUP7 SUB SLT ISZERO PUSH2 0x2036 JUMPI PUSH2 0x2035 PUSH2 0x1D69 JUMP JUMPDEST JUMPDEST PUSH0 PUSH2 0x2043 DUP7 DUP3 DUP8 ADD PUSH2 0x1D83 JUMP JUMPDEST SWAP4 POP POP PUSH1 0x20 PUSH2 0x2054 DUP7 DUP3 DUP8 ADD PUSH2 0x1E08 JUMP JUMPDEST SWAP3 POP POP PUSH1 0x40 PUSH2 0x2065 DUP7 DUP3 DUP8 ADD PUSH2 0x1E08 JUMP JUMPDEST SWAP2 POP POP SWAP3 POP SWAP3 POP SWAP3 JUMP JUMPDEST PUSH2 0x2078 DUP2 PUSH2 0x1EDD JUMP JUMPDEST DUP2 EQ PUSH2 0x2082 JUMPI PUSH0 PUSH0 REVERT JUMPDEST POP JUMP JUMPDEST PUSH0 DUP2 CALLDATALOAD SWAP1 POP PUSH2 0x2093 DUP2 PUSH2 0x206F JUMP JUMPDEST SWAP3 SWAP2 POP POP JUMP JUMPDEST PUSH2 0x20A2 DUP2 PUSH2 0x1F11 JUMP JUMPDEST DUP2 EQ PUSH2 0x20AC JUMPI PUSH0 PUSH0 REVERT JUMPDEST POP JUMP JUMPDEST PUSH0 DUP2 CALLDATALOAD SWAP1 POP PUSH2 0x20BD DUP2 PUSH2 0x2099 JUMP JUMPDEST SWAP3 SWAP2 POP POP JUMP JUMPDEST PUSH0 PUSH0 PUSH0 PUSH0 PUSH0 PUSH0 PUSH0 PUSH1 0xE0 DUP9 DUP11 SUB SLT ISZERO PUSH2 0x20DE JUMPI PUSH2 0x20DD PUSH2 0x1D69 JUMP JUMPDEST JUMPDEST PUSH0 PUSH2 0x20EB DUP11 DUP3 DUP12 ADD PUSH2 0x1E08 JUMP JUMPDEST SWAP8 POP POP PUSH1 0x20 PUSH2 0x20FC DUP11 DUP3 DUP12 ADD PUSH2 0x1E08 JUMP JUMPDEST SWAP7 POP POP PUSH1 0x40 PUSH2 0x210D DUP11 DUP3 DUP12 ADD PUSH2 0x1D83 JUMP JUMPDEST SWAP6 POP POP PUSH1 0x60 PUSH2 0x211E DUP11 DUP3 DUP12 ADD PUSH2 0x1D83 JUMP JUMPDEST SWAP5 POP POP PUSH1 0x80 PUSH2 0x212F DUP11 DUP3 DUP12 ADD PUSH2 0x2085 JUMP JUMPDEST SWAP4 POP POP PUSH1 0xA0 PUSH2 0x2140 DUP11 DUP3 DUP12 ADD PUSH2 0x20AF JUMP JUMPDEST SWAP3 POP POP PUSH1 0xC0 PUSH2 0x2151 DUP11 DUP3 DUP12 ADD PUSH2 0x20AF JUMP JUMPDEST SWAP2 POP POP SWAP3 SWAP6 SWAP9 SWAP2 SWAP5 SWAP8 POP SWAP3 SWAP6 POP JUMP JUMPDEST PUSH0 PUSH0 PUSH1 0x40 DUP4 DUP6 SUB SLT ISZERO PUSH2 0x2176 JUMPI PUSH2 0x2175 PUSH2 0x1D69 JUMP JUMPDEST JUMPDEST PUSH0 PUSH2 0x2183 DUP6 DUP3 DUP7 ADD PUSH2 0x1E08 JUMP JUMPDEST SWAP3 POP POP PUSH1 0x20 PUSH2 0x2194 DUP6 DUP3 DUP7 ADD PUSH2 0x1E08 JUMP JUMPDEST SWAP2 POP POP SWAP3 POP SWAP3 SWAP1 POP JUMP JUMPDEST PUSH32 0x4E487B7100000000000000000000000000000000000000000000000000000000 PUSH0 MSTORE PUSH1 0x22 PUSH1 0x4 MSTORE PUSH1 0x24 PUSH0 REVERT JUMPDEST PUSH0 PUSH1 0x2 DUP3 DIV SWAP1 POP PUSH1 0x1 DUP3 AND DUP1 PUSH2 0x21E2 JUMPI PUSH1 0x7F DUP3 AND SWAP2 POP JUMPDEST PUSH1 0x20 DUP3 LT DUP2 SUB PUSH2 0x21F5 JUMPI PUSH2 0x21F4 PUSH2 0x219E JUMP JUMPDEST JUMPDEST POP SWAP2 SWAP1 POP JUMP JUMPDEST PUSH32 0x4E487B7100000000000000000000000000000000000000000000000000000000 PUSH0 MSTORE PUSH1 0x11 PUSH1 0x4 MSTORE PUSH1 0x24 PUSH0 REVERT JUMPDEST PUSH0 PUSH2 0x2232 DUP3 PUSH2 0x1CA8 JUMP JUMPDEST SWAP2 POP PUSH2 0x223D DUP4 PUSH2 0x1CA8 JUMP JUMPDEST SWAP3 POP DUP3 DUP3 SUB SWAP1 POP DUP2 DUP2 GT ISZERO PUSH2 0x2255 JUMPI PUSH2 0x2254 PUSH2 0x21FB JUMP JUMPDEST JUMPDEST SWAP3 SWAP2 POP POP JUMP JUMPDEST PUSH32 0x5A45524F5F534841524553000000000000000000000000000000000000000000 PUSH0 DUP3 ADD MSTORE POP JUMP JUMPDEST PUSH0 PUSH2 0x228F PUSH1 0xB DUP4 PUSH2 0x1CE3 JUMP JUMPDEST SWAP2 POP PUSH2 0x229A DUP3 PUSH2 0x225B JUMP JUMPDEST PUSH1 0x20 DUP3 ADD SWAP1 POP SWAP2 SWAP1 POP JUMP JUMPDEST PUSH0 PUSH1 0x20 DUP3 ADD SWAP1 POP DUP2 DUP2 SUB PUSH0 DUP4 ADD MSTORE PUSH2 0x22BC DUP2 PUSH2 0x2283 JUMP JUMPDEST SWAP1 POP SWAP2 SWAP1 POP JUMP JUMPDEST PUSH0 PUSH1 0x40 DUP3 ADD SWAP1 POP PUSH2 0x22D6 PUSH0 DUP4 ADD DUP6 PUSH2 0x1CB1 JUMP JUMPDEST PUSH2 0x22E3 PUSH1 0x20 DUP4 ADD DUP5 PUSH2 0x1CB1 JUMP JUMPDEST SWAP4 SWAP3 POP POP POP JUMP JUMPDEST PUSH32 0x5A45524F5F415353455453000000000000000000000000000000000000000000 PUSH0 DUP3 ADD MSTORE POP JUMP JUMPDEST PUSH0 PUSH2 0x231E PUSH1 0xB DUP4 PUSH2 0x1CE3 JUMP JUMPDEST SWAP2 POP PUSH2 0x2329 DUP3 PUSH2 0x22EA JUMP JUMPDEST PUSH1 0x20 DUP3 ADD SWAP1 POP SWAP2 SWAP1 POP JUMP JUMPDEST PUSH0 PUSH1 0x20 DUP3 ADD SWAP1 POP DUP2 DUP2 SUB PUSH0 DUP4 ADD MSTORE PUSH2 0x234B DUP2 PUSH2 0x2312 JUMP JUMPDEST SWAP1 POP SWAP2 SWAP1 POP JUMP JUMPDEST PUSH32 0x5045524D49545F444541444C494E455F45585049524544000000000000000000 PUSH0 DUP3 ADD MSTORE POP JUMP JUMPDEST PUSH0 PUSH2 0x2386 PUSH1 0x17 DUP4 PUSH2 0x1CE3 JUMP JUMPDEST SWAP2 POP PUSH2 0x2391 DUP3 PUSH2 0x2352 JUMP JUMPDEST PUSH1 0x20 DUP3 ADD SWAP1 POP SWAP2 SWAP1 POP JUMP JUMPDEST PUSH0 PUSH1 0x20 DUP3 ADD SWAP1 POP DUP2 DUP2 SUB PUSH0 DUP4 ADD MSTORE PUSH2 0x23B3 DUP2 PUSH2 0x237A JUMP JUMPDEST SWAP1 POP SWAP2 SWAP1 POP JUMP JUMPDEST PUSH2 0x23C3 DUP2 PUSH2 0x1DE1 JUMP JUMPDEST DUP3 MSTORE POP POP JUMP JUMPDEST PUSH0 PUSH1 0xC0 DUP3 ADD SWAP1 POP PUSH2 0x23DC PUSH0 DUP4 ADD DUP10 PUSH2 0x1F1A JUMP JUMPDEST PUSH2 0x23E9 PUSH1 0x20 DUP4 ADD DUP9 PUSH2 0x23BA JUMP JUMPDEST PUSH2 0x23F6 PUSH1 0x40 DUP4 ADD DUP8 PUSH2 0x23BA JUMP JUMPDEST PUSH2 0x2403 PUSH1 0x60 DUP4 ADD DUP7 PUSH2 0x1CB1 JUMP JUMPDEST PUSH2 0x2410 PUSH1 0x80 DUP4 ADD DUP6 PUSH2 0x1CB1 JUMP JUMPDEST PUSH2 0x241D PUSH1 0xA0 DUP4 ADD DUP5 PUSH2 0x1CB1 JUMP JUMPDEST SWAP8 SWAP7 POP POP POP POP POP POP POP JUMP JUMPDEST PUSH0 DUP2 SWAP1 POP SWAP3 SWAP2 POP POP JUMP JUMPDEST PUSH32 0x1901000000000000000000000000000000000000000000000000000000000000 PUSH0 DUP3 ADD MSTORE POP JUMP JUMPDEST PUSH0 PUSH2 0x2466 PUSH1 0x2 DUP4 PUSH2 0x2428 JUMP JUMPDEST SWAP2 POP PUSH2 0x2471 DUP3 PUSH2 0x2432 JUMP JUMPDEST PUSH1 0x2 DUP3 ADD SWAP1 POP SWAP2 SWAP1 POP JUMP JUMPDEST PUSH0 DUP2 SWAP1 POP SWAP2 SWAP1 POP JUMP JUMPDEST PUSH2 0x2496 PUSH2 0x2491 DUP3 PUSH2 0x1F11 JUMP JUMPDEST PUSH2 0x247C JUMP JUMPDEST DUP3 MSTORE POP POP JUMP JUMPDEST PUSH0 PUSH2 0x24A6 DUP3 PUSH2 0x245A JUMP JUMPDEST SWAP2 POP PUSH2 0x24B2 DUP3 DUP6 PUSH2 0x2485 JUMP JUMPDEST PUSH1 0x20 DUP3 ADD SWAP2 POP PUSH2 0x24C2 DUP3 DUP5 PUSH2 0x2485 JUMP JUMPDEST PUSH1 0x20 DUP3 ADD SWAP2 POP DUP2 SWAP1 POP SWAP4 SWAP3 POP POP POP JUMP JUMPDEST PUSH0 PUSH1 0x80 DUP3 ADD SWAP1 POP PUSH2 0x24E5 PUSH0 DUP4 ADD DUP8 PUSH2 0x1F1A JUMP JUMPDEST PUSH2 0x24F2 PUSH1 0x20 DUP4 ADD DUP7 PUSH2 0x1EE9 JUMP JUMPDEST PUSH2 0x24FF PUSH1 0x40 DUP4 ADD DUP6 PUSH2 0x1F1A JUMP JUMPDEST PUSH2 0x250C PUSH1 0x60 DUP4 ADD DUP5 PUSH2 0x1F1A JUMP JUMPDEST SWAP6 SWAP5 POP POP POP POP POP JUMP JUMPDEST PUSH32 0x494E56414C49445F5349474E4552000000000000000000000000000000000000 PUSH0 DUP3 ADD MSTORE POP JUMP JUMPDEST PUSH0 PUSH2 0x2549 PUSH1 0xE DUP4 PUSH2 0x1CE3 JUMP JUMPDEST SWAP2 POP PUSH2 0x2554 DUP3 PUSH2 0x2515 JUMP JUMPDEST PUSH1 0x20 DUP3 ADD SWAP1 POP SWAP2 SWAP1 POP JUMP JUMPDEST PUSH0 PUSH1 0x20 DUP3 ADD SWAP1 POP DUP2 DUP2 SUB PUSH0 DUP4 ADD MSTORE PUSH2 0x2576 DUP2 PUSH2 0x253D JUMP JUMPDEST SWAP1 POP SWAP2 SWAP1 POP JUMP JUMPDEST PUSH0 DUP2 SWAP1 POP SWAP3 SWAP2 POP POP JUMP JUMPDEST PUSH0 DUP2 SWAP1 POP DUP2 PUSH0 MSTORE PUSH1 0x20 PUSH0 KECCAK256 SWAP1 POP SWAP2 SWAP1 POP JUMP JUMPDEST PUSH0 DUP2 SLOAD PUSH2 0x25A5 DUP2 PUSH2 0x21CB JUMP JUMPDEST PUSH2 0x25AF DUP2 DUP7 PUSH2 0x257D JUMP JUMPDEST SWAP5 POP PUSH1 0x1 DUP3 AND PUSH0 DUP2 EQ PUSH2 0x25C9 JUMPI PUSH1 0x1 DUP2 EQ PUSH2 0x25DE JUMPI PUSH2 0x2610 JUMP JUMPDEST PUSH1 0xFF NOT DUP4 AND DUP7 MSTORE DUP2 ISZERO ISZERO DUP3 MUL DUP7 ADD SWAP4 POP PUSH2 0x2610 JUMP JUMPDEST PUSH2 0x25E7 DUP6 PUSH2 0x2587 JUMP JUMPDEST PUSH0 JUMPDEST DUP4 DUP2 LT ISZERO PUSH2 0x2608 JUMPI DUP2 SLOAD DUP2 DUP10 ADD MSTORE PUSH1 0x1 DUP3 ADD SWAP2 POP PUSH1 0x20 DUP2 ADD SWAP1 POP PUSH2 0x25E9 JUMP JUMPDEST DUP4 DUP9 ADD SWAP6 POP POP POP JUMPDEST POP POP POP SWAP3 SWAP2 POP POP JUMP JUMPDEST PUSH0 PUSH2 0x2624 DUP3 DUP5 PUSH2 0x2599 JUMP JUMPDEST SWAP2 POP DUP2 SWAP1 POP SWAP3 SWAP2 POP POP JUMP JUMPDEST PUSH0 PUSH1 0xA0 DUP3 ADD SWAP1 POP PUSH2 0x2642 PUSH0 DUP4 ADD DUP9 PUSH2 0x1F1A JUMP JUMPDEST PUSH2 0x264F PUSH1 0x20 DUP4 ADD DUP8 PUSH2 0x1F1A JUMP JUMPDEST PUSH2 0x265C PUSH1 0x40 DUP4 ADD DUP7 PUSH2 0x1F1A JUMP JUMPDEST PUSH2 0x2669 PUSH1 0x60 DUP4 ADD DUP6 PUSH2 0x1CB1 JUMP JUMPDEST PUSH2 0x2676 PUSH1 0x80 DUP4 ADD DUP5 PUSH2 0x23BA JUMP JUMPDEST SWAP7 SWAP6 POP POP POP POP POP POP JUMP JUMPDEST PUSH32 0x5452414E534645525F46524F4D5F4641494C4544000000000000000000000000 PUSH0 DUP3 ADD MSTORE POP JUMP JUMPDEST PUSH0 PUSH2 0x26B4 PUSH1 0x14 DUP4 PUSH2 0x1CE3 JUMP JUMPDEST SWAP2 POP PUSH2 0x26BF DUP3 PUSH2 0x2680 JUMP JUMPDEST PUSH1 0x20 DUP3 ADD SWAP1 POP SWAP2 SWAP1 POP JUMP JUMPDEST PUSH0 PUSH1 0x20 DUP3 ADD SWAP1 POP DUP2 DUP2 SUB PUSH0 DUP4 ADD MSTORE PUSH2 0x26E1 DUP2 PUSH2 0x26A8 JUMP JUMPDEST SWAP1 POP SWAP2 SWAP1 POP JUMP JUMPDEST PUSH0 PUSH2 0x26F2 DUP3 PUSH2 0x1CA8 JUMP JUMPDEST SWAP2 POP PUSH2 0x26FD DUP4 PUSH2 0x1CA8 JUMP JUMPDEST SWAP3 POP DUP3 DUP3 ADD SWAP1 POP DUP1 DUP3 GT ISZERO PUSH2 0x2715 JUMPI PUSH2 0x2714 PUSH2 0x21FB JUMP JUMPDEST JUMPDEST SWAP3 SWAP2 POP POP JUMP JUMPDEST PUSH32 0x5452414E534645525F4641494C45440000000000000000000000000000000000 PUSH0 DUP3 ADD MSTORE POP JUMP JUMPDEST PUSH0 PUSH2 0x274F PUSH1 0xF DUP4 PUSH2 0x1CE3 JUMP JUMPDEST SWAP2 POP PUSH2 0x275A DUP3 PUSH2 0x271B JUMP JUMPDEST PUSH1 0x20 DUP3 ADD SWAP1 POP SWAP2 SWAP1 POP JUMP JUMPDEST PUSH0 PUSH1 0x20 DUP3 ADD SWAP1 POP DUP2 DUP2 SUB PUSH0 DUP4 ADD MSTORE PUSH2 0x277C DUP2 PUSH2 0x2743 JUMP JUMPDEST SWAP1 POP SWAP2 SWAP1 POP JUMP INVALID LOG2 PUSH5 0x6970667358 0x22 SLT KECCAK256 BLOBHASH DUP1 0xCE 0xEB 0xCE 0xA5 0xA7 PUSH19 0xF8074463D845FE0AC18C14FAB48EAAD84BDAEA PUSH32 0x30C0767B64736F6C634300081E00330000000000000000000000000000000000 "
				},
				"gasEstimates": {
					"creation": {
						"codeDepositCost": "2033800",
						"executionCost": "infinite",
						"totalCost": "infinite"
					},
					"external": {
						"DOMAIN_SEPARATOR()": "infinite",
						"allowance(address,address)": "infinite",
						"approve(address,uint256)": "infinite",
						"asset()": "infinite",
						"balanceOf(address)": "2913",
						"convertToAssets(uint256)": "infinite",
						"convertToShares(uint256)": "infinite",
						"decimals()": "infinite",
						"deposit(uint256,address)": "infinite",
						"maxDeposit(address)": "686",
						"maxMint(address)": "686",
						"maxRedeem(address)": "2895",
						"maxWithdraw(address)": "infinite",
						"mint(uint256,address)": "infinite",
						"name()": "infinite",
						"nonces(address)": "2848",
						"permit(address,address,uint256,uint256,uint8,bytes32,bytes32)": "infinite",
						"previewDeposit(uint256)": "infinite",
						"previewMint(uint256)": "infinite",
						"previewRedeem(uint256)": "infinite",
						"previewWithdraw(uint256)": "infinite",
						"redeem(uint256,address,address)": "infinite",
						"symbol()": "infinite",
						"totalAssets()": "371",
						"totalSupply()": "2515",
						"transfer(address,uint256)": "infinite",
						"transferFrom(address,address,uint256)": "infinite",
						"withdraw(uint256,address,address)": "infinite"
					}
				},
				"methodIdentifiers": {
					"DOMAIN_SEPARATOR()": "3644e515",
					"allowance(address,address)": "dd62ed3e",
					"approve(address,uint256)": "095ea7b3",
					"asset()": "38d52e0f",
					"balanceOf(address)": "70a08231",
					"convertToAssets(uint256)": "07a2d13a",
					"convertToShares(uint256)": "c6e6f592",
					"decimals()": "313ce567",
					"deposit(uint256,address)": "6e553f65",
					"maxDeposit(address)": "402d267d",
					"maxMint(address)": "c63d75b6",
					"maxRedeem(address)": "d905777e",
					"maxWithdraw(address)": "ce96cb77",
					"mint(uint256,address)": "94bf804d",
					"name()": "06fdde03",
					"nonces(address)": "7ecebe00",
					"permit(address,address,uint256,uint256,uint8,bytes32,bytes32)": "d505accf",
					"previewDeposit(uint256)": "ef8b30f7",
					"previewMint(uint256)": "b3d7f6b9",
					"previewRedeem(uint256)": "4cdad506",
					"previewWithdraw(uint256)": "0a28a477",
					"redeem(uint256,address,address)": "ba087652",
					"symbol()": "95d89b41",
					"totalAssets()": "01e1d114",
					"totalSupply()": "18160ddd",
					"transfer(address,uint256)": "a9059cbb",
					"transferFrom(address,address,uint256)": "23b872dd",
					"withdraw(uint256,address,address)": "b460af94"
				}
			},
			"storageLayout": {
				"storage": [
					{
						"astId": 49,
						"contract": "contracts/Vault/TokenVault.sol:TokenVault",
						"label": "name",
						"offset": 0,
						"slot": "0",
						"type": "t_string_storage"
					},
					{
						"astId": 51,
						"contract": "contracts/Vault/TokenVault.sol:TokenVault",
						"label": "symbol",
						"offset": 0,
						"slot": "1",
						"type": "t_string_storage"
					},
					{
						"astId": 55,
						"contract": "contracts/Vault/TokenVault.sol:TokenVault",
						"label": "totalSupply",
						"offset": 0,
						"slot": "2",
						"type": "t_uint256"
					},
					{
						"astId": 59,
						"contract": "contracts/Vault/TokenVault.sol:TokenVault",
						"label": "balanceOf",
						"offset": 0,
						"slot": "3",
						"type": "t_mapping(t_address,t_uint256)"
					},
					{
						"astId": 65,
						"contract": "contracts/Vault/TokenVault.sol:TokenVault",
						"label": "allowance",
						"offset": 0,
						"slot": "4",
						"type": "t_mapping(t_address,t_mapping(t_address,t_uint256))"
					},
					{
						"astId": 73,
						"contract": "contracts/Vault/TokenVault.sol:TokenVault",
						"label": "nonces",
						"offset": 0,
						"slot": "5",
						"type": "t_mapping(t_address,t_uint256)"
					}
				],
				"types": {
					"t_address": {
						"encoding": "inplace",
						"label": "address",
						"numberOfBytes": "20"
					},
					"t_mapping(t_address,t_mapping(t_address,t_uint256))": {
						"encoding": "mapping",
						"key": "t_address",
						"label": "mapping(address => mapping(address => uint256))",
						"numberOfBytes": "32",
						"value": "t_mapping(t_address,t_uint256)"
					},
					"t_mapping(t_address,t_uint256)": {
						"encoding": "mapping",
						"key": "t_address",
						"label": "mapping(address => uint256)",
						"numberOfBytes": "32",
						"value": "t_uint256"
					},
					"t_string_storage": {
						"encoding": "bytes",
						"label": "string",
						"numberOfBytes": "32"
					},
					"t_uint256": {
						"encoding": "inplace",
						"label": "uint256",
						"numberOfBytes": "32"
					}
				}
			},
			"userdoc": {
				"kind": "user",
				"methods": {},
				"version": 1
			}
		}
	}
}