{
	"contracts/base/InterfaceTest.sol": {
		"CallCounter": {
			"abi": [
				{
					"inputs": [
						{
							"internalType": "contract ICounter",
							"name": "_c",
							"type": "address"
						}
					],
					"stateMutability": "nonpayable",
					"type": "constructor"
				},
				{
					"inputs": [],
					"name": "c",
					"outputs": [
						{
							"internalType": "contract ICounter",
							"name": "",
							"type": "address"
						}
					],
					"stateMutability": "view",
					"type": "function"
				},
				{
					"inputs": [],
					"name": "incrementCounter",
					"outputs": [],
					"stateMutability": "nonpayable",
					"type": "function"
				},
				{
					"inputs": [],
					"name": "updateCount",
					"outputs": [],
					"stateMutability": "view",
					"type": "function"
				}
			],
			"devdoc": {
				"kind": "dev",
				"methods": {},
				"version": 1
			},
			"evm": {
				"assembly": "    /* \"contracts/base/InterfaceTest.sol\":406:673  contract CallCounter {\r... */\n  mstore(0x40, 0xa0)\n    /* \"contracts/base/InterfaceTest.sol\":471:521  constructor(ICounter _c) {\r... */\n  callvalue\n  dup1\n  iszero\n  tag_1\n  jumpi\n  0x00\n  dup1\n  revert\ntag_1:\n  pop\n  mload(0x40)\n  sub(codesize, bytecodeSize)\n  dup1\n  bytecodeSize\n  dup4\n  codecopy\n  dup2\n  dup2\n  add\n  0x40\n  mstore\n  dup2\n  add\n  swap1\n  tag_2\n  swap2\n  swap1\n  tag_3\n  jump\t// in\ntag_2:\n    /* \"contracts/base/InterfaceTest.sol\":511:513  _c */\n  dup1\n    /* \"contracts/base/InterfaceTest.sol\":507:513  c = _c */\n  0xffffffffffffffffffffffffffffffffffffffff\n  and\n  0x80\n  dup2\n  0xffffffffffffffffffffffffffffffffffffffff\n  and\n  0x60\n  shl\n  dup2\n  mstore\n  pop\n  pop\n    /* \"contracts/base/InterfaceTest.sol\":471:521  constructor(ICounter _c) {\r... */\n  pop\n    /* \"contracts/base/InterfaceTest.sol\":406:673  contract CallCounter {\r... */\n  jump(tag_6)\n    /* \"#utility.yul\":7:180   */\ntag_8:\n    /* \"#utility.yul\":79:84   */\n  0x00\n    /* \"#utility.yul\":110:116   */\n  dup2\n    /* \"#utility.yul\":104:117   */\n  mload\n    /* \"#utility.yul\":95:117   */\n  swap1\n  pop\n    /* \"#utility.yul\":126:174   */\n  tag_10\n    /* \"#utility.yul\":168:173   */\n  dup2\n    /* \"#utility.yul\":126:174   */\n  tag_11\n  jump\t// in\ntag_10:\n    /* \"#utility.yul\":85:180   */\n  swap3\n  swap2\n  pop\n  pop\n  jump\t// out\n    /* \"#utility.yul\":186:500   */\ntag_3:\n    /* \"#utility.yul\":271:277   */\n  0x00\n    /* \"#utility.yul\":320:322   */\n  0x20\n    /* \"#utility.yul\":308:317   */\n  dup3\n    /* \"#utility.yul\":299:306   */\n  dup5\n    /* \"#utility.yul\":295:318   */\n  sub\n    /* \"#utility.yul\":291:323   */\n  slt\n    /* \"#utility.yul\":288:290   */\n  iszero\n  tag_13\n  jumpi\n    /* \"#utility.yul\":336:337   */\n  0x00\n    /* \"#utility.yul\":333:334   */\n  dup1\n    /* \"#utility.yul\":326:338   */\n  revert\n    /* \"#utility.yul\":288:290   */\ntag_13:\n    /* \"#utility.yul\":379:380   */\n  0x00\n    /* \"#utility.yul\":404:483   */\n  tag_14\n    /* \"#utility.yul\":475:482   */\n  dup5\n    /* \"#utility.yul\":466:472   */\n  dup3\n    /* \"#utility.yul\":455:464   */\n  dup6\n    /* \"#utility.yul\":451:473   */\n  add\n    /* \"#utility.yul\":404:483   */\n  tag_8\n  jump\t// in\ntag_14:\n    /* \"#utility.yul\":394:483   */\n  swap2\n  pop\n    /* \"#utility.yul\":350:493   */\n  pop\n    /* \"#utility.yul\":278:500   */\n  swap3\n  swap2\n  pop\n  pop\n  jump\t// out\n    /* \"#utility.yul\":506:602   */\ntag_15:\n    /* \"#utility.yul\":543:550   */\n  0x00\n    /* \"#utility.yul\":572:596   */\n  tag_17\n    /* \"#utility.yul\":590:595   */\n  dup3\n    /* \"#utility.yul\":572:596   */\n  tag_18\n  jump\t// in\ntag_17:\n    /* \"#utility.yul\":561:596   */\n  swap1\n  pop\n    /* \"#utility.yul\":551:602   */\n  swap2\n  swap1\n  pop\n  jump\t// out\n    /* \"#utility.yul\":608:719   */\ntag_19:\n    /* \"#utility.yul\":660:667   */\n  0x00\n    /* \"#utility.yul\":689:713   */\n  tag_21\n    /* \"#utility.yul\":707:712   */\n  dup3\n    /* \"#utility.yul\":689:713   */\n  tag_15\n  jump\t// in\ntag_21:\n    /* \"#utility.yul\":678:713   */\n  swap1\n  pop\n    /* \"#utility.yul\":668:719   */\n  swap2\n  swap1\n  pop\n  jump\t// out\n    /* \"#utility.yul\":725:851   */\ntag_18:\n    /* \"#utility.yul\":762:769   */\n  0x00\n    /* \"#utility.yul\":802:844   */\n  0xffffffffffffffffffffffffffffffffffffffff\n    /* \"#utility.yul\":795:800   */\n  dup3\n    /* \"#utility.yul\":791:845   */\n  and\n    /* \"#utility.yul\":780:845   */\n  swap1\n  pop\n    /* \"#utility.yul\":770:851   */\n  swap2\n  swap1\n  pop\n  jump\t// out\n    /* \"#utility.yul\":857:1009   */\ntag_11:\n    /* \"#utility.yul\":945:984   */\n  tag_24\n    /* \"#utility.yul\":978:983   */\n  dup2\n    /* \"#utility.yul\":945:984   */\n  tag_19\n  jump\t// in\ntag_24:\n    /* \"#utility.yul\":938:943   */\n  dup2\n    /* \"#utility.yul\":935:985   */\n  eq\n    /* \"#utility.yul\":925:927   */\n  tag_25\n  jumpi\n    /* \"#utility.yul\":999:1000   */\n  0x00\n    /* \"#utility.yul\":996:997   */\n  dup1\n    /* \"#utility.yul\":989:1001   */\n  revert\n    /* \"#utility.yul\":925:927   */\ntag_25:\n    /* \"#utility.yul\":915:1009   */\n  pop\n  jump\t// out\n    /* \"contracts/base/InterfaceTest.sol\":406:673  contract CallCounter {\r... */\ntag_6:\n  shr(0x60, mload(0x80))\n  codecopy(0x00, dataOffset(sub_0), dataSize(sub_0))\n  0x00\n  assignImmutable(\"0x3b4066bd7b7960752225af105d3beafb5c47a26c5aae7e6798a437b7c0bb33e6\")\n  return(0x00, dataSize(sub_0))\nstop\n\nsub_0: assembly {\n        /* \"contracts/base/InterfaceTest.sol\":406:673  contract CallCounter {\r... */\n      mstore(0x40, 0x80)\n      callvalue\n      dup1\n      iszero\n      tag_1\n      jumpi\n      0x00\n      dup1\n      revert\n    tag_1:\n      pop\n      jumpi(tag_2, lt(calldatasize, 0x04))\n      shr(0xe0, calldataload(0x00))\n      dup1\n      0x5b34b966\n      eq\n      tag_3\n      jumpi\n      dup1\n      0x69b4ecc9\n      eq\n      tag_4\n      jumpi\n      dup1\n      0xc3da42b8\n      eq\n      tag_5\n      jumpi\n    tag_2:\n      0x00\n      dup1\n      revert\n        /* \"contracts/base/InterfaceTest.sol\":529:598  function incrementCounter() external {\r... */\n    tag_3:\n      tag_6\n      tag_7\n      jump\t// in\n    tag_6:\n      stop\n        /* \"contracts/base/InterfaceTest.sol\":606:670  function updateCount() external view{\r... */\n    tag_4:\n      tag_8\n      tag_9\n      jump\t// in\n    tag_8:\n      stop\n        /* \"contracts/base/InterfaceTest.sol\":434:462  ICounter public immutable  c */\n    tag_5:\n      tag_10\n      tag_11\n      jump\t// in\n    tag_10:\n      mload(0x40)\n      tag_12\n      swap2\n      swap1\n      tag_13\n      jump\t// in\n    tag_12:\n      mload(0x40)\n      dup1\n      swap2\n      sub\n      swap1\n      return\n        /* \"contracts/base/InterfaceTest.sol\":529:598  function incrementCounter() external {\r... */\n    tag_7:\n        /* \"contracts/base/InterfaceTest.sol\":577:578  c */\n      immutable(\"0x3b4066bd7b7960752225af105d3beafb5c47a26c5aae7e6798a437b7c0bb33e6\")\n        /* \"contracts/base/InterfaceTest.sol\":577:588  c.increment */\n      0xffffffffffffffffffffffffffffffffffffffff\n      and\n      0xd09de08a\n        /* \"contracts/base/InterfaceTest.sol\":577:590  c.increment() */\n      mload(0x40)\n      dup2\n      0xffffffff\n      and\n      0xe0\n      shl\n      dup2\n      mstore\n      0x04\n      add\n      0x00\n      mload(0x40)\n      dup1\n      dup4\n      sub\n      dup2\n      0x00\n      dup8\n      dup1\n      extcodesize\n      iszero\n      dup1\n      iszero\n      tag_15\n      jumpi\n      0x00\n      dup1\n      revert\n    tag_15:\n      pop\n      gas\n      call\n      iszero\n      dup1\n      iszero\n      tag_17\n      jumpi\n      returndatasize\n      0x00\n      dup1\n      returndatacopy\n      revert(0x00, returndatasize)\n    tag_17:\n      pop\n      pop\n      pop\n      pop\n        /* \"contracts/base/InterfaceTest.sol\":529:598  function incrementCounter() external {\r... */\n      jump\t// out\n        /* \"contracts/base/InterfaceTest.sol\":606:670  function updateCount() external view{\r... */\n    tag_9:\n        /* \"contracts/base/InterfaceTest.sol\":653:654  c */\n      immutable(\"0x3b4066bd7b7960752225af105d3beafb5c47a26c5aae7e6798a437b7c0bb33e6\")\n        /* \"contracts/base/InterfaceTest.sol\":653:660  c.count */\n      0xffffffffffffffffffffffffffffffffffffffff\n      and\n      0x06661abd\n        /* \"contracts/base/InterfaceTest.sol\":653:662  c.count() */\n      mload(0x40)\n      dup2\n      0xffffffff\n      and\n      0xe0\n      shl\n      dup2\n      mstore\n      0x04\n      add\n      0x20\n      mload(0x40)\n      dup1\n      dup4\n      sub\n      dup2\n      dup7\n      dup1\n      extcodesize\n      iszero\n      dup1\n      iszero\n      tag_19\n      jumpi\n      0x00\n      dup1\n      revert\n    tag_19:\n      pop\n      gas\n      staticcall\n      iszero\n      dup1\n      iszero\n      tag_21\n      jumpi\n      returndatasize\n      0x00\n      dup1\n      returndatacopy\n      revert(0x00, returndatasize)\n    tag_21:\n      pop\n      pop\n      pop\n      pop\n      mload(0x40)\n      returndatasize\n      not(0x1f)\n      0x1f\n      dup3\n      add\n      and\n      dup3\n      add\n      dup1\n      0x40\n      mstore\n      pop\n      dup2\n      add\n      swap1\n      tag_22\n      swap2\n      swap1\n      tag_23\n      jump\t// in\n    tag_22:\n      pop\n        /* \"contracts/base/InterfaceTest.sol\":606:670  function updateCount() external view{\r... */\n      jump\t// out\n        /* \"contracts/base/InterfaceTest.sol\":434:462  ICounter public immutable  c */\n    tag_11:\n      immutable(\"0x3b4066bd7b7960752225af105d3beafb5c47a26c5aae7e6798a437b7c0bb33e6\")\n      dup2\n      jump\t// out\n        /* \"#utility.yul\":7:150   */\n    tag_25:\n        /* \"#utility.yul\":64:69   */\n      0x00\n        /* \"#utility.yul\":95:101   */\n      dup2\n        /* \"#utility.yul\":89:102   */\n      mload\n        /* \"#utility.yul\":80:102   */\n      swap1\n      pop\n        /* \"#utility.yul\":111:144   */\n      tag_27\n        /* \"#utility.yul\":138:143   */\n      dup2\n        /* \"#utility.yul\":111:144   */\n      tag_28\n      jump\t// in\n    tag_27:\n        /* \"#utility.yul\":70:150   */\n      swap3\n      swap2\n      pop\n      pop\n      jump\t// out\n        /* \"#utility.yul\":156:440   */\n    tag_23:\n        /* \"#utility.yul\":226:232   */\n      0x00\n        /* \"#utility.yul\":275:277   */\n      0x20\n        /* \"#utility.yul\":263:272   */\n      dup3\n        /* \"#utility.yul\":254:261   */\n      dup5\n        /* \"#utility.yul\":250:273   */\n      sub\n        /* \"#utility.yul\":246:278   */\n      slt\n        /* \"#utility.yul\":243:245   */\n      iszero\n      tag_30\n      jumpi\n        /* \"#utility.yul\":291:292   */\n      0x00\n        /* \"#utility.yul\":288:289   */\n      dup1\n        /* \"#utility.yul\":281:293   */\n      revert\n        /* \"#utility.yul\":243:245   */\n    tag_30:\n        /* \"#utility.yul\":334:335   */\n      0x00\n        /* \"#utility.yul\":359:423   */\n      tag_31\n        /* \"#utility.yul\":415:422   */\n      dup5\n        /* \"#utility.yul\":406:412   */\n      dup3\n        /* \"#utility.yul\":395:404   */\n      dup6\n        /* \"#utility.yul\":391:413   */\n      add\n        /* \"#utility.yul\":359:423   */\n      tag_25\n      jump\t// in\n    tag_31:\n        /* \"#utility.yul\":349:423   */\n      swap2\n      pop\n        /* \"#utility.yul\":305:433   */\n      pop\n        /* \"#utility.yul\":233:440   */\n      swap3\n      swap2\n      pop\n      pop\n      jump\t// out\n        /* \"#utility.yul\":446:607   */\n    tag_32:\n        /* \"#utility.yul\":548:600   */\n      tag_34\n        /* \"#utility.yul\":594:599   */\n      dup2\n        /* \"#utility.yul\":548:600   */\n      tag_35\n      jump\t// in\n    tag_34:\n        /* \"#utility.yul\":543:546   */\n      dup3\n        /* \"#utility.yul\":536:601   */\n      mstore\n        /* \"#utility.yul\":526:607   */\n      pop\n      pop\n      jump\t// out\n        /* \"#utility.yul\":613:865   */\n    tag_13:\n        /* \"#utility.yul\":721:725   */\n      0x00\n        /* \"#utility.yul\":759:761   */\n      0x20\n        /* \"#utility.yul\":748:757   */\n      dup3\n        /* \"#utility.yul\":744:762   */\n      add\n        /* \"#utility.yul\":736:762   */\n      swap1\n      pop\n        /* \"#utility.yul\":772:858   */\n      tag_37\n        /* \"#utility.yul\":855:856   */\n      0x00\n        /* \"#utility.yul\":844:853   */\n      dup4\n        /* \"#utility.yul\":840:857   */\n      add\n        /* \"#utility.yul\":831:837   */\n      dup5\n        /* \"#utility.yul\":772:858   */\n      tag_32\n      jump\t// in\n    tag_37:\n        /* \"#utility.yul\":726:865   */\n      swap3\n      swap2\n      pop\n      pop\n      jump\t// out\n        /* \"#utility.yul\":871:997   */\n    tag_38:\n        /* \"#utility.yul\":908:915   */\n      0x00\n        /* \"#utility.yul\":948:990   */\n      0xffffffffffffffffffffffffffffffffffffffff\n        /* \"#utility.yul\":941:946   */\n      dup3\n        /* \"#utility.yul\":937:991   */\n      and\n        /* \"#utility.yul\":926:991   */\n      swap1\n      pop\n        /* \"#utility.yul\":916:997   */\n      swap2\n      swap1\n      pop\n      jump\t// out\n        /* \"#utility.yul\":1003:1080   */\n    tag_40:\n        /* \"#utility.yul\":1040:1047   */\n      0x00\n        /* \"#utility.yul\":1069:1074   */\n      dup2\n        /* \"#utility.yul\":1058:1074   */\n      swap1\n      pop\n        /* \"#utility.yul\":1048:1080   */\n      swap2\n      swap1\n      pop\n      jump\t// out\n        /* \"#utility.yul\":1086:1242   */\n    tag_35:\n        /* \"#utility.yul\":1151:1160   */\n      0x00\n        /* \"#utility.yul\":1184:1236   */\n      tag_43\n        /* \"#utility.yul\":1230:1235   */\n      dup3\n        /* \"#utility.yul\":1184:1236   */\n      tag_44\n      jump\t// in\n    tag_43:\n        /* \"#utility.yul\":1171:1236   */\n      swap1\n      pop\n        /* \"#utility.yul\":1161:1242   */\n      swap2\n      swap1\n      pop\n      jump\t// out\n        /* \"#utility.yul\":1248:1376   */\n    tag_44:\n        /* \"#utility.yul\":1313:1322   */\n      0x00\n        /* \"#utility.yul\":1346:1370   */\n      tag_46\n        /* \"#utility.yul\":1364:1369   */\n      dup3\n        /* \"#utility.yul\":1346:1370   */\n      tag_38\n      jump\t// in\n    tag_46:\n        /* \"#utility.yul\":1333:1370   */\n      swap1\n      pop\n        /* \"#utility.yul\":1323:1376   */\n      swap2\n      swap1\n      pop\n      jump\t// out\n        /* \"#utility.yul\":1382:1504   */\n    tag_28:\n        /* \"#utility.yul\":1455:1479   */\n      tag_48\n        /* \"#utility.yul\":1473:1478   */\n      dup2\n        /* \"#utility.yul\":1455:1479   */\n      tag_40\n      jump\t// in\n    tag_48:\n        /* \"#utility.yul\":1448:1453   */\n      dup2\n        /* \"#utility.yul\":1445:1480   */\n      eq\n        /* \"#utility.yul\":1435:1437   */\n      tag_49\n      jumpi\n        /* \"#utility.yul\":1494:1495   */\n      0x00\n        /* \"#utility.yul\":1491:1492   */\n      dup1\n        /* \"#utility.yul\":1484:1496   */\n      revert\n        /* \"#utility.yul\":1435:1437   */\n    tag_49:\n        /* \"#utility.yul\":1425:1504   */\n      pop\n      jump\t// out\n\n    auxdata: 0xa264697066735822122031d01e016fbc7f10255f18c23c0c159e8194733b6fb55b38b9754324d396d84664736f6c63430008040033\n}\n",
				"bytecode": {
					"linkReferences": {},
					"object": "60a060405234801561001057600080fd5b506040516103f43803806103f483398181016040528101906100329190610084565b8073ffffffffffffffffffffffffffffffffffffffff1660808173ffffffffffffffffffffffffffffffffffffffff1660601b8152505050610108565b60008151905061007e816100f1565b92915050565b60006020828403121561009657600080fd5b60006100a48482850161006f565b91505092915050565b60006100b8826100d1565b9050919050565b60006100ca826100ad565b9050919050565b600073ffffffffffffffffffffffffffffffffffffffff82169050919050565b6100fa816100bf565b811461010557600080fd5b50565b60805160601c6102c261013260003960008181607a0152818160fc015261019d01526102c26000f3fe608060405234801561001057600080fd5b50600436106100415760003560e01c80635b34b9661461004657806369b4ecc914610050578063c3da42b81461005a575b600080fd5b61004e610078565b005b6100586100fa565b005b61006261019b565b60405161006f919061020c565b60405180910390f35b7f000000000000000000000000000000000000000000000000000000000000000073ffffffffffffffffffffffffffffffffffffffff1663d09de08a6040518163ffffffff1660e01b8152600401600060405180830381600087803b1580156100e057600080fd5b505af11580156100f4573d6000803e3d6000fd5b50505050565b7f000000000000000000000000000000000000000000000000000000000000000073ffffffffffffffffffffffffffffffffffffffff166306661abd6040518163ffffffff1660e01b815260040160206040518083038186803b15801561016057600080fd5b505afa158015610174573d6000803e3d6000fd5b505050506040513d601f19601f8201168201806040525081019061019891906101d4565b50565b7f000000000000000000000000000000000000000000000000000000000000000081565b6000815190506101ce81610275565b92915050565b6000602082840312156101e657600080fd5b60006101f4848285016101bf565b91505092915050565b61020681610251565b82525050565b600060208201905061022160008301846101fd565b92915050565b600073ffffffffffffffffffffffffffffffffffffffff82169050919050565b6000819050919050565b600061025c82610263565b9050919050565b600061026e82610227565b9050919050565b61027e81610247565b811461028957600080fd5b5056fea264697066735822122031d01e016fbc7f10255f18c23c0c159e8194733b6fb55b38b9754324d396d84664736f6c63430008040033",
					"opcodes": "PUSH1 0xA0 PUSH1 0x40 MSTORE CALLVALUE DUP1 ISZERO PUSH2 0x10 JUMPI PUSH1 0x0 DUP1 REVERT JUMPDEST POP PUSH1 0x40 MLOAD PUSH2 0x3F4 CODESIZE SUB DUP1 PUSH2 0x3F4 DUP4 CODECOPY DUP2 DUP2 ADD PUSH1 0x40 MSTORE DUP2 ADD SWAP1 PUSH2 0x32 SWAP2 SWAP1 PUSH2 0x84 JUMP JUMPDEST DUP1 PUSH20 0xFFFFFFFFFFFFFFFFFFFFFFFFFFFFFFFFFFFFFFFF AND PUSH1 0x80 DUP2 PUSH20 0xFFFFFFFFFFFFFFFFFFFFFFFFFFFFFFFFFFFFFFFF AND PUSH1 0x60 SHL DUP2 MSTORE POP POP POP PUSH2 0x108 JUMP JUMPDEST PUSH1 0x0 DUP2 MLOAD SWAP1 POP PUSH2 0x7E DUP2 PUSH2 0xF1 JUMP JUMPDEST SWAP3 SWAP2 POP POP JUMP JUMPDEST PUSH1 0x0 PUSH1 0x20 DUP3 DUP5 SUB SLT ISZERO PUSH2 0x96 JUMPI PUSH1 0x0 DUP1 REVERT JUMPDEST PUSH1 0x0 PUSH2 0xA4 DUP5 DUP3 DUP6 ADD PUSH2 0x6F JUMP JUMPDEST SWAP2 POP POP SWAP3 SWAP2 POP POP JUMP JUMPDEST PUSH1 0x0 PUSH2 0xB8 DUP3 PUSH2 0xD1 JUMP JUMPDEST SWAP1 POP SWAP2 SWAP1 POP JUMP JUMPDEST PUSH1 0x0 PUSH2 0xCA DUP3 PUSH2 0xAD JUMP JUMPDEST SWAP1 POP SWAP2 SWAP1 POP JUMP JUMPDEST PUSH1 0x0 PUSH20 0xFFFFFFFFFFFFFFFFFFFFFFFFFFFFFFFFFFFFFFFF DUP3 AND SWAP1 POP SWAP2 SWAP1 POP JUMP JUMPDEST PUSH2 0xFA DUP2 PUSH2 0xBF JUMP JUMPDEST DUP2 EQ PUSH2 0x105 JUMPI PUSH1 0x0 DUP1 REVERT JUMPDEST POP JUMP JUMPDEST PUSH1 0x80 MLOAD PUSH1 0x60 SHR PUSH2 0x2C2 PUSH2 0x132 PUSH1 0x0 CODECOPY PUSH1 0x0 DUP2 DUP2 PUSH1 0x7A ADD MSTORE DUP2 DUP2 PUSH1 0xFC ADD MSTORE PUSH2 0x19D ADD MSTORE PUSH2 0x2C2 PUSH1 0x0 RETURN INVALID PUSH1 0x80 PUSH1 0x40 MSTORE CALLVALUE DUP1 ISZERO PUSH2 0x10 JUMPI PUSH1 0x0 DUP1 REVERT JUMPDEST POP PUSH1 0x4 CALLDATASIZE LT PUSH2 0x41 JUMPI PUSH1 0x0 CALLDATALOAD PUSH1 0xE0 SHR DUP1 PUSH4 0x5B34B966 EQ PUSH2 0x46 JUMPI DUP1 PUSH4 0x69B4ECC9 EQ PUSH2 0x50 JUMPI DUP1 PUSH4 0xC3DA42B8 EQ PUSH2 0x5A JUMPI JUMPDEST PUSH1 0x0 DUP1 REVERT JUMPDEST PUSH2 0x4E PUSH2 0x78 JUMP JUMPDEST STOP JUMPDEST PUSH2 0x58 PUSH2 0xFA JUMP JUMPDEST STOP JUMPDEST PUSH2 0x62 PUSH2 0x19B JUMP JUMPDEST PUSH1 0x40 MLOAD PUSH2 0x6F SWAP2 SWAP1 PUSH2 0x20C JUMP JUMPDEST PUSH1 0x40 MLOAD DUP1 SWAP2 SUB SWAP1 RETURN JUMPDEST PUSH32 0x0 PUSH20 0xFFFFFFFFFFFFFFFFFFFFFFFFFFFFFFFFFFFFFFFF AND PUSH4 0xD09DE08A PUSH1 0x40 MLOAD DUP2 PUSH4 0xFFFFFFFF AND PUSH1 0xE0 SHL DUP2 MSTORE PUSH1 0x4 ADD PUSH1 0x0 PUSH1 0x40 MLOAD DUP1 DUP4 SUB DUP2 PUSH1 0x0 DUP8 DUP1 EXTCODESIZE ISZERO DUP1 ISZERO PUSH2 0xE0 JUMPI PUSH1 0x0 DUP1 REVERT JUMPDEST POP GAS CALL ISZERO DUP1 ISZERO PUSH2 0xF4 JUMPI RETURNDATASIZE PUSH1 0x0 DUP1 RETURNDATACOPY RETURNDATASIZE PUSH1 0x0 REVERT JUMPDEST POP POP POP POP JUMP JUMPDEST PUSH32 0x0 PUSH20 0xFFFFFFFFFFFFFFFFFFFFFFFFFFFFFFFFFFFFFFFF AND PUSH4 0x6661ABD PUSH1 0x40 MLOAD DUP2 PUSH4 0xFFFFFFFF AND PUSH1 0xE0 SHL DUP2 MSTORE PUSH1 0x4 ADD PUSH1 0x20 PUSH1 0x40 MLOAD DUP1 DUP4 SUB DUP2 DUP7 DUP1 EXTCODESIZE ISZERO DUP1 ISZERO PUSH2 0x160 JUMPI PUSH1 0x0 DUP1 REVERT JUMPDEST POP GAS STATICCALL ISZERO DUP1 ISZERO PUSH2 0x174 JUMPI RETURNDATASIZE PUSH1 0x0 DUP1 RETURNDATACOPY RETURNDATASIZE PUSH1 0x0 REVERT JUMPDEST POP POP POP POP PUSH1 0x40 MLOAD RETURNDATASIZE PUSH1 0x1F NOT PUSH1 0x1F DUP3 ADD AND DUP3 ADD DUP1 PUSH1 0x40 MSTORE POP DUP2 ADD SWAP1 PUSH2 0x198 SWAP2 SWAP1 PUSH2 0x1D4 JUMP JUMPDEST POP JUMP JUMPDEST PUSH32 0x0 DUP2 JUMP JUMPDEST PUSH1 0x0 DUP2 MLOAD SWAP1 POP PUSH2 0x1CE DUP2 PUSH2 0x275 JUMP JUMPDEST SWAP3 SWAP2 POP POP JUMP JUMPDEST PUSH1 0x0 PUSH1 0x20 DUP3 DUP5 SUB SLT ISZERO PUSH2 0x1E6 JUMPI PUSH1 0x0 DUP1 REVERT JUMPDEST PUSH1 0x0 PUSH2 0x1F4 DUP5 DUP3 DUP6 ADD PUSH2 0x1BF JUMP JUMPDEST SWAP2 POP POP SWAP3 SWAP2 POP POP JUMP JUMPDEST PUSH2 0x206 DUP2 PUSH2 0x251 JUMP JUMPDEST DUP3 MSTORE POP POP JUMP JUMPDEST PUSH1 0x0 PUSH1 0x20 DUP3 ADD SWAP1 POP PUSH2 0x221 PUSH1 0x0 DUP4 ADD DUP5 PUSH2 0x1FD JUMP JUMPDEST SWAP3 SWAP2 POP POP JUMP JUMPDEST PUSH1 0x0 PUSH20 0xFFFFFFFFFFFFFFFFFFFFFFFFFFFFFFFFFFFFFFFF DUP3 AND SWAP1 POP SWAP2 SWAP1 POP JUMP JUMPDEST PUSH1 0x0 DUP2 SWAP1 POP SWAP2 SWAP1 POP JUMP JUMPDEST PUSH1 0x0 PUSH2 0x25C DUP3 PUSH2 0x263 JUMP JUMPDEST SWAP1 POP SWAP2 SWAP1 POP JUMP JUMPDEST PUSH1 0x0 PUSH2 0x26E DUP3 PUSH2 0x227 JUMP JUMPDEST SWAP1 POP SWAP2 SWAP1 POP JUMP JUMPDEST PUSH2 0x27E DUP2 PUSH2 0x247 JUMP JUMPDEST DUP2 EQ PUSH2 0x289 JUMPI PUSH1 0x0 DUP1 REVERT JUMPDEST POP JUMP INVALID LOG2 PUSH5 0x6970667358 0x22 SLT KECCAK256 BALANCE 0xD0 0x1E ADD PUSH16 0xBC7F10255F18C23C0C159E8194733B6F 0xB5 JUMPDEST CODESIZE 0xB9 PUSH22 0x4324D396D84664736F6C634300080400330000000000 "
				},
				"gasEstimates": {
					"creation": {
						"codeDepositCost": "141200",
						"executionCost": "infinite",
						"totalCost": "infinite"
					},
					"external": {
						"c()": "infinite",
						"incrementCounter()": "infinite",
						"updateCount()": "infinite"
					}
				},
				"methodIdentifiers": {
					"c()": "c3da42b8",
					"incrementCounter()": "5b34b966",
					"updateCount()": "69b4ecc9"
				}
			},
			"storageLayout": {
				"storage": [],
				"types": null
			},
			"userdoc": {
				"kind": "user",
				"methods": {},
				"version": 1
			}
		}
	}
}