{
	"contracts/base/MessageStore.sol": {
		"MessageStore": {
			"abi": [
				{
					"inputs": [],
					"name": "getMessage",
					"outputs": [
						{
							"internalType": "string",
							"name": "",
							"type": "string"
						}
					],
					"stateMutability": "nonpayable",
					"type": "function"
				},
				{
					"inputs": [],
					"name": "message",
					"outputs": [
						{
							"internalType": "string",
							"name": "",
							"type": "string"
						}
					],
					"stateMutability": "view",
					"type": "function"
				},
				{
					"inputs": [
						{
							"internalType": "string",
							"name": "s",
							"type": "string"
						}
					],
					"name": "setMessage",
					"outputs": [],
					"stateMutability": "nonpayable",
					"type": "function"
				}
			],
			"devdoc": {
				"kind": "dev",
				"methods": {},
				"version": 1
			},
			"evm": {
				"assembly": "    /* \"contracts/base/MessageStore.sol\":520:757  contract MessageStore {\r... */\n  mstore(0x40, 0x80)\n  callvalue\n  dup1\n  iszero\n  tag_1\n  jumpi\n  0x00\n  dup1\n  revert\ntag_1:\n  pop\n  dataSize(sub_0)\n  dup1\n  dataOffset(sub_0)\n  0x00\n  codecopy\n  0x00\n  return\nstop\n\nsub_0: assembly {\n        /* \"contracts/base/MessageStore.sol\":520:757  contract MessageStore {\r... */\n      mstore(0x40, 0x80)\n      callvalue\n      dup1\n      iszero\n      tag_1\n      jumpi\n      0x00\n      dup1\n      revert\n    tag_1:\n      pop\n      jumpi(tag_2, lt(calldatasize, 0x04))\n      shr(0xe0, calldataload(0x00))\n      dup1\n      0x368b8772\n      eq\n      tag_3\n      jumpi\n      dup1\n      0xce6d41de\n      eq\n      tag_4\n      jumpi\n      dup1\n      0xe21f37ce\n      eq\n      tag_5\n      jumpi\n    tag_2:\n      0x00\n      dup1\n      revert\n        /* \"contracts/base/MessageStore.sol\":579:657  function setMessage(string calldata s) external {\r... */\n    tag_3:\n      tag_6\n      0x04\n      dup1\n      calldatasize\n      sub\n      dup2\n      add\n      swap1\n      tag_7\n      swap2\n      swap1\n      tag_8\n      jump\t// in\n    tag_7:\n      tag_9\n      jump\t// in\n    tag_6:\n      stop\n        /* \"contracts/base/MessageStore.sol\":667:754  function getMessage() external returns(string memory) {\r... */\n    tag_4:\n      tag_10\n      tag_11\n      jump\t// in\n    tag_10:\n      mload(0x40)\n      tag_12\n      swap2\n      swap1\n      tag_13\n      jump\t// in\n    tag_12:\n      mload(0x40)\n      dup1\n      swap2\n      sub\n      swap1\n      return\n        /* \"contracts/base/MessageStore.sol\":549:570  string public message */\n    tag_5:\n      tag_14\n      tag_15\n      jump\t// in\n    tag_14:\n      mload(0x40)\n      tag_16\n      swap2\n      swap1\n      tag_13\n      jump\t// in\n    tag_16:\n      mload(0x40)\n      dup1\n      swap2\n      sub\n      swap1\n      return\n        /* \"contracts/base/MessageStore.sol\":579:657  function setMessage(string calldata s) external {\r... */\n    tag_9:\n        /* \"contracts/base/MessageStore.sol\":648:649  s */\n      dup2\n      dup2\n        /* \"contracts/base/MessageStore.sol\":638:645  message */\n      0x00\n        /* \"contracts/base/MessageStore.sol\":638:649  message = s */\n      swap2\n      swap1\n      tag_18\n      swap3\n      swap2\n      swap1\n      tag_19\n      jump\t// in\n    tag_18:\n      pop\n        /* \"contracts/base/MessageStore.sol\":579:657  function setMessage(string calldata s) external {\r... */\n      pop\n      pop\n      jump\t// out\n        /* \"contracts/base/MessageStore.sol\":667:754  function getMessage() external returns(string memory) {\r... */\n    tag_11:\n        /* \"contracts/base/MessageStore.sol\":706:719  string memory */\n      0x60\n        /* \"contracts/base/MessageStore.sol\":739:746  message */\n      0x00\n        /* \"contracts/base/MessageStore.sol\":732:746  return message */\n      dup1\n      sload\n      tag_21\n      swap1\n      tag_22\n      jump\t// in\n    tag_21:\n      dup1\n      0x1f\n      add\n      0x20\n      dup1\n      swap2\n      div\n      mul\n      0x20\n      add\n      mload(0x40)\n      swap1\n      dup2\n      add\n      0x40\n      mstore\n      dup1\n      swap3\n      swap2\n      swap1\n      dup2\n      dup2\n      mstore\n      0x20\n      add\n      dup3\n      dup1\n      sload\n      tag_23\n      swap1\n      tag_22\n      jump\t// in\n    tag_23:\n      dup1\n      iszero\n      tag_24\n      jumpi\n      dup1\n      0x1f\n      lt\n      tag_25\n      jumpi\n      0x0100\n      dup1\n      dup4\n      sload\n      div\n      mul\n      dup4\n      mstore\n      swap2\n      0x20\n      add\n      swap2\n      jump(tag_24)\n    tag_25:\n      dup3\n      add\n      swap2\n      swap1\n      0x00\n      mstore\n      keccak256(0x00, 0x20)\n      swap1\n    tag_26:\n      dup2\n      sload\n      dup2\n      mstore\n      swap1\n      0x01\n      add\n      swap1\n      0x20\n      add\n      dup1\n      dup4\n      gt\n      tag_26\n      jumpi\n      dup3\n      swap1\n      sub\n      0x1f\n      and\n      dup3\n      add\n      swap2\n    tag_24:\n      pop\n      pop\n      pop\n      pop\n      pop\n      swap1\n      pop\n        /* \"contracts/base/MessageStore.sol\":667:754  function getMessage() external returns(string memory) {\r... */\n      swap1\n      jump\t// out\n        /* \"contracts/base/MessageStore.sol\":549:570  string public message */\n    tag_15:\n      0x00\n      dup1\n      sload\n      tag_27\n      swap1\n      tag_22\n      jump\t// in\n    tag_27:\n      dup1\n      0x1f\n      add\n      0x20\n      dup1\n      swap2\n      div\n      mul\n      0x20\n      add\n      mload(0x40)\n      swap1\n      dup2\n      add\n      0x40\n      mstore\n      dup1\n      swap3\n      swap2\n      swap1\n      dup2\n      dup2\n      mstore\n      0x20\n      add\n      dup3\n      dup1\n      sload\n      tag_28\n      swap1\n      tag_22\n      jump\t// in\n    tag_28:\n      dup1\n      iszero\n      tag_29\n      jumpi\n      dup1\n      0x1f\n      lt\n      tag_30\n      jumpi\n      0x0100\n      dup1\n      dup4\n      sload\n      div\n      mul\n      dup4\n      mstore\n      swap2\n      0x20\n      add\n      swap2\n      jump(tag_29)\n    tag_30:\n      dup3\n      add\n      swap2\n      swap1\n      0x00\n      mstore\n      keccak256(0x00, 0x20)\n      swap1\n    tag_31:\n      dup2\n      sload\n      dup2\n      mstore\n      swap1\n      0x01\n      add\n      swap1\n      0x20\n      add\n      dup1\n      dup4\n      gt\n      tag_31\n      jumpi\n      dup3\n      swap1\n      sub\n      0x1f\n      and\n      dup3\n      add\n      swap2\n    tag_29:\n      pop\n      pop\n      pop\n      pop\n      pop\n      dup2\n      jump\t// out\n    tag_19:\n      dup3\n      dup1\n      sload\n      tag_32\n      swap1\n      tag_22\n      jump\t// in\n    tag_32:\n      swap1\n      0x00\n      mstore\n      keccak256(0x00, 0x20)\n      swap1\n      0x1f\n      add\n      0x20\n      swap1\n      div\n      dup2\n      add\n      swap3\n      dup3\n      tag_34\n      jumpi\n      0x00\n      dup6\n      sstore\n      jump(tag_33)\n    tag_34:\n      dup3\n      0x1f\n      lt\n      tag_35\n      jumpi\n      dup1\n      calldataload\n      not(0xff)\n      and\n      dup4\n      dup1\n      add\n      or\n      dup6\n      sstore\n      jump(tag_33)\n    tag_35:\n      dup3\n      dup1\n      add\n      0x01\n      add\n      dup6\n      sstore\n      dup3\n      iszero\n      tag_33\n      jumpi\n      swap2\n      dup3\n      add\n    tag_36:\n      dup3\n      dup2\n      gt\n      iszero\n      tag_37\n      jumpi\n      dup3\n      calldataload\n      dup3\n      sstore\n      swap2\n      0x20\n      add\n      swap2\n      swap1\n      0x01\n      add\n      swap1\n      jump(tag_36)\n    tag_37:\n    tag_33:\n      pop\n      swap1\n      pop\n      tag_38\n      swap2\n      swap1\n      tag_39\n      jump\t// in\n    tag_38:\n      pop\n      swap1\n      jump\t// out\n    tag_39:\n    tag_40:\n      dup1\n      dup3\n      gt\n      iszero\n      tag_41\n      jumpi\n      0x00\n      dup2\n      0x00\n      swap1\n      sstore\n      pop\n      0x01\n      add\n      jump(tag_40)\n    tag_41:\n      pop\n      swap1\n      jump\t// out\n        /* \"#utility.yul\":21:373   */\n    tag_43:\n        /* \"#utility.yul\":79:87   */\n      0x00\n        /* \"#utility.yul\":89:95   */\n      dup1\n        /* \"#utility.yul\":139:142   */\n      dup4\n        /* \"#utility.yul\":132:136   */\n      0x1f\n        /* \"#utility.yul\":124:130   */\n      dup5\n        /* \"#utility.yul\":120:137   */\n      add\n        /* \"#utility.yul\":116:143   */\n      slt\n        /* \"#utility.yul\":106:108   */\n      tag_45\n      jumpi\n        /* \"#utility.yul\":157:158   */\n      0x00\n        /* \"#utility.yul\":154:155   */\n      dup1\n        /* \"#utility.yul\":147:159   */\n      revert\n        /* \"#utility.yul\":106:108   */\n    tag_45:\n        /* \"#utility.yul\":193:199   */\n      dup3\n        /* \"#utility.yul\":180:200   */\n      calldataload\n        /* \"#utility.yul\":170:200   */\n      swap1\n      pop\n        /* \"#utility.yul\":223:241   */\n      0xffffffffffffffff\n        /* \"#utility.yul\":215:221   */\n      dup2\n        /* \"#utility.yul\":212:242   */\n      gt\n        /* \"#utility.yul\":209:211   */\n      iszero\n      tag_46\n      jumpi\n        /* \"#utility.yul\":255:256   */\n      0x00\n        /* \"#utility.yul\":252:253   */\n      dup1\n        /* \"#utility.yul\":245:257   */\n      revert\n        /* \"#utility.yul\":209:211   */\n    tag_46:\n        /* \"#utility.yul\":292:296   */\n      0x20\n        /* \"#utility.yul\":284:290   */\n      dup4\n        /* \"#utility.yul\":280:297   */\n      add\n        /* \"#utility.yul\":268:297   */\n      swap2\n      pop\n        /* \"#utility.yul\":346:349   */\n      dup4\n        /* \"#utility.yul\":338:342   */\n      0x01\n        /* \"#utility.yul\":330:336   */\n      dup3\n        /* \"#utility.yul\":326:343   */\n      mul\n        /* \"#utility.yul\":316:324   */\n      dup4\n        /* \"#utility.yul\":312:344   */\n      add\n        /* \"#utility.yul\":309:350   */\n      gt\n        /* \"#utility.yul\":306:308   */\n      iszero\n      tag_47\n      jumpi\n        /* \"#utility.yul\":363:364   */\n      0x00\n        /* \"#utility.yul\":360:361   */\n      dup1\n        /* \"#utility.yul\":353:365   */\n      revert\n        /* \"#utility.yul\":306:308   */\n    tag_47:\n        /* \"#utility.yul\":96:373   */\n      swap3\n      pop\n      swap3\n      swap1\n      pop\n      jump\t// out\n        /* \"#utility.yul\":379:774   */\n    tag_8:\n        /* \"#utility.yul\":450:456   */\n      0x00\n        /* \"#utility.yul\":458:464   */\n      dup1\n        /* \"#utility.yul\":507:509   */\n      0x20\n        /* \"#utility.yul\":495:504   */\n      dup4\n        /* \"#utility.yul\":486:493   */\n      dup6\n        /* \"#utility.yul\":482:505   */\n      sub\n        /* \"#utility.yul\":478:510   */\n      slt\n        /* \"#utility.yul\":475:477   */\n      iszero\n      tag_49\n      jumpi\n        /* \"#utility.yul\":523:524   */\n      0x00\n        /* \"#utility.yul\":520:521   */\n      dup1\n        /* \"#utility.yul\":513:525   */\n      revert\n        /* \"#utility.yul\":475:477   */\n    tag_49:\n        /* \"#utility.yul\":594:595   */\n      0x00\n        /* \"#utility.yul\":583:592   */\n      dup4\n        /* \"#utility.yul\":579:596   */\n      add\n        /* \"#utility.yul\":566:597   */\n      calldataload\n        /* \"#utility.yul\":624:642   */\n      0xffffffffffffffff\n        /* \"#utility.yul\":616:622   */\n      dup2\n        /* \"#utility.yul\":613:643   */\n      gt\n        /* \"#utility.yul\":610:612   */\n      iszero\n      tag_50\n      jumpi\n        /* \"#utility.yul\":656:657   */\n      0x00\n        /* \"#utility.yul\":653:654   */\n      dup1\n        /* \"#utility.yul\":646:658   */\n      revert\n        /* \"#utility.yul\":610:612   */\n    tag_50:\n        /* \"#utility.yul\":692:757   */\n      tag_51\n        /* \"#utility.yul\":749:756   */\n      dup6\n        /* \"#utility.yul\":740:746   */\n      dup3\n        /* \"#utility.yul\":729:738   */\n      dup7\n        /* \"#utility.yul\":725:747   */\n      add\n        /* \"#utility.yul\":692:757   */\n      tag_43\n      jump\t// in\n    tag_51:\n        /* \"#utility.yul\":674:757   */\n      swap3\n      pop\n      swap3\n      pop\n        /* \"#utility.yul\":537:767   */\n      pop\n        /* \"#utility.yul\":465:774   */\n      swap3\n      pop\n      swap3\n      swap1\n      pop\n      jump\t// out\n        /* \"#utility.yul\":780:1144   */\n    tag_52:\n        /* \"#utility.yul\":868:871   */\n      0x00\n        /* \"#utility.yul\":896:935   */\n      tag_54\n        /* \"#utility.yul\":929:934   */\n      dup3\n        /* \"#utility.yul\":896:935   */\n      tag_55\n      jump\t// in\n    tag_54:\n        /* \"#utility.yul\":951:1022   */\n      tag_56\n        /* \"#utility.yul\":1015:1021   */\n      dup2\n        /* \"#utility.yul\":1010:1013   */\n      dup6\n        /* \"#utility.yul\":951:1022   */\n      tag_57\n      jump\t// in\n    tag_56:\n        /* \"#utility.yul\":944:1022   */\n      swap4\n      pop\n        /* \"#utility.yul\":1031:1083   */\n      tag_58\n        /* \"#utility.yul\":1076:1082   */\n      dup2\n        /* \"#utility.yul\":1071:1074   */\n      dup6\n        /* \"#utility.yul\":1064:1068   */\n      0x20\n        /* \"#utility.yul\":1057:1062   */\n      dup7\n        /* \"#utility.yul\":1053:1069   */\n      add\n        /* \"#utility.yul\":1031:1083   */\n      tag_59\n      jump\t// in\n    tag_58:\n        /* \"#utility.yul\":1108:1137   */\n      tag_60\n        /* \"#utility.yul\":1130:1136   */\n      dup2\n        /* \"#utility.yul\":1108:1137   */\n      tag_61\n      jump\t// in\n    tag_60:\n        /* \"#utility.yul\":1103:1106   */\n      dup5\n        /* \"#utility.yul\":1099:1138   */\n      add\n        /* \"#utility.yul\":1092:1138   */\n      swap2\n      pop\n        /* \"#utility.yul\":872:1144   */\n      pop\n      swap3\n      swap2\n      pop\n      pop\n      jump\t// out\n        /* \"#utility.yul\":1150:1463   */\n    tag_13:\n        /* \"#utility.yul\":1263:1267   */\n      0x00\n        /* \"#utility.yul\":1301:1303   */\n      0x20\n        /* \"#utility.yul\":1290:1299   */\n      dup3\n        /* \"#utility.yul\":1286:1304   */\n      add\n        /* \"#utility.yul\":1278:1304   */\n      swap1\n      pop\n        /* \"#utility.yul\":1350:1359   */\n      dup2\n        /* \"#utility.yul\":1344:1348   */\n      dup2\n        /* \"#utility.yul\":1340:1360   */\n      sub\n        /* \"#utility.yul\":1336:1337   */\n      0x00\n        /* \"#utility.yul\":1325:1334   */\n      dup4\n        /* \"#utility.yul\":1321:1338   */\n      add\n        /* \"#utility.yul\":1314:1361   */\n      mstore\n        /* \"#utility.yul\":1378:1456   */\n      tag_63\n        /* \"#utility.yul\":1451:1455   */\n      dup2\n        /* \"#utility.yul\":1442:1448   */\n      dup5\n        /* \"#utility.yul\":1378:1456   */\n      tag_52\n      jump\t// in\n    tag_63:\n        /* \"#utility.yul\":1370:1456   */\n      swap1\n      pop\n        /* \"#utility.yul\":1268:1463   */\n      swap3\n      swap2\n      pop\n      pop\n      jump\t// out\n        /* \"#utility.yul\":1469:1568   */\n    tag_55:\n        /* \"#utility.yul\":1521:1527   */\n      0x00\n        /* \"#utility.yul\":1555:1560   */\n      dup2\n        /* \"#utility.yul\":1549:1561   */\n      mload\n        /* \"#utility.yul\":1539:1561   */\n      swap1\n      pop\n        /* \"#utility.yul\":1528:1568   */\n      swap2\n      swap1\n      pop\n      jump\t// out\n        /* \"#utility.yul\":1574:1743   */\n    tag_57:\n        /* \"#utility.yul\":1658:1669   */\n      0x00\n        /* \"#utility.yul\":1692:1698   */\n      dup3\n        /* \"#utility.yul\":1687:1690   */\n      dup3\n        /* \"#utility.yul\":1680:1699   */\n      mstore\n        /* \"#utility.yul\":1732:1736   */\n      0x20\n        /* \"#utility.yul\":1727:1730   */\n      dup3\n        /* \"#utility.yul\":1723:1737   */\n      add\n        /* \"#utility.yul\":1708:1737   */\n      swap1\n      pop\n        /* \"#utility.yul\":1670:1743   */\n      swap3\n      swap2\n      pop\n      pop\n      jump\t// out\n        /* \"#utility.yul\":1749:2056   */\n    tag_59:\n        /* \"#utility.yul\":1817:1818   */\n      0x00\n        /* \"#utility.yul\":1827:1940   */\n    tag_67:\n        /* \"#utility.yul\":1841:1847   */\n      dup4\n        /* \"#utility.yul\":1838:1839   */\n      dup2\n        /* \"#utility.yul\":1835:1848   */\n      lt\n        /* \"#utility.yul\":1827:1940   */\n      iszero\n      tag_69\n      jumpi\n        /* \"#utility.yul\":1926:1927   */\n      dup1\n        /* \"#utility.yul\":1921:1924   */\n      dup3\n        /* \"#utility.yul\":1917:1928   */\n      add\n        /* \"#utility.yul\":1911:1929   */\n      mload\n        /* \"#utility.yul\":1907:1908   */\n      dup2\n        /* \"#utility.yul\":1902:1905   */\n      dup5\n        /* \"#utility.yul\":1898:1909   */\n      add\n        /* \"#utility.yul\":1891:1930   */\n      mstore\n        /* \"#utility.yul\":1863:1865   */\n      0x20\n        /* \"#utility.yul\":1860:1861   */\n      dup2\n        /* \"#utility.yul\":1856:1866   */\n      add\n        /* \"#utility.yul\":1851:1866   */\n      swap1\n      pop\n        /* \"#utility.yul\":1827:1940   */\n      jump(tag_67)\n    tag_69:\n        /* \"#utility.yul\":1958:1964   */\n      dup4\n        /* \"#utility.yul\":1955:1956   */\n      dup2\n        /* \"#utility.yul\":1952:1965   */\n      gt\n        /* \"#utility.yul\":1949:1951   */\n      iszero\n      tag_70\n      jumpi\n        /* \"#utility.yul\":2038:2039   */\n      0x00\n        /* \"#utility.yul\":2029:2035   */\n      dup5\n        /* \"#utility.yul\":2024:2027   */\n      dup5\n        /* \"#utility.yul\":2020:2036   */\n      add\n        /* \"#utility.yul\":2013:2040   */\n      mstore\n        /* \"#utility.yul\":1949:1951   */\n    tag_70:\n        /* \"#utility.yul\":1798:2056   */\n      pop\n      pop\n      pop\n      pop\n      jump\t// out\n        /* \"#utility.yul\":2062:2382   */\n    tag_22:\n        /* \"#utility.yul\":2106:2112   */\n      0x00\n        /* \"#utility.yul\":2143:2144   */\n      0x02\n        /* \"#utility.yul\":2137:2141   */\n      dup3\n        /* \"#utility.yul\":2133:2145   */\n      div\n        /* \"#utility.yul\":2123:2145   */\n      swap1\n      pop\n        /* \"#utility.yul\":2190:2191   */\n      0x01\n        /* \"#utility.yul\":2184:2188   */\n      dup3\n        /* \"#utility.yul\":2180:2192   */\n      and\n        /* \"#utility.yul\":2211:2229   */\n      dup1\n        /* \"#utility.yul\":2201:2203   */\n      tag_72\n      jumpi\n        /* \"#utility.yul\":2267:2271   */\n      0x7f\n        /* \"#utility.yul\":2259:2265   */\n      dup3\n        /* \"#utility.yul\":2255:2272   */\n      and\n        /* \"#utility.yul\":2245:2272   */\n      swap2\n      pop\n        /* \"#utility.yul\":2201:2203   */\n    tag_72:\n        /* \"#utility.yul\":2329:2331   */\n      0x20\n        /* \"#utility.yul\":2321:2327   */\n      dup3\n        /* \"#utility.yul\":2318:2332   */\n      lt\n        /* \"#utility.yul\":2298:2316   */\n      dup2\n        /* \"#utility.yul\":2295:2333   */\n      eq\n        /* \"#utility.yul\":2292:2294   */\n      iszero\n      tag_73\n      jumpi\n        /* \"#utility.yul\":2348:2366   */\n      tag_74\n      tag_75\n      jump\t// in\n    tag_74:\n        /* \"#utility.yul\":2292:2294   */\n    tag_73:\n        /* \"#utility.yul\":2113:2382   */\n      pop\n      swap2\n      swap1\n      pop\n      jump\t// out\n        /* \"#utility.yul\":2388:2568   */\n    tag_75:\n        /* \"#utility.yul\":2436:2513   */\n      0x4e487b7100000000000000000000000000000000000000000000000000000000\n        /* \"#utility.yul\":2433:2434   */\n      0x00\n        /* \"#utility.yul\":2426:2514   */\n      mstore\n        /* \"#utility.yul\":2533:2537   */\n      0x22\n        /* \"#utility.yul\":2530:2531   */\n      0x04\n        /* \"#utility.yul\":2523:2538   */\n      mstore\n        /* \"#utility.yul\":2557:2561   */\n      0x24\n        /* \"#utility.yul\":2554:2555   */\n      0x00\n        /* \"#utility.yul\":2547:2562   */\n      revert\n        /* \"#utility.yul\":2574:2676   */\n    tag_61:\n        /* \"#utility.yul\":2615:2621   */\n      0x00\n        /* \"#utility.yul\":2666:2668   */\n      0x1f\n        /* \"#utility.yul\":2662:2669   */\n      not\n        /* \"#utility.yul\":2657:2659   */\n      0x1f\n        /* \"#utility.yul\":2650:2655   */\n      dup4\n        /* \"#utility.yul\":2646:2660   */\n      add\n        /* \"#utility.yul\":2642:2670   */\n      and\n        /* \"#utility.yul\":2632:2670   */\n      swap1\n      pop\n        /* \"#utility.yul\":2622:2676   */\n      swap2\n      swap1\n      pop\n      jump\t// out\n\n    auxdata: 0xa2646970667358221220f671d64fa0d7859baa670c5172073fc8061fef33075d2ce41f987770e52cbcbc64736f6c63430008040033\n}\n",
				"bytecode": {
					"linkReferences": {},
					"object": "608060405234801561001057600080fd5b50610458806100206000396000f3fe608060405234801561001057600080fd5b50600436106100415760003560e01c8063368b877214610046578063ce6d41de14610062578063e21f37ce14610080575b600080fd5b610060600480360381019061005b91906102c1565b61009e565b005b61006a6100b4565b604051610077919061033f565b60405180910390f35b610088610146565b604051610095919061033f565b60405180910390f35b8181600091906100af9291906101d4565b505050565b6060600080546100c3906103b0565b80601f01602080910402602001604051908101604052809291908181526020018280546100ef906103b0565b801561013c5780601f106101115761010080835404028352916020019161013c565b820191906000526020600020905b81548152906001019060200180831161011f57829003601f168201915b5050505050905090565b60008054610153906103b0565b80601f016020809104026020016040519081016040528092919081815260200182805461017f906103b0565b80156101cc5780601f106101a1576101008083540402835291602001916101cc565b820191906000526020600020905b8154815290600101906020018083116101af57829003601f168201915b505050505081565b8280546101e0906103b0565b90600052602060002090601f0160209004810192826102025760008555610249565b82601f1061021b57803560ff1916838001178555610249565b82800160010185558215610249579182015b8281111561024857823582559160200191906001019061022d565b5b509050610256919061025a565b5090565b5b8082111561027357600081600090555060010161025b565b5090565b60008083601f84011261028957600080fd5b8235905067ffffffffffffffff8111156102a257600080fd5b6020830191508360018202830111156102ba57600080fd5b9250929050565b600080602083850312156102d457600080fd5b600083013567ffffffffffffffff8111156102ee57600080fd5b6102fa85828601610277565b92509250509250929050565b600061031182610361565b61031b818561036c565b935061032b81856020860161037d565b61033481610411565b840191505092915050565b600060208201905081810360008301526103598184610306565b905092915050565b600081519050919050565b600082825260208201905092915050565b60005b8381101561039b578082015181840152602081019050610380565b838111156103aa576000848401525b50505050565b600060028204905060018216806103c857607f821691505b602082108114156103dc576103db6103e2565b5b50919050565b7f4e487b7100000000000000000000000000000000000000000000000000000000600052602260045260246000fd5b6000601f19601f830116905091905056fea2646970667358221220f671d64fa0d7859baa670c5172073fc8061fef33075d2ce41f987770e52cbcbc64736f6c63430008040033",
					"opcodes": "PUSH1 0x80 PUSH1 0x40 MSTORE CALLVALUE DUP1 ISZERO PUSH2 0x10 JUMPI PUSH1 0x0 DUP1 REVERT JUMPDEST POP PUSH2 0x458 DUP1 PUSH2 0x20 PUSH1 0x0 CODECOPY PUSH1 0x0 RETURN INVALID PUSH1 0x80 PUSH1 0x40 MSTORE CALLVALUE DUP1 ISZERO PUSH2 0x10 JUMPI PUSH1 0x0 DUP1 REVERT JUMPDEST POP PUSH1 0x4 CALLDATASIZE LT PUSH2 0x41 JUMPI PUSH1 0x0 CALLDATALOAD PUSH1 0xE0 SHR DUP1 PUSH4 0x368B8772 EQ PUSH2 0x46 JUMPI DUP1 PUSH4 0xCE6D41DE EQ PUSH2 0x62 JUMPI DUP1 PUSH4 0xE21F37CE EQ PUSH2 0x80 JUMPI JUMPDEST PUSH1 0x0 DUP1 REVERT JUMPDEST PUSH2 0x60 PUSH1 0x4 DUP1 CALLDATASIZE SUB DUP2 ADD SWAP1 PUSH2 0x5B SWAP2 SWAP1 PUSH2 0x2C1 JUMP JUMPDEST PUSH2 0x9E JUMP JUMPDEST STOP JUMPDEST PUSH2 0x6A PUSH2 0xB4 JUMP JUMPDEST PUSH1 0x40 MLOAD PUSH2 0x77 SWAP2 SWAP1 PUSH2 0x33F JUMP JUMPDEST PUSH1 0x40 MLOAD DUP1 SWAP2 SUB SWAP1 RETURN JUMPDEST PUSH2 0x88 PUSH2 0x146 JUMP JUMPDEST PUSH1 0x40 MLOAD PUSH2 0x95 SWAP2 SWAP1 PUSH2 0x33F JUMP JUMPDEST PUSH1 0x40 MLOAD DUP1 SWAP2 SUB SWAP1 RETURN JUMPDEST DUP2 DUP2 PUSH1 0x0 SWAP2 SWAP1 PUSH2 0xAF SWAP3 SWAP2 SWAP1 PUSH2 0x1D4 JUMP JUMPDEST POP POP POP JUMP JUMPDEST PUSH1 0x60 PUSH1 0x0 DUP1 SLOAD PUSH2 0xC3 SWAP1 PUSH2 0x3B0 JUMP JUMPDEST DUP1 PUSH1 0x1F ADD PUSH1 0x20 DUP1 SWAP2 DIV MUL PUSH1 0x20 ADD PUSH1 0x40 MLOAD SWAP1 DUP2 ADD PUSH1 0x40 MSTORE DUP1 SWAP3 SWAP2 SWAP1 DUP2 DUP2 MSTORE PUSH1 0x20 ADD DUP3 DUP1 SLOAD PUSH2 0xEF SWAP1 PUSH2 0x3B0 JUMP JUMPDEST DUP1 ISZERO PUSH2 0x13C JUMPI DUP1 PUSH1 0x1F LT PUSH2 0x111 JUMPI PUSH2 0x100 DUP1 DUP4 SLOAD DIV MUL DUP4 MSTORE SWAP2 PUSH1 0x20 ADD SWAP2 PUSH2 0x13C JUMP JUMPDEST DUP3 ADD SWAP2 SWAP1 PUSH1 0x0 MSTORE PUSH1 0x20 PUSH1 0x0 KECCAK256 SWAP1 JUMPDEST DUP2 SLOAD DUP2 MSTORE SWAP1 PUSH1 0x1 ADD SWAP1 PUSH1 0x20 ADD DUP1 DUP4 GT PUSH2 0x11F JUMPI DUP3 SWAP1 SUB PUSH1 0x1F AND DUP3 ADD SWAP2 JUMPDEST POP POP POP POP POP SWAP1 POP SWAP1 JUMP JUMPDEST PUSH1 0x0 DUP1 SLOAD PUSH2 0x153 SWAP1 PUSH2 0x3B0 JUMP JUMPDEST DUP1 PUSH1 0x1F ADD PUSH1 0x20 DUP1 SWAP2 DIV MUL PUSH1 0x20 ADD PUSH1 0x40 MLOAD SWAP1 DUP2 ADD PUSH1 0x40 MSTORE DUP1 SWAP3 SWAP2 SWAP1 DUP2 DUP2 MSTORE PUSH1 0x20 ADD DUP3 DUP1 SLOAD PUSH2 0x17F SWAP1 PUSH2 0x3B0 JUMP JUMPDEST DUP1 ISZERO PUSH2 0x1CC JUMPI DUP1 PUSH1 0x1F LT PUSH2 0x1A1 JUMPI PUSH2 0x100 DUP1 DUP4 SLOAD DIV MUL DUP4 MSTORE SWAP2 PUSH1 0x20 ADD SWAP2 PUSH2 0x1CC JUMP JUMPDEST DUP3 ADD SWAP2 SWAP1 PUSH1 0x0 MSTORE PUSH1 0x20 PUSH1 0x0 KECCAK256 SWAP1 JUMPDEST DUP2 SLOAD DUP2 MSTORE SWAP1 PUSH1 0x1 ADD SWAP1 PUSH1 0x20 ADD DUP1 DUP4 GT PUSH2 0x1AF JUMPI DUP3 SWAP1 SUB PUSH1 0x1F AND DUP3 ADD SWAP2 JUMPDEST POP POP POP POP POP DUP2 JUMP JUMPDEST DUP3 DUP1 SLOAD PUSH2 0x1E0 SWAP1 PUSH2 0x3B0 JUMP JUMPDEST SWAP1 PUSH1 0x0 MSTORE PUSH1 0x20 PUSH1 0x0 KECCAK256 SWAP1 PUSH1 0x1F ADD PUSH1 0x20 SWAP1 DIV DUP2 ADD SWAP3 DUP3 PUSH2 0x202 JUMPI PUSH1 0x0 DUP6 SSTORE PUSH2 0x249 JUMP JUMPDEST DUP3 PUSH1 0x1F LT PUSH2 0x21B JUMPI DUP1 CALLDATALOAD PUSH1 0xFF NOT AND DUP4 DUP1 ADD OR DUP6 SSTORE PUSH2 0x249 JUMP JUMPDEST DUP3 DUP1 ADD PUSH1 0x1 ADD DUP6 SSTORE DUP3 ISZERO PUSH2 0x249 JUMPI SWAP2 DUP3 ADD JUMPDEST DUP3 DUP2 GT ISZERO PUSH2 0x248 JUMPI DUP3 CALLDATALOAD DUP3 SSTORE SWAP2 PUSH1 0x20 ADD SWAP2 SWAP1 PUSH1 0x1 ADD SWAP1 PUSH2 0x22D JUMP JUMPDEST JUMPDEST POP SWAP1 POP PUSH2 0x256 SWAP2 SWAP1 PUSH2 0x25A JUMP JUMPDEST POP SWAP1 JUMP JUMPDEST JUMPDEST DUP1 DUP3 GT ISZERO PUSH2 0x273 JUMPI PUSH1 0x0 DUP2 PUSH1 0x0 SWAP1 SSTORE POP PUSH1 0x1 ADD PUSH2 0x25B JUMP JUMPDEST POP SWAP1 JUMP JUMPDEST PUSH1 0x0 DUP1 DUP4 PUSH1 0x1F DUP5 ADD SLT PUSH2 0x289 JUMPI PUSH1 0x0 DUP1 REVERT JUMPDEST DUP3 CALLDATALOAD SWAP1 POP PUSH8 0xFFFFFFFFFFFFFFFF DUP2 GT ISZERO PUSH2 0x2A2 JUMPI PUSH1 0x0 DUP1 REVERT JUMPDEST PUSH1 0x20 DUP4 ADD SWAP2 POP DUP4 PUSH1 0x1 DUP3 MUL DUP4 ADD GT ISZERO PUSH2 0x2BA JUMPI PUSH1 0x0 DUP1 REVERT JUMPDEST SWAP3 POP SWAP3 SWAP1 POP JUMP JUMPDEST PUSH1 0x0 DUP1 PUSH1 0x20 DUP4 DUP6 SUB SLT ISZERO PUSH2 0x2D4 JUMPI PUSH1 0x0 DUP1 REVERT JUMPDEST PUSH1 0x0 DUP4 ADD CALLDATALOAD PUSH8 0xFFFFFFFFFFFFFFFF DUP2 GT ISZERO PUSH2 0x2EE JUMPI PUSH1 0x0 DUP1 REVERT JUMPDEST PUSH2 0x2FA DUP6 DUP3 DUP7 ADD PUSH2 0x277 JUMP JUMPDEST SWAP3 POP SWAP3 POP POP SWAP3 POP SWAP3 SWAP1 POP JUMP JUMPDEST PUSH1 0x0 PUSH2 0x311 DUP3 PUSH2 0x361 JUMP JUMPDEST PUSH2 0x31B DUP2 DUP6 PUSH2 0x36C JUMP JUMPDEST SWAP4 POP PUSH2 0x32B DUP2 DUP6 PUSH1 0x20 DUP7 ADD PUSH2 0x37D JUMP JUMPDEST PUSH2 0x334 DUP2 PUSH2 0x411 JUMP JUMPDEST DUP5 ADD SWAP2 POP POP SWAP3 SWAP2 POP POP JUMP JUMPDEST PUSH1 0x0 PUSH1 0x20 DUP3 ADD SWAP1 POP DUP2 DUP2 SUB PUSH1 0x0 DUP4 ADD MSTORE PUSH2 0x359 DUP2 DUP5 PUSH2 0x306 JUMP JUMPDEST SWAP1 POP SWAP3 SWAP2 POP POP JUMP JUMPDEST PUSH1 0x0 DUP2 MLOAD SWAP1 POP SWAP2 SWAP1 POP JUMP JUMPDEST PUSH1 0x0 DUP3 DUP3 MSTORE PUSH1 0x20 DUP3 ADD SWAP1 POP SWAP3 SWAP2 POP POP JUMP JUMPDEST PUSH1 0x0 JUMPDEST DUP4 DUP2 LT ISZERO PUSH2 0x39B JUMPI DUP1 DUP3 ADD MLOAD DUP2 DUP5 ADD MSTORE PUSH1 0x20 DUP2 ADD SWAP1 POP PUSH2 0x380 JUMP JUMPDEST DUP4 DUP2 GT ISZERO PUSH2 0x3AA JUMPI PUSH1 0x0 DUP5 DUP5 ADD MSTORE JUMPDEST POP POP POP POP JUMP JUMPDEST PUSH1 0x0 PUSH1 0x2 DUP3 DIV SWAP1 POP PUSH1 0x1 DUP3 AND DUP1 PUSH2 0x3C8 JUMPI PUSH1 0x7F DUP3 AND SWAP2 POP JUMPDEST PUSH1 0x20 DUP3 LT DUP2 EQ ISZERO PUSH2 0x3DC JUMPI PUSH2 0x3DB PUSH2 0x3E2 JUMP JUMPDEST JUMPDEST POP SWAP2 SWAP1 POP JUMP JUMPDEST PUSH32 0x4E487B7100000000000000000000000000000000000000000000000000000000 PUSH1 0x0 MSTORE PUSH1 0x22 PUSH1 0x4 MSTORE PUSH1 0x24 PUSH1 0x0 REVERT JUMPDEST PUSH1 0x0 PUSH1 0x1F NOT PUSH1 0x1F DUP4 ADD AND SWAP1 POP SWAP2 SWAP1 POP JUMP INVALID LOG2 PUSH5 0x6970667358 0x22 SLT KECCAK256 0xF6 PUSH18 0xD64FA0D7859BAA670C5172073FC8061FEF33 SMOD 0x5D 0x2C 0xE4 0x1F SWAP9 PUSH24 0x70E52CBCBC64736F6C634300080400330000000000000000 "
				},
				"gasEstimates": {
					"creation": {
						"codeDepositCost": "222400",
						"executionCost": "263",
						"totalCost": "222663"
					},
					"external": {
						"getMessage()": "infinite",
						"message()": "infinite",
						"setMessage(string)": "infinite"
					}
				},
				"methodIdentifiers": {
					"getMessage()": "ce6d41de",
					"message()": "e21f37ce",
					"setMessage(string)": "368b8772"
				}
			},
			"storageLayout": {
				"storage": [
					{
						"astId": 4,
						"contract": "contracts/base/MessageStore.sol:MessageStore",
						"label": "message",
						"offset": 0,
						"slot": "0",
						"type": "t_string_storage"
					}
				],
				"types": {
					"t_string_storage": {
						"encoding": "bytes",
						"label": "string",
						"numberOfBytes": "32"
					}
				}
			},
			"userdoc": {
				"kind": "user",
				"methods": {},
				"notice": "创建⼀个Solidity智能合约，名为 MessageStore ，包含以下功能： • ⼀个公开的状态变量 message ⽤于存储⼀个字符串。 • ⼀个 setMessage 函数，允许⽤⼾输⼊⼀个字符串并将其存储到 message 状态变量中。该函数 应使⽤calldata数据位置。 • ⼀个 getMessage 函数，返回 message 状态变量的内容。该函数应声明为external，并使⽤ memory数据位置。",
				"version": 1
			}
		}
	}
}