{
	"contracts/base/ERC20Test.sol": {
		"ERC20Impl": {
			"abi": [
				{
					"anonymous": false,
					"inputs": [
						{
							"indexed": true,
							"internalType": "address",
							"name": "owner",
							"type": "address"
						},
						{
							"indexed": true,
							"internalType": "address",
							"name": "spender",
							"type": "address"
						},
						{
							"indexed": false,
							"internalType": "uint256",
							"name": "value",
							"type": "uint256"
						}
					],
					"name": "Approval",
					"type": "event"
				},
				{
					"anonymous": false,
					"inputs": [
						{
							"indexed": true,
							"internalType": "address",
							"name": "from",
							"type": "address"
						},
						{
							"indexed": true,
							"internalType": "address",
							"name": "to",
							"type": "address"
						},
						{
							"indexed": false,
							"internalType": "uint256",
							"name": "value",
							"type": "uint256"
						}
					],
					"name": "Transfer",
					"type": "event"
				},
				{
					"inputs": [
						{
							"internalType": "address",
							"name": "",
							"type": "address"
						},
						{
							"internalType": "address",
							"name": "",
							"type": "address"
						}
					],
					"name": "allowance",
					"outputs": [
						{
							"internalType": "uint256",
							"name": "",
							"type": "uint256"
						}
					],
					"stateMutability": "view",
					"type": "function"
				},
				{
					"inputs": [
						{
							"internalType": "address",
							"name": "spender",
							"type": "address"
						},
						{
							"internalType": "uint256",
							"name": "amount",
							"type": "uint256"
						}
					],
					"name": "approve",
					"outputs": [
						{
							"internalType": "bool",
							"name": "",
							"type": "bool"
						}
					],
					"stateMutability": "nonpayable",
					"type": "function"
				},
				{
					"inputs": [
						{
							"internalType": "address",
							"name": "",
							"type": "address"
						}
					],
					"name": "balanceOf",
					"outputs": [
						{
							"internalType": "uint256",
							"name": "",
							"type": "uint256"
						}
					],
					"stateMutability": "view",
					"type": "function"
				},
				{
					"inputs": [],
					"name": "decimals",
					"outputs": [
						{
							"internalType": "uint8",
							"name": "",
							"type": "uint8"
						}
					],
					"stateMutability": "view",
					"type": "function"
				},
				{
					"inputs": [],
					"name": "name",
					"outputs": [
						{
							"internalType": "string",
							"name": "",
							"type": "string"
						}
					],
					"stateMutability": "view",
					"type": "function"
				},
				{
					"inputs": [],
					"name": "symbol",
					"outputs": [
						{
							"internalType": "string",
							"name": "",
							"type": "string"
						}
					],
					"stateMutability": "view",
					"type": "function"
				},
				{
					"inputs": [],
					"name": "totalSupply",
					"outputs": [
						{
							"internalType": "uint256",
							"name": "",
							"type": "uint256"
						}
					],
					"stateMutability": "view",
					"type": "function"
				},
				{
					"inputs": [
						{
							"internalType": "address",
							"name": "recipient",
							"type": "address"
						},
						{
							"internalType": "uint256",
							"name": "amount",
							"type": "uint256"
						}
					],
					"name": "transfer",
					"outputs": [
						{
							"internalType": "bool",
							"name": "",
							"type": "bool"
						}
					],
					"stateMutability": "nonpayable",
					"type": "function"
				},
				{
					"inputs": [
						{
							"internalType": "address",
							"name": "from",
							"type": "address"
						},
						{
							"internalType": "address",
							"name": "to",
							"type": "address"
						},
						{
							"internalType": "uint256",
							"name": "amount",
							"type": "uint256"
						}
					],
					"name": "transferFrom",
					"outputs": [
						{
							"internalType": "bool",
							"name": "",
							"type": "bool"
						}
					],
					"stateMutability": "nonpayable",
					"type": "function"
				}
			],
			"devdoc": {
				"kind": "dev",
				"methods": {
					"approve(address,uint256)": {
						"details": "调⽤者账⼾给spender账⼾授权 amount数量代币。 (allowance[msg.sender][spender] 是从授权者角度调用的，spender是被授权者，msg.sender是授权者) 如果成功，返回 true. 释放 {Approval} 事件."
					},
					"transfer(address,uint256)": {
						"details": "转账 amount 单位代币，从调⽤者账⼾到另⼀账⼾ to. 如果成功，返回 true. 释放 {Transfer} 事件."
					},
					"transferFrom(address,address,uint256)": {
						"details": "通过授权机制，从from账⼾向to账⼾转账amount数量代币。转账的部分会从调⽤者的 allowance中扣除。(allowance[from][msg.sender] 是从被授权者角度调用的，from是授权者，msg.sender是被授权者) 如果成功，返回 true. 释放 {Transfer} 事件."
					}
				},
				"stateVariables": {
					"allowance": {
						"details": "返回owner账⼾授权给spender账⼾的额度，默认为0。 当{approve} 或 {transferFrom} 被调⽤时，allowance会改变."
					},
					"balanceOf": {
						"details": "返回账⼾account所持有的代币数."
					},
					"totalSupply": {
						"details": "返回代币总供给."
					}
				},
				"version": 1
			},
			"evm": {
				"assembly": "    /* \"contracts/base/ERC20Test.sol\":1815:4408  contract ERC20Impl is IERC20 {\r... */\n  mstore(0x40, 0x80)\n    /* \"contracts/base/ERC20Test.sol\":2133:2165  string public name = \"TestToken\" */\n  mload(0x40)\n  dup1\n  0x40\n  add\n  0x40\n  mstore\n  dup1\n  0x09\n  dup2\n  mstore\n  0x20\n  add\n  0x54657374546f6b656e0000000000000000000000000000000000000000000000\n  dup2\n  mstore\n  pop\n  0x03\n  swap1\n  dup1\n  mload\n  swap1\n  0x20\n  add\n  swap1\n  tag_1\n  swap3\n  swap2\n  swap1\n  tag_2\n  jump\t// in\ntag_1:\n  pop\n    /* \"contracts/base/ERC20Test.sol\":2176:2205  string public symbol = \"TEST\" */\n  mload(0x40)\n  dup1\n  0x40\n  add\n  0x40\n  mstore\n  dup1\n  0x04\n  dup2\n  mstore\n  0x20\n  add\n  0x5445535400000000000000000000000000000000000000000000000000000000\n  dup2\n  mstore\n  pop\n  0x04\n  swap1\n  dup1\n  mload\n  swap1\n  0x20\n  add\n  swap1\n  tag_3\n  swap3\n  swap2\n  swap1\n  tag_2\n  jump\t// in\ntag_3:\n  pop\n    /* \"contracts/base/ERC20Test.sol\":2240:2242  18 */\n  0x12\n    /* \"contracts/base/ERC20Test.sol\":2216:2242  uint8 public decimals = 18 */\n  0x05\n  exp(0x0100, 0x00)\n  dup2\n  sload\n  dup2\n  0xff\n  mul\n  not\n  and\n  swap1\n  dup4\n  0xff\n  and\n  mul\n  or\n  swap1\n  sstore\n  pop\n    /* \"contracts/base/ERC20Test.sol\":1815:4408  contract ERC20Impl is IERC20 {\r... */\n  callvalue\n  dup1\n  iszero\n  tag_4\n  jumpi\n  0x00\n  dup1\n  revert\ntag_4:\n  pop\n  jump(tag_5)\ntag_2:\n  dup3\n  dup1\n  sload\n  tag_6\n  swap1\n  tag_7\n  jump\t// in\ntag_6:\n  swap1\n  0x00\n  mstore\n  keccak256(0x00, 0x20)\n  swap1\n  0x1f\n  add\n  0x20\n  swap1\n  div\n  dup2\n  add\n  swap3\n  dup3\n  tag_9\n  jumpi\n  0x00\n  dup6\n  sstore\n  jump(tag_8)\ntag_9:\n  dup3\n  0x1f\n  lt\n  tag_10\n  jumpi\n  dup1\n  mload\n  not(0xff)\n  and\n  dup4\n  dup1\n  add\n  or\n  dup6\n  sstore\n  jump(tag_8)\ntag_10:\n  dup3\n  dup1\n  add\n  0x01\n  add\n  dup6\n  sstore\n  dup3\n  iszero\n  tag_8\n  jumpi\n  swap2\n  dup3\n  add\ntag_11:\n  dup3\n  dup2\n  gt\n  iszero\n  tag_12\n  jumpi\n  dup3\n  mload\n  dup3\n  sstore\n  swap2\n  0x20\n  add\n  swap2\n  swap1\n  0x01\n  add\n  swap1\n  jump(tag_11)\ntag_12:\ntag_8:\n  pop\n  swap1\n  pop\n  tag_13\n  swap2\n  swap1\n  tag_14\n  jump\t// in\ntag_13:\n  pop\n  swap1\n  jump\t// out\ntag_14:\ntag_15:\n  dup1\n  dup3\n  gt\n  iszero\n  tag_16\n  jumpi\n  0x00\n  dup2\n  0x00\n  swap1\n  sstore\n  pop\n  0x01\n  add\n  jump(tag_15)\ntag_16:\n  pop\n  swap1\n  jump\t// out\n    /* \"#utility.yul\":7:327   */\ntag_7:\n    /* \"#utility.yul\":51:57   */\n  0x00\n    /* \"#utility.yul\":88:89   */\n  0x02\n    /* \"#utility.yul\":82:86   */\n  dup3\n    /* \"#utility.yul\":78:90   */\n  div\n    /* \"#utility.yul\":68:90   */\n  swap1\n  pop\n    /* \"#utility.yul\":135:136   */\n  0x01\n    /* \"#utility.yul\":129:133   */\n  dup3\n    /* \"#utility.yul\":125:137   */\n  and\n    /* \"#utility.yul\":156:174   */\n  dup1\n    /* \"#utility.yul\":146:148   */\n  tag_19\n  jumpi\n    /* \"#utility.yul\":212:216   */\n  0x7f\n    /* \"#utility.yul\":204:210   */\n  dup3\n    /* \"#utility.yul\":200:217   */\n  and\n    /* \"#utility.yul\":190:217   */\n  swap2\n  pop\n    /* \"#utility.yul\":146:148   */\ntag_19:\n    /* \"#utility.yul\":274:276   */\n  0x20\n    /* \"#utility.yul\":266:272   */\n  dup3\n    /* \"#utility.yul\":263:277   */\n  lt\n    /* \"#utility.yul\":243:261   */\n  dup2\n    /* \"#utility.yul\":240:278   */\n  eq\n    /* \"#utility.yul\":237:239   */\n  iszero\n  tag_20\n  jumpi\n    /* \"#utility.yul\":293:311   */\n  tag_21\n  tag_22\n  jump\t// in\ntag_21:\n    /* \"#utility.yul\":237:239   */\ntag_20:\n    /* \"#utility.yul\":58:327   */\n  pop\n  swap2\n  swap1\n  pop\n  jump\t// out\n    /* \"#utility.yul\":333:513   */\ntag_22:\n    /* \"#utility.yul\":381:458   */\n  0x4e487b7100000000000000000000000000000000000000000000000000000000\n    /* \"#utility.yul\":378:379   */\n  0x00\n    /* \"#utility.yul\":371:459   */\n  mstore\n    /* \"#utility.yul\":478:482   */\n  0x22\n    /* \"#utility.yul\":475:476   */\n  0x04\n    /* \"#utility.yul\":468:483   */\n  mstore\n    /* \"#utility.yul\":502:506   */\n  0x24\n    /* \"#utility.yul\":499:500   */\n  0x00\n    /* \"#utility.yul\":492:507   */\n  revert\n    /* \"contracts/base/ERC20Test.sol\":1815:4408  contract ERC20Impl is IERC20 {\r... */\ntag_5:\n  dataSize(sub_0)\n  dup1\n  dataOffset(sub_0)\n  0x00\n  codecopy\n  0x00\n  return\nstop\n\nsub_0: assembly {\n        /* \"contracts/base/ERC20Test.sol\":1815:4408  contract ERC20Impl is IERC20 {\r... */\n      mstore(0x40, 0x80)\n      callvalue\n      dup1\n      iszero\n      tag_1\n      jumpi\n      0x00\n      dup1\n      revert\n    tag_1:\n      pop\n      jumpi(tag_2, lt(calldatasize, 0x04))\n      shr(0xe0, calldataload(0x00))\n      dup1\n      0x313ce567\n      gt\n      tag_12\n      jumpi\n      dup1\n      0x313ce567\n      eq\n      tag_7\n      jumpi\n      dup1\n      0x70a08231\n      eq\n      tag_8\n      jumpi\n      dup1\n      0x95d89b41\n      eq\n      tag_9\n      jumpi\n      dup1\n      0xa9059cbb\n      eq\n      tag_10\n      jumpi\n      dup1\n      0xdd62ed3e\n      eq\n      tag_11\n      jumpi\n      jump(tag_2)\n    tag_12:\n      dup1\n      0x06fdde03\n      eq\n      tag_3\n      jumpi\n      dup1\n      0x095ea7b3\n      eq\n      tag_4\n      jumpi\n      dup1\n      0x18160ddd\n      eq\n      tag_5\n      jumpi\n      dup1\n      0x23b872dd\n      eq\n      tag_6\n      jumpi\n    tag_2:\n      0x00\n      dup1\n      revert\n        /* \"contracts/base/ERC20Test.sol\":2133:2165  string public name = \"TestToken\" */\n    tag_3:\n      tag_13\n      tag_14\n      jump\t// in\n    tag_13:\n      mload(0x40)\n      tag_15\n      swap2\n      swap1\n      tag_16\n      jump\t// in\n    tag_15:\n      mload(0x40)\n      dup1\n      swap2\n      sub\n      swap1\n      return\n        /* \"contracts/base/ERC20Test.sol\":3268:3526  function approve(address spender, uint256 amount) checkBalanceEnough(amount) override external returns (bool){\r... */\n    tag_4:\n      tag_17\n      0x04\n      dup1\n      calldatasize\n      sub\n      dup2\n      add\n      swap1\n      tag_18\n      swap2\n      swap1\n      tag_19\n      jump\t// in\n    tag_18:\n      tag_20\n      jump\t// in\n    tag_17:\n      mload(0x40)\n      tag_21\n      swap2\n      swap1\n      tag_22\n      jump\t// in\n    tag_21:\n      mload(0x40)\n      dup1\n      swap2\n      sub\n      swap1\n      return\n        /* \"contracts/base/ERC20Test.sol\":1883:1915  uint public override totalSupply */\n    tag_5:\n      tag_23\n      tag_24\n      jump\t// in\n    tag_23:\n      mload(0x40)\n      tag_25\n      swap2\n      swap1\n      tag_26\n      jump\t// in\n    tag_25:\n      mload(0x40)\n      dup1\n      swap2\n      sub\n      swap1\n      return\n        /* \"contracts/base/ERC20Test.sol\":3930:4405  function transferFrom(address from, address to, uint256 amount) override external returns (bool){\r... */\n    tag_6:\n      tag_27\n      0x04\n      dup1\n      calldatasize\n      sub\n      dup2\n      add\n      swap1\n      tag_28\n      swap2\n      swap1\n      tag_29\n      jump\t// in\n    tag_28:\n      tag_30\n      jump\t// in\n    tag_27:\n      mload(0x40)\n      tag_31\n      swap2\n      swap1\n      tag_22\n      jump\t// in\n    tag_31:\n      mload(0x40)\n      dup1\n      swap2\n      sub\n      swap1\n      return\n        /* \"contracts/base/ERC20Test.sol\":2216:2242  uint8 public decimals = 18 */\n    tag_7:\n      tag_32\n      tag_33\n      jump\t// in\n    tag_32:\n      mload(0x40)\n      tag_34\n      swap2\n      swap1\n      tag_35\n      jump\t// in\n    tag_34:\n      mload(0x40)\n      dup1\n      swap2\n      sub\n      swap1\n      return\n        /* \"contracts/base/ERC20Test.sol\":1950:2003  mapping(address => uint256) public override balanceOf */\n    tag_8:\n      tag_36\n      0x04\n      dup1\n      calldatasize\n      sub\n      dup2\n      add\n      swap1\n      tag_37\n      swap2\n      swap1\n      tag_38\n      jump\t// in\n    tag_37:\n      tag_39\n      jump\t// in\n    tag_36:\n      mload(0x40)\n      tag_40\n      swap2\n      swap1\n      tag_26\n      jump\t// in\n    tag_40:\n      mload(0x40)\n      dup1\n      swap2\n      sub\n      swap1\n      return\n        /* \"contracts/base/ERC20Test.sol\":2176:2205  string public symbol = \"TEST\" */\n    tag_9:\n      tag_41\n      tag_42\n      jump\t// in\n    tag_41:\n      mload(0x40)\n      tag_43\n      swap2\n      swap1\n      tag_16\n      jump\t// in\n    tag_43:\n      mload(0x40)\n      dup1\n      swap2\n      sub\n      swap1\n      return\n        /* \"contracts/base/ERC20Test.sol\":2629:2941  function transfer(address recipient, uint256 amount) checkBalanceEnough(amount) override external returns(bool){\r... */\n    tag_10:\n      tag_44\n      0x04\n      dup1\n      calldatasize\n      sub\n      dup2\n      add\n      swap1\n      tag_45\n      swap2\n      swap1\n      tag_19\n      jump\t// in\n    tag_45:\n      tag_46\n      jump\t// in\n    tag_44:\n      mload(0x40)\n      tag_47\n      swap2\n      swap1\n      tag_22\n      jump\t// in\n    tag_47:\n      mload(0x40)\n      dup1\n      swap2\n      sub\n      swap1\n      return\n        /* \"contracts/base/ERC20Test.sol\":2047:2120  mapping(address => mapping(address => uint256)) public override allowance */\n    tag_11:\n      tag_48\n      0x04\n      dup1\n      calldatasize\n      sub\n      dup2\n      add\n      swap1\n      tag_49\n      swap2\n      swap1\n      tag_50\n      jump\t// in\n    tag_49:\n      tag_51\n      jump\t// in\n    tag_48:\n      mload(0x40)\n      tag_52\n      swap2\n      swap1\n      tag_26\n      jump\t// in\n    tag_52:\n      mload(0x40)\n      dup1\n      swap2\n      sub\n      swap1\n      return\n        /* \"contracts/base/ERC20Test.sol\":2133:2165  string public name = \"TestToken\" */\n    tag_14:\n      0x03\n      dup1\n      sload\n      tag_53\n      swap1\n      tag_54\n      jump\t// in\n    tag_53:\n      dup1\n      0x1f\n      add\n      0x20\n      dup1\n      swap2\n      div\n      mul\n      0x20\n      add\n      mload(0x40)\n      swap1\n      dup2\n      add\n      0x40\n      mstore\n      dup1\n      swap3\n      swap2\n      swap1\n      dup2\n      dup2\n      mstore\n      0x20\n      add\n      dup3\n      dup1\n      sload\n      tag_55\n      swap1\n      tag_54\n      jump\t// in\n    tag_55:\n      dup1\n      iszero\n      tag_56\n      jumpi\n      dup1\n      0x1f\n      lt\n      tag_57\n      jumpi\n      0x0100\n      dup1\n      dup4\n      sload\n      div\n      mul\n      dup4\n      mstore\n      swap2\n      0x20\n      add\n      swap2\n      jump(tag_56)\n    tag_57:\n      dup3\n      add\n      swap2\n      swap1\n      0x00\n      mstore\n      keccak256(0x00, 0x20)\n      swap1\n    tag_58:\n      dup2\n      sload\n      dup2\n      mstore\n      swap1\n      0x01\n      add\n      swap1\n      0x20\n      add\n      dup1\n      dup4\n      gt\n      tag_58\n      jumpi\n      dup3\n      swap1\n      sub\n      0x1f\n      and\n      dup3\n      add\n      swap2\n    tag_56:\n      pop\n      pop\n      pop\n      pop\n      pop\n      dup2\n      jump\t// out\n        /* \"contracts/base/ERC20Test.sol\":3268:3526  function approve(address spender, uint256 amount) checkBalanceEnough(amount) override external returns (bool){\r... */\n    tag_20:\n        /* \"contracts/base/ERC20Test.sol\":3372:3376  bool */\n      0x00\n        /* \"contracts/base/ERC20Test.sol\":3337:3343  amount */\n      dup2\n        /* \"contracts/base/ERC20Test.sol\":2347:2353  amount */\n      dup1\n        /* \"contracts/base/ERC20Test.sol\":2322:2331  balanceOf */\n      0x01\n        /* \"contracts/base/ERC20Test.sol\":2322:2343  balanceOf[msg.sender] */\n      0x00\n        /* \"contracts/base/ERC20Test.sol\":2332:2342  msg.sender */\n      caller\n        /* \"contracts/base/ERC20Test.sol\":2322:2343  balanceOf[msg.sender] */\n      0xffffffffffffffffffffffffffffffffffffffff\n      and\n      0xffffffffffffffffffffffffffffffffffffffff\n      and\n      dup2\n      mstore\n      0x20\n      add\n      swap1\n      dup2\n      mstore\n      0x20\n      add\n      0x00\n      keccak256\n      sload\n        /* \"contracts/base/ERC20Test.sol\":2322:2353  balanceOf[msg.sender] >= amount */\n      lt\n      iszero\n        /* \"contracts/base/ERC20Test.sol\":2314:2379  require(balanceOf[msg.sender] >= amount, \"balance is not enough\") */\n      tag_60\n      jumpi\n      mload(0x40)\n      0x08c379a000000000000000000000000000000000000000000000000000000000\n      dup2\n      mstore\n      0x04\n      add\n      tag_61\n      swap1\n      tag_62\n      jump\t// in\n    tag_61:\n      mload(0x40)\n      dup1\n      swap2\n      sub\n      swap1\n      revert\n    tag_60:\n        /* \"contracts/base/ERC20Test.sol\":3425:3431  amount */\n      dup3\n        /* \"contracts/base/ERC20Test.sol\":3392:3401  allowance */\n      0x02\n        /* \"contracts/base/ERC20Test.sol\":3392:3413  allowance[msg.sender] */\n      0x00\n        /* \"contracts/base/ERC20Test.sol\":3402:3412  msg.sender */\n      caller\n        /* \"contracts/base/ERC20Test.sol\":3392:3413  allowance[msg.sender] */\n      0xffffffffffffffffffffffffffffffffffffffff\n      and\n      0xffffffffffffffffffffffffffffffffffffffff\n      and\n      dup2\n      mstore\n      0x20\n      add\n      swap1\n      dup2\n      mstore\n      0x20\n      add\n      0x00\n      keccak256\n        /* \"contracts/base/ERC20Test.sol\":3392:3422  allowance[msg.sender][spender] */\n      0x00\n        /* \"contracts/base/ERC20Test.sol\":3414:3421  spender */\n      dup7\n        /* \"contracts/base/ERC20Test.sol\":3392:3422  allowance[msg.sender][spender] */\n      0xffffffffffffffffffffffffffffffffffffffff\n      and\n      0xffffffffffffffffffffffffffffffffffffffff\n      and\n      dup2\n      mstore\n      0x20\n      add\n      swap1\n      dup2\n      mstore\n      0x20\n      add\n      0x00\n      keccak256\n        /* \"contracts/base/ERC20Test.sol\":3392:3431  allowance[msg.sender][spender] = amount */\n      dup2\n      swap1\n      sstore\n      pop\n        /* \"contracts/base/ERC20Test.sol\":3472:3479  spender */\n      dup4\n        /* \"contracts/base/ERC20Test.sol\":3451:3488  Approval(msg.sender, spender, amount) */\n      0xffffffffffffffffffffffffffffffffffffffff\n      and\n        /* \"contracts/base/ERC20Test.sol\":3460:3470  msg.sender */\n      caller\n        /* \"contracts/base/ERC20Test.sol\":3451:3488  Approval(msg.sender, spender, amount) */\n      0xffffffffffffffffffffffffffffffffffffffff\n      and\n      0x8c5be1e5ebec7d5bd14f71427d1e84f3dd0314c0f7b2291e5b200ac8c7c3b925\n        /* \"contracts/base/ERC20Test.sol\":3481:3487  amount */\n      dup6\n        /* \"contracts/base/ERC20Test.sol\":3451:3488  Approval(msg.sender, spender, amount) */\n      mload(0x40)\n      tag_64\n      swap2\n      swap1\n      tag_26\n      jump\t// in\n    tag_64:\n      mload(0x40)\n      dup1\n      swap2\n      sub\n      swap1\n      log3\n        /* \"contracts/base/ERC20Test.sol\":3510:3514  true */\n      0x01\n        /* \"contracts/base/ERC20Test.sol\":3503:3514  return true */\n      swap2\n      pop\n        /* \"contracts/base/ERC20Test.sol\":3268:3526  function approve(address spender, uint256 amount) checkBalanceEnough(amount) override external returns (bool){\r... */\n      pop\n      swap3\n      swap2\n      pop\n      pop\n      jump\t// out\n        /* \"contracts/base/ERC20Test.sol\":1883:1915  uint public override totalSupply */\n    tag_24:\n      sload(0x00)\n      dup2\n      jump\t// out\n        /* \"contracts/base/ERC20Test.sol\":3930:4405  function transferFrom(address from, address to, uint256 amount) override external returns (bool){\r... */\n    tag_30:\n        /* \"contracts/base/ERC20Test.sol\":4021:4025  bool */\n      0x00\n        /* \"contracts/base/ERC20Test.sol\":4069:4075  amount */\n      dup2\n        /* \"contracts/base/ERC20Test.sol\":4050:4059  balanceOf */\n      0x01\n        /* \"contracts/base/ERC20Test.sol\":4050:4065  balanceOf[from] */\n      0x00\n        /* \"contracts/base/ERC20Test.sol\":4060:4064  from */\n      dup7\n        /* \"contracts/base/ERC20Test.sol\":4050:4065  balanceOf[from] */\n      0xffffffffffffffffffffffffffffffffffffffff\n      and\n      0xffffffffffffffffffffffffffffffffffffffff\n      and\n      dup2\n      mstore\n      0x20\n      add\n      swap1\n      dup2\n      mstore\n      0x20\n      add\n      0x00\n      keccak256\n      sload\n        /* \"contracts/base/ERC20Test.sol\":4050:4075  balanceOf[from] >= amount */\n      lt\n      iszero\n        /* \"contracts/base/ERC20Test.sol\":4042:4101  require(balanceOf[from] >= amount, \"balance is not enough\") */\n      tag_66\n      jumpi\n      mload(0x40)\n      0x08c379a000000000000000000000000000000000000000000000000000000000\n      dup2\n      mstore\n      0x04\n      add\n      tag_67\n      swap1\n      tag_62\n      jump\t// in\n    tag_67:\n      mload(0x40)\n      dup1\n      swap2\n      sub\n      swap1\n      revert\n    tag_66:\n        /* \"contracts/base/ERC20Test.sol\":4156:4162  amount */\n      dup2\n        /* \"contracts/base/ERC20Test.sol\":4125:4134  allowance */\n      0x02\n        /* \"contracts/base/ERC20Test.sol\":4125:4140  allowance[from] */\n      0x00\n        /* \"contracts/base/ERC20Test.sol\":4135:4139  from */\n      dup7\n        /* \"contracts/base/ERC20Test.sol\":4125:4140  allowance[from] */\n      0xffffffffffffffffffffffffffffffffffffffff\n      and\n      0xffffffffffffffffffffffffffffffffffffffff\n      and\n      dup2\n      mstore\n      0x20\n      add\n      swap1\n      dup2\n      mstore\n      0x20\n      add\n      0x00\n      keccak256\n        /* \"contracts/base/ERC20Test.sol\":4125:4152  allowance[from][msg.sender] */\n      0x00\n        /* \"contracts/base/ERC20Test.sol\":4141:4151  msg.sender */\n      caller\n        /* \"contracts/base/ERC20Test.sol\":4125:4152  allowance[from][msg.sender] */\n      0xffffffffffffffffffffffffffffffffffffffff\n      and\n      0xffffffffffffffffffffffffffffffffffffffff\n      and\n      dup2\n      mstore\n      0x20\n      add\n      swap1\n      dup2\n      mstore\n      0x20\n      add\n      0x00\n      keccak256\n      sload\n        /* \"contracts/base/ERC20Test.sol\":4125:4162  allowance[from][msg.sender] >= amount */\n      lt\n      iszero\n        /* \"contracts/base/ERC20Test.sol\":4117:4185  require(allowance[from][msg.sender] >= amount, \"Allowance exceeded\") */\n      tag_68\n      jumpi\n      mload(0x40)\n      0x08c379a000000000000000000000000000000000000000000000000000000000\n      dup2\n      mstore\n      0x04\n      add\n      tag_69\n      swap1\n      tag_70\n      jump\t// in\n    tag_69:\n      mload(0x40)\n      dup1\n      swap2\n      sub\n      swap1\n      revert\n    tag_68:\n        /* \"contracts/base/ERC20Test.sol\":4220:4226  amount */\n      dup2\n        /* \"contracts/base/ERC20Test.sol\":4201:4210  balanceOf */\n      0x01\n        /* \"contracts/base/ERC20Test.sol\":4201:4216  balanceOf[from] */\n      0x00\n        /* \"contracts/base/ERC20Test.sol\":4211:4215  from */\n      dup7\n        /* \"contracts/base/ERC20Test.sol\":4201:4216  balanceOf[from] */\n      0xffffffffffffffffffffffffffffffffffffffff\n      and\n      0xffffffffffffffffffffffffffffffffffffffff\n      and\n      dup2\n      mstore\n      0x20\n      add\n      swap1\n      dup2\n      mstore\n      0x20\n      add\n      0x00\n      keccak256\n      0x00\n        /* \"contracts/base/ERC20Test.sol\":4201:4226  balanceOf[from] -= amount */\n      dup3\n      dup3\n      sload\n      tag_71\n      swap2\n      swap1\n      tag_72\n      jump\t// in\n    tag_71:\n      swap3\n      pop\n      pop\n      dup2\n      swap1\n      sstore\n      pop\n        /* \"contracts/base/ERC20Test.sol\":4260:4266  amount */\n      dup2\n        /* \"contracts/base/ERC20Test.sol\":4243:4252  balanceOf */\n      0x01\n        /* \"contracts/base/ERC20Test.sol\":4243:4256  balanceOf[to] */\n      0x00\n        /* \"contracts/base/ERC20Test.sol\":4253:4255  to */\n      dup6\n        /* \"contracts/base/ERC20Test.sol\":4243:4256  balanceOf[to] */\n      0xffffffffffffffffffffffffffffffffffffffff\n      and\n      0xffffffffffffffffffffffffffffffffffffffff\n      and\n      dup2\n      mstore\n      0x20\n      add\n      swap1\n      dup2\n      mstore\n      0x20\n      add\n      0x00\n      keccak256\n      0x00\n        /* \"contracts/base/ERC20Test.sol\":4243:4266  balanceOf[to] += amount */\n      dup3\n      dup3\n      sload\n      tag_73\n      swap2\n      swap1\n      tag_74\n      jump\t// in\n    tag_73:\n      swap3\n      pop\n      pop\n      dup2\n      swap1\n      sstore\n      pop\n        /* \"contracts/base/ERC20Test.sol\":4313:4319  amount */\n      dup2\n        /* \"contracts/base/ERC20Test.sol\":4282:4291  allowance */\n      0x02\n        /* \"contracts/base/ERC20Test.sol\":4282:4297  allowance[from] */\n      0x00\n        /* \"contracts/base/ERC20Test.sol\":4292:4296  from */\n      dup7\n        /* \"contracts/base/ERC20Test.sol\":4282:4297  allowance[from] */\n      0xffffffffffffffffffffffffffffffffffffffff\n      and\n      0xffffffffffffffffffffffffffffffffffffffff\n      and\n      dup2\n      mstore\n      0x20\n      add\n      swap1\n      dup2\n      mstore\n      0x20\n      add\n      0x00\n      keccak256\n        /* \"contracts/base/ERC20Test.sol\":4282:4309  allowance[from][msg.sender] */\n      0x00\n        /* \"contracts/base/ERC20Test.sol\":4298:4308  msg.sender */\n      caller\n        /* \"contracts/base/ERC20Test.sol\":4282:4309  allowance[from][msg.sender] */\n      0xffffffffffffffffffffffffffffffffffffffff\n      and\n      0xffffffffffffffffffffffffffffffffffffffff\n      and\n      dup2\n      mstore\n      0x20\n      add\n      swap1\n      dup2\n      mstore\n      0x20\n      add\n      0x00\n      keccak256\n      0x00\n        /* \"contracts/base/ERC20Test.sol\":4282:4319  allowance[from][msg.sender] -= amount */\n      dup3\n      dup3\n      sload\n      tag_75\n      swap2\n      swap1\n      tag_72\n      jump\t// in\n    tag_75:\n      swap3\n      pop\n      pop\n      dup2\n      swap1\n      sstore\n      pop\n        /* \"contracts/base/ERC20Test.sol\":4355:4357  to */\n      dup3\n        /* \"contracts/base/ERC20Test.sol\":4340:4366  Transfer(from, to, amount) */\n      0xffffffffffffffffffffffffffffffffffffffff\n      and\n        /* \"contracts/base/ERC20Test.sol\":4349:4353  from */\n      dup5\n        /* \"contracts/base/ERC20Test.sol\":4340:4366  Transfer(from, to, amount) */\n      0xffffffffffffffffffffffffffffffffffffffff\n      and\n      0xddf252ad1be2c89b69c2b068fc378daa952ba7f163c4a11628f55a4df523b3ef\n        /* \"contracts/base/ERC20Test.sol\":4359:4365  amount */\n      dup5\n        /* \"contracts/base/ERC20Test.sol\":4340:4366  Transfer(from, to, amount) */\n      mload(0x40)\n      tag_76\n      swap2\n      swap1\n      tag_26\n      jump\t// in\n    tag_76:\n      mload(0x40)\n      dup1\n      swap2\n      sub\n      swap1\n      log3\n        /* \"contracts/base/ERC20Test.sol\":4389:4393  true */\n      0x01\n        /* \"contracts/base/ERC20Test.sol\":4382:4393  return true */\n      swap1\n      pop\n        /* \"contracts/base/ERC20Test.sol\":3930:4405  function transferFrom(address from, address to, uint256 amount) override external returns (bool){\r... */\n      swap4\n      swap3\n      pop\n      pop\n      pop\n      jump\t// out\n        /* \"contracts/base/ERC20Test.sol\":2216:2242  uint8 public decimals = 18 */\n    tag_33:\n      0x05\n      0x00\n      swap1\n      sload\n      swap1\n      0x0100\n      exp\n      swap1\n      div\n      0xff\n      and\n      dup2\n      jump\t// out\n        /* \"contracts/base/ERC20Test.sol\":1950:2003  mapping(address => uint256) public override balanceOf */\n    tag_39:\n      mstore(0x20, 0x01)\n      dup1\n      0x00\n      mstore\n      keccak256(0x00, 0x40)\n      0x00\n      swap2\n      pop\n      swap1\n      pop\n      sload\n      dup2\n      jump\t// out\n        /* \"contracts/base/ERC20Test.sol\":2176:2205  string public symbol = \"TEST\" */\n    tag_42:\n      0x04\n      dup1\n      sload\n      tag_77\n      swap1\n      tag_54\n      jump\t// in\n    tag_77:\n      dup1\n      0x1f\n      add\n      0x20\n      dup1\n      swap2\n      div\n      mul\n      0x20\n      add\n      mload(0x40)\n      swap1\n      dup2\n      add\n      0x40\n      mstore\n      dup1\n      swap3\n      swap2\n      swap1\n      dup2\n      dup2\n      mstore\n      0x20\n      add\n      dup3\n      dup1\n      sload\n      tag_78\n      swap1\n      tag_54\n      jump\t// in\n    tag_78:\n      dup1\n      iszero\n      tag_79\n      jumpi\n      dup1\n      0x1f\n      lt\n      tag_80\n      jumpi\n      0x0100\n      dup1\n      dup4\n      sload\n      div\n      mul\n      dup4\n      mstore\n      swap2\n      0x20\n      add\n      swap2\n      jump(tag_79)\n    tag_80:\n      dup3\n      add\n      swap2\n      swap1\n      0x00\n      mstore\n      keccak256(0x00, 0x20)\n      swap1\n    tag_81:\n      dup2\n      sload\n      dup2\n      mstore\n      swap1\n      0x01\n      add\n      swap1\n      0x20\n      add\n      dup1\n      dup4\n      gt\n      tag_81\n      jumpi\n      dup3\n      swap1\n      sub\n      0x1f\n      and\n      dup3\n      add\n      swap2\n    tag_79:\n      pop\n      pop\n      pop\n      pop\n      pop\n      dup2\n      jump\t// out\n        /* \"contracts/base/ERC20Test.sol\":2629:2941  function transfer(address recipient, uint256 amount) checkBalanceEnough(amount) override external returns(bool){\r... */\n    tag_46:\n        /* \"contracts/base/ERC20Test.sol\":2735:2739  bool */\n      0x00\n        /* \"contracts/base/ERC20Test.sol\":2701:2707  amount */\n      dup2\n        /* \"contracts/base/ERC20Test.sol\":2347:2353  amount */\n      dup1\n        /* \"contracts/base/ERC20Test.sol\":2322:2331  balanceOf */\n      0x01\n        /* \"contracts/base/ERC20Test.sol\":2322:2343  balanceOf[msg.sender] */\n      0x00\n        /* \"contracts/base/ERC20Test.sol\":2332:2342  msg.sender */\n      caller\n        /* \"contracts/base/ERC20Test.sol\":2322:2343  balanceOf[msg.sender] */\n      0xffffffffffffffffffffffffffffffffffffffff\n      and\n      0xffffffffffffffffffffffffffffffffffffffff\n      and\n      dup2\n      mstore\n      0x20\n      add\n      swap1\n      dup2\n      mstore\n      0x20\n      add\n      0x00\n      keccak256\n      sload\n        /* \"contracts/base/ERC20Test.sol\":2322:2353  balanceOf[msg.sender] >= amount */\n      lt\n      iszero\n        /* \"contracts/base/ERC20Test.sol\":2314:2379  require(balanceOf[msg.sender] >= amount, \"balance is not enough\") */\n      tag_83\n      jumpi\n      mload(0x40)\n      0x08c379a000000000000000000000000000000000000000000000000000000000\n      dup2\n      mstore\n      0x04\n      add\n      tag_84\n      swap1\n      tag_62\n      jump\t// in\n    tag_84:\n      mload(0x40)\n      dup1\n      swap2\n      sub\n      swap1\n      revert\n    tag_83:\n        /* \"contracts/base/ERC20Test.sol\":2793:2799  amount */\n      dup3\n        /* \"contracts/base/ERC20Test.sol\":2768:2777  balanceOf */\n      0x01\n        /* \"contracts/base/ERC20Test.sol\":2768:2789  balanceOf[msg.sender] */\n      0x00\n        /* \"contracts/base/ERC20Test.sol\":2778:2788  msg.sender */\n      caller\n        /* \"contracts/base/ERC20Test.sol\":2768:2789  balanceOf[msg.sender] */\n      0xffffffffffffffffffffffffffffffffffffffff\n      and\n      0xffffffffffffffffffffffffffffffffffffffff\n      and\n      dup2\n      mstore\n      0x20\n      add\n      swap1\n      dup2\n      mstore\n      0x20\n      add\n      0x00\n      keccak256\n      0x00\n        /* \"contracts/base/ERC20Test.sol\":2768:2799  balanceOf[msg.sender] -= amount */\n      dup3\n      dup3\n      sload\n      tag_86\n      swap2\n      swap1\n      tag_72\n      jump\t// in\n    tag_86:\n      swap3\n      pop\n      pop\n      dup2\n      swap1\n      sstore\n      pop\n        /* \"contracts/base/ERC20Test.sol\":2838:2844  amount */\n      dup3\n        /* \"contracts/base/ERC20Test.sol\":2814:2823  balanceOf */\n      0x01\n        /* \"contracts/base/ERC20Test.sol\":2814:2834  balanceOf[recipient] */\n      0x00\n        /* \"contracts/base/ERC20Test.sol\":2824:2833  recipient */\n      dup7\n        /* \"contracts/base/ERC20Test.sol\":2814:2834  balanceOf[recipient] */\n      0xffffffffffffffffffffffffffffffffffffffff\n      and\n      0xffffffffffffffffffffffffffffffffffffffff\n      and\n      dup2\n      mstore\n      0x20\n      add\n      swap1\n      dup2\n      mstore\n      0x20\n      add\n      0x00\n      keccak256\n      0x00\n        /* \"contracts/base/ERC20Test.sol\":2814:2844  balanceOf[recipient] += amount */\n      dup3\n      dup3\n      sload\n      tag_87\n      swap2\n      swap1\n      tag_74\n      jump\t// in\n    tag_87:\n      swap3\n      pop\n      pop\n      dup2\n      swap1\n      sstore\n      pop\n        /* \"contracts/base/ERC20Test.sol\":2885:2894  recipient */\n      dup4\n        /* \"contracts/base/ERC20Test.sol\":2864:2903  Transfer(msg.sender, recipient, amount) */\n      0xffffffffffffffffffffffffffffffffffffffff\n      and\n        /* \"contracts/base/ERC20Test.sol\":2873:2883  msg.sender */\n      caller\n        /* \"contracts/base/ERC20Test.sol\":2864:2903  Transfer(msg.sender, recipient, amount) */\n      0xffffffffffffffffffffffffffffffffffffffff\n      and\n      0xddf252ad1be2c89b69c2b068fc378daa952ba7f163c4a11628f55a4df523b3ef\n        /* \"contracts/base/ERC20Test.sol\":2896:2902  amount */\n      dup6\n        /* \"contracts/base/ERC20Test.sol\":2864:2903  Transfer(msg.sender, recipient, amount) */\n      mload(0x40)\n      tag_88\n      swap2\n      swap1\n      tag_26\n      jump\t// in\n    tag_88:\n      mload(0x40)\n      dup1\n      swap2\n      sub\n      swap1\n      log3\n        /* \"contracts/base/ERC20Test.sol\":2925:2929  true */\n      0x01\n        /* \"contracts/base/ERC20Test.sol\":2918:2929  return true */\n      swap2\n      pop\n        /* \"contracts/base/ERC20Test.sol\":2629:2941  function transfer(address recipient, uint256 amount) checkBalanceEnough(amount) override external returns(bool){\r... */\n      pop\n      swap3\n      swap2\n      pop\n      pop\n      jump\t// out\n        /* \"contracts/base/ERC20Test.sol\":2047:2120  mapping(address => mapping(address => uint256)) public override allowance */\n    tag_51:\n      mstore(0x20, 0x02)\n      dup2\n      0x00\n      mstore\n      mstore(0x20, keccak256(0x00, 0x40))\n      dup1\n      0x00\n      mstore\n      keccak256(0x00, 0x40)\n      0x00\n      swap2\n      pop\n      swap2\n      pop\n      pop\n      sload\n      dup2\n      jump\t// out\n        /* \"#utility.yul\":7:146   */\n    tag_90:\n        /* \"#utility.yul\":53:58   */\n      0x00\n        /* \"#utility.yul\":91:97   */\n      dup2\n        /* \"#utility.yul\":78:98   */\n      calldataload\n        /* \"#utility.yul\":69:98   */\n      swap1\n      pop\n        /* \"#utility.yul\":107:140   */\n      tag_92\n        /* \"#utility.yul\":134:139   */\n      dup2\n        /* \"#utility.yul\":107:140   */\n      tag_93\n      jump\t// in\n    tag_92:\n        /* \"#utility.yul\":59:146   */\n      swap3\n      swap2\n      pop\n      pop\n      jump\t// out\n        /* \"#utility.yul\":152:291   */\n    tag_94:\n        /* \"#utility.yul\":198:203   */\n      0x00\n        /* \"#utility.yul\":236:242   */\n      dup2\n        /* \"#utility.yul\":223:243   */\n      calldataload\n        /* \"#utility.yul\":214:243   */\n      swap1\n      pop\n        /* \"#utility.yul\":252:285   */\n      tag_96\n        /* \"#utility.yul\":279:284   */\n      dup2\n        /* \"#utility.yul\":252:285   */\n      tag_97\n      jump\t// in\n    tag_96:\n        /* \"#utility.yul\":204:291   */\n      swap3\n      swap2\n      pop\n      pop\n      jump\t// out\n        /* \"#utility.yul\":297:559   */\n    tag_38:\n        /* \"#utility.yul\":356:362   */\n      0x00\n        /* \"#utility.yul\":405:407   */\n      0x20\n        /* \"#utility.yul\":393:402   */\n      dup3\n        /* \"#utility.yul\":384:391   */\n      dup5\n        /* \"#utility.yul\":380:403   */\n      sub\n        /* \"#utility.yul\":376:408   */\n      slt\n        /* \"#utility.yul\":373:375   */\n      iszero\n      tag_99\n      jumpi\n        /* \"#utility.yul\":421:422   */\n      0x00\n        /* \"#utility.yul\":418:419   */\n      dup1\n        /* \"#utility.yul\":411:423   */\n      revert\n        /* \"#utility.yul\":373:375   */\n    tag_99:\n        /* \"#utility.yul\":464:465   */\n      0x00\n        /* \"#utility.yul\":489:542   */\n      tag_100\n        /* \"#utility.yul\":534:541   */\n      dup5\n        /* \"#utility.yul\":525:531   */\n      dup3\n        /* \"#utility.yul\":514:523   */\n      dup6\n        /* \"#utility.yul\":510:532   */\n      add\n        /* \"#utility.yul\":489:542   */\n      tag_90\n      jump\t// in\n    tag_100:\n        /* \"#utility.yul\":479:542   */\n      swap2\n      pop\n        /* \"#utility.yul\":435:552   */\n      pop\n        /* \"#utility.yul\":363:559   */\n      swap3\n      swap2\n      pop\n      pop\n      jump\t// out\n        /* \"#utility.yul\":565:972   */\n    tag_50:\n        /* \"#utility.yul\":633:639   */\n      0x00\n        /* \"#utility.yul\":641:647   */\n      dup1\n        /* \"#utility.yul\":690:692   */\n      0x40\n        /* \"#utility.yul\":678:687   */\n      dup4\n        /* \"#utility.yul\":669:676   */\n      dup6\n        /* \"#utility.yul\":665:688   */\n      sub\n        /* \"#utility.yul\":661:693   */\n      slt\n        /* \"#utility.yul\":658:660   */\n      iszero\n      tag_102\n      jumpi\n        /* \"#utility.yul\":706:707   */\n      0x00\n        /* \"#utility.yul\":703:704   */\n      dup1\n        /* \"#utility.yul\":696:708   */\n      revert\n        /* \"#utility.yul\":658:660   */\n    tag_102:\n        /* \"#utility.yul\":749:750   */\n      0x00\n        /* \"#utility.yul\":774:827   */\n      tag_103\n        /* \"#utility.yul\":819:826   */\n      dup6\n        /* \"#utility.yul\":810:816   */\n      dup3\n        /* \"#utility.yul\":799:808   */\n      dup7\n        /* \"#utility.yul\":795:817   */\n      add\n        /* \"#utility.yul\":774:827   */\n      tag_90\n      jump\t// in\n    tag_103:\n        /* \"#utility.yul\":764:827   */\n      swap3\n      pop\n        /* \"#utility.yul\":720:837   */\n      pop\n        /* \"#utility.yul\":876:878   */\n      0x20\n        /* \"#utility.yul\":902:955   */\n      tag_104\n        /* \"#utility.yul\":947:954   */\n      dup6\n        /* \"#utility.yul\":938:944   */\n      dup3\n        /* \"#utility.yul\":927:936   */\n      dup7\n        /* \"#utility.yul\":923:945   */\n      add\n        /* \"#utility.yul\":902:955   */\n      tag_90\n      jump\t// in\n    tag_104:\n        /* \"#utility.yul\":892:955   */\n      swap2\n      pop\n        /* \"#utility.yul\":847:965   */\n      pop\n        /* \"#utility.yul\":648:972   */\n      swap3\n      pop\n      swap3\n      swap1\n      pop\n      jump\t// out\n        /* \"#utility.yul\":978:1530   */\n    tag_29:\n        /* \"#utility.yul\":1055:1061   */\n      0x00\n        /* \"#utility.yul\":1063:1069   */\n      dup1\n        /* \"#utility.yul\":1071:1077   */\n      0x00\n        /* \"#utility.yul\":1120:1122   */\n      0x60\n        /* \"#utility.yul\":1108:1117   */\n      dup5\n        /* \"#utility.yul\":1099:1106   */\n      dup7\n        /* \"#utility.yul\":1095:1118   */\n      sub\n        /* \"#utility.yul\":1091:1123   */\n      slt\n        /* \"#utility.yul\":1088:1090   */\n      iszero\n      tag_106\n      jumpi\n        /* \"#utility.yul\":1136:1137   */\n      0x00\n        /* \"#utility.yul\":1133:1134   */\n      dup1\n        /* \"#utility.yul\":1126:1138   */\n      revert\n        /* \"#utility.yul\":1088:1090   */\n    tag_106:\n        /* \"#utility.yul\":1179:1180   */\n      0x00\n        /* \"#utility.yul\":1204:1257   */\n      tag_107\n        /* \"#utility.yul\":1249:1256   */\n      dup7\n        /* \"#utility.yul\":1240:1246   */\n      dup3\n        /* \"#utility.yul\":1229:1238   */\n      dup8\n        /* \"#utility.yul\":1225:1247   */\n      add\n        /* \"#utility.yul\":1204:1257   */\n      tag_90\n      jump\t// in\n    tag_107:\n        /* \"#utility.yul\":1194:1257   */\n      swap4\n      pop\n        /* \"#utility.yul\":1150:1267   */\n      pop\n        /* \"#utility.yul\":1306:1308   */\n      0x20\n        /* \"#utility.yul\":1332:1385   */\n      tag_108\n        /* \"#utility.yul\":1377:1384   */\n      dup7\n        /* \"#utility.yul\":1368:1374   */\n      dup3\n        /* \"#utility.yul\":1357:1366   */\n      dup8\n        /* \"#utility.yul\":1353:1375   */\n      add\n        /* \"#utility.yul\":1332:1385   */\n      tag_90\n      jump\t// in\n    tag_108:\n        /* \"#utility.yul\":1322:1385   */\n      swap3\n      pop\n        /* \"#utility.yul\":1277:1395   */\n      pop\n        /* \"#utility.yul\":1434:1436   */\n      0x40\n        /* \"#utility.yul\":1460:1513   */\n      tag_109\n        /* \"#utility.yul\":1505:1512   */\n      dup7\n        /* \"#utility.yul\":1496:1502   */\n      dup3\n        /* \"#utility.yul\":1485:1494   */\n      dup8\n        /* \"#utility.yul\":1481:1503   */\n      add\n        /* \"#utility.yul\":1460:1513   */\n      tag_94\n      jump\t// in\n    tag_109:\n        /* \"#utility.yul\":1450:1513   */\n      swap2\n      pop\n        /* \"#utility.yul\":1405:1523   */\n      pop\n        /* \"#utility.yul\":1078:1530   */\n      swap3\n      pop\n      swap3\n      pop\n      swap3\n      jump\t// out\n        /* \"#utility.yul\":1536:1943   */\n    tag_19:\n        /* \"#utility.yul\":1604:1610   */\n      0x00\n        /* \"#utility.yul\":1612:1618   */\n      dup1\n        /* \"#utility.yul\":1661:1663   */\n      0x40\n        /* \"#utility.yul\":1649:1658   */\n      dup4\n        /* \"#utility.yul\":1640:1647   */\n      dup6\n        /* \"#utility.yul\":1636:1659   */\n      sub\n        /* \"#utility.yul\":1632:1664   */\n      slt\n        /* \"#utility.yul\":1629:1631   */\n      iszero\n      tag_111\n      jumpi\n        /* \"#utility.yul\":1677:1678   */\n      0x00\n        /* \"#utility.yul\":1674:1675   */\n      dup1\n        /* \"#utility.yul\":1667:1679   */\n      revert\n        /* \"#utility.yul\":1629:1631   */\n    tag_111:\n        /* \"#utility.yul\":1720:1721   */\n      0x00\n        /* \"#utility.yul\":1745:1798   */\n      tag_112\n        /* \"#utility.yul\":1790:1797   */\n      dup6\n        /* \"#utility.yul\":1781:1787   */\n      dup3\n        /* \"#utility.yul\":1770:1779   */\n      dup7\n        /* \"#utility.yul\":1766:1788   */\n      add\n        /* \"#utility.yul\":1745:1798   */\n      tag_90\n      jump\t// in\n    tag_112:\n        /* \"#utility.yul\":1735:1798   */\n      swap3\n      pop\n        /* \"#utility.yul\":1691:1808   */\n      pop\n        /* \"#utility.yul\":1847:1849   */\n      0x20\n        /* \"#utility.yul\":1873:1926   */\n      tag_113\n        /* \"#utility.yul\":1918:1925   */\n      dup6\n        /* \"#utility.yul\":1909:1915   */\n      dup3\n        /* \"#utility.yul\":1898:1907   */\n      dup7\n        /* \"#utility.yul\":1894:1916   */\n      add\n        /* \"#utility.yul\":1873:1926   */\n      tag_94\n      jump\t// in\n    tag_113:\n        /* \"#utility.yul\":1863:1926   */\n      swap2\n      pop\n        /* \"#utility.yul\":1818:1936   */\n      pop\n        /* \"#utility.yul\":1619:1943   */\n      swap3\n      pop\n      swap3\n      swap1\n      pop\n      jump\t// out\n        /* \"#utility.yul\":1949:2058   */\n    tag_114:\n        /* \"#utility.yul\":2030:2051   */\n      tag_116\n        /* \"#utility.yul\":2045:2050   */\n      dup2\n        /* \"#utility.yul\":2030:2051   */\n      tag_117\n      jump\t// in\n    tag_116:\n        /* \"#utility.yul\":2025:2028   */\n      dup3\n        /* \"#utility.yul\":2018:2052   */\n      mstore\n        /* \"#utility.yul\":2008:2058   */\n      pop\n      pop\n      jump\t// out\n        /* \"#utility.yul\":2064:2428   */\n    tag_118:\n        /* \"#utility.yul\":2152:2155   */\n      0x00\n        /* \"#utility.yul\":2180:2219   */\n      tag_120\n        /* \"#utility.yul\":2213:2218   */\n      dup3\n        /* \"#utility.yul\":2180:2219   */\n      tag_121\n      jump\t// in\n    tag_120:\n        /* \"#utility.yul\":2235:2306   */\n      tag_122\n        /* \"#utility.yul\":2299:2305   */\n      dup2\n        /* \"#utility.yul\":2294:2297   */\n      dup6\n        /* \"#utility.yul\":2235:2306   */\n      tag_123\n      jump\t// in\n    tag_122:\n        /* \"#utility.yul\":2228:2306   */\n      swap4\n      pop\n        /* \"#utility.yul\":2315:2367   */\n      tag_124\n        /* \"#utility.yul\":2360:2366   */\n      dup2\n        /* \"#utility.yul\":2355:2358   */\n      dup6\n        /* \"#utility.yul\":2348:2352   */\n      0x20\n        /* \"#utility.yul\":2341:2346   */\n      dup7\n        /* \"#utility.yul\":2337:2353   */\n      add\n        /* \"#utility.yul\":2315:2367   */\n      tag_125\n      jump\t// in\n    tag_124:\n        /* \"#utility.yul\":2392:2421   */\n      tag_126\n        /* \"#utility.yul\":2414:2420   */\n      dup2\n        /* \"#utility.yul\":2392:2421   */\n      tag_127\n      jump\t// in\n    tag_126:\n        /* \"#utility.yul\":2387:2390   */\n      dup5\n        /* \"#utility.yul\":2383:2422   */\n      add\n        /* \"#utility.yul\":2376:2422   */\n      swap2\n      pop\n        /* \"#utility.yul\":2156:2428   */\n      pop\n      swap3\n      swap2\n      pop\n      pop\n      jump\t// out\n        /* \"#utility.yul\":2434:2800   */\n    tag_128:\n        /* \"#utility.yul\":2576:2579   */\n      0x00\n        /* \"#utility.yul\":2597:2664   */\n      tag_130\n        /* \"#utility.yul\":2661:2663   */\n      0x12\n        /* \"#utility.yul\":2656:2659   */\n      dup4\n        /* \"#utility.yul\":2597:2664   */\n      tag_123\n      jump\t// in\n    tag_130:\n        /* \"#utility.yul\":2590:2664   */\n      swap2\n      pop\n        /* \"#utility.yul\":2673:2766   */\n      tag_131\n        /* \"#utility.yul\":2762:2765   */\n      dup3\n        /* \"#utility.yul\":2673:2766   */\n      tag_132\n      jump\t// in\n    tag_131:\n        /* \"#utility.yul\":2791:2793   */\n      0x20\n        /* \"#utility.yul\":2786:2789   */\n      dup3\n        /* \"#utility.yul\":2782:2794   */\n      add\n        /* \"#utility.yul\":2775:2794   */\n      swap1\n      pop\n        /* \"#utility.yul\":2580:2800   */\n      swap2\n      swap1\n      pop\n      jump\t// out\n        /* \"#utility.yul\":2806:3172   */\n    tag_133:\n        /* \"#utility.yul\":2948:2951   */\n      0x00\n        /* \"#utility.yul\":2969:3036   */\n      tag_135\n        /* \"#utility.yul\":3033:3035   */\n      0x15\n        /* \"#utility.yul\":3028:3031   */\n      dup4\n        /* \"#utility.yul\":2969:3036   */\n      tag_123\n      jump\t// in\n    tag_135:\n        /* \"#utility.yul\":2962:3036   */\n      swap2\n      pop\n        /* \"#utility.yul\":3045:3138   */\n      tag_136\n        /* \"#utility.yul\":3134:3137   */\n      dup3\n        /* \"#utility.yul\":3045:3138   */\n      tag_137\n      jump\t// in\n    tag_136:\n        /* \"#utility.yul\":3163:3165   */\n      0x20\n        /* \"#utility.yul\":3158:3161   */\n      dup3\n        /* \"#utility.yul\":3154:3166   */\n      add\n        /* \"#utility.yul\":3147:3166   */\n      swap1\n      pop\n        /* \"#utility.yul\":2952:3172   */\n      swap2\n      swap1\n      pop\n      jump\t// out\n        /* \"#utility.yul\":3178:3296   */\n    tag_138:\n        /* \"#utility.yul\":3265:3289   */\n      tag_140\n        /* \"#utility.yul\":3283:3288   */\n      dup2\n        /* \"#utility.yul\":3265:3289   */\n      tag_141\n      jump\t// in\n    tag_140:\n        /* \"#utility.yul\":3260:3263   */\n      dup3\n        /* \"#utility.yul\":3253:3290   */\n      mstore\n        /* \"#utility.yul\":3243:3296   */\n      pop\n      pop\n      jump\t// out\n        /* \"#utility.yul\":3302:3414   */\n    tag_142:\n        /* \"#utility.yul\":3385:3407   */\n      tag_144\n        /* \"#utility.yul\":3401:3406   */\n      dup2\n        /* \"#utility.yul\":3385:3407   */\n      tag_145\n      jump\t// in\n    tag_144:\n        /* \"#utility.yul\":3380:3383   */\n      dup3\n        /* \"#utility.yul\":3373:3408   */\n      mstore\n        /* \"#utility.yul\":3363:3414   */\n      pop\n      pop\n      jump\t// out\n        /* \"#utility.yul\":3420:3630   */\n    tag_22:\n        /* \"#utility.yul\":3507:3511   */\n      0x00\n        /* \"#utility.yul\":3545:3547   */\n      0x20\n        /* \"#utility.yul\":3534:3543   */\n      dup3\n        /* \"#utility.yul\":3530:3548   */\n      add\n        /* \"#utility.yul\":3522:3548   */\n      swap1\n      pop\n        /* \"#utility.yul\":3558:3623   */\n      tag_147\n        /* \"#utility.yul\":3620:3621   */\n      0x00\n        /* \"#utility.yul\":3609:3618   */\n      dup4\n        /* \"#utility.yul\":3605:3622   */\n      add\n        /* \"#utility.yul\":3596:3602   */\n      dup5\n        /* \"#utility.yul\":3558:3623   */\n      tag_114\n      jump\t// in\n    tag_147:\n        /* \"#utility.yul\":3512:3630   */\n      swap3\n      swap2\n      pop\n      pop\n      jump\t// out\n        /* \"#utility.yul\":3636:3949   */\n    tag_16:\n        /* \"#utility.yul\":3749:3753   */\n      0x00\n        /* \"#utility.yul\":3787:3789   */\n      0x20\n        /* \"#utility.yul\":3776:3785   */\n      dup3\n        /* \"#utility.yul\":3772:3790   */\n      add\n        /* \"#utility.yul\":3764:3790   */\n      swap1\n      pop\n        /* \"#utility.yul\":3836:3845   */\n      dup2\n        /* \"#utility.yul\":3830:3834   */\n      dup2\n        /* \"#utility.yul\":3826:3846   */\n      sub\n        /* \"#utility.yul\":3822:3823   */\n      0x00\n        /* \"#utility.yul\":3811:3820   */\n      dup4\n        /* \"#utility.yul\":3807:3824   */\n      add\n        /* \"#utility.yul\":3800:3847   */\n      mstore\n        /* \"#utility.yul\":3864:3942   */\n      tag_149\n        /* \"#utility.yul\":3937:3941   */\n      dup2\n        /* \"#utility.yul\":3928:3934   */\n      dup5\n        /* \"#utility.yul\":3864:3942   */\n      tag_118\n      jump\t// in\n    tag_149:\n        /* \"#utility.yul\":3856:3942   */\n      swap1\n      pop\n        /* \"#utility.yul\":3754:3949   */\n      swap3\n      swap2\n      pop\n      pop\n      jump\t// out\n        /* \"#utility.yul\":3955:4374   */\n    tag_70:\n        /* \"#utility.yul\":4121:4125   */\n      0x00\n        /* \"#utility.yul\":4159:4161   */\n      0x20\n        /* \"#utility.yul\":4148:4157   */\n      dup3\n        /* \"#utility.yul\":4144:4162   */\n      add\n        /* \"#utility.yul\":4136:4162   */\n      swap1\n      pop\n        /* \"#utility.yul\":4208:4217   */\n      dup2\n        /* \"#utility.yul\":4202:4206   */\n      dup2\n        /* \"#utility.yul\":4198:4218   */\n      sub\n        /* \"#utility.yul\":4194:4195   */\n      0x00\n        /* \"#utility.yul\":4183:4192   */\n      dup4\n        /* \"#utility.yul\":4179:4196   */\n      add\n        /* \"#utility.yul\":4172:4219   */\n      mstore\n        /* \"#utility.yul\":4236:4367   */\n      tag_151\n        /* \"#utility.yul\":4362:4366   */\n      dup2\n        /* \"#utility.yul\":4236:4367   */\n      tag_128\n      jump\t// in\n    tag_151:\n        /* \"#utility.yul\":4228:4367   */\n      swap1\n      pop\n        /* \"#utility.yul\":4126:4374   */\n      swap2\n      swap1\n      pop\n      jump\t// out\n        /* \"#utility.yul\":4380:4799   */\n    tag_62:\n        /* \"#utility.yul\":4546:4550   */\n      0x00\n        /* \"#utility.yul\":4584:4586   */\n      0x20\n        /* \"#utility.yul\":4573:4582   */\n      dup3\n        /* \"#utility.yul\":4569:4587   */\n      add\n        /* \"#utility.yul\":4561:4587   */\n      swap1\n      pop\n        /* \"#utility.yul\":4633:4642   */\n      dup2\n        /* \"#utility.yul\":4627:4631   */\n      dup2\n        /* \"#utility.yul\":4623:4643   */\n      sub\n        /* \"#utility.yul\":4619:4620   */\n      0x00\n        /* \"#utility.yul\":4608:4617   */\n      dup4\n        /* \"#utility.yul\":4604:4621   */\n      add\n        /* \"#utility.yul\":4597:4644   */\n      mstore\n        /* \"#utility.yul\":4661:4792   */\n      tag_153\n        /* \"#utility.yul\":4787:4791   */\n      dup2\n        /* \"#utility.yul\":4661:4792   */\n      tag_133\n      jump\t// in\n    tag_153:\n        /* \"#utility.yul\":4653:4792   */\n      swap1\n      pop\n        /* \"#utility.yul\":4551:4799   */\n      swap2\n      swap1\n      pop\n      jump\t// out\n        /* \"#utility.yul\":4805:5027   */\n    tag_26:\n        /* \"#utility.yul\":4898:4902   */\n      0x00\n        /* \"#utility.yul\":4936:4938   */\n      0x20\n        /* \"#utility.yul\":4925:4934   */\n      dup3\n        /* \"#utility.yul\":4921:4939   */\n      add\n        /* \"#utility.yul\":4913:4939   */\n      swap1\n      pop\n        /* \"#utility.yul\":4949:5020   */\n      tag_155\n        /* \"#utility.yul\":5017:5018   */\n      0x00\n        /* \"#utility.yul\":5006:5015   */\n      dup4\n        /* \"#utility.yul\":5002:5019   */\n      add\n        /* \"#utility.yul\":4993:4999   */\n      dup5\n        /* \"#utility.yul\":4949:5020   */\n      tag_138\n      jump\t// in\n    tag_155:\n        /* \"#utility.yul\":4903:5027   */\n      swap3\n      swap2\n      pop\n      pop\n      jump\t// out\n        /* \"#utility.yul\":5033:5247   */\n    tag_35:\n        /* \"#utility.yul\":5122:5126   */\n      0x00\n        /* \"#utility.yul\":5160:5162   */\n      0x20\n        /* \"#utility.yul\":5149:5158   */\n      dup3\n        /* \"#utility.yul\":5145:5163   */\n      add\n        /* \"#utility.yul\":5137:5163   */\n      swap1\n      pop\n        /* \"#utility.yul\":5173:5240   */\n      tag_157\n        /* \"#utility.yul\":5237:5238   */\n      0x00\n        /* \"#utility.yul\":5226:5235   */\n      dup4\n        /* \"#utility.yul\":5222:5239   */\n      add\n        /* \"#utility.yul\":5213:5219   */\n      dup5\n        /* \"#utility.yul\":5173:5240   */\n      tag_142\n      jump\t// in\n    tag_157:\n        /* \"#utility.yul\":5127:5247   */\n      swap3\n      swap2\n      pop\n      pop\n      jump\t// out\n        /* \"#utility.yul\":5253:5352   */\n    tag_121:\n        /* \"#utility.yul\":5305:5311   */\n      0x00\n        /* \"#utility.yul\":5339:5344   */\n      dup2\n        /* \"#utility.yul\":5333:5345   */\n      mload\n        /* \"#utility.yul\":5323:5345   */\n      swap1\n      pop\n        /* \"#utility.yul\":5312:5352   */\n      swap2\n      swap1\n      pop\n      jump\t// out\n        /* \"#utility.yul\":5358:5527   */\n    tag_123:\n        /* \"#utility.yul\":5442:5453   */\n      0x00\n        /* \"#utility.yul\":5476:5482   */\n      dup3\n        /* \"#utility.yul\":5471:5474   */\n      dup3\n        /* \"#utility.yul\":5464:5483   */\n      mstore\n        /* \"#utility.yul\":5516:5520   */\n      0x20\n        /* \"#utility.yul\":5511:5514   */\n      dup3\n        /* \"#utility.yul\":5507:5521   */\n      add\n        /* \"#utility.yul\":5492:5521   */\n      swap1\n      pop\n        /* \"#utility.yul\":5454:5527   */\n      swap3\n      swap2\n      pop\n      pop\n      jump\t// out\n        /* \"#utility.yul\":5533:5838   */\n    tag_74:\n        /* \"#utility.yul\":5573:5576   */\n      0x00\n        /* \"#utility.yul\":5592:5612   */\n      tag_161\n        /* \"#utility.yul\":5610:5611   */\n      dup3\n        /* \"#utility.yul\":5592:5612   */\n      tag_141\n      jump\t// in\n    tag_161:\n        /* \"#utility.yul\":5587:5612   */\n      swap2\n      pop\n        /* \"#utility.yul\":5626:5646   */\n      tag_162\n        /* \"#utility.yul\":5644:5645   */\n      dup4\n        /* \"#utility.yul\":5626:5646   */\n      tag_141\n      jump\t// in\n    tag_162:\n        /* \"#utility.yul\":5621:5646   */\n      swap3\n      pop\n        /* \"#utility.yul\":5780:5781   */\n      dup3\n        /* \"#utility.yul\":5712:5778   */\n      0xffffffffffffffffffffffffffffffffffffffffffffffffffffffffffffffff\n        /* \"#utility.yul\":5708:5782   */\n      sub\n        /* \"#utility.yul\":5705:5706   */\n      dup3\n        /* \"#utility.yul\":5702:5783   */\n      gt\n        /* \"#utility.yul\":5699:5701   */\n      iszero\n      tag_163\n      jumpi\n        /* \"#utility.yul\":5786:5804   */\n      tag_164\n      tag_165\n      jump\t// in\n    tag_164:\n        /* \"#utility.yul\":5699:5701   */\n    tag_163:\n        /* \"#utility.yul\":5830:5831   */\n      dup3\n        /* \"#utility.yul\":5827:5828   */\n      dup3\n        /* \"#utility.yul\":5823:5832   */\n      add\n        /* \"#utility.yul\":5816:5832   */\n      swap1\n      pop\n        /* \"#utility.yul\":5577:5838   */\n      swap3\n      swap2\n      pop\n      pop\n      jump\t// out\n        /* \"#utility.yul\":5844:6035   */\n    tag_72:\n        /* \"#utility.yul\":5884:5888   */\n      0x00\n        /* \"#utility.yul\":5904:5924   */\n      tag_167\n        /* \"#utility.yul\":5922:5923   */\n      dup3\n        /* \"#utility.yul\":5904:5924   */\n      tag_141\n      jump\t// in\n    tag_167:\n        /* \"#utility.yul\":5899:5924   */\n      swap2\n      pop\n        /* \"#utility.yul\":5938:5958   */\n      tag_168\n        /* \"#utility.yul\":5956:5957   */\n      dup4\n        /* \"#utility.yul\":5938:5958   */\n      tag_141\n      jump\t// in\n    tag_168:\n        /* \"#utility.yul\":5933:5958   */\n      swap3\n      pop\n        /* \"#utility.yul\":5977:5978   */\n      dup3\n        /* \"#utility.yul\":5974:5975   */\n      dup3\n        /* \"#utility.yul\":5971:5979   */\n      lt\n        /* \"#utility.yul\":5968:5970   */\n      iszero\n      tag_169\n      jumpi\n        /* \"#utility.yul\":5982:6000   */\n      tag_170\n      tag_165\n      jump\t// in\n    tag_170:\n        /* \"#utility.yul\":5968:5970   */\n    tag_169:\n        /* \"#utility.yul\":6027:6028   */\n      dup3\n        /* \"#utility.yul\":6024:6025   */\n      dup3\n        /* \"#utility.yul\":6020:6029   */\n      sub\n        /* \"#utility.yul\":6012:6029   */\n      swap1\n      pop\n        /* \"#utility.yul\":5889:6035   */\n      swap3\n      swap2\n      pop\n      pop\n      jump\t// out\n        /* \"#utility.yul\":6041:6137   */\n    tag_171:\n        /* \"#utility.yul\":6078:6085   */\n      0x00\n        /* \"#utility.yul\":6107:6131   */\n      tag_173\n        /* \"#utility.yul\":6125:6130   */\n      dup3\n        /* \"#utility.yul\":6107:6131   */\n      tag_174\n      jump\t// in\n    tag_173:\n        /* \"#utility.yul\":6096:6131   */\n      swap1\n      pop\n        /* \"#utility.yul\":6086:6137   */\n      swap2\n      swap1\n      pop\n      jump\t// out\n        /* \"#utility.yul\":6143:6233   */\n    tag_117:\n        /* \"#utility.yul\":6177:6184   */\n      0x00\n        /* \"#utility.yul\":6220:6225   */\n      dup2\n        /* \"#utility.yul\":6213:6226   */\n      iszero\n        /* \"#utility.yul\":6206:6227   */\n      iszero\n        /* \"#utility.yul\":6195:6227   */\n      swap1\n      pop\n        /* \"#utility.yul\":6185:6233   */\n      swap2\n      swap1\n      pop\n      jump\t// out\n        /* \"#utility.yul\":6239:6365   */\n    tag_174:\n        /* \"#utility.yul\":6276:6283   */\n      0x00\n        /* \"#utility.yul\":6316:6358   */\n      0xffffffffffffffffffffffffffffffffffffffff\n        /* \"#utility.yul\":6309:6314   */\n      dup3\n        /* \"#utility.yul\":6305:6359   */\n      and\n        /* \"#utility.yul\":6294:6359   */\n      swap1\n      pop\n        /* \"#utility.yul\":6284:6365   */\n      swap2\n      swap1\n      pop\n      jump\t// out\n        /* \"#utility.yul\":6371:6448   */\n    tag_141:\n        /* \"#utility.yul\":6408:6415   */\n      0x00\n        /* \"#utility.yul\":6437:6442   */\n      dup2\n        /* \"#utility.yul\":6426:6442   */\n      swap1\n      pop\n        /* \"#utility.yul\":6416:6448   */\n      swap2\n      swap1\n      pop\n      jump\t// out\n        /* \"#utility.yul\":6454:6540   */\n    tag_145:\n        /* \"#utility.yul\":6489:6496   */\n      0x00\n        /* \"#utility.yul\":6529:6533   */\n      0xff\n        /* \"#utility.yul\":6522:6527   */\n      dup3\n        /* \"#utility.yul\":6518:6534   */\n      and\n        /* \"#utility.yul\":6507:6534   */\n      swap1\n      pop\n        /* \"#utility.yul\":6497:6540   */\n      swap2\n      swap1\n      pop\n      jump\t// out\n        /* \"#utility.yul\":6546:6853   */\n    tag_125:\n        /* \"#utility.yul\":6614:6615   */\n      0x00\n        /* \"#utility.yul\":6624:6737   */\n    tag_180:\n        /* \"#utility.yul\":6638:6644   */\n      dup4\n        /* \"#utility.yul\":6635:6636   */\n      dup2\n        /* \"#utility.yul\":6632:6645   */\n      lt\n        /* \"#utility.yul\":6624:6737   */\n      iszero\n      tag_182\n      jumpi\n        /* \"#utility.yul\":6723:6724   */\n      dup1\n        /* \"#utility.yul\":6718:6721   */\n      dup3\n        /* \"#utility.yul\":6714:6725   */\n      add\n        /* \"#utility.yul\":6708:6726   */\n      mload\n        /* \"#utility.yul\":6704:6705   */\n      dup2\n        /* \"#utility.yul\":6699:6702   */\n      dup5\n        /* \"#utility.yul\":6695:6706   */\n      add\n        /* \"#utility.yul\":6688:6727   */\n      mstore\n        /* \"#utility.yul\":6660:6662   */\n      0x20\n        /* \"#utility.yul\":6657:6658   */\n      dup2\n        /* \"#utility.yul\":6653:6663   */\n      add\n        /* \"#utility.yul\":6648:6663   */\n      swap1\n      pop\n        /* \"#utility.yul\":6624:6737   */\n      jump(tag_180)\n    tag_182:\n        /* \"#utility.yul\":6755:6761   */\n      dup4\n        /* \"#utility.yul\":6752:6753   */\n      dup2\n        /* \"#utility.yul\":6749:6762   */\n      gt\n        /* \"#utility.yul\":6746:6748   */\n      iszero\n      tag_183\n      jumpi\n        /* \"#utility.yul\":6835:6836   */\n      0x00\n        /* \"#utility.yul\":6826:6832   */\n      dup5\n        /* \"#utility.yul\":6821:6824   */\n      dup5\n        /* \"#utility.yul\":6817:6833   */\n      add\n        /* \"#utility.yul\":6810:6837   */\n      mstore\n        /* \"#utility.yul\":6746:6748   */\n    tag_183:\n        /* \"#utility.yul\":6595:6853   */\n      pop\n      pop\n      pop\n      pop\n      jump\t// out\n        /* \"#utility.yul\":6859:7179   */\n    tag_54:\n        /* \"#utility.yul\":6903:6909   */\n      0x00\n        /* \"#utility.yul\":6940:6941   */\n      0x02\n        /* \"#utility.yul\":6934:6938   */\n      dup3\n        /* \"#utility.yul\":6930:6942   */\n      div\n        /* \"#utility.yul\":6920:6942   */\n      swap1\n      pop\n        /* \"#utility.yul\":6987:6988   */\n      0x01\n        /* \"#utility.yul\":6981:6985   */\n      dup3\n        /* \"#utility.yul\":6977:6989   */\n      and\n        /* \"#utility.yul\":7008:7026   */\n      dup1\n        /* \"#utility.yul\":6998:7000   */\n      tag_185\n      jumpi\n        /* \"#utility.yul\":7064:7068   */\n      0x7f\n        /* \"#utility.yul\":7056:7062   */\n      dup3\n        /* \"#utility.yul\":7052:7069   */\n      and\n        /* \"#utility.yul\":7042:7069   */\n      swap2\n      pop\n        /* \"#utility.yul\":6998:7000   */\n    tag_185:\n        /* \"#utility.yul\":7126:7128   */\n      0x20\n        /* \"#utility.yul\":7118:7124   */\n      dup3\n        /* \"#utility.yul\":7115:7129   */\n      lt\n        /* \"#utility.yul\":7095:7113   */\n      dup2\n        /* \"#utility.yul\":7092:7130   */\n      eq\n        /* \"#utility.yul\":7089:7091   */\n      iszero\n      tag_186\n      jumpi\n        /* \"#utility.yul\":7145:7163   */\n      tag_187\n      tag_188\n      jump\t// in\n    tag_187:\n        /* \"#utility.yul\":7089:7091   */\n    tag_186:\n        /* \"#utility.yul\":6910:7179   */\n      pop\n      swap2\n      swap1\n      pop\n      jump\t// out\n        /* \"#utility.yul\":7185:7365   */\n    tag_165:\n        /* \"#utility.yul\":7233:7310   */\n      0x4e487b7100000000000000000000000000000000000000000000000000000000\n        /* \"#utility.yul\":7230:7231   */\n      0x00\n        /* \"#utility.yul\":7223:7311   */\n      mstore\n        /* \"#utility.yul\":7330:7334   */\n      0x11\n        /* \"#utility.yul\":7327:7328   */\n      0x04\n        /* \"#utility.yul\":7320:7335   */\n      mstore\n        /* \"#utility.yul\":7354:7358   */\n      0x24\n        /* \"#utility.yul\":7351:7352   */\n      0x00\n        /* \"#utility.yul\":7344:7359   */\n      revert\n        /* \"#utility.yul\":7371:7551   */\n    tag_188:\n        /* \"#utility.yul\":7419:7496   */\n      0x4e487b7100000000000000000000000000000000000000000000000000000000\n        /* \"#utility.yul\":7416:7417   */\n      0x00\n        /* \"#utility.yul\":7409:7497   */\n      mstore\n        /* \"#utility.yul\":7516:7520   */\n      0x22\n        /* \"#utility.yul\":7513:7514   */\n      0x04\n        /* \"#utility.yul\":7506:7521   */\n      mstore\n        /* \"#utility.yul\":7540:7544   */\n      0x24\n        /* \"#utility.yul\":7537:7538   */\n      0x00\n        /* \"#utility.yul\":7530:7545   */\n      revert\n        /* \"#utility.yul\":7557:7659   */\n    tag_127:\n        /* \"#utility.yul\":7598:7604   */\n      0x00\n        /* \"#utility.yul\":7649:7651   */\n      0x1f\n        /* \"#utility.yul\":7645:7652   */\n      not\n        /* \"#utility.yul\":7640:7642   */\n      0x1f\n        /* \"#utility.yul\":7633:7638   */\n      dup4\n        /* \"#utility.yul\":7629:7643   */\n      add\n        /* \"#utility.yul\":7625:7653   */\n      and\n        /* \"#utility.yul\":7615:7653   */\n      swap1\n      pop\n        /* \"#utility.yul\":7605:7659   */\n      swap2\n      swap1\n      pop\n      jump\t// out\n        /* \"#utility.yul\":7665:7833   */\n    tag_132:\n        /* \"#utility.yul\":7805:7825   */\n      0x416c6c6f77616e63652065786365656465640000000000000000000000000000\n        /* \"#utility.yul\":7801:7802   */\n      0x00\n        /* \"#utility.yul\":7793:7799   */\n      dup3\n        /* \"#utility.yul\":7789:7803   */\n      add\n        /* \"#utility.yul\":7782:7826   */\n      mstore\n        /* \"#utility.yul\":7771:7833   */\n      pop\n      jump\t// out\n        /* \"#utility.yul\":7839:8010   */\n    tag_137:\n        /* \"#utility.yul\":7979:8002   */\n      0x62616c616e6365206973206e6f7420656e6f7567680000000000000000000000\n        /* \"#utility.yul\":7975:7976   */\n      0x00\n        /* \"#utility.yul\":7967:7973   */\n      dup3\n        /* \"#utility.yul\":7963:7977   */\n      add\n        /* \"#utility.yul\":7956:8003   */\n      mstore\n        /* \"#utility.yul\":7945:8010   */\n      pop\n      jump\t// out\n        /* \"#utility.yul\":8016:8138   */\n    tag_93:\n        /* \"#utility.yul\":8089:8113   */\n      tag_195\n        /* \"#utility.yul\":8107:8112   */\n      dup2\n        /* \"#utility.yul\":8089:8113   */\n      tag_171\n      jump\t// in\n    tag_195:\n        /* \"#utility.yul\":8082:8087   */\n      dup2\n        /* \"#utility.yul\":8079:8114   */\n      eq\n        /* \"#utility.yul\":8069:8071   */\n      tag_196\n      jumpi\n        /* \"#utility.yul\":8128:8129   */\n      0x00\n        /* \"#utility.yul\":8125:8126   */\n      dup1\n        /* \"#utility.yul\":8118:8130   */\n      revert\n        /* \"#utility.yul\":8069:8071   */\n    tag_196:\n        /* \"#utility.yul\":8059:8138   */\n      pop\n      jump\t// out\n        /* \"#utility.yul\":8144:8266   */\n    tag_97:\n        /* \"#utility.yul\":8217:8241   */\n      tag_198\n        /* \"#utility.yul\":8235:8240   */\n      dup2\n        /* \"#utility.yul\":8217:8241   */\n      tag_141\n      jump\t// in\n    tag_198:\n        /* \"#utility.yul\":8210:8215   */\n      dup2\n        /* \"#utility.yul\":8207:8242   */\n      eq\n        /* \"#utility.yul\":8197:8199   */\n      tag_199\n      jumpi\n        /* \"#utility.yul\":8256:8257   */\n      0x00\n        /* \"#utility.yul\":8253:8254   */\n      dup1\n        /* \"#utility.yul\":8246:8258   */\n      revert\n        /* \"#utility.yul\":8197:8199   */\n    tag_199:\n        /* \"#utility.yul\":8187:8266   */\n      pop\n      jump\t// out\n\n    auxdata: 0xa2646970667358221220a25d7f1065e8f6a02ddee5b229ede963626ab7cd8f90fc2a41f5a115ab7d585364736f6c63430008040033\n}\n",
				"bytecode": {
					"linkReferences": {},
					"object": "60806040526040518060400160405280600981526020017f54657374546f6b656e00000000000000000000000000000000000000000000008152506003908051906020019062000051929190620000d0565b506040518060400160405280600481526020017f5445535400000000000000000000000000000000000000000000000000000000815250600490805190602001906200009f929190620000d0565b506012600560006101000a81548160ff021916908360ff160217905550348015620000c957600080fd5b50620001e5565b828054620000de9062000180565b90600052602060002090601f0160209004810192826200010257600085556200014e565b82601f106200011d57805160ff19168380011785556200014e565b828001600101855582156200014e579182015b828111156200014d57825182559160200191906001019062000130565b5b5090506200015d919062000161565b5090565b5b808211156200017c57600081600090555060010162000162565b5090565b600060028204905060018216806200019957607f821691505b60208210811415620001b057620001af620001b6565b5b50919050565b7f4e487b7100000000000000000000000000000000000000000000000000000000600052602260045260246000fd5b610e7980620001f56000396000f3fe608060405234801561001057600080fd5b50600436106100935760003560e01c8063313ce56711610066578063313ce5671461013457806370a082311461015257806395d89b4114610182578063a9059cbb146101a0578063dd62ed3e146101d057610093565b806306fdde0314610098578063095ea7b3146100b657806318160ddd146100e657806323b872dd14610104575b600080fd5b6100a0610200565b6040516100ad9190610b5c565b60405180910390f35b6100d060048036038101906100cb9190610a59565b61028e565b6040516100dd9190610b41565b60405180910390f35b6100ee610404565b6040516100fb9190610bbe565b60405180910390f35b61011e60048036038101906101199190610a0a565b61040a565b60405161012b9190610b41565b60405180910390f35b61013c6106fc565b6040516101499190610bd9565b60405180910390f35b61016c600480360381019061016791906109a5565b61070f565b6040516101799190610bbe565b60405180910390f35b61018a610727565b6040516101979190610b5c565b60405180910390f35b6101ba60048036038101906101b59190610a59565b6107b5565b6040516101c79190610b41565b60405180910390f35b6101ea60048036038101906101e591906109ce565b610956565b6040516101f79190610bbe565b60405180910390f35b6003805461020d90610d22565b80601f016020809104026020016040519081016040528092919081815260200182805461023990610d22565b80156102865780601f1061025b57610100808354040283529160200191610286565b820191906000526020600020905b81548152906001019060200180831161026957829003601f168201915b505050505081565b60008180600160003373ffffffffffffffffffffffffffffffffffffffff1673ffffffffffffffffffffffffffffffffffffffff168152602001908152602001600020541015610313576040517f08c379a000000000000000000000000000000000000000000000000000000000815260040161030a90610b9e565b60405180910390fd5b82600260003373ffffffffffffffffffffffffffffffffffffffff1673ffffffffffffffffffffffffffffffffffffffff16815260200190815260200160002060008673ffffffffffffffffffffffffffffffffffffffff1673ffffffffffffffffffffffffffffffffffffffff168152602001908152602001600020819055508373ffffffffffffffffffffffffffffffffffffffff163373ffffffffffffffffffffffffffffffffffffffff167f8c5be1e5ebec7d5bd14f71427d1e84f3dd0314c0f7b2291e5b200ac8c7c3b925856040516103f19190610bbe565b60405180910390a3600191505092915050565b60005481565b600081600160008673ffffffffffffffffffffffffffffffffffffffff1673ffffffffffffffffffffffffffffffffffffffff16815260200190815260200160002054101561048e576040517f08c379a000000000000000000000000000000000000000000000000000000000815260040161048590610b9e565b60405180910390fd5b81600260008673ffffffffffffffffffffffffffffffffffffffff1673ffffffffffffffffffffffffffffffffffffffff16815260200190815260200160002060003373ffffffffffffffffffffffffffffffffffffffff1673ffffffffffffffffffffffffffffffffffffffff16815260200190815260200160002054101561054d576040517f08c379a000000000000000000000000000000000000000000000000000000000815260040161054490610b7e565b60405180910390fd5b81600160008673ffffffffffffffffffffffffffffffffffffffff1673ffffffffffffffffffffffffffffffffffffffff168152602001908152602001600020600082825461059c9190610c66565b9250508190555081600160008573ffffffffffffffffffffffffffffffffffffffff1673ffffffffffffffffffffffffffffffffffffffff16815260200190815260200160002060008282546105f29190610c10565b9250508190555081600260008673ffffffffffffffffffffffffffffffffffffffff1673ffffffffffffffffffffffffffffffffffffffff16815260200190815260200160002060003373ffffffffffffffffffffffffffffffffffffffff1673ffffffffffffffffffffffffffffffffffffffff16815260200190815260200160002060008282546106859190610c66565b925050819055508273ffffffffffffffffffffffffffffffffffffffff168473ffffffffffffffffffffffffffffffffffffffff167fddf252ad1be2c89b69c2b068fc378daa952ba7f163c4a11628f55a4df523b3ef846040516106e99190610bbe565b60405180910390a3600190509392505050565b600560009054906101000a900460ff1681565b60016020528060005260406000206000915090505481565b6004805461073490610d22565b80601f016020809104026020016040519081016040528092919081815260200182805461076090610d22565b80156107ad5780601f10610782576101008083540402835291602001916107ad565b820191906000526020600020905b81548152906001019060200180831161079057829003601f168201915b505050505081565b60008180600160003373ffffffffffffffffffffffffffffffffffffffff1673ffffffffffffffffffffffffffffffffffffffff16815260200190815260200160002054101561083a576040517f08c379a000000000000000000000000000000000000000000000000000000000815260040161083190610b9e565b60405180910390fd5b82600160003373ffffffffffffffffffffffffffffffffffffffff1673ffffffffffffffffffffffffffffffffffffffff16815260200190815260200160002060008282546108899190610c66565b9250508190555082600160008673ffffffffffffffffffffffffffffffffffffffff1673ffffffffffffffffffffffffffffffffffffffff16815260200190815260200160002060008282546108df9190610c10565b925050819055508373ffffffffffffffffffffffffffffffffffffffff163373ffffffffffffffffffffffffffffffffffffffff167fddf252ad1be2c89b69c2b068fc378daa952ba7f163c4a11628f55a4df523b3ef856040516109439190610bbe565b60405180910390a3600191505092915050565b6002602052816000526040600020602052806000526040600020600091509150505481565b60008135905061098a81610e15565b92915050565b60008135905061099f81610e2c565b92915050565b6000602082840312156109b757600080fd5b60006109c58482850161097b565b91505092915050565b600080604083850312156109e157600080fd5b60006109ef8582860161097b565b9250506020610a008582860161097b565b9150509250929050565b600080600060608486031215610a1f57600080fd5b6000610a2d8682870161097b565b9350506020610a3e8682870161097b565b9250506040610a4f86828701610990565b9150509250925092565b60008060408385031215610a6c57600080fd5b6000610a7a8582860161097b565b9250506020610a8b85828601610990565b9150509250929050565b610a9e81610cac565b82525050565b6000610aaf82610bf4565b610ab98185610bff565b9350610ac9818560208601610cef565b610ad281610db2565b840191505092915050565b6000610aea601283610bff565b9150610af582610dc3565b602082019050919050565b6000610b0d601583610bff565b9150610b1882610dec565b602082019050919050565b610b2c81610cd8565b82525050565b610b3b81610ce2565b82525050565b6000602082019050610b566000830184610a95565b92915050565b60006020820190508181036000830152610b768184610aa4565b905092915050565b60006020820190508181036000830152610b9781610add565b9050919050565b60006020820190508181036000830152610bb781610b00565b9050919050565b6000602082019050610bd36000830184610b23565b92915050565b6000602082019050610bee6000830184610b32565b92915050565b600081519050919050565b600082825260208201905092915050565b6000610c1b82610cd8565b9150610c2683610cd8565b9250827fffffffffffffffffffffffffffffffffffffffffffffffffffffffffffffffff03821115610c5b57610c5a610d54565b5b828201905092915050565b6000610c7182610cd8565b9150610c7c83610cd8565b925082821015610c8f57610c8e610d54565b5b828203905092915050565b6000610ca582610cb8565b9050919050565b60008115159050919050565b600073ffffffffffffffffffffffffffffffffffffffff82169050919050565b6000819050919050565b600060ff82169050919050565b60005b83811015610d0d578082015181840152602081019050610cf2565b83811115610d1c576000848401525b50505050565b60006002820490506001821680610d3a57607f821691505b60208210811415610d4e57610d4d610d83565b5b50919050565b7f4e487b7100000000000000000000000000000000000000000000000000000000600052601160045260246000fd5b7f4e487b7100000000000000000000000000000000000000000000000000000000600052602260045260246000fd5b6000601f19601f8301169050919050565b7f416c6c6f77616e63652065786365656465640000000000000000000000000000600082015250565b7f62616c616e6365206973206e6f7420656e6f7567680000000000000000000000600082015250565b610e1e81610c9a565b8114610e2957600080fd5b50565b610e3581610cd8565b8114610e4057600080fd5b5056fea2646970667358221220a25d7f1065e8f6a02ddee5b229ede963626ab7cd8f90fc2a41f5a115ab7d585364736f6c63430008040033",
					"opcodes": "PUSH1 0x80 PUSH1 0x40 MSTORE PUSH1 0x40 MLOAD DUP1 PUSH1 0x40 ADD PUSH1 0x40 MSTORE DUP1 PUSH1 0x9 DUP2 MSTORE PUSH1 0x20 ADD PUSH32 0x54657374546F6B656E0000000000000000000000000000000000000000000000 DUP2 MSTORE POP PUSH1 0x3 SWAP1 DUP1 MLOAD SWAP1 PUSH1 0x20 ADD SWAP1 PUSH3 0x51 SWAP3 SWAP2 SWAP1 PUSH3 0xD0 JUMP JUMPDEST POP PUSH1 0x40 MLOAD DUP1 PUSH1 0x40 ADD PUSH1 0x40 MSTORE DUP1 PUSH1 0x4 DUP2 MSTORE PUSH1 0x20 ADD PUSH32 0x5445535400000000000000000000000000000000000000000000000000000000 DUP2 MSTORE POP PUSH1 0x4 SWAP1 DUP1 MLOAD SWAP1 PUSH1 0x20 ADD SWAP1 PUSH3 0x9F SWAP3 SWAP2 SWAP1 PUSH3 0xD0 JUMP JUMPDEST POP PUSH1 0x12 PUSH1 0x5 PUSH1 0x0 PUSH2 0x100 EXP DUP2 SLOAD DUP2 PUSH1 0xFF MUL NOT AND SWAP1 DUP4 PUSH1 0xFF AND MUL OR SWAP1 SSTORE POP CALLVALUE DUP1 ISZERO PUSH3 0xC9 JUMPI PUSH1 0x0 DUP1 REVERT JUMPDEST POP PUSH3 0x1E5 JUMP JUMPDEST DUP3 DUP1 SLOAD PUSH3 0xDE SWAP1 PUSH3 0x180 JUMP JUMPDEST SWAP1 PUSH1 0x0 MSTORE PUSH1 0x20 PUSH1 0x0 KECCAK256 SWAP1 PUSH1 0x1F ADD PUSH1 0x20 SWAP1 DIV DUP2 ADD SWAP3 DUP3 PUSH3 0x102 JUMPI PUSH1 0x0 DUP6 SSTORE PUSH3 0x14E JUMP JUMPDEST DUP3 PUSH1 0x1F LT PUSH3 0x11D JUMPI DUP1 MLOAD PUSH1 0xFF NOT AND DUP4 DUP1 ADD OR DUP6 SSTORE PUSH3 0x14E JUMP JUMPDEST DUP3 DUP1 ADD PUSH1 0x1 ADD DUP6 SSTORE DUP3 ISZERO PUSH3 0x14E JUMPI SWAP2 DUP3 ADD JUMPDEST DUP3 DUP2 GT ISZERO PUSH3 0x14D JUMPI DUP3 MLOAD DUP3 SSTORE SWAP2 PUSH1 0x20 ADD SWAP2 SWAP1 PUSH1 0x1 ADD SWAP1 PUSH3 0x130 JUMP JUMPDEST JUMPDEST POP SWAP1 POP PUSH3 0x15D SWAP2 SWAP1 PUSH3 0x161 JUMP JUMPDEST POP SWAP1 JUMP JUMPDEST JUMPDEST DUP1 DUP3 GT ISZERO PUSH3 0x17C JUMPI PUSH1 0x0 DUP2 PUSH1 0x0 SWAP1 SSTORE POP PUSH1 0x1 ADD PUSH3 0x162 JUMP JUMPDEST POP SWAP1 JUMP JUMPDEST PUSH1 0x0 PUSH1 0x2 DUP3 DIV SWAP1 POP PUSH1 0x1 DUP3 AND DUP1 PUSH3 0x199 JUMPI PUSH1 0x7F DUP3 AND SWAP2 POP JUMPDEST PUSH1 0x20 DUP3 LT DUP2 EQ ISZERO PUSH3 0x1B0 JUMPI PUSH3 0x1AF PUSH3 0x1B6 JUMP JUMPDEST JUMPDEST POP SWAP2 SWAP1 POP JUMP JUMPDEST PUSH32 0x4E487B7100000000000000000000000000000000000000000000000000000000 PUSH1 0x0 MSTORE PUSH1 0x22 PUSH1 0x4 MSTORE PUSH1 0x24 PUSH1 0x0 REVERT JUMPDEST PUSH2 0xE79 DUP1 PUSH3 0x1F5 PUSH1 0x0 CODECOPY PUSH1 0x0 RETURN INVALID PUSH1 0x80 PUSH1 0x40 MSTORE CALLVALUE DUP1 ISZERO PUSH2 0x10 JUMPI PUSH1 0x0 DUP1 REVERT JUMPDEST POP PUSH1 0x4 CALLDATASIZE LT PUSH2 0x93 JUMPI PUSH1 0x0 CALLDATALOAD PUSH1 0xE0 SHR DUP1 PUSH4 0x313CE567 GT PUSH2 0x66 JUMPI DUP1 PUSH4 0x313CE567 EQ PUSH2 0x134 JUMPI DUP1 PUSH4 0x70A08231 EQ PUSH2 0x152 JUMPI DUP1 PUSH4 0x95D89B41 EQ PUSH2 0x182 JUMPI DUP1 PUSH4 0xA9059CBB EQ PUSH2 0x1A0 JUMPI DUP1 PUSH4 0xDD62ED3E EQ PUSH2 0x1D0 JUMPI PUSH2 0x93 JUMP JUMPDEST DUP1 PUSH4 0x6FDDE03 EQ PUSH2 0x98 JUMPI DUP1 PUSH4 0x95EA7B3 EQ PUSH2 0xB6 JUMPI DUP1 PUSH4 0x18160DDD EQ PUSH2 0xE6 JUMPI DUP1 PUSH4 0x23B872DD EQ PUSH2 0x104 JUMPI JUMPDEST PUSH1 0x0 DUP1 REVERT JUMPDEST PUSH2 0xA0 PUSH2 0x200 JUMP JUMPDEST PUSH1 0x40 MLOAD PUSH2 0xAD SWAP2 SWAP1 PUSH2 0xB5C JUMP JUMPDEST PUSH1 0x40 MLOAD DUP1 SWAP2 SUB SWAP1 RETURN JUMPDEST PUSH2 0xD0 PUSH1 0x4 DUP1 CALLDATASIZE SUB DUP2 ADD SWAP1 PUSH2 0xCB SWAP2 SWAP1 PUSH2 0xA59 JUMP JUMPDEST PUSH2 0x28E JUMP JUMPDEST PUSH1 0x40 MLOAD PUSH2 0xDD SWAP2 SWAP1 PUSH2 0xB41 JUMP JUMPDEST PUSH1 0x40 MLOAD DUP1 SWAP2 SUB SWAP1 RETURN JUMPDEST PUSH2 0xEE PUSH2 0x404 JUMP JUMPDEST PUSH1 0x40 MLOAD PUSH2 0xFB SWAP2 SWAP1 PUSH2 0xBBE JUMP JUMPDEST PUSH1 0x40 MLOAD DUP1 SWAP2 SUB SWAP1 RETURN JUMPDEST PUSH2 0x11E PUSH1 0x4 DUP1 CALLDATASIZE SUB DUP2 ADD SWAP1 PUSH2 0x119 SWAP2 SWAP1 PUSH2 0xA0A JUMP JUMPDEST PUSH2 0x40A JUMP JUMPDEST PUSH1 0x40 MLOAD PUSH2 0x12B SWAP2 SWAP1 PUSH2 0xB41 JUMP JUMPDEST PUSH1 0x40 MLOAD DUP1 SWAP2 SUB SWAP1 RETURN JUMPDEST PUSH2 0x13C PUSH2 0x6FC JUMP JUMPDEST PUSH1 0x40 MLOAD PUSH2 0x149 SWAP2 SWAP1 PUSH2 0xBD9 JUMP JUMPDEST PUSH1 0x40 MLOAD DUP1 SWAP2 SUB SWAP1 RETURN JUMPDEST PUSH2 0x16C PUSH1 0x4 DUP1 CALLDATASIZE SUB DUP2 ADD SWAP1 PUSH2 0x167 SWAP2 SWAP1 PUSH2 0x9A5 JUMP JUMPDEST PUSH2 0x70F JUMP JUMPDEST PUSH1 0x40 MLOAD PUSH2 0x179 SWAP2 SWAP1 PUSH2 0xBBE JUMP JUMPDEST PUSH1 0x40 MLOAD DUP1 SWAP2 SUB SWAP1 RETURN JUMPDEST PUSH2 0x18A PUSH2 0x727 JUMP JUMPDEST PUSH1 0x40 MLOAD PUSH2 0x197 SWAP2 SWAP1 PUSH2 0xB5C JUMP JUMPDEST PUSH1 0x40 MLOAD DUP1 SWAP2 SUB SWAP1 RETURN JUMPDEST PUSH2 0x1BA PUSH1 0x4 DUP1 CALLDATASIZE SUB DUP2 ADD SWAP1 PUSH2 0x1B5 SWAP2 SWAP1 PUSH2 0xA59 JUMP JUMPDEST PUSH2 0x7B5 JUMP JUMPDEST PUSH1 0x40 MLOAD PUSH2 0x1C7 SWAP2 SWAP1 PUSH2 0xB41 JUMP JUMPDEST PUSH1 0x40 MLOAD DUP1 SWAP2 SUB SWAP1 RETURN JUMPDEST PUSH2 0x1EA PUSH1 0x4 DUP1 CALLDATASIZE SUB DUP2 ADD SWAP1 PUSH2 0x1E5 SWAP2 SWAP1 PUSH2 0x9CE JUMP JUMPDEST PUSH2 0x956 JUMP JUMPDEST PUSH1 0x40 MLOAD PUSH2 0x1F7 SWAP2 SWAP1 PUSH2 0xBBE JUMP JUMPDEST PUSH1 0x40 MLOAD DUP1 SWAP2 SUB SWAP1 RETURN JUMPDEST PUSH1 0x3 DUP1 SLOAD PUSH2 0x20D SWAP1 PUSH2 0xD22 JUMP JUMPDEST DUP1 PUSH1 0x1F ADD PUSH1 0x20 DUP1 SWAP2 DIV MUL PUSH1 0x20 ADD PUSH1 0x40 MLOAD SWAP1 DUP2 ADD PUSH1 0x40 MSTORE DUP1 SWAP3 SWAP2 SWAP1 DUP2 DUP2 MSTORE PUSH1 0x20 ADD DUP3 DUP1 SLOAD PUSH2 0x239 SWAP1 PUSH2 0xD22 JUMP JUMPDEST DUP1 ISZERO PUSH2 0x286 JUMPI DUP1 PUSH1 0x1F LT PUSH2 0x25B JUMPI PUSH2 0x100 DUP1 DUP4 SLOAD DIV MUL DUP4 MSTORE SWAP2 PUSH1 0x20 ADD SWAP2 PUSH2 0x286 JUMP JUMPDEST DUP3 ADD SWAP2 SWAP1 PUSH1 0x0 MSTORE PUSH1 0x20 PUSH1 0x0 KECCAK256 SWAP1 JUMPDEST DUP2 SLOAD DUP2 MSTORE SWAP1 PUSH1 0x1 ADD SWAP1 PUSH1 0x20 ADD DUP1 DUP4 GT PUSH2 0x269 JUMPI DUP3 SWAP1 SUB PUSH1 0x1F AND DUP3 ADD SWAP2 JUMPDEST POP POP POP POP POP DUP2 JUMP JUMPDEST PUSH1 0x0 DUP2 DUP1 PUSH1 0x1 PUSH1 0x0 CALLER PUSH20 0xFFFFFFFFFFFFFFFFFFFFFFFFFFFFFFFFFFFFFFFF AND PUSH20 0xFFFFFFFFFFFFFFFFFFFFFFFFFFFFFFFFFFFFFFFF AND DUP2 MSTORE PUSH1 0x20 ADD SWAP1 DUP2 MSTORE PUSH1 0x20 ADD PUSH1 0x0 KECCAK256 SLOAD LT ISZERO PUSH2 0x313 JUMPI PUSH1 0x40 MLOAD PUSH32 0x8C379A000000000000000000000000000000000000000000000000000000000 DUP2 MSTORE PUSH1 0x4 ADD PUSH2 0x30A SWAP1 PUSH2 0xB9E JUMP JUMPDEST PUSH1 0x40 MLOAD DUP1 SWAP2 SUB SWAP1 REVERT JUMPDEST DUP3 PUSH1 0x2 PUSH1 0x0 CALLER PUSH20 0xFFFFFFFFFFFFFFFFFFFFFFFFFFFFFFFFFFFFFFFF AND PUSH20 0xFFFFFFFFFFFFFFFFFFFFFFFFFFFFFFFFFFFFFFFF AND DUP2 MSTORE PUSH1 0x20 ADD SWAP1 DUP2 MSTORE PUSH1 0x20 ADD PUSH1 0x0 KECCAK256 PUSH1 0x0 DUP7 PUSH20 0xFFFFFFFFFFFFFFFFFFFFFFFFFFFFFFFFFFFFFFFF AND PUSH20 0xFFFFFFFFFFFFFFFFFFFFFFFFFFFFFFFFFFFFFFFF AND DUP2 MSTORE PUSH1 0x20 ADD SWAP1 DUP2 MSTORE PUSH1 0x20 ADD PUSH1 0x0 KECCAK256 DUP2 SWAP1 SSTORE POP DUP4 PUSH20 0xFFFFFFFFFFFFFFFFFFFFFFFFFFFFFFFFFFFFFFFF AND CALLER PUSH20 0xFFFFFFFFFFFFFFFFFFFFFFFFFFFFFFFFFFFFFFFF AND PUSH32 0x8C5BE1E5EBEC7D5BD14F71427D1E84F3DD0314C0F7B2291E5B200AC8C7C3B925 DUP6 PUSH1 0x40 MLOAD PUSH2 0x3F1 SWAP2 SWAP1 PUSH2 0xBBE JUMP JUMPDEST PUSH1 0x40 MLOAD DUP1 SWAP2 SUB SWAP1 LOG3 PUSH1 0x1 SWAP2 POP POP SWAP3 SWAP2 POP POP JUMP JUMPDEST PUSH1 0x0 SLOAD DUP2 JUMP JUMPDEST PUSH1 0x0 DUP2 PUSH1 0x1 PUSH1 0x0 DUP7 PUSH20 0xFFFFFFFFFFFFFFFFFFFFFFFFFFFFFFFFFFFFFFFF AND PUSH20 0xFFFFFFFFFFFFFFFFFFFFFFFFFFFFFFFFFFFFFFFF AND DUP2 MSTORE PUSH1 0x20 ADD SWAP1 DUP2 MSTORE PUSH1 0x20 ADD PUSH1 0x0 KECCAK256 SLOAD LT ISZERO PUSH2 0x48E JUMPI PUSH1 0x40 MLOAD PUSH32 0x8C379A000000000000000000000000000000000000000000000000000000000 DUP2 MSTORE PUSH1 0x4 ADD PUSH2 0x485 SWAP1 PUSH2 0xB9E JUMP JUMPDEST PUSH1 0x40 MLOAD DUP1 SWAP2 SUB SWAP1 REVERT JUMPDEST DUP2 PUSH1 0x2 PUSH1 0x0 DUP7 PUSH20 0xFFFFFFFFFFFFFFFFFFFFFFFFFFFFFFFFFFFFFFFF AND PUSH20 0xFFFFFFFFFFFFFFFFFFFFFFFFFFFFFFFFFFFFFFFF AND DUP2 MSTORE PUSH1 0x20 ADD SWAP1 DUP2 MSTORE PUSH1 0x20 ADD PUSH1 0x0 KECCAK256 PUSH1 0x0 CALLER PUSH20 0xFFFFFFFFFFFFFFFFFFFFFFFFFFFFFFFFFFFFFFFF AND PUSH20 0xFFFFFFFFFFFFFFFFFFFFFFFFFFFFFFFFFFFFFFFF AND DUP2 MSTORE PUSH1 0x20 ADD SWAP1 DUP2 MSTORE PUSH1 0x20 ADD PUSH1 0x0 KECCAK256 SLOAD LT ISZERO PUSH2 0x54D JUMPI PUSH1 0x40 MLOAD PUSH32 0x8C379A000000000000000000000000000000000000000000000000000000000 DUP2 MSTORE PUSH1 0x4 ADD PUSH2 0x544 SWAP1 PUSH2 0xB7E JUMP JUMPDEST PUSH1 0x40 MLOAD DUP1 SWAP2 SUB SWAP1 REVERT JUMPDEST DUP2 PUSH1 0x1 PUSH1 0x0 DUP7 PUSH20 0xFFFFFFFFFFFFFFFFFFFFFFFFFFFFFFFFFFFFFFFF AND PUSH20 0xFFFFFFFFFFFFFFFFFFFFFFFFFFFFFFFFFFFFFFFF AND DUP2 MSTORE PUSH1 0x20 ADD SWAP1 DUP2 MSTORE PUSH1 0x20 ADD PUSH1 0x0 KECCAK256 PUSH1 0x0 DUP3 DUP3 SLOAD PUSH2 0x59C SWAP2 SWAP1 PUSH2 0xC66 JUMP JUMPDEST SWAP3 POP POP DUP2 SWAP1 SSTORE POP DUP2 PUSH1 0x1 PUSH1 0x0 DUP6 PUSH20 0xFFFFFFFFFFFFFFFFFFFFFFFFFFFFFFFFFFFFFFFF AND PUSH20 0xFFFFFFFFFFFFFFFFFFFFFFFFFFFFFFFFFFFFFFFF AND DUP2 MSTORE PUSH1 0x20 ADD SWAP1 DUP2 MSTORE PUSH1 0x20 ADD PUSH1 0x0 KECCAK256 PUSH1 0x0 DUP3 DUP3 SLOAD PUSH2 0x5F2 SWAP2 SWAP1 PUSH2 0xC10 JUMP JUMPDEST SWAP3 POP POP DUP2 SWAP1 SSTORE POP DUP2 PUSH1 0x2 PUSH1 0x0 DUP7 PUSH20 0xFFFFFFFFFFFFFFFFFFFFFFFFFFFFFFFFFFFFFFFF AND PUSH20 0xFFFFFFFFFFFFFFFFFFFFFFFFFFFFFFFFFFFFFFFF AND DUP2 MSTORE PUSH1 0x20 ADD SWAP1 DUP2 MSTORE PUSH1 0x20 ADD PUSH1 0x0 KECCAK256 PUSH1 0x0 CALLER PUSH20 0xFFFFFFFFFFFFFFFFFFFFFFFFFFFFFFFFFFFFFFFF AND PUSH20 0xFFFFFFFFFFFFFFFFFFFFFFFFFFFFFFFFFFFFFFFF AND DUP2 MSTORE PUSH1 0x20 ADD SWAP1 DUP2 MSTORE PUSH1 0x20 ADD PUSH1 0x0 KECCAK256 PUSH1 0x0 DUP3 DUP3 SLOAD PUSH2 0x685 SWAP2 SWAP1 PUSH2 0xC66 JUMP JUMPDEST SWAP3 POP POP DUP2 SWAP1 SSTORE POP DUP3 PUSH20 0xFFFFFFFFFFFFFFFFFFFFFFFFFFFFFFFFFFFFFFFF AND DUP5 PUSH20 0xFFFFFFFFFFFFFFFFFFFFFFFFFFFFFFFFFFFFFFFF AND PUSH32 0xDDF252AD1BE2C89B69C2B068FC378DAA952BA7F163C4A11628F55A4DF523B3EF DUP5 PUSH1 0x40 MLOAD PUSH2 0x6E9 SWAP2 SWAP1 PUSH2 0xBBE JUMP JUMPDEST PUSH1 0x40 MLOAD DUP1 SWAP2 SUB SWAP1 LOG3 PUSH1 0x1 SWAP1 POP SWAP4 SWAP3 POP POP POP JUMP JUMPDEST PUSH1 0x5 PUSH1 0x0 SWAP1 SLOAD SWAP1 PUSH2 0x100 EXP SWAP1 DIV PUSH1 0xFF AND DUP2 JUMP JUMPDEST PUSH1 0x1 PUSH1 0x20 MSTORE DUP1 PUSH1 0x0 MSTORE PUSH1 0x40 PUSH1 0x0 KECCAK256 PUSH1 0x0 SWAP2 POP SWAP1 POP SLOAD DUP2 JUMP JUMPDEST PUSH1 0x4 DUP1 SLOAD PUSH2 0x734 SWAP1 PUSH2 0xD22 JUMP JUMPDEST DUP1 PUSH1 0x1F ADD PUSH1 0x20 DUP1 SWAP2 DIV MUL PUSH1 0x20 ADD PUSH1 0x40 MLOAD SWAP1 DUP2 ADD PUSH1 0x40 MSTORE DUP1 SWAP3 SWAP2 SWAP1 DUP2 DUP2 MSTORE PUSH1 0x20 ADD DUP3 DUP1 SLOAD PUSH2 0x760 SWAP1 PUSH2 0xD22 JUMP JUMPDEST DUP1 ISZERO PUSH2 0x7AD JUMPI DUP1 PUSH1 0x1F LT PUSH2 0x782 JUMPI PUSH2 0x100 DUP1 DUP4 SLOAD DIV MUL DUP4 MSTORE SWAP2 PUSH1 0x20 ADD SWAP2 PUSH2 0x7AD JUMP JUMPDEST DUP3 ADD SWAP2 SWAP1 PUSH1 0x0 MSTORE PUSH1 0x20 PUSH1 0x0 KECCAK256 SWAP1 JUMPDEST DUP2 SLOAD DUP2 MSTORE SWAP1 PUSH1 0x1 ADD SWAP1 PUSH1 0x20 ADD DUP1 DUP4 GT PUSH2 0x790 JUMPI DUP3 SWAP1 SUB PUSH1 0x1F AND DUP3 ADD SWAP2 JUMPDEST POP POP POP POP POP DUP2 JUMP JUMPDEST PUSH1 0x0 DUP2 DUP1 PUSH1 0x1 PUSH1 0x0 CALLER PUSH20 0xFFFFFFFFFFFFFFFFFFFFFFFFFFFFFFFFFFFFFFFF AND PUSH20 0xFFFFFFFFFFFFFFFFFFFFFFFFFFFFFFFFFFFFFFFF AND DUP2 MSTORE PUSH1 0x20 ADD SWAP1 DUP2 MSTORE PUSH1 0x20 ADD PUSH1 0x0 KECCAK256 SLOAD LT ISZERO PUSH2 0x83A JUMPI PUSH1 0x40 MLOAD PUSH32 0x8C379A000000000000000000000000000000000000000000000000000000000 DUP2 MSTORE PUSH1 0x4 ADD PUSH2 0x831 SWAP1 PUSH2 0xB9E JUMP JUMPDEST PUSH1 0x40 MLOAD DUP1 SWAP2 SUB SWAP1 REVERT JUMPDEST DUP3 PUSH1 0x1 PUSH1 0x0 CALLER PUSH20 0xFFFFFFFFFFFFFFFFFFFFFFFFFFFFFFFFFFFFFFFF AND PUSH20 0xFFFFFFFFFFFFFFFFFFFFFFFFFFFFFFFFFFFFFFFF AND DUP2 MSTORE PUSH1 0x20 ADD SWAP1 DUP2 MSTORE PUSH1 0x20 ADD PUSH1 0x0 KECCAK256 PUSH1 0x0 DUP3 DUP3 SLOAD PUSH2 0x889 SWAP2 SWAP1 PUSH2 0xC66 JUMP JUMPDEST SWAP3 POP POP DUP2 SWAP1 SSTORE POP DUP3 PUSH1 0x1 PUSH1 0x0 DUP7 PUSH20 0xFFFFFFFFFFFFFFFFFFFFFFFFFFFFFFFFFFFFFFFF AND PUSH20 0xFFFFFFFFFFFFFFFFFFFFFFFFFFFFFFFFFFFFFFFF AND DUP2 MSTORE PUSH1 0x20 ADD SWAP1 DUP2 MSTORE PUSH1 0x20 ADD PUSH1 0x0 KECCAK256 PUSH1 0x0 DUP3 DUP3 SLOAD PUSH2 0x8DF SWAP2 SWAP1 PUSH2 0xC10 JUMP JUMPDEST SWAP3 POP POP DUP2 SWAP1 SSTORE POP DUP4 PUSH20 0xFFFFFFFFFFFFFFFFFFFFFFFFFFFFFFFFFFFFFFFF AND CALLER PUSH20 0xFFFFFFFFFFFFFFFFFFFFFFFFFFFFFFFFFFFFFFFF AND PUSH32 0xDDF252AD1BE2C89B69C2B068FC378DAA952BA7F163C4A11628F55A4DF523B3EF DUP6 PUSH1 0x40 MLOAD PUSH2 0x943 SWAP2 SWAP1 PUSH2 0xBBE JUMP JUMPDEST PUSH1 0x40 MLOAD DUP1 SWAP2 SUB SWAP1 LOG3 PUSH1 0x1 SWAP2 POP POP SWAP3 SWAP2 POP POP JUMP JUMPDEST PUSH1 0x2 PUSH1 0x20 MSTORE DUP2 PUSH1 0x0 MSTORE PUSH1 0x40 PUSH1 0x0 KECCAK256 PUSH1 0x20 MSTORE DUP1 PUSH1 0x0 MSTORE PUSH1 0x40 PUSH1 0x0 KECCAK256 PUSH1 0x0 SWAP2 POP SWAP2 POP POP SLOAD DUP2 JUMP JUMPDEST PUSH1 0x0 DUP2 CALLDATALOAD SWAP1 POP PUSH2 0x98A DUP2 PUSH2 0xE15 JUMP JUMPDEST SWAP3 SWAP2 POP POP JUMP JUMPDEST PUSH1 0x0 DUP2 CALLDATALOAD SWAP1 POP PUSH2 0x99F DUP2 PUSH2 0xE2C JUMP JUMPDEST SWAP3 SWAP2 POP POP JUMP JUMPDEST PUSH1 0x0 PUSH1 0x20 DUP3 DUP5 SUB SLT ISZERO PUSH2 0x9B7 JUMPI PUSH1 0x0 DUP1 REVERT JUMPDEST PUSH1 0x0 PUSH2 0x9C5 DUP5 DUP3 DUP6 ADD PUSH2 0x97B JUMP JUMPDEST SWAP2 POP POP SWAP3 SWAP2 POP POP JUMP JUMPDEST PUSH1 0x0 DUP1 PUSH1 0x40 DUP4 DUP6 SUB SLT ISZERO PUSH2 0x9E1 JUMPI PUSH1 0x0 DUP1 REVERT JUMPDEST PUSH1 0x0 PUSH2 0x9EF DUP6 DUP3 DUP7 ADD PUSH2 0x97B JUMP JUMPDEST SWAP3 POP POP PUSH1 0x20 PUSH2 0xA00 DUP6 DUP3 DUP7 ADD PUSH2 0x97B JUMP JUMPDEST SWAP2 POP POP SWAP3 POP SWAP3 SWAP1 POP JUMP JUMPDEST PUSH1 0x0 DUP1 PUSH1 0x0 PUSH1 0x60 DUP5 DUP7 SUB SLT ISZERO PUSH2 0xA1F JUMPI PUSH1 0x0 DUP1 REVERT JUMPDEST PUSH1 0x0 PUSH2 0xA2D DUP7 DUP3 DUP8 ADD PUSH2 0x97B JUMP JUMPDEST SWAP4 POP POP PUSH1 0x20 PUSH2 0xA3E DUP7 DUP3 DUP8 ADD PUSH2 0x97B JUMP JUMPDEST SWAP3 POP POP PUSH1 0x40 PUSH2 0xA4F DUP7 DUP3 DUP8 ADD PUSH2 0x990 JUMP JUMPDEST SWAP2 POP POP SWAP3 POP SWAP3 POP SWAP3 JUMP JUMPDEST PUSH1 0x0 DUP1 PUSH1 0x40 DUP4 DUP6 SUB SLT ISZERO PUSH2 0xA6C JUMPI PUSH1 0x0 DUP1 REVERT JUMPDEST PUSH1 0x0 PUSH2 0xA7A DUP6 DUP3 DUP7 ADD PUSH2 0x97B JUMP JUMPDEST SWAP3 POP POP PUSH1 0x20 PUSH2 0xA8B DUP6 DUP3 DUP7 ADD PUSH2 0x990 JUMP JUMPDEST SWAP2 POP POP SWAP3 POP SWAP3 SWAP1 POP JUMP JUMPDEST PUSH2 0xA9E DUP2 PUSH2 0xCAC JUMP JUMPDEST DUP3 MSTORE POP POP JUMP JUMPDEST PUSH1 0x0 PUSH2 0xAAF DUP3 PUSH2 0xBF4 JUMP JUMPDEST PUSH2 0xAB9 DUP2 DUP6 PUSH2 0xBFF JUMP JUMPDEST SWAP4 POP PUSH2 0xAC9 DUP2 DUP6 PUSH1 0x20 DUP7 ADD PUSH2 0xCEF JUMP JUMPDEST PUSH2 0xAD2 DUP2 PUSH2 0xDB2 JUMP JUMPDEST DUP5 ADD SWAP2 POP POP SWAP3 SWAP2 POP POP JUMP JUMPDEST PUSH1 0x0 PUSH2 0xAEA PUSH1 0x12 DUP4 PUSH2 0xBFF JUMP JUMPDEST SWAP2 POP PUSH2 0xAF5 DUP3 PUSH2 0xDC3 JUMP JUMPDEST PUSH1 0x20 DUP3 ADD SWAP1 POP SWAP2 SWAP1 POP JUMP JUMPDEST PUSH1 0x0 PUSH2 0xB0D PUSH1 0x15 DUP4 PUSH2 0xBFF JUMP JUMPDEST SWAP2 POP PUSH2 0xB18 DUP3 PUSH2 0xDEC JUMP JUMPDEST PUSH1 0x20 DUP3 ADD SWAP1 POP SWAP2 SWAP1 POP JUMP JUMPDEST PUSH2 0xB2C DUP2 PUSH2 0xCD8 JUMP JUMPDEST DUP3 MSTORE POP POP JUMP JUMPDEST PUSH2 0xB3B DUP2 PUSH2 0xCE2 JUMP JUMPDEST DUP3 MSTORE POP POP JUMP JUMPDEST PUSH1 0x0 PUSH1 0x20 DUP3 ADD SWAP1 POP PUSH2 0xB56 PUSH1 0x0 DUP4 ADD DUP5 PUSH2 0xA95 JUMP JUMPDEST SWAP3 SWAP2 POP POP JUMP JUMPDEST PUSH1 0x0 PUSH1 0x20 DUP3 ADD SWAP1 POP DUP2 DUP2 SUB PUSH1 0x0 DUP4 ADD MSTORE PUSH2 0xB76 DUP2 DUP5 PUSH2 0xAA4 JUMP JUMPDEST SWAP1 POP SWAP3 SWAP2 POP POP JUMP JUMPDEST PUSH1 0x0 PUSH1 0x20 DUP3 ADD SWAP1 POP DUP2 DUP2 SUB PUSH1 0x0 DUP4 ADD MSTORE PUSH2 0xB97 DUP2 PUSH2 0xADD JUMP JUMPDEST SWAP1 POP SWAP2 SWAP1 POP JUMP JUMPDEST PUSH1 0x0 PUSH1 0x20 DUP3 ADD SWAP1 POP DUP2 DUP2 SUB PUSH1 0x0 DUP4 ADD MSTORE PUSH2 0xBB7 DUP2 PUSH2 0xB00 JUMP JUMPDEST SWAP1 POP SWAP2 SWAP1 POP JUMP JUMPDEST PUSH1 0x0 PUSH1 0x20 DUP3 ADD SWAP1 POP PUSH2 0xBD3 PUSH1 0x0 DUP4 ADD DUP5 PUSH2 0xB23 JUMP JUMPDEST SWAP3 SWAP2 POP POP JUMP JUMPDEST PUSH1 0x0 PUSH1 0x20 DUP3 ADD SWAP1 POP PUSH2 0xBEE PUSH1 0x0 DUP4 ADD DUP5 PUSH2 0xB32 JUMP JUMPDEST SWAP3 SWAP2 POP POP JUMP JUMPDEST PUSH1 0x0 DUP2 MLOAD SWAP1 POP SWAP2 SWAP1 POP JUMP JUMPDEST PUSH1 0x0 DUP3 DUP3 MSTORE PUSH1 0x20 DUP3 ADD SWAP1 POP SWAP3 SWAP2 POP POP JUMP JUMPDEST PUSH1 0x0 PUSH2 0xC1B DUP3 PUSH2 0xCD8 JUMP JUMPDEST SWAP2 POP PUSH2 0xC26 DUP4 PUSH2 0xCD8 JUMP JUMPDEST SWAP3 POP DUP3 PUSH32 0xFFFFFFFFFFFFFFFFFFFFFFFFFFFFFFFFFFFFFFFFFFFFFFFFFFFFFFFFFFFFFFFF SUB DUP3 GT ISZERO PUSH2 0xC5B JUMPI PUSH2 0xC5A PUSH2 0xD54 JUMP JUMPDEST JUMPDEST DUP3 DUP3 ADD SWAP1 POP SWAP3 SWAP2 POP POP JUMP JUMPDEST PUSH1 0x0 PUSH2 0xC71 DUP3 PUSH2 0xCD8 JUMP JUMPDEST SWAP2 POP PUSH2 0xC7C DUP4 PUSH2 0xCD8 JUMP JUMPDEST SWAP3 POP DUP3 DUP3 LT ISZERO PUSH2 0xC8F JUMPI PUSH2 0xC8E PUSH2 0xD54 JUMP JUMPDEST JUMPDEST DUP3 DUP3 SUB SWAP1 POP SWAP3 SWAP2 POP POP JUMP JUMPDEST PUSH1 0x0 PUSH2 0xCA5 DUP3 PUSH2 0xCB8 JUMP JUMPDEST SWAP1 POP SWAP2 SWAP1 POP JUMP JUMPDEST PUSH1 0x0 DUP2 ISZERO ISZERO SWAP1 POP SWAP2 SWAP1 POP JUMP JUMPDEST PUSH1 0x0 PUSH20 0xFFFFFFFFFFFFFFFFFFFFFFFFFFFFFFFFFFFFFFFF DUP3 AND SWAP1 POP SWAP2 SWAP1 POP JUMP JUMPDEST PUSH1 0x0 DUP2 SWAP1 POP SWAP2 SWAP1 POP JUMP JUMPDEST PUSH1 0x0 PUSH1 0xFF DUP3 AND SWAP1 POP SWAP2 SWAP1 POP JUMP JUMPDEST PUSH1 0x0 JUMPDEST DUP4 DUP2 LT ISZERO PUSH2 0xD0D JUMPI DUP1 DUP3 ADD MLOAD DUP2 DUP5 ADD MSTORE PUSH1 0x20 DUP2 ADD SWAP1 POP PUSH2 0xCF2 JUMP JUMPDEST DUP4 DUP2 GT ISZERO PUSH2 0xD1C JUMPI PUSH1 0x0 DUP5 DUP5 ADD MSTORE JUMPDEST POP POP POP POP JUMP JUMPDEST PUSH1 0x0 PUSH1 0x2 DUP3 DIV SWAP1 POP PUSH1 0x1 DUP3 AND DUP1 PUSH2 0xD3A JUMPI PUSH1 0x7F DUP3 AND SWAP2 POP JUMPDEST PUSH1 0x20 DUP3 LT DUP2 EQ ISZERO PUSH2 0xD4E JUMPI PUSH2 0xD4D PUSH2 0xD83 JUMP JUMPDEST JUMPDEST POP SWAP2 SWAP1 POP JUMP JUMPDEST PUSH32 0x4E487B7100000000000000000000000000000000000000000000000000000000 PUSH1 0x0 MSTORE PUSH1 0x11 PUSH1 0x4 MSTORE PUSH1 0x24 PUSH1 0x0 REVERT JUMPDEST PUSH32 0x4E487B7100000000000000000000000000000000000000000000000000000000 PUSH1 0x0 MSTORE PUSH1 0x22 PUSH1 0x4 MSTORE PUSH1 0x24 PUSH1 0x0 REVERT JUMPDEST PUSH1 0x0 PUSH1 0x1F NOT PUSH1 0x1F DUP4 ADD AND SWAP1 POP SWAP2 SWAP1 POP JUMP JUMPDEST PUSH32 0x416C6C6F77616E63652065786365656465640000000000000000000000000000 PUSH1 0x0 DUP3 ADD MSTORE POP JUMP JUMPDEST PUSH32 0x62616C616E6365206973206E6F7420656E6F7567680000000000000000000000 PUSH1 0x0 DUP3 ADD MSTORE POP JUMP JUMPDEST PUSH2 0xE1E DUP2 PUSH2 0xC9A JUMP JUMPDEST DUP2 EQ PUSH2 0xE29 JUMPI PUSH1 0x0 DUP1 REVERT JUMPDEST POP JUMP JUMPDEST PUSH2 0xE35 DUP2 PUSH2 0xCD8 JUMP JUMPDEST DUP2 EQ PUSH2 0xE40 JUMPI PUSH1 0x0 DUP1 REVERT JUMPDEST POP JUMP INVALID LOG2 PUSH5 0x6970667358 0x22 SLT KECCAK256 LOG2 0x5D PUSH32 0x1065E8F6A02DDEE5B229EDE963626AB7CD8F90FC2A41F5A115AB7D585364736F PUSH13 0x63430008040033000000000000 "
				},
				"gasEstimates": {
					"creation": {
						"codeDepositCost": "741000",
						"executionCost": "infinite",
						"totalCost": "infinite"
					},
					"external": {
						"allowance(address,address)": "infinite",
						"approve(address,uint256)": "infinite",
						"balanceOf(address)": "1536",
						"decimals()": "1171",
						"name()": "infinite",
						"symbol()": "infinite",
						"totalSupply()": "1174",
						"transfer(address,uint256)": "infinite",
						"transferFrom(address,address,uint256)": "infinite"
					}
				},
				"methodIdentifiers": {
					"allowance(address,address)": "dd62ed3e",
					"approve(address,uint256)": "095ea7b3",
					"balanceOf(address)": "70a08231",
					"decimals()": "313ce567",
					"name()": "06fdde03",
					"symbol()": "95d89b41",
					"totalSupply()": "18160ddd",
					"transfer(address,uint256)": "a9059cbb",
					"transferFrom(address,address,uint256)": "23b872dd"
				}
			},
			"storageLayout": {
				"storage": [
					{
						"astId": 79,
						"contract": "contracts/base/ERC20Test.sol:ERC20Impl",
						"label": "totalSupply",
						"offset": 0,
						"slot": "0",
						"type": "t_uint256"
					},
					{
						"astId": 84,
						"contract": "contracts/base/ERC20Test.sol:ERC20Impl",
						"label": "balanceOf",
						"offset": 0,
						"slot": "1",
						"type": "t_mapping(t_address,t_uint256)"
					},
					{
						"astId": 91,
						"contract": "contracts/base/ERC20Test.sol:ERC20Impl",
						"label": "allowance",
						"offset": 0,
						"slot": "2",
						"type": "t_mapping(t_address,t_mapping(t_address,t_uint256))"
					},
					{
						"astId": 94,
						"contract": "contracts/base/ERC20Test.sol:ERC20Impl",
						"label": "name",
						"offset": 0,
						"slot": "3",
						"type": "t_string_storage"
					},
					{
						"astId": 97,
						"contract": "contracts/base/ERC20Test.sol:ERC20Impl",
						"label": "symbol",
						"offset": 0,
						"slot": "4",
						"type": "t_string_storage"
					},
					{
						"astId": 100,
						"contract": "contracts/base/ERC20Test.sol:ERC20Impl",
						"label": "decimals",
						"offset": 0,
						"slot": "5",
						"type": "t_uint8"
					}
				],
				"types": {
					"t_address": {
						"encoding": "inplace",
						"label": "address",
						"numberOfBytes": "20"
					},
					"t_mapping(t_address,t_mapping(t_address,t_uint256))": {
						"encoding": "mapping",
						"key": "t_address",
						"label": "mapping(address => mapping(address => uint256))",
						"numberOfBytes": "32",
						"value": "t_mapping(t_address,t_uint256)"
					},
					"t_mapping(t_address,t_uint256)": {
						"encoding": "mapping",
						"key": "t_address",
						"label": "mapping(address => uint256)",
						"numberOfBytes": "32",
						"value": "t_uint256"
					},
					"t_string_storage": {
						"encoding": "bytes",
						"label": "string",
						"numberOfBytes": "32"
					},
					"t_uint256": {
						"encoding": "inplace",
						"label": "uint256",
						"numberOfBytes": "32"
					},
					"t_uint8": {
						"encoding": "inplace",
						"label": "uint8",
						"numberOfBytes": "1"
					}
				}
			},
			"userdoc": {
				"kind": "user",
				"methods": {},
				"version": 1
			}
		}
	}
}