{
	"contracts/base/ProxyTest.sol": {
		"Proxy": {
			"abi": [
				{
					"inputs": [],
					"stateMutability": "nonpayable",
					"type": "constructor"
				},
				{
					"stateMutability": "payable",
					"type": "fallback"
				},
				{
					"inputs": [],
					"name": "admin",
					"outputs": [
						{
							"internalType": "address",
							"name": "a",
							"type": "address"
						}
					],
					"stateMutability": "nonpayable",
					"type": "function"
				},
				{
					"inputs": [
						{
							"internalType": "address",
							"name": "newAdmin",
							"type": "address"
						}
					],
					"name": "changeAdmin",
					"outputs": [],
					"stateMutability": "nonpayable",
					"type": "function"
				},
				{
					"inputs": [],
					"name": "implementation",
					"outputs": [
						{
							"internalType": "address",
							"name": "a",
							"type": "address"
						}
					],
					"stateMutability": "nonpayable",
					"type": "function"
				},
				{
					"inputs": [
						{
							"internalType": "address",
							"name": "_newImplementation",
							"type": "address"
						}
					],
					"name": "upgradeTo",
					"outputs": [],
					"stateMutability": "nonpayable",
					"type": "function"
				},
				{
					"stateMutability": "payable",
					"type": "receive"
				}
			],
			"devdoc": {
				"kind": "dev",
				"methods": {},
				"version": 1
			},
			"evm": {
				"assembly": "    /* \"contracts/base/ProxyTest.sol\":1409:3892  contract Proxy {... */\n  mstore(0x40, 0x80)\n    /* \"contracts/base/ProxyTest.sol\":1714:1767  constructor() {... */\n  callvalue\n  dup1\n  iszero\n  tag_1\n  jumpi\n  0x00\n  dup1\n  revert\ntag_1:\n  pop\n    /* \"contracts/base/ProxyTest.sol\":1739:1759  setAdmin(msg.sender) */\n  tag_4\n    /* \"contracts/base/ProxyTest.sol\":1748:1758  msg.sender */\n  caller\n    /* \"contracts/base/ProxyTest.sol\":1739:1747  setAdmin */\n  shl(0x20, tag_5)\n    /* \"contracts/base/ProxyTest.sol\":1739:1759  setAdmin(msg.sender) */\n  0x20\n  shr\n  jump\t// in\ntag_4:\n    /* \"contracts/base/ProxyTest.sol\":1409:3892  contract Proxy {... */\n  jump(tag_6)\n    /* \"contracts/base/ProxyTest.sol\":2904:3083  function setAdmin(address newValue) private {... */\ntag_5:\n    /* \"contracts/base/ProxyTest.sol\":2987:2988  0 */\n  0x00\n    /* \"contracts/base/ProxyTest.sol\":2967:2989  newValue != address(0) */\n  0xffffffffffffffffffffffffffffffffffffffff\n  and\n    /* \"contracts/base/ProxyTest.sol\":2967:2975  newValue */\n  dup2\n    /* \"contracts/base/ProxyTest.sol\":2967:2989  newValue != address(0) */\n  0xffffffffffffffffffffffffffffffffffffffff\n  and\n  sub\n    /* \"contracts/base/ProxyTest.sol\":2959:3009  require(newValue != address(0) , \"not a contract\") */\n  tag_8\n  jumpi\n  mload(0x40)\n  0x08c379a000000000000000000000000000000000000000000000000000000000\n  dup2\n  mstore\n  0x04\n  add\n  tag_9\n  swap1\n  tag_10\n  jump\t// in\ntag_9:\n  mload(0x40)\n  dup1\n  swap2\n  sub\n  swap1\n  revert\ntag_8:\n    /* \"contracts/base/ProxyTest.sol\":3067:3075  newValue */\n  dup1\n    /* \"contracts/base/ProxyTest.sol\":3020:3058  AddressSlot.getAddressSlot(ADMIN_SLOT) */\n  tag_11\n    /* \"contracts/base/ProxyTest.sol\":1632:1633  1 */\n  0x01\n    /* \"contracts/base/ProxyTest.sol\":1596:1628  keccak256(\"eip1967.proxy.admin\") */\n  0xb53127684a568b3173ae13b9f8a6016e243e63b6e8ee1178d6a717850b5d6104\n    /* \"contracts/base/ProxyTest.sol\":1591:1629  uint(keccak256(\"eip1967.proxy.admin\")) */\n  0x00\n  shr\n    /* \"contracts/base/ProxyTest.sol\":1591:1633  uint(keccak256(\"eip1967.proxy.admin\")) - 1 */\n  tag_12\n  swap2\n  swap1\n  tag_13\n  jump\t// in\ntag_12:\n    /* \"contracts/base/ProxyTest.sol\":1583:1634  bytes32(uint(keccak256(\"eip1967.proxy.admin\")) - 1) */\n  0x00\n  shl\n    /* \"contracts/base/ProxyTest.sol\":3020:3046  AddressSlot.getAddressSlot */\n  shl(0x20, tag_14)\n    /* \"contracts/base/ProxyTest.sol\":3020:3058  AddressSlot.getAddressSlot(ADMIN_SLOT) */\n  0x20\n  shr\n  jump\t// in\ntag_11:\n    /* \"contracts/base/ProxyTest.sol\":3020:3064  AddressSlot.getAddressSlot(ADMIN_SLOT).value */\n  0x00\n  add\n  0x00\n    /* \"contracts/base/ProxyTest.sol\":3020:3075  AddressSlot.getAddressSlot(ADMIN_SLOT).value = newValue */\n  0x0100\n  exp\n  dup2\n  sload\n  dup2\n  0xffffffffffffffffffffffffffffffffffffffff\n  mul\n  not\n  and\n  swap1\n  dup4\n  0xffffffffffffffffffffffffffffffffffffffff\n  and\n  mul\n  or\n  swap1\n  sstore\n  pop\n    /* \"contracts/base/ProxyTest.sol\":2904:3083  function setAdmin(address newValue) private {... */\n  pop\n  jump\t// out\n    /* \"contracts/base/ProxyTest.sol\":466:627  function getAddressSlot(bytes32 slot) internal pure  returns (AddrSlot storage a) {... */\ntag_14:\n    /* \"contracts/base/ProxyTest.sol\":528:546  AddrSlot storage a */\n  0x00\n    /* \"contracts/base/ProxyTest.sol\":595:599  slot */\n  dup2\n    /* \"contracts/base/ProxyTest.sol\":585:599  a.slot := slot */\n  swap1\n  pop\n    /* \"contracts/base/ProxyTest.sol\":466:627  function getAddressSlot(bytes32 slot) internal pure  returns (AddrSlot storage a) {... */\n  swap2\n  swap1\n  pop\n  jump\t// out\n    /* \"#utility.yul\":7:176   */\ntag_16:\n    /* \"#utility.yul\":91:102   */\n  0x00\n    /* \"#utility.yul\":125:131   */\n  dup3\n    /* \"#utility.yul\":120:123   */\n  dup3\n    /* \"#utility.yul\":113:132   */\n  mstore\n    /* \"#utility.yul\":165:169   */\n  0x20\n    /* \"#utility.yul\":160:163   */\n  dup3\n    /* \"#utility.yul\":156:170   */\n  add\n    /* \"#utility.yul\":141:170   */\n  swap1\n  pop\n    /* \"#utility.yul\":7:176   */\n  swap3\n  swap2\n  pop\n  pop\n  jump\t// out\n    /* \"#utility.yul\":182:346   */\ntag_17:\n    /* \"#utility.yul\":322:338   */\n  0x6e6f74206120636f6e7472616374000000000000000000000000000000000000\n    /* \"#utility.yul\":318:319   */\n  0x00\n    /* \"#utility.yul\":310:316   */\n  dup3\n    /* \"#utility.yul\":306:320   */\n  add\n    /* \"#utility.yul\":299:339   */\n  mstore\n    /* \"#utility.yul\":182:346   */\n  pop\n  jump\t// out\n    /* \"#utility.yul\":352:718   */\ntag_18:\n    /* \"#utility.yul\":494:497   */\n  0x00\n    /* \"#utility.yul\":515:582   */\n  tag_25\n    /* \"#utility.yul\":579:581   */\n  0x0e\n    /* \"#utility.yul\":574:577   */\n  dup4\n    /* \"#utility.yul\":515:582   */\n  tag_16\n  jump\t// in\ntag_25:\n    /* \"#utility.yul\":508:582   */\n  swap2\n  pop\n    /* \"#utility.yul\":591:684   */\n  tag_26\n    /* \"#utility.yul\":680:683   */\n  dup3\n    /* \"#utility.yul\":591:684   */\n  tag_17\n  jump\t// in\ntag_26:\n    /* \"#utility.yul\":709:711   */\n  0x20\n    /* \"#utility.yul\":704:707   */\n  dup3\n    /* \"#utility.yul\":700:712   */\n  add\n    /* \"#utility.yul\":693:712   */\n  swap1\n  pop\n    /* \"#utility.yul\":352:718   */\n  swap2\n  swap1\n  pop\n  jump\t// out\n    /* \"#utility.yul\":724:1143   */\ntag_10:\n    /* \"#utility.yul\":890:894   */\n  0x00\n    /* \"#utility.yul\":928:930   */\n  0x20\n    /* \"#utility.yul\":917:926   */\n  dup3\n    /* \"#utility.yul\":913:931   */\n  add\n    /* \"#utility.yul\":905:931   */\n  swap1\n  pop\n    /* \"#utility.yul\":977:986   */\n  dup2\n    /* \"#utility.yul\":971:975   */\n  dup2\n    /* \"#utility.yul\":967:987   */\n  sub\n    /* \"#utility.yul\":963:964   */\n  0x00\n    /* \"#utility.yul\":952:961   */\n  dup4\n    /* \"#utility.yul\":948:965   */\n  add\n    /* \"#utility.yul\":941:988   */\n  mstore\n    /* \"#utility.yul\":1005:1136   */\n  tag_28\n    /* \"#utility.yul\":1131:1135   */\n  dup2\n    /* \"#utility.yul\":1005:1136   */\n  tag_18\n  jump\t// in\ntag_28:\n    /* \"#utility.yul\":997:1136   */\n  swap1\n  pop\n    /* \"#utility.yul\":724:1143   */\n  swap2\n  swap1\n  pop\n  jump\t// out\n    /* \"#utility.yul\":1149:1226   */\ntag_19:\n    /* \"#utility.yul\":1186:1193   */\n  0x00\n    /* \"#utility.yul\":1215:1220   */\n  dup2\n    /* \"#utility.yul\":1204:1220   */\n  swap1\n  pop\n    /* \"#utility.yul\":1149:1226   */\n  swap2\n  swap1\n  pop\n  jump\t// out\n    /* \"#utility.yul\":1232:1412   */\ntag_20:\n    /* \"#utility.yul\":1280:1357   */\n  0x4e487b7100000000000000000000000000000000000000000000000000000000\n    /* \"#utility.yul\":1277:1278   */\n  0x00\n    /* \"#utility.yul\":1270:1358   */\n  mstore\n    /* \"#utility.yul\":1377:1381   */\n  0x11\n    /* \"#utility.yul\":1374:1375   */\n  0x04\n    /* \"#utility.yul\":1367:1382   */\n  mstore\n    /* \"#utility.yul\":1401:1405   */\n  0x24\n    /* \"#utility.yul\":1398:1399   */\n  0x00\n    /* \"#utility.yul\":1391:1406   */\n  revert\n    /* \"#utility.yul\":1418:1612   */\ntag_13:\n    /* \"#utility.yul\":1458:1462   */\n  0x00\n    /* \"#utility.yul\":1478:1498   */\n  tag_32\n    /* \"#utility.yul\":1496:1497   */\n  dup3\n    /* \"#utility.yul\":1478:1498   */\n  tag_19\n  jump\t// in\ntag_32:\n    /* \"#utility.yul\":1473:1498   */\n  swap2\n  pop\n    /* \"#utility.yul\":1512:1532   */\n  tag_33\n    /* \"#utility.yul\":1530:1531   */\n  dup4\n    /* \"#utility.yul\":1512:1532   */\n  tag_19\n  jump\t// in\ntag_33:\n    /* \"#utility.yul\":1507:1532   */\n  swap3\n  pop\n    /* \"#utility.yul\":1556:1557   */\n  dup3\n    /* \"#utility.yul\":1553:1554   */\n  dup3\n    /* \"#utility.yul\":1549:1558   */\n  sub\n    /* \"#utility.yul\":1541:1558   */\n  swap1\n  pop\n    /* \"#utility.yul\":1580:1581   */\n  dup2\n    /* \"#utility.yul\":1574:1578   */\n  dup2\n    /* \"#utility.yul\":1571:1582   */\n  gt\n    /* \"#utility.yul\":1568:1605   */\n  iszero\n  tag_34\n  jumpi\n    /* \"#utility.yul\":1585:1603   */\n  tag_35\n  tag_20\n  jump\t// in\ntag_35:\n    /* \"#utility.yul\":1568:1605   */\ntag_34:\n    /* \"#utility.yul\":1418:1612   */\n  swap3\n  swap2\n  pop\n  pop\n  jump\t// out\n    /* \"contracts/base/ProxyTest.sol\":1409:3892  contract Proxy {... */\ntag_6:\n  dataSize(sub_0)\n  dup1\n  dataOffset(sub_0)\n  0x00\n  codecopy\n  0x00\n  return\nstop\n\nsub_0: assembly {\n        /* \"contracts/base/ProxyTest.sol\":1409:3892  contract Proxy {... */\n      mstore(0x40, 0x80)\n      jumpi(tag_1, lt(calldatasize, 0x04))\n      shr(0xe0, calldataload(0x00))\n      dup1\n      0x3659cfe6\n      eq\n      tag_3\n      jumpi\n      dup1\n      0x5c60da1b\n      eq\n      tag_4\n      jumpi\n      dup1\n      0x8f283970\n      eq\n      tag_5\n      jumpi\n      dup1\n      0xf851a440\n      eq\n      tag_6\n      jumpi\n      jump(tag_2)\n    tag_1:\n      jumpi(tag_2, calldatasize)\n        /* \"contracts/base/ProxyTest.sol\":2233:2252  delegatecallProxy() */\n      tag_9\n        /* \"contracts/base/ProxyTest.sol\":2233:2250  delegatecallProxy */\n      tag_10\n        /* \"contracts/base/ProxyTest.sol\":2233:2252  delegatecallProxy() */\n      jump\t// in\n    tag_9:\n        /* \"contracts/base/ProxyTest.sol\":1409:3892  contract Proxy {... */\n      stop\n    tag_2:\n        /* \"contracts/base/ProxyTest.sol\":2159:2178  delegatecallProxy() */\n      tag_13\n        /* \"contracts/base/ProxyTest.sol\":2159:2176  delegatecallProxy */\n      tag_10\n        /* \"contracts/base/ProxyTest.sol\":2159:2178  delegatecallProxy() */\n      jump\t// in\n    tag_13:\n        /* \"contracts/base/ProxyTest.sol\":1409:3892  contract Proxy {... */\n      stop\n        /* \"contracts/base/ProxyTest.sol\":1925:2114  function upgradeTo(address _newImplementation) external ifAdmin{... */\n    tag_3:\n      callvalue\n      dup1\n      iszero\n      tag_14\n      jumpi\n      0x00\n      dup1\n      revert\n    tag_14:\n      pop\n      tag_15\n      0x04\n      dup1\n      calldatasize\n      sub\n      dup2\n      add\n      swap1\n      tag_16\n      swap2\n      swap1\n      tag_17\n      jump\t// in\n    tag_16:\n      tag_18\n      jump\t// in\n    tag_15:\n      stop\n        /* \"contracts/base/ProxyTest.sol\":3673:3781  function implementation() external ifAdmin returns (address a) {... */\n    tag_4:\n      callvalue\n      dup1\n      iszero\n      tag_19\n      jumpi\n      0x00\n      dup1\n      revert\n    tag_19:\n      pop\n      tag_20\n      tag_21\n      jump\t// in\n    tag_20:\n      mload(0x40)\n      tag_22\n      swap2\n      swap1\n      tag_23\n      jump\t// in\n    tag_22:\n      mload(0x40)\n      dup1\n      swap2\n      sub\n      swap1\n      return\n        /* \"contracts/base/ProxyTest.sol\":3789:3881  function changeAdmin(address newAdmin) external ifAdmin{... */\n    tag_5:\n      callvalue\n      dup1\n      iszero\n      tag_24\n      jumpi\n      0x00\n      dup1\n      revert\n    tag_24:\n      pop\n      tag_25\n      0x04\n      dup1\n      calldatasize\n      sub\n      dup2\n      add\n      swap1\n      tag_26\n      swap2\n      swap1\n      tag_17\n      jump\t// in\n    tag_26:\n      tag_27\n      jump\t// in\n    tag_25:\n      stop\n        /* \"contracts/base/ProxyTest.sol\":3577:3667  function admin() external ifAdmin returns (address a) {... */\n    tag_6:\n      callvalue\n      dup1\n      iszero\n      tag_28\n      jumpi\n      0x00\n      dup1\n      revert\n    tag_28:\n      pop\n      tag_29\n      tag_30\n      jump\t// in\n    tag_29:\n      mload(0x40)\n      tag_31\n      swap2\n      swap1\n      tag_23\n      jump\t// in\n    tag_31:\n      mload(0x40)\n      dup1\n      swap2\n      sub\n      swap1\n      return\n        /* \"contracts/base/ProxyTest.sol\":2274:2894  function delegatecallProxy() internal {... */\n    tag_10:\n        /* \"contracts/base/ProxyTest.sol\":2323:2336  address _impl */\n      0x00\n        /* \"contracts/base/ProxyTest.sol\":2339:2358  getImplementation() */\n      tag_33\n        /* \"contracts/base/ProxyTest.sol\":2339:2356  getImplementation */\n      tag_34\n        /* \"contracts/base/ProxyTest.sol\":2339:2358  getImplementation() */\n      jump\t// in\n    tag_33:\n        /* \"contracts/base/ProxyTest.sol\":2323:2358  address _impl = getImplementation() */\n      swap1\n      pop\n        /* \"contracts/base/ProxyTest.sol\":2394:2395  0 */\n      0x00\n        /* \"contracts/base/ProxyTest.sol\":2377:2396  _impl != address(0) */\n      0xffffffffffffffffffffffffffffffffffffffff\n      and\n        /* \"contracts/base/ProxyTest.sol\":2377:2382  _impl */\n      dup2\n        /* \"contracts/base/ProxyTest.sol\":2377:2396  _impl != address(0) */\n      0xffffffffffffffffffffffffffffffffffffffff\n      and\n      sub\n        /* \"contracts/base/ProxyTest.sol\":2369:2432  require(_impl != address(0), \"Implementation contract not set\") */\n      tag_35\n      jumpi\n      mload(0x40)\n      0x08c379a000000000000000000000000000000000000000000000000000000000\n      dup2\n      mstore\n      0x04\n      add\n      tag_36\n      swap1\n      tag_37\n      jump\t// in\n    tag_36:\n      mload(0x40)\n      dup1\n      swap2\n      sub\n      swap1\n      revert\n    tag_35:\n        /* \"contracts/base/ProxyTest.sol\":2484:2488  0x40 */\n      0x40\n        /* \"contracts/base/ProxyTest.sol\":2478:2489  mload(0x40) */\n      mload\n        /* \"contracts/base/ProxyTest.sol\":2524:2538  calldatasize() */\n      calldatasize\n        /* \"contracts/base/ProxyTest.sol\":2521:2522  0 */\n      0x00\n        /* \"contracts/base/ProxyTest.sol\":2516:2519  ptr */\n      dup3\n        /* \"contracts/base/ProxyTest.sol\":2503:2539  calldatacopy(ptr, 0, calldatasize()) */\n      calldatacopy\n        /* \"contracts/base/ProxyTest.sol\":2618:2619  0 */\n      0x00\n        /* \"contracts/base/ProxyTest.sol\":2615:2616  0 */\n      dup1\n        /* \"contracts/base/ProxyTest.sol\":2599:2613  calldatasize() */\n      calldatasize\n        /* \"contracts/base/ProxyTest.sol\":2594:2597  ptr */\n      dup4\n        /* \"contracts/base/ProxyTest.sol\":2587:2592  _impl */\n      dup6\n        /* \"contracts/base/ProxyTest.sol\":2580:2585  gas() */\n      gas\n        /* \"contracts/base/ProxyTest.sol\":2567:2620  delegatecall(gas(), _impl, ptr, calldatasize(), 0, 0) */\n      delegatecall\n        /* \"contracts/base/ProxyTest.sol\":2646:2662  returndatasize() */\n      returndatasize\n        /* \"contracts/base/ProxyTest.sol\":2699:2703  size */\n      dup1\n        /* \"contracts/base/ProxyTest.sol\":2696:2697  0 */\n      0x00\n        /* \"contracts/base/ProxyTest.sol\":2691:2694  ptr */\n      dup5\n        /* \"contracts/base/ProxyTest.sol\":2676:2704  returndatacopy(ptr, 0, size) */\n      returndatacopy\n        /* \"contracts/base/ProxyTest.sol\":2725:2731  result */\n      dup2\n        /* \"contracts/base/ProxyTest.sol\":2750:2751  0 */\n      0x00\n        /* \"contracts/base/ProxyTest.sol\":2745:2803  case 0 {... */\n      dup2\n      eq\n      tag_39\n      jumpi\n        /* \"contracts/base/ProxyTest.sol\":2856:2860  size */\n      dup2\n        /* \"contracts/base/ProxyTest.sol\":2851:2854  ptr */\n      dup5\n        /* \"contracts/base/ProxyTest.sol\":2844:2861  return(ptr, size) */\n      return\n        /* \"contracts/base/ProxyTest.sol\":2745:2803  case 0 {... */\n    tag_39:\n        /* \"contracts/base/ProxyTest.sol\":2783:2787  size */\n      dup2\n        /* \"contracts/base/ProxyTest.sol\":2778:2781  ptr */\n      dup5\n        /* \"contracts/base/ProxyTest.sol\":2771:2788  revert(ptr, size) */\n      revert\n        /* \"contracts/base/ProxyTest.sol\":1925:2114  function upgradeTo(address _newImplementation) external ifAdmin{... */\n    tag_18:\n        /* \"contracts/base/ProxyTest.sol\":1821:1831  getAdmin() */\n      tag_41\n        /* \"contracts/base/ProxyTest.sol\":1821:1829  getAdmin */\n      tag_42\n        /* \"contracts/base/ProxyTest.sol\":1821:1831  getAdmin() */\n      jump\t// in\n    tag_41:\n        /* \"contracts/base/ProxyTest.sol\":1807:1831  msg.sender == getAdmin() */\n      0xffffffffffffffffffffffffffffffffffffffff\n      and\n        /* \"contracts/base/ProxyTest.sol\":1807:1817  msg.sender */\n      caller\n        /* \"contracts/base/ProxyTest.sol\":1807:1831  msg.sender == getAdmin() */\n      0xffffffffffffffffffffffffffffffffffffffff\n      and\n      sub\n        /* \"contracts/base/ProxyTest.sol\":1804:1910  if(msg.sender == getAdmin()){... */\n      tag_43\n      jumpi\n        /* \"contracts/base/ProxyTest.sol\":2021:2031  getAdmin() */\n      tag_45\n        /* \"contracts/base/ProxyTest.sol\":2021:2029  getAdmin */\n      tag_42\n        /* \"contracts/base/ProxyTest.sol\":2021:2031  getAdmin() */\n      jump\t// in\n    tag_45:\n        /* \"contracts/base/ProxyTest.sol\":2007:2031  msg.sender == getAdmin() */\n      0xffffffffffffffffffffffffffffffffffffffff\n      and\n        /* \"contracts/base/ProxyTest.sol\":2007:2017  msg.sender */\n      caller\n        /* \"contracts/base/ProxyTest.sol\":2007:2031  msg.sender == getAdmin() */\n      0xffffffffffffffffffffffffffffffffffffffff\n      and\n      eq\n        /* \"contracts/base/ProxyTest.sol\":1999:2058  require(msg.sender == getAdmin(), \"Only admin can upgrade\") */\n      tag_46\n      jumpi\n      mload(0x40)\n      0x08c379a000000000000000000000000000000000000000000000000000000000\n      dup2\n      mstore\n      0x04\n      add\n      tag_47\n      swap1\n      tag_48\n      jump\t// in\n    tag_47:\n      mload(0x40)\n      dup1\n      swap2\n      sub\n      swap1\n      revert\n    tag_46:\n        /* \"contracts/base/ProxyTest.sol\":2069:2106  setImplementation(_newImplementation) */\n      tag_49\n        /* \"contracts/base/ProxyTest.sol\":2087:2105  _newImplementation */\n      dup2\n        /* \"contracts/base/ProxyTest.sol\":2069:2086  setImplementation */\n      tag_50\n        /* \"contracts/base/ProxyTest.sol\":2069:2106  setImplementation(_newImplementation) */\n      jump\t// in\n    tag_49:\n        /* \"contracts/base/ProxyTest.sol\":1804:1910  if(msg.sender == getAdmin()){... */\n      jump(tag_51)\n    tag_43:\n        /* \"contracts/base/ProxyTest.sol\":1879:1898  delegatecallProxy() */\n      tag_52\n        /* \"contracts/base/ProxyTest.sol\":1879:1896  delegatecallProxy */\n      tag_10\n        /* \"contracts/base/ProxyTest.sol\":1879:1898  delegatecallProxy() */\n      jump\t// in\n    tag_52:\n        /* \"contracts/base/ProxyTest.sol\":1804:1910  if(msg.sender == getAdmin()){... */\n    tag_51:\n        /* \"contracts/base/ProxyTest.sol\":1925:2114  function upgradeTo(address _newImplementation) external ifAdmin{... */\n      pop\n      jump\t// out\n        /* \"contracts/base/ProxyTest.sol\":3673:3781  function implementation() external ifAdmin returns (address a) {... */\n    tag_21:\n        /* \"contracts/base/ProxyTest.sol\":3725:3734  address a */\n      0x00\n        /* \"contracts/base/ProxyTest.sol\":1821:1831  getAdmin() */\n      tag_54\n        /* \"contracts/base/ProxyTest.sol\":1821:1829  getAdmin */\n      tag_42\n        /* \"contracts/base/ProxyTest.sol\":1821:1831  getAdmin() */\n      jump\t// in\n    tag_54:\n        /* \"contracts/base/ProxyTest.sol\":1807:1831  msg.sender == getAdmin() */\n      0xffffffffffffffffffffffffffffffffffffffff\n      and\n        /* \"contracts/base/ProxyTest.sol\":1807:1817  msg.sender */\n      caller\n        /* \"contracts/base/ProxyTest.sol\":1807:1831  msg.sender == getAdmin() */\n      0xffffffffffffffffffffffffffffffffffffffff\n      and\n      sub\n        /* \"contracts/base/ProxyTest.sol\":1804:1910  if(msg.sender == getAdmin()){... */\n      tag_55\n      jumpi\n        /* \"contracts/base/ProxyTest.sol\":3754:3773  getImplementation() */\n      tag_57\n        /* \"contracts/base/ProxyTest.sol\":3754:3771  getImplementation */\n      tag_34\n        /* \"contracts/base/ProxyTest.sol\":3754:3773  getImplementation() */\n      jump\t// in\n    tag_57:\n        /* \"contracts/base/ProxyTest.sol\":3747:3773  return getImplementation() */\n      swap1\n      pop\n        /* \"contracts/base/ProxyTest.sol\":1804:1910  if(msg.sender == getAdmin()){... */\n      jump(tag_58)\n    tag_55:\n        /* \"contracts/base/ProxyTest.sol\":1879:1898  delegatecallProxy() */\n      tag_59\n        /* \"contracts/base/ProxyTest.sol\":1879:1896  delegatecallProxy */\n      tag_10\n        /* \"contracts/base/ProxyTest.sol\":1879:1898  delegatecallProxy() */\n      jump\t// in\n    tag_59:\n        /* \"contracts/base/ProxyTest.sol\":1804:1910  if(msg.sender == getAdmin()){... */\n    tag_58:\n        /* \"contracts/base/ProxyTest.sol\":3673:3781  function implementation() external ifAdmin returns (address a) {... */\n      swap1\n      jump\t// out\n        /* \"contracts/base/ProxyTest.sol\":3789:3881  function changeAdmin(address newAdmin) external ifAdmin{... */\n    tag_27:\n        /* \"contracts/base/ProxyTest.sol\":1821:1831  getAdmin() */\n      tag_61\n        /* \"contracts/base/ProxyTest.sol\":1821:1829  getAdmin */\n      tag_42\n        /* \"contracts/base/ProxyTest.sol\":1821:1831  getAdmin() */\n      jump\t// in\n    tag_61:\n        /* \"contracts/base/ProxyTest.sol\":1807:1831  msg.sender == getAdmin() */\n      0xffffffffffffffffffffffffffffffffffffffff\n      and\n        /* \"contracts/base/ProxyTest.sol\":1807:1817  msg.sender */\n      caller\n        /* \"contracts/base/ProxyTest.sol\":1807:1831  msg.sender == getAdmin() */\n      0xffffffffffffffffffffffffffffffffffffffff\n      and\n      sub\n        /* \"contracts/base/ProxyTest.sol\":1804:1910  if(msg.sender == getAdmin()){... */\n      tag_62\n      jumpi\n        /* \"contracts/base/ProxyTest.sol\":3855:3873  setAdmin(newAdmin) */\n      tag_64\n        /* \"contracts/base/ProxyTest.sol\":3864:3872  newAdmin */\n      dup2\n        /* \"contracts/base/ProxyTest.sol\":3855:3863  setAdmin */\n      tag_65\n        /* \"contracts/base/ProxyTest.sol\":3855:3873  setAdmin(newAdmin) */\n      jump\t// in\n    tag_64:\n        /* \"contracts/base/ProxyTest.sol\":1804:1910  if(msg.sender == getAdmin()){... */\n      jump(tag_66)\n    tag_62:\n        /* \"contracts/base/ProxyTest.sol\":1879:1898  delegatecallProxy() */\n      tag_67\n        /* \"contracts/base/ProxyTest.sol\":1879:1896  delegatecallProxy */\n      tag_10\n        /* \"contracts/base/ProxyTest.sol\":1879:1898  delegatecallProxy() */\n      jump\t// in\n    tag_67:\n        /* \"contracts/base/ProxyTest.sol\":1804:1910  if(msg.sender == getAdmin()){... */\n    tag_66:\n        /* \"contracts/base/ProxyTest.sol\":3789:3881  function changeAdmin(address newAdmin) external ifAdmin{... */\n      pop\n      jump\t// out\n        /* \"contracts/base/ProxyTest.sol\":3577:3667  function admin() external ifAdmin returns (address a) {... */\n    tag_30:\n        /* \"contracts/base/ProxyTest.sol\":3620:3629  address a */\n      0x00\n        /* \"contracts/base/ProxyTest.sol\":1821:1831  getAdmin() */\n      tag_69\n        /* \"contracts/base/ProxyTest.sol\":1821:1829  getAdmin */\n      tag_42\n        /* \"contracts/base/ProxyTest.sol\":1821:1831  getAdmin() */\n      jump\t// in\n    tag_69:\n        /* \"contracts/base/ProxyTest.sol\":1807:1831  msg.sender == getAdmin() */\n      0xffffffffffffffffffffffffffffffffffffffff\n      and\n        /* \"contracts/base/ProxyTest.sol\":1807:1817  msg.sender */\n      caller\n        /* \"contracts/base/ProxyTest.sol\":1807:1831  msg.sender == getAdmin() */\n      0xffffffffffffffffffffffffffffffffffffffff\n      and\n      sub\n        /* \"contracts/base/ProxyTest.sol\":1804:1910  if(msg.sender == getAdmin()){... */\n      tag_70\n      jumpi\n        /* \"contracts/base/ProxyTest.sol\":3649:3659  getAdmin() */\n      tag_72\n        /* \"contracts/base/ProxyTest.sol\":3649:3657  getAdmin */\n      tag_42\n        /* \"contracts/base/ProxyTest.sol\":3649:3659  getAdmin() */\n      jump\t// in\n    tag_72:\n        /* \"contracts/base/ProxyTest.sol\":3642:3659  return getAdmin() */\n      swap1\n      pop\n        /* \"contracts/base/ProxyTest.sol\":1804:1910  if(msg.sender == getAdmin()){... */\n      jump(tag_73)\n    tag_70:\n        /* \"contracts/base/ProxyTest.sol\":1879:1898  delegatecallProxy() */\n      tag_74\n        /* \"contracts/base/ProxyTest.sol\":1879:1896  delegatecallProxy */\n      tag_10\n        /* \"contracts/base/ProxyTest.sol\":1879:1898  delegatecallProxy() */\n      jump\t// in\n    tag_74:\n        /* \"contracts/base/ProxyTest.sol\":1804:1910  if(msg.sender == getAdmin()){... */\n    tag_73:\n        /* \"contracts/base/ProxyTest.sol\":3577:3667  function admin() external ifAdmin returns (address a) {... */\n      swap1\n      jump\t// out\n        /* \"contracts/base/ProxyTest.sol\":3430:3569  function getImplementation() private  view returns(address) {... */\n    tag_34:\n        /* \"contracts/base/ProxyTest.sol\":3481:3488  address */\n      0x00\n        /* \"contracts/base/ProxyTest.sol\":3508:3555  AddressSlot.getAddressSlot(IMPLEMENTATION_SLOT) */\n      tag_76\n        /* \"contracts/base/ProxyTest.sol\":1536:1537  1 */\n      0x01\n        /* \"contracts/base/ProxyTest.sol\":1491:1532  keccak256(\"eip1967.proxy.implementation\") */\n      0x360894a13ba1a3210667c828492db98dca3e2076cc3735a920a3ca505d382bbd\n        /* \"contracts/base/ProxyTest.sol\":1486:1533  uint(keccak256(\"eip1967.proxy.implementation\")) */\n      0x00\n      shr\n        /* \"contracts/base/ProxyTest.sol\":1486:1537  uint(keccak256(\"eip1967.proxy.implementation\")) - 1 */\n      tag_77\n      swap2\n      swap1\n      tag_78\n      jump\t// in\n    tag_77:\n        /* \"contracts/base/ProxyTest.sol\":1478:1538  bytes32(uint(keccak256(\"eip1967.proxy.implementation\")) - 1) */\n      0x00\n      shl\n        /* \"contracts/base/ProxyTest.sol\":3508:3534  AddressSlot.getAddressSlot */\n      tag_79\n        /* \"contracts/base/ProxyTest.sol\":3508:3555  AddressSlot.getAddressSlot(IMPLEMENTATION_SLOT) */\n      jump\t// in\n    tag_76:\n        /* \"contracts/base/ProxyTest.sol\":3508:3561  AddressSlot.getAddressSlot(IMPLEMENTATION_SLOT).value */\n      0x00\n      add\n      0x00\n      swap1\n      sload\n      swap1\n      0x0100\n      exp\n      swap1\n      div\n      0xffffffffffffffffffffffffffffffffffffffff\n      and\n        /* \"contracts/base/ProxyTest.sol\":3501:3561  return AddressSlot.getAddressSlot(IMPLEMENTATION_SLOT).value */\n      swap1\n      pop\n        /* \"contracts/base/ProxyTest.sol\":3430:3569  function getImplementation() private  view returns(address) {... */\n      swap1\n      jump\t// out\n        /* \"contracts/base/ProxyTest.sol\":3091:3213  function getAdmin() private  view returns(address) {... */\n    tag_42:\n        /* \"contracts/base/ProxyTest.sol\":3133:3140  address */\n      0x00\n        /* \"contracts/base/ProxyTest.sol\":3161:3199  AddressSlot.getAddressSlot(ADMIN_SLOT) */\n      tag_81\n        /* \"contracts/base/ProxyTest.sol\":1632:1633  1 */\n      0x01\n        /* \"contracts/base/ProxyTest.sol\":1596:1628  keccak256(\"eip1967.proxy.admin\") */\n      0xb53127684a568b3173ae13b9f8a6016e243e63b6e8ee1178d6a717850b5d6104\n        /* \"contracts/base/ProxyTest.sol\":1591:1629  uint(keccak256(\"eip1967.proxy.admin\")) */\n      0x00\n      shr\n        /* \"contracts/base/ProxyTest.sol\":1591:1633  uint(keccak256(\"eip1967.proxy.admin\")) - 1 */\n      tag_82\n      swap2\n      swap1\n      tag_78\n      jump\t// in\n    tag_82:\n        /* \"contracts/base/ProxyTest.sol\":1583:1634  bytes32(uint(keccak256(\"eip1967.proxy.admin\")) - 1) */\n      0x00\n      shl\n        /* \"contracts/base/ProxyTest.sol\":3161:3187  AddressSlot.getAddressSlot */\n      tag_79\n        /* \"contracts/base/ProxyTest.sol\":3161:3199  AddressSlot.getAddressSlot(ADMIN_SLOT) */\n      jump\t// in\n    tag_81:\n        /* \"contracts/base/ProxyTest.sol\":3161:3205  AddressSlot.getAddressSlot(ADMIN_SLOT).value */\n      0x00\n      add\n      0x00\n      swap1\n      sload\n      swap1\n      0x0100\n      exp\n      swap1\n      div\n      0xffffffffffffffffffffffffffffffffffffffff\n      and\n        /* \"contracts/base/ProxyTest.sol\":3153:3205  return  AddressSlot.getAddressSlot(ADMIN_SLOT).value */\n      swap1\n      pop\n        /* \"contracts/base/ProxyTest.sol\":3091:3213  function getAdmin() private  view returns(address) {... */\n      swap1\n      jump\t// out\n        /* \"contracts/base/ProxyTest.sol\":3223:3422  function setImplementation(address newValue) private {... */\n    tag_50:\n        /* \"contracts/base/ProxyTest.sol\":3318:3319  0 */\n      0x00\n        /* \"contracts/base/ProxyTest.sol\":3295:3303  newValue */\n      dup2\n        /* \"contracts/base/ProxyTest.sol\":3295:3315  newValue.code.length */\n      0xffffffffffffffffffffffffffffffffffffffff\n      and\n      extcodesize\n        /* \"contracts/base/ProxyTest.sol\":3295:3319  newValue.code.length > 0 */\n      gt\n        /* \"contracts/base/ProxyTest.sol\":3287:3339  require(newValue.code.length > 0 , \"not a contract\") */\n      tag_84\n      jumpi\n      mload(0x40)\n      0x08c379a000000000000000000000000000000000000000000000000000000000\n      dup2\n      mstore\n      0x04\n      add\n      tag_85\n      swap1\n      tag_86\n      jump\t// in\n    tag_85:\n      mload(0x40)\n      dup1\n      swap2\n      sub\n      swap1\n      revert\n    tag_84:\n        /* \"contracts/base/ProxyTest.sol\":3406:3414  newValue */\n      dup1\n        /* \"contracts/base/ProxyTest.sol\":3350:3397  AddressSlot.getAddressSlot(IMPLEMENTATION_SLOT) */\n      tag_87\n        /* \"contracts/base/ProxyTest.sol\":1536:1537  1 */\n      0x01\n        /* \"contracts/base/ProxyTest.sol\":1491:1532  keccak256(\"eip1967.proxy.implementation\") */\n      0x360894a13ba1a3210667c828492db98dca3e2076cc3735a920a3ca505d382bbd\n        /* \"contracts/base/ProxyTest.sol\":1486:1533  uint(keccak256(\"eip1967.proxy.implementation\")) */\n      0x00\n      shr\n        /* \"contracts/base/ProxyTest.sol\":1486:1537  uint(keccak256(\"eip1967.proxy.implementation\")) - 1 */\n      tag_88\n      swap2\n      swap1\n      tag_78\n      jump\t// in\n    tag_88:\n        /* \"contracts/base/ProxyTest.sol\":1478:1538  bytes32(uint(keccak256(\"eip1967.proxy.implementation\")) - 1) */\n      0x00\n      shl\n        /* \"contracts/base/ProxyTest.sol\":3350:3376  AddressSlot.getAddressSlot */\n      tag_79\n        /* \"contracts/base/ProxyTest.sol\":3350:3397  AddressSlot.getAddressSlot(IMPLEMENTATION_SLOT) */\n      jump\t// in\n    tag_87:\n        /* \"contracts/base/ProxyTest.sol\":3350:3403  AddressSlot.getAddressSlot(IMPLEMENTATION_SLOT).value */\n      0x00\n      add\n      0x00\n        /* \"contracts/base/ProxyTest.sol\":3350:3414  AddressSlot.getAddressSlot(IMPLEMENTATION_SLOT).value = newValue */\n      0x0100\n      exp\n      dup2\n      sload\n      dup2\n      0xffffffffffffffffffffffffffffffffffffffff\n      mul\n      not\n      and\n      swap1\n      dup4\n      0xffffffffffffffffffffffffffffffffffffffff\n      and\n      mul\n      or\n      swap1\n      sstore\n      pop\n        /* \"contracts/base/ProxyTest.sol\":3223:3422  function setImplementation(address newValue) private {... */\n      pop\n      jump\t// out\n        /* \"contracts/base/ProxyTest.sol\":2904:3083  function setAdmin(address newValue) private {... */\n    tag_65:\n        /* \"contracts/base/ProxyTest.sol\":2987:2988  0 */\n      0x00\n        /* \"contracts/base/ProxyTest.sol\":2967:2989  newValue != address(0) */\n      0xffffffffffffffffffffffffffffffffffffffff\n      and\n        /* \"contracts/base/ProxyTest.sol\":2967:2975  newValue */\n      dup2\n        /* \"contracts/base/ProxyTest.sol\":2967:2989  newValue != address(0) */\n      0xffffffffffffffffffffffffffffffffffffffff\n      and\n      sub\n        /* \"contracts/base/ProxyTest.sol\":2959:3009  require(newValue != address(0) , \"not a contract\") */\n      tag_90\n      jumpi\n      mload(0x40)\n      0x08c379a000000000000000000000000000000000000000000000000000000000\n      dup2\n      mstore\n      0x04\n      add\n      tag_91\n      swap1\n      tag_86\n      jump\t// in\n    tag_91:\n      mload(0x40)\n      dup1\n      swap2\n      sub\n      swap1\n      revert\n    tag_90:\n        /* \"contracts/base/ProxyTest.sol\":3067:3075  newValue */\n      dup1\n        /* \"contracts/base/ProxyTest.sol\":3020:3058  AddressSlot.getAddressSlot(ADMIN_SLOT) */\n      tag_92\n        /* \"contracts/base/ProxyTest.sol\":1632:1633  1 */\n      0x01\n        /* \"contracts/base/ProxyTest.sol\":1596:1628  keccak256(\"eip1967.proxy.admin\") */\n      0xb53127684a568b3173ae13b9f8a6016e243e63b6e8ee1178d6a717850b5d6104\n        /* \"contracts/base/ProxyTest.sol\":1591:1629  uint(keccak256(\"eip1967.proxy.admin\")) */\n      0x00\n      shr\n        /* \"contracts/base/ProxyTest.sol\":1591:1633  uint(keccak256(\"eip1967.proxy.admin\")) - 1 */\n      tag_93\n      swap2\n      swap1\n      tag_78\n      jump\t// in\n    tag_93:\n        /* \"contracts/base/ProxyTest.sol\":1583:1634  bytes32(uint(keccak256(\"eip1967.proxy.admin\")) - 1) */\n      0x00\n      shl\n        /* \"contracts/base/ProxyTest.sol\":3020:3046  AddressSlot.getAddressSlot */\n      tag_79\n        /* \"contracts/base/ProxyTest.sol\":3020:3058  AddressSlot.getAddressSlot(ADMIN_SLOT) */\n      jump\t// in\n    tag_92:\n        /* \"contracts/base/ProxyTest.sol\":3020:3064  AddressSlot.getAddressSlot(ADMIN_SLOT).value */\n      0x00\n      add\n      0x00\n        /* \"contracts/base/ProxyTest.sol\":3020:3075  AddressSlot.getAddressSlot(ADMIN_SLOT).value = newValue */\n      0x0100\n      exp\n      dup2\n      sload\n      dup2\n      0xffffffffffffffffffffffffffffffffffffffff\n      mul\n      not\n      and\n      swap1\n      dup4\n      0xffffffffffffffffffffffffffffffffffffffff\n      and\n      mul\n      or\n      swap1\n      sstore\n      pop\n        /* \"contracts/base/ProxyTest.sol\":2904:3083  function setAdmin(address newValue) private {... */\n      pop\n      jump\t// out\n        /* \"contracts/base/ProxyTest.sol\":466:627  function getAddressSlot(bytes32 slot) internal pure  returns (AddrSlot storage a) {... */\n    tag_79:\n        /* \"contracts/base/ProxyTest.sol\":528:546  AddrSlot storage a */\n      0x00\n        /* \"contracts/base/ProxyTest.sol\":595:599  slot */\n      dup2\n        /* \"contracts/base/ProxyTest.sol\":585:599  a.slot := slot */\n      swap1\n      pop\n        /* \"contracts/base/ProxyTest.sol\":466:627  function getAddressSlot(bytes32 slot) internal pure  returns (AddrSlot storage a) {... */\n      swap2\n      swap1\n      pop\n      jump\t// out\n        /* \"#utility.yul\":88:205   */\n    tag_96:\n        /* \"#utility.yul\":197:198   */\n      0x00\n        /* \"#utility.yul\":194:195   */\n      dup1\n        /* \"#utility.yul\":187:199   */\n      revert\n        /* \"#utility.yul\":334:460   */\n    tag_98:\n        /* \"#utility.yul\":371:378   */\n      0x00\n        /* \"#utility.yul\":411:453   */\n      0xffffffffffffffffffffffffffffffffffffffff\n        /* \"#utility.yul\":404:409   */\n      dup3\n        /* \"#utility.yul\":400:454   */\n      and\n        /* \"#utility.yul\":389:454   */\n      swap1\n      pop\n        /* \"#utility.yul\":334:460   */\n      swap2\n      swap1\n      pop\n      jump\t// out\n        /* \"#utility.yul\":466:562   */\n    tag_99:\n        /* \"#utility.yul\":503:510   */\n      0x00\n        /* \"#utility.yul\":532:556   */\n      tag_118\n        /* \"#utility.yul\":550:555   */\n      dup3\n        /* \"#utility.yul\":532:556   */\n      tag_98\n      jump\t// in\n    tag_118:\n        /* \"#utility.yul\":521:556   */\n      swap1\n      pop\n        /* \"#utility.yul\":466:562   */\n      swap2\n      swap1\n      pop\n      jump\t// out\n        /* \"#utility.yul\":568:690   */\n    tag_100:\n        /* \"#utility.yul\":641:665   */\n      tag_120\n        /* \"#utility.yul\":659:664   */\n      dup2\n        /* \"#utility.yul\":641:665   */\n      tag_99\n      jump\t// in\n    tag_120:\n        /* \"#utility.yul\":634:639   */\n      dup2\n        /* \"#utility.yul\":631:666   */\n      eq\n        /* \"#utility.yul\":621:684   */\n      tag_121\n      jumpi\n        /* \"#utility.yul\":680:681   */\n      0x00\n        /* \"#utility.yul\":677:678   */\n      dup1\n        /* \"#utility.yul\":670:682   */\n      revert\n        /* \"#utility.yul\":621:684   */\n    tag_121:\n        /* \"#utility.yul\":568:690   */\n      pop\n      jump\t// out\n        /* \"#utility.yul\":696:835   */\n    tag_101:\n        /* \"#utility.yul\":742:747   */\n      0x00\n        /* \"#utility.yul\":780:786   */\n      dup2\n        /* \"#utility.yul\":767:787   */\n      calldataload\n        /* \"#utility.yul\":758:787   */\n      swap1\n      pop\n        /* \"#utility.yul\":796:829   */\n      tag_123\n        /* \"#utility.yul\":823:828   */\n      dup2\n        /* \"#utility.yul\":796:829   */\n      tag_100\n      jump\t// in\n    tag_123:\n        /* \"#utility.yul\":696:835   */\n      swap3\n      swap2\n      pop\n      pop\n      jump\t// out\n        /* \"#utility.yul\":841:1170   */\n    tag_17:\n        /* \"#utility.yul\":900:906   */\n      0x00\n        /* \"#utility.yul\":949:951   */\n      0x20\n        /* \"#utility.yul\":937:946   */\n      dup3\n        /* \"#utility.yul\":928:935   */\n      dup5\n        /* \"#utility.yul\":924:947   */\n      sub\n        /* \"#utility.yul\":920:952   */\n      slt\n        /* \"#utility.yul\":917:1036   */\n      iszero\n      tag_125\n      jumpi\n        /* \"#utility.yul\":955:1034   */\n      tag_126\n      tag_96\n      jump\t// in\n    tag_126:\n        /* \"#utility.yul\":917:1036   */\n    tag_125:\n        /* \"#utility.yul\":1075:1076   */\n      0x00\n        /* \"#utility.yul\":1100:1153   */\n      tag_127\n        /* \"#utility.yul\":1145:1152   */\n      dup5\n        /* \"#utility.yul\":1136:1142   */\n      dup3\n        /* \"#utility.yul\":1125:1134   */\n      dup6\n        /* \"#utility.yul\":1121:1143   */\n      add\n        /* \"#utility.yul\":1100:1153   */\n      tag_101\n      jump\t// in\n    tag_127:\n        /* \"#utility.yul\":1090:1153   */\n      swap2\n      pop\n        /* \"#utility.yul\":1046:1163   */\n      pop\n        /* \"#utility.yul\":841:1170   */\n      swap3\n      swap2\n      pop\n      pop\n      jump\t// out\n        /* \"#utility.yul\":1176:1294   */\n    tag_102:\n        /* \"#utility.yul\":1263:1287   */\n      tag_129\n        /* \"#utility.yul\":1281:1286   */\n      dup2\n        /* \"#utility.yul\":1263:1287   */\n      tag_99\n      jump\t// in\n    tag_129:\n        /* \"#utility.yul\":1258:1261   */\n      dup3\n        /* \"#utility.yul\":1251:1288   */\n      mstore\n        /* \"#utility.yul\":1176:1294   */\n      pop\n      pop\n      jump\t// out\n        /* \"#utility.yul\":1300:1522   */\n    tag_23:\n        /* \"#utility.yul\":1393:1397   */\n      0x00\n        /* \"#utility.yul\":1431:1433   */\n      0x20\n        /* \"#utility.yul\":1420:1429   */\n      dup3\n        /* \"#utility.yul\":1416:1434   */\n      add\n        /* \"#utility.yul\":1408:1434   */\n      swap1\n      pop\n        /* \"#utility.yul\":1444:1515   */\n      tag_131\n        /* \"#utility.yul\":1512:1513   */\n      0x00\n        /* \"#utility.yul\":1501:1510   */\n      dup4\n        /* \"#utility.yul\":1497:1514   */\n      add\n        /* \"#utility.yul\":1488:1494   */\n      dup5\n        /* \"#utility.yul\":1444:1515   */\n      tag_102\n      jump\t// in\n    tag_131:\n        /* \"#utility.yul\":1300:1522   */\n      swap3\n      swap2\n      pop\n      pop\n      jump\t// out\n        /* \"#utility.yul\":1528:1697   */\n    tag_103:\n        /* \"#utility.yul\":1612:1623   */\n      0x00\n        /* \"#utility.yul\":1646:1652   */\n      dup3\n        /* \"#utility.yul\":1641:1644   */\n      dup3\n        /* \"#utility.yul\":1634:1653   */\n      mstore\n        /* \"#utility.yul\":1686:1690   */\n      0x20\n        /* \"#utility.yul\":1681:1684   */\n      dup3\n        /* \"#utility.yul\":1677:1691   */\n      add\n        /* \"#utility.yul\":1662:1691   */\n      swap1\n      pop\n        /* \"#utility.yul\":1528:1697   */\n      swap3\n      swap2\n      pop\n      pop\n      jump\t// out\n        /* \"#utility.yul\":1703:1884   */\n    tag_104:\n        /* \"#utility.yul\":1843:1876   */\n      0x496d706c656d656e746174696f6e20636f6e7472616374206e6f742073657400\n        /* \"#utility.yul\":1839:1840   */\n      0x00\n        /* \"#utility.yul\":1831:1837   */\n      dup3\n        /* \"#utility.yul\":1827:1841   */\n      add\n        /* \"#utility.yul\":1820:1877   */\n      mstore\n        /* \"#utility.yul\":1703:1884   */\n      pop\n      jump\t// out\n        /* \"#utility.yul\":1890:2256   */\n    tag_105:\n        /* \"#utility.yul\":2032:2035   */\n      0x00\n        /* \"#utility.yul\":2053:2120   */\n      tag_135\n        /* \"#utility.yul\":2117:2119   */\n      0x1f\n        /* \"#utility.yul\":2112:2115   */\n      dup4\n        /* \"#utility.yul\":2053:2120   */\n      tag_103\n      jump\t// in\n    tag_135:\n        /* \"#utility.yul\":2046:2120   */\n      swap2\n      pop\n        /* \"#utility.yul\":2129:2222   */\n      tag_136\n        /* \"#utility.yul\":2218:2221   */\n      dup3\n        /* \"#utility.yul\":2129:2222   */\n      tag_104\n      jump\t// in\n    tag_136:\n        /* \"#utility.yul\":2247:2249   */\n      0x20\n        /* \"#utility.yul\":2242:2245   */\n      dup3\n        /* \"#utility.yul\":2238:2250   */\n      add\n        /* \"#utility.yul\":2231:2250   */\n      swap1\n      pop\n        /* \"#utility.yul\":1890:2256   */\n      swap2\n      swap1\n      pop\n      jump\t// out\n        /* \"#utility.yul\":2262:2681   */\n    tag_37:\n        /* \"#utility.yul\":2428:2432   */\n      0x00\n        /* \"#utility.yul\":2466:2468   */\n      0x20\n        /* \"#utility.yul\":2455:2464   */\n      dup3\n        /* \"#utility.yul\":2451:2469   */\n      add\n        /* \"#utility.yul\":2443:2469   */\n      swap1\n      pop\n        /* \"#utility.yul\":2515:2524   */\n      dup2\n        /* \"#utility.yul\":2509:2513   */\n      dup2\n        /* \"#utility.yul\":2505:2525   */\n      sub\n        /* \"#utility.yul\":2501:2502   */\n      0x00\n        /* \"#utility.yul\":2490:2499   */\n      dup4\n        /* \"#utility.yul\":2486:2503   */\n      add\n        /* \"#utility.yul\":2479:2526   */\n      mstore\n        /* \"#utility.yul\":2543:2674   */\n      tag_138\n        /* \"#utility.yul\":2669:2673   */\n      dup2\n        /* \"#utility.yul\":2543:2674   */\n      tag_105\n      jump\t// in\n    tag_138:\n        /* \"#utility.yul\":2535:2674   */\n      swap1\n      pop\n        /* \"#utility.yul\":2262:2681   */\n      swap2\n      swap1\n      pop\n      jump\t// out\n        /* \"#utility.yul\":2687:2859   */\n    tag_106:\n        /* \"#utility.yul\":2827:2851   */\n      0x4f6e6c792061646d696e2063616e207570677261646500000000000000000000\n        /* \"#utility.yul\":2823:2824   */\n      0x00\n        /* \"#utility.yul\":2815:2821   */\n      dup3\n        /* \"#utility.yul\":2811:2825   */\n      add\n        /* \"#utility.yul\":2804:2852   */\n      mstore\n        /* \"#utility.yul\":2687:2859   */\n      pop\n      jump\t// out\n        /* \"#utility.yul\":2865:3231   */\n    tag_107:\n        /* \"#utility.yul\":3007:3010   */\n      0x00\n        /* \"#utility.yul\":3028:3095   */\n      tag_141\n        /* \"#utility.yul\":3092:3094   */\n      0x16\n        /* \"#utility.yul\":3087:3090   */\n      dup4\n        /* \"#utility.yul\":3028:3095   */\n      tag_103\n      jump\t// in\n    tag_141:\n        /* \"#utility.yul\":3021:3095   */\n      swap2\n      pop\n        /* \"#utility.yul\":3104:3197   */\n      tag_142\n        /* \"#utility.yul\":3193:3196   */\n      dup3\n        /* \"#utility.yul\":3104:3197   */\n      tag_106\n      jump\t// in\n    tag_142:\n        /* \"#utility.yul\":3222:3224   */\n      0x20\n        /* \"#utility.yul\":3217:3220   */\n      dup3\n        /* \"#utility.yul\":3213:3225   */\n      add\n        /* \"#utility.yul\":3206:3225   */\n      swap1\n      pop\n        /* \"#utility.yul\":2865:3231   */\n      swap2\n      swap1\n      pop\n      jump\t// out\n        /* \"#utility.yul\":3237:3656   */\n    tag_48:\n        /* \"#utility.yul\":3403:3407   */\n      0x00\n        /* \"#utility.yul\":3441:3443   */\n      0x20\n        /* \"#utility.yul\":3430:3439   */\n      dup3\n        /* \"#utility.yul\":3426:3444   */\n      add\n        /* \"#utility.yul\":3418:3444   */\n      swap1\n      pop\n        /* \"#utility.yul\":3490:3499   */\n      dup2\n        /* \"#utility.yul\":3484:3488   */\n      dup2\n        /* \"#utility.yul\":3480:3500   */\n      sub\n        /* \"#utility.yul\":3476:3477   */\n      0x00\n        /* \"#utility.yul\":3465:3474   */\n      dup4\n        /* \"#utility.yul\":3461:3478   */\n      add\n        /* \"#utility.yul\":3454:3501   */\n      mstore\n        /* \"#utility.yul\":3518:3649   */\n      tag_144\n        /* \"#utility.yul\":3644:3648   */\n      dup2\n        /* \"#utility.yul\":3518:3649   */\n      tag_107\n      jump\t// in\n    tag_144:\n        /* \"#utility.yul\":3510:3649   */\n      swap1\n      pop\n        /* \"#utility.yul\":3237:3656   */\n      swap2\n      swap1\n      pop\n      jump\t// out\n        /* \"#utility.yul\":3662:3739   */\n    tag_108:\n        /* \"#utility.yul\":3699:3706   */\n      0x00\n        /* \"#utility.yul\":3728:3733   */\n      dup2\n        /* \"#utility.yul\":3717:3733   */\n      swap1\n      pop\n        /* \"#utility.yul\":3662:3739   */\n      swap2\n      swap1\n      pop\n      jump\t// out\n        /* \"#utility.yul\":3745:3925   */\n    tag_109:\n        /* \"#utility.yul\":3793:3870   */\n      0x4e487b7100000000000000000000000000000000000000000000000000000000\n        /* \"#utility.yul\":3790:3791   */\n      0x00\n        /* \"#utility.yul\":3783:3871   */\n      mstore\n        /* \"#utility.yul\":3890:3894   */\n      0x11\n        /* \"#utility.yul\":3887:3888   */\n      0x04\n        /* \"#utility.yul\":3880:3895   */\n      mstore\n        /* \"#utility.yul\":3914:3918   */\n      0x24\n        /* \"#utility.yul\":3911:3912   */\n      0x00\n        /* \"#utility.yul\":3904:3919   */\n      revert\n        /* \"#utility.yul\":3931:4125   */\n    tag_78:\n        /* \"#utility.yul\":3971:3975   */\n      0x00\n        /* \"#utility.yul\":3991:4011   */\n      tag_148\n        /* \"#utility.yul\":4009:4010   */\n      dup3\n        /* \"#utility.yul\":3991:4011   */\n      tag_108\n      jump\t// in\n    tag_148:\n        /* \"#utility.yul\":3986:4011   */\n      swap2\n      pop\n        /* \"#utility.yul\":4025:4045   */\n      tag_149\n        /* \"#utility.yul\":4043:4044   */\n      dup4\n        /* \"#utility.yul\":4025:4045   */\n      tag_108\n      jump\t// in\n    tag_149:\n        /* \"#utility.yul\":4020:4045   */\n      swap3\n      pop\n        /* \"#utility.yul\":4069:4070   */\n      dup3\n        /* \"#utility.yul\":4066:4067   */\n      dup3\n        /* \"#utility.yul\":4062:4071   */\n      sub\n        /* \"#utility.yul\":4054:4071   */\n      swap1\n      pop\n        /* \"#utility.yul\":4093:4094   */\n      dup2\n        /* \"#utility.yul\":4087:4091   */\n      dup2\n        /* \"#utility.yul\":4084:4095   */\n      gt\n        /* \"#utility.yul\":4081:4118   */\n      iszero\n      tag_150\n      jumpi\n        /* \"#utility.yul\":4098:4116   */\n      tag_151\n      tag_109\n      jump\t// in\n    tag_151:\n        /* \"#utility.yul\":4081:4118   */\n    tag_150:\n        /* \"#utility.yul\":3931:4125   */\n      swap3\n      swap2\n      pop\n      pop\n      jump\t// out\n        /* \"#utility.yul\":4131:4295   */\n    tag_110:\n        /* \"#utility.yul\":4271:4287   */\n      0x6e6f74206120636f6e7472616374000000000000000000000000000000000000\n        /* \"#utility.yul\":4267:4268   */\n      0x00\n        /* \"#utility.yul\":4259:4265   */\n      dup3\n        /* \"#utility.yul\":4255:4269   */\n      add\n        /* \"#utility.yul\":4248:4288   */\n      mstore\n        /* \"#utility.yul\":4131:4295   */\n      pop\n      jump\t// out\n        /* \"#utility.yul\":4301:4667   */\n    tag_111:\n        /* \"#utility.yul\":4443:4446   */\n      0x00\n        /* \"#utility.yul\":4464:4531   */\n      tag_154\n        /* \"#utility.yul\":4528:4530   */\n      0x0e\n        /* \"#utility.yul\":4523:4526   */\n      dup4\n        /* \"#utility.yul\":4464:4531   */\n      tag_103\n      jump\t// in\n    tag_154:\n        /* \"#utility.yul\":4457:4531   */\n      swap2\n      pop\n        /* \"#utility.yul\":4540:4633   */\n      tag_155\n        /* \"#utility.yul\":4629:4632   */\n      dup3\n        /* \"#utility.yul\":4540:4633   */\n      tag_110\n      jump\t// in\n    tag_155:\n        /* \"#utility.yul\":4658:4660   */\n      0x20\n        /* \"#utility.yul\":4653:4656   */\n      dup3\n        /* \"#utility.yul\":4649:4661   */\n      add\n        /* \"#utility.yul\":4642:4661   */\n      swap1\n      pop\n        /* \"#utility.yul\":4301:4667   */\n      swap2\n      swap1\n      pop\n      jump\t// out\n        /* \"#utility.yul\":4673:5092   */\n    tag_86:\n        /* \"#utility.yul\":4839:4843   */\n      0x00\n        /* \"#utility.yul\":4877:4879   */\n      0x20\n        /* \"#utility.yul\":4866:4875   */\n      dup3\n        /* \"#utility.yul\":4862:4880   */\n      add\n        /* \"#utility.yul\":4854:4880   */\n      swap1\n      pop\n        /* \"#utility.yul\":4926:4935   */\n      dup2\n        /* \"#utility.yul\":4920:4924   */\n      dup2\n        /* \"#utility.yul\":4916:4936   */\n      sub\n        /* \"#utility.yul\":4912:4913   */\n      0x00\n        /* \"#utility.yul\":4901:4910   */\n      dup4\n        /* \"#utility.yul\":4897:4914   */\n      add\n        /* \"#utility.yul\":4890:4937   */\n      mstore\n        /* \"#utility.yul\":4954:5085   */\n      tag_157\n        /* \"#utility.yul\":5080:5084   */\n      dup2\n        /* \"#utility.yul\":4954:5085   */\n      tag_111\n      jump\t// in\n    tag_157:\n        /* \"#utility.yul\":4946:5085   */\n      swap1\n      pop\n        /* \"#utility.yul\":4673:5092   */\n      swap2\n      swap1\n      pop\n      jump\t// out\n\n    auxdata: 0xa264697066735822122012b8440dabbae9a5d91bab2d22a6363f14b01654dd0d952481cc1d6942e4f64464736f6c63430008170033\n}\n",
				"bytecode": {
					"linkReferences": {},
					"object": "608060405234801561000f575f80fd5b5061001f3361002460201b60201c565b6101fe565b5f73ffffffffffffffffffffffffffffffffffffffff168173ffffffffffffffffffffffffffffffffffffffff1603610092576040517f08c379a000000000000000000000000000000000000000000000000000000000815260040161008990610177565b60405180910390fd5b806100d260017fb53127684a568b3173ae13b9f8a6016e243e63b6e8ee1178d6a717850b5d61045f1c6100c591906101cb565b5f1b61011460201b60201c565b5f015f6101000a81548173ffffffffffffffffffffffffffffffffffffffff021916908373ffffffffffffffffffffffffffffffffffffffff16021790555050565b5f819050919050565b5f82825260208201905092915050565b7f6e6f74206120636f6e74726163740000000000000000000000000000000000005f82015250565b5f610161600e8361011d565b915061016c8261012d565b602082019050919050565b5f6020820190508181035f83015261018e81610155565b9050919050565b5f819050919050565b7f4e487b71000000000000000000000000000000000000000000000000000000005f52601160045260245ffd5b5f6101d582610195565b91506101e083610195565b92508282039050818111156101f8576101f761019e565b5b92915050565b6108868061020b5f395ff3fe608060405260043610610042575f3560e01c80633659cfe61461005b5780635c60da1b146100835780638f283970146100ad578063f851a440146100d557610051565b366100515761004f6100ff565b005b6100596100ff565b005b348015610066575f80fd5b50610081600480360381019061007c919061064c565b61019b565b005b34801561008e575f80fd5b50610097610264565b6040516100a49190610686565b60405180910390f35b3480156100b8575f80fd5b506100d360048036038101906100ce919061064c565b6102ba565b005b3480156100e0575f80fd5b506100e961030e565b6040516100f69190610686565b60405180910390f35b5f610108610364565b90505f73ffffffffffffffffffffffffffffffffffffffff168173ffffffffffffffffffffffffffffffffffffffff1603610178576040517f08c379a000000000000000000000000000000000000000000000000000000000815260040161016f906106f9565b60405180910390fd5b604051365f82375f803683855af43d805f843e815f8114610197578184f35b8184fd5b6101a36103c5565b73ffffffffffffffffffffffffffffffffffffffff163373ffffffffffffffffffffffffffffffffffffffff1603610258576101dd6103c5565b73ffffffffffffffffffffffffffffffffffffffff163373ffffffffffffffffffffffffffffffffffffffff161461024a576040517f08c379a000000000000000000000000000000000000000000000000000000000815260040161024190610761565b60405180910390fd5b61025381610426565b610261565b6102606100ff565b5b50565b5f61026d6103c5565b73ffffffffffffffffffffffffffffffffffffffff163373ffffffffffffffffffffffffffffffffffffffff16036102ae576102a7610364565b90506102b7565b6102b66100ff565b5b90565b6102c26103c5565b73ffffffffffffffffffffffffffffffffffffffff163373ffffffffffffffffffffffffffffffffffffffff1603610302576102fd816104fb565b61030b565b61030a6100ff565b5b50565b5f6103176103c5565b73ffffffffffffffffffffffffffffffffffffffff163373ffffffffffffffffffffffffffffffffffffffff1603610358576103516103c5565b9050610361565b6103606100ff565b5b90565b5f61039e60017f360894a13ba1a3210667c828492db98dca3e2076cc3735a920a3ca505d382bbd5f1c61039791906107b5565b5f1b6105e5565b5f015f9054906101000a900473ffffffffffffffffffffffffffffffffffffffff16905090565b5f6103ff60017fb53127684a568b3173ae13b9f8a6016e243e63b6e8ee1178d6a717850b5d61045f1c6103f891906107b5565b5f1b6105e5565b5f015f9054906101000a900473ffffffffffffffffffffffffffffffffffffffff16905090565b5f8173ffffffffffffffffffffffffffffffffffffffff163b1161047f576040517f08c379a000000000000000000000000000000000000000000000000000000000815260040161047690610832565b60405180910390fd5b806104b960017f360894a13ba1a3210667c828492db98dca3e2076cc3735a920a3ca505d382bbd5f1c6104b291906107b5565b5f1b6105e5565b5f015f6101000a81548173ffffffffffffffffffffffffffffffffffffffff021916908373ffffffffffffffffffffffffffffffffffffffff16021790555050565b5f73ffffffffffffffffffffffffffffffffffffffff168173ffffffffffffffffffffffffffffffffffffffff1603610569576040517f08c379a000000000000000000000000000000000000000000000000000000000815260040161056090610832565b60405180910390fd5b806105a360017fb53127684a568b3173ae13b9f8a6016e243e63b6e8ee1178d6a717850b5d61045f1c61059c91906107b5565b5f1b6105e5565b5f015f6101000a81548173ffffffffffffffffffffffffffffffffffffffff021916908373ffffffffffffffffffffffffffffffffffffffff16021790555050565b5f819050919050565b5f80fd5b5f73ffffffffffffffffffffffffffffffffffffffff82169050919050565b5f61061b826105f2565b9050919050565b61062b81610611565b8114610635575f80fd5b50565b5f8135905061064681610622565b92915050565b5f60208284031215610661576106606105ee565b5b5f61066e84828501610638565b91505092915050565b61068081610611565b82525050565b5f6020820190506106995f830184610677565b92915050565b5f82825260208201905092915050565b7f496d706c656d656e746174696f6e20636f6e7472616374206e6f7420736574005f82015250565b5f6106e3601f8361069f565b91506106ee826106af565b602082019050919050565b5f6020820190508181035f830152610710816106d7565b9050919050565b7f4f6e6c792061646d696e2063616e2075706772616465000000000000000000005f82015250565b5f61074b60168361069f565b915061075682610717565b602082019050919050565b5f6020820190508181035f8301526107788161073f565b9050919050565b5f819050919050565b7f4e487b71000000000000000000000000000000000000000000000000000000005f52601160045260245ffd5b5f6107bf8261077f565b91506107ca8361077f565b92508282039050818111156107e2576107e1610788565b5b92915050565b7f6e6f74206120636f6e74726163740000000000000000000000000000000000005f82015250565b5f61081c600e8361069f565b9150610827826107e8565b602082019050919050565b5f6020820190508181035f83015261084981610810565b905091905056fea264697066735822122012b8440dabbae9a5d91bab2d22a6363f14b01654dd0d952481cc1d6942e4f64464736f6c63430008170033",
					"opcodes": "PUSH1 0x80 PUSH1 0x40 MSTORE CALLVALUE DUP1 ISZERO PUSH2 0xF JUMPI PUSH0 DUP1 REVERT JUMPDEST POP PUSH2 0x1F CALLER PUSH2 0x24 PUSH1 0x20 SHL PUSH1 0x20 SHR JUMP JUMPDEST PUSH2 0x1FE JUMP JUMPDEST PUSH0 PUSH20 0xFFFFFFFFFFFFFFFFFFFFFFFFFFFFFFFFFFFFFFFF AND DUP2 PUSH20 0xFFFFFFFFFFFFFFFFFFFFFFFFFFFFFFFFFFFFFFFF AND SUB PUSH2 0x92 JUMPI PUSH1 0x40 MLOAD PUSH32 0x8C379A000000000000000000000000000000000000000000000000000000000 DUP2 MSTORE PUSH1 0x4 ADD PUSH2 0x89 SWAP1 PUSH2 0x177 JUMP JUMPDEST PUSH1 0x40 MLOAD DUP1 SWAP2 SUB SWAP1 REVERT JUMPDEST DUP1 PUSH2 0xD2 PUSH1 0x1 PUSH32 0xB53127684A568B3173AE13B9F8A6016E243E63B6E8EE1178D6A717850B5D6104 PUSH0 SHR PUSH2 0xC5 SWAP2 SWAP1 PUSH2 0x1CB JUMP JUMPDEST PUSH0 SHL PUSH2 0x114 PUSH1 0x20 SHL PUSH1 0x20 SHR JUMP JUMPDEST PUSH0 ADD PUSH0 PUSH2 0x100 EXP DUP2 SLOAD DUP2 PUSH20 0xFFFFFFFFFFFFFFFFFFFFFFFFFFFFFFFFFFFFFFFF MUL NOT AND SWAP1 DUP4 PUSH20 0xFFFFFFFFFFFFFFFFFFFFFFFFFFFFFFFFFFFFFFFF AND MUL OR SWAP1 SSTORE POP POP JUMP JUMPDEST PUSH0 DUP2 SWAP1 POP SWAP2 SWAP1 POP JUMP JUMPDEST PUSH0 DUP3 DUP3 MSTORE PUSH1 0x20 DUP3 ADD SWAP1 POP SWAP3 SWAP2 POP POP JUMP JUMPDEST PUSH32 0x6E6F74206120636F6E7472616374000000000000000000000000000000000000 PUSH0 DUP3 ADD MSTORE POP JUMP JUMPDEST PUSH0 PUSH2 0x161 PUSH1 0xE DUP4 PUSH2 0x11D JUMP JUMPDEST SWAP2 POP PUSH2 0x16C DUP3 PUSH2 0x12D JUMP JUMPDEST PUSH1 0x20 DUP3 ADD SWAP1 POP SWAP2 SWAP1 POP JUMP JUMPDEST PUSH0 PUSH1 0x20 DUP3 ADD SWAP1 POP DUP2 DUP2 SUB PUSH0 DUP4 ADD MSTORE PUSH2 0x18E DUP2 PUSH2 0x155 JUMP JUMPDEST SWAP1 POP SWAP2 SWAP1 POP JUMP JUMPDEST PUSH0 DUP2 SWAP1 POP SWAP2 SWAP1 POP JUMP JUMPDEST PUSH32 0x4E487B7100000000000000000000000000000000000000000000000000000000 PUSH0 MSTORE PUSH1 0x11 PUSH1 0x4 MSTORE PUSH1 0x24 PUSH0 REVERT JUMPDEST PUSH0 PUSH2 0x1D5 DUP3 PUSH2 0x195 JUMP JUMPDEST SWAP2 POP PUSH2 0x1E0 DUP4 PUSH2 0x195 JUMP JUMPDEST SWAP3 POP DUP3 DUP3 SUB SWAP1 POP DUP2 DUP2 GT ISZERO PUSH2 0x1F8 JUMPI PUSH2 0x1F7 PUSH2 0x19E JUMP JUMPDEST JUMPDEST SWAP3 SWAP2 POP POP JUMP JUMPDEST PUSH2 0x886 DUP1 PUSH2 0x20B PUSH0 CODECOPY PUSH0 RETURN INVALID PUSH1 0x80 PUSH1 0x40 MSTORE PUSH1 0x4 CALLDATASIZE LT PUSH2 0x42 JUMPI PUSH0 CALLDATALOAD PUSH1 0xE0 SHR DUP1 PUSH4 0x3659CFE6 EQ PUSH2 0x5B JUMPI DUP1 PUSH4 0x5C60DA1B EQ PUSH2 0x83 JUMPI DUP1 PUSH4 0x8F283970 EQ PUSH2 0xAD JUMPI DUP1 PUSH4 0xF851A440 EQ PUSH2 0xD5 JUMPI PUSH2 0x51 JUMP JUMPDEST CALLDATASIZE PUSH2 0x51 JUMPI PUSH2 0x4F PUSH2 0xFF JUMP JUMPDEST STOP JUMPDEST PUSH2 0x59 PUSH2 0xFF JUMP JUMPDEST STOP JUMPDEST CALLVALUE DUP1 ISZERO PUSH2 0x66 JUMPI PUSH0 DUP1 REVERT JUMPDEST POP PUSH2 0x81 PUSH1 0x4 DUP1 CALLDATASIZE SUB DUP2 ADD SWAP1 PUSH2 0x7C SWAP2 SWAP1 PUSH2 0x64C JUMP JUMPDEST PUSH2 0x19B JUMP JUMPDEST STOP JUMPDEST CALLVALUE DUP1 ISZERO PUSH2 0x8E JUMPI PUSH0 DUP1 REVERT JUMPDEST POP PUSH2 0x97 PUSH2 0x264 JUMP JUMPDEST PUSH1 0x40 MLOAD PUSH2 0xA4 SWAP2 SWAP1 PUSH2 0x686 JUMP JUMPDEST PUSH1 0x40 MLOAD DUP1 SWAP2 SUB SWAP1 RETURN JUMPDEST CALLVALUE DUP1 ISZERO PUSH2 0xB8 JUMPI PUSH0 DUP1 REVERT JUMPDEST POP PUSH2 0xD3 PUSH1 0x4 DUP1 CALLDATASIZE SUB DUP2 ADD SWAP1 PUSH2 0xCE SWAP2 SWAP1 PUSH2 0x64C JUMP JUMPDEST PUSH2 0x2BA JUMP JUMPDEST STOP JUMPDEST CALLVALUE DUP1 ISZERO PUSH2 0xE0 JUMPI PUSH0 DUP1 REVERT JUMPDEST POP PUSH2 0xE9 PUSH2 0x30E JUMP JUMPDEST PUSH1 0x40 MLOAD PUSH2 0xF6 SWAP2 SWAP1 PUSH2 0x686 JUMP JUMPDEST PUSH1 0x40 MLOAD DUP1 SWAP2 SUB SWAP1 RETURN JUMPDEST PUSH0 PUSH2 0x108 PUSH2 0x364 JUMP JUMPDEST SWAP1 POP PUSH0 PUSH20 0xFFFFFFFFFFFFFFFFFFFFFFFFFFFFFFFFFFFFFFFF AND DUP2 PUSH20 0xFFFFFFFFFFFFFFFFFFFFFFFFFFFFFFFFFFFFFFFF AND SUB PUSH2 0x178 JUMPI PUSH1 0x40 MLOAD PUSH32 0x8C379A000000000000000000000000000000000000000000000000000000000 DUP2 MSTORE PUSH1 0x4 ADD PUSH2 0x16F SWAP1 PUSH2 0x6F9 JUMP JUMPDEST PUSH1 0x40 MLOAD DUP1 SWAP2 SUB SWAP1 REVERT JUMPDEST PUSH1 0x40 MLOAD CALLDATASIZE PUSH0 DUP3 CALLDATACOPY PUSH0 DUP1 CALLDATASIZE DUP4 DUP6 GAS DELEGATECALL RETURNDATASIZE DUP1 PUSH0 DUP5 RETURNDATACOPY DUP2 PUSH0 DUP2 EQ PUSH2 0x197 JUMPI DUP2 DUP5 RETURN JUMPDEST DUP2 DUP5 REVERT JUMPDEST PUSH2 0x1A3 PUSH2 0x3C5 JUMP JUMPDEST PUSH20 0xFFFFFFFFFFFFFFFFFFFFFFFFFFFFFFFFFFFFFFFF AND CALLER PUSH20 0xFFFFFFFFFFFFFFFFFFFFFFFFFFFFFFFFFFFFFFFF AND SUB PUSH2 0x258 JUMPI PUSH2 0x1DD PUSH2 0x3C5 JUMP JUMPDEST PUSH20 0xFFFFFFFFFFFFFFFFFFFFFFFFFFFFFFFFFFFFFFFF AND CALLER PUSH20 0xFFFFFFFFFFFFFFFFFFFFFFFFFFFFFFFFFFFFFFFF AND EQ PUSH2 0x24A JUMPI PUSH1 0x40 MLOAD PUSH32 0x8C379A000000000000000000000000000000000000000000000000000000000 DUP2 MSTORE PUSH1 0x4 ADD PUSH2 0x241 SWAP1 PUSH2 0x761 JUMP JUMPDEST PUSH1 0x40 MLOAD DUP1 SWAP2 SUB SWAP1 REVERT JUMPDEST PUSH2 0x253 DUP2 PUSH2 0x426 JUMP JUMPDEST PUSH2 0x261 JUMP JUMPDEST PUSH2 0x260 PUSH2 0xFF JUMP JUMPDEST JUMPDEST POP JUMP JUMPDEST PUSH0 PUSH2 0x26D PUSH2 0x3C5 JUMP JUMPDEST PUSH20 0xFFFFFFFFFFFFFFFFFFFFFFFFFFFFFFFFFFFFFFFF AND CALLER PUSH20 0xFFFFFFFFFFFFFFFFFFFFFFFFFFFFFFFFFFFFFFFF AND SUB PUSH2 0x2AE JUMPI PUSH2 0x2A7 PUSH2 0x364 JUMP JUMPDEST SWAP1 POP PUSH2 0x2B7 JUMP JUMPDEST PUSH2 0x2B6 PUSH2 0xFF JUMP JUMPDEST JUMPDEST SWAP1 JUMP JUMPDEST PUSH2 0x2C2 PUSH2 0x3C5 JUMP JUMPDEST PUSH20 0xFFFFFFFFFFFFFFFFFFFFFFFFFFFFFFFFFFFFFFFF AND CALLER PUSH20 0xFFFFFFFFFFFFFFFFFFFFFFFFFFFFFFFFFFFFFFFF AND SUB PUSH2 0x302 JUMPI PUSH2 0x2FD DUP2 PUSH2 0x4FB JUMP JUMPDEST PUSH2 0x30B JUMP JUMPDEST PUSH2 0x30A PUSH2 0xFF JUMP JUMPDEST JUMPDEST POP JUMP JUMPDEST PUSH0 PUSH2 0x317 PUSH2 0x3C5 JUMP JUMPDEST PUSH20 0xFFFFFFFFFFFFFFFFFFFFFFFFFFFFFFFFFFFFFFFF AND CALLER PUSH20 0xFFFFFFFFFFFFFFFFFFFFFFFFFFFFFFFFFFFFFFFF AND SUB PUSH2 0x358 JUMPI PUSH2 0x351 PUSH2 0x3C5 JUMP JUMPDEST SWAP1 POP PUSH2 0x361 JUMP JUMPDEST PUSH2 0x360 PUSH2 0xFF JUMP JUMPDEST JUMPDEST SWAP1 JUMP JUMPDEST PUSH0 PUSH2 0x39E PUSH1 0x1 PUSH32 0x360894A13BA1A3210667C828492DB98DCA3E2076CC3735A920A3CA505D382BBD PUSH0 SHR PUSH2 0x397 SWAP2 SWAP1 PUSH2 0x7B5 JUMP JUMPDEST PUSH0 SHL PUSH2 0x5E5 JUMP JUMPDEST PUSH0 ADD PUSH0 SWAP1 SLOAD SWAP1 PUSH2 0x100 EXP SWAP1 DIV PUSH20 0xFFFFFFFFFFFFFFFFFFFFFFFFFFFFFFFFFFFFFFFF AND SWAP1 POP SWAP1 JUMP JUMPDEST PUSH0 PUSH2 0x3FF PUSH1 0x1 PUSH32 0xB53127684A568B3173AE13B9F8A6016E243E63B6E8EE1178D6A717850B5D6104 PUSH0 SHR PUSH2 0x3F8 SWAP2 SWAP1 PUSH2 0x7B5 JUMP JUMPDEST PUSH0 SHL PUSH2 0x5E5 JUMP JUMPDEST PUSH0 ADD PUSH0 SWAP1 SLOAD SWAP1 PUSH2 0x100 EXP SWAP1 DIV PUSH20 0xFFFFFFFFFFFFFFFFFFFFFFFFFFFFFFFFFFFFFFFF AND SWAP1 POP SWAP1 JUMP JUMPDEST PUSH0 DUP2 PUSH20 0xFFFFFFFFFFFFFFFFFFFFFFFFFFFFFFFFFFFFFFFF AND EXTCODESIZE GT PUSH2 0x47F JUMPI PUSH1 0x40 MLOAD PUSH32 0x8C379A000000000000000000000000000000000000000000000000000000000 DUP2 MSTORE PUSH1 0x4 ADD PUSH2 0x476 SWAP1 PUSH2 0x832 JUMP JUMPDEST PUSH1 0x40 MLOAD DUP1 SWAP2 SUB SWAP1 REVERT JUMPDEST DUP1 PUSH2 0x4B9 PUSH1 0x1 PUSH32 0x360894A13BA1A3210667C828492DB98DCA3E2076CC3735A920A3CA505D382BBD PUSH0 SHR PUSH2 0x4B2 SWAP2 SWAP1 PUSH2 0x7B5 JUMP JUMPDEST PUSH0 SHL PUSH2 0x5E5 JUMP JUMPDEST PUSH0 ADD PUSH0 PUSH2 0x100 EXP DUP2 SLOAD DUP2 PUSH20 0xFFFFFFFFFFFFFFFFFFFFFFFFFFFFFFFFFFFFFFFF MUL NOT AND SWAP1 DUP4 PUSH20 0xFFFFFFFFFFFFFFFFFFFFFFFFFFFFFFFFFFFFFFFF AND MUL OR SWAP1 SSTORE POP POP JUMP JUMPDEST PUSH0 PUSH20 0xFFFFFFFFFFFFFFFFFFFFFFFFFFFFFFFFFFFFFFFF AND DUP2 PUSH20 0xFFFFFFFFFFFFFFFFFFFFFFFFFFFFFFFFFFFFFFFF AND SUB PUSH2 0x569 JUMPI PUSH1 0x40 MLOAD PUSH32 0x8C379A000000000000000000000000000000000000000000000000000000000 DUP2 MSTORE PUSH1 0x4 ADD PUSH2 0x560 SWAP1 PUSH2 0x832 JUMP JUMPDEST PUSH1 0x40 MLOAD DUP1 SWAP2 SUB SWAP1 REVERT JUMPDEST DUP1 PUSH2 0x5A3 PUSH1 0x1 PUSH32 0xB53127684A568B3173AE13B9F8A6016E243E63B6E8EE1178D6A717850B5D6104 PUSH0 SHR PUSH2 0x59C SWAP2 SWAP1 PUSH2 0x7B5 JUMP JUMPDEST PUSH0 SHL PUSH2 0x5E5 JUMP JUMPDEST PUSH0 ADD PUSH0 PUSH2 0x100 EXP DUP2 SLOAD DUP2 PUSH20 0xFFFFFFFFFFFFFFFFFFFFFFFFFFFFFFFFFFFFFFFF MUL NOT AND SWAP1 DUP4 PUSH20 0xFFFFFFFFFFFFFFFFFFFFFFFFFFFFFFFFFFFFFFFF AND MUL OR SWAP1 SSTORE POP POP JUMP JUMPDEST PUSH0 DUP2 SWAP1 POP SWAP2 SWAP1 POP JUMP JUMPDEST PUSH0 DUP1 REVERT JUMPDEST PUSH0 PUSH20 0xFFFFFFFFFFFFFFFFFFFFFFFFFFFFFFFFFFFFFFFF DUP3 AND SWAP1 POP SWAP2 SWAP1 POP JUMP JUMPDEST PUSH0 PUSH2 0x61B DUP3 PUSH2 0x5F2 JUMP JUMPDEST SWAP1 POP SWAP2 SWAP1 POP JUMP JUMPDEST PUSH2 0x62B DUP2 PUSH2 0x611 JUMP JUMPDEST DUP2 EQ PUSH2 0x635 JUMPI PUSH0 DUP1 REVERT JUMPDEST POP JUMP JUMPDEST PUSH0 DUP2 CALLDATALOAD SWAP1 POP PUSH2 0x646 DUP2 PUSH2 0x622 JUMP JUMPDEST SWAP3 SWAP2 POP POP JUMP JUMPDEST PUSH0 PUSH1 0x20 DUP3 DUP5 SUB SLT ISZERO PUSH2 0x661 JUMPI PUSH2 0x660 PUSH2 0x5EE JUMP JUMPDEST JUMPDEST PUSH0 PUSH2 0x66E DUP5 DUP3 DUP6 ADD PUSH2 0x638 JUMP JUMPDEST SWAP2 POP POP SWAP3 SWAP2 POP POP JUMP JUMPDEST PUSH2 0x680 DUP2 PUSH2 0x611 JUMP JUMPDEST DUP3 MSTORE POP POP JUMP JUMPDEST PUSH0 PUSH1 0x20 DUP3 ADD SWAP1 POP PUSH2 0x699 PUSH0 DUP4 ADD DUP5 PUSH2 0x677 JUMP JUMPDEST SWAP3 SWAP2 POP POP JUMP JUMPDEST PUSH0 DUP3 DUP3 MSTORE PUSH1 0x20 DUP3 ADD SWAP1 POP SWAP3 SWAP2 POP POP JUMP JUMPDEST PUSH32 0x496D706C656D656E746174696F6E20636F6E7472616374206E6F742073657400 PUSH0 DUP3 ADD MSTORE POP JUMP JUMPDEST PUSH0 PUSH2 0x6E3 PUSH1 0x1F DUP4 PUSH2 0x69F JUMP JUMPDEST SWAP2 POP PUSH2 0x6EE DUP3 PUSH2 0x6AF JUMP JUMPDEST PUSH1 0x20 DUP3 ADD SWAP1 POP SWAP2 SWAP1 POP JUMP JUMPDEST PUSH0 PUSH1 0x20 DUP3 ADD SWAP1 POP DUP2 DUP2 SUB PUSH0 DUP4 ADD MSTORE PUSH2 0x710 DUP2 PUSH2 0x6D7 JUMP JUMPDEST SWAP1 POP SWAP2 SWAP1 POP JUMP JUMPDEST PUSH32 0x4F6E6C792061646D696E2063616E207570677261646500000000000000000000 PUSH0 DUP3 ADD MSTORE POP JUMP JUMPDEST PUSH0 PUSH2 0x74B PUSH1 0x16 DUP4 PUSH2 0x69F JUMP JUMPDEST SWAP2 POP PUSH2 0x756 DUP3 PUSH2 0x717 JUMP JUMPDEST PUSH1 0x20 DUP3 ADD SWAP1 POP SWAP2 SWAP1 POP JUMP JUMPDEST PUSH0 PUSH1 0x20 DUP3 ADD SWAP1 POP DUP2 DUP2 SUB PUSH0 DUP4 ADD MSTORE PUSH2 0x778 DUP2 PUSH2 0x73F JUMP JUMPDEST SWAP1 POP SWAP2 SWAP1 POP JUMP JUMPDEST PUSH0 DUP2 SWAP1 POP SWAP2 SWAP1 POP JUMP JUMPDEST PUSH32 0x4E487B7100000000000000000000000000000000000000000000000000000000 PUSH0 MSTORE PUSH1 0x11 PUSH1 0x4 MSTORE PUSH1 0x24 PUSH0 REVERT JUMPDEST PUSH0 PUSH2 0x7BF DUP3 PUSH2 0x77F JUMP JUMPDEST SWAP2 POP PUSH2 0x7CA DUP4 PUSH2 0x77F JUMP JUMPDEST SWAP3 POP DUP3 DUP3 SUB SWAP1 POP DUP2 DUP2 GT ISZERO PUSH2 0x7E2 JUMPI PUSH2 0x7E1 PUSH2 0x788 JUMP JUMPDEST JUMPDEST SWAP3 SWAP2 POP POP JUMP JUMPDEST PUSH32 0x6E6F74206120636F6E7472616374000000000000000000000000000000000000 PUSH0 DUP3 ADD MSTORE POP JUMP JUMPDEST PUSH0 PUSH2 0x81C PUSH1 0xE DUP4 PUSH2 0x69F JUMP JUMPDEST SWAP2 POP PUSH2 0x827 DUP3 PUSH2 0x7E8 JUMP JUMPDEST PUSH1 0x20 DUP3 ADD SWAP1 POP SWAP2 SWAP1 POP JUMP JUMPDEST PUSH0 PUSH1 0x20 DUP3 ADD SWAP1 POP DUP2 DUP2 SUB PUSH0 DUP4 ADD MSTORE PUSH2 0x849 DUP2 PUSH2 0x810 JUMP JUMPDEST SWAP1 POP SWAP2 SWAP1 POP JUMP INVALID LOG2 PUSH5 0x6970667358 0x22 SLT KECCAK256 SLT 0xB8 PREVRANDAO 0xD 0xAB 0xBA 0xE9 0xA5 0xD9 SHL 0xAB 0x2D 0x22 0xA6 CALLDATASIZE EXTCODEHASH EQ 0xB0 AND SLOAD 0xDD 0xD SWAP6 0x24 DUP2 0xCC SAR PUSH10 0x42E4F64464736F6C6343 STOP ADDMOD OR STOP CALLER "
				},
				"gasEstimates": {
					"creation": {
						"codeDepositCost": "436400",
						"executionCost": "infinite",
						"totalCost": "infinite"
					},
					"external": {
						"": "infinite",
						"admin()": "infinite",
						"changeAdmin(address)": "infinite",
						"implementation()": "infinite",
						"upgradeTo(address)": "infinite"
					},
					"internal": {
						"delegatecallProxy()": "infinite",
						"getAdmin()": "infinite",
						"getImplementation()": "infinite",
						"setAdmin(address)": "infinite",
						"setImplementation(address)": "infinite"
					}
				},
				"methodIdentifiers": {
					"admin()": "f851a440",
					"changeAdmin(address)": "8f283970",
					"implementation()": "5c60da1b",
					"upgradeTo(address)": "3659cfe6"
				}
			},
			"storageLayout": {
				"storage": [],
				"types": null
			},
			"userdoc": {
				"kind": "user",
				"methods": {},
				"version": 1
			}
		}
	}
}