{
	"contracts/base/ProxyTest.sol": {
		"TestStringSlot": {
			"abi": [
				{
					"inputs": [],
					"name": "STRING_SLOT",
					"outputs": [
						{
							"internalType": "bytes32",
							"name": "",
							"type": "bytes32"
						}
					],
					"stateMutability": "view",
					"type": "function"
				},
				{
					"inputs": [],
					"name": "getStringSlot",
					"outputs": [
						{
							"internalType": "string",
							"name": "",
							"type": "string"
						}
					],
					"stateMutability": "view",
					"type": "function"
				},
				{
					"inputs": [
						{
							"internalType": "string",
							"name": "newValue",
							"type": "string"
						}
					],
					"name": "setStringSlot",
					"outputs": [],
					"stateMutability": "nonpayable",
					"type": "function"
				}
			],
			"devdoc": {
				"kind": "dev",
				"methods": {},
				"version": 1
			},
			"evm": {
				"assembly": "    /* \"contracts/base/ProxyTest.sol\":636:1012  contract TestStringSlot {... */\n  mstore(0x40, 0x80)\n  callvalue\n  dup1\n  iszero\n  tag_1\n  jumpi\n  0x00\n  dup1\n  revert\ntag_1:\n  pop\n  dataSize(sub_0)\n  dup1\n  dataOffset(sub_0)\n  0x00\n  codecopy\n  0x00\n  return\nstop\n\nsub_0: assembly {\n        /* \"contracts/base/ProxyTest.sol\":636:1012  contract TestStringSlot {... */\n      mstore(0x40, 0x80)\n      callvalue\n      dup1\n      iszero\n      tag_1\n      jumpi\n      0x00\n      dup1\n      revert\n    tag_1:\n      pop\n      jumpi(tag_2, lt(calldatasize, 0x04))\n      shr(0xe0, calldataload(0x00))\n      dup1\n      0x4ef1d9cf\n      eq\n      tag_3\n      jumpi\n      dup1\n      0xf53bbf44\n      eq\n      tag_4\n      jumpi\n      dup1\n      0xfc7dd5a5\n      eq\n      tag_5\n      jumpi\n    tag_2:\n      0x00\n      dup1\n      revert\n        /* \"contracts/base/ProxyTest.sol\":743:871  function setStringSlot(string memory newValue) public {... */\n    tag_3:\n      tag_6\n      0x04\n      dup1\n      calldatasize\n      sub\n      dup2\n      add\n      swap1\n      tag_7\n      swap2\n      swap1\n      tag_8\n      jump\t// in\n    tag_7:\n      tag_9\n      jump\t// in\n    tag_6:\n      stop\n        /* \"contracts/base/ProxyTest.sol\":879:1009  function getStringSlot() public view returns(string memory) {... */\n    tag_4:\n      tag_10\n      tag_11\n      jump\t// in\n    tag_10:\n      mload(0x40)\n      tag_12\n      swap2\n      swap1\n      tag_13\n      jump\t// in\n    tag_12:\n      mload(0x40)\n      dup1\n      swap2\n      sub\n      swap1\n      return\n        /* \"contracts/base/ProxyTest.sol\":667:734  bytes32 public constant STRING_SLOT = keccak256(\"test.string.slot\") */\n    tag_5:\n      tag_14\n      tag_15\n      jump\t// in\n    tag_14:\n      mload(0x40)\n      tag_16\n      swap2\n      swap1\n      tag_17\n      jump\t// in\n    tag_16:\n      mload(0x40)\n      dup1\n      swap2\n      sub\n      swap1\n      return\n        /* \"contracts/base/ProxyTest.sol\":743:871  function setStringSlot(string memory newValue) public {... */\n    tag_9:\n        /* \"contracts/base/ProxyTest.sol\":855:863  newValue */\n      dup1\n        /* \"contracts/base/ProxyTest.sol\":808:846  StorageSlot.getStringSlot(STRING_SLOT) */\n      tag_19\n        /* \"contracts/base/ProxyTest.sol\":705:734  keccak256(\"test.string.slot\") */\n      0xca34568964cada20cc6c6a39d80bef16517d7d2abcb0548de9c00c3498ea581f\n        /* \"contracts/base/ProxyTest.sol\":808:833  StorageSlot.getStringSlot */\n      tag_20\n        /* \"contracts/base/ProxyTest.sol\":808:846  StorageSlot.getStringSlot(STRING_SLOT) */\n      jump\t// in\n    tag_19:\n        /* \"contracts/base/ProxyTest.sol\":808:852  StorageSlot.getStringSlot(STRING_SLOT).value */\n      0x00\n      add\n        /* \"contracts/base/ProxyTest.sol\":808:863  StorageSlot.getStringSlot(STRING_SLOT).value = newValue */\n      swap1\n      dup2\n      tag_21\n      swap2\n      swap1\n      tag_22\n      jump\t// in\n    tag_21:\n      pop\n        /* \"contracts/base/ProxyTest.sol\":743:871  function setStringSlot(string memory newValue) public {... */\n      pop\n      jump\t// out\n        /* \"contracts/base/ProxyTest.sol\":879:1009  function getStringSlot() public view returns(string memory) {... */\n    tag_11:\n        /* \"contracts/base/ProxyTest.sol\":924:937  string memory */\n      0x60\n        /* \"contracts/base/ProxyTest.sol\":957:995  StorageSlot.getStringSlot(STRING_SLOT) */\n      tag_24\n        /* \"contracts/base/ProxyTest.sol\":705:734  keccak256(\"test.string.slot\") */\n      0xca34568964cada20cc6c6a39d80bef16517d7d2abcb0548de9c00c3498ea581f\n        /* \"contracts/base/ProxyTest.sol\":957:982  StorageSlot.getStringSlot */\n      tag_20\n        /* \"contracts/base/ProxyTest.sol\":957:995  StorageSlot.getStringSlot(STRING_SLOT) */\n      jump\t// in\n    tag_24:\n        /* \"contracts/base/ProxyTest.sol\":957:1001  StorageSlot.getStringSlot(STRING_SLOT).value */\n      0x00\n      add\n        /* \"contracts/base/ProxyTest.sol\":950:1001  return StorageSlot.getStringSlot(STRING_SLOT).value */\n      dup1\n      sload\n      tag_25\n      swap1\n      tag_26\n      jump\t// in\n    tag_25:\n      dup1\n      0x1f\n      add\n      0x20\n      dup1\n      swap2\n      div\n      mul\n      0x20\n      add\n      mload(0x40)\n      swap1\n      dup2\n      add\n      0x40\n      mstore\n      dup1\n      swap3\n      swap2\n      swap1\n      dup2\n      dup2\n      mstore\n      0x20\n      add\n      dup3\n      dup1\n      sload\n      tag_27\n      swap1\n      tag_26\n      jump\t// in\n    tag_27:\n      dup1\n      iszero\n      tag_28\n      jumpi\n      dup1\n      0x1f\n      lt\n      tag_29\n      jumpi\n      0x0100\n      dup1\n      dup4\n      sload\n      div\n      mul\n      dup4\n      mstore\n      swap2\n      0x20\n      add\n      swap2\n      jump(tag_28)\n    tag_29:\n      dup3\n      add\n      swap2\n      swap1\n      0x00\n      mstore\n      keccak256(0x00, 0x20)\n      swap1\n    tag_30:\n      dup2\n      sload\n      dup2\n      mstore\n      swap1\n      0x01\n      add\n      swap1\n      0x20\n      add\n      dup1\n      dup4\n      gt\n      tag_30\n      jumpi\n      dup3\n      swap1\n      sub\n      0x1f\n      and\n      dup3\n      add\n      swap2\n    tag_28:\n      pop\n      pop\n      pop\n      pop\n      pop\n      swap1\n      pop\n        /* \"contracts/base/ProxyTest.sol\":879:1009  function getStringSlot() public view returns(string memory) {... */\n      swap1\n      jump\t// out\n        /* \"contracts/base/ProxyTest.sol\":667:734  bytes32 public constant STRING_SLOT = keccak256(\"test.string.slot\") */\n    tag_15:\n        /* \"contracts/base/ProxyTest.sol\":705:734  keccak256(\"test.string.slot\") */\n      0xca34568964cada20cc6c6a39d80bef16517d7d2abcb0548de9c00c3498ea581f\n        /* \"contracts/base/ProxyTest.sol\":667:734  bytes32 public constant STRING_SLOT = keccak256(\"test.string.slot\") */\n      dup2\n      jump\t// out\n        /* \"contracts/base/ProxyTest.sol\":180:342  function getStringSlot(bytes32 slot) internal pure  returns (StringSlot storage s) {... */\n    tag_20:\n        /* \"contracts/base/ProxyTest.sol\":241:261  StringSlot storage s */\n      0x00\n        /* \"contracts/base/ProxyTest.sol\":310:314  slot */\n      dup2\n        /* \"contracts/base/ProxyTest.sol\":300:314  s.slot := slot */\n      swap1\n      pop\n        /* \"contracts/base/ProxyTest.sol\":180:342  function getStringSlot(bytes32 slot) internal pure  returns (StringSlot storage s) {... */\n      swap2\n      swap1\n      pop\n      jump\t// out\n        /* \"#utility.yul\":7:82   */\n    tag_32:\n        /* \"#utility.yul\":40:46   */\n      0x00\n        /* \"#utility.yul\":73:75   */\n      0x40\n        /* \"#utility.yul\":67:76   */\n      mload\n        /* \"#utility.yul\":57:76   */\n      swap1\n      pop\n        /* \"#utility.yul\":7:82   */\n      swap1\n      jump\t// out\n        /* \"#utility.yul\":88:205   */\n    tag_33:\n        /* \"#utility.yul\":197:198   */\n      0x00\n        /* \"#utility.yul\":194:195   */\n      dup1\n        /* \"#utility.yul\":187:199   */\n      revert\n        /* \"#utility.yul\":211:328   */\n    tag_34:\n        /* \"#utility.yul\":320:321   */\n      0x00\n        /* \"#utility.yul\":317:318   */\n      dup1\n        /* \"#utility.yul\":310:322   */\n      revert\n        /* \"#utility.yul\":334:451   */\n    tag_35:\n        /* \"#utility.yul\":443:444   */\n      0x00\n        /* \"#utility.yul\":440:441   */\n      dup1\n        /* \"#utility.yul\":433:445   */\n      revert\n        /* \"#utility.yul\":457:574   */\n    tag_36:\n        /* \"#utility.yul\":566:567   */\n      0x00\n        /* \"#utility.yul\":563:564   */\n      dup1\n        /* \"#utility.yul\":556:568   */\n      revert\n        /* \"#utility.yul\":580:682   */\n    tag_37:\n        /* \"#utility.yul\":621:627   */\n      0x00\n        /* \"#utility.yul\":672:674   */\n      0x1f\n        /* \"#utility.yul\":668:675   */\n      not\n        /* \"#utility.yul\":663:665   */\n      0x1f\n        /* \"#utility.yul\":656:661   */\n      dup4\n        /* \"#utility.yul\":652:666   */\n      add\n        /* \"#utility.yul\":648:676   */\n      and\n        /* \"#utility.yul\":638:676   */\n      swap1\n      pop\n        /* \"#utility.yul\":580:682   */\n      swap2\n      swap1\n      pop\n      jump\t// out\n        /* \"#utility.yul\":688:868   */\n    tag_38:\n        /* \"#utility.yul\":736:813   */\n      0x4e487b7100000000000000000000000000000000000000000000000000000000\n        /* \"#utility.yul\":733:734   */\n      0x00\n        /* \"#utility.yul\":726:814   */\n      mstore\n        /* \"#utility.yul\":833:837   */\n      0x41\n        /* \"#utility.yul\":830:831   */\n      0x04\n        /* \"#utility.yul\":823:838   */\n      mstore\n        /* \"#utility.yul\":857:861   */\n      0x24\n        /* \"#utility.yul\":854:855   */\n      0x00\n        /* \"#utility.yul\":847:862   */\n      revert\n        /* \"#utility.yul\":874:1155   */\n    tag_39:\n        /* \"#utility.yul\":957:984   */\n      tag_77\n        /* \"#utility.yul\":979:983   */\n      dup3\n        /* \"#utility.yul\":957:984   */\n      tag_37\n      jump\t// in\n    tag_77:\n        /* \"#utility.yul\":949:955   */\n      dup2\n        /* \"#utility.yul\":945:985   */\n      add\n        /* \"#utility.yul\":1087:1093   */\n      dup2\n        /* \"#utility.yul\":1075:1085   */\n      dup2\n        /* \"#utility.yul\":1072:1094   */\n      lt\n        /* \"#utility.yul\":1051:1069   */\n      0xffffffffffffffff\n        /* \"#utility.yul\":1039:1049   */\n      dup3\n        /* \"#utility.yul\":1036:1070   */\n      gt\n        /* \"#utility.yul\":1033:1095   */\n      or\n        /* \"#utility.yul\":1030:1118   */\n      iszero\n      tag_78\n      jumpi\n        /* \"#utility.yul\":1098:1116   */\n      tag_79\n      tag_38\n      jump\t// in\n    tag_79:\n        /* \"#utility.yul\":1030:1118   */\n    tag_78:\n        /* \"#utility.yul\":1138:1148   */\n      dup1\n        /* \"#utility.yul\":1134:1136   */\n      0x40\n        /* \"#utility.yul\":1127:1149   */\n      mstore\n        /* \"#utility.yul\":917:1155   */\n      pop\n        /* \"#utility.yul\":874:1155   */\n      pop\n      pop\n      jump\t// out\n        /* \"#utility.yul\":1161:1290   */\n    tag_40:\n        /* \"#utility.yul\":1195:1201   */\n      0x00\n        /* \"#utility.yul\":1222:1242   */\n      tag_81\n      tag_32\n      jump\t// in\n    tag_81:\n        /* \"#utility.yul\":1212:1242   */\n      swap1\n      pop\n        /* \"#utility.yul\":1251:1284   */\n      tag_82\n        /* \"#utility.yul\":1279:1283   */\n      dup3\n        /* \"#utility.yul\":1271:1277   */\n      dup3\n        /* \"#utility.yul\":1251:1284   */\n      tag_39\n      jump\t// in\n    tag_82:\n        /* \"#utility.yul\":1161:1290   */\n      swap2\n      swap1\n      pop\n      jump\t// out\n        /* \"#utility.yul\":1296:1604   */\n    tag_41:\n        /* \"#utility.yul\":1358:1362   */\n      0x00\n        /* \"#utility.yul\":1448:1466   */\n      0xffffffffffffffff\n        /* \"#utility.yul\":1440:1446   */\n      dup3\n        /* \"#utility.yul\":1437:1467   */\n      gt\n        /* \"#utility.yul\":1434:1490   */\n      iszero\n      tag_84\n      jumpi\n        /* \"#utility.yul\":1470:1488   */\n      tag_85\n      tag_38\n      jump\t// in\n    tag_85:\n        /* \"#utility.yul\":1434:1490   */\n    tag_84:\n        /* \"#utility.yul\":1508:1537   */\n      tag_86\n        /* \"#utility.yul\":1530:1536   */\n      dup3\n        /* \"#utility.yul\":1508:1537   */\n      tag_37\n      jump\t// in\n    tag_86:\n        /* \"#utility.yul\":1500:1537   */\n      swap1\n      pop\n        /* \"#utility.yul\":1592:1596   */\n      0x20\n        /* \"#utility.yul\":1586:1590   */\n      dup2\n        /* \"#utility.yul\":1582:1597   */\n      add\n        /* \"#utility.yul\":1574:1597   */\n      swap1\n      pop\n        /* \"#utility.yul\":1296:1604   */\n      swap2\n      swap1\n      pop\n      jump\t// out\n        /* \"#utility.yul\":1610:1756   */\n    tag_42:\n        /* \"#utility.yul\":1707:1713   */\n      dup3\n        /* \"#utility.yul\":1702:1705   */\n      dup2\n        /* \"#utility.yul\":1697:1700   */\n      dup4\n        /* \"#utility.yul\":1684:1714   */\n      calldatacopy\n        /* \"#utility.yul\":1748:1749   */\n      0x00\n        /* \"#utility.yul\":1739:1745   */\n      dup4\n        /* \"#utility.yul\":1734:1737   */\n      dup4\n        /* \"#utility.yul\":1730:1746   */\n      add\n        /* \"#utility.yul\":1723:1750   */\n      mstore\n        /* \"#utility.yul\":1610:1756   */\n      pop\n      pop\n      pop\n      jump\t// out\n        /* \"#utility.yul\":1762:2187   */\n    tag_43:\n        /* \"#utility.yul\":1840:1845   */\n      0x00\n        /* \"#utility.yul\":1865:1931   */\n      tag_89\n        /* \"#utility.yul\":1881:1930   */\n      tag_90\n        /* \"#utility.yul\":1923:1929   */\n      dup5\n        /* \"#utility.yul\":1881:1930   */\n      tag_41\n      jump\t// in\n    tag_90:\n        /* \"#utility.yul\":1865:1931   */\n      tag_40\n      jump\t// in\n    tag_89:\n        /* \"#utility.yul\":1856:1931   */\n      swap1\n      pop\n        /* \"#utility.yul\":1954:1960   */\n      dup3\n        /* \"#utility.yul\":1947:1952   */\n      dup2\n        /* \"#utility.yul\":1940:1961   */\n      mstore\n        /* \"#utility.yul\":1992:1996   */\n      0x20\n        /* \"#utility.yul\":1985:1990   */\n      dup2\n        /* \"#utility.yul\":1981:1997   */\n      add\n        /* \"#utility.yul\":2030:2033   */\n      dup5\n        /* \"#utility.yul\":2021:2027   */\n      dup5\n        /* \"#utility.yul\":2016:2019   */\n      dup5\n        /* \"#utility.yul\":2012:2028   */\n      add\n        /* \"#utility.yul\":2009:2034   */\n      gt\n        /* \"#utility.yul\":2006:2118   */\n      iszero\n      tag_91\n      jumpi\n        /* \"#utility.yul\":2037:2116   */\n      tag_92\n      tag_36\n      jump\t// in\n    tag_92:\n        /* \"#utility.yul\":2006:2118   */\n    tag_91:\n        /* \"#utility.yul\":2127:2181   */\n      tag_93\n        /* \"#utility.yul\":2174:2180   */\n      dup5\n        /* \"#utility.yul\":2169:2172   */\n      dup3\n        /* \"#utility.yul\":2164:2167   */\n      dup6\n        /* \"#utility.yul\":2127:2181   */\n      tag_42\n      jump\t// in\n    tag_93:\n        /* \"#utility.yul\":1846:2187   */\n      pop\n        /* \"#utility.yul\":1762:2187   */\n      swap4\n      swap3\n      pop\n      pop\n      pop\n      jump\t// out\n        /* \"#utility.yul\":2207:2547   */\n    tag_44:\n        /* \"#utility.yul\":2263:2268   */\n      0x00\n        /* \"#utility.yul\":2312:2315   */\n      dup3\n        /* \"#utility.yul\":2305:2309   */\n      0x1f\n        /* \"#utility.yul\":2297:2303   */\n      dup4\n        /* \"#utility.yul\":2293:2310   */\n      add\n        /* \"#utility.yul\":2289:2316   */\n      slt\n        /* \"#utility.yul\":2279:2401   */\n      tag_95\n      jumpi\n        /* \"#utility.yul\":2320:2399   */\n      tag_96\n      tag_35\n      jump\t// in\n    tag_96:\n        /* \"#utility.yul\":2279:2401   */\n    tag_95:\n        /* \"#utility.yul\":2437:2443   */\n      dup2\n        /* \"#utility.yul\":2424:2444   */\n      calldataload\n        /* \"#utility.yul\":2462:2541   */\n      tag_97\n        /* \"#utility.yul\":2537:2540   */\n      dup5\n        /* \"#utility.yul\":2529:2535   */\n      dup3\n        /* \"#utility.yul\":2522:2526   */\n      0x20\n        /* \"#utility.yul\":2514:2520   */\n      dup7\n        /* \"#utility.yul\":2510:2527   */\n      add\n        /* \"#utility.yul\":2462:2541   */\n      tag_43\n      jump\t// in\n    tag_97:\n        /* \"#utility.yul\":2453:2541   */\n      swap2\n      pop\n        /* \"#utility.yul\":2269:2547   */\n      pop\n        /* \"#utility.yul\":2207:2547   */\n      swap3\n      swap2\n      pop\n      pop\n      jump\t// out\n        /* \"#utility.yul\":2553:3062   */\n    tag_8:\n        /* \"#utility.yul\":2622:2628   */\n      0x00\n        /* \"#utility.yul\":2671:2673   */\n      0x20\n        /* \"#utility.yul\":2659:2668   */\n      dup3\n        /* \"#utility.yul\":2650:2657   */\n      dup5\n        /* \"#utility.yul\":2646:2669   */\n      sub\n        /* \"#utility.yul\":2642:2674   */\n      slt\n        /* \"#utility.yul\":2639:2758   */\n      iszero\n      tag_99\n      jumpi\n        /* \"#utility.yul\":2677:2756   */\n      tag_100\n      tag_33\n      jump\t// in\n    tag_100:\n        /* \"#utility.yul\":2639:2758   */\n    tag_99:\n        /* \"#utility.yul\":2825:2826   */\n      0x00\n        /* \"#utility.yul\":2814:2823   */\n      dup3\n        /* \"#utility.yul\":2810:2827   */\n      add\n        /* \"#utility.yul\":2797:2828   */\n      calldataload\n        /* \"#utility.yul\":2855:2873   */\n      0xffffffffffffffff\n        /* \"#utility.yul\":2847:2853   */\n      dup2\n        /* \"#utility.yul\":2844:2874   */\n      gt\n        /* \"#utility.yul\":2841:2958   */\n      iszero\n      tag_101\n      jumpi\n        /* \"#utility.yul\":2877:2956   */\n      tag_102\n      tag_34\n      jump\t// in\n    tag_102:\n        /* \"#utility.yul\":2841:2958   */\n    tag_101:\n        /* \"#utility.yul\":2982:3045   */\n      tag_103\n        /* \"#utility.yul\":3037:3044   */\n      dup5\n        /* \"#utility.yul\":3028:3034   */\n      dup3\n        /* \"#utility.yul\":3017:3026   */\n      dup6\n        /* \"#utility.yul\":3013:3035   */\n      add\n        /* \"#utility.yul\":2982:3045   */\n      tag_44\n      jump\t// in\n    tag_103:\n        /* \"#utility.yul\":2972:3045   */\n      swap2\n      pop\n        /* \"#utility.yul\":2768:3055   */\n      pop\n        /* \"#utility.yul\":2553:3062   */\n      swap3\n      swap2\n      pop\n      pop\n      jump\t// out\n        /* \"#utility.yul\":3068:3167   */\n    tag_45:\n        /* \"#utility.yul\":3120:3126   */\n      0x00\n        /* \"#utility.yul\":3154:3159   */\n      dup2\n        /* \"#utility.yul\":3148:3160   */\n      mload\n        /* \"#utility.yul\":3138:3160   */\n      swap1\n      pop\n        /* \"#utility.yul\":3068:3167   */\n      swap2\n      swap1\n      pop\n      jump\t// out\n        /* \"#utility.yul\":3173:3342   */\n    tag_46:\n        /* \"#utility.yul\":3257:3268   */\n      0x00\n        /* \"#utility.yul\":3291:3297   */\n      dup3\n        /* \"#utility.yul\":3286:3289   */\n      dup3\n        /* \"#utility.yul\":3279:3298   */\n      mstore\n        /* \"#utility.yul\":3331:3335   */\n      0x20\n        /* \"#utility.yul\":3326:3329   */\n      dup3\n        /* \"#utility.yul\":3322:3336   */\n      add\n        /* \"#utility.yul\":3307:3336   */\n      swap1\n      pop\n        /* \"#utility.yul\":3173:3342   */\n      swap3\n      swap2\n      pop\n      pop\n      jump\t// out\n        /* \"#utility.yul\":3348:3594   */\n    tag_47:\n        /* \"#utility.yul\":3429:3430   */\n      0x00\n        /* \"#utility.yul\":3439:3552   */\n    tag_107:\n        /* \"#utility.yul\":3453:3459   */\n      dup4\n        /* \"#utility.yul\":3450:3451   */\n      dup2\n        /* \"#utility.yul\":3447:3460   */\n      lt\n        /* \"#utility.yul\":3439:3552   */\n      iszero\n      tag_109\n      jumpi\n        /* \"#utility.yul\":3538:3539   */\n      dup1\n        /* \"#utility.yul\":3533:3536   */\n      dup3\n        /* \"#utility.yul\":3529:3540   */\n      add\n        /* \"#utility.yul\":3523:3541   */\n      mload\n        /* \"#utility.yul\":3519:3520   */\n      dup2\n        /* \"#utility.yul\":3514:3517   */\n      dup5\n        /* \"#utility.yul\":3510:3521   */\n      add\n        /* \"#utility.yul\":3503:3542   */\n      mstore\n        /* \"#utility.yul\":3475:3477   */\n      0x20\n        /* \"#utility.yul\":3472:3473   */\n      dup2\n        /* \"#utility.yul\":3468:3478   */\n      add\n        /* \"#utility.yul\":3463:3478   */\n      swap1\n      pop\n        /* \"#utility.yul\":3439:3552   */\n      jump(tag_107)\n    tag_109:\n        /* \"#utility.yul\":3586:3587   */\n      0x00\n        /* \"#utility.yul\":3577:3583   */\n      dup5\n        /* \"#utility.yul\":3572:3575   */\n      dup5\n        /* \"#utility.yul\":3568:3584   */\n      add\n        /* \"#utility.yul\":3561:3588   */\n      mstore\n        /* \"#utility.yul\":3410:3594   */\n      pop\n        /* \"#utility.yul\":3348:3594   */\n      pop\n      pop\n      pop\n      jump\t// out\n        /* \"#utility.yul\":3600:3977   */\n    tag_48:\n        /* \"#utility.yul\":3688:3691   */\n      0x00\n        /* \"#utility.yul\":3716:3755   */\n      tag_111\n        /* \"#utility.yul\":3749:3754   */\n      dup3\n        /* \"#utility.yul\":3716:3755   */\n      tag_45\n      jump\t// in\n    tag_111:\n        /* \"#utility.yul\":3771:3842   */\n      tag_112\n        /* \"#utility.yul\":3835:3841   */\n      dup2\n        /* \"#utility.yul\":3830:3833   */\n      dup6\n        /* \"#utility.yul\":3771:3842   */\n      tag_46\n      jump\t// in\n    tag_112:\n        /* \"#utility.yul\":3764:3842   */\n      swap4\n      pop\n        /* \"#utility.yul\":3851:3916   */\n      tag_113\n        /* \"#utility.yul\":3909:3915   */\n      dup2\n        /* \"#utility.yul\":3904:3907   */\n      dup6\n        /* \"#utility.yul\":3897:3901   */\n      0x20\n        /* \"#utility.yul\":3890:3895   */\n      dup7\n        /* \"#utility.yul\":3886:3902   */\n      add\n        /* \"#utility.yul\":3851:3916   */\n      tag_47\n      jump\t// in\n    tag_113:\n        /* \"#utility.yul\":3941:3970   */\n      tag_114\n        /* \"#utility.yul\":3963:3969   */\n      dup2\n        /* \"#utility.yul\":3941:3970   */\n      tag_37\n      jump\t// in\n    tag_114:\n        /* \"#utility.yul\":3936:3939   */\n      dup5\n        /* \"#utility.yul\":3932:3971   */\n      add\n        /* \"#utility.yul\":3925:3971   */\n      swap2\n      pop\n        /* \"#utility.yul\":3692:3977   */\n      pop\n        /* \"#utility.yul\":3600:3977   */\n      swap3\n      swap2\n      pop\n      pop\n      jump\t// out\n        /* \"#utility.yul\":3983:4296   */\n    tag_13:\n        /* \"#utility.yul\":4096:4100   */\n      0x00\n        /* \"#utility.yul\":4134:4136   */\n      0x20\n        /* \"#utility.yul\":4123:4132   */\n      dup3\n        /* \"#utility.yul\":4119:4137   */\n      add\n        /* \"#utility.yul\":4111:4137   */\n      swap1\n      pop\n        /* \"#utility.yul\":4183:4192   */\n      dup2\n        /* \"#utility.yul\":4177:4181   */\n      dup2\n        /* \"#utility.yul\":4173:4193   */\n      sub\n        /* \"#utility.yul\":4169:4170   */\n      0x00\n        /* \"#utility.yul\":4158:4167   */\n      dup4\n        /* \"#utility.yul\":4154:4171   */\n      add\n        /* \"#utility.yul\":4147:4194   */\n      mstore\n        /* \"#utility.yul\":4211:4289   */\n      tag_116\n        /* \"#utility.yul\":4284:4288   */\n      dup2\n        /* \"#utility.yul\":4275:4281   */\n      dup5\n        /* \"#utility.yul\":4211:4289   */\n      tag_48\n      jump\t// in\n    tag_116:\n        /* \"#utility.yul\":4203:4289   */\n      swap1\n      pop\n        /* \"#utility.yul\":3983:4296   */\n      swap3\n      swap2\n      pop\n      pop\n      jump\t// out\n        /* \"#utility.yul\":4302:4379   */\n    tag_49:\n        /* \"#utility.yul\":4339:4346   */\n      0x00\n        /* \"#utility.yul\":4368:4373   */\n      dup2\n        /* \"#utility.yul\":4357:4373   */\n      swap1\n      pop\n        /* \"#utility.yul\":4302:4379   */\n      swap2\n      swap1\n      pop\n      jump\t// out\n        /* \"#utility.yul\":4385:4503   */\n    tag_50:\n        /* \"#utility.yul\":4472:4496   */\n      tag_119\n        /* \"#utility.yul\":4490:4495   */\n      dup2\n        /* \"#utility.yul\":4472:4496   */\n      tag_49\n      jump\t// in\n    tag_119:\n        /* \"#utility.yul\":4467:4470   */\n      dup3\n        /* \"#utility.yul\":4460:4497   */\n      mstore\n        /* \"#utility.yul\":4385:4503   */\n      pop\n      pop\n      jump\t// out\n        /* \"#utility.yul\":4509:4731   */\n    tag_17:\n        /* \"#utility.yul\":4602:4606   */\n      0x00\n        /* \"#utility.yul\":4640:4642   */\n      0x20\n        /* \"#utility.yul\":4629:4638   */\n      dup3\n        /* \"#utility.yul\":4625:4643   */\n      add\n        /* \"#utility.yul\":4617:4643   */\n      swap1\n      pop\n        /* \"#utility.yul\":4653:4724   */\n      tag_121\n        /* \"#utility.yul\":4721:4722   */\n      0x00\n        /* \"#utility.yul\":4710:4719   */\n      dup4\n        /* \"#utility.yul\":4706:4723   */\n      add\n        /* \"#utility.yul\":4697:4703   */\n      dup5\n        /* \"#utility.yul\":4653:4724   */\n      tag_50\n      jump\t// in\n    tag_121:\n        /* \"#utility.yul\":4509:4731   */\n      swap3\n      swap2\n      pop\n      pop\n      jump\t// out\n        /* \"#utility.yul\":4737:4917   */\n    tag_51:\n        /* \"#utility.yul\":4785:4862   */\n      0x4e487b7100000000000000000000000000000000000000000000000000000000\n        /* \"#utility.yul\":4782:4783   */\n      0x00\n        /* \"#utility.yul\":4775:4863   */\n      mstore\n        /* \"#utility.yul\":4882:4886   */\n      0x22\n        /* \"#utility.yul\":4879:4880   */\n      0x04\n        /* \"#utility.yul\":4872:4887   */\n      mstore\n        /* \"#utility.yul\":4906:4910   */\n      0x24\n        /* \"#utility.yul\":4903:4904   */\n      0x00\n        /* \"#utility.yul\":4896:4911   */\n      revert\n        /* \"#utility.yul\":4923:5243   */\n    tag_26:\n        /* \"#utility.yul\":4967:4973   */\n      0x00\n        /* \"#utility.yul\":5004:5005   */\n      0x02\n        /* \"#utility.yul\":4998:5002   */\n      dup3\n        /* \"#utility.yul\":4994:5006   */\n      div\n        /* \"#utility.yul\":4984:5006   */\n      swap1\n      pop\n        /* \"#utility.yul\":5051:5052   */\n      0x01\n        /* \"#utility.yul\":5045:5049   */\n      dup3\n        /* \"#utility.yul\":5041:5053   */\n      and\n        /* \"#utility.yul\":5072:5090   */\n      dup1\n        /* \"#utility.yul\":5062:5143   */\n      tag_124\n      jumpi\n        /* \"#utility.yul\":5128:5132   */\n      0x7f\n        /* \"#utility.yul\":5120:5126   */\n      dup3\n        /* \"#utility.yul\":5116:5133   */\n      and\n        /* \"#utility.yul\":5106:5133   */\n      swap2\n      pop\n        /* \"#utility.yul\":5062:5143   */\n    tag_124:\n        /* \"#utility.yul\":5190:5192   */\n      0x20\n        /* \"#utility.yul\":5182:5188   */\n      dup3\n        /* \"#utility.yul\":5179:5193   */\n      lt\n        /* \"#utility.yul\":5159:5177   */\n      dup2\n        /* \"#utility.yul\":5156:5194   */\n      sub\n        /* \"#utility.yul\":5153:5237   */\n      tag_125\n      jumpi\n        /* \"#utility.yul\":5209:5227   */\n      tag_126\n      tag_51\n      jump\t// in\n    tag_126:\n        /* \"#utility.yul\":5153:5237   */\n    tag_125:\n        /* \"#utility.yul\":4974:5243   */\n      pop\n        /* \"#utility.yul\":4923:5243   */\n      swap2\n      swap1\n      pop\n      jump\t// out\n        /* \"#utility.yul\":5249:5390   */\n    tag_52:\n        /* \"#utility.yul\":5298:5302   */\n      0x00\n        /* \"#utility.yul\":5321:5324   */\n      dup2\n        /* \"#utility.yul\":5313:5324   */\n      swap1\n      pop\n        /* \"#utility.yul\":5344:5347   */\n      dup2\n        /* \"#utility.yul\":5341:5342   */\n      0x00\n        /* \"#utility.yul\":5334:5348   */\n      mstore\n        /* \"#utility.yul\":5378:5382   */\n      0x20\n        /* \"#utility.yul\":5375:5376   */\n      0x00\n        /* \"#utility.yul\":5365:5383   */\n      keccak256\n        /* \"#utility.yul\":5357:5383   */\n      swap1\n      pop\n        /* \"#utility.yul\":5249:5390   */\n      swap2\n      swap1\n      pop\n      jump\t// out\n        /* \"#utility.yul\":5396:5489   */\n    tag_53:\n        /* \"#utility.yul\":5433:5439   */\n      0x00\n        /* \"#utility.yul\":5480:5482   */\n      0x20\n        /* \"#utility.yul\":5475:5477   */\n      0x1f\n        /* \"#utility.yul\":5468:5473   */\n      dup4\n        /* \"#utility.yul\":5464:5478   */\n      add\n        /* \"#utility.yul\":5460:5483   */\n      div\n        /* \"#utility.yul\":5450:5483   */\n      swap1\n      pop\n        /* \"#utility.yul\":5396:5489   */\n      swap2\n      swap1\n      pop\n      jump\t// out\n        /* \"#utility.yul\":5495:5602   */\n    tag_54:\n        /* \"#utility.yul\":5539:5547   */\n      0x00\n        /* \"#utility.yul\":5589:5594   */\n      dup3\n        /* \"#utility.yul\":5583:5587   */\n      dup3\n        /* \"#utility.yul\":5579:5595   */\n      shl\n        /* \"#utility.yul\":5558:5595   */\n      swap1\n      pop\n        /* \"#utility.yul\":5495:5602   */\n      swap3\n      swap2\n      pop\n      pop\n      jump\t// out\n        /* \"#utility.yul\":5608:6001   */\n    tag_55:\n        /* \"#utility.yul\":5677:5683   */\n      0x00\n        /* \"#utility.yul\":5727:5728   */\n      0x08\n        /* \"#utility.yul\":5715:5725   */\n      dup4\n        /* \"#utility.yul\":5711:5729   */\n      mul\n        /* \"#utility.yul\":5750:5847   */\n      tag_131\n        /* \"#utility.yul\":5780:5846   */\n      0xffffffffffffffffffffffffffffffffffffffffffffffffffffffffffffffff\n        /* \"#utility.yul\":5769:5778   */\n      dup3\n        /* \"#utility.yul\":5750:5847   */\n      tag_54\n      jump\t// in\n    tag_131:\n        /* \"#utility.yul\":5868:5907   */\n      tag_132\n        /* \"#utility.yul\":5898:5906   */\n      dup7\n        /* \"#utility.yul\":5887:5896   */\n      dup4\n        /* \"#utility.yul\":5868:5907   */\n      tag_54\n      jump\t// in\n    tag_132:\n        /* \"#utility.yul\":5856:5907   */\n      swap6\n      pop\n        /* \"#utility.yul\":5940:5944   */\n      dup1\n        /* \"#utility.yul\":5936:5945   */\n      not\n        /* \"#utility.yul\":5929:5934   */\n      dup5\n        /* \"#utility.yul\":5925:5946   */\n      and\n        /* \"#utility.yul\":5916:5946   */\n      swap4\n      pop\n        /* \"#utility.yul\":5989:5993   */\n      dup1\n        /* \"#utility.yul\":5979:5987   */\n      dup7\n        /* \"#utility.yul\":5975:5994   */\n      and\n        /* \"#utility.yul\":5968:5973   */\n      dup5\n        /* \"#utility.yul\":5965:5995   */\n      or\n        /* \"#utility.yul\":5955:5995   */\n      swap3\n      pop\n        /* \"#utility.yul\":5684:6001   */\n      pop\n      pop\n        /* \"#utility.yul\":5608:6001   */\n      swap4\n      swap3\n      pop\n      pop\n      pop\n      jump\t// out\n        /* \"#utility.yul\":6007:6084   */\n    tag_56:\n        /* \"#utility.yul\":6044:6051   */\n      0x00\n        /* \"#utility.yul\":6073:6078   */\n      dup2\n        /* \"#utility.yul\":6062:6078   */\n      swap1\n      pop\n        /* \"#utility.yul\":6007:6084   */\n      swap2\n      swap1\n      pop\n      jump\t// out\n        /* \"#utility.yul\":6090:6150   */\n    tag_57:\n        /* \"#utility.yul\":6118:6121   */\n      0x00\n        /* \"#utility.yul\":6139:6144   */\n      dup2\n        /* \"#utility.yul\":6132:6144   */\n      swap1\n      pop\n        /* \"#utility.yul\":6090:6150   */\n      swap2\n      swap1\n      pop\n      jump\t// out\n        /* \"#utility.yul\":6156:6298   */\n    tag_58:\n        /* \"#utility.yul\":6206:6215   */\n      0x00\n        /* \"#utility.yul\":6239:6292   */\n      tag_136\n        /* \"#utility.yul\":6257:6291   */\n      tag_137\n        /* \"#utility.yul\":6266:6290   */\n      tag_138\n        /* \"#utility.yul\":6284:6289   */\n      dup5\n        /* \"#utility.yul\":6266:6290   */\n      tag_56\n      jump\t// in\n    tag_138:\n        /* \"#utility.yul\":6257:6291   */\n      tag_57\n      jump\t// in\n    tag_137:\n        /* \"#utility.yul\":6239:6292   */\n      tag_56\n      jump\t// in\n    tag_136:\n        /* \"#utility.yul\":6226:6292   */\n      swap1\n      pop\n        /* \"#utility.yul\":6156:6298   */\n      swap2\n      swap1\n      pop\n      jump\t// out\n        /* \"#utility.yul\":6304:6379   */\n    tag_59:\n        /* \"#utility.yul\":6347:6350   */\n      0x00\n        /* \"#utility.yul\":6368:6373   */\n      dup2\n        /* \"#utility.yul\":6361:6373   */\n      swap1\n      pop\n        /* \"#utility.yul\":6304:6379   */\n      swap2\n      swap1\n      pop\n      jump\t// out\n        /* \"#utility.yul\":6385:6654   */\n    tag_60:\n        /* \"#utility.yul\":6495:6534   */\n      tag_141\n        /* \"#utility.yul\":6526:6533   */\n      dup4\n        /* \"#utility.yul\":6495:6534   */\n      tag_58\n      jump\t// in\n    tag_141:\n        /* \"#utility.yul\":6556:6647   */\n      tag_142\n        /* \"#utility.yul\":6605:6646   */\n      tag_143\n        /* \"#utility.yul\":6629:6645   */\n      dup3\n        /* \"#utility.yul\":6605:6646   */\n      tag_59\n      jump\t// in\n    tag_143:\n        /* \"#utility.yul\":6597:6603   */\n      dup5\n        /* \"#utility.yul\":6590:6594   */\n      dup5\n        /* \"#utility.yul\":6584:6595   */\n      sload\n        /* \"#utility.yul\":6556:6647   */\n      tag_55\n      jump\t// in\n    tag_142:\n        /* \"#utility.yul\":6550:6554   */\n      dup3\n        /* \"#utility.yul\":6543:6648   */\n      sstore\n        /* \"#utility.yul\":6461:6654   */\n      pop\n        /* \"#utility.yul\":6385:6654   */\n      pop\n      pop\n      pop\n      jump\t// out\n        /* \"#utility.yul\":6660:6733   */\n    tag_61:\n        /* \"#utility.yul\":6705:6708   */\n      0x00\n        /* \"#utility.yul\":6660:6733   */\n      swap1\n      jump\t// out\n        /* \"#utility.yul\":6739:6928   */\n    tag_62:\n        /* \"#utility.yul\":6816:6848   */\n      tag_146\n      tag_61\n      jump\t// in\n    tag_146:\n        /* \"#utility.yul\":6857:6922   */\n      tag_147\n        /* \"#utility.yul\":6915:6921   */\n      dup2\n        /* \"#utility.yul\":6907:6913   */\n      dup5\n        /* \"#utility.yul\":6901:6905   */\n      dup5\n        /* \"#utility.yul\":6857:6922   */\n      tag_60\n      jump\t// in\n    tag_147:\n        /* \"#utility.yul\":6792:6928   */\n      pop\n        /* \"#utility.yul\":6739:6928   */\n      pop\n      pop\n      jump\t// out\n        /* \"#utility.yul\":6934:7120   */\n    tag_63:\n        /* \"#utility.yul\":6994:7114   */\n    tag_149:\n        /* \"#utility.yul\":7011:7014   */\n      dup2\n        /* \"#utility.yul\":7004:7009   */\n      dup2\n        /* \"#utility.yul\":7001:7015   */\n      lt\n        /* \"#utility.yul\":6994:7114   */\n      iszero\n      tag_151\n      jumpi\n        /* \"#utility.yul\":7065:7104   */\n      tag_152\n        /* \"#utility.yul\":7102:7103   */\n      0x00\n        /* \"#utility.yul\":7095:7100   */\n      dup3\n        /* \"#utility.yul\":7065:7104   */\n      tag_62\n      jump\t// in\n    tag_152:\n        /* \"#utility.yul\":7038:7039   */\n      0x01\n        /* \"#utility.yul\":7031:7036   */\n      dup2\n        /* \"#utility.yul\":7027:7040   */\n      add\n        /* \"#utility.yul\":7018:7040   */\n      swap1\n      pop\n        /* \"#utility.yul\":6994:7114   */\n      jump(tag_149)\n    tag_151:\n        /* \"#utility.yul\":6934:7120   */\n      pop\n      pop\n      jump\t// out\n        /* \"#utility.yul\":7126:7669   */\n    tag_64:\n        /* \"#utility.yul\":7227:7229   */\n      0x1f\n        /* \"#utility.yul\":7222:7225   */\n      dup3\n        /* \"#utility.yul\":7219:7230   */\n      gt\n        /* \"#utility.yul\":7216:7662   */\n      iszero\n      tag_154\n      jumpi\n        /* \"#utility.yul\":7261:7299   */\n      tag_155\n        /* \"#utility.yul\":7293:7298   */\n      dup2\n        /* \"#utility.yul\":7261:7299   */\n      tag_52\n      jump\t// in\n    tag_155:\n        /* \"#utility.yul\":7345:7374   */\n      tag_156\n        /* \"#utility.yul\":7363:7373   */\n      dup5\n        /* \"#utility.yul\":7345:7374   */\n      tag_53\n      jump\t// in\n    tag_156:\n        /* \"#utility.yul\":7335:7343   */\n      dup2\n        /* \"#utility.yul\":7331:7375   */\n      add\n        /* \"#utility.yul\":7528:7530   */\n      0x20\n        /* \"#utility.yul\":7516:7526   */\n      dup6\n        /* \"#utility.yul\":7513:7531   */\n      lt\n        /* \"#utility.yul\":7510:7559   */\n      iszero\n      tag_157\n      jumpi\n        /* \"#utility.yul\":7549:7557   */\n      dup2\n        /* \"#utility.yul\":7534:7557   */\n      swap1\n      pop\n        /* \"#utility.yul\":7510:7559   */\n    tag_157:\n        /* \"#utility.yul\":7572:7652   */\n      tag_158\n        /* \"#utility.yul\":7628:7650   */\n      tag_159\n        /* \"#utility.yul\":7646:7649   */\n      dup6\n        /* \"#utility.yul\":7628:7650   */\n      tag_53\n      jump\t// in\n    tag_159:\n        /* \"#utility.yul\":7618:7626   */\n      dup4\n        /* \"#utility.yul\":7614:7651   */\n      add\n        /* \"#utility.yul\":7601:7612   */\n      dup3\n        /* \"#utility.yul\":7572:7652   */\n      tag_63\n      jump\t// in\n    tag_158:\n        /* \"#utility.yul\":7231:7662   */\n      pop\n      pop\n        /* \"#utility.yul\":7216:7662   */\n    tag_154:\n        /* \"#utility.yul\":7126:7669   */\n      pop\n      pop\n      pop\n      jump\t// out\n        /* \"#utility.yul\":7675:7792   */\n    tag_65:\n        /* \"#utility.yul\":7729:7737   */\n      0x00\n        /* \"#utility.yul\":7779:7784   */\n      dup3\n        /* \"#utility.yul\":7773:7777   */\n      dup3\n        /* \"#utility.yul\":7769:7785   */\n      shr\n        /* \"#utility.yul\":7748:7785   */\n      swap1\n      pop\n        /* \"#utility.yul\":7675:7792   */\n      swap3\n      swap2\n      pop\n      pop\n      jump\t// out\n        /* \"#utility.yul\":7798:7967   */\n    tag_66:\n        /* \"#utility.yul\":7842:7848   */\n      0x00\n        /* \"#utility.yul\":7875:7926   */\n      tag_162\n        /* \"#utility.yul\":7923:7924   */\n      0x00\n        /* \"#utility.yul\":7919:7925   */\n      not\n        /* \"#utility.yul\":7911:7916   */\n      dup5\n        /* \"#utility.yul\":7908:7909   */\n      0x08\n        /* \"#utility.yul\":7904:7917   */\n      mul\n        /* \"#utility.yul\":7875:7926   */\n      tag_65\n      jump\t// in\n    tag_162:\n        /* \"#utility.yul\":7871:7927   */\n      not\n        /* \"#utility.yul\":7956:7960   */\n      dup1\n        /* \"#utility.yul\":7950:7954   */\n      dup4\n        /* \"#utility.yul\":7946:7961   */\n      and\n        /* \"#utility.yul\":7936:7961   */\n      swap2\n      pop\n        /* \"#utility.yul\":7849:7967   */\n      pop\n        /* \"#utility.yul\":7798:7967   */\n      swap3\n      swap2\n      pop\n      pop\n      jump\t// out\n        /* \"#utility.yul\":7972:8267   */\n    tag_67:\n        /* \"#utility.yul\":8048:8052   */\n      0x00\n        /* \"#utility.yul\":8194:8223   */\n      tag_164\n        /* \"#utility.yul\":8219:8222   */\n      dup4\n        /* \"#utility.yul\":8213:8217   */\n      dup4\n        /* \"#utility.yul\":8194:8223   */\n      tag_66\n      jump\t// in\n    tag_164:\n        /* \"#utility.yul\":8186:8223   */\n      swap2\n      pop\n        /* \"#utility.yul\":8256:8259   */\n      dup3\n        /* \"#utility.yul\":8253:8254   */\n      0x02\n        /* \"#utility.yul\":8249:8260   */\n      mul\n        /* \"#utility.yul\":8243:8247   */\n      dup3\n        /* \"#utility.yul\":8240:8261   */\n      or\n        /* \"#utility.yul\":8232:8261   */\n      swap1\n      pop\n        /* \"#utility.yul\":7972:8267   */\n      swap3\n      swap2\n      pop\n      pop\n      jump\t// out\n        /* \"#utility.yul\":8272:9667   */\n    tag_22:\n        /* \"#utility.yul\":8389:8426   */\n      tag_166\n        /* \"#utility.yul\":8422:8425   */\n      dup3\n        /* \"#utility.yul\":8389:8426   */\n      tag_45\n      jump\t// in\n    tag_166:\n        /* \"#utility.yul\":8491:8509   */\n      0xffffffffffffffff\n        /* \"#utility.yul\":8483:8489   */\n      dup2\n        /* \"#utility.yul\":8480:8510   */\n      gt\n        /* \"#utility.yul\":8477:8533   */\n      iszero\n      tag_167\n      jumpi\n        /* \"#utility.yul\":8513:8531   */\n      tag_168\n      tag_38\n      jump\t// in\n    tag_168:\n        /* \"#utility.yul\":8477:8533   */\n    tag_167:\n        /* \"#utility.yul\":8557:8595   */\n      tag_169\n        /* \"#utility.yul\":8589:8593   */\n      dup3\n        /* \"#utility.yul\":8583:8594   */\n      sload\n        /* \"#utility.yul\":8557:8595   */\n      tag_26\n      jump\t// in\n    tag_169:\n        /* \"#utility.yul\":8642:8709   */\n      tag_170\n        /* \"#utility.yul\":8702:8708   */\n      dup3\n        /* \"#utility.yul\":8694:8700   */\n      dup3\n        /* \"#utility.yul\":8688:8692   */\n      dup6\n        /* \"#utility.yul\":8642:8709   */\n      tag_64\n      jump\t// in\n    tag_170:\n        /* \"#utility.yul\":8736:8737   */\n      0x00\n        /* \"#utility.yul\":8760:8764   */\n      0x20\n        /* \"#utility.yul\":8747:8764   */\n      swap1\n      pop\n        /* \"#utility.yul\":8792:8794   */\n      0x1f\n        /* \"#utility.yul\":8784:8790   */\n      dup4\n        /* \"#utility.yul\":8781:8795   */\n      gt\n        /* \"#utility.yul\":8809:8810   */\n      0x01\n        /* \"#utility.yul\":8804:9422   */\n      dup2\n      eq\n      tag_172\n      jumpi\n        /* \"#utility.yul\":9466:9467   */\n      0x00\n        /* \"#utility.yul\":9483:9489   */\n      dup5\n        /* \"#utility.yul\":9480:9557   */\n      iszero\n      tag_173\n      jumpi\n        /* \"#utility.yul\":9532:9541   */\n      dup3\n        /* \"#utility.yul\":9527:9530   */\n      dup8\n        /* \"#utility.yul\":9523:9542   */\n      add\n        /* \"#utility.yul\":9517:9543   */\n      mload\n        /* \"#utility.yul\":9508:9543   */\n      swap1\n      pop\n        /* \"#utility.yul\":9480:9557   */\n    tag_173:\n        /* \"#utility.yul\":9583:9650   */\n      tag_174\n        /* \"#utility.yul\":9643:9649   */\n      dup6\n        /* \"#utility.yul\":9636:9641   */\n      dup3\n        /* \"#utility.yul\":9583:9650   */\n      tag_67\n      jump\t// in\n    tag_174:\n        /* \"#utility.yul\":9577:9581   */\n      dup7\n        /* \"#utility.yul\":9570:9651   */\n      sstore\n        /* \"#utility.yul\":9439:9661   */\n      pop\n        /* \"#utility.yul\":8774:9661   */\n      jump(tag_171)\n        /* \"#utility.yul\":8804:9422   */\n    tag_172:\n        /* \"#utility.yul\":8856:8860   */\n      0x1f\n        /* \"#utility.yul\":8852:8861   */\n      not\n        /* \"#utility.yul\":8844:8850   */\n      dup5\n        /* \"#utility.yul\":8840:8862   */\n      and\n        /* \"#utility.yul\":8890:8927   */\n      tag_175\n        /* \"#utility.yul\":8922:8926   */\n      dup7\n        /* \"#utility.yul\":8890:8927   */\n      tag_52\n      jump\t// in\n    tag_175:\n        /* \"#utility.yul\":8949:8950   */\n      0x00\n        /* \"#utility.yul\":8963:9171   */\n    tag_176:\n        /* \"#utility.yul\":8977:8984   */\n      dup3\n        /* \"#utility.yul\":8974:8975   */\n      dup2\n        /* \"#utility.yul\":8971:8985   */\n      lt\n        /* \"#utility.yul\":8963:9171   */\n      iszero\n      tag_178\n      jumpi\n        /* \"#utility.yul\":9056:9065   */\n      dup5\n        /* \"#utility.yul\":9051:9054   */\n      dup10\n        /* \"#utility.yul\":9047:9066   */\n      add\n        /* \"#utility.yul\":9041:9067   */\n      mload\n        /* \"#utility.yul\":9033:9039   */\n      dup3\n        /* \"#utility.yul\":9026:9068   */\n      sstore\n        /* \"#utility.yul\":9107:9108   */\n      0x01\n        /* \"#utility.yul\":9099:9105   */\n      dup3\n        /* \"#utility.yul\":9095:9109   */\n      add\n        /* \"#utility.yul\":9085:9109   */\n      swap2\n      pop\n        /* \"#utility.yul\":9154:9156   */\n      0x20\n        /* \"#utility.yul\":9143:9152   */\n      dup6\n        /* \"#utility.yul\":9139:9157   */\n      add\n        /* \"#utility.yul\":9126:9157   */\n      swap5\n      pop\n        /* \"#utility.yul\":9000:9004   */\n      0x20\n        /* \"#utility.yul\":8997:8998   */\n      dup2\n        /* \"#utility.yul\":8993:9005   */\n      add\n        /* \"#utility.yul\":8988:9005   */\n      swap1\n      pop\n        /* \"#utility.yul\":8963:9171   */\n      jump(tag_176)\n    tag_178:\n        /* \"#utility.yul\":9199:9205   */\n      dup7\n        /* \"#utility.yul\":9190:9197   */\n      dup4\n        /* \"#utility.yul\":9187:9206   */\n      lt\n        /* \"#utility.yul\":9184:9363   */\n      iszero\n      tag_179\n      jumpi\n        /* \"#utility.yul\":9257:9266   */\n      dup5\n        /* \"#utility.yul\":9252:9255   */\n      dup10\n        /* \"#utility.yul\":9248:9267   */\n      add\n        /* \"#utility.yul\":9242:9268   */\n      mload\n        /* \"#utility.yul\":9300:9348   */\n      tag_180\n        /* \"#utility.yul\":9342:9346   */\n      0x1f\n        /* \"#utility.yul\":9334:9340   */\n      dup10\n        /* \"#utility.yul\":9330:9347   */\n      and\n        /* \"#utility.yul\":9319:9328   */\n      dup3\n        /* \"#utility.yul\":9300:9348   */\n      tag_66\n      jump\t// in\n    tag_180:\n        /* \"#utility.yul\":9292:9298   */\n      dup4\n        /* \"#utility.yul\":9285:9349   */\n      sstore\n        /* \"#utility.yul\":9207:9363   */\n      pop\n        /* \"#utility.yul\":9184:9363   */\n    tag_179:\n        /* \"#utility.yul\":9409:9410   */\n      0x01\n        /* \"#utility.yul\":9405:9406   */\n      0x02\n        /* \"#utility.yul\":9397:9403   */\n      dup9\n        /* \"#utility.yul\":9393:9407   */\n      mul\n        /* \"#utility.yul\":9389:9411   */\n      add\n        /* \"#utility.yul\":9383:9387   */\n      dup9\n        /* \"#utility.yul\":9376:9412   */\n      sstore\n        /* \"#utility.yul\":8811:9422   */\n      pop\n      pop\n      pop\n        /* \"#utility.yul\":8774:9661   */\n    tag_171:\n      pop\n        /* \"#utility.yul\":8364:9667   */\n      pop\n      pop\n      pop\n        /* \"#utility.yul\":8272:9667   */\n      pop\n      pop\n      jump\t// out\n\n    auxdata: 0xa2646970667358221220184988c5747063b34c807eee31df9ccfd3c342353dd702d635f81361d92ed84564736f6c63430008170033\n}\n",
				"bytecode": {
					"linkReferences": {},
					"object": "608060405234801561000f575f80fd5b506107248061001d5f395ff3fe608060405234801561000f575f80fd5b506004361061003f575f3560e01c80634ef1d9cf14610043578063f53bbf441461005f578063fc7dd5a51461007d575b5f80fd5b61005d6004803603810190610058919061030a565b61009b565b005b6100676100d7565b60405161007491906103cb565b60405180910390f35b610085610190565b6040516100929190610403565b60405180910390f35b806100c57fca34568964cada20cc6c6a39d80bef16517d7d2abcb0548de9c00c3498ea581f6101b4565b5f0190816100d3919061061f565b5050565b60606101027fca34568964cada20cc6c6a39d80bef16517d7d2abcb0548de9c00c3498ea581f6101b4565b5f01805461010f90610449565b80601f016020809104026020016040519081016040528092919081815260200182805461013b90610449565b80156101865780601f1061015d57610100808354040283529160200191610186565b820191905f5260205f20905b81548152906001019060200180831161016957829003601f168201915b5050505050905090565b7fca34568964cada20cc6c6a39d80bef16517d7d2abcb0548de9c00c3498ea581f81565b5f819050919050565b5f604051905090565b5f80fd5b5f80fd5b5f80fd5b5f80fd5b5f601f19601f8301169050919050565b7f4e487b71000000000000000000000000000000000000000000000000000000005f52604160045260245ffd5b61021c826101d6565b810181811067ffffffffffffffff8211171561023b5761023a6101e6565b5b80604052505050565b5f61024d6101bd565b90506102598282610213565b919050565b5f67ffffffffffffffff821115610278576102776101e6565b5b610281826101d6565b9050602081019050919050565b828183375f83830152505050565b5f6102ae6102a98461025e565b610244565b9050828152602081018484840111156102ca576102c96101d2565b5b6102d584828561028e565b509392505050565b5f82601f8301126102f1576102f06101ce565b5b813561030184826020860161029c565b91505092915050565b5f6020828403121561031f5761031e6101c6565b5b5f82013567ffffffffffffffff81111561033c5761033b6101ca565b5b610348848285016102dd565b91505092915050565b5f81519050919050565b5f82825260208201905092915050565b5f5b8381101561038857808201518184015260208101905061036d565b5f8484015250505050565b5f61039d82610351565b6103a7818561035b565b93506103b781856020860161036b565b6103c0816101d6565b840191505092915050565b5f6020820190508181035f8301526103e38184610393565b905092915050565b5f819050919050565b6103fd816103eb565b82525050565b5f6020820190506104165f8301846103f4565b92915050565b7f4e487b71000000000000000000000000000000000000000000000000000000005f52602260045260245ffd5b5f600282049050600182168061046057607f821691505b6020821081036104735761047261041c565b5b50919050565b5f819050815f5260205f209050919050565b5f6020601f8301049050919050565b5f82821b905092915050565b5f600883026104d57fffffffffffffffffffffffffffffffffffffffffffffffffffffffffffffffff8261049a565b6104df868361049a565b95508019841693508086168417925050509392505050565b5f819050919050565b5f819050919050565b5f61052361051e610519846104f7565b610500565b6104f7565b9050919050565b5f819050919050565b61053c83610509565b6105506105488261052a565b8484546104a6565b825550505050565b5f90565b610564610558565b61056f818484610533565b505050565b5b81811015610592576105875f8261055c565b600181019050610575565b5050565b601f8211156105d7576105a881610479565b6105b18461048b565b810160208510156105c0578190505b6105d46105cc8561048b565b830182610574565b50505b505050565b5f82821c905092915050565b5f6105f75f19846008026105dc565b1980831691505092915050565b5f61060f83836105e8565b9150826002028217905092915050565b61062882610351565b67ffffffffffffffff811115610641576106406101e6565b5b61064b8254610449565b610656828285610596565b5f60209050601f831160018114610687575f8415610675578287015190505b61067f8582610604565b8655506106e6565b601f19841661069586610479565b5f5b828110156106bc57848901518255600182019150602085019450602081019050610697565b868310156106d957848901516106d5601f8916826105e8565b8355505b6001600288020188555050505b50505050505056fea2646970667358221220184988c5747063b34c807eee31df9ccfd3c342353dd702d635f81361d92ed84564736f6c63430008170033",
					"opcodes": "PUSH1 0x80 PUSH1 0x40 MSTORE CALLVALUE DUP1 ISZERO PUSH2 0xF JUMPI PUSH0 DUP1 REVERT JUMPDEST POP PUSH2 0x724 DUP1 PUSH2 0x1D PUSH0 CODECOPY PUSH0 RETURN INVALID PUSH1 0x80 PUSH1 0x40 MSTORE CALLVALUE DUP1 ISZERO PUSH2 0xF JUMPI PUSH0 DUP1 REVERT JUMPDEST POP PUSH1 0x4 CALLDATASIZE LT PUSH2 0x3F JUMPI PUSH0 CALLDATALOAD PUSH1 0xE0 SHR DUP1 PUSH4 0x4EF1D9CF EQ PUSH2 0x43 JUMPI DUP1 PUSH4 0xF53BBF44 EQ PUSH2 0x5F JUMPI DUP1 PUSH4 0xFC7DD5A5 EQ PUSH2 0x7D JUMPI JUMPDEST PUSH0 DUP1 REVERT JUMPDEST PUSH2 0x5D PUSH1 0x4 DUP1 CALLDATASIZE SUB DUP2 ADD SWAP1 PUSH2 0x58 SWAP2 SWAP1 PUSH2 0x30A JUMP JUMPDEST PUSH2 0x9B JUMP JUMPDEST STOP JUMPDEST PUSH2 0x67 PUSH2 0xD7 JUMP JUMPDEST PUSH1 0x40 MLOAD PUSH2 0x74 SWAP2 SWAP1 PUSH2 0x3CB JUMP JUMPDEST PUSH1 0x40 MLOAD DUP1 SWAP2 SUB SWAP1 RETURN JUMPDEST PUSH2 0x85 PUSH2 0x190 JUMP JUMPDEST PUSH1 0x40 MLOAD PUSH2 0x92 SWAP2 SWAP1 PUSH2 0x403 JUMP JUMPDEST PUSH1 0x40 MLOAD DUP1 SWAP2 SUB SWAP1 RETURN JUMPDEST DUP1 PUSH2 0xC5 PUSH32 0xCA34568964CADA20CC6C6A39D80BEF16517D7D2ABCB0548DE9C00C3498EA581F PUSH2 0x1B4 JUMP JUMPDEST PUSH0 ADD SWAP1 DUP2 PUSH2 0xD3 SWAP2 SWAP1 PUSH2 0x61F JUMP JUMPDEST POP POP JUMP JUMPDEST PUSH1 0x60 PUSH2 0x102 PUSH32 0xCA34568964CADA20CC6C6A39D80BEF16517D7D2ABCB0548DE9C00C3498EA581F PUSH2 0x1B4 JUMP JUMPDEST PUSH0 ADD DUP1 SLOAD PUSH2 0x10F SWAP1 PUSH2 0x449 JUMP JUMPDEST DUP1 PUSH1 0x1F ADD PUSH1 0x20 DUP1 SWAP2 DIV MUL PUSH1 0x20 ADD PUSH1 0x40 MLOAD SWAP1 DUP2 ADD PUSH1 0x40 MSTORE DUP1 SWAP3 SWAP2 SWAP1 DUP2 DUP2 MSTORE PUSH1 0x20 ADD DUP3 DUP1 SLOAD PUSH2 0x13B SWAP1 PUSH2 0x449 JUMP JUMPDEST DUP1 ISZERO PUSH2 0x186 JUMPI DUP1 PUSH1 0x1F LT PUSH2 0x15D JUMPI PUSH2 0x100 DUP1 DUP4 SLOAD DIV MUL DUP4 MSTORE SWAP2 PUSH1 0x20 ADD SWAP2 PUSH2 0x186 JUMP JUMPDEST DUP3 ADD SWAP2 SWAP1 PUSH0 MSTORE PUSH1 0x20 PUSH0 KECCAK256 SWAP1 JUMPDEST DUP2 SLOAD DUP2 MSTORE SWAP1 PUSH1 0x1 ADD SWAP1 PUSH1 0x20 ADD DUP1 DUP4 GT PUSH2 0x169 JUMPI DUP3 SWAP1 SUB PUSH1 0x1F AND DUP3 ADD SWAP2 JUMPDEST POP POP POP POP POP SWAP1 POP SWAP1 JUMP JUMPDEST PUSH32 0xCA34568964CADA20CC6C6A39D80BEF16517D7D2ABCB0548DE9C00C3498EA581F DUP2 JUMP JUMPDEST PUSH0 DUP2 SWAP1 POP SWAP2 SWAP1 POP JUMP JUMPDEST PUSH0 PUSH1 0x40 MLOAD SWAP1 POP SWAP1 JUMP JUMPDEST PUSH0 DUP1 REVERT JUMPDEST PUSH0 DUP1 REVERT JUMPDEST PUSH0 DUP1 REVERT JUMPDEST PUSH0 DUP1 REVERT JUMPDEST PUSH0 PUSH1 0x1F NOT PUSH1 0x1F DUP4 ADD AND SWAP1 POP SWAP2 SWAP1 POP JUMP JUMPDEST PUSH32 0x4E487B7100000000000000000000000000000000000000000000000000000000 PUSH0 MSTORE PUSH1 0x41 PUSH1 0x4 MSTORE PUSH1 0x24 PUSH0 REVERT JUMPDEST PUSH2 0x21C DUP3 PUSH2 0x1D6 JUMP JUMPDEST DUP2 ADD DUP2 DUP2 LT PUSH8 0xFFFFFFFFFFFFFFFF DUP3 GT OR ISZERO PUSH2 0x23B JUMPI PUSH2 0x23A PUSH2 0x1E6 JUMP JUMPDEST JUMPDEST DUP1 PUSH1 0x40 MSTORE POP POP POP JUMP JUMPDEST PUSH0 PUSH2 0x24D PUSH2 0x1BD JUMP JUMPDEST SWAP1 POP PUSH2 0x259 DUP3 DUP3 PUSH2 0x213 JUMP JUMPDEST SWAP2 SWAP1 POP JUMP JUMPDEST PUSH0 PUSH8 0xFFFFFFFFFFFFFFFF DUP3 GT ISZERO PUSH2 0x278 JUMPI PUSH2 0x277 PUSH2 0x1E6 JUMP JUMPDEST JUMPDEST PUSH2 0x281 DUP3 PUSH2 0x1D6 JUMP JUMPDEST SWAP1 POP PUSH1 0x20 DUP2 ADD SWAP1 POP SWAP2 SWAP1 POP JUMP JUMPDEST DUP3 DUP2 DUP4 CALLDATACOPY PUSH0 DUP4 DUP4 ADD MSTORE POP POP POP JUMP JUMPDEST PUSH0 PUSH2 0x2AE PUSH2 0x2A9 DUP5 PUSH2 0x25E JUMP JUMPDEST PUSH2 0x244 JUMP JUMPDEST SWAP1 POP DUP3 DUP2 MSTORE PUSH1 0x20 DUP2 ADD DUP5 DUP5 DUP5 ADD GT ISZERO PUSH2 0x2CA JUMPI PUSH2 0x2C9 PUSH2 0x1D2 JUMP JUMPDEST JUMPDEST PUSH2 0x2D5 DUP5 DUP3 DUP6 PUSH2 0x28E JUMP JUMPDEST POP SWAP4 SWAP3 POP POP POP JUMP JUMPDEST PUSH0 DUP3 PUSH1 0x1F DUP4 ADD SLT PUSH2 0x2F1 JUMPI PUSH2 0x2F0 PUSH2 0x1CE JUMP JUMPDEST JUMPDEST DUP2 CALLDATALOAD PUSH2 0x301 DUP5 DUP3 PUSH1 0x20 DUP7 ADD PUSH2 0x29C JUMP JUMPDEST SWAP2 POP POP SWAP3 SWAP2 POP POP JUMP JUMPDEST PUSH0 PUSH1 0x20 DUP3 DUP5 SUB SLT ISZERO PUSH2 0x31F JUMPI PUSH2 0x31E PUSH2 0x1C6 JUMP JUMPDEST JUMPDEST PUSH0 DUP3 ADD CALLDATALOAD PUSH8 0xFFFFFFFFFFFFFFFF DUP2 GT ISZERO PUSH2 0x33C JUMPI PUSH2 0x33B PUSH2 0x1CA JUMP JUMPDEST JUMPDEST PUSH2 0x348 DUP5 DUP3 DUP6 ADD PUSH2 0x2DD JUMP JUMPDEST SWAP2 POP POP SWAP3 SWAP2 POP POP JUMP JUMPDEST PUSH0 DUP2 MLOAD SWAP1 POP SWAP2 SWAP1 POP JUMP JUMPDEST PUSH0 DUP3 DUP3 MSTORE PUSH1 0x20 DUP3 ADD SWAP1 POP SWAP3 SWAP2 POP POP JUMP JUMPDEST PUSH0 JUMPDEST DUP4 DUP2 LT ISZERO PUSH2 0x388 JUMPI DUP1 DUP3 ADD MLOAD DUP2 DUP5 ADD MSTORE PUSH1 0x20 DUP2 ADD SWAP1 POP PUSH2 0x36D JUMP JUMPDEST PUSH0 DUP5 DUP5 ADD MSTORE POP POP POP POP JUMP JUMPDEST PUSH0 PUSH2 0x39D DUP3 PUSH2 0x351 JUMP JUMPDEST PUSH2 0x3A7 DUP2 DUP6 PUSH2 0x35B JUMP JUMPDEST SWAP4 POP PUSH2 0x3B7 DUP2 DUP6 PUSH1 0x20 DUP7 ADD PUSH2 0x36B JUMP JUMPDEST PUSH2 0x3C0 DUP2 PUSH2 0x1D6 JUMP JUMPDEST DUP5 ADD SWAP2 POP POP SWAP3 SWAP2 POP POP JUMP JUMPDEST PUSH0 PUSH1 0x20 DUP3 ADD SWAP1 POP DUP2 DUP2 SUB PUSH0 DUP4 ADD MSTORE PUSH2 0x3E3 DUP2 DUP5 PUSH2 0x393 JUMP JUMPDEST SWAP1 POP SWAP3 SWAP2 POP POP JUMP JUMPDEST PUSH0 DUP2 SWAP1 POP SWAP2 SWAP1 POP JUMP JUMPDEST PUSH2 0x3FD DUP2 PUSH2 0x3EB JUMP JUMPDEST DUP3 MSTORE POP POP JUMP JUMPDEST PUSH0 PUSH1 0x20 DUP3 ADD SWAP1 POP PUSH2 0x416 PUSH0 DUP4 ADD DUP5 PUSH2 0x3F4 JUMP JUMPDEST SWAP3 SWAP2 POP POP JUMP JUMPDEST PUSH32 0x4E487B7100000000000000000000000000000000000000000000000000000000 PUSH0 MSTORE PUSH1 0x22 PUSH1 0x4 MSTORE PUSH1 0x24 PUSH0 REVERT JUMPDEST PUSH0 PUSH1 0x2 DUP3 DIV SWAP1 POP PUSH1 0x1 DUP3 AND DUP1 PUSH2 0x460 JUMPI PUSH1 0x7F DUP3 AND SWAP2 POP JUMPDEST PUSH1 0x20 DUP3 LT DUP2 SUB PUSH2 0x473 JUMPI PUSH2 0x472 PUSH2 0x41C JUMP JUMPDEST JUMPDEST POP SWAP2 SWAP1 POP JUMP JUMPDEST PUSH0 DUP2 SWAP1 POP DUP2 PUSH0 MSTORE PUSH1 0x20 PUSH0 KECCAK256 SWAP1 POP SWAP2 SWAP1 POP JUMP JUMPDEST PUSH0 PUSH1 0x20 PUSH1 0x1F DUP4 ADD DIV SWAP1 POP SWAP2 SWAP1 POP JUMP JUMPDEST PUSH0 DUP3 DUP3 SHL SWAP1 POP SWAP3 SWAP2 POP POP JUMP JUMPDEST PUSH0 PUSH1 0x8 DUP4 MUL PUSH2 0x4D5 PUSH32 0xFFFFFFFFFFFFFFFFFFFFFFFFFFFFFFFFFFFFFFFFFFFFFFFFFFFFFFFFFFFFFFFF DUP3 PUSH2 0x49A JUMP JUMPDEST PUSH2 0x4DF DUP7 DUP4 PUSH2 0x49A JUMP JUMPDEST SWAP6 POP DUP1 NOT DUP5 AND SWAP4 POP DUP1 DUP7 AND DUP5 OR SWAP3 POP POP POP SWAP4 SWAP3 POP POP POP JUMP JUMPDEST PUSH0 DUP2 SWAP1 POP SWAP2 SWAP1 POP JUMP JUMPDEST PUSH0 DUP2 SWAP1 POP SWAP2 SWAP1 POP JUMP JUMPDEST PUSH0 PUSH2 0x523 PUSH2 0x51E PUSH2 0x519 DUP5 PUSH2 0x4F7 JUMP JUMPDEST PUSH2 0x500 JUMP JUMPDEST PUSH2 0x4F7 JUMP JUMPDEST SWAP1 POP SWAP2 SWAP1 POP JUMP JUMPDEST PUSH0 DUP2 SWAP1 POP SWAP2 SWAP1 POP JUMP JUMPDEST PUSH2 0x53C DUP4 PUSH2 0x509 JUMP JUMPDEST PUSH2 0x550 PUSH2 0x548 DUP3 PUSH2 0x52A JUMP JUMPDEST DUP5 DUP5 SLOAD PUSH2 0x4A6 JUMP JUMPDEST DUP3 SSTORE POP POP POP POP JUMP JUMPDEST PUSH0 SWAP1 JUMP JUMPDEST PUSH2 0x564 PUSH2 0x558 JUMP JUMPDEST PUSH2 0x56F DUP2 DUP5 DUP5 PUSH2 0x533 JUMP JUMPDEST POP POP POP JUMP JUMPDEST JUMPDEST DUP2 DUP2 LT ISZERO PUSH2 0x592 JUMPI PUSH2 0x587 PUSH0 DUP3 PUSH2 0x55C JUMP JUMPDEST PUSH1 0x1 DUP2 ADD SWAP1 POP PUSH2 0x575 JUMP JUMPDEST POP POP JUMP JUMPDEST PUSH1 0x1F DUP3 GT ISZERO PUSH2 0x5D7 JUMPI PUSH2 0x5A8 DUP2 PUSH2 0x479 JUMP JUMPDEST PUSH2 0x5B1 DUP5 PUSH2 0x48B JUMP JUMPDEST DUP2 ADD PUSH1 0x20 DUP6 LT ISZERO PUSH2 0x5C0 JUMPI DUP2 SWAP1 POP JUMPDEST PUSH2 0x5D4 PUSH2 0x5CC DUP6 PUSH2 0x48B JUMP JUMPDEST DUP4 ADD DUP3 PUSH2 0x574 JUMP JUMPDEST POP POP JUMPDEST POP POP POP JUMP JUMPDEST PUSH0 DUP3 DUP3 SHR SWAP1 POP SWAP3 SWAP2 POP POP JUMP JUMPDEST PUSH0 PUSH2 0x5F7 PUSH0 NOT DUP5 PUSH1 0x8 MUL PUSH2 0x5DC JUMP JUMPDEST NOT DUP1 DUP4 AND SWAP2 POP POP SWAP3 SWAP2 POP POP JUMP JUMPDEST PUSH0 PUSH2 0x60F DUP4 DUP4 PUSH2 0x5E8 JUMP JUMPDEST SWAP2 POP DUP3 PUSH1 0x2 MUL DUP3 OR SWAP1 POP SWAP3 SWAP2 POP POP JUMP JUMPDEST PUSH2 0x628 DUP3 PUSH2 0x351 JUMP JUMPDEST PUSH8 0xFFFFFFFFFFFFFFFF DUP2 GT ISZERO PUSH2 0x641 JUMPI PUSH2 0x640 PUSH2 0x1E6 JUMP JUMPDEST JUMPDEST PUSH2 0x64B DUP3 SLOAD PUSH2 0x449 JUMP JUMPDEST PUSH2 0x656 DUP3 DUP3 DUP6 PUSH2 0x596 JUMP JUMPDEST PUSH0 PUSH1 0x20 SWAP1 POP PUSH1 0x1F DUP4 GT PUSH1 0x1 DUP2 EQ PUSH2 0x687 JUMPI PUSH0 DUP5 ISZERO PUSH2 0x675 JUMPI DUP3 DUP8 ADD MLOAD SWAP1 POP JUMPDEST PUSH2 0x67F DUP6 DUP3 PUSH2 0x604 JUMP JUMPDEST DUP7 SSTORE POP PUSH2 0x6E6 JUMP JUMPDEST PUSH1 0x1F NOT DUP5 AND PUSH2 0x695 DUP7 PUSH2 0x479 JUMP JUMPDEST PUSH0 JUMPDEST DUP3 DUP2 LT ISZERO PUSH2 0x6BC JUMPI DUP5 DUP10 ADD MLOAD DUP3 SSTORE PUSH1 0x1 DUP3 ADD SWAP2 POP PUSH1 0x20 DUP6 ADD SWAP5 POP PUSH1 0x20 DUP2 ADD SWAP1 POP PUSH2 0x697 JUMP JUMPDEST DUP7 DUP4 LT ISZERO PUSH2 0x6D9 JUMPI DUP5 DUP10 ADD MLOAD PUSH2 0x6D5 PUSH1 0x1F DUP10 AND DUP3 PUSH2 0x5E8 JUMP JUMPDEST DUP4 SSTORE POP JUMPDEST PUSH1 0x1 PUSH1 0x2 DUP9 MUL ADD DUP9 SSTORE POP POP POP JUMPDEST POP POP POP POP POP POP JUMP INVALID LOG2 PUSH5 0x6970667358 0x22 SLT KECCAK256 XOR 0x49 DUP9 0xC5 PUSH21 0x7063B34C807EEE31DF9CCFD3C342353DD702D635F8 SGT PUSH2 0xD92E 0xD8 GASLIMIT PUSH5 0x736F6C6343 STOP ADDMOD OR STOP CALLER "
				},
				"gasEstimates": {
					"creation": {
						"codeDepositCost": "365600",
						"executionCost": "403",
						"totalCost": "366003"
					},
					"external": {
						"STRING_SLOT()": "347",
						"getStringSlot()": "infinite",
						"setStringSlot(string)": "infinite"
					}
				},
				"methodIdentifiers": {
					"STRING_SLOT()": "fc7dd5a5",
					"getStringSlot()": "f53bbf44",
					"setStringSlot(string)": "4ef1d9cf"
				}
			},
			"storageLayout": {
				"storage": [],
				"types": null
			},
			"userdoc": {
				"kind": "user",
				"methods": {},
				"version": 1
			}
		}
	}
}