{
	"contracts/base/StorageSlot.sol": {
		"TestStringSlot": {
			"abi": [
				{
					"inputs": [],
					"name": "STRING_SLOT",
					"outputs": [
						{
							"internalType": "bytes32",
							"name": "",
							"type": "bytes32"
						}
					],
					"stateMutability": "view",
					"type": "function"
				},
				{
					"inputs": [],
					"name": "getStringSlot",
					"outputs": [
						{
							"internalType": "string",
							"name": "",
							"type": "string"
						}
					],
					"stateMutability": "view",
					"type": "function"
				},
				{
					"inputs": [
						{
							"internalType": "string",
							"name": "newValue",
							"type": "string"
						}
					],
					"name": "setStringSlot",
					"outputs": [],
					"stateMutability": "nonpayable",
					"type": "function"
				}
			],
			"devdoc": {
				"kind": "dev",
				"methods": {},
				"version": 1
			},
			"evm": {
				"assembly": "    /* \"contracts/base/StorageSlot.sol\":350:726  contract TestStringSlot {\r... */\n  mstore(0x40, 0x80)\n  callvalue\n  dup1\n  iszero\n  tag_1\n  jumpi\n  0x00\n  dup1\n  revert\ntag_1:\n  pop\n  dataSize(sub_0)\n  dup1\n  dataOffset(sub_0)\n  0x00\n  codecopy\n  0x00\n  return\nstop\n\nsub_0: assembly {\n        /* \"contracts/base/StorageSlot.sol\":350:726  contract TestStringSlot {\r... */\n      mstore(0x40, 0x80)\n      callvalue\n      dup1\n      iszero\n      tag_1\n      jumpi\n      0x00\n      dup1\n      revert\n    tag_1:\n      pop\n      jumpi(tag_2, lt(calldatasize, 0x04))\n      shr(0xe0, calldataload(0x00))\n      dup1\n      0x4ef1d9cf\n      eq\n      tag_3\n      jumpi\n      dup1\n      0xf53bbf44\n      eq\n      tag_4\n      jumpi\n      dup1\n      0xfc7dd5a5\n      eq\n      tag_5\n      jumpi\n    tag_2:\n      0x00\n      dup1\n      revert\n        /* \"contracts/base/StorageSlot.sol\":457:585  function setStringSlot(string memory newValue) public {\r... */\n    tag_3:\n      tag_6\n      0x04\n      dup1\n      calldatasize\n      sub\n      dup2\n      add\n      swap1\n      tag_7\n      swap2\n      swap1\n      tag_8\n      jump\t// in\n    tag_7:\n      tag_9\n      jump\t// in\n    tag_6:\n      stop\n        /* \"contracts/base/StorageSlot.sol\":593:723  function getStringSlot() public view returns(string memory) {\r... */\n    tag_4:\n      tag_10\n      tag_11\n      jump\t// in\n    tag_10:\n      mload(0x40)\n      tag_12\n      swap2\n      swap1\n      tag_13\n      jump\t// in\n    tag_12:\n      mload(0x40)\n      dup1\n      swap2\n      sub\n      swap1\n      return\n        /* \"contracts/base/StorageSlot.sol\":381:448  bytes32 public constant STRING_SLOT = keccak256(\"test.string.slot\") */\n    tag_5:\n      tag_14\n      tag_15\n      jump\t// in\n    tag_14:\n      mload(0x40)\n      tag_16\n      swap2\n      swap1\n      tag_17\n      jump\t// in\n    tag_16:\n      mload(0x40)\n      dup1\n      swap2\n      sub\n      swap1\n      return\n        /* \"contracts/base/StorageSlot.sol\":457:585  function setStringSlot(string memory newValue) public {\r... */\n    tag_9:\n        /* \"contracts/base/StorageSlot.sol\":569:577  newValue */\n      dup1\n        /* \"contracts/base/StorageSlot.sol\":522:560  StorageSlot.getStringSlot(STRING_SLOT) */\n      tag_19\n        /* \"contracts/base/StorageSlot.sol\":419:448  keccak256(\"test.string.slot\") */\n      0xca34568964cada20cc6c6a39d80bef16517d7d2abcb0548de9c00c3498ea581f\n        /* \"contracts/base/StorageSlot.sol\":522:547  StorageSlot.getStringSlot */\n      tag_20\n        /* \"contracts/base/StorageSlot.sol\":522:560  StorageSlot.getStringSlot(STRING_SLOT) */\n      jump\t// in\n    tag_19:\n        /* \"contracts/base/StorageSlot.sol\":522:566  StorageSlot.getStringSlot(STRING_SLOT).value */\n      0x00\n      add\n        /* \"contracts/base/StorageSlot.sol\":522:577  StorageSlot.getStringSlot(STRING_SLOT).value = newValue */\n      swap1\n      dup1\n      mload\n      swap1\n      0x20\n      add\n      swap1\n      tag_21\n      swap3\n      swap2\n      swap1\n      tag_22\n      jump\t// in\n    tag_21:\n      pop\n        /* \"contracts/base/StorageSlot.sol\":457:585  function setStringSlot(string memory newValue) public {\r... */\n      pop\n      jump\t// out\n        /* \"contracts/base/StorageSlot.sol\":593:723  function getStringSlot() public view returns(string memory) {\r... */\n    tag_11:\n        /* \"contracts/base/StorageSlot.sol\":638:651  string memory */\n      0x60\n        /* \"contracts/base/StorageSlot.sol\":671:709  StorageSlot.getStringSlot(STRING_SLOT) */\n      tag_24\n        /* \"contracts/base/StorageSlot.sol\":419:448  keccak256(\"test.string.slot\") */\n      0xca34568964cada20cc6c6a39d80bef16517d7d2abcb0548de9c00c3498ea581f\n        /* \"contracts/base/StorageSlot.sol\":671:696  StorageSlot.getStringSlot */\n      tag_20\n        /* \"contracts/base/StorageSlot.sol\":671:709  StorageSlot.getStringSlot(STRING_SLOT) */\n      jump\t// in\n    tag_24:\n        /* \"contracts/base/StorageSlot.sol\":671:715  StorageSlot.getStringSlot(STRING_SLOT).value */\n      0x00\n      add\n        /* \"contracts/base/StorageSlot.sol\":664:715  return StorageSlot.getStringSlot(STRING_SLOT).value */\n      dup1\n      sload\n      tag_25\n      swap1\n      tag_26\n      jump\t// in\n    tag_25:\n      dup1\n      0x1f\n      add\n      0x20\n      dup1\n      swap2\n      div\n      mul\n      0x20\n      add\n      mload(0x40)\n      swap1\n      dup2\n      add\n      0x40\n      mstore\n      dup1\n      swap3\n      swap2\n      swap1\n      dup2\n      dup2\n      mstore\n      0x20\n      add\n      dup3\n      dup1\n      sload\n      tag_27\n      swap1\n      tag_26\n      jump\t// in\n    tag_27:\n      dup1\n      iszero\n      tag_28\n      jumpi\n      dup1\n      0x1f\n      lt\n      tag_29\n      jumpi\n      0x0100\n      dup1\n      dup4\n      sload\n      div\n      mul\n      dup4\n      mstore\n      swap2\n      0x20\n      add\n      swap2\n      jump(tag_28)\n    tag_29:\n      dup3\n      add\n      swap2\n      swap1\n      0x00\n      mstore\n      keccak256(0x00, 0x20)\n      swap1\n    tag_30:\n      dup2\n      sload\n      dup2\n      mstore\n      swap1\n      0x01\n      add\n      swap1\n      0x20\n      add\n      dup1\n      dup4\n      gt\n      tag_30\n      jumpi\n      dup3\n      swap1\n      sub\n      0x1f\n      and\n      dup3\n      add\n      swap2\n    tag_28:\n      pop\n      pop\n      pop\n      pop\n      pop\n      swap1\n      pop\n        /* \"contracts/base/StorageSlot.sol\":593:723  function getStringSlot() public view returns(string memory) {\r... */\n      swap1\n      jump\t// out\n        /* \"contracts/base/StorageSlot.sol\":381:448  bytes32 public constant STRING_SLOT = keccak256(\"test.string.slot\") */\n    tag_15:\n        /* \"contracts/base/StorageSlot.sol\":419:448  keccak256(\"test.string.slot\") */\n      0xca34568964cada20cc6c6a39d80bef16517d7d2abcb0548de9c00c3498ea581f\n        /* \"contracts/base/StorageSlot.sol\":381:448  bytes32 public constant STRING_SLOT = keccak256(\"test.string.slot\") */\n      dup2\n      jump\t// out\n        /* \"contracts/base/StorageSlot.sol\":179:341  function getStringSlot(bytes32 slot) internal pure  returns (StringSlot storage s) {\r... */\n    tag_20:\n        /* \"contracts/base/StorageSlot.sol\":240:260  StringSlot storage s */\n      0x00\n        /* \"contracts/base/StorageSlot.sol\":309:313  slot */\n      dup2\n        /* \"contracts/base/StorageSlot.sol\":299:313  s.slot := slot */\n      swap1\n      pop\n        /* \"contracts/base/StorageSlot.sol\":284:324  {\r... */\n      swap2\n      swap1\n      pop\n      jump\t// out\n    tag_22:\n      dup3\n      dup1\n      sload\n      tag_32\n      swap1\n      tag_26\n      jump\t// in\n    tag_32:\n      swap1\n      0x00\n      mstore\n      keccak256(0x00, 0x20)\n      swap1\n      0x1f\n      add\n      0x20\n      swap1\n      div\n      dup2\n      add\n      swap3\n      dup3\n      tag_34\n      jumpi\n      0x00\n      dup6\n      sstore\n      jump(tag_33)\n    tag_34:\n      dup3\n      0x1f\n      lt\n      tag_35\n      jumpi\n      dup1\n      mload\n      not(0xff)\n      and\n      dup4\n      dup1\n      add\n      or\n      dup6\n      sstore\n      jump(tag_33)\n    tag_35:\n      dup3\n      dup1\n      add\n      0x01\n      add\n      dup6\n      sstore\n      dup3\n      iszero\n      tag_33\n      jumpi\n      swap2\n      dup3\n      add\n    tag_36:\n      dup3\n      dup2\n      gt\n      iszero\n      tag_37\n      jumpi\n      dup3\n      mload\n      dup3\n      sstore\n      swap2\n      0x20\n      add\n      swap2\n      swap1\n      0x01\n      add\n      swap1\n      jump(tag_36)\n    tag_37:\n    tag_33:\n      pop\n      swap1\n      pop\n      tag_38\n      swap2\n      swap1\n      tag_39\n      jump\t// in\n    tag_38:\n      pop\n      swap1\n      jump\t// out\n    tag_39:\n    tag_40:\n      dup1\n      dup3\n      gt\n      iszero\n      tag_41\n      jumpi\n      0x00\n      dup2\n      0x00\n      swap1\n      sstore\n      pop\n      0x01\n      add\n      jump(tag_40)\n    tag_41:\n      pop\n      swap1\n      jump\t// out\n        /* \"#utility.yul\":7:352   */\n    tag_43:\n        /* \"#utility.yul\":85:90   */\n      0x00\n        /* \"#utility.yul\":110:176   */\n      tag_45\n        /* \"#utility.yul\":126:175   */\n      tag_46\n        /* \"#utility.yul\":168:174   */\n      dup5\n        /* \"#utility.yul\":126:175   */\n      tag_47\n      jump\t// in\n    tag_46:\n        /* \"#utility.yul\":110:176   */\n      tag_48\n      jump\t// in\n    tag_45:\n        /* \"#utility.yul\":101:176   */\n      swap1\n      pop\n        /* \"#utility.yul\":199:205   */\n      dup3\n        /* \"#utility.yul\":192:197   */\n      dup2\n        /* \"#utility.yul\":185:206   */\n      mstore\n        /* \"#utility.yul\":237:241   */\n      0x20\n        /* \"#utility.yul\":230:235   */\n      dup2\n        /* \"#utility.yul\":226:242   */\n      add\n        /* \"#utility.yul\":275:278   */\n      dup5\n        /* \"#utility.yul\":266:272   */\n      dup5\n        /* \"#utility.yul\":261:264   */\n      dup5\n        /* \"#utility.yul\":257:273   */\n      add\n        /* \"#utility.yul\":254:279   */\n      gt\n        /* \"#utility.yul\":251:253   */\n      iszero\n      tag_49\n      jumpi\n        /* \"#utility.yul\":292:293   */\n      0x00\n        /* \"#utility.yul\":289:290   */\n      dup1\n        /* \"#utility.yul\":282:294   */\n      revert\n        /* \"#utility.yul\":251:253   */\n    tag_49:\n        /* \"#utility.yul\":305:346   */\n      tag_50\n        /* \"#utility.yul\":339:345   */\n      dup5\n        /* \"#utility.yul\":334:337   */\n      dup3\n        /* \"#utility.yul\":329:332   */\n      dup6\n        /* \"#utility.yul\":305:346   */\n      tag_51\n      jump\t// in\n    tag_50:\n        /* \"#utility.yul\":91:352   */\n      pop\n      swap4\n      swap3\n      pop\n      pop\n      pop\n      jump\t// out\n        /* \"#utility.yul\":372:645   */\n    tag_52:\n        /* \"#utility.yul\":428:433   */\n      0x00\n        /* \"#utility.yul\":477:480   */\n      dup3\n        /* \"#utility.yul\":470:474   */\n      0x1f\n        /* \"#utility.yul\":462:468   */\n      dup4\n        /* \"#utility.yul\":458:475   */\n      add\n        /* \"#utility.yul\":454:481   */\n      slt\n        /* \"#utility.yul\":444:446   */\n      tag_54\n      jumpi\n        /* \"#utility.yul\":495:496   */\n      0x00\n        /* \"#utility.yul\":492:493   */\n      dup1\n        /* \"#utility.yul\":485:497   */\n      revert\n        /* \"#utility.yul\":444:446   */\n    tag_54:\n        /* \"#utility.yul\":535:541   */\n      dup2\n        /* \"#utility.yul\":522:542   */\n      calldataload\n        /* \"#utility.yul\":560:639   */\n      tag_55\n        /* \"#utility.yul\":635:638   */\n      dup5\n        /* \"#utility.yul\":627:633   */\n      dup3\n        /* \"#utility.yul\":620:624   */\n      0x20\n        /* \"#utility.yul\":612:618   */\n      dup7\n        /* \"#utility.yul\":608:625   */\n      add\n        /* \"#utility.yul\":560:639   */\n      tag_43\n      jump\t// in\n    tag_55:\n        /* \"#utility.yul\":551:639   */\n      swap2\n      pop\n        /* \"#utility.yul\":434:645   */\n      pop\n      swap3\n      swap2\n      pop\n      pop\n      jump\t// out\n        /* \"#utility.yul\":651:1026   */\n    tag_8:\n        /* \"#utility.yul\":720:726   */\n      0x00\n        /* \"#utility.yul\":769:771   */\n      0x20\n        /* \"#utility.yul\":757:766   */\n      dup3\n        /* \"#utility.yul\":748:755   */\n      dup5\n        /* \"#utility.yul\":744:767   */\n      sub\n        /* \"#utility.yul\":740:772   */\n      slt\n        /* \"#utility.yul\":737:739   */\n      iszero\n      tag_57\n      jumpi\n        /* \"#utility.yul\":785:786   */\n      0x00\n        /* \"#utility.yul\":782:783   */\n      dup1\n        /* \"#utility.yul\":775:787   */\n      revert\n        /* \"#utility.yul\":737:739   */\n    tag_57:\n        /* \"#utility.yul\":856:857   */\n      0x00\n        /* \"#utility.yul\":845:854   */\n      dup3\n        /* \"#utility.yul\":841:858   */\n      add\n        /* \"#utility.yul\":828:859   */\n      calldataload\n        /* \"#utility.yul\":886:904   */\n      0xffffffffffffffff\n        /* \"#utility.yul\":878:884   */\n      dup2\n        /* \"#utility.yul\":875:905   */\n      gt\n        /* \"#utility.yul\":872:874   */\n      iszero\n      tag_58\n      jumpi\n        /* \"#utility.yul\":918:919   */\n      0x00\n        /* \"#utility.yul\":915:916   */\n      dup1\n        /* \"#utility.yul\":908:920   */\n      revert\n        /* \"#utility.yul\":872:874   */\n    tag_58:\n        /* \"#utility.yul\":946:1009   */\n      tag_59\n        /* \"#utility.yul\":1001:1008   */\n      dup5\n        /* \"#utility.yul\":992:998   */\n      dup3\n        /* \"#utility.yul\":981:990   */\n      dup6\n        /* \"#utility.yul\":977:999   */\n      add\n        /* \"#utility.yul\":946:1009   */\n      tag_52\n      jump\t// in\n    tag_59:\n        /* \"#utility.yul\":936:1009   */\n      swap2\n      pop\n        /* \"#utility.yul\":799:1019   */\n      pop\n        /* \"#utility.yul\":727:1026   */\n      swap3\n      swap2\n      pop\n      pop\n      jump\t// out\n        /* \"#utility.yul\":1032:1150   */\n    tag_60:\n        /* \"#utility.yul\":1119:1143   */\n      tag_62\n        /* \"#utility.yul\":1137:1142   */\n      dup2\n        /* \"#utility.yul\":1119:1143   */\n      tag_63\n      jump\t// in\n    tag_62:\n        /* \"#utility.yul\":1114:1117   */\n      dup3\n        /* \"#utility.yul\":1107:1144   */\n      mstore\n        /* \"#utility.yul\":1097:1150   */\n      pop\n      pop\n      jump\t// out\n        /* \"#utility.yul\":1156:1520   */\n    tag_64:\n        /* \"#utility.yul\":1244:1247   */\n      0x00\n        /* \"#utility.yul\":1272:1311   */\n      tag_66\n        /* \"#utility.yul\":1305:1310   */\n      dup3\n        /* \"#utility.yul\":1272:1311   */\n      tag_67\n      jump\t// in\n    tag_66:\n        /* \"#utility.yul\":1327:1398   */\n      tag_68\n        /* \"#utility.yul\":1391:1397   */\n      dup2\n        /* \"#utility.yul\":1386:1389   */\n      dup6\n        /* \"#utility.yul\":1327:1398   */\n      tag_69\n      jump\t// in\n    tag_68:\n        /* \"#utility.yul\":1320:1398   */\n      swap4\n      pop\n        /* \"#utility.yul\":1407:1459   */\n      tag_70\n        /* \"#utility.yul\":1452:1458   */\n      dup2\n        /* \"#utility.yul\":1447:1450   */\n      dup6\n        /* \"#utility.yul\":1440:1444   */\n      0x20\n        /* \"#utility.yul\":1433:1438   */\n      dup7\n        /* \"#utility.yul\":1429:1445   */\n      add\n        /* \"#utility.yul\":1407:1459   */\n      tag_71\n      jump\t// in\n    tag_70:\n        /* \"#utility.yul\":1484:1513   */\n      tag_72\n        /* \"#utility.yul\":1506:1512   */\n      dup2\n        /* \"#utility.yul\":1484:1513   */\n      tag_73\n      jump\t// in\n    tag_72:\n        /* \"#utility.yul\":1479:1482   */\n      dup5\n        /* \"#utility.yul\":1475:1514   */\n      add\n        /* \"#utility.yul\":1468:1514   */\n      swap2\n      pop\n        /* \"#utility.yul\":1248:1520   */\n      pop\n      swap3\n      swap2\n      pop\n      pop\n      jump\t// out\n        /* \"#utility.yul\":1526:1748   */\n    tag_17:\n        /* \"#utility.yul\":1619:1623   */\n      0x00\n        /* \"#utility.yul\":1657:1659   */\n      0x20\n        /* \"#utility.yul\":1646:1655   */\n      dup3\n        /* \"#utility.yul\":1642:1660   */\n      add\n        /* \"#utility.yul\":1634:1660   */\n      swap1\n      pop\n        /* \"#utility.yul\":1670:1741   */\n      tag_75\n        /* \"#utility.yul\":1738:1739   */\n      0x00\n        /* \"#utility.yul\":1727:1736   */\n      dup4\n        /* \"#utility.yul\":1723:1740   */\n      add\n        /* \"#utility.yul\":1714:1720   */\n      dup5\n        /* \"#utility.yul\":1670:1741   */\n      tag_60\n      jump\t// in\n    tag_75:\n        /* \"#utility.yul\":1624:1748   */\n      swap3\n      swap2\n      pop\n      pop\n      jump\t// out\n        /* \"#utility.yul\":1754:2067   */\n    tag_13:\n        /* \"#utility.yul\":1867:1871   */\n      0x00\n        /* \"#utility.yul\":1905:1907   */\n      0x20\n        /* \"#utility.yul\":1894:1903   */\n      dup3\n        /* \"#utility.yul\":1890:1908   */\n      add\n        /* \"#utility.yul\":1882:1908   */\n      swap1\n      pop\n        /* \"#utility.yul\":1954:1963   */\n      dup2\n        /* \"#utility.yul\":1948:1952   */\n      dup2\n        /* \"#utility.yul\":1944:1964   */\n      sub\n        /* \"#utility.yul\":1940:1941   */\n      0x00\n        /* \"#utility.yul\":1929:1938   */\n      dup4\n        /* \"#utility.yul\":1925:1942   */\n      add\n        /* \"#utility.yul\":1918:1965   */\n      mstore\n        /* \"#utility.yul\":1982:2060   */\n      tag_77\n        /* \"#utility.yul\":2055:2059   */\n      dup2\n        /* \"#utility.yul\":2046:2052   */\n      dup5\n        /* \"#utility.yul\":1982:2060   */\n      tag_64\n      jump\t// in\n    tag_77:\n        /* \"#utility.yul\":1974:2060   */\n      swap1\n      pop\n        /* \"#utility.yul\":1872:2067   */\n      swap3\n      swap2\n      pop\n      pop\n      jump\t// out\n        /* \"#utility.yul\":2073:2202   */\n    tag_48:\n        /* \"#utility.yul\":2107:2113   */\n      0x00\n        /* \"#utility.yul\":2134:2154   */\n      tag_79\n      tag_80\n      jump\t// in\n    tag_79:\n        /* \"#utility.yul\":2124:2154   */\n      swap1\n      pop\n        /* \"#utility.yul\":2163:2196   */\n      tag_81\n        /* \"#utility.yul\":2191:2195   */\n      dup3\n        /* \"#utility.yul\":2183:2189   */\n      dup3\n        /* \"#utility.yul\":2163:2196   */\n      tag_82\n      jump\t// in\n    tag_81:\n        /* \"#utility.yul\":2114:2202   */\n      swap2\n      swap1\n      pop\n      jump\t// out\n        /* \"#utility.yul\":2208:2283   */\n    tag_80:\n        /* \"#utility.yul\":2241:2247   */\n      0x00\n        /* \"#utility.yul\":2274:2276   */\n      0x40\n        /* \"#utility.yul\":2268:2277   */\n      mload\n        /* \"#utility.yul\":2258:2277   */\n      swap1\n      pop\n        /* \"#utility.yul\":2248:2283   */\n      swap1\n      jump\t// out\n        /* \"#utility.yul\":2289:2597   */\n    tag_47:\n        /* \"#utility.yul\":2351:2355   */\n      0x00\n        /* \"#utility.yul\":2441:2459   */\n      0xffffffffffffffff\n        /* \"#utility.yul\":2433:2439   */\n      dup3\n        /* \"#utility.yul\":2430:2460   */\n      gt\n        /* \"#utility.yul\":2427:2429   */\n      iszero\n      tag_85\n      jumpi\n        /* \"#utility.yul\":2463:2481   */\n      tag_86\n      tag_87\n      jump\t// in\n    tag_86:\n        /* \"#utility.yul\":2427:2429   */\n    tag_85:\n        /* \"#utility.yul\":2501:2530   */\n      tag_88\n        /* \"#utility.yul\":2523:2529   */\n      dup3\n        /* \"#utility.yul\":2501:2530   */\n      tag_73\n      jump\t// in\n    tag_88:\n        /* \"#utility.yul\":2493:2530   */\n      swap1\n      pop\n        /* \"#utility.yul\":2585:2589   */\n      0x20\n        /* \"#utility.yul\":2579:2583   */\n      dup2\n        /* \"#utility.yul\":2575:2590   */\n      add\n        /* \"#utility.yul\":2567:2590   */\n      swap1\n      pop\n        /* \"#utility.yul\":2356:2597   */\n      swap2\n      swap1\n      pop\n      jump\t// out\n        /* \"#utility.yul\":2603:2702   */\n    tag_67:\n        /* \"#utility.yul\":2655:2661   */\n      0x00\n        /* \"#utility.yul\":2689:2694   */\n      dup2\n        /* \"#utility.yul\":2683:2695   */\n      mload\n        /* \"#utility.yul\":2673:2695   */\n      swap1\n      pop\n        /* \"#utility.yul\":2662:2702   */\n      swap2\n      swap1\n      pop\n      jump\t// out\n        /* \"#utility.yul\":2708:2877   */\n    tag_69:\n        /* \"#utility.yul\":2792:2803   */\n      0x00\n        /* \"#utility.yul\":2826:2832   */\n      dup3\n        /* \"#utility.yul\":2821:2824   */\n      dup3\n        /* \"#utility.yul\":2814:2833   */\n      mstore\n        /* \"#utility.yul\":2866:2870   */\n      0x20\n        /* \"#utility.yul\":2861:2864   */\n      dup3\n        /* \"#utility.yul\":2857:2871   */\n      add\n        /* \"#utility.yul\":2842:2871   */\n      swap1\n      pop\n        /* \"#utility.yul\":2804:2877   */\n      swap3\n      swap2\n      pop\n      pop\n      jump\t// out\n        /* \"#utility.yul\":2883:2960   */\n    tag_63:\n        /* \"#utility.yul\":2920:2927   */\n      0x00\n        /* \"#utility.yul\":2949:2954   */\n      dup2\n        /* \"#utility.yul\":2938:2954   */\n      swap1\n      pop\n        /* \"#utility.yul\":2928:2960   */\n      swap2\n      swap1\n      pop\n      jump\t// out\n        /* \"#utility.yul\":2966:3120   */\n    tag_51:\n        /* \"#utility.yul\":3050:3056   */\n      dup3\n        /* \"#utility.yul\":3045:3048   */\n      dup2\n        /* \"#utility.yul\":3040:3043   */\n      dup4\n        /* \"#utility.yul\":3027:3057   */\n      calldatacopy\n        /* \"#utility.yul\":3112:3113   */\n      0x00\n        /* \"#utility.yul\":3103:3109   */\n      dup4\n        /* \"#utility.yul\":3098:3101   */\n      dup4\n        /* \"#utility.yul\":3094:3110   */\n      add\n        /* \"#utility.yul\":3087:3114   */\n      mstore\n        /* \"#utility.yul\":3017:3120   */\n      pop\n      pop\n      pop\n      jump\t// out\n        /* \"#utility.yul\":3126:3433   */\n    tag_71:\n        /* \"#utility.yul\":3194:3195   */\n      0x00\n        /* \"#utility.yul\":3204:3317   */\n    tag_94:\n        /* \"#utility.yul\":3218:3224   */\n      dup4\n        /* \"#utility.yul\":3215:3216   */\n      dup2\n        /* \"#utility.yul\":3212:3225   */\n      lt\n        /* \"#utility.yul\":3204:3317   */\n      iszero\n      tag_96\n      jumpi\n        /* \"#utility.yul\":3303:3304   */\n      dup1\n        /* \"#utility.yul\":3298:3301   */\n      dup3\n        /* \"#utility.yul\":3294:3305   */\n      add\n        /* \"#utility.yul\":3288:3306   */\n      mload\n        /* \"#utility.yul\":3284:3285   */\n      dup2\n        /* \"#utility.yul\":3279:3282   */\n      dup5\n        /* \"#utility.yul\":3275:3286   */\n      add\n        /* \"#utility.yul\":3268:3307   */\n      mstore\n        /* \"#utility.yul\":3240:3242   */\n      0x20\n        /* \"#utility.yul\":3237:3238   */\n      dup2\n        /* \"#utility.yul\":3233:3243   */\n      add\n        /* \"#utility.yul\":3228:3243   */\n      swap1\n      pop\n        /* \"#utility.yul\":3204:3317   */\n      jump(tag_94)\n    tag_96:\n        /* \"#utility.yul\":3335:3341   */\n      dup4\n        /* \"#utility.yul\":3332:3333   */\n      dup2\n        /* \"#utility.yul\":3329:3342   */\n      gt\n        /* \"#utility.yul\":3326:3328   */\n      iszero\n      tag_97\n      jumpi\n        /* \"#utility.yul\":3415:3416   */\n      0x00\n        /* \"#utility.yul\":3406:3412   */\n      dup5\n        /* \"#utility.yul\":3401:3404   */\n      dup5\n        /* \"#utility.yul\":3397:3413   */\n      add\n        /* \"#utility.yul\":3390:3417   */\n      mstore\n        /* \"#utility.yul\":3326:3328   */\n    tag_97:\n        /* \"#utility.yul\":3175:3433   */\n      pop\n      pop\n      pop\n      pop\n      jump\t// out\n        /* \"#utility.yul\":3439:3759   */\n    tag_26:\n        /* \"#utility.yul\":3483:3489   */\n      0x00\n        /* \"#utility.yul\":3520:3521   */\n      0x02\n        /* \"#utility.yul\":3514:3518   */\n      dup3\n        /* \"#utility.yul\":3510:3522   */\n      div\n        /* \"#utility.yul\":3500:3522   */\n      swap1\n      pop\n        /* \"#utility.yul\":3567:3568   */\n      0x01\n        /* \"#utility.yul\":3561:3565   */\n      dup3\n        /* \"#utility.yul\":3557:3569   */\n      and\n        /* \"#utility.yul\":3588:3606   */\n      dup1\n        /* \"#utility.yul\":3578:3580   */\n      tag_99\n      jumpi\n        /* \"#utility.yul\":3644:3648   */\n      0x7f\n        /* \"#utility.yul\":3636:3642   */\n      dup3\n        /* \"#utility.yul\":3632:3649   */\n      and\n        /* \"#utility.yul\":3622:3649   */\n      swap2\n      pop\n        /* \"#utility.yul\":3578:3580   */\n    tag_99:\n        /* \"#utility.yul\":3706:3708   */\n      0x20\n        /* \"#utility.yul\":3698:3704   */\n      dup3\n        /* \"#utility.yul\":3695:3709   */\n      lt\n        /* \"#utility.yul\":3675:3693   */\n      dup2\n        /* \"#utility.yul\":3672:3710   */\n      eq\n        /* \"#utility.yul\":3669:3671   */\n      iszero\n      tag_100\n      jumpi\n        /* \"#utility.yul\":3725:3743   */\n      tag_101\n      tag_102\n      jump\t// in\n    tag_101:\n        /* \"#utility.yul\":3669:3671   */\n    tag_100:\n        /* \"#utility.yul\":3490:3759   */\n      pop\n      swap2\n      swap1\n      pop\n      jump\t// out\n        /* \"#utility.yul\":3765:4046   */\n    tag_82:\n        /* \"#utility.yul\":3848:3875   */\n      tag_104\n        /* \"#utility.yul\":3870:3874   */\n      dup3\n        /* \"#utility.yul\":3848:3875   */\n      tag_73\n      jump\t// in\n    tag_104:\n        /* \"#utility.yul\":3840:3846   */\n      dup2\n        /* \"#utility.yul\":3836:3876   */\n      add\n        /* \"#utility.yul\":3978:3984   */\n      dup2\n        /* \"#utility.yul\":3966:3976   */\n      dup2\n        /* \"#utility.yul\":3963:3985   */\n      lt\n        /* \"#utility.yul\":3942:3960   */\n      0xffffffffffffffff\n        /* \"#utility.yul\":3930:3940   */\n      dup3\n        /* \"#utility.yul\":3927:3961   */\n      gt\n        /* \"#utility.yul\":3924:3986   */\n      or\n        /* \"#utility.yul\":3921:3923   */\n      iszero\n      tag_105\n      jumpi\n        /* \"#utility.yul\":3989:4007   */\n      tag_106\n      tag_87\n      jump\t// in\n    tag_106:\n        /* \"#utility.yul\":3921:3923   */\n    tag_105:\n        /* \"#utility.yul\":4029:4039   */\n      dup1\n        /* \"#utility.yul\":4025:4027   */\n      0x40\n        /* \"#utility.yul\":4018:4040   */\n      mstore\n        /* \"#utility.yul\":3808:4046   */\n      pop\n      pop\n      pop\n      jump\t// out\n        /* \"#utility.yul\":4052:4232   */\n    tag_102:\n        /* \"#utility.yul\":4100:4177   */\n      0x4e487b7100000000000000000000000000000000000000000000000000000000\n        /* \"#utility.yul\":4097:4098   */\n      0x00\n        /* \"#utility.yul\":4090:4178   */\n      mstore\n        /* \"#utility.yul\":4197:4201   */\n      0x22\n        /* \"#utility.yul\":4194:4195   */\n      0x04\n        /* \"#utility.yul\":4187:4202   */\n      mstore\n        /* \"#utility.yul\":4221:4225   */\n      0x24\n        /* \"#utility.yul\":4218:4219   */\n      0x00\n        /* \"#utility.yul\":4211:4226   */\n      revert\n        /* \"#utility.yul\":4238:4418   */\n    tag_87:\n        /* \"#utility.yul\":4286:4363   */\n      0x4e487b7100000000000000000000000000000000000000000000000000000000\n        /* \"#utility.yul\":4283:4284   */\n      0x00\n        /* \"#utility.yul\":4276:4364   */\n      mstore\n        /* \"#utility.yul\":4383:4387   */\n      0x41\n        /* \"#utility.yul\":4380:4381   */\n      0x04\n        /* \"#utility.yul\":4373:4388   */\n      mstore\n        /* \"#utility.yul\":4407:4411   */\n      0x24\n        /* \"#utility.yul\":4404:4405   */\n      0x00\n        /* \"#utility.yul\":4397:4412   */\n      revert\n        /* \"#utility.yul\":4424:4526   */\n    tag_73:\n        /* \"#utility.yul\":4465:4471   */\n      0x00\n        /* \"#utility.yul\":4516:4518   */\n      0x1f\n        /* \"#utility.yul\":4512:4519   */\n      not\n        /* \"#utility.yul\":4507:4509   */\n      0x1f\n        /* \"#utility.yul\":4500:4505   */\n      dup4\n        /* \"#utility.yul\":4496:4510   */\n      add\n        /* \"#utility.yul\":4492:4520   */\n      and\n        /* \"#utility.yul\":4482:4520   */\n      swap1\n      pop\n        /* \"#utility.yul\":4472:4526   */\n      swap2\n      swap1\n      pop\n      jump\t// out\n\n    auxdata: 0xa26469706673582212200764abee94caf49ec935d82dc203a122401d548d0018dfe295949fb4be8ea39864736f6c63430008040033\n}\n",
				"bytecode": {
					"linkReferences": {},
					"object": "608060405234801561001057600080fd5b50610563806100206000396000f3fe608060405234801561001057600080fd5b50600436106100415760003560e01c80634ef1d9cf14610046578063f53bbf4414610062578063fc7dd5a514610080575b600080fd5b610060600480360381019061005b91906102d7565b61009e565b005b61006a6100e2565b604051610077919061037b565b60405180910390f35b61008861019e565b6040516100959190610360565b60405180910390f35b806100c87fca34568964cada20cc6c6a39d80bef16517d7d2abcb0548de9c00c3498ea581f6101c2565b60000190805190602001906100de9291906101cc565b5050565b606061010d7fca34568964cada20cc6c6a39d80bef16517d7d2abcb0548de9c00c3498ea581f6101c2565b600001805461011b9061045b565b80601f01602080910402602001604051908101604052809291908181526020018280546101479061045b565b80156101945780601f1061016957610100808354040283529160200191610194565b820191906000526020600020905b81548152906001019060200180831161017757829003601f168201915b5050505050905090565b7fca34568964cada20cc6c6a39d80bef16517d7d2abcb0548de9c00c3498ea581f81565b6000819050919050565b8280546101d89061045b565b90600052602060002090601f0160209004810192826101fa5760008555610241565b82601f1061021357805160ff1916838001178555610241565b82800160010185558215610241579182015b82811115610240578251825591602001919060010190610225565b5b50905061024e9190610252565b5090565b5b8082111561026b576000816000905550600101610253565b5090565b600061028261027d846103c2565b61039d565b90508281526020810184848401111561029a57600080fd5b6102a5848285610419565b509392505050565b600082601f8301126102be57600080fd5b81356102ce84826020860161026f565b91505092915050565b6000602082840312156102e957600080fd5b600082013567ffffffffffffffff81111561030357600080fd5b61030f848285016102ad565b91505092915050565b6103218161040f565b82525050565b6000610332826103f3565b61033c81856103fe565b935061034c818560208601610428565b6103558161051c565b840191505092915050565b60006020820190506103756000830184610318565b92915050565b600060208201905081810360008301526103958184610327565b905092915050565b60006103a76103b8565b90506103b3828261048d565b919050565b6000604051905090565b600067ffffffffffffffff8211156103dd576103dc6104ed565b5b6103e68261051c565b9050602081019050919050565b600081519050919050565b600082825260208201905092915050565b6000819050919050565b82818337600083830152505050565b60005b8381101561044657808201518184015260208101905061042b565b83811115610455576000848401525b50505050565b6000600282049050600182168061047357607f821691505b60208210811415610487576104866104be565b5b50919050565b6104968261051c565b810181811067ffffffffffffffff821117156104b5576104b46104ed565b5b80604052505050565b7f4e487b7100000000000000000000000000000000000000000000000000000000600052602260045260246000fd5b7f4e487b7100000000000000000000000000000000000000000000000000000000600052604160045260246000fd5b6000601f19601f830116905091905056fea26469706673582212200764abee94caf49ec935d82dc203a122401d548d0018dfe295949fb4be8ea39864736f6c63430008040033",
					"opcodes": "PUSH1 0x80 PUSH1 0x40 MSTORE CALLVALUE DUP1 ISZERO PUSH2 0x10 JUMPI PUSH1 0x0 DUP1 REVERT JUMPDEST POP PUSH2 0x563 DUP1 PUSH2 0x20 PUSH1 0x0 CODECOPY PUSH1 0x0 RETURN INVALID PUSH1 0x80 PUSH1 0x40 MSTORE CALLVALUE DUP1 ISZERO PUSH2 0x10 JUMPI PUSH1 0x0 DUP1 REVERT JUMPDEST POP PUSH1 0x4 CALLDATASIZE LT PUSH2 0x41 JUMPI PUSH1 0x0 CALLDATALOAD PUSH1 0xE0 SHR DUP1 PUSH4 0x4EF1D9CF EQ PUSH2 0x46 JUMPI DUP1 PUSH4 0xF53BBF44 EQ PUSH2 0x62 JUMPI DUP1 PUSH4 0xFC7DD5A5 EQ PUSH2 0x80 JUMPI JUMPDEST PUSH1 0x0 DUP1 REVERT JUMPDEST PUSH2 0x60 PUSH1 0x4 DUP1 CALLDATASIZE SUB DUP2 ADD SWAP1 PUSH2 0x5B SWAP2 SWAP1 PUSH2 0x2D7 JUMP JUMPDEST PUSH2 0x9E JUMP JUMPDEST STOP JUMPDEST PUSH2 0x6A PUSH2 0xE2 JUMP JUMPDEST PUSH1 0x40 MLOAD PUSH2 0x77 SWAP2 SWAP1 PUSH2 0x37B JUMP JUMPDEST PUSH1 0x40 MLOAD DUP1 SWAP2 SUB SWAP1 RETURN JUMPDEST PUSH2 0x88 PUSH2 0x19E JUMP JUMPDEST PUSH1 0x40 MLOAD PUSH2 0x95 SWAP2 SWAP1 PUSH2 0x360 JUMP JUMPDEST PUSH1 0x40 MLOAD DUP1 SWAP2 SUB SWAP1 RETURN JUMPDEST DUP1 PUSH2 0xC8 PUSH32 0xCA34568964CADA20CC6C6A39D80BEF16517D7D2ABCB0548DE9C00C3498EA581F PUSH2 0x1C2 JUMP JUMPDEST PUSH1 0x0 ADD SWAP1 DUP1 MLOAD SWAP1 PUSH1 0x20 ADD SWAP1 PUSH2 0xDE SWAP3 SWAP2 SWAP1 PUSH2 0x1CC JUMP JUMPDEST POP POP JUMP JUMPDEST PUSH1 0x60 PUSH2 0x10D PUSH32 0xCA34568964CADA20CC6C6A39D80BEF16517D7D2ABCB0548DE9C00C3498EA581F PUSH2 0x1C2 JUMP JUMPDEST PUSH1 0x0 ADD DUP1 SLOAD PUSH2 0x11B SWAP1 PUSH2 0x45B JUMP JUMPDEST DUP1 PUSH1 0x1F ADD PUSH1 0x20 DUP1 SWAP2 DIV MUL PUSH1 0x20 ADD PUSH1 0x40 MLOAD SWAP1 DUP2 ADD PUSH1 0x40 MSTORE DUP1 SWAP3 SWAP2 SWAP1 DUP2 DUP2 MSTORE PUSH1 0x20 ADD DUP3 DUP1 SLOAD PUSH2 0x147 SWAP1 PUSH2 0x45B JUMP JUMPDEST DUP1 ISZERO PUSH2 0x194 JUMPI DUP1 PUSH1 0x1F LT PUSH2 0x169 JUMPI PUSH2 0x100 DUP1 DUP4 SLOAD DIV MUL DUP4 MSTORE SWAP2 PUSH1 0x20 ADD SWAP2 PUSH2 0x194 JUMP JUMPDEST DUP3 ADD SWAP2 SWAP1 PUSH1 0x0 MSTORE PUSH1 0x20 PUSH1 0x0 KECCAK256 SWAP1 JUMPDEST DUP2 SLOAD DUP2 MSTORE SWAP1 PUSH1 0x1 ADD SWAP1 PUSH1 0x20 ADD DUP1 DUP4 GT PUSH2 0x177 JUMPI DUP3 SWAP1 SUB PUSH1 0x1F AND DUP3 ADD SWAP2 JUMPDEST POP POP POP POP POP SWAP1 POP SWAP1 JUMP JUMPDEST PUSH32 0xCA34568964CADA20CC6C6A39D80BEF16517D7D2ABCB0548DE9C00C3498EA581F DUP2 JUMP JUMPDEST PUSH1 0x0 DUP2 SWAP1 POP SWAP2 SWAP1 POP JUMP JUMPDEST DUP3 DUP1 SLOAD PUSH2 0x1D8 SWAP1 PUSH2 0x45B JUMP JUMPDEST SWAP1 PUSH1 0x0 MSTORE PUSH1 0x20 PUSH1 0x0 KECCAK256 SWAP1 PUSH1 0x1F ADD PUSH1 0x20 SWAP1 DIV DUP2 ADD SWAP3 DUP3 PUSH2 0x1FA JUMPI PUSH1 0x0 DUP6 SSTORE PUSH2 0x241 JUMP JUMPDEST DUP3 PUSH1 0x1F LT PUSH2 0x213 JUMPI DUP1 MLOAD PUSH1 0xFF NOT AND DUP4 DUP1 ADD OR DUP6 SSTORE PUSH2 0x241 JUMP JUMPDEST DUP3 DUP1 ADD PUSH1 0x1 ADD DUP6 SSTORE DUP3 ISZERO PUSH2 0x241 JUMPI SWAP2 DUP3 ADD JUMPDEST DUP3 DUP2 GT ISZERO PUSH2 0x240 JUMPI DUP3 MLOAD DUP3 SSTORE SWAP2 PUSH1 0x20 ADD SWAP2 SWAP1 PUSH1 0x1 ADD SWAP1 PUSH2 0x225 JUMP JUMPDEST JUMPDEST POP SWAP1 POP PUSH2 0x24E SWAP2 SWAP1 PUSH2 0x252 JUMP JUMPDEST POP SWAP1 JUMP JUMPDEST JUMPDEST DUP1 DUP3 GT ISZERO PUSH2 0x26B JUMPI PUSH1 0x0 DUP2 PUSH1 0x0 SWAP1 SSTORE POP PUSH1 0x1 ADD PUSH2 0x253 JUMP JUMPDEST POP SWAP1 JUMP JUMPDEST PUSH1 0x0 PUSH2 0x282 PUSH2 0x27D DUP5 PUSH2 0x3C2 JUMP JUMPDEST PUSH2 0x39D JUMP JUMPDEST SWAP1 POP DUP3 DUP2 MSTORE PUSH1 0x20 DUP2 ADD DUP5 DUP5 DUP5 ADD GT ISZERO PUSH2 0x29A JUMPI PUSH1 0x0 DUP1 REVERT JUMPDEST PUSH2 0x2A5 DUP5 DUP3 DUP6 PUSH2 0x419 JUMP JUMPDEST POP SWAP4 SWAP3 POP POP POP JUMP JUMPDEST PUSH1 0x0 DUP3 PUSH1 0x1F DUP4 ADD SLT PUSH2 0x2BE JUMPI PUSH1 0x0 DUP1 REVERT JUMPDEST DUP2 CALLDATALOAD PUSH2 0x2CE DUP5 DUP3 PUSH1 0x20 DUP7 ADD PUSH2 0x26F JUMP JUMPDEST SWAP2 POP POP SWAP3 SWAP2 POP POP JUMP JUMPDEST PUSH1 0x0 PUSH1 0x20 DUP3 DUP5 SUB SLT ISZERO PUSH2 0x2E9 JUMPI PUSH1 0x0 DUP1 REVERT JUMPDEST PUSH1 0x0 DUP3 ADD CALLDATALOAD PUSH8 0xFFFFFFFFFFFFFFFF DUP2 GT ISZERO PUSH2 0x303 JUMPI PUSH1 0x0 DUP1 REVERT JUMPDEST PUSH2 0x30F DUP5 DUP3 DUP6 ADD PUSH2 0x2AD JUMP JUMPDEST SWAP2 POP POP SWAP3 SWAP2 POP POP JUMP JUMPDEST PUSH2 0x321 DUP2 PUSH2 0x40F JUMP JUMPDEST DUP3 MSTORE POP POP JUMP JUMPDEST PUSH1 0x0 PUSH2 0x332 DUP3 PUSH2 0x3F3 JUMP JUMPDEST PUSH2 0x33C DUP2 DUP6 PUSH2 0x3FE JUMP JUMPDEST SWAP4 POP PUSH2 0x34C DUP2 DUP6 PUSH1 0x20 DUP7 ADD PUSH2 0x428 JUMP JUMPDEST PUSH2 0x355 DUP2 PUSH2 0x51C JUMP JUMPDEST DUP5 ADD SWAP2 POP POP SWAP3 SWAP2 POP POP JUMP JUMPDEST PUSH1 0x0 PUSH1 0x20 DUP3 ADD SWAP1 POP PUSH2 0x375 PUSH1 0x0 DUP4 ADD DUP5 PUSH2 0x318 JUMP JUMPDEST SWAP3 SWAP2 POP POP JUMP JUMPDEST PUSH1 0x0 PUSH1 0x20 DUP3 ADD SWAP1 POP DUP2 DUP2 SUB PUSH1 0x0 DUP4 ADD MSTORE PUSH2 0x395 DUP2 DUP5 PUSH2 0x327 JUMP JUMPDEST SWAP1 POP SWAP3 SWAP2 POP POP JUMP JUMPDEST PUSH1 0x0 PUSH2 0x3A7 PUSH2 0x3B8 JUMP JUMPDEST SWAP1 POP PUSH2 0x3B3 DUP3 DUP3 PUSH2 0x48D JUMP JUMPDEST SWAP2 SWAP1 POP JUMP JUMPDEST PUSH1 0x0 PUSH1 0x40 MLOAD SWAP1 POP SWAP1 JUMP JUMPDEST PUSH1 0x0 PUSH8 0xFFFFFFFFFFFFFFFF DUP3 GT ISZERO PUSH2 0x3DD JUMPI PUSH2 0x3DC PUSH2 0x4ED JUMP JUMPDEST JUMPDEST PUSH2 0x3E6 DUP3 PUSH2 0x51C JUMP JUMPDEST SWAP1 POP PUSH1 0x20 DUP2 ADD SWAP1 POP SWAP2 SWAP1 POP JUMP JUMPDEST PUSH1 0x0 DUP2 MLOAD SWAP1 POP SWAP2 SWAP1 POP JUMP JUMPDEST PUSH1 0x0 DUP3 DUP3 MSTORE PUSH1 0x20 DUP3 ADD SWAP1 POP SWAP3 SWAP2 POP POP JUMP JUMPDEST PUSH1 0x0 DUP2 SWAP1 POP SWAP2 SWAP1 POP JUMP JUMPDEST DUP3 DUP2 DUP4 CALLDATACOPY PUSH1 0x0 DUP4 DUP4 ADD MSTORE POP POP POP JUMP JUMPDEST PUSH1 0x0 JUMPDEST DUP4 DUP2 LT ISZERO PUSH2 0x446 JUMPI DUP1 DUP3 ADD MLOAD DUP2 DUP5 ADD MSTORE PUSH1 0x20 DUP2 ADD SWAP1 POP PUSH2 0x42B JUMP JUMPDEST DUP4 DUP2 GT ISZERO PUSH2 0x455 JUMPI PUSH1 0x0 DUP5 DUP5 ADD MSTORE JUMPDEST POP POP POP POP JUMP JUMPDEST PUSH1 0x0 PUSH1 0x2 DUP3 DIV SWAP1 POP PUSH1 0x1 DUP3 AND DUP1 PUSH2 0x473 JUMPI PUSH1 0x7F DUP3 AND SWAP2 POP JUMPDEST PUSH1 0x20 DUP3 LT DUP2 EQ ISZERO PUSH2 0x487 JUMPI PUSH2 0x486 PUSH2 0x4BE JUMP JUMPDEST JUMPDEST POP SWAP2 SWAP1 POP JUMP JUMPDEST PUSH2 0x496 DUP3 PUSH2 0x51C JUMP JUMPDEST DUP2 ADD DUP2 DUP2 LT PUSH8 0xFFFFFFFFFFFFFFFF DUP3 GT OR ISZERO PUSH2 0x4B5 JUMPI PUSH2 0x4B4 PUSH2 0x4ED JUMP JUMPDEST JUMPDEST DUP1 PUSH1 0x40 MSTORE POP POP POP JUMP JUMPDEST PUSH32 0x4E487B7100000000000000000000000000000000000000000000000000000000 PUSH1 0x0 MSTORE PUSH1 0x22 PUSH1 0x4 MSTORE PUSH1 0x24 PUSH1 0x0 REVERT JUMPDEST PUSH32 0x4E487B7100000000000000000000000000000000000000000000000000000000 PUSH1 0x0 MSTORE PUSH1 0x41 PUSH1 0x4 MSTORE PUSH1 0x24 PUSH1 0x0 REVERT JUMPDEST PUSH1 0x0 PUSH1 0x1F NOT PUSH1 0x1F DUP4 ADD AND SWAP1 POP SWAP2 SWAP1 POP JUMP INVALID LOG2 PUSH5 0x6970667358 0x22 SLT KECCAK256 SMOD PUSH5 0xABEE94CAF4 SWAP15 0xC9 CALLDATALOAD 0xD8 0x2D 0xC2 SUB LOG1 0x22 BLOCKHASH SAR SLOAD DUP14 STOP XOR 0xDF 0xE2 SWAP6 SWAP5 SWAP16 0xB4 0xBE DUP15 LOG3 SWAP9 PUSH5 0x736F6C6343 STOP ADDMOD DIV STOP CALLER "
				},
				"gasEstimates": {
					"creation": {
						"codeDepositCost": "275800",
						"executionCost": "318",
						"totalCost": "276118"
					},
					"external": {
						"STRING_SLOT()": "351",
						"getStringSlot()": "infinite",
						"setStringSlot(string)": "infinite"
					}
				},
				"methodIdentifiers": {
					"STRING_SLOT()": "fc7dd5a5",
					"getStringSlot()": "f53bbf44",
					"setStringSlot(string)": "4ef1d9cf"
				}
			},
			"storageLayout": {
				"storage": [],
				"types": null
			},
			"userdoc": {
				"kind": "user",
				"methods": {},
				"version": 1
			}
		}
	}
}