{
	"contracts/base/Library.sol": {
		"TestLibraries": {
			"abi": [
				{
					"inputs": [
						{
							"internalType": "uint256",
							"name": "",
							"type": "uint256"
						}
					],
					"name": "gArr",
					"outputs": [
						{
							"internalType": "uint256",
							"name": "",
							"type": "uint256"
						}
					],
					"stateMutability": "view",
					"type": "function"
				},
				{
					"inputs": [
						{
							"internalType": "uint256",
							"name": "x",
							"type": "uint256"
						},
						{
							"internalType": "uint256",
							"name": "y",
							"type": "uint256"
						}
					],
					"name": "test1",
					"outputs": [
						{
							"internalType": "uint256",
							"name": "",
							"type": "uint256"
						}
					],
					"stateMutability": "pure",
					"type": "function"
				},
				{
					"inputs": [],
					"name": "test2",
					"outputs": [
						{
							"internalType": "uint256",
							"name": "",
							"type": "uint256"
						}
					],
					"stateMutability": "view",
					"type": "function"
				}
			],
			"devdoc": {
				"kind": "dev",
				"methods": {},
				"version": 1
			},
			"evm": {
				"assembly": "    /* \"contracts/base/Library.sol\":435:737  contract TestLibraries {\r... */\n  mstore(0x40, 0x80)\n    /* \"contracts/base/Library.sol\":502:530  uint[] public gArr = [5,6,7] */\n  mload(0x40)\n  dup1\n  0x60\n  add\n  0x40\n  mstore\n  dup1\n    /* \"contracts/base/Library.sol\":524:525  5 */\n  0x05\n    /* \"contracts/base/Library.sol\":502:530  uint[] public gArr = [5,6,7] */\n  0xff\n  and\n  dup2\n  mstore\n  0x20\n  add\n    /* \"contracts/base/Library.sol\":526:527  6 */\n  0x06\n    /* \"contracts/base/Library.sol\":502:530  uint[] public gArr = [5,6,7] */\n  0xff\n  and\n  dup2\n  mstore\n  0x20\n  add\n    /* \"contracts/base/Library.sol\":528:529  7 */\n  0x07\n    /* \"contracts/base/Library.sol\":502:530  uint[] public gArr = [5,6,7] */\n  0xff\n  and\n  dup2\n  mstore\n  pop\n  0x00\n  swap1\n  0x03\n  tag_1\n  swap3\n  swap2\n  swap1\n  tag_2\n  jump\t// in\ntag_1:\n  pop\n    /* \"contracts/base/Library.sol\":435:737  contract TestLibraries {\r... */\n  callvalue\n  dup1\n  iszero\n  tag_3\n  jumpi\n  0x00\n  dup1\n  revert\ntag_3:\n  pop\n  jump(tag_4)\ntag_2:\n  dup3\n  dup1\n  sload\n  dup3\n  dup3\n  sstore\n  swap1\n  0x00\n  mstore\n  keccak256(0x00, 0x20)\n  swap1\n  dup2\n  add\n  swap3\n  dup3\n  iszero\n  tag_5\n  jumpi\n  swap2\n  0x20\n  mul\n  dup3\n  add\ntag_6:\n  dup3\n  dup2\n  gt\n  iszero\n  tag_7\n  jumpi\n  dup3\n  mload\n  dup3\n  swap1\n  0xff\n  and\n  swap1\n  sstore\n  swap2\n  0x20\n  add\n  swap2\n  swap1\n  0x01\n  add\n  swap1\n  jump(tag_6)\ntag_7:\ntag_5:\n  pop\n  swap1\n  pop\n  tag_8\n  swap2\n  swap1\n  tag_9\n  jump\t// in\ntag_8:\n  pop\n  swap1\n  jump\t// out\ntag_9:\ntag_10:\n  dup1\n  dup3\n  gt\n  iszero\n  tag_11\n  jumpi\n  0x00\n  dup2\n  0x00\n  swap1\n  sstore\n  pop\n  0x01\n  add\n  jump(tag_10)\ntag_11:\n  pop\n  swap1\n  jump\t// out\ntag_4:\n  dataSize(sub_0)\n  dup1\n  dataOffset(sub_0)\n  0x00\n  codecopy\n  0x00\n  return\nstop\n\nsub_0: assembly {\n        /* \"contracts/base/Library.sol\":435:737  contract TestLibraries {\r... */\n      mstore(0x40, 0x80)\n      callvalue\n      dup1\n      iszero\n      tag_1\n      jumpi\n      0x00\n      dup1\n      revert\n    tag_1:\n      pop\n      jumpi(tag_2, lt(calldatasize, 0x04))\n      shr(0xe0, calldataload(0x00))\n      dup1\n      0x26c9c7e7\n      eq\n      tag_3\n      jumpi\n      dup1\n      0x66e41cb7\n      eq\n      tag_4\n      jumpi\n      dup1\n      0xaa6bee14\n      eq\n      tag_5\n      jumpi\n    tag_2:\n      0x00\n      dup1\n      revert\n        /* \"contracts/base/Library.sol\":541:641  function test1(uint x,uint y) external pure returns (uint){\r... */\n    tag_3:\n      tag_6\n      0x04\n      dup1\n      calldatasize\n      sub\n      dup2\n      add\n      swap1\n      tag_7\n      swap2\n      swap1\n      tag_8\n      jump\t// in\n    tag_7:\n      tag_9\n      jump\t// in\n    tag_6:\n      mload(0x40)\n      tag_10\n      swap2\n      swap1\n      tag_11\n      jump\t// in\n    tag_10:\n      mload(0x40)\n      dup1\n      swap2\n      sub\n      swap1\n      return\n        /* \"contracts/base/Library.sol\":653:734  function test2() external view returns (uint){\r... */\n    tag_4:\n      tag_12\n      tag_13\n      jump\t// in\n    tag_12:\n      mload(0x40)\n      tag_14\n      swap2\n      swap1\n      tag_11\n      jump\t// in\n    tag_14:\n      mload(0x40)\n      dup1\n      swap2\n      sub\n      swap1\n      return\n        /* \"contracts/base/Library.sol\":502:530  uint[] public gArr = [5,6,7] */\n    tag_5:\n      tag_15\n      0x04\n      dup1\n      calldatasize\n      sub\n      dup2\n      add\n      swap1\n      tag_16\n      swap2\n      swap1\n      tag_17\n      jump\t// in\n    tag_16:\n      tag_18\n      jump\t// in\n    tag_15:\n      mload(0x40)\n      tag_19\n      swap2\n      swap1\n      tag_11\n      jump\t// in\n    tag_19:\n      mload(0x40)\n      dup1\n      swap2\n      sub\n      swap1\n      return\n        /* \"contracts/base/Library.sol\":541:641  function test1(uint x,uint y) external pure returns (uint){\r... */\n    tag_9:\n        /* \"contracts/base/Library.sol\":594:598  uint */\n      0x00\n        /* \"contracts/base/Library.sol\":617:633  MathLib.min(x,y) */\n      tag_21\n        /* \"contracts/base/Library.sol\":629:630  x */\n      dup4\n        /* \"contracts/base/Library.sol\":631:632  y */\n      dup4\n        /* \"contracts/base/Library.sol\":617:628  MathLib.min */\n      tag_22\n        /* \"contracts/base/Library.sol\":617:633  MathLib.min(x,y) */\n      jump\t// in\n    tag_21:\n        /* \"contracts/base/Library.sol\":610:633  return MathLib.min(x,y) */\n      swap1\n      pop\n        /* \"contracts/base/Library.sol\":541:641  function test1(uint x,uint y) external pure returns (uint){\r... */\n      swap3\n      swap2\n      pop\n      pop\n      jump\t// out\n        /* \"contracts/base/Library.sol\":653:734  function test2() external view returns (uint){\r... */\n    tag_13:\n        /* \"contracts/base/Library.sol\":693:697  uint */\n      0x00\n        /* \"contracts/base/Library.sol\":716:726  gArr.sum() */\n      tag_24\n        /* \"contracts/base/Library.sol\":716:720  gArr */\n      0x00\n        /* \"contracts/base/Library.sol\":716:724  gArr.sum */\n      dup1\n      sload\n      dup1\n      0x20\n      mul\n      0x20\n      add\n      mload(0x40)\n      swap1\n      dup2\n      add\n      0x40\n      mstore\n      dup1\n      swap3\n      swap2\n      swap1\n      dup2\n      dup2\n      mstore\n      0x20\n      add\n      dup3\n      dup1\n      sload\n      dup1\n      iszero\n      tag_25\n      jumpi\n      0x20\n      mul\n      dup3\n      add\n      swap2\n      swap1\n      0x00\n      mstore\n      keccak256(0x00, 0x20)\n      swap1\n    tag_26:\n      dup2\n      sload\n      dup2\n      mstore\n      0x20\n      add\n      swap1\n      0x01\n      add\n      swap1\n      dup1\n      dup4\n      gt\n      tag_26\n      jumpi\n    tag_25:\n      pop\n      pop\n      pop\n      pop\n      pop\n      tag_27\n        /* \"contracts/base/Library.sol\":716:726  gArr.sum() */\n      jump\t// in\n    tag_24:\n        /* \"contracts/base/Library.sol\":709:726  return gArr.sum() */\n      swap1\n      pop\n        /* \"contracts/base/Library.sol\":653:734  function test2() external view returns (uint){\r... */\n      swap1\n      jump\t// out\n        /* \"contracts/base/Library.sol\":502:530  uint[] public gArr = [5,6,7] */\n    tag_18:\n      0x00\n      dup2\n      dup2\n      sload\n      dup2\n      lt\n      tag_28\n      jumpi\n      0x00\n      dup1\n      revert\n    tag_28:\n      swap1\n      0x00\n      mstore\n      keccak256(0x00, 0x20)\n      add\n      0x00\n      swap2\n      pop\n      swap1\n      pop\n      sload\n      dup2\n      jump\t// out\n        /* \"contracts/base/Library.sol\":94:189  function min(uint x,uint y) internal pure returns (uint){\r... */\n    tag_22:\n        /* \"contracts/base/Library.sol\":145:149  uint */\n      0x00\n        /* \"contracts/base/Library.sol\":172:173  y */\n      dup2\n        /* \"contracts/base/Library.sol\":168:169  x */\n      dup4\n        /* \"contracts/base/Library.sol\":168:173  x < y */\n      lt\n        /* \"contracts/base/Library.sol\":168:181  x < y ? x : y */\n      tag_31\n      jumpi\n        /* \"contracts/base/Library.sol\":180:181  y */\n      dup2\n        /* \"contracts/base/Library.sol\":168:181  x < y ? x : y */\n      jump(tag_32)\n    tag_31:\n        /* \"contracts/base/Library.sol\":176:177  x */\n      dup3\n        /* \"contracts/base/Library.sol\":168:181  x < y ? x : y */\n    tag_32:\n        /* \"contracts/base/Library.sol\":161:181  return x < y ? x : y */\n      swap1\n      pop\n        /* \"contracts/base/Library.sol\":94:189  function min(uint x,uint y) internal pure returns (uint){\r... */\n      swap3\n      swap2\n      pop\n      pop\n      jump\t// out\n        /* \"contracts/base/Library.sol\":222:428  function sum(uint[] memory arr) internal pure returns (uint){\r... */\n    tag_27:\n        /* \"contracts/base/Library.sol\":277:281  uint */\n      0x00\n        /* \"contracts/base/Library.sol\":293:303  uint total */\n      dup1\n        /* \"contracts/base/Library.sol\":306:307  0 */\n      0x00\n        /* \"contracts/base/Library.sol\":293:307  uint total = 0 */\n      swap1\n      pop\n        /* \"contracts/base/Library.sol\":323:329  uint i */\n      0x00\n        /* \"contracts/base/Library.sol\":318:398  for (uint i = 0; i < arr.length; i++) {\r... */\n    tag_34:\n        /* \"contracts/base/Library.sol\":339:342  arr */\n      dup4\n        /* \"contracts/base/Library.sol\":339:349  arr.length */\n      mload\n        /* \"contracts/base/Library.sol\":335:336  i */\n      dup2\n        /* \"contracts/base/Library.sol\":335:349  i < arr.length */\n      lt\n        /* \"contracts/base/Library.sol\":318:398  for (uint i = 0; i < arr.length; i++) {\r... */\n      iszero\n      tag_35\n      jumpi\n        /* \"contracts/base/Library.sol\":380:383  arr */\n      dup4\n        /* \"contracts/base/Library.sol\":384:385  i */\n      dup2\n        /* \"contracts/base/Library.sol\":380:386  arr[i] */\n      dup2\n      mload\n      dup2\n      lt\n      tag_37\n      jumpi\n      mstore(0x00, 0x4e487b7100000000000000000000000000000000000000000000000000000000)\n      mstore(0x04, 0x32)\n      revert(0x00, 0x24)\n    tag_37:\n      0x20\n      mul\n      0x20\n      add\n      add\n      mload\n        /* \"contracts/base/Library.sol\":371:386  total += arr[i] */\n      dup3\n      tag_38\n      swap2\n      swap1\n      tag_39\n      jump\t// in\n    tag_38:\n      swap2\n      pop\n        /* \"contracts/base/Library.sol\":351:354  i++ */\n      dup1\n      dup1\n      tag_40\n      swap1\n      tag_41\n      jump\t// in\n    tag_40:\n      swap2\n      pop\n      pop\n        /* \"contracts/base/Library.sol\":318:398  for (uint i = 0; i < arr.length; i++) {\r... */\n      jump(tag_34)\n    tag_35:\n      pop\n        /* \"contracts/base/Library.sol\":415:420  total */\n      dup1\n        /* \"contracts/base/Library.sol\":408:420  return total */\n      swap2\n      pop\n      pop\n        /* \"contracts/base/Library.sol\":222:428  function sum(uint[] memory arr) internal pure returns (uint){\r... */\n      swap2\n      swap1\n      pop\n      jump\t// out\n        /* \"#utility.yul\":7:146   */\n    tag_43:\n        /* \"#utility.yul\":53:58   */\n      0x00\n        /* \"#utility.yul\":91:97   */\n      dup2\n        /* \"#utility.yul\":78:98   */\n      calldataload\n        /* \"#utility.yul\":69:98   */\n      swap1\n      pop\n        /* \"#utility.yul\":107:140   */\n      tag_45\n        /* \"#utility.yul\":134:139   */\n      dup2\n        /* \"#utility.yul\":107:140   */\n      tag_46\n      jump\t// in\n    tag_45:\n        /* \"#utility.yul\":59:146   */\n      swap3\n      swap2\n      pop\n      pop\n      jump\t// out\n        /* \"#utility.yul\":152:414   */\n    tag_17:\n        /* \"#utility.yul\":211:217   */\n      0x00\n        /* \"#utility.yul\":260:262   */\n      0x20\n        /* \"#utility.yul\":248:257   */\n      dup3\n        /* \"#utility.yul\":239:246   */\n      dup5\n        /* \"#utility.yul\":235:258   */\n      sub\n        /* \"#utility.yul\":231:263   */\n      slt\n        /* \"#utility.yul\":228:230   */\n      iszero\n      tag_48\n      jumpi\n        /* \"#utility.yul\":276:277   */\n      0x00\n        /* \"#utility.yul\":273:274   */\n      dup1\n        /* \"#utility.yul\":266:278   */\n      revert\n        /* \"#utility.yul\":228:230   */\n    tag_48:\n        /* \"#utility.yul\":319:320   */\n      0x00\n        /* \"#utility.yul\":344:397   */\n      tag_49\n        /* \"#utility.yul\":389:396   */\n      dup5\n        /* \"#utility.yul\":380:386   */\n      dup3\n        /* \"#utility.yul\":369:378   */\n      dup6\n        /* \"#utility.yul\":365:387   */\n      add\n        /* \"#utility.yul\":344:397   */\n      tag_43\n      jump\t// in\n    tag_49:\n        /* \"#utility.yul\":334:397   */\n      swap2\n      pop\n        /* \"#utility.yul\":290:407   */\n      pop\n        /* \"#utility.yul\":218:414   */\n      swap3\n      swap2\n      pop\n      pop\n      jump\t// out\n        /* \"#utility.yul\":420:827   */\n    tag_8:\n        /* \"#utility.yul\":488:494   */\n      0x00\n        /* \"#utility.yul\":496:502   */\n      dup1\n        /* \"#utility.yul\":545:547   */\n      0x40\n        /* \"#utility.yul\":533:542   */\n      dup4\n        /* \"#utility.yul\":524:531   */\n      dup6\n        /* \"#utility.yul\":520:543   */\n      sub\n        /* \"#utility.yul\":516:548   */\n      slt\n        /* \"#utility.yul\":513:515   */\n      iszero\n      tag_51\n      jumpi\n        /* \"#utility.yul\":561:562   */\n      0x00\n        /* \"#utility.yul\":558:559   */\n      dup1\n        /* \"#utility.yul\":551:563   */\n      revert\n        /* \"#utility.yul\":513:515   */\n    tag_51:\n        /* \"#utility.yul\":604:605   */\n      0x00\n        /* \"#utility.yul\":629:682   */\n      tag_52\n        /* \"#utility.yul\":674:681   */\n      dup6\n        /* \"#utility.yul\":665:671   */\n      dup3\n        /* \"#utility.yul\":654:663   */\n      dup7\n        /* \"#utility.yul\":650:672   */\n      add\n        /* \"#utility.yul\":629:682   */\n      tag_43\n      jump\t// in\n    tag_52:\n        /* \"#utility.yul\":619:682   */\n      swap3\n      pop\n        /* \"#utility.yul\":575:692   */\n      pop\n        /* \"#utility.yul\":731:733   */\n      0x20\n        /* \"#utility.yul\":757:810   */\n      tag_53\n        /* \"#utility.yul\":802:809   */\n      dup6\n        /* \"#utility.yul\":793:799   */\n      dup3\n        /* \"#utility.yul\":782:791   */\n      dup7\n        /* \"#utility.yul\":778:800   */\n      add\n        /* \"#utility.yul\":757:810   */\n      tag_43\n      jump\t// in\n    tag_53:\n        /* \"#utility.yul\":747:810   */\n      swap2\n      pop\n        /* \"#utility.yul\":702:820   */\n      pop\n        /* \"#utility.yul\":503:827   */\n      swap3\n      pop\n      swap3\n      swap1\n      pop\n      jump\t// out\n        /* \"#utility.yul\":833:951   */\n    tag_54:\n        /* \"#utility.yul\":920:944   */\n      tag_56\n        /* \"#utility.yul\":938:943   */\n      dup2\n        /* \"#utility.yul\":920:944   */\n      tag_57\n      jump\t// in\n    tag_56:\n        /* \"#utility.yul\":915:918   */\n      dup3\n        /* \"#utility.yul\":908:945   */\n      mstore\n        /* \"#utility.yul\":898:951   */\n      pop\n      pop\n      jump\t// out\n        /* \"#utility.yul\":957:1179   */\n    tag_11:\n        /* \"#utility.yul\":1050:1054   */\n      0x00\n        /* \"#utility.yul\":1088:1090   */\n      0x20\n        /* \"#utility.yul\":1077:1086   */\n      dup3\n        /* \"#utility.yul\":1073:1091   */\n      add\n        /* \"#utility.yul\":1065:1091   */\n      swap1\n      pop\n        /* \"#utility.yul\":1101:1172   */\n      tag_59\n        /* \"#utility.yul\":1169:1170   */\n      0x00\n        /* \"#utility.yul\":1158:1167   */\n      dup4\n        /* \"#utility.yul\":1154:1171   */\n      add\n        /* \"#utility.yul\":1145:1151   */\n      dup5\n        /* \"#utility.yul\":1101:1172   */\n      tag_54\n      jump\t// in\n    tag_59:\n        /* \"#utility.yul\":1055:1179   */\n      swap3\n      swap2\n      pop\n      pop\n      jump\t// out\n        /* \"#utility.yul\":1185:1490   */\n    tag_39:\n        /* \"#utility.yul\":1225:1228   */\n      0x00\n        /* \"#utility.yul\":1244:1264   */\n      tag_61\n        /* \"#utility.yul\":1262:1263   */\n      dup3\n        /* \"#utility.yul\":1244:1264   */\n      tag_57\n      jump\t// in\n    tag_61:\n        /* \"#utility.yul\":1239:1264   */\n      swap2\n      pop\n        /* \"#utility.yul\":1278:1298   */\n      tag_62\n        /* \"#utility.yul\":1296:1297   */\n      dup4\n        /* \"#utility.yul\":1278:1298   */\n      tag_57\n      jump\t// in\n    tag_62:\n        /* \"#utility.yul\":1273:1298   */\n      swap3\n      pop\n        /* \"#utility.yul\":1432:1433   */\n      dup3\n        /* \"#utility.yul\":1364:1430   */\n      0xffffffffffffffffffffffffffffffffffffffffffffffffffffffffffffffff\n        /* \"#utility.yul\":1360:1434   */\n      sub\n        /* \"#utility.yul\":1357:1358   */\n      dup3\n        /* \"#utility.yul\":1354:1435   */\n      gt\n        /* \"#utility.yul\":1351:1353   */\n      iszero\n      tag_63\n      jumpi\n        /* \"#utility.yul\":1438:1456   */\n      tag_64\n      tag_65\n      jump\t// in\n    tag_64:\n        /* \"#utility.yul\":1351:1353   */\n    tag_63:\n        /* \"#utility.yul\":1482:1483   */\n      dup3\n        /* \"#utility.yul\":1479:1480   */\n      dup3\n        /* \"#utility.yul\":1475:1484   */\n      add\n        /* \"#utility.yul\":1468:1484   */\n      swap1\n      pop\n        /* \"#utility.yul\":1229:1490   */\n      swap3\n      swap2\n      pop\n      pop\n      jump\t// out\n        /* \"#utility.yul\":1496:1573   */\n    tag_57:\n        /* \"#utility.yul\":1533:1540   */\n      0x00\n        /* \"#utility.yul\":1562:1567   */\n      dup2\n        /* \"#utility.yul\":1551:1567   */\n      swap1\n      pop\n        /* \"#utility.yul\":1541:1573   */\n      swap2\n      swap1\n      pop\n      jump\t// out\n        /* \"#utility.yul\":1579:1812   */\n    tag_41:\n        /* \"#utility.yul\":1618:1621   */\n      0x00\n        /* \"#utility.yul\":1641:1665   */\n      tag_68\n        /* \"#utility.yul\":1659:1664   */\n      dup3\n        /* \"#utility.yul\":1641:1665   */\n      tag_57\n      jump\t// in\n    tag_68:\n        /* \"#utility.yul\":1632:1665   */\n      swap2\n      pop\n        /* \"#utility.yul\":1687:1753   */\n      0xffffffffffffffffffffffffffffffffffffffffffffffffffffffffffffffff\n        /* \"#utility.yul\":1680:1685   */\n      dup3\n        /* \"#utility.yul\":1677:1754   */\n      eq\n        /* \"#utility.yul\":1674:1676   */\n      iszero\n      tag_69\n      jumpi\n        /* \"#utility.yul\":1757:1775   */\n      tag_70\n      tag_65\n      jump\t// in\n    tag_70:\n        /* \"#utility.yul\":1674:1676   */\n    tag_69:\n        /* \"#utility.yul\":1804:1805   */\n      0x01\n        /* \"#utility.yul\":1797:1802   */\n      dup3\n        /* \"#utility.yul\":1793:1806   */\n      add\n        /* \"#utility.yul\":1786:1806   */\n      swap1\n      pop\n        /* \"#utility.yul\":1622:1812   */\n      swap2\n      swap1\n      pop\n      jump\t// out\n        /* \"#utility.yul\":1818:1998   */\n    tag_65:\n        /* \"#utility.yul\":1866:1943   */\n      0x4e487b7100000000000000000000000000000000000000000000000000000000\n        /* \"#utility.yul\":1863:1864   */\n      0x00\n        /* \"#utility.yul\":1856:1944   */\n      mstore\n        /* \"#utility.yul\":1963:1967   */\n      0x11\n        /* \"#utility.yul\":1960:1961   */\n      0x04\n        /* \"#utility.yul\":1953:1968   */\n      mstore\n        /* \"#utility.yul\":1987:1991   */\n      0x24\n        /* \"#utility.yul\":1984:1985   */\n      0x00\n        /* \"#utility.yul\":1977:1992   */\n      revert\n        /* \"#utility.yul\":2004:2126   */\n    tag_46:\n        /* \"#utility.yul\":2077:2101   */\n      tag_73\n        /* \"#utility.yul\":2095:2100   */\n      dup2\n        /* \"#utility.yul\":2077:2101   */\n      tag_57\n      jump\t// in\n    tag_73:\n        /* \"#utility.yul\":2070:2075   */\n      dup2\n        /* \"#utility.yul\":2067:2102   */\n      eq\n        /* \"#utility.yul\":2057:2059   */\n      tag_74\n      jumpi\n        /* \"#utility.yul\":2116:2117   */\n      0x00\n        /* \"#utility.yul\":2113:2114   */\n      dup1\n        /* \"#utility.yul\":2106:2118   */\n      revert\n        /* \"#utility.yul\":2057:2059   */\n    tag_74:\n        /* \"#utility.yul\":2047:2126   */\n      pop\n      jump\t// out\n\n    auxdata: 0xa264697066735822122024f059fbac510d95156ea217011ced3e7eecee73e109b45dfb91ec55b6a9909e64736f6c63430008040033\n}\n",
				"bytecode": {
					"linkReferences": {},
					"object": "60806040526040518060600160405280600560ff168152602001600660ff168152602001600760ff16815250600090600361003b92919061004e565b5034801561004857600080fd5b506100bd565b82805482825590600052602060002090810192821561008f579160200282015b8281111561008e578251829060ff1690559160200191906001019061006e565b5b50905061009c91906100a0565b5090565b5b808211156100b95760008160009055506001016100a1565b5090565b6103bc806100cc6000396000f3fe608060405234801561001057600080fd5b50600436106100415760003560e01c806326c9c7e71461004657806366e41cb714610076578063aa6bee1414610094575b600080fd5b610060600480360381019061005b9190610231565b6100c4565b60405161006d919061027c565b60405180910390f35b61007e6100d8565b60405161008b919061027c565b60405180910390f35b6100ae60048036038101906100a99190610208565b610138565b6040516100bb919061027c565b60405180910390f35b60006100d0838361015c565b905092915050565b6000610133600080548060200260200160405190810160405280929190818152602001828054801561012957602002820191906000526020600020905b815481526020019060010190808311610115575b5050505050610175565b905090565b6000818154811061014857600080fd5b906000526020600020016000915090505481565b600081831061016b578161016d565b825b905092915050565b6000806000905060005b83518110156101e9578381815181106101c1577f4e487b7100000000000000000000000000000000000000000000000000000000600052603260045260246000fd5b6020026020010151826101d49190610297565b915080806101e1906102f7565b91505061017f565b5080915050919050565b6000813590506102028161036f565b92915050565b60006020828403121561021a57600080fd5b6000610228848285016101f3565b91505092915050565b6000806040838503121561024457600080fd5b6000610252858286016101f3565b9250506020610263858286016101f3565b9150509250929050565b610276816102ed565b82525050565b6000602082019050610291600083018461026d565b92915050565b60006102a2826102ed565b91506102ad836102ed565b9250827fffffffffffffffffffffffffffffffffffffffffffffffffffffffffffffffff038211156102e2576102e1610340565b5b828201905092915050565b6000819050919050565b6000610302826102ed565b91507fffffffffffffffffffffffffffffffffffffffffffffffffffffffffffffffff82141561033557610334610340565b5b600182019050919050565b7f4e487b7100000000000000000000000000000000000000000000000000000000600052601160045260246000fd5b610378816102ed565b811461038357600080fd5b5056fea264697066735822122024f059fbac510d95156ea217011ced3e7eecee73e109b45dfb91ec55b6a9909e64736f6c63430008040033",
					"opcodes": "PUSH1 0x80 PUSH1 0x40 MSTORE PUSH1 0x40 MLOAD DUP1 PUSH1 0x60 ADD PUSH1 0x40 MSTORE DUP1 PUSH1 0x5 PUSH1 0xFF AND DUP2 MSTORE PUSH1 0x20 ADD PUSH1 0x6 PUSH1 0xFF AND DUP2 MSTORE PUSH1 0x20 ADD PUSH1 0x7 PUSH1 0xFF AND DUP2 MSTORE POP PUSH1 0x0 SWAP1 PUSH1 0x3 PUSH2 0x3B SWAP3 SWAP2 SWAP1 PUSH2 0x4E JUMP JUMPDEST POP CALLVALUE DUP1 ISZERO PUSH2 0x48 JUMPI PUSH1 0x0 DUP1 REVERT JUMPDEST POP PUSH2 0xBD JUMP JUMPDEST DUP3 DUP1 SLOAD DUP3 DUP3 SSTORE SWAP1 PUSH1 0x0 MSTORE PUSH1 0x20 PUSH1 0x0 KECCAK256 SWAP1 DUP2 ADD SWAP3 DUP3 ISZERO PUSH2 0x8F JUMPI SWAP2 PUSH1 0x20 MUL DUP3 ADD JUMPDEST DUP3 DUP2 GT ISZERO PUSH2 0x8E JUMPI DUP3 MLOAD DUP3 SWAP1 PUSH1 0xFF AND SWAP1 SSTORE SWAP2 PUSH1 0x20 ADD SWAP2 SWAP1 PUSH1 0x1 ADD SWAP1 PUSH2 0x6E JUMP JUMPDEST JUMPDEST POP SWAP1 POP PUSH2 0x9C SWAP2 SWAP1 PUSH2 0xA0 JUMP JUMPDEST POP SWAP1 JUMP JUMPDEST JUMPDEST DUP1 DUP3 GT ISZERO PUSH2 0xB9 JUMPI PUSH1 0x0 DUP2 PUSH1 0x0 SWAP1 SSTORE POP PUSH1 0x1 ADD PUSH2 0xA1 JUMP JUMPDEST POP SWAP1 JUMP JUMPDEST PUSH2 0x3BC DUP1 PUSH2 0xCC PUSH1 0x0 CODECOPY PUSH1 0x0 RETURN INVALID PUSH1 0x80 PUSH1 0x40 MSTORE CALLVALUE DUP1 ISZERO PUSH2 0x10 JUMPI PUSH1 0x0 DUP1 REVERT JUMPDEST POP PUSH1 0x4 CALLDATASIZE LT PUSH2 0x41 JUMPI PUSH1 0x0 CALLDATALOAD PUSH1 0xE0 SHR DUP1 PUSH4 0x26C9C7E7 EQ PUSH2 0x46 JUMPI DUP1 PUSH4 0x66E41CB7 EQ PUSH2 0x76 JUMPI DUP1 PUSH4 0xAA6BEE14 EQ PUSH2 0x94 JUMPI JUMPDEST PUSH1 0x0 DUP1 REVERT JUMPDEST PUSH2 0x60 PUSH1 0x4 DUP1 CALLDATASIZE SUB DUP2 ADD SWAP1 PUSH2 0x5B SWAP2 SWAP1 PUSH2 0x231 JUMP JUMPDEST PUSH2 0xC4 JUMP JUMPDEST PUSH1 0x40 MLOAD PUSH2 0x6D SWAP2 SWAP1 PUSH2 0x27C JUMP JUMPDEST PUSH1 0x40 MLOAD DUP1 SWAP2 SUB SWAP1 RETURN JUMPDEST PUSH2 0x7E PUSH2 0xD8 JUMP JUMPDEST PUSH1 0x40 MLOAD PUSH2 0x8B SWAP2 SWAP1 PUSH2 0x27C JUMP JUMPDEST PUSH1 0x40 MLOAD DUP1 SWAP2 SUB SWAP1 RETURN JUMPDEST PUSH2 0xAE PUSH1 0x4 DUP1 CALLDATASIZE SUB DUP2 ADD SWAP1 PUSH2 0xA9 SWAP2 SWAP1 PUSH2 0x208 JUMP JUMPDEST PUSH2 0x138 JUMP JUMPDEST PUSH1 0x40 MLOAD PUSH2 0xBB SWAP2 SWAP1 PUSH2 0x27C JUMP JUMPDEST PUSH1 0x40 MLOAD DUP1 SWAP2 SUB SWAP1 RETURN JUMPDEST PUSH1 0x0 PUSH2 0xD0 DUP4 DUP4 PUSH2 0x15C JUMP JUMPDEST SWAP1 POP SWAP3 SWAP2 POP POP JUMP JUMPDEST PUSH1 0x0 PUSH2 0x133 PUSH1 0x0 DUP1 SLOAD DUP1 PUSH1 0x20 MUL PUSH1 0x20 ADD PUSH1 0x40 MLOAD SWAP1 DUP2 ADD PUSH1 0x40 MSTORE DUP1 SWAP3 SWAP2 SWAP1 DUP2 DUP2 MSTORE PUSH1 0x20 ADD DUP3 DUP1 SLOAD DUP1 ISZERO PUSH2 0x129 JUMPI PUSH1 0x20 MUL DUP3 ADD SWAP2 SWAP1 PUSH1 0x0 MSTORE PUSH1 0x20 PUSH1 0x0 KECCAK256 SWAP1 JUMPDEST DUP2 SLOAD DUP2 MSTORE PUSH1 0x20 ADD SWAP1 PUSH1 0x1 ADD SWAP1 DUP1 DUP4 GT PUSH2 0x115 JUMPI JUMPDEST POP POP POP POP POP PUSH2 0x175 JUMP JUMPDEST SWAP1 POP SWAP1 JUMP JUMPDEST PUSH1 0x0 DUP2 DUP2 SLOAD DUP2 LT PUSH2 0x148 JUMPI PUSH1 0x0 DUP1 REVERT JUMPDEST SWAP1 PUSH1 0x0 MSTORE PUSH1 0x20 PUSH1 0x0 KECCAK256 ADD PUSH1 0x0 SWAP2 POP SWAP1 POP SLOAD DUP2 JUMP JUMPDEST PUSH1 0x0 DUP2 DUP4 LT PUSH2 0x16B JUMPI DUP2 PUSH2 0x16D JUMP JUMPDEST DUP3 JUMPDEST SWAP1 POP SWAP3 SWAP2 POP POP JUMP JUMPDEST PUSH1 0x0 DUP1 PUSH1 0x0 SWAP1 POP PUSH1 0x0 JUMPDEST DUP4 MLOAD DUP2 LT ISZERO PUSH2 0x1E9 JUMPI DUP4 DUP2 DUP2 MLOAD DUP2 LT PUSH2 0x1C1 JUMPI PUSH32 0x4E487B7100000000000000000000000000000000000000000000000000000000 PUSH1 0x0 MSTORE PUSH1 0x32 PUSH1 0x4 MSTORE PUSH1 0x24 PUSH1 0x0 REVERT JUMPDEST PUSH1 0x20 MUL PUSH1 0x20 ADD ADD MLOAD DUP3 PUSH2 0x1D4 SWAP2 SWAP1 PUSH2 0x297 JUMP JUMPDEST SWAP2 POP DUP1 DUP1 PUSH2 0x1E1 SWAP1 PUSH2 0x2F7 JUMP JUMPDEST SWAP2 POP POP PUSH2 0x17F JUMP JUMPDEST POP DUP1 SWAP2 POP POP SWAP2 SWAP1 POP JUMP JUMPDEST PUSH1 0x0 DUP2 CALLDATALOAD SWAP1 POP PUSH2 0x202 DUP2 PUSH2 0x36F JUMP JUMPDEST SWAP3 SWAP2 POP POP JUMP JUMPDEST PUSH1 0x0 PUSH1 0x20 DUP3 DUP5 SUB SLT ISZERO PUSH2 0x21A JUMPI PUSH1 0x0 DUP1 REVERT JUMPDEST PUSH1 0x0 PUSH2 0x228 DUP5 DUP3 DUP6 ADD PUSH2 0x1F3 JUMP JUMPDEST SWAP2 POP POP SWAP3 SWAP2 POP POP JUMP JUMPDEST PUSH1 0x0 DUP1 PUSH1 0x40 DUP4 DUP6 SUB SLT ISZERO PUSH2 0x244 JUMPI PUSH1 0x0 DUP1 REVERT JUMPDEST PUSH1 0x0 PUSH2 0x252 DUP6 DUP3 DUP7 ADD PUSH2 0x1F3 JUMP JUMPDEST SWAP3 POP POP PUSH1 0x20 PUSH2 0x263 DUP6 DUP3 DUP7 ADD PUSH2 0x1F3 JUMP JUMPDEST SWAP2 POP POP SWAP3 POP SWAP3 SWAP1 POP JUMP JUMPDEST PUSH2 0x276 DUP2 PUSH2 0x2ED JUMP JUMPDEST DUP3 MSTORE POP POP JUMP JUMPDEST PUSH1 0x0 PUSH1 0x20 DUP3 ADD SWAP1 POP PUSH2 0x291 PUSH1 0x0 DUP4 ADD DUP5 PUSH2 0x26D JUMP JUMPDEST SWAP3 SWAP2 POP POP JUMP JUMPDEST PUSH1 0x0 PUSH2 0x2A2 DUP3 PUSH2 0x2ED JUMP JUMPDEST SWAP2 POP PUSH2 0x2AD DUP4 PUSH2 0x2ED JUMP JUMPDEST SWAP3 POP DUP3 PUSH32 0xFFFFFFFFFFFFFFFFFFFFFFFFFFFFFFFFFFFFFFFFFFFFFFFFFFFFFFFFFFFFFFFF SUB DUP3 GT ISZERO PUSH2 0x2E2 JUMPI PUSH2 0x2E1 PUSH2 0x340 JUMP JUMPDEST JUMPDEST DUP3 DUP3 ADD SWAP1 POP SWAP3 SWAP2 POP POP JUMP JUMPDEST PUSH1 0x0 DUP2 SWAP1 POP SWAP2 SWAP1 POP JUMP JUMPDEST PUSH1 0x0 PUSH2 0x302 DUP3 PUSH2 0x2ED JUMP JUMPDEST SWAP2 POP PUSH32 0xFFFFFFFFFFFFFFFFFFFFFFFFFFFFFFFFFFFFFFFFFFFFFFFFFFFFFFFFFFFFFFFF DUP3 EQ ISZERO PUSH2 0x335 JUMPI PUSH2 0x334 PUSH2 0x340 JUMP JUMPDEST JUMPDEST PUSH1 0x1 DUP3 ADD SWAP1 POP SWAP2 SWAP1 POP JUMP JUMPDEST PUSH32 0x4E487B7100000000000000000000000000000000000000000000000000000000 PUSH1 0x0 MSTORE PUSH1 0x11 PUSH1 0x4 MSTORE PUSH1 0x24 PUSH1 0x0 REVERT JUMPDEST PUSH2 0x378 DUP2 PUSH2 0x2ED JUMP JUMPDEST DUP2 EQ PUSH2 0x383 JUMPI PUSH1 0x0 DUP1 REVERT JUMPDEST POP JUMP INVALID LOG2 PUSH5 0x6970667358 0x22 SLT KECCAK256 0x24 CREATE MSIZE 0xFB 0xAC MLOAD 0xD SWAP6 ISZERO PUSH15 0xA217011CED3E7EECEE73E109B45DFB SWAP2 0xEC SSTORE 0xB6 0xA9 SWAP1 SWAP15 PUSH5 0x736F6C6343 STOP ADDMOD DIV STOP CALLER "
				},
				"gasEstimates": {
					"creation": {
						"codeDepositCost": "191200",
						"executionCost": "infinite",
						"totalCost": "infinite"
					},
					"external": {
						"gArr(uint256)": "infinite",
						"test1(uint256,uint256)": "infinite",
						"test2()": "infinite"
					}
				},
				"methodIdentifiers": {
					"gArr(uint256)": "aa6bee14",
					"test1(uint256,uint256)": "26c9c7e7",
					"test2()": "66e41cb7"
				}
			},
			"storageLayout": {
				"storage": [
					{
						"astId": 65,
						"contract": "contracts/base/Library.sol:TestLibraries",
						"label": "gArr",
						"offset": 0,
						"slot": "0",
						"type": "t_array(t_uint256)dyn_storage"
					}
				],
				"types": {
					"t_array(t_uint256)dyn_storage": {
						"base": "t_uint256",
						"encoding": "dynamic_array",
						"label": "uint256[]",
						"numberOfBytes": "32"
					},
					"t_uint256": {
						"encoding": "inplace",
						"label": "uint256",
						"numberOfBytes": "32"
					}
				}
			},
			"userdoc": {
				"kind": "user",
				"methods": {},
				"version": 1
			}
		}
	}
}