{
	"contracts/base/EnumTest.sol": {
		"EnumTest": {
			"abi": [
				{
					"inputs": [
						{
							"internalType": "address",
							"name": "addr",
							"type": "address"
						},
						{
							"internalType": "enum EnumTest.OrderStatus",
							"name": "status",
							"type": "uint8"
						}
					],
					"name": "addOrder",
					"outputs": [],
					"stateMutability": "nonpayable",
					"type": "function"
				},
				{
					"inputs": [
						{
							"internalType": "uint256",
							"name": "index",
							"type": "uint256"
						}
					],
					"name": "getOrderStatus",
					"outputs": [
						{
							"internalType": "enum EnumTest.OrderStatus",
							"name": "",
							"type": "uint8"
						}
					],
					"stateMutability": "view",
					"type": "function"
				},
				{
					"inputs": [
						{
							"internalType": "uint256",
							"name": "",
							"type": "uint256"
						}
					],
					"name": "orders",
					"outputs": [
						{
							"internalType": "address",
							"name": "addr",
							"type": "address"
						},
						{
							"internalType": "enum EnumTest.OrderStatus",
							"name": "status",
							"type": "uint8"
						}
					],
					"stateMutability": "view",
					"type": "function"
				},
				{
					"inputs": [
						{
							"internalType": "uint256",
							"name": "index",
							"type": "uint256"
						}
					],
					"name": "restOrderStatus",
					"outputs": [],
					"stateMutability": "nonpayable",
					"type": "function"
				},
				{
					"inputs": [
						{
							"internalType": "uint256",
							"name": "index",
							"type": "uint256"
						},
						{
							"internalType": "enum EnumTest.OrderStatus",
							"name": "status",
							"type": "uint8"
						}
					],
					"name": "updateOrderStatus",
					"outputs": [],
					"stateMutability": "nonpayable",
					"type": "function"
				}
			],
			"devdoc": {
				"kind": "dev",
				"methods": {},
				"version": 1
			},
			"evm": {
				"assembly": "    /* \"contracts/base/EnumTest.sol\":522:1385  contract EnumTest {\r... */\n  mstore(0x40, 0x80)\n  callvalue\n  dup1\n  iszero\n  tag_1\n  jumpi\n  0x00\n  dup1\n  revert\ntag_1:\n  pop\n  dataSize(sub_0)\n  dup1\n  dataOffset(sub_0)\n  0x00\n  codecopy\n  0x00\n  return\nstop\n\nsub_0: assembly {\n        /* \"contracts/base/EnumTest.sol\":522:1385  contract EnumTest {\r... */\n      mstore(0x40, 0x80)\n      callvalue\n      dup1\n      iszero\n      tag_1\n      jumpi\n      0x00\n      dup1\n      revert\n    tag_1:\n      pop\n      jumpi(tag_2, lt(calldatasize, 0x04))\n      shr(0xe0, calldataload(0x00))\n      dup1\n      0x06c9a827\n      eq\n      tag_3\n      jumpi\n      dup1\n      0x45fa8aae\n      eq\n      tag_4\n      jumpi\n      dup1\n      0xa85c38ef\n      eq\n      tag_5\n      jumpi\n      dup1\n      0xaab3196d\n      eq\n      tag_6\n      jumpi\n      dup1\n      0xd07548da\n      eq\n      tag_7\n      jumpi\n    tag_2:\n      0x00\n      dup1\n      revert\n        /* \"contracts/base/EnumTest.sol\":856:966  function addOrder(address addr,OrderStatus status) external {\r... */\n    tag_3:\n      tag_8\n      0x04\n      dup1\n      calldatasize\n      sub\n      dup2\n      add\n      swap1\n      tag_9\n      swap2\n      swap1\n      tag_10\n      jump\t// in\n    tag_9:\n      tag_11\n      jump\t// in\n    tag_8:\n      stop\n        /* \"contracts/base/EnumTest.sol\":1118:1259  function getOrderStatus(uint index ) external checkArrayOut(index) view returns(OrderStatus){\r... */\n    tag_4:\n      tag_12\n      0x04\n      dup1\n      calldatasize\n      sub\n      dup2\n      add\n      swap1\n      tag_13\n      swap2\n      swap1\n      tag_14\n      jump\t// in\n    tag_13:\n      tag_15\n      jump\t// in\n    tag_12:\n      mload(0x40)\n      tag_16\n      swap2\n      swap1\n      tag_17\n      jump\t// in\n    tag_16:\n      mload(0x40)\n      dup1\n      swap2\n      sub\n      swap1\n      return\n        /* \"contracts/base/EnumTest.sol\":826:847  Order[] public orders */\n    tag_5:\n      tag_18\n      0x04\n      dup1\n      calldatasize\n      sub\n      dup2\n      add\n      swap1\n      tag_19\n      swap2\n      swap1\n      tag_14\n      jump\t// in\n    tag_19:\n      tag_20\n      jump\t// in\n    tag_18:\n      mload(0x40)\n      tag_21\n      swap3\n      swap2\n      swap1\n      tag_22\n      jump\t// in\n    tag_21:\n      mload(0x40)\n      dup1\n      swap2\n      sub\n      swap1\n      return\n        /* \"contracts/base/EnumTest.sol\":974:1110  function updateOrderStatus(uint index,OrderStatus status) external checkArrayOut(index) {\r... */\n    tag_6:\n      tag_23\n      0x04\n      dup1\n      calldatasize\n      sub\n      dup2\n      add\n      swap1\n      tag_24\n      swap2\n      swap1\n      tag_25\n      jump\t// in\n    tag_24:\n      tag_26\n      jump\t// in\n    tag_23:\n      stop\n        /* \"contracts/base/EnumTest.sol\":1267:1380  function restOrderStatus(uint index) external checkArrayOut(index) {\r... */\n    tag_7:\n      tag_27\n      0x04\n      dup1\n      calldatasize\n      sub\n      dup2\n      add\n      swap1\n      tag_28\n      swap2\n      swap1\n      tag_14\n      jump\t// in\n    tag_28:\n      tag_29\n      jump\t// in\n    tag_27:\n      stop\n        /* \"contracts/base/EnumTest.sol\":856:966  function addOrder(address addr,OrderStatus status) external {\r... */\n    tag_11:\n        /* \"contracts/base/EnumTest.sol\":927:933  orders */\n      0x00\n        /* \"contracts/base/EnumTest.sol\":939:957  Order(addr,status) */\n      mload(0x40)\n      dup1\n      0x40\n      add\n      0x40\n      mstore\n      dup1\n        /* \"contracts/base/EnumTest.sol\":945:949  addr */\n      dup5\n        /* \"contracts/base/EnumTest.sol\":939:957  Order(addr,status) */\n      0xffffffffffffffffffffffffffffffffffffffff\n      and\n      dup2\n      mstore\n      0x20\n      add\n        /* \"contracts/base/EnumTest.sol\":950:956  status */\n      dup4\n        /* \"contracts/base/EnumTest.sol\":939:957  Order(addr,status) */\n      0x05\n      dup2\n      gt\n      iszero\n      tag_31\n      jumpi\n      mstore(0x00, 0x4e487b7100000000000000000000000000000000000000000000000000000000)\n      mstore(0x04, 0x21)\n      revert(0x00, 0x24)\n    tag_31:\n      dup2\n      mstore\n      pop\n        /* \"contracts/base/EnumTest.sol\":927:958  orders.push(Order(addr,status)) */\n      swap1\n      dup1\n      0x01\n      dup2\n      sload\n      add\n      dup1\n      dup3\n      sstore\n      dup1\n      swap2\n      pop\n      pop\n      0x01\n      swap1\n      sub\n      swap1\n      0x00\n      mstore\n      keccak256(0x00, 0x20)\n      add\n      0x00\n      swap1\n      swap2\n      swap1\n      swap2\n      swap1\n      swap2\n      pop\n      0x00\n      dup3\n      add\n      mload\n      dup2\n      0x00\n      add\n      exp(0x0100, 0x00)\n      dup2\n      sload\n      dup2\n      0xffffffffffffffffffffffffffffffffffffffff\n      mul\n      not\n      and\n      swap1\n      dup4\n      0xffffffffffffffffffffffffffffffffffffffff\n      and\n      mul\n      or\n      swap1\n      sstore\n      pop\n      0x20\n      dup3\n      add\n      mload\n      dup2\n      0x00\n      add\n      exp(0x0100, 0x14)\n      dup2\n      sload\n      dup2\n      0xff\n      mul\n      not\n      and\n      swap1\n      dup4\n      0x05\n      dup2\n      gt\n      iszero\n      tag_33\n      jumpi\n      mstore(0x00, 0x4e487b7100000000000000000000000000000000000000000000000000000000)\n      mstore(0x04, 0x21)\n      revert(0x00, 0x24)\n    tag_33:\n      mul\n      or\n      swap1\n      sstore\n      pop\n      pop\n      pop\n        /* \"contracts/base/EnumTest.sol\":856:966  function addOrder(address addr,OrderStatus status) external {\r... */\n      pop\n      pop\n      jump\t// out\n        /* \"contracts/base/EnumTest.sol\":1118:1259  function getOrderStatus(uint index ) external checkArrayOut(index) view returns(OrderStatus){\r... */\n    tag_15:\n        /* \"contracts/base/EnumTest.sol\":1198:1209  OrderStatus */\n      0x00\n        /* \"contracts/base/EnumTest.sol\":1178:1183  index */\n      dup2\n        /* \"contracts/base/EnumTest.sol\":783:784  1 */\n      0x01\n        /* \"contracts/base/EnumTest.sol\":767:773  orders */\n      0x00\n        /* \"contracts/base/EnumTest.sol\":767:780  orders.length */\n      dup1\n      sload\n      swap1\n      pop\n        /* \"contracts/base/EnumTest.sol\":767:784  orders.length - 1 */\n      tag_35\n      swap2\n      swap1\n      tag_36\n      jump\t// in\n    tag_35:\n        /* \"contracts/base/EnumTest.sol\":758:763  index */\n      dup2\n        /* \"contracts/base/EnumTest.sol\":758:784  index <= orders.length - 1 */\n      gt\n      iszero\n        /* \"contracts/base/EnumTest.sol\":750:798  require(index <= orders.length - 1, \"array out\") */\n      tag_37\n      jumpi\n      mload(0x40)\n      0x08c379a000000000000000000000000000000000000000000000000000000000\n      dup2\n      mstore\n      0x04\n      add\n      tag_38\n      swap1\n      tag_39\n      jump\t// in\n    tag_38:\n      mload(0x40)\n      dup1\n      swap2\n      sub\n      swap1\n      revert\n    tag_37:\n        /* \"contracts/base/EnumTest.sol\":1231:1237  orders */\n      0x00\n        /* \"contracts/base/EnumTest.sol\":1238:1243  index */\n      dup4\n        /* \"contracts/base/EnumTest.sol\":1231:1244  orders[index] */\n      dup2\n      sload\n      dup2\n      lt\n      tag_41\n      jumpi\n      mstore(0x00, 0x4e487b7100000000000000000000000000000000000000000000000000000000)\n      mstore(0x04, 0x32)\n      revert(0x00, 0x24)\n    tag_41:\n      swap1\n      0x00\n      mstore\n      keccak256(0x00, 0x20)\n      add\n        /* \"contracts/base/EnumTest.sol\":1231:1251  orders[index].status */\n      0x00\n      add\n      0x14\n      swap1\n      sload\n      swap1\n      0x0100\n      exp\n      swap1\n      div\n      0xff\n      and\n        /* \"contracts/base/EnumTest.sol\":1224:1251  return orders[index].status */\n      swap2\n      pop\n        /* \"contracts/base/EnumTest.sol\":1118:1259  function getOrderStatus(uint index ) external checkArrayOut(index) view returns(OrderStatus){\r... */\n      pop\n      swap2\n      swap1\n      pop\n      jump\t// out\n        /* \"contracts/base/EnumTest.sol\":826:847  Order[] public orders */\n    tag_20:\n      0x00\n      dup2\n      dup2\n      sload\n      dup2\n      lt\n      tag_43\n      jumpi\n      0x00\n      dup1\n      revert\n    tag_43:\n      swap1\n      0x00\n      mstore\n      keccak256(0x00, 0x20)\n      add\n      0x00\n      swap2\n      pop\n      swap1\n      pop\n      dup1\n      0x00\n      add\n      0x00\n      swap1\n      sload\n      swap1\n      0x0100\n      exp\n      swap1\n      div\n      0xffffffffffffffffffffffffffffffffffffffff\n      and\n      swap1\n      dup1\n      0x00\n      add\n      0x14\n      swap1\n      sload\n      swap1\n      0x0100\n      exp\n      swap1\n      div\n      0xff\n      and\n      swap1\n      pop\n      dup3\n      jump\t// out\n        /* \"contracts/base/EnumTest.sol\":974:1110  function updateOrderStatus(uint index,OrderStatus status) external checkArrayOut(index) {\r... */\n    tag_26:\n        /* \"contracts/base/EnumTest.sol\":1055:1060  index */\n      dup2\n        /* \"contracts/base/EnumTest.sol\":783:784  1 */\n      0x01\n        /* \"contracts/base/EnumTest.sol\":767:773  orders */\n      0x00\n        /* \"contracts/base/EnumTest.sol\":767:780  orders.length */\n      dup1\n      sload\n      swap1\n      pop\n        /* \"contracts/base/EnumTest.sol\":767:784  orders.length - 1 */\n      tag_46\n      swap2\n      swap1\n      tag_36\n      jump\t// in\n    tag_46:\n        /* \"contracts/base/EnumTest.sol\":758:763  index */\n      dup2\n        /* \"contracts/base/EnumTest.sol\":758:784  index <= orders.length - 1 */\n      gt\n      iszero\n        /* \"contracts/base/EnumTest.sol\":750:798  require(index <= orders.length - 1, \"array out\") */\n      tag_47\n      jumpi\n      mload(0x40)\n      0x08c379a000000000000000000000000000000000000000000000000000000000\n      dup2\n      mstore\n      0x04\n      add\n      tag_48\n      swap1\n      tag_39\n      jump\t// in\n    tag_48:\n      mload(0x40)\n      dup1\n      swap2\n      sub\n      swap1\n      revert\n    tag_47:\n        /* \"contracts/base/EnumTest.sol\":1096:1102  status */\n      dup2\n        /* \"contracts/base/EnumTest.sol\":1073:1079  orders */\n      0x00\n        /* \"contracts/base/EnumTest.sol\":1080:1085  index */\n      dup5\n        /* \"contracts/base/EnumTest.sol\":1073:1086  orders[index] */\n      dup2\n      sload\n      dup2\n      lt\n      tag_50\n      jumpi\n      mstore(0x00, 0x4e487b7100000000000000000000000000000000000000000000000000000000)\n      mstore(0x04, 0x32)\n      revert(0x00, 0x24)\n    tag_50:\n      swap1\n      0x00\n      mstore\n      keccak256(0x00, 0x20)\n      add\n        /* \"contracts/base/EnumTest.sol\":1073:1093  orders[index].status */\n      0x00\n      add\n      0x14\n        /* \"contracts/base/EnumTest.sol\":1073:1102  orders[index].status = status */\n      0x0100\n      exp\n      dup2\n      sload\n      dup2\n      0xff\n      mul\n      not\n      and\n      swap1\n      dup4\n      0x05\n      dup2\n      gt\n      iszero\n      tag_52\n      jumpi\n      mstore(0x00, 0x4e487b7100000000000000000000000000000000000000000000000000000000)\n      mstore(0x04, 0x21)\n      revert(0x00, 0x24)\n    tag_52:\n      mul\n      or\n      swap1\n      sstore\n      pop\n        /* \"contracts/base/EnumTest.sol\":974:1110  function updateOrderStatus(uint index,OrderStatus status) external checkArrayOut(index) {\r... */\n      pop\n      pop\n      pop\n      jump\t// out\n        /* \"contracts/base/EnumTest.sol\":1267:1380  function restOrderStatus(uint index) external checkArrayOut(index) {\r... */\n    tag_29:\n        /* \"contracts/base/EnumTest.sol\":1327:1332  index */\n      dup1\n        /* \"contracts/base/EnumTest.sol\":783:784  1 */\n      0x01\n        /* \"contracts/base/EnumTest.sol\":767:773  orders */\n      0x00\n        /* \"contracts/base/EnumTest.sol\":767:780  orders.length */\n      dup1\n      sload\n      swap1\n      pop\n        /* \"contracts/base/EnumTest.sol\":767:784  orders.length - 1 */\n      tag_54\n      swap2\n      swap1\n      tag_36\n      jump\t// in\n    tag_54:\n        /* \"contracts/base/EnumTest.sol\":758:763  index */\n      dup2\n        /* \"contracts/base/EnumTest.sol\":758:784  index <= orders.length - 1 */\n      gt\n      iszero\n        /* \"contracts/base/EnumTest.sol\":750:798  require(index <= orders.length - 1, \"array out\") */\n      tag_55\n      jumpi\n      mload(0x40)\n      0x08c379a000000000000000000000000000000000000000000000000000000000\n      dup2\n      mstore\n      0x04\n      add\n      tag_56\n      swap1\n      tag_39\n      jump\t// in\n    tag_56:\n      mload(0x40)\n      dup1\n      swap2\n      sub\n      swap1\n      revert\n    tag_55:\n        /* \"contracts/base/EnumTest.sol\":1352:1358  orders */\n      0x00\n        /* \"contracts/base/EnumTest.sol\":1359:1364  index */\n      dup3\n        /* \"contracts/base/EnumTest.sol\":1352:1365  orders[index] */\n      dup2\n      sload\n      dup2\n      lt\n      tag_58\n      jumpi\n      mstore(0x00, 0x4e487b7100000000000000000000000000000000000000000000000000000000)\n      mstore(0x04, 0x32)\n      revert(0x00, 0x24)\n    tag_58:\n      swap1\n      0x00\n      mstore\n      keccak256(0x00, 0x20)\n      add\n        /* \"contracts/base/EnumTest.sol\":1352:1372  orders[index].status */\n      0x00\n      add\n      0x14\n        /* \"contracts/base/EnumTest.sol\":1345:1372  delete orders[index].status */\n      0x0100\n      exp\n      dup2\n      sload\n      swap1\n      0xff\n      mul\n      not\n      and\n      swap1\n      sstore\n        /* \"contracts/base/EnumTest.sol\":1267:1380  function restOrderStatus(uint index) external checkArrayOut(index) {\r... */\n      pop\n      pop\n      jump\t// out\n        /* \"#utility.yul\":7:146   */\n    tag_61:\n        /* \"#utility.yul\":53:58   */\n      0x00\n        /* \"#utility.yul\":91:97   */\n      dup2\n        /* \"#utility.yul\":78:98   */\n      calldataload\n        /* \"#utility.yul\":69:98   */\n      swap1\n      pop\n        /* \"#utility.yul\":107:140   */\n      tag_63\n        /* \"#utility.yul\":134:139   */\n      dup2\n        /* \"#utility.yul\":107:140   */\n      tag_64\n      jump\t// in\n    tag_63:\n        /* \"#utility.yul\":59:146   */\n      swap3\n      swap2\n      pop\n      pop\n      jump\t// out\n        /* \"#utility.yul\":152:317   */\n    tag_65:\n        /* \"#utility.yul\":211:216   */\n      0x00\n        /* \"#utility.yul\":249:255   */\n      dup2\n        /* \"#utility.yul\":236:256   */\n      calldataload\n        /* \"#utility.yul\":227:256   */\n      swap1\n      pop\n        /* \"#utility.yul\":265:311   */\n      tag_67\n        /* \"#utility.yul\":305:310   */\n      dup2\n        /* \"#utility.yul\":265:311   */\n      tag_68\n      jump\t// in\n    tag_67:\n        /* \"#utility.yul\":217:317   */\n      swap3\n      swap2\n      pop\n      pop\n      jump\t// out\n        /* \"#utility.yul\":323:462   */\n    tag_69:\n        /* \"#utility.yul\":369:374   */\n      0x00\n        /* \"#utility.yul\":407:413   */\n      dup2\n        /* \"#utility.yul\":394:414   */\n      calldataload\n        /* \"#utility.yul\":385:414   */\n      swap1\n      pop\n        /* \"#utility.yul\":423:456   */\n      tag_71\n        /* \"#utility.yul\":450:455   */\n      dup2\n        /* \"#utility.yul\":423:456   */\n      tag_72\n      jump\t// in\n    tag_71:\n        /* \"#utility.yul\":375:462   */\n      swap3\n      swap2\n      pop\n      pop\n      jump\t// out\n        /* \"#utility.yul\":468:901   */\n    tag_10:\n        /* \"#utility.yul\":549:555   */\n      0x00\n        /* \"#utility.yul\":557:563   */\n      dup1\n        /* \"#utility.yul\":606:608   */\n      0x40\n        /* \"#utility.yul\":594:603   */\n      dup4\n        /* \"#utility.yul\":585:592   */\n      dup6\n        /* \"#utility.yul\":581:604   */\n      sub\n        /* \"#utility.yul\":577:609   */\n      slt\n        /* \"#utility.yul\":574:576   */\n      iszero\n      tag_74\n      jumpi\n        /* \"#utility.yul\":622:623   */\n      0x00\n        /* \"#utility.yul\":619:620   */\n      dup1\n        /* \"#utility.yul\":612:624   */\n      revert\n        /* \"#utility.yul\":574:576   */\n    tag_74:\n        /* \"#utility.yul\":665:666   */\n      0x00\n        /* \"#utility.yul\":690:743   */\n      tag_75\n        /* \"#utility.yul\":735:742   */\n      dup6\n        /* \"#utility.yul\":726:732   */\n      dup3\n        /* \"#utility.yul\":715:724   */\n      dup7\n        /* \"#utility.yul\":711:733   */\n      add\n        /* \"#utility.yul\":690:743   */\n      tag_61\n      jump\t// in\n    tag_75:\n        /* \"#utility.yul\":680:743   */\n      swap3\n      pop\n        /* \"#utility.yul\":636:753   */\n      pop\n        /* \"#utility.yul\":792:794   */\n      0x20\n        /* \"#utility.yul\":818:884   */\n      tag_76\n        /* \"#utility.yul\":876:883   */\n      dup6\n        /* \"#utility.yul\":867:873   */\n      dup3\n        /* \"#utility.yul\":856:865   */\n      dup7\n        /* \"#utility.yul\":852:874   */\n      add\n        /* \"#utility.yul\":818:884   */\n      tag_65\n      jump\t// in\n    tag_76:\n        /* \"#utility.yul\":808:884   */\n      swap2\n      pop\n        /* \"#utility.yul\":763:894   */\n      pop\n        /* \"#utility.yul\":564:901   */\n      swap3\n      pop\n      swap3\n      swap1\n      pop\n      jump\t// out\n        /* \"#utility.yul\":907:1169   */\n    tag_14:\n        /* \"#utility.yul\":966:972   */\n      0x00\n        /* \"#utility.yul\":1015:1017   */\n      0x20\n        /* \"#utility.yul\":1003:1012   */\n      dup3\n        /* \"#utility.yul\":994:1001   */\n      dup5\n        /* \"#utility.yul\":990:1013   */\n      sub\n        /* \"#utility.yul\":986:1018   */\n      slt\n        /* \"#utility.yul\":983:985   */\n      iszero\n      tag_78\n      jumpi\n        /* \"#utility.yul\":1031:1032   */\n      0x00\n        /* \"#utility.yul\":1028:1029   */\n      dup1\n        /* \"#utility.yul\":1021:1033   */\n      revert\n        /* \"#utility.yul\":983:985   */\n    tag_78:\n        /* \"#utility.yul\":1074:1075   */\n      0x00\n        /* \"#utility.yul\":1099:1152   */\n      tag_79\n        /* \"#utility.yul\":1144:1151   */\n      dup5\n        /* \"#utility.yul\":1135:1141   */\n      dup3\n        /* \"#utility.yul\":1124:1133   */\n      dup6\n        /* \"#utility.yul\":1120:1142   */\n      add\n        /* \"#utility.yul\":1099:1152   */\n      tag_69\n      jump\t// in\n    tag_79:\n        /* \"#utility.yul\":1089:1152   */\n      swap2\n      pop\n        /* \"#utility.yul\":1045:1162   */\n      pop\n        /* \"#utility.yul\":973:1169   */\n      swap3\n      swap2\n      pop\n      pop\n      jump\t// out\n        /* \"#utility.yul\":1175:1608   */\n    tag_25:\n        /* \"#utility.yul\":1256:1262   */\n      0x00\n        /* \"#utility.yul\":1264:1270   */\n      dup1\n        /* \"#utility.yul\":1313:1315   */\n      0x40\n        /* \"#utility.yul\":1301:1310   */\n      dup4\n        /* \"#utility.yul\":1292:1299   */\n      dup6\n        /* \"#utility.yul\":1288:1311   */\n      sub\n        /* \"#utility.yul\":1284:1316   */\n      slt\n        /* \"#utility.yul\":1281:1283   */\n      iszero\n      tag_81\n      jumpi\n        /* \"#utility.yul\":1329:1330   */\n      0x00\n        /* \"#utility.yul\":1326:1327   */\n      dup1\n        /* \"#utility.yul\":1319:1331   */\n      revert\n        /* \"#utility.yul\":1281:1283   */\n    tag_81:\n        /* \"#utility.yul\":1372:1373   */\n      0x00\n        /* \"#utility.yul\":1397:1450   */\n      tag_82\n        /* \"#utility.yul\":1442:1449   */\n      dup6\n        /* \"#utility.yul\":1433:1439   */\n      dup3\n        /* \"#utility.yul\":1422:1431   */\n      dup7\n        /* \"#utility.yul\":1418:1440   */\n      add\n        /* \"#utility.yul\":1397:1450   */\n      tag_69\n      jump\t// in\n    tag_82:\n        /* \"#utility.yul\":1387:1450   */\n      swap3\n      pop\n        /* \"#utility.yul\":1343:1460   */\n      pop\n        /* \"#utility.yul\":1499:1501   */\n      0x20\n        /* \"#utility.yul\":1525:1591   */\n      tag_83\n        /* \"#utility.yul\":1583:1590   */\n      dup6\n        /* \"#utility.yul\":1574:1580   */\n      dup3\n        /* \"#utility.yul\":1563:1572   */\n      dup7\n        /* \"#utility.yul\":1559:1581   */\n      add\n        /* \"#utility.yul\":1525:1591   */\n      tag_65\n      jump\t// in\n    tag_83:\n        /* \"#utility.yul\":1515:1591   */\n      swap2\n      pop\n        /* \"#utility.yul\":1470:1601   */\n      pop\n        /* \"#utility.yul\":1271:1608   */\n      swap3\n      pop\n      swap3\n      swap1\n      pop\n      jump\t// out\n        /* \"#utility.yul\":1614:1732   */\n    tag_84:\n        /* \"#utility.yul\":1701:1725   */\n      tag_86\n        /* \"#utility.yul\":1719:1724   */\n      dup2\n        /* \"#utility.yul\":1701:1725   */\n      tag_87\n      jump\t// in\n    tag_86:\n        /* \"#utility.yul\":1696:1699   */\n      dup3\n        /* \"#utility.yul\":1689:1726   */\n      mstore\n        /* \"#utility.yul\":1679:1732   */\n      pop\n      pop\n      jump\t// out\n        /* \"#utility.yul\":1738:1891   */\n    tag_88:\n        /* \"#utility.yul\":1836:1884   */\n      tag_90\n        /* \"#utility.yul\":1878:1883   */\n      dup2\n        /* \"#utility.yul\":1836:1884   */\n      tag_91\n      jump\t// in\n    tag_90:\n        /* \"#utility.yul\":1831:1834   */\n      dup3\n        /* \"#utility.yul\":1824:1885   */\n      mstore\n        /* \"#utility.yul\":1814:1891   */\n      pop\n      pop\n      jump\t// out\n        /* \"#utility.yul\":1897:2262   */\n    tag_92:\n        /* \"#utility.yul\":2039:2042   */\n      0x00\n        /* \"#utility.yul\":2060:2126   */\n      tag_94\n        /* \"#utility.yul\":2124:2125   */\n      0x09\n        /* \"#utility.yul\":2119:2122   */\n      dup4\n        /* \"#utility.yul\":2060:2126   */\n      tag_95\n      jump\t// in\n    tag_94:\n        /* \"#utility.yul\":2053:2126   */\n      swap2\n      pop\n        /* \"#utility.yul\":2135:2228   */\n      tag_96\n        /* \"#utility.yul\":2224:2227   */\n      dup3\n        /* \"#utility.yul\":2135:2228   */\n      tag_97\n      jump\t// in\n    tag_96:\n        /* \"#utility.yul\":2253:2255   */\n      0x20\n        /* \"#utility.yul\":2248:2251   */\n      dup3\n        /* \"#utility.yul\":2244:2256   */\n      add\n        /* \"#utility.yul\":2237:2256   */\n      swap1\n      pop\n        /* \"#utility.yul\":2043:2262   */\n      swap2\n      swap1\n      pop\n      jump\t// out\n        /* \"#utility.yul\":2268:2622   */\n    tag_22:\n        /* \"#utility.yul\":2400:2404   */\n      0x00\n        /* \"#utility.yul\":2438:2440   */\n      0x40\n        /* \"#utility.yul\":2427:2436   */\n      dup3\n        /* \"#utility.yul\":2423:2441   */\n      add\n        /* \"#utility.yul\":2415:2441   */\n      swap1\n      pop\n        /* \"#utility.yul\":2451:2522   */\n      tag_99\n        /* \"#utility.yul\":2519:2520   */\n      0x00\n        /* \"#utility.yul\":2508:2517   */\n      dup4\n        /* \"#utility.yul\":2504:2521   */\n      add\n        /* \"#utility.yul\":2495:2501   */\n      dup6\n        /* \"#utility.yul\":2451:2522   */\n      tag_84\n      jump\t// in\n    tag_99:\n        /* \"#utility.yul\":2532:2615   */\n      tag_100\n        /* \"#utility.yul\":2611:2613   */\n      0x20\n        /* \"#utility.yul\":2600:2609   */\n      dup4\n        /* \"#utility.yul\":2596:2614   */\n      add\n        /* \"#utility.yul\":2587:2593   */\n      dup5\n        /* \"#utility.yul\":2532:2615   */\n      tag_88\n      jump\t// in\n    tag_100:\n        /* \"#utility.yul\":2405:2622   */\n      swap4\n      swap3\n      pop\n      pop\n      pop\n      jump\t// out\n        /* \"#utility.yul\":2628:2872   */\n    tag_17:\n        /* \"#utility.yul\":2732:2736   */\n      0x00\n        /* \"#utility.yul\":2770:2772   */\n      0x20\n        /* \"#utility.yul\":2759:2768   */\n      dup3\n        /* \"#utility.yul\":2755:2773   */\n      add\n        /* \"#utility.yul\":2747:2773   */\n      swap1\n      pop\n        /* \"#utility.yul\":2783:2865   */\n      tag_102\n        /* \"#utility.yul\":2862:2863   */\n      0x00\n        /* \"#utility.yul\":2851:2860   */\n      dup4\n        /* \"#utility.yul\":2847:2864   */\n      add\n        /* \"#utility.yul\":2838:2844   */\n      dup5\n        /* \"#utility.yul\":2783:2865   */\n      tag_88\n      jump\t// in\n    tag_102:\n        /* \"#utility.yul\":2737:2872   */\n      swap3\n      swap2\n      pop\n      pop\n      jump\t// out\n        /* \"#utility.yul\":2878:3297   */\n    tag_39:\n        /* \"#utility.yul\":3044:3048   */\n      0x00\n        /* \"#utility.yul\":3082:3084   */\n      0x20\n        /* \"#utility.yul\":3071:3080   */\n      dup3\n        /* \"#utility.yul\":3067:3085   */\n      add\n        /* \"#utility.yul\":3059:3085   */\n      swap1\n      pop\n        /* \"#utility.yul\":3131:3140   */\n      dup2\n        /* \"#utility.yul\":3125:3129   */\n      dup2\n        /* \"#utility.yul\":3121:3141   */\n      sub\n        /* \"#utility.yul\":3117:3118   */\n      0x00\n        /* \"#utility.yul\":3106:3115   */\n      dup4\n        /* \"#utility.yul\":3102:3119   */\n      add\n        /* \"#utility.yul\":3095:3142   */\n      mstore\n        /* \"#utility.yul\":3159:3290   */\n      tag_104\n        /* \"#utility.yul\":3285:3289   */\n      dup2\n        /* \"#utility.yul\":3159:3290   */\n      tag_92\n      jump\t// in\n    tag_104:\n        /* \"#utility.yul\":3151:3290   */\n      swap1\n      pop\n        /* \"#utility.yul\":3049:3297   */\n      swap2\n      swap1\n      pop\n      jump\t// out\n        /* \"#utility.yul\":3303:3472   */\n    tag_95:\n        /* \"#utility.yul\":3387:3398   */\n      0x00\n        /* \"#utility.yul\":3421:3427   */\n      dup3\n        /* \"#utility.yul\":3416:3419   */\n      dup3\n        /* \"#utility.yul\":3409:3428   */\n      mstore\n        /* \"#utility.yul\":3461:3465   */\n      0x20\n        /* \"#utility.yul\":3456:3459   */\n      dup3\n        /* \"#utility.yul\":3452:3466   */\n      add\n        /* \"#utility.yul\":3437:3466   */\n      swap1\n      pop\n        /* \"#utility.yul\":3399:3472   */\n      swap3\n      swap2\n      pop\n      pop\n      jump\t// out\n        /* \"#utility.yul\":3478:3669   */\n    tag_36:\n        /* \"#utility.yul\":3518:3522   */\n      0x00\n        /* \"#utility.yul\":3538:3558   */\n      tag_107\n        /* \"#utility.yul\":3556:3557   */\n      dup3\n        /* \"#utility.yul\":3538:3558   */\n      tag_108\n      jump\t// in\n    tag_107:\n        /* \"#utility.yul\":3533:3558   */\n      swap2\n      pop\n        /* \"#utility.yul\":3572:3592   */\n      tag_109\n        /* \"#utility.yul\":3590:3591   */\n      dup4\n        /* \"#utility.yul\":3572:3592   */\n      tag_108\n      jump\t// in\n    tag_109:\n        /* \"#utility.yul\":3567:3592   */\n      swap3\n      pop\n        /* \"#utility.yul\":3611:3612   */\n      dup3\n        /* \"#utility.yul\":3608:3609   */\n      dup3\n        /* \"#utility.yul\":3605:3613   */\n      lt\n        /* \"#utility.yul\":3602:3604   */\n      iszero\n      tag_110\n      jumpi\n        /* \"#utility.yul\":3616:3634   */\n      tag_111\n      tag_112\n      jump\t// in\n    tag_111:\n        /* \"#utility.yul\":3602:3604   */\n    tag_110:\n        /* \"#utility.yul\":3661:3662   */\n      dup3\n        /* \"#utility.yul\":3658:3659   */\n      dup3\n        /* \"#utility.yul\":3654:3663   */\n      sub\n        /* \"#utility.yul\":3646:3663   */\n      swap1\n      pop\n        /* \"#utility.yul\":3523:3669   */\n      swap3\n      swap2\n      pop\n      pop\n      jump\t// out\n        /* \"#utility.yul\":3675:3771   */\n    tag_87:\n        /* \"#utility.yul\":3712:3719   */\n      0x00\n        /* \"#utility.yul\":3741:3765   */\n      tag_114\n        /* \"#utility.yul\":3759:3764   */\n      dup3\n        /* \"#utility.yul\":3741:3765   */\n      tag_115\n      jump\t// in\n    tag_114:\n        /* \"#utility.yul\":3730:3765   */\n      swap1\n      pop\n        /* \"#utility.yul\":3720:3771   */\n      swap2\n      swap1\n      pop\n      jump\t// out\n        /* \"#utility.yul\":3777:3914   */\n    tag_116:\n        /* \"#utility.yul\":3827:3834   */\n      0x00\n        /* \"#utility.yul\":3856:3861   */\n      dup2\n        /* \"#utility.yul\":3845:3861   */\n      swap1\n      pop\n        /* \"#utility.yul\":3862:3908   */\n      tag_118\n        /* \"#utility.yul\":3902:3907   */\n      dup3\n        /* \"#utility.yul\":3862:3908   */\n      tag_119\n      jump\t// in\n    tag_118:\n        /* \"#utility.yul\":3835:3914   */\n      swap2\n      swap1\n      pop\n      jump\t// out\n        /* \"#utility.yul\":3920:4046   */\n    tag_115:\n        /* \"#utility.yul\":3957:3964   */\n      0x00\n        /* \"#utility.yul\":3997:4039   */\n      0xffffffffffffffffffffffffffffffffffffffff\n        /* \"#utility.yul\":3990:3995   */\n      dup3\n        /* \"#utility.yul\":3986:4040   */\n      and\n        /* \"#utility.yul\":3975:4040   */\n      swap1\n      pop\n        /* \"#utility.yul\":3965:4046   */\n      swap2\n      swap1\n      pop\n      jump\t// out\n        /* \"#utility.yul\":4052:4129   */\n    tag_108:\n        /* \"#utility.yul\":4089:4096   */\n      0x00\n        /* \"#utility.yul\":4118:4123   */\n      dup2\n        /* \"#utility.yul\":4107:4123   */\n      swap1\n      pop\n        /* \"#utility.yul\":4097:4129   */\n      swap2\n      swap1\n      pop\n      jump\t// out\n        /* \"#utility.yul\":4135:4272   */\n    tag_91:\n        /* \"#utility.yul\":4196:4205   */\n      0x00\n        /* \"#utility.yul\":4229:4266   */\n      tag_123\n        /* \"#utility.yul\":4260:4265   */\n      dup3\n        /* \"#utility.yul\":4229:4266   */\n      tag_116\n      jump\t// in\n    tag_123:\n        /* \"#utility.yul\":4216:4266   */\n      swap1\n      pop\n        /* \"#utility.yul\":4206:4272   */\n      swap2\n      swap1\n      pop\n      jump\t// out\n        /* \"#utility.yul\":4278:4458   */\n    tag_112:\n        /* \"#utility.yul\":4326:4403   */\n      0x4e487b7100000000000000000000000000000000000000000000000000000000\n        /* \"#utility.yul\":4323:4324   */\n      0x00\n        /* \"#utility.yul\":4316:4404   */\n      mstore\n        /* \"#utility.yul\":4423:4427   */\n      0x11\n        /* \"#utility.yul\":4420:4421   */\n      0x04\n        /* \"#utility.yul\":4413:4428   */\n      mstore\n        /* \"#utility.yul\":4447:4451   */\n      0x24\n        /* \"#utility.yul\":4444:4445   */\n      0x00\n        /* \"#utility.yul\":4437:4452   */\n      revert\n        /* \"#utility.yul\":4464:4644   */\n    tag_125:\n        /* \"#utility.yul\":4512:4589   */\n      0x4e487b7100000000000000000000000000000000000000000000000000000000\n        /* \"#utility.yul\":4509:4510   */\n      0x00\n        /* \"#utility.yul\":4502:4590   */\n      mstore\n        /* \"#utility.yul\":4609:4613   */\n      0x21\n        /* \"#utility.yul\":4606:4607   */\n      0x04\n        /* \"#utility.yul\":4599:4614   */\n      mstore\n        /* \"#utility.yul\":4633:4637   */\n      0x24\n        /* \"#utility.yul\":4630:4631   */\n      0x00\n        /* \"#utility.yul\":4623:4638   */\n      revert\n        /* \"#utility.yul\":4650:4809   */\n    tag_97:\n        /* \"#utility.yul\":4790:4801   */\n      0x6172726179206f75740000000000000000000000000000000000000000000000\n        /* \"#utility.yul\":4786:4787   */\n      0x00\n        /* \"#utility.yul\":4778:4784   */\n      dup3\n        /* \"#utility.yul\":4774:4788   */\n      add\n        /* \"#utility.yul\":4767:4802   */\n      mstore\n        /* \"#utility.yul\":4756:4809   */\n      pop\n      jump\t// out\n        /* \"#utility.yul\":4815:4933   */\n    tag_119:\n        /* \"#utility.yul\":4901:4902   */\n      0x06\n        /* \"#utility.yul\":4894:4899   */\n      dup2\n        /* \"#utility.yul\":4891:4903   */\n      lt\n        /* \"#utility.yul\":4881:4883   */\n      tag_129\n      jumpi\n        /* \"#utility.yul\":4907:4925   */\n      tag_130\n      tag_125\n      jump\t// in\n    tag_130:\n        /* \"#utility.yul\":4881:4883   */\n    tag_129:\n        /* \"#utility.yul\":4871:4933   */\n      pop\n      jump\t// out\n        /* \"#utility.yul\":4939:5061   */\n    tag_64:\n        /* \"#utility.yul\":5012:5036   */\n      tag_132\n        /* \"#utility.yul\":5030:5035   */\n      dup2\n        /* \"#utility.yul\":5012:5036   */\n      tag_87\n      jump\t// in\n    tag_132:\n        /* \"#utility.yul\":5005:5010   */\n      dup2\n        /* \"#utility.yul\":5002:5037   */\n      eq\n        /* \"#utility.yul\":4992:4994   */\n      tag_133\n      jumpi\n        /* \"#utility.yul\":5051:5052   */\n      0x00\n        /* \"#utility.yul\":5048:5049   */\n      dup1\n        /* \"#utility.yul\":5041:5053   */\n      revert\n        /* \"#utility.yul\":4992:4994   */\n    tag_133:\n        /* \"#utility.yul\":4982:5061   */\n      pop\n      jump\t// out\n        /* \"#utility.yul\":5067:5179   */\n    tag_68:\n        /* \"#utility.yul\":5153:5154   */\n      0x06\n        /* \"#utility.yul\":5146:5151   */\n      dup2\n        /* \"#utility.yul\":5143:5155   */\n      lt\n        /* \"#utility.yul\":5133:5135   */\n      tag_135\n      jumpi\n        /* \"#utility.yul\":5169:5170   */\n      0x00\n        /* \"#utility.yul\":5166:5167   */\n      dup1\n        /* \"#utility.yul\":5159:5171   */\n      revert\n        /* \"#utility.yul\":5133:5135   */\n    tag_135:\n        /* \"#utility.yul\":5123:5179   */\n      pop\n      jump\t// out\n        /* \"#utility.yul\":5185:5307   */\n    tag_72:\n        /* \"#utility.yul\":5258:5282   */\n      tag_137\n        /* \"#utility.yul\":5276:5281   */\n      dup2\n        /* \"#utility.yul\":5258:5282   */\n      tag_108\n      jump\t// in\n    tag_137:\n        /* \"#utility.yul\":5251:5256   */\n      dup2\n        /* \"#utility.yul\":5248:5283   */\n      eq\n        /* \"#utility.yul\":5238:5240   */\n      tag_138\n      jumpi\n        /* \"#utility.yul\":5297:5298   */\n      0x00\n        /* \"#utility.yul\":5294:5295   */\n      dup1\n        /* \"#utility.yul\":5287:5299   */\n      revert\n        /* \"#utility.yul\":5238:5240   */\n    tag_138:\n        /* \"#utility.yul\":5228:5307   */\n      pop\n      jump\t// out\n\n    auxdata: 0xa264697066735822122025b7f28036ecf2ed3d08c3e48f589a2a53aa666ea6fb173b9b5b3de14d2527be64736f6c63430008040033\n}\n",
				"bytecode": {
					"linkReferences": {},
					"object": "608060405234801561001057600080fd5b50610828806100206000396000f3fe608060405234801561001057600080fd5b50600436106100575760003560e01c806306c9a8271461005c57806345fa8aae14610078578063a85c38ef146100a8578063aab3196d146100d9578063d07548da146100f5575b600080fd5b6100766004803603810190610071919061052d565b610111565b005b610092600480360381019061008d9190610569565b61023e565b60405161009f9190610638565b60405180910390f35b6100c260048036038101906100bd9190610569565b6102f2565b6040516100d092919061060f565b60405180910390f35b6100f360048036038101906100ee9190610592565b61034f565b005b61010f600480360381019061010a9190610569565b61043e565b005b600060405180604001604052808473ffffffffffffffffffffffffffffffffffffffff168152602001836005811115610173577f4e487b7100000000000000000000000000000000000000000000000000000000600052602160045260246000fd5b8152509080600181540180825580915050600190039060005260206000200160009091909190915060008201518160000160006101000a81548173ffffffffffffffffffffffffffffffffffffffff021916908373ffffffffffffffffffffffffffffffffffffffff16021790555060208201518160000160146101000a81548160ff02191690836005811115610233577f4e487b7100000000000000000000000000000000000000000000000000000000600052602160045260246000fd5b021790555050505050565b60008160016000805490506102539190610684565b811115610295576040517f08c379a000000000000000000000000000000000000000000000000000000000815260040161028c90610653565b60405180910390fd5b600083815481106102cf577f4e487b7100000000000000000000000000000000000000000000000000000000600052603260045260246000fd5b9060005260206000200160000160149054906101000a900460ff16915050919050565b6000818154811061030257600080fd5b906000526020600020016000915090508060000160009054906101000a900473ffffffffffffffffffffffffffffffffffffffff16908060000160149054906101000a900460ff16905082565b8160016000805490506103629190610684565b8111156103a4576040517f08c379a000000000000000000000000000000000000000000000000000000000815260040161039b90610653565b60405180910390fd5b81600084815481106103df577f4e487b7100000000000000000000000000000000000000000000000000000000600052603260045260246000fd5b9060005260206000200160000160146101000a81548160ff02191690836005811115610434577f4e487b7100000000000000000000000000000000000000000000000000000000600052602160045260246000fd5b0217905550505050565b8060016000805490506104519190610684565b811115610493576040517f08c379a000000000000000000000000000000000000000000000000000000000815260040161048a90610653565b60405180910390fd5b600082815481106104cd577f4e487b7100000000000000000000000000000000000000000000000000000000600052603260045260246000fd5b9060005260206000200160000160146101000a81549060ff02191690555050565b6000813590506104fd816107b4565b92915050565b600081359050610512816107cb565b92915050565b600081359050610527816107db565b92915050565b6000806040838503121561054057600080fd5b600061054e858286016104ee565b925050602061055f85828601610503565b9150509250929050565b60006020828403121561057b57600080fd5b600061058984828501610518565b91505092915050565b600080604083850312156105a557600080fd5b60006105b385828601610518565b92505060206105c485828601610503565b9150509250929050565b6105d7816106b8565b82525050565b6105e681610707565b82525050565b60006105f9600983610673565b915061060482610777565b602082019050919050565b600060408201905061062460008301856105ce565b61063160208301846105dd565b9392505050565b600060208201905061064d60008301846105dd565b92915050565b6000602082019050818103600083015261066c816105ec565b9050919050565b600082825260208201905092915050565b600061068f826106fd565b915061069a836106fd565b9250828210156106ad576106ac610719565b5b828203905092915050565b60006106c3826106dd565b9050919050565b60008190506106d8826107a0565b919050565b600073ffffffffffffffffffffffffffffffffffffffff82169050919050565b6000819050919050565b6000610712826106ca565b9050919050565b7f4e487b7100000000000000000000000000000000000000000000000000000000600052601160045260246000fd5b7f4e487b7100000000000000000000000000000000000000000000000000000000600052602160045260246000fd5b7f6172726179206f75740000000000000000000000000000000000000000000000600082015250565b600681106107b1576107b0610748565b5b50565b6107bd816106b8565b81146107c857600080fd5b50565b600681106107d857600080fd5b50565b6107e4816106fd565b81146107ef57600080fd5b5056fea264697066735822122025b7f28036ecf2ed3d08c3e48f589a2a53aa666ea6fb173b9b5b3de14d2527be64736f6c63430008040033",
					"opcodes": "PUSH1 0x80 PUSH1 0x40 MSTORE CALLVALUE DUP1 ISZERO PUSH2 0x10 JUMPI PUSH1 0x0 DUP1 REVERT JUMPDEST POP PUSH2 0x828 DUP1 PUSH2 0x20 PUSH1 0x0 CODECOPY PUSH1 0x0 RETURN INVALID PUSH1 0x80 PUSH1 0x40 MSTORE CALLVALUE DUP1 ISZERO PUSH2 0x10 JUMPI PUSH1 0x0 DUP1 REVERT JUMPDEST POP PUSH1 0x4 CALLDATASIZE LT PUSH2 0x57 JUMPI PUSH1 0x0 CALLDATALOAD PUSH1 0xE0 SHR DUP1 PUSH4 0x6C9A827 EQ PUSH2 0x5C JUMPI DUP1 PUSH4 0x45FA8AAE EQ PUSH2 0x78 JUMPI DUP1 PUSH4 0xA85C38EF EQ PUSH2 0xA8 JUMPI DUP1 PUSH4 0xAAB3196D EQ PUSH2 0xD9 JUMPI DUP1 PUSH4 0xD07548DA EQ PUSH2 0xF5 JUMPI JUMPDEST PUSH1 0x0 DUP1 REVERT JUMPDEST PUSH2 0x76 PUSH1 0x4 DUP1 CALLDATASIZE SUB DUP2 ADD SWAP1 PUSH2 0x71 SWAP2 SWAP1 PUSH2 0x52D JUMP JUMPDEST PUSH2 0x111 JUMP JUMPDEST STOP JUMPDEST PUSH2 0x92 PUSH1 0x4 DUP1 CALLDATASIZE SUB DUP2 ADD SWAP1 PUSH2 0x8D SWAP2 SWAP1 PUSH2 0x569 JUMP JUMPDEST PUSH2 0x23E JUMP JUMPDEST PUSH1 0x40 MLOAD PUSH2 0x9F SWAP2 SWAP1 PUSH2 0x638 JUMP JUMPDEST PUSH1 0x40 MLOAD DUP1 SWAP2 SUB SWAP1 RETURN JUMPDEST PUSH2 0xC2 PUSH1 0x4 DUP1 CALLDATASIZE SUB DUP2 ADD SWAP1 PUSH2 0xBD SWAP2 SWAP1 PUSH2 0x569 JUMP JUMPDEST PUSH2 0x2F2 JUMP JUMPDEST PUSH1 0x40 MLOAD PUSH2 0xD0 SWAP3 SWAP2 SWAP1 PUSH2 0x60F JUMP JUMPDEST PUSH1 0x40 MLOAD DUP1 SWAP2 SUB SWAP1 RETURN JUMPDEST PUSH2 0xF3 PUSH1 0x4 DUP1 CALLDATASIZE SUB DUP2 ADD SWAP1 PUSH2 0xEE SWAP2 SWAP1 PUSH2 0x592 JUMP JUMPDEST PUSH2 0x34F JUMP JUMPDEST STOP JUMPDEST PUSH2 0x10F PUSH1 0x4 DUP1 CALLDATASIZE SUB DUP2 ADD SWAP1 PUSH2 0x10A SWAP2 SWAP1 PUSH2 0x569 JUMP JUMPDEST PUSH2 0x43E JUMP JUMPDEST STOP JUMPDEST PUSH1 0x0 PUSH1 0x40 MLOAD DUP1 PUSH1 0x40 ADD PUSH1 0x40 MSTORE DUP1 DUP5 PUSH20 0xFFFFFFFFFFFFFFFFFFFFFFFFFFFFFFFFFFFFFFFF AND DUP2 MSTORE PUSH1 0x20 ADD DUP4 PUSH1 0x5 DUP2 GT ISZERO PUSH2 0x173 JUMPI PUSH32 0x4E487B7100000000000000000000000000000000000000000000000000000000 PUSH1 0x0 MSTORE PUSH1 0x21 PUSH1 0x4 MSTORE PUSH1 0x24 PUSH1 0x0 REVERT JUMPDEST DUP2 MSTORE POP SWAP1 DUP1 PUSH1 0x1 DUP2 SLOAD ADD DUP1 DUP3 SSTORE DUP1 SWAP2 POP POP PUSH1 0x1 SWAP1 SUB SWAP1 PUSH1 0x0 MSTORE PUSH1 0x20 PUSH1 0x0 KECCAK256 ADD PUSH1 0x0 SWAP1 SWAP2 SWAP1 SWAP2 SWAP1 SWAP2 POP PUSH1 0x0 DUP3 ADD MLOAD DUP2 PUSH1 0x0 ADD PUSH1 0x0 PUSH2 0x100 EXP DUP2 SLOAD DUP2 PUSH20 0xFFFFFFFFFFFFFFFFFFFFFFFFFFFFFFFFFFFFFFFF MUL NOT AND SWAP1 DUP4 PUSH20 0xFFFFFFFFFFFFFFFFFFFFFFFFFFFFFFFFFFFFFFFF AND MUL OR SWAP1 SSTORE POP PUSH1 0x20 DUP3 ADD MLOAD DUP2 PUSH1 0x0 ADD PUSH1 0x14 PUSH2 0x100 EXP DUP2 SLOAD DUP2 PUSH1 0xFF MUL NOT AND SWAP1 DUP4 PUSH1 0x5 DUP2 GT ISZERO PUSH2 0x233 JUMPI PUSH32 0x4E487B7100000000000000000000000000000000000000000000000000000000 PUSH1 0x0 MSTORE PUSH1 0x21 PUSH1 0x4 MSTORE PUSH1 0x24 PUSH1 0x0 REVERT JUMPDEST MUL OR SWAP1 SSTORE POP POP POP POP POP JUMP JUMPDEST PUSH1 0x0 DUP2 PUSH1 0x1 PUSH1 0x0 DUP1 SLOAD SWAP1 POP PUSH2 0x253 SWAP2 SWAP1 PUSH2 0x684 JUMP JUMPDEST DUP2 GT ISZERO PUSH2 0x295 JUMPI PUSH1 0x40 MLOAD PUSH32 0x8C379A000000000000000000000000000000000000000000000000000000000 DUP2 MSTORE PUSH1 0x4 ADD PUSH2 0x28C SWAP1 PUSH2 0x653 JUMP JUMPDEST PUSH1 0x40 MLOAD DUP1 SWAP2 SUB SWAP1 REVERT JUMPDEST PUSH1 0x0 DUP4 DUP2 SLOAD DUP2 LT PUSH2 0x2CF JUMPI PUSH32 0x4E487B7100000000000000000000000000000000000000000000000000000000 PUSH1 0x0 MSTORE PUSH1 0x32 PUSH1 0x4 MSTORE PUSH1 0x24 PUSH1 0x0 REVERT JUMPDEST SWAP1 PUSH1 0x0 MSTORE PUSH1 0x20 PUSH1 0x0 KECCAK256 ADD PUSH1 0x0 ADD PUSH1 0x14 SWAP1 SLOAD SWAP1 PUSH2 0x100 EXP SWAP1 DIV PUSH1 0xFF AND SWAP2 POP POP SWAP2 SWAP1 POP JUMP JUMPDEST PUSH1 0x0 DUP2 DUP2 SLOAD DUP2 LT PUSH2 0x302 JUMPI PUSH1 0x0 DUP1 REVERT JUMPDEST SWAP1 PUSH1 0x0 MSTORE PUSH1 0x20 PUSH1 0x0 KECCAK256 ADD PUSH1 0x0 SWAP2 POP SWAP1 POP DUP1 PUSH1 0x0 ADD PUSH1 0x0 SWAP1 SLOAD SWAP1 PUSH2 0x100 EXP SWAP1 DIV PUSH20 0xFFFFFFFFFFFFFFFFFFFFFFFFFFFFFFFFFFFFFFFF AND SWAP1 DUP1 PUSH1 0x0 ADD PUSH1 0x14 SWAP1 SLOAD SWAP1 PUSH2 0x100 EXP SWAP1 DIV PUSH1 0xFF AND SWAP1 POP DUP3 JUMP JUMPDEST DUP2 PUSH1 0x1 PUSH1 0x0 DUP1 SLOAD SWAP1 POP PUSH2 0x362 SWAP2 SWAP1 PUSH2 0x684 JUMP JUMPDEST DUP2 GT ISZERO PUSH2 0x3A4 JUMPI PUSH1 0x40 MLOAD PUSH32 0x8C379A000000000000000000000000000000000000000000000000000000000 DUP2 MSTORE PUSH1 0x4 ADD PUSH2 0x39B SWAP1 PUSH2 0x653 JUMP JUMPDEST PUSH1 0x40 MLOAD DUP1 SWAP2 SUB SWAP1 REVERT JUMPDEST DUP2 PUSH1 0x0 DUP5 DUP2 SLOAD DUP2 LT PUSH2 0x3DF JUMPI PUSH32 0x4E487B7100000000000000000000000000000000000000000000000000000000 PUSH1 0x0 MSTORE PUSH1 0x32 PUSH1 0x4 MSTORE PUSH1 0x24 PUSH1 0x0 REVERT JUMPDEST SWAP1 PUSH1 0x0 MSTORE PUSH1 0x20 PUSH1 0x0 KECCAK256 ADD PUSH1 0x0 ADD PUSH1 0x14 PUSH2 0x100 EXP DUP2 SLOAD DUP2 PUSH1 0xFF MUL NOT AND SWAP1 DUP4 PUSH1 0x5 DUP2 GT ISZERO PUSH2 0x434 JUMPI PUSH32 0x4E487B7100000000000000000000000000000000000000000000000000000000 PUSH1 0x0 MSTORE PUSH1 0x21 PUSH1 0x4 MSTORE PUSH1 0x24 PUSH1 0x0 REVERT JUMPDEST MUL OR SWAP1 SSTORE POP POP POP POP JUMP JUMPDEST DUP1 PUSH1 0x1 PUSH1 0x0 DUP1 SLOAD SWAP1 POP PUSH2 0x451 SWAP2 SWAP1 PUSH2 0x684 JUMP JUMPDEST DUP2 GT ISZERO PUSH2 0x493 JUMPI PUSH1 0x40 MLOAD PUSH32 0x8C379A000000000000000000000000000000000000000000000000000000000 DUP2 MSTORE PUSH1 0x4 ADD PUSH2 0x48A SWAP1 PUSH2 0x653 JUMP JUMPDEST PUSH1 0x40 MLOAD DUP1 SWAP2 SUB SWAP1 REVERT JUMPDEST PUSH1 0x0 DUP3 DUP2 SLOAD DUP2 LT PUSH2 0x4CD JUMPI PUSH32 0x4E487B7100000000000000000000000000000000000000000000000000000000 PUSH1 0x0 MSTORE PUSH1 0x32 PUSH1 0x4 MSTORE PUSH1 0x24 PUSH1 0x0 REVERT JUMPDEST SWAP1 PUSH1 0x0 MSTORE PUSH1 0x20 PUSH1 0x0 KECCAK256 ADD PUSH1 0x0 ADD PUSH1 0x14 PUSH2 0x100 EXP DUP2 SLOAD SWAP1 PUSH1 0xFF MUL NOT AND SWAP1 SSTORE POP POP JUMP JUMPDEST PUSH1 0x0 DUP2 CALLDATALOAD SWAP1 POP PUSH2 0x4FD DUP2 PUSH2 0x7B4 JUMP JUMPDEST SWAP3 SWAP2 POP POP JUMP JUMPDEST PUSH1 0x0 DUP2 CALLDATALOAD SWAP1 POP PUSH2 0x512 DUP2 PUSH2 0x7CB JUMP JUMPDEST SWAP3 SWAP2 POP POP JUMP JUMPDEST PUSH1 0x0 DUP2 CALLDATALOAD SWAP1 POP PUSH2 0x527 DUP2 PUSH2 0x7DB JUMP JUMPDEST SWAP3 SWAP2 POP POP JUMP JUMPDEST PUSH1 0x0 DUP1 PUSH1 0x40 DUP4 DUP6 SUB SLT ISZERO PUSH2 0x540 JUMPI PUSH1 0x0 DUP1 REVERT JUMPDEST PUSH1 0x0 PUSH2 0x54E DUP6 DUP3 DUP7 ADD PUSH2 0x4EE JUMP JUMPDEST SWAP3 POP POP PUSH1 0x20 PUSH2 0x55F DUP6 DUP3 DUP7 ADD PUSH2 0x503 JUMP JUMPDEST SWAP2 POP POP SWAP3 POP SWAP3 SWAP1 POP JUMP JUMPDEST PUSH1 0x0 PUSH1 0x20 DUP3 DUP5 SUB SLT ISZERO PUSH2 0x57B JUMPI PUSH1 0x0 DUP1 REVERT JUMPDEST PUSH1 0x0 PUSH2 0x589 DUP5 DUP3 DUP6 ADD PUSH2 0x518 JUMP JUMPDEST SWAP2 POP POP SWAP3 SWAP2 POP POP JUMP JUMPDEST PUSH1 0x0 DUP1 PUSH1 0x40 DUP4 DUP6 SUB SLT ISZERO PUSH2 0x5A5 JUMPI PUSH1 0x0 DUP1 REVERT JUMPDEST PUSH1 0x0 PUSH2 0x5B3 DUP6 DUP3 DUP7 ADD PUSH2 0x518 JUMP JUMPDEST SWAP3 POP POP PUSH1 0x20 PUSH2 0x5C4 DUP6 DUP3 DUP7 ADD PUSH2 0x503 JUMP JUMPDEST SWAP2 POP POP SWAP3 POP SWAP3 SWAP1 POP JUMP JUMPDEST PUSH2 0x5D7 DUP2 PUSH2 0x6B8 JUMP JUMPDEST DUP3 MSTORE POP POP JUMP JUMPDEST PUSH2 0x5E6 DUP2 PUSH2 0x707 JUMP JUMPDEST DUP3 MSTORE POP POP JUMP JUMPDEST PUSH1 0x0 PUSH2 0x5F9 PUSH1 0x9 DUP4 PUSH2 0x673 JUMP JUMPDEST SWAP2 POP PUSH2 0x604 DUP3 PUSH2 0x777 JUMP JUMPDEST PUSH1 0x20 DUP3 ADD SWAP1 POP SWAP2 SWAP1 POP JUMP JUMPDEST PUSH1 0x0 PUSH1 0x40 DUP3 ADD SWAP1 POP PUSH2 0x624 PUSH1 0x0 DUP4 ADD DUP6 PUSH2 0x5CE JUMP JUMPDEST PUSH2 0x631 PUSH1 0x20 DUP4 ADD DUP5 PUSH2 0x5DD JUMP JUMPDEST SWAP4 SWAP3 POP POP POP JUMP JUMPDEST PUSH1 0x0 PUSH1 0x20 DUP3 ADD SWAP1 POP PUSH2 0x64D PUSH1 0x0 DUP4 ADD DUP5 PUSH2 0x5DD JUMP JUMPDEST SWAP3 SWAP2 POP POP JUMP JUMPDEST PUSH1 0x0 PUSH1 0x20 DUP3 ADD SWAP1 POP DUP2 DUP2 SUB PUSH1 0x0 DUP4 ADD MSTORE PUSH2 0x66C DUP2 PUSH2 0x5EC JUMP JUMPDEST SWAP1 POP SWAP2 SWAP1 POP JUMP JUMPDEST PUSH1 0x0 DUP3 DUP3 MSTORE PUSH1 0x20 DUP3 ADD SWAP1 POP SWAP3 SWAP2 POP POP JUMP JUMPDEST PUSH1 0x0 PUSH2 0x68F DUP3 PUSH2 0x6FD JUMP JUMPDEST SWAP2 POP PUSH2 0x69A DUP4 PUSH2 0x6FD JUMP JUMPDEST SWAP3 POP DUP3 DUP3 LT ISZERO PUSH2 0x6AD JUMPI PUSH2 0x6AC PUSH2 0x719 JUMP JUMPDEST JUMPDEST DUP3 DUP3 SUB SWAP1 POP SWAP3 SWAP2 POP POP JUMP JUMPDEST PUSH1 0x0 PUSH2 0x6C3 DUP3 PUSH2 0x6DD JUMP JUMPDEST SWAP1 POP SWAP2 SWAP1 POP JUMP JUMPDEST PUSH1 0x0 DUP2 SWAP1 POP PUSH2 0x6D8 DUP3 PUSH2 0x7A0 JUMP JUMPDEST SWAP2 SWAP1 POP JUMP JUMPDEST PUSH1 0x0 PUSH20 0xFFFFFFFFFFFFFFFFFFFFFFFFFFFFFFFFFFFFFFFF DUP3 AND SWAP1 POP SWAP2 SWAP1 POP JUMP JUMPDEST PUSH1 0x0 DUP2 SWAP1 POP SWAP2 SWAP1 POP JUMP JUMPDEST PUSH1 0x0 PUSH2 0x712 DUP3 PUSH2 0x6CA JUMP JUMPDEST SWAP1 POP SWAP2 SWAP1 POP JUMP JUMPDEST PUSH32 0x4E487B7100000000000000000000000000000000000000000000000000000000 PUSH1 0x0 MSTORE PUSH1 0x11 PUSH1 0x4 MSTORE PUSH1 0x24 PUSH1 0x0 REVERT JUMPDEST PUSH32 0x4E487B7100000000000000000000000000000000000000000000000000000000 PUSH1 0x0 MSTORE PUSH1 0x21 PUSH1 0x4 MSTORE PUSH1 0x24 PUSH1 0x0 REVERT JUMPDEST PUSH32 0x6172726179206F75740000000000000000000000000000000000000000000000 PUSH1 0x0 DUP3 ADD MSTORE POP JUMP JUMPDEST PUSH1 0x6 DUP2 LT PUSH2 0x7B1 JUMPI PUSH2 0x7B0 PUSH2 0x748 JUMP JUMPDEST JUMPDEST POP JUMP JUMPDEST PUSH2 0x7BD DUP2 PUSH2 0x6B8 JUMP JUMPDEST DUP2 EQ PUSH2 0x7C8 JUMPI PUSH1 0x0 DUP1 REVERT JUMPDEST POP JUMP JUMPDEST PUSH1 0x6 DUP2 LT PUSH2 0x7D8 JUMPI PUSH1 0x0 DUP1 REVERT JUMPDEST POP JUMP JUMPDEST PUSH2 0x7E4 DUP2 PUSH2 0x6FD JUMP JUMPDEST DUP2 EQ PUSH2 0x7EF JUMPI PUSH1 0x0 DUP1 REVERT JUMPDEST POP JUMP INVALID LOG2 PUSH5 0x6970667358 0x22 SLT KECCAK256 0x25 0xB7 CALLCODE DUP1 CALLDATASIZE 0xEC CALLCODE 0xED RETURNDATASIZE ADDMOD 0xC3 0xE4 DUP16 PC SWAP11 0x2A MSTORE8 0xAA PUSH7 0x6EA6FB173B9B5B RETURNDATASIZE 0xE1 0x4D 0x25 0x27 0xBE PUSH5 0x736F6C6343 STOP ADDMOD DIV STOP CALLER "
				},
				"gasEstimates": {
					"creation": {
						"codeDepositCost": "417600",
						"executionCost": "455",
						"totalCost": "418055"
					},
					"external": {
						"addOrder(address,uint8)": "63412",
						"getOrderStatus(uint256)": "infinite",
						"orders(uint256)": "3496",
						"restOrderStatus(uint256)": "infinite",
						"updateOrderStatus(uint256,uint8)": "infinite"
					}
				},
				"methodIdentifiers": {
					"addOrder(address,uint8)": "06c9a827",
					"getOrderStatus(uint256)": "45fa8aae",
					"orders(uint256)": "a85c38ef",
					"restOrderStatus(uint256)": "d07548da",
					"updateOrderStatus(uint256,uint8)": "aab3196d"
				}
			},
			"storageLayout": {
				"storage": [
					{
						"astId": 35,
						"contract": "contracts/base/EnumTest.sol:EnumTest",
						"label": "orders",
						"offset": 0,
						"slot": "0",
						"type": "t_array(t_struct(Order)15_storage)dyn_storage"
					}
				],
				"types": {
					"t_address": {
						"encoding": "inplace",
						"label": "address",
						"numberOfBytes": "20"
					},
					"t_array(t_struct(Order)15_storage)dyn_storage": {
						"base": "t_struct(Order)15_storage",
						"encoding": "dynamic_array",
						"label": "struct EnumTest.Order[]",
						"numberOfBytes": "32"
					},
					"t_enum(OrderStatus)9": {
						"encoding": "inplace",
						"label": "enum EnumTest.OrderStatus",
						"numberOfBytes": "1"
					},
					"t_struct(Order)15_storage": {
						"encoding": "inplace",
						"label": "struct EnumTest.Order",
						"members": [
							{
								"astId": 11,
								"contract": "contracts/base/EnumTest.sol:EnumTest",
								"label": "addr",
								"offset": 0,
								"slot": "0",
								"type": "t_address"
							},
							{
								"astId": 14,
								"contract": "contracts/base/EnumTest.sol:EnumTest",
								"label": "status",
								"offset": 20,
								"slot": "0",
								"type": "t_enum(OrderStatus)9"
							}
						],
						"numberOfBytes": "32"
					}
				}
			},
			"userdoc": {
				"kind": "user",
				"methods": {},
				"notice": "任务：编写⼀个Solidity智能合约，实现⼀个简单的订单处理系统。 ◦ 声明⼀个名为 OrderStatus 的枚举，包括状态： None , Pending , Shipped , Completed ,Rejected , Cancelled 。 ◦ 创建⼀个结构体 Order ，包含买家地址和订单状态。 ◦ 实现功能： i. 添加新订单到数组。 ii. 更新订单状态。 iii. 获取特定订单的状态。 iv. 重置订单状态到默认值。",
				"version": 1
			}
		}
	}
}