{
	"contracts/base/VisibilityBase.sol": {
		"B": {
			"abi": [
				{
					"inputs": [],
					"name": "externalFunc",
					"outputs": [
						{
							"internalType": "string",
							"name": "",
							"type": "string"
						}
					],
					"stateMutability": "pure",
					"type": "function"
				},
				{
					"inputs": [],
					"name": "publicFunc",
					"outputs": [
						{
							"internalType": "string",
							"name": "",
							"type": "string"
						}
					],
					"stateMutability": "pure",
					"type": "function"
				},
				{
					"inputs": [],
					"name": "publicVar",
					"outputs": [
						{
							"internalType": "uint256",
							"name": "",
							"type": "uint256"
						}
					],
					"stateMutability": "view",
					"type": "function"
				},
				{
					"inputs": [],
					"name": "test1",
					"outputs": [],
					"stateMutability": "view",
					"type": "function"
				},
				{
					"inputs": [],
					"name": "testFunc",
					"outputs": [],
					"stateMutability": "view",
					"type": "function"
				}
			],
			"devdoc": {
				"kind": "dev",
				"methods": {},
				"version": 1
			},
			"evm": {
				"assembly": "    /* \"contracts/base/VisibilityBase.sol\":849:1066  contract B is VisibilityBase{\r... */\n  mstore(0x40, 0x80)\n    /* \"contracts/base/VisibilityBase.sol\":143:144  1 */\n  0x01\n    /* \"contracts/base/VisibilityBase.sol\":116:144  uint private  privateVar = 1 */\n  0x00\n  sstore\n    /* \"contracts/base/VisibilityBase.sol\":180:181  2 */\n  0x02\n    /* \"contracts/base/VisibilityBase.sol\":151:181  uint internal  internalVar = 2 */\n  0x01\n  sstore\n    /* \"contracts/base/VisibilityBase.sol\":213:214  3 */\n  0x03\n    /* \"contracts/base/VisibilityBase.sol\":188:214  uint public  publicVar = 3 */\n  0x02\n  sstore\n    /* \"contracts/base/VisibilityBase.sol\":849:1066  contract B is VisibilityBase{\r... */\n  callvalue\n  dup1\n  iszero\n  tag_1\n  jumpi\n  0x00\n  dup1\n  revert\ntag_1:\n  pop\n  dataSize(sub_0)\n  dup1\n  dataOffset(sub_0)\n  0x00\n  codecopy\n  0x00\n  return\nstop\n\nsub_0: assembly {\n        /* \"contracts/base/VisibilityBase.sol\":849:1066  contract B is VisibilityBase{\r... */\n      mstore(0x40, 0x80)\n      callvalue\n      dup1\n      iszero\n      tag_1\n      jumpi\n      0x00\n      dup1\n      revert\n    tag_1:\n      pop\n      jumpi(tag_2, lt(calldatasize, 0x04))\n      shr(0xe0, calldataload(0x00))\n      dup1\n      0x037a417c\n      eq\n      tag_3\n      jumpi\n      dup1\n      0x1151fad8\n      eq\n      tag_4\n      jumpi\n      dup1\n      0x42b148aa\n      eq\n      tag_5\n      jumpi\n      dup1\n      0x4b73383f\n      eq\n      tag_6\n      jumpi\n      dup1\n      0x6b59084d\n      eq\n      tag_7\n      jumpi\n    tag_2:\n      0x00\n      dup1\n      revert\n        /* \"contracts/base/VisibilityBase.sol\":669:834  function testFunc() public view{\r... */\n    tag_3:\n      tag_8\n      tag_9\n      jump\t// in\n    tag_8:\n      stop\n        /* \"contracts/base/VisibilityBase.sol\":188:214  uint public  publicVar = 3 */\n    tag_4:\n      tag_10\n      tag_11\n      jump\t// in\n    tag_10:\n      mload(0x40)\n      tag_12\n      swap2\n      swap1\n      tag_13\n      jump\t// in\n    tag_12:\n      mload(0x40)\n      dup1\n      swap2\n      sub\n      swap1\n      return\n        /* \"contracts/base/VisibilityBase.sol\":558:661  function externalFunc() external pure returns (string memory) {\r... */\n    tag_5:\n      tag_14\n      tag_15\n      jump\t// in\n    tag_14:\n      mload(0x40)\n      tag_16\n      swap2\n      swap1\n      tag_17\n      jump\t// in\n    tag_16:\n      mload(0x40)\n      dup1\n      swap2\n      sub\n      swap1\n      return\n        /* \"contracts/base/VisibilityBase.sol\":455:552  function publicFunc() public pure returns (string memory) {\r... */\n    tag_6:\n      tag_18\n      tag_19\n      jump\t// in\n    tag_18:\n      mload(0x40)\n      tag_20\n      swap2\n      swap1\n      tag_17\n      jump\t// in\n    tag_20:\n      mload(0x40)\n      dup1\n      swap2\n      sub\n      swap1\n      return\n        /* \"contracts/base/VisibilityBase.sol\":886:1063  function test1() public view{\r... */\n    tag_7:\n      tag_21\n      tag_22\n      jump\t// in\n    tag_21:\n      stop\n        /* \"contracts/base/VisibilityBase.sol\":669:834  function testFunc() public view{\r... */\n    tag_9:\n        /* \"contracts/base/VisibilityBase.sol\":737:746  publicVar */\n      sload(0x02)\n        /* \"contracts/base/VisibilityBase.sol\":724:735  internalVar */\n      sload(0x01)\n        /* \"contracts/base/VisibilityBase.sol\":711:721  privateVar */\n      sload(0x00)\n        /* \"contracts/base/VisibilityBase.sol\":711:735  privateVar + internalVar */\n      tag_24\n      swap2\n      swap1\n      tag_25\n      jump\t// in\n    tag_24:\n        /* \"contracts/base/VisibilityBase.sol\":711:746  privateVar + internalVar +publicVar */\n      tag_26\n      swap2\n      swap1\n      tag_25\n      jump\t// in\n    tag_26:\n      pop\n        /* \"contracts/base/VisibilityBase.sol\":757:771  internalFunc() */\n      tag_27\n        /* \"contracts/base/VisibilityBase.sol\":757:769  internalFunc */\n      tag_28\n        /* \"contracts/base/VisibilityBase.sol\":757:771  internalFunc() */\n      jump\t// in\n    tag_27:\n      pop\n        /* \"contracts/base/VisibilityBase.sol\":782:794  publicFunc() */\n      tag_29\n        /* \"contracts/base/VisibilityBase.sol\":782:792  publicFunc */\n      tag_19\n        /* \"contracts/base/VisibilityBase.sol\":782:794  publicFunc() */\n      jump\t// in\n    tag_29:\n      pop\n        /* \"contracts/base/VisibilityBase.sol\":805:818  privateFunc() */\n      tag_30\n        /* \"contracts/base/VisibilityBase.sol\":805:816  privateFunc */\n      tag_31\n        /* \"contracts/base/VisibilityBase.sol\":805:818  privateFunc() */\n      jump\t// in\n    tag_30:\n      pop\n        /* \"contracts/base/VisibilityBase.sol\":669:834  function testFunc() public view{\r... */\n      jump\t// out\n        /* \"contracts/base/VisibilityBase.sol\":188:214  uint public  publicVar = 3 */\n    tag_11:\n      sload(0x02)\n      dup2\n      jump\t// out\n        /* \"contracts/base/VisibilityBase.sol\":558:661  function externalFunc() external pure returns (string memory) {\r... */\n    tag_15:\n        /* \"contracts/base/VisibilityBase.sol\":605:618  string memory */\n      0x60\n        /* \"contracts/base/VisibilityBase.sol\":627:653  return \"External Function\" */\n      mload(0x40)\n      dup1\n      0x40\n      add\n      0x40\n      mstore\n      dup1\n      0x11\n      dup2\n      mstore\n      0x20\n      add\n      0x45787465726e616c2046756e6374696f6e000000000000000000000000000000\n      dup2\n      mstore\n      pop\n      swap1\n      pop\n        /* \"contracts/base/VisibilityBase.sol\":558:661  function externalFunc() external pure returns (string memory) {\r... */\n      swap1\n      jump\t// out\n        /* \"contracts/base/VisibilityBase.sol\":455:552  function publicFunc() public pure returns (string memory) {\r... */\n    tag_19:\n        /* \"contracts/base/VisibilityBase.sol\":498:511  string memory */\n      0x60\n        /* \"contracts/base/VisibilityBase.sol\":520:544  return \"Public Function\" */\n      mload(0x40)\n      dup1\n      0x40\n      add\n      0x40\n      mstore\n      dup1\n      0x0f\n      dup2\n      mstore\n      0x20\n      add\n      0x5075626c69632046756e6374696f6e0000000000000000000000000000000000\n      dup2\n      mstore\n      pop\n      swap1\n      pop\n        /* \"contracts/base/VisibilityBase.sol\":455:552  function publicFunc() public pure returns (string memory) {\r... */\n      swap1\n      jump\t// out\n        /* \"contracts/base/VisibilityBase.sol\":886:1063  function test1() public view{\r... */\n    tag_22:\n        /* \"contracts/base/VisibilityBase.sol\":925:941  uint internalVal */\n      0x00\n        /* \"contracts/base/VisibilityBase.sol\":944:955  internalVar */\n      sload(0x01)\n        /* \"contracts/base/VisibilityBase.sol\":925:955  uint internalVal = internalVar */\n      swap1\n      pop\n        /* \"contracts/base/VisibilityBase.sol\":966:972  uint x */\n      0x00\n        /* \"contracts/base/VisibilityBase.sol\":975:984  publicVar */\n      sload(0x02)\n        /* \"contracts/base/VisibilityBase.sol\":966:984  uint x = publicVar */\n      swap1\n      pop\n        /* \"contracts/base/VisibilityBase.sol\":995:1009  internalFunc() */\n      tag_35\n        /* \"contracts/base/VisibilityBase.sol\":995:1007  internalFunc */\n      tag_28\n        /* \"contracts/base/VisibilityBase.sol\":995:1009  internalFunc() */\n      jump\t// in\n    tag_35:\n      pop\n        /* \"contracts/base/VisibilityBase.sol\":1021:1033  publicFunc() */\n      tag_36\n        /* \"contracts/base/VisibilityBase.sol\":1021:1031  publicFunc */\n      tag_19\n        /* \"contracts/base/VisibilityBase.sol\":1021:1033  publicFunc() */\n      jump\t// in\n    tag_36:\n      pop\n        /* \"contracts/base/VisibilityBase.sol\":1045:1055  testFunc() */\n      tag_37\n        /* \"contracts/base/VisibilityBase.sol\":1045:1053  testFunc */\n      tag_9\n        /* \"contracts/base/VisibilityBase.sol\":1045:1055  testFunc() */\n      jump\t// in\n    tag_37:\n        /* \"contracts/base/VisibilityBase.sol\":886:1063  function test1() public view{\r... */\n      pop\n      pop\n      jump\t// out\n        /* \"contracts/base/VisibilityBase.sol\":346:449  function internalFunc() internal pure returns (string memory) {\r... */\n    tag_28:\n        /* \"contracts/base/VisibilityBase.sol\":393:406  string memory */\n      0x60\n        /* \"contracts/base/VisibilityBase.sol\":415:441  return \"Internal Function\" */\n      mload(0x40)\n      dup1\n      0x40\n      add\n      0x40\n      mstore\n      dup1\n      0x11\n      dup2\n      mstore\n      0x20\n      add\n      0x496e7465726e616c2046756e6374696f6e000000000000000000000000000000\n      dup2\n      mstore\n      pop\n      swap1\n      pop\n        /* \"contracts/base/VisibilityBase.sol\":346:449  function internalFunc() internal pure returns (string memory) {\r... */\n      swap1\n      jump\t// out\n        /* \"contracts/base/VisibilityBase.sol\":240:340  function privateFunc() private pure returns (string memory) {\r... */\n    tag_31:\n        /* \"contracts/base/VisibilityBase.sol\":285:298  string memory */\n      0x60\n        /* \"contracts/base/VisibilityBase.sol\":307:332  return \"Private Function\" */\n      mload(0x40)\n      dup1\n      0x40\n      add\n      0x40\n      mstore\n      dup1\n      0x10\n      dup2\n      mstore\n      0x20\n      add\n      0x507269766174652046756e6374696f6e00000000000000000000000000000000\n      dup2\n      mstore\n      pop\n      swap1\n      pop\n        /* \"contracts/base/VisibilityBase.sol\":240:340  function privateFunc() private pure returns (string memory) {\r... */\n      swap1\n      jump\t// out\n        /* \"#utility.yul\":7:371   */\n    tag_41:\n        /* \"#utility.yul\":95:98   */\n      0x00\n        /* \"#utility.yul\":123:162   */\n      tag_43\n        /* \"#utility.yul\":156:161   */\n      dup3\n        /* \"#utility.yul\":123:162   */\n      tag_44\n      jump\t// in\n    tag_43:\n        /* \"#utility.yul\":178:249   */\n      tag_45\n        /* \"#utility.yul\":242:248   */\n      dup2\n        /* \"#utility.yul\":237:240   */\n      dup6\n        /* \"#utility.yul\":178:249   */\n      tag_46\n      jump\t// in\n    tag_45:\n        /* \"#utility.yul\":171:249   */\n      swap4\n      pop\n        /* \"#utility.yul\":258:310   */\n      tag_47\n        /* \"#utility.yul\":303:309   */\n      dup2\n        /* \"#utility.yul\":298:301   */\n      dup6\n        /* \"#utility.yul\":291:295   */\n      0x20\n        /* \"#utility.yul\":284:289   */\n      dup7\n        /* \"#utility.yul\":280:296   */\n      add\n        /* \"#utility.yul\":258:310   */\n      tag_48\n      jump\t// in\n    tag_47:\n        /* \"#utility.yul\":335:364   */\n      tag_49\n        /* \"#utility.yul\":357:363   */\n      dup2\n        /* \"#utility.yul\":335:364   */\n      tag_50\n      jump\t// in\n    tag_49:\n        /* \"#utility.yul\":330:333   */\n      dup5\n        /* \"#utility.yul\":326:365   */\n      add\n        /* \"#utility.yul\":319:365   */\n      swap2\n      pop\n        /* \"#utility.yul\":99:371   */\n      pop\n      swap3\n      swap2\n      pop\n      pop\n      jump\t// out\n        /* \"#utility.yul\":377:495   */\n    tag_51:\n        /* \"#utility.yul\":464:488   */\n      tag_53\n        /* \"#utility.yul\":482:487   */\n      dup2\n        /* \"#utility.yul\":464:488   */\n      tag_54\n      jump\t// in\n    tag_53:\n        /* \"#utility.yul\":459:462   */\n      dup3\n        /* \"#utility.yul\":452:489   */\n      mstore\n        /* \"#utility.yul\":442:495   */\n      pop\n      pop\n      jump\t// out\n        /* \"#utility.yul\":501:814   */\n    tag_17:\n        /* \"#utility.yul\":614:618   */\n      0x00\n        /* \"#utility.yul\":652:654   */\n      0x20\n        /* \"#utility.yul\":641:650   */\n      dup3\n        /* \"#utility.yul\":637:655   */\n      add\n        /* \"#utility.yul\":629:655   */\n      swap1\n      pop\n        /* \"#utility.yul\":701:710   */\n      dup2\n        /* \"#utility.yul\":695:699   */\n      dup2\n        /* \"#utility.yul\":691:711   */\n      sub\n        /* \"#utility.yul\":687:688   */\n      0x00\n        /* \"#utility.yul\":676:685   */\n      dup4\n        /* \"#utility.yul\":672:689   */\n      add\n        /* \"#utility.yul\":665:712   */\n      mstore\n        /* \"#utility.yul\":729:807   */\n      tag_56\n        /* \"#utility.yul\":802:806   */\n      dup2\n        /* \"#utility.yul\":793:799   */\n      dup5\n        /* \"#utility.yul\":729:807   */\n      tag_41\n      jump\t// in\n    tag_56:\n        /* \"#utility.yul\":721:807   */\n      swap1\n      pop\n        /* \"#utility.yul\":619:814   */\n      swap3\n      swap2\n      pop\n      pop\n      jump\t// out\n        /* \"#utility.yul\":820:1042   */\n    tag_13:\n        /* \"#utility.yul\":913:917   */\n      0x00\n        /* \"#utility.yul\":951:953   */\n      0x20\n        /* \"#utility.yul\":940:949   */\n      dup3\n        /* \"#utility.yul\":936:954   */\n      add\n        /* \"#utility.yul\":928:954   */\n      swap1\n      pop\n        /* \"#utility.yul\":964:1035   */\n      tag_58\n        /* \"#utility.yul\":1032:1033   */\n      0x00\n        /* \"#utility.yul\":1021:1030   */\n      dup4\n        /* \"#utility.yul\":1017:1034   */\n      add\n        /* \"#utility.yul\":1008:1014   */\n      dup5\n        /* \"#utility.yul\":964:1035   */\n      tag_51\n      jump\t// in\n    tag_58:\n        /* \"#utility.yul\":918:1042   */\n      swap3\n      swap2\n      pop\n      pop\n      jump\t// out\n        /* \"#utility.yul\":1048:1147   */\n    tag_44:\n        /* \"#utility.yul\":1100:1106   */\n      0x00\n        /* \"#utility.yul\":1134:1139   */\n      dup2\n        /* \"#utility.yul\":1128:1140   */\n      mload\n        /* \"#utility.yul\":1118:1140   */\n      swap1\n      pop\n        /* \"#utility.yul\":1107:1147   */\n      swap2\n      swap1\n      pop\n      jump\t// out\n        /* \"#utility.yul\":1153:1322   */\n    tag_46:\n        /* \"#utility.yul\":1237:1248   */\n      0x00\n        /* \"#utility.yul\":1271:1277   */\n      dup3\n        /* \"#utility.yul\":1266:1269   */\n      dup3\n        /* \"#utility.yul\":1259:1278   */\n      mstore\n        /* \"#utility.yul\":1311:1315   */\n      0x20\n        /* \"#utility.yul\":1306:1309   */\n      dup3\n        /* \"#utility.yul\":1302:1316   */\n      add\n        /* \"#utility.yul\":1287:1316   */\n      swap1\n      pop\n        /* \"#utility.yul\":1249:1322   */\n      swap3\n      swap2\n      pop\n      pop\n      jump\t// out\n        /* \"#utility.yul\":1328:1633   */\n    tag_25:\n        /* \"#utility.yul\":1368:1371   */\n      0x00\n        /* \"#utility.yul\":1387:1407   */\n      tag_62\n        /* \"#utility.yul\":1405:1406   */\n      dup3\n        /* \"#utility.yul\":1387:1407   */\n      tag_54\n      jump\t// in\n    tag_62:\n        /* \"#utility.yul\":1382:1407   */\n      swap2\n      pop\n        /* \"#utility.yul\":1421:1441   */\n      tag_63\n        /* \"#utility.yul\":1439:1440   */\n      dup4\n        /* \"#utility.yul\":1421:1441   */\n      tag_54\n      jump\t// in\n    tag_63:\n        /* \"#utility.yul\":1416:1441   */\n      swap3\n      pop\n        /* \"#utility.yul\":1575:1576   */\n      dup3\n        /* \"#utility.yul\":1507:1573   */\n      0xffffffffffffffffffffffffffffffffffffffffffffffffffffffffffffffff\n        /* \"#utility.yul\":1503:1577   */\n      sub\n        /* \"#utility.yul\":1500:1501   */\n      dup3\n        /* \"#utility.yul\":1497:1578   */\n      gt\n        /* \"#utility.yul\":1494:1496   */\n      iszero\n      tag_64\n      jumpi\n        /* \"#utility.yul\":1581:1599   */\n      tag_65\n      tag_66\n      jump\t// in\n    tag_65:\n        /* \"#utility.yul\":1494:1496   */\n    tag_64:\n        /* \"#utility.yul\":1625:1626   */\n      dup3\n        /* \"#utility.yul\":1622:1623   */\n      dup3\n        /* \"#utility.yul\":1618:1627   */\n      add\n        /* \"#utility.yul\":1611:1627   */\n      swap1\n      pop\n        /* \"#utility.yul\":1372:1633   */\n      swap3\n      swap2\n      pop\n      pop\n      jump\t// out\n        /* \"#utility.yul\":1639:1716   */\n    tag_54:\n        /* \"#utility.yul\":1676:1683   */\n      0x00\n        /* \"#utility.yul\":1705:1710   */\n      dup2\n        /* \"#utility.yul\":1694:1710   */\n      swap1\n      pop\n        /* \"#utility.yul\":1684:1716   */\n      swap2\n      swap1\n      pop\n      jump\t// out\n        /* \"#utility.yul\":1722:2029   */\n    tag_48:\n        /* \"#utility.yul\":1790:1791   */\n      0x00\n        /* \"#utility.yul\":1800:1913   */\n    tag_69:\n        /* \"#utility.yul\":1814:1820   */\n      dup4\n        /* \"#utility.yul\":1811:1812   */\n      dup2\n        /* \"#utility.yul\":1808:1821   */\n      lt\n        /* \"#utility.yul\":1800:1913   */\n      iszero\n      tag_71\n      jumpi\n        /* \"#utility.yul\":1899:1900   */\n      dup1\n        /* \"#utility.yul\":1894:1897   */\n      dup3\n        /* \"#utility.yul\":1890:1901   */\n      add\n        /* \"#utility.yul\":1884:1902   */\n      mload\n        /* \"#utility.yul\":1880:1881   */\n      dup2\n        /* \"#utility.yul\":1875:1878   */\n      dup5\n        /* \"#utility.yul\":1871:1882   */\n      add\n        /* \"#utility.yul\":1864:1903   */\n      mstore\n        /* \"#utility.yul\":1836:1838   */\n      0x20\n        /* \"#utility.yul\":1833:1834   */\n      dup2\n        /* \"#utility.yul\":1829:1839   */\n      add\n        /* \"#utility.yul\":1824:1839   */\n      swap1\n      pop\n        /* \"#utility.yul\":1800:1913   */\n      jump(tag_69)\n    tag_71:\n        /* \"#utility.yul\":1931:1937   */\n      dup4\n        /* \"#utility.yul\":1928:1929   */\n      dup2\n        /* \"#utility.yul\":1925:1938   */\n      gt\n        /* \"#utility.yul\":1922:1924   */\n      iszero\n      tag_72\n      jumpi\n        /* \"#utility.yul\":2011:2012   */\n      0x00\n        /* \"#utility.yul\":2002:2008   */\n      dup5\n        /* \"#utility.yul\":1997:2000   */\n      dup5\n        /* \"#utility.yul\":1993:2009   */\n      add\n        /* \"#utility.yul\":1986:2013   */\n      mstore\n        /* \"#utility.yul\":1922:1924   */\n    tag_72:\n        /* \"#utility.yul\":1771:2029   */\n      pop\n      pop\n      pop\n      pop\n      jump\t// out\n        /* \"#utility.yul\":2035:2215   */\n    tag_66:\n        /* \"#utility.yul\":2083:2160   */\n      0x4e487b7100000000000000000000000000000000000000000000000000000000\n        /* \"#utility.yul\":2080:2081   */\n      0x00\n        /* \"#utility.yul\":2073:2161   */\n      mstore\n        /* \"#utility.yul\":2180:2184   */\n      0x11\n        /* \"#utility.yul\":2177:2178   */\n      0x04\n        /* \"#utility.yul\":2170:2185   */\n      mstore\n        /* \"#utility.yul\":2204:2208   */\n      0x24\n        /* \"#utility.yul\":2201:2202   */\n      0x00\n        /* \"#utility.yul\":2194:2209   */\n      revert\n        /* \"#utility.yul\":2221:2323   */\n    tag_50:\n        /* \"#utility.yul\":2262:2268   */\n      0x00\n        /* \"#utility.yul\":2313:2315   */\n      0x1f\n        /* \"#utility.yul\":2309:2316   */\n      not\n        /* \"#utility.yul\":2304:2306   */\n      0x1f\n        /* \"#utility.yul\":2297:2302   */\n      dup4\n        /* \"#utility.yul\":2293:2307   */\n      add\n        /* \"#utility.yul\":2289:2317   */\n      and\n        /* \"#utility.yul\":2279:2317   */\n      swap1\n      pop\n        /* \"#utility.yul\":2269:2323   */\n      swap2\n      swap1\n      pop\n      jump\t// out\n\n    auxdata: 0xa2646970667358221220f9968ecb6cc6825b84b2bc8e50e88b43c06b5209176e99ee4827c9e39675418e64736f6c63430008040033\n}\n",
				"bytecode": {
					"linkReferences": {},
					"object": "608060405260016000556002600155600360025534801561001f57600080fd5b506103d58061002f6000396000f3fe608060405234801561001057600080fd5b50600436106100575760003560e01c8063037a417c1461005c5780631151fad81461006657806342b148aa146100845780634b73383f146100a25780636b59084d146100c0575b600080fd5b6100646100ca565b005b61006e610105565b60405161007b9190610295565b60405180910390f35b61008c61010b565b6040516100999190610273565b60405180910390f35b6100aa610148565b6040516100b79190610273565b60405180910390f35b6100c8610185565b005b6002546001546000546100dd91906102cc565b6100e791906102cc565b506100f06101b1565b506100f9610148565b506101026101ee565b50565b60025481565b60606040518060400160405280601181526020017f45787465726e616c2046756e6374696f6e000000000000000000000000000000815250905090565b60606040518060400160405280600f81526020017f5075626c69632046756e6374696f6e0000000000000000000000000000000000815250905090565b600060015490506000600254905061019b6101b1565b506101a4610148565b506101ad6100ca565b5050565b60606040518060400160405280601181526020017f496e7465726e616c2046756e6374696f6e000000000000000000000000000000815250905090565b60606040518060400160405280601081526020017f507269766174652046756e6374696f6e00000000000000000000000000000000815250905090565b6000610236826102b0565b61024081856102bb565b935061025081856020860161032c565b6102598161038e565b840191505092915050565b61026d81610322565b82525050565b6000602082019050818103600083015261028d818461022b565b905092915050565b60006020820190506102aa6000830184610264565b92915050565b600081519050919050565b600082825260208201905092915050565b60006102d782610322565b91506102e283610322565b9250827fffffffffffffffffffffffffffffffffffffffffffffffffffffffffffffffff038211156103175761031661035f565b5b828201905092915050565b6000819050919050565b60005b8381101561034a57808201518184015260208101905061032f565b83811115610359576000848401525b50505050565b7f4e487b7100000000000000000000000000000000000000000000000000000000600052601160045260246000fd5b6000601f19601f830116905091905056fea2646970667358221220f9968ecb6cc6825b84b2bc8e50e88b43c06b5209176e99ee4827c9e39675418e64736f6c63430008040033",
					"opcodes": "PUSH1 0x80 PUSH1 0x40 MSTORE PUSH1 0x1 PUSH1 0x0 SSTORE PUSH1 0x2 PUSH1 0x1 SSTORE PUSH1 0x3 PUSH1 0x2 SSTORE CALLVALUE DUP1 ISZERO PUSH2 0x1F JUMPI PUSH1 0x0 DUP1 REVERT JUMPDEST POP PUSH2 0x3D5 DUP1 PUSH2 0x2F PUSH1 0x0 CODECOPY PUSH1 0x0 RETURN INVALID PUSH1 0x80 PUSH1 0x40 MSTORE CALLVALUE DUP1 ISZERO PUSH2 0x10 JUMPI PUSH1 0x0 DUP1 REVERT JUMPDEST POP PUSH1 0x4 CALLDATASIZE LT PUSH2 0x57 JUMPI PUSH1 0x0 CALLDATALOAD PUSH1 0xE0 SHR DUP1 PUSH4 0x37A417C EQ PUSH2 0x5C JUMPI DUP1 PUSH4 0x1151FAD8 EQ PUSH2 0x66 JUMPI DUP1 PUSH4 0x42B148AA EQ PUSH2 0x84 JUMPI DUP1 PUSH4 0x4B73383F EQ PUSH2 0xA2 JUMPI DUP1 PUSH4 0x6B59084D EQ PUSH2 0xC0 JUMPI JUMPDEST PUSH1 0x0 DUP1 REVERT JUMPDEST PUSH2 0x64 PUSH2 0xCA JUMP JUMPDEST STOP JUMPDEST PUSH2 0x6E PUSH2 0x105 JUMP JUMPDEST PUSH1 0x40 MLOAD PUSH2 0x7B SWAP2 SWAP1 PUSH2 0x295 JUMP JUMPDEST PUSH1 0x40 MLOAD DUP1 SWAP2 SUB SWAP1 RETURN JUMPDEST PUSH2 0x8C PUSH2 0x10B JUMP JUMPDEST PUSH1 0x40 MLOAD PUSH2 0x99 SWAP2 SWAP1 PUSH2 0x273 JUMP JUMPDEST PUSH1 0x40 MLOAD DUP1 SWAP2 SUB SWAP1 RETURN JUMPDEST PUSH2 0xAA PUSH2 0x148 JUMP JUMPDEST PUSH1 0x40 MLOAD PUSH2 0xB7 SWAP2 SWAP1 PUSH2 0x273 JUMP JUMPDEST PUSH1 0x40 MLOAD DUP1 SWAP2 SUB SWAP1 RETURN JUMPDEST PUSH2 0xC8 PUSH2 0x185 JUMP JUMPDEST STOP JUMPDEST PUSH1 0x2 SLOAD PUSH1 0x1 SLOAD PUSH1 0x0 SLOAD PUSH2 0xDD SWAP2 SWAP1 PUSH2 0x2CC JUMP JUMPDEST PUSH2 0xE7 SWAP2 SWAP1 PUSH2 0x2CC JUMP JUMPDEST POP PUSH2 0xF0 PUSH2 0x1B1 JUMP JUMPDEST POP PUSH2 0xF9 PUSH2 0x148 JUMP JUMPDEST POP PUSH2 0x102 PUSH2 0x1EE JUMP JUMPDEST POP JUMP JUMPDEST PUSH1 0x2 SLOAD DUP2 JUMP JUMPDEST PUSH1 0x60 PUSH1 0x40 MLOAD DUP1 PUSH1 0x40 ADD PUSH1 0x40 MSTORE DUP1 PUSH1 0x11 DUP2 MSTORE PUSH1 0x20 ADD PUSH32 0x45787465726E616C2046756E6374696F6E000000000000000000000000000000 DUP2 MSTORE POP SWAP1 POP SWAP1 JUMP JUMPDEST PUSH1 0x60 PUSH1 0x40 MLOAD DUP1 PUSH1 0x40 ADD PUSH1 0x40 MSTORE DUP1 PUSH1 0xF DUP2 MSTORE PUSH1 0x20 ADD PUSH32 0x5075626C69632046756E6374696F6E0000000000000000000000000000000000 DUP2 MSTORE POP SWAP1 POP SWAP1 JUMP JUMPDEST PUSH1 0x0 PUSH1 0x1 SLOAD SWAP1 POP PUSH1 0x0 PUSH1 0x2 SLOAD SWAP1 POP PUSH2 0x19B PUSH2 0x1B1 JUMP JUMPDEST POP PUSH2 0x1A4 PUSH2 0x148 JUMP JUMPDEST POP PUSH2 0x1AD PUSH2 0xCA JUMP JUMPDEST POP POP JUMP JUMPDEST PUSH1 0x60 PUSH1 0x40 MLOAD DUP1 PUSH1 0x40 ADD PUSH1 0x40 MSTORE DUP1 PUSH1 0x11 DUP2 MSTORE PUSH1 0x20 ADD PUSH32 0x496E7465726E616C2046756E6374696F6E000000000000000000000000000000 DUP2 MSTORE POP SWAP1 POP SWAP1 JUMP JUMPDEST PUSH1 0x60 PUSH1 0x40 MLOAD DUP1 PUSH1 0x40 ADD PUSH1 0x40 MSTORE DUP1 PUSH1 0x10 DUP2 MSTORE PUSH1 0x20 ADD PUSH32 0x507269766174652046756E6374696F6E00000000000000000000000000000000 DUP2 MSTORE POP SWAP1 POP SWAP1 JUMP JUMPDEST PUSH1 0x0 PUSH2 0x236 DUP3 PUSH2 0x2B0 JUMP JUMPDEST PUSH2 0x240 DUP2 DUP6 PUSH2 0x2BB JUMP JUMPDEST SWAP4 POP PUSH2 0x250 DUP2 DUP6 PUSH1 0x20 DUP7 ADD PUSH2 0x32C JUMP JUMPDEST PUSH2 0x259 DUP2 PUSH2 0x38E JUMP JUMPDEST DUP5 ADD SWAP2 POP POP SWAP3 SWAP2 POP POP JUMP JUMPDEST PUSH2 0x26D DUP2 PUSH2 0x322 JUMP JUMPDEST DUP3 MSTORE POP POP JUMP JUMPDEST PUSH1 0x0 PUSH1 0x20 DUP3 ADD SWAP1 POP DUP2 DUP2 SUB PUSH1 0x0 DUP4 ADD MSTORE PUSH2 0x28D DUP2 DUP5 PUSH2 0x22B JUMP JUMPDEST SWAP1 POP SWAP3 SWAP2 POP POP JUMP JUMPDEST PUSH1 0x0 PUSH1 0x20 DUP3 ADD SWAP1 POP PUSH2 0x2AA PUSH1 0x0 DUP4 ADD DUP5 PUSH2 0x264 JUMP JUMPDEST SWAP3 SWAP2 POP POP JUMP JUMPDEST PUSH1 0x0 DUP2 MLOAD SWAP1 POP SWAP2 SWAP1 POP JUMP JUMPDEST PUSH1 0x0 DUP3 DUP3 MSTORE PUSH1 0x20 DUP3 ADD SWAP1 POP SWAP3 SWAP2 POP POP JUMP JUMPDEST PUSH1 0x0 PUSH2 0x2D7 DUP3 PUSH2 0x322 JUMP JUMPDEST SWAP2 POP PUSH2 0x2E2 DUP4 PUSH2 0x322 JUMP JUMPDEST SWAP3 POP DUP3 PUSH32 0xFFFFFFFFFFFFFFFFFFFFFFFFFFFFFFFFFFFFFFFFFFFFFFFFFFFFFFFFFFFFFFFF SUB DUP3 GT ISZERO PUSH2 0x317 JUMPI PUSH2 0x316 PUSH2 0x35F JUMP JUMPDEST JUMPDEST DUP3 DUP3 ADD SWAP1 POP SWAP3 SWAP2 POP POP JUMP JUMPDEST PUSH1 0x0 DUP2 SWAP1 POP SWAP2 SWAP1 POP JUMP JUMPDEST PUSH1 0x0 JUMPDEST DUP4 DUP2 LT ISZERO PUSH2 0x34A JUMPI DUP1 DUP3 ADD MLOAD DUP2 DUP5 ADD MSTORE PUSH1 0x20 DUP2 ADD SWAP1 POP PUSH2 0x32F JUMP JUMPDEST DUP4 DUP2 GT ISZERO PUSH2 0x359 JUMPI PUSH1 0x0 DUP5 DUP5 ADD MSTORE JUMPDEST POP POP POP POP JUMP JUMPDEST PUSH32 0x4E487B7100000000000000000000000000000000000000000000000000000000 PUSH1 0x0 MSTORE PUSH1 0x11 PUSH1 0x4 MSTORE PUSH1 0x24 PUSH1 0x0 REVERT JUMPDEST PUSH1 0x0 PUSH1 0x1F NOT PUSH1 0x1F DUP4 ADD AND SWAP1 POP SWAP2 SWAP1 POP JUMP INVALID LOG2 PUSH5 0x6970667358 0x22 SLT KECCAK256 0xF9 SWAP7 DUP15 0xCB PUSH13 0xC6825B84B2BC8E50E88B43C06B MSTORE MULMOD OR PUSH15 0x99EE4827C9E39675418E64736F6C63 NUMBER STOP ADDMOD DIV STOP CALLER "
				},
				"gasEstimates": {
					"creation": {
						"codeDepositCost": "196200",
						"executionCost": "60256",
						"totalCost": "256456"
					},
					"external": {
						"externalFunc()": "infinite",
						"publicFunc()": "infinite",
						"publicVar()": "1129",
						"test1()": "infinite",
						"testFunc()": "infinite"
					}
				},
				"methodIdentifiers": {
					"externalFunc()": "42b148aa",
					"publicFunc()": "4b73383f",
					"publicVar()": "1151fad8",
					"test1()": "6b59084d",
					"testFunc()": "037a417c"
				}
			},
			"storageLayout": {
				"storage": [
					{
						"astId": 4,
						"contract": "contracts/base/VisibilityBase.sol:B",
						"label": "privateVar",
						"offset": 0,
						"slot": "0",
						"type": "t_uint256"
					},
					{
						"astId": 7,
						"contract": "contracts/base/VisibilityBase.sol:B",
						"label": "internalVar",
						"offset": 0,
						"slot": "1",
						"type": "t_uint256"
					},
					{
						"astId": 10,
						"contract": "contracts/base/VisibilityBase.sol:B",
						"label": "publicVar",
						"offset": 0,
						"slot": "2",
						"type": "t_uint256"
					}
				],
				"types": {
					"t_uint256": {
						"encoding": "inplace",
						"label": "uint256",
						"numberOfBytes": "32"
					}
				}
			},
			"userdoc": {
				"kind": "user",
				"methods": {},
				"version": 1
			}
		}
	}
}