{
	"contracts/base/UncheckedMath.sol": {
		"UncheckedMath": {
			"abi": [
				{
					"inputs": [
						{
							"internalType": "uint256",
							"name": "x",
							"type": "uint256"
						},
						{
							"internalType": "uint256",
							"name": "y",
							"type": "uint256"
						}
					],
					"name": "add",
					"outputs": [
						{
							"internalType": "uint256",
							"name": "",
							"type": "uint256"
						}
					],
					"stateMutability": "pure",
					"type": "function"
				},
				{
					"inputs": [
						{
							"internalType": "uint256",
							"name": "x",
							"type": "uint256"
						},
						{
							"internalType": "uint256",
							"name": "y",
							"type": "uint256"
						}
					],
					"name": "sub",
					"outputs": [
						{
							"internalType": "uint256",
							"name": "",
							"type": "uint256"
						}
					],
					"stateMutability": "pure",
					"type": "function"
				},
				{
					"inputs": [
						{
							"internalType": "uint256",
							"name": "x",
							"type": "uint256"
						},
						{
							"internalType": "uint256",
							"name": "y",
							"type": "uint256"
						}
					],
					"name": "sumOfCubes",
					"outputs": [
						{
							"internalType": "uint256",
							"name": "",
							"type": "uint256"
						}
					],
					"stateMutability": "pure",
					"type": "function"
				}
			],
			"devdoc": {
				"kind": "dev",
				"methods": {},
				"version": 1
			},
			"evm": {
				"assembly": "    /* \"contracts/base/UncheckedMath.sol\":65:710  contract UncheckedMath {\r... */\n  mstore(0x40, 0x80)\n  callvalue\n  dup1\n  iszero\n  tag_1\n  jumpi\n  0x00\n  dup1\n  revert\ntag_1:\n  pop\n  dataSize(sub_0)\n  dup1\n  dataOffset(sub_0)\n  0x00\n  codecopy\n  0x00\n  return\nstop\n\nsub_0: assembly {\n        /* \"contracts/base/UncheckedMath.sol\":65:710  contract UncheckedMath {\r... */\n      mstore(0x40, 0x80)\n      callvalue\n      dup1\n      iszero\n      tag_1\n      jumpi\n      0x00\n      dup1\n      revert\n    tag_1:\n      pop\n      jumpi(tag_2, lt(calldatasize, 0x04))\n      shr(0xe0, calldataload(0x00))\n      dup1\n      0x771602f7\n      eq\n      tag_3\n      jumpi\n      dup1\n      0xa2138e67\n      eq\n      tag_4\n      jumpi\n      dup1\n      0xb67d77c5\n      eq\n      tag_5\n      jumpi\n    tag_2:\n      0x00\n      dup1\n      revert\n        /* \"contracts/base/UncheckedMath.sol\":95:282  function add(uint256 x, uint256 y) external pure returns (uint256) {\r... */\n    tag_3:\n      tag_6\n      0x04\n      dup1\n      calldatasize\n      sub\n      dup2\n      add\n      swap1\n      tag_7\n      swap2\n      swap1\n      tag_8\n      jump\t// in\n    tag_7:\n      tag_9\n      jump\t// in\n    tag_6:\n      mload(0x40)\n      tag_10\n      swap2\n      swap1\n      tag_11\n      jump\t// in\n    tag_10:\n      mload(0x40)\n      dup1\n      swap2\n      sub\n      swap1\n      return\n        /* \"contracts/base/UncheckedMath.sol\":488:705  function sumOfCubes(uint256 x, uint256 y) external pure returns (uint256) {\r... */\n    tag_4:\n      tag_12\n      0x04\n      dup1\n      calldatasize\n      sub\n      dup2\n      add\n      swap1\n      tag_13\n      swap2\n      swap1\n      tag_8\n      jump\t// in\n    tag_13:\n      tag_14\n      jump\t// in\n    tag_12:\n      mload(0x40)\n      tag_15\n      swap2\n      swap1\n      tag_11\n      jump\t// in\n    tag_15:\n      mload(0x40)\n      dup1\n      swap2\n      sub\n      swap1\n      return\n        /* \"contracts/base/UncheckedMath.sol\":288:482  function sub(uint256 x, uint256 y) external pure returns (uint256) {\r... */\n    tag_5:\n      tag_16\n      0x04\n      dup1\n      calldatasize\n      sub\n      dup2\n      add\n      swap1\n      tag_17\n      swap2\n      swap1\n      tag_8\n      jump\t// in\n    tag_17:\n      tag_18\n      jump\t// in\n    tag_16:\n      mload(0x40)\n      tag_19\n      swap2\n      swap1\n      tag_11\n      jump\t// in\n    tag_19:\n      mload(0x40)\n      dup1\n      swap2\n      sub\n      swap1\n      return\n        /* \"contracts/base/UncheckedMath.sol\":95:282  function add(uint256 x, uint256 y) external pure returns (uint256) {\r... */\n    tag_9:\n        /* \"contracts/base/UncheckedMath.sol\":153:160  uint256 */\n      0x00\n        /* \"contracts/base/UncheckedMath.sol\":262:263  y */\n      dup2\n        /* \"contracts/base/UncheckedMath.sol\":258:259  x */\n      dup4\n        /* \"contracts/base/UncheckedMath.sol\":258:263  x + y */\n      add\n        /* \"contracts/base/UncheckedMath.sol\":251:263  return x + y */\n      swap1\n      pop\n        /* \"contracts/base/UncheckedMath.sol\":95:282  function add(uint256 x, uint256 y) external pure returns (uint256) {\r... */\n      swap3\n      swap2\n      pop\n      pop\n      jump\t// out\n        /* \"contracts/base/UncheckedMath.sol\":488:705  function sumOfCubes(uint256 x, uint256 y) external pure returns (uint256) {\r... */\n    tag_14:\n        /* \"contracts/base/UncheckedMath.sol\":553:560  uint256 */\n      0x00\n        /* \"contracts/base/UncheckedMath.sol\":598:608  uint256 x3 */\n      dup1\n        /* \"contracts/base/UncheckedMath.sol\":619:620  x */\n      dup4\n        /* \"contracts/base/UncheckedMath.sol\":615:616  x */\n      dup5\n        /* \"contracts/base/UncheckedMath.sol\":611:612  x */\n      dup6\n        /* \"contracts/base/UncheckedMath.sol\":611:616  x * x */\n      mul\n        /* \"contracts/base/UncheckedMath.sol\":611:620  x * x * x */\n      mul\n        /* \"contracts/base/UncheckedMath.sol\":598:620  uint256 x3 = x * x * x */\n      swap1\n      pop\n        /* \"contracts/base/UncheckedMath.sol\":635:645  uint256 y3 */\n      0x00\n        /* \"contracts/base/UncheckedMath.sol\":656:657  y */\n      dup4\n        /* \"contracts/base/UncheckedMath.sol\":652:653  y */\n      dup5\n        /* \"contracts/base/UncheckedMath.sol\":648:649  y */\n      dup6\n        /* \"contracts/base/UncheckedMath.sol\":648:653  y * y */\n      mul\n        /* \"contracts/base/UncheckedMath.sol\":648:657  y * y * y */\n      mul\n        /* \"contracts/base/UncheckedMath.sol\":635:657  uint256 y3 = y * y * y */\n      swap1\n      pop\n        /* \"contracts/base/UncheckedMath.sol\":684:686  y3 */\n      dup1\n        /* \"contracts/base/UncheckedMath.sol\":679:681  x3 */\n      dup3\n        /* \"contracts/base/UncheckedMath.sol\":679:686  x3 + y3 */\n      add\n        /* \"contracts/base/UncheckedMath.sol\":672:686  return x3 + y3 */\n      swap3\n      pop\n      pop\n      pop\n        /* \"contracts/base/UncheckedMath.sol\":488:705  function sumOfCubes(uint256 x, uint256 y) external pure returns (uint256) {\r... */\n      swap3\n      swap2\n      pop\n      pop\n      jump\t// out\n        /* \"contracts/base/UncheckedMath.sol\":288:482  function sub(uint256 x, uint256 y) external pure returns (uint256) {\r... */\n    tag_18:\n        /* \"contracts/base/UncheckedMath.sol\":346:353  uint256 */\n      0x00\n        /* \"contracts/base/UncheckedMath.sol\":393:394  y */\n      dup2\n        /* \"contracts/base/UncheckedMath.sol\":389:390  x */\n      dup4\n        /* \"contracts/base/UncheckedMath.sol\":389:394  x - y */\n      tag_23\n      swap2\n      swap1\n      tag_24\n      jump\t// in\n    tag_23:\n        /* \"contracts/base/UncheckedMath.sol\":382:394  return x - y */\n      swap1\n      pop\n        /* \"contracts/base/UncheckedMath.sol\":288:482  function sub(uint256 x, uint256 y) external pure returns (uint256) {\r... */\n      swap3\n      swap2\n      pop\n      pop\n      jump\t// out\n        /* \"#utility.yul\":7:146   */\n    tag_26:\n        /* \"#utility.yul\":53:58   */\n      0x00\n        /* \"#utility.yul\":91:97   */\n      dup2\n        /* \"#utility.yul\":78:98   */\n      calldataload\n        /* \"#utility.yul\":69:98   */\n      swap1\n      pop\n        /* \"#utility.yul\":107:140   */\n      tag_28\n        /* \"#utility.yul\":134:139   */\n      dup2\n        /* \"#utility.yul\":107:140   */\n      tag_29\n      jump\t// in\n    tag_28:\n        /* \"#utility.yul\":59:146   */\n      swap3\n      swap2\n      pop\n      pop\n      jump\t// out\n        /* \"#utility.yul\":152:559   */\n    tag_8:\n        /* \"#utility.yul\":220:226   */\n      0x00\n        /* \"#utility.yul\":228:234   */\n      dup1\n        /* \"#utility.yul\":277:279   */\n      0x40\n        /* \"#utility.yul\":265:274   */\n      dup4\n        /* \"#utility.yul\":256:263   */\n      dup6\n        /* \"#utility.yul\":252:275   */\n      sub\n        /* \"#utility.yul\":248:280   */\n      slt\n        /* \"#utility.yul\":245:247   */\n      iszero\n      tag_31\n      jumpi\n        /* \"#utility.yul\":293:294   */\n      0x00\n        /* \"#utility.yul\":290:291   */\n      dup1\n        /* \"#utility.yul\":283:295   */\n      revert\n        /* \"#utility.yul\":245:247   */\n    tag_31:\n        /* \"#utility.yul\":336:337   */\n      0x00\n        /* \"#utility.yul\":361:414   */\n      tag_32\n        /* \"#utility.yul\":406:413   */\n      dup6\n        /* \"#utility.yul\":397:403   */\n      dup3\n        /* \"#utility.yul\":386:395   */\n      dup7\n        /* \"#utility.yul\":382:404   */\n      add\n        /* \"#utility.yul\":361:414   */\n      tag_26\n      jump\t// in\n    tag_32:\n        /* \"#utility.yul\":351:414   */\n      swap3\n      pop\n        /* \"#utility.yul\":307:424   */\n      pop\n        /* \"#utility.yul\":463:465   */\n      0x20\n        /* \"#utility.yul\":489:542   */\n      tag_33\n        /* \"#utility.yul\":534:541   */\n      dup6\n        /* \"#utility.yul\":525:531   */\n      dup3\n        /* \"#utility.yul\":514:523   */\n      dup7\n        /* \"#utility.yul\":510:532   */\n      add\n        /* \"#utility.yul\":489:542   */\n      tag_26\n      jump\t// in\n    tag_33:\n        /* \"#utility.yul\":479:542   */\n      swap2\n      pop\n        /* \"#utility.yul\":434:552   */\n      pop\n        /* \"#utility.yul\":235:559   */\n      swap3\n      pop\n      swap3\n      swap1\n      pop\n      jump\t// out\n        /* \"#utility.yul\":565:683   */\n    tag_34:\n        /* \"#utility.yul\":652:676   */\n      tag_36\n        /* \"#utility.yul\":670:675   */\n      dup2\n        /* \"#utility.yul\":652:676   */\n      tag_37\n      jump\t// in\n    tag_36:\n        /* \"#utility.yul\":647:650   */\n      dup3\n        /* \"#utility.yul\":640:677   */\n      mstore\n        /* \"#utility.yul\":630:683   */\n      pop\n      pop\n      jump\t// out\n        /* \"#utility.yul\":689:911   */\n    tag_11:\n        /* \"#utility.yul\":782:786   */\n      0x00\n        /* \"#utility.yul\":820:822   */\n      0x20\n        /* \"#utility.yul\":809:818   */\n      dup3\n        /* \"#utility.yul\":805:823   */\n      add\n        /* \"#utility.yul\":797:823   */\n      swap1\n      pop\n        /* \"#utility.yul\":833:904   */\n      tag_39\n        /* \"#utility.yul\":901:902   */\n      0x00\n        /* \"#utility.yul\":890:899   */\n      dup4\n        /* \"#utility.yul\":886:903   */\n      add\n        /* \"#utility.yul\":877:883   */\n      dup5\n        /* \"#utility.yul\":833:904   */\n      tag_34\n      jump\t// in\n    tag_39:\n        /* \"#utility.yul\":787:911   */\n      swap3\n      swap2\n      pop\n      pop\n      jump\t// out\n        /* \"#utility.yul\":917:1108   */\n    tag_24:\n        /* \"#utility.yul\":957:961   */\n      0x00\n        /* \"#utility.yul\":977:997   */\n      tag_41\n        /* \"#utility.yul\":995:996   */\n      dup3\n        /* \"#utility.yul\":977:997   */\n      tag_37\n      jump\t// in\n    tag_41:\n        /* \"#utility.yul\":972:997   */\n      swap2\n      pop\n        /* \"#utility.yul\":1011:1031   */\n      tag_42\n        /* \"#utility.yul\":1029:1030   */\n      dup4\n        /* \"#utility.yul\":1011:1031   */\n      tag_37\n      jump\t// in\n    tag_42:\n        /* \"#utility.yul\":1006:1031   */\n      swap3\n      pop\n        /* \"#utility.yul\":1050:1051   */\n      dup3\n        /* \"#utility.yul\":1047:1048   */\n      dup3\n        /* \"#utility.yul\":1044:1052   */\n      lt\n        /* \"#utility.yul\":1041:1043   */\n      iszero\n      tag_43\n      jumpi\n        /* \"#utility.yul\":1055:1073   */\n      tag_44\n      tag_45\n      jump\t// in\n    tag_44:\n        /* \"#utility.yul\":1041:1043   */\n    tag_43:\n        /* \"#utility.yul\":1100:1101   */\n      dup3\n        /* \"#utility.yul\":1097:1098   */\n      dup3\n        /* \"#utility.yul\":1093:1102   */\n      sub\n        /* \"#utility.yul\":1085:1102   */\n      swap1\n      pop\n        /* \"#utility.yul\":962:1108   */\n      swap3\n      swap2\n      pop\n      pop\n      jump\t// out\n        /* \"#utility.yul\":1114:1191   */\n    tag_37:\n        /* \"#utility.yul\":1151:1158   */\n      0x00\n        /* \"#utility.yul\":1180:1185   */\n      dup2\n        /* \"#utility.yul\":1169:1185   */\n      swap1\n      pop\n        /* \"#utility.yul\":1159:1191   */\n      swap2\n      swap1\n      pop\n      jump\t// out\n        /* \"#utility.yul\":1197:1377   */\n    tag_45:\n        /* \"#utility.yul\":1245:1322   */\n      0x4e487b7100000000000000000000000000000000000000000000000000000000\n        /* \"#utility.yul\":1242:1243   */\n      0x00\n        /* \"#utility.yul\":1235:1323   */\n      mstore\n        /* \"#utility.yul\":1342:1346   */\n      0x11\n        /* \"#utility.yul\":1339:1340   */\n      0x04\n        /* \"#utility.yul\":1332:1347   */\n      mstore\n        /* \"#utility.yul\":1366:1370   */\n      0x24\n        /* \"#utility.yul\":1363:1364   */\n      0x00\n        /* \"#utility.yul\":1356:1371   */\n      revert\n        /* \"#utility.yul\":1383:1505   */\n    tag_29:\n        /* \"#utility.yul\":1456:1480   */\n      tag_49\n        /* \"#utility.yul\":1474:1479   */\n      dup2\n        /* \"#utility.yul\":1456:1480   */\n      tag_37\n      jump\t// in\n    tag_49:\n        /* \"#utility.yul\":1449:1454   */\n      dup2\n        /* \"#utility.yul\":1446:1481   */\n      eq\n        /* \"#utility.yul\":1436:1438   */\n      tag_50\n      jumpi\n        /* \"#utility.yul\":1495:1496   */\n      0x00\n        /* \"#utility.yul\":1492:1493   */\n      dup1\n        /* \"#utility.yul\":1485:1497   */\n      revert\n        /* \"#utility.yul\":1436:1438   */\n    tag_50:\n        /* \"#utility.yul\":1426:1505   */\n      pop\n      jump\t// out\n\n    auxdata: 0xa264697066735822122016986e867a157abe2917b89d22fbc8da32846759ac0403e7bd0f683972e6ce3c64736f6c63430008040033\n}\n",
				"bytecode": {
					"linkReferences": {},
					"object": "608060405234801561001057600080fd5b5061024e806100206000396000f3fe608060405234801561001057600080fd5b50600436106100415760003560e01c8063771602f714610046578063a2138e6714610076578063b67d77c5146100a6575b600080fd5b610060600480360381019061005b919061012e565b6100d6565b60405161006d9190610179565b60405180910390f35b610090600480360381019061008b919061012e565b6100e3565b60405161009d9190610179565b60405180910390f35b6100c060048036038101906100bb919061012e565b610103565b6040516100cd9190610179565b60405180910390f35b6000818301905092915050565b600080838485020290506000838485020290508082019250505092915050565b600081836101119190610194565b905092915050565b60008135905061012881610201565b92915050565b6000806040838503121561014157600080fd5b600061014f85828601610119565b925050602061016085828601610119565b9150509250929050565b610173816101c8565b82525050565b600060208201905061018e600083018461016a565b92915050565b600061019f826101c8565b91506101aa836101c8565b9250828210156101bd576101bc6101d2565b5b828203905092915050565b6000819050919050565b7f4e487b7100000000000000000000000000000000000000000000000000000000600052601160045260246000fd5b61020a816101c8565b811461021557600080fd5b5056fea264697066735822122016986e867a157abe2917b89d22fbc8da32846759ac0403e7bd0f683972e6ce3c64736f6c63430008040033",
					"opcodes": "PUSH1 0x80 PUSH1 0x40 MSTORE CALLVALUE DUP1 ISZERO PUSH2 0x10 JUMPI PUSH1 0x0 DUP1 REVERT JUMPDEST POP PUSH2 0x24E DUP1 PUSH2 0x20 PUSH1 0x0 CODECOPY PUSH1 0x0 RETURN INVALID PUSH1 0x80 PUSH1 0x40 MSTORE CALLVALUE DUP1 ISZERO PUSH2 0x10 JUMPI PUSH1 0x0 DUP1 REVERT JUMPDEST POP PUSH1 0x4 CALLDATASIZE LT PUSH2 0x41 JUMPI PUSH1 0x0 CALLDATALOAD PUSH1 0xE0 SHR DUP1 PUSH4 0x771602F7 EQ PUSH2 0x46 JUMPI DUP1 PUSH4 0xA2138E67 EQ PUSH2 0x76 JUMPI DUP1 PUSH4 0xB67D77C5 EQ PUSH2 0xA6 JUMPI JUMPDEST PUSH1 0x0 DUP1 REVERT JUMPDEST PUSH2 0x60 PUSH1 0x4 DUP1 CALLDATASIZE SUB DUP2 ADD SWAP1 PUSH2 0x5B SWAP2 SWAP1 PUSH2 0x12E JUMP JUMPDEST PUSH2 0xD6 JUMP JUMPDEST PUSH1 0x40 MLOAD PUSH2 0x6D SWAP2 SWAP1 PUSH2 0x179 JUMP JUMPDEST PUSH1 0x40 MLOAD DUP1 SWAP2 SUB SWAP1 RETURN JUMPDEST PUSH2 0x90 PUSH1 0x4 DUP1 CALLDATASIZE SUB DUP2 ADD SWAP1 PUSH2 0x8B SWAP2 SWAP1 PUSH2 0x12E JUMP JUMPDEST PUSH2 0xE3 JUMP JUMPDEST PUSH1 0x40 MLOAD PUSH2 0x9D SWAP2 SWAP1 PUSH2 0x179 JUMP JUMPDEST PUSH1 0x40 MLOAD DUP1 SWAP2 SUB SWAP1 RETURN JUMPDEST PUSH2 0xC0 PUSH1 0x4 DUP1 CALLDATASIZE SUB DUP2 ADD SWAP1 PUSH2 0xBB SWAP2 SWAP1 PUSH2 0x12E JUMP JUMPDEST PUSH2 0x103 JUMP JUMPDEST PUSH1 0x40 MLOAD PUSH2 0xCD SWAP2 SWAP1 PUSH2 0x179 JUMP JUMPDEST PUSH1 0x40 MLOAD DUP1 SWAP2 SUB SWAP1 RETURN JUMPDEST PUSH1 0x0 DUP2 DUP4 ADD SWAP1 POP SWAP3 SWAP2 POP POP JUMP JUMPDEST PUSH1 0x0 DUP1 DUP4 DUP5 DUP6 MUL MUL SWAP1 POP PUSH1 0x0 DUP4 DUP5 DUP6 MUL MUL SWAP1 POP DUP1 DUP3 ADD SWAP3 POP POP POP SWAP3 SWAP2 POP POP JUMP JUMPDEST PUSH1 0x0 DUP2 DUP4 PUSH2 0x111 SWAP2 SWAP1 PUSH2 0x194 JUMP JUMPDEST SWAP1 POP SWAP3 SWAP2 POP POP JUMP JUMPDEST PUSH1 0x0 DUP2 CALLDATALOAD SWAP1 POP PUSH2 0x128 DUP2 PUSH2 0x201 JUMP JUMPDEST SWAP3 SWAP2 POP POP JUMP JUMPDEST PUSH1 0x0 DUP1 PUSH1 0x40 DUP4 DUP6 SUB SLT ISZERO PUSH2 0x141 JUMPI PUSH1 0x0 DUP1 REVERT JUMPDEST PUSH1 0x0 PUSH2 0x14F DUP6 DUP3 DUP7 ADD PUSH2 0x119 JUMP JUMPDEST SWAP3 POP POP PUSH1 0x20 PUSH2 0x160 DUP6 DUP3 DUP7 ADD PUSH2 0x119 JUMP JUMPDEST SWAP2 POP POP SWAP3 POP SWAP3 SWAP1 POP JUMP JUMPDEST PUSH2 0x173 DUP2 PUSH2 0x1C8 JUMP JUMPDEST DUP3 MSTORE POP POP JUMP JUMPDEST PUSH1 0x0 PUSH1 0x20 DUP3 ADD SWAP1 POP PUSH2 0x18E PUSH1 0x0 DUP4 ADD DUP5 PUSH2 0x16A JUMP JUMPDEST SWAP3 SWAP2 POP POP JUMP JUMPDEST PUSH1 0x0 PUSH2 0x19F DUP3 PUSH2 0x1C8 JUMP JUMPDEST SWAP2 POP PUSH2 0x1AA DUP4 PUSH2 0x1C8 JUMP JUMPDEST SWAP3 POP DUP3 DUP3 LT ISZERO PUSH2 0x1BD JUMPI PUSH2 0x1BC PUSH2 0x1D2 JUMP JUMPDEST JUMPDEST DUP3 DUP3 SUB SWAP1 POP SWAP3 SWAP2 POP POP JUMP JUMPDEST PUSH1 0x0 DUP2 SWAP1 POP SWAP2 SWAP1 POP JUMP JUMPDEST PUSH32 0x4E487B7100000000000000000000000000000000000000000000000000000000 PUSH1 0x0 MSTORE PUSH1 0x11 PUSH1 0x4 MSTORE PUSH1 0x24 PUSH1 0x0 REVERT JUMPDEST PUSH2 0x20A DUP2 PUSH2 0x1C8 JUMP JUMPDEST DUP2 EQ PUSH2 0x215 JUMPI PUSH1 0x0 DUP1 REVERT JUMPDEST POP JUMP INVALID LOG2 PUSH5 0x6970667358 0x22 SLT KECCAK256 AND SWAP9 PUSH15 0x867A157ABE2917B89D22FBC8DA3284 PUSH8 0x59AC0403E7BD0F68 CODECOPY PUSH19 0xE6CE3C64736F6C634300080400330000000000 "
				},
				"gasEstimates": {
					"creation": {
						"codeDepositCost": "118000",
						"executionCost": "165",
						"totalCost": "118165"
					},
					"external": {
						"add(uint256,uint256)": "infinite",
						"sub(uint256,uint256)": "infinite",
						"sumOfCubes(uint256,uint256)": "infinite"
					}
				},
				"methodIdentifiers": {
					"add(uint256,uint256)": "771602f7",
					"sub(uint256,uint256)": "b67d77c5",
					"sumOfCubes(uint256,uint256)": "a2138e67"
				}
			},
			"storageLayout": {
				"storage": [],
				"types": null
			},
			"userdoc": {
				"kind": "user",
				"methods": {},
				"version": 1
			}
		}
	}
}