{
	"contracts/base/ArrayManipulation.sol": {
		"ArrayManipulation": {
			"abi": [
				{
					"inputs": [
						{
							"internalType": "uint256[]",
							"name": "arr",
							"type": "uint256[]"
						},
						{
							"internalType": "uint256",
							"name": "index",
							"type": "uint256"
						}
					],
					"name": "efficientRemove",
					"outputs": [
						{
							"internalType": "uint256[]",
							"name": "",
							"type": "uint256[]"
						}
					],
					"stateMutability": "pure",
					"type": "function"
				},
				{
					"inputs": [
						{
							"internalType": "uint256[]",
							"name": "arr",
							"type": "uint256[]"
						},
						{
							"internalType": "uint256",
							"name": "index",
							"type": "uint256"
						}
					],
					"name": "remove",
					"outputs": [
						{
							"internalType": "uint256[]",
							"name": "",
							"type": "uint256[]"
						}
					],
					"stateMutability": "pure",
					"type": "function"
				}
			],
			"devdoc": {
				"kind": "dev",
				"methods": {},
				"version": 1
			},
			"evm": {
				"assembly": "    /* \"contracts/base/ArrayManipulation.sol\":61:1021  contract ArrayManipulation {\r... */\n  mstore(0x40, 0x80)\n  callvalue\n  dup1\n  iszero\n  tag_1\n  jumpi\n  0x00\n  dup1\n  revert\ntag_1:\n  pop\n  dataSize(sub_0)\n  dup1\n  dataOffset(sub_0)\n  0x00\n  codecopy\n  0x00\n  return\nstop\n\nsub_0: assembly {\n        /* \"contracts/base/ArrayManipulation.sol\":61:1021  contract ArrayManipulation {\r... */\n      mstore(0x40, 0x80)\n      callvalue\n      dup1\n      iszero\n      tag_1\n      jumpi\n      0x00\n      dup1\n      revert\n    tag_1:\n      pop\n      jumpi(tag_2, lt(calldatasize, 0x04))\n      shr(0xe0, calldataload(0x00))\n      dup1\n      0xaebeb4fa\n      eq\n      tag_3\n      jumpi\n      dup1\n      0xcbbdc4ac\n      eq\n      tag_4\n      jumpi\n    tag_2:\n      0x00\n      dup1\n      revert\n        /* \"contracts/base/ArrayManipulation.sol\":623:1018  function efficientRemove(uint[] memory arr, uint index) public pure returns(uint[] memory) {\r... */\n    tag_3:\n      tag_5\n      0x04\n      dup1\n      calldatasize\n      sub\n      dup2\n      add\n      swap1\n      tag_6\n      swap2\n      swap1\n      tag_7\n      jump\t// in\n    tag_6:\n      tag_8\n      jump\t// in\n    tag_5:\n      mload(0x40)\n      tag_9\n      swap2\n      swap1\n      tag_10\n      jump\t// in\n    tag_9:\n      mload(0x40)\n      dup1\n      swap2\n      sub\n      swap1\n      return\n        /* \"contracts/base/ArrayManipulation.sol\":101:611  function remove(uint[] memory arr,uint index) public pure  returns (uint[] memory){\r... */\n    tag_4:\n      tag_11\n      0x04\n      dup1\n      calldatasize\n      sub\n      dup2\n      add\n      swap1\n      tag_12\n      swap2\n      swap1\n      tag_7\n      jump\t// in\n    tag_12:\n      tag_13\n      jump\t// in\n    tag_11:\n      mload(0x40)\n      tag_14\n      swap2\n      swap1\n      tag_10\n      jump\t// in\n    tag_14:\n      mload(0x40)\n      dup1\n      swap2\n      sub\n      swap1\n      return\n        /* \"contracts/base/ArrayManipulation.sol\":623:1018  function efficientRemove(uint[] memory arr, uint index) public pure returns(uint[] memory) {\r... */\n    tag_8:\n        /* \"contracts/base/ArrayManipulation.sol\":699:712  uint[] memory */\n      0x60\n        /* \"contracts/base/ArrayManipulation.sol\":743:746  arr */\n      dup3\n        /* \"contracts/base/ArrayManipulation.sol\":743:753  arr.length */\n      mload\n        /* \"contracts/base/ArrayManipulation.sol\":735:740  index */\n      dup3\n        /* \"contracts/base/ArrayManipulation.sol\":735:753  index < arr.length */\n      lt\n        /* \"contracts/base/ArrayManipulation.sol\":727:777  require(index < arr.length, \"Index out of bounds\") */\n      tag_16\n      jumpi\n      mload(0x40)\n      0x08c379a000000000000000000000000000000000000000000000000000000000\n      dup2\n      mstore\n      0x04\n      add\n      tag_17\n      swap1\n      tag_18\n      jump\t// in\n    tag_17:\n      mload(0x40)\n      dup1\n      swap2\n      sub\n      swap1\n      revert\n    tag_16:\n        /* \"contracts/base/ArrayManipulation.sol\":803:806  arr */\n      dup3\n        /* \"contracts/base/ArrayManipulation.sol\":820:821  1 */\n      0x01\n        /* \"contracts/base/ArrayManipulation.sol\":807:810  arr */\n      dup5\n        /* \"contracts/base/ArrayManipulation.sol\":807:817  arr.length */\n      mload\n        /* \"contracts/base/ArrayManipulation.sol\":807:821  arr.length - 1 */\n      tag_19\n      swap2\n      swap1\n      tag_20\n      jump\t// in\n    tag_19:\n        /* \"contracts/base/ArrayManipulation.sol\":803:822  arr[arr.length - 1] */\n      dup2\n      mload\n      dup2\n      lt\n      tag_21\n      jumpi\n      mstore(0x00, 0x4e487b7100000000000000000000000000000000000000000000000000000000)\n      mstore(0x04, 0x32)\n      revert(0x00, 0x24)\n    tag_21:\n      0x20\n      mul\n      0x20\n      add\n      add\n      mload\n        /* \"contracts/base/ArrayManipulation.sol\":790:793  arr */\n      dup4\n        /* \"contracts/base/ArrayManipulation.sol\":794:799  index */\n      dup4\n        /* \"contracts/base/ArrayManipulation.sol\":790:800  arr[index] */\n      dup2\n      mload\n      dup2\n      lt\n      tag_22\n      jumpi\n      mstore(0x00, 0x4e487b7100000000000000000000000000000000000000000000000000000000)\n      mstore(0x04, 0x32)\n      revert(0x00, 0x24)\n    tag_22:\n      0x20\n      mul\n      0x20\n      add\n      add\n        /* \"contracts/base/ArrayManipulation.sol\":790:822  arr[index] = arr[arr.length - 1] */\n      dup2\n      dup2\n      mstore\n      pop\n      pop\n        /* \"contracts/base/ArrayManipulation.sol\":835:855  uint[] memory newArr */\n      0x00\n        /* \"contracts/base/ArrayManipulation.sol\":882:883  1 */\n      0x01\n        /* \"contracts/base/ArrayManipulation.sol\":869:872  arr */\n      dup5\n        /* \"contracts/base/ArrayManipulation.sol\":869:879  arr.length */\n      mload\n        /* \"contracts/base/ArrayManipulation.sol\":869:883  arr.length - 1 */\n      tag_23\n      swap2\n      swap1\n      tag_20\n      jump\t// in\n    tag_23:\n        /* \"contracts/base/ArrayManipulation.sol\":858:884  new uint[](arr.length - 1) */\n      0xffffffffffffffff\n      dup2\n      gt\n      iszero\n      tag_24\n      jumpi\n      mstore(0x00, 0x4e487b7100000000000000000000000000000000000000000000000000000000)\n      mstore(0x04, 0x41)\n      revert(0x00, 0x24)\n    tag_24:\n      mload(0x40)\n      swap1\n      dup1\n      dup3\n      mstore\n      dup1\n      0x20\n      mul\n      0x20\n      add\n      dup3\n      add\n      0x40\n      mstore\n      dup1\n      iszero\n      tag_25\n      jumpi\n      dup2\n      0x20\n      add\n      0x20\n      dup3\n      mul\n      dup1\n      calldatasize\n      dup4\n      calldatacopy\n      dup1\n      dup3\n      add\n      swap2\n      pop\n      pop\n      swap1\n      pop\n    tag_25:\n      pop\n        /* \"contracts/base/ArrayManipulation.sol\":835:884  uint[] memory newArr = new uint[](arr.length - 1) */\n      swap1\n      pop\n        /* \"contracts/base/ArrayManipulation.sol\":902:908  uint i */\n      0x00\n        /* \"contracts/base/ArrayManipulation.sol\":897:987  for (uint i = 0; i < newArr.length; i++) {\r... */\n    tag_26:\n        /* \"contracts/base/ArrayManipulation.sol\":918:924  newArr */\n      dup2\n        /* \"contracts/base/ArrayManipulation.sol\":918:931  newArr.length */\n      mload\n        /* \"contracts/base/ArrayManipulation.sol\":914:915  i */\n      dup2\n        /* \"contracts/base/ArrayManipulation.sol\":914:931  i < newArr.length */\n      lt\n        /* \"contracts/base/ArrayManipulation.sol\":897:987  for (uint i = 0; i < newArr.length; i++) {\r... */\n      iszero\n      tag_27\n      jumpi\n        /* \"contracts/base/ArrayManipulation.sol\":967:970  arr */\n      dup5\n        /* \"contracts/base/ArrayManipulation.sol\":971:972  i */\n      dup2\n        /* \"contracts/base/ArrayManipulation.sol\":967:973  arr[i] */\n      dup2\n      mload\n      dup2\n      lt\n      tag_29\n      jumpi\n      mstore(0x00, 0x4e487b7100000000000000000000000000000000000000000000000000000000)\n      mstore(0x04, 0x32)\n      revert(0x00, 0x24)\n    tag_29:\n      0x20\n      mul\n      0x20\n      add\n      add\n      mload\n        /* \"contracts/base/ArrayManipulation.sol\":955:961  newArr */\n      dup3\n        /* \"contracts/base/ArrayManipulation.sol\":962:963  i */\n      dup3\n        /* \"contracts/base/ArrayManipulation.sol\":955:964  newArr[i] */\n      dup2\n      mload\n      dup2\n      lt\n      tag_30\n      jumpi\n      mstore(0x00, 0x4e487b7100000000000000000000000000000000000000000000000000000000)\n      mstore(0x04, 0x32)\n      revert(0x00, 0x24)\n    tag_30:\n      0x20\n      mul\n      0x20\n      add\n      add\n        /* \"contracts/base/ArrayManipulation.sol\":955:973  newArr[i] = arr[i] */\n      dup2\n      dup2\n      mstore\n      pop\n      pop\n        /* \"contracts/base/ArrayManipulation.sol\":933:936  i++ */\n      dup1\n      dup1\n      tag_31\n      swap1\n      tag_32\n      jump\t// in\n    tag_31:\n      swap2\n      pop\n      pop\n        /* \"contracts/base/ArrayManipulation.sol\":897:987  for (uint i = 0; i < newArr.length; i++) {\r... */\n      jump(tag_26)\n    tag_27:\n      pop\n        /* \"contracts/base/ArrayManipulation.sol\":1004:1010  newArr */\n      dup1\n        /* \"contracts/base/ArrayManipulation.sol\":997:1010  return newArr */\n      swap2\n      pop\n      pop\n        /* \"contracts/base/ArrayManipulation.sol\":623:1018  function efficientRemove(uint[] memory arr, uint index) public pure returns(uint[] memory) {\r... */\n      swap3\n      swap2\n      pop\n      pop\n      jump\t// out\n        /* \"contracts/base/ArrayManipulation.sol\":101:611  function remove(uint[] memory arr,uint index) public pure  returns (uint[] memory){\r... */\n    tag_13:\n        /* \"contracts/base/ArrayManipulation.sol\":169:182  uint[] memory */\n      0x60\n        /* \"contracts/base/ArrayManipulation.sol\":215:216  0 */\n      0x00\n        /* \"contracts/base/ArrayManipulation.sol\":202:205  arr */\n      dup4\n        /* \"contracts/base/ArrayManipulation.sol\":202:212  arr.length */\n      mload\n        /* \"contracts/base/ArrayManipulation.sol\":202:216  arr.length > 0 */\n      gt\n        /* \"contracts/base/ArrayManipulation.sol\":194:260  require(arr.length > 0, \"array length must be greater than zero.\") */\n      tag_34\n      jumpi\n      mload(0x40)\n      0x08c379a000000000000000000000000000000000000000000000000000000000\n      dup2\n      mstore\n      0x04\n      add\n      tag_35\n      swap1\n      tag_36\n      jump\t// in\n    tag_35:\n      mload(0x40)\n      dup1\n      swap2\n      sub\n      swap1\n      revert\n    tag_34:\n        /* \"contracts/base/ArrayManipulation.sol\":287:288  0 */\n      0x00\n        /* \"contracts/base/ArrayManipulation.sol\":279:284  index */\n      dup3\n        /* \"contracts/base/ArrayManipulation.sol\":279:288  index > 0 */\n      gt\n        /* \"contracts/base/ArrayManipulation.sol\":279:311  index > 0 && index <= arr.length */\n      dup1\n      iszero\n      tag_37\n      jumpi\n      pop\n        /* \"contracts/base/ArrayManipulation.sol\":301:304  arr */\n      dup3\n        /* \"contracts/base/ArrayManipulation.sol\":301:311  arr.length */\n      mload\n        /* \"contracts/base/ArrayManipulation.sol\":292:297  index */\n      dup3\n        /* \"contracts/base/ArrayManipulation.sol\":292:311  index <= arr.length */\n      gt\n      iszero\n        /* \"contracts/base/ArrayManipulation.sol\":279:311  index > 0 && index <= arr.length */\n    tag_37:\n        /* \"contracts/base/ArrayManipulation.sol\":271:329  require(index > 0 && index <= arr.length, \"Invalid Index\") */\n      tag_38\n      jumpi\n      mload(0x40)\n      0x08c379a000000000000000000000000000000000000000000000000000000000\n      dup2\n      mstore\n      0x04\n      add\n      tag_39\n      swap1\n      tag_40\n      jump\t// in\n    tag_39:\n      mload(0x40)\n      dup1\n      swap2\n      sub\n      swap1\n      revert\n    tag_38:\n        /* \"contracts/base/ArrayManipulation.sol\":366:367  1 */\n      0x01\n        /* \"contracts/base/ArrayManipulation.sol\":353:356  arr */\n      dup4\n        /* \"contracts/base/ArrayManipulation.sol\":353:363  arr.length */\n      mload\n        /* \"contracts/base/ArrayManipulation.sol\":353:367  arr.length - 1 */\n      tag_41\n      swap2\n      swap1\n      tag_20\n      jump\t// in\n    tag_41:\n        /* \"contracts/base/ArrayManipulation.sol\":344:349  index */\n      dup3\n        /* \"contracts/base/ArrayManipulation.sol\":344:367  index != arr.length - 1 */\n      eq\n        /* \"contracts/base/ArrayManipulation.sol\":340:425  if (index != arr.length - 1){\r... */\n      tag_42\n      jumpi\n        /* \"contracts/base/ArrayManipulation.sol\":394:397  arr */\n      dup3\n        /* \"contracts/base/ArrayManipulation.sol\":411:412  1 */\n      0x01\n        /* \"contracts/base/ArrayManipulation.sol\":398:401  arr */\n      dup5\n        /* \"contracts/base/ArrayManipulation.sol\":398:408  arr.length */\n      mload\n        /* \"contracts/base/ArrayManipulation.sol\":398:412  arr.length - 1 */\n      tag_43\n      swap2\n      swap1\n      tag_20\n      jump\t// in\n    tag_43:\n        /* \"contracts/base/ArrayManipulation.sol\":394:413  arr[arr.length - 1] */\n      dup2\n      mload\n      dup2\n      lt\n      tag_44\n      jumpi\n      mstore(0x00, 0x4e487b7100000000000000000000000000000000000000000000000000000000)\n      mstore(0x04, 0x32)\n      revert(0x00, 0x24)\n    tag_44:\n      0x20\n      mul\n      0x20\n      add\n      add\n      mload\n        /* \"contracts/base/ArrayManipulation.sol\":381:384  arr */\n      dup4\n        /* \"contracts/base/ArrayManipulation.sol\":385:390  index */\n      dup4\n        /* \"contracts/base/ArrayManipulation.sol\":381:391  arr[index] */\n      dup2\n      mload\n      dup2\n      lt\n      tag_45\n      jumpi\n      mstore(0x00, 0x4e487b7100000000000000000000000000000000000000000000000000000000)\n      mstore(0x04, 0x32)\n      revert(0x00, 0x24)\n    tag_45:\n      0x20\n      mul\n      0x20\n      add\n      add\n        /* \"contracts/base/ArrayManipulation.sol\":381:413  arr[index] = arr[arr.length - 1] */\n      dup2\n      dup2\n      mstore\n      pop\n      pop\n        /* \"contracts/base/ArrayManipulation.sol\":340:425  if (index != arr.length - 1){\r... */\n    tag_42:\n        /* \"contracts/base/ArrayManipulation.sol\":435:455  uint[] memory newArr */\n      0x00\n        /* \"contracts/base/ArrayManipulation.sol\":482:483  1 */\n      0x01\n        /* \"contracts/base/ArrayManipulation.sol\":469:472  arr */\n      dup5\n        /* \"contracts/base/ArrayManipulation.sol\":469:479  arr.length */\n      mload\n        /* \"contracts/base/ArrayManipulation.sol\":469:483  arr.length - 1 */\n      tag_46\n      swap2\n      swap1\n      tag_20\n      jump\t// in\n    tag_46:\n        /* \"contracts/base/ArrayManipulation.sol\":458:484  new uint[](arr.length - 1) */\n      0xffffffffffffffff\n      dup2\n      gt\n      iszero\n      tag_47\n      jumpi\n      mstore(0x00, 0x4e487b7100000000000000000000000000000000000000000000000000000000)\n      mstore(0x04, 0x41)\n      revert(0x00, 0x24)\n    tag_47:\n      mload(0x40)\n      swap1\n      dup1\n      dup3\n      mstore\n      dup1\n      0x20\n      mul\n      0x20\n      add\n      dup3\n      add\n      0x40\n      mstore\n      dup1\n      iszero\n      tag_48\n      jumpi\n      dup2\n      0x20\n      add\n      0x20\n      dup3\n      mul\n      dup1\n      calldatasize\n      dup4\n      calldatacopy\n      dup1\n      dup3\n      add\n      swap2\n      pop\n      pop\n      swap1\n      pop\n    tag_48:\n      pop\n        /* \"contracts/base/ArrayManipulation.sol\":435:484  uint[] memory newArr = new uint[](arr.length - 1) */\n      swap1\n      pop\n        /* \"contracts/base/ArrayManipulation.sol\":500:506  uint j */\n      0x00\n        /* \"contracts/base/ArrayManipulation.sol\":495:580  for (uint j = 0; j < newArr.length; j++) {\r... */\n    tag_49:\n        /* \"contracts/base/ArrayManipulation.sol\":516:522  newArr */\n      dup2\n        /* \"contracts/base/ArrayManipulation.sol\":516:529  newArr.length */\n      mload\n        /* \"contracts/base/ArrayManipulation.sol\":512:513  j */\n      dup2\n        /* \"contracts/base/ArrayManipulation.sol\":512:529  j < newArr.length */\n      lt\n        /* \"contracts/base/ArrayManipulation.sol\":495:580  for (uint j = 0; j < newArr.length; j++) {\r... */\n      iszero\n      tag_50\n      jumpi\n        /* \"contracts/base/ArrayManipulation.sol\":562:565  arr */\n      dup5\n        /* \"contracts/base/ArrayManipulation.sol\":566:567  j */\n      dup2\n        /* \"contracts/base/ArrayManipulation.sol\":562:568  arr[j] */\n      dup2\n      mload\n      dup2\n      lt\n      tag_52\n      jumpi\n      mstore(0x00, 0x4e487b7100000000000000000000000000000000000000000000000000000000)\n      mstore(0x04, 0x32)\n      revert(0x00, 0x24)\n    tag_52:\n      0x20\n      mul\n      0x20\n      add\n      add\n      mload\n        /* \"contracts/base/ArrayManipulation.sol\":550:556  newArr */\n      dup3\n        /* \"contracts/base/ArrayManipulation.sol\":557:558  j */\n      dup3\n        /* \"contracts/base/ArrayManipulation.sol\":550:559  newArr[j] */\n      dup2\n      mload\n      dup2\n      lt\n      tag_53\n      jumpi\n      mstore(0x00, 0x4e487b7100000000000000000000000000000000000000000000000000000000)\n      mstore(0x04, 0x32)\n      revert(0x00, 0x24)\n    tag_53:\n      0x20\n      mul\n      0x20\n      add\n      add\n        /* \"contracts/base/ArrayManipulation.sol\":550:568  newArr[j] = arr[j] */\n      dup2\n      dup2\n      mstore\n      pop\n      pop\n        /* \"contracts/base/ArrayManipulation.sol\":531:534  j++ */\n      dup1\n      dup1\n      tag_54\n      swap1\n      tag_32\n      jump\t// in\n    tag_54:\n      swap2\n      pop\n      pop\n        /* \"contracts/base/ArrayManipulation.sol\":495:580  for (uint j = 0; j < newArr.length; j++) {\r... */\n      jump(tag_49)\n    tag_50:\n      pop\n        /* \"contracts/base/ArrayManipulation.sol\":597:603  newArr */\n      dup1\n        /* \"contracts/base/ArrayManipulation.sol\":590:603  return newArr */\n      swap2\n      pop\n      pop\n        /* \"contracts/base/ArrayManipulation.sol\":101:611  function remove(uint[] memory arr,uint index) public pure  returns (uint[] memory){\r... */\n      swap3\n      swap2\n      pop\n      pop\n      jump\t// out\n        /* \"#utility.yul\":24:679   */\n    tag_56:\n        /* \"#utility.yul\":120:125   */\n      0x00\n        /* \"#utility.yul\":145:226   */\n      tag_58\n        /* \"#utility.yul\":161:225   */\n      tag_59\n        /* \"#utility.yul\":218:224   */\n      dup5\n        /* \"#utility.yul\":161:225   */\n      tag_60\n      jump\t// in\n    tag_59:\n        /* \"#utility.yul\":145:226   */\n      tag_61\n      jump\t// in\n    tag_58:\n        /* \"#utility.yul\":136:226   */\n      swap1\n      pop\n        /* \"#utility.yul\":246:251   */\n      dup1\n        /* \"#utility.yul\":275:281   */\n      dup4\n        /* \"#utility.yul\":268:273   */\n      dup3\n        /* \"#utility.yul\":261:282   */\n      mstore\n        /* \"#utility.yul\":309:313   */\n      0x20\n        /* \"#utility.yul\":302:307   */\n      dup3\n        /* \"#utility.yul\":298:314   */\n      add\n        /* \"#utility.yul\":291:314   */\n      swap1\n      pop\n        /* \"#utility.yul\":335:341   */\n      dup3\n        /* \"#utility.yul\":385:388   */\n      dup6\n        /* \"#utility.yul\":377:381   */\n      0x20\n        /* \"#utility.yul\":369:375   */\n      dup7\n        /* \"#utility.yul\":365:382   */\n      mul\n        /* \"#utility.yul\":360:363   */\n      dup3\n        /* \"#utility.yul\":356:383   */\n      add\n        /* \"#utility.yul\":353:389   */\n      gt\n        /* \"#utility.yul\":350:352   */\n      iszero\n      tag_62\n      jumpi\n        /* \"#utility.yul\":414:415   */\n      0x00\n        /* \"#utility.yul\":411:412   */\n      dup1\n        /* \"#utility.yul\":404:416   */\n      revert\n        /* \"#utility.yul\":350:352   */\n    tag_62:\n        /* \"#utility.yul\":450:451   */\n      0x00\n        /* \"#utility.yul\":435:673   */\n    tag_63:\n        /* \"#utility.yul\":460:466   */\n      dup6\n        /* \"#utility.yul\":457:458   */\n      dup2\n        /* \"#utility.yul\":454:467   */\n      lt\n        /* \"#utility.yul\":435:673   */\n      iszero\n      tag_65\n      jumpi\n        /* \"#utility.yul\":528:531   */\n      dup2\n        /* \"#utility.yul\":557:594   */\n      tag_66\n        /* \"#utility.yul\":590:593   */\n      dup9\n        /* \"#utility.yul\":578:588   */\n      dup3\n        /* \"#utility.yul\":557:594   */\n      tag_67\n      jump\t// in\n    tag_66:\n        /* \"#utility.yul\":552:555   */\n      dup5\n        /* \"#utility.yul\":545:595   */\n      mstore\n        /* \"#utility.yul\":624:628   */\n      0x20\n        /* \"#utility.yul\":619:622   */\n      dup5\n        /* \"#utility.yul\":615:629   */\n      add\n        /* \"#utility.yul\":608:629   */\n      swap4\n      pop\n        /* \"#utility.yul\":658:662   */\n      0x20\n        /* \"#utility.yul\":653:656   */\n      dup4\n        /* \"#utility.yul\":649:663   */\n      add\n        /* \"#utility.yul\":642:663   */\n      swap3\n      pop\n        /* \"#utility.yul\":495:673   */\n      pop\n        /* \"#utility.yul\":482:483   */\n      0x01\n        /* \"#utility.yul\":479:480   */\n      dup2\n        /* \"#utility.yul\":475:484   */\n      add\n        /* \"#utility.yul\":470:484   */\n      swap1\n      pop\n        /* \"#utility.yul\":435:673   */\n      jump(tag_63)\n    tag_65:\n        /* \"#utility.yul\":439:453   */\n      pop\n        /* \"#utility.yul\":126:679   */\n      pop\n      pop\n      swap4\n      swap3\n      pop\n      pop\n      pop\n      jump\t// out\n        /* \"#utility.yul\":702:1005   */\n    tag_68:\n        /* \"#utility.yul\":773:778   */\n      0x00\n        /* \"#utility.yul\":822:825   */\n      dup3\n        /* \"#utility.yul\":815:819   */\n      0x1f\n        /* \"#utility.yul\":807:813   */\n      dup4\n        /* \"#utility.yul\":803:820   */\n      add\n        /* \"#utility.yul\":799:826   */\n      slt\n        /* \"#utility.yul\":789:791   */\n      tag_70\n      jumpi\n        /* \"#utility.yul\":840:841   */\n      0x00\n        /* \"#utility.yul\":837:838   */\n      dup1\n        /* \"#utility.yul\":830:842   */\n      revert\n        /* \"#utility.yul\":789:791   */\n    tag_70:\n        /* \"#utility.yul\":880:886   */\n      dup2\n        /* \"#utility.yul\":867:887   */\n      calldataload\n        /* \"#utility.yul\":905:999   */\n      tag_71\n        /* \"#utility.yul\":995:998   */\n      dup5\n        /* \"#utility.yul\":987:993   */\n      dup3\n        /* \"#utility.yul\":980:984   */\n      0x20\n        /* \"#utility.yul\":972:978   */\n      dup7\n        /* \"#utility.yul\":968:985   */\n      add\n        /* \"#utility.yul\":905:999   */\n      tag_56\n      jump\t// in\n    tag_71:\n        /* \"#utility.yul\":896:999   */\n      swap2\n      pop\n        /* \"#utility.yul\":779:1005   */\n      pop\n      swap3\n      swap2\n      pop\n      pop\n      jump\t// out\n        /* \"#utility.yul\":1011:1150   */\n    tag_67:\n        /* \"#utility.yul\":1057:1062   */\n      0x00\n        /* \"#utility.yul\":1095:1101   */\n      dup2\n        /* \"#utility.yul\":1082:1102   */\n      calldataload\n        /* \"#utility.yul\":1073:1102   */\n      swap1\n      pop\n        /* \"#utility.yul\":1111:1144   */\n      tag_73\n        /* \"#utility.yul\":1138:1143   */\n      dup2\n        /* \"#utility.yul\":1111:1144   */\n      tag_74\n      jump\t// in\n    tag_73:\n        /* \"#utility.yul\":1063:1150   */\n      swap3\n      swap2\n      pop\n      pop\n      jump\t// out\n        /* \"#utility.yul\":1156:1706   */\n    tag_7:\n        /* \"#utility.yul\":1249:1255   */\n      0x00\n        /* \"#utility.yul\":1257:1263   */\n      dup1\n        /* \"#utility.yul\":1306:1308   */\n      0x40\n        /* \"#utility.yul\":1294:1303   */\n      dup4\n        /* \"#utility.yul\":1285:1292   */\n      dup6\n        /* \"#utility.yul\":1281:1304   */\n      sub\n        /* \"#utility.yul\":1277:1309   */\n      slt\n        /* \"#utility.yul\":1274:1276   */\n      iszero\n      tag_76\n      jumpi\n        /* \"#utility.yul\":1322:1323   */\n      0x00\n        /* \"#utility.yul\":1319:1320   */\n      dup1\n        /* \"#utility.yul\":1312:1324   */\n      revert\n        /* \"#utility.yul\":1274:1276   */\n    tag_76:\n        /* \"#utility.yul\":1393:1394   */\n      0x00\n        /* \"#utility.yul\":1382:1391   */\n      dup4\n        /* \"#utility.yul\":1378:1395   */\n      add\n        /* \"#utility.yul\":1365:1396   */\n      calldataload\n        /* \"#utility.yul\":1423:1441   */\n      0xffffffffffffffff\n        /* \"#utility.yul\":1415:1421   */\n      dup2\n        /* \"#utility.yul\":1412:1442   */\n      gt\n        /* \"#utility.yul\":1409:1411   */\n      iszero\n      tag_77\n      jumpi\n        /* \"#utility.yul\":1455:1456   */\n      0x00\n        /* \"#utility.yul\":1452:1453   */\n      dup1\n        /* \"#utility.yul\":1445:1457   */\n      revert\n        /* \"#utility.yul\":1409:1411   */\n    tag_77:\n        /* \"#utility.yul\":1483:1561   */\n      tag_78\n        /* \"#utility.yul\":1553:1560   */\n      dup6\n        /* \"#utility.yul\":1544:1550   */\n      dup3\n        /* \"#utility.yul\":1533:1542   */\n      dup7\n        /* \"#utility.yul\":1529:1551   */\n      add\n        /* \"#utility.yul\":1483:1561   */\n      tag_68\n      jump\t// in\n    tag_78:\n        /* \"#utility.yul\":1473:1561   */\n      swap3\n      pop\n        /* \"#utility.yul\":1336:1571   */\n      pop\n        /* \"#utility.yul\":1610:1612   */\n      0x20\n        /* \"#utility.yul\":1636:1689   */\n      tag_79\n        /* \"#utility.yul\":1681:1688   */\n      dup6\n        /* \"#utility.yul\":1672:1678   */\n      dup3\n        /* \"#utility.yul\":1661:1670   */\n      dup7\n        /* \"#utility.yul\":1657:1679   */\n      add\n        /* \"#utility.yul\":1636:1689   */\n      tag_67\n      jump\t// in\n    tag_79:\n        /* \"#utility.yul\":1626:1689   */\n      swap2\n      pop\n        /* \"#utility.yul\":1581:1699   */\n      pop\n        /* \"#utility.yul\":1264:1706   */\n      swap3\n      pop\n      swap3\n      swap1\n      pop\n      jump\t// out\n        /* \"#utility.yul\":1712:1891   */\n    tag_80:\n        /* \"#utility.yul\":1781:1791   */\n      0x00\n        /* \"#utility.yul\":1802:1848   */\n      tag_82\n        /* \"#utility.yul\":1844:1847   */\n      dup4\n        /* \"#utility.yul\":1836:1842   */\n      dup4\n        /* \"#utility.yul\":1802:1848   */\n      tag_83\n      jump\t// in\n    tag_82:\n        /* \"#utility.yul\":1880:1884   */\n      0x20\n        /* \"#utility.yul\":1875:1878   */\n      dup4\n        /* \"#utility.yul\":1871:1885   */\n      add\n        /* \"#utility.yul\":1857:1885   */\n      swap1\n      pop\n        /* \"#utility.yul\":1792:1891   */\n      swap3\n      swap2\n      pop\n      pop\n      jump\t// out\n        /* \"#utility.yul\":1927:2659   */\n    tag_84:\n        /* \"#utility.yul\":2046:2049   */\n      0x00\n        /* \"#utility.yul\":2075:2129   */\n      tag_86\n        /* \"#utility.yul\":2123:2128   */\n      dup3\n        /* \"#utility.yul\":2075:2129   */\n      tag_87\n      jump\t// in\n    tag_86:\n        /* \"#utility.yul\":2145:2231   */\n      tag_88\n        /* \"#utility.yul\":2224:2230   */\n      dup2\n        /* \"#utility.yul\":2219:2222   */\n      dup6\n        /* \"#utility.yul\":2145:2231   */\n      tag_89\n      jump\t// in\n    tag_88:\n        /* \"#utility.yul\":2138:2231   */\n      swap4\n      pop\n        /* \"#utility.yul\":2255:2311   */\n      tag_90\n        /* \"#utility.yul\":2305:2310   */\n      dup4\n        /* \"#utility.yul\":2255:2311   */\n      tag_91\n      jump\t// in\n    tag_90:\n        /* \"#utility.yul\":2334:2341   */\n      dup1\n        /* \"#utility.yul\":2365:2366   */\n      0x00\n        /* \"#utility.yul\":2350:2634   */\n    tag_92:\n        /* \"#utility.yul\":2375:2381   */\n      dup4\n        /* \"#utility.yul\":2372:2373   */\n      dup2\n        /* \"#utility.yul\":2369:2382   */\n      lt\n        /* \"#utility.yul\":2350:2634   */\n      iszero\n      tag_94\n      jumpi\n        /* \"#utility.yul\":2451:2457   */\n      dup2\n        /* \"#utility.yul\":2445:2458   */\n      mload\n        /* \"#utility.yul\":2478:2541   */\n      tag_95\n        /* \"#utility.yul\":2537:2540   */\n      dup9\n        /* \"#utility.yul\":2522:2535   */\n      dup3\n        /* \"#utility.yul\":2478:2541   */\n      tag_80\n      jump\t// in\n    tag_95:\n        /* \"#utility.yul\":2471:2541   */\n      swap8\n      pop\n        /* \"#utility.yul\":2564:2624   */\n      tag_96\n        /* \"#utility.yul\":2617:2623   */\n      dup4\n        /* \"#utility.yul\":2564:2624   */\n      tag_97\n      jump\t// in\n    tag_96:\n        /* \"#utility.yul\":2554:2624   */\n      swap3\n      pop\n        /* \"#utility.yul\":2410:2634   */\n      pop\n        /* \"#utility.yul\":2397:2398   */\n      0x01\n        /* \"#utility.yul\":2394:2395   */\n      dup2\n        /* \"#utility.yul\":2390:2399   */\n      add\n        /* \"#utility.yul\":2385:2399   */\n      swap1\n      pop\n        /* \"#utility.yul\":2350:2634   */\n      jump(tag_92)\n    tag_94:\n        /* \"#utility.yul\":2354:2368   */\n      pop\n        /* \"#utility.yul\":2650:2653   */\n      dup6\n        /* \"#utility.yul\":2643:2653   */\n      swap4\n      pop\n        /* \"#utility.yul\":2051:2659   */\n      pop\n      pop\n      pop\n      swap3\n      swap2\n      pop\n      pop\n      jump\t// out\n        /* \"#utility.yul\":2665:3031   */\n    tag_98:\n        /* \"#utility.yul\":2807:2810   */\n      0x00\n        /* \"#utility.yul\":2828:2895   */\n      tag_100\n        /* \"#utility.yul\":2892:2894   */\n      0x27\n        /* \"#utility.yul\":2887:2890   */\n      dup4\n        /* \"#utility.yul\":2828:2895   */\n      tag_101\n      jump\t// in\n    tag_100:\n        /* \"#utility.yul\":2821:2895   */\n      swap2\n      pop\n        /* \"#utility.yul\":2904:2997   */\n      tag_102\n        /* \"#utility.yul\":2993:2996   */\n      dup3\n        /* \"#utility.yul\":2904:2997   */\n      tag_103\n      jump\t// in\n    tag_102:\n        /* \"#utility.yul\":3022:3024   */\n      0x40\n        /* \"#utility.yul\":3017:3020   */\n      dup3\n        /* \"#utility.yul\":3013:3025   */\n      add\n        /* \"#utility.yul\":3006:3025   */\n      swap1\n      pop\n        /* \"#utility.yul\":2811:3031   */\n      swap2\n      swap1\n      pop\n      jump\t// out\n        /* \"#utility.yul\":3037:3403   */\n    tag_104:\n        /* \"#utility.yul\":3179:3182   */\n      0x00\n        /* \"#utility.yul\":3200:3267   */\n      tag_106\n        /* \"#utility.yul\":3264:3266   */\n      0x13\n        /* \"#utility.yul\":3259:3262   */\n      dup4\n        /* \"#utility.yul\":3200:3267   */\n      tag_101\n      jump\t// in\n    tag_106:\n        /* \"#utility.yul\":3193:3267   */\n      swap2\n      pop\n        /* \"#utility.yul\":3276:3369   */\n      tag_107\n        /* \"#utility.yul\":3365:3368   */\n      dup3\n        /* \"#utility.yul\":3276:3369   */\n      tag_108\n      jump\t// in\n    tag_107:\n        /* \"#utility.yul\":3394:3396   */\n      0x20\n        /* \"#utility.yul\":3389:3392   */\n      dup3\n        /* \"#utility.yul\":3385:3397   */\n      add\n        /* \"#utility.yul\":3378:3397   */\n      swap1\n      pop\n        /* \"#utility.yul\":3183:3403   */\n      swap2\n      swap1\n      pop\n      jump\t// out\n        /* \"#utility.yul\":3409:3775   */\n    tag_109:\n        /* \"#utility.yul\":3551:3554   */\n      0x00\n        /* \"#utility.yul\":3572:3639   */\n      tag_111\n        /* \"#utility.yul\":3636:3638   */\n      0x0d\n        /* \"#utility.yul\":3631:3634   */\n      dup4\n        /* \"#utility.yul\":3572:3639   */\n      tag_101\n      jump\t// in\n    tag_111:\n        /* \"#utility.yul\":3565:3639   */\n      swap2\n      pop\n        /* \"#utility.yul\":3648:3741   */\n      tag_112\n        /* \"#utility.yul\":3737:3740   */\n      dup3\n        /* \"#utility.yul\":3648:3741   */\n      tag_113\n      jump\t// in\n    tag_112:\n        /* \"#utility.yul\":3766:3768   */\n      0x20\n        /* \"#utility.yul\":3761:3764   */\n      dup3\n        /* \"#utility.yul\":3757:3769   */\n      add\n        /* \"#utility.yul\":3750:3769   */\n      swap1\n      pop\n        /* \"#utility.yul\":3555:3775   */\n      swap2\n      swap1\n      pop\n      jump\t// out\n        /* \"#utility.yul\":3781:3889   */\n    tag_83:\n        /* \"#utility.yul\":3858:3882   */\n      tag_115\n        /* \"#utility.yul\":3876:3881   */\n      dup2\n        /* \"#utility.yul\":3858:3882   */\n      tag_116\n      jump\t// in\n    tag_115:\n        /* \"#utility.yul\":3853:3856   */\n      dup3\n        /* \"#utility.yul\":3846:3883   */\n      mstore\n        /* \"#utility.yul\":3836:3889   */\n      pop\n      pop\n      jump\t// out\n        /* \"#utility.yul\":3895:4268   */\n    tag_10:\n        /* \"#utility.yul\":4038:4042   */\n      0x00\n        /* \"#utility.yul\":4076:4078   */\n      0x20\n        /* \"#utility.yul\":4065:4074   */\n      dup3\n        /* \"#utility.yul\":4061:4079   */\n      add\n        /* \"#utility.yul\":4053:4079   */\n      swap1\n      pop\n        /* \"#utility.yul\":4125:4134   */\n      dup2\n        /* \"#utility.yul\":4119:4123   */\n      dup2\n        /* \"#utility.yul\":4115:4135   */\n      sub\n        /* \"#utility.yul\":4111:4112   */\n      0x00\n        /* \"#utility.yul\":4100:4109   */\n      dup4\n        /* \"#utility.yul\":4096:4113   */\n      add\n        /* \"#utility.yul\":4089:4136   */\n      mstore\n        /* \"#utility.yul\":4153:4261   */\n      tag_118\n        /* \"#utility.yul\":4256:4260   */\n      dup2\n        /* \"#utility.yul\":4247:4253   */\n      dup5\n        /* \"#utility.yul\":4153:4261   */\n      tag_84\n      jump\t// in\n    tag_118:\n        /* \"#utility.yul\":4145:4261   */\n      swap1\n      pop\n        /* \"#utility.yul\":4043:4268   */\n      swap3\n      swap2\n      pop\n      pop\n      jump\t// out\n        /* \"#utility.yul\":4274:4693   */\n    tag_36:\n        /* \"#utility.yul\":4440:4444   */\n      0x00\n        /* \"#utility.yul\":4478:4480   */\n      0x20\n        /* \"#utility.yul\":4467:4476   */\n      dup3\n        /* \"#utility.yul\":4463:4481   */\n      add\n        /* \"#utility.yul\":4455:4481   */\n      swap1\n      pop\n        /* \"#utility.yul\":4527:4536   */\n      dup2\n        /* \"#utility.yul\":4521:4525   */\n      dup2\n        /* \"#utility.yul\":4517:4537   */\n      sub\n        /* \"#utility.yul\":4513:4514   */\n      0x00\n        /* \"#utility.yul\":4502:4511   */\n      dup4\n        /* \"#utility.yul\":4498:4515   */\n      add\n        /* \"#utility.yul\":4491:4538   */\n      mstore\n        /* \"#utility.yul\":4555:4686   */\n      tag_120\n        /* \"#utility.yul\":4681:4685   */\n      dup2\n        /* \"#utility.yul\":4555:4686   */\n      tag_98\n      jump\t// in\n    tag_120:\n        /* \"#utility.yul\":4547:4686   */\n      swap1\n      pop\n        /* \"#utility.yul\":4445:4693   */\n      swap2\n      swap1\n      pop\n      jump\t// out\n        /* \"#utility.yul\":4699:5118   */\n    tag_18:\n        /* \"#utility.yul\":4865:4869   */\n      0x00\n        /* \"#utility.yul\":4903:4905   */\n      0x20\n        /* \"#utility.yul\":4892:4901   */\n      dup3\n        /* \"#utility.yul\":4888:4906   */\n      add\n        /* \"#utility.yul\":4880:4906   */\n      swap1\n      pop\n        /* \"#utility.yul\":4952:4961   */\n      dup2\n        /* \"#utility.yul\":4946:4950   */\n      dup2\n        /* \"#utility.yul\":4942:4962   */\n      sub\n        /* \"#utility.yul\":4938:4939   */\n      0x00\n        /* \"#utility.yul\":4927:4936   */\n      dup4\n        /* \"#utility.yul\":4923:4940   */\n      add\n        /* \"#utility.yul\":4916:4963   */\n      mstore\n        /* \"#utility.yul\":4980:5111   */\n      tag_122\n        /* \"#utility.yul\":5106:5110   */\n      dup2\n        /* \"#utility.yul\":4980:5111   */\n      tag_104\n      jump\t// in\n    tag_122:\n        /* \"#utility.yul\":4972:5111   */\n      swap1\n      pop\n        /* \"#utility.yul\":4870:5118   */\n      swap2\n      swap1\n      pop\n      jump\t// out\n        /* \"#utility.yul\":5124:5543   */\n    tag_40:\n        /* \"#utility.yul\":5290:5294   */\n      0x00\n        /* \"#utility.yul\":5328:5330   */\n      0x20\n        /* \"#utility.yul\":5317:5326   */\n      dup3\n        /* \"#utility.yul\":5313:5331   */\n      add\n        /* \"#utility.yul\":5305:5331   */\n      swap1\n      pop\n        /* \"#utility.yul\":5377:5386   */\n      dup2\n        /* \"#utility.yul\":5371:5375   */\n      dup2\n        /* \"#utility.yul\":5367:5387   */\n      sub\n        /* \"#utility.yul\":5363:5364   */\n      0x00\n        /* \"#utility.yul\":5352:5361   */\n      dup4\n        /* \"#utility.yul\":5348:5365   */\n      add\n        /* \"#utility.yul\":5341:5388   */\n      mstore\n        /* \"#utility.yul\":5405:5536   */\n      tag_124\n        /* \"#utility.yul\":5531:5535   */\n      dup2\n        /* \"#utility.yul\":5405:5536   */\n      tag_109\n      jump\t// in\n    tag_124:\n        /* \"#utility.yul\":5397:5536   */\n      swap1\n      pop\n        /* \"#utility.yul\":5295:5543   */\n      swap2\n      swap1\n      pop\n      jump\t// out\n        /* \"#utility.yul\":5549:5678   */\n    tag_61:\n        /* \"#utility.yul\":5583:5589   */\n      0x00\n        /* \"#utility.yul\":5610:5630   */\n      tag_126\n      tag_127\n      jump\t// in\n    tag_126:\n        /* \"#utility.yul\":5600:5630   */\n      swap1\n      pop\n        /* \"#utility.yul\":5639:5672   */\n      tag_128\n        /* \"#utility.yul\":5667:5671   */\n      dup3\n        /* \"#utility.yul\":5659:5665   */\n      dup3\n        /* \"#utility.yul\":5639:5672   */\n      tag_129\n      jump\t// in\n    tag_128:\n        /* \"#utility.yul\":5590:5678   */\n      swap2\n      swap1\n      pop\n      jump\t// out\n        /* \"#utility.yul\":5684:5759   */\n    tag_127:\n        /* \"#utility.yul\":5717:5723   */\n      0x00\n        /* \"#utility.yul\":5750:5752   */\n      0x40\n        /* \"#utility.yul\":5744:5753   */\n      mload\n        /* \"#utility.yul\":5734:5753   */\n      swap1\n      pop\n        /* \"#utility.yul\":5724:5759   */\n      swap1\n      jump\t// out\n        /* \"#utility.yul\":5765:6076   */\n    tag_60:\n        /* \"#utility.yul\":5842:5846   */\n      0x00\n        /* \"#utility.yul\":5932:5950   */\n      0xffffffffffffffff\n        /* \"#utility.yul\":5924:5930   */\n      dup3\n        /* \"#utility.yul\":5921:5951   */\n      gt\n        /* \"#utility.yul\":5918:5920   */\n      iszero\n      tag_132\n      jumpi\n        /* \"#utility.yul\":5954:5972   */\n      tag_133\n      tag_134\n      jump\t// in\n    tag_133:\n        /* \"#utility.yul\":5918:5920   */\n    tag_132:\n        /* \"#utility.yul\":6004:6008   */\n      0x20\n        /* \"#utility.yul\":5996:6002   */\n      dup3\n        /* \"#utility.yul\":5992:6009   */\n      mul\n        /* \"#utility.yul\":5984:6009   */\n      swap1\n      pop\n        /* \"#utility.yul\":6064:6068   */\n      0x20\n        /* \"#utility.yul\":6058:6062   */\n      dup2\n        /* \"#utility.yul\":6054:6069   */\n      add\n        /* \"#utility.yul\":6046:6069   */\n      swap1\n      pop\n        /* \"#utility.yul\":5847:6076   */\n      swap2\n      swap1\n      pop\n      jump\t// out\n        /* \"#utility.yul\":6082:6214   */\n    tag_91:\n        /* \"#utility.yul\":6149:6153   */\n      0x00\n        /* \"#utility.yul\":6172:6175   */\n      dup2\n        /* \"#utility.yul\":6164:6175   */\n      swap1\n      pop\n        /* \"#utility.yul\":6202:6206   */\n      0x20\n        /* \"#utility.yul\":6197:6200   */\n      dup3\n        /* \"#utility.yul\":6193:6207   */\n      add\n        /* \"#utility.yul\":6185:6207   */\n      swap1\n      pop\n        /* \"#utility.yul\":6154:6214   */\n      swap2\n      swap1\n      pop\n      jump\t// out\n        /* \"#utility.yul\":6220:6334   */\n    tag_87:\n        /* \"#utility.yul\":6287:6293   */\n      0x00\n        /* \"#utility.yul\":6321:6326   */\n      dup2\n        /* \"#utility.yul\":6315:6327   */\n      mload\n        /* \"#utility.yul\":6305:6327   */\n      swap1\n      pop\n        /* \"#utility.yul\":6294:6334   */\n      swap2\n      swap1\n      pop\n      jump\t// out\n        /* \"#utility.yul\":6340:6453   */\n    tag_97:\n        /* \"#utility.yul\":6410:6414   */\n      0x00\n        /* \"#utility.yul\":6442:6446   */\n      0x20\n        /* \"#utility.yul\":6437:6440   */\n      dup3\n        /* \"#utility.yul\":6433:6447   */\n      add\n        /* \"#utility.yul\":6425:6447   */\n      swap1\n      pop\n        /* \"#utility.yul\":6415:6453   */\n      swap2\n      swap1\n      pop\n      jump\t// out\n        /* \"#utility.yul\":6459:6643   */\n    tag_89:\n        /* \"#utility.yul\":6558:6569   */\n      0x00\n        /* \"#utility.yul\":6592:6598   */\n      dup3\n        /* \"#utility.yul\":6587:6590   */\n      dup3\n        /* \"#utility.yul\":6580:6599   */\n      mstore\n        /* \"#utility.yul\":6632:6636   */\n      0x20\n        /* \"#utility.yul\":6627:6630   */\n      dup3\n        /* \"#utility.yul\":6623:6637   */\n      add\n        /* \"#utility.yul\":6608:6637   */\n      swap1\n      pop\n        /* \"#utility.yul\":6570:6643   */\n      swap3\n      swap2\n      pop\n      pop\n      jump\t// out\n        /* \"#utility.yul\":6649:6818   */\n    tag_101:\n        /* \"#utility.yul\":6733:6744   */\n      0x00\n        /* \"#utility.yul\":6767:6773   */\n      dup3\n        /* \"#utility.yul\":6762:6765   */\n      dup3\n        /* \"#utility.yul\":6755:6774   */\n      mstore\n        /* \"#utility.yul\":6807:6811   */\n      0x20\n        /* \"#utility.yul\":6802:6805   */\n      dup3\n        /* \"#utility.yul\":6798:6812   */\n      add\n        /* \"#utility.yul\":6783:6812   */\n      swap1\n      pop\n        /* \"#utility.yul\":6745:6818   */\n      swap3\n      swap2\n      pop\n      pop\n      jump\t// out\n        /* \"#utility.yul\":6824:7015   */\n    tag_20:\n        /* \"#utility.yul\":6864:6868   */\n      0x00\n        /* \"#utility.yul\":6884:6904   */\n      tag_141\n        /* \"#utility.yul\":6902:6903   */\n      dup3\n        /* \"#utility.yul\":6884:6904   */\n      tag_116\n      jump\t// in\n    tag_141:\n        /* \"#utility.yul\":6879:6904   */\n      swap2\n      pop\n        /* \"#utility.yul\":6918:6938   */\n      tag_142\n        /* \"#utility.yul\":6936:6937   */\n      dup4\n        /* \"#utility.yul\":6918:6938   */\n      tag_116\n      jump\t// in\n    tag_142:\n        /* \"#utility.yul\":6913:6938   */\n      swap3\n      pop\n        /* \"#utility.yul\":6957:6958   */\n      dup3\n        /* \"#utility.yul\":6954:6955   */\n      dup3\n        /* \"#utility.yul\":6951:6959   */\n      lt\n        /* \"#utility.yul\":6948:6950   */\n      iszero\n      tag_143\n      jumpi\n        /* \"#utility.yul\":6962:6980   */\n      tag_144\n      tag_145\n      jump\t// in\n    tag_144:\n        /* \"#utility.yul\":6948:6950   */\n    tag_143:\n        /* \"#utility.yul\":7007:7008   */\n      dup3\n        /* \"#utility.yul\":7004:7005   */\n      dup3\n        /* \"#utility.yul\":7000:7009   */\n      sub\n        /* \"#utility.yul\":6992:7009   */\n      swap1\n      pop\n        /* \"#utility.yul\":6869:7015   */\n      swap3\n      swap2\n      pop\n      pop\n      jump\t// out\n        /* \"#utility.yul\":7021:7098   */\n    tag_116:\n        /* \"#utility.yul\":7058:7065   */\n      0x00\n        /* \"#utility.yul\":7087:7092   */\n      dup2\n        /* \"#utility.yul\":7076:7092   */\n      swap1\n      pop\n        /* \"#utility.yul\":7066:7098   */\n      swap2\n      swap1\n      pop\n      jump\t// out\n        /* \"#utility.yul\":7104:7385   */\n    tag_129:\n        /* \"#utility.yul\":7187:7214   */\n      tag_148\n        /* \"#utility.yul\":7209:7213   */\n      dup3\n        /* \"#utility.yul\":7187:7214   */\n      tag_149\n      jump\t// in\n    tag_148:\n        /* \"#utility.yul\":7179:7185   */\n      dup2\n        /* \"#utility.yul\":7175:7215   */\n      add\n        /* \"#utility.yul\":7317:7323   */\n      dup2\n        /* \"#utility.yul\":7305:7315   */\n      dup2\n        /* \"#utility.yul\":7302:7324   */\n      lt\n        /* \"#utility.yul\":7281:7299   */\n      0xffffffffffffffff\n        /* \"#utility.yul\":7269:7279   */\n      dup3\n        /* \"#utility.yul\":7266:7300   */\n      gt\n        /* \"#utility.yul\":7263:7325   */\n      or\n        /* \"#utility.yul\":7260:7262   */\n      iszero\n      tag_150\n      jumpi\n        /* \"#utility.yul\":7328:7346   */\n      tag_151\n      tag_134\n      jump\t// in\n    tag_151:\n        /* \"#utility.yul\":7260:7262   */\n    tag_150:\n        /* \"#utility.yul\":7368:7378   */\n      dup1\n        /* \"#utility.yul\":7364:7366   */\n      0x40\n        /* \"#utility.yul\":7357:7379   */\n      mstore\n        /* \"#utility.yul\":7147:7385   */\n      pop\n      pop\n      pop\n      jump\t// out\n        /* \"#utility.yul\":7391:7624   */\n    tag_32:\n        /* \"#utility.yul\":7430:7433   */\n      0x00\n        /* \"#utility.yul\":7453:7477   */\n      tag_153\n        /* \"#utility.yul\":7471:7476   */\n      dup3\n        /* \"#utility.yul\":7453:7477   */\n      tag_116\n      jump\t// in\n    tag_153:\n        /* \"#utility.yul\":7444:7477   */\n      swap2\n      pop\n        /* \"#utility.yul\":7499:7565   */\n      0xffffffffffffffffffffffffffffffffffffffffffffffffffffffffffffffff\n        /* \"#utility.yul\":7492:7497   */\n      dup3\n        /* \"#utility.yul\":7489:7566   */\n      eq\n        /* \"#utility.yul\":7486:7488   */\n      iszero\n      tag_154\n      jumpi\n        /* \"#utility.yul\":7569:7587   */\n      tag_155\n      tag_145\n      jump\t// in\n    tag_155:\n        /* \"#utility.yul\":7486:7488   */\n    tag_154:\n        /* \"#utility.yul\":7616:7617   */\n      0x01\n        /* \"#utility.yul\":7609:7614   */\n      dup3\n        /* \"#utility.yul\":7605:7618   */\n      add\n        /* \"#utility.yul\":7598:7618   */\n      swap1\n      pop\n        /* \"#utility.yul\":7434:7624   */\n      swap2\n      swap1\n      pop\n      jump\t// out\n        /* \"#utility.yul\":7630:7810   */\n    tag_145:\n        /* \"#utility.yul\":7678:7755   */\n      0x4e487b7100000000000000000000000000000000000000000000000000000000\n        /* \"#utility.yul\":7675:7676   */\n      0x00\n        /* \"#utility.yul\":7668:7756   */\n      mstore\n        /* \"#utility.yul\":7775:7779   */\n      0x11\n        /* \"#utility.yul\":7772:7773   */\n      0x04\n        /* \"#utility.yul\":7765:7780   */\n      mstore\n        /* \"#utility.yul\":7799:7803   */\n      0x24\n        /* \"#utility.yul\":7796:7797   */\n      0x00\n        /* \"#utility.yul\":7789:7804   */\n      revert\n        /* \"#utility.yul\":7816:7996   */\n    tag_134:\n        /* \"#utility.yul\":7864:7941   */\n      0x4e487b7100000000000000000000000000000000000000000000000000000000\n        /* \"#utility.yul\":7861:7862   */\n      0x00\n        /* \"#utility.yul\":7854:7942   */\n      mstore\n        /* \"#utility.yul\":7961:7965   */\n      0x41\n        /* \"#utility.yul\":7958:7959   */\n      0x04\n        /* \"#utility.yul\":7951:7966   */\n      mstore\n        /* \"#utility.yul\":7985:7989   */\n      0x24\n        /* \"#utility.yul\":7982:7983   */\n      0x00\n        /* \"#utility.yul\":7975:7990   */\n      revert\n        /* \"#utility.yul\":8002:8104   */\n    tag_149:\n        /* \"#utility.yul\":8043:8049   */\n      0x00\n        /* \"#utility.yul\":8094:8096   */\n      0x1f\n        /* \"#utility.yul\":8090:8097   */\n      not\n        /* \"#utility.yul\":8085:8087   */\n      0x1f\n        /* \"#utility.yul\":8078:8083   */\n      dup4\n        /* \"#utility.yul\":8074:8088   */\n      add\n        /* \"#utility.yul\":8070:8098   */\n      and\n        /* \"#utility.yul\":8060:8098   */\n      swap1\n      pop\n        /* \"#utility.yul\":8050:8104   */\n      swap2\n      swap1\n      pop\n      jump\t// out\n        /* \"#utility.yul\":8110:8336   */\n    tag_103:\n        /* \"#utility.yul\":8250:8284   */\n      0x6172726179206c656e677468206d757374206265206772656174657220746861\n        /* \"#utility.yul\":8246:8247   */\n      0x00\n        /* \"#utility.yul\":8238:8244   */\n      dup3\n        /* \"#utility.yul\":8234:8248   */\n      add\n        /* \"#utility.yul\":8227:8285   */\n      mstore\n        /* \"#utility.yul\":8319:8328   */\n      0x6e207a65726f2e00000000000000000000000000000000000000000000000000\n        /* \"#utility.yul\":8314:8316   */\n      0x20\n        /* \"#utility.yul\":8306:8312   */\n      dup3\n        /* \"#utility.yul\":8302:8317   */\n      add\n        /* \"#utility.yul\":8295:8329   */\n      mstore\n        /* \"#utility.yul\":8216:8336   */\n      pop\n      jump\t// out\n        /* \"#utility.yul\":8342:8511   */\n    tag_108:\n        /* \"#utility.yul\":8482:8503   */\n      0x496e646578206f7574206f6620626f756e647300000000000000000000000000\n        /* \"#utility.yul\":8478:8479   */\n      0x00\n        /* \"#utility.yul\":8470:8476   */\n      dup3\n        /* \"#utility.yul\":8466:8480   */\n      add\n        /* \"#utility.yul\":8459:8504   */\n      mstore\n        /* \"#utility.yul\":8448:8511   */\n      pop\n      jump\t// out\n        /* \"#utility.yul\":8517:8680   */\n    tag_113:\n        /* \"#utility.yul\":8657:8672   */\n      0x496e76616c696420496e64657800000000000000000000000000000000000000\n        /* \"#utility.yul\":8653:8654   */\n      0x00\n        /* \"#utility.yul\":8645:8651   */\n      dup3\n        /* \"#utility.yul\":8641:8655   */\n      add\n        /* \"#utility.yul\":8634:8673   */\n      mstore\n        /* \"#utility.yul\":8623:8680   */\n      pop\n      jump\t// out\n        /* \"#utility.yul\":8686:8808   */\n    tag_74:\n        /* \"#utility.yul\":8759:8783   */\n      tag_163\n        /* \"#utility.yul\":8777:8782   */\n      dup2\n        /* \"#utility.yul\":8759:8783   */\n      tag_116\n      jump\t// in\n    tag_163:\n        /* \"#utility.yul\":8752:8757   */\n      dup2\n        /* \"#utility.yul\":8749:8784   */\n      eq\n        /* \"#utility.yul\":8739:8741   */\n      tag_164\n      jumpi\n        /* \"#utility.yul\":8798:8799   */\n      0x00\n        /* \"#utility.yul\":8795:8796   */\n      dup1\n        /* \"#utility.yul\":8788:8800   */\n      revert\n        /* \"#utility.yul\":8739:8741   */\n    tag_164:\n        /* \"#utility.yul\":8729:8808   */\n      pop\n      jump\t// out\n\n    auxdata: 0xa264697066735822122056de59f99e4f7c49fcc665c0c3963e799277e64dce3feaa364b9a356e4b8a63a64736f6c63430008040033\n}\n",
				"bytecode": {
					"linkReferences": {},
					"object": "608060405234801561001057600080fd5b50610a30806100206000396000f3fe608060405234801561001057600080fd5b50600436106100365760003560e01c8063aebeb4fa1461003b578063cbbdc4ac1461006b575b600080fd5b610055600480360381019061005091906105bc565b61009b565b60405161006291906106fe565b60405180910390f35b610085600480360381019061008091906105bc565b6102a3565b60405161009291906106fe565b60405180910390f35b6060825182106100e0576040517f08c379a00000000000000000000000000000000000000000000000000000000081526004016100d790610740565b60405180910390fd5b82600184516100ef919061081b565b81518110610126577f4e487b7100000000000000000000000000000000000000000000000000000000600052603260045260246000fd5b6020026020010151838381518110610167577f4e487b7100000000000000000000000000000000000000000000000000000000600052603260045260246000fd5b602002602001018181525050600060018451610183919061081b565b67ffffffffffffffff8111156101c2577f4e487b7100000000000000000000000000000000000000000000000000000000600052604160045260246000fd5b6040519080825280602002602001820160405280156101f05781602001602082028036833780820191505090505b50905060005b815181101561029857848181518110610238577f4e487b7100000000000000000000000000000000000000000000000000000000600052603260045260246000fd5b6020026020010151828281518110610279577f4e487b7100000000000000000000000000000000000000000000000000000000600052603260045260246000fd5b60200260200101818152505080806102909061088a565b9150506101f6565b508091505092915050565b606060008351116102e9576040517f08c379a00000000000000000000000000000000000000000000000000000000081526004016102e090610720565b60405180910390fd5b6000821180156102fa575082518211155b610339576040517f08c379a000000000000000000000000000000000000000000000000000000000815260040161033090610760565b60405180910390fd5b60018351610347919061081b565b82146103e157826001845161035c919061081b565b81518110610393577f4e487b7100000000000000000000000000000000000000000000000000000000600052603260045260246000fd5b60200260200101518383815181106103d4577f4e487b7100000000000000000000000000000000000000000000000000000000600052603260045260246000fd5b6020026020010181815250505b6000600184516103f1919061081b565b67ffffffffffffffff811115610430577f4e487b7100000000000000000000000000000000000000000000000000000000600052604160045260246000fd5b60405190808252806020026020018201604052801561045e5781602001602082028036833780820191505090505b50905060005b8151811015610506578481815181106104a6577f4e487b7100000000000000000000000000000000000000000000000000000000600052603260045260246000fd5b60200260200101518282815181106104e7577f4e487b7100000000000000000000000000000000000000000000000000000000600052603260045260246000fd5b60200260200101818152505080806104fe9061088a565b915050610464565b508091505092915050565b600061052461051f846107a5565b610780565b9050808382526020820190508285602086028201111561054357600080fd5b60005b85811015610573578161055988826105a7565b845260208401935060208301925050600181019050610546565b5050509392505050565b600082601f83011261058e57600080fd5b813561059e848260208601610511565b91505092915050565b6000813590506105b6816109e3565b92915050565b600080604083850312156105cf57600080fd5b600083013567ffffffffffffffff8111156105e957600080fd5b6105f58582860161057d565b9250506020610606858286016105a7565b9150509250929050565b600061061c83836106ef565b60208301905092915050565b6000610633826107e1565b61063d81856107f9565b9350610648836107d1565b8060005b838110156106795781516106608882610610565b975061066b836107ec565b92505060018101905061064c565b5085935050505092915050565b600061069360278361080a565b915061069e82610942565b604082019050919050565b60006106b660138361080a565b91506106c182610991565b602082019050919050565b60006106d9600d8361080a565b91506106e4826109ba565b602082019050919050565b6106f88161084f565b82525050565b600060208201905081810360008301526107188184610628565b905092915050565b6000602082019050818103600083015261073981610686565b9050919050565b60006020820190508181036000830152610759816106a9565b9050919050565b60006020820190508181036000830152610779816106cc565b9050919050565b600061078a61079b565b90506107968282610859565b919050565b6000604051905090565b600067ffffffffffffffff8211156107c0576107bf610902565b5b602082029050602081019050919050565b6000819050602082019050919050565b600081519050919050565b6000602082019050919050565b600082825260208201905092915050565b600082825260208201905092915050565b60006108268261084f565b91506108318361084f565b925082821015610844576108436108d3565b5b828203905092915050565b6000819050919050565b61086282610931565b810181811067ffffffffffffffff8211171561088157610880610902565b5b80604052505050565b60006108958261084f565b91507fffffffffffffffffffffffffffffffffffffffffffffffffffffffffffffffff8214156108c8576108c76108d3565b5b600182019050919050565b7f4e487b7100000000000000000000000000000000000000000000000000000000600052601160045260246000fd5b7f4e487b7100000000000000000000000000000000000000000000000000000000600052604160045260246000fd5b6000601f19601f8301169050919050565b7f6172726179206c656e677468206d75737420626520677265617465722074686160008201527f6e207a65726f2e00000000000000000000000000000000000000000000000000602082015250565b7f496e646578206f7574206f6620626f756e647300000000000000000000000000600082015250565b7f496e76616c696420496e64657800000000000000000000000000000000000000600082015250565b6109ec8161084f565b81146109f757600080fd5b5056fea264697066735822122056de59f99e4f7c49fcc665c0c3963e799277e64dce3feaa364b9a356e4b8a63a64736f6c63430008040033",
					"opcodes": "PUSH1 0x80 PUSH1 0x40 MSTORE CALLVALUE DUP1 ISZERO PUSH2 0x10 JUMPI PUSH1 0x0 DUP1 REVERT JUMPDEST POP PUSH2 0xA30 DUP1 PUSH2 0x20 PUSH1 0x0 CODECOPY PUSH1 0x0 RETURN INVALID PUSH1 0x80 PUSH1 0x40 MSTORE CALLVALUE DUP1 ISZERO PUSH2 0x10 JUMPI PUSH1 0x0 DUP1 REVERT JUMPDEST POP PUSH1 0x4 CALLDATASIZE LT PUSH2 0x36 JUMPI PUSH1 0x0 CALLDATALOAD PUSH1 0xE0 SHR DUP1 PUSH4 0xAEBEB4FA EQ PUSH2 0x3B JUMPI DUP1 PUSH4 0xCBBDC4AC EQ PUSH2 0x6B JUMPI JUMPDEST PUSH1 0x0 DUP1 REVERT JUMPDEST PUSH2 0x55 PUSH1 0x4 DUP1 CALLDATASIZE SUB DUP2 ADD SWAP1 PUSH2 0x50 SWAP2 SWAP1 PUSH2 0x5BC JUMP JUMPDEST PUSH2 0x9B JUMP JUMPDEST PUSH1 0x40 MLOAD PUSH2 0x62 SWAP2 SWAP1 PUSH2 0x6FE JUMP JUMPDEST PUSH1 0x40 MLOAD DUP1 SWAP2 SUB SWAP1 RETURN JUMPDEST PUSH2 0x85 PUSH1 0x4 DUP1 CALLDATASIZE SUB DUP2 ADD SWAP1 PUSH2 0x80 SWAP2 SWAP1 PUSH2 0x5BC JUMP JUMPDEST PUSH2 0x2A3 JUMP JUMPDEST PUSH1 0x40 MLOAD PUSH2 0x92 SWAP2 SWAP1 PUSH2 0x6FE JUMP JUMPDEST PUSH1 0x40 MLOAD DUP1 SWAP2 SUB SWAP1 RETURN JUMPDEST PUSH1 0x60 DUP3 MLOAD DUP3 LT PUSH2 0xE0 JUMPI PUSH1 0x40 MLOAD PUSH32 0x8C379A000000000000000000000000000000000000000000000000000000000 DUP2 MSTORE PUSH1 0x4 ADD PUSH2 0xD7 SWAP1 PUSH2 0x740 JUMP JUMPDEST PUSH1 0x40 MLOAD DUP1 SWAP2 SUB SWAP1 REVERT JUMPDEST DUP3 PUSH1 0x1 DUP5 MLOAD PUSH2 0xEF SWAP2 SWAP1 PUSH2 0x81B JUMP JUMPDEST DUP2 MLOAD DUP2 LT PUSH2 0x126 JUMPI PUSH32 0x4E487B7100000000000000000000000000000000000000000000000000000000 PUSH1 0x0 MSTORE PUSH1 0x32 PUSH1 0x4 MSTORE PUSH1 0x24 PUSH1 0x0 REVERT JUMPDEST PUSH1 0x20 MUL PUSH1 0x20 ADD ADD MLOAD DUP4 DUP4 DUP2 MLOAD DUP2 LT PUSH2 0x167 JUMPI PUSH32 0x4E487B7100000000000000000000000000000000000000000000000000000000 PUSH1 0x0 MSTORE PUSH1 0x32 PUSH1 0x4 MSTORE PUSH1 0x24 PUSH1 0x0 REVERT JUMPDEST PUSH1 0x20 MUL PUSH1 0x20 ADD ADD DUP2 DUP2 MSTORE POP POP PUSH1 0x0 PUSH1 0x1 DUP5 MLOAD PUSH2 0x183 SWAP2 SWAP1 PUSH2 0x81B JUMP JUMPDEST PUSH8 0xFFFFFFFFFFFFFFFF DUP2 GT ISZERO PUSH2 0x1C2 JUMPI PUSH32 0x4E487B7100000000000000000000000000000000000000000000000000000000 PUSH1 0x0 MSTORE PUSH1 0x41 PUSH1 0x4 MSTORE PUSH1 0x24 PUSH1 0x0 REVERT JUMPDEST PUSH1 0x40 MLOAD SWAP1 DUP1 DUP3 MSTORE DUP1 PUSH1 0x20 MUL PUSH1 0x20 ADD DUP3 ADD PUSH1 0x40 MSTORE DUP1 ISZERO PUSH2 0x1F0 JUMPI DUP2 PUSH1 0x20 ADD PUSH1 0x20 DUP3 MUL DUP1 CALLDATASIZE DUP4 CALLDATACOPY DUP1 DUP3 ADD SWAP2 POP POP SWAP1 POP JUMPDEST POP SWAP1 POP PUSH1 0x0 JUMPDEST DUP2 MLOAD DUP2 LT ISZERO PUSH2 0x298 JUMPI DUP5 DUP2 DUP2 MLOAD DUP2 LT PUSH2 0x238 JUMPI PUSH32 0x4E487B7100000000000000000000000000000000000000000000000000000000 PUSH1 0x0 MSTORE PUSH1 0x32 PUSH1 0x4 MSTORE PUSH1 0x24 PUSH1 0x0 REVERT JUMPDEST PUSH1 0x20 MUL PUSH1 0x20 ADD ADD MLOAD DUP3 DUP3 DUP2 MLOAD DUP2 LT PUSH2 0x279 JUMPI PUSH32 0x4E487B7100000000000000000000000000000000000000000000000000000000 PUSH1 0x0 MSTORE PUSH1 0x32 PUSH1 0x4 MSTORE PUSH1 0x24 PUSH1 0x0 REVERT JUMPDEST PUSH1 0x20 MUL PUSH1 0x20 ADD ADD DUP2 DUP2 MSTORE POP POP DUP1 DUP1 PUSH2 0x290 SWAP1 PUSH2 0x88A JUMP JUMPDEST SWAP2 POP POP PUSH2 0x1F6 JUMP JUMPDEST POP DUP1 SWAP2 POP POP SWAP3 SWAP2 POP POP JUMP JUMPDEST PUSH1 0x60 PUSH1 0x0 DUP4 MLOAD GT PUSH2 0x2E9 JUMPI PUSH1 0x40 MLOAD PUSH32 0x8C379A000000000000000000000000000000000000000000000000000000000 DUP2 MSTORE PUSH1 0x4 ADD PUSH2 0x2E0 SWAP1 PUSH2 0x720 JUMP JUMPDEST PUSH1 0x40 MLOAD DUP1 SWAP2 SUB SWAP1 REVERT JUMPDEST PUSH1 0x0 DUP3 GT DUP1 ISZERO PUSH2 0x2FA JUMPI POP DUP3 MLOAD DUP3 GT ISZERO JUMPDEST PUSH2 0x339 JUMPI PUSH1 0x40 MLOAD PUSH32 0x8C379A000000000000000000000000000000000000000000000000000000000 DUP2 MSTORE PUSH1 0x4 ADD PUSH2 0x330 SWAP1 PUSH2 0x760 JUMP JUMPDEST PUSH1 0x40 MLOAD DUP1 SWAP2 SUB SWAP1 REVERT JUMPDEST PUSH1 0x1 DUP4 MLOAD PUSH2 0x347 SWAP2 SWAP1 PUSH2 0x81B JUMP JUMPDEST DUP3 EQ PUSH2 0x3E1 JUMPI DUP3 PUSH1 0x1 DUP5 MLOAD PUSH2 0x35C SWAP2 SWAP1 PUSH2 0x81B JUMP JUMPDEST DUP2 MLOAD DUP2 LT PUSH2 0x393 JUMPI PUSH32 0x4E487B7100000000000000000000000000000000000000000000000000000000 PUSH1 0x0 MSTORE PUSH1 0x32 PUSH1 0x4 MSTORE PUSH1 0x24 PUSH1 0x0 REVERT JUMPDEST PUSH1 0x20 MUL PUSH1 0x20 ADD ADD MLOAD DUP4 DUP4 DUP2 MLOAD DUP2 LT PUSH2 0x3D4 JUMPI PUSH32 0x4E487B7100000000000000000000000000000000000000000000000000000000 PUSH1 0x0 MSTORE PUSH1 0x32 PUSH1 0x4 MSTORE PUSH1 0x24 PUSH1 0x0 REVERT JUMPDEST PUSH1 0x20 MUL PUSH1 0x20 ADD ADD DUP2 DUP2 MSTORE POP POP JUMPDEST PUSH1 0x0 PUSH1 0x1 DUP5 MLOAD PUSH2 0x3F1 SWAP2 SWAP1 PUSH2 0x81B JUMP JUMPDEST PUSH8 0xFFFFFFFFFFFFFFFF DUP2 GT ISZERO PUSH2 0x430 JUMPI PUSH32 0x4E487B7100000000000000000000000000000000000000000000000000000000 PUSH1 0x0 MSTORE PUSH1 0x41 PUSH1 0x4 MSTORE PUSH1 0x24 PUSH1 0x0 REVERT JUMPDEST PUSH1 0x40 MLOAD SWAP1 DUP1 DUP3 MSTORE DUP1 PUSH1 0x20 MUL PUSH1 0x20 ADD DUP3 ADD PUSH1 0x40 MSTORE DUP1 ISZERO PUSH2 0x45E JUMPI DUP2 PUSH1 0x20 ADD PUSH1 0x20 DUP3 MUL DUP1 CALLDATASIZE DUP4 CALLDATACOPY DUP1 DUP3 ADD SWAP2 POP POP SWAP1 POP JUMPDEST POP SWAP1 POP PUSH1 0x0 JUMPDEST DUP2 MLOAD DUP2 LT ISZERO PUSH2 0x506 JUMPI DUP5 DUP2 DUP2 MLOAD DUP2 LT PUSH2 0x4A6 JUMPI PUSH32 0x4E487B7100000000000000000000000000000000000000000000000000000000 PUSH1 0x0 MSTORE PUSH1 0x32 PUSH1 0x4 MSTORE PUSH1 0x24 PUSH1 0x0 REVERT JUMPDEST PUSH1 0x20 MUL PUSH1 0x20 ADD ADD MLOAD DUP3 DUP3 DUP2 MLOAD DUP2 LT PUSH2 0x4E7 JUMPI PUSH32 0x4E487B7100000000000000000000000000000000000000000000000000000000 PUSH1 0x0 MSTORE PUSH1 0x32 PUSH1 0x4 MSTORE PUSH1 0x24 PUSH1 0x0 REVERT JUMPDEST PUSH1 0x20 MUL PUSH1 0x20 ADD ADD DUP2 DUP2 MSTORE POP POP DUP1 DUP1 PUSH2 0x4FE SWAP1 PUSH2 0x88A JUMP JUMPDEST SWAP2 POP POP PUSH2 0x464 JUMP JUMPDEST POP DUP1 SWAP2 POP POP SWAP3 SWAP2 POP POP JUMP JUMPDEST PUSH1 0x0 PUSH2 0x524 PUSH2 0x51F DUP5 PUSH2 0x7A5 JUMP JUMPDEST PUSH2 0x780 JUMP JUMPDEST SWAP1 POP DUP1 DUP4 DUP3 MSTORE PUSH1 0x20 DUP3 ADD SWAP1 POP DUP3 DUP6 PUSH1 0x20 DUP7 MUL DUP3 ADD GT ISZERO PUSH2 0x543 JUMPI PUSH1 0x0 DUP1 REVERT JUMPDEST PUSH1 0x0 JUMPDEST DUP6 DUP2 LT ISZERO PUSH2 0x573 JUMPI DUP2 PUSH2 0x559 DUP9 DUP3 PUSH2 0x5A7 JUMP JUMPDEST DUP5 MSTORE PUSH1 0x20 DUP5 ADD SWAP4 POP PUSH1 0x20 DUP4 ADD SWAP3 POP POP PUSH1 0x1 DUP2 ADD SWAP1 POP PUSH2 0x546 JUMP JUMPDEST POP POP POP SWAP4 SWAP3 POP POP POP JUMP JUMPDEST PUSH1 0x0 DUP3 PUSH1 0x1F DUP4 ADD SLT PUSH2 0x58E JUMPI PUSH1 0x0 DUP1 REVERT JUMPDEST DUP2 CALLDATALOAD PUSH2 0x59E DUP5 DUP3 PUSH1 0x20 DUP7 ADD PUSH2 0x511 JUMP JUMPDEST SWAP2 POP POP SWAP3 SWAP2 POP POP JUMP JUMPDEST PUSH1 0x0 DUP2 CALLDATALOAD SWAP1 POP PUSH2 0x5B6 DUP2 PUSH2 0x9E3 JUMP JUMPDEST SWAP3 SWAP2 POP POP JUMP JUMPDEST PUSH1 0x0 DUP1 PUSH1 0x40 DUP4 DUP6 SUB SLT ISZERO PUSH2 0x5CF JUMPI PUSH1 0x0 DUP1 REVERT JUMPDEST PUSH1 0x0 DUP4 ADD CALLDATALOAD PUSH8 0xFFFFFFFFFFFFFFFF DUP2 GT ISZERO PUSH2 0x5E9 JUMPI PUSH1 0x0 DUP1 REVERT JUMPDEST PUSH2 0x5F5 DUP6 DUP3 DUP7 ADD PUSH2 0x57D JUMP JUMPDEST SWAP3 POP POP PUSH1 0x20 PUSH2 0x606 DUP6 DUP3 DUP7 ADD PUSH2 0x5A7 JUMP JUMPDEST SWAP2 POP POP SWAP3 POP SWAP3 SWAP1 POP JUMP JUMPDEST PUSH1 0x0 PUSH2 0x61C DUP4 DUP4 PUSH2 0x6EF JUMP JUMPDEST PUSH1 0x20 DUP4 ADD SWAP1 POP SWAP3 SWAP2 POP POP JUMP JUMPDEST PUSH1 0x0 PUSH2 0x633 DUP3 PUSH2 0x7E1 JUMP JUMPDEST PUSH2 0x63D DUP2 DUP6 PUSH2 0x7F9 JUMP JUMPDEST SWAP4 POP PUSH2 0x648 DUP4 PUSH2 0x7D1 JUMP JUMPDEST DUP1 PUSH1 0x0 JUMPDEST DUP4 DUP2 LT ISZERO PUSH2 0x679 JUMPI DUP2 MLOAD PUSH2 0x660 DUP9 DUP3 PUSH2 0x610 JUMP JUMPDEST SWAP8 POP PUSH2 0x66B DUP4 PUSH2 0x7EC JUMP JUMPDEST SWAP3 POP POP PUSH1 0x1 DUP2 ADD SWAP1 POP PUSH2 0x64C JUMP JUMPDEST POP DUP6 SWAP4 POP POP POP POP SWAP3 SWAP2 POP POP JUMP JUMPDEST PUSH1 0x0 PUSH2 0x693 PUSH1 0x27 DUP4 PUSH2 0x80A JUMP JUMPDEST SWAP2 POP PUSH2 0x69E DUP3 PUSH2 0x942 JUMP JUMPDEST PUSH1 0x40 DUP3 ADD SWAP1 POP SWAP2 SWAP1 POP JUMP JUMPDEST PUSH1 0x0 PUSH2 0x6B6 PUSH1 0x13 DUP4 PUSH2 0x80A JUMP JUMPDEST SWAP2 POP PUSH2 0x6C1 DUP3 PUSH2 0x991 JUMP JUMPDEST PUSH1 0x20 DUP3 ADD SWAP1 POP SWAP2 SWAP1 POP JUMP JUMPDEST PUSH1 0x0 PUSH2 0x6D9 PUSH1 0xD DUP4 PUSH2 0x80A JUMP JUMPDEST SWAP2 POP PUSH2 0x6E4 DUP3 PUSH2 0x9BA JUMP JUMPDEST PUSH1 0x20 DUP3 ADD SWAP1 POP SWAP2 SWAP1 POP JUMP JUMPDEST PUSH2 0x6F8 DUP2 PUSH2 0x84F JUMP JUMPDEST DUP3 MSTORE POP POP JUMP JUMPDEST PUSH1 0x0 PUSH1 0x20 DUP3 ADD SWAP1 POP DUP2 DUP2 SUB PUSH1 0x0 DUP4 ADD MSTORE PUSH2 0x718 DUP2 DUP5 PUSH2 0x628 JUMP JUMPDEST SWAP1 POP SWAP3 SWAP2 POP POP JUMP JUMPDEST PUSH1 0x0 PUSH1 0x20 DUP3 ADD SWAP1 POP DUP2 DUP2 SUB PUSH1 0x0 DUP4 ADD MSTORE PUSH2 0x739 DUP2 PUSH2 0x686 JUMP JUMPDEST SWAP1 POP SWAP2 SWAP1 POP JUMP JUMPDEST PUSH1 0x0 PUSH1 0x20 DUP3 ADD SWAP1 POP DUP2 DUP2 SUB PUSH1 0x0 DUP4 ADD MSTORE PUSH2 0x759 DUP2 PUSH2 0x6A9 JUMP JUMPDEST SWAP1 POP SWAP2 SWAP1 POP JUMP JUMPDEST PUSH1 0x0 PUSH1 0x20 DUP3 ADD SWAP1 POP DUP2 DUP2 SUB PUSH1 0x0 DUP4 ADD MSTORE PUSH2 0x779 DUP2 PUSH2 0x6CC JUMP JUMPDEST SWAP1 POP SWAP2 SWAP1 POP JUMP JUMPDEST PUSH1 0x0 PUSH2 0x78A PUSH2 0x79B JUMP JUMPDEST SWAP1 POP PUSH2 0x796 DUP3 DUP3 PUSH2 0x859 JUMP JUMPDEST SWAP2 SWAP1 POP JUMP JUMPDEST PUSH1 0x0 PUSH1 0x40 MLOAD SWAP1 POP SWAP1 JUMP JUMPDEST PUSH1 0x0 PUSH8 0xFFFFFFFFFFFFFFFF DUP3 GT ISZERO PUSH2 0x7C0 JUMPI PUSH2 0x7BF PUSH2 0x902 JUMP JUMPDEST JUMPDEST PUSH1 0x20 DUP3 MUL SWAP1 POP PUSH1 0x20 DUP2 ADD SWAP1 POP SWAP2 SWAP1 POP JUMP JUMPDEST PUSH1 0x0 DUP2 SWAP1 POP PUSH1 0x20 DUP3 ADD SWAP1 POP SWAP2 SWAP1 POP JUMP JUMPDEST PUSH1 0x0 DUP2 MLOAD SWAP1 POP SWAP2 SWAP1 POP JUMP JUMPDEST PUSH1 0x0 PUSH1 0x20 DUP3 ADD SWAP1 POP SWAP2 SWAP1 POP JUMP JUMPDEST PUSH1 0x0 DUP3 DUP3 MSTORE PUSH1 0x20 DUP3 ADD SWAP1 POP SWAP3 SWAP2 POP POP JUMP JUMPDEST PUSH1 0x0 DUP3 DUP3 MSTORE PUSH1 0x20 DUP3 ADD SWAP1 POP SWAP3 SWAP2 POP POP JUMP JUMPDEST PUSH1 0x0 PUSH2 0x826 DUP3 PUSH2 0x84F JUMP JUMPDEST SWAP2 POP PUSH2 0x831 DUP4 PUSH2 0x84F JUMP JUMPDEST SWAP3 POP DUP3 DUP3 LT ISZERO PUSH2 0x844 JUMPI PUSH2 0x843 PUSH2 0x8D3 JUMP JUMPDEST JUMPDEST DUP3 DUP3 SUB SWAP1 POP SWAP3 SWAP2 POP POP JUMP JUMPDEST PUSH1 0x0 DUP2 SWAP1 POP SWAP2 SWAP1 POP JUMP JUMPDEST PUSH2 0x862 DUP3 PUSH2 0x931 JUMP JUMPDEST DUP2 ADD DUP2 DUP2 LT PUSH8 0xFFFFFFFFFFFFFFFF DUP3 GT OR ISZERO PUSH2 0x881 JUMPI PUSH2 0x880 PUSH2 0x902 JUMP JUMPDEST JUMPDEST DUP1 PUSH1 0x40 MSTORE POP POP POP JUMP JUMPDEST PUSH1 0x0 PUSH2 0x895 DUP3 PUSH2 0x84F JUMP JUMPDEST SWAP2 POP PUSH32 0xFFFFFFFFFFFFFFFFFFFFFFFFFFFFFFFFFFFFFFFFFFFFFFFFFFFFFFFFFFFFFFFF DUP3 EQ ISZERO PUSH2 0x8C8 JUMPI PUSH2 0x8C7 PUSH2 0x8D3 JUMP JUMPDEST JUMPDEST PUSH1 0x1 DUP3 ADD SWAP1 POP SWAP2 SWAP1 POP JUMP JUMPDEST PUSH32 0x4E487B7100000000000000000000000000000000000000000000000000000000 PUSH1 0x0 MSTORE PUSH1 0x11 PUSH1 0x4 MSTORE PUSH1 0x24 PUSH1 0x0 REVERT JUMPDEST PUSH32 0x4E487B7100000000000000000000000000000000000000000000000000000000 PUSH1 0x0 MSTORE PUSH1 0x41 PUSH1 0x4 MSTORE PUSH1 0x24 PUSH1 0x0 REVERT JUMPDEST PUSH1 0x0 PUSH1 0x1F NOT PUSH1 0x1F DUP4 ADD AND SWAP1 POP SWAP2 SWAP1 POP JUMP JUMPDEST PUSH32 0x6172726179206C656E677468206D757374206265206772656174657220746861 PUSH1 0x0 DUP3 ADD MSTORE PUSH32 0x6E207A65726F2E00000000000000000000000000000000000000000000000000 PUSH1 0x20 DUP3 ADD MSTORE POP JUMP JUMPDEST PUSH32 0x496E646578206F7574206F6620626F756E647300000000000000000000000000 PUSH1 0x0 DUP3 ADD MSTORE POP JUMP JUMPDEST PUSH32 0x496E76616C696420496E64657800000000000000000000000000000000000000 PUSH1 0x0 DUP3 ADD MSTORE POP JUMP JUMPDEST PUSH2 0x9EC DUP2 PUSH2 0x84F JUMP JUMPDEST DUP2 EQ PUSH2 0x9F7 JUMPI PUSH1 0x0 DUP1 REVERT JUMPDEST POP JUMP INVALID LOG2 PUSH5 0x6970667358 0x22 SLT KECCAK256 JUMP 0xDE MSIZE 0xF9 SWAP15 0x4F PUSH29 0x49FCC665C0C3963E799277E64DCE3FEAA364B9A356E4B8A63A64736F6C PUSH4 0x43000804 STOP CALLER "
				},
				"gasEstimates": {
					"creation": {
						"codeDepositCost": "521600",
						"executionCost": "556",
						"totalCost": "522156"
					},
					"external": {
						"efficientRemove(uint256[],uint256)": "infinite",
						"remove(uint256[],uint256)": "infinite"
					}
				},
				"methodIdentifiers": {
					"efficientRemove(uint256[],uint256)": "aebeb4fa",
					"remove(uint256[],uint256)": "cbbdc4ac"
				}
			},
			"storageLayout": {
				"storage": [],
				"types": null
			},
			"userdoc": {
				"kind": "user",
				"methods": {},
				"version": 1
			}
		}
	}
}