{
	"contracts/base/MyHash.sol": {
		"SignatureVerification": {
			"abi": [
				{
					"inputs": [
						{
							"internalType": "bytes32",
							"name": "messagesHash",
							"type": "bytes32"
						}
					],
					"name": "getEthSignedMessageHash",
					"outputs": [
						{
							"internalType": "bytes32",
							"name": "",
							"type": "bytes32"
						}
					],
					"stateMutability": "pure",
					"type": "function"
				},
				{
					"inputs": [
						{
							"internalType": "string",
							"name": "_msg",
							"type": "string"
						}
					],
					"name": "getMessageHash",
					"outputs": [
						{
							"internalType": "bytes32",
							"name": "",
							"type": "bytes32"
						}
					],
					"stateMutability": "pure",
					"type": "function"
				},
				{
					"inputs": [
						{
							"internalType": "bytes32",
							"name": "ethSignedMessageHash",
							"type": "bytes32"
						},
						{
							"internalType": "bytes",
							"name": "signature",
							"type": "bytes"
						}
					],
					"name": "recover",
					"outputs": [
						{
							"internalType": "address",
							"name": "recoveredAddress",
							"type": "address"
						}
					],
					"stateMutability": "pure",
					"type": "function"
				},
				{
					"inputs": [
						{
							"internalType": "bytes",
							"name": "signature",
							"type": "bytes"
						}
					],
					"name": "splitSignature",
					"outputs": [
						{
							"internalType": "bytes32",
							"name": "x",
							"type": "bytes32"
						},
						{
							"internalType": "bytes32",
							"name": "y",
							"type": "bytes32"
						},
						{
							"internalType": "uint8",
							"name": "v",
							"type": "uint8"
						}
					],
					"stateMutability": "pure",
					"type": "function"
				},
				{
					"inputs": [
						{
							"internalType": "address",
							"name": "sender",
							"type": "address"
						},
						{
							"internalType": "string",
							"name": "_msg",
							"type": "string"
						},
						{
							"internalType": "bytes",
							"name": "sig",
							"type": "bytes"
						}
					],
					"name": "verify",
					"outputs": [
						{
							"internalType": "bool",
							"name": "",
							"type": "bool"
						}
					],
					"stateMutability": "pure",
					"type": "function"
				}
			],
			"devdoc": {
				"kind": "dev",
				"methods": {},
				"version": 1
			},
			"evm": {
				"assembly": "    /* \"contracts/base/MyHash.sol\":65:1392  contract SignatureVerification {\r... */\n  mstore(0x40, 0x80)\n  callvalue\n  dup1\n  iszero\n  tag_1\n  jumpi\n  0x00\n  dup1\n  revert\ntag_1:\n  pop\n  dataSize(sub_0)\n  dup1\n  dataOffset(sub_0)\n  0x00\n  codecopy\n  0x00\n  return\nstop\n\nsub_0: assembly {\n        /* \"contracts/base/MyHash.sol\":65:1392  contract SignatureVerification {\r... */\n      mstore(0x40, 0x80)\n      callvalue\n      dup1\n      iszero\n      tag_1\n      jumpi\n      0x00\n      dup1\n      revert\n    tag_1:\n      pop\n      jumpi(tag_2, lt(calldatasize, 0x04))\n      shr(0xe0, calldataload(0x00))\n      dup1\n      0x19045a25\n      eq\n      tag_3\n      jumpi\n      dup1\n      0x2dd34f0f\n      eq\n      tag_4\n      jumpi\n      dup1\n      0xa7bb5803\n      eq\n      tag_5\n      jumpi\n      dup1\n      0xb446f3b2\n      eq\n      tag_6\n      jumpi\n      dup1\n      0xfa540801\n      eq\n      tag_7\n      jumpi\n    tag_2:\n      0x00\n      dup1\n      revert\n        /* \"contracts/base/MyHash.sol\":761:1026  function recover(bytes32 ethSignedMessageHash,bytes memory signature) public pure\r... */\n    tag_3:\n      tag_8\n      0x04\n      dup1\n      calldatasize\n      sub\n      dup2\n      add\n      swap1\n      tag_9\n      swap2\n      swap1\n      tag_10\n      jump\t// in\n    tag_9:\n      tag_11\n      jump\t// in\n    tag_8:\n      mload(0x40)\n      tag_12\n      swap2\n      swap1\n      tag_13\n      jump\t// in\n    tag_12:\n      mload(0x40)\n      dup1\n      swap2\n      sub\n      swap1\n      return\n        /* \"contracts/base/MyHash.sol\":109:424  function verify(address sender, string memory _msg,bytes memory sig) public pure returns (bool){\r... */\n    tag_4:\n      tag_14\n      0x04\n      dup1\n      calldatasize\n      sub\n      dup2\n      add\n      swap1\n      tag_15\n      swap2\n      swap1\n      tag_16\n      jump\t// in\n    tag_15:\n      tag_17\n      jump\t// in\n    tag_14:\n      mload(0x40)\n      tag_18\n      swap2\n      swap1\n      tag_19\n      jump\t// in\n    tag_18:\n      mload(0x40)\n      dup1\n      swap2\n      sub\n      swap1\n      return\n        /* \"contracts/base/MyHash.sol\":1037:1387  function splitSignature(bytes memory signature) public pure returns (bytes32 x, bytes32 y,uint8 v ){\r... */\n    tag_5:\n      tag_20\n      0x04\n      dup1\n      calldatasize\n      sub\n      dup2\n      add\n      swap1\n      tag_21\n      swap2\n      swap1\n      tag_22\n      jump\t// in\n    tag_21:\n      tag_23\n      jump\t// in\n    tag_20:\n      mload(0x40)\n      tag_24\n      swap4\n      swap3\n      swap2\n      swap1\n      tag_25\n      jump\t// in\n    tag_24:\n      mload(0x40)\n      dup1\n      swap2\n      sub\n      swap1\n      return\n        /* \"contracts/base/MyHash.sol\":432:559  function getMessageHash(string memory _msg ) public pure returns (bytes32){\r... */\n    tag_6:\n      tag_26\n      0x04\n      dup1\n      calldatasize\n      sub\n      dup2\n      add\n      swap1\n      tag_27\n      swap2\n      swap1\n      tag_28\n      jump\t// in\n    tag_27:\n      tag_29\n      jump\t// in\n    tag_26:\n      mload(0x40)\n      tag_30\n      swap2\n      swap1\n      tag_31\n      jump\t// in\n    tag_30:\n      mload(0x40)\n      dup1\n      swap2\n      sub\n      swap1\n      return\n        /* \"contracts/base/MyHash.sol\":569:750  function getEthSignedMessageHash(bytes32 messagesHash ) public pure returns (bytes32){\r... */\n    tag_7:\n      tag_32\n      0x04\n      dup1\n      calldatasize\n      sub\n      dup2\n      add\n      swap1\n      tag_33\n      swap2\n      swap1\n      tag_34\n      jump\t// in\n    tag_33:\n      tag_35\n      jump\t// in\n    tag_32:\n      mload(0x40)\n      tag_36\n      swap2\n      swap1\n      tag_31\n      jump\t// in\n    tag_36:\n      mload(0x40)\n      dup1\n      swap2\n      sub\n      swap1\n      return\n        /* \"contracts/base/MyHash.sol\":761:1026  function recover(bytes32 ethSignedMessageHash,bytes memory signature) public pure\r... */\n    tag_11:\n        /* \"contracts/base/MyHash.sol\":858:882  address recoveredAddress */\n      0x00\n        /* \"contracts/base/MyHash.sol\":900:909  bytes32 x */\n      dup1\n        /* \"contracts/base/MyHash.sol\":911:920  bytes32 y */\n      0x00\n        /* \"contracts/base/MyHash.sol\":921:928  uint8 v */\n      dup1\n        /* \"contracts/base/MyHash.sol\":933:958  splitSignature(signature) */\n      tag_38\n        /* \"contracts/base/MyHash.sol\":948:957  signature */\n      dup6\n        /* \"contracts/base/MyHash.sol\":933:947  splitSignature */\n      tag_23\n        /* \"contracts/base/MyHash.sol\":933:958  splitSignature(signature) */\n      jump\t// in\n    tag_38:\n        /* \"contracts/base/MyHash.sol\":899:958  (bytes32 x, bytes32 y,uint8 v ) = splitSignature(signature) */\n      swap3\n      pop\n      swap3\n      pop\n      swap3\n      pop\n        /* \"contracts/base/MyHash.sol\":980:1017  ecrecover(ethSignedMessageHash,v,x,y) */\n      0x01\n        /* \"contracts/base/MyHash.sol\":990:1010  ethSignedMessageHash */\n      dup7\n        /* \"contracts/base/MyHash.sol\":1011:1012  v */\n      dup3\n        /* \"contracts/base/MyHash.sol\":1013:1014  x */\n      dup6\n        /* \"contracts/base/MyHash.sol\":1015:1016  y */\n      dup6\n        /* \"contracts/base/MyHash.sol\":980:1017  ecrecover(ethSignedMessageHash,v,x,y) */\n      mload(0x40)\n      0x00\n      dup2\n      mstore\n      0x20\n      add\n      0x40\n      mstore\n      mload(0x40)\n      tag_39\n      swap5\n      swap4\n      swap3\n      swap2\n      swap1\n      tag_40\n      jump\t// in\n    tag_39:\n      0x20\n      mload(0x40)\n      0x20\n      dup2\n      sub\n      swap1\n      dup1\n      dup5\n      sub\n      swap1\n      dup6\n      gas\n      staticcall\n      iszero\n      dup1\n      iszero\n      tag_42\n      jumpi\n      returndatasize\n      0x00\n      dup1\n      returndatacopy\n      revert(0x00, returndatasize)\n    tag_42:\n      pop\n      pop\n      pop\n      mload(sub(mload(0x40), 0x20))\n        /* \"contracts/base/MyHash.sol\":973:1017  return ecrecover(ethSignedMessageHash,v,x,y) */\n      swap4\n      pop\n      pop\n      pop\n      pop\n        /* \"contracts/base/MyHash.sol\":761:1026  function recover(bytes32 ethSignedMessageHash,bytes memory signature) public pure\r... */\n      swap3\n      swap2\n      pop\n      pop\n      jump\t// out\n        /* \"contracts/base/MyHash.sol\":109:424  function verify(address sender, string memory _msg,bytes memory sig) public pure returns (bool){\r... */\n    tag_17:\n        /* \"contracts/base/MyHash.sol\":199:203  bool */\n      0x00\n        /* \"contracts/base/MyHash.sol\":219:239  bytes32 messagesHash */\n      dup1\n        /* \"contracts/base/MyHash.sol\":242:262  getMessageHash(_msg) */\n      tag_44\n        /* \"contracts/base/MyHash.sol\":257:261  _msg */\n      dup5\n        /* \"contracts/base/MyHash.sol\":242:256  getMessageHash */\n      tag_29\n        /* \"contracts/base/MyHash.sol\":242:262  getMessageHash(_msg) */\n      jump\t// in\n    tag_44:\n        /* \"contracts/base/MyHash.sol\":219:262  bytes32 messagesHash = getMessageHash(_msg) */\n      swap1\n      pop\n        /* \"contracts/base/MyHash.sol\":277:305  bytes32 ethSignedMessageHash */\n      0x00\n        /* \"contracts/base/MyHash.sol\":308:345  getEthSignedMessageHash(messagesHash) */\n      tag_45\n        /* \"contracts/base/MyHash.sol\":332:344  messagesHash */\n      dup3\n        /* \"contracts/base/MyHash.sol\":308:331  getEthSignedMessageHash */\n      tag_35\n        /* \"contracts/base/MyHash.sol\":308:345  getEthSignedMessageHash(messagesHash) */\n      jump\t// in\n    tag_45:\n        /* \"contracts/base/MyHash.sol\":277:345  bytes32 ethSignedMessageHash = getEthSignedMessageHash(messagesHash) */\n      swap1\n      pop\n        /* \"contracts/base/MyHash.sol\":410:416  sender */\n      dup6\n        /* \"contracts/base/MyHash.sol\":373:416  recover(ethSignedMessageHash,sig) == sender */\n      0xffffffffffffffffffffffffffffffffffffffff\n      and\n        /* \"contracts/base/MyHash.sol\":373:406  recover(ethSignedMessageHash,sig) */\n      tag_46\n        /* \"contracts/base/MyHash.sol\":381:401  ethSignedMessageHash */\n      dup3\n        /* \"contracts/base/MyHash.sol\":402:405  sig */\n      dup7\n        /* \"contracts/base/MyHash.sol\":373:380  recover */\n      tag_11\n        /* \"contracts/base/MyHash.sol\":373:406  recover(ethSignedMessageHash,sig) */\n      jump\t// in\n    tag_46:\n        /* \"contracts/base/MyHash.sol\":373:416  recover(ethSignedMessageHash,sig) == sender */\n      0xffffffffffffffffffffffffffffffffffffffff\n      and\n      eq\n        /* \"contracts/base/MyHash.sol\":366:416  return recover(ethSignedMessageHash,sig) == sender */\n      swap3\n      pop\n      pop\n      pop\n        /* \"contracts/base/MyHash.sol\":109:424  function verify(address sender, string memory _msg,bytes memory sig) public pure returns (bool){\r... */\n      swap4\n      swap3\n      pop\n      pop\n      pop\n      jump\t// out\n        /* \"contracts/base/MyHash.sol\":1037:1387  function splitSignature(bytes memory signature) public pure returns (bytes32 x, bytes32 y,uint8 v ){\r... */\n    tag_23:\n        /* \"contracts/base/MyHash.sol\":1106:1115  bytes32 x */\n      0x00\n        /* \"contracts/base/MyHash.sol\":1117:1126  bytes32 y */\n      dup1\n        /* \"contracts/base/MyHash.sol\":1127:1134  uint8 v */\n      0x00\n        /* \"contracts/base/MyHash.sol\":1175:1177  65 */\n      0x41\n        /* \"contracts/base/MyHash.sol\":1155:1164  signature */\n      dup5\n        /* \"contracts/base/MyHash.sol\":1155:1171  signature.length */\n      mload\n        /* \"contracts/base/MyHash.sol\":1155:1177  signature.length == 65 */\n      eq\n        /* \"contracts/base/MyHash.sol\":1147:1206  require(signature.length == 65, \"Invalid signature length\") */\n      tag_48\n      jumpi\n      mload(0x40)\n      0x08c379a000000000000000000000000000000000000000000000000000000000\n      dup2\n      mstore\n      0x04\n      add\n      tag_49\n      swap1\n      tag_50\n      jump\t// in\n    tag_49:\n      mload(0x40)\n      dup1\n      swap2\n      sub\n      swap1\n      revert\n    tag_48:\n        /* \"contracts/base/MyHash.sol\":1267:1269  32 */\n      0x20\n        /* \"contracts/base/MyHash.sol\":1256:1265  signature */\n      dup5\n        /* \"contracts/base/MyHash.sol\":1252:1270  add(signature, 32) */\n      add\n        /* \"contracts/base/MyHash.sol\":1246:1271  mload(add(signature, 32)) */\n      mload\n        /* \"contracts/base/MyHash.sol\":1241:1271  x := mload(add(signature, 32)) */\n      swap3\n      pop\n        /* \"contracts/base/MyHash.sol\":1311:1313  64 */\n      0x40\n        /* \"contracts/base/MyHash.sol\":1300:1309  signature */\n      dup5\n        /* \"contracts/base/MyHash.sol\":1296:1314  add(signature, 64) */\n      add\n        /* \"contracts/base/MyHash.sol\":1290:1315  mload(add(signature, 64)) */\n      mload\n        /* \"contracts/base/MyHash.sol\":1285:1315  y := mload(add(signature, 64)) */\n      swap2\n      pop\n        /* \"contracts/base/MyHash.sol\":1363:1365  96 */\n      0x60\n        /* \"contracts/base/MyHash.sol\":1352:1361  signature */\n      dup5\n        /* \"contracts/base/MyHash.sol\":1348:1366  add(signature, 96) */\n      add\n        /* \"contracts/base/MyHash.sol\":1342:1367  mload(add(signature, 96)) */\n      mload\n        /* \"contracts/base/MyHash.sol\":1339:1340  0 */\n      0x00\n        /* \"contracts/base/MyHash.sol\":1334:1368  byte(0, mload(add(signature, 96))) */\n      byte\n        /* \"contracts/base/MyHash.sol\":1329:1368  v := byte(0, mload(add(signature, 96))) */\n      swap1\n      pop\n        /* \"contracts/base/MyHash.sol\":1226:1379  {\r... */\n      swap2\n      swap4\n      swap1\n      swap3\n      pop\n      jump\t// out\n        /* \"contracts/base/MyHash.sol\":432:559  function getMessageHash(string memory _msg ) public pure returns (bytes32){\r... */\n    tag_29:\n        /* \"contracts/base/MyHash.sol\":498:505  bytes32 */\n      0x00\n        /* \"contracts/base/MyHash.sol\":545:549  _msg */\n      dup2\n        /* \"contracts/base/MyHash.sol\":534:550  abi.encode(_msg) */\n      add(0x20, mload(0x40))\n      tag_52\n      swap2\n      swap1\n      tag_53\n      jump\t// in\n    tag_52:\n      mload(0x40)\n      0x20\n      dup2\n      dup4\n      sub\n      sub\n      dup2\n      mstore\n      swap1\n      0x40\n      mstore\n        /* \"contracts/base/MyHash.sol\":524:551  keccak256(abi.encode(_msg)) */\n      dup1\n      mload\n      swap1\n      0x20\n      add\n      keccak256\n        /* \"contracts/base/MyHash.sol\":517:551  return keccak256(abi.encode(_msg)) */\n      swap1\n      pop\n        /* \"contracts/base/MyHash.sol\":432:559  function getMessageHash(string memory _msg ) public pure returns (bytes32){\r... */\n      swap2\n      swap1\n      pop\n      jump\t// out\n        /* \"contracts/base/MyHash.sol\":569:750  function getEthSignedMessageHash(bytes32 messagesHash ) public pure returns (bytes32){\r... */\n    tag_35:\n        /* \"contracts/base/MyHash.sol\":646:653  bytes32 */\n      0x00\n        /* \"contracts/base/MyHash.sol\":728:740  messagesHash */\n      dup2\n        /* \"contracts/base/MyHash.sol\":682:741  abi.encode(\"\\x19Ethereum Signed Message:\\n32\",messagesHash) */\n      add(0x20, mload(0x40))\n      tag_55\n      swap2\n      swap1\n      tag_56\n      jump\t// in\n    tag_55:\n      mload(0x40)\n      0x20\n      dup2\n      dup4\n      sub\n      sub\n      dup2\n      mstore\n      swap1\n      0x40\n      mstore\n        /* \"contracts/base/MyHash.sol\":672:742  keccak256(abi.encode(\"\\x19Ethereum Signed Message:\\n32\",messagesHash)) */\n      dup1\n      mload\n      swap1\n      0x20\n      add\n      keccak256\n        /* \"contracts/base/MyHash.sol\":665:742  return keccak256(abi.encode(\"\\x19Ethereum Signed Message:\\n32\",messagesHash)) */\n      swap1\n      pop\n        /* \"contracts/base/MyHash.sol\":569:750  function getEthSignedMessageHash(bytes32 messagesHash ) public pure returns (bytes32){\r... */\n      swap2\n      swap1\n      pop\n      jump\t// out\n        /* \"#utility.yul\":7:350   */\n    tag_58:\n        /* \"#utility.yul\":84:89   */\n      0x00\n        /* \"#utility.yul\":109:174   */\n      tag_60\n        /* \"#utility.yul\":125:173   */\n      tag_61\n        /* \"#utility.yul\":166:172   */\n      dup5\n        /* \"#utility.yul\":125:173   */\n      tag_62\n      jump\t// in\n    tag_61:\n        /* \"#utility.yul\":109:174   */\n      tag_63\n      jump\t// in\n    tag_60:\n        /* \"#utility.yul\":100:174   */\n      swap1\n      pop\n        /* \"#utility.yul\":197:203   */\n      dup3\n        /* \"#utility.yul\":190:195   */\n      dup2\n        /* \"#utility.yul\":183:204   */\n      mstore\n        /* \"#utility.yul\":235:239   */\n      0x20\n        /* \"#utility.yul\":228:233   */\n      dup2\n        /* \"#utility.yul\":224:240   */\n      add\n        /* \"#utility.yul\":273:276   */\n      dup5\n        /* \"#utility.yul\":264:270   */\n      dup5\n        /* \"#utility.yul\":259:262   */\n      dup5\n        /* \"#utility.yul\":255:271   */\n      add\n        /* \"#utility.yul\":252:277   */\n      gt\n        /* \"#utility.yul\":249:251   */\n      iszero\n      tag_64\n      jumpi\n        /* \"#utility.yul\":290:291   */\n      0x00\n        /* \"#utility.yul\":287:288   */\n      dup1\n        /* \"#utility.yul\":280:292   */\n      revert\n        /* \"#utility.yul\":249:251   */\n    tag_64:\n        /* \"#utility.yul\":303:344   */\n      tag_65\n        /* \"#utility.yul\":337:343   */\n      dup5\n        /* \"#utility.yul\":332:335   */\n      dup3\n        /* \"#utility.yul\":327:330   */\n      dup6\n        /* \"#utility.yul\":303:344   */\n      tag_66\n      jump\t// in\n    tag_65:\n        /* \"#utility.yul\":90:350   */\n      pop\n      swap4\n      swap3\n      pop\n      pop\n      pop\n      jump\t// out\n        /* \"#utility.yul\":356:701   */\n    tag_67:\n        /* \"#utility.yul\":434:439   */\n      0x00\n        /* \"#utility.yul\":459:525   */\n      tag_69\n        /* \"#utility.yul\":475:524   */\n      tag_70\n        /* \"#utility.yul\":517:523   */\n      dup5\n        /* \"#utility.yul\":475:524   */\n      tag_71\n      jump\t// in\n    tag_70:\n        /* \"#utility.yul\":459:525   */\n      tag_63\n      jump\t// in\n    tag_69:\n        /* \"#utility.yul\":450:525   */\n      swap1\n      pop\n        /* \"#utility.yul\":548:554   */\n      dup3\n        /* \"#utility.yul\":541:546   */\n      dup2\n        /* \"#utility.yul\":534:555   */\n      mstore\n        /* \"#utility.yul\":586:590   */\n      0x20\n        /* \"#utility.yul\":579:584   */\n      dup2\n        /* \"#utility.yul\":575:591   */\n      add\n        /* \"#utility.yul\":624:627   */\n      dup5\n        /* \"#utility.yul\":615:621   */\n      dup5\n        /* \"#utility.yul\":610:613   */\n      dup5\n        /* \"#utility.yul\":606:622   */\n      add\n        /* \"#utility.yul\":603:628   */\n      gt\n        /* \"#utility.yul\":600:602   */\n      iszero\n      tag_72\n      jumpi\n        /* \"#utility.yul\":641:642   */\n      0x00\n        /* \"#utility.yul\":638:639   */\n      dup1\n        /* \"#utility.yul\":631:643   */\n      revert\n        /* \"#utility.yul\":600:602   */\n    tag_72:\n        /* \"#utility.yul\":654:695   */\n      tag_73\n        /* \"#utility.yul\":688:694   */\n      dup5\n        /* \"#utility.yul\":683:686   */\n      dup3\n        /* \"#utility.yul\":678:681   */\n      dup6\n        /* \"#utility.yul\":654:695   */\n      tag_66\n      jump\t// in\n    tag_73:\n        /* \"#utility.yul\":440:701   */\n      pop\n      swap4\n      swap3\n      pop\n      pop\n      pop\n      jump\t// out\n        /* \"#utility.yul\":707:846   */\n    tag_74:\n        /* \"#utility.yul\":753:758   */\n      0x00\n        /* \"#utility.yul\":791:797   */\n      dup2\n        /* \"#utility.yul\":778:798   */\n      calldataload\n        /* \"#utility.yul\":769:798   */\n      swap1\n      pop\n        /* \"#utility.yul\":807:840   */\n      tag_76\n        /* \"#utility.yul\":834:839   */\n      dup2\n        /* \"#utility.yul\":807:840   */\n      tag_77\n      jump\t// in\n    tag_76:\n        /* \"#utility.yul\":759:846   */\n      swap3\n      swap2\n      pop\n      pop\n      jump\t// out\n        /* \"#utility.yul\":852:991   */\n    tag_78:\n        /* \"#utility.yul\":898:903   */\n      0x00\n        /* \"#utility.yul\":936:942   */\n      dup2\n        /* \"#utility.yul\":923:943   */\n      calldataload\n        /* \"#utility.yul\":914:943   */\n      swap1\n      pop\n        /* \"#utility.yul\":952:985   */\n      tag_80\n        /* \"#utility.yul\":979:984   */\n      dup2\n        /* \"#utility.yul\":952:985   */\n      tag_81\n      jump\t// in\n    tag_80:\n        /* \"#utility.yul\":904:991   */\n      swap3\n      swap2\n      pop\n      pop\n      jump\t// out\n        /* \"#utility.yul\":1010:1281   */\n    tag_82:\n        /* \"#utility.yul\":1065:1070   */\n      0x00\n        /* \"#utility.yul\":1114:1117   */\n      dup3\n        /* \"#utility.yul\":1107:1111   */\n      0x1f\n        /* \"#utility.yul\":1099:1105   */\n      dup4\n        /* \"#utility.yul\":1095:1112   */\n      add\n        /* \"#utility.yul\":1091:1118   */\n      slt\n        /* \"#utility.yul\":1081:1083   */\n      tag_84\n      jumpi\n        /* \"#utility.yul\":1132:1133   */\n      0x00\n        /* \"#utility.yul\":1129:1130   */\n      dup1\n        /* \"#utility.yul\":1122:1134   */\n      revert\n        /* \"#utility.yul\":1081:1083   */\n    tag_84:\n        /* \"#utility.yul\":1172:1178   */\n      dup2\n        /* \"#utility.yul\":1159:1179   */\n      calldataload\n        /* \"#utility.yul\":1197:1275   */\n      tag_85\n        /* \"#utility.yul\":1271:1274   */\n      dup5\n        /* \"#utility.yul\":1263:1269   */\n      dup3\n        /* \"#utility.yul\":1256:1260   */\n      0x20\n        /* \"#utility.yul\":1248:1254   */\n      dup7\n        /* \"#utility.yul\":1244:1261   */\n      add\n        /* \"#utility.yul\":1197:1275   */\n      tag_58\n      jump\t// in\n    tag_85:\n        /* \"#utility.yul\":1188:1275   */\n      swap2\n      pop\n        /* \"#utility.yul\":1071:1281   */\n      pop\n      swap3\n      swap2\n      pop\n      pop\n      jump\t// out\n        /* \"#utility.yul\":1301:1574   */\n    tag_86:\n        /* \"#utility.yul\":1357:1362   */\n      0x00\n        /* \"#utility.yul\":1406:1409   */\n      dup3\n        /* \"#utility.yul\":1399:1403   */\n      0x1f\n        /* \"#utility.yul\":1391:1397   */\n      dup4\n        /* \"#utility.yul\":1387:1404   */\n      add\n        /* \"#utility.yul\":1383:1410   */\n      slt\n        /* \"#utility.yul\":1373:1375   */\n      tag_88\n      jumpi\n        /* \"#utility.yul\":1424:1425   */\n      0x00\n        /* \"#utility.yul\":1421:1422   */\n      dup1\n        /* \"#utility.yul\":1414:1426   */\n      revert\n        /* \"#utility.yul\":1373:1375   */\n    tag_88:\n        /* \"#utility.yul\":1464:1470   */\n      dup2\n        /* \"#utility.yul\":1451:1471   */\n      calldataload\n        /* \"#utility.yul\":1489:1568   */\n      tag_89\n        /* \"#utility.yul\":1564:1567   */\n      dup5\n        /* \"#utility.yul\":1556:1562   */\n      dup3\n        /* \"#utility.yul\":1549:1553   */\n      0x20\n        /* \"#utility.yul\":1541:1547   */\n      dup7\n        /* \"#utility.yul\":1537:1554   */\n      add\n        /* \"#utility.yul\":1489:1568   */\n      tag_67\n      jump\t// in\n    tag_89:\n        /* \"#utility.yul\":1480:1568   */\n      swap2\n      pop\n        /* \"#utility.yul\":1363:1574   */\n      pop\n      swap3\n      swap2\n      pop\n      pop\n      jump\t// out\n        /* \"#utility.yul\":1580:2356   */\n    tag_16:\n        /* \"#utility.yul\":1676:1682   */\n      0x00\n        /* \"#utility.yul\":1684:1690   */\n      dup1\n        /* \"#utility.yul\":1692:1698   */\n      0x00\n        /* \"#utility.yul\":1741:1743   */\n      0x60\n        /* \"#utility.yul\":1729:1738   */\n      dup5\n        /* \"#utility.yul\":1720:1727   */\n      dup7\n        /* \"#utility.yul\":1716:1739   */\n      sub\n        /* \"#utility.yul\":1712:1744   */\n      slt\n        /* \"#utility.yul\":1709:1711   */\n      iszero\n      tag_91\n      jumpi\n        /* \"#utility.yul\":1757:1758   */\n      0x00\n        /* \"#utility.yul\":1754:1755   */\n      dup1\n        /* \"#utility.yul\":1747:1759   */\n      revert\n        /* \"#utility.yul\":1709:1711   */\n    tag_91:\n        /* \"#utility.yul\":1800:1801   */\n      0x00\n        /* \"#utility.yul\":1825:1878   */\n      tag_92\n        /* \"#utility.yul\":1870:1877   */\n      dup7\n        /* \"#utility.yul\":1861:1867   */\n      dup3\n        /* \"#utility.yul\":1850:1859   */\n      dup8\n        /* \"#utility.yul\":1846:1868   */\n      add\n        /* \"#utility.yul\":1825:1878   */\n      tag_74\n      jump\t// in\n    tag_92:\n        /* \"#utility.yul\":1815:1878   */\n      swap4\n      pop\n        /* \"#utility.yul\":1771:1888   */\n      pop\n        /* \"#utility.yul\":1955:1957   */\n      0x20\n        /* \"#utility.yul\":1944:1953   */\n      dup5\n        /* \"#utility.yul\":1940:1958   */\n      add\n        /* \"#utility.yul\":1927:1959   */\n      calldataload\n        /* \"#utility.yul\":1986:2004   */\n      0xffffffffffffffff\n        /* \"#utility.yul\":1978:1984   */\n      dup2\n        /* \"#utility.yul\":1975:2005   */\n      gt\n        /* \"#utility.yul\":1972:1974   */\n      iszero\n      tag_93\n      jumpi\n        /* \"#utility.yul\":2018:2019   */\n      0x00\n        /* \"#utility.yul\":2015:2016   */\n      dup1\n        /* \"#utility.yul\":2008:2020   */\n      revert\n        /* \"#utility.yul\":1972:1974   */\n    tag_93:\n        /* \"#utility.yul\":2046:2109   */\n      tag_94\n        /* \"#utility.yul\":2101:2108   */\n      dup7\n        /* \"#utility.yul\":2092:2098   */\n      dup3\n        /* \"#utility.yul\":2081:2090   */\n      dup8\n        /* \"#utility.yul\":2077:2099   */\n      add\n        /* \"#utility.yul\":2046:2109   */\n      tag_86\n      jump\t// in\n    tag_94:\n        /* \"#utility.yul\":2036:2109   */\n      swap3\n      pop\n        /* \"#utility.yul\":1898:2119   */\n      pop\n        /* \"#utility.yul\":2186:2188   */\n      0x40\n        /* \"#utility.yul\":2175:2184   */\n      dup5\n        /* \"#utility.yul\":2171:2189   */\n      add\n        /* \"#utility.yul\":2158:2190   */\n      calldataload\n        /* \"#utility.yul\":2217:2235   */\n      0xffffffffffffffff\n        /* \"#utility.yul\":2209:2215   */\n      dup2\n        /* \"#utility.yul\":2206:2236   */\n      gt\n        /* \"#utility.yul\":2203:2205   */\n      iszero\n      tag_95\n      jumpi\n        /* \"#utility.yul\":2249:2250   */\n      0x00\n        /* \"#utility.yul\":2246:2247   */\n      dup1\n        /* \"#utility.yul\":2239:2251   */\n      revert\n        /* \"#utility.yul\":2203:2205   */\n    tag_95:\n        /* \"#utility.yul\":2277:2339   */\n      tag_96\n        /* \"#utility.yul\":2331:2338   */\n      dup7\n        /* \"#utility.yul\":2322:2328   */\n      dup3\n        /* \"#utility.yul\":2311:2320   */\n      dup8\n        /* \"#utility.yul\":2307:2329   */\n      add\n        /* \"#utility.yul\":2277:2339   */\n      tag_82\n      jump\t// in\n    tag_96:\n        /* \"#utility.yul\":2267:2339   */\n      swap2\n      pop\n        /* \"#utility.yul\":2129:2349   */\n      pop\n        /* \"#utility.yul\":1699:2356   */\n      swap3\n      pop\n      swap3\n      pop\n      swap3\n      jump\t// out\n        /* \"#utility.yul\":2362:2624   */\n    tag_34:\n        /* \"#utility.yul\":2421:2427   */\n      0x00\n        /* \"#utility.yul\":2470:2472   */\n      0x20\n        /* \"#utility.yul\":2458:2467   */\n      dup3\n        /* \"#utility.yul\":2449:2456   */\n      dup5\n        /* \"#utility.yul\":2445:2468   */\n      sub\n        /* \"#utility.yul\":2441:2473   */\n      slt\n        /* \"#utility.yul\":2438:2440   */\n      iszero\n      tag_98\n      jumpi\n        /* \"#utility.yul\":2486:2487   */\n      0x00\n        /* \"#utility.yul\":2483:2484   */\n      dup1\n        /* \"#utility.yul\":2476:2488   */\n      revert\n        /* \"#utility.yul\":2438:2440   */\n    tag_98:\n        /* \"#utility.yul\":2529:2530   */\n      0x00\n        /* \"#utility.yul\":2554:2607   */\n      tag_99\n        /* \"#utility.yul\":2599:2606   */\n      dup5\n        /* \"#utility.yul\":2590:2596   */\n      dup3\n        /* \"#utility.yul\":2579:2588   */\n      dup6\n        /* \"#utility.yul\":2575:2597   */\n      add\n        /* \"#utility.yul\":2554:2607   */\n      tag_78\n      jump\t// in\n    tag_99:\n        /* \"#utility.yul\":2544:2607   */\n      swap2\n      pop\n        /* \"#utility.yul\":2500:2617   */\n      pop\n        /* \"#utility.yul\":2428:2624   */\n      swap3\n      swap2\n      pop\n      pop\n      jump\t// out\n        /* \"#utility.yul\":2630:3148   */\n    tag_10:\n        /* \"#utility.yul\":2707:2713   */\n      0x00\n        /* \"#utility.yul\":2715:2721   */\n      dup1\n        /* \"#utility.yul\":2764:2766   */\n      0x40\n        /* \"#utility.yul\":2752:2761   */\n      dup4\n        /* \"#utility.yul\":2743:2750   */\n      dup6\n        /* \"#utility.yul\":2739:2762   */\n      sub\n        /* \"#utility.yul\":2735:2767   */\n      slt\n        /* \"#utility.yul\":2732:2734   */\n      iszero\n      tag_101\n      jumpi\n        /* \"#utility.yul\":2780:2781   */\n      0x00\n        /* \"#utility.yul\":2777:2778   */\n      dup1\n        /* \"#utility.yul\":2770:2782   */\n      revert\n        /* \"#utility.yul\":2732:2734   */\n    tag_101:\n        /* \"#utility.yul\":2823:2824   */\n      0x00\n        /* \"#utility.yul\":2848:2901   */\n      tag_102\n        /* \"#utility.yul\":2893:2900   */\n      dup6\n        /* \"#utility.yul\":2884:2890   */\n      dup3\n        /* \"#utility.yul\":2873:2882   */\n      dup7\n        /* \"#utility.yul\":2869:2891   */\n      add\n        /* \"#utility.yul\":2848:2901   */\n      tag_78\n      jump\t// in\n    tag_102:\n        /* \"#utility.yul\":2838:2901   */\n      swap3\n      pop\n        /* \"#utility.yul\":2794:2911   */\n      pop\n        /* \"#utility.yul\":2978:2980   */\n      0x20\n        /* \"#utility.yul\":2967:2976   */\n      dup4\n        /* \"#utility.yul\":2963:2981   */\n      add\n        /* \"#utility.yul\":2950:2982   */\n      calldataload\n        /* \"#utility.yul\":3009:3027   */\n      0xffffffffffffffff\n        /* \"#utility.yul\":3001:3007   */\n      dup2\n        /* \"#utility.yul\":2998:3028   */\n      gt\n        /* \"#utility.yul\":2995:2997   */\n      iszero\n      tag_103\n      jumpi\n        /* \"#utility.yul\":3041:3042   */\n      0x00\n        /* \"#utility.yul\":3038:3039   */\n      dup1\n        /* \"#utility.yul\":3031:3043   */\n      revert\n        /* \"#utility.yul\":2995:2997   */\n    tag_103:\n        /* \"#utility.yul\":3069:3131   */\n      tag_104\n        /* \"#utility.yul\":3123:3130   */\n      dup6\n        /* \"#utility.yul\":3114:3120   */\n      dup3\n        /* \"#utility.yul\":3103:3112   */\n      dup7\n        /* \"#utility.yul\":3099:3121   */\n      add\n        /* \"#utility.yul\":3069:3131   */\n      tag_82\n      jump\t// in\n    tag_104:\n        /* \"#utility.yul\":3059:3131   */\n      swap2\n      pop\n        /* \"#utility.yul\":2921:3141   */\n      pop\n        /* \"#utility.yul\":2722:3148   */\n      swap3\n      pop\n      swap3\n      swap1\n      pop\n      jump\t// out\n        /* \"#utility.yul\":3154:3527   */\n    tag_22:\n        /* \"#utility.yul\":3222:3228   */\n      0x00\n        /* \"#utility.yul\":3271:3273   */\n      0x20\n        /* \"#utility.yul\":3259:3268   */\n      dup3\n        /* \"#utility.yul\":3250:3257   */\n      dup5\n        /* \"#utility.yul\":3246:3269   */\n      sub\n        /* \"#utility.yul\":3242:3274   */\n      slt\n        /* \"#utility.yul\":3239:3241   */\n      iszero\n      tag_106\n      jumpi\n        /* \"#utility.yul\":3287:3288   */\n      0x00\n        /* \"#utility.yul\":3284:3285   */\n      dup1\n        /* \"#utility.yul\":3277:3289   */\n      revert\n        /* \"#utility.yul\":3239:3241   */\n    tag_106:\n        /* \"#utility.yul\":3358:3359   */\n      0x00\n        /* \"#utility.yul\":3347:3356   */\n      dup3\n        /* \"#utility.yul\":3343:3360   */\n      add\n        /* \"#utility.yul\":3330:3361   */\n      calldataload\n        /* \"#utility.yul\":3388:3406   */\n      0xffffffffffffffff\n        /* \"#utility.yul\":3380:3386   */\n      dup2\n        /* \"#utility.yul\":3377:3407   */\n      gt\n        /* \"#utility.yul\":3374:3376   */\n      iszero\n      tag_107\n      jumpi\n        /* \"#utility.yul\":3420:3421   */\n      0x00\n        /* \"#utility.yul\":3417:3418   */\n      dup1\n        /* \"#utility.yul\":3410:3422   */\n      revert\n        /* \"#utility.yul\":3374:3376   */\n    tag_107:\n        /* \"#utility.yul\":3448:3510   */\n      tag_108\n        /* \"#utility.yul\":3502:3509   */\n      dup5\n        /* \"#utility.yul\":3493:3499   */\n      dup3\n        /* \"#utility.yul\":3482:3491   */\n      dup6\n        /* \"#utility.yul\":3478:3500   */\n      add\n        /* \"#utility.yul\":3448:3510   */\n      tag_82\n      jump\t// in\n    tag_108:\n        /* \"#utility.yul\":3438:3510   */\n      swap2\n      pop\n        /* \"#utility.yul\":3301:3520   */\n      pop\n        /* \"#utility.yul\":3229:3527   */\n      swap3\n      swap2\n      pop\n      pop\n      jump\t// out\n        /* \"#utility.yul\":3533:3908   */\n    tag_28:\n        /* \"#utility.yul\":3602:3608   */\n      0x00\n        /* \"#utility.yul\":3651:3653   */\n      0x20\n        /* \"#utility.yul\":3639:3648   */\n      dup3\n        /* \"#utility.yul\":3630:3637   */\n      dup5\n        /* \"#utility.yul\":3626:3649   */\n      sub\n        /* \"#utility.yul\":3622:3654   */\n      slt\n        /* \"#utility.yul\":3619:3621   */\n      iszero\n      tag_110\n      jumpi\n        /* \"#utility.yul\":3667:3668   */\n      0x00\n        /* \"#utility.yul\":3664:3665   */\n      dup1\n        /* \"#utility.yul\":3657:3669   */\n      revert\n        /* \"#utility.yul\":3619:3621   */\n    tag_110:\n        /* \"#utility.yul\":3738:3739   */\n      0x00\n        /* \"#utility.yul\":3727:3736   */\n      dup3\n        /* \"#utility.yul\":3723:3740   */\n      add\n        /* \"#utility.yul\":3710:3741   */\n      calldataload\n        /* \"#utility.yul\":3768:3786   */\n      0xffffffffffffffff\n        /* \"#utility.yul\":3760:3766   */\n      dup2\n        /* \"#utility.yul\":3757:3787   */\n      gt\n        /* \"#utility.yul\":3754:3756   */\n      iszero\n      tag_111\n      jumpi\n        /* \"#utility.yul\":3800:3801   */\n      0x00\n        /* \"#utility.yul\":3797:3798   */\n      dup1\n        /* \"#utility.yul\":3790:3802   */\n      revert\n        /* \"#utility.yul\":3754:3756   */\n    tag_111:\n        /* \"#utility.yul\":3828:3891   */\n      tag_112\n        /* \"#utility.yul\":3883:3890   */\n      dup5\n        /* \"#utility.yul\":3874:3880   */\n      dup3\n        /* \"#utility.yul\":3863:3872   */\n      dup6\n        /* \"#utility.yul\":3859:3881   */\n      add\n        /* \"#utility.yul\":3828:3891   */\n      tag_86\n      jump\t// in\n    tag_112:\n        /* \"#utility.yul\":3818:3891   */\n      swap2\n      pop\n        /* \"#utility.yul\":3681:3901   */\n      pop\n        /* \"#utility.yul\":3609:3908   */\n      swap3\n      swap2\n      pop\n      pop\n      jump\t// out\n        /* \"#utility.yul\":3914:4032   */\n    tag_113:\n        /* \"#utility.yul\":4001:4025   */\n      tag_115\n        /* \"#utility.yul\":4019:4024   */\n      dup2\n        /* \"#utility.yul\":4001:4025   */\n      tag_116\n      jump\t// in\n    tag_115:\n        /* \"#utility.yul\":3996:3999   */\n      dup3\n        /* \"#utility.yul\":3989:4026   */\n      mstore\n        /* \"#utility.yul\":3979:4032   */\n      pop\n      pop\n      jump\t// out\n        /* \"#utility.yul\":4038:4147   */\n    tag_117:\n        /* \"#utility.yul\":4119:4140   */\n      tag_119\n        /* \"#utility.yul\":4134:4139   */\n      dup2\n        /* \"#utility.yul\":4119:4140   */\n      tag_120\n      jump\t// in\n    tag_119:\n        /* \"#utility.yul\":4114:4117   */\n      dup3\n        /* \"#utility.yul\":4107:4141   */\n      mstore\n        /* \"#utility.yul\":4097:4147   */\n      pop\n      pop\n      jump\t// out\n        /* \"#utility.yul\":4153:4271   */\n    tag_121:\n        /* \"#utility.yul\":4240:4264   */\n      tag_123\n        /* \"#utility.yul\":4258:4263   */\n      dup2\n        /* \"#utility.yul\":4240:4264   */\n      tag_124\n      jump\t// in\n    tag_123:\n        /* \"#utility.yul\":4235:4238   */\n      dup3\n        /* \"#utility.yul\":4228:4265   */\n      mstore\n        /* \"#utility.yul\":4218:4271   */\n      pop\n      pop\n      jump\t// out\n        /* \"#utility.yul\":4277:4641   */\n    tag_125:\n        /* \"#utility.yul\":4365:4368   */\n      0x00\n        /* \"#utility.yul\":4393:4432   */\n      tag_127\n        /* \"#utility.yul\":4426:4431   */\n      dup3\n        /* \"#utility.yul\":4393:4432   */\n      tag_128\n      jump\t// in\n    tag_127:\n        /* \"#utility.yul\":4448:4519   */\n      tag_129\n        /* \"#utility.yul\":4512:4518   */\n      dup2\n        /* \"#utility.yul\":4507:4510   */\n      dup6\n        /* \"#utility.yul\":4448:4519   */\n      tag_130\n      jump\t// in\n    tag_129:\n        /* \"#utility.yul\":4441:4519   */\n      swap4\n      pop\n        /* \"#utility.yul\":4528:4580   */\n      tag_131\n        /* \"#utility.yul\":4573:4579   */\n      dup2\n        /* \"#utility.yul\":4568:4571   */\n      dup6\n        /* \"#utility.yul\":4561:4565   */\n      0x20\n        /* \"#utility.yul\":4554:4559   */\n      dup7\n        /* \"#utility.yul\":4550:4566   */\n      add\n        /* \"#utility.yul\":4528:4580   */\n      tag_132\n      jump\t// in\n    tag_131:\n        /* \"#utility.yul\":4605:4634   */\n      tag_133\n        /* \"#utility.yul\":4627:4633   */\n      dup2\n        /* \"#utility.yul\":4605:4634   */\n      tag_134\n      jump\t// in\n    tag_133:\n        /* \"#utility.yul\":4600:4603   */\n      dup5\n        /* \"#utility.yul\":4596:4635   */\n      add\n        /* \"#utility.yul\":4589:4635   */\n      swap2\n      pop\n        /* \"#utility.yul\":4369:4641   */\n      pop\n      swap3\n      swap2\n      pop\n      pop\n      jump\t// out\n        /* \"#utility.yul\":4647:5013   */\n    tag_135:\n        /* \"#utility.yul\":4789:4792   */\n      0x00\n        /* \"#utility.yul\":4810:4877   */\n      tag_137\n        /* \"#utility.yul\":4874:4876   */\n      0x1c\n        /* \"#utility.yul\":4869:4872   */\n      dup4\n        /* \"#utility.yul\":4810:4877   */\n      tag_130\n      jump\t// in\n    tag_137:\n        /* \"#utility.yul\":4803:4877   */\n      swap2\n      pop\n        /* \"#utility.yul\":4886:4979   */\n      tag_138\n        /* \"#utility.yul\":4975:4978   */\n      dup3\n        /* \"#utility.yul\":4886:4979   */\n      tag_139\n      jump\t// in\n    tag_138:\n        /* \"#utility.yul\":5004:5006   */\n      0x20\n        /* \"#utility.yul\":4999:5002   */\n      dup3\n        /* \"#utility.yul\":4995:5007   */\n      add\n        /* \"#utility.yul\":4988:5007   */\n      swap1\n      pop\n        /* \"#utility.yul\":4793:5013   */\n      swap2\n      swap1\n      pop\n      jump\t// out\n        /* \"#utility.yul\":5019:5385   */\n    tag_140:\n        /* \"#utility.yul\":5161:5164   */\n      0x00\n        /* \"#utility.yul\":5182:5249   */\n      tag_142\n        /* \"#utility.yul\":5246:5248   */\n      0x18\n        /* \"#utility.yul\":5241:5244   */\n      dup4\n        /* \"#utility.yul\":5182:5249   */\n      tag_130\n      jump\t// in\n    tag_142:\n        /* \"#utility.yul\":5175:5249   */\n      swap2\n      pop\n        /* \"#utility.yul\":5258:5351   */\n      tag_143\n        /* \"#utility.yul\":5347:5350   */\n      dup3\n        /* \"#utility.yul\":5258:5351   */\n      tag_144\n      jump\t// in\n    tag_143:\n        /* \"#utility.yul\":5376:5378   */\n      0x20\n        /* \"#utility.yul\":5371:5374   */\n      dup3\n        /* \"#utility.yul\":5367:5379   */\n      add\n        /* \"#utility.yul\":5360:5379   */\n      swap1\n      pop\n        /* \"#utility.yul\":5165:5385   */\n      swap2\n      swap1\n      pop\n      jump\t// out\n        /* \"#utility.yul\":5391:5503   */\n    tag_145:\n        /* \"#utility.yul\":5474:5496   */\n      tag_147\n        /* \"#utility.yul\":5490:5495   */\n      dup2\n        /* \"#utility.yul\":5474:5496   */\n      tag_148\n      jump\t// in\n    tag_147:\n        /* \"#utility.yul\":5469:5472   */\n      dup3\n        /* \"#utility.yul\":5462:5497   */\n      mstore\n        /* \"#utility.yul\":5452:5503   */\n      pop\n      pop\n      jump\t// out\n        /* \"#utility.yul\":5509:5731   */\n    tag_13:\n        /* \"#utility.yul\":5602:5606   */\n      0x00\n        /* \"#utility.yul\":5640:5642   */\n      0x20\n        /* \"#utility.yul\":5629:5638   */\n      dup3\n        /* \"#utility.yul\":5625:5643   */\n      add\n        /* \"#utility.yul\":5617:5643   */\n      swap1\n      pop\n        /* \"#utility.yul\":5653:5724   */\n      tag_150\n        /* \"#utility.yul\":5721:5722   */\n      0x00\n        /* \"#utility.yul\":5710:5719   */\n      dup4\n        /* \"#utility.yul\":5706:5723   */\n      add\n        /* \"#utility.yul\":5697:5703   */\n      dup5\n        /* \"#utility.yul\":5653:5724   */\n      tag_113\n      jump\t// in\n    tag_150:\n        /* \"#utility.yul\":5607:5731   */\n      swap3\n      swap2\n      pop\n      pop\n      jump\t// out\n        /* \"#utility.yul\":5737:5947   */\n    tag_19:\n        /* \"#utility.yul\":5824:5828   */\n      0x00\n        /* \"#utility.yul\":5862:5864   */\n      0x20\n        /* \"#utility.yul\":5851:5860   */\n      dup3\n        /* \"#utility.yul\":5847:5865   */\n      add\n        /* \"#utility.yul\":5839:5865   */\n      swap1\n      pop\n        /* \"#utility.yul\":5875:5940   */\n      tag_152\n        /* \"#utility.yul\":5937:5938   */\n      0x00\n        /* \"#utility.yul\":5926:5935   */\n      dup4\n        /* \"#utility.yul\":5922:5939   */\n      add\n        /* \"#utility.yul\":5913:5919   */\n      dup5\n        /* \"#utility.yul\":5875:5940   */\n      tag_117\n      jump\t// in\n    tag_152:\n        /* \"#utility.yul\":5829:5947   */\n      swap3\n      swap2\n      pop\n      pop\n      jump\t// out\n        /* \"#utility.yul\":5953:6175   */\n    tag_31:\n        /* \"#utility.yul\":6046:6050   */\n      0x00\n        /* \"#utility.yul\":6084:6086   */\n      0x20\n        /* \"#utility.yul\":6073:6082   */\n      dup3\n        /* \"#utility.yul\":6069:6087   */\n      add\n        /* \"#utility.yul\":6061:6087   */\n      swap1\n      pop\n        /* \"#utility.yul\":6097:6168   */\n      tag_154\n        /* \"#utility.yul\":6165:6166   */\n      0x00\n        /* \"#utility.yul\":6154:6163   */\n      dup4\n        /* \"#utility.yul\":6150:6167   */\n      add\n        /* \"#utility.yul\":6141:6147   */\n      dup5\n        /* \"#utility.yul\":6097:6168   */\n      tag_121\n      jump\t// in\n    tag_154:\n        /* \"#utility.yul\":6051:6175   */\n      swap3\n      swap2\n      pop\n      pop\n      jump\t// out\n        /* \"#utility.yul\":6181:6615   */\n    tag_25:\n        /* \"#utility.yul\":6326:6330   */\n      0x00\n        /* \"#utility.yul\":6364:6366   */\n      0x60\n        /* \"#utility.yul\":6353:6362   */\n      dup3\n        /* \"#utility.yul\":6349:6367   */\n      add\n        /* \"#utility.yul\":6341:6367   */\n      swap1\n      pop\n        /* \"#utility.yul\":6377:6448   */\n      tag_156\n        /* \"#utility.yul\":6445:6446   */\n      0x00\n        /* \"#utility.yul\":6434:6443   */\n      dup4\n        /* \"#utility.yul\":6430:6447   */\n      add\n        /* \"#utility.yul\":6421:6427   */\n      dup7\n        /* \"#utility.yul\":6377:6448   */\n      tag_121\n      jump\t// in\n    tag_156:\n        /* \"#utility.yul\":6458:6530   */\n      tag_157\n        /* \"#utility.yul\":6526:6528   */\n      0x20\n        /* \"#utility.yul\":6515:6524   */\n      dup4\n        /* \"#utility.yul\":6511:6529   */\n      add\n        /* \"#utility.yul\":6502:6508   */\n      dup6\n        /* \"#utility.yul\":6458:6530   */\n      tag_121\n      jump\t// in\n    tag_157:\n        /* \"#utility.yul\":6540:6608   */\n      tag_158\n        /* \"#utility.yul\":6604:6606   */\n      0x40\n        /* \"#utility.yul\":6593:6602   */\n      dup4\n        /* \"#utility.yul\":6589:6607   */\n      add\n        /* \"#utility.yul\":6580:6586   */\n      dup5\n        /* \"#utility.yul\":6540:6608   */\n      tag_145\n      jump\t// in\n    tag_158:\n        /* \"#utility.yul\":6331:6615   */\n      swap5\n      swap4\n      pop\n      pop\n      pop\n      pop\n      jump\t// out\n        /* \"#utility.yul\":6621:7166   */\n    tag_40:\n        /* \"#utility.yul\":6794:6798   */\n      0x00\n        /* \"#utility.yul\":6832:6835   */\n      0x80\n        /* \"#utility.yul\":6821:6830   */\n      dup3\n        /* \"#utility.yul\":6817:6836   */\n      add\n        /* \"#utility.yul\":6809:6836   */\n      swap1\n      pop\n        /* \"#utility.yul\":6846:6917   */\n      tag_160\n        /* \"#utility.yul\":6914:6915   */\n      0x00\n        /* \"#utility.yul\":6903:6912   */\n      dup4\n        /* \"#utility.yul\":6899:6916   */\n      add\n        /* \"#utility.yul\":6890:6896   */\n      dup8\n        /* \"#utility.yul\":6846:6917   */\n      tag_121\n      jump\t// in\n    tag_160:\n        /* \"#utility.yul\":6927:6995   */\n      tag_161\n        /* \"#utility.yul\":6991:6993   */\n      0x20\n        /* \"#utility.yul\":6980:6989   */\n      dup4\n        /* \"#utility.yul\":6976:6994   */\n      add\n        /* \"#utility.yul\":6967:6973   */\n      dup7\n        /* \"#utility.yul\":6927:6995   */\n      tag_145\n      jump\t// in\n    tag_161:\n        /* \"#utility.yul\":7005:7077   */\n      tag_162\n        /* \"#utility.yul\":7073:7075   */\n      0x40\n        /* \"#utility.yul\":7062:7071   */\n      dup4\n        /* \"#utility.yul\":7058:7076   */\n      add\n        /* \"#utility.yul\":7049:7055   */\n      dup6\n        /* \"#utility.yul\":7005:7077   */\n      tag_121\n      jump\t// in\n    tag_162:\n        /* \"#utility.yul\":7087:7159   */\n      tag_163\n        /* \"#utility.yul\":7155:7157   */\n      0x60\n        /* \"#utility.yul\":7144:7153   */\n      dup4\n        /* \"#utility.yul\":7140:7158   */\n      add\n        /* \"#utility.yul\":7131:7137   */\n      dup5\n        /* \"#utility.yul\":7087:7159   */\n      tag_121\n      jump\t// in\n    tag_163:\n        /* \"#utility.yul\":6799:7166   */\n      swap6\n      swap5\n      pop\n      pop\n      pop\n      pop\n      pop\n      jump\t// out\n        /* \"#utility.yul\":7172:7485   */\n    tag_53:\n        /* \"#utility.yul\":7285:7289   */\n      0x00\n        /* \"#utility.yul\":7323:7325   */\n      0x20\n        /* \"#utility.yul\":7312:7321   */\n      dup3\n        /* \"#utility.yul\":7308:7326   */\n      add\n        /* \"#utility.yul\":7300:7326   */\n      swap1\n      pop\n        /* \"#utility.yul\":7372:7381   */\n      dup2\n        /* \"#utility.yul\":7366:7370   */\n      dup2\n        /* \"#utility.yul\":7362:7382   */\n      sub\n        /* \"#utility.yul\":7358:7359   */\n      0x00\n        /* \"#utility.yul\":7347:7356   */\n      dup4\n        /* \"#utility.yul\":7343:7360   */\n      add\n        /* \"#utility.yul\":7336:7383   */\n      mstore\n        /* \"#utility.yul\":7400:7478   */\n      tag_165\n        /* \"#utility.yul\":7473:7477   */\n      dup2\n        /* \"#utility.yul\":7464:7470   */\n      dup5\n        /* \"#utility.yul\":7400:7478   */\n      tag_125\n      jump\t// in\n    tag_165:\n        /* \"#utility.yul\":7392:7478   */\n      swap1\n      pop\n        /* \"#utility.yul\":7290:7485   */\n      swap3\n      swap2\n      pop\n      pop\n      jump\t// out\n        /* \"#utility.yul\":7491:8020   */\n    tag_56:\n        /* \"#utility.yul\":7685:7689   */\n      0x00\n        /* \"#utility.yul\":7723:7725   */\n      0x40\n        /* \"#utility.yul\":7712:7721   */\n      dup3\n        /* \"#utility.yul\":7708:7726   */\n      add\n        /* \"#utility.yul\":7700:7726   */\n      swap1\n      pop\n        /* \"#utility.yul\":7772:7781   */\n      dup2\n        /* \"#utility.yul\":7766:7770   */\n      dup2\n        /* \"#utility.yul\":7762:7782   */\n      sub\n        /* \"#utility.yul\":7758:7759   */\n      0x00\n        /* \"#utility.yul\":7747:7756   */\n      dup4\n        /* \"#utility.yul\":7743:7760   */\n      add\n        /* \"#utility.yul\":7736:7783   */\n      mstore\n        /* \"#utility.yul\":7800:7931   */\n      tag_167\n        /* \"#utility.yul\":7926:7930   */\n      dup2\n        /* \"#utility.yul\":7800:7931   */\n      tag_135\n      jump\t// in\n    tag_167:\n        /* \"#utility.yul\":7792:7931   */\n      swap1\n      pop\n        /* \"#utility.yul\":7941:8013   */\n      tag_168\n        /* \"#utility.yul\":8009:8011   */\n      0x20\n        /* \"#utility.yul\":7998:8007   */\n      dup4\n        /* \"#utility.yul\":7994:8012   */\n      add\n        /* \"#utility.yul\":7985:7991   */\n      dup5\n        /* \"#utility.yul\":7941:8013   */\n      tag_121\n      jump\t// in\n    tag_168:\n        /* \"#utility.yul\":7690:8020   */\n      swap3\n      swap2\n      pop\n      pop\n      jump\t// out\n        /* \"#utility.yul\":8026:8445   */\n    tag_50:\n        /* \"#utility.yul\":8192:8196   */\n      0x00\n        /* \"#utility.yul\":8230:8232   */\n      0x20\n        /* \"#utility.yul\":8219:8228   */\n      dup3\n        /* \"#utility.yul\":8215:8233   */\n      add\n        /* \"#utility.yul\":8207:8233   */\n      swap1\n      pop\n        /* \"#utility.yul\":8279:8288   */\n      dup2\n        /* \"#utility.yul\":8273:8277   */\n      dup2\n        /* \"#utility.yul\":8269:8289   */\n      sub\n        /* \"#utility.yul\":8265:8266   */\n      0x00\n        /* \"#utility.yul\":8254:8263   */\n      dup4\n        /* \"#utility.yul\":8250:8267   */\n      add\n        /* \"#utility.yul\":8243:8290   */\n      mstore\n        /* \"#utility.yul\":8307:8438   */\n      tag_170\n        /* \"#utility.yul\":8433:8437   */\n      dup2\n        /* \"#utility.yul\":8307:8438   */\n      tag_140\n      jump\t// in\n    tag_170:\n        /* \"#utility.yul\":8299:8438   */\n      swap1\n      pop\n        /* \"#utility.yul\":8197:8445   */\n      swap2\n      swap1\n      pop\n      jump\t// out\n        /* \"#utility.yul\":8451:8580   */\n    tag_63:\n        /* \"#utility.yul\":8485:8491   */\n      0x00\n        /* \"#utility.yul\":8512:8532   */\n      tag_172\n      tag_173\n      jump\t// in\n    tag_172:\n        /* \"#utility.yul\":8502:8532   */\n      swap1\n      pop\n        /* \"#utility.yul\":8541:8574   */\n      tag_174\n        /* \"#utility.yul\":8569:8573   */\n      dup3\n        /* \"#utility.yul\":8561:8567   */\n      dup3\n        /* \"#utility.yul\":8541:8574   */\n      tag_175\n      jump\t// in\n    tag_174:\n        /* \"#utility.yul\":8492:8580   */\n      swap2\n      swap1\n      pop\n      jump\t// out\n        /* \"#utility.yul\":8586:8661   */\n    tag_173:\n        /* \"#utility.yul\":8619:8625   */\n      0x00\n        /* \"#utility.yul\":8652:8654   */\n      0x40\n        /* \"#utility.yul\":8646:8655   */\n      mload\n        /* \"#utility.yul\":8636:8655   */\n      swap1\n      pop\n        /* \"#utility.yul\":8626:8661   */\n      swap1\n      jump\t// out\n        /* \"#utility.yul\":8667:8974   */\n    tag_62:\n        /* \"#utility.yul\":8728:8732   */\n      0x00\n        /* \"#utility.yul\":8818:8836   */\n      0xffffffffffffffff\n        /* \"#utility.yul\":8810:8816   */\n      dup3\n        /* \"#utility.yul\":8807:8837   */\n      gt\n        /* \"#utility.yul\":8804:8806   */\n      iszero\n      tag_178\n      jumpi\n        /* \"#utility.yul\":8840:8858   */\n      tag_179\n      tag_180\n      jump\t// in\n    tag_179:\n        /* \"#utility.yul\":8804:8806   */\n    tag_178:\n        /* \"#utility.yul\":8878:8907   */\n      tag_181\n        /* \"#utility.yul\":8900:8906   */\n      dup3\n        /* \"#utility.yul\":8878:8907   */\n      tag_134\n      jump\t// in\n    tag_181:\n        /* \"#utility.yul\":8870:8907   */\n      swap1\n      pop\n        /* \"#utility.yul\":8962:8966   */\n      0x20\n        /* \"#utility.yul\":8956:8960   */\n      dup2\n        /* \"#utility.yul\":8952:8967   */\n      add\n        /* \"#utility.yul\":8944:8967   */\n      swap1\n      pop\n        /* \"#utility.yul\":8733:8974   */\n      swap2\n      swap1\n      pop\n      jump\t// out\n        /* \"#utility.yul\":8980:9288   */\n    tag_71:\n        /* \"#utility.yul\":9042:9046   */\n      0x00\n        /* \"#utility.yul\":9132:9150   */\n      0xffffffffffffffff\n        /* \"#utility.yul\":9124:9130   */\n      dup3\n        /* \"#utility.yul\":9121:9151   */\n      gt\n        /* \"#utility.yul\":9118:9120   */\n      iszero\n      tag_183\n      jumpi\n        /* \"#utility.yul\":9154:9172   */\n      tag_184\n      tag_180\n      jump\t// in\n    tag_184:\n        /* \"#utility.yul\":9118:9120   */\n    tag_183:\n        /* \"#utility.yul\":9192:9221   */\n      tag_185\n        /* \"#utility.yul\":9214:9220   */\n      dup3\n        /* \"#utility.yul\":9192:9221   */\n      tag_134\n      jump\t// in\n    tag_185:\n        /* \"#utility.yul\":9184:9221   */\n      swap1\n      pop\n        /* \"#utility.yul\":9276:9280   */\n      0x20\n        /* \"#utility.yul\":9270:9274   */\n      dup2\n        /* \"#utility.yul\":9266:9281   */\n      add\n        /* \"#utility.yul\":9258:9281   */\n      swap1\n      pop\n        /* \"#utility.yul\":9047:9288   */\n      swap2\n      swap1\n      pop\n      jump\t// out\n        /* \"#utility.yul\":9294:9393   */\n    tag_128:\n        /* \"#utility.yul\":9346:9352   */\n      0x00\n        /* \"#utility.yul\":9380:9385   */\n      dup2\n        /* \"#utility.yul\":9374:9386   */\n      mload\n        /* \"#utility.yul\":9364:9386   */\n      swap1\n      pop\n        /* \"#utility.yul\":9353:9393   */\n      swap2\n      swap1\n      pop\n      jump\t// out\n        /* \"#utility.yul\":9399:9568   */\n    tag_130:\n        /* \"#utility.yul\":9483:9494   */\n      0x00\n        /* \"#utility.yul\":9517:9523   */\n      dup3\n        /* \"#utility.yul\":9512:9515   */\n      dup3\n        /* \"#utility.yul\":9505:9524   */\n      mstore\n        /* \"#utility.yul\":9557:9561   */\n      0x20\n        /* \"#utility.yul\":9552:9555   */\n      dup3\n        /* \"#utility.yul\":9548:9562   */\n      add\n        /* \"#utility.yul\":9533:9562   */\n      swap1\n      pop\n        /* \"#utility.yul\":9495:9568   */\n      swap3\n      swap2\n      pop\n      pop\n      jump\t// out\n        /* \"#utility.yul\":9574:9670   */\n    tag_116:\n        /* \"#utility.yul\":9611:9618   */\n      0x00\n        /* \"#utility.yul\":9640:9664   */\n      tag_189\n        /* \"#utility.yul\":9658:9663   */\n      dup3\n        /* \"#utility.yul\":9640:9664   */\n      tag_190\n      jump\t// in\n    tag_189:\n        /* \"#utility.yul\":9629:9664   */\n      swap1\n      pop\n        /* \"#utility.yul\":9619:9670   */\n      swap2\n      swap1\n      pop\n      jump\t// out\n        /* \"#utility.yul\":9676:9766   */\n    tag_120:\n        /* \"#utility.yul\":9710:9717   */\n      0x00\n        /* \"#utility.yul\":9753:9758   */\n      dup2\n        /* \"#utility.yul\":9746:9759   */\n      iszero\n        /* \"#utility.yul\":9739:9760   */\n      iszero\n        /* \"#utility.yul\":9728:9760   */\n      swap1\n      pop\n        /* \"#utility.yul\":9718:9766   */\n      swap2\n      swap1\n      pop\n      jump\t// out\n        /* \"#utility.yul\":9772:9849   */\n    tag_124:\n        /* \"#utility.yul\":9809:9816   */\n      0x00\n        /* \"#utility.yul\":9838:9843   */\n      dup2\n        /* \"#utility.yul\":9827:9843   */\n      swap1\n      pop\n        /* \"#utility.yul\":9817:9849   */\n      swap2\n      swap1\n      pop\n      jump\t// out\n        /* \"#utility.yul\":9855:9981   */\n    tag_190:\n        /* \"#utility.yul\":9892:9899   */\n      0x00\n        /* \"#utility.yul\":9932:9974   */\n      0xffffffffffffffffffffffffffffffffffffffff\n        /* \"#utility.yul\":9925:9930   */\n      dup3\n        /* \"#utility.yul\":9921:9975   */\n      and\n        /* \"#utility.yul\":9910:9975   */\n      swap1\n      pop\n        /* \"#utility.yul\":9900:9981   */\n      swap2\n      swap1\n      pop\n      jump\t// out\n        /* \"#utility.yul\":9987:10073   */\n    tag_148:\n        /* \"#utility.yul\":10022:10029   */\n      0x00\n        /* \"#utility.yul\":10062:10066   */\n      0xff\n        /* \"#utility.yul\":10055:10060   */\n      dup3\n        /* \"#utility.yul\":10051:10067   */\n      and\n        /* \"#utility.yul\":10040:10067   */\n      swap1\n      pop\n        /* \"#utility.yul\":10030:10073   */\n      swap2\n      swap1\n      pop\n      jump\t// out\n        /* \"#utility.yul\":10079:10233   */\n    tag_66:\n        /* \"#utility.yul\":10163:10169   */\n      dup3\n        /* \"#utility.yul\":10158:10161   */\n      dup2\n        /* \"#utility.yul\":10153:10156   */\n      dup4\n        /* \"#utility.yul\":10140:10170   */\n      calldatacopy\n        /* \"#utility.yul\":10225:10226   */\n      0x00\n        /* \"#utility.yul\":10216:10222   */\n      dup4\n        /* \"#utility.yul\":10211:10214   */\n      dup4\n        /* \"#utility.yul\":10207:10223   */\n      add\n        /* \"#utility.yul\":10200:10227   */\n      mstore\n        /* \"#utility.yul\":10130:10233   */\n      pop\n      pop\n      pop\n      jump\t// out\n        /* \"#utility.yul\":10239:10546   */\n    tag_132:\n        /* \"#utility.yul\":10307:10308   */\n      0x00\n        /* \"#utility.yul\":10317:10430   */\n    tag_197:\n        /* \"#utility.yul\":10331:10337   */\n      dup4\n        /* \"#utility.yul\":10328:10329   */\n      dup2\n        /* \"#utility.yul\":10325:10338   */\n      lt\n        /* \"#utility.yul\":10317:10430   */\n      iszero\n      tag_199\n      jumpi\n        /* \"#utility.yul\":10416:10417   */\n      dup1\n        /* \"#utility.yul\":10411:10414   */\n      dup3\n        /* \"#utility.yul\":10407:10418   */\n      add\n        /* \"#utility.yul\":10401:10419   */\n      mload\n        /* \"#utility.yul\":10397:10398   */\n      dup2\n        /* \"#utility.yul\":10392:10395   */\n      dup5\n        /* \"#utility.yul\":10388:10399   */\n      add\n        /* \"#utility.yul\":10381:10420   */\n      mstore\n        /* \"#utility.yul\":10353:10355   */\n      0x20\n        /* \"#utility.yul\":10350:10351   */\n      dup2\n        /* \"#utility.yul\":10346:10356   */\n      add\n        /* \"#utility.yul\":10341:10356   */\n      swap1\n      pop\n        /* \"#utility.yul\":10317:10430   */\n      jump(tag_197)\n    tag_199:\n        /* \"#utility.yul\":10448:10454   */\n      dup4\n        /* \"#utility.yul\":10445:10446   */\n      dup2\n        /* \"#utility.yul\":10442:10455   */\n      gt\n        /* \"#utility.yul\":10439:10441   */\n      iszero\n      tag_200\n      jumpi\n        /* \"#utility.yul\":10528:10529   */\n      0x00\n        /* \"#utility.yul\":10519:10525   */\n      dup5\n        /* \"#utility.yul\":10514:10517   */\n      dup5\n        /* \"#utility.yul\":10510:10526   */\n      add\n        /* \"#utility.yul\":10503:10530   */\n      mstore\n        /* \"#utility.yul\":10439:10441   */\n    tag_200:\n        /* \"#utility.yul\":10288:10546   */\n      pop\n      pop\n      pop\n      pop\n      jump\t// out\n        /* \"#utility.yul\":10552:10833   */\n    tag_175:\n        /* \"#utility.yul\":10635:10662   */\n      tag_202\n        /* \"#utility.yul\":10657:10661   */\n      dup3\n        /* \"#utility.yul\":10635:10662   */\n      tag_134\n      jump\t// in\n    tag_202:\n        /* \"#utility.yul\":10627:10633   */\n      dup2\n        /* \"#utility.yul\":10623:10663   */\n      add\n        /* \"#utility.yul\":10765:10771   */\n      dup2\n        /* \"#utility.yul\":10753:10763   */\n      dup2\n        /* \"#utility.yul\":10750:10772   */\n      lt\n        /* \"#utility.yul\":10729:10747   */\n      0xffffffffffffffff\n        /* \"#utility.yul\":10717:10727   */\n      dup3\n        /* \"#utility.yul\":10714:10748   */\n      gt\n        /* \"#utility.yul\":10711:10773   */\n      or\n        /* \"#utility.yul\":10708:10710   */\n      iszero\n      tag_203\n      jumpi\n        /* \"#utility.yul\":10776:10794   */\n      tag_204\n      tag_180\n      jump\t// in\n    tag_204:\n        /* \"#utility.yul\":10708:10710   */\n    tag_203:\n        /* \"#utility.yul\":10816:10826   */\n      dup1\n        /* \"#utility.yul\":10812:10814   */\n      0x40\n        /* \"#utility.yul\":10805:10827   */\n      mstore\n        /* \"#utility.yul\":10595:10833   */\n      pop\n      pop\n      pop\n      jump\t// out\n        /* \"#utility.yul\":10839:11019   */\n    tag_180:\n        /* \"#utility.yul\":10887:10964   */\n      0x4e487b7100000000000000000000000000000000000000000000000000000000\n        /* \"#utility.yul\":10884:10885   */\n      0x00\n        /* \"#utility.yul\":10877:10965   */\n      mstore\n        /* \"#utility.yul\":10984:10988   */\n      0x41\n        /* \"#utility.yul\":10981:10982   */\n      0x04\n        /* \"#utility.yul\":10974:10989   */\n      mstore\n        /* \"#utility.yul\":11008:11012   */\n      0x24\n        /* \"#utility.yul\":11005:11006   */\n      0x00\n        /* \"#utility.yul\":10998:11013   */\n      revert\n        /* \"#utility.yul\":11025:11127   */\n    tag_134:\n        /* \"#utility.yul\":11066:11072   */\n      0x00\n        /* \"#utility.yul\":11117:11119   */\n      0x1f\n        /* \"#utility.yul\":11113:11120   */\n      not\n        /* \"#utility.yul\":11108:11110   */\n      0x1f\n        /* \"#utility.yul\":11101:11106   */\n      dup4\n        /* \"#utility.yul\":11097:11111   */\n      add\n        /* \"#utility.yul\":11093:11121   */\n      and\n        /* \"#utility.yul\":11083:11121   */\n      swap1\n      pop\n        /* \"#utility.yul\":11073:11127   */\n      swap2\n      swap1\n      pop\n      jump\t// out\n        /* \"#utility.yul\":11133:11347   */\n    tag_139:\n        /* \"#utility.yul\":11273:11339   */\n      0x19457468657265756d205369676e6564204d6573736167653a0a333200000000\n        /* \"#utility.yul\":11269:11270   */\n      0x00\n        /* \"#utility.yul\":11261:11267   */\n      dup3\n        /* \"#utility.yul\":11257:11271   */\n      add\n        /* \"#utility.yul\":11250:11340   */\n      mstore\n        /* \"#utility.yul\":11239:11347   */\n      pop\n      jump\t// out\n        /* \"#utility.yul\":11353:11527   */\n    tag_144:\n        /* \"#utility.yul\":11493:11519   */\n      0x496e76616c6964207369676e6174757265206c656e6774680000000000000000\n        /* \"#utility.yul\":11489:11490   */\n      0x00\n        /* \"#utility.yul\":11481:11487   */\n      dup3\n        /* \"#utility.yul\":11477:11491   */\n      add\n        /* \"#utility.yul\":11470:11520   */\n      mstore\n        /* \"#utility.yul\":11459:11527   */\n      pop\n      jump\t// out\n        /* \"#utility.yul\":11533:11655   */\n    tag_77:\n        /* \"#utility.yul\":11606:11630   */\n      tag_210\n        /* \"#utility.yul\":11624:11629   */\n      dup2\n        /* \"#utility.yul\":11606:11630   */\n      tag_116\n      jump\t// in\n    tag_210:\n        /* \"#utility.yul\":11599:11604   */\n      dup2\n        /* \"#utility.yul\":11596:11631   */\n      eq\n        /* \"#utility.yul\":11586:11588   */\n      tag_211\n      jumpi\n        /* \"#utility.yul\":11645:11646   */\n      0x00\n        /* \"#utility.yul\":11642:11643   */\n      dup1\n        /* \"#utility.yul\":11635:11647   */\n      revert\n        /* \"#utility.yul\":11586:11588   */\n    tag_211:\n        /* \"#utility.yul\":11576:11655   */\n      pop\n      jump\t// out\n        /* \"#utility.yul\":11661:11783   */\n    tag_81:\n        /* \"#utility.yul\":11734:11758   */\n      tag_213\n        /* \"#utility.yul\":11752:11757   */\n      dup2\n        /* \"#utility.yul\":11734:11758   */\n      tag_124\n      jump\t// in\n    tag_213:\n        /* \"#utility.yul\":11727:11732   */\n      dup2\n        /* \"#utility.yul\":11724:11759   */\n      eq\n        /* \"#utility.yul\":11714:11716   */\n      tag_214\n      jumpi\n        /* \"#utility.yul\":11773:11774   */\n      0x00\n        /* \"#utility.yul\":11770:11771   */\n      dup1\n        /* \"#utility.yul\":11763:11775   */\n      revert\n        /* \"#utility.yul\":11714:11716   */\n    tag_214:\n        /* \"#utility.yul\":11704:11783   */\n      pop\n      jump\t// out\n\n    auxdata: 0xa26469706673582212200a8390e6d4050fd51420c8d6e1ca6148d4257d87e7d7d0d9d09498cecca18b4364736f6c63430008040033\n}\n",
				"bytecode": {
					"linkReferences": {},
					"object": "608060405234801561001057600080fd5b506109b4806100206000396000f3fe608060405234801561001057600080fd5b50600436106100575760003560e01c806319045a251461005c5780632dd34f0f1461008c578063a7bb5803146100bc578063b446f3b2146100ee578063fa5408011461011e575b600080fd5b61007660048036038101906100719190610485565b61014e565b6040516100839190610616565b60405180910390f35b6100a660048036038101906100a191906103dd565b6101bd565b6040516100b39190610631565b60405180910390f35b6100d660048036038101906100d191906104d9565b61021b565b6040516100e593929190610667565b60405180910390f35b6101086004803603810190610103919061051a565b610283565b604051610115919061064c565b60405180910390f35b6101386004803603810190610133919061045c565b6102b3565b604051610145919061064c565b60405180910390f35b60008060008061015d8561021b565b92509250925060018682858560405160008152602001604052604051610186949392919061069e565b6020604051602081039080840390855afa1580156101a8573d6000803e3d6000fd5b50505060206040510351935050505092915050565b6000806101c984610283565b905060006101d6826102b3565b90508573ffffffffffffffffffffffffffffffffffffffff166101f9828661014e565b73ffffffffffffffffffffffffffffffffffffffff1614925050509392505050565b60008060006041845114610264576040517f08c379a000000000000000000000000000000000000000000000000000000000815260040161025b90610733565b60405180910390fd5b6020840151925060408401519150606084015160001a90509193909250565b60008160405160200161029691906106e3565b604051602081830303815290604052805190602001209050919050565b6000816040516020016102c69190610705565b604051602081830303815290604052805190602001209050919050565b60006102f66102f184610778565b610753565b90508281526020810184848401111561030e57600080fd5b61031984828561084b565b509392505050565b600061033461032f846107a9565b610753565b90508281526020810184848401111561034c57600080fd5b61035784828561084b565b509392505050565b60008135905061036e81610950565b92915050565b60008135905061038381610967565b92915050565b600082601f83011261039a57600080fd5b81356103aa8482602086016102e3565b91505092915050565b600082601f8301126103c457600080fd5b81356103d4848260208601610321565b91505092915050565b6000806000606084860312156103f257600080fd5b60006104008682870161035f565b935050602084013567ffffffffffffffff81111561041d57600080fd5b610429868287016103b3565b925050604084013567ffffffffffffffff81111561044657600080fd5b61045286828701610389565b9150509250925092565b60006020828403121561046e57600080fd5b600061047c84828501610374565b91505092915050565b6000806040838503121561049857600080fd5b60006104a685828601610374565b925050602083013567ffffffffffffffff8111156104c357600080fd5b6104cf85828601610389565b9150509250929050565b6000602082840312156104eb57600080fd5b600082013567ffffffffffffffff81111561050557600080fd5b61051184828501610389565b91505092915050565b60006020828403121561052c57600080fd5b600082013567ffffffffffffffff81111561054657600080fd5b610552848285016103b3565b91505092915050565b610564816107f6565b82525050565b61057381610808565b82525050565b61058281610814565b82525050565b6000610593826107da565b61059d81856107e5565b93506105ad81856020860161085a565b6105b6816108ed565b840191505092915050565b60006105ce601c836107e5565b91506105d9826108fe565b602082019050919050565b60006105f16018836107e5565b91506105fc82610927565b602082019050919050565b6106108161083e565b82525050565b600060208201905061062b600083018461055b565b92915050565b6000602082019050610646600083018461056a565b92915050565b60006020820190506106616000830184610579565b92915050565b600060608201905061067c6000830186610579565b6106896020830185610579565b6106966040830184610607565b949350505050565b60006080820190506106b36000830187610579565b6106c06020830186610607565b6106cd6040830185610579565b6106da6060830184610579565b95945050505050565b600060208201905081810360008301526106fd8184610588565b905092915050565b6000604082019050818103600083015261071e816105c1565b905061072d6020830184610579565b92915050565b6000602082019050818103600083015261074c816105e4565b9050919050565b600061075d61076e565b9050610769828261088d565b919050565b6000604051905090565b600067ffffffffffffffff821115610793576107926108be565b5b61079c826108ed565b9050602081019050919050565b600067ffffffffffffffff8211156107c4576107c36108be565b5b6107cd826108ed565b9050602081019050919050565b600081519050919050565b600082825260208201905092915050565b60006108018261081e565b9050919050565b60008115159050919050565b6000819050919050565b600073ffffffffffffffffffffffffffffffffffffffff82169050919050565b600060ff82169050919050565b82818337600083830152505050565b60005b8381101561087857808201518184015260208101905061085d565b83811115610887576000848401525b50505050565b610896826108ed565b810181811067ffffffffffffffff821117156108b5576108b46108be565b5b80604052505050565b7f4e487b7100000000000000000000000000000000000000000000000000000000600052604160045260246000fd5b6000601f19601f8301169050919050565b7f19457468657265756d205369676e6564204d6573736167653a0a333200000000600082015250565b7f496e76616c6964207369676e6174757265206c656e6774680000000000000000600082015250565b610959816107f6565b811461096457600080fd5b50565b61097081610814565b811461097b57600080fd5b5056fea26469706673582212200a8390e6d4050fd51420c8d6e1ca6148d4257d87e7d7d0d9d09498cecca18b4364736f6c63430008040033",
					"opcodes": "PUSH1 0x80 PUSH1 0x40 MSTORE CALLVALUE DUP1 ISZERO PUSH2 0x10 JUMPI PUSH1 0x0 DUP1 REVERT JUMPDEST POP PUSH2 0x9B4 DUP1 PUSH2 0x20 PUSH1 0x0 CODECOPY PUSH1 0x0 RETURN INVALID PUSH1 0x80 PUSH1 0x40 MSTORE CALLVALUE DUP1 ISZERO PUSH2 0x10 JUMPI PUSH1 0x0 DUP1 REVERT JUMPDEST POP PUSH1 0x4 CALLDATASIZE LT PUSH2 0x57 JUMPI PUSH1 0x0 CALLDATALOAD PUSH1 0xE0 SHR DUP1 PUSH4 0x19045A25 EQ PUSH2 0x5C JUMPI DUP1 PUSH4 0x2DD34F0F EQ PUSH2 0x8C JUMPI DUP1 PUSH4 0xA7BB5803 EQ PUSH2 0xBC JUMPI DUP1 PUSH4 0xB446F3B2 EQ PUSH2 0xEE JUMPI DUP1 PUSH4 0xFA540801 EQ PUSH2 0x11E JUMPI JUMPDEST PUSH1 0x0 DUP1 REVERT JUMPDEST PUSH2 0x76 PUSH1 0x4 DUP1 CALLDATASIZE SUB DUP2 ADD SWAP1 PUSH2 0x71 SWAP2 SWAP1 PUSH2 0x485 JUMP JUMPDEST PUSH2 0x14E JUMP JUMPDEST PUSH1 0x40 MLOAD PUSH2 0x83 SWAP2 SWAP1 PUSH2 0x616 JUMP JUMPDEST PUSH1 0x40 MLOAD DUP1 SWAP2 SUB SWAP1 RETURN JUMPDEST PUSH2 0xA6 PUSH1 0x4 DUP1 CALLDATASIZE SUB DUP2 ADD SWAP1 PUSH2 0xA1 SWAP2 SWAP1 PUSH2 0x3DD JUMP JUMPDEST PUSH2 0x1BD JUMP JUMPDEST PUSH1 0x40 MLOAD PUSH2 0xB3 SWAP2 SWAP1 PUSH2 0x631 JUMP JUMPDEST PUSH1 0x40 MLOAD DUP1 SWAP2 SUB SWAP1 RETURN JUMPDEST PUSH2 0xD6 PUSH1 0x4 DUP1 CALLDATASIZE SUB DUP2 ADD SWAP1 PUSH2 0xD1 SWAP2 SWAP1 PUSH2 0x4D9 JUMP JUMPDEST PUSH2 0x21B JUMP JUMPDEST PUSH1 0x40 MLOAD PUSH2 0xE5 SWAP4 SWAP3 SWAP2 SWAP1 PUSH2 0x667 JUMP JUMPDEST PUSH1 0x40 MLOAD DUP1 SWAP2 SUB SWAP1 RETURN JUMPDEST PUSH2 0x108 PUSH1 0x4 DUP1 CALLDATASIZE SUB DUP2 ADD SWAP1 PUSH2 0x103 SWAP2 SWAP1 PUSH2 0x51A JUMP JUMPDEST PUSH2 0x283 JUMP JUMPDEST PUSH1 0x40 MLOAD PUSH2 0x115 SWAP2 SWAP1 PUSH2 0x64C JUMP JUMPDEST PUSH1 0x40 MLOAD DUP1 SWAP2 SUB SWAP1 RETURN JUMPDEST PUSH2 0x138 PUSH1 0x4 DUP1 CALLDATASIZE SUB DUP2 ADD SWAP1 PUSH2 0x133 SWAP2 SWAP1 PUSH2 0x45C JUMP JUMPDEST PUSH2 0x2B3 JUMP JUMPDEST PUSH1 0x40 MLOAD PUSH2 0x145 SWAP2 SWAP1 PUSH2 0x64C JUMP JUMPDEST PUSH1 0x40 MLOAD DUP1 SWAP2 SUB SWAP1 RETURN JUMPDEST PUSH1 0x0 DUP1 PUSH1 0x0 DUP1 PUSH2 0x15D DUP6 PUSH2 0x21B JUMP JUMPDEST SWAP3 POP SWAP3 POP SWAP3 POP PUSH1 0x1 DUP7 DUP3 DUP6 DUP6 PUSH1 0x40 MLOAD PUSH1 0x0 DUP2 MSTORE PUSH1 0x20 ADD PUSH1 0x40 MSTORE PUSH1 0x40 MLOAD PUSH2 0x186 SWAP5 SWAP4 SWAP3 SWAP2 SWAP1 PUSH2 0x69E JUMP JUMPDEST PUSH1 0x20 PUSH1 0x40 MLOAD PUSH1 0x20 DUP2 SUB SWAP1 DUP1 DUP5 SUB SWAP1 DUP6 GAS STATICCALL ISZERO DUP1 ISZERO PUSH2 0x1A8 JUMPI RETURNDATASIZE PUSH1 0x0 DUP1 RETURNDATACOPY RETURNDATASIZE PUSH1 0x0 REVERT JUMPDEST POP POP POP PUSH1 0x20 PUSH1 0x40 MLOAD SUB MLOAD SWAP4 POP POP POP POP SWAP3 SWAP2 POP POP JUMP JUMPDEST PUSH1 0x0 DUP1 PUSH2 0x1C9 DUP5 PUSH2 0x283 JUMP JUMPDEST SWAP1 POP PUSH1 0x0 PUSH2 0x1D6 DUP3 PUSH2 0x2B3 JUMP JUMPDEST SWAP1 POP DUP6 PUSH20 0xFFFFFFFFFFFFFFFFFFFFFFFFFFFFFFFFFFFFFFFF AND PUSH2 0x1F9 DUP3 DUP7 PUSH2 0x14E JUMP JUMPDEST PUSH20 0xFFFFFFFFFFFFFFFFFFFFFFFFFFFFFFFFFFFFFFFF AND EQ SWAP3 POP POP POP SWAP4 SWAP3 POP POP POP JUMP JUMPDEST PUSH1 0x0 DUP1 PUSH1 0x0 PUSH1 0x41 DUP5 MLOAD EQ PUSH2 0x264 JUMPI PUSH1 0x40 MLOAD PUSH32 0x8C379A000000000000000000000000000000000000000000000000000000000 DUP2 MSTORE PUSH1 0x4 ADD PUSH2 0x25B SWAP1 PUSH2 0x733 JUMP JUMPDEST PUSH1 0x40 MLOAD DUP1 SWAP2 SUB SWAP1 REVERT JUMPDEST PUSH1 0x20 DUP5 ADD MLOAD SWAP3 POP PUSH1 0x40 DUP5 ADD MLOAD SWAP2 POP PUSH1 0x60 DUP5 ADD MLOAD PUSH1 0x0 BYTE SWAP1 POP SWAP2 SWAP4 SWAP1 SWAP3 POP JUMP JUMPDEST PUSH1 0x0 DUP2 PUSH1 0x40 MLOAD PUSH1 0x20 ADD PUSH2 0x296 SWAP2 SWAP1 PUSH2 0x6E3 JUMP JUMPDEST PUSH1 0x40 MLOAD PUSH1 0x20 DUP2 DUP4 SUB SUB DUP2 MSTORE SWAP1 PUSH1 0x40 MSTORE DUP1 MLOAD SWAP1 PUSH1 0x20 ADD KECCAK256 SWAP1 POP SWAP2 SWAP1 POP JUMP JUMPDEST PUSH1 0x0 DUP2 PUSH1 0x40 MLOAD PUSH1 0x20 ADD PUSH2 0x2C6 SWAP2 SWAP1 PUSH2 0x705 JUMP JUMPDEST PUSH1 0x40 MLOAD PUSH1 0x20 DUP2 DUP4 SUB SUB DUP2 MSTORE SWAP1 PUSH1 0x40 MSTORE DUP1 MLOAD SWAP1 PUSH1 0x20 ADD KECCAK256 SWAP1 POP SWAP2 SWAP1 POP JUMP JUMPDEST PUSH1 0x0 PUSH2 0x2F6 PUSH2 0x2F1 DUP5 PUSH2 0x778 JUMP JUMPDEST PUSH2 0x753 JUMP JUMPDEST SWAP1 POP DUP3 DUP2 MSTORE PUSH1 0x20 DUP2 ADD DUP5 DUP5 DUP5 ADD GT ISZERO PUSH2 0x30E JUMPI PUSH1 0x0 DUP1 REVERT JUMPDEST PUSH2 0x319 DUP5 DUP3 DUP6 PUSH2 0x84B JUMP JUMPDEST POP SWAP4 SWAP3 POP POP POP JUMP JUMPDEST PUSH1 0x0 PUSH2 0x334 PUSH2 0x32F DUP5 PUSH2 0x7A9 JUMP JUMPDEST PUSH2 0x753 JUMP JUMPDEST SWAP1 POP DUP3 DUP2 MSTORE PUSH1 0x20 DUP2 ADD DUP5 DUP5 DUP5 ADD GT ISZERO PUSH2 0x34C JUMPI PUSH1 0x0 DUP1 REVERT JUMPDEST PUSH2 0x357 DUP5 DUP3 DUP6 PUSH2 0x84B JUMP JUMPDEST POP SWAP4 SWAP3 POP POP POP JUMP JUMPDEST PUSH1 0x0 DUP2 CALLDATALOAD SWAP1 POP PUSH2 0x36E DUP2 PUSH2 0x950 JUMP JUMPDEST SWAP3 SWAP2 POP POP JUMP JUMPDEST PUSH1 0x0 DUP2 CALLDATALOAD SWAP1 POP PUSH2 0x383 DUP2 PUSH2 0x967 JUMP JUMPDEST SWAP3 SWAP2 POP POP JUMP JUMPDEST PUSH1 0x0 DUP3 PUSH1 0x1F DUP4 ADD SLT PUSH2 0x39A JUMPI PUSH1 0x0 DUP1 REVERT JUMPDEST DUP2 CALLDATALOAD PUSH2 0x3AA DUP5 DUP3 PUSH1 0x20 DUP7 ADD PUSH2 0x2E3 JUMP JUMPDEST SWAP2 POP POP SWAP3 SWAP2 POP POP JUMP JUMPDEST PUSH1 0x0 DUP3 PUSH1 0x1F DUP4 ADD SLT PUSH2 0x3C4 JUMPI PUSH1 0x0 DUP1 REVERT JUMPDEST DUP2 CALLDATALOAD PUSH2 0x3D4 DUP5 DUP3 PUSH1 0x20 DUP7 ADD PUSH2 0x321 JUMP JUMPDEST SWAP2 POP POP SWAP3 SWAP2 POP POP JUMP JUMPDEST PUSH1 0x0 DUP1 PUSH1 0x0 PUSH1 0x60 DUP5 DUP7 SUB SLT ISZERO PUSH2 0x3F2 JUMPI PUSH1 0x0 DUP1 REVERT JUMPDEST PUSH1 0x0 PUSH2 0x400 DUP7 DUP3 DUP8 ADD PUSH2 0x35F JUMP JUMPDEST SWAP4 POP POP PUSH1 0x20 DUP5 ADD CALLDATALOAD PUSH8 0xFFFFFFFFFFFFFFFF DUP2 GT ISZERO PUSH2 0x41D JUMPI PUSH1 0x0 DUP1 REVERT JUMPDEST PUSH2 0x429 DUP7 DUP3 DUP8 ADD PUSH2 0x3B3 JUMP JUMPDEST SWAP3 POP POP PUSH1 0x40 DUP5 ADD CALLDATALOAD PUSH8 0xFFFFFFFFFFFFFFFF DUP2 GT ISZERO PUSH2 0x446 JUMPI PUSH1 0x0 DUP1 REVERT JUMPDEST PUSH2 0x452 DUP7 DUP3 DUP8 ADD PUSH2 0x389 JUMP JUMPDEST SWAP2 POP POP SWAP3 POP SWAP3 POP SWAP3 JUMP JUMPDEST PUSH1 0x0 PUSH1 0x20 DUP3 DUP5 SUB SLT ISZERO PUSH2 0x46E JUMPI PUSH1 0x0 DUP1 REVERT JUMPDEST PUSH1 0x0 PUSH2 0x47C DUP5 DUP3 DUP6 ADD PUSH2 0x374 JUMP JUMPDEST SWAP2 POP POP SWAP3 SWAP2 POP POP JUMP JUMPDEST PUSH1 0x0 DUP1 PUSH1 0x40 DUP4 DUP6 SUB SLT ISZERO PUSH2 0x498 JUMPI PUSH1 0x0 DUP1 REVERT JUMPDEST PUSH1 0x0 PUSH2 0x4A6 DUP6 DUP3 DUP7 ADD PUSH2 0x374 JUMP JUMPDEST SWAP3 POP POP PUSH1 0x20 DUP4 ADD CALLDATALOAD PUSH8 0xFFFFFFFFFFFFFFFF DUP2 GT ISZERO PUSH2 0x4C3 JUMPI PUSH1 0x0 DUP1 REVERT JUMPDEST PUSH2 0x4CF DUP6 DUP3 DUP7 ADD PUSH2 0x389 JUMP JUMPDEST SWAP2 POP POP SWAP3 POP SWAP3 SWAP1 POP JUMP JUMPDEST PUSH1 0x0 PUSH1 0x20 DUP3 DUP5 SUB SLT ISZERO PUSH2 0x4EB JUMPI PUSH1 0x0 DUP1 REVERT JUMPDEST PUSH1 0x0 DUP3 ADD CALLDATALOAD PUSH8 0xFFFFFFFFFFFFFFFF DUP2 GT ISZERO PUSH2 0x505 JUMPI PUSH1 0x0 DUP1 REVERT JUMPDEST PUSH2 0x511 DUP5 DUP3 DUP6 ADD PUSH2 0x389 JUMP JUMPDEST SWAP2 POP POP SWAP3 SWAP2 POP POP JUMP JUMPDEST PUSH1 0x0 PUSH1 0x20 DUP3 DUP5 SUB SLT ISZERO PUSH2 0x52C JUMPI PUSH1 0x0 DUP1 REVERT JUMPDEST PUSH1 0x0 DUP3 ADD CALLDATALOAD PUSH8 0xFFFFFFFFFFFFFFFF DUP2 GT ISZERO PUSH2 0x546 JUMPI PUSH1 0x0 DUP1 REVERT JUMPDEST PUSH2 0x552 DUP5 DUP3 DUP6 ADD PUSH2 0x3B3 JUMP JUMPDEST SWAP2 POP POP SWAP3 SWAP2 POP POP JUMP JUMPDEST PUSH2 0x564 DUP2 PUSH2 0x7F6 JUMP JUMPDEST DUP3 MSTORE POP POP JUMP JUMPDEST PUSH2 0x573 DUP2 PUSH2 0x808 JUMP JUMPDEST DUP3 MSTORE POP POP JUMP JUMPDEST PUSH2 0x582 DUP2 PUSH2 0x814 JUMP JUMPDEST DUP3 MSTORE POP POP JUMP JUMPDEST PUSH1 0x0 PUSH2 0x593 DUP3 PUSH2 0x7DA JUMP JUMPDEST PUSH2 0x59D DUP2 DUP6 PUSH2 0x7E5 JUMP JUMPDEST SWAP4 POP PUSH2 0x5AD DUP2 DUP6 PUSH1 0x20 DUP7 ADD PUSH2 0x85A JUMP JUMPDEST PUSH2 0x5B6 DUP2 PUSH2 0x8ED JUMP JUMPDEST DUP5 ADD SWAP2 POP POP SWAP3 SWAP2 POP POP JUMP JUMPDEST PUSH1 0x0 PUSH2 0x5CE PUSH1 0x1C DUP4 PUSH2 0x7E5 JUMP JUMPDEST SWAP2 POP PUSH2 0x5D9 DUP3 PUSH2 0x8FE JUMP JUMPDEST PUSH1 0x20 DUP3 ADD SWAP1 POP SWAP2 SWAP1 POP JUMP JUMPDEST PUSH1 0x0 PUSH2 0x5F1 PUSH1 0x18 DUP4 PUSH2 0x7E5 JUMP JUMPDEST SWAP2 POP PUSH2 0x5FC DUP3 PUSH2 0x927 JUMP JUMPDEST PUSH1 0x20 DUP3 ADD SWAP1 POP SWAP2 SWAP1 POP JUMP JUMPDEST PUSH2 0x610 DUP2 PUSH2 0x83E JUMP JUMPDEST DUP3 MSTORE POP POP JUMP JUMPDEST PUSH1 0x0 PUSH1 0x20 DUP3 ADD SWAP1 POP PUSH2 0x62B PUSH1 0x0 DUP4 ADD DUP5 PUSH2 0x55B JUMP JUMPDEST SWAP3 SWAP2 POP POP JUMP JUMPDEST PUSH1 0x0 PUSH1 0x20 DUP3 ADD SWAP1 POP PUSH2 0x646 PUSH1 0x0 DUP4 ADD DUP5 PUSH2 0x56A JUMP JUMPDEST SWAP3 SWAP2 POP POP JUMP JUMPDEST PUSH1 0x0 PUSH1 0x20 DUP3 ADD SWAP1 POP PUSH2 0x661 PUSH1 0x0 DUP4 ADD DUP5 PUSH2 0x579 JUMP JUMPDEST SWAP3 SWAP2 POP POP JUMP JUMPDEST PUSH1 0x0 PUSH1 0x60 DUP3 ADD SWAP1 POP PUSH2 0x67C PUSH1 0x0 DUP4 ADD DUP7 PUSH2 0x579 JUMP JUMPDEST PUSH2 0x689 PUSH1 0x20 DUP4 ADD DUP6 PUSH2 0x579 JUMP JUMPDEST PUSH2 0x696 PUSH1 0x40 DUP4 ADD DUP5 PUSH2 0x607 JUMP JUMPDEST SWAP5 SWAP4 POP POP POP POP JUMP JUMPDEST PUSH1 0x0 PUSH1 0x80 DUP3 ADD SWAP1 POP PUSH2 0x6B3 PUSH1 0x0 DUP4 ADD DUP8 PUSH2 0x579 JUMP JUMPDEST PUSH2 0x6C0 PUSH1 0x20 DUP4 ADD DUP7 PUSH2 0x607 JUMP JUMPDEST PUSH2 0x6CD PUSH1 0x40 DUP4 ADD DUP6 PUSH2 0x579 JUMP JUMPDEST PUSH2 0x6DA PUSH1 0x60 DUP4 ADD DUP5 PUSH2 0x579 JUMP JUMPDEST SWAP6 SWAP5 POP POP POP POP POP JUMP JUMPDEST PUSH1 0x0 PUSH1 0x20 DUP3 ADD SWAP1 POP DUP2 DUP2 SUB PUSH1 0x0 DUP4 ADD MSTORE PUSH2 0x6FD DUP2 DUP5 PUSH2 0x588 JUMP JUMPDEST SWAP1 POP SWAP3 SWAP2 POP POP JUMP JUMPDEST PUSH1 0x0 PUSH1 0x40 DUP3 ADD SWAP1 POP DUP2 DUP2 SUB PUSH1 0x0 DUP4 ADD MSTORE PUSH2 0x71E DUP2 PUSH2 0x5C1 JUMP JUMPDEST SWAP1 POP PUSH2 0x72D PUSH1 0x20 DUP4 ADD DUP5 PUSH2 0x579 JUMP JUMPDEST SWAP3 SWAP2 POP POP JUMP JUMPDEST PUSH1 0x0 PUSH1 0x20 DUP3 ADD SWAP1 POP DUP2 DUP2 SUB PUSH1 0x0 DUP4 ADD MSTORE PUSH2 0x74C DUP2 PUSH2 0x5E4 JUMP JUMPDEST SWAP1 POP SWAP2 SWAP1 POP JUMP JUMPDEST PUSH1 0x0 PUSH2 0x75D PUSH2 0x76E JUMP JUMPDEST SWAP1 POP PUSH2 0x769 DUP3 DUP3 PUSH2 0x88D JUMP JUMPDEST SWAP2 SWAP1 POP JUMP JUMPDEST PUSH1 0x0 PUSH1 0x40 MLOAD SWAP1 POP SWAP1 JUMP JUMPDEST PUSH1 0x0 PUSH8 0xFFFFFFFFFFFFFFFF DUP3 GT ISZERO PUSH2 0x793 JUMPI PUSH2 0x792 PUSH2 0x8BE JUMP JUMPDEST JUMPDEST PUSH2 0x79C DUP3 PUSH2 0x8ED JUMP JUMPDEST SWAP1 POP PUSH1 0x20 DUP2 ADD SWAP1 POP SWAP2 SWAP1 POP JUMP JUMPDEST PUSH1 0x0 PUSH8 0xFFFFFFFFFFFFFFFF DUP3 GT ISZERO PUSH2 0x7C4 JUMPI PUSH2 0x7C3 PUSH2 0x8BE JUMP JUMPDEST JUMPDEST PUSH2 0x7CD DUP3 PUSH2 0x8ED JUMP JUMPDEST SWAP1 POP PUSH1 0x20 DUP2 ADD SWAP1 POP SWAP2 SWAP1 POP JUMP JUMPDEST PUSH1 0x0 DUP2 MLOAD SWAP1 POP SWAP2 SWAP1 POP JUMP JUMPDEST PUSH1 0x0 DUP3 DUP3 MSTORE PUSH1 0x20 DUP3 ADD SWAP1 POP SWAP3 SWAP2 POP POP JUMP JUMPDEST PUSH1 0x0 PUSH2 0x801 DUP3 PUSH2 0x81E JUMP JUMPDEST SWAP1 POP SWAP2 SWAP1 POP JUMP JUMPDEST PUSH1 0x0 DUP2 ISZERO ISZERO SWAP1 POP SWAP2 SWAP1 POP JUMP JUMPDEST PUSH1 0x0 DUP2 SWAP1 POP SWAP2 SWAP1 POP JUMP JUMPDEST PUSH1 0x0 PUSH20 0xFFFFFFFFFFFFFFFFFFFFFFFFFFFFFFFFFFFFFFFF DUP3 AND SWAP1 POP SWAP2 SWAP1 POP JUMP JUMPDEST PUSH1 0x0 PUSH1 0xFF DUP3 AND SWAP1 POP SWAP2 SWAP1 POP JUMP JUMPDEST DUP3 DUP2 DUP4 CALLDATACOPY PUSH1 0x0 DUP4 DUP4 ADD MSTORE POP POP POP JUMP JUMPDEST PUSH1 0x0 JUMPDEST DUP4 DUP2 LT ISZERO PUSH2 0x878 JUMPI DUP1 DUP3 ADD MLOAD DUP2 DUP5 ADD MSTORE PUSH1 0x20 DUP2 ADD SWAP1 POP PUSH2 0x85D JUMP JUMPDEST DUP4 DUP2 GT ISZERO PUSH2 0x887 JUMPI PUSH1 0x0 DUP5 DUP5 ADD MSTORE JUMPDEST POP POP POP POP JUMP JUMPDEST PUSH2 0x896 DUP3 PUSH2 0x8ED JUMP JUMPDEST DUP2 ADD DUP2 DUP2 LT PUSH8 0xFFFFFFFFFFFFFFFF DUP3 GT OR ISZERO PUSH2 0x8B5 JUMPI PUSH2 0x8B4 PUSH2 0x8BE JUMP JUMPDEST JUMPDEST DUP1 PUSH1 0x40 MSTORE POP POP POP JUMP JUMPDEST PUSH32 0x4E487B7100000000000000000000000000000000000000000000000000000000 PUSH1 0x0 MSTORE PUSH1 0x41 PUSH1 0x4 MSTORE PUSH1 0x24 PUSH1 0x0 REVERT JUMPDEST PUSH1 0x0 PUSH1 0x1F NOT PUSH1 0x1F DUP4 ADD AND SWAP1 POP SWAP2 SWAP1 POP JUMP JUMPDEST PUSH32 0x19457468657265756D205369676E6564204D6573736167653A0A333200000000 PUSH1 0x0 DUP3 ADD MSTORE POP JUMP JUMPDEST PUSH32 0x496E76616C6964207369676E6174757265206C656E6774680000000000000000 PUSH1 0x0 DUP3 ADD MSTORE POP JUMP JUMPDEST PUSH2 0x959 DUP2 PUSH2 0x7F6 JUMP JUMPDEST DUP2 EQ PUSH2 0x964 JUMPI PUSH1 0x0 DUP1 REVERT JUMPDEST POP JUMP JUMPDEST PUSH2 0x970 DUP2 PUSH2 0x814 JUMP JUMPDEST DUP2 EQ PUSH2 0x97B JUMPI PUSH1 0x0 DUP1 REVERT JUMPDEST POP JUMP INVALID LOG2 PUSH5 0x6970667358 0x22 SLT KECCAK256 EXP DUP4 SWAP1 0xE6 0xD4 SDIV 0xF 0xD5 EQ KECCAK256 0xC8 0xD6 0xE1 0xCA PUSH2 0x48D4 0x25 PUSH30 0x87E7D7D0D9D09498CECCA18B4364736F6C63430008040033000000000000 "
				},
				"gasEstimates": {
					"creation": {
						"codeDepositCost": "496800",
						"executionCost": "530",
						"totalCost": "497330"
					},
					"external": {
						"getEthSignedMessageHash(bytes32)": "infinite",
						"getMessageHash(string)": "infinite",
						"recover(bytes32,bytes)": "infinite",
						"splitSignature(bytes)": "infinite",
						"verify(address,string,bytes)": "infinite"
					}
				},
				"methodIdentifiers": {
					"getEthSignedMessageHash(bytes32)": "fa540801",
					"getMessageHash(string)": "b446f3b2",
					"recover(bytes32,bytes)": "19045a25",
					"splitSignature(bytes)": "a7bb5803",
					"verify(address,string,bytes)": "2dd34f0f"
				}
			},
			"storageLayout": {
				"storage": [],
				"types": null
			},
			"userdoc": {
				"kind": "user",
				"methods": {},
				"version": 1
			}
		}
	}
}