{
	"contracts/base/EnglishAuction.sol": {
		"EnglishAuction": {
			"abi": [
				{
					"inputs": [
						{
							"internalType": "uint256",
							"name": "_startPrice",
							"type": "uint256"
						},
						{
							"internalType": "uint256",
							"name": "_nftId",
							"type": "uint256"
						},
						{
							"internalType": "address",
							"name": "_nft",
							"type": "address"
						}
					],
					"stateMutability": "nonpayable",
					"type": "constructor"
				},
				{
					"anonymous": false,
					"inputs": [
						{
							"indexed": true,
							"internalType": "address",
							"name": "buyAddress",
							"type": "address"
						},
						{
							"indexed": false,
							"internalType": "uint256",
							"name": "buyPrice",
							"type": "uint256"
						},
						{
							"indexed": false,
							"internalType": "uint256",
							"name": "total",
							"type": "uint256"
						}
					],
					"name": "Bid",
					"type": "event"
				},
				{
					"anonymous": false,
					"inputs": [],
					"name": "End",
					"type": "event"
				},
				{
					"anonymous": false,
					"inputs": [
						{
							"indexed": false,
							"internalType": "address",
							"name": "_seller",
							"type": "address"
						},
						{
							"indexed": false,
							"internalType": "uint256",
							"name": "nftId",
							"type": "uint256"
						},
						{
							"indexed": false,
							"internalType": "uint256",
							"name": "startTime",
							"type": "uint256"
						},
						{
							"indexed": false,
							"internalType": "uint256",
							"name": "endTime",
							"type": "uint256"
						}
					],
					"name": "Start",
					"type": "event"
				},
				{
					"inputs": [],
					"name": "bid",
					"outputs": [],
					"stateMutability": "payable",
					"type": "function"
				},
				{
					"inputs": [],
					"name": "buyAddress",
					"outputs": [
						{
							"internalType": "address",
							"name": "",
							"type": "address"
						}
					],
					"stateMutability": "view",
					"type": "function"
				},
				{
					"inputs": [],
					"name": "buyPrice",
					"outputs": [
						{
							"internalType": "uint256",
							"name": "",
							"type": "uint256"
						}
					],
					"stateMutability": "view",
					"type": "function"
				},
				{
					"inputs": [],
					"name": "duration",
					"outputs": [
						{
							"internalType": "uint256",
							"name": "",
							"type": "uint256"
						}
					],
					"stateMutability": "view",
					"type": "function"
				},
				{
					"inputs": [],
					"name": "end",
					"outputs": [],
					"stateMutability": "nonpayable",
					"type": "function"
				},
				{
					"inputs": [],
					"name": "endState",
					"outputs": [
						{
							"internalType": "bool",
							"name": "",
							"type": "bool"
						}
					],
					"stateMutability": "view",
					"type": "function"
				},
				{
					"inputs": [],
					"name": "endTime",
					"outputs": [
						{
							"internalType": "uint256",
							"name": "",
							"type": "uint256"
						}
					],
					"stateMutability": "view",
					"type": "function"
				},
				{
					"inputs": [],
					"name": "nft",
					"outputs": [
						{
							"internalType": "contract IERC721",
							"name": "",
							"type": "address"
						}
					],
					"stateMutability": "view",
					"type": "function"
				},
				{
					"inputs": [],
					"name": "nftId",
					"outputs": [
						{
							"internalType": "uint256",
							"name": "",
							"type": "uint256"
						}
					],
					"stateMutability": "view",
					"type": "function"
				},
				{
					"inputs": [
						{
							"internalType": "address",
							"name": "",
							"type": "address"
						}
					],
					"name": "refundAmount",
					"outputs": [
						{
							"internalType": "uint256",
							"name": "",
							"type": "uint256"
						}
					],
					"stateMutability": "view",
					"type": "function"
				},
				{
					"inputs": [],
					"name": "seller",
					"outputs": [
						{
							"internalType": "address payable",
							"name": "",
							"type": "address"
						}
					],
					"stateMutability": "view",
					"type": "function"
				},
				{
					"inputs": [],
					"name": "start",
					"outputs": [],
					"stateMutability": "nonpayable",
					"type": "function"
				},
				{
					"inputs": [],
					"name": "startPrice",
					"outputs": [
						{
							"internalType": "uint256",
							"name": "",
							"type": "uint256"
						}
					],
					"stateMutability": "view",
					"type": "function"
				},
				{
					"inputs": [],
					"name": "startState",
					"outputs": [
						{
							"internalType": "bool",
							"name": "",
							"type": "bool"
						}
					],
					"stateMutability": "view",
					"type": "function"
				},
				{
					"inputs": [],
					"name": "startTime",
					"outputs": [
						{
							"internalType": "uint256",
							"name": "",
							"type": "uint256"
						}
					],
					"stateMutability": "view",
					"type": "function"
				},
				{
					"inputs": [],
					"name": "withdraw",
					"outputs": [],
					"stateMutability": "nonpayable",
					"type": "function"
				}
			],
			"devdoc": {
				"kind": "dev",
				"methods": {},
				"version": 1
			},
			"evm": {
				"assembly": "    /* \"contracts/base/EnglishAuction.sol\":788:3758  contract EnglishAuction {\r... */\n  mstore(0x40, 0xe0)\n    /* \"contracts/base/EnglishAuction.sol\":1305:1308  120 */\n  0x78\n    /* \"contracts/base/EnglishAuction.sol\":1282:1308  uint public duration = 120 */\n  0x05\n  sstore\n    /* \"contracts/base/EnglishAuction.sol\":1751:1986  constructor(uint _startPrice,uint _nftId,address _nft) {\r... */\n  callvalue\n  dup1\n  iszero\n  tag_1\n  jumpi\n  0x00\n  dup1\n  revert\ntag_1:\n  pop\n  mload(0x40)\n  sub(codesize, bytecodeSize)\n  dup1\n  bytecodeSize\n  dup4\n  codecopy\n  dup2\n  dup2\n  add\n  0x40\n  mstore\n  dup2\n  add\n  swap1\n  tag_2\n  swap2\n  swap1\n  tag_3\n  jump\t// in\ntag_2:\n    /* \"contracts/base/EnglishAuction.sol\":1831:1835  _nft */\n  dup1\n    /* \"contracts/base/EnglishAuction.sol\":1817:1836  nft = IERC721(_nft) */\n  0xffffffffffffffffffffffffffffffffffffffff\n  and\n  0x80\n  dup2\n  0xffffffffffffffffffffffffffffffffffffffff\n  and\n  0x60\n  shl\n  dup2\n  mstore\n  pop\n  pop\n    /* \"contracts/base/EnglishAuction.sol\":1855:1861  _nftId */\n  dup2\n    /* \"contracts/base/EnglishAuction.sol\":1847:1861  nftId = _nftId */\n  0xa0\n  dup2\n  dup2\n  mstore\n  pop\n  pop\n    /* \"contracts/base/EnglishAuction.sol\":1885:1896  _startPrice */\n  dup3\n    /* \"contracts/base/EnglishAuction.sol\":1872:1882  startPrice */\n  0x02\n    /* \"contracts/base/EnglishAuction.sol\":1872:1896  startPrice = _startPrice */\n  dup2\n  swap1\n  sstore\n  pop\n    /* \"contracts/base/EnglishAuction.sol\":1918:1929  _startPrice */\n  dup3\n    /* \"contracts/base/EnglishAuction.sol\":1907:1915  buyPrice */\n  0x01\n    /* \"contracts/base/EnglishAuction.sol\":1907:1929  buyPrice = _startPrice */\n  dup2\n  swap1\n  sstore\n  pop\n    /* \"contracts/base/EnglishAuction.sol\":1957:1967  msg.sender */\n  caller\n    /* \"contracts/base/EnglishAuction.sol\":1940:1968  seller = payable(msg.sender) */\n  0xffffffffffffffffffffffffffffffffffffffff\n  and\n  0xc0\n  dup2\n  0xffffffffffffffffffffffffffffffffffffffff\n  and\n  0x60\n  shl\n  dup2\n  mstore\n  pop\n  pop\n    /* \"contracts/base/EnglishAuction.sol\":1751:1986  constructor(uint _startPrice,uint _nftId,address _nft) {\r... */\n  pop\n  pop\n  pop\n    /* \"contracts/base/EnglishAuction.sol\":788:3758  contract EnglishAuction {\r... */\n  jump(tag_6)\n    /* \"#utility.yul\":7:150   */\ntag_8:\n    /* \"#utility.yul\":64:69   */\n  0x00\n    /* \"#utility.yul\":95:101   */\n  dup2\n    /* \"#utility.yul\":89:102   */\n  mload\n    /* \"#utility.yul\":80:102   */\n  swap1\n  pop\n    /* \"#utility.yul\":111:144   */\n  tag_10\n    /* \"#utility.yul\":138:143   */\n  dup2\n    /* \"#utility.yul\":111:144   */\n  tag_11\n  jump\t// in\ntag_10:\n    /* \"#utility.yul\":70:150   */\n  swap3\n  swap2\n  pop\n  pop\n  jump\t// out\n    /* \"#utility.yul\":156:299   */\ntag_12:\n    /* \"#utility.yul\":213:218   */\n  0x00\n    /* \"#utility.yul\":244:250   */\n  dup2\n    /* \"#utility.yul\":238:251   */\n  mload\n    /* \"#utility.yul\":229:251   */\n  swap1\n  pop\n    /* \"#utility.yul\":260:293   */\n  tag_14\n    /* \"#utility.yul\":287:292   */\n  dup2\n    /* \"#utility.yul\":260:293   */\n  tag_15\n  jump\t// in\ntag_14:\n    /* \"#utility.yul\":219:299   */\n  swap3\n  swap2\n  pop\n  pop\n  jump\t// out\n    /* \"#utility.yul\":305:901   */\ntag_3:\n    /* \"#utility.yul\":393:399   */\n  0x00\n    /* \"#utility.yul\":401:407   */\n  dup1\n    /* \"#utility.yul\":409:415   */\n  0x00\n    /* \"#utility.yul\":458:460   */\n  0x60\n    /* \"#utility.yul\":446:455   */\n  dup5\n    /* \"#utility.yul\":437:444   */\n  dup7\n    /* \"#utility.yul\":433:456   */\n  sub\n    /* \"#utility.yul\":429:461   */\n  slt\n    /* \"#utility.yul\":426:428   */\n  iszero\n  tag_17\n  jumpi\n    /* \"#utility.yul\":474:475   */\n  0x00\n    /* \"#utility.yul\":471:472   */\n  dup1\n    /* \"#utility.yul\":464:476   */\n  revert\n    /* \"#utility.yul\":426:428   */\ntag_17:\n    /* \"#utility.yul\":517:518   */\n  0x00\n    /* \"#utility.yul\":542:606   */\n  tag_18\n    /* \"#utility.yul\":598:605   */\n  dup7\n    /* \"#utility.yul\":589:595   */\n  dup3\n    /* \"#utility.yul\":578:587   */\n  dup8\n    /* \"#utility.yul\":574:596   */\n  add\n    /* \"#utility.yul\":542:606   */\n  tag_12\n  jump\t// in\ntag_18:\n    /* \"#utility.yul\":532:606   */\n  swap4\n  pop\n    /* \"#utility.yul\":488:616   */\n  pop\n    /* \"#utility.yul\":655:657   */\n  0x20\n    /* \"#utility.yul\":681:745   */\n  tag_19\n    /* \"#utility.yul\":737:744   */\n  dup7\n    /* \"#utility.yul\":728:734   */\n  dup3\n    /* \"#utility.yul\":717:726   */\n  dup8\n    /* \"#utility.yul\":713:735   */\n  add\n    /* \"#utility.yul\":681:745   */\n  tag_12\n  jump\t// in\ntag_19:\n    /* \"#utility.yul\":671:745   */\n  swap3\n  pop\n    /* \"#utility.yul\":626:755   */\n  pop\n    /* \"#utility.yul\":794:796   */\n  0x40\n    /* \"#utility.yul\":820:884   */\n  tag_20\n    /* \"#utility.yul\":876:883   */\n  dup7\n    /* \"#utility.yul\":867:873   */\n  dup3\n    /* \"#utility.yul\":856:865   */\n  dup8\n    /* \"#utility.yul\":852:874   */\n  add\n    /* \"#utility.yul\":820:884   */\n  tag_8\n  jump\t// in\ntag_20:\n    /* \"#utility.yul\":810:884   */\n  swap2\n  pop\n    /* \"#utility.yul\":765:894   */\n  pop\n    /* \"#utility.yul\":416:901   */\n  swap3\n  pop\n  swap3\n  pop\n  swap3\n  jump\t// out\n    /* \"#utility.yul\":907:1003   */\ntag_21:\n    /* \"#utility.yul\":944:951   */\n  0x00\n    /* \"#utility.yul\":973:997   */\n  tag_23\n    /* \"#utility.yul\":991:996   */\n  dup3\n    /* \"#utility.yul\":973:997   */\n  tag_24\n  jump\t// in\ntag_23:\n    /* \"#utility.yul\":962:997   */\n  swap1\n  pop\n    /* \"#utility.yul\":952:1003   */\n  swap2\n  swap1\n  pop\n  jump\t// out\n    /* \"#utility.yul\":1009:1135   */\ntag_24:\n    /* \"#utility.yul\":1046:1053   */\n  0x00\n    /* \"#utility.yul\":1086:1128   */\n  0xffffffffffffffffffffffffffffffffffffffff\n    /* \"#utility.yul\":1079:1084   */\n  dup3\n    /* \"#utility.yul\":1075:1129   */\n  and\n    /* \"#utility.yul\":1064:1129   */\n  swap1\n  pop\n    /* \"#utility.yul\":1054:1135   */\n  swap2\n  swap1\n  pop\n  jump\t// out\n    /* \"#utility.yul\":1141:1218   */\ntag_26:\n    /* \"#utility.yul\":1178:1185   */\n  0x00\n    /* \"#utility.yul\":1207:1212   */\n  dup2\n    /* \"#utility.yul\":1196:1212   */\n  swap1\n  pop\n    /* \"#utility.yul\":1186:1218   */\n  swap2\n  swap1\n  pop\n  jump\t// out\n    /* \"#utility.yul\":1224:1346   */\ntag_11:\n    /* \"#utility.yul\":1297:1321   */\n  tag_29\n    /* \"#utility.yul\":1315:1320   */\n  dup2\n    /* \"#utility.yul\":1297:1321   */\n  tag_21\n  jump\t// in\ntag_29:\n    /* \"#utility.yul\":1290:1295   */\n  dup2\n    /* \"#utility.yul\":1287:1322   */\n  eq\n    /* \"#utility.yul\":1277:1279   */\n  tag_30\n  jumpi\n    /* \"#utility.yul\":1336:1337   */\n  0x00\n    /* \"#utility.yul\":1333:1334   */\n  dup1\n    /* \"#utility.yul\":1326:1338   */\n  revert\n    /* \"#utility.yul\":1277:1279   */\ntag_30:\n    /* \"#utility.yul\":1267:1346   */\n  pop\n  jump\t// out\n    /* \"#utility.yul\":1352:1474   */\ntag_15:\n    /* \"#utility.yul\":1425:1449   */\n  tag_32\n    /* \"#utility.yul\":1443:1448   */\n  dup2\n    /* \"#utility.yul\":1425:1449   */\n  tag_26\n  jump\t// in\ntag_32:\n    /* \"#utility.yul\":1418:1423   */\n  dup2\n    /* \"#utility.yul\":1415:1450   */\n  eq\n    /* \"#utility.yul\":1405:1407   */\n  tag_33\n  jumpi\n    /* \"#utility.yul\":1464:1465   */\n  0x00\n    /* \"#utility.yul\":1461:1462   */\n  dup1\n    /* \"#utility.yul\":1454:1466   */\n  revert\n    /* \"#utility.yul\":1405:1407   */\ntag_33:\n    /* \"#utility.yul\":1395:1474   */\n  pop\n  jump\t// out\n    /* \"contracts/base/EnglishAuction.sol\":788:3758  contract EnglishAuction {\r... */\ntag_6:\n  shr(0x60, mload(0x80))\n  mload(0xa0)\n  shr(0x60, mload(0xc0))\n  codecopy(0x00, dataOffset(sub_0), dataSize(sub_0))\n  0x00\n  assignImmutable(\"0x939eb54753ed0cc7e2272bfb34cbe098308c93936ed54d79078f76ade0b2e789\")\n  0x00\n  assignImmutable(\"0x8e8fab5f003314da8d1873ea7720e8d9f47650136d916064d1edb8a11d682624\")\n  0x00\n  assignImmutable(\"0x1d3be50b2bb17407dd170f1d5da128d1def30c6b1598d6a629e79b4775265526\")\n  return(0x00, dataSize(sub_0))\nstop\n\nsub_0: assembly {\n        /* \"contracts/base/EnglishAuction.sol\":788:3758  contract EnglishAuction {\r... */\n      mstore(0x40, 0x80)\n      jumpi(tag_1, lt(calldatasize, 0x04))\n      shr(0xe0, calldataload(0x00))\n      dup1\n      0x846329f1\n      gt\n      tag_18\n      jumpi\n      dup1\n      0xc6bc5182\n      gt\n      tag_19\n      jumpi\n      dup1\n      0xc6bc5182\n      eq\n      tag_14\n      jumpi\n      dup1\n      0xd33120ae\n      eq\n      tag_15\n      jumpi\n      dup1\n      0xefbe1c1c\n      eq\n      tag_16\n      jumpi\n      dup1\n      0xf1a9af89\n      eq\n      tag_17\n      jumpi\n      jump(tag_1)\n    tag_19:\n      dup1\n      0x846329f1\n      eq\n      tag_10\n      jumpi\n      dup1\n      0x8620410b\n      eq\n      tag_11\n      jumpi\n      dup1\n      0xacde5d28\n      eq\n      tag_12\n      jumpi\n      dup1\n      0xbe9a6555\n      eq\n      tag_13\n      jumpi\n      jump(tag_1)\n    tag_18:\n      dup1\n      0x3197cbb6\n      gt\n      tag_20\n      jumpi\n      dup1\n      0x3197cbb6\n      eq\n      tag_6\n      jumpi\n      dup1\n      0x3ccfd60b\n      eq\n      tag_7\n      jumpi\n      dup1\n      0x47ccca02\n      eq\n      tag_8\n      jumpi\n      dup1\n      0x78e97925\n      eq\n      tag_9\n      jumpi\n      jump(tag_1)\n    tag_20:\n      dup1\n      0x06f59cef\n      eq\n      tag_2\n      jumpi\n      dup1\n      0x08551a53\n      eq\n      tag_3\n      jumpi\n      dup1\n      0x0fb5a6b4\n      eq\n      tag_4\n      jumpi\n      dup1\n      0x1998aeef\n      eq\n      tag_5\n      jumpi\n    tag_1:\n      0x00\n      dup1\n      revert\n        /* \"contracts/base/EnglishAuction.sol\":1032:1058  address public  buyAddress */\n    tag_2:\n      callvalue\n      dup1\n      iszero\n      tag_21\n      jumpi\n      0x00\n      dup1\n      revert\n    tag_21:\n      pop\n      tag_22\n      tag_23\n      jump\t// in\n    tag_22:\n      mload(0x40)\n      tag_24\n      swap2\n      swap1\n      tag_25\n      jump\t// in\n    tag_24:\n      mload(0x40)\n      dup1\n      swap2\n      sub\n      swap1\n      return\n        /* \"contracts/base/EnglishAuction.sol\":965:1004  address payable public immutable seller */\n    tag_3:\n      callvalue\n      dup1\n      iszero\n      tag_26\n      jumpi\n      0x00\n      dup1\n      revert\n    tag_26:\n      pop\n      tag_27\n      tag_28\n      jump\t// in\n    tag_27:\n      mload(0x40)\n      tag_29\n      swap2\n      swap1\n      tag_30\n      jump\t// in\n    tag_29:\n      mload(0x40)\n      dup1\n      swap2\n      sub\n      swap1\n      return\n        /* \"contracts/base/EnglishAuction.sol\":1282:1308  uint public duration = 120 */\n    tag_4:\n      callvalue\n      dup1\n      iszero\n      tag_31\n      jumpi\n      0x00\n      dup1\n      revert\n    tag_31:\n      pop\n      tag_32\n      tag_33\n      jump\t// in\n    tag_32:\n      mload(0x40)\n      tag_34\n      swap2\n      swap1\n      tag_35\n      jump\t// in\n    tag_34:\n      mload(0x40)\n      dup1\n      swap2\n      sub\n      swap1\n      return\n        /* \"contracts/base/EnglishAuction.sol\":2418:2843  function bid() external payable {\r... */\n    tag_5:\n      tag_36\n      tag_37\n      jump\t// in\n    tag_36:\n      stop\n        /* \"contracts/base/EnglishAuction.sol\":1230:1249  uint public endTime */\n    tag_6:\n      callvalue\n      dup1\n      iszero\n      tag_38\n      jumpi\n      0x00\n      dup1\n      revert\n    tag_38:\n      pop\n      tag_39\n      tag_40\n      jump\t// in\n    tag_39:\n      mload(0x40)\n      tag_41\n      swap2\n      swap1\n      tag_35\n      jump\t// in\n    tag_41:\n      mload(0x40)\n      dup1\n      swap2\n      sub\n      swap1\n      return\n        /* \"contracts/base/EnglishAuction.sol\":2877:3158  function withdraw() external {\r... */\n    tag_7:\n      callvalue\n      dup1\n      iszero\n      tag_42\n      jumpi\n      0x00\n      dup1\n      revert\n    tag_42:\n      pop\n      tag_43\n      tag_44\n      jump\t// in\n    tag_43:\n      stop\n        /* \"contracts/base/EnglishAuction.sol\":848:876  IERC721 public immutable nft */\n    tag_8:\n      callvalue\n      dup1\n      iszero\n      tag_45\n      jumpi\n      0x00\n      dup1\n      revert\n    tag_45:\n      pop\n      tag_46\n      tag_47\n      jump\t// in\n    tag_46:\n      mload(0x40)\n      tag_48\n      swap2\n      swap1\n      tag_49\n      jump\t// in\n    tag_48:\n      mload(0x40)\n      dup1\n      swap2\n      sub\n      swap1\n      return\n        /* \"contracts/base/EnglishAuction.sol\":1180:1201  uint public startTime */\n    tag_9:\n      callvalue\n      dup1\n      iszero\n      tag_50\n      jumpi\n      0x00\n      dup1\n      revert\n    tag_50:\n      pop\n      tag_51\n      tag_52\n      jump\t// in\n    tag_51:\n      mload(0x40)\n      tag_53\n      swap2\n      swap1\n      tag_35\n      jump\t// in\n    tag_53:\n      mload(0x40)\n      dup1\n      swap2\n      sub\n      swap1\n      return\n        /* \"contracts/base/EnglishAuction.sol\":1481:1501  bool public endState */\n    tag_10:\n      callvalue\n      dup1\n      iszero\n      tag_54\n      jumpi\n      0x00\n      dup1\n      revert\n    tag_54:\n      pop\n      tag_55\n      tag_56\n      jump\t// in\n    tag_55:\n      mload(0x40)\n      tag_57\n      swap2\n      swap1\n      tag_58\n      jump\t// in\n    tag_57:\n      mload(0x40)\n      dup1\n      swap2\n      sub\n      swap1\n      return\n        /* \"contracts/base/EnglishAuction.sol\":1087:1107  uint public buyPrice */\n    tag_11:\n      callvalue\n      dup1\n      iszero\n      tag_59\n      jumpi\n      0x00\n      dup1\n      revert\n    tag_59:\n      pop\n      tag_60\n      tag_61\n      jump\t// in\n    tag_60:\n      mload(0x40)\n      tag_62\n      swap2\n      swap1\n      tag_35\n      jump\t// in\n    tag_62:\n      mload(0x40)\n      dup1\n      swap2\n      sub\n      swap1\n      return\n        /* \"contracts/base/EnglishAuction.sol\":1360:1404  mapping(address => uint) public refundAmount */\n    tag_12:\n      callvalue\n      dup1\n      iszero\n      tag_63\n      jumpi\n      0x00\n      dup1\n      revert\n    tag_63:\n      pop\n      tag_64\n      0x04\n      dup1\n      calldatasize\n      sub\n      dup2\n      add\n      swap1\n      tag_65\n      swap2\n      swap1\n      tag_66\n      jump\t// in\n    tag_65:\n      tag_67\n      jump\t// in\n    tag_64:\n      mload(0x40)\n      tag_68\n      swap2\n      swap1\n      tag_35\n      jump\t// in\n    tag_68:\n      mload(0x40)\n      dup1\n      swap2\n      sub\n      swap1\n      return\n        /* \"contracts/base/EnglishAuction.sol\":2023:2382  function start() external {\r... */\n    tag_13:\n      callvalue\n      dup1\n      iszero\n      tag_69\n      jumpi\n      0x00\n      dup1\n      revert\n    tag_69:\n      pop\n      tag_70\n      tag_71\n      jump\t// in\n    tag_70:\n      stop\n        /* \"contracts/base/EnglishAuction.sol\":883:910  uint public immutable nftId */\n    tag_14:\n      callvalue\n      dup1\n      iszero\n      tag_72\n      jumpi\n      0x00\n      dup1\n      revert\n    tag_72:\n      pop\n      tag_73\n      tag_74\n      jump\t// in\n    tag_73:\n      mload(0x40)\n      tag_75\n      swap2\n      swap1\n      tag_35\n      jump\t// in\n    tag_75:\n      mload(0x40)\n      dup1\n      swap2\n      sub\n      swap1\n      return\n        /* \"contracts/base/EnglishAuction.sol\":1452:1474  bool public startState */\n    tag_15:\n      callvalue\n      dup1\n      iszero\n      tag_76\n      jumpi\n      0x00\n      dup1\n      revert\n    tag_76:\n      pop\n      tag_77\n      tag_78\n      jump\t// in\n    tag_77:\n      mload(0x40)\n      tag_79\n      swap2\n      swap1\n      tag_58\n      jump\t// in\n    tag_79:\n      mload(0x40)\n      dup1\n      swap2\n      sub\n      swap1\n      return\n        /* \"contracts/base/EnglishAuction.sol\":3207:3746  function end() external {\r... */\n    tag_16:\n      callvalue\n      dup1\n      iszero\n      tag_80\n      jumpi\n      0x00\n      dup1\n      revert\n    tag_80:\n      pop\n      tag_81\n      tag_82\n      jump\t// in\n    tag_81:\n      stop\n        /* \"contracts/base/EnglishAuction.sol\":1131:1153  uint public startPrice */\n    tag_17:\n      callvalue\n      dup1\n      iszero\n      tag_83\n      jumpi\n      0x00\n      dup1\n      revert\n    tag_83:\n      pop\n      tag_84\n      tag_85\n      jump\t// in\n    tag_84:\n      mload(0x40)\n      tag_86\n      swap2\n      swap1\n      tag_35\n      jump\t// in\n    tag_86:\n      mload(0x40)\n      dup1\n      swap2\n      sub\n      swap1\n      return\n        /* \"contracts/base/EnglishAuction.sol\":1032:1058  address public  buyAddress */\n    tag_23:\n      0x00\n      dup1\n      sload\n      swap1\n      0x0100\n      exp\n      swap1\n      div\n      0xffffffffffffffffffffffffffffffffffffffff\n      and\n      dup2\n      jump\t// out\n        /* \"contracts/base/EnglishAuction.sol\":965:1004  address payable public immutable seller */\n    tag_28:\n      immutable(\"0x939eb54753ed0cc7e2272bfb34cbe098308c93936ed54d79078f76ade0b2e789\")\n      dup2\n      jump\t// out\n        /* \"contracts/base/EnglishAuction.sol\":1282:1308  uint public duration = 120 */\n    tag_33:\n      sload(0x05)\n      dup2\n      jump\t// out\n        /* \"contracts/base/EnglishAuction.sol\":2418:2843  function bid() external payable {\r... */\n    tag_37:\n        /* \"contracts/base/EnglishAuction.sol\":2468:2478  startState */\n      0x07\n      0x00\n      swap1\n      sload\n      swap1\n      0x0100\n      exp\n      swap1\n      div\n      0xff\n      and\n        /* \"contracts/base/EnglishAuction.sol\":2460:2495  require(startState, \"Didn't start\") */\n      tag_88\n      jumpi\n      mload(0x40)\n      0x08c379a000000000000000000000000000000000000000000000000000000000\n      dup2\n      mstore\n      0x04\n      add\n      tag_89\n      swap1\n      tag_90\n      jump\t// in\n    tag_89:\n      mload(0x40)\n      dup1\n      swap2\n      sub\n      swap1\n      revert\n    tag_88:\n        /* \"contracts/base/EnglishAuction.sol\":2532:2541  startTime */\n      sload(0x03)\n        /* \"contracts/base/EnglishAuction.sol\":2513:2528  block.timestamp */\n      timestamp\n        /* \"contracts/base/EnglishAuction.sol\":2513:2541  block.timestamp >= startTime */\n      lt\n      iszero\n        /* \"contracts/base/EnglishAuction.sol\":2513:2571  block.timestamp >= startTime && block.timestamp <= endTime */\n      dup1\n      iszero\n      tag_91\n      jumpi\n      pop\n        /* \"contracts/base/EnglishAuction.sol\":2564:2571  endTime */\n      sload(0x04)\n        /* \"contracts/base/EnglishAuction.sol\":2545:2560  block.timestamp */\n      timestamp\n        /* \"contracts/base/EnglishAuction.sol\":2545:2571  block.timestamp <= endTime */\n      gt\n      iszero\n        /* \"contracts/base/EnglishAuction.sol\":2513:2571  block.timestamp >= startTime && block.timestamp <= endTime */\n    tag_91:\n        /* \"contracts/base/EnglishAuction.sol\":2505:2602  require(block.timestamp >= startTime && block.timestamp <= endTime,\"Not allowed to bid anymore!\") */\n      tag_92\n      jumpi\n      mload(0x40)\n      0x08c379a000000000000000000000000000000000000000000000000000000000\n      dup2\n      mstore\n      0x04\n      add\n      tag_93\n      swap1\n      tag_94\n      jump\t// in\n    tag_93:\n      mload(0x40)\n      dup1\n      swap2\n      sub\n      swap1\n      revert\n    tag_92:\n        /* \"contracts/base/EnglishAuction.sol\":2632:2640  buyPrice */\n      sload(0x01)\n        /* \"contracts/base/EnglishAuction.sol\":2620:2629  msg.value */\n      callvalue\n        /* \"contracts/base/EnglishAuction.sol\":2620:2640  msg.value > buyPrice */\n      gt\n        /* \"contracts/base/EnglishAuction.sol\":2612:2661  require(msg.value > buyPrice , \"not enough ETH!\") */\n      tag_95\n      jumpi\n      mload(0x40)\n      0x08c379a000000000000000000000000000000000000000000000000000000000\n      dup2\n      mstore\n      0x04\n      add\n      tag_96\n      swap1\n      tag_97\n      jump\t// in\n    tag_96:\n      mload(0x40)\n      dup1\n      swap2\n      sub\n      swap1\n      revert\n    tag_95:\n        /* \"contracts/base/EnglishAuction.sol\":2684:2694  msg.sender */\n      caller\n        /* \"contracts/base/EnglishAuction.sol\":2671:2681  buyAddress */\n      0x00\n      dup1\n        /* \"contracts/base/EnglishAuction.sol\":2671:2694  buyAddress = msg.sender */\n      0x0100\n      exp\n      dup2\n      sload\n      dup2\n      0xffffffffffffffffffffffffffffffffffffffff\n      mul\n      not\n      and\n      swap1\n      dup4\n      0xffffffffffffffffffffffffffffffffffffffff\n      and\n      mul\n      or\n      swap1\n      sstore\n      pop\n        /* \"contracts/base/EnglishAuction.sol\":2715:2724  msg.value */\n      callvalue\n        /* \"contracts/base/EnglishAuction.sol\":2704:2712  buyPrice */\n      0x01\n        /* \"contracts/base/EnglishAuction.sol\":2704:2724  buyPrice = msg.value */\n      dup2\n      swap1\n      sstore\n      pop\n        /* \"contracts/base/EnglishAuction.sol\":2762:2771  msg.value */\n      callvalue\n        /* \"contracts/base/EnglishAuction.sol\":2734:2746  refundAmount */\n      0x06\n        /* \"contracts/base/EnglishAuction.sol\":2734:2758  refundAmount[buyAddress] */\n      0x00\n        /* \"contracts/base/EnglishAuction.sol\":2747:2757  buyAddress */\n      dup1\n      0x00\n      swap1\n      sload\n      swap1\n      0x0100\n      exp\n      swap1\n      div\n      0xffffffffffffffffffffffffffffffffffffffff\n      and\n        /* \"contracts/base/EnglishAuction.sol\":2734:2758  refundAmount[buyAddress] */\n      0xffffffffffffffffffffffffffffffffffffffff\n      and\n      0xffffffffffffffffffffffffffffffffffffffff\n      and\n      dup2\n      mstore\n      0x20\n      add\n      swap1\n      dup2\n      mstore\n      0x20\n      add\n      0x00\n      keccak256\n      0x00\n        /* \"contracts/base/EnglishAuction.sol\":2734:2771  refundAmount[buyAddress] += msg.value */\n      dup3\n      dup3\n      sload\n      tag_98\n      swap2\n      swap1\n      tag_99\n      jump\t// in\n    tag_98:\n      swap3\n      pop\n      pop\n      dup2\n      swap1\n      sstore\n      pop\n        /* \"contracts/base/EnglishAuction.sol\":2790:2800  buyAddress */\n      0x00\n      dup1\n      sload\n      swap1\n      0x0100\n      exp\n      swap1\n      div\n      0xffffffffffffffffffffffffffffffffffffffff\n      and\n        /* \"contracts/base/EnglishAuction.sol\":2786:2835  Bid(buyAddress,buyPrice,refundAmount[buyAddress]) */\n      0xffffffffffffffffffffffffffffffffffffffff\n      and\n      0x19421268847f42dd61705778018ddfc43bcdce8517e7a630acb12f122c709481\n        /* \"contracts/base/EnglishAuction.sol\":2801:2809  buyPrice */\n      sload(0x01)\n        /* \"contracts/base/EnglishAuction.sol\":2810:2822  refundAmount */\n      0x06\n        /* \"contracts/base/EnglishAuction.sol\":2810:2834  refundAmount[buyAddress] */\n      0x00\n        /* \"contracts/base/EnglishAuction.sol\":2823:2833  buyAddress */\n      dup1\n      0x00\n      swap1\n      sload\n      swap1\n      0x0100\n      exp\n      swap1\n      div\n      0xffffffffffffffffffffffffffffffffffffffff\n      and\n        /* \"contracts/base/EnglishAuction.sol\":2810:2834  refundAmount[buyAddress] */\n      0xffffffffffffffffffffffffffffffffffffffff\n      and\n      0xffffffffffffffffffffffffffffffffffffffff\n      and\n      dup2\n      mstore\n      0x20\n      add\n      swap1\n      dup2\n      mstore\n      0x20\n      add\n      0x00\n      keccak256\n      sload\n        /* \"contracts/base/EnglishAuction.sol\":2786:2835  Bid(buyAddress,buyPrice,refundAmount[buyAddress]) */\n      mload(0x40)\n      tag_100\n      swap3\n      swap2\n      swap1\n      tag_101\n      jump\t// in\n    tag_100:\n      mload(0x40)\n      dup1\n      swap2\n      sub\n      swap1\n      log2\n        /* \"contracts/base/EnglishAuction.sol\":2418:2843  function bid() external payable {\r... */\n      jump\t// out\n        /* \"contracts/base/EnglishAuction.sol\":1230:1249  uint public endTime */\n    tag_40:\n      sload(0x04)\n      dup2\n      jump\t// out\n        /* \"contracts/base/EnglishAuction.sol\":2877:3158  function withdraw() external {\r... */\n    tag_44:\n        /* \"contracts/base/EnglishAuction.sol\":2926:2936  startState */\n      0x07\n      0x00\n      swap1\n      sload\n      swap1\n      0x0100\n      exp\n      swap1\n      div\n      0xff\n      and\n        /* \"contracts/base/EnglishAuction.sol\":2925:2936  !startState */\n      iszero\n        /* \"contracts/base/EnglishAuction.sol\":2917:2949  require(!startState, \"starting\") */\n      tag_103\n      jumpi\n      mload(0x40)\n      0x08c379a000000000000000000000000000000000000000000000000000000000\n      dup2\n      mstore\n      0x04\n      add\n      tag_104\n      swap1\n      tag_105\n      jump\t// in\n    tag_104:\n      mload(0x40)\n      dup1\n      swap2\n      sub\n      swap1\n      revert\n    tag_103:\n        /* \"contracts/base/EnglishAuction.sol\":2960:2978  uint _refundAmount */\n      0x00\n        /* \"contracts/base/EnglishAuction.sol\":2981:2993  refundAmount */\n      0x06\n        /* \"contracts/base/EnglishAuction.sol\":2981:3005  refundAmount[msg.sender] */\n      0x00\n        /* \"contracts/base/EnglishAuction.sol\":2994:3004  msg.sender */\n      caller\n        /* \"contracts/base/EnglishAuction.sol\":2981:3005  refundAmount[msg.sender] */\n      0xffffffffffffffffffffffffffffffffffffffff\n      and\n      0xffffffffffffffffffffffffffffffffffffffff\n      and\n      dup2\n      mstore\n      0x20\n      add\n      swap1\n      dup2\n      mstore\n      0x20\n      add\n      0x00\n      keccak256\n      sload\n        /* \"contracts/base/EnglishAuction.sol\":2960:3005  uint _refundAmount = refundAmount[msg.sender] */\n      swap1\n      pop\n        /* \"contracts/base/EnglishAuction.sol\":3036:3037  0 */\n      0x00\n        /* \"contracts/base/EnglishAuction.sol\":3019:3032  _refundAmount */\n      dup2\n        /* \"contracts/base/EnglishAuction.sol\":3019:3037  _refundAmount != 0 */\n      eq\n        /* \"contracts/base/EnglishAuction.sol\":3016:3151  if(_refundAmount != 0){\r... */\n      tag_106\n      jumpi\n        /* \"contracts/base/EnglishAuction.sol\":3061:3071  msg.sender */\n      caller\n        /* \"contracts/base/EnglishAuction.sol\":3053:3081  payable(msg.sender).transfer */\n      0xffffffffffffffffffffffffffffffffffffffff\n      and\n        /* \"contracts/base/EnglishAuction.sol\":3053:3096  payable(msg.sender).transfer(_refundAmount) */\n      0x08fc\n        /* \"contracts/base/EnglishAuction.sol\":3082:3095  _refundAmount */\n      dup3\n        /* \"contracts/base/EnglishAuction.sol\":3053:3096  payable(msg.sender).transfer(_refundAmount) */\n      swap1\n      dup2\n      iszero\n      mul\n      swap1\n      mload(0x40)\n      0x00\n      mload(0x40)\n      dup1\n      dup4\n      sub\n      dup2\n      dup6\n      dup9\n      dup9\n      call\n      swap4\n      pop\n      pop\n      pop\n      pop\n      iszero\n      dup1\n      iszero\n      tag_108\n      jumpi\n      returndatasize\n      0x00\n      dup1\n      returndatacopy\n      revert(0x00, returndatasize)\n    tag_108:\n      pop\n        /* \"contracts/base/EnglishAuction.sol\":3138:3139  0 */\n      0x00\n        /* \"contracts/base/EnglishAuction.sol\":3111:3123  refundAmount */\n      0x06\n        /* \"contracts/base/EnglishAuction.sol\":3111:3135  refundAmount[msg.sender] */\n      0x00\n        /* \"contracts/base/EnglishAuction.sol\":3124:3134  msg.sender */\n      caller\n        /* \"contracts/base/EnglishAuction.sol\":3111:3135  refundAmount[msg.sender] */\n      0xffffffffffffffffffffffffffffffffffffffff\n      and\n      0xffffffffffffffffffffffffffffffffffffffff\n      and\n      dup2\n      mstore\n      0x20\n      add\n      swap1\n      dup2\n      mstore\n      0x20\n      add\n      0x00\n      keccak256\n        /* \"contracts/base/EnglishAuction.sol\":3111:3139  refundAmount[msg.sender] = 0 */\n      dup2\n      swap1\n      sstore\n      pop\n        /* \"contracts/base/EnglishAuction.sol\":3016:3151  if(_refundAmount != 0){\r... */\n    tag_106:\n        /* \"contracts/base/EnglishAuction.sol\":2877:3158  function withdraw() external {\r... */\n      pop\n      jump\t// out\n        /* \"contracts/base/EnglishAuction.sol\":848:876  IERC721 public immutable nft */\n    tag_47:\n      immutable(\"0x1d3be50b2bb17407dd170f1d5da128d1def30c6b1598d6a629e79b4775265526\")\n      dup2\n      jump\t// out\n        /* \"contracts/base/EnglishAuction.sol\":1180:1201  uint public startTime */\n    tag_52:\n      sload(0x03)\n      dup2\n      jump\t// out\n        /* \"contracts/base/EnglishAuction.sol\":1481:1501  bool public endState */\n    tag_56:\n      0x07\n      0x01\n      swap1\n      sload\n      swap1\n      0x0100\n      exp\n      swap1\n      div\n      0xff\n      and\n      dup2\n      jump\t// out\n        /* \"contracts/base/EnglishAuction.sol\":1087:1107  uint public buyPrice */\n    tag_61:\n      sload(0x01)\n      dup2\n      jump\t// out\n        /* \"contracts/base/EnglishAuction.sol\":1360:1404  mapping(address => uint) public refundAmount */\n    tag_67:\n      mstore(0x20, 0x06)\n      dup1\n      0x00\n      mstore\n      keccak256(0x00, 0x40)\n      0x00\n      swap2\n      pop\n      swap1\n      pop\n      sload\n      dup2\n      jump\t// out\n        /* \"contracts/base/EnglishAuction.sol\":2023:2382  function start() external {\r... */\n    tag_71:\n        /* \"contracts/base/EnglishAuction.sol\":2082:2088  seller */\n      immutable(\"0x939eb54753ed0cc7e2272bfb34cbe098308c93936ed54d79078f76ade0b2e789\")\n        /* \"contracts/base/EnglishAuction.sol\":2068:2088  msg.sender == seller */\n      0xffffffffffffffffffffffffffffffffffffffff\n      and\n        /* \"contracts/base/EnglishAuction.sol\":2068:2078  msg.sender */\n      caller\n        /* \"contracts/base/EnglishAuction.sol\":2068:2088  msg.sender == seller */\n      0xffffffffffffffffffffffffffffffffffffffff\n      and\n      eq\n        /* \"contracts/base/EnglishAuction.sol\":2060:2107  require(msg.sender == seller, \"Must be seller\") */\n      tag_110\n      jumpi\n      mload(0x40)\n      0x08c379a000000000000000000000000000000000000000000000000000000000\n      dup2\n      mstore\n      0x04\n      add\n      tag_111\n      swap1\n      tag_112\n      jump\t// in\n    tag_111:\n      mload(0x40)\n      dup1\n      swap2\n      sub\n      swap1\n      revert\n    tag_110:\n        /* \"contracts/base/EnglishAuction.sol\":2127:2137  startState */\n      0x07\n      0x00\n      swap1\n      sload\n      swap1\n      0x0100\n      exp\n      swap1\n      div\n      0xff\n      and\n        /* \"contracts/base/EnglishAuction.sol\":2126:2137  !startState */\n      iszero\n        /* \"contracts/base/EnglishAuction.sol\":2118:2150  require(!startState, \"starting\") */\n      tag_113\n      jumpi\n      mload(0x40)\n      0x08c379a000000000000000000000000000000000000000000000000000000000\n      dup2\n      mstore\n      0x04\n      add\n      tag_114\n      swap1\n      tag_105\n      jump\t// in\n    tag_114:\n      mload(0x40)\n      dup1\n      swap2\n      sub\n      swap1\n      revert\n    tag_113:\n        /* \"contracts/base/EnglishAuction.sol\":2174:2178  true */\n      0x01\n        /* \"contracts/base/EnglishAuction.sol\":2161:2171  startState */\n      0x07\n      0x00\n        /* \"contracts/base/EnglishAuction.sol\":2161:2178  startState = true */\n      0x0100\n      exp\n      dup2\n      sload\n      dup2\n      0xff\n      mul\n      not\n      and\n      swap1\n      dup4\n      iszero\n      iszero\n      mul\n      or\n      swap1\n      sstore\n      pop\n        /* \"contracts/base/EnglishAuction.sol\":2201:2216  block.timestamp */\n      timestamp\n        /* \"contracts/base/EnglishAuction.sol\":2189:2198  startTime */\n      0x03\n        /* \"contracts/base/EnglishAuction.sol\":2189:2216  startTime = block.timestamp */\n      dup2\n      swap1\n      sstore\n      pop\n        /* \"contracts/base/EnglishAuction.sol\":2249:2257  duration */\n      sload(0x05)\n        /* \"contracts/base/EnglishAuction.sol\":2237:2246  startTime */\n      sload(0x03)\n        /* \"contracts/base/EnglishAuction.sol\":2237:2257  startTime + duration */\n      tag_115\n      swap2\n      swap1\n      tag_99\n      jump\t// in\n    tag_115:\n        /* \"contracts/base/EnglishAuction.sol\":2227:2234  endTime */\n      0x04\n        /* \"contracts/base/EnglishAuction.sol\":2227:2257  endTime = startTime + duration */\n      dup2\n      swap1\n      sstore\n      pop\n        /* \"contracts/base/EnglishAuction.sol\":2268:2271  nft */\n      immutable(\"0x1d3be50b2bb17407dd170f1d5da128d1def30c6b1598d6a629e79b4775265526\")\n        /* \"contracts/base/EnglishAuction.sol\":2268:2284  nft.transferFrom */\n      0xffffffffffffffffffffffffffffffffffffffff\n      and\n      0x23b872dd\n        /* \"contracts/base/EnglishAuction.sol\":2285:2291  seller */\n      immutable(\"0x939eb54753ed0cc7e2272bfb34cbe098308c93936ed54d79078f76ade0b2e789\")\n        /* \"contracts/base/EnglishAuction.sol\":2301:2305  this */\n      address\n        /* \"contracts/base/EnglishAuction.sol\":2308:2313  nftId */\n      immutable(\"0x8e8fab5f003314da8d1873ea7720e8d9f47650136d916064d1edb8a11d682624\")\n        /* \"contracts/base/EnglishAuction.sol\":2268:2314  nft.transferFrom(seller, address(this), nftId) */\n      mload(0x40)\n      dup5\n      0xffffffff\n      and\n      0xe0\n      shl\n      dup2\n      mstore\n      0x04\n      add\n      tag_116\n      swap4\n      swap3\n      swap2\n      swap1\n      tag_117\n      jump\t// in\n    tag_116:\n      0x00\n      mload(0x40)\n      dup1\n      dup4\n      sub\n      dup2\n      0x00\n      dup8\n      dup1\n      extcodesize\n      iszero\n      dup1\n      iszero\n      tag_118\n      jumpi\n      0x00\n      dup1\n      revert\n    tag_118:\n      pop\n      gas\n      call\n      iszero\n      dup1\n      iszero\n      tag_120\n      jumpi\n      returndatasize\n      0x00\n      dup1\n      returndatacopy\n      revert(0x00, returndatasize)\n    tag_120:\n      pop\n      pop\n      pop\n      pop\n        /* \"contracts/base/EnglishAuction.sol\":2330:2374  Start(address(this),nftId,startTime,endTime) */\n      0x3b305515dbe345238649f5ce343c57ae67d5727443f8d744b2b793c3231e3ad9\n        /* \"contracts/base/EnglishAuction.sol\":2344:2348  this */\n      address\n        /* \"contracts/base/EnglishAuction.sol\":2350:2355  nftId */\n      immutable(\"0x8e8fab5f003314da8d1873ea7720e8d9f47650136d916064d1edb8a11d682624\")\n        /* \"contracts/base/EnglishAuction.sol\":2356:2365  startTime */\n      sload(0x03)\n        /* \"contracts/base/EnglishAuction.sol\":2366:2373  endTime */\n      sload(0x04)\n        /* \"contracts/base/EnglishAuction.sol\":2330:2374  Start(address(this),nftId,startTime,endTime) */\n      mload(0x40)\n      tag_121\n      swap5\n      swap4\n      swap3\n      swap2\n      swap1\n      tag_122\n      jump\t// in\n    tag_121:\n      mload(0x40)\n      dup1\n      swap2\n      sub\n      swap1\n      log1\n        /* \"contracts/base/EnglishAuction.sol\":2023:2382  function start() external {\r... */\n      jump\t// out\n        /* \"contracts/base/EnglishAuction.sol\":883:910  uint public immutable nftId */\n    tag_74:\n      immutable(\"0x8e8fab5f003314da8d1873ea7720e8d9f47650136d916064d1edb8a11d682624\")\n      dup2\n      jump\t// out\n        /* \"contracts/base/EnglishAuction.sol\":1452:1474  bool public startState */\n    tag_78:\n      0x07\n      0x00\n      swap1\n      sload\n      swap1\n      0x0100\n      exp\n      swap1\n      div\n      0xff\n      and\n      dup2\n      jump\t// out\n        /* \"contracts/base/EnglishAuction.sol\":3207:3746  function end() external {\r... */\n    tag_82:\n        /* \"contracts/base/EnglishAuction.sol\":3269:3276  endTime */\n      sload(0x04)\n        /* \"contracts/base/EnglishAuction.sol\":3251:3266  block.timestamp */\n      timestamp\n        /* \"contracts/base/EnglishAuction.sol\":3251:3276  block.timestamp > endTime */\n      gt\n        /* \"contracts/base/EnglishAuction.sol\":3243:3302  require(block.timestamp > endTime, \"The auction has ended\") */\n      tag_124\n      jumpi\n      mload(0x40)\n      0x08c379a000000000000000000000000000000000000000000000000000000000\n      dup2\n      mstore\n      0x04\n      add\n      tag_125\n      swap1\n      tag_126\n      jump\t// in\n    tag_125:\n      mload(0x40)\n      dup1\n      swap2\n      sub\n      swap1\n      revert\n    tag_124:\n        /* \"contracts/base/EnglishAuction.sol\":3322:3332  startState */\n      0x07\n      0x00\n      swap1\n      sload\n      swap1\n      0x0100\n      exp\n      swap1\n      div\n      0xff\n      and\n        /* \"contracts/base/EnglishAuction.sol\":3314:3358  require(startState, \"The auction has ended\") */\n      tag_127\n      jumpi\n      mload(0x40)\n      0x08c379a000000000000000000000000000000000000000000000000000000000\n      dup2\n      mstore\n      0x04\n      add\n      tag_128\n      swap1\n      tag_126\n      jump\t// in\n    tag_128:\n      mload(0x40)\n      dup1\n      swap2\n      sub\n      swap1\n      revert\n    tag_127:\n        /* \"contracts/base/EnglishAuction.sol\":3379:3387  endState */\n      0x07\n      0x01\n      swap1\n      sload\n      swap1\n      0x0100\n      exp\n      swap1\n      div\n      0xff\n      and\n        /* \"contracts/base/EnglishAuction.sol\":3378:3387  !endState */\n      iszero\n        /* \"contracts/base/EnglishAuction.sol\":3370:3419  require(!endState, \"the auction has been ended!\") */\n      tag_129\n      jumpi\n      mload(0x40)\n      0x08c379a000000000000000000000000000000000000000000000000000000000\n      dup2\n      mstore\n      0x04\n      add\n      tag_130\n      swap1\n      tag_131\n      jump\t// in\n    tag_130:\n      mload(0x40)\n      dup1\n      swap2\n      sub\n      swap1\n      revert\n    tag_129:\n        /* \"contracts/base/EnglishAuction.sol\":3444:3448  true */\n      0x01\n        /* \"contracts/base/EnglishAuction.sol\":3433:3441  endState */\n      0x07\n      0x01\n        /* \"contracts/base/EnglishAuction.sol\":3433:3448  endState = true */\n      0x0100\n      exp\n      dup2\n      sload\n      dup2\n      0xff\n      mul\n      not\n      and\n      swap1\n      dup4\n      iszero\n      iszero\n      mul\n      or\n      swap1\n      sstore\n      pop\n        /* \"contracts/base/EnglishAuction.sol\":3473:3478  false */\n      0x00\n        /* \"contracts/base/EnglishAuction.sol\":3460:3470  startState */\n      0x07\n      0x00\n        /* \"contracts/base/EnglishAuction.sol\":3460:3478  startState = false */\n      0x0100\n      exp\n      dup2\n      sload\n      dup2\n      0xff\n      mul\n      not\n      and\n      swap1\n      dup4\n      iszero\n      iszero\n      mul\n      or\n      swap1\n      sstore\n      pop\n        /* \"contracts/base/EnglishAuction.sol\":3518:3519  0 */\n      0x00\n        /* \"contracts/base/EnglishAuction.sol\":3496:3520  buyAddress != address(0) */\n      0xffffffffffffffffffffffffffffffffffffffff\n      and\n        /* \"contracts/base/EnglishAuction.sol\":3496:3506  buyAddress */\n      0x00\n      dup1\n      sload\n      swap1\n      0x0100\n      exp\n      swap1\n      div\n      0xffffffffffffffffffffffffffffffffffffffff\n      and\n        /* \"contracts/base/EnglishAuction.sol\":3496:3520  buyAddress != address(0) */\n      0xffffffffffffffffffffffffffffffffffffffff\n      and\n      eq\n        /* \"contracts/base/EnglishAuction.sol\":3492:3717  if (buyAddress != address(0)){\r... */\n      tag_132\n      jumpi\n        /* \"contracts/base/EnglishAuction.sol\":3536:3542  seller */\n      immutable(\"0x939eb54753ed0cc7e2272bfb34cbe098308c93936ed54d79078f76ade0b2e789\")\n        /* \"contracts/base/EnglishAuction.sol\":3536:3551  seller.transfer */\n      0xffffffffffffffffffffffffffffffffffffffff\n      and\n        /* \"contracts/base/EnglishAuction.sol\":3536:3561  seller.transfer(buyPrice) */\n      0x08fc\n        /* \"contracts/base/EnglishAuction.sol\":3552:3560  buyPrice */\n      sload(0x01)\n        /* \"contracts/base/EnglishAuction.sol\":3536:3561  seller.transfer(buyPrice) */\n      swap1\n      dup2\n      iszero\n      mul\n      swap1\n      mload(0x40)\n      0x00\n      mload(0x40)\n      dup1\n      dup4\n      sub\n      dup2\n      dup6\n      dup9\n      dup9\n      call\n      swap4\n      pop\n      pop\n      pop\n      pop\n      iszero\n      dup1\n      iszero\n      tag_134\n      jumpi\n      returndatasize\n      0x00\n      dup1\n      returndatacopy\n      revert(0x00, returndatasize)\n    tag_134:\n      pop\n        /* \"contracts/base/EnglishAuction.sol\":3576:3579  nft */\n      immutable(\"0x1d3be50b2bb17407dd170f1d5da128d1def30c6b1598d6a629e79b4775265526\")\n        /* \"contracts/base/EnglishAuction.sol\":3576:3592  nft.transferFrom */\n      0xffffffffffffffffffffffffffffffffffffffff\n      and\n      0x23b872dd\n        /* \"contracts/base/EnglishAuction.sol\":3601:3605  this */\n      address\n        /* \"contracts/base/EnglishAuction.sol\":3607:3617  buyAddress */\n      0x00\n      dup1\n      sload\n      swap1\n      0x0100\n      exp\n      swap1\n      div\n      0xffffffffffffffffffffffffffffffffffffffff\n      and\n        /* \"contracts/base/EnglishAuction.sol\":3619:3624  nftId */\n      immutable(\"0x8e8fab5f003314da8d1873ea7720e8d9f47650136d916064d1edb8a11d682624\")\n        /* \"contracts/base/EnglishAuction.sol\":3576:3626  nft.transferFrom(address(this),buyAddress, nftId ) */\n      mload(0x40)\n      dup5\n      0xffffffff\n      and\n      0xe0\n      shl\n      dup2\n      mstore\n      0x04\n      add\n      tag_135\n      swap4\n      swap3\n      swap2\n      swap1\n      tag_136\n      jump\t// in\n    tag_135:\n      0x00\n      mload(0x40)\n      dup1\n      dup4\n      sub\n      dup2\n      0x00\n      dup8\n      dup1\n      extcodesize\n      iszero\n      dup1\n      iszero\n      tag_137\n      jumpi\n      0x00\n      dup1\n      revert\n    tag_137:\n      pop\n      gas\n      call\n      iszero\n      dup1\n      iszero\n      tag_139\n      jumpi\n      returndatasize\n      0x00\n      dup1\n      returndatacopy\n      revert(0x00, returndatasize)\n    tag_139:\n      pop\n      pop\n      pop\n      pop\n        /* \"contracts/base/EnglishAuction.sol\":3492:3717  if (buyAddress != address(0)){\r... */\n      jump(tag_140)\n    tag_132:\n        /* \"contracts/base/EnglishAuction.sol\":3658:3661  nft */\n      immutable(\"0x1d3be50b2bb17407dd170f1d5da128d1def30c6b1598d6a629e79b4775265526\")\n        /* \"contracts/base/EnglishAuction.sol\":3658:3674  nft.transferFrom */\n      0xffffffffffffffffffffffffffffffffffffffff\n      and\n      0x23b872dd\n        /* \"contracts/base/EnglishAuction.sol\":3683:3687  this */\n      address\n        /* \"contracts/base/EnglishAuction.sol\":3689:3695  seller */\n      immutable(\"0x939eb54753ed0cc7e2272bfb34cbe098308c93936ed54d79078f76ade0b2e789\")\n        /* \"contracts/base/EnglishAuction.sol\":3697:3702  nftId */\n      immutable(\"0x8e8fab5f003314da8d1873ea7720e8d9f47650136d916064d1edb8a11d682624\")\n        /* \"contracts/base/EnglishAuction.sol\":3658:3704  nft.transferFrom(address(this),seller, nftId ) */\n      mload(0x40)\n      dup5\n      0xffffffff\n      and\n      0xe0\n      shl\n      dup2\n      mstore\n      0x04\n      add\n      tag_141\n      swap4\n      swap3\n      swap2\n      swap1\n      tag_142\n      jump\t// in\n    tag_141:\n      0x00\n      mload(0x40)\n      dup1\n      dup4\n      sub\n      dup2\n      0x00\n      dup8\n      dup1\n      extcodesize\n      iszero\n      dup1\n      iszero\n      tag_143\n      jumpi\n      0x00\n      dup1\n      revert\n    tag_143:\n      pop\n      gas\n      call\n      iszero\n      dup1\n      iszero\n      tag_145\n      jumpi\n      returndatasize\n      0x00\n      dup1\n      returndatacopy\n      revert(0x00, returndatasize)\n    tag_145:\n      pop\n      pop\n      pop\n      pop\n        /* \"contracts/base/EnglishAuction.sol\":3492:3717  if (buyAddress != address(0)){\r... */\n    tag_140:\n        /* \"contracts/base/EnglishAuction.sol\":3733:3738  End() */\n      0x06e649079f276fcfc97b1e5cbfbb65937dac6a51ee164e3190e707e27ff345fa\n      mload(0x40)\n      mload(0x40)\n      dup1\n      swap2\n      sub\n      swap1\n      log1\n        /* \"contracts/base/EnglishAuction.sol\":3207:3746  function end() external {\r... */\n      jump\t// out\n        /* \"contracts/base/EnglishAuction.sol\":1131:1153  uint public startPrice */\n    tag_85:\n      sload(0x02)\n      dup2\n      jump\t// out\n        /* \"#utility.yul\":7:146   */\n    tag_147:\n        /* \"#utility.yul\":53:58   */\n      0x00\n        /* \"#utility.yul\":91:97   */\n      dup2\n        /* \"#utility.yul\":78:98   */\n      calldataload\n        /* \"#utility.yul\":69:98   */\n      swap1\n      pop\n        /* \"#utility.yul\":107:140   */\n      tag_149\n        /* \"#utility.yul\":134:139   */\n      dup2\n        /* \"#utility.yul\":107:140   */\n      tag_150\n      jump\t// in\n    tag_149:\n        /* \"#utility.yul\":59:146   */\n      swap3\n      swap2\n      pop\n      pop\n      jump\t// out\n        /* \"#utility.yul\":152:414   */\n    tag_66:\n        /* \"#utility.yul\":211:217   */\n      0x00\n        /* \"#utility.yul\":260:262   */\n      0x20\n        /* \"#utility.yul\":248:257   */\n      dup3\n        /* \"#utility.yul\":239:246   */\n      dup5\n        /* \"#utility.yul\":235:258   */\n      sub\n        /* \"#utility.yul\":231:263   */\n      slt\n        /* \"#utility.yul\":228:230   */\n      iszero\n      tag_152\n      jumpi\n        /* \"#utility.yul\":276:277   */\n      0x00\n        /* \"#utility.yul\":273:274   */\n      dup1\n        /* \"#utility.yul\":266:278   */\n      revert\n        /* \"#utility.yul\":228:230   */\n    tag_152:\n        /* \"#utility.yul\":319:320   */\n      0x00\n        /* \"#utility.yul\":344:397   */\n      tag_153\n        /* \"#utility.yul\":389:396   */\n      dup5\n        /* \"#utility.yul\":380:386   */\n      dup3\n        /* \"#utility.yul\":369:378   */\n      dup6\n        /* \"#utility.yul\":365:387   */\n      add\n        /* \"#utility.yul\":344:397   */\n      tag_147\n      jump\t// in\n    tag_153:\n        /* \"#utility.yul\":334:397   */\n      swap2\n      pop\n        /* \"#utility.yul\":290:407   */\n      pop\n        /* \"#utility.yul\":218:414   */\n      swap3\n      swap2\n      pop\n      pop\n      jump\t// out\n        /* \"#utility.yul\":420:567   */\n    tag_154:\n        /* \"#utility.yul\":515:560   */\n      tag_156\n        /* \"#utility.yul\":554:559   */\n      dup2\n        /* \"#utility.yul\":515:560   */\n      tag_157\n      jump\t// in\n    tag_156:\n        /* \"#utility.yul\":510:513   */\n      dup3\n        /* \"#utility.yul\":503:561   */\n      mstore\n        /* \"#utility.yul\":493:567   */\n      pop\n      pop\n      jump\t// out\n        /* \"#utility.yul\":573:715   */\n    tag_158:\n        /* \"#utility.yul\":676:708   */\n      tag_160\n        /* \"#utility.yul\":702:707   */\n      dup2\n        /* \"#utility.yul\":676:708   */\n      tag_161\n      jump\t// in\n    tag_160:\n        /* \"#utility.yul\":671:674   */\n      dup3\n        /* \"#utility.yul\":664:709   */\n      mstore\n        /* \"#utility.yul\":654:715   */\n      pop\n      pop\n      jump\t// out\n        /* \"#utility.yul\":721:839   */\n    tag_162:\n        /* \"#utility.yul\":808:832   */\n      tag_164\n        /* \"#utility.yul\":826:831   */\n      dup2\n        /* \"#utility.yul\":808:832   */\n      tag_165\n      jump\t// in\n    tag_164:\n        /* \"#utility.yul\":803:806   */\n      dup3\n        /* \"#utility.yul\":796:833   */\n      mstore\n        /* \"#utility.yul\":786:839   */\n      pop\n      pop\n      jump\t// out\n        /* \"#utility.yul\":845:954   */\n    tag_166:\n        /* \"#utility.yul\":926:947   */\n      tag_168\n        /* \"#utility.yul\":941:946   */\n      dup2\n        /* \"#utility.yul\":926:947   */\n      tag_169\n      jump\t// in\n    tag_168:\n        /* \"#utility.yul\":921:924   */\n      dup3\n        /* \"#utility.yul\":914:948   */\n      mstore\n        /* \"#utility.yul\":904:954   */\n      pop\n      pop\n      jump\t// out\n        /* \"#utility.yul\":960:1119   */\n    tag_170:\n        /* \"#utility.yul\":1061:1112   */\n      tag_172\n        /* \"#utility.yul\":1106:1111   */\n      dup2\n        /* \"#utility.yul\":1061:1112   */\n      tag_173\n      jump\t// in\n    tag_172:\n        /* \"#utility.yul\":1056:1059   */\n      dup3\n        /* \"#utility.yul\":1049:1113   */\n      mstore\n        /* \"#utility.yul\":1039:1119   */\n      pop\n      pop\n      jump\t// out\n        /* \"#utility.yul\":1125:1491   */\n    tag_174:\n        /* \"#utility.yul\":1267:1270   */\n      0x00\n        /* \"#utility.yul\":1288:1355   */\n      tag_176\n        /* \"#utility.yul\":1352:1354   */\n      0x0e\n        /* \"#utility.yul\":1347:1350   */\n      dup4\n        /* \"#utility.yul\":1288:1355   */\n      tag_177\n      jump\t// in\n    tag_176:\n        /* \"#utility.yul\":1281:1355   */\n      swap2\n      pop\n        /* \"#utility.yul\":1364:1457   */\n      tag_178\n        /* \"#utility.yul\":1453:1456   */\n      dup3\n        /* \"#utility.yul\":1364:1457   */\n      tag_179\n      jump\t// in\n    tag_178:\n        /* \"#utility.yul\":1482:1484   */\n      0x20\n        /* \"#utility.yul\":1477:1480   */\n      dup3\n        /* \"#utility.yul\":1473:1485   */\n      add\n        /* \"#utility.yul\":1466:1485   */\n      swap1\n      pop\n        /* \"#utility.yul\":1271:1491   */\n      swap2\n      swap1\n      pop\n      jump\t// out\n        /* \"#utility.yul\":1497:1863   */\n    tag_180:\n        /* \"#utility.yul\":1639:1642   */\n      0x00\n        /* \"#utility.yul\":1660:1727   */\n      tag_182\n        /* \"#utility.yul\":1724:1726   */\n      0x1b\n        /* \"#utility.yul\":1719:1722   */\n      dup4\n        /* \"#utility.yul\":1660:1727   */\n      tag_177\n      jump\t// in\n    tag_182:\n        /* \"#utility.yul\":1653:1727   */\n      swap2\n      pop\n        /* \"#utility.yul\":1736:1829   */\n      tag_183\n        /* \"#utility.yul\":1825:1828   */\n      dup3\n        /* \"#utility.yul\":1736:1829   */\n      tag_184\n      jump\t// in\n    tag_183:\n        /* \"#utility.yul\":1854:1856   */\n      0x20\n        /* \"#utility.yul\":1849:1852   */\n      dup3\n        /* \"#utility.yul\":1845:1857   */\n      add\n        /* \"#utility.yul\":1838:1857   */\n      swap1\n      pop\n        /* \"#utility.yul\":1643:1863   */\n      swap2\n      swap1\n      pop\n      jump\t// out\n        /* \"#utility.yul\":1869:2235   */\n    tag_185:\n        /* \"#utility.yul\":2011:2014   */\n      0x00\n        /* \"#utility.yul\":2032:2099   */\n      tag_187\n        /* \"#utility.yul\":2096:2098   */\n      0x0c\n        /* \"#utility.yul\":2091:2094   */\n      dup4\n        /* \"#utility.yul\":2032:2099   */\n      tag_177\n      jump\t// in\n    tag_187:\n        /* \"#utility.yul\":2025:2099   */\n      swap2\n      pop\n        /* \"#utility.yul\":2108:2201   */\n      tag_188\n        /* \"#utility.yul\":2197:2200   */\n      dup3\n        /* \"#utility.yul\":2108:2201   */\n      tag_189\n      jump\t// in\n    tag_188:\n        /* \"#utility.yul\":2226:2228   */\n      0x20\n        /* \"#utility.yul\":2221:2224   */\n      dup3\n        /* \"#utility.yul\":2217:2229   */\n      add\n        /* \"#utility.yul\":2210:2229   */\n      swap1\n      pop\n        /* \"#utility.yul\":2015:2235   */\n      swap2\n      swap1\n      pop\n      jump\t// out\n        /* \"#utility.yul\":2241:2606   */\n    tag_190:\n        /* \"#utility.yul\":2383:2386   */\n      0x00\n        /* \"#utility.yul\":2404:2470   */\n      tag_192\n        /* \"#utility.yul\":2468:2469   */\n      0x08\n        /* \"#utility.yul\":2463:2466   */\n      dup4\n        /* \"#utility.yul\":2404:2470   */\n      tag_177\n      jump\t// in\n    tag_192:\n        /* \"#utility.yul\":2397:2470   */\n      swap2\n      pop\n        /* \"#utility.yul\":2479:2572   */\n      tag_193\n        /* \"#utility.yul\":2568:2571   */\n      dup3\n        /* \"#utility.yul\":2479:2572   */\n      tag_194\n      jump\t// in\n    tag_193:\n        /* \"#utility.yul\":2597:2599   */\n      0x20\n        /* \"#utility.yul\":2592:2595   */\n      dup3\n        /* \"#utility.yul\":2588:2600   */\n      add\n        /* \"#utility.yul\":2581:2600   */\n      swap1\n      pop\n        /* \"#utility.yul\":2387:2606   */\n      swap2\n      swap1\n      pop\n      jump\t// out\n        /* \"#utility.yul\":2612:2978   */\n    tag_195:\n        /* \"#utility.yul\":2754:2757   */\n      0x00\n        /* \"#utility.yul\":2775:2842   */\n      tag_197\n        /* \"#utility.yul\":2839:2841   */\n      0x15\n        /* \"#utility.yul\":2834:2837   */\n      dup4\n        /* \"#utility.yul\":2775:2842   */\n      tag_177\n      jump\t// in\n    tag_197:\n        /* \"#utility.yul\":2768:2842   */\n      swap2\n      pop\n        /* \"#utility.yul\":2851:2944   */\n      tag_198\n        /* \"#utility.yul\":2940:2943   */\n      dup3\n        /* \"#utility.yul\":2851:2944   */\n      tag_199\n      jump\t// in\n    tag_198:\n        /* \"#utility.yul\":2969:2971   */\n      0x20\n        /* \"#utility.yul\":2964:2967   */\n      dup3\n        /* \"#utility.yul\":2960:2972   */\n      add\n        /* \"#utility.yul\":2953:2972   */\n      swap1\n      pop\n        /* \"#utility.yul\":2758:2978   */\n      swap2\n      swap1\n      pop\n      jump\t// out\n        /* \"#utility.yul\":2984:3350   */\n    tag_200:\n        /* \"#utility.yul\":3126:3129   */\n      0x00\n        /* \"#utility.yul\":3147:3214   */\n      tag_202\n        /* \"#utility.yul\":3211:3213   */\n      0x1b\n        /* \"#utility.yul\":3206:3209   */\n      dup4\n        /* \"#utility.yul\":3147:3214   */\n      tag_177\n      jump\t// in\n    tag_202:\n        /* \"#utility.yul\":3140:3214   */\n      swap2\n      pop\n        /* \"#utility.yul\":3223:3316   */\n      tag_203\n        /* \"#utility.yul\":3312:3315   */\n      dup3\n        /* \"#utility.yul\":3223:3316   */\n      tag_204\n      jump\t// in\n    tag_203:\n        /* \"#utility.yul\":3341:3343   */\n      0x20\n        /* \"#utility.yul\":3336:3339   */\n      dup3\n        /* \"#utility.yul\":3332:3344   */\n      add\n        /* \"#utility.yul\":3325:3344   */\n      swap1\n      pop\n        /* \"#utility.yul\":3130:3350   */\n      swap2\n      swap1\n      pop\n      jump\t// out\n        /* \"#utility.yul\":3356:3722   */\n    tag_205:\n        /* \"#utility.yul\":3498:3501   */\n      0x00\n        /* \"#utility.yul\":3519:3586   */\n      tag_207\n        /* \"#utility.yul\":3583:3585   */\n      0x0f\n        /* \"#utility.yul\":3578:3581   */\n      dup4\n        /* \"#utility.yul\":3519:3586   */\n      tag_177\n      jump\t// in\n    tag_207:\n        /* \"#utility.yul\":3512:3586   */\n      swap2\n      pop\n        /* \"#utility.yul\":3595:3688   */\n      tag_208\n        /* \"#utility.yul\":3684:3687   */\n      dup3\n        /* \"#utility.yul\":3595:3688   */\n      tag_209\n      jump\t// in\n    tag_208:\n        /* \"#utility.yul\":3713:3715   */\n      0x20\n        /* \"#utility.yul\":3708:3711   */\n      dup3\n        /* \"#utility.yul\":3704:3716   */\n      add\n        /* \"#utility.yul\":3697:3716   */\n      swap1\n      pop\n        /* \"#utility.yul\":3502:3722   */\n      swap2\n      swap1\n      pop\n      jump\t// out\n        /* \"#utility.yul\":3728:3846   */\n    tag_210:\n        /* \"#utility.yul\":3815:3839   */\n      tag_212\n        /* \"#utility.yul\":3833:3838   */\n      dup2\n        /* \"#utility.yul\":3815:3839   */\n      tag_213\n      jump\t// in\n    tag_212:\n        /* \"#utility.yul\":3810:3813   */\n      dup3\n        /* \"#utility.yul\":3803:3840   */\n      mstore\n        /* \"#utility.yul\":3793:3846   */\n      pop\n      pop\n      jump\t// out\n        /* \"#utility.yul\":3852:4074   */\n    tag_25:\n        /* \"#utility.yul\":3945:3949   */\n      0x00\n        /* \"#utility.yul\":3983:3985   */\n      0x20\n        /* \"#utility.yul\":3972:3981   */\n      dup3\n        /* \"#utility.yul\":3968:3986   */\n      add\n        /* \"#utility.yul\":3960:3986   */\n      swap1\n      pop\n        /* \"#utility.yul\":3996:4067   */\n      tag_215\n        /* \"#utility.yul\":4064:4065   */\n      0x00\n        /* \"#utility.yul\":4053:4062   */\n      dup4\n        /* \"#utility.yul\":4049:4066   */\n      add\n        /* \"#utility.yul\":4040:4046   */\n      dup5\n        /* \"#utility.yul\":3996:4067   */\n      tag_162\n      jump\t// in\n    tag_215:\n        /* \"#utility.yul\":3950:4074   */\n      swap3\n      swap2\n      pop\n      pop\n      jump\t// out\n        /* \"#utility.yul\":4080:4334   */\n    tag_30:\n        /* \"#utility.yul\":4189:4193   */\n      0x00\n        /* \"#utility.yul\":4227:4229   */\n      0x20\n        /* \"#utility.yul\":4216:4225   */\n      dup3\n        /* \"#utility.yul\":4212:4230   */\n      add\n        /* \"#utility.yul\":4204:4230   */\n      swap1\n      pop\n        /* \"#utility.yul\":4240:4327   */\n      tag_217\n        /* \"#utility.yul\":4324:4325   */\n      0x00\n        /* \"#utility.yul\":4313:4322   */\n      dup4\n        /* \"#utility.yul\":4309:4326   */\n      add\n        /* \"#utility.yul\":4300:4306   */\n      dup5\n        /* \"#utility.yul\":4240:4327   */\n      tag_158\n      jump\t// in\n    tag_217:\n        /* \"#utility.yul\":4194:4334   */\n      swap3\n      swap2\n      pop\n      pop\n      jump\t// out\n        /* \"#utility.yul\":4340:4798   */\n    tag_117:\n        /* \"#utility.yul\":4497:4501   */\n      0x00\n        /* \"#utility.yul\":4535:4537   */\n      0x60\n        /* \"#utility.yul\":4524:4533   */\n      dup3\n        /* \"#utility.yul\":4520:4538   */\n      add\n        /* \"#utility.yul\":4512:4538   */\n      swap1\n      pop\n        /* \"#utility.yul\":4548:4627   */\n      tag_219\n        /* \"#utility.yul\":4624:4625   */\n      0x00\n        /* \"#utility.yul\":4613:4622   */\n      dup4\n        /* \"#utility.yul\":4609:4626   */\n      add\n        /* \"#utility.yul\":4600:4606   */\n      dup7\n        /* \"#utility.yul\":4548:4627   */\n      tag_154\n      jump\t// in\n    tag_219:\n        /* \"#utility.yul\":4637:4709   */\n      tag_220\n        /* \"#utility.yul\":4705:4707   */\n      0x20\n        /* \"#utility.yul\":4694:4703   */\n      dup4\n        /* \"#utility.yul\":4690:4708   */\n      add\n        /* \"#utility.yul\":4681:4687   */\n      dup6\n        /* \"#utility.yul\":4637:4709   */\n      tag_162\n      jump\t// in\n    tag_220:\n        /* \"#utility.yul\":4719:4791   */\n      tag_221\n        /* \"#utility.yul\":4787:4789   */\n      0x40\n        /* \"#utility.yul\":4776:4785   */\n      dup4\n        /* \"#utility.yul\":4772:4790   */\n      add\n        /* \"#utility.yul\":4763:4769   */\n      dup5\n        /* \"#utility.yul\":4719:4791   */\n      tag_210\n      jump\t// in\n    tag_221:\n        /* \"#utility.yul\":4502:4798   */\n      swap5\n      swap4\n      pop\n      pop\n      pop\n      pop\n      jump\t// out\n        /* \"#utility.yul\":4804:5262   */\n    tag_142:\n        /* \"#utility.yul\":4961:4965   */\n      0x00\n        /* \"#utility.yul\":4999:5001   */\n      0x60\n        /* \"#utility.yul\":4988:4997   */\n      dup3\n        /* \"#utility.yul\":4984:5002   */\n      add\n        /* \"#utility.yul\":4976:5002   */\n      swap1\n      pop\n        /* \"#utility.yul\":5012:5083   */\n      tag_223\n        /* \"#utility.yul\":5080:5081   */\n      0x00\n        /* \"#utility.yul\":5069:5078   */\n      dup4\n        /* \"#utility.yul\":5065:5082   */\n      add\n        /* \"#utility.yul\":5056:5062   */\n      dup7\n        /* \"#utility.yul\":5012:5083   */\n      tag_162\n      jump\t// in\n    tag_223:\n        /* \"#utility.yul\":5093:5173   */\n      tag_224\n        /* \"#utility.yul\":5169:5171   */\n      0x20\n        /* \"#utility.yul\":5158:5167   */\n      dup4\n        /* \"#utility.yul\":5154:5172   */\n      add\n        /* \"#utility.yul\":5145:5151   */\n      dup6\n        /* \"#utility.yul\":5093:5173   */\n      tag_154\n      jump\t// in\n    tag_224:\n        /* \"#utility.yul\":5183:5255   */\n      tag_225\n        /* \"#utility.yul\":5251:5253   */\n      0x40\n        /* \"#utility.yul\":5240:5249   */\n      dup4\n        /* \"#utility.yul\":5236:5254   */\n      add\n        /* \"#utility.yul\":5227:5233   */\n      dup5\n        /* \"#utility.yul\":5183:5255   */\n      tag_210\n      jump\t// in\n    tag_225:\n        /* \"#utility.yul\":4966:5262   */\n      swap5\n      swap4\n      pop\n      pop\n      pop\n      pop\n      jump\t// out\n        /* \"#utility.yul\":5268:5710   */\n    tag_136:\n        /* \"#utility.yul\":5417:5421   */\n      0x00\n        /* \"#utility.yul\":5455:5457   */\n      0x60\n        /* \"#utility.yul\":5444:5453   */\n      dup3\n        /* \"#utility.yul\":5440:5458   */\n      add\n        /* \"#utility.yul\":5432:5458   */\n      swap1\n      pop\n        /* \"#utility.yul\":5468:5539   */\n      tag_227\n        /* \"#utility.yul\":5536:5537   */\n      0x00\n        /* \"#utility.yul\":5525:5534   */\n      dup4\n        /* \"#utility.yul\":5521:5538   */\n      add\n        /* \"#utility.yul\":5512:5518   */\n      dup7\n        /* \"#utility.yul\":5468:5539   */\n      tag_162\n      jump\t// in\n    tag_227:\n        /* \"#utility.yul\":5549:5621   */\n      tag_228\n        /* \"#utility.yul\":5617:5619   */\n      0x20\n        /* \"#utility.yul\":5606:5615   */\n      dup4\n        /* \"#utility.yul\":5602:5620   */\n      add\n        /* \"#utility.yul\":5593:5599   */\n      dup6\n        /* \"#utility.yul\":5549:5621   */\n      tag_162\n      jump\t// in\n    tag_228:\n        /* \"#utility.yul\":5631:5703   */\n      tag_229\n        /* \"#utility.yul\":5699:5701   */\n      0x40\n        /* \"#utility.yul\":5688:5697   */\n      dup4\n        /* \"#utility.yul\":5684:5702   */\n      add\n        /* \"#utility.yul\":5675:5681   */\n      dup5\n        /* \"#utility.yul\":5631:5703   */\n      tag_210\n      jump\t// in\n    tag_229:\n        /* \"#utility.yul\":5422:5710   */\n      swap5\n      swap4\n      pop\n      pop\n      pop\n      pop\n      jump\t// out\n        /* \"#utility.yul\":5716:6269   */\n    tag_122:\n        /* \"#utility.yul\":5893:5897   */\n      0x00\n        /* \"#utility.yul\":5931:5934   */\n      0x80\n        /* \"#utility.yul\":5920:5929   */\n      dup3\n        /* \"#utility.yul\":5916:5935   */\n      add\n        /* \"#utility.yul\":5908:5935   */\n      swap1\n      pop\n        /* \"#utility.yul\":5945:6016   */\n      tag_231\n        /* \"#utility.yul\":6013:6014   */\n      0x00\n        /* \"#utility.yul\":6002:6011   */\n      dup4\n        /* \"#utility.yul\":5998:6015   */\n      add\n        /* \"#utility.yul\":5989:5995   */\n      dup8\n        /* \"#utility.yul\":5945:6016   */\n      tag_162\n      jump\t// in\n    tag_231:\n        /* \"#utility.yul\":6026:6098   */\n      tag_232\n        /* \"#utility.yul\":6094:6096   */\n      0x20\n        /* \"#utility.yul\":6083:6092   */\n      dup4\n        /* \"#utility.yul\":6079:6097   */\n      add\n        /* \"#utility.yul\":6070:6076   */\n      dup7\n        /* \"#utility.yul\":6026:6098   */\n      tag_210\n      jump\t// in\n    tag_232:\n        /* \"#utility.yul\":6108:6180   */\n      tag_233\n        /* \"#utility.yul\":6176:6178   */\n      0x40\n        /* \"#utility.yul\":6165:6174   */\n      dup4\n        /* \"#utility.yul\":6161:6179   */\n      add\n        /* \"#utility.yul\":6152:6158   */\n      dup6\n        /* \"#utility.yul\":6108:6180   */\n      tag_210\n      jump\t// in\n    tag_233:\n        /* \"#utility.yul\":6190:6262   */\n      tag_234\n        /* \"#utility.yul\":6258:6260   */\n      0x60\n        /* \"#utility.yul\":6247:6256   */\n      dup4\n        /* \"#utility.yul\":6243:6261   */\n      add\n        /* \"#utility.yul\":6234:6240   */\n      dup5\n        /* \"#utility.yul\":6190:6262   */\n      tag_210\n      jump\t// in\n    tag_234:\n        /* \"#utility.yul\":5898:6269   */\n      swap6\n      swap5\n      pop\n      pop\n      pop\n      pop\n      pop\n      jump\t// out\n        /* \"#utility.yul\":6275:6485   */\n    tag_58:\n        /* \"#utility.yul\":6362:6366   */\n      0x00\n        /* \"#utility.yul\":6400:6402   */\n      0x20\n        /* \"#utility.yul\":6389:6398   */\n      dup3\n        /* \"#utility.yul\":6385:6403   */\n      add\n        /* \"#utility.yul\":6377:6403   */\n      swap1\n      pop\n        /* \"#utility.yul\":6413:6478   */\n      tag_236\n        /* \"#utility.yul\":6475:6476   */\n      0x00\n        /* \"#utility.yul\":6464:6473   */\n      dup4\n        /* \"#utility.yul\":6460:6477   */\n      add\n        /* \"#utility.yul\":6451:6457   */\n      dup5\n        /* \"#utility.yul\":6413:6478   */\n      tag_166\n      jump\t// in\n    tag_236:\n        /* \"#utility.yul\":6367:6485   */\n      swap3\n      swap2\n      pop\n      pop\n      jump\t// out\n        /* \"#utility.yul\":6491:6741   */\n    tag_49:\n        /* \"#utility.yul\":6598:6602   */\n      0x00\n        /* \"#utility.yul\":6636:6638   */\n      0x20\n        /* \"#utility.yul\":6625:6634   */\n      dup3\n        /* \"#utility.yul\":6621:6639   */\n      add\n        /* \"#utility.yul\":6613:6639   */\n      swap1\n      pop\n        /* \"#utility.yul\":6649:6734   */\n      tag_238\n        /* \"#utility.yul\":6731:6732   */\n      0x00\n        /* \"#utility.yul\":6720:6729   */\n      dup4\n        /* \"#utility.yul\":6716:6733   */\n      add\n        /* \"#utility.yul\":6707:6713   */\n      dup5\n        /* \"#utility.yul\":6649:6734   */\n      tag_170\n      jump\t// in\n    tag_238:\n        /* \"#utility.yul\":6603:6741   */\n      swap3\n      swap2\n      pop\n      pop\n      jump\t// out\n        /* \"#utility.yul\":6747:7166   */\n    tag_112:\n        /* \"#utility.yul\":6913:6917   */\n      0x00\n        /* \"#utility.yul\":6951:6953   */\n      0x20\n        /* \"#utility.yul\":6940:6949   */\n      dup3\n        /* \"#utility.yul\":6936:6954   */\n      add\n        /* \"#utility.yul\":6928:6954   */\n      swap1\n      pop\n        /* \"#utility.yul\":7000:7009   */\n      dup2\n        /* \"#utility.yul\":6994:6998   */\n      dup2\n        /* \"#utility.yul\":6990:7010   */\n      sub\n        /* \"#utility.yul\":6986:6987   */\n      0x00\n        /* \"#utility.yul\":6975:6984   */\n      dup4\n        /* \"#utility.yul\":6971:6988   */\n      add\n        /* \"#utility.yul\":6964:7011   */\n      mstore\n        /* \"#utility.yul\":7028:7159   */\n      tag_240\n        /* \"#utility.yul\":7154:7158   */\n      dup2\n        /* \"#utility.yul\":7028:7159   */\n      tag_174\n      jump\t// in\n    tag_240:\n        /* \"#utility.yul\":7020:7159   */\n      swap1\n      pop\n        /* \"#utility.yul\":6918:7166   */\n      swap2\n      swap1\n      pop\n      jump\t// out\n        /* \"#utility.yul\":7172:7591   */\n    tag_94:\n        /* \"#utility.yul\":7338:7342   */\n      0x00\n        /* \"#utility.yul\":7376:7378   */\n      0x20\n        /* \"#utility.yul\":7365:7374   */\n      dup3\n        /* \"#utility.yul\":7361:7379   */\n      add\n        /* \"#utility.yul\":7353:7379   */\n      swap1\n      pop\n        /* \"#utility.yul\":7425:7434   */\n      dup2\n        /* \"#utility.yul\":7419:7423   */\n      dup2\n        /* \"#utility.yul\":7415:7435   */\n      sub\n        /* \"#utility.yul\":7411:7412   */\n      0x00\n        /* \"#utility.yul\":7400:7409   */\n      dup4\n        /* \"#utility.yul\":7396:7413   */\n      add\n        /* \"#utility.yul\":7389:7436   */\n      mstore\n        /* \"#utility.yul\":7453:7584   */\n      tag_242\n        /* \"#utility.yul\":7579:7583   */\n      dup2\n        /* \"#utility.yul\":7453:7584   */\n      tag_180\n      jump\t// in\n    tag_242:\n        /* \"#utility.yul\":7445:7584   */\n      swap1\n      pop\n        /* \"#utility.yul\":7343:7591   */\n      swap2\n      swap1\n      pop\n      jump\t// out\n        /* \"#utility.yul\":7597:8016   */\n    tag_90:\n        /* \"#utility.yul\":7763:7767   */\n      0x00\n        /* \"#utility.yul\":7801:7803   */\n      0x20\n        /* \"#utility.yul\":7790:7799   */\n      dup3\n        /* \"#utility.yul\":7786:7804   */\n      add\n        /* \"#utility.yul\":7778:7804   */\n      swap1\n      pop\n        /* \"#utility.yul\":7850:7859   */\n      dup2\n        /* \"#utility.yul\":7844:7848   */\n      dup2\n        /* \"#utility.yul\":7840:7860   */\n      sub\n        /* \"#utility.yul\":7836:7837   */\n      0x00\n        /* \"#utility.yul\":7825:7834   */\n      dup4\n        /* \"#utility.yul\":7821:7838   */\n      add\n        /* \"#utility.yul\":7814:7861   */\n      mstore\n        /* \"#utility.yul\":7878:8009   */\n      tag_244\n        /* \"#utility.yul\":8004:8008   */\n      dup2\n        /* \"#utility.yul\":7878:8009   */\n      tag_185\n      jump\t// in\n    tag_244:\n        /* \"#utility.yul\":7870:8009   */\n      swap1\n      pop\n        /* \"#utility.yul\":7768:8016   */\n      swap2\n      swap1\n      pop\n      jump\t// out\n        /* \"#utility.yul\":8022:8441   */\n    tag_105:\n        /* \"#utility.yul\":8188:8192   */\n      0x00\n        /* \"#utility.yul\":8226:8228   */\n      0x20\n        /* \"#utility.yul\":8215:8224   */\n      dup3\n        /* \"#utility.yul\":8211:8229   */\n      add\n        /* \"#utility.yul\":8203:8229   */\n      swap1\n      pop\n        /* \"#utility.yul\":8275:8284   */\n      dup2\n        /* \"#utility.yul\":8269:8273   */\n      dup2\n        /* \"#utility.yul\":8265:8285   */\n      sub\n        /* \"#utility.yul\":8261:8262   */\n      0x00\n        /* \"#utility.yul\":8250:8259   */\n      dup4\n        /* \"#utility.yul\":8246:8263   */\n      add\n        /* \"#utility.yul\":8239:8286   */\n      mstore\n        /* \"#utility.yul\":8303:8434   */\n      tag_246\n        /* \"#utility.yul\":8429:8433   */\n      dup2\n        /* \"#utility.yul\":8303:8434   */\n      tag_190\n      jump\t// in\n    tag_246:\n        /* \"#utility.yul\":8295:8434   */\n      swap1\n      pop\n        /* \"#utility.yul\":8193:8441   */\n      swap2\n      swap1\n      pop\n      jump\t// out\n        /* \"#utility.yul\":8447:8866   */\n    tag_126:\n        /* \"#utility.yul\":8613:8617   */\n      0x00\n        /* \"#utility.yul\":8651:8653   */\n      0x20\n        /* \"#utility.yul\":8640:8649   */\n      dup3\n        /* \"#utility.yul\":8636:8654   */\n      add\n        /* \"#utility.yul\":8628:8654   */\n      swap1\n      pop\n        /* \"#utility.yul\":8700:8709   */\n      dup2\n        /* \"#utility.yul\":8694:8698   */\n      dup2\n        /* \"#utility.yul\":8690:8710   */\n      sub\n        /* \"#utility.yul\":8686:8687   */\n      0x00\n        /* \"#utility.yul\":8675:8684   */\n      dup4\n        /* \"#utility.yul\":8671:8688   */\n      add\n        /* \"#utility.yul\":8664:8711   */\n      mstore\n        /* \"#utility.yul\":8728:8859   */\n      tag_248\n        /* \"#utility.yul\":8854:8858   */\n      dup2\n        /* \"#utility.yul\":8728:8859   */\n      tag_195\n      jump\t// in\n    tag_248:\n        /* \"#utility.yul\":8720:8859   */\n      swap1\n      pop\n        /* \"#utility.yul\":8618:8866   */\n      swap2\n      swap1\n      pop\n      jump\t// out\n        /* \"#utility.yul\":8872:9291   */\n    tag_131:\n        /* \"#utility.yul\":9038:9042   */\n      0x00\n        /* \"#utility.yul\":9076:9078   */\n      0x20\n        /* \"#utility.yul\":9065:9074   */\n      dup3\n        /* \"#utility.yul\":9061:9079   */\n      add\n        /* \"#utility.yul\":9053:9079   */\n      swap1\n      pop\n        /* \"#utility.yul\":9125:9134   */\n      dup2\n        /* \"#utility.yul\":9119:9123   */\n      dup2\n        /* \"#utility.yul\":9115:9135   */\n      sub\n        /* \"#utility.yul\":9111:9112   */\n      0x00\n        /* \"#utility.yul\":9100:9109   */\n      dup4\n        /* \"#utility.yul\":9096:9113   */\n      add\n        /* \"#utility.yul\":9089:9136   */\n      mstore\n        /* \"#utility.yul\":9153:9284   */\n      tag_250\n        /* \"#utility.yul\":9279:9283   */\n      dup2\n        /* \"#utility.yul\":9153:9284   */\n      tag_200\n      jump\t// in\n    tag_250:\n        /* \"#utility.yul\":9145:9284   */\n      swap1\n      pop\n        /* \"#utility.yul\":9043:9291   */\n      swap2\n      swap1\n      pop\n      jump\t// out\n        /* \"#utility.yul\":9297:9716   */\n    tag_97:\n        /* \"#utility.yul\":9463:9467   */\n      0x00\n        /* \"#utility.yul\":9501:9503   */\n      0x20\n        /* \"#utility.yul\":9490:9499   */\n      dup3\n        /* \"#utility.yul\":9486:9504   */\n      add\n        /* \"#utility.yul\":9478:9504   */\n      swap1\n      pop\n        /* \"#utility.yul\":9550:9559   */\n      dup2\n        /* \"#utility.yul\":9544:9548   */\n      dup2\n        /* \"#utility.yul\":9540:9560   */\n      sub\n        /* \"#utility.yul\":9536:9537   */\n      0x00\n        /* \"#utility.yul\":9525:9534   */\n      dup4\n        /* \"#utility.yul\":9521:9538   */\n      add\n        /* \"#utility.yul\":9514:9561   */\n      mstore\n        /* \"#utility.yul\":9578:9709   */\n      tag_252\n        /* \"#utility.yul\":9704:9708   */\n      dup2\n        /* \"#utility.yul\":9578:9709   */\n      tag_205\n      jump\t// in\n    tag_252:\n        /* \"#utility.yul\":9570:9709   */\n      swap1\n      pop\n        /* \"#utility.yul\":9468:9716   */\n      swap2\n      swap1\n      pop\n      jump\t// out\n        /* \"#utility.yul\":9722:9944   */\n    tag_35:\n        /* \"#utility.yul\":9815:9819   */\n      0x00\n        /* \"#utility.yul\":9853:9855   */\n      0x20\n        /* \"#utility.yul\":9842:9851   */\n      dup3\n        /* \"#utility.yul\":9838:9856   */\n      add\n        /* \"#utility.yul\":9830:9856   */\n      swap1\n      pop\n        /* \"#utility.yul\":9866:9937   */\n      tag_254\n        /* \"#utility.yul\":9934:9935   */\n      0x00\n        /* \"#utility.yul\":9923:9932   */\n      dup4\n        /* \"#utility.yul\":9919:9936   */\n      add\n        /* \"#utility.yul\":9910:9916   */\n      dup5\n        /* \"#utility.yul\":9866:9937   */\n      tag_210\n      jump\t// in\n    tag_254:\n        /* \"#utility.yul\":9820:9944   */\n      swap3\n      swap2\n      pop\n      pop\n      jump\t// out\n        /* \"#utility.yul\":9950:10282   */\n    tag_101:\n        /* \"#utility.yul\":10071:10075   */\n      0x00\n        /* \"#utility.yul\":10109:10111   */\n      0x40\n        /* \"#utility.yul\":10098:10107   */\n      dup3\n        /* \"#utility.yul\":10094:10112   */\n      add\n        /* \"#utility.yul\":10086:10112   */\n      swap1\n      pop\n        /* \"#utility.yul\":10122:10193   */\n      tag_256\n        /* \"#utility.yul\":10190:10191   */\n      0x00\n        /* \"#utility.yul\":10179:10188   */\n      dup4\n        /* \"#utility.yul\":10175:10192   */\n      add\n        /* \"#utility.yul\":10166:10172   */\n      dup6\n        /* \"#utility.yul\":10122:10193   */\n      tag_210\n      jump\t// in\n    tag_256:\n        /* \"#utility.yul\":10203:10275   */\n      tag_257\n        /* \"#utility.yul\":10271:10273   */\n      0x20\n        /* \"#utility.yul\":10260:10269   */\n      dup4\n        /* \"#utility.yul\":10256:10274   */\n      add\n        /* \"#utility.yul\":10247:10253   */\n      dup5\n        /* \"#utility.yul\":10203:10275   */\n      tag_210\n      jump\t// in\n    tag_257:\n        /* \"#utility.yul\":10076:10282   */\n      swap4\n      swap3\n      pop\n      pop\n      pop\n      jump\t// out\n        /* \"#utility.yul\":10288:10457   */\n    tag_177:\n        /* \"#utility.yul\":10372:10383   */\n      0x00\n        /* \"#utility.yul\":10406:10412   */\n      dup3\n        /* \"#utility.yul\":10401:10404   */\n      dup3\n        /* \"#utility.yul\":10394:10413   */\n      mstore\n        /* \"#utility.yul\":10446:10450   */\n      0x20\n        /* \"#utility.yul\":10441:10444   */\n      dup3\n        /* \"#utility.yul\":10437:10451   */\n      add\n        /* \"#utility.yul\":10422:10451   */\n      swap1\n      pop\n        /* \"#utility.yul\":10384:10457   */\n      swap3\n      swap2\n      pop\n      pop\n      jump\t// out\n        /* \"#utility.yul\":10463:10768   */\n    tag_99:\n        /* \"#utility.yul\":10503:10506   */\n      0x00\n        /* \"#utility.yul\":10522:10542   */\n      tag_260\n        /* \"#utility.yul\":10540:10541   */\n      dup3\n        /* \"#utility.yul\":10522:10542   */\n      tag_213\n      jump\t// in\n    tag_260:\n        /* \"#utility.yul\":10517:10542   */\n      swap2\n      pop\n        /* \"#utility.yul\":10556:10576   */\n      tag_261\n        /* \"#utility.yul\":10574:10575   */\n      dup4\n        /* \"#utility.yul\":10556:10576   */\n      tag_213\n      jump\t// in\n    tag_261:\n        /* \"#utility.yul\":10551:10576   */\n      swap3\n      pop\n        /* \"#utility.yul\":10710:10711   */\n      dup3\n        /* \"#utility.yul\":10642:10708   */\n      0xffffffffffffffffffffffffffffffffffffffffffffffffffffffffffffffff\n        /* \"#utility.yul\":10638:10712   */\n      sub\n        /* \"#utility.yul\":10635:10636   */\n      dup3\n        /* \"#utility.yul\":10632:10713   */\n      gt\n        /* \"#utility.yul\":10629:10631   */\n      iszero\n      tag_262\n      jumpi\n        /* \"#utility.yul\":10716:10734   */\n      tag_263\n      tag_264\n      jump\t// in\n    tag_263:\n        /* \"#utility.yul\":10629:10631   */\n    tag_262:\n        /* \"#utility.yul\":10760:10761   */\n      dup3\n        /* \"#utility.yul\":10757:10758   */\n      dup3\n        /* \"#utility.yul\":10753:10762   */\n      add\n        /* \"#utility.yul\":10746:10762   */\n      swap1\n      pop\n        /* \"#utility.yul\":10507:10768   */\n      swap3\n      swap2\n      pop\n      pop\n      jump\t// out\n        /* \"#utility.yul\":10774:10870   */\n    tag_165:\n        /* \"#utility.yul\":10811:10818   */\n      0x00\n        /* \"#utility.yul\":10840:10864   */\n      tag_266\n        /* \"#utility.yul\":10858:10863   */\n      dup3\n        /* \"#utility.yul\":10840:10864   */\n      tag_267\n      jump\t// in\n    tag_266:\n        /* \"#utility.yul\":10829:10864   */\n      swap1\n      pop\n        /* \"#utility.yul\":10819:10870   */\n      swap2\n      swap1\n      pop\n      jump\t// out\n        /* \"#utility.yul\":10876:10980   */\n    tag_161:\n        /* \"#utility.yul\":10921:10928   */\n      0x00\n        /* \"#utility.yul\":10950:10974   */\n      tag_269\n        /* \"#utility.yul\":10968:10973   */\n      dup3\n        /* \"#utility.yul\":10950:10974   */\n      tag_267\n      jump\t// in\n    tag_269:\n        /* \"#utility.yul\":10939:10974   */\n      swap1\n      pop\n        /* \"#utility.yul\":10929:10980   */\n      swap2\n      swap1\n      pop\n      jump\t// out\n        /* \"#utility.yul\":10986:11076   */\n    tag_169:\n        /* \"#utility.yul\":11020:11027   */\n      0x00\n        /* \"#utility.yul\":11063:11068   */\n      dup2\n        /* \"#utility.yul\":11056:11069   */\n      iszero\n        /* \"#utility.yul\":11049:11070   */\n      iszero\n        /* \"#utility.yul\":11038:11070   */\n      swap1\n      pop\n        /* \"#utility.yul\":11028:11076   */\n      swap2\n      swap1\n      pop\n      jump\t// out\n        /* \"#utility.yul\":11082:11208   */\n    tag_267:\n        /* \"#utility.yul\":11119:11126   */\n      0x00\n        /* \"#utility.yul\":11159:11201   */\n      0xffffffffffffffffffffffffffffffffffffffff\n        /* \"#utility.yul\":11152:11157   */\n      dup3\n        /* \"#utility.yul\":11148:11202   */\n      and\n        /* \"#utility.yul\":11137:11202   */\n      swap1\n      pop\n        /* \"#utility.yul\":11127:11208   */\n      swap2\n      swap1\n      pop\n      jump\t// out\n        /* \"#utility.yul\":11214:11291   */\n    tag_213:\n        /* \"#utility.yul\":11251:11258   */\n      0x00\n        /* \"#utility.yul\":11280:11285   */\n      dup2\n        /* \"#utility.yul\":11269:11285   */\n      swap1\n      pop\n        /* \"#utility.yul\":11259:11291   */\n      swap2\n      swap1\n      pop\n      jump\t// out\n        /* \"#utility.yul\":11297:11431   */\n    tag_157:\n        /* \"#utility.yul\":11355:11364   */\n      0x00\n        /* \"#utility.yul\":11388:11425   */\n      tag_274\n        /* \"#utility.yul\":11419:11424   */\n      dup3\n        /* \"#utility.yul\":11388:11425   */\n      tag_275\n      jump\t// in\n    tag_274:\n        /* \"#utility.yul\":11375:11425   */\n      swap1\n      pop\n        /* \"#utility.yul\":11365:11431   */\n      swap2\n      swap1\n      pop\n      jump\t// out\n        /* \"#utility.yul\":11437:11591   */\n    tag_173:\n        /* \"#utility.yul\":11501:11510   */\n      0x00\n        /* \"#utility.yul\":11534:11585   */\n      tag_277\n        /* \"#utility.yul\":11579:11584   */\n      dup3\n        /* \"#utility.yul\":11534:11585   */\n      tag_278\n      jump\t// in\n    tag_277:\n        /* \"#utility.yul\":11521:11585   */\n      swap1\n      pop\n        /* \"#utility.yul\":11511:11591   */\n      swap2\n      swap1\n      pop\n      jump\t// out\n        /* \"#utility.yul\":11597:11724   */\n    tag_278:\n        /* \"#utility.yul\":11661:11670   */\n      0x00\n        /* \"#utility.yul\":11694:11718   */\n      tag_280\n        /* \"#utility.yul\":11712:11717   */\n      dup3\n        /* \"#utility.yul\":11694:11718   */\n      tag_267\n      jump\t// in\n    tag_280:\n        /* \"#utility.yul\":11681:11718   */\n      swap1\n      pop\n        /* \"#utility.yul\":11671:11724   */\n      swap2\n      swap1\n      pop\n      jump\t// out\n        /* \"#utility.yul\":11730:11856   */\n    tag_275:\n        /* \"#utility.yul\":11780:11789   */\n      0x00\n        /* \"#utility.yul\":11813:11850   */\n      tag_282\n        /* \"#utility.yul\":11844:11849   */\n      dup3\n        /* \"#utility.yul\":11813:11850   */\n      tag_283\n      jump\t// in\n    tag_282:\n        /* \"#utility.yul\":11800:11850   */\n      swap1\n      pop\n        /* \"#utility.yul\":11790:11856   */\n      swap2\n      swap1\n      pop\n      jump\t// out\n        /* \"#utility.yul\":11862:11975   */\n    tag_283:\n        /* \"#utility.yul\":11912:11921   */\n      0x00\n        /* \"#utility.yul\":11945:11969   */\n      tag_285\n        /* \"#utility.yul\":11963:11968   */\n      dup3\n        /* \"#utility.yul\":11945:11969   */\n      tag_267\n      jump\t// in\n    tag_285:\n        /* \"#utility.yul\":11932:11969   */\n      swap1\n      pop\n        /* \"#utility.yul\":11922:11975   */\n      swap2\n      swap1\n      pop\n      jump\t// out\n        /* \"#utility.yul\":11981:12161   */\n    tag_264:\n        /* \"#utility.yul\":12029:12106   */\n      0x4e487b7100000000000000000000000000000000000000000000000000000000\n        /* \"#utility.yul\":12026:12027   */\n      0x00\n        /* \"#utility.yul\":12019:12107   */\n      mstore\n        /* \"#utility.yul\":12126:12130   */\n      0x11\n        /* \"#utility.yul\":12123:12124   */\n      0x04\n        /* \"#utility.yul\":12116:12131   */\n      mstore\n        /* \"#utility.yul\":12150:12154   */\n      0x24\n        /* \"#utility.yul\":12147:12148   */\n      0x00\n        /* \"#utility.yul\":12140:12155   */\n      revert\n        /* \"#utility.yul\":12167:12331   */\n    tag_179:\n        /* \"#utility.yul\":12307:12323   */\n      0x4d7573742062652073656c6c6572000000000000000000000000000000000000\n        /* \"#utility.yul\":12303:12304   */\n      0x00\n        /* \"#utility.yul\":12295:12301   */\n      dup3\n        /* \"#utility.yul\":12291:12305   */\n      add\n        /* \"#utility.yul\":12284:12324   */\n      mstore\n        /* \"#utility.yul\":12273:12331   */\n      pop\n      jump\t// out\n        /* \"#utility.yul\":12337:12514   */\n    tag_184:\n        /* \"#utility.yul\":12477:12506   */\n      0x4e6f7420616c6c6f77656420746f2062696420616e796d6f7265210000000000\n        /* \"#utility.yul\":12473:12474   */\n      0x00\n        /* \"#utility.yul\":12465:12471   */\n      dup3\n        /* \"#utility.yul\":12461:12475   */\n      add\n        /* \"#utility.yul\":12454:12507   */\n      mstore\n        /* \"#utility.yul\":12443:12514   */\n      pop\n      jump\t// out\n        /* \"#utility.yul\":12520:12682   */\n    tag_189:\n        /* \"#utility.yul\":12660:12674   */\n      0x4469646e27742073746172740000000000000000000000000000000000000000\n        /* \"#utility.yul\":12656:12657   */\n      0x00\n        /* \"#utility.yul\":12648:12654   */\n      dup3\n        /* \"#utility.yul\":12644:12658   */\n      add\n        /* \"#utility.yul\":12637:12675   */\n      mstore\n        /* \"#utility.yul\":12626:12682   */\n      pop\n      jump\t// out\n        /* \"#utility.yul\":12688:12846   */\n    tag_194:\n        /* \"#utility.yul\":12828:12838   */\n      0x7374617274696e67000000000000000000000000000000000000000000000000\n        /* \"#utility.yul\":12824:12825   */\n      0x00\n        /* \"#utility.yul\":12816:12822   */\n      dup3\n        /* \"#utility.yul\":12812:12826   */\n      add\n        /* \"#utility.yul\":12805:12839   */\n      mstore\n        /* \"#utility.yul\":12794:12846   */\n      pop\n      jump\t// out\n        /* \"#utility.yul\":12852:13023   */\n    tag_199:\n        /* \"#utility.yul\":12992:13015   */\n      0x5468652061756374696f6e2068617320656e6465640000000000000000000000\n        /* \"#utility.yul\":12988:12989   */\n      0x00\n        /* \"#utility.yul\":12980:12986   */\n      dup3\n        /* \"#utility.yul\":12976:12990   */\n      add\n        /* \"#utility.yul\":12969:13016   */\n      mstore\n        /* \"#utility.yul\":12958:13023   */\n      pop\n      jump\t// out\n        /* \"#utility.yul\":13029:13206   */\n    tag_204:\n        /* \"#utility.yul\":13169:13198   */\n      0x7468652061756374696f6e20686173206265656e20656e646564210000000000\n        /* \"#utility.yul\":13165:13166   */\n      0x00\n        /* \"#utility.yul\":13157:13163   */\n      dup3\n        /* \"#utility.yul\":13153:13167   */\n      add\n        /* \"#utility.yul\":13146:13199   */\n      mstore\n        /* \"#utility.yul\":13135:13206   */\n      pop\n      jump\t// out\n        /* \"#utility.yul\":13212:13377   */\n    tag_209:\n        /* \"#utility.yul\":13352:13369   */\n      0x6e6f7420656e6f75676820455448210000000000000000000000000000000000\n        /* \"#utility.yul\":13348:13349   */\n      0x00\n        /* \"#utility.yul\":13340:13346   */\n      dup3\n        /* \"#utility.yul\":13336:13350   */\n      add\n        /* \"#utility.yul\":13329:13370   */\n      mstore\n        /* \"#utility.yul\":13318:13377   */\n      pop\n      jump\t// out\n        /* \"#utility.yul\":13383:13505   */\n    tag_150:\n        /* \"#utility.yul\":13456:13480   */\n      tag_295\n        /* \"#utility.yul\":13474:13479   */\n      dup2\n        /* \"#utility.yul\":13456:13480   */\n      tag_165\n      jump\t// in\n    tag_295:\n        /* \"#utility.yul\":13449:13454   */\n      dup2\n        /* \"#utility.yul\":13446:13481   */\n      eq\n        /* \"#utility.yul\":13436:13438   */\n      tag_296\n      jumpi\n        /* \"#utility.yul\":13495:13496   */\n      0x00\n        /* \"#utility.yul\":13492:13493   */\n      dup1\n        /* \"#utility.yul\":13485:13497   */\n      revert\n        /* \"#utility.yul\":13436:13438   */\n    tag_296:\n        /* \"#utility.yul\":13426:13505   */\n      pop\n      jump\t// out\n\n    auxdata: 0xa26469706673582212204d89b42e345c7ee780d3e4b3c0db1032b32c5263e5464f1fee562e4dad7fb1b064736f6c63430008040033\n}\n",
				"bytecode": {
					"linkReferences": {},
					"object": "60e060405260786005553480156200001657600080fd5b50604051620016dc380380620016dc83398181016040528101906200003c9190620000f7565b8073ffffffffffffffffffffffffffffffffffffffff1660808173ffffffffffffffffffffffffffffffffffffffff1660601b815250508160a0818152505082600281905550826001819055503373ffffffffffffffffffffffffffffffffffffffff1660c08173ffffffffffffffffffffffffffffffffffffffff1660601b81525050505050620001bf565b600081519050620000da816200018b565b92915050565b600081519050620000f181620001a5565b92915050565b6000806000606084860312156200010d57600080fd5b60006200011d86828701620000e0565b93505060206200013086828701620000e0565b92505060406200014386828701620000c9565b9150509250925092565b60006200015a8262000161565b9050919050565b600073ffffffffffffffffffffffffffffffffffffffff82169050919050565b6000819050919050565b62000196816200014d565b8114620001a257600080fd5b50565b620001b08162000181565b8114620001bc57600080fd5b50565b60805160601c60a05160c05160601c61149a6200024260003960008181610383015281816107b20152818161090401528181610b9e0152610d18015260008181610926015281816109b9015281816109fa01528181610c650152610d39015260008181610757015281816108c801528181610c070152610cdb015261149a6000f3fe6080604052600436106100f35760003560e01c8063846329f11161008a578063c6bc518211610059578063c6bc5182146102c5578063d33120ae146102f0578063efbe1c1c1461031b578063f1a9af8914610332576100f3565b8063846329f11461021b5780638620410b14610246578063acde5d2814610271578063be9a6555146102ae576100f3565b80633197cbb6116100c65780633197cbb6146101835780633ccfd60b146101ae57806347ccca02146101c557806378e97925146101f0576100f3565b806306f59cef146100f857806308551a53146101235780630fb5a6b41461014e5780631998aeef14610179575b600080fd5b34801561010457600080fd5b5061010d61035d565b60405161011a9190610f6a565b60405180910390f35b34801561012f57600080fd5b50610138610381565b6040516101459190610f85565b60405180910390f35b34801561015a57600080fd5b506101636103a5565b60405161017091906111a0565b60405180910390f35b6101816103ab565b005b34801561018f57600080fd5b50610198610623565b6040516101a591906111a0565b60405180910390f35b3480156101ba57600080fd5b506101c3610629565b005b3480156101d157600080fd5b506101da610755565b6040516101e791906110a5565b60405180910390f35b3480156101fc57600080fd5b50610205610779565b60405161021291906111a0565b60405180910390f35b34801561022757600080fd5b5061023061077f565b60405161023d919061108a565b60405180910390f35b34801561025257600080fd5b5061025b610792565b60405161026891906111a0565b60405180910390f35b34801561027d57600080fd5b5061029860048036038101906102939190610df2565b610798565b6040516102a591906111a0565b60405180910390f35b3480156102ba57600080fd5b506102c36107b0565b005b3480156102d157600080fd5b506102da6109f8565b6040516102e791906111a0565b60405180910390f35b3480156102fc57600080fd5b50610305610a1c565b604051610312919061108a565b60405180910390f35b34801561032757600080fd5b50610330610a2f565b005b34801561033e57600080fd5b50610347610dd7565b60405161035491906111a0565b60405180910390f35b60008054906101000a900473ffffffffffffffffffffffffffffffffffffffff1681565b7f000000000000000000000000000000000000000000000000000000000000000081565b60055481565b600760009054906101000a900460ff166103fa576040517f08c379a00000000000000000000000000000000000000000000000000000000081526004016103f190611100565b60405180910390fd5b600354421015801561040e57506004544211155b61044d576040517f08c379a0000000000000000000000000000000000000000000000000000000008152600401610444906110e0565b60405180910390fd5b6001543411610491576040517f08c379a000000000000000000000000000000000000000000000000000000000815260040161048890611180565b60405180910390fd5b336000806101000a81548173ffffffffffffffffffffffffffffffffffffffff021916908373ffffffffffffffffffffffffffffffffffffffff1602179055503460018190555034600660008060009054906101000a900473ffffffffffffffffffffffffffffffffffffffff1673ffffffffffffffffffffffffffffffffffffffff1673ffffffffffffffffffffffffffffffffffffffff168152602001908152602001600020600082825461054891906111f5565b9250508190555060008054906101000a900473ffffffffffffffffffffffffffffffffffffffff1673ffffffffffffffffffffffffffffffffffffffff167f19421268847f42dd61705778018ddfc43bcdce8517e7a630acb12f122c709481600154600660008060009054906101000a900473ffffffffffffffffffffffffffffffffffffffff1673ffffffffffffffffffffffffffffffffffffffff1673ffffffffffffffffffffffffffffffffffffffff168152602001908152602001600020546040516106199291906111bb565b60405180910390a2565b60045481565b600760009054906101000a900460ff1615610679576040517f08c379a000000000000000000000000000000000000000000000000000000000815260040161067090611120565b60405180910390fd5b6000600660003373ffffffffffffffffffffffffffffffffffffffff1673ffffffffffffffffffffffffffffffffffffffff16815260200190815260200160002054905060008114610752573373ffffffffffffffffffffffffffffffffffffffff166108fc829081150290604051600060405180830381858888f1935050505015801561070b573d6000803e3d6000fd5b506000600660003373ffffffffffffffffffffffffffffffffffffffff1673ffffffffffffffffffffffffffffffffffffffff168152602001908152602001600020819055505b50565b7f000000000000000000000000000000000000000000000000000000000000000081565b60035481565b600760019054906101000a900460ff1681565b60015481565b60066020528060005260406000206000915090505481565b7f000000000000000000000000000000000000000000000000000000000000000073ffffffffffffffffffffffffffffffffffffffff163373ffffffffffffffffffffffffffffffffffffffff161461083e576040517f08c379a0000000000000000000000000000000000000000000000000000000008152600401610835906110c0565b60405180910390fd5b600760009054906101000a900460ff161561088e576040517f08c379a000000000000000000000000000000000000000000000000000000000815260040161088590611120565b60405180910390fd5b6001600760006101000a81548160ff021916908315150217905550426003819055506005546003546108c091906111f5565b6004819055507f000000000000000000000000000000000000000000000000000000000000000073ffffffffffffffffffffffffffffffffffffffff166323b872dd7f0000000000000000000000000000000000000000000000000000000000000000307f00000000000000000000000000000000000000000000000000000000000000006040518463ffffffff1660e01b815260040161096393929190610fa0565b600060405180830381600087803b15801561097d57600080fd5b505af1158015610991573d6000803e3d6000fd5b505050507f3b305515dbe345238649f5ce343c57ae67d5727443f8d744b2b793c3231e3ad9307f00000000000000000000000000000000000000000000000000000000000000006003546004546040516109ee9493929190611045565b60405180910390a1565b7f000000000000000000000000000000000000000000000000000000000000000081565b600760009054906101000a900460ff1681565b6004544211610a73576040517f08c379a0000000000000000000000000000000000000000000000000000000008152600401610a6a90611140565b60405180910390fd5b600760009054906101000a900460ff16610ac2576040517f08c379a0000000000000000000000000000000000000000000000000000000008152600401610ab990611140565b60405180910390fd5b600760019054906101000a900460ff1615610b12576040517f08c379a0000000000000000000000000000000000000000000000000000000008152600401610b0990611160565b60405180910390fd5b6001600760016101000a81548160ff0219169083151502179055506000600760006101000a81548160ff021916908315150217905550600073ffffffffffffffffffffffffffffffffffffffff1660008054906101000a900473ffffffffffffffffffffffffffffffffffffffff1673ffffffffffffffffffffffffffffffffffffffff1614610cd9577f000000000000000000000000000000000000000000000000000000000000000073ffffffffffffffffffffffffffffffffffffffff166108fc6001549081150290604051600060405180830381858888f19350505050158015610c04573d6000803e3d6000fd5b507f000000000000000000000000000000000000000000000000000000000000000073ffffffffffffffffffffffffffffffffffffffff166323b872dd3060008054906101000a900473ffffffffffffffffffffffffffffffffffffffff167f00000000000000000000000000000000000000000000000000000000000000006040518463ffffffff1660e01b8152600401610ca29392919061100e565b600060405180830381600087803b158015610cbc57600080fd5b505af1158015610cd0573d6000803e3d6000fd5b50505050610da9565b7f000000000000000000000000000000000000000000000000000000000000000073ffffffffffffffffffffffffffffffffffffffff166323b872dd307f00000000000000000000000000000000000000000000000000000000000000007f00000000000000000000000000000000000000000000000000000000000000006040518463ffffffff1660e01b8152600401610d7693929190610fd7565b600060405180830381600087803b158015610d9057600080fd5b505af1158015610da4573d6000803e3d6000fd5b505050505b7f06e649079f276fcfc97b1e5cbfbb65937dac6a51ee164e3190e707e27ff345fa60405160405180910390a1565b60025481565b600081359050610dec8161144d565b92915050565b600060208284031215610e0457600080fd5b6000610e1284828501610ddd565b91505092915050565b610e24816112a5565b82525050565b610e338161125d565b82525050565b610e428161124b565b82525050565b610e518161126f565b82525050565b610e60816112b7565b82525050565b6000610e73600e836111e4565b9150610e7e8261132e565b602082019050919050565b6000610e96601b836111e4565b9150610ea182611357565b602082019050919050565b6000610eb9600c836111e4565b9150610ec482611380565b602082019050919050565b6000610edc6008836111e4565b9150610ee7826113a9565b602082019050919050565b6000610eff6015836111e4565b9150610f0a826113d2565b602082019050919050565b6000610f22601b836111e4565b9150610f2d826113fb565b602082019050919050565b6000610f45600f836111e4565b9150610f5082611424565b602082019050919050565b610f648161129b565b82525050565b6000602082019050610f7f6000830184610e39565b92915050565b6000602082019050610f9a6000830184610e2a565b92915050565b6000606082019050610fb56000830186610e1b565b610fc26020830185610e39565b610fcf6040830184610f5b565b949350505050565b6000606082019050610fec6000830186610e39565b610ff96020830185610e1b565b6110066040830184610f5b565b949350505050565b60006060820190506110236000830186610e39565b6110306020830185610e39565b61103d6040830184610f5b565b949350505050565b600060808201905061105a6000830187610e39565b6110676020830186610f5b565b6110746040830185610f5b565b6110816060830184610f5b565b95945050505050565b600060208201905061109f6000830184610e48565b92915050565b60006020820190506110ba6000830184610e57565b92915050565b600060208201905081810360008301526110d981610e66565b9050919050565b600060208201905081810360008301526110f981610e89565b9050919050565b6000602082019050818103600083015261111981610eac565b9050919050565b6000602082019050818103600083015261113981610ecf565b9050919050565b6000602082019050818103600083015261115981610ef2565b9050919050565b6000602082019050818103600083015261117981610f15565b9050919050565b6000602082019050818103600083015261119981610f38565b9050919050565b60006020820190506111b56000830184610f5b565b92915050565b60006040820190506111d06000830185610f5b565b6111dd6020830184610f5b565b9392505050565b600082825260208201905092915050565b60006112008261129b565b915061120b8361129b565b9250827fffffffffffffffffffffffffffffffffffffffffffffffffffffffffffffffff038211156112405761123f6112ff565b5b828201905092915050565b60006112568261127b565b9050919050565b60006112688261127b565b9050919050565b60008115159050919050565b600073ffffffffffffffffffffffffffffffffffffffff82169050919050565b6000819050919050565b60006112b0826112db565b9050919050565b60006112c2826112c9565b9050919050565b60006112d48261127b565b9050919050565b60006112e6826112ed565b9050919050565b60006112f88261127b565b9050919050565b7f4e487b7100000000000000000000000000000000000000000000000000000000600052601160045260246000fd5b7f4d7573742062652073656c6c6572000000000000000000000000000000000000600082015250565b7f4e6f7420616c6c6f77656420746f2062696420616e796d6f7265210000000000600082015250565b7f4469646e27742073746172740000000000000000000000000000000000000000600082015250565b7f7374617274696e67000000000000000000000000000000000000000000000000600082015250565b7f5468652061756374696f6e2068617320656e6465640000000000000000000000600082015250565b7f7468652061756374696f6e20686173206265656e20656e646564210000000000600082015250565b7f6e6f7420656e6f75676820455448210000000000000000000000000000000000600082015250565b6114568161124b565b811461146157600080fd5b5056fea26469706673582212204d89b42e345c7ee780d3e4b3c0db1032b32c5263e5464f1fee562e4dad7fb1b064736f6c63430008040033",
					"opcodes": "PUSH1 0xE0 PUSH1 0x40 MSTORE PUSH1 0x78 PUSH1 0x5 SSTORE CALLVALUE DUP1 ISZERO PUSH3 0x16 JUMPI PUSH1 0x0 DUP1 REVERT JUMPDEST POP PUSH1 0x40 MLOAD PUSH3 0x16DC CODESIZE SUB DUP1 PUSH3 0x16DC DUP4 CODECOPY DUP2 DUP2 ADD PUSH1 0x40 MSTORE DUP2 ADD SWAP1 PUSH3 0x3C SWAP2 SWAP1 PUSH3 0xF7 JUMP JUMPDEST DUP1 PUSH20 0xFFFFFFFFFFFFFFFFFFFFFFFFFFFFFFFFFFFFFFFF AND PUSH1 0x80 DUP2 PUSH20 0xFFFFFFFFFFFFFFFFFFFFFFFFFFFFFFFFFFFFFFFF AND PUSH1 0x60 SHL DUP2 MSTORE POP POP DUP2 PUSH1 0xA0 DUP2 DUP2 MSTORE POP POP DUP3 PUSH1 0x2 DUP2 SWAP1 SSTORE POP DUP3 PUSH1 0x1 DUP2 SWAP1 SSTORE POP CALLER PUSH20 0xFFFFFFFFFFFFFFFFFFFFFFFFFFFFFFFFFFFFFFFF AND PUSH1 0xC0 DUP2 PUSH20 0xFFFFFFFFFFFFFFFFFFFFFFFFFFFFFFFFFFFFFFFF AND PUSH1 0x60 SHL DUP2 MSTORE POP POP POP POP POP PUSH3 0x1BF JUMP JUMPDEST PUSH1 0x0 DUP2 MLOAD SWAP1 POP PUSH3 0xDA DUP2 PUSH3 0x18B JUMP JUMPDEST SWAP3 SWAP2 POP POP JUMP JUMPDEST PUSH1 0x0 DUP2 MLOAD SWAP1 POP PUSH3 0xF1 DUP2 PUSH3 0x1A5 JUMP JUMPDEST SWAP3 SWAP2 POP POP JUMP JUMPDEST PUSH1 0x0 DUP1 PUSH1 0x0 PUSH1 0x60 DUP5 DUP7 SUB SLT ISZERO PUSH3 0x10D JUMPI PUSH1 0x0 DUP1 REVERT JUMPDEST PUSH1 0x0 PUSH3 0x11D DUP7 DUP3 DUP8 ADD PUSH3 0xE0 JUMP JUMPDEST SWAP4 POP POP PUSH1 0x20 PUSH3 0x130 DUP7 DUP3 DUP8 ADD PUSH3 0xE0 JUMP JUMPDEST SWAP3 POP POP PUSH1 0x40 PUSH3 0x143 DUP7 DUP3 DUP8 ADD PUSH3 0xC9 JUMP JUMPDEST SWAP2 POP POP SWAP3 POP SWAP3 POP SWAP3 JUMP JUMPDEST PUSH1 0x0 PUSH3 0x15A DUP3 PUSH3 0x161 JUMP JUMPDEST SWAP1 POP SWAP2 SWAP1 POP JUMP JUMPDEST PUSH1 0x0 PUSH20 0xFFFFFFFFFFFFFFFFFFFFFFFFFFFFFFFFFFFFFFFF DUP3 AND SWAP1 POP SWAP2 SWAP1 POP JUMP JUMPDEST PUSH1 0x0 DUP2 SWAP1 POP SWAP2 SWAP1 POP JUMP JUMPDEST PUSH3 0x196 DUP2 PUSH3 0x14D JUMP JUMPDEST DUP2 EQ PUSH3 0x1A2 JUMPI PUSH1 0x0 DUP1 REVERT JUMPDEST POP JUMP JUMPDEST PUSH3 0x1B0 DUP2 PUSH3 0x181 JUMP JUMPDEST DUP2 EQ PUSH3 0x1BC JUMPI PUSH1 0x0 DUP1 REVERT JUMPDEST POP JUMP JUMPDEST PUSH1 0x80 MLOAD PUSH1 0x60 SHR PUSH1 0xA0 MLOAD PUSH1 0xC0 MLOAD PUSH1 0x60 SHR PUSH2 0x149A PUSH3 0x242 PUSH1 0x0 CODECOPY PUSH1 0x0 DUP2 DUP2 PUSH2 0x383 ADD MSTORE DUP2 DUP2 PUSH2 0x7B2 ADD MSTORE DUP2 DUP2 PUSH2 0x904 ADD MSTORE DUP2 DUP2 PUSH2 0xB9E ADD MSTORE PUSH2 0xD18 ADD MSTORE PUSH1 0x0 DUP2 DUP2 PUSH2 0x926 ADD MSTORE DUP2 DUP2 PUSH2 0x9B9 ADD MSTORE DUP2 DUP2 PUSH2 0x9FA ADD MSTORE DUP2 DUP2 PUSH2 0xC65 ADD MSTORE PUSH2 0xD39 ADD MSTORE PUSH1 0x0 DUP2 DUP2 PUSH2 0x757 ADD MSTORE DUP2 DUP2 PUSH2 0x8C8 ADD MSTORE DUP2 DUP2 PUSH2 0xC07 ADD MSTORE PUSH2 0xCDB ADD MSTORE PUSH2 0x149A PUSH1 0x0 RETURN INVALID PUSH1 0x80 PUSH1 0x40 MSTORE PUSH1 0x4 CALLDATASIZE LT PUSH2 0xF3 JUMPI PUSH1 0x0 CALLDATALOAD PUSH1 0xE0 SHR DUP1 PUSH4 0x846329F1 GT PUSH2 0x8A JUMPI DUP1 PUSH4 0xC6BC5182 GT PUSH2 0x59 JUMPI DUP1 PUSH4 0xC6BC5182 EQ PUSH2 0x2C5 JUMPI DUP1 PUSH4 0xD33120AE EQ PUSH2 0x2F0 JUMPI DUP1 PUSH4 0xEFBE1C1C EQ PUSH2 0x31B JUMPI DUP1 PUSH4 0xF1A9AF89 EQ PUSH2 0x332 JUMPI PUSH2 0xF3 JUMP JUMPDEST DUP1 PUSH4 0x846329F1 EQ PUSH2 0x21B JUMPI DUP1 PUSH4 0x8620410B EQ PUSH2 0x246 JUMPI DUP1 PUSH4 0xACDE5D28 EQ PUSH2 0x271 JUMPI DUP1 PUSH4 0xBE9A6555 EQ PUSH2 0x2AE JUMPI PUSH2 0xF3 JUMP JUMPDEST DUP1 PUSH4 0x3197CBB6 GT PUSH2 0xC6 JUMPI DUP1 PUSH4 0x3197CBB6 EQ PUSH2 0x183 JUMPI DUP1 PUSH4 0x3CCFD60B EQ PUSH2 0x1AE JUMPI DUP1 PUSH4 0x47CCCA02 EQ PUSH2 0x1C5 JUMPI DUP1 PUSH4 0x78E97925 EQ PUSH2 0x1F0 JUMPI PUSH2 0xF3 JUMP JUMPDEST DUP1 PUSH4 0x6F59CEF EQ PUSH2 0xF8 JUMPI DUP1 PUSH4 0x8551A53 EQ PUSH2 0x123 JUMPI DUP1 PUSH4 0xFB5A6B4 EQ PUSH2 0x14E JUMPI DUP1 PUSH4 0x1998AEEF EQ PUSH2 0x179 JUMPI JUMPDEST PUSH1 0x0 DUP1 REVERT JUMPDEST CALLVALUE DUP1 ISZERO PUSH2 0x104 JUMPI PUSH1 0x0 DUP1 REVERT JUMPDEST POP PUSH2 0x10D PUSH2 0x35D JUMP JUMPDEST PUSH1 0x40 MLOAD PUSH2 0x11A SWAP2 SWAP1 PUSH2 0xF6A JUMP JUMPDEST PUSH1 0x40 MLOAD DUP1 SWAP2 SUB SWAP1 RETURN JUMPDEST CALLVALUE DUP1 ISZERO PUSH2 0x12F JUMPI PUSH1 0x0 DUP1 REVERT JUMPDEST POP PUSH2 0x138 PUSH2 0x381 JUMP JUMPDEST PUSH1 0x40 MLOAD PUSH2 0x145 SWAP2 SWAP1 PUSH2 0xF85 JUMP JUMPDEST PUSH1 0x40 MLOAD DUP1 SWAP2 SUB SWAP1 RETURN JUMPDEST CALLVALUE DUP1 ISZERO PUSH2 0x15A JUMPI PUSH1 0x0 DUP1 REVERT JUMPDEST POP PUSH2 0x163 PUSH2 0x3A5 JUMP JUMPDEST PUSH1 0x40 MLOAD PUSH2 0x170 SWAP2 SWAP1 PUSH2 0x11A0 JUMP JUMPDEST PUSH1 0x40 MLOAD DUP1 SWAP2 SUB SWAP1 RETURN JUMPDEST PUSH2 0x181 PUSH2 0x3AB JUMP JUMPDEST STOP JUMPDEST CALLVALUE DUP1 ISZERO PUSH2 0x18F JUMPI PUSH1 0x0 DUP1 REVERT JUMPDEST POP PUSH2 0x198 PUSH2 0x623 JUMP JUMPDEST PUSH1 0x40 MLOAD PUSH2 0x1A5 SWAP2 SWAP1 PUSH2 0x11A0 JUMP JUMPDEST PUSH1 0x40 MLOAD DUP1 SWAP2 SUB SWAP1 RETURN JUMPDEST CALLVALUE DUP1 ISZERO PUSH2 0x1BA JUMPI PUSH1 0x0 DUP1 REVERT JUMPDEST POP PUSH2 0x1C3 PUSH2 0x629 JUMP JUMPDEST STOP JUMPDEST CALLVALUE DUP1 ISZERO PUSH2 0x1D1 JUMPI PUSH1 0x0 DUP1 REVERT JUMPDEST POP PUSH2 0x1DA PUSH2 0x755 JUMP JUMPDEST PUSH1 0x40 MLOAD PUSH2 0x1E7 SWAP2 SWAP1 PUSH2 0x10A5 JUMP JUMPDEST PUSH1 0x40 MLOAD DUP1 SWAP2 SUB SWAP1 RETURN JUMPDEST CALLVALUE DUP1 ISZERO PUSH2 0x1FC JUMPI PUSH1 0x0 DUP1 REVERT JUMPDEST POP PUSH2 0x205 PUSH2 0x779 JUMP JUMPDEST PUSH1 0x40 MLOAD PUSH2 0x212 SWAP2 SWAP1 PUSH2 0x11A0 JUMP JUMPDEST PUSH1 0x40 MLOAD DUP1 SWAP2 SUB SWAP1 RETURN JUMPDEST CALLVALUE DUP1 ISZERO PUSH2 0x227 JUMPI PUSH1 0x0 DUP1 REVERT JUMPDEST POP PUSH2 0x230 PUSH2 0x77F JUMP JUMPDEST PUSH1 0x40 MLOAD PUSH2 0x23D SWAP2 SWAP1 PUSH2 0x108A JUMP JUMPDEST PUSH1 0x40 MLOAD DUP1 SWAP2 SUB SWAP1 RETURN JUMPDEST CALLVALUE DUP1 ISZERO PUSH2 0x252 JUMPI PUSH1 0x0 DUP1 REVERT JUMPDEST POP PUSH2 0x25B PUSH2 0x792 JUMP JUMPDEST PUSH1 0x40 MLOAD PUSH2 0x268 SWAP2 SWAP1 PUSH2 0x11A0 JUMP JUMPDEST PUSH1 0x40 MLOAD DUP1 SWAP2 SUB SWAP1 RETURN JUMPDEST CALLVALUE DUP1 ISZERO PUSH2 0x27D JUMPI PUSH1 0x0 DUP1 REVERT JUMPDEST POP PUSH2 0x298 PUSH1 0x4 DUP1 CALLDATASIZE SUB DUP2 ADD SWAP1 PUSH2 0x293 SWAP2 SWAP1 PUSH2 0xDF2 JUMP JUMPDEST PUSH2 0x798 JUMP JUMPDEST PUSH1 0x40 MLOAD PUSH2 0x2A5 SWAP2 SWAP1 PUSH2 0x11A0 JUMP JUMPDEST PUSH1 0x40 MLOAD DUP1 SWAP2 SUB SWAP1 RETURN JUMPDEST CALLVALUE DUP1 ISZERO PUSH2 0x2BA JUMPI PUSH1 0x0 DUP1 REVERT JUMPDEST POP PUSH2 0x2C3 PUSH2 0x7B0 JUMP JUMPDEST STOP JUMPDEST CALLVALUE DUP1 ISZERO PUSH2 0x2D1 JUMPI PUSH1 0x0 DUP1 REVERT JUMPDEST POP PUSH2 0x2DA PUSH2 0x9F8 JUMP JUMPDEST PUSH1 0x40 MLOAD PUSH2 0x2E7 SWAP2 SWAP1 PUSH2 0x11A0 JUMP JUMPDEST PUSH1 0x40 MLOAD DUP1 SWAP2 SUB SWAP1 RETURN JUMPDEST CALLVALUE DUP1 ISZERO PUSH2 0x2FC JUMPI PUSH1 0x0 DUP1 REVERT JUMPDEST POP PUSH2 0x305 PUSH2 0xA1C JUMP JUMPDEST PUSH1 0x40 MLOAD PUSH2 0x312 SWAP2 SWAP1 PUSH2 0x108A JUMP JUMPDEST PUSH1 0x40 MLOAD DUP1 SWAP2 SUB SWAP1 RETURN JUMPDEST CALLVALUE DUP1 ISZERO PUSH2 0x327 JUMPI PUSH1 0x0 DUP1 REVERT JUMPDEST POP PUSH2 0x330 PUSH2 0xA2F JUMP JUMPDEST STOP JUMPDEST CALLVALUE DUP1 ISZERO PUSH2 0x33E JUMPI PUSH1 0x0 DUP1 REVERT JUMPDEST POP PUSH2 0x347 PUSH2 0xDD7 JUMP JUMPDEST PUSH1 0x40 MLOAD PUSH2 0x354 SWAP2 SWAP1 PUSH2 0x11A0 JUMP JUMPDEST PUSH1 0x40 MLOAD DUP1 SWAP2 SUB SWAP1 RETURN JUMPDEST PUSH1 0x0 DUP1 SLOAD SWAP1 PUSH2 0x100 EXP SWAP1 DIV PUSH20 0xFFFFFFFFFFFFFFFFFFFFFFFFFFFFFFFFFFFFFFFF AND DUP2 JUMP JUMPDEST PUSH32 0x0 DUP2 JUMP JUMPDEST PUSH1 0x5 SLOAD DUP2 JUMP JUMPDEST PUSH1 0x7 PUSH1 0x0 SWAP1 SLOAD SWAP1 PUSH2 0x100 EXP SWAP1 DIV PUSH1 0xFF AND PUSH2 0x3FA JUMPI PUSH1 0x40 MLOAD PUSH32 0x8C379A000000000000000000000000000000000000000000000000000000000 DUP2 MSTORE PUSH1 0x4 ADD PUSH2 0x3F1 SWAP1 PUSH2 0x1100 JUMP JUMPDEST PUSH1 0x40 MLOAD DUP1 SWAP2 SUB SWAP1 REVERT JUMPDEST PUSH1 0x3 SLOAD TIMESTAMP LT ISZERO DUP1 ISZERO PUSH2 0x40E JUMPI POP PUSH1 0x4 SLOAD TIMESTAMP GT ISZERO JUMPDEST PUSH2 0x44D JUMPI PUSH1 0x40 MLOAD PUSH32 0x8C379A000000000000000000000000000000000000000000000000000000000 DUP2 MSTORE PUSH1 0x4 ADD PUSH2 0x444 SWAP1 PUSH2 0x10E0 JUMP JUMPDEST PUSH1 0x40 MLOAD DUP1 SWAP2 SUB SWAP1 REVERT JUMPDEST PUSH1 0x1 SLOAD CALLVALUE GT PUSH2 0x491 JUMPI PUSH1 0x40 MLOAD PUSH32 0x8C379A000000000000000000000000000000000000000000000000000000000 DUP2 MSTORE PUSH1 0x4 ADD PUSH2 0x488 SWAP1 PUSH2 0x1180 JUMP JUMPDEST PUSH1 0x40 MLOAD DUP1 SWAP2 SUB SWAP1 REVERT JUMPDEST CALLER PUSH1 0x0 DUP1 PUSH2 0x100 EXP DUP2 SLOAD DUP2 PUSH20 0xFFFFFFFFFFFFFFFFFFFFFFFFFFFFFFFFFFFFFFFF MUL NOT AND SWAP1 DUP4 PUSH20 0xFFFFFFFFFFFFFFFFFFFFFFFFFFFFFFFFFFFFFFFF AND MUL OR SWAP1 SSTORE POP CALLVALUE PUSH1 0x1 DUP2 SWAP1 SSTORE POP CALLVALUE PUSH1 0x6 PUSH1 0x0 DUP1 PUSH1 0x0 SWAP1 SLOAD SWAP1 PUSH2 0x100 EXP SWAP1 DIV PUSH20 0xFFFFFFFFFFFFFFFFFFFFFFFFFFFFFFFFFFFFFFFF AND PUSH20 0xFFFFFFFFFFFFFFFFFFFFFFFFFFFFFFFFFFFFFFFF AND PUSH20 0xFFFFFFFFFFFFFFFFFFFFFFFFFFFFFFFFFFFFFFFF AND DUP2 MSTORE PUSH1 0x20 ADD SWAP1 DUP2 MSTORE PUSH1 0x20 ADD PUSH1 0x0 KECCAK256 PUSH1 0x0 DUP3 DUP3 SLOAD PUSH2 0x548 SWAP2 SWAP1 PUSH2 0x11F5 JUMP JUMPDEST SWAP3 POP POP DUP2 SWAP1 SSTORE POP PUSH1 0x0 DUP1 SLOAD SWAP1 PUSH2 0x100 EXP SWAP1 DIV PUSH20 0xFFFFFFFFFFFFFFFFFFFFFFFFFFFFFFFFFFFFFFFF AND PUSH20 0xFFFFFFFFFFFFFFFFFFFFFFFFFFFFFFFFFFFFFFFF AND PUSH32 0x19421268847F42DD61705778018DDFC43BCDCE8517E7A630ACB12F122C709481 PUSH1 0x1 SLOAD PUSH1 0x6 PUSH1 0x0 DUP1 PUSH1 0x0 SWAP1 SLOAD SWAP1 PUSH2 0x100 EXP SWAP1 DIV PUSH20 0xFFFFFFFFFFFFFFFFFFFFFFFFFFFFFFFFFFFFFFFF AND PUSH20 0xFFFFFFFFFFFFFFFFFFFFFFFFFFFFFFFFFFFFFFFF AND PUSH20 0xFFFFFFFFFFFFFFFFFFFFFFFFFFFFFFFFFFFFFFFF AND DUP2 MSTORE PUSH1 0x20 ADD SWAP1 DUP2 MSTORE PUSH1 0x20 ADD PUSH1 0x0 KECCAK256 SLOAD PUSH1 0x40 MLOAD PUSH2 0x619 SWAP3 SWAP2 SWAP1 PUSH2 0x11BB JUMP JUMPDEST PUSH1 0x40 MLOAD DUP1 SWAP2 SUB SWAP1 LOG2 JUMP JUMPDEST PUSH1 0x4 SLOAD DUP2 JUMP JUMPDEST PUSH1 0x7 PUSH1 0x0 SWAP1 SLOAD SWAP1 PUSH2 0x100 EXP SWAP1 DIV PUSH1 0xFF AND ISZERO PUSH2 0x679 JUMPI PUSH1 0x40 MLOAD PUSH32 0x8C379A000000000000000000000000000000000000000000000000000000000 DUP2 MSTORE PUSH1 0x4 ADD PUSH2 0x670 SWAP1 PUSH2 0x1120 JUMP JUMPDEST PUSH1 0x40 MLOAD DUP1 SWAP2 SUB SWAP1 REVERT JUMPDEST PUSH1 0x0 PUSH1 0x6 PUSH1 0x0 CALLER PUSH20 0xFFFFFFFFFFFFFFFFFFFFFFFFFFFFFFFFFFFFFFFF AND PUSH20 0xFFFFFFFFFFFFFFFFFFFFFFFFFFFFFFFFFFFFFFFF AND DUP2 MSTORE PUSH1 0x20 ADD SWAP1 DUP2 MSTORE PUSH1 0x20 ADD PUSH1 0x0 KECCAK256 SLOAD SWAP1 POP PUSH1 0x0 DUP2 EQ PUSH2 0x752 JUMPI CALLER PUSH20 0xFFFFFFFFFFFFFFFFFFFFFFFFFFFFFFFFFFFFFFFF AND PUSH2 0x8FC DUP3 SWAP1 DUP2 ISZERO MUL SWAP1 PUSH1 0x40 MLOAD PUSH1 0x0 PUSH1 0x40 MLOAD DUP1 DUP4 SUB DUP2 DUP6 DUP9 DUP9 CALL SWAP4 POP POP POP POP ISZERO DUP1 ISZERO PUSH2 0x70B JUMPI RETURNDATASIZE PUSH1 0x0 DUP1 RETURNDATACOPY RETURNDATASIZE PUSH1 0x0 REVERT JUMPDEST POP PUSH1 0x0 PUSH1 0x6 PUSH1 0x0 CALLER PUSH20 0xFFFFFFFFFFFFFFFFFFFFFFFFFFFFFFFFFFFFFFFF AND PUSH20 0xFFFFFFFFFFFFFFFFFFFFFFFFFFFFFFFFFFFFFFFF AND DUP2 MSTORE PUSH1 0x20 ADD SWAP1 DUP2 MSTORE PUSH1 0x20 ADD PUSH1 0x0 KECCAK256 DUP2 SWAP1 SSTORE POP JUMPDEST POP JUMP JUMPDEST PUSH32 0x0 DUP2 JUMP JUMPDEST PUSH1 0x3 SLOAD DUP2 JUMP JUMPDEST PUSH1 0x7 PUSH1 0x1 SWAP1 SLOAD SWAP1 PUSH2 0x100 EXP SWAP1 DIV PUSH1 0xFF AND DUP2 JUMP JUMPDEST PUSH1 0x1 SLOAD DUP2 JUMP JUMPDEST PUSH1 0x6 PUSH1 0x20 MSTORE DUP1 PUSH1 0x0 MSTORE PUSH1 0x40 PUSH1 0x0 KECCAK256 PUSH1 0x0 SWAP2 POP SWAP1 POP SLOAD DUP2 JUMP JUMPDEST PUSH32 0x0 PUSH20 0xFFFFFFFFFFFFFFFFFFFFFFFFFFFFFFFFFFFFFFFF AND CALLER PUSH20 0xFFFFFFFFFFFFFFFFFFFFFFFFFFFFFFFFFFFFFFFF AND EQ PUSH2 0x83E JUMPI PUSH1 0x40 MLOAD PUSH32 0x8C379A000000000000000000000000000000000000000000000000000000000 DUP2 MSTORE PUSH1 0x4 ADD PUSH2 0x835 SWAP1 PUSH2 0x10C0 JUMP JUMPDEST PUSH1 0x40 MLOAD DUP1 SWAP2 SUB SWAP1 REVERT JUMPDEST PUSH1 0x7 PUSH1 0x0 SWAP1 SLOAD SWAP1 PUSH2 0x100 EXP SWAP1 DIV PUSH1 0xFF AND ISZERO PUSH2 0x88E JUMPI PUSH1 0x40 MLOAD PUSH32 0x8C379A000000000000000000000000000000000000000000000000000000000 DUP2 MSTORE PUSH1 0x4 ADD PUSH2 0x885 SWAP1 PUSH2 0x1120 JUMP JUMPDEST PUSH1 0x40 MLOAD DUP1 SWAP2 SUB SWAP1 REVERT JUMPDEST PUSH1 0x1 PUSH1 0x7 PUSH1 0x0 PUSH2 0x100 EXP DUP2 SLOAD DUP2 PUSH1 0xFF MUL NOT AND SWAP1 DUP4 ISZERO ISZERO MUL OR SWAP1 SSTORE POP TIMESTAMP PUSH1 0x3 DUP2 SWAP1 SSTORE POP PUSH1 0x5 SLOAD PUSH1 0x3 SLOAD PUSH2 0x8C0 SWAP2 SWAP1 PUSH2 0x11F5 JUMP JUMPDEST PUSH1 0x4 DUP2 SWAP1 SSTORE POP PUSH32 0x0 PUSH20 0xFFFFFFFFFFFFFFFFFFFFFFFFFFFFFFFFFFFFFFFF AND PUSH4 0x23B872DD PUSH32 0x0 ADDRESS PUSH32 0x0 PUSH1 0x40 MLOAD DUP5 PUSH4 0xFFFFFFFF AND PUSH1 0xE0 SHL DUP2 MSTORE PUSH1 0x4 ADD PUSH2 0x963 SWAP4 SWAP3 SWAP2 SWAP1 PUSH2 0xFA0 JUMP JUMPDEST PUSH1 0x0 PUSH1 0x40 MLOAD DUP1 DUP4 SUB DUP2 PUSH1 0x0 DUP8 DUP1 EXTCODESIZE ISZERO DUP1 ISZERO PUSH2 0x97D JUMPI PUSH1 0x0 DUP1 REVERT JUMPDEST POP GAS CALL ISZERO DUP1 ISZERO PUSH2 0x991 JUMPI RETURNDATASIZE PUSH1 0x0 DUP1 RETURNDATACOPY RETURNDATASIZE PUSH1 0x0 REVERT JUMPDEST POP POP POP POP PUSH32 0x3B305515DBE345238649F5CE343C57AE67D5727443F8D744B2B793C3231E3AD9 ADDRESS PUSH32 0x0 PUSH1 0x3 SLOAD PUSH1 0x4 SLOAD PUSH1 0x40 MLOAD PUSH2 0x9EE SWAP5 SWAP4 SWAP3 SWAP2 SWAP1 PUSH2 0x1045 JUMP JUMPDEST PUSH1 0x40 MLOAD DUP1 SWAP2 SUB SWAP1 LOG1 JUMP JUMPDEST PUSH32 0x0 DUP2 JUMP JUMPDEST PUSH1 0x7 PUSH1 0x0 SWAP1 SLOAD SWAP1 PUSH2 0x100 EXP SWAP1 DIV PUSH1 0xFF AND DUP2 JUMP JUMPDEST PUSH1 0x4 SLOAD TIMESTAMP GT PUSH2 0xA73 JUMPI PUSH1 0x40 MLOAD PUSH32 0x8C379A000000000000000000000000000000000000000000000000000000000 DUP2 MSTORE PUSH1 0x4 ADD PUSH2 0xA6A SWAP1 PUSH2 0x1140 JUMP JUMPDEST PUSH1 0x40 MLOAD DUP1 SWAP2 SUB SWAP1 REVERT JUMPDEST PUSH1 0x7 PUSH1 0x0 SWAP1 SLOAD SWAP1 PUSH2 0x100 EXP SWAP1 DIV PUSH1 0xFF AND PUSH2 0xAC2 JUMPI PUSH1 0x40 MLOAD PUSH32 0x8C379A000000000000000000000000000000000000000000000000000000000 DUP2 MSTORE PUSH1 0x4 ADD PUSH2 0xAB9 SWAP1 PUSH2 0x1140 JUMP JUMPDEST PUSH1 0x40 MLOAD DUP1 SWAP2 SUB SWAP1 REVERT JUMPDEST PUSH1 0x7 PUSH1 0x1 SWAP1 SLOAD SWAP1 PUSH2 0x100 EXP SWAP1 DIV PUSH1 0xFF AND ISZERO PUSH2 0xB12 JUMPI PUSH1 0x40 MLOAD PUSH32 0x8C379A000000000000000000000000000000000000000000000000000000000 DUP2 MSTORE PUSH1 0x4 ADD PUSH2 0xB09 SWAP1 PUSH2 0x1160 JUMP JUMPDEST PUSH1 0x40 MLOAD DUP1 SWAP2 SUB SWAP1 REVERT JUMPDEST PUSH1 0x1 PUSH1 0x7 PUSH1 0x1 PUSH2 0x100 EXP DUP2 SLOAD DUP2 PUSH1 0xFF MUL NOT AND SWAP1 DUP4 ISZERO ISZERO MUL OR SWAP1 SSTORE POP PUSH1 0x0 PUSH1 0x7 PUSH1 0x0 PUSH2 0x100 EXP DUP2 SLOAD DUP2 PUSH1 0xFF MUL NOT AND SWAP1 DUP4 ISZERO ISZERO MUL OR SWAP1 SSTORE POP PUSH1 0x0 PUSH20 0xFFFFFFFFFFFFFFFFFFFFFFFFFFFFFFFFFFFFFFFF AND PUSH1 0x0 DUP1 SLOAD SWAP1 PUSH2 0x100 EXP SWAP1 DIV PUSH20 0xFFFFFFFFFFFFFFFFFFFFFFFFFFFFFFFFFFFFFFFF AND PUSH20 0xFFFFFFFFFFFFFFFFFFFFFFFFFFFFFFFFFFFFFFFF AND EQ PUSH2 0xCD9 JUMPI PUSH32 0x0 PUSH20 0xFFFFFFFFFFFFFFFFFFFFFFFFFFFFFFFFFFFFFFFF AND PUSH2 0x8FC PUSH1 0x1 SLOAD SWAP1 DUP2 ISZERO MUL SWAP1 PUSH1 0x40 MLOAD PUSH1 0x0 PUSH1 0x40 MLOAD DUP1 DUP4 SUB DUP2 DUP6 DUP9 DUP9 CALL SWAP4 POP POP POP POP ISZERO DUP1 ISZERO PUSH2 0xC04 JUMPI RETURNDATASIZE PUSH1 0x0 DUP1 RETURNDATACOPY RETURNDATASIZE PUSH1 0x0 REVERT JUMPDEST POP PUSH32 0x0 PUSH20 0xFFFFFFFFFFFFFFFFFFFFFFFFFFFFFFFFFFFFFFFF AND PUSH4 0x23B872DD ADDRESS PUSH1 0x0 DUP1 SLOAD SWAP1 PUSH2 0x100 EXP SWAP1 DIV PUSH20 0xFFFFFFFFFFFFFFFFFFFFFFFFFFFFFFFFFFFFFFFF AND PUSH32 0x0 PUSH1 0x40 MLOAD DUP5 PUSH4 0xFFFFFFFF AND PUSH1 0xE0 SHL DUP2 MSTORE PUSH1 0x4 ADD PUSH2 0xCA2 SWAP4 SWAP3 SWAP2 SWAP1 PUSH2 0x100E JUMP JUMPDEST PUSH1 0x0 PUSH1 0x40 MLOAD DUP1 DUP4 SUB DUP2 PUSH1 0x0 DUP8 DUP1 EXTCODESIZE ISZERO DUP1 ISZERO PUSH2 0xCBC JUMPI PUSH1 0x0 DUP1 REVERT JUMPDEST POP GAS CALL ISZERO DUP1 ISZERO PUSH2 0xCD0 JUMPI RETURNDATASIZE PUSH1 0x0 DUP1 RETURNDATACOPY RETURNDATASIZE PUSH1 0x0 REVERT JUMPDEST POP POP POP POP PUSH2 0xDA9 JUMP JUMPDEST PUSH32 0x0 PUSH20 0xFFFFFFFFFFFFFFFFFFFFFFFFFFFFFFFFFFFFFFFF AND PUSH4 0x23B872DD ADDRESS PUSH32 0x0 PUSH32 0x0 PUSH1 0x40 MLOAD DUP5 PUSH4 0xFFFFFFFF AND PUSH1 0xE0 SHL DUP2 MSTORE PUSH1 0x4 ADD PUSH2 0xD76 SWAP4 SWAP3 SWAP2 SWAP1 PUSH2 0xFD7 JUMP JUMPDEST PUSH1 0x0 PUSH1 0x40 MLOAD DUP1 DUP4 SUB DUP2 PUSH1 0x0 DUP8 DUP1 EXTCODESIZE ISZERO DUP1 ISZERO PUSH2 0xD90 JUMPI PUSH1 0x0 DUP1 REVERT JUMPDEST POP GAS CALL ISZERO DUP1 ISZERO PUSH2 0xDA4 JUMPI RETURNDATASIZE PUSH1 0x0 DUP1 RETURNDATACOPY RETURNDATASIZE PUSH1 0x0 REVERT JUMPDEST POP POP POP POP JUMPDEST PUSH32 0x6E649079F276FCFC97B1E5CBFBB65937DAC6A51EE164E3190E707E27FF345FA PUSH1 0x40 MLOAD PUSH1 0x40 MLOAD DUP1 SWAP2 SUB SWAP1 LOG1 JUMP JUMPDEST PUSH1 0x2 SLOAD DUP2 JUMP JUMPDEST PUSH1 0x0 DUP2 CALLDATALOAD SWAP1 POP PUSH2 0xDEC DUP2 PUSH2 0x144D JUMP JUMPDEST SWAP3 SWAP2 POP POP JUMP JUMPDEST PUSH1 0x0 PUSH1 0x20 DUP3 DUP5 SUB SLT ISZERO PUSH2 0xE04 JUMPI PUSH1 0x0 DUP1 REVERT JUMPDEST PUSH1 0x0 PUSH2 0xE12 DUP5 DUP3 DUP6 ADD PUSH2 0xDDD JUMP JUMPDEST SWAP2 POP POP SWAP3 SWAP2 POP POP JUMP JUMPDEST PUSH2 0xE24 DUP2 PUSH2 0x12A5 JUMP JUMPDEST DUP3 MSTORE POP POP JUMP JUMPDEST PUSH2 0xE33 DUP2 PUSH2 0x125D JUMP JUMPDEST DUP3 MSTORE POP POP JUMP JUMPDEST PUSH2 0xE42 DUP2 PUSH2 0x124B JUMP JUMPDEST DUP3 MSTORE POP POP JUMP JUMPDEST PUSH2 0xE51 DUP2 PUSH2 0x126F JUMP JUMPDEST DUP3 MSTORE POP POP JUMP JUMPDEST PUSH2 0xE60 DUP2 PUSH2 0x12B7 JUMP JUMPDEST DUP3 MSTORE POP POP JUMP JUMPDEST PUSH1 0x0 PUSH2 0xE73 PUSH1 0xE DUP4 PUSH2 0x11E4 JUMP JUMPDEST SWAP2 POP PUSH2 0xE7E DUP3 PUSH2 0x132E JUMP JUMPDEST PUSH1 0x20 DUP3 ADD SWAP1 POP SWAP2 SWAP1 POP JUMP JUMPDEST PUSH1 0x0 PUSH2 0xE96 PUSH1 0x1B DUP4 PUSH2 0x11E4 JUMP JUMPDEST SWAP2 POP PUSH2 0xEA1 DUP3 PUSH2 0x1357 JUMP JUMPDEST PUSH1 0x20 DUP3 ADD SWAP1 POP SWAP2 SWAP1 POP JUMP JUMPDEST PUSH1 0x0 PUSH2 0xEB9 PUSH1 0xC DUP4 PUSH2 0x11E4 JUMP JUMPDEST SWAP2 POP PUSH2 0xEC4 DUP3 PUSH2 0x1380 JUMP JUMPDEST PUSH1 0x20 DUP3 ADD SWAP1 POP SWAP2 SWAP1 POP JUMP JUMPDEST PUSH1 0x0 PUSH2 0xEDC PUSH1 0x8 DUP4 PUSH2 0x11E4 JUMP JUMPDEST SWAP2 POP PUSH2 0xEE7 DUP3 PUSH2 0x13A9 JUMP JUMPDEST PUSH1 0x20 DUP3 ADD SWAP1 POP SWAP2 SWAP1 POP JUMP JUMPDEST PUSH1 0x0 PUSH2 0xEFF PUSH1 0x15 DUP4 PUSH2 0x11E4 JUMP JUMPDEST SWAP2 POP PUSH2 0xF0A DUP3 PUSH2 0x13D2 JUMP JUMPDEST PUSH1 0x20 DUP3 ADD SWAP1 POP SWAP2 SWAP1 POP JUMP JUMPDEST PUSH1 0x0 PUSH2 0xF22 PUSH1 0x1B DUP4 PUSH2 0x11E4 JUMP JUMPDEST SWAP2 POP PUSH2 0xF2D DUP3 PUSH2 0x13FB JUMP JUMPDEST PUSH1 0x20 DUP3 ADD SWAP1 POP SWAP2 SWAP1 POP JUMP JUMPDEST PUSH1 0x0 PUSH2 0xF45 PUSH1 0xF DUP4 PUSH2 0x11E4 JUMP JUMPDEST SWAP2 POP PUSH2 0xF50 DUP3 PUSH2 0x1424 JUMP JUMPDEST PUSH1 0x20 DUP3 ADD SWAP1 POP SWAP2 SWAP1 POP JUMP JUMPDEST PUSH2 0xF64 DUP2 PUSH2 0x129B JUMP JUMPDEST DUP3 MSTORE POP POP JUMP JUMPDEST PUSH1 0x0 PUSH1 0x20 DUP3 ADD SWAP1 POP PUSH2 0xF7F PUSH1 0x0 DUP4 ADD DUP5 PUSH2 0xE39 JUMP JUMPDEST SWAP3 SWAP2 POP POP JUMP JUMPDEST PUSH1 0x0 PUSH1 0x20 DUP3 ADD SWAP1 POP PUSH2 0xF9A PUSH1 0x0 DUP4 ADD DUP5 PUSH2 0xE2A JUMP JUMPDEST SWAP3 SWAP2 POP POP JUMP JUMPDEST PUSH1 0x0 PUSH1 0x60 DUP3 ADD SWAP1 POP PUSH2 0xFB5 PUSH1 0x0 DUP4 ADD DUP7 PUSH2 0xE1B JUMP JUMPDEST PUSH2 0xFC2 PUSH1 0x20 DUP4 ADD DUP6 PUSH2 0xE39 JUMP JUMPDEST PUSH2 0xFCF PUSH1 0x40 DUP4 ADD DUP5 PUSH2 0xF5B JUMP JUMPDEST SWAP5 SWAP4 POP POP POP POP JUMP JUMPDEST PUSH1 0x0 PUSH1 0x60 DUP3 ADD SWAP1 POP PUSH2 0xFEC PUSH1 0x0 DUP4 ADD DUP7 PUSH2 0xE39 JUMP JUMPDEST PUSH2 0xFF9 PUSH1 0x20 DUP4 ADD DUP6 PUSH2 0xE1B JUMP JUMPDEST PUSH2 0x1006 PUSH1 0x40 DUP4 ADD DUP5 PUSH2 0xF5B JUMP JUMPDEST SWAP5 SWAP4 POP POP POP POP JUMP JUMPDEST PUSH1 0x0 PUSH1 0x60 DUP3 ADD SWAP1 POP PUSH2 0x1023 PUSH1 0x0 DUP4 ADD DUP7 PUSH2 0xE39 JUMP JUMPDEST PUSH2 0x1030 PUSH1 0x20 DUP4 ADD DUP6 PUSH2 0xE39 JUMP JUMPDEST PUSH2 0x103D PUSH1 0x40 DUP4 ADD DUP5 PUSH2 0xF5B JUMP JUMPDEST SWAP5 SWAP4 POP POP POP POP JUMP JUMPDEST PUSH1 0x0 PUSH1 0x80 DUP3 ADD SWAP1 POP PUSH2 0x105A PUSH1 0x0 DUP4 ADD DUP8 PUSH2 0xE39 JUMP JUMPDEST PUSH2 0x1067 PUSH1 0x20 DUP4 ADD DUP7 PUSH2 0xF5B JUMP JUMPDEST PUSH2 0x1074 PUSH1 0x40 DUP4 ADD DUP6 PUSH2 0xF5B JUMP JUMPDEST PUSH2 0x1081 PUSH1 0x60 DUP4 ADD DUP5 PUSH2 0xF5B JUMP JUMPDEST SWAP6 SWAP5 POP POP POP POP POP JUMP JUMPDEST PUSH1 0x0 PUSH1 0x20 DUP3 ADD SWAP1 POP PUSH2 0x109F PUSH1 0x0 DUP4 ADD DUP5 PUSH2 0xE48 JUMP JUMPDEST SWAP3 SWAP2 POP POP JUMP JUMPDEST PUSH1 0x0 PUSH1 0x20 DUP3 ADD SWAP1 POP PUSH2 0x10BA PUSH1 0x0 DUP4 ADD DUP5 PUSH2 0xE57 JUMP JUMPDEST SWAP3 SWAP2 POP POP JUMP JUMPDEST PUSH1 0x0 PUSH1 0x20 DUP3 ADD SWAP1 POP DUP2 DUP2 SUB PUSH1 0x0 DUP4 ADD MSTORE PUSH2 0x10D9 DUP2 PUSH2 0xE66 JUMP JUMPDEST SWAP1 POP SWAP2 SWAP1 POP JUMP JUMPDEST PUSH1 0x0 PUSH1 0x20 DUP3 ADD SWAP1 POP DUP2 DUP2 SUB PUSH1 0x0 DUP4 ADD MSTORE PUSH2 0x10F9 DUP2 PUSH2 0xE89 JUMP JUMPDEST SWAP1 POP SWAP2 SWAP1 POP JUMP JUMPDEST PUSH1 0x0 PUSH1 0x20 DUP3 ADD SWAP1 POP DUP2 DUP2 SUB PUSH1 0x0 DUP4 ADD MSTORE PUSH2 0x1119 DUP2 PUSH2 0xEAC JUMP JUMPDEST SWAP1 POP SWAP2 SWAP1 POP JUMP JUMPDEST PUSH1 0x0 PUSH1 0x20 DUP3 ADD SWAP1 POP DUP2 DUP2 SUB PUSH1 0x0 DUP4 ADD MSTORE PUSH2 0x1139 DUP2 PUSH2 0xECF JUMP JUMPDEST SWAP1 POP SWAP2 SWAP1 POP JUMP JUMPDEST PUSH1 0x0 PUSH1 0x20 DUP3 ADD SWAP1 POP DUP2 DUP2 SUB PUSH1 0x0 DUP4 ADD MSTORE PUSH2 0x1159 DUP2 PUSH2 0xEF2 JUMP JUMPDEST SWAP1 POP SWAP2 SWAP1 POP JUMP JUMPDEST PUSH1 0x0 PUSH1 0x20 DUP3 ADD SWAP1 POP DUP2 DUP2 SUB PUSH1 0x0 DUP4 ADD MSTORE PUSH2 0x1179 DUP2 PUSH2 0xF15 JUMP JUMPDEST SWAP1 POP SWAP2 SWAP1 POP JUMP JUMPDEST PUSH1 0x0 PUSH1 0x20 DUP3 ADD SWAP1 POP DUP2 DUP2 SUB PUSH1 0x0 DUP4 ADD MSTORE PUSH2 0x1199 DUP2 PUSH2 0xF38 JUMP JUMPDEST SWAP1 POP SWAP2 SWAP1 POP JUMP JUMPDEST PUSH1 0x0 PUSH1 0x20 DUP3 ADD SWAP1 POP PUSH2 0x11B5 PUSH1 0x0 DUP4 ADD DUP5 PUSH2 0xF5B JUMP JUMPDEST SWAP3 SWAP2 POP POP JUMP JUMPDEST PUSH1 0x0 PUSH1 0x40 DUP3 ADD SWAP1 POP PUSH2 0x11D0 PUSH1 0x0 DUP4 ADD DUP6 PUSH2 0xF5B JUMP JUMPDEST PUSH2 0x11DD PUSH1 0x20 DUP4 ADD DUP5 PUSH2 0xF5B JUMP JUMPDEST SWAP4 SWAP3 POP POP POP JUMP JUMPDEST PUSH1 0x0 DUP3 DUP3 MSTORE PUSH1 0x20 DUP3 ADD SWAP1 POP SWAP3 SWAP2 POP POP JUMP JUMPDEST PUSH1 0x0 PUSH2 0x1200 DUP3 PUSH2 0x129B JUMP JUMPDEST SWAP2 POP PUSH2 0x120B DUP4 PUSH2 0x129B JUMP JUMPDEST SWAP3 POP DUP3 PUSH32 0xFFFFFFFFFFFFFFFFFFFFFFFFFFFFFFFFFFFFFFFFFFFFFFFFFFFFFFFFFFFFFFFF SUB DUP3 GT ISZERO PUSH2 0x1240 JUMPI PUSH2 0x123F PUSH2 0x12FF JUMP JUMPDEST JUMPDEST DUP3 DUP3 ADD SWAP1 POP SWAP3 SWAP2 POP POP JUMP JUMPDEST PUSH1 0x0 PUSH2 0x1256 DUP3 PUSH2 0x127B JUMP JUMPDEST SWAP1 POP SWAP2 SWAP1 POP JUMP JUMPDEST PUSH1 0x0 PUSH2 0x1268 DUP3 PUSH2 0x127B JUMP JUMPDEST SWAP1 POP SWAP2 SWAP1 POP JUMP JUMPDEST PUSH1 0x0 DUP2 ISZERO ISZERO SWAP1 POP SWAP2 SWAP1 POP JUMP JUMPDEST PUSH1 0x0 PUSH20 0xFFFFFFFFFFFFFFFFFFFFFFFFFFFFFFFFFFFFFFFF DUP3 AND SWAP1 POP SWAP2 SWAP1 POP JUMP JUMPDEST PUSH1 0x0 DUP2 SWAP1 POP SWAP2 SWAP1 POP JUMP JUMPDEST PUSH1 0x0 PUSH2 0x12B0 DUP3 PUSH2 0x12DB JUMP JUMPDEST SWAP1 POP SWAP2 SWAP1 POP JUMP JUMPDEST PUSH1 0x0 PUSH2 0x12C2 DUP3 PUSH2 0x12C9 JUMP JUMPDEST SWAP1 POP SWAP2 SWAP1 POP JUMP JUMPDEST PUSH1 0x0 PUSH2 0x12D4 DUP3 PUSH2 0x127B JUMP JUMPDEST SWAP1 POP SWAP2 SWAP1 POP JUMP JUMPDEST PUSH1 0x0 PUSH2 0x12E6 DUP3 PUSH2 0x12ED JUMP JUMPDEST SWAP1 POP SWAP2 SWAP1 POP JUMP JUMPDEST PUSH1 0x0 PUSH2 0x12F8 DUP3 PUSH2 0x127B JUMP JUMPDEST SWAP1 POP SWAP2 SWAP1 POP JUMP JUMPDEST PUSH32 0x4E487B7100000000000000000000000000000000000000000000000000000000 PUSH1 0x0 MSTORE PUSH1 0x11 PUSH1 0x4 MSTORE PUSH1 0x24 PUSH1 0x0 REVERT JUMPDEST PUSH32 0x4D7573742062652073656C6C6572000000000000000000000000000000000000 PUSH1 0x0 DUP3 ADD MSTORE POP JUMP JUMPDEST PUSH32 0x4E6F7420616C6C6F77656420746F2062696420616E796D6F7265210000000000 PUSH1 0x0 DUP3 ADD MSTORE POP JUMP JUMPDEST PUSH32 0x4469646E27742073746172740000000000000000000000000000000000000000 PUSH1 0x0 DUP3 ADD MSTORE POP JUMP JUMPDEST PUSH32 0x7374617274696E67000000000000000000000000000000000000000000000000 PUSH1 0x0 DUP3 ADD MSTORE POP JUMP JUMPDEST PUSH32 0x5468652061756374696F6E2068617320656E6465640000000000000000000000 PUSH1 0x0 DUP3 ADD MSTORE POP JUMP JUMPDEST PUSH32 0x7468652061756374696F6E20686173206265656E20656E646564210000000000 PUSH1 0x0 DUP3 ADD MSTORE POP JUMP JUMPDEST PUSH32 0x6E6F7420656E6F75676820455448210000000000000000000000000000000000 PUSH1 0x0 DUP3 ADD MSTORE POP JUMP JUMPDEST PUSH2 0x1456 DUP2 PUSH2 0x124B JUMP JUMPDEST DUP2 EQ PUSH2 0x1461 JUMPI PUSH1 0x0 DUP1 REVERT JUMPDEST POP JUMP INVALID LOG2 PUSH5 0x6970667358 0x22 SLT KECCAK256 0x4D DUP10 0xB4 0x2E CALLVALUE 0x5C PUSH31 0xE780D3E4B3C0DB1032B32C5263E5464F1FEE562E4DAD7FB1B064736F6C6343 STOP ADDMOD DIV STOP CALLER "
				},
				"gasEstimates": {
					"creation": {
						"codeDepositCost": "1054800",
						"executionCost": "infinite",
						"totalCost": "infinite"
					},
					"external": {
						"bid()": "infinite",
						"buyAddress()": "1235",
						"buyPrice()": "1174",
						"duration()": "1197",
						"end()": "infinite",
						"endState()": "1244",
						"endTime()": "1152",
						"nft()": "infinite",
						"nftId()": "infinite",
						"refundAmount(address)": "1581",
						"seller()": "infinite",
						"start()": "infinite",
						"startPrice()": "1217",
						"startState()": "1215",
						"startTime()": "1218",
						"withdraw()": "infinite"
					}
				},
				"methodIdentifiers": {
					"bid()": "1998aeef",
					"buyAddress()": "06f59cef",
					"buyPrice()": "8620410b",
					"duration()": "0fb5a6b4",
					"end()": "efbe1c1c",
					"endState()": "846329f1",
					"endTime()": "3197cbb6",
					"nft()": "47ccca02",
					"nftId()": "c6bc5182",
					"refundAmount(address)": "acde5d28",
					"seller()": "08551a53",
					"start()": "be9a6555",
					"startPrice()": "f1a9af89",
					"startState()": "d33120ae",
					"startTime()": "78e97925",
					"withdraw()": "3ccfd60b"
				}
			},
			"storageLayout": {
				"storage": [
					{
						"astId": 21,
						"contract": "contracts/base/EnglishAuction.sol:EnglishAuction",
						"label": "buyAddress",
						"offset": 0,
						"slot": "0",
						"type": "t_address"
					},
					{
						"astId": 23,
						"contract": "contracts/base/EnglishAuction.sol:EnglishAuction",
						"label": "buyPrice",
						"offset": 0,
						"slot": "1",
						"type": "t_uint256"
					},
					{
						"astId": 25,
						"contract": "contracts/base/EnglishAuction.sol:EnglishAuction",
						"label": "startPrice",
						"offset": 0,
						"slot": "2",
						"type": "t_uint256"
					},
					{
						"astId": 27,
						"contract": "contracts/base/EnglishAuction.sol:EnglishAuction",
						"label": "startTime",
						"offset": 0,
						"slot": "3",
						"type": "t_uint256"
					},
					{
						"astId": 29,
						"contract": "contracts/base/EnglishAuction.sol:EnglishAuction",
						"label": "endTime",
						"offset": 0,
						"slot": "4",
						"type": "t_uint256"
					},
					{
						"astId": 32,
						"contract": "contracts/base/EnglishAuction.sol:EnglishAuction",
						"label": "duration",
						"offset": 0,
						"slot": "5",
						"type": "t_uint256"
					},
					{
						"astId": 36,
						"contract": "contracts/base/EnglishAuction.sol:EnglishAuction",
						"label": "refundAmount",
						"offset": 0,
						"slot": "6",
						"type": "t_mapping(t_address,t_uint256)"
					},
					{
						"astId": 38,
						"contract": "contracts/base/EnglishAuction.sol:EnglishAuction",
						"label": "startState",
						"offset": 0,
						"slot": "7",
						"type": "t_bool"
					},
					{
						"astId": 40,
						"contract": "contracts/base/EnglishAuction.sol:EnglishAuction",
						"label": "endState",
						"offset": 1,
						"slot": "7",
						"type": "t_bool"
					}
				],
				"types": {
					"t_address": {
						"encoding": "inplace",
						"label": "address",
						"numberOfBytes": "20"
					},
					"t_bool": {
						"encoding": "inplace",
						"label": "bool",
						"numberOfBytes": "1"
					},
					"t_mapping(t_address,t_uint256)": {
						"encoding": "mapping",
						"key": "t_address",
						"label": "mapping(address => uint256)",
						"numberOfBytes": "32",
						"value": "t_uint256"
					},
					"t_uint256": {
						"encoding": "inplace",
						"label": "uint256",
						"numberOfBytes": "32"
					}
				}
			},
			"userdoc": {
				"kind": "user",
				"methods": {},
				"version": 1
			}
		}
	}
}