{
	"contracts/base/ERC721Test.sol": {
		"ERC721": {
			"abi": [
				{
					"anonymous": false,
					"inputs": [
						{
							"indexed": true,
							"internalType": "address",
							"name": "owner",
							"type": "address"
						},
						{
							"indexed": true,
							"internalType": "address",
							"name": "approved",
							"type": "address"
						},
						{
							"indexed": true,
							"internalType": "uint256",
							"name": "tokenId",
							"type": "uint256"
						}
					],
					"name": "Approval",
					"type": "event"
				},
				{
					"anonymous": false,
					"inputs": [
						{
							"indexed": true,
							"internalType": "address",
							"name": "owner",
							"type": "address"
						},
						{
							"indexed": true,
							"internalType": "address",
							"name": "operator",
							"type": "address"
						},
						{
							"indexed": false,
							"internalType": "bool",
							"name": "approved",
							"type": "bool"
						}
					],
					"name": "ApprovalForAll",
					"type": "event"
				},
				{
					"anonymous": false,
					"inputs": [
						{
							"indexed": true,
							"internalType": "address",
							"name": "from",
							"type": "address"
						},
						{
							"indexed": true,
							"internalType": "address",
							"name": "to",
							"type": "address"
						},
						{
							"indexed": true,
							"internalType": "uint256",
							"name": "tokenId",
							"type": "uint256"
						}
					],
					"name": "Transfer",
					"type": "event"
				},
				{
					"inputs": [
						{
							"internalType": "address",
							"name": "to",
							"type": "address"
						},
						{
							"internalType": "uint256",
							"name": "tokenId",
							"type": "uint256"
						}
					],
					"name": "approve",
					"outputs": [],
					"stateMutability": "nonpayable",
					"type": "function"
				},
				{
					"inputs": [
						{
							"internalType": "address",
							"name": "owner",
							"type": "address"
						}
					],
					"name": "balanceOf",
					"outputs": [
						{
							"internalType": "uint256",
							"name": "balance",
							"type": "uint256"
						}
					],
					"stateMutability": "view",
					"type": "function"
				},
				{
					"inputs": [
						{
							"internalType": "uint256",
							"name": "tokenId",
							"type": "uint256"
						}
					],
					"name": "getApproved",
					"outputs": [
						{
							"internalType": "address",
							"name": "operator",
							"type": "address"
						}
					],
					"stateMutability": "view",
					"type": "function"
				},
				{
					"inputs": [
						{
							"internalType": "address",
							"name": "",
							"type": "address"
						},
						{
							"internalType": "address",
							"name": "",
							"type": "address"
						}
					],
					"name": "isApprovedForAll",
					"outputs": [
						{
							"internalType": "bool",
							"name": "",
							"type": "bool"
						}
					],
					"stateMutability": "view",
					"type": "function"
				},
				{
					"inputs": [
						{
							"internalType": "uint256",
							"name": "tokenId",
							"type": "uint256"
						}
					],
					"name": "ownerOf",
					"outputs": [
						{
							"internalType": "address",
							"name": "owner",
							"type": "address"
						}
					],
					"stateMutability": "view",
					"type": "function"
				},
				{
					"inputs": [
						{
							"internalType": "address",
							"name": "from",
							"type": "address"
						},
						{
							"internalType": "address",
							"name": "to",
							"type": "address"
						},
						{
							"internalType": "uint256",
							"name": "tokenId",
							"type": "uint256"
						}
					],
					"name": "safeTransferFrom",
					"outputs": [],
					"stateMutability": "nonpayable",
					"type": "function"
				},
				{
					"inputs": [
						{
							"internalType": "address",
							"name": "from",
							"type": "address"
						},
						{
							"internalType": "address",
							"name": "to",
							"type": "address"
						},
						{
							"internalType": "uint256",
							"name": "tokenId",
							"type": "uint256"
						},
						{
							"internalType": "bytes",
							"name": "data",
							"type": "bytes"
						}
					],
					"name": "safeTransferFrom",
					"outputs": [],
					"stateMutability": "nonpayable",
					"type": "function"
				},
				{
					"inputs": [
						{
							"internalType": "address",
							"name": "operator",
							"type": "address"
						},
						{
							"internalType": "bool",
							"name": "_approved",
							"type": "bool"
						}
					],
					"name": "setApprovalForAll",
					"outputs": [],
					"stateMutability": "nonpayable",
					"type": "function"
				},
				{
					"inputs": [
						{
							"internalType": "bytes4",
							"name": "interfaceId",
							"type": "bytes4"
						}
					],
					"name": "supportsInterface",
					"outputs": [
						{
							"internalType": "bool",
							"name": "",
							"type": "bool"
						}
					],
					"stateMutability": "pure",
					"type": "function"
				},
				{
					"inputs": [
						{
							"internalType": "address",
							"name": "from",
							"type": "address"
						},
						{
							"internalType": "address",
							"name": "to",
							"type": "address"
						},
						{
							"internalType": "uint256",
							"name": "tokenId",
							"type": "uint256"
						}
					],
					"name": "transferFrom",
					"outputs": [],
					"stateMutability": "nonpayable",
					"type": "function"
				}
			],
			"devdoc": {
				"kind": "dev",
				"methods": {},
				"version": 1
			},
			"evm": {
				"assembly": "    /* \"contracts/base/ERC721Test.sol\":5540:11164  contract ERC721 is  IERC721{\r... */\n  mstore(0x40, 0x80)\n  callvalue\n  dup1\n  iszero\n  tag_1\n  jumpi\n  0x00\n  dup1\n  revert\ntag_1:\n  pop\n  dataSize(sub_0)\n  dup1\n  dataOffset(sub_0)\n  0x00\n  codecopy\n  0x00\n  return\nstop\n\nsub_0: assembly {\n        /* \"contracts/base/ERC721Test.sol\":5540:11164  contract ERC721 is  IERC721{\r... */\n      mstore(0x40, 0x80)\n      callvalue\n      dup1\n      iszero\n      tag_1\n      jumpi\n      0x00\n      dup1\n      revert\n    tag_1:\n      pop\n      jumpi(tag_2, lt(calldatasize, 0x04))\n      shr(0xe0, calldataload(0x00))\n      dup1\n      0x6352211e\n      gt\n      tag_13\n      jumpi\n      dup1\n      0x6352211e\n      eq\n      tag_8\n      jumpi\n      dup1\n      0x70a08231\n      eq\n      tag_9\n      jumpi\n      dup1\n      0xa22cb465\n      eq\n      tag_10\n      jumpi\n      dup1\n      0xb88d4fde\n      eq\n      tag_11\n      jumpi\n      dup1\n      0xe985e9c5\n      eq\n      tag_12\n      jumpi\n      jump(tag_2)\n    tag_13:\n      dup1\n      0x01ffc9a7\n      eq\n      tag_3\n      jumpi\n      dup1\n      0x081812fc\n      eq\n      tag_4\n      jumpi\n      dup1\n      0x095ea7b3\n      eq\n      tag_5\n      jumpi\n      dup1\n      0x23b872dd\n      eq\n      tag_6\n      jumpi\n      dup1\n      0x42842e0e\n      eq\n      tag_7\n      jumpi\n    tag_2:\n      0x00\n      dup1\n      revert\n        /* \"contracts/base/ERC721Test.sol\":5913:6110  function supportsInterface(bytes4 interfaceId) override  external pure  returns (bool){\r... */\n    tag_3:\n      tag_14\n      0x04\n      dup1\n      calldatasize\n      sub\n      dup2\n      add\n      swap1\n      tag_15\n      swap2\n      swap1\n      tag_16\n      jump\t// in\n    tag_15:\n      tag_17\n      jump\t// in\n    tag_14:\n      mload(0x40)\n      tag_18\n      swap2\n      swap1\n      tag_19\n      jump\t// in\n    tag_18:\n      mload(0x40)\n      dup1\n      swap2\n      sub\n      swap1\n      return\n        /* \"contracts/base/ERC721Test.sol\":9853:10056  function getApproved(uint256 tokenId) override external view returns (address operator){\r... */\n    tag_4:\n      tag_20\n      0x04\n      dup1\n      calldatasize\n      sub\n      dup2\n      add\n      swap1\n      tag_21\n      swap2\n      swap1\n      tag_22\n      jump\t// in\n    tag_21:\n      tag_23\n      jump\t// in\n    tag_20:\n      mload(0x40)\n      tag_24\n      swap2\n      swap1\n      tag_25\n      jump\t// in\n    tag_24:\n      mload(0x40)\n      dup1\n      swap2\n      sub\n      swap1\n      return\n        /* \"contracts/base/ERC721Test.sol\":9350:9653  function approve(address to, uint256 tokenId) override external{\r... */\n    tag_5:\n      tag_26\n      0x04\n      dup1\n      calldatasize\n      sub\n      dup2\n      add\n      swap1\n      tag_27\n      swap2\n      swap1\n      tag_28\n      jump\t// in\n    tag_27:\n      tag_29\n      jump\t// in\n    tag_26:\n      stop\n        /* \"contracts/base/ERC721Test.sol\":8339:8905  function transferFrom(address from, address to, uint256 tokenId) override  public {\r... */\n    tag_6:\n      tag_30\n      0x04\n      dup1\n      calldatasize\n      sub\n      dup2\n      add\n      swap1\n      tag_31\n      swap2\n      swap1\n      tag_32\n      jump\t// in\n    tag_31:\n      tag_33\n      jump\t// in\n    tag_30:\n      stop\n        /* \"contracts/base/ERC721Test.sol\":6909:7237  function safeTransferFrom(address from, address to, uint256 tokenId) override external{\r... */\n    tag_7:\n      tag_34\n      0x04\n      dup1\n      calldatasize\n      sub\n      dup2\n      add\n      swap1\n      tag_35\n      swap2\n      swap1\n      tag_32\n      jump\t// in\n    tag_35:\n      tag_36\n      jump\t// in\n    tag_34:\n      stop\n        /* \"contracts/base/ERC721Test.sol\":6672:6899  function ownerOf(uint256 tokenId) override public  view returns (address owner){\r... */\n    tag_8:\n      tag_37\n      0x04\n      dup1\n      calldatasize\n      sub\n      dup2\n      add\n      swap1\n      tag_38\n      swap2\n      swap1\n      tag_22\n      jump\t// in\n    tag_38:\n      tag_39\n      jump\t// in\n    tag_37:\n      mload(0x40)\n      tag_40\n      swap2\n      swap1\n      tag_25\n      jump\t// in\n    tag_40:\n      mload(0x40)\n      dup1\n      swap2\n      sub\n      swap1\n      return\n        /* \"contracts/base/ERC721Test.sol\":6303:6495  function balanceOf(address owner) override external view returns (uint256 balance){\r... */\n    tag_9:\n      tag_41\n      0x04\n      dup1\n      calldatasize\n      sub\n      dup2\n      add\n      swap1\n      tag_42\n      swap2\n      swap1\n      tag_43\n      jump\t// in\n    tag_42:\n      tag_44\n      jump\t// in\n    tag_41:\n      mload(0x40)\n      tag_45\n      swap2\n      swap1\n      tag_46\n      jump\t// in\n    tag_45:\n      mload(0x40)\n      dup1\n      swap2\n      sub\n      swap1\n      return\n        /* \"contracts/base/ERC721Test.sol\":10295:10571  function setApprovalForAll(address operator, bool _approved) override external{\r... */\n    tag_10:\n      tag_47\n      0x04\n      dup1\n      calldatasize\n      sub\n      dup2\n      add\n      swap1\n      tag_48\n      swap2\n      swap1\n      tag_49\n      jump\t// in\n    tag_48:\n      tag_50\n      jump\t// in\n    tag_47:\n      stop\n        /* \"contracts/base/ERC721Test.sol\":7652:8016  function safeTransferFrom(address from, address to, uint256 tokenId, bytes calldata data) override external{\r... */\n    tag_11:\n      tag_51\n      0x04\n      dup1\n      calldatasize\n      sub\n      dup2\n      add\n      swap1\n      tag_52\n      swap2\n      swap1\n      tag_53\n      jump\t// in\n    tag_52:\n      tag_54\n      jump\t// in\n    tag_51:\n      stop\n        /* \"contracts/base/ERC721Test.sol\":5755:5833  mapping(address => mapping(address => bool)) override  public isApprovedForAll */\n    tag_12:\n      tag_55\n      0x04\n      dup1\n      calldatasize\n      sub\n      dup2\n      add\n      swap1\n      tag_56\n      swap2\n      swap1\n      tag_57\n      jump\t// in\n    tag_56:\n      tag_58\n      jump\t// in\n    tag_55:\n      mload(0x40)\n      tag_59\n      swap2\n      swap1\n      tag_19\n      jump\t// in\n    tag_59:\n      mload(0x40)\n      dup1\n      swap2\n      sub\n      swap1\n      return\n        /* \"contracts/base/ERC721Test.sol\":5913:6110  function supportsInterface(bytes4 interfaceId) override  external pure  returns (bool){\r... */\n    tag_17:\n        /* \"contracts/base/ERC721Test.sol\":5994:5998  bool */\n      0x00\n        /* \"contracts/base/ERC721Test.sol\":6032:6057  type(IERC721).interfaceId */\n      0x80ac58cd00000000000000000000000000000000000000000000000000000000\n        /* \"contracts/base/ERC721Test.sol\":6017:6057  interfaceId == type(IERC721).interfaceId */\n      not(0xffffffffffffffffffffffffffffffffffffffffffffffffffffffff)\n      and\n        /* \"contracts/base/ERC721Test.sol\":6017:6028  interfaceId */\n      dup3\n        /* \"contracts/base/ERC721Test.sol\":6017:6057  interfaceId == type(IERC721).interfaceId */\n      not(0xffffffffffffffffffffffffffffffffffffffffffffffffffffffff)\n      and\n      eq\n        /* \"contracts/base/ERC721Test.sol\":6017:6101  interfaceId == type(IERC721).interfaceId || interfaceId == type(IERC165).interfaceId */\n      dup1\n      tag_61\n      jumpi\n      pop\n        /* \"contracts/base/ERC721Test.sol\":6076:6101  type(IERC165).interfaceId */\n      0x01ffc9a700000000000000000000000000000000000000000000000000000000\n        /* \"contracts/base/ERC721Test.sol\":6061:6101  interfaceId == type(IERC165).interfaceId */\n      not(0xffffffffffffffffffffffffffffffffffffffffffffffffffffffff)\n      and\n        /* \"contracts/base/ERC721Test.sol\":6061:6072  interfaceId */\n      dup3\n        /* \"contracts/base/ERC721Test.sol\":6061:6101  interfaceId == type(IERC165).interfaceId */\n      not(0xffffffffffffffffffffffffffffffffffffffffffffffffffffffff)\n      and\n      eq\n        /* \"contracts/base/ERC721Test.sol\":6017:6101  interfaceId == type(IERC721).interfaceId || interfaceId == type(IERC165).interfaceId */\n    tag_61:\n        /* \"contracts/base/ERC721Test.sol\":6010:6101  return interfaceId == type(IERC721).interfaceId || interfaceId == type(IERC165).interfaceId */\n      swap1\n      pop\n        /* \"contracts/base/ERC721Test.sol\":5913:6110  function supportsInterface(bytes4 interfaceId) override  external pure  returns (bool){\r... */\n      swap2\n      swap1\n      pop\n      jump\t// out\n        /* \"contracts/base/ERC721Test.sol\":9853:10056  function getApproved(uint256 tokenId) override external view returns (address operator){\r... */\n    tag_23:\n        /* \"contracts/base/ERC721Test.sol\":9923:9939  address operator */\n      0x00\n        /* \"contracts/base/ERC721Test.sol\":9987:9988  0 */\n      dup1\n        /* \"contracts/base/ERC721Test.sol\":9959:9989  _owners[tokenId] != address(0) */\n      0xffffffffffffffffffffffffffffffffffffffff\n      and\n        /* \"contracts/base/ERC721Test.sol\":9959:9966  _owners */\n      0x01\n        /* \"contracts/base/ERC721Test.sol\":9959:9975  _owners[tokenId] */\n      0x00\n        /* \"contracts/base/ERC721Test.sol\":9967:9974  tokenId */\n      dup5\n        /* \"contracts/base/ERC721Test.sol\":9959:9975  _owners[tokenId] */\n      dup2\n      mstore\n      0x20\n      add\n      swap1\n      dup2\n      mstore\n      0x20\n      add\n      0x00\n      keccak256\n      0x00\n      swap1\n      sload\n      swap1\n      0x0100\n      exp\n      swap1\n      div\n      0xffffffffffffffffffffffffffffffffffffffff\n      and\n        /* \"contracts/base/ERC721Test.sol\":9959:9989  _owners[tokenId] != address(0) */\n      0xffffffffffffffffffffffffffffffffffffffff\n      and\n      eq\n      iszero\n        /* \"contracts/base/ERC721Test.sol\":9951:10012  require(_owners[tokenId] != address(0), \"ERC, address is  0\") */\n      tag_63\n      jumpi\n      mload(0x40)\n      0x08c379a000000000000000000000000000000000000000000000000000000000\n      dup2\n      mstore\n      0x04\n      add\n      tag_64\n      swap1\n      tag_65\n      jump\t// in\n    tag_64:\n      mload(0x40)\n      dup1\n      swap2\n      sub\n      swap1\n      revert\n    tag_63:\n        /* \"contracts/base/ERC721Test.sol\":10030:10039  _approves */\n      0x03\n        /* \"contracts/base/ERC721Test.sol\":10030:10048  _approves[tokenId] */\n      0x00\n        /* \"contracts/base/ERC721Test.sol\":10040:10047  tokenId */\n      dup4\n        /* \"contracts/base/ERC721Test.sol\":10030:10048  _approves[tokenId] */\n      dup2\n      mstore\n      0x20\n      add\n      swap1\n      dup2\n      mstore\n      0x20\n      add\n      0x00\n      keccak256\n      0x00\n      swap1\n      sload\n      swap1\n      0x0100\n      exp\n      swap1\n      div\n      0xffffffffffffffffffffffffffffffffffffffff\n      and\n        /* \"contracts/base/ERC721Test.sol\":10023:10048  return _approves[tokenId] */\n      swap1\n      pop\n        /* \"contracts/base/ERC721Test.sol\":9853:10056  function getApproved(uint256 tokenId) override external view returns (address operator){\r... */\n      swap2\n      swap1\n      pop\n      jump\t// out\n        /* \"contracts/base/ERC721Test.sol\":9350:9653  function approve(address to, uint256 tokenId) override external{\r... */\n    tag_29:\n        /* \"contracts/base/ERC721Test.sol\":9428:9441  address owner */\n      0x00\n        /* \"contracts/base/ERC721Test.sol\":9445:9452  _owners */\n      0x01\n        /* \"contracts/base/ERC721Test.sol\":9445:9461  _owners[tokenId] */\n      0x00\n        /* \"contracts/base/ERC721Test.sol\":9453:9460  tokenId */\n      dup4\n        /* \"contracts/base/ERC721Test.sol\":9445:9461  _owners[tokenId] */\n      dup2\n      mstore\n      0x20\n      add\n      swap1\n      dup2\n      mstore\n      0x20\n      add\n      0x00\n      keccak256\n      0x00\n      swap1\n      sload\n      swap1\n      0x0100\n      exp\n      swap1\n      div\n      0xffffffffffffffffffffffffffffffffffffffff\n      and\n        /* \"contracts/base/ERC721Test.sol\":9428:9461  address owner =  _owners[tokenId] */\n      swap1\n      pop\n        /* \"contracts/base/ERC721Test.sol\":9498:9503  owner */\n      dup1\n        /* \"contracts/base/ERC721Test.sol\":9484:9503  msg.sender == owner */\n      0xffffffffffffffffffffffffffffffffffffffff\n      and\n        /* \"contracts/base/ERC721Test.sol\":9484:9494  msg.sender */\n      caller\n        /* \"contracts/base/ERC721Test.sol\":9484:9503  msg.sender == owner */\n      0xffffffffffffffffffffffffffffffffffffffff\n      and\n      eq\n        /* \"contracts/base/ERC721Test.sol\":9484:9542  msg.sender == owner || isApprovedForAll[owner][msg.sender] */\n      dup1\n      tag_67\n      jumpi\n      pop\n        /* \"contracts/base/ERC721Test.sol\":9507:9523  isApprovedForAll */\n      0x02\n        /* \"contracts/base/ERC721Test.sol\":9507:9530  isApprovedForAll[owner] */\n      0x00\n        /* \"contracts/base/ERC721Test.sol\":9524:9529  owner */\n      dup3\n        /* \"contracts/base/ERC721Test.sol\":9507:9530  isApprovedForAll[owner] */\n      0xffffffffffffffffffffffffffffffffffffffff\n      and\n      0xffffffffffffffffffffffffffffffffffffffff\n      and\n      dup2\n      mstore\n      0x20\n      add\n      swap1\n      dup2\n      mstore\n      0x20\n      add\n      0x00\n      keccak256\n        /* \"contracts/base/ERC721Test.sol\":9507:9542  isApprovedForAll[owner][msg.sender] */\n      0x00\n        /* \"contracts/base/ERC721Test.sol\":9531:9541  msg.sender */\n      caller\n        /* \"contracts/base/ERC721Test.sol\":9507:9542  isApprovedForAll[owner][msg.sender] */\n      0xffffffffffffffffffffffffffffffffffffffff\n      and\n      0xffffffffffffffffffffffffffffffffffffffff\n      and\n      dup2\n      mstore\n      0x20\n      add\n      swap1\n      dup2\n      mstore\n      0x20\n      add\n      0x00\n      keccak256\n      0x00\n      swap1\n      sload\n      swap1\n      0x0100\n      exp\n      swap1\n      div\n      0xff\n      and\n        /* \"contracts/base/ERC721Test.sol\":9484:9542  msg.sender == owner || isApprovedForAll[owner][msg.sender] */\n    tag_67:\n        /* \"contracts/base/ERC721Test.sol\":9476:9561  require(msg.sender == owner || isApprovedForAll[owner][msg.sender], \"not authorized\") */\n      tag_68\n      jumpi\n      mload(0x40)\n      0x08c379a000000000000000000000000000000000000000000000000000000000\n      dup2\n      mstore\n      0x04\n      add\n      tag_69\n      swap1\n      tag_70\n      jump\t// in\n    tag_69:\n      mload(0x40)\n      dup1\n      swap2\n      sub\n      swap1\n      revert\n    tag_68:\n        /* \"contracts/base/ERC721Test.sol\":9597:9599  to */\n      dup3\n        /* \"contracts/base/ERC721Test.sol\":9576:9585  _approves */\n      0x03\n        /* \"contracts/base/ERC721Test.sol\":9576:9594  _approves[tokenId] */\n      0x00\n        /* \"contracts/base/ERC721Test.sol\":9586:9593  tokenId */\n      dup5\n        /* \"contracts/base/ERC721Test.sol\":9576:9594  _approves[tokenId] */\n      dup2\n      mstore\n      0x20\n      add\n      swap1\n      dup2\n      mstore\n      0x20\n      add\n      0x00\n      keccak256\n      0x00\n        /* \"contracts/base/ERC721Test.sol\":9576:9599  _approves[tokenId] = to */\n      0x0100\n      exp\n      dup2\n      sload\n      dup2\n      0xffffffffffffffffffffffffffffffffffffffff\n      mul\n      not\n      and\n      swap1\n      dup4\n      0xffffffffffffffffffffffffffffffffffffffff\n      and\n      mul\n      or\n      swap1\n      sstore\n      pop\n        /* \"contracts/base/ERC721Test.sol\":9637:9644  tokenId */\n      dup2\n        /* \"contracts/base/ERC721Test.sol\":9634:9636  to */\n      dup4\n        /* \"contracts/base/ERC721Test.sol\":9619:9645  Approval(owner,to,tokenId) */\n      0xffffffffffffffffffffffffffffffffffffffff\n      and\n        /* \"contracts/base/ERC721Test.sol\":9628:9633  owner */\n      dup3\n        /* \"contracts/base/ERC721Test.sol\":9619:9645  Approval(owner,to,tokenId) */\n      0xffffffffffffffffffffffffffffffffffffffff\n      and\n      0x8c5be1e5ebec7d5bd14f71427d1e84f3dd0314c0f7b2291e5b200ac8c7c3b925\n      mload(0x40)\n      mload(0x40)\n      dup1\n      swap2\n      sub\n      swap1\n      log4\n        /* \"contracts/base/ERC721Test.sol\":9350:9653  function approve(address to, uint256 tokenId) override external{\r... */\n      pop\n      pop\n      pop\n      jump\t// out\n        /* \"contracts/base/ERC721Test.sol\":8339:8905  function transferFrom(address from, address to, uint256 tokenId) override  public {\r... */\n    tag_33:\n        /* \"contracts/base/ERC721Test.sol\":8456:8457  0 */\n      0x00\n        /* \"contracts/base/ERC721Test.sol\":8440:8458  from != address(0) */\n      0xffffffffffffffffffffffffffffffffffffffff\n      and\n        /* \"contracts/base/ERC721Test.sol\":8440:8444  from */\n      dup4\n        /* \"contracts/base/ERC721Test.sol\":8440:8458  from != address(0) */\n      0xffffffffffffffffffffffffffffffffffffffff\n      and\n      eq\n      iszero\n        /* \"contracts/base/ERC721Test.sol\":8440:8478  from != address(0) && to != address(0) */\n      dup1\n      iszero\n      tag_72\n      jumpi\n      pop\n        /* \"contracts/base/ERC721Test.sol\":8476:8477  0 */\n      0x00\n        /* \"contracts/base/ERC721Test.sol\":8462:8478  to != address(0) */\n      0xffffffffffffffffffffffffffffffffffffffff\n      and\n        /* \"contracts/base/ERC721Test.sol\":8462:8464  to */\n      dup3\n        /* \"contracts/base/ERC721Test.sol\":8462:8478  to != address(0) */\n      0xffffffffffffffffffffffffffffffffffffffff\n      and\n      eq\n      iszero\n        /* \"contracts/base/ERC721Test.sol\":8440:8478  from != address(0) && to != address(0) */\n    tag_72:\n        /* \"contracts/base/ERC721Test.sol\":8432:8515  require(from != address(0) && to != address(0), \"address or toAddress zero is not\") */\n      tag_73\n      jumpi\n      mload(0x40)\n      0x08c379a000000000000000000000000000000000000000000000000000000000\n      dup2\n      mstore\n      0x04\n      add\n      tag_74\n      swap1\n      tag_75\n      jump\t// in\n    tag_74:\n      mload(0x40)\n      dup1\n      swap2\n      sub\n      swap1\n      revert\n    tag_73:\n        /* \"contracts/base/ERC721Test.sol\":8545:8546  0 */\n      0x00\n        /* \"contracts/base/ERC721Test.sol\":8534:8541  tokenId */\n      dup2\n        /* \"contracts/base/ERC721Test.sol\":8534:8546  tokenId != 0 */\n      eq\n      iszero\n        /* \"contracts/base/ERC721Test.sol\":8526:8563  require(tokenId != 0, \"tokenId zero\") */\n      tag_76\n      jumpi\n      mload(0x40)\n      0x08c379a000000000000000000000000000000000000000000000000000000000\n      dup2\n      mstore\n      0x04\n      add\n      tag_77\n      swap1\n      tag_78\n      jump\t// in\n    tag_77:\n      mload(0x40)\n      dup1\n      swap2\n      sub\n      swap1\n      revert\n    tag_76:\n        /* \"contracts/base/ERC721Test.sol\":8590:8597  _owners */\n      0x01\n        /* \"contracts/base/ERC721Test.sol\":8590:8606  _owners[tokenId] */\n      0x00\n        /* \"contracts/base/ERC721Test.sol\":8598:8605  tokenId */\n      dup3\n        /* \"contracts/base/ERC721Test.sol\":8590:8606  _owners[tokenId] */\n      dup2\n      mstore\n      0x20\n      add\n      swap1\n      dup2\n      mstore\n      0x20\n      add\n      0x00\n      keccak256\n      0x00\n      swap1\n      sload\n      swap1\n      0x0100\n      exp\n      swap1\n      div\n      0xffffffffffffffffffffffffffffffffffffffff\n      and\n        /* \"contracts/base/ERC721Test.sol\":8582:8606  from == _owners[tokenId] */\n      0xffffffffffffffffffffffffffffffffffffffff\n      and\n        /* \"contracts/base/ERC721Test.sol\":8582:8586  from */\n      dup4\n        /* \"contracts/base/ERC721Test.sol\":8582:8606  from == _owners[tokenId] */\n      0xffffffffffffffffffffffffffffffffffffffff\n      and\n      eq\n        /* \"contracts/base/ERC721Test.sol\":8574:8650  require(from == _owners[tokenId], \"owner of tokenId not match fromAddress \") */\n      tag_79\n      jumpi\n      mload(0x40)\n      0x08c379a000000000000000000000000000000000000000000000000000000000\n      dup2\n      mstore\n      0x04\n      add\n      tag_80\n      swap1\n      tag_81\n      jump\t// in\n    tag_80:\n      mload(0x40)\n      dup1\n      swap2\n      sub\n      swap1\n      revert\n    tag_79:\n        /* \"contracts/base/ERC721Test.sol\":8669:8714  _isApprovedOrOwner(from, msg.sender, tokenId) */\n      tag_82\n        /* \"contracts/base/ERC721Test.sol\":8688:8692  from */\n      dup4\n        /* \"contracts/base/ERC721Test.sol\":8694:8704  msg.sender */\n      caller\n        /* \"contracts/base/ERC721Test.sol\":8706:8713  tokenId */\n      dup4\n        /* \"contracts/base/ERC721Test.sol\":8669:8687  _isApprovedOrOwner */\n      tag_83\n        /* \"contracts/base/ERC721Test.sol\":8669:8714  _isApprovedOrOwner(from, msg.sender, tokenId) */\n      jump\t// in\n    tag_82:\n        /* \"contracts/base/ERC721Test.sol\":8661:8732  require(_isApprovedOrOwner(from, msg.sender, tokenId), \"not authrized\") */\n      tag_84\n      jumpi\n      mload(0x40)\n      0x08c379a000000000000000000000000000000000000000000000000000000000\n      dup2\n      mstore\n      0x04\n      add\n      tag_85\n      swap1\n      tag_86\n      jump\t// in\n    tag_85:\n      mload(0x40)\n      dup1\n      swap2\n      sub\n      swap1\n      revert\n    tag_84:\n        /* \"contracts/base/ERC721Test.sol\":8745:8753  balances */\n      0x00\n        /* \"contracts/base/ERC721Test.sol\":8745:8759  balances[from] */\n      dup1\n        /* \"contracts/base/ERC721Test.sol\":8754:8758  from */\n      dup5\n        /* \"contracts/base/ERC721Test.sol\":8745:8759  balances[from] */\n      0xffffffffffffffffffffffffffffffffffffffff\n      and\n      0xffffffffffffffffffffffffffffffffffffffff\n      and\n      dup2\n      mstore\n      0x20\n      add\n      swap1\n      dup2\n      mstore\n      0x20\n      add\n      0x00\n      keccak256\n      0x00\n        /* \"contracts/base/ERC721Test.sol\":8745:8761  balances[from]-- */\n      dup2\n      sload\n      dup1\n      swap3\n      swap2\n      swap1\n      tag_87\n      swap1\n      tag_88\n      jump\t// in\n    tag_87:\n      swap2\n      swap1\n      pop\n      sstore\n      pop\n        /* \"contracts/base/ERC721Test.sol\":8772:8780  balances */\n      0x00\n        /* \"contracts/base/ERC721Test.sol\":8772:8784  balances[to] */\n      dup1\n        /* \"contracts/base/ERC721Test.sol\":8781:8783  to */\n      dup4\n        /* \"contracts/base/ERC721Test.sol\":8772:8784  balances[to] */\n      0xffffffffffffffffffffffffffffffffffffffff\n      and\n      0xffffffffffffffffffffffffffffffffffffffff\n      and\n      dup2\n      mstore\n      0x20\n      add\n      swap1\n      dup2\n      mstore\n      0x20\n      add\n      0x00\n      keccak256\n      0x00\n        /* \"contracts/base/ERC721Test.sol\":8772:8786  balances[to]++ */\n      dup2\n      sload\n      dup1\n      swap3\n      swap2\n      swap1\n      tag_89\n      swap1\n      tag_90\n      jump\t// in\n    tag_89:\n      swap2\n      swap1\n      pop\n      sstore\n      pop\n        /* \"contracts/base/ERC721Test.sol\":8816:8818  to */\n      dup2\n        /* \"contracts/base/ERC721Test.sol\":8797:8804  _owners */\n      0x01\n        /* \"contracts/base/ERC721Test.sol\":8797:8813  _owners[tokenId] */\n      0x00\n        /* \"contracts/base/ERC721Test.sol\":8805:8812  tokenId */\n      dup4\n        /* \"contracts/base/ERC721Test.sol\":8797:8813  _owners[tokenId] */\n      dup2\n      mstore\n      0x20\n      add\n      swap1\n      dup2\n      mstore\n      0x20\n      add\n      0x00\n      keccak256\n      0x00\n        /* \"contracts/base/ERC721Test.sol\":8797:8818  _owners[tokenId] = to */\n      0x0100\n      exp\n      dup2\n      sload\n      dup2\n      0xffffffffffffffffffffffffffffffffffffffff\n      mul\n      not\n      and\n      swap1\n      dup4\n      0xffffffffffffffffffffffffffffffffffffffff\n      and\n      mul\n      or\n      swap1\n      sstore\n      pop\n        /* \"contracts/base/ERC721Test.sol\":8836:8845  _approves */\n      0x03\n        /* \"contracts/base/ERC721Test.sol\":8836:8854  _approves[tokenId] */\n      0x00\n        /* \"contracts/base/ERC721Test.sol\":8846:8853  tokenId */\n      dup3\n        /* \"contracts/base/ERC721Test.sol\":8836:8854  _approves[tokenId] */\n      dup2\n      mstore\n      0x20\n      add\n      swap1\n      dup2\n      mstore\n      0x20\n      add\n      0x00\n      keccak256\n      0x00\n        /* \"contracts/base/ERC721Test.sol\":8829:8854  delete _approves[tokenId] */\n      0x0100\n      exp\n      dup2\n      sload\n      swap1\n      0xffffffffffffffffffffffffffffffffffffffff\n      mul\n      not\n      and\n      swap1\n      sstore\n        /* \"contracts/base/ERC721Test.sol\":8889:8896  tokenId */\n      dup1\n        /* \"contracts/base/ERC721Test.sol\":8885:8887  to */\n      dup3\n        /* \"contracts/base/ERC721Test.sol\":8870:8897  Transfer(from, to, tokenId) */\n      0xffffffffffffffffffffffffffffffffffffffff\n      and\n        /* \"contracts/base/ERC721Test.sol\":8879:8883  from */\n      dup5\n        /* \"contracts/base/ERC721Test.sol\":8870:8897  Transfer(from, to, tokenId) */\n      0xffffffffffffffffffffffffffffffffffffffff\n      and\n      0xddf252ad1be2c89b69c2b068fc378daa952ba7f163c4a11628f55a4df523b3ef\n      mload(0x40)\n      mload(0x40)\n      dup1\n      swap2\n      sub\n      swap1\n      log4\n        /* \"contracts/base/ERC721Test.sol\":8339:8905  function transferFrom(address from, address to, uint256 tokenId) override  public {\r... */\n      pop\n      pop\n      pop\n      jump\t// out\n        /* \"contracts/base/ERC721Test.sol\":6909:7237  function safeTransferFrom(address from, address to, uint256 tokenId) override external{\r... */\n    tag_36:\n        /* \"contracts/base/ERC721Test.sol\":7006:7037  transferFrom(from, to, tokenId) */\n      tag_92\n        /* \"contracts/base/ERC721Test.sol\":7019:7023  from */\n      dup4\n        /* \"contracts/base/ERC721Test.sol\":7025:7027  to */\n      dup4\n        /* \"contracts/base/ERC721Test.sol\":7029:7036  tokenId */\n      dup4\n        /* \"contracts/base/ERC721Test.sol\":7006:7018  transferFrom */\n      tag_33\n        /* \"contracts/base/ERC721Test.sol\":7006:7037  transferFrom(from, to, tokenId) */\n      jump\t// in\n    tag_92:\n        /* \"contracts/base/ERC721Test.sol\":7074:7075  0 */\n      0x00\n        /* \"contracts/base/ERC721Test.sol\":7056:7058  to */\n      dup3\n        /* \"contracts/base/ERC721Test.sol\":7056:7070  to.code.length */\n      0xffffffffffffffffffffffffffffffffffffffff\n      and\n      extcodesize\n        /* \"contracts/base/ERC721Test.sol\":7056:7075  to.code.length == 0 */\n      eq\n        /* \"contracts/base/ERC721Test.sol\":7056:7209  to.code.length == 0 ||\r... */\n      dup1\n      tag_93\n      jumpi\n      pop\n        /* \"contracts/base/ERC721Test.sol\":7168:7209  IERC721Receiver.onERC721Received.selector */\n      shl(0xe0, 0x150b7a02)\n        /* \"contracts/base/ERC721Test.sol\":7088:7209  IERC721Receiver(to).onERC721Received(msg.sender, from, tokenId, \"\") ==\r... */\n      not(0xffffffffffffffffffffffffffffffffffffffffffffffffffffffff)\n      and\n        /* \"contracts/base/ERC721Test.sol\":7104:7106  to */\n      dup3\n        /* \"contracts/base/ERC721Test.sol\":7088:7124  IERC721Receiver(to).onERC721Received */\n      0xffffffffffffffffffffffffffffffffffffffff\n      and\n      0x150b7a02\n        /* \"contracts/base/ERC721Test.sol\":7125:7135  msg.sender */\n      caller\n        /* \"contracts/base/ERC721Test.sol\":7137:7141  from */\n      dup7\n        /* \"contracts/base/ERC721Test.sol\":7143:7150  tokenId */\n      dup6\n        /* \"contracts/base/ERC721Test.sol\":7088:7155  IERC721Receiver(to).onERC721Received(msg.sender, from, tokenId, \"\") */\n      mload(0x40)\n      dup5\n      0xffffffff\n      and\n      0xe0\n      shl\n      dup2\n      mstore\n      0x04\n      add\n      tag_94\n      swap4\n      swap3\n      swap2\n      swap1\n      tag_95\n      jump\t// in\n    tag_94:\n      0x20\n      mload(0x40)\n      dup1\n      dup4\n      sub\n      dup2\n      0x00\n      dup8\n      dup1\n      extcodesize\n      iszero\n      dup1\n      iszero\n      tag_96\n      jumpi\n      0x00\n      dup1\n      revert\n    tag_96:\n      pop\n      gas\n      call\n      iszero\n      dup1\n      iszero\n      tag_98\n      jumpi\n      returndatasize\n      0x00\n      dup1\n      returndatacopy\n      revert(0x00, returndatasize)\n    tag_98:\n      pop\n      pop\n      pop\n      pop\n      mload(0x40)\n      returndatasize\n      not(0x1f)\n      0x1f\n      dup3\n      add\n      and\n      dup3\n      add\n      dup1\n      0x40\n      mstore\n      pop\n      dup2\n      add\n      swap1\n      tag_99\n      swap2\n      swap1\n      tag_100\n      jump\t// in\n    tag_99:\n        /* \"contracts/base/ERC721Test.sol\":7088:7209  IERC721Receiver(to).onERC721Received(msg.sender, from, tokenId, \"\") ==\r... */\n      not(0xffffffffffffffffffffffffffffffffffffffffffffffffffffffff)\n      and\n      eq\n        /* \"contracts/base/ERC721Test.sol\":7056:7209  to.code.length == 0 ||\r... */\n    tag_93:\n        /* \"contracts/base/ERC721Test.sol\":7048:7229  require(to.code.length == 0 ||\r... */\n      tag_101\n      jumpi\n      mload(0x40)\n      0x08c379a000000000000000000000000000000000000000000000000000000000\n      dup2\n      mstore\n      0x04\n      add\n      tag_102\n      swap1\n      tag_103\n      jump\t// in\n    tag_102:\n      mload(0x40)\n      dup1\n      swap2\n      sub\n      swap1\n      revert\n    tag_101:\n        /* \"contracts/base/ERC721Test.sol\":6909:7237  function safeTransferFrom(address from, address to, uint256 tokenId) override external{\r... */\n      pop\n      pop\n      pop\n      jump\t// out\n        /* \"contracts/base/ERC721Test.sol\":6672:6899  function ownerOf(uint256 tokenId) override public  view returns (address owner){\r... */\n    tag_39:\n        /* \"contracts/base/ERC721Test.sol\":6737:6750  address owner */\n      0x00\n        /* \"contracts/base/ERC721Test.sol\":6766:6779  address adder */\n      dup1\n        /* \"contracts/base/ERC721Test.sol\":6782:6789  _owners */\n      0x01\n        /* \"contracts/base/ERC721Test.sol\":6782:6798  _owners[tokenId] */\n      0x00\n        /* \"contracts/base/ERC721Test.sol\":6790:6797  tokenId */\n      dup5\n        /* \"contracts/base/ERC721Test.sol\":6782:6798  _owners[tokenId] */\n      dup2\n      mstore\n      0x20\n      add\n      swap1\n      dup2\n      mstore\n      0x20\n      add\n      0x00\n      keccak256\n      0x00\n      swap1\n      sload\n      swap1\n      0x0100\n      exp\n      swap1\n      div\n      0xffffffffffffffffffffffffffffffffffffffff\n      and\n        /* \"contracts/base/ERC721Test.sol\":6766:6798  address adder = _owners[tokenId] */\n      swap1\n      pop\n        /* \"contracts/base/ERC721Test.sol\":6838:6839  0 */\n      0x00\n        /* \"contracts/base/ERC721Test.sol\":6821:6840  adder != address(0) */\n      0xffffffffffffffffffffffffffffffffffffffff\n      and\n        /* \"contracts/base/ERC721Test.sol\":6821:6826  adder */\n      dup2\n        /* \"contracts/base/ERC721Test.sol\":6821:6840  adder != address(0) */\n      0xffffffffffffffffffffffffffffffffffffffff\n      and\n      eq\n      iszero\n        /* \"contracts/base/ERC721Test.sol\":6813:6864  require(adder != address(0), \"address zero is not\") */\n      tag_105\n      jumpi\n      mload(0x40)\n      0x08c379a000000000000000000000000000000000000000000000000000000000\n      dup2\n      mstore\n      0x04\n      add\n      tag_106\n      swap1\n      tag_107\n      jump\t// in\n    tag_106:\n      mload(0x40)\n      dup1\n      swap2\n      sub\n      swap1\n      revert\n    tag_105:\n        /* \"contracts/base/ERC721Test.sol\":6886:6891  adder */\n      dup1\n        /* \"contracts/base/ERC721Test.sol\":6879:6891  return adder */\n      swap2\n      pop\n      pop\n        /* \"contracts/base/ERC721Test.sol\":6672:6899  function ownerOf(uint256 tokenId) override public  view returns (address owner){\r... */\n      swap2\n      swap1\n      pop\n      jump\t// out\n        /* \"contracts/base/ERC721Test.sol\":6303:6495  function balanceOf(address owner) override external view returns (uint256 balance){\r... */\n    tag_44:\n        /* \"contracts/base/ERC721Test.sol\":6369:6384  uint256 balance */\n      0x00\n        /* \"contracts/base/ERC721Test.sol\":6421:6422  0 */\n      dup1\n        /* \"contracts/base/ERC721Test.sol\":6404:6423  owner != address(0) */\n      0xffffffffffffffffffffffffffffffffffffffff\n      and\n        /* \"contracts/base/ERC721Test.sol\":6404:6409  owner */\n      dup3\n        /* \"contracts/base/ERC721Test.sol\":6404:6423  owner != address(0) */\n      0xffffffffffffffffffffffffffffffffffffffff\n      and\n      eq\n      iszero\n        /* \"contracts/base/ERC721Test.sol\":6396:6454  require(owner != address(0),\"ERC721: address zero is not\") */\n      tag_109\n      jumpi\n      mload(0x40)\n      0x08c379a000000000000000000000000000000000000000000000000000000000\n      dup2\n      mstore\n      0x04\n      add\n      tag_110\n      swap1\n      tag_111\n      jump\t// in\n    tag_110:\n      mload(0x40)\n      dup1\n      swap2\n      sub\n      swap1\n      revert\n    tag_109:\n        /* \"contracts/base/ERC721Test.sol\":6472:6480  balances */\n      0x00\n        /* \"contracts/base/ERC721Test.sol\":6472:6487  balances[owner] */\n      dup1\n        /* \"contracts/base/ERC721Test.sol\":6481:6486  owner */\n      dup4\n        /* \"contracts/base/ERC721Test.sol\":6472:6487  balances[owner] */\n      0xffffffffffffffffffffffffffffffffffffffff\n      and\n      0xffffffffffffffffffffffffffffffffffffffff\n      and\n      dup2\n      mstore\n      0x20\n      add\n      swap1\n      dup2\n      mstore\n      0x20\n      add\n      0x00\n      keccak256\n      sload\n        /* \"contracts/base/ERC721Test.sol\":6465:6487  return balances[owner] */\n      swap1\n      pop\n        /* \"contracts/base/ERC721Test.sol\":6303:6495  function balanceOf(address owner) override external view returns (uint256 balance){\r... */\n      swap2\n      swap1\n      pop\n      jump\t// out\n        /* \"contracts/base/ERC721Test.sol\":10295:10571  function setApprovalForAll(address operator, bool _approved) override external{\r... */\n    tag_50:\n        /* \"contracts/base/ERC721Test.sol\":10412:10413  0 */\n      0x00\n        /* \"contracts/base/ERC721Test.sol\":10392:10414  operator != address(0) */\n      0xffffffffffffffffffffffffffffffffffffffff\n      and\n        /* \"contracts/base/ERC721Test.sol\":10392:10400  operator */\n      dup3\n        /* \"contracts/base/ERC721Test.sol\":10392:10414  operator != address(0) */\n      0xffffffffffffffffffffffffffffffffffffffff\n      and\n      eq\n      iszero\n        /* \"contracts/base/ERC721Test.sol\":10384:10441  require(operator != address(0), \"operator address is  0\") */\n      tag_113\n      jumpi\n      mload(0x40)\n      0x08c379a000000000000000000000000000000000000000000000000000000000\n      dup2\n      mstore\n      0x04\n      add\n      tag_114\n      swap1\n      tag_115\n      jump\t// in\n    tag_114:\n      mload(0x40)\n      dup1\n      swap2\n      sub\n      swap1\n      revert\n    tag_113:\n        /* \"contracts/base/ERC721Test.sol\":10493:10502  _approved */\n      dup1\n        /* \"contracts/base/ERC721Test.sol\":10452:10468  isApprovedForAll */\n      0x02\n        /* \"contracts/base/ERC721Test.sol\":10452:10480  isApprovedForAll[msg.sender] */\n      0x00\n        /* \"contracts/base/ERC721Test.sol\":10469:10479  msg.sender */\n      caller\n        /* \"contracts/base/ERC721Test.sol\":10452:10480  isApprovedForAll[msg.sender] */\n      0xffffffffffffffffffffffffffffffffffffffff\n      and\n      0xffffffffffffffffffffffffffffffffffffffff\n      and\n      dup2\n      mstore\n      0x20\n      add\n      swap1\n      dup2\n      mstore\n      0x20\n      add\n      0x00\n      keccak256\n        /* \"contracts/base/ERC721Test.sol\":10452:10490  isApprovedForAll[msg.sender][operator] */\n      0x00\n        /* \"contracts/base/ERC721Test.sol\":10481:10489  operator */\n      dup5\n        /* \"contracts/base/ERC721Test.sol\":10452:10490  isApprovedForAll[msg.sender][operator] */\n      0xffffffffffffffffffffffffffffffffffffffff\n      and\n      0xffffffffffffffffffffffffffffffffffffffff\n      and\n      dup2\n      mstore\n      0x20\n      add\n      swap1\n      dup2\n      mstore\n      0x20\n      add\n      0x00\n      keccak256\n      0x00\n        /* \"contracts/base/ERC721Test.sol\":10452:10502  isApprovedForAll[msg.sender][operator] = _approved */\n      0x0100\n      exp\n      dup2\n      sload\n      dup2\n      0xff\n      mul\n      not\n      and\n      swap1\n      dup4\n      iszero\n      iszero\n      mul\n      or\n      swap1\n      sstore\n      pop\n        /* \"contracts/base/ERC721Test.sol\":10544:10552  operator */\n      dup2\n        /* \"contracts/base/ERC721Test.sol\":10518:10563  ApprovalForAll(msg.sender,operator,_approved) */\n      0xffffffffffffffffffffffffffffffffffffffff\n      and\n        /* \"contracts/base/ERC721Test.sol\":10533:10543  msg.sender */\n      caller\n        /* \"contracts/base/ERC721Test.sol\":10518:10563  ApprovalForAll(msg.sender,operator,_approved) */\n      0xffffffffffffffffffffffffffffffffffffffff\n      and\n      0x17307eab39ab6107e8899845ad3d59bd9653f200f220920489ca2b5937696c31\n        /* \"contracts/base/ERC721Test.sol\":10553:10562  _approved */\n      dup4\n        /* \"contracts/base/ERC721Test.sol\":10518:10563  ApprovalForAll(msg.sender,operator,_approved) */\n      mload(0x40)\n      tag_116\n      swap2\n      swap1\n      tag_19\n      jump\t// in\n    tag_116:\n      mload(0x40)\n      dup1\n      swap2\n      sub\n      swap1\n      log3\n        /* \"contracts/base/ERC721Test.sol\":10295:10571  function setApprovalForAll(address operator, bool _approved) override external{\r... */\n      pop\n      pop\n      jump\t// out\n        /* \"contracts/base/ERC721Test.sol\":7652:8016  function safeTransferFrom(address from, address to, uint256 tokenId, bytes calldata data) override external{\r... */\n    tag_54:\n        /* \"contracts/base/ERC721Test.sol\":7770:7801  transferFrom(from, to, tokenId) */\n      tag_118\n        /* \"contracts/base/ERC721Test.sol\":7783:7787  from */\n      dup6\n        /* \"contracts/base/ERC721Test.sol\":7789:7791  to */\n      dup6\n        /* \"contracts/base/ERC721Test.sol\":7793:7800  tokenId */\n      dup6\n        /* \"contracts/base/ERC721Test.sol\":7770:7782  transferFrom */\n      tag_33\n        /* \"contracts/base/ERC721Test.sol\":7770:7801  transferFrom(from, to, tokenId) */\n      jump\t// in\n    tag_118:\n        /* \"contracts/base/ERC721Test.sol\":7838:7839  0 */\n      0x00\n        /* \"contracts/base/ERC721Test.sol\":7820:7822  to */\n      dup5\n        /* \"contracts/base/ERC721Test.sol\":7820:7834  to.code.length */\n      0xffffffffffffffffffffffffffffffffffffffff\n      and\n      extcodesize\n        /* \"contracts/base/ERC721Test.sol\":7820:7839  to.code.length == 0 */\n      eq\n        /* \"contracts/base/ERC721Test.sol\":7820:7977  to.code.length == 0 || \r... */\n      dup1\n      tag_119\n      jumpi\n      pop\n        /* \"contracts/base/ERC721Test.sol\":7936:7977  IERC721Receiver.onERC721Received.selector */\n      shl(0xe0, 0x150b7a02)\n        /* \"contracts/base/ERC721Test.sol\":7853:7977  IERC721Receiver(to).onERC721Received(msg.sender, from, tokenId, data) == \r... */\n      not(0xffffffffffffffffffffffffffffffffffffffffffffffffffffffff)\n      and\n        /* \"contracts/base/ERC721Test.sol\":7869:7871  to */\n      dup5\n        /* \"contracts/base/ERC721Test.sol\":7853:7889  IERC721Receiver(to).onERC721Received */\n      0xffffffffffffffffffffffffffffffffffffffff\n      and\n      0x150b7a02\n        /* \"contracts/base/ERC721Test.sol\":7890:7900  msg.sender */\n      caller\n        /* \"contracts/base/ERC721Test.sol\":7902:7906  from */\n      dup9\n        /* \"contracts/base/ERC721Test.sol\":7908:7915  tokenId */\n      dup8\n        /* \"contracts/base/ERC721Test.sol\":7917:7921  data */\n      dup8\n      dup8\n        /* \"contracts/base/ERC721Test.sol\":7853:7922  IERC721Receiver(to).onERC721Received(msg.sender, from, tokenId, data) */\n      mload(0x40)\n      dup7\n      0xffffffff\n      and\n      0xe0\n      shl\n      dup2\n      mstore\n      0x04\n      add\n      tag_120\n      swap6\n      swap5\n      swap4\n      swap3\n      swap2\n      swap1\n      tag_121\n      jump\t// in\n    tag_120:\n      0x20\n      mload(0x40)\n      dup1\n      dup4\n      sub\n      dup2\n      0x00\n      dup8\n      dup1\n      extcodesize\n      iszero\n      dup1\n      iszero\n      tag_122\n      jumpi\n      0x00\n      dup1\n      revert\n    tag_122:\n      pop\n      gas\n      call\n      iszero\n      dup1\n      iszero\n      tag_124\n      jumpi\n      returndatasize\n      0x00\n      dup1\n      returndatacopy\n      revert(0x00, returndatasize)\n    tag_124:\n      pop\n      pop\n      pop\n      pop\n      mload(0x40)\n      returndatasize\n      not(0x1f)\n      0x1f\n      dup3\n      add\n      and\n      dup3\n      add\n      dup1\n      0x40\n      mstore\n      pop\n      dup2\n      add\n      swap1\n      tag_125\n      swap2\n      swap1\n      tag_100\n      jump\t// in\n    tag_125:\n        /* \"contracts/base/ERC721Test.sol\":7853:7977  IERC721Receiver(to).onERC721Received(msg.sender, from, tokenId, data) == \r... */\n      not(0xffffffffffffffffffffffffffffffffffffffffffffffffffffffff)\n      and\n      eq\n        /* \"contracts/base/ERC721Test.sol\":7820:7977  to.code.length == 0 || \r... */\n    tag_119:\n        /* \"contracts/base/ERC721Test.sol\":7812:8008  require(to.code.length == 0 || \r... */\n      tag_126\n      jumpi\n      mload(0x40)\n      0x08c379a000000000000000000000000000000000000000000000000000000000\n      dup2\n      mstore\n      0x04\n      add\n      tag_127\n      swap1\n      tag_103\n      jump\t// in\n    tag_127:\n      mload(0x40)\n      dup1\n      swap2\n      sub\n      swap1\n      revert\n    tag_126:\n        /* \"contracts/base/ERC721Test.sol\":7652:8016  function safeTransferFrom(address from, address to, uint256 tokenId, bytes calldata data) override external{\r... */\n      pop\n      pop\n      pop\n      pop\n      pop\n      jump\t// out\n        /* \"contracts/base/ERC721Test.sol\":5755:5833  mapping(address => mapping(address => bool)) override  public isApprovedForAll */\n    tag_58:\n      mstore(0x20, 0x02)\n      dup2\n      0x00\n      mstore\n      mstore(0x20, keccak256(0x00, 0x40))\n      dup1\n      0x00\n      mstore\n      keccak256(0x00, 0x40)\n      0x00\n      swap2\n      pop\n      swap2\n      pop\n      swap1\n      sload\n      swap1\n      0x0100\n      exp\n      swap1\n      div\n      0xff\n      and\n      dup2\n      jump\t// out\n        /* \"contracts/base/ERC721Test.sol\":8963:9177  function _isApprovedOrOwner(address owner ,address spender,uint256 tokenId) internal view  returns(bool) {\r... */\n    tag_83:\n        /* \"contracts/base/ERC721Test.sol\":9062:9066  bool */\n      0x00\n        /* \"contracts/base/ERC721Test.sol\":9095:9102  spender */\n      dup3\n        /* \"contracts/base/ERC721Test.sol\":9086:9102  owner == spender */\n      0xffffffffffffffffffffffffffffffffffffffff\n      and\n        /* \"contracts/base/ERC721Test.sol\":9086:9091  owner */\n      dup5\n        /* \"contracts/base/ERC721Test.sol\":9086:9102  owner == spender */\n      0xffffffffffffffffffffffffffffffffffffffff\n      and\n      eq\n        /* \"contracts/base/ERC721Test.sol\":9086:9133  owner == spender || _owners[tokenId] == spender */\n      dup1\n      tag_129\n      jumpi\n      pop\n        /* \"contracts/base/ERC721Test.sol\":9126:9133  spender */\n      dup3\n        /* \"contracts/base/ERC721Test.sol\":9106:9133  _owners[tokenId] == spender */\n      0xffffffffffffffffffffffffffffffffffffffff\n      and\n        /* \"contracts/base/ERC721Test.sol\":9106:9113  _owners */\n      0x01\n        /* \"contracts/base/ERC721Test.sol\":9106:9122  _owners[tokenId] */\n      0x00\n        /* \"contracts/base/ERC721Test.sol\":9114:9121  tokenId */\n      dup5\n        /* \"contracts/base/ERC721Test.sol\":9106:9122  _owners[tokenId] */\n      dup2\n      mstore\n      0x20\n      add\n      swap1\n      dup2\n      mstore\n      0x20\n      add\n      0x00\n      keccak256\n      0x00\n      swap1\n      sload\n      swap1\n      0x0100\n      exp\n      swap1\n      div\n      0xffffffffffffffffffffffffffffffffffffffff\n      and\n        /* \"contracts/base/ERC721Test.sol\":9106:9133  _owners[tokenId] == spender */\n      0xffffffffffffffffffffffffffffffffffffffff\n      and\n      eq\n        /* \"contracts/base/ERC721Test.sol\":9086:9133  owner == spender || _owners[tokenId] == spender */\n    tag_129:\n        /* \"contracts/base/ERC721Test.sol\":9086:9169  owner == spender || _owners[tokenId] == spender || isApprovedForAll[owner][spender] */\n      dup1\n      tag_130\n      jumpi\n      pop\n        /* \"contracts/base/ERC721Test.sol\":9137:9153  isApprovedForAll */\n      0x02\n        /* \"contracts/base/ERC721Test.sol\":9137:9160  isApprovedForAll[owner] */\n      0x00\n        /* \"contracts/base/ERC721Test.sol\":9154:9159  owner */\n      dup6\n        /* \"contracts/base/ERC721Test.sol\":9137:9160  isApprovedForAll[owner] */\n      0xffffffffffffffffffffffffffffffffffffffff\n      and\n      0xffffffffffffffffffffffffffffffffffffffff\n      and\n      dup2\n      mstore\n      0x20\n      add\n      swap1\n      dup2\n      mstore\n      0x20\n      add\n      0x00\n      keccak256\n        /* \"contracts/base/ERC721Test.sol\":9137:9169  isApprovedForAll[owner][spender] */\n      0x00\n        /* \"contracts/base/ERC721Test.sol\":9161:9168  spender */\n      dup5\n        /* \"contracts/base/ERC721Test.sol\":9137:9169  isApprovedForAll[owner][spender] */\n      0xffffffffffffffffffffffffffffffffffffffff\n      and\n      0xffffffffffffffffffffffffffffffffffffffff\n      and\n      dup2\n      mstore\n      0x20\n      add\n      swap1\n      dup2\n      mstore\n      0x20\n      add\n      0x00\n      keccak256\n      0x00\n      swap1\n      sload\n      swap1\n      0x0100\n      exp\n      swap1\n      div\n      0xff\n      and\n        /* \"contracts/base/ERC721Test.sol\":9086:9169  owner == spender || _owners[tokenId] == spender || isApprovedForAll[owner][spender] */\n    tag_130:\n        /* \"contracts/base/ERC721Test.sol\":9079:9169  return owner == spender || _owners[tokenId] == spender || isApprovedForAll[owner][spender] */\n      swap1\n      pop\n        /* \"contracts/base/ERC721Test.sol\":8963:9177  function _isApprovedOrOwner(address owner ,address spender,uint256 tokenId) internal view  returns(bool) {\r... */\n      swap4\n      swap3\n      pop\n      pop\n      pop\n      jump\t// out\n        /* \"#utility.yul\":7:146   */\n    tag_132:\n        /* \"#utility.yul\":53:58   */\n      0x00\n        /* \"#utility.yul\":91:97   */\n      dup2\n        /* \"#utility.yul\":78:98   */\n      calldataload\n        /* \"#utility.yul\":69:98   */\n      swap1\n      pop\n        /* \"#utility.yul\":107:140   */\n      tag_134\n        /* \"#utility.yul\":134:139   */\n      dup2\n        /* \"#utility.yul\":107:140   */\n      tag_135\n      jump\t// in\n    tag_134:\n        /* \"#utility.yul\":59:146   */\n      swap3\n      swap2\n      pop\n      pop\n      jump\t// out\n        /* \"#utility.yul\":152:285   */\n    tag_136:\n        /* \"#utility.yul\":195:200   */\n      0x00\n        /* \"#utility.yul\":233:239   */\n      dup2\n        /* \"#utility.yul\":220:240   */\n      calldataload\n        /* \"#utility.yul\":211:240   */\n      swap1\n      pop\n        /* \"#utility.yul\":249:279   */\n      tag_138\n        /* \"#utility.yul\":273:278   */\n      dup2\n        /* \"#utility.yul\":249:279   */\n      tag_139\n      jump\t// in\n    tag_138:\n        /* \"#utility.yul\":201:285   */\n      swap3\n      swap2\n      pop\n      pop\n      jump\t// out\n        /* \"#utility.yul\":291:428   */\n    tag_140:\n        /* \"#utility.yul\":336:341   */\n      0x00\n        /* \"#utility.yul\":374:380   */\n      dup2\n        /* \"#utility.yul\":361:381   */\n      calldataload\n        /* \"#utility.yul\":352:381   */\n      swap1\n      pop\n        /* \"#utility.yul\":390:422   */\n      tag_142\n        /* \"#utility.yul\":416:421   */\n      dup2\n        /* \"#utility.yul\":390:422   */\n      tag_143\n      jump\t// in\n    tag_142:\n        /* \"#utility.yul\":342:428   */\n      swap3\n      swap2\n      pop\n      pop\n      jump\t// out\n        /* \"#utility.yul\":434:575   */\n    tag_144:\n        /* \"#utility.yul\":490:495   */\n      0x00\n        /* \"#utility.yul\":521:527   */\n      dup2\n        /* \"#utility.yul\":515:528   */\n      mload\n        /* \"#utility.yul\":506:528   */\n      swap1\n      pop\n        /* \"#utility.yul\":537:569   */\n      tag_146\n        /* \"#utility.yul\":563:568   */\n      dup2\n        /* \"#utility.yul\":537:569   */\n      tag_143\n      jump\t// in\n    tag_146:\n        /* \"#utility.yul\":496:575   */\n      swap3\n      swap2\n      pop\n      pop\n      jump\t// out\n        /* \"#utility.yul\":594:945   */\n    tag_147:\n        /* \"#utility.yul\":651:659   */\n      0x00\n        /* \"#utility.yul\":661:667   */\n      dup1\n        /* \"#utility.yul\":711:714   */\n      dup4\n        /* \"#utility.yul\":704:708   */\n      0x1f\n        /* \"#utility.yul\":696:702   */\n      dup5\n        /* \"#utility.yul\":692:709   */\n      add\n        /* \"#utility.yul\":688:715   */\n      slt\n        /* \"#utility.yul\":678:680   */\n      tag_149\n      jumpi\n        /* \"#utility.yul\":729:730   */\n      0x00\n        /* \"#utility.yul\":726:727   */\n      dup1\n        /* \"#utility.yul\":719:731   */\n      revert\n        /* \"#utility.yul\":678:680   */\n    tag_149:\n        /* \"#utility.yul\":765:771   */\n      dup3\n        /* \"#utility.yul\":752:772   */\n      calldataload\n        /* \"#utility.yul\":742:772   */\n      swap1\n      pop\n        /* \"#utility.yul\":795:813   */\n      0xffffffffffffffff\n        /* \"#utility.yul\":787:793   */\n      dup2\n        /* \"#utility.yul\":784:814   */\n      gt\n        /* \"#utility.yul\":781:783   */\n      iszero\n      tag_150\n      jumpi\n        /* \"#utility.yul\":827:828   */\n      0x00\n        /* \"#utility.yul\":824:825   */\n      dup1\n        /* \"#utility.yul\":817:829   */\n      revert\n        /* \"#utility.yul\":781:783   */\n    tag_150:\n        /* \"#utility.yul\":864:868   */\n      0x20\n        /* \"#utility.yul\":856:862   */\n      dup4\n        /* \"#utility.yul\":852:869   */\n      add\n        /* \"#utility.yul\":840:869   */\n      swap2\n      pop\n        /* \"#utility.yul\":918:921   */\n      dup4\n        /* \"#utility.yul\":910:914   */\n      0x01\n        /* \"#utility.yul\":902:908   */\n      dup3\n        /* \"#utility.yul\":898:915   */\n      mul\n        /* \"#utility.yul\":888:896   */\n      dup4\n        /* \"#utility.yul\":884:916   */\n      add\n        /* \"#utility.yul\":881:922   */\n      gt\n        /* \"#utility.yul\":878:880   */\n      iszero\n      tag_151\n      jumpi\n        /* \"#utility.yul\":935:936   */\n      0x00\n        /* \"#utility.yul\":932:933   */\n      dup1\n        /* \"#utility.yul\":925:937   */\n      revert\n        /* \"#utility.yul\":878:880   */\n    tag_151:\n        /* \"#utility.yul\":668:945   */\n      swap3\n      pop\n      swap3\n      swap1\n      pop\n      jump\t// out\n        /* \"#utility.yul\":951:1090   */\n    tag_152:\n        /* \"#utility.yul\":997:1002   */\n      0x00\n        /* \"#utility.yul\":1035:1041   */\n      dup2\n        /* \"#utility.yul\":1022:1042   */\n      calldataload\n        /* \"#utility.yul\":1013:1042   */\n      swap1\n      pop\n        /* \"#utility.yul\":1051:1084   */\n      tag_154\n        /* \"#utility.yul\":1078:1083   */\n      dup2\n        /* \"#utility.yul\":1051:1084   */\n      tag_155\n      jump\t// in\n    tag_154:\n        /* \"#utility.yul\":1003:1090   */\n      swap3\n      swap2\n      pop\n      pop\n      jump\t// out\n        /* \"#utility.yul\":1096:1358   */\n    tag_43:\n        /* \"#utility.yul\":1155:1161   */\n      0x00\n        /* \"#utility.yul\":1204:1206   */\n      0x20\n        /* \"#utility.yul\":1192:1201   */\n      dup3\n        /* \"#utility.yul\":1183:1190   */\n      dup5\n        /* \"#utility.yul\":1179:1202   */\n      sub\n        /* \"#utility.yul\":1175:1207   */\n      slt\n        /* \"#utility.yul\":1172:1174   */\n      iszero\n      tag_157\n      jumpi\n        /* \"#utility.yul\":1220:1221   */\n      0x00\n        /* \"#utility.yul\":1217:1218   */\n      dup1\n        /* \"#utility.yul\":1210:1222   */\n      revert\n        /* \"#utility.yul\":1172:1174   */\n    tag_157:\n        /* \"#utility.yul\":1263:1264   */\n      0x00\n        /* \"#utility.yul\":1288:1341   */\n      tag_158\n        /* \"#utility.yul\":1333:1340   */\n      dup5\n        /* \"#utility.yul\":1324:1330   */\n      dup3\n        /* \"#utility.yul\":1313:1322   */\n      dup6\n        /* \"#utility.yul\":1309:1331   */\n      add\n        /* \"#utility.yul\":1288:1341   */\n      tag_132\n      jump\t// in\n    tag_158:\n        /* \"#utility.yul\":1278:1341   */\n      swap2\n      pop\n        /* \"#utility.yul\":1234:1351   */\n      pop\n        /* \"#utility.yul\":1162:1358   */\n      swap3\n      swap2\n      pop\n      pop\n      jump\t// out\n        /* \"#utility.yul\":1364:1771   */\n    tag_57:\n        /* \"#utility.yul\":1432:1438   */\n      0x00\n        /* \"#utility.yul\":1440:1446   */\n      dup1\n        /* \"#utility.yul\":1489:1491   */\n      0x40\n        /* \"#utility.yul\":1477:1486   */\n      dup4\n        /* \"#utility.yul\":1468:1475   */\n      dup6\n        /* \"#utility.yul\":1464:1487   */\n      sub\n        /* \"#utility.yul\":1460:1492   */\n      slt\n        /* \"#utility.yul\":1457:1459   */\n      iszero\n      tag_160\n      jumpi\n        /* \"#utility.yul\":1505:1506   */\n      0x00\n        /* \"#utility.yul\":1502:1503   */\n      dup1\n        /* \"#utility.yul\":1495:1507   */\n      revert\n        /* \"#utility.yul\":1457:1459   */\n    tag_160:\n        /* \"#utility.yul\":1548:1549   */\n      0x00\n        /* \"#utility.yul\":1573:1626   */\n      tag_161\n        /* \"#utility.yul\":1618:1625   */\n      dup6\n        /* \"#utility.yul\":1609:1615   */\n      dup3\n        /* \"#utility.yul\":1598:1607   */\n      dup7\n        /* \"#utility.yul\":1594:1616   */\n      add\n        /* \"#utility.yul\":1573:1626   */\n      tag_132\n      jump\t// in\n    tag_161:\n        /* \"#utility.yul\":1563:1626   */\n      swap3\n      pop\n        /* \"#utility.yul\":1519:1636   */\n      pop\n        /* \"#utility.yul\":1675:1677   */\n      0x20\n        /* \"#utility.yul\":1701:1754   */\n      tag_162\n        /* \"#utility.yul\":1746:1753   */\n      dup6\n        /* \"#utility.yul\":1737:1743   */\n      dup3\n        /* \"#utility.yul\":1726:1735   */\n      dup7\n        /* \"#utility.yul\":1722:1744   */\n      add\n        /* \"#utility.yul\":1701:1754   */\n      tag_132\n      jump\t// in\n    tag_162:\n        /* \"#utility.yul\":1691:1754   */\n      swap2\n      pop\n        /* \"#utility.yul\":1646:1764   */\n      pop\n        /* \"#utility.yul\":1447:1771   */\n      swap3\n      pop\n      swap3\n      swap1\n      pop\n      jump\t// out\n        /* \"#utility.yul\":1777:2329   */\n    tag_32:\n        /* \"#utility.yul\":1854:1860   */\n      0x00\n        /* \"#utility.yul\":1862:1868   */\n      dup1\n        /* \"#utility.yul\":1870:1876   */\n      0x00\n        /* \"#utility.yul\":1919:1921   */\n      0x60\n        /* \"#utility.yul\":1907:1916   */\n      dup5\n        /* \"#utility.yul\":1898:1905   */\n      dup7\n        /* \"#utility.yul\":1894:1917   */\n      sub\n        /* \"#utility.yul\":1890:1922   */\n      slt\n        /* \"#utility.yul\":1887:1889   */\n      iszero\n      tag_164\n      jumpi\n        /* \"#utility.yul\":1935:1936   */\n      0x00\n        /* \"#utility.yul\":1932:1933   */\n      dup1\n        /* \"#utility.yul\":1925:1937   */\n      revert\n        /* \"#utility.yul\":1887:1889   */\n    tag_164:\n        /* \"#utility.yul\":1978:1979   */\n      0x00\n        /* \"#utility.yul\":2003:2056   */\n      tag_165\n        /* \"#utility.yul\":2048:2055   */\n      dup7\n        /* \"#utility.yul\":2039:2045   */\n      dup3\n        /* \"#utility.yul\":2028:2037   */\n      dup8\n        /* \"#utility.yul\":2024:2046   */\n      add\n        /* \"#utility.yul\":2003:2056   */\n      tag_132\n      jump\t// in\n    tag_165:\n        /* \"#utility.yul\":1993:2056   */\n      swap4\n      pop\n        /* \"#utility.yul\":1949:2066   */\n      pop\n        /* \"#utility.yul\":2105:2107   */\n      0x20\n        /* \"#utility.yul\":2131:2184   */\n      tag_166\n        /* \"#utility.yul\":2176:2183   */\n      dup7\n        /* \"#utility.yul\":2167:2173   */\n      dup3\n        /* \"#utility.yul\":2156:2165   */\n      dup8\n        /* \"#utility.yul\":2152:2174   */\n      add\n        /* \"#utility.yul\":2131:2184   */\n      tag_132\n      jump\t// in\n    tag_166:\n        /* \"#utility.yul\":2121:2184   */\n      swap3\n      pop\n        /* \"#utility.yul\":2076:2194   */\n      pop\n        /* \"#utility.yul\":2233:2235   */\n      0x40\n        /* \"#utility.yul\":2259:2312   */\n      tag_167\n        /* \"#utility.yul\":2304:2311   */\n      dup7\n        /* \"#utility.yul\":2295:2301   */\n      dup3\n        /* \"#utility.yul\":2284:2293   */\n      dup8\n        /* \"#utility.yul\":2280:2302   */\n      add\n        /* \"#utility.yul\":2259:2312   */\n      tag_152\n      jump\t// in\n    tag_167:\n        /* \"#utility.yul\":2249:2312   */\n      swap2\n      pop\n        /* \"#utility.yul\":2204:2322   */\n      pop\n        /* \"#utility.yul\":1877:2329   */\n      swap3\n      pop\n      swap3\n      pop\n      swap3\n      jump\t// out\n        /* \"#utility.yul\":2335:3164   */\n    tag_53:\n        /* \"#utility.yul\":2432:2438   */\n      0x00\n        /* \"#utility.yul\":2440:2446   */\n      dup1\n        /* \"#utility.yul\":2448:2454   */\n      0x00\n        /* \"#utility.yul\":2456:2462   */\n      dup1\n        /* \"#utility.yul\":2464:2470   */\n      0x00\n        /* \"#utility.yul\":2513:2516   */\n      0x80\n        /* \"#utility.yul\":2501:2510   */\n      dup7\n        /* \"#utility.yul\":2492:2499   */\n      dup9\n        /* \"#utility.yul\":2488:2511   */\n      sub\n        /* \"#utility.yul\":2484:2517   */\n      slt\n        /* \"#utility.yul\":2481:2483   */\n      iszero\n      tag_169\n      jumpi\n        /* \"#utility.yul\":2530:2531   */\n      0x00\n        /* \"#utility.yul\":2527:2528   */\n      dup1\n        /* \"#utility.yul\":2520:2532   */\n      revert\n        /* \"#utility.yul\":2481:2483   */\n    tag_169:\n        /* \"#utility.yul\":2573:2574   */\n      0x00\n        /* \"#utility.yul\":2598:2651   */\n      tag_170\n        /* \"#utility.yul\":2643:2650   */\n      dup9\n        /* \"#utility.yul\":2634:2640   */\n      dup3\n        /* \"#utility.yul\":2623:2632   */\n      dup10\n        /* \"#utility.yul\":2619:2641   */\n      add\n        /* \"#utility.yul\":2598:2651   */\n      tag_132\n      jump\t// in\n    tag_170:\n        /* \"#utility.yul\":2588:2651   */\n      swap6\n      pop\n        /* \"#utility.yul\":2544:2661   */\n      pop\n        /* \"#utility.yul\":2700:2702   */\n      0x20\n        /* \"#utility.yul\":2726:2779   */\n      tag_171\n        /* \"#utility.yul\":2771:2778   */\n      dup9\n        /* \"#utility.yul\":2762:2768   */\n      dup3\n        /* \"#utility.yul\":2751:2760   */\n      dup10\n        /* \"#utility.yul\":2747:2769   */\n      add\n        /* \"#utility.yul\":2726:2779   */\n      tag_132\n      jump\t// in\n    tag_171:\n        /* \"#utility.yul\":2716:2779   */\n      swap5\n      pop\n        /* \"#utility.yul\":2671:2789   */\n      pop\n        /* \"#utility.yul\":2828:2830   */\n      0x40\n        /* \"#utility.yul\":2854:2907   */\n      tag_172\n        /* \"#utility.yul\":2899:2906   */\n      dup9\n        /* \"#utility.yul\":2890:2896   */\n      dup3\n        /* \"#utility.yul\":2879:2888   */\n      dup10\n        /* \"#utility.yul\":2875:2897   */\n      add\n        /* \"#utility.yul\":2854:2907   */\n      tag_152\n      jump\t// in\n    tag_172:\n        /* \"#utility.yul\":2844:2907   */\n      swap4\n      pop\n        /* \"#utility.yul\":2799:2917   */\n      pop\n        /* \"#utility.yul\":2984:2986   */\n      0x60\n        /* \"#utility.yul\":2973:2982   */\n      dup7\n        /* \"#utility.yul\":2969:2987   */\n      add\n        /* \"#utility.yul\":2956:2988   */\n      calldataload\n        /* \"#utility.yul\":3015:3033   */\n      0xffffffffffffffff\n        /* \"#utility.yul\":3007:3013   */\n      dup2\n        /* \"#utility.yul\":3004:3034   */\n      gt\n        /* \"#utility.yul\":3001:3003   */\n      iszero\n      tag_173\n      jumpi\n        /* \"#utility.yul\":3047:3048   */\n      0x00\n        /* \"#utility.yul\":3044:3045   */\n      dup1\n        /* \"#utility.yul\":3037:3049   */\n      revert\n        /* \"#utility.yul\":3001:3003   */\n    tag_173:\n        /* \"#utility.yul\":3083:3147   */\n      tag_174\n        /* \"#utility.yul\":3139:3146   */\n      dup9\n        /* \"#utility.yul\":3130:3136   */\n      dup3\n        /* \"#utility.yul\":3119:3128   */\n      dup10\n        /* \"#utility.yul\":3115:3137   */\n      add\n        /* \"#utility.yul\":3083:3147   */\n      tag_147\n      jump\t// in\n    tag_174:\n        /* \"#utility.yul\":3065:3147   */\n      swap3\n      pop\n      swap3\n      pop\n        /* \"#utility.yul\":2927:3157   */\n      pop\n        /* \"#utility.yul\":2471:3164   */\n      swap3\n      swap6\n      pop\n      swap3\n      swap6\n      swap1\n      swap4\n      pop\n      jump\t// out\n        /* \"#utility.yul\":3170:3571   */\n    tag_49:\n        /* \"#utility.yul\":3235:3241   */\n      0x00\n        /* \"#utility.yul\":3243:3249   */\n      dup1\n        /* \"#utility.yul\":3292:3294   */\n      0x40\n        /* \"#utility.yul\":3280:3289   */\n      dup4\n        /* \"#utility.yul\":3271:3278   */\n      dup6\n        /* \"#utility.yul\":3267:3290   */\n      sub\n        /* \"#utility.yul\":3263:3295   */\n      slt\n        /* \"#utility.yul\":3260:3262   */\n      iszero\n      tag_176\n      jumpi\n        /* \"#utility.yul\":3308:3309   */\n      0x00\n        /* \"#utility.yul\":3305:3306   */\n      dup1\n        /* \"#utility.yul\":3298:3310   */\n      revert\n        /* \"#utility.yul\":3260:3262   */\n    tag_176:\n        /* \"#utility.yul\":3351:3352   */\n      0x00\n        /* \"#utility.yul\":3376:3429   */\n      tag_177\n        /* \"#utility.yul\":3421:3428   */\n      dup6\n        /* \"#utility.yul\":3412:3418   */\n      dup3\n        /* \"#utility.yul\":3401:3410   */\n      dup7\n        /* \"#utility.yul\":3397:3419   */\n      add\n        /* \"#utility.yul\":3376:3429   */\n      tag_132\n      jump\t// in\n    tag_177:\n        /* \"#utility.yul\":3366:3429   */\n      swap3\n      pop\n        /* \"#utility.yul\":3322:3439   */\n      pop\n        /* \"#utility.yul\":3478:3480   */\n      0x20\n        /* \"#utility.yul\":3504:3554   */\n      tag_178\n        /* \"#utility.yul\":3546:3553   */\n      dup6\n        /* \"#utility.yul\":3537:3543   */\n      dup3\n        /* \"#utility.yul\":3526:3535   */\n      dup7\n        /* \"#utility.yul\":3522:3544   */\n      add\n        /* \"#utility.yul\":3504:3554   */\n      tag_136\n      jump\t// in\n    tag_178:\n        /* \"#utility.yul\":3494:3554   */\n      swap2\n      pop\n        /* \"#utility.yul\":3449:3564   */\n      pop\n        /* \"#utility.yul\":3250:3571   */\n      swap3\n      pop\n      swap3\n      swap1\n      pop\n      jump\t// out\n        /* \"#utility.yul\":3577:3984   */\n    tag_28:\n        /* \"#utility.yul\":3645:3651   */\n      0x00\n        /* \"#utility.yul\":3653:3659   */\n      dup1\n        /* \"#utility.yul\":3702:3704   */\n      0x40\n        /* \"#utility.yul\":3690:3699   */\n      dup4\n        /* \"#utility.yul\":3681:3688   */\n      dup6\n        /* \"#utility.yul\":3677:3700   */\n      sub\n        /* \"#utility.yul\":3673:3705   */\n      slt\n        /* \"#utility.yul\":3670:3672   */\n      iszero\n      tag_180\n      jumpi\n        /* \"#utility.yul\":3718:3719   */\n      0x00\n        /* \"#utility.yul\":3715:3716   */\n      dup1\n        /* \"#utility.yul\":3708:3720   */\n      revert\n        /* \"#utility.yul\":3670:3672   */\n    tag_180:\n        /* \"#utility.yul\":3761:3762   */\n      0x00\n        /* \"#utility.yul\":3786:3839   */\n      tag_181\n        /* \"#utility.yul\":3831:3838   */\n      dup6\n        /* \"#utility.yul\":3822:3828   */\n      dup3\n        /* \"#utility.yul\":3811:3820   */\n      dup7\n        /* \"#utility.yul\":3807:3829   */\n      add\n        /* \"#utility.yul\":3786:3839   */\n      tag_132\n      jump\t// in\n    tag_181:\n        /* \"#utility.yul\":3776:3839   */\n      swap3\n      pop\n        /* \"#utility.yul\":3732:3849   */\n      pop\n        /* \"#utility.yul\":3888:3890   */\n      0x20\n        /* \"#utility.yul\":3914:3967   */\n      tag_182\n        /* \"#utility.yul\":3959:3966   */\n      dup6\n        /* \"#utility.yul\":3950:3956   */\n      dup3\n        /* \"#utility.yul\":3939:3948   */\n      dup7\n        /* \"#utility.yul\":3935:3957   */\n      add\n        /* \"#utility.yul\":3914:3967   */\n      tag_152\n      jump\t// in\n    tag_182:\n        /* \"#utility.yul\":3904:3967   */\n      swap2\n      pop\n        /* \"#utility.yul\":3859:3977   */\n      pop\n        /* \"#utility.yul\":3660:3984   */\n      swap3\n      pop\n      swap3\n      swap1\n      pop\n      jump\t// out\n        /* \"#utility.yul\":3990:4250   */\n    tag_16:\n        /* \"#utility.yul\":4048:4054   */\n      0x00\n        /* \"#utility.yul\":4097:4099   */\n      0x20\n        /* \"#utility.yul\":4085:4094   */\n      dup3\n        /* \"#utility.yul\":4076:4083   */\n      dup5\n        /* \"#utility.yul\":4072:4095   */\n      sub\n        /* \"#utility.yul\":4068:4100   */\n      slt\n        /* \"#utility.yul\":4065:4067   */\n      iszero\n      tag_184\n      jumpi\n        /* \"#utility.yul\":4113:4114   */\n      0x00\n        /* \"#utility.yul\":4110:4111   */\n      dup1\n        /* \"#utility.yul\":4103:4115   */\n      revert\n        /* \"#utility.yul\":4065:4067   */\n    tag_184:\n        /* \"#utility.yul\":4156:4157   */\n      0x00\n        /* \"#utility.yul\":4181:4233   */\n      tag_185\n        /* \"#utility.yul\":4225:4232   */\n      dup5\n        /* \"#utility.yul\":4216:4222   */\n      dup3\n        /* \"#utility.yul\":4205:4214   */\n      dup6\n        /* \"#utility.yul\":4201:4223   */\n      add\n        /* \"#utility.yul\":4181:4233   */\n      tag_140\n      jump\t// in\n    tag_185:\n        /* \"#utility.yul\":4171:4233   */\n      swap2\n      pop\n        /* \"#utility.yul\":4127:4243   */\n      pop\n        /* \"#utility.yul\":4055:4250   */\n      swap3\n      swap2\n      pop\n      pop\n      jump\t// out\n        /* \"#utility.yul\":4256:4538   */\n    tag_100:\n        /* \"#utility.yul\":4325:4331   */\n      0x00\n        /* \"#utility.yul\":4374:4376   */\n      0x20\n        /* \"#utility.yul\":4362:4371   */\n      dup3\n        /* \"#utility.yul\":4353:4360   */\n      dup5\n        /* \"#utility.yul\":4349:4372   */\n      sub\n        /* \"#utility.yul\":4345:4377   */\n      slt\n        /* \"#utility.yul\":4342:4344   */\n      iszero\n      tag_187\n      jumpi\n        /* \"#utility.yul\":4390:4391   */\n      0x00\n        /* \"#utility.yul\":4387:4388   */\n      dup1\n        /* \"#utility.yul\":4380:4392   */\n      revert\n        /* \"#utility.yul\":4342:4344   */\n    tag_187:\n        /* \"#utility.yul\":4433:4434   */\n      0x00\n        /* \"#utility.yul\":4458:4521   */\n      tag_188\n        /* \"#utility.yul\":4513:4520   */\n      dup5\n        /* \"#utility.yul\":4504:4510   */\n      dup3\n        /* \"#utility.yul\":4493:4502   */\n      dup6\n        /* \"#utility.yul\":4489:4511   */\n      add\n        /* \"#utility.yul\":4458:4521   */\n      tag_144\n      jump\t// in\n    tag_188:\n        /* \"#utility.yul\":4448:4521   */\n      swap2\n      pop\n        /* \"#utility.yul\":4404:4531   */\n      pop\n        /* \"#utility.yul\":4332:4538   */\n      swap3\n      swap2\n      pop\n      pop\n      jump\t// out\n        /* \"#utility.yul\":4544:4806   */\n    tag_22:\n        /* \"#utility.yul\":4603:4609   */\n      0x00\n        /* \"#utility.yul\":4652:4654   */\n      0x20\n        /* \"#utility.yul\":4640:4649   */\n      dup3\n        /* \"#utility.yul\":4631:4638   */\n      dup5\n        /* \"#utility.yul\":4627:4650   */\n      sub\n        /* \"#utility.yul\":4623:4655   */\n      slt\n        /* \"#utility.yul\":4620:4622   */\n      iszero\n      tag_190\n      jumpi\n        /* \"#utility.yul\":4668:4669   */\n      0x00\n        /* \"#utility.yul\":4665:4666   */\n      dup1\n        /* \"#utility.yul\":4658:4670   */\n      revert\n        /* \"#utility.yul\":4620:4622   */\n    tag_190:\n        /* \"#utility.yul\":4711:4712   */\n      0x00\n        /* \"#utility.yul\":4736:4789   */\n      tag_191\n        /* \"#utility.yul\":4781:4788   */\n      dup5\n        /* \"#utility.yul\":4772:4778   */\n      dup3\n        /* \"#utility.yul\":4761:4770   */\n      dup6\n        /* \"#utility.yul\":4757:4779   */\n      add\n        /* \"#utility.yul\":4736:4789   */\n      tag_152\n      jump\t// in\n    tag_191:\n        /* \"#utility.yul\":4726:4789   */\n      swap2\n      pop\n        /* \"#utility.yul\":4682:4799   */\n      pop\n        /* \"#utility.yul\":4610:4806   */\n      swap3\n      swap2\n      pop\n      pop\n      jump\t// out\n        /* \"#utility.yul\":4812:4930   */\n    tag_192:\n        /* \"#utility.yul\":4899:4923   */\n      tag_194\n        /* \"#utility.yul\":4917:4922   */\n      dup2\n        /* \"#utility.yul\":4899:4923   */\n      tag_195\n      jump\t// in\n    tag_194:\n        /* \"#utility.yul\":4894:4897   */\n      dup3\n        /* \"#utility.yul\":4887:4924   */\n      mstore\n        /* \"#utility.yul\":4877:4930   */\n      pop\n      pop\n      jump\t// out\n        /* \"#utility.yul\":4936:5045   */\n    tag_196:\n        /* \"#utility.yul\":5017:5038   */\n      tag_198\n        /* \"#utility.yul\":5032:5037   */\n      dup2\n        /* \"#utility.yul\":5017:5038   */\n      tag_199\n      jump\t// in\n    tag_198:\n        /* \"#utility.yul\":5012:5015   */\n      dup3\n        /* \"#utility.yul\":5005:5039   */\n      mstore\n        /* \"#utility.yul\":4995:5045   */\n      pop\n      pop\n      jump\t// out\n        /* \"#utility.yul\":5073:5374   */\n    tag_200:\n        /* \"#utility.yul\":5169:5172   */\n      0x00\n        /* \"#utility.yul\":5190:5260   */\n      tag_202\n        /* \"#utility.yul\":5253:5259   */\n      dup4\n        /* \"#utility.yul\":5248:5251   */\n      dup6\n        /* \"#utility.yul\":5190:5260   */\n      tag_203\n      jump\t// in\n    tag_202:\n        /* \"#utility.yul\":5183:5260   */\n      swap4\n      pop\n        /* \"#utility.yul\":5270:5313   */\n      tag_204\n        /* \"#utility.yul\":5306:5312   */\n      dup4\n        /* \"#utility.yul\":5301:5304   */\n      dup6\n        /* \"#utility.yul\":5294:5299   */\n      dup5\n        /* \"#utility.yul\":5270:5313   */\n      tag_205\n      jump\t// in\n    tag_204:\n        /* \"#utility.yul\":5338:5367   */\n      tag_206\n        /* \"#utility.yul\":5360:5366   */\n      dup4\n        /* \"#utility.yul\":5338:5367   */\n      tag_207\n      jump\t// in\n    tag_206:\n        /* \"#utility.yul\":5333:5336   */\n      dup5\n        /* \"#utility.yul\":5329:5368   */\n      add\n        /* \"#utility.yul\":5322:5368   */\n      swap1\n      pop\n        /* \"#utility.yul\":5173:5374   */\n      swap4\n      swap3\n      pop\n      pop\n      pop\n      jump\t// out\n        /* \"#utility.yul\":5380:5746   */\n    tag_208:\n        /* \"#utility.yul\":5522:5525   */\n      0x00\n        /* \"#utility.yul\":5543:5610   */\n      tag_210\n        /* \"#utility.yul\":5607:5609   */\n      0x10\n        /* \"#utility.yul\":5602:5605   */\n      dup4\n        /* \"#utility.yul\":5543:5610   */\n      tag_211\n      jump\t// in\n    tag_210:\n        /* \"#utility.yul\":5536:5610   */\n      swap2\n      pop\n        /* \"#utility.yul\":5619:5712   */\n      tag_212\n        /* \"#utility.yul\":5708:5711   */\n      dup3\n        /* \"#utility.yul\":5619:5712   */\n      tag_213\n      jump\t// in\n    tag_212:\n        /* \"#utility.yul\":5737:5739   */\n      0x20\n        /* \"#utility.yul\":5732:5735   */\n      dup3\n        /* \"#utility.yul\":5728:5740   */\n      add\n        /* \"#utility.yul\":5721:5740   */\n      swap1\n      pop\n        /* \"#utility.yul\":5526:5746   */\n      swap2\n      swap1\n      pop\n      jump\t// out\n        /* \"#utility.yul\":5752:6118   */\n    tag_214:\n        /* \"#utility.yul\":5894:5897   */\n      0x00\n        /* \"#utility.yul\":5915:5982   */\n      tag_216\n        /* \"#utility.yul\":5979:5981   */\n      0x0c\n        /* \"#utility.yul\":5974:5977   */\n      dup4\n        /* \"#utility.yul\":5915:5982   */\n      tag_211\n      jump\t// in\n    tag_216:\n        /* \"#utility.yul\":5908:5982   */\n      swap2\n      pop\n        /* \"#utility.yul\":5991:6084   */\n      tag_217\n        /* \"#utility.yul\":6080:6083   */\n      dup3\n        /* \"#utility.yul\":5991:6084   */\n      tag_218\n      jump\t// in\n    tag_217:\n        /* \"#utility.yul\":6109:6111   */\n      0x20\n        /* \"#utility.yul\":6104:6107   */\n      dup3\n        /* \"#utility.yul\":6100:6112   */\n      add\n        /* \"#utility.yul\":6093:6112   */\n      swap1\n      pop\n        /* \"#utility.yul\":5898:6118   */\n      swap2\n      swap1\n      pop\n      jump\t// out\n        /* \"#utility.yul\":6124:6490   */\n    tag_219:\n        /* \"#utility.yul\":6266:6269   */\n      0x00\n        /* \"#utility.yul\":6287:6354   */\n      tag_221\n        /* \"#utility.yul\":6351:6353   */\n      0x27\n        /* \"#utility.yul\":6346:6349   */\n      dup4\n        /* \"#utility.yul\":6287:6354   */\n      tag_211\n      jump\t// in\n    tag_221:\n        /* \"#utility.yul\":6280:6354   */\n      swap2\n      pop\n        /* \"#utility.yul\":6363:6456   */\n      tag_222\n        /* \"#utility.yul\":6452:6455   */\n      dup3\n        /* \"#utility.yul\":6363:6456   */\n      tag_223\n      jump\t// in\n    tag_222:\n        /* \"#utility.yul\":6481:6483   */\n      0x40\n        /* \"#utility.yul\":6476:6479   */\n      dup3\n        /* \"#utility.yul\":6472:6484   */\n      add\n        /* \"#utility.yul\":6465:6484   */\n      swap1\n      pop\n        /* \"#utility.yul\":6270:6490   */\n      swap2\n      swap1\n      pop\n      jump\t// out\n        /* \"#utility.yul\":6496:6862   */\n    tag_224:\n        /* \"#utility.yul\":6638:6641   */\n      0x00\n        /* \"#utility.yul\":6659:6726   */\n      tag_226\n        /* \"#utility.yul\":6723:6725   */\n      0x1b\n        /* \"#utility.yul\":6718:6721   */\n      dup4\n        /* \"#utility.yul\":6659:6726   */\n      tag_211\n      jump\t// in\n    tag_226:\n        /* \"#utility.yul\":6652:6726   */\n      swap2\n      pop\n        /* \"#utility.yul\":6735:6828   */\n      tag_227\n        /* \"#utility.yul\":6824:6827   */\n      dup3\n        /* \"#utility.yul\":6735:6828   */\n      tag_228\n      jump\t// in\n    tag_227:\n        /* \"#utility.yul\":6853:6855   */\n      0x20\n        /* \"#utility.yul\":6848:6851   */\n      dup3\n        /* \"#utility.yul\":6844:6856   */\n      add\n        /* \"#utility.yul\":6837:6856   */\n      swap1\n      pop\n        /* \"#utility.yul\":6642:6862   */\n      swap2\n      swap1\n      pop\n      jump\t// out\n        /* \"#utility.yul\":6868:7234   */\n    tag_229:\n        /* \"#utility.yul\":7010:7013   */\n      0x00\n        /* \"#utility.yul\":7031:7098   */\n      tag_231\n        /* \"#utility.yul\":7095:7097   */\n      0x13\n        /* \"#utility.yul\":7090:7093   */\n      dup4\n        /* \"#utility.yul\":7031:7098   */\n      tag_211\n      jump\t// in\n    tag_231:\n        /* \"#utility.yul\":7024:7098   */\n      swap2\n      pop\n        /* \"#utility.yul\":7107:7200   */\n      tag_232\n        /* \"#utility.yul\":7196:7199   */\n      dup3\n        /* \"#utility.yul\":7107:7200   */\n      tag_233\n      jump\t// in\n    tag_232:\n        /* \"#utility.yul\":7225:7227   */\n      0x20\n        /* \"#utility.yul\":7220:7223   */\n      dup3\n        /* \"#utility.yul\":7216:7228   */\n      add\n        /* \"#utility.yul\":7209:7228   */\n      swap1\n      pop\n        /* \"#utility.yul\":7014:7234   */\n      swap2\n      swap1\n      pop\n      jump\t// out\n        /* \"#utility.yul\":7240:7606   */\n    tag_234:\n        /* \"#utility.yul\":7382:7385   */\n      0x00\n        /* \"#utility.yul\":7403:7470   */\n      tag_236\n        /* \"#utility.yul\":7467:7469   */\n      0x20\n        /* \"#utility.yul\":7462:7465   */\n      dup4\n        /* \"#utility.yul\":7403:7470   */\n      tag_211\n      jump\t// in\n    tag_236:\n        /* \"#utility.yul\":7396:7470   */\n      swap2\n      pop\n        /* \"#utility.yul\":7479:7572   */\n      tag_237\n        /* \"#utility.yul\":7568:7571   */\n      dup3\n        /* \"#utility.yul\":7479:7572   */\n      tag_238\n      jump\t// in\n    tag_237:\n        /* \"#utility.yul\":7597:7599   */\n      0x20\n        /* \"#utility.yul\":7592:7595   */\n      dup3\n        /* \"#utility.yul\":7588:7600   */\n      add\n        /* \"#utility.yul\":7581:7600   */\n      swap1\n      pop\n        /* \"#utility.yul\":7386:7606   */\n      swap2\n      swap1\n      pop\n      jump\t// out\n        /* \"#utility.yul\":7612:7978   */\n    tag_239:\n        /* \"#utility.yul\":7754:7757   */\n      0x00\n        /* \"#utility.yul\":7775:7842   */\n      tag_241\n        /* \"#utility.yul\":7839:7841   */\n      0x0e\n        /* \"#utility.yul\":7834:7837   */\n      dup4\n        /* \"#utility.yul\":7775:7842   */\n      tag_211\n      jump\t// in\n    tag_241:\n        /* \"#utility.yul\":7768:7842   */\n      swap2\n      pop\n        /* \"#utility.yul\":7851:7944   */\n      tag_242\n        /* \"#utility.yul\":7940:7943   */\n      dup3\n        /* \"#utility.yul\":7851:7944   */\n      tag_243\n      jump\t// in\n    tag_242:\n        /* \"#utility.yul\":7969:7971   */\n      0x20\n        /* \"#utility.yul\":7964:7967   */\n      dup3\n        /* \"#utility.yul\":7960:7972   */\n      add\n        /* \"#utility.yul\":7953:7972   */\n      swap1\n      pop\n        /* \"#utility.yul\":7758:7978   */\n      swap2\n      swap1\n      pop\n      jump\t// out\n        /* \"#utility.yul\":7984:8350   */\n    tag_244:\n        /* \"#utility.yul\":8126:8129   */\n      0x00\n        /* \"#utility.yul\":8147:8214   */\n      tag_246\n        /* \"#utility.yul\":8211:8213   */\n      0x12\n        /* \"#utility.yul\":8206:8209   */\n      dup4\n        /* \"#utility.yul\":8147:8214   */\n      tag_211\n      jump\t// in\n    tag_246:\n        /* \"#utility.yul\":8140:8214   */\n      swap2\n      pop\n        /* \"#utility.yul\":8223:8316   */\n      tag_247\n        /* \"#utility.yul\":8312:8315   */\n      dup3\n        /* \"#utility.yul\":8223:8316   */\n      tag_248\n      jump\t// in\n    tag_247:\n        /* \"#utility.yul\":8341:8343   */\n      0x20\n        /* \"#utility.yul\":8336:8339   */\n      dup3\n        /* \"#utility.yul\":8332:8344   */\n      add\n        /* \"#utility.yul\":8325:8344   */\n      swap1\n      pop\n        /* \"#utility.yul\":8130:8350   */\n      swap2\n      swap1\n      pop\n      jump\t// out\n        /* \"#utility.yul\":8356:8718   */\n    tag_249:\n        /* \"#utility.yul\":8497:8500   */\n      0x00\n        /* \"#utility.yul\":8518:8583   */\n      tag_251\n        /* \"#utility.yul\":8581:8582   */\n      0x00\n        /* \"#utility.yul\":8576:8579   */\n      dup4\n        /* \"#utility.yul\":8518:8583   */\n      tag_203\n      jump\t// in\n    tag_251:\n        /* \"#utility.yul\":8511:8583   */\n      swap2\n      pop\n        /* \"#utility.yul\":8592:8685   */\n      tag_252\n        /* \"#utility.yul\":8681:8684   */\n      dup3\n        /* \"#utility.yul\":8592:8685   */\n      tag_253\n      jump\t// in\n    tag_252:\n        /* \"#utility.yul\":8710:8711   */\n      0x00\n        /* \"#utility.yul\":8705:8708   */\n      dup3\n        /* \"#utility.yul\":8701:8712   */\n      add\n        /* \"#utility.yul\":8694:8712   */\n      swap1\n      pop\n        /* \"#utility.yul\":8501:8718   */\n      swap2\n      swap1\n      pop\n      jump\t// out\n        /* \"#utility.yul\":8724:9090   */\n    tag_254:\n        /* \"#utility.yul\":8866:8869   */\n      0x00\n        /* \"#utility.yul\":8887:8954   */\n      tag_256\n        /* \"#utility.yul\":8951:8953   */\n      0x16\n        /* \"#utility.yul\":8946:8949   */\n      dup4\n        /* \"#utility.yul\":8887:8954   */\n      tag_211\n      jump\t// in\n    tag_256:\n        /* \"#utility.yul\":8880:8954   */\n      swap2\n      pop\n        /* \"#utility.yul\":8963:9056   */\n      tag_257\n        /* \"#utility.yul\":9052:9055   */\n      dup3\n        /* \"#utility.yul\":8963:9056   */\n      tag_258\n      jump\t// in\n    tag_257:\n        /* \"#utility.yul\":9081:9083   */\n      0x20\n        /* \"#utility.yul\":9076:9079   */\n      dup3\n        /* \"#utility.yul\":9072:9084   */\n      add\n        /* \"#utility.yul\":9065:9084   */\n      swap1\n      pop\n        /* \"#utility.yul\":8870:9090   */\n      swap2\n      swap1\n      pop\n      jump\t// out\n        /* \"#utility.yul\":9096:9462   */\n    tag_259:\n        /* \"#utility.yul\":9238:9241   */\n      0x00\n        /* \"#utility.yul\":9259:9326   */\n      tag_261\n        /* \"#utility.yul\":9323:9325   */\n      0x0d\n        /* \"#utility.yul\":9318:9321   */\n      dup4\n        /* \"#utility.yul\":9259:9326   */\n      tag_211\n      jump\t// in\n    tag_261:\n        /* \"#utility.yul\":9252:9326   */\n      swap2\n      pop\n        /* \"#utility.yul\":9335:9428   */\n      tag_262\n        /* \"#utility.yul\":9424:9427   */\n      dup3\n        /* \"#utility.yul\":9335:9428   */\n      tag_263\n      jump\t// in\n    tag_262:\n        /* \"#utility.yul\":9453:9455   */\n      0x20\n        /* \"#utility.yul\":9448:9451   */\n      dup3\n        /* \"#utility.yul\":9444:9456   */\n      add\n        /* \"#utility.yul\":9437:9456   */\n      swap1\n      pop\n        /* \"#utility.yul\":9242:9462   */\n      swap2\n      swap1\n      pop\n      jump\t// out\n        /* \"#utility.yul\":9468:9586   */\n    tag_264:\n        /* \"#utility.yul\":9555:9579   */\n      tag_266\n        /* \"#utility.yul\":9573:9578   */\n      dup2\n        /* \"#utility.yul\":9555:9579   */\n      tag_267\n      jump\t// in\n    tag_266:\n        /* \"#utility.yul\":9550:9553   */\n      dup3\n        /* \"#utility.yul\":9543:9580   */\n      mstore\n        /* \"#utility.yul\":9533:9586   */\n      pop\n      pop\n      jump\t// out\n        /* \"#utility.yul\":9592:9814   */\n    tag_25:\n        /* \"#utility.yul\":9685:9689   */\n      0x00\n        /* \"#utility.yul\":9723:9725   */\n      0x20\n        /* \"#utility.yul\":9712:9721   */\n      dup3\n        /* \"#utility.yul\":9708:9726   */\n      add\n        /* \"#utility.yul\":9700:9726   */\n      swap1\n      pop\n        /* \"#utility.yul\":9736:9807   */\n      tag_269\n        /* \"#utility.yul\":9804:9805   */\n      0x00\n        /* \"#utility.yul\":9793:9802   */\n      dup4\n        /* \"#utility.yul\":9789:9806   */\n      add\n        /* \"#utility.yul\":9780:9786   */\n      dup5\n        /* \"#utility.yul\":9736:9807   */\n      tag_192\n      jump\t// in\n    tag_269:\n        /* \"#utility.yul\":9690:9814   */\n      swap3\n      swap2\n      pop\n      pop\n      jump\t// out\n        /* \"#utility.yul\":9820:10480   */\n    tag_121:\n        /* \"#utility.yul\":10025:10029   */\n      0x00\n        /* \"#utility.yul\":10063:10066   */\n      0x80\n        /* \"#utility.yul\":10052:10061   */\n      dup3\n        /* \"#utility.yul\":10048:10067   */\n      add\n        /* \"#utility.yul\":10040:10067   */\n      swap1\n      pop\n        /* \"#utility.yul\":10077:10148   */\n      tag_271\n        /* \"#utility.yul\":10145:10146   */\n      0x00\n        /* \"#utility.yul\":10134:10143   */\n      dup4\n        /* \"#utility.yul\":10130:10147   */\n      add\n        /* \"#utility.yul\":10121:10127   */\n      dup9\n        /* \"#utility.yul\":10077:10148   */\n      tag_192\n      jump\t// in\n    tag_271:\n        /* \"#utility.yul\":10158:10230   */\n      tag_272\n        /* \"#utility.yul\":10226:10228   */\n      0x20\n        /* \"#utility.yul\":10215:10224   */\n      dup4\n        /* \"#utility.yul\":10211:10229   */\n      add\n        /* \"#utility.yul\":10202:10208   */\n      dup8\n        /* \"#utility.yul\":10158:10230   */\n      tag_192\n      jump\t// in\n    tag_272:\n        /* \"#utility.yul\":10240:10312   */\n      tag_273\n        /* \"#utility.yul\":10308:10310   */\n      0x40\n        /* \"#utility.yul\":10297:10306   */\n      dup4\n        /* \"#utility.yul\":10293:10311   */\n      add\n        /* \"#utility.yul\":10284:10290   */\n      dup7\n        /* \"#utility.yul\":10240:10312   */\n      tag_264\n      jump\t// in\n    tag_273:\n        /* \"#utility.yul\":10359:10368   */\n      dup2\n        /* \"#utility.yul\":10353:10357   */\n      dup2\n        /* \"#utility.yul\":10349:10369   */\n      sub\n        /* \"#utility.yul\":10344:10346   */\n      0x60\n        /* \"#utility.yul\":10333:10342   */\n      dup4\n        /* \"#utility.yul\":10329:10347   */\n      add\n        /* \"#utility.yul\":10322:10370   */\n      mstore\n        /* \"#utility.yul\":10387:10473   */\n      tag_274\n        /* \"#utility.yul\":10468:10472   */\n      dup2\n        /* \"#utility.yul\":10459:10465   */\n      dup5\n        /* \"#utility.yul\":10451:10457   */\n      dup7\n        /* \"#utility.yul\":10387:10473   */\n      tag_200\n      jump\t// in\n    tag_274:\n        /* \"#utility.yul\":10379:10473   */\n      swap1\n      pop\n        /* \"#utility.yul\":10030:10480   */\n      swap7\n      swap6\n      pop\n      pop\n      pop\n      pop\n      pop\n      pop\n      jump\t// out\n        /* \"#utility.yul\":10486:11234   */\n    tag_95:\n        /* \"#utility.yul\":10735:10739   */\n      0x00\n        /* \"#utility.yul\":10773:10776   */\n      0x80\n        /* \"#utility.yul\":10762:10771   */\n      dup3\n        /* \"#utility.yul\":10758:10777   */\n      add\n        /* \"#utility.yul\":10750:10777   */\n      swap1\n      pop\n        /* \"#utility.yul\":10787:10858   */\n      tag_276\n        /* \"#utility.yul\":10855:10856   */\n      0x00\n        /* \"#utility.yul\":10844:10853   */\n      dup4\n        /* \"#utility.yul\":10840:10857   */\n      add\n        /* \"#utility.yul\":10831:10837   */\n      dup7\n        /* \"#utility.yul\":10787:10858   */\n      tag_192\n      jump\t// in\n    tag_276:\n        /* \"#utility.yul\":10868:10940   */\n      tag_277\n        /* \"#utility.yul\":10936:10938   */\n      0x20\n        /* \"#utility.yul\":10925:10934   */\n      dup4\n        /* \"#utility.yul\":10921:10939   */\n      add\n        /* \"#utility.yul\":10912:10918   */\n      dup6\n        /* \"#utility.yul\":10868:10940   */\n      tag_192\n      jump\t// in\n    tag_277:\n        /* \"#utility.yul\":10950:11022   */\n      tag_278\n        /* \"#utility.yul\":11018:11020   */\n      0x40\n        /* \"#utility.yul\":11007:11016   */\n      dup4\n        /* \"#utility.yul\":11003:11021   */\n      add\n        /* \"#utility.yul\":10994:11000   */\n      dup5\n        /* \"#utility.yul\":10950:11022   */\n      tag_264\n      jump\t// in\n    tag_278:\n        /* \"#utility.yul\":11069:11078   */\n      dup2\n        /* \"#utility.yul\":11063:11067   */\n      dup2\n        /* \"#utility.yul\":11059:11079   */\n      sub\n        /* \"#utility.yul\":11054:11056   */\n      0x60\n        /* \"#utility.yul\":11043:11052   */\n      dup4\n        /* \"#utility.yul\":11039:11057   */\n      add\n        /* \"#utility.yul\":11032:11080   */\n      mstore\n        /* \"#utility.yul\":11097:11227   */\n      tag_279\n        /* \"#utility.yul\":11222:11226   */\n      dup2\n        /* \"#utility.yul\":11097:11227   */\n      tag_249\n      jump\t// in\n    tag_279:\n        /* \"#utility.yul\":11089:11227   */\n      swap1\n      pop\n        /* \"#utility.yul\":10740:11234   */\n      swap5\n      swap4\n      pop\n      pop\n      pop\n      pop\n      jump\t// out\n        /* \"#utility.yul\":11240:11450   */\n    tag_19:\n        /* \"#utility.yul\":11327:11331   */\n      0x00\n        /* \"#utility.yul\":11365:11367   */\n      0x20\n        /* \"#utility.yul\":11354:11363   */\n      dup3\n        /* \"#utility.yul\":11350:11368   */\n      add\n        /* \"#utility.yul\":11342:11368   */\n      swap1\n      pop\n        /* \"#utility.yul\":11378:11443   */\n      tag_281\n        /* \"#utility.yul\":11440:11441   */\n      0x00\n        /* \"#utility.yul\":11429:11438   */\n      dup4\n        /* \"#utility.yul\":11425:11442   */\n      add\n        /* \"#utility.yul\":11416:11422   */\n      dup5\n        /* \"#utility.yul\":11378:11443   */\n      tag_196\n      jump\t// in\n    tag_281:\n        /* \"#utility.yul\":11332:11450   */\n      swap3\n      swap2\n      pop\n      pop\n      jump\t// out\n        /* \"#utility.yul\":11456:11875   */\n    tag_103:\n        /* \"#utility.yul\":11622:11626   */\n      0x00\n        /* \"#utility.yul\":11660:11662   */\n      0x20\n        /* \"#utility.yul\":11649:11658   */\n      dup3\n        /* \"#utility.yul\":11645:11663   */\n      add\n        /* \"#utility.yul\":11637:11663   */\n      swap1\n      pop\n        /* \"#utility.yul\":11709:11718   */\n      dup2\n        /* \"#utility.yul\":11703:11707   */\n      dup2\n        /* \"#utility.yul\":11699:11719   */\n      sub\n        /* \"#utility.yul\":11695:11696   */\n      0x00\n        /* \"#utility.yul\":11684:11693   */\n      dup4\n        /* \"#utility.yul\":11680:11697   */\n      add\n        /* \"#utility.yul\":11673:11720   */\n      mstore\n        /* \"#utility.yul\":11737:11868   */\n      tag_283\n        /* \"#utility.yul\":11863:11867   */\n      dup2\n        /* \"#utility.yul\":11737:11868   */\n      tag_208\n      jump\t// in\n    tag_283:\n        /* \"#utility.yul\":11729:11868   */\n      swap1\n      pop\n        /* \"#utility.yul\":11627:11875   */\n      swap2\n      swap1\n      pop\n      jump\t// out\n        /* \"#utility.yul\":11881:12300   */\n    tag_78:\n        /* \"#utility.yul\":12047:12051   */\n      0x00\n        /* \"#utility.yul\":12085:12087   */\n      0x20\n        /* \"#utility.yul\":12074:12083   */\n      dup3\n        /* \"#utility.yul\":12070:12088   */\n      add\n        /* \"#utility.yul\":12062:12088   */\n      swap1\n      pop\n        /* \"#utility.yul\":12134:12143   */\n      dup2\n        /* \"#utility.yul\":12128:12132   */\n      dup2\n        /* \"#utility.yul\":12124:12144   */\n      sub\n        /* \"#utility.yul\":12120:12121   */\n      0x00\n        /* \"#utility.yul\":12109:12118   */\n      dup4\n        /* \"#utility.yul\":12105:12122   */\n      add\n        /* \"#utility.yul\":12098:12145   */\n      mstore\n        /* \"#utility.yul\":12162:12293   */\n      tag_285\n        /* \"#utility.yul\":12288:12292   */\n      dup2\n        /* \"#utility.yul\":12162:12293   */\n      tag_214\n      jump\t// in\n    tag_285:\n        /* \"#utility.yul\":12154:12293   */\n      swap1\n      pop\n        /* \"#utility.yul\":12052:12300   */\n      swap2\n      swap1\n      pop\n      jump\t// out\n        /* \"#utility.yul\":12306:12725   */\n    tag_81:\n        /* \"#utility.yul\":12472:12476   */\n      0x00\n        /* \"#utility.yul\":12510:12512   */\n      0x20\n        /* \"#utility.yul\":12499:12508   */\n      dup3\n        /* \"#utility.yul\":12495:12513   */\n      add\n        /* \"#utility.yul\":12487:12513   */\n      swap1\n      pop\n        /* \"#utility.yul\":12559:12568   */\n      dup2\n        /* \"#utility.yul\":12553:12557   */\n      dup2\n        /* \"#utility.yul\":12549:12569   */\n      sub\n        /* \"#utility.yul\":12545:12546   */\n      0x00\n        /* \"#utility.yul\":12534:12543   */\n      dup4\n        /* \"#utility.yul\":12530:12547   */\n      add\n        /* \"#utility.yul\":12523:12570   */\n      mstore\n        /* \"#utility.yul\":12587:12718   */\n      tag_287\n        /* \"#utility.yul\":12713:12717   */\n      dup2\n        /* \"#utility.yul\":12587:12718   */\n      tag_219\n      jump\t// in\n    tag_287:\n        /* \"#utility.yul\":12579:12718   */\n      swap1\n      pop\n        /* \"#utility.yul\":12477:12725   */\n      swap2\n      swap1\n      pop\n      jump\t// out\n        /* \"#utility.yul\":12731:13150   */\n    tag_111:\n        /* \"#utility.yul\":12897:12901   */\n      0x00\n        /* \"#utility.yul\":12935:12937   */\n      0x20\n        /* \"#utility.yul\":12924:12933   */\n      dup3\n        /* \"#utility.yul\":12920:12938   */\n      add\n        /* \"#utility.yul\":12912:12938   */\n      swap1\n      pop\n        /* \"#utility.yul\":12984:12993   */\n      dup2\n        /* \"#utility.yul\":12978:12982   */\n      dup2\n        /* \"#utility.yul\":12974:12994   */\n      sub\n        /* \"#utility.yul\":12970:12971   */\n      0x00\n        /* \"#utility.yul\":12959:12968   */\n      dup4\n        /* \"#utility.yul\":12955:12972   */\n      add\n        /* \"#utility.yul\":12948:12995   */\n      mstore\n        /* \"#utility.yul\":13012:13143   */\n      tag_289\n        /* \"#utility.yul\":13138:13142   */\n      dup2\n        /* \"#utility.yul\":13012:13143   */\n      tag_224\n      jump\t// in\n    tag_289:\n        /* \"#utility.yul\":13004:13143   */\n      swap1\n      pop\n        /* \"#utility.yul\":12902:13150   */\n      swap2\n      swap1\n      pop\n      jump\t// out\n        /* \"#utility.yul\":13156:13575   */\n    tag_107:\n        /* \"#utility.yul\":13322:13326   */\n      0x00\n        /* \"#utility.yul\":13360:13362   */\n      0x20\n        /* \"#utility.yul\":13349:13358   */\n      dup3\n        /* \"#utility.yul\":13345:13363   */\n      add\n        /* \"#utility.yul\":13337:13363   */\n      swap1\n      pop\n        /* \"#utility.yul\":13409:13418   */\n      dup2\n        /* \"#utility.yul\":13403:13407   */\n      dup2\n        /* \"#utility.yul\":13399:13419   */\n      sub\n        /* \"#utility.yul\":13395:13396   */\n      0x00\n        /* \"#utility.yul\":13384:13393   */\n      dup4\n        /* \"#utility.yul\":13380:13397   */\n      add\n        /* \"#utility.yul\":13373:13420   */\n      mstore\n        /* \"#utility.yul\":13437:13568   */\n      tag_291\n        /* \"#utility.yul\":13563:13567   */\n      dup2\n        /* \"#utility.yul\":13437:13568   */\n      tag_229\n      jump\t// in\n    tag_291:\n        /* \"#utility.yul\":13429:13568   */\n      swap1\n      pop\n        /* \"#utility.yul\":13327:13575   */\n      swap2\n      swap1\n      pop\n      jump\t// out\n        /* \"#utility.yul\":13581:14000   */\n    tag_75:\n        /* \"#utility.yul\":13747:13751   */\n      0x00\n        /* \"#utility.yul\":13785:13787   */\n      0x20\n        /* \"#utility.yul\":13774:13783   */\n      dup3\n        /* \"#utility.yul\":13770:13788   */\n      add\n        /* \"#utility.yul\":13762:13788   */\n      swap1\n      pop\n        /* \"#utility.yul\":13834:13843   */\n      dup2\n        /* \"#utility.yul\":13828:13832   */\n      dup2\n        /* \"#utility.yul\":13824:13844   */\n      sub\n        /* \"#utility.yul\":13820:13821   */\n      0x00\n        /* \"#utility.yul\":13809:13818   */\n      dup4\n        /* \"#utility.yul\":13805:13822   */\n      add\n        /* \"#utility.yul\":13798:13845   */\n      mstore\n        /* \"#utility.yul\":13862:13993   */\n      tag_293\n        /* \"#utility.yul\":13988:13992   */\n      dup2\n        /* \"#utility.yul\":13862:13993   */\n      tag_234\n      jump\t// in\n    tag_293:\n        /* \"#utility.yul\":13854:13993   */\n      swap1\n      pop\n        /* \"#utility.yul\":13752:14000   */\n      swap2\n      swap1\n      pop\n      jump\t// out\n        /* \"#utility.yul\":14006:14425   */\n    tag_70:\n        /* \"#utility.yul\":14172:14176   */\n      0x00\n        /* \"#utility.yul\":14210:14212   */\n      0x20\n        /* \"#utility.yul\":14199:14208   */\n      dup3\n        /* \"#utility.yul\":14195:14213   */\n      add\n        /* \"#utility.yul\":14187:14213   */\n      swap1\n      pop\n        /* \"#utility.yul\":14259:14268   */\n      dup2\n        /* \"#utility.yul\":14253:14257   */\n      dup2\n        /* \"#utility.yul\":14249:14269   */\n      sub\n        /* \"#utility.yul\":14245:14246   */\n      0x00\n        /* \"#utility.yul\":14234:14243   */\n      dup4\n        /* \"#utility.yul\":14230:14247   */\n      add\n        /* \"#utility.yul\":14223:14270   */\n      mstore\n        /* \"#utility.yul\":14287:14418   */\n      tag_295\n        /* \"#utility.yul\":14413:14417   */\n      dup2\n        /* \"#utility.yul\":14287:14418   */\n      tag_239\n      jump\t// in\n    tag_295:\n        /* \"#utility.yul\":14279:14418   */\n      swap1\n      pop\n        /* \"#utility.yul\":14177:14425   */\n      swap2\n      swap1\n      pop\n      jump\t// out\n        /* \"#utility.yul\":14431:14850   */\n    tag_65:\n        /* \"#utility.yul\":14597:14601   */\n      0x00\n        /* \"#utility.yul\":14635:14637   */\n      0x20\n        /* \"#utility.yul\":14624:14633   */\n      dup3\n        /* \"#utility.yul\":14620:14638   */\n      add\n        /* \"#utility.yul\":14612:14638   */\n      swap1\n      pop\n        /* \"#utility.yul\":14684:14693   */\n      dup2\n        /* \"#utility.yul\":14678:14682   */\n      dup2\n        /* \"#utility.yul\":14674:14694   */\n      sub\n        /* \"#utility.yul\":14670:14671   */\n      0x00\n        /* \"#utility.yul\":14659:14668   */\n      dup4\n        /* \"#utility.yul\":14655:14672   */\n      add\n        /* \"#utility.yul\":14648:14695   */\n      mstore\n        /* \"#utility.yul\":14712:14843   */\n      tag_297\n        /* \"#utility.yul\":14838:14842   */\n      dup2\n        /* \"#utility.yul\":14712:14843   */\n      tag_244\n      jump\t// in\n    tag_297:\n        /* \"#utility.yul\":14704:14843   */\n      swap1\n      pop\n        /* \"#utility.yul\":14602:14850   */\n      swap2\n      swap1\n      pop\n      jump\t// out\n        /* \"#utility.yul\":14856:15275   */\n    tag_115:\n        /* \"#utility.yul\":15022:15026   */\n      0x00\n        /* \"#utility.yul\":15060:15062   */\n      0x20\n        /* \"#utility.yul\":15049:15058   */\n      dup3\n        /* \"#utility.yul\":15045:15063   */\n      add\n        /* \"#utility.yul\":15037:15063   */\n      swap1\n      pop\n        /* \"#utility.yul\":15109:15118   */\n      dup2\n        /* \"#utility.yul\":15103:15107   */\n      dup2\n        /* \"#utility.yul\":15099:15119   */\n      sub\n        /* \"#utility.yul\":15095:15096   */\n      0x00\n        /* \"#utility.yul\":15084:15093   */\n      dup4\n        /* \"#utility.yul\":15080:15097   */\n      add\n        /* \"#utility.yul\":15073:15120   */\n      mstore\n        /* \"#utility.yul\":15137:15268   */\n      tag_299\n        /* \"#utility.yul\":15263:15267   */\n      dup2\n        /* \"#utility.yul\":15137:15268   */\n      tag_254\n      jump\t// in\n    tag_299:\n        /* \"#utility.yul\":15129:15268   */\n      swap1\n      pop\n        /* \"#utility.yul\":15027:15275   */\n      swap2\n      swap1\n      pop\n      jump\t// out\n        /* \"#utility.yul\":15281:15700   */\n    tag_86:\n        /* \"#utility.yul\":15447:15451   */\n      0x00\n        /* \"#utility.yul\":15485:15487   */\n      0x20\n        /* \"#utility.yul\":15474:15483   */\n      dup3\n        /* \"#utility.yul\":15470:15488   */\n      add\n        /* \"#utility.yul\":15462:15488   */\n      swap1\n      pop\n        /* \"#utility.yul\":15534:15543   */\n      dup2\n        /* \"#utility.yul\":15528:15532   */\n      dup2\n        /* \"#utility.yul\":15524:15544   */\n      sub\n        /* \"#utility.yul\":15520:15521   */\n      0x00\n        /* \"#utility.yul\":15509:15518   */\n      dup4\n        /* \"#utility.yul\":15505:15522   */\n      add\n        /* \"#utility.yul\":15498:15545   */\n      mstore\n        /* \"#utility.yul\":15562:15693   */\n      tag_301\n        /* \"#utility.yul\":15688:15692   */\n      dup2\n        /* \"#utility.yul\":15562:15693   */\n      tag_259\n      jump\t// in\n    tag_301:\n        /* \"#utility.yul\":15554:15693   */\n      swap1\n      pop\n        /* \"#utility.yul\":15452:15700   */\n      swap2\n      swap1\n      pop\n      jump\t// out\n        /* \"#utility.yul\":15706:15928   */\n    tag_46:\n        /* \"#utility.yul\":15799:15803   */\n      0x00\n        /* \"#utility.yul\":15837:15839   */\n      0x20\n        /* \"#utility.yul\":15826:15835   */\n      dup3\n        /* \"#utility.yul\":15822:15840   */\n      add\n        /* \"#utility.yul\":15814:15840   */\n      swap1\n      pop\n        /* \"#utility.yul\":15850:15921   */\n      tag_303\n        /* \"#utility.yul\":15918:15919   */\n      0x00\n        /* \"#utility.yul\":15907:15916   */\n      dup4\n        /* \"#utility.yul\":15903:15920   */\n      add\n        /* \"#utility.yul\":15894:15900   */\n      dup5\n        /* \"#utility.yul\":15850:15921   */\n      tag_264\n      jump\t// in\n    tag_303:\n        /* \"#utility.yul\":15804:15928   */\n      swap3\n      swap2\n      pop\n      pop\n      jump\t// out\n        /* \"#utility.yul\":15934:16102   */\n    tag_203:\n        /* \"#utility.yul\":16017:16028   */\n      0x00\n        /* \"#utility.yul\":16051:16057   */\n      dup3\n        /* \"#utility.yul\":16046:16049   */\n      dup3\n        /* \"#utility.yul\":16039:16058   */\n      mstore\n        /* \"#utility.yul\":16091:16095   */\n      0x20\n        /* \"#utility.yul\":16086:16089   */\n      dup3\n        /* \"#utility.yul\":16082:16096   */\n      add\n        /* \"#utility.yul\":16067:16096   */\n      swap1\n      pop\n        /* \"#utility.yul\":16029:16102   */\n      swap3\n      swap2\n      pop\n      pop\n      jump\t// out\n        /* \"#utility.yul\":16108:16277   */\n    tag_211:\n        /* \"#utility.yul\":16192:16203   */\n      0x00\n        /* \"#utility.yul\":16226:16232   */\n      dup3\n        /* \"#utility.yul\":16221:16224   */\n      dup3\n        /* \"#utility.yul\":16214:16233   */\n      mstore\n        /* \"#utility.yul\":16266:16270   */\n      0x20\n        /* \"#utility.yul\":16261:16264   */\n      dup3\n        /* \"#utility.yul\":16257:16271   */\n      add\n        /* \"#utility.yul\":16242:16271   */\n      swap1\n      pop\n        /* \"#utility.yul\":16204:16277   */\n      swap3\n      swap2\n      pop\n      pop\n      jump\t// out\n        /* \"#utility.yul\":16283:16379   */\n    tag_195:\n        /* \"#utility.yul\":16320:16327   */\n      0x00\n        /* \"#utility.yul\":16349:16373   */\n      tag_307\n        /* \"#utility.yul\":16367:16372   */\n      dup3\n        /* \"#utility.yul\":16349:16373   */\n      tag_308\n      jump\t// in\n    tag_307:\n        /* \"#utility.yul\":16338:16373   */\n      swap1\n      pop\n        /* \"#utility.yul\":16328:16379   */\n      swap2\n      swap1\n      pop\n      jump\t// out\n        /* \"#utility.yul\":16385:16475   */\n    tag_199:\n        /* \"#utility.yul\":16419:16426   */\n      0x00\n        /* \"#utility.yul\":16462:16467   */\n      dup2\n        /* \"#utility.yul\":16455:16468   */\n      iszero\n        /* \"#utility.yul\":16448:16469   */\n      iszero\n        /* \"#utility.yul\":16437:16469   */\n      swap1\n      pop\n        /* \"#utility.yul\":16427:16475   */\n      swap2\n      swap1\n      pop\n      jump\t// out\n        /* \"#utility.yul\":16481:16630   */\n    tag_310:\n        /* \"#utility.yul\":16517:16524   */\n      0x00\n        /* \"#utility.yul\":16557:16623   */\n      0xffffffff00000000000000000000000000000000000000000000000000000000\n        /* \"#utility.yul\":16550:16555   */\n      dup3\n        /* \"#utility.yul\":16546:16624   */\n      and\n        /* \"#utility.yul\":16535:16624   */\n      swap1\n      pop\n        /* \"#utility.yul\":16525:16630   */\n      swap2\n      swap1\n      pop\n      jump\t// out\n        /* \"#utility.yul\":16636:16762   */\n    tag_308:\n        /* \"#utility.yul\":16673:16680   */\n      0x00\n        /* \"#utility.yul\":16713:16755   */\n      0xffffffffffffffffffffffffffffffffffffffff\n        /* \"#utility.yul\":16706:16711   */\n      dup3\n        /* \"#utility.yul\":16702:16756   */\n      and\n        /* \"#utility.yul\":16691:16756   */\n      swap1\n      pop\n        /* \"#utility.yul\":16681:16762   */\n      swap2\n      swap1\n      pop\n      jump\t// out\n        /* \"#utility.yul\":16768:16845   */\n    tag_267:\n        /* \"#utility.yul\":16805:16812   */\n      0x00\n        /* \"#utility.yul\":16834:16839   */\n      dup2\n        /* \"#utility.yul\":16823:16839   */\n      swap1\n      pop\n        /* \"#utility.yul\":16813:16845   */\n      swap2\n      swap1\n      pop\n      jump\t// out\n        /* \"#utility.yul\":16851:17005   */\n    tag_205:\n        /* \"#utility.yul\":16935:16941   */\n      dup3\n        /* \"#utility.yul\":16930:16933   */\n      dup2\n        /* \"#utility.yul\":16925:16928   */\n      dup4\n        /* \"#utility.yul\":16912:16942   */\n      calldatacopy\n        /* \"#utility.yul\":16997:16998   */\n      0x00\n        /* \"#utility.yul\":16988:16994   */\n      dup4\n        /* \"#utility.yul\":16983:16986   */\n      dup4\n        /* \"#utility.yul\":16979:16995   */\n      add\n        /* \"#utility.yul\":16972:16999   */\n      mstore\n        /* \"#utility.yul\":16902:17005   */\n      pop\n      pop\n      pop\n      jump\t// out\n        /* \"#utility.yul\":17011:17182   */\n    tag_88:\n        /* \"#utility.yul\":17050:17053   */\n      0x00\n        /* \"#utility.yul\":17073:17097   */\n      tag_316\n        /* \"#utility.yul\":17091:17096   */\n      dup3\n        /* \"#utility.yul\":17073:17097   */\n      tag_267\n      jump\t// in\n    tag_316:\n        /* \"#utility.yul\":17064:17097   */\n      swap2\n      pop\n        /* \"#utility.yul\":17119:17123   */\n      0x00\n        /* \"#utility.yul\":17112:17117   */\n      dup3\n        /* \"#utility.yul\":17109:17124   */\n      eq\n        /* \"#utility.yul\":17106:17108   */\n      iszero\n      tag_317\n      jumpi\n        /* \"#utility.yul\":17127:17145   */\n      tag_318\n      tag_319\n      jump\t// in\n    tag_318:\n        /* \"#utility.yul\":17106:17108   */\n    tag_317:\n        /* \"#utility.yul\":17174:17175   */\n      0x01\n        /* \"#utility.yul\":17167:17172   */\n      dup3\n        /* \"#utility.yul\":17163:17176   */\n      sub\n        /* \"#utility.yul\":17156:17176   */\n      swap1\n      pop\n        /* \"#utility.yul\":17054:17182   */\n      swap2\n      swap1\n      pop\n      jump\t// out\n        /* \"#utility.yul\":17188:17421   */\n    tag_90:\n        /* \"#utility.yul\":17227:17230   */\n      0x00\n        /* \"#utility.yul\":17250:17274   */\n      tag_321\n        /* \"#utility.yul\":17268:17273   */\n      dup3\n        /* \"#utility.yul\":17250:17274   */\n      tag_267\n      jump\t// in\n    tag_321:\n        /* \"#utility.yul\":17241:17274   */\n      swap2\n      pop\n        /* \"#utility.yul\":17296:17362   */\n      0xffffffffffffffffffffffffffffffffffffffffffffffffffffffffffffffff\n        /* \"#utility.yul\":17289:17294   */\n      dup3\n        /* \"#utility.yul\":17286:17363   */\n      eq\n        /* \"#utility.yul\":17283:17285   */\n      iszero\n      tag_322\n      jumpi\n        /* \"#utility.yul\":17366:17384   */\n      tag_323\n      tag_319\n      jump\t// in\n    tag_323:\n        /* \"#utility.yul\":17283:17285   */\n    tag_322:\n        /* \"#utility.yul\":17413:17414   */\n      0x01\n        /* \"#utility.yul\":17406:17411   */\n      dup3\n        /* \"#utility.yul\":17402:17415   */\n      add\n        /* \"#utility.yul\":17395:17415   */\n      swap1\n      pop\n        /* \"#utility.yul\":17231:17421   */\n      swap2\n      swap1\n      pop\n      jump\t// out\n        /* \"#utility.yul\":17427:17607   */\n    tag_319:\n        /* \"#utility.yul\":17475:17552   */\n      0x4e487b7100000000000000000000000000000000000000000000000000000000\n        /* \"#utility.yul\":17472:17473   */\n      0x00\n        /* \"#utility.yul\":17465:17553   */\n      mstore\n        /* \"#utility.yul\":17572:17576   */\n      0x11\n        /* \"#utility.yul\":17569:17570   */\n      0x04\n        /* \"#utility.yul\":17562:17577   */\n      mstore\n        /* \"#utility.yul\":17596:17600   */\n      0x24\n        /* \"#utility.yul\":17593:17594   */\n      0x00\n        /* \"#utility.yul\":17586:17601   */\n      revert\n        /* \"#utility.yul\":17613:17715   */\n    tag_207:\n        /* \"#utility.yul\":17654:17660   */\n      0x00\n        /* \"#utility.yul\":17705:17707   */\n      0x1f\n        /* \"#utility.yul\":17701:17708   */\n      not\n        /* \"#utility.yul\":17696:17698   */\n      0x1f\n        /* \"#utility.yul\":17689:17694   */\n      dup4\n        /* \"#utility.yul\":17685:17699   */\n      add\n        /* \"#utility.yul\":17681:17709   */\n      and\n        /* \"#utility.yul\":17671:17709   */\n      swap1\n      pop\n        /* \"#utility.yul\":17661:17715   */\n      swap2\n      swap1\n      pop\n      jump\t// out\n        /* \"#utility.yul\":17721:17887   */\n    tag_213:\n        /* \"#utility.yul\":17861:17879   */\n      0x756e7361666520726563697069656e7400000000000000000000000000000000\n        /* \"#utility.yul\":17857:17858   */\n      0x00\n        /* \"#utility.yul\":17849:17855   */\n      dup3\n        /* \"#utility.yul\":17845:17859   */\n      add\n        /* \"#utility.yul\":17838:17880   */\n      mstore\n        /* \"#utility.yul\":17827:17887   */\n      pop\n      jump\t// out\n        /* \"#utility.yul\":17893:18055   */\n    tag_218:\n        /* \"#utility.yul\":18033:18047   */\n      0x746f6b656e4964207a65726f0000000000000000000000000000000000000000\n        /* \"#utility.yul\":18029:18030   */\n      0x00\n        /* \"#utility.yul\":18021:18027   */\n      dup3\n        /* \"#utility.yul\":18017:18031   */\n      add\n        /* \"#utility.yul\":18010:18048   */\n      mstore\n        /* \"#utility.yul\":17999:18055   */\n      pop\n      jump\t// out\n        /* \"#utility.yul\":18061:18287   */\n    tag_223:\n        /* \"#utility.yul\":18201:18235   */\n      0x6f776e6572206f6620746f6b656e4964206e6f74206d617463682066726f6d41\n        /* \"#utility.yul\":18197:18198   */\n      0x00\n        /* \"#utility.yul\":18189:18195   */\n      dup3\n        /* \"#utility.yul\":18185:18199   */\n      add\n        /* \"#utility.yul\":18178:18236   */\n      mstore\n        /* \"#utility.yul\":18270:18279   */\n      0x6464726573732000000000000000000000000000000000000000000000000000\n        /* \"#utility.yul\":18265:18267   */\n      0x20\n        /* \"#utility.yul\":18257:18263   */\n      dup3\n        /* \"#utility.yul\":18253:18268   */\n      add\n        /* \"#utility.yul\":18246:18280   */\n      mstore\n        /* \"#utility.yul\":18167:18287   */\n      pop\n      jump\t// out\n        /* \"#utility.yul\":18293:18470   */\n    tag_228:\n        /* \"#utility.yul\":18433:18462   */\n      0x4552433732313a2061646472657373207a65726f206973206e6f740000000000\n        /* \"#utility.yul\":18429:18430   */\n      0x00\n        /* \"#utility.yul\":18421:18427   */\n      dup3\n        /* \"#utility.yul\":18417:18431   */\n      add\n        /* \"#utility.yul\":18410:18463   */\n      mstore\n        /* \"#utility.yul\":18399:18470   */\n      pop\n      jump\t// out\n        /* \"#utility.yul\":18476:18645   */\n    tag_233:\n        /* \"#utility.yul\":18616:18637   */\n      0x61646472657373207a65726f206973206e6f7400000000000000000000000000\n        /* \"#utility.yul\":18612:18613   */\n      0x00\n        /* \"#utility.yul\":18604:18610   */\n      dup3\n        /* \"#utility.yul\":18600:18614   */\n      add\n        /* \"#utility.yul\":18593:18638   */\n      mstore\n        /* \"#utility.yul\":18582:18645   */\n      pop\n      jump\t// out\n        /* \"#utility.yul\":18651:18833   */\n    tag_238:\n        /* \"#utility.yul\":18791:18825   */\n      0x61646472657373206f7220746f41646472657373207a65726f206973206e6f74\n        /* \"#utility.yul\":18787:18788   */\n      0x00\n        /* \"#utility.yul\":18779:18785   */\n      dup3\n        /* \"#utility.yul\":18775:18789   */\n      add\n        /* \"#utility.yul\":18768:18826   */\n      mstore\n        /* \"#utility.yul\":18757:18833   */\n      pop\n      jump\t// out\n        /* \"#utility.yul\":18839:19003   */\n    tag_243:\n        /* \"#utility.yul\":18979:18995   */\n      0x6e6f7420617574686f72697a6564000000000000000000000000000000000000\n        /* \"#utility.yul\":18975:18976   */\n      0x00\n        /* \"#utility.yul\":18967:18973   */\n      dup3\n        /* \"#utility.yul\":18963:18977   */\n      add\n        /* \"#utility.yul\":18956:18996   */\n      mstore\n        /* \"#utility.yul\":18945:19003   */\n      pop\n      jump\t// out\n        /* \"#utility.yul\":19009:19177   */\n    tag_248:\n        /* \"#utility.yul\":19149:19169   */\n      0x4552432c20616464726573732069732020300000000000000000000000000000\n        /* \"#utility.yul\":19145:19146   */\n      0x00\n        /* \"#utility.yul\":19137:19143   */\n      dup3\n        /* \"#utility.yul\":19133:19147   */\n      add\n        /* \"#utility.yul\":19126:19170   */\n      mstore\n        /* \"#utility.yul\":19115:19177   */\n      pop\n      jump\t// out\n        /* \"#utility.yul\":19183:19297   */\n    tag_253:\n        /* \"#utility.yul\":19289:19297   */\n      pop\n      jump\t// out\n        /* \"#utility.yul\":19303:19475   */\n    tag_258:\n        /* \"#utility.yul\":19443:19467   */\n      0x6f70657261746f72206164647265737320697320203000000000000000000000\n        /* \"#utility.yul\":19439:19440   */\n      0x00\n        /* \"#utility.yul\":19431:19437   */\n      dup3\n        /* \"#utility.yul\":19427:19441   */\n      add\n        /* \"#utility.yul\":19420:19468   */\n      mstore\n        /* \"#utility.yul\":19409:19475   */\n      pop\n      jump\t// out\n        /* \"#utility.yul\":19481:19644   */\n    tag_263:\n        /* \"#utility.yul\":19621:19636   */\n      0x6e6f74206175746872697a656400000000000000000000000000000000000000\n        /* \"#utility.yul\":19617:19618   */\n      0x00\n        /* \"#utility.yul\":19609:19615   */\n      dup3\n        /* \"#utility.yul\":19605:19619   */\n      add\n        /* \"#utility.yul\":19598:19637   */\n      mstore\n        /* \"#utility.yul\":19587:19644   */\n      pop\n      jump\t// out\n        /* \"#utility.yul\":19650:19772   */\n    tag_135:\n        /* \"#utility.yul\":19723:19747   */\n      tag_338\n        /* \"#utility.yul\":19741:19746   */\n      dup2\n        /* \"#utility.yul\":19723:19747   */\n      tag_195\n      jump\t// in\n    tag_338:\n        /* \"#utility.yul\":19716:19721   */\n      dup2\n        /* \"#utility.yul\":19713:19748   */\n      eq\n        /* \"#utility.yul\":19703:19705   */\n      tag_339\n      jumpi\n        /* \"#utility.yul\":19762:19763   */\n      0x00\n        /* \"#utility.yul\":19759:19760   */\n      dup1\n        /* \"#utility.yul\":19752:19764   */\n      revert\n        /* \"#utility.yul\":19703:19705   */\n    tag_339:\n        /* \"#utility.yul\":19693:19772   */\n      pop\n      jump\t// out\n        /* \"#utility.yul\":19778:19894   */\n    tag_139:\n        /* \"#utility.yul\":19848:19869   */\n      tag_341\n        /* \"#utility.yul\":19863:19868   */\n      dup2\n        /* \"#utility.yul\":19848:19869   */\n      tag_199\n      jump\t// in\n    tag_341:\n        /* \"#utility.yul\":19841:19846   */\n      dup2\n        /* \"#utility.yul\":19838:19870   */\n      eq\n        /* \"#utility.yul\":19828:19830   */\n      tag_342\n      jumpi\n        /* \"#utility.yul\":19884:19885   */\n      0x00\n        /* \"#utility.yul\":19881:19882   */\n      dup1\n        /* \"#utility.yul\":19874:19886   */\n      revert\n        /* \"#utility.yul\":19828:19830   */\n    tag_342:\n        /* \"#utility.yul\":19818:19894   */\n      pop\n      jump\t// out\n        /* \"#utility.yul\":19900:20020   */\n    tag_143:\n        /* \"#utility.yul\":19972:19995   */\n      tag_344\n        /* \"#utility.yul\":19989:19994   */\n      dup2\n        /* \"#utility.yul\":19972:19995   */\n      tag_310\n      jump\t// in\n    tag_344:\n        /* \"#utility.yul\":19965:19970   */\n      dup2\n        /* \"#utility.yul\":19962:19996   */\n      eq\n        /* \"#utility.yul\":19952:19954   */\n      tag_345\n      jumpi\n        /* \"#utility.yul\":20010:20011   */\n      0x00\n        /* \"#utility.yul\":20007:20008   */\n      dup1\n        /* \"#utility.yul\":20000:20012   */\n      revert\n        /* \"#utility.yul\":19952:19954   */\n    tag_345:\n        /* \"#utility.yul\":19942:20020   */\n      pop\n      jump\t// out\n        /* \"#utility.yul\":20026:20148   */\n    tag_155:\n        /* \"#utility.yul\":20099:20123   */\n      tag_347\n        /* \"#utility.yul\":20117:20122   */\n      dup2\n        /* \"#utility.yul\":20099:20123   */\n      tag_267\n      jump\t// in\n    tag_347:\n        /* \"#utility.yul\":20092:20097   */\n      dup2\n        /* \"#utility.yul\":20089:20124   */\n      eq\n        /* \"#utility.yul\":20079:20081   */\n      tag_348\n      jumpi\n        /* \"#utility.yul\":20138:20139   */\n      0x00\n        /* \"#utility.yul\":20135:20136   */\n      dup1\n        /* \"#utility.yul\":20128:20140   */\n      revert\n        /* \"#utility.yul\":20079:20081   */\n    tag_348:\n        /* \"#utility.yul\":20069:20148   */\n      pop\n      jump\t// out\n\n    auxdata: 0xa26469706673582212209edd686edaee53cdb6958d83cec6263f67c18d514d03b12421d1cf4359d58eff64736f6c63430008040033\n}\n",
				"bytecode": {
					"linkReferences": {},
					"object": "608060405234801561001057600080fd5b50611a79806100206000396000f3fe608060405234801561001057600080fd5b506004361061009e5760003560e01c80636352211e116100665780636352211e1461015757806370a0823114610187578063a22cb465146101b7578063b88d4fde146101d3578063e985e9c5146101ef5761009e565b806301ffc9a7146100a3578063081812fc146100d3578063095ea7b31461010357806323b872dd1461011f57806342842e0e1461013b575b600080fd5b6100bd60048036038101906100b8919061124d565b61021f565b6040516100ca9190611556565b60405180910390f35b6100ed60048036038101906100e8919061129f565b6102f1565b6040516100fa91906114a3565b60405180910390f35b61011d60048036038101906101189190611211565b6103d0565b005b61013960048036038101906101349190611106565b6105b9565b005b61015560048036038101906101509190611106565b610921565b005b610171600480360381019061016c919061129f565b610a68565b60405161017e91906114a3565b60405180910390f35b6101a1600480360381019061019c91906110a1565b610b1a565b6040516101ae91906116b1565b60405180910390f35b6101d160048036038101906101cc91906111d5565b610bd1565b005b6101ed60048036038101906101e89190611155565b610d3e565b005b610209600480360381019061020491906110ca565b610e8b565b6040516102169190611556565b60405180910390f35b60007f80ac58cd000000000000000000000000000000000000000000000000000000007bffffffffffffffffffffffffffffffffffffffffffffffffffffffff1916827bffffffffffffffffffffffffffffffffffffffffffffffffffffffff191614806102ea57507f01ffc9a7000000000000000000000000000000000000000000000000000000007bffffffffffffffffffffffffffffffffffffffffffffffffffffffff1916827bffffffffffffffffffffffffffffffffffffffffffffffffffffffff1916145b9050919050565b60008073ffffffffffffffffffffffffffffffffffffffff166001600084815260200190815260200160002060009054906101000a900473ffffffffffffffffffffffffffffffffffffffff1673ffffffffffffffffffffffffffffffffffffffff161415610395576040517f08c379a000000000000000000000000000000000000000000000000000000000815260040161038c90611651565b60405180910390fd5b6003600083815260200190815260200160002060009054906101000a900473ffffffffffffffffffffffffffffffffffffffff169050919050565b60006001600083815260200190815260200160002060009054906101000a900473ffffffffffffffffffffffffffffffffffffffff1690508073ffffffffffffffffffffffffffffffffffffffff163373ffffffffffffffffffffffffffffffffffffffff1614806104c85750600260008273ffffffffffffffffffffffffffffffffffffffff1673ffffffffffffffffffffffffffffffffffffffff16815260200190815260200160002060003373ffffffffffffffffffffffffffffffffffffffff1673ffffffffffffffffffffffffffffffffffffffff16815260200190815260200160002060009054906101000a900460ff165b610507576040517f08c379a00000000000000000000000000000000000000000000000000000000081526004016104fe90611631565b60405180910390fd5b826003600084815260200190815260200160002060006101000a81548173ffffffffffffffffffffffffffffffffffffffff021916908373ffffffffffffffffffffffffffffffffffffffff160217905550818373ffffffffffffffffffffffffffffffffffffffff168273ffffffffffffffffffffffffffffffffffffffff167f8c5be1e5ebec7d5bd14f71427d1e84f3dd0314c0f7b2291e5b200ac8c7c3b92560405160405180910390a4505050565b600073ffffffffffffffffffffffffffffffffffffffff168373ffffffffffffffffffffffffffffffffffffffff16141580156106235750600073ffffffffffffffffffffffffffffffffffffffff168273ffffffffffffffffffffffffffffffffffffffff1614155b610662576040517f08c379a000000000000000000000000000000000000000000000000000000000815260040161065990611611565b60405180910390fd5b60008114156106a6576040517f08c379a000000000000000000000000000000000000000000000000000000000815260040161069d90611591565b60405180910390fd5b6001600082815260200190815260200160002060009054906101000a900473ffffffffffffffffffffffffffffffffffffffff1673ffffffffffffffffffffffffffffffffffffffff168373ffffffffffffffffffffffffffffffffffffffff1614610747576040517f08c379a000000000000000000000000000000000000000000000000000000000815260040161073e906115b1565b60405180910390fd5b610752833383610eba565b610791576040517f08c379a000000000000000000000000000000000000000000000000000000000815260040161078890611691565b60405180910390fd5b6000808473ffffffffffffffffffffffffffffffffffffffff1673ffffffffffffffffffffffffffffffffffffffff16815260200190815260200160002060008154809291906107e090611771565b91905055506000808373ffffffffffffffffffffffffffffffffffffffff1673ffffffffffffffffffffffffffffffffffffffff16815260200190815260200160002060008154809291906108349061179b565b9190505550816001600083815260200190815260200160002060006101000a81548173ffffffffffffffffffffffffffffffffffffffff021916908373ffffffffffffffffffffffffffffffffffffffff1602179055506003600082815260200190815260200160002060006101000a81549073ffffffffffffffffffffffffffffffffffffffff0219169055808273ffffffffffffffffffffffffffffffffffffffff168473ffffffffffffffffffffffffffffffffffffffff167fddf252ad1be2c89b69c2b068fc378daa952ba7f163c4a11628f55a4df523b3ef60405160405180910390a4505050565b61092c8383836105b9565b60008273ffffffffffffffffffffffffffffffffffffffff163b1480610a24575063150b7a0260e01b7bffffffffffffffffffffffffffffffffffffffffffffffffffffffff19168273ffffffffffffffffffffffffffffffffffffffff1663150b7a023386856040518463ffffffff1660e01b81526004016109b19392919061150c565b602060405180830381600087803b1580156109cb57600080fd5b505af11580156109df573d6000803e3d6000fd5b505050506040513d601f19601f82011682018060405250810190610a039190611276565b7bffffffffffffffffffffffffffffffffffffffffffffffffffffffff1916145b610a63576040517f08c379a0000000000000000000000000000000000000000000000000000000008152600401610a5a90611571565b60405180910390fd5b505050565b6000806001600084815260200190815260200160002060009054906101000a900473ffffffffffffffffffffffffffffffffffffffff169050600073ffffffffffffffffffffffffffffffffffffffff168173ffffffffffffffffffffffffffffffffffffffff161415610b11576040517f08c379a0000000000000000000000000000000000000000000000000000000008152600401610b08906115f1565b60405180910390fd5b80915050919050565b60008073ffffffffffffffffffffffffffffffffffffffff168273ffffffffffffffffffffffffffffffffffffffff161415610b8b576040517f08c379a0000000000000000000000000000000000000000000000000000000008152600401610b82906115d1565b60405180910390fd5b6000808373ffffffffffffffffffffffffffffffffffffffff1673ffffffffffffffffffffffffffffffffffffffff168152602001908152602001600020549050919050565b600073ffffffffffffffffffffffffffffffffffffffff168273ffffffffffffffffffffffffffffffffffffffff161415610c41576040517f08c379a0000000000000000000000000000000000000000000000000000000008152600401610c3890611671565b60405180910390fd5b80600260003373ffffffffffffffffffffffffffffffffffffffff1673ffffffffffffffffffffffffffffffffffffffff16815260200190815260200160002060008473ffffffffffffffffffffffffffffffffffffffff1673ffffffffffffffffffffffffffffffffffffffff16815260200190815260200160002060006101000a81548160ff0219169083151502179055508173ffffffffffffffffffffffffffffffffffffffff163373ffffffffffffffffffffffffffffffffffffffff167f17307eab39ab6107e8899845ad3d59bd9653f200f220920489ca2b5937696c3183604051610d329190611556565b60405180910390a35050565b610d498585856105b9565b60008473ffffffffffffffffffffffffffffffffffffffff163b1480610e45575063150b7a0260e01b7bffffffffffffffffffffffffffffffffffffffffffffffffffffffff19168473ffffffffffffffffffffffffffffffffffffffff1663150b7a0233888787876040518663ffffffff1660e01b8152600401610dd29594939291906114be565b602060405180830381600087803b158015610dec57600080fd5b505af1158015610e00573d6000803e3d6000fd5b505050506040513d601f19601f82011682018060405250810190610e249190611276565b7bffffffffffffffffffffffffffffffffffffffffffffffffffffffff1916145b610e84576040517f08c379a0000000000000000000000000000000000000000000000000000000008152600401610e7b90611571565b60405180910390fd5b5050505050565b60026020528160005260406000206020528060005260406000206000915091509054906101000a900460ff1681565b60008273ffffffffffffffffffffffffffffffffffffffff168473ffffffffffffffffffffffffffffffffffffffff161480610f5457508273ffffffffffffffffffffffffffffffffffffffff166001600084815260200190815260200160002060009054906101000a900473ffffffffffffffffffffffffffffffffffffffff1673ffffffffffffffffffffffffffffffffffffffff16145b80610fe55750600260008573ffffffffffffffffffffffffffffffffffffffff1673ffffffffffffffffffffffffffffffffffffffff16815260200190815260200160002060008473ffffffffffffffffffffffffffffffffffffffff1673ffffffffffffffffffffffffffffffffffffffff16815260200190815260200160002060009054906101000a900460ff165b90509392505050565b600081359050610ffd816119e7565b92915050565b600081359050611012816119fe565b92915050565b60008135905061102781611a15565b92915050565b60008151905061103c81611a15565b92915050565b60008083601f84011261105457600080fd5b8235905067ffffffffffffffff81111561106d57600080fd5b60208301915083600182028301111561108557600080fd5b9250929050565b60008135905061109b81611a2c565b92915050565b6000602082840312156110b357600080fd5b60006110c184828501610fee565b91505092915050565b600080604083850312156110dd57600080fd5b60006110eb85828601610fee565b92505060206110fc85828601610fee565b9150509250929050565b60008060006060848603121561111b57600080fd5b600061112986828701610fee565b935050602061113a86828701610fee565b925050604061114b8682870161108c565b9150509250925092565b60008060008060006080868803121561116d57600080fd5b600061117b88828901610fee565b955050602061118c88828901610fee565b945050604061119d8882890161108c565b935050606086013567ffffffffffffffff8111156111ba57600080fd5b6111c688828901611042565b92509250509295509295909350565b600080604083850312156111e857600080fd5b60006111f685828601610fee565b925050602061120785828601611003565b9150509250929050565b6000806040838503121561122457600080fd5b600061123285828601610fee565b92505060206112438582860161108c565b9150509250929050565b60006020828403121561125f57600080fd5b600061126d84828501611018565b91505092915050565b60006020828403121561128857600080fd5b60006112968482850161102d565b91505092915050565b6000602082840312156112b157600080fd5b60006112bf8482850161108c565b91505092915050565b6112d1816116ee565b82525050565b6112e081611700565b82525050565b60006112f283856116cc565b93506112ff838584611762565b61130883611813565b840190509392505050565b60006113206010836116dd565b915061132b82611824565b602082019050919050565b6000611343600c836116dd565b915061134e8261184d565b602082019050919050565b60006113666027836116dd565b915061137182611876565b604082019050919050565b6000611389601b836116dd565b9150611394826118c5565b602082019050919050565b60006113ac6013836116dd565b91506113b7826118ee565b602082019050919050565b60006113cf6020836116dd565b91506113da82611917565b602082019050919050565b60006113f2600e836116dd565b91506113fd82611940565b602082019050919050565b60006114156012836116dd565b915061142082611969565b602082019050919050565b60006114386000836116cc565b915061144382611992565b600082019050919050565b600061145b6016836116dd565b915061146682611995565b602082019050919050565b600061147e600d836116dd565b9150611489826119be565b602082019050919050565b61149d81611758565b82525050565b60006020820190506114b860008301846112c8565b92915050565b60006080820190506114d360008301886112c8565b6114e060208301876112c8565b6114ed6040830186611494565b81810360608301526115008184866112e6565b90509695505050505050565b600060808201905061152160008301866112c8565b61152e60208301856112c8565b61153b6040830184611494565b818103606083015261154c8161142b565b9050949350505050565b600060208201905061156b60008301846112d7565b92915050565b6000602082019050818103600083015261158a81611313565b9050919050565b600060208201905081810360008301526115aa81611336565b9050919050565b600060208201905081810360008301526115ca81611359565b9050919050565b600060208201905081810360008301526115ea8161137c565b9050919050565b6000602082019050818103600083015261160a8161139f565b9050919050565b6000602082019050818103600083015261162a816113c2565b9050919050565b6000602082019050818103600083015261164a816113e5565b9050919050565b6000602082019050818103600083015261166a81611408565b9050919050565b6000602082019050818103600083015261168a8161144e565b9050919050565b600060208201905081810360008301526116aa81611471565b9050919050565b60006020820190506116c66000830184611494565b92915050565b600082825260208201905092915050565b600082825260208201905092915050565b60006116f982611738565b9050919050565b60008115159050919050565b60007fffffffff0000000000000000000000000000000000000000000000000000000082169050919050565b600073ffffffffffffffffffffffffffffffffffffffff82169050919050565b6000819050919050565b82818337600083830152505050565b600061177c82611758565b915060008214156117905761178f6117e4565b5b600182039050919050565b60006117a682611758565b91507fffffffffffffffffffffffffffffffffffffffffffffffffffffffffffffffff8214156117d9576117d86117e4565b5b600182019050919050565b7f4e487b7100000000000000000000000000000000000000000000000000000000600052601160045260246000fd5b6000601f19601f8301169050919050565b7f756e7361666520726563697069656e7400000000000000000000000000000000600082015250565b7f746f6b656e4964207a65726f0000000000000000000000000000000000000000600082015250565b7f6f776e6572206f6620746f6b656e4964206e6f74206d617463682066726f6d4160008201527f6464726573732000000000000000000000000000000000000000000000000000602082015250565b7f4552433732313a2061646472657373207a65726f206973206e6f740000000000600082015250565b7f61646472657373207a65726f206973206e6f7400000000000000000000000000600082015250565b7f61646472657373206f7220746f41646472657373207a65726f206973206e6f74600082015250565b7f6e6f7420617574686f72697a6564000000000000000000000000000000000000600082015250565b7f4552432c20616464726573732069732020300000000000000000000000000000600082015250565b50565b7f6f70657261746f72206164647265737320697320203000000000000000000000600082015250565b7f6e6f74206175746872697a656400000000000000000000000000000000000000600082015250565b6119f0816116ee565b81146119fb57600080fd5b50565b611a0781611700565b8114611a1257600080fd5b50565b611a1e8161170c565b8114611a2957600080fd5b50565b611a3581611758565b8114611a4057600080fd5b5056fea26469706673582212209edd686edaee53cdb6958d83cec6263f67c18d514d03b12421d1cf4359d58eff64736f6c63430008040033",
					"opcodes": "PUSH1 0x80 PUSH1 0x40 MSTORE CALLVALUE DUP1 ISZERO PUSH2 0x10 JUMPI PUSH1 0x0 DUP1 REVERT JUMPDEST POP PUSH2 0x1A79 DUP1 PUSH2 0x20 PUSH1 0x0 CODECOPY PUSH1 0x0 RETURN INVALID PUSH1 0x80 PUSH1 0x40 MSTORE CALLVALUE DUP1 ISZERO PUSH2 0x10 JUMPI PUSH1 0x0 DUP1 REVERT JUMPDEST POP PUSH1 0x4 CALLDATASIZE LT PUSH2 0x9E JUMPI PUSH1 0x0 CALLDATALOAD PUSH1 0xE0 SHR DUP1 PUSH4 0x6352211E GT PUSH2 0x66 JUMPI DUP1 PUSH4 0x6352211E EQ PUSH2 0x157 JUMPI DUP1 PUSH4 0x70A08231 EQ PUSH2 0x187 JUMPI DUP1 PUSH4 0xA22CB465 EQ PUSH2 0x1B7 JUMPI DUP1 PUSH4 0xB88D4FDE EQ PUSH2 0x1D3 JUMPI DUP1 PUSH4 0xE985E9C5 EQ PUSH2 0x1EF JUMPI PUSH2 0x9E JUMP JUMPDEST DUP1 PUSH4 0x1FFC9A7 EQ PUSH2 0xA3 JUMPI DUP1 PUSH4 0x81812FC EQ PUSH2 0xD3 JUMPI DUP1 PUSH4 0x95EA7B3 EQ PUSH2 0x103 JUMPI DUP1 PUSH4 0x23B872DD EQ PUSH2 0x11F JUMPI DUP1 PUSH4 0x42842E0E EQ PUSH2 0x13B JUMPI JUMPDEST PUSH1 0x0 DUP1 REVERT JUMPDEST PUSH2 0xBD PUSH1 0x4 DUP1 CALLDATASIZE SUB DUP2 ADD SWAP1 PUSH2 0xB8 SWAP2 SWAP1 PUSH2 0x124D JUMP JUMPDEST PUSH2 0x21F JUMP JUMPDEST PUSH1 0x40 MLOAD PUSH2 0xCA SWAP2 SWAP1 PUSH2 0x1556 JUMP JUMPDEST PUSH1 0x40 MLOAD DUP1 SWAP2 SUB SWAP1 RETURN JUMPDEST PUSH2 0xED PUSH1 0x4 DUP1 CALLDATASIZE SUB DUP2 ADD SWAP1 PUSH2 0xE8 SWAP2 SWAP1 PUSH2 0x129F JUMP JUMPDEST PUSH2 0x2F1 JUMP JUMPDEST PUSH1 0x40 MLOAD PUSH2 0xFA SWAP2 SWAP1 PUSH2 0x14A3 JUMP JUMPDEST PUSH1 0x40 MLOAD DUP1 SWAP2 SUB SWAP1 RETURN JUMPDEST PUSH2 0x11D PUSH1 0x4 DUP1 CALLDATASIZE SUB DUP2 ADD SWAP1 PUSH2 0x118 SWAP2 SWAP1 PUSH2 0x1211 JUMP JUMPDEST PUSH2 0x3D0 JUMP JUMPDEST STOP JUMPDEST PUSH2 0x139 PUSH1 0x4 DUP1 CALLDATASIZE SUB DUP2 ADD SWAP1 PUSH2 0x134 SWAP2 SWAP1 PUSH2 0x1106 JUMP JUMPDEST PUSH2 0x5B9 JUMP JUMPDEST STOP JUMPDEST PUSH2 0x155 PUSH1 0x4 DUP1 CALLDATASIZE SUB DUP2 ADD SWAP1 PUSH2 0x150 SWAP2 SWAP1 PUSH2 0x1106 JUMP JUMPDEST PUSH2 0x921 JUMP JUMPDEST STOP JUMPDEST PUSH2 0x171 PUSH1 0x4 DUP1 CALLDATASIZE SUB DUP2 ADD SWAP1 PUSH2 0x16C SWAP2 SWAP1 PUSH2 0x129F JUMP JUMPDEST PUSH2 0xA68 JUMP JUMPDEST PUSH1 0x40 MLOAD PUSH2 0x17E SWAP2 SWAP1 PUSH2 0x14A3 JUMP JUMPDEST PUSH1 0x40 MLOAD DUP1 SWAP2 SUB SWAP1 RETURN JUMPDEST PUSH2 0x1A1 PUSH1 0x4 DUP1 CALLDATASIZE SUB DUP2 ADD SWAP1 PUSH2 0x19C SWAP2 SWAP1 PUSH2 0x10A1 JUMP JUMPDEST PUSH2 0xB1A JUMP JUMPDEST PUSH1 0x40 MLOAD PUSH2 0x1AE SWAP2 SWAP1 PUSH2 0x16B1 JUMP JUMPDEST PUSH1 0x40 MLOAD DUP1 SWAP2 SUB SWAP1 RETURN JUMPDEST PUSH2 0x1D1 PUSH1 0x4 DUP1 CALLDATASIZE SUB DUP2 ADD SWAP1 PUSH2 0x1CC SWAP2 SWAP1 PUSH2 0x11D5 JUMP JUMPDEST PUSH2 0xBD1 JUMP JUMPDEST STOP JUMPDEST PUSH2 0x1ED PUSH1 0x4 DUP1 CALLDATASIZE SUB DUP2 ADD SWAP1 PUSH2 0x1E8 SWAP2 SWAP1 PUSH2 0x1155 JUMP JUMPDEST PUSH2 0xD3E JUMP JUMPDEST STOP JUMPDEST PUSH2 0x209 PUSH1 0x4 DUP1 CALLDATASIZE SUB DUP2 ADD SWAP1 PUSH2 0x204 SWAP2 SWAP1 PUSH2 0x10CA JUMP JUMPDEST PUSH2 0xE8B JUMP JUMPDEST PUSH1 0x40 MLOAD PUSH2 0x216 SWAP2 SWAP1 PUSH2 0x1556 JUMP JUMPDEST PUSH1 0x40 MLOAD DUP1 SWAP2 SUB SWAP1 RETURN JUMPDEST PUSH1 0x0 PUSH32 0x80AC58CD00000000000000000000000000000000000000000000000000000000 PUSH28 0xFFFFFFFFFFFFFFFFFFFFFFFFFFFFFFFFFFFFFFFFFFFFFFFFFFFFFFFF NOT AND DUP3 PUSH28 0xFFFFFFFFFFFFFFFFFFFFFFFFFFFFFFFFFFFFFFFFFFFFFFFFFFFFFFFF NOT AND EQ DUP1 PUSH2 0x2EA JUMPI POP PUSH32 0x1FFC9A700000000000000000000000000000000000000000000000000000000 PUSH28 0xFFFFFFFFFFFFFFFFFFFFFFFFFFFFFFFFFFFFFFFFFFFFFFFFFFFFFFFF NOT AND DUP3 PUSH28 0xFFFFFFFFFFFFFFFFFFFFFFFFFFFFFFFFFFFFFFFFFFFFFFFFFFFFFFFF NOT AND EQ JUMPDEST SWAP1 POP SWAP2 SWAP1 POP JUMP JUMPDEST PUSH1 0x0 DUP1 PUSH20 0xFFFFFFFFFFFFFFFFFFFFFFFFFFFFFFFFFFFFFFFF AND PUSH1 0x1 PUSH1 0x0 DUP5 DUP2 MSTORE PUSH1 0x20 ADD SWAP1 DUP2 MSTORE PUSH1 0x20 ADD PUSH1 0x0 KECCAK256 PUSH1 0x0 SWAP1 SLOAD SWAP1 PUSH2 0x100 EXP SWAP1 DIV PUSH20 0xFFFFFFFFFFFFFFFFFFFFFFFFFFFFFFFFFFFFFFFF AND PUSH20 0xFFFFFFFFFFFFFFFFFFFFFFFFFFFFFFFFFFFFFFFF AND EQ ISZERO PUSH2 0x395 JUMPI PUSH1 0x40 MLOAD PUSH32 0x8C379A000000000000000000000000000000000000000000000000000000000 DUP2 MSTORE PUSH1 0x4 ADD PUSH2 0x38C SWAP1 PUSH2 0x1651 JUMP JUMPDEST PUSH1 0x40 MLOAD DUP1 SWAP2 SUB SWAP1 REVERT JUMPDEST PUSH1 0x3 PUSH1 0x0 DUP4 DUP2 MSTORE PUSH1 0x20 ADD SWAP1 DUP2 MSTORE PUSH1 0x20 ADD PUSH1 0x0 KECCAK256 PUSH1 0x0 SWAP1 SLOAD SWAP1 PUSH2 0x100 EXP SWAP1 DIV PUSH20 0xFFFFFFFFFFFFFFFFFFFFFFFFFFFFFFFFFFFFFFFF AND SWAP1 POP SWAP2 SWAP1 POP JUMP JUMPDEST PUSH1 0x0 PUSH1 0x1 PUSH1 0x0 DUP4 DUP2 MSTORE PUSH1 0x20 ADD SWAP1 DUP2 MSTORE PUSH1 0x20 ADD PUSH1 0x0 KECCAK256 PUSH1 0x0 SWAP1 SLOAD SWAP1 PUSH2 0x100 EXP SWAP1 DIV PUSH20 0xFFFFFFFFFFFFFFFFFFFFFFFFFFFFFFFFFFFFFFFF AND SWAP1 POP DUP1 PUSH20 0xFFFFFFFFFFFFFFFFFFFFFFFFFFFFFFFFFFFFFFFF AND CALLER PUSH20 0xFFFFFFFFFFFFFFFFFFFFFFFFFFFFFFFFFFFFFFFF AND EQ DUP1 PUSH2 0x4C8 JUMPI POP PUSH1 0x2 PUSH1 0x0 DUP3 PUSH20 0xFFFFFFFFFFFFFFFFFFFFFFFFFFFFFFFFFFFFFFFF AND PUSH20 0xFFFFFFFFFFFFFFFFFFFFFFFFFFFFFFFFFFFFFFFF AND DUP2 MSTORE PUSH1 0x20 ADD SWAP1 DUP2 MSTORE PUSH1 0x20 ADD PUSH1 0x0 KECCAK256 PUSH1 0x0 CALLER PUSH20 0xFFFFFFFFFFFFFFFFFFFFFFFFFFFFFFFFFFFFFFFF AND PUSH20 0xFFFFFFFFFFFFFFFFFFFFFFFFFFFFFFFFFFFFFFFF AND DUP2 MSTORE PUSH1 0x20 ADD SWAP1 DUP2 MSTORE PUSH1 0x20 ADD PUSH1 0x0 KECCAK256 PUSH1 0x0 SWAP1 SLOAD SWAP1 PUSH2 0x100 EXP SWAP1 DIV PUSH1 0xFF AND JUMPDEST PUSH2 0x507 JUMPI PUSH1 0x40 MLOAD PUSH32 0x8C379A000000000000000000000000000000000000000000000000000000000 DUP2 MSTORE PUSH1 0x4 ADD PUSH2 0x4FE SWAP1 PUSH2 0x1631 JUMP JUMPDEST PUSH1 0x40 MLOAD DUP1 SWAP2 SUB SWAP1 REVERT JUMPDEST DUP3 PUSH1 0x3 PUSH1 0x0 DUP5 DUP2 MSTORE PUSH1 0x20 ADD SWAP1 DUP2 MSTORE PUSH1 0x20 ADD PUSH1 0x0 KECCAK256 PUSH1 0x0 PUSH2 0x100 EXP DUP2 SLOAD DUP2 PUSH20 0xFFFFFFFFFFFFFFFFFFFFFFFFFFFFFFFFFFFFFFFF MUL NOT AND SWAP1 DUP4 PUSH20 0xFFFFFFFFFFFFFFFFFFFFFFFFFFFFFFFFFFFFFFFF AND MUL OR SWAP1 SSTORE POP DUP2 DUP4 PUSH20 0xFFFFFFFFFFFFFFFFFFFFFFFFFFFFFFFFFFFFFFFF AND DUP3 PUSH20 0xFFFFFFFFFFFFFFFFFFFFFFFFFFFFFFFFFFFFFFFF AND PUSH32 0x8C5BE1E5EBEC7D5BD14F71427D1E84F3DD0314C0F7B2291E5B200AC8C7C3B925 PUSH1 0x40 MLOAD PUSH1 0x40 MLOAD DUP1 SWAP2 SUB SWAP1 LOG4 POP POP POP JUMP JUMPDEST PUSH1 0x0 PUSH20 0xFFFFFFFFFFFFFFFFFFFFFFFFFFFFFFFFFFFFFFFF AND DUP4 PUSH20 0xFFFFFFFFFFFFFFFFFFFFFFFFFFFFFFFFFFFFFFFF AND EQ ISZERO DUP1 ISZERO PUSH2 0x623 JUMPI POP PUSH1 0x0 PUSH20 0xFFFFFFFFFFFFFFFFFFFFFFFFFFFFFFFFFFFFFFFF AND DUP3 PUSH20 0xFFFFFFFFFFFFFFFFFFFFFFFFFFFFFFFFFFFFFFFF AND EQ ISZERO JUMPDEST PUSH2 0x662 JUMPI PUSH1 0x40 MLOAD PUSH32 0x8C379A000000000000000000000000000000000000000000000000000000000 DUP2 MSTORE PUSH1 0x4 ADD PUSH2 0x659 SWAP1 PUSH2 0x1611 JUMP JUMPDEST PUSH1 0x40 MLOAD DUP1 SWAP2 SUB SWAP1 REVERT JUMPDEST PUSH1 0x0 DUP2 EQ ISZERO PUSH2 0x6A6 JUMPI PUSH1 0x40 MLOAD PUSH32 0x8C379A000000000000000000000000000000000000000000000000000000000 DUP2 MSTORE PUSH1 0x4 ADD PUSH2 0x69D SWAP1 PUSH2 0x1591 JUMP JUMPDEST PUSH1 0x40 MLOAD DUP1 SWAP2 SUB SWAP1 REVERT JUMPDEST PUSH1 0x1 PUSH1 0x0 DUP3 DUP2 MSTORE PUSH1 0x20 ADD SWAP1 DUP2 MSTORE PUSH1 0x20 ADD PUSH1 0x0 KECCAK256 PUSH1 0x0 SWAP1 SLOAD SWAP1 PUSH2 0x100 EXP SWAP1 DIV PUSH20 0xFFFFFFFFFFFFFFFFFFFFFFFFFFFFFFFFFFFFFFFF AND PUSH20 0xFFFFFFFFFFFFFFFFFFFFFFFFFFFFFFFFFFFFFFFF AND DUP4 PUSH20 0xFFFFFFFFFFFFFFFFFFFFFFFFFFFFFFFFFFFFFFFF AND EQ PUSH2 0x747 JUMPI PUSH1 0x40 MLOAD PUSH32 0x8C379A000000000000000000000000000000000000000000000000000000000 DUP2 MSTORE PUSH1 0x4 ADD PUSH2 0x73E SWAP1 PUSH2 0x15B1 JUMP JUMPDEST PUSH1 0x40 MLOAD DUP1 SWAP2 SUB SWAP1 REVERT JUMPDEST PUSH2 0x752 DUP4 CALLER DUP4 PUSH2 0xEBA JUMP JUMPDEST PUSH2 0x791 JUMPI PUSH1 0x40 MLOAD PUSH32 0x8C379A000000000000000000000000000000000000000000000000000000000 DUP2 MSTORE PUSH1 0x4 ADD PUSH2 0x788 SWAP1 PUSH2 0x1691 JUMP JUMPDEST PUSH1 0x40 MLOAD DUP1 SWAP2 SUB SWAP1 REVERT JUMPDEST PUSH1 0x0 DUP1 DUP5 PUSH20 0xFFFFFFFFFFFFFFFFFFFFFFFFFFFFFFFFFFFFFFFF AND PUSH20 0xFFFFFFFFFFFFFFFFFFFFFFFFFFFFFFFFFFFFFFFF AND DUP2 MSTORE PUSH1 0x20 ADD SWAP1 DUP2 MSTORE PUSH1 0x20 ADD PUSH1 0x0 KECCAK256 PUSH1 0x0 DUP2 SLOAD DUP1 SWAP3 SWAP2 SWAP1 PUSH2 0x7E0 SWAP1 PUSH2 0x1771 JUMP JUMPDEST SWAP2 SWAP1 POP SSTORE POP PUSH1 0x0 DUP1 DUP4 PUSH20 0xFFFFFFFFFFFFFFFFFFFFFFFFFFFFFFFFFFFFFFFF AND PUSH20 0xFFFFFFFFFFFFFFFFFFFFFFFFFFFFFFFFFFFFFFFF AND DUP2 MSTORE PUSH1 0x20 ADD SWAP1 DUP2 MSTORE PUSH1 0x20 ADD PUSH1 0x0 KECCAK256 PUSH1 0x0 DUP2 SLOAD DUP1 SWAP3 SWAP2 SWAP1 PUSH2 0x834 SWAP1 PUSH2 0x179B JUMP JUMPDEST SWAP2 SWAP1 POP SSTORE POP DUP2 PUSH1 0x1 PUSH1 0x0 DUP4 DUP2 MSTORE PUSH1 0x20 ADD SWAP1 DUP2 MSTORE PUSH1 0x20 ADD PUSH1 0x0 KECCAK256 PUSH1 0x0 PUSH2 0x100 EXP DUP2 SLOAD DUP2 PUSH20 0xFFFFFFFFFFFFFFFFFFFFFFFFFFFFFFFFFFFFFFFF MUL NOT AND SWAP1 DUP4 PUSH20 0xFFFFFFFFFFFFFFFFFFFFFFFFFFFFFFFFFFFFFFFF AND MUL OR SWAP1 SSTORE POP PUSH1 0x3 PUSH1 0x0 DUP3 DUP2 MSTORE PUSH1 0x20 ADD SWAP1 DUP2 MSTORE PUSH1 0x20 ADD PUSH1 0x0 KECCAK256 PUSH1 0x0 PUSH2 0x100 EXP DUP2 SLOAD SWAP1 PUSH20 0xFFFFFFFFFFFFFFFFFFFFFFFFFFFFFFFFFFFFFFFF MUL NOT AND SWAP1 SSTORE DUP1 DUP3 PUSH20 0xFFFFFFFFFFFFFFFFFFFFFFFFFFFFFFFFFFFFFFFF AND DUP5 PUSH20 0xFFFFFFFFFFFFFFFFFFFFFFFFFFFFFFFFFFFFFFFF AND PUSH32 0xDDF252AD1BE2C89B69C2B068FC378DAA952BA7F163C4A11628F55A4DF523B3EF PUSH1 0x40 MLOAD PUSH1 0x40 MLOAD DUP1 SWAP2 SUB SWAP1 LOG4 POP POP POP JUMP JUMPDEST PUSH2 0x92C DUP4 DUP4 DUP4 PUSH2 0x5B9 JUMP JUMPDEST PUSH1 0x0 DUP3 PUSH20 0xFFFFFFFFFFFFFFFFFFFFFFFFFFFFFFFFFFFFFFFF AND EXTCODESIZE EQ DUP1 PUSH2 0xA24 JUMPI POP PUSH4 0x150B7A02 PUSH1 0xE0 SHL PUSH28 0xFFFFFFFFFFFFFFFFFFFFFFFFFFFFFFFFFFFFFFFFFFFFFFFFFFFFFFFF NOT AND DUP3 PUSH20 0xFFFFFFFFFFFFFFFFFFFFFFFFFFFFFFFFFFFFFFFF AND PUSH4 0x150B7A02 CALLER DUP7 DUP6 PUSH1 0x40 MLOAD DUP5 PUSH4 0xFFFFFFFF AND PUSH1 0xE0 SHL DUP2 MSTORE PUSH1 0x4 ADD PUSH2 0x9B1 SWAP4 SWAP3 SWAP2 SWAP1 PUSH2 0x150C JUMP JUMPDEST PUSH1 0x20 PUSH1 0x40 MLOAD DUP1 DUP4 SUB DUP2 PUSH1 0x0 DUP8 DUP1 EXTCODESIZE ISZERO DUP1 ISZERO PUSH2 0x9CB JUMPI PUSH1 0x0 DUP1 REVERT JUMPDEST POP GAS CALL ISZERO DUP1 ISZERO PUSH2 0x9DF JUMPI RETURNDATASIZE PUSH1 0x0 DUP1 RETURNDATACOPY RETURNDATASIZE PUSH1 0x0 REVERT JUMPDEST POP POP POP POP PUSH1 0x40 MLOAD RETURNDATASIZE PUSH1 0x1F NOT PUSH1 0x1F DUP3 ADD AND DUP3 ADD DUP1 PUSH1 0x40 MSTORE POP DUP2 ADD SWAP1 PUSH2 0xA03 SWAP2 SWAP1 PUSH2 0x1276 JUMP JUMPDEST PUSH28 0xFFFFFFFFFFFFFFFFFFFFFFFFFFFFFFFFFFFFFFFFFFFFFFFFFFFFFFFF NOT AND EQ JUMPDEST PUSH2 0xA63 JUMPI PUSH1 0x40 MLOAD PUSH32 0x8C379A000000000000000000000000000000000000000000000000000000000 DUP2 MSTORE PUSH1 0x4 ADD PUSH2 0xA5A SWAP1 PUSH2 0x1571 JUMP JUMPDEST PUSH1 0x40 MLOAD DUP1 SWAP2 SUB SWAP1 REVERT JUMPDEST POP POP POP JUMP JUMPDEST PUSH1 0x0 DUP1 PUSH1 0x1 PUSH1 0x0 DUP5 DUP2 MSTORE PUSH1 0x20 ADD SWAP1 DUP2 MSTORE PUSH1 0x20 ADD PUSH1 0x0 KECCAK256 PUSH1 0x0 SWAP1 SLOAD SWAP1 PUSH2 0x100 EXP SWAP1 DIV PUSH20 0xFFFFFFFFFFFFFFFFFFFFFFFFFFFFFFFFFFFFFFFF AND SWAP1 POP PUSH1 0x0 PUSH20 0xFFFFFFFFFFFFFFFFFFFFFFFFFFFFFFFFFFFFFFFF AND DUP2 PUSH20 0xFFFFFFFFFFFFFFFFFFFFFFFFFFFFFFFFFFFFFFFF AND EQ ISZERO PUSH2 0xB11 JUMPI PUSH1 0x40 MLOAD PUSH32 0x8C379A000000000000000000000000000000000000000000000000000000000 DUP2 MSTORE PUSH1 0x4 ADD PUSH2 0xB08 SWAP1 PUSH2 0x15F1 JUMP JUMPDEST PUSH1 0x40 MLOAD DUP1 SWAP2 SUB SWAP1 REVERT JUMPDEST DUP1 SWAP2 POP POP SWAP2 SWAP1 POP JUMP JUMPDEST PUSH1 0x0 DUP1 PUSH20 0xFFFFFFFFFFFFFFFFFFFFFFFFFFFFFFFFFFFFFFFF AND DUP3 PUSH20 0xFFFFFFFFFFFFFFFFFFFFFFFFFFFFFFFFFFFFFFFF AND EQ ISZERO PUSH2 0xB8B JUMPI PUSH1 0x40 MLOAD PUSH32 0x8C379A000000000000000000000000000000000000000000000000000000000 DUP2 MSTORE PUSH1 0x4 ADD PUSH2 0xB82 SWAP1 PUSH2 0x15D1 JUMP JUMPDEST PUSH1 0x40 MLOAD DUP1 SWAP2 SUB SWAP1 REVERT JUMPDEST PUSH1 0x0 DUP1 DUP4 PUSH20 0xFFFFFFFFFFFFFFFFFFFFFFFFFFFFFFFFFFFFFFFF AND PUSH20 0xFFFFFFFFFFFFFFFFFFFFFFFFFFFFFFFFFFFFFFFF AND DUP2 MSTORE PUSH1 0x20 ADD SWAP1 DUP2 MSTORE PUSH1 0x20 ADD PUSH1 0x0 KECCAK256 SLOAD SWAP1 POP SWAP2 SWAP1 POP JUMP JUMPDEST PUSH1 0x0 PUSH20 0xFFFFFFFFFFFFFFFFFFFFFFFFFFFFFFFFFFFFFFFF AND DUP3 PUSH20 0xFFFFFFFFFFFFFFFFFFFFFFFFFFFFFFFFFFFFFFFF AND EQ ISZERO PUSH2 0xC41 JUMPI PUSH1 0x40 MLOAD PUSH32 0x8C379A000000000000000000000000000000000000000000000000000000000 DUP2 MSTORE PUSH1 0x4 ADD PUSH2 0xC38 SWAP1 PUSH2 0x1671 JUMP JUMPDEST PUSH1 0x40 MLOAD DUP1 SWAP2 SUB SWAP1 REVERT JUMPDEST DUP1 PUSH1 0x2 PUSH1 0x0 CALLER PUSH20 0xFFFFFFFFFFFFFFFFFFFFFFFFFFFFFFFFFFFFFFFF AND PUSH20 0xFFFFFFFFFFFFFFFFFFFFFFFFFFFFFFFFFFFFFFFF AND DUP2 MSTORE PUSH1 0x20 ADD SWAP1 DUP2 MSTORE PUSH1 0x20 ADD PUSH1 0x0 KECCAK256 PUSH1 0x0 DUP5 PUSH20 0xFFFFFFFFFFFFFFFFFFFFFFFFFFFFFFFFFFFFFFFF AND PUSH20 0xFFFFFFFFFFFFFFFFFFFFFFFFFFFFFFFFFFFFFFFF AND DUP2 MSTORE PUSH1 0x20 ADD SWAP1 DUP2 MSTORE PUSH1 0x20 ADD PUSH1 0x0 KECCAK256 PUSH1 0x0 PUSH2 0x100 EXP DUP2 SLOAD DUP2 PUSH1 0xFF MUL NOT AND SWAP1 DUP4 ISZERO ISZERO MUL OR SWAP1 SSTORE POP DUP2 PUSH20 0xFFFFFFFFFFFFFFFFFFFFFFFFFFFFFFFFFFFFFFFF AND CALLER PUSH20 0xFFFFFFFFFFFFFFFFFFFFFFFFFFFFFFFFFFFFFFFF AND PUSH32 0x17307EAB39AB6107E8899845AD3D59BD9653F200F220920489CA2B5937696C31 DUP4 PUSH1 0x40 MLOAD PUSH2 0xD32 SWAP2 SWAP1 PUSH2 0x1556 JUMP JUMPDEST PUSH1 0x40 MLOAD DUP1 SWAP2 SUB SWAP1 LOG3 POP POP JUMP JUMPDEST PUSH2 0xD49 DUP6 DUP6 DUP6 PUSH2 0x5B9 JUMP JUMPDEST PUSH1 0x0 DUP5 PUSH20 0xFFFFFFFFFFFFFFFFFFFFFFFFFFFFFFFFFFFFFFFF AND EXTCODESIZE EQ DUP1 PUSH2 0xE45 JUMPI POP PUSH4 0x150B7A02 PUSH1 0xE0 SHL PUSH28 0xFFFFFFFFFFFFFFFFFFFFFFFFFFFFFFFFFFFFFFFFFFFFFFFFFFFFFFFF NOT AND DUP5 PUSH20 0xFFFFFFFFFFFFFFFFFFFFFFFFFFFFFFFFFFFFFFFF AND PUSH4 0x150B7A02 CALLER DUP9 DUP8 DUP8 DUP8 PUSH1 0x40 MLOAD DUP7 PUSH4 0xFFFFFFFF AND PUSH1 0xE0 SHL DUP2 MSTORE PUSH1 0x4 ADD PUSH2 0xDD2 SWAP6 SWAP5 SWAP4 SWAP3 SWAP2 SWAP1 PUSH2 0x14BE JUMP JUMPDEST PUSH1 0x20 PUSH1 0x40 MLOAD DUP1 DUP4 SUB DUP2 PUSH1 0x0 DUP8 DUP1 EXTCODESIZE ISZERO DUP1 ISZERO PUSH2 0xDEC JUMPI PUSH1 0x0 DUP1 REVERT JUMPDEST POP GAS CALL ISZERO DUP1 ISZERO PUSH2 0xE00 JUMPI RETURNDATASIZE PUSH1 0x0 DUP1 RETURNDATACOPY RETURNDATASIZE PUSH1 0x0 REVERT JUMPDEST POP POP POP POP PUSH1 0x40 MLOAD RETURNDATASIZE PUSH1 0x1F NOT PUSH1 0x1F DUP3 ADD AND DUP3 ADD DUP1 PUSH1 0x40 MSTORE POP DUP2 ADD SWAP1 PUSH2 0xE24 SWAP2 SWAP1 PUSH2 0x1276 JUMP JUMPDEST PUSH28 0xFFFFFFFFFFFFFFFFFFFFFFFFFFFFFFFFFFFFFFFFFFFFFFFFFFFFFFFF NOT AND EQ JUMPDEST PUSH2 0xE84 JUMPI PUSH1 0x40 MLOAD PUSH32 0x8C379A000000000000000000000000000000000000000000000000000000000 DUP2 MSTORE PUSH1 0x4 ADD PUSH2 0xE7B SWAP1 PUSH2 0x1571 JUMP JUMPDEST PUSH1 0x40 MLOAD DUP1 SWAP2 SUB SWAP1 REVERT JUMPDEST POP POP POP POP POP JUMP JUMPDEST PUSH1 0x2 PUSH1 0x20 MSTORE DUP2 PUSH1 0x0 MSTORE PUSH1 0x40 PUSH1 0x0 KECCAK256 PUSH1 0x20 MSTORE DUP1 PUSH1 0x0 MSTORE PUSH1 0x40 PUSH1 0x0 KECCAK256 PUSH1 0x0 SWAP2 POP SWAP2 POP SWAP1 SLOAD SWAP1 PUSH2 0x100 EXP SWAP1 DIV PUSH1 0xFF AND DUP2 JUMP JUMPDEST PUSH1 0x0 DUP3 PUSH20 0xFFFFFFFFFFFFFFFFFFFFFFFFFFFFFFFFFFFFFFFF AND DUP5 PUSH20 0xFFFFFFFFFFFFFFFFFFFFFFFFFFFFFFFFFFFFFFFF AND EQ DUP1 PUSH2 0xF54 JUMPI POP DUP3 PUSH20 0xFFFFFFFFFFFFFFFFFFFFFFFFFFFFFFFFFFFFFFFF AND PUSH1 0x1 PUSH1 0x0 DUP5 DUP2 MSTORE PUSH1 0x20 ADD SWAP1 DUP2 MSTORE PUSH1 0x20 ADD PUSH1 0x0 KECCAK256 PUSH1 0x0 SWAP1 SLOAD SWAP1 PUSH2 0x100 EXP SWAP1 DIV PUSH20 0xFFFFFFFFFFFFFFFFFFFFFFFFFFFFFFFFFFFFFFFF AND PUSH20 0xFFFFFFFFFFFFFFFFFFFFFFFFFFFFFFFFFFFFFFFF AND EQ JUMPDEST DUP1 PUSH2 0xFE5 JUMPI POP PUSH1 0x2 PUSH1 0x0 DUP6 PUSH20 0xFFFFFFFFFFFFFFFFFFFFFFFFFFFFFFFFFFFFFFFF AND PUSH20 0xFFFFFFFFFFFFFFFFFFFFFFFFFFFFFFFFFFFFFFFF AND DUP2 MSTORE PUSH1 0x20 ADD SWAP1 DUP2 MSTORE PUSH1 0x20 ADD PUSH1 0x0 KECCAK256 PUSH1 0x0 DUP5 PUSH20 0xFFFFFFFFFFFFFFFFFFFFFFFFFFFFFFFFFFFFFFFF AND PUSH20 0xFFFFFFFFFFFFFFFFFFFFFFFFFFFFFFFFFFFFFFFF AND DUP2 MSTORE PUSH1 0x20 ADD SWAP1 DUP2 MSTORE PUSH1 0x20 ADD PUSH1 0x0 KECCAK256 PUSH1 0x0 SWAP1 SLOAD SWAP1 PUSH2 0x100 EXP SWAP1 DIV PUSH1 0xFF AND JUMPDEST SWAP1 POP SWAP4 SWAP3 POP POP POP JUMP JUMPDEST PUSH1 0x0 DUP2 CALLDATALOAD SWAP1 POP PUSH2 0xFFD DUP2 PUSH2 0x19E7 JUMP JUMPDEST SWAP3 SWAP2 POP POP JUMP JUMPDEST PUSH1 0x0 DUP2 CALLDATALOAD SWAP1 POP PUSH2 0x1012 DUP2 PUSH2 0x19FE JUMP JUMPDEST SWAP3 SWAP2 POP POP JUMP JUMPDEST PUSH1 0x0 DUP2 CALLDATALOAD SWAP1 POP PUSH2 0x1027 DUP2 PUSH2 0x1A15 JUMP JUMPDEST SWAP3 SWAP2 POP POP JUMP JUMPDEST PUSH1 0x0 DUP2 MLOAD SWAP1 POP PUSH2 0x103C DUP2 PUSH2 0x1A15 JUMP JUMPDEST SWAP3 SWAP2 POP POP JUMP JUMPDEST PUSH1 0x0 DUP1 DUP4 PUSH1 0x1F DUP5 ADD SLT PUSH2 0x1054 JUMPI PUSH1 0x0 DUP1 REVERT JUMPDEST DUP3 CALLDATALOAD SWAP1 POP PUSH8 0xFFFFFFFFFFFFFFFF DUP2 GT ISZERO PUSH2 0x106D JUMPI PUSH1 0x0 DUP1 REVERT JUMPDEST PUSH1 0x20 DUP4 ADD SWAP2 POP DUP4 PUSH1 0x1 DUP3 MUL DUP4 ADD GT ISZERO PUSH2 0x1085 JUMPI PUSH1 0x0 DUP1 REVERT JUMPDEST SWAP3 POP SWAP3 SWAP1 POP JUMP JUMPDEST PUSH1 0x0 DUP2 CALLDATALOAD SWAP1 POP PUSH2 0x109B DUP2 PUSH2 0x1A2C JUMP JUMPDEST SWAP3 SWAP2 POP POP JUMP JUMPDEST PUSH1 0x0 PUSH1 0x20 DUP3 DUP5 SUB SLT ISZERO PUSH2 0x10B3 JUMPI PUSH1 0x0 DUP1 REVERT JUMPDEST PUSH1 0x0 PUSH2 0x10C1 DUP5 DUP3 DUP6 ADD PUSH2 0xFEE JUMP JUMPDEST SWAP2 POP POP SWAP3 SWAP2 POP POP JUMP JUMPDEST PUSH1 0x0 DUP1 PUSH1 0x40 DUP4 DUP6 SUB SLT ISZERO PUSH2 0x10DD JUMPI PUSH1 0x0 DUP1 REVERT JUMPDEST PUSH1 0x0 PUSH2 0x10EB DUP6 DUP3 DUP7 ADD PUSH2 0xFEE JUMP JUMPDEST SWAP3 POP POP PUSH1 0x20 PUSH2 0x10FC DUP6 DUP3 DUP7 ADD PUSH2 0xFEE JUMP JUMPDEST SWAP2 POP POP SWAP3 POP SWAP3 SWAP1 POP JUMP JUMPDEST PUSH1 0x0 DUP1 PUSH1 0x0 PUSH1 0x60 DUP5 DUP7 SUB SLT ISZERO PUSH2 0x111B JUMPI PUSH1 0x0 DUP1 REVERT JUMPDEST PUSH1 0x0 PUSH2 0x1129 DUP7 DUP3 DUP8 ADD PUSH2 0xFEE JUMP JUMPDEST SWAP4 POP POP PUSH1 0x20 PUSH2 0x113A DUP7 DUP3 DUP8 ADD PUSH2 0xFEE JUMP JUMPDEST SWAP3 POP POP PUSH1 0x40 PUSH2 0x114B DUP7 DUP3 DUP8 ADD PUSH2 0x108C JUMP JUMPDEST SWAP2 POP POP SWAP3 POP SWAP3 POP SWAP3 JUMP JUMPDEST PUSH1 0x0 DUP1 PUSH1 0x0 DUP1 PUSH1 0x0 PUSH1 0x80 DUP7 DUP9 SUB SLT ISZERO PUSH2 0x116D JUMPI PUSH1 0x0 DUP1 REVERT JUMPDEST PUSH1 0x0 PUSH2 0x117B DUP9 DUP3 DUP10 ADD PUSH2 0xFEE JUMP JUMPDEST SWAP6 POP POP PUSH1 0x20 PUSH2 0x118C DUP9 DUP3 DUP10 ADD PUSH2 0xFEE JUMP JUMPDEST SWAP5 POP POP PUSH1 0x40 PUSH2 0x119D DUP9 DUP3 DUP10 ADD PUSH2 0x108C JUMP JUMPDEST SWAP4 POP POP PUSH1 0x60 DUP7 ADD CALLDATALOAD PUSH8 0xFFFFFFFFFFFFFFFF DUP2 GT ISZERO PUSH2 0x11BA JUMPI PUSH1 0x0 DUP1 REVERT JUMPDEST PUSH2 0x11C6 DUP9 DUP3 DUP10 ADD PUSH2 0x1042 JUMP JUMPDEST SWAP3 POP SWAP3 POP POP SWAP3 SWAP6 POP SWAP3 SWAP6 SWAP1 SWAP4 POP JUMP JUMPDEST PUSH1 0x0 DUP1 PUSH1 0x40 DUP4 DUP6 SUB SLT ISZERO PUSH2 0x11E8 JUMPI PUSH1 0x0 DUP1 REVERT JUMPDEST PUSH1 0x0 PUSH2 0x11F6 DUP6 DUP3 DUP7 ADD PUSH2 0xFEE JUMP JUMPDEST SWAP3 POP POP PUSH1 0x20 PUSH2 0x1207 DUP6 DUP3 DUP7 ADD PUSH2 0x1003 JUMP JUMPDEST SWAP2 POP POP SWAP3 POP SWAP3 SWAP1 POP JUMP JUMPDEST PUSH1 0x0 DUP1 PUSH1 0x40 DUP4 DUP6 SUB SLT ISZERO PUSH2 0x1224 JUMPI PUSH1 0x0 DUP1 REVERT JUMPDEST PUSH1 0x0 PUSH2 0x1232 DUP6 DUP3 DUP7 ADD PUSH2 0xFEE JUMP JUMPDEST SWAP3 POP POP PUSH1 0x20 PUSH2 0x1243 DUP6 DUP3 DUP7 ADD PUSH2 0x108C JUMP JUMPDEST SWAP2 POP POP SWAP3 POP SWAP3 SWAP1 POP JUMP JUMPDEST PUSH1 0x0 PUSH1 0x20 DUP3 DUP5 SUB SLT ISZERO PUSH2 0x125F JUMPI PUSH1 0x0 DUP1 REVERT JUMPDEST PUSH1 0x0 PUSH2 0x126D DUP5 DUP3 DUP6 ADD PUSH2 0x1018 JUMP JUMPDEST SWAP2 POP POP SWAP3 SWAP2 POP POP JUMP JUMPDEST PUSH1 0x0 PUSH1 0x20 DUP3 DUP5 SUB SLT ISZERO PUSH2 0x1288 JUMPI PUSH1 0x0 DUP1 REVERT JUMPDEST PUSH1 0x0 PUSH2 0x1296 DUP5 DUP3 DUP6 ADD PUSH2 0x102D JUMP JUMPDEST SWAP2 POP POP SWAP3 SWAP2 POP POP JUMP JUMPDEST PUSH1 0x0 PUSH1 0x20 DUP3 DUP5 SUB SLT ISZERO PUSH2 0x12B1 JUMPI PUSH1 0x0 DUP1 REVERT JUMPDEST PUSH1 0x0 PUSH2 0x12BF DUP5 DUP3 DUP6 ADD PUSH2 0x108C JUMP JUMPDEST SWAP2 POP POP SWAP3 SWAP2 POP POP JUMP JUMPDEST PUSH2 0x12D1 DUP2 PUSH2 0x16EE JUMP JUMPDEST DUP3 MSTORE POP POP JUMP JUMPDEST PUSH2 0x12E0 DUP2 PUSH2 0x1700 JUMP JUMPDEST DUP3 MSTORE POP POP JUMP JUMPDEST PUSH1 0x0 PUSH2 0x12F2 DUP4 DUP6 PUSH2 0x16CC JUMP JUMPDEST SWAP4 POP PUSH2 0x12FF DUP4 DUP6 DUP5 PUSH2 0x1762 JUMP JUMPDEST PUSH2 0x1308 DUP4 PUSH2 0x1813 JUMP JUMPDEST DUP5 ADD SWAP1 POP SWAP4 SWAP3 POP POP POP JUMP JUMPDEST PUSH1 0x0 PUSH2 0x1320 PUSH1 0x10 DUP4 PUSH2 0x16DD JUMP JUMPDEST SWAP2 POP PUSH2 0x132B DUP3 PUSH2 0x1824 JUMP JUMPDEST PUSH1 0x20 DUP3 ADD SWAP1 POP SWAP2 SWAP1 POP JUMP JUMPDEST PUSH1 0x0 PUSH2 0x1343 PUSH1 0xC DUP4 PUSH2 0x16DD JUMP JUMPDEST SWAP2 POP PUSH2 0x134E DUP3 PUSH2 0x184D JUMP JUMPDEST PUSH1 0x20 DUP3 ADD SWAP1 POP SWAP2 SWAP1 POP JUMP JUMPDEST PUSH1 0x0 PUSH2 0x1366 PUSH1 0x27 DUP4 PUSH2 0x16DD JUMP JUMPDEST SWAP2 POP PUSH2 0x1371 DUP3 PUSH2 0x1876 JUMP JUMPDEST PUSH1 0x40 DUP3 ADD SWAP1 POP SWAP2 SWAP1 POP JUMP JUMPDEST PUSH1 0x0 PUSH2 0x1389 PUSH1 0x1B DUP4 PUSH2 0x16DD JUMP JUMPDEST SWAP2 POP PUSH2 0x1394 DUP3 PUSH2 0x18C5 JUMP JUMPDEST PUSH1 0x20 DUP3 ADD SWAP1 POP SWAP2 SWAP1 POP JUMP JUMPDEST PUSH1 0x0 PUSH2 0x13AC PUSH1 0x13 DUP4 PUSH2 0x16DD JUMP JUMPDEST SWAP2 POP PUSH2 0x13B7 DUP3 PUSH2 0x18EE JUMP JUMPDEST PUSH1 0x20 DUP3 ADD SWAP1 POP SWAP2 SWAP1 POP JUMP JUMPDEST PUSH1 0x0 PUSH2 0x13CF PUSH1 0x20 DUP4 PUSH2 0x16DD JUMP JUMPDEST SWAP2 POP PUSH2 0x13DA DUP3 PUSH2 0x1917 JUMP JUMPDEST PUSH1 0x20 DUP3 ADD SWAP1 POP SWAP2 SWAP1 POP JUMP JUMPDEST PUSH1 0x0 PUSH2 0x13F2 PUSH1 0xE DUP4 PUSH2 0x16DD JUMP JUMPDEST SWAP2 POP PUSH2 0x13FD DUP3 PUSH2 0x1940 JUMP JUMPDEST PUSH1 0x20 DUP3 ADD SWAP1 POP SWAP2 SWAP1 POP JUMP JUMPDEST PUSH1 0x0 PUSH2 0x1415 PUSH1 0x12 DUP4 PUSH2 0x16DD JUMP JUMPDEST SWAP2 POP PUSH2 0x1420 DUP3 PUSH2 0x1969 JUMP JUMPDEST PUSH1 0x20 DUP3 ADD SWAP1 POP SWAP2 SWAP1 POP JUMP JUMPDEST PUSH1 0x0 PUSH2 0x1438 PUSH1 0x0 DUP4 PUSH2 0x16CC JUMP JUMPDEST SWAP2 POP PUSH2 0x1443 DUP3 PUSH2 0x1992 JUMP JUMPDEST PUSH1 0x0 DUP3 ADD SWAP1 POP SWAP2 SWAP1 POP JUMP JUMPDEST PUSH1 0x0 PUSH2 0x145B PUSH1 0x16 DUP4 PUSH2 0x16DD JUMP JUMPDEST SWAP2 POP PUSH2 0x1466 DUP3 PUSH2 0x1995 JUMP JUMPDEST PUSH1 0x20 DUP3 ADD SWAP1 POP SWAP2 SWAP1 POP JUMP JUMPDEST PUSH1 0x0 PUSH2 0x147E PUSH1 0xD DUP4 PUSH2 0x16DD JUMP JUMPDEST SWAP2 POP PUSH2 0x1489 DUP3 PUSH2 0x19BE JUMP JUMPDEST PUSH1 0x20 DUP3 ADD SWAP1 POP SWAP2 SWAP1 POP JUMP JUMPDEST PUSH2 0x149D DUP2 PUSH2 0x1758 JUMP JUMPDEST DUP3 MSTORE POP POP JUMP JUMPDEST PUSH1 0x0 PUSH1 0x20 DUP3 ADD SWAP1 POP PUSH2 0x14B8 PUSH1 0x0 DUP4 ADD DUP5 PUSH2 0x12C8 JUMP JUMPDEST SWAP3 SWAP2 POP POP JUMP JUMPDEST PUSH1 0x0 PUSH1 0x80 DUP3 ADD SWAP1 POP PUSH2 0x14D3 PUSH1 0x0 DUP4 ADD DUP9 PUSH2 0x12C8 JUMP JUMPDEST PUSH2 0x14E0 PUSH1 0x20 DUP4 ADD DUP8 PUSH2 0x12C8 JUMP JUMPDEST PUSH2 0x14ED PUSH1 0x40 DUP4 ADD DUP7 PUSH2 0x1494 JUMP JUMPDEST DUP2 DUP2 SUB PUSH1 0x60 DUP4 ADD MSTORE PUSH2 0x1500 DUP2 DUP5 DUP7 PUSH2 0x12E6 JUMP JUMPDEST SWAP1 POP SWAP7 SWAP6 POP POP POP POP POP POP JUMP JUMPDEST PUSH1 0x0 PUSH1 0x80 DUP3 ADD SWAP1 POP PUSH2 0x1521 PUSH1 0x0 DUP4 ADD DUP7 PUSH2 0x12C8 JUMP JUMPDEST PUSH2 0x152E PUSH1 0x20 DUP4 ADD DUP6 PUSH2 0x12C8 JUMP JUMPDEST PUSH2 0x153B PUSH1 0x40 DUP4 ADD DUP5 PUSH2 0x1494 JUMP JUMPDEST DUP2 DUP2 SUB PUSH1 0x60 DUP4 ADD MSTORE PUSH2 0x154C DUP2 PUSH2 0x142B JUMP JUMPDEST SWAP1 POP SWAP5 SWAP4 POP POP POP POP JUMP JUMPDEST PUSH1 0x0 PUSH1 0x20 DUP3 ADD SWAP1 POP PUSH2 0x156B PUSH1 0x0 DUP4 ADD DUP5 PUSH2 0x12D7 JUMP JUMPDEST SWAP3 SWAP2 POP POP JUMP JUMPDEST PUSH1 0x0 PUSH1 0x20 DUP3 ADD SWAP1 POP DUP2 DUP2 SUB PUSH1 0x0 DUP4 ADD MSTORE PUSH2 0x158A DUP2 PUSH2 0x1313 JUMP JUMPDEST SWAP1 POP SWAP2 SWAP1 POP JUMP JUMPDEST PUSH1 0x0 PUSH1 0x20 DUP3 ADD SWAP1 POP DUP2 DUP2 SUB PUSH1 0x0 DUP4 ADD MSTORE PUSH2 0x15AA DUP2 PUSH2 0x1336 JUMP JUMPDEST SWAP1 POP SWAP2 SWAP1 POP JUMP JUMPDEST PUSH1 0x0 PUSH1 0x20 DUP3 ADD SWAP1 POP DUP2 DUP2 SUB PUSH1 0x0 DUP4 ADD MSTORE PUSH2 0x15CA DUP2 PUSH2 0x1359 JUMP JUMPDEST SWAP1 POP SWAP2 SWAP1 POP JUMP JUMPDEST PUSH1 0x0 PUSH1 0x20 DUP3 ADD SWAP1 POP DUP2 DUP2 SUB PUSH1 0x0 DUP4 ADD MSTORE PUSH2 0x15EA DUP2 PUSH2 0x137C JUMP JUMPDEST SWAP1 POP SWAP2 SWAP1 POP JUMP JUMPDEST PUSH1 0x0 PUSH1 0x20 DUP3 ADD SWAP1 POP DUP2 DUP2 SUB PUSH1 0x0 DUP4 ADD MSTORE PUSH2 0x160A DUP2 PUSH2 0x139F JUMP JUMPDEST SWAP1 POP SWAP2 SWAP1 POP JUMP JUMPDEST PUSH1 0x0 PUSH1 0x20 DUP3 ADD SWAP1 POP DUP2 DUP2 SUB PUSH1 0x0 DUP4 ADD MSTORE PUSH2 0x162A DUP2 PUSH2 0x13C2 JUMP JUMPDEST SWAP1 POP SWAP2 SWAP1 POP JUMP JUMPDEST PUSH1 0x0 PUSH1 0x20 DUP3 ADD SWAP1 POP DUP2 DUP2 SUB PUSH1 0x0 DUP4 ADD MSTORE PUSH2 0x164A DUP2 PUSH2 0x13E5 JUMP JUMPDEST SWAP1 POP SWAP2 SWAP1 POP JUMP JUMPDEST PUSH1 0x0 PUSH1 0x20 DUP3 ADD SWAP1 POP DUP2 DUP2 SUB PUSH1 0x0 DUP4 ADD MSTORE PUSH2 0x166A DUP2 PUSH2 0x1408 JUMP JUMPDEST SWAP1 POP SWAP2 SWAP1 POP JUMP JUMPDEST PUSH1 0x0 PUSH1 0x20 DUP3 ADD SWAP1 POP DUP2 DUP2 SUB PUSH1 0x0 DUP4 ADD MSTORE PUSH2 0x168A DUP2 PUSH2 0x144E JUMP JUMPDEST SWAP1 POP SWAP2 SWAP1 POP JUMP JUMPDEST PUSH1 0x0 PUSH1 0x20 DUP3 ADD SWAP1 POP DUP2 DUP2 SUB PUSH1 0x0 DUP4 ADD MSTORE PUSH2 0x16AA DUP2 PUSH2 0x1471 JUMP JUMPDEST SWAP1 POP SWAP2 SWAP1 POP JUMP JUMPDEST PUSH1 0x0 PUSH1 0x20 DUP3 ADD SWAP1 POP PUSH2 0x16C6 PUSH1 0x0 DUP4 ADD DUP5 PUSH2 0x1494 JUMP JUMPDEST SWAP3 SWAP2 POP POP JUMP JUMPDEST PUSH1 0x0 DUP3 DUP3 MSTORE PUSH1 0x20 DUP3 ADD SWAP1 POP SWAP3 SWAP2 POP POP JUMP JUMPDEST PUSH1 0x0 DUP3 DUP3 MSTORE PUSH1 0x20 DUP3 ADD SWAP1 POP SWAP3 SWAP2 POP POP JUMP JUMPDEST PUSH1 0x0 PUSH2 0x16F9 DUP3 PUSH2 0x1738 JUMP JUMPDEST SWAP1 POP SWAP2 SWAP1 POP JUMP JUMPDEST PUSH1 0x0 DUP2 ISZERO ISZERO SWAP1 POP SWAP2 SWAP1 POP JUMP JUMPDEST PUSH1 0x0 PUSH32 0xFFFFFFFF00000000000000000000000000000000000000000000000000000000 DUP3 AND SWAP1 POP SWAP2 SWAP1 POP JUMP JUMPDEST PUSH1 0x0 PUSH20 0xFFFFFFFFFFFFFFFFFFFFFFFFFFFFFFFFFFFFFFFF DUP3 AND SWAP1 POP SWAP2 SWAP1 POP JUMP JUMPDEST PUSH1 0x0 DUP2 SWAP1 POP SWAP2 SWAP1 POP JUMP JUMPDEST DUP3 DUP2 DUP4 CALLDATACOPY PUSH1 0x0 DUP4 DUP4 ADD MSTORE POP POP POP JUMP JUMPDEST PUSH1 0x0 PUSH2 0x177C DUP3 PUSH2 0x1758 JUMP JUMPDEST SWAP2 POP PUSH1 0x0 DUP3 EQ ISZERO PUSH2 0x1790 JUMPI PUSH2 0x178F PUSH2 0x17E4 JUMP JUMPDEST JUMPDEST PUSH1 0x1 DUP3 SUB SWAP1 POP SWAP2 SWAP1 POP JUMP JUMPDEST PUSH1 0x0 PUSH2 0x17A6 DUP3 PUSH2 0x1758 JUMP JUMPDEST SWAP2 POP PUSH32 0xFFFFFFFFFFFFFFFFFFFFFFFFFFFFFFFFFFFFFFFFFFFFFFFFFFFFFFFFFFFFFFFF DUP3 EQ ISZERO PUSH2 0x17D9 JUMPI PUSH2 0x17D8 PUSH2 0x17E4 JUMP JUMPDEST JUMPDEST PUSH1 0x1 DUP3 ADD SWAP1 POP SWAP2 SWAP1 POP JUMP JUMPDEST PUSH32 0x4E487B7100000000000000000000000000000000000000000000000000000000 PUSH1 0x0 MSTORE PUSH1 0x11 PUSH1 0x4 MSTORE PUSH1 0x24 PUSH1 0x0 REVERT JUMPDEST PUSH1 0x0 PUSH1 0x1F NOT PUSH1 0x1F DUP4 ADD AND SWAP1 POP SWAP2 SWAP1 POP JUMP JUMPDEST PUSH32 0x756E7361666520726563697069656E7400000000000000000000000000000000 PUSH1 0x0 DUP3 ADD MSTORE POP JUMP JUMPDEST PUSH32 0x746F6B656E4964207A65726F0000000000000000000000000000000000000000 PUSH1 0x0 DUP3 ADD MSTORE POP JUMP JUMPDEST PUSH32 0x6F776E6572206F6620746F6B656E4964206E6F74206D617463682066726F6D41 PUSH1 0x0 DUP3 ADD MSTORE PUSH32 0x6464726573732000000000000000000000000000000000000000000000000000 PUSH1 0x20 DUP3 ADD MSTORE POP JUMP JUMPDEST PUSH32 0x4552433732313A2061646472657373207A65726F206973206E6F740000000000 PUSH1 0x0 DUP3 ADD MSTORE POP JUMP JUMPDEST PUSH32 0x61646472657373207A65726F206973206E6F7400000000000000000000000000 PUSH1 0x0 DUP3 ADD MSTORE POP JUMP JUMPDEST PUSH32 0x61646472657373206F7220746F41646472657373207A65726F206973206E6F74 PUSH1 0x0 DUP3 ADD MSTORE POP JUMP JUMPDEST PUSH32 0x6E6F7420617574686F72697A6564000000000000000000000000000000000000 PUSH1 0x0 DUP3 ADD MSTORE POP JUMP JUMPDEST PUSH32 0x4552432C20616464726573732069732020300000000000000000000000000000 PUSH1 0x0 DUP3 ADD MSTORE POP JUMP JUMPDEST POP JUMP JUMPDEST PUSH32 0x6F70657261746F72206164647265737320697320203000000000000000000000 PUSH1 0x0 DUP3 ADD MSTORE POP JUMP JUMPDEST PUSH32 0x6E6F74206175746872697A656400000000000000000000000000000000000000 PUSH1 0x0 DUP3 ADD MSTORE POP JUMP JUMPDEST PUSH2 0x19F0 DUP2 PUSH2 0x16EE JUMP JUMPDEST DUP2 EQ PUSH2 0x19FB JUMPI PUSH1 0x0 DUP1 REVERT JUMPDEST POP JUMP JUMPDEST PUSH2 0x1A07 DUP2 PUSH2 0x1700 JUMP JUMPDEST DUP2 EQ PUSH2 0x1A12 JUMPI PUSH1 0x0 DUP1 REVERT JUMPDEST POP JUMP JUMPDEST PUSH2 0x1A1E DUP2 PUSH2 0x170C JUMP JUMPDEST DUP2 EQ PUSH2 0x1A29 JUMPI PUSH1 0x0 DUP1 REVERT JUMPDEST POP JUMP JUMPDEST PUSH2 0x1A35 DUP2 PUSH2 0x1758 JUMP JUMPDEST DUP2 EQ PUSH2 0x1A40 JUMPI PUSH1 0x0 DUP1 REVERT JUMPDEST POP JUMP INVALID LOG2 PUSH5 0x6970667358 0x22 SLT KECCAK256 SWAP15 0xDD PUSH9 0x6EDAEE53CDB6958D83 0xCE 0xC6 0x26 EXTCODEHASH PUSH8 0xC18D514D03B12421 0xD1 0xCF NUMBER MSIZE 0xD5 DUP15 SELFDESTRUCT PUSH5 0x736F6C6343 STOP ADDMOD DIV STOP CALLER "
				},
				"gasEstimates": {
					"creation": {
						"codeDepositCost": "1355400",
						"executionCost": "1410",
						"totalCost": "1356810"
					},
					"external": {
						"approve(address,uint256)": "25539",
						"balanceOf(address)": "1601",
						"getApproved(uint256)": "2540",
						"isApprovedForAll(address,address)": "infinite",
						"ownerOf(uint256)": "1659",
						"safeTransferFrom(address,address,uint256)": "infinite",
						"safeTransferFrom(address,address,uint256,bytes)": "infinite",
						"setApprovalForAll(address,bool)": "infinite",
						"supportsInterface(bytes4)": "685",
						"transferFrom(address,address,uint256)": "infinite"
					},
					"internal": {
						"_burn(uint256)": "infinite",
						"_isApprovedOrOwner(address,address,uint256)": "2048",
						"_mint(address,uint256)": "infinite"
					}
				},
				"methodIdentifiers": {
					"approve(address,uint256)": "095ea7b3",
					"balanceOf(address)": "70a08231",
					"getApproved(uint256)": "081812fc",
					"isApprovedForAll(address,address)": "e985e9c5",
					"ownerOf(uint256)": "6352211e",
					"safeTransferFrom(address,address,uint256)": "42842e0e",
					"safeTransferFrom(address,address,uint256,bytes)": "b88d4fde",
					"setApprovalForAll(address,bool)": "a22cb465",
					"supportsInterface(bytes4)": "01ffc9a7",
					"transferFrom(address,address,uint256)": "23b872dd"
				}
			},
			"storageLayout": {
				"storage": [
					{
						"astId": 140,
						"contract": "contracts/base/ERC721Test.sol:ERC721",
						"label": "balances",
						"offset": 0,
						"slot": "0",
						"type": "t_mapping(t_address,t_uint256)"
					},
					{
						"astId": 144,
						"contract": "contracts/base/ERC721Test.sol:ERC721",
						"label": "_owners",
						"offset": 0,
						"slot": "1",
						"type": "t_mapping(t_uint256,t_address)"
					},
					{
						"astId": 151,
						"contract": "contracts/base/ERC721Test.sol:ERC721",
						"label": "isApprovedForAll",
						"offset": 0,
						"slot": "2",
						"type": "t_mapping(t_address,t_mapping(t_address,t_bool))"
					},
					{
						"astId": 155,
						"contract": "contracts/base/ERC721Test.sol:ERC721",
						"label": "_approves",
						"offset": 0,
						"slot": "3",
						"type": "t_mapping(t_uint256,t_address)"
					}
				],
				"types": {
					"t_address": {
						"encoding": "inplace",
						"label": "address",
						"numberOfBytes": "20"
					},
					"t_bool": {
						"encoding": "inplace",
						"label": "bool",
						"numberOfBytes": "1"
					},
					"t_mapping(t_address,t_bool)": {
						"encoding": "mapping",
						"key": "t_address",
						"label": "mapping(address => bool)",
						"numberOfBytes": "32",
						"value": "t_bool"
					},
					"t_mapping(t_address,t_mapping(t_address,t_bool))": {
						"encoding": "mapping",
						"key": "t_address",
						"label": "mapping(address => mapping(address => bool))",
						"numberOfBytes": "32",
						"value": "t_mapping(t_address,t_bool)"
					},
					"t_mapping(t_address,t_uint256)": {
						"encoding": "mapping",
						"key": "t_address",
						"label": "mapping(address => uint256)",
						"numberOfBytes": "32",
						"value": "t_uint256"
					},
					"t_mapping(t_uint256,t_address)": {
						"encoding": "mapping",
						"key": "t_uint256",
						"label": "mapping(uint256 => address)",
						"numberOfBytes": "32",
						"value": "t_address"
					},
					"t_uint256": {
						"encoding": "inplace",
						"label": "uint256",
						"numberOfBytes": "32"
					}
				}
			},
			"userdoc": {
				"kind": "user",
				"methods": {
					"approve(address,uint256)": {
						"notice": "描述：授权某个地址管理特定的ERC721代币 参数： _approved：被授权的地址 _tokenId：代币的唯一识别 ID"
					},
					"balanceOf(address)": {
						"notice": "描述：返回指定地址所拥有的代币数量 参数：_owner：代币拥有者的地址 返回值：该地址拥有的代币数量"
					},
					"getApproved(uint256)": {
						"notice": "描述：获取被授权管理特定代币的地址 参数：_tokenId：代币的唯一识别 ID 返回值：被授权的管理该代币的地址"
					},
					"isApprovedForAll(address,address)": {
						"notice": "描述：查询一个操作者是否被批准管理某个所有者的所有代币 参数： _owner：代币拥有者的地址 _operator：操作者的地址 返回值：是否被授权的布尔值"
					},
					"ownerOf(uint256)": {
						"notice": "描述：查询某个代币的所有者 参数：_tokenId：代币的唯一识别 ID 返回值：拥有此代币的地址"
					},
					"safeTransferFrom(address,address,uint256)": {
						"notice": "描述：安全地将代币从一个地址转移到另一个地址，调用时会检查接收者地址是否具备处理 ERC721 代币的能力 参数： _from：当前代币的拥有者地址 _to：代币将要被转移至的目标地址 _tokenId：将要被转移的代币的 ID data：额外的数据，可能会在调用中使用"
					},
					"safeTransferFrom(address,address,uint256,bytes)": {
						"notice": "描述：安全地将代币从一个地址转移到另一个地址，调用时会检查接收者地址是否具备处理 ERC721 代币的能力 参数： _from：当前代币的拥有者地址 _to：代币将要被转移至的目标地址 _tokenId：将要被转移的代币的 ID data：额外的数据，可能会在调用中使用"
					},
					"setApprovalForAll(address,bool)": {
						"notice": "描述：将一个操作者地址设置为被批准或取消批准管理所有代币的权利 参数： _operator：操作者的地址 _approved：批准或取消批准的标志"
					},
					"supportsInterface(bytes4)": {
						"notice": "作用场景： 当合约A需要调用合约B的特定功能（如转账、查询余额）时， 可先通过supportsInterface检查合约B是否支持相关接口（如ERC20、ERC721），避免调用失败。 实际应用场景 1. ​DeFi协议集成 钱包或交易所调用supportsInterface检测代币合约是否兼容ERC20，以决定是否展示余额或支持交易。 2. ​NFT市场 交易平台通过检查IERC721Receiver接口（ID：0x150b7a02），确认目标合约能否安全接收NFT，避免资产锁定。 3. ​可升级合约 代理合约在升级后，调用方需验证新逻辑合约是否支持原有接口，确保兼容性"
					},
					"transferFrom(address,address,uint256)": {
						"notice": "描述：将代币从一个地址转移到另一个地址，不检查接收者地址是否能处理 ERC721 代币 参数： _from：当前代币的拥有者地址 _to：代币将要被转移至的目标地址 _tokenId：将要被转移的代币的 ID"
					}
				},
				"version": 1
			}
		}
	}
}