{
	"contracts/base/AccessControl.sol": {
		"AccessControl": {
			"abi": [
				{
					"inputs": [],
					"stateMutability": "nonpayable",
					"type": "constructor"
				},
				{
					"anonymous": false,
					"inputs": [
						{
							"indexed": false,
							"internalType": "bytes32",
							"name": "roles",
							"type": "bytes32"
						},
						{
							"indexed": false,
							"internalType": "address",
							"name": "account",
							"type": "address"
						}
					],
					"name": "RoleGranted",
					"type": "event"
				},
				{
					"anonymous": false,
					"inputs": [
						{
							"indexed": false,
							"internalType": "bytes32",
							"name": "roles",
							"type": "bytes32"
						},
						{
							"indexed": false,
							"internalType": "address",
							"name": "account",
							"type": "address"
						}
					],
					"name": "RoleRevoked",
					"type": "event"
				},
				{
					"inputs": [
						{
							"internalType": "bytes32",
							"name": "role",
							"type": "bytes32"
						},
						{
							"internalType": "address",
							"name": "addr",
							"type": "address"
						}
					],
					"name": "grantRole",
					"outputs": [],
					"stateMutability": "nonpayable",
					"type": "function"
				},
				{
					"inputs": [
						{
							"internalType": "bytes32",
							"name": "role",
							"type": "bytes32"
						},
						{
							"internalType": "address",
							"name": "addr",
							"type": "address"
						}
					],
					"name": "revokeRole",
					"outputs": [],
					"stateMutability": "nonpayable",
					"type": "function"
				},
				{
					"inputs": [
						{
							"internalType": "bytes32",
							"name": "",
							"type": "bytes32"
						},
						{
							"internalType": "address",
							"name": "",
							"type": "address"
						}
					],
					"name": "roles",
					"outputs": [
						{
							"internalType": "bool",
							"name": "",
							"type": "bool"
						}
					],
					"stateMutability": "view",
					"type": "function"
				}
			],
			"devdoc": {
				"kind": "dev",
				"methods": {},
				"version": 1
			},
			"evm": {
				"assembly": "    /* \"contracts/base/AccessControl.sol\":63:1306  contract AccessControl {\r... */\n  mstore(0x40, 0x80)\n    /* \"contracts/base/AccessControl.sol\":705:766  constructor() {\r... */\n  callvalue\n  dup1\n  iszero\n  tag_1\n  jumpi\n  0x00\n  dup1\n  revert\ntag_1:\n  pop\n    /* \"contracts/base/AccessControl.sol\":730:758  _grantRole(ADMIN,msg.sender) */\n  tag_4\n    /* \"contracts/base/AccessControl.sol\":211:230  abi.encode(\"ADMIN\") */\n  add(0x20, mload(0x40))\n  tag_5\n  swap1\n  tag_6\n  jump\t// in\ntag_5:\n  mload(0x40)\n  0x20\n  dup2\n  dup4\n  sub\n  sub\n  dup2\n  mstore\n  swap1\n  0x40\n  mstore\n    /* \"contracts/base/AccessControl.sol\":201:231  keccak256(abi.encode(\"ADMIN\")) */\n  dup1\n  mload\n  swap1\n  0x20\n  add\n  keccak256\n    /* \"contracts/base/AccessControl.sol\":747:757  msg.sender */\n  caller\n    /* \"contracts/base/AccessControl.sol\":730:740  _grantRole */\n  shl(0x20, tag_7)\n    /* \"contracts/base/AccessControl.sol\":730:758  _grantRole(ADMIN,msg.sender) */\n  0x20\n  shr\n  jump\t// in\ntag_4:\n    /* \"contracts/base/AccessControl.sol\":63:1306  contract AccessControl {\r... */\n  jump(tag_8)\n    /* \"contracts/base/AccessControl.sol\":776:913  function _grantRole(bytes32 role,address addr) internal {\r... */\ntag_7:\n    /* \"contracts/base/AccessControl.sol\":863:867  true */\n  0x01\n    /* \"contracts/base/AccessControl.sol\":843:848  roles */\n  0x00\n    /* \"contracts/base/AccessControl.sol\":843:854  roles[role] */\n  dup1\n    /* \"contracts/base/AccessControl.sol\":849:853  role */\n  dup5\n    /* \"contracts/base/AccessControl.sol\":843:854  roles[role] */\n  dup2\n  mstore\n  0x20\n  add\n  swap1\n  dup2\n  mstore\n  0x20\n  add\n  0x00\n  keccak256\n    /* \"contracts/base/AccessControl.sol\":843:860  roles[role][addr] */\n  0x00\n    /* \"contracts/base/AccessControl.sol\":855:859  addr */\n  dup4\n    /* \"contracts/base/AccessControl.sol\":843:860  roles[role][addr] */\n  0xffffffffffffffffffffffffffffffffffffffff\n  and\n  0xffffffffffffffffffffffffffffffffffffffff\n  and\n  dup2\n  mstore\n  0x20\n  add\n  swap1\n  dup2\n  mstore\n  0x20\n  add\n  0x00\n  keccak256\n  0x00\n    /* \"contracts/base/AccessControl.sol\":843:867  roles[role][addr] = true */\n  0x0100\n  exp\n  dup2\n  sload\n  dup2\n  0xff\n  mul\n  not\n  and\n  swap1\n  dup4\n  iszero\n  iszero\n  mul\n  or\n  swap1\n  sstore\n  pop\n    /* \"contracts/base/AccessControl.sol\":883:905  RoleGranted(role,addr) */\n  0x2ae6a113c0ed5b78a53413ffbb7679881f11145ccfba4fb92e863dfcd5a1d2f3\n    /* \"contracts/base/AccessControl.sol\":895:899  role */\n  dup3\n    /* \"contracts/base/AccessControl.sol\":900:904  addr */\n  dup3\n    /* \"contracts/base/AccessControl.sol\":883:905  RoleGranted(role,addr) */\n  mload(0x40)\n  tag_10\n  swap3\n  swap2\n  swap1\n  tag_11\n  jump\t// in\ntag_10:\n  mload(0x40)\n  dup1\n  swap2\n  sub\n  swap1\n  log1\n    /* \"contracts/base/AccessControl.sol\":776:913  function _grantRole(bytes32 role,address addr) internal {\r... */\n  pop\n  pop\n  jump\t// out\n    /* \"#utility.yul\":7:125   */\ntag_13:\n    /* \"#utility.yul\":94:118   */\n  tag_15\n    /* \"#utility.yul\":112:117   */\n  dup2\n    /* \"#utility.yul\":94:118   */\n  tag_16\n  jump\t// in\ntag_15:\n    /* \"#utility.yul\":89:92   */\n  dup3\n    /* \"#utility.yul\":82:119   */\n  mstore\n    /* \"#utility.yul\":72:125   */\n  pop\n  pop\n  jump\t// out\n    /* \"#utility.yul\":131:249   */\ntag_17:\n    /* \"#utility.yul\":218:242   */\n  tag_19\n    /* \"#utility.yul\":236:241   */\n  dup2\n    /* \"#utility.yul\":218:242   */\n  tag_20\n  jump\t// in\ntag_19:\n    /* \"#utility.yul\":213:216   */\n  dup3\n    /* \"#utility.yul\":206:243   */\n  mstore\n    /* \"#utility.yul\":196:249   */\n  pop\n  pop\n  jump\t// out\n    /* \"#utility.yul\":255:620   */\ntag_21:\n    /* \"#utility.yul\":397:400   */\n  0x00\n    /* \"#utility.yul\":418:484   */\n  tag_23\n    /* \"#utility.yul\":482:483   */\n  0x05\n    /* \"#utility.yul\":477:480   */\n  dup4\n    /* \"#utility.yul\":418:484   */\n  tag_24\n  jump\t// in\ntag_23:\n    /* \"#utility.yul\":411:484   */\n  swap2\n  pop\n    /* \"#utility.yul\":493:586   */\n  tag_25\n    /* \"#utility.yul\":582:585   */\n  dup3\n    /* \"#utility.yul\":493:586   */\n  tag_26\n  jump\t// in\ntag_25:\n    /* \"#utility.yul\":611:613   */\n  0x20\n    /* \"#utility.yul\":606:609   */\n  dup3\n    /* \"#utility.yul\":602:614   */\n  add\n    /* \"#utility.yul\":595:614   */\n  swap1\n  pop\n    /* \"#utility.yul\":401:620   */\n  swap2\n  swap1\n  pop\n  jump\t// out\n    /* \"#utility.yul\":626:958   */\ntag_11:\n    /* \"#utility.yul\":747:751   */\n  0x00\n    /* \"#utility.yul\":785:787   */\n  0x40\n    /* \"#utility.yul\":774:783   */\n  dup3\n    /* \"#utility.yul\":770:788   */\n  add\n    /* \"#utility.yul\":762:788   */\n  swap1\n  pop\n    /* \"#utility.yul\":798:869   */\n  tag_28\n    /* \"#utility.yul\":866:867   */\n  0x00\n    /* \"#utility.yul\":855:864   */\n  dup4\n    /* \"#utility.yul\":851:868   */\n  add\n    /* \"#utility.yul\":842:848   */\n  dup6\n    /* \"#utility.yul\":798:869   */\n  tag_17\n  jump\t// in\ntag_28:\n    /* \"#utility.yul\":879:951   */\n  tag_29\n    /* \"#utility.yul\":947:949   */\n  0x20\n    /* \"#utility.yul\":936:945   */\n  dup4\n    /* \"#utility.yul\":932:950   */\n  add\n    /* \"#utility.yul\":923:929   */\n  dup5\n    /* \"#utility.yul\":879:951   */\n  tag_13\n  jump\t// in\ntag_29:\n    /* \"#utility.yul\":752:958   */\n  swap4\n  swap3\n  pop\n  pop\n  pop\n  jump\t// out\n    /* \"#utility.yul\":964:1383   */\ntag_6:\n    /* \"#utility.yul\":1130:1134   */\n  0x00\n    /* \"#utility.yul\":1168:1170   */\n  0x20\n    /* \"#utility.yul\":1157:1166   */\n  dup3\n    /* \"#utility.yul\":1153:1171   */\n  add\n    /* \"#utility.yul\":1145:1171   */\n  swap1\n  pop\n    /* \"#utility.yul\":1217:1226   */\n  dup2\n    /* \"#utility.yul\":1211:1215   */\n  dup2\n    /* \"#utility.yul\":1207:1227   */\n  sub\n    /* \"#utility.yul\":1203:1204   */\n  0x00\n    /* \"#utility.yul\":1192:1201   */\n  dup4\n    /* \"#utility.yul\":1188:1205   */\n  add\n    /* \"#utility.yul\":1181:1228   */\n  mstore\n    /* \"#utility.yul\":1245:1376   */\n  tag_31\n    /* \"#utility.yul\":1371:1375   */\n  dup2\n    /* \"#utility.yul\":1245:1376   */\n  tag_21\n  jump\t// in\ntag_31:\n    /* \"#utility.yul\":1237:1376   */\n  swap1\n  pop\n    /* \"#utility.yul\":1135:1383   */\n  swap2\n  swap1\n  pop\n  jump\t// out\n    /* \"#utility.yul\":1389:1558   */\ntag_24:\n    /* \"#utility.yul\":1473:1484   */\n  0x00\n    /* \"#utility.yul\":1507:1513   */\n  dup3\n    /* \"#utility.yul\":1502:1505   */\n  dup3\n    /* \"#utility.yul\":1495:1514   */\n  mstore\n    /* \"#utility.yul\":1547:1551   */\n  0x20\n    /* \"#utility.yul\":1542:1545   */\n  dup3\n    /* \"#utility.yul\":1538:1552   */\n  add\n    /* \"#utility.yul\":1523:1552   */\n  swap1\n  pop\n    /* \"#utility.yul\":1485:1558   */\n  swap3\n  swap2\n  pop\n  pop\n  jump\t// out\n    /* \"#utility.yul\":1564:1660   */\ntag_16:\n    /* \"#utility.yul\":1601:1608   */\n  0x00\n    /* \"#utility.yul\":1630:1654   */\n  tag_34\n    /* \"#utility.yul\":1648:1653   */\n  dup3\n    /* \"#utility.yul\":1630:1654   */\n  tag_35\n  jump\t// in\ntag_34:\n    /* \"#utility.yul\":1619:1654   */\n  swap1\n  pop\n    /* \"#utility.yul\":1609:1660   */\n  swap2\n  swap1\n  pop\n  jump\t// out\n    /* \"#utility.yul\":1666:1743   */\ntag_20:\n    /* \"#utility.yul\":1703:1710   */\n  0x00\n    /* \"#utility.yul\":1732:1737   */\n  dup2\n    /* \"#utility.yul\":1721:1737   */\n  swap1\n  pop\n    /* \"#utility.yul\":1711:1743   */\n  swap2\n  swap1\n  pop\n  jump\t// out\n    /* \"#utility.yul\":1749:1875   */\ntag_35:\n    /* \"#utility.yul\":1786:1793   */\n  0x00\n    /* \"#utility.yul\":1826:1868   */\n  0xffffffffffffffffffffffffffffffffffffffff\n    /* \"#utility.yul\":1819:1824   */\n  dup3\n    /* \"#utility.yul\":1815:1869   */\n  and\n    /* \"#utility.yul\":1804:1869   */\n  swap1\n  pop\n    /* \"#utility.yul\":1794:1875   */\n  swap2\n  swap1\n  pop\n  jump\t// out\n    /* \"#utility.yul\":1881:2036   */\ntag_26:\n    /* \"#utility.yul\":2021:2028   */\n  0x41444d494e000000000000000000000000000000000000000000000000000000\n    /* \"#utility.yul\":2017:2018   */\n  0x00\n    /* \"#utility.yul\":2009:2015   */\n  dup3\n    /* \"#utility.yul\":2005:2019   */\n  add\n    /* \"#utility.yul\":1998:2029   */\n  mstore\n    /* \"#utility.yul\":1987:2036   */\n  pop\n  jump\t// out\n    /* \"contracts/base/AccessControl.sol\":63:1306  contract AccessControl {\r... */\ntag_8:\n  dataSize(sub_0)\n  dup1\n  dataOffset(sub_0)\n  0x00\n  codecopy\n  0x00\n  return\nstop\n\nsub_0: assembly {\n        /* \"contracts/base/AccessControl.sol\":63:1306  contract AccessControl {\r... */\n      mstore(0x40, 0x80)\n      callvalue\n      dup1\n      iszero\n      tag_1\n      jumpi\n      0x00\n      dup1\n      revert\n    tag_1:\n      pop\n      jumpi(tag_2, lt(calldatasize, 0x04))\n      shr(0xe0, calldataload(0x00))\n      dup1\n      0x2f2ff15d\n      eq\n      tag_3\n      jumpi\n      dup1\n      0xd547741f\n      eq\n      tag_4\n      jumpi\n      dup1\n      0xf8fc08b9\n      eq\n      tag_5\n      jumpi\n    tag_2:\n      0x00\n      dup1\n      revert\n        /* \"contracts/base/AccessControl.sol\":921:1033  function grantRole(bytes32 role,address addr) external  onlyRole(ADMIN){\r... */\n    tag_3:\n      tag_6\n      0x04\n      dup1\n      calldatasize\n      sub\n      dup2\n      add\n      swap1\n      tag_7\n      swap2\n      swap1\n      tag_8\n      jump\t// in\n    tag_7:\n      tag_9\n      jump\t// in\n    tag_6:\n      stop\n        /* \"contracts/base/AccessControl.sol\":1188:1303  function revokeRole(bytes32 role,address addr) external  onlyRole(ADMIN) {\r... */\n    tag_4:\n      tag_10\n      0x04\n      dup1\n      calldatasize\n      sub\n      dup2\n      add\n      swap1\n      tag_11\n      swap2\n      swap1\n      tag_8\n      jump\t// in\n    tag_11:\n      tag_12\n      jump\t// in\n    tag_10:\n      stop\n        /* \"contracts/base/AccessControl.sol\":383:441  mapping(bytes32 => mapping(address => bool)) public  roles */\n    tag_5:\n      tag_13\n      0x04\n      dup1\n      calldatasize\n      sub\n      dup2\n      add\n      swap1\n      tag_14\n      swap2\n      swap1\n      tag_8\n      jump\t// in\n    tag_14:\n      tag_15\n      jump\t// in\n    tag_13:\n      mload(0x40)\n      tag_16\n      swap2\n      swap1\n      tag_17\n      jump\t// in\n    tag_16:\n      mload(0x40)\n      dup1\n      swap2\n      sub\n      swap1\n      return\n        /* \"contracts/base/AccessControl.sol\":921:1033  function grantRole(bytes32 role,address addr) external  onlyRole(ADMIN){\r... */\n    tag_9:\n        /* \"contracts/base/AccessControl.sol\":211:230  abi.encode(\"ADMIN\") */\n      add(0x20, mload(0x40))\n      tag_18\n      swap1\n      tag_19\n      jump\t// in\n    tag_18:\n      mload(0x40)\n      0x20\n      dup2\n      dup4\n      sub\n      sub\n      dup2\n      mstore\n      swap1\n      0x40\n      mstore\n        /* \"contracts/base/AccessControl.sol\":201:231  keccak256(abi.encode(\"ADMIN\")) */\n      dup1\n      mload\n      swap1\n      0x20\n      add\n      keccak256\n        /* \"contracts/base/AccessControl.sol\":613:618  roles */\n      0x00\n        /* \"contracts/base/AccessControl.sol\":613:624  roles[role] */\n      dup1\n        /* \"contracts/base/AccessControl.sol\":619:623  role */\n      dup3\n        /* \"contracts/base/AccessControl.sol\":613:624  roles[role] */\n      dup2\n      mstore\n      0x20\n      add\n      swap1\n      dup2\n      mstore\n      0x20\n      add\n      0x00\n      keccak256\n        /* \"contracts/base/AccessControl.sol\":613:636  roles[role][msg.sender] */\n      0x00\n        /* \"contracts/base/AccessControl.sol\":625:635  msg.sender */\n      caller\n        /* \"contracts/base/AccessControl.sol\":613:636  roles[role][msg.sender] */\n      0xffffffffffffffffffffffffffffffffffffffff\n      and\n      0xffffffffffffffffffffffffffffffffffffffff\n      and\n      dup2\n      mstore\n      0x20\n      add\n      swap1\n      dup2\n      mstore\n      0x20\n      add\n      0x00\n      keccak256\n      0x00\n      swap1\n      sload\n      swap1\n      0x0100\n      exp\n      swap1\n      div\n      0xff\n      and\n        /* \"contracts/base/AccessControl.sol\":605:677  require(roles[role][msg.sender],\"You dont have the required permission\") */\n      tag_21\n      jumpi\n      mload(0x40)\n      0x08c379a000000000000000000000000000000000000000000000000000000000\n      dup2\n      mstore\n      0x04\n      add\n      tag_22\n      swap1\n      tag_23\n      jump\t// in\n    tag_22:\n      mload(0x40)\n      dup1\n      swap2\n      sub\n      swap1\n      revert\n    tag_21:\n        /* \"contracts/base/AccessControl.sol\":1003:1025  _grantRole(role, addr) */\n      tag_25\n        /* \"contracts/base/AccessControl.sol\":1014:1018  role */\n      dup4\n        /* \"contracts/base/AccessControl.sol\":1020:1024  addr */\n      dup4\n        /* \"contracts/base/AccessControl.sol\":1003:1013  _grantRole */\n      tag_26\n        /* \"contracts/base/AccessControl.sol\":1003:1025  _grantRole(role, addr) */\n      jump\t// in\n    tag_25:\n        /* \"contracts/base/AccessControl.sol\":921:1033  function grantRole(bytes32 role,address addr) external  onlyRole(ADMIN){\r... */\n      pop\n      pop\n      pop\n      jump\t// out\n        /* \"contracts/base/AccessControl.sol\":1188:1303  function revokeRole(bytes32 role,address addr) external  onlyRole(ADMIN) {\r... */\n    tag_12:\n        /* \"contracts/base/AccessControl.sol\":211:230  abi.encode(\"ADMIN\") */\n      add(0x20, mload(0x40))\n      tag_27\n      swap1\n      tag_19\n      jump\t// in\n    tag_27:\n      mload(0x40)\n      0x20\n      dup2\n      dup4\n      sub\n      sub\n      dup2\n      mstore\n      swap1\n      0x40\n      mstore\n        /* \"contracts/base/AccessControl.sol\":201:231  keccak256(abi.encode(\"ADMIN\")) */\n      dup1\n      mload\n      swap1\n      0x20\n      add\n      keccak256\n        /* \"contracts/base/AccessControl.sol\":613:618  roles */\n      0x00\n        /* \"contracts/base/AccessControl.sol\":613:624  roles[role] */\n      dup1\n        /* \"contracts/base/AccessControl.sol\":619:623  role */\n      dup3\n        /* \"contracts/base/AccessControl.sol\":613:624  roles[role] */\n      dup2\n      mstore\n      0x20\n      add\n      swap1\n      dup2\n      mstore\n      0x20\n      add\n      0x00\n      keccak256\n        /* \"contracts/base/AccessControl.sol\":613:636  roles[role][msg.sender] */\n      0x00\n        /* \"contracts/base/AccessControl.sol\":625:635  msg.sender */\n      caller\n        /* \"contracts/base/AccessControl.sol\":613:636  roles[role][msg.sender] */\n      0xffffffffffffffffffffffffffffffffffffffff\n      and\n      0xffffffffffffffffffffffffffffffffffffffff\n      and\n      dup2\n      mstore\n      0x20\n      add\n      swap1\n      dup2\n      mstore\n      0x20\n      add\n      0x00\n      keccak256\n      0x00\n      swap1\n      sload\n      swap1\n      0x0100\n      exp\n      swap1\n      div\n      0xff\n      and\n        /* \"contracts/base/AccessControl.sol\":605:677  require(roles[role][msg.sender],\"You dont have the required permission\") */\n      tag_29\n      jumpi\n      mload(0x40)\n      0x08c379a000000000000000000000000000000000000000000000000000000000\n      dup2\n      mstore\n      0x04\n      add\n      tag_30\n      swap1\n      tag_23\n      jump\t// in\n    tag_30:\n      mload(0x40)\n      dup1\n      swap2\n      sub\n      swap1\n      revert\n    tag_29:\n        /* \"contracts/base/AccessControl.sol\":1272:1295  _revokeRole(role, addr) */\n      tag_32\n        /* \"contracts/base/AccessControl.sol\":1284:1288  role */\n      dup4\n        /* \"contracts/base/AccessControl.sol\":1290:1294  addr */\n      dup4\n        /* \"contracts/base/AccessControl.sol\":1272:1283  _revokeRole */\n      tag_33\n        /* \"contracts/base/AccessControl.sol\":1272:1295  _revokeRole(role, addr) */\n      jump\t// in\n    tag_32:\n        /* \"contracts/base/AccessControl.sol\":1188:1303  function revokeRole(bytes32 role,address addr) external  onlyRole(ADMIN) {\r... */\n      pop\n      pop\n      pop\n      jump\t// out\n        /* \"contracts/base/AccessControl.sol\":383:441  mapping(bytes32 => mapping(address => bool)) public  roles */\n    tag_15:\n      mstore(0x20, 0x00)\n      dup2\n      0x00\n      mstore\n      mstore(0x20, keccak256(0x00, 0x40))\n      dup1\n      0x00\n      mstore\n      keccak256(0x00, 0x40)\n      0x00\n      swap2\n      pop\n      swap2\n      pop\n      swap1\n      sload\n      swap1\n      0x0100\n      exp\n      swap1\n      div\n      0xff\n      and\n      dup2\n      jump\t// out\n        /* \"contracts/base/AccessControl.sol\":776:913  function _grantRole(bytes32 role,address addr) internal {\r... */\n    tag_26:\n        /* \"contracts/base/AccessControl.sol\":863:867  true */\n      0x01\n        /* \"contracts/base/AccessControl.sol\":843:848  roles */\n      0x00\n        /* \"contracts/base/AccessControl.sol\":843:854  roles[role] */\n      dup1\n        /* \"contracts/base/AccessControl.sol\":849:853  role */\n      dup5\n        /* \"contracts/base/AccessControl.sol\":843:854  roles[role] */\n      dup2\n      mstore\n      0x20\n      add\n      swap1\n      dup2\n      mstore\n      0x20\n      add\n      0x00\n      keccak256\n        /* \"contracts/base/AccessControl.sol\":843:860  roles[role][addr] */\n      0x00\n        /* \"contracts/base/AccessControl.sol\":855:859  addr */\n      dup4\n        /* \"contracts/base/AccessControl.sol\":843:860  roles[role][addr] */\n      0xffffffffffffffffffffffffffffffffffffffff\n      and\n      0xffffffffffffffffffffffffffffffffffffffff\n      and\n      dup2\n      mstore\n      0x20\n      add\n      swap1\n      dup2\n      mstore\n      0x20\n      add\n      0x00\n      keccak256\n      0x00\n        /* \"contracts/base/AccessControl.sol\":843:867  roles[role][addr] = true */\n      0x0100\n      exp\n      dup2\n      sload\n      dup2\n      0xff\n      mul\n      not\n      and\n      swap1\n      dup4\n      iszero\n      iszero\n      mul\n      or\n      swap1\n      sstore\n      pop\n        /* \"contracts/base/AccessControl.sol\":883:905  RoleGranted(role,addr) */\n      0x2ae6a113c0ed5b78a53413ffbb7679881f11145ccfba4fb92e863dfcd5a1d2f3\n        /* \"contracts/base/AccessControl.sol\":895:899  role */\n      dup3\n        /* \"contracts/base/AccessControl.sol\":900:904  addr */\n      dup3\n        /* \"contracts/base/AccessControl.sol\":883:905  RoleGranted(role,addr) */\n      mload(0x40)\n      tag_35\n      swap3\n      swap2\n      swap1\n      tag_36\n      jump\t// in\n    tag_35:\n      mload(0x40)\n      dup1\n      swap2\n      sub\n      swap1\n      log1\n        /* \"contracts/base/AccessControl.sol\":776:913  function _grantRole(bytes32 role,address addr) internal {\r... */\n      pop\n      pop\n      jump\t// out\n        /* \"contracts/base/AccessControl.sol\":1041:1180  function _revokeRole(bytes32 role,address addr) internal {\r... */\n    tag_33:\n        /* \"contracts/base/AccessControl.sol\":1129:1134  false */\n      0x00\n        /* \"contracts/base/AccessControl.sol\":1109:1114  roles */\n      dup1\n        /* \"contracts/base/AccessControl.sol\":1109:1120  roles[role] */\n      0x00\n        /* \"contracts/base/AccessControl.sol\":1115:1119  role */\n      dup5\n        /* \"contracts/base/AccessControl.sol\":1109:1120  roles[role] */\n      dup2\n      mstore\n      0x20\n      add\n      swap1\n      dup2\n      mstore\n      0x20\n      add\n      0x00\n      keccak256\n        /* \"contracts/base/AccessControl.sol\":1109:1126  roles[role][addr] */\n      0x00\n        /* \"contracts/base/AccessControl.sol\":1121:1125  addr */\n      dup4\n        /* \"contracts/base/AccessControl.sol\":1109:1126  roles[role][addr] */\n      0xffffffffffffffffffffffffffffffffffffffff\n      and\n      0xffffffffffffffffffffffffffffffffffffffff\n      and\n      dup2\n      mstore\n      0x20\n      add\n      swap1\n      dup2\n      mstore\n      0x20\n      add\n      0x00\n      keccak256\n      0x00\n        /* \"contracts/base/AccessControl.sol\":1109:1134  roles[role][addr] = false */\n      0x0100\n      exp\n      dup2\n      sload\n      dup2\n      0xff\n      mul\n      not\n      and\n      swap1\n      dup4\n      iszero\n      iszero\n      mul\n      or\n      swap1\n      sstore\n      pop\n        /* \"contracts/base/AccessControl.sol\":1150:1172  RoleRevoked(role,addr) */\n      0x155aaafb6329a2098580462df33ec4b7441b19729b9601c5fc17ae1cf99a8a52\n        /* \"contracts/base/AccessControl.sol\":1162:1166  role */\n      dup3\n        /* \"contracts/base/AccessControl.sol\":1167:1171  addr */\n      dup3\n        /* \"contracts/base/AccessControl.sol\":1150:1172  RoleRevoked(role,addr) */\n      mload(0x40)\n      tag_38\n      swap3\n      swap2\n      swap1\n      tag_36\n      jump\t// in\n    tag_38:\n      mload(0x40)\n      dup1\n      swap2\n      sub\n      swap1\n      log1\n        /* \"contracts/base/AccessControl.sol\":1041:1180  function _revokeRole(bytes32 role,address addr) internal {\r... */\n      pop\n      pop\n      jump\t// out\n        /* \"#utility.yul\":7:146   */\n    tag_40:\n        /* \"#utility.yul\":53:58   */\n      0x00\n        /* \"#utility.yul\":91:97   */\n      dup2\n        /* \"#utility.yul\":78:98   */\n      calldataload\n        /* \"#utility.yul\":69:98   */\n      swap1\n      pop\n        /* \"#utility.yul\":107:140   */\n      tag_42\n        /* \"#utility.yul\":134:139   */\n      dup2\n        /* \"#utility.yul\":107:140   */\n      tag_43\n      jump\t// in\n    tag_42:\n        /* \"#utility.yul\":59:146   */\n      swap3\n      swap2\n      pop\n      pop\n      jump\t// out\n        /* \"#utility.yul\":152:291   */\n    tag_44:\n        /* \"#utility.yul\":198:203   */\n      0x00\n        /* \"#utility.yul\":236:242   */\n      dup2\n        /* \"#utility.yul\":223:243   */\n      calldataload\n        /* \"#utility.yul\":214:243   */\n      swap1\n      pop\n        /* \"#utility.yul\":252:285   */\n      tag_46\n        /* \"#utility.yul\":279:284   */\n      dup2\n        /* \"#utility.yul\":252:285   */\n      tag_47\n      jump\t// in\n    tag_46:\n        /* \"#utility.yul\":204:291   */\n      swap3\n      swap2\n      pop\n      pop\n      jump\t// out\n        /* \"#utility.yul\":297:704   */\n    tag_8:\n        /* \"#utility.yul\":365:371   */\n      0x00\n        /* \"#utility.yul\":373:379   */\n      dup1\n        /* \"#utility.yul\":422:424   */\n      0x40\n        /* \"#utility.yul\":410:419   */\n      dup4\n        /* \"#utility.yul\":401:408   */\n      dup6\n        /* \"#utility.yul\":397:420   */\n      sub\n        /* \"#utility.yul\":393:425   */\n      slt\n        /* \"#utility.yul\":390:392   */\n      iszero\n      tag_49\n      jumpi\n        /* \"#utility.yul\":438:439   */\n      0x00\n        /* \"#utility.yul\":435:436   */\n      dup1\n        /* \"#utility.yul\":428:440   */\n      revert\n        /* \"#utility.yul\":390:392   */\n    tag_49:\n        /* \"#utility.yul\":481:482   */\n      0x00\n        /* \"#utility.yul\":506:559   */\n      tag_50\n        /* \"#utility.yul\":551:558   */\n      dup6\n        /* \"#utility.yul\":542:548   */\n      dup3\n        /* \"#utility.yul\":531:540   */\n      dup7\n        /* \"#utility.yul\":527:549   */\n      add\n        /* \"#utility.yul\":506:559   */\n      tag_44\n      jump\t// in\n    tag_50:\n        /* \"#utility.yul\":496:559   */\n      swap3\n      pop\n        /* \"#utility.yul\":452:569   */\n      pop\n        /* \"#utility.yul\":608:610   */\n      0x20\n        /* \"#utility.yul\":634:687   */\n      tag_51\n        /* \"#utility.yul\":679:686   */\n      dup6\n        /* \"#utility.yul\":670:676   */\n      dup3\n        /* \"#utility.yul\":659:668   */\n      dup7\n        /* \"#utility.yul\":655:677   */\n      add\n        /* \"#utility.yul\":634:687   */\n      tag_40\n      jump\t// in\n    tag_51:\n        /* \"#utility.yul\":624:687   */\n      swap2\n      pop\n        /* \"#utility.yul\":579:697   */\n      pop\n        /* \"#utility.yul\":380:704   */\n      swap3\n      pop\n      swap3\n      swap1\n      pop\n      jump\t// out\n        /* \"#utility.yul\":710:828   */\n    tag_52:\n        /* \"#utility.yul\":797:821   */\n      tag_54\n        /* \"#utility.yul\":815:820   */\n      dup2\n        /* \"#utility.yul\":797:821   */\n      tag_55\n      jump\t// in\n    tag_54:\n        /* \"#utility.yul\":792:795   */\n      dup3\n        /* \"#utility.yul\":785:822   */\n      mstore\n        /* \"#utility.yul\":775:828   */\n      pop\n      pop\n      jump\t// out\n        /* \"#utility.yul\":834:943   */\n    tag_56:\n        /* \"#utility.yul\":915:936   */\n      tag_58\n        /* \"#utility.yul\":930:935   */\n      dup2\n        /* \"#utility.yul\":915:936   */\n      tag_59\n      jump\t// in\n    tag_58:\n        /* \"#utility.yul\":910:913   */\n      dup3\n        /* \"#utility.yul\":903:937   */\n      mstore\n        /* \"#utility.yul\":893:943   */\n      pop\n      pop\n      jump\t// out\n        /* \"#utility.yul\":949:1067   */\n    tag_60:\n        /* \"#utility.yul\":1036:1060   */\n      tag_62\n        /* \"#utility.yul\":1054:1059   */\n      dup2\n        /* \"#utility.yul\":1036:1060   */\n      tag_63\n      jump\t// in\n    tag_62:\n        /* \"#utility.yul\":1031:1034   */\n      dup3\n        /* \"#utility.yul\":1024:1061   */\n      mstore\n        /* \"#utility.yul\":1014:1067   */\n      pop\n      pop\n      jump\t// out\n        /* \"#utility.yul\":1073:1439   */\n    tag_64:\n        /* \"#utility.yul\":1215:1218   */\n      0x00\n        /* \"#utility.yul\":1236:1303   */\n      tag_66\n        /* \"#utility.yul\":1300:1302   */\n      0x25\n        /* \"#utility.yul\":1295:1298   */\n      dup4\n        /* \"#utility.yul\":1236:1303   */\n      tag_67\n      jump\t// in\n    tag_66:\n        /* \"#utility.yul\":1229:1303   */\n      swap2\n      pop\n        /* \"#utility.yul\":1312:1405   */\n      tag_68\n        /* \"#utility.yul\":1401:1404   */\n      dup3\n        /* \"#utility.yul\":1312:1405   */\n      tag_69\n      jump\t// in\n    tag_68:\n        /* \"#utility.yul\":1430:1432   */\n      0x40\n        /* \"#utility.yul\":1425:1428   */\n      dup3\n        /* \"#utility.yul\":1421:1433   */\n      add\n        /* \"#utility.yul\":1414:1433   */\n      swap1\n      pop\n        /* \"#utility.yul\":1219:1439   */\n      swap2\n      swap1\n      pop\n      jump\t// out\n        /* \"#utility.yul\":1445:1810   */\n    tag_70:\n        /* \"#utility.yul\":1587:1590   */\n      0x00\n        /* \"#utility.yul\":1608:1674   */\n      tag_72\n        /* \"#utility.yul\":1672:1673   */\n      0x05\n        /* \"#utility.yul\":1667:1670   */\n      dup4\n        /* \"#utility.yul\":1608:1674   */\n      tag_67\n      jump\t// in\n    tag_72:\n        /* \"#utility.yul\":1601:1674   */\n      swap2\n      pop\n        /* \"#utility.yul\":1683:1776   */\n      tag_73\n        /* \"#utility.yul\":1772:1775   */\n      dup3\n        /* \"#utility.yul\":1683:1776   */\n      tag_74\n      jump\t// in\n    tag_73:\n        /* \"#utility.yul\":1801:1803   */\n      0x20\n        /* \"#utility.yul\":1796:1799   */\n      dup3\n        /* \"#utility.yul\":1792:1804   */\n      add\n        /* \"#utility.yul\":1785:1804   */\n      swap1\n      pop\n        /* \"#utility.yul\":1591:1810   */\n      swap2\n      swap1\n      pop\n      jump\t// out\n        /* \"#utility.yul\":1816:2026   */\n    tag_17:\n        /* \"#utility.yul\":1903:1907   */\n      0x00\n        /* \"#utility.yul\":1941:1943   */\n      0x20\n        /* \"#utility.yul\":1930:1939   */\n      dup3\n        /* \"#utility.yul\":1926:1944   */\n      add\n        /* \"#utility.yul\":1918:1944   */\n      swap1\n      pop\n        /* \"#utility.yul\":1954:2019   */\n      tag_76\n        /* \"#utility.yul\":2016:2017   */\n      0x00\n        /* \"#utility.yul\":2005:2014   */\n      dup4\n        /* \"#utility.yul\":2001:2018   */\n      add\n        /* \"#utility.yul\":1992:1998   */\n      dup5\n        /* \"#utility.yul\":1954:2019   */\n      tag_56\n      jump\t// in\n    tag_76:\n        /* \"#utility.yul\":1908:2026   */\n      swap3\n      swap2\n      pop\n      pop\n      jump\t// out\n        /* \"#utility.yul\":2032:2364   */\n    tag_36:\n        /* \"#utility.yul\":2153:2157   */\n      0x00\n        /* \"#utility.yul\":2191:2193   */\n      0x40\n        /* \"#utility.yul\":2180:2189   */\n      dup3\n        /* \"#utility.yul\":2176:2194   */\n      add\n        /* \"#utility.yul\":2168:2194   */\n      swap1\n      pop\n        /* \"#utility.yul\":2204:2275   */\n      tag_78\n        /* \"#utility.yul\":2272:2273   */\n      0x00\n        /* \"#utility.yul\":2261:2270   */\n      dup4\n        /* \"#utility.yul\":2257:2274   */\n      add\n        /* \"#utility.yul\":2248:2254   */\n      dup6\n        /* \"#utility.yul\":2204:2275   */\n      tag_60\n      jump\t// in\n    tag_78:\n        /* \"#utility.yul\":2285:2357   */\n      tag_79\n        /* \"#utility.yul\":2353:2355   */\n      0x20\n        /* \"#utility.yul\":2342:2351   */\n      dup4\n        /* \"#utility.yul\":2338:2356   */\n      add\n        /* \"#utility.yul\":2329:2335   */\n      dup5\n        /* \"#utility.yul\":2285:2357   */\n      tag_52\n      jump\t// in\n    tag_79:\n        /* \"#utility.yul\":2158:2364   */\n      swap4\n      swap3\n      pop\n      pop\n      pop\n      jump\t// out\n        /* \"#utility.yul\":2370:2789   */\n    tag_23:\n        /* \"#utility.yul\":2536:2540   */\n      0x00\n        /* \"#utility.yul\":2574:2576   */\n      0x20\n        /* \"#utility.yul\":2563:2572   */\n      dup3\n        /* \"#utility.yul\":2559:2577   */\n      add\n        /* \"#utility.yul\":2551:2577   */\n      swap1\n      pop\n        /* \"#utility.yul\":2623:2632   */\n      dup2\n        /* \"#utility.yul\":2617:2621   */\n      dup2\n        /* \"#utility.yul\":2613:2633   */\n      sub\n        /* \"#utility.yul\":2609:2610   */\n      0x00\n        /* \"#utility.yul\":2598:2607   */\n      dup4\n        /* \"#utility.yul\":2594:2611   */\n      add\n        /* \"#utility.yul\":2587:2634   */\n      mstore\n        /* \"#utility.yul\":2651:2782   */\n      tag_81\n        /* \"#utility.yul\":2777:2781   */\n      dup2\n        /* \"#utility.yul\":2651:2782   */\n      tag_64\n      jump\t// in\n    tag_81:\n        /* \"#utility.yul\":2643:2782   */\n      swap1\n      pop\n        /* \"#utility.yul\":2541:2789   */\n      swap2\n      swap1\n      pop\n      jump\t// out\n        /* \"#utility.yul\":2795:3214   */\n    tag_19:\n        /* \"#utility.yul\":2961:2965   */\n      0x00\n        /* \"#utility.yul\":2999:3001   */\n      0x20\n        /* \"#utility.yul\":2988:2997   */\n      dup3\n        /* \"#utility.yul\":2984:3002   */\n      add\n        /* \"#utility.yul\":2976:3002   */\n      swap1\n      pop\n        /* \"#utility.yul\":3048:3057   */\n      dup2\n        /* \"#utility.yul\":3042:3046   */\n      dup2\n        /* \"#utility.yul\":3038:3058   */\n      sub\n        /* \"#utility.yul\":3034:3035   */\n      0x00\n        /* \"#utility.yul\":3023:3032   */\n      dup4\n        /* \"#utility.yul\":3019:3036   */\n      add\n        /* \"#utility.yul\":3012:3059   */\n      mstore\n        /* \"#utility.yul\":3076:3207   */\n      tag_83\n        /* \"#utility.yul\":3202:3206   */\n      dup2\n        /* \"#utility.yul\":3076:3207   */\n      tag_70\n      jump\t// in\n    tag_83:\n        /* \"#utility.yul\":3068:3207   */\n      swap1\n      pop\n        /* \"#utility.yul\":2966:3214   */\n      swap2\n      swap1\n      pop\n      jump\t// out\n        /* \"#utility.yul\":3220:3389   */\n    tag_67:\n        /* \"#utility.yul\":3304:3315   */\n      0x00\n        /* \"#utility.yul\":3338:3344   */\n      dup3\n        /* \"#utility.yul\":3333:3336   */\n      dup3\n        /* \"#utility.yul\":3326:3345   */\n      mstore\n        /* \"#utility.yul\":3378:3382   */\n      0x20\n        /* \"#utility.yul\":3373:3376   */\n      dup3\n        /* \"#utility.yul\":3369:3383   */\n      add\n        /* \"#utility.yul\":3354:3383   */\n      swap1\n      pop\n        /* \"#utility.yul\":3316:3389   */\n      swap3\n      swap2\n      pop\n      pop\n      jump\t// out\n        /* \"#utility.yul\":3395:3491   */\n    tag_55:\n        /* \"#utility.yul\":3432:3439   */\n      0x00\n        /* \"#utility.yul\":3461:3485   */\n      tag_86\n        /* \"#utility.yul\":3479:3484   */\n      dup3\n        /* \"#utility.yul\":3461:3485   */\n      tag_87\n      jump\t// in\n    tag_86:\n        /* \"#utility.yul\":3450:3485   */\n      swap1\n      pop\n        /* \"#utility.yul\":3440:3491   */\n      swap2\n      swap1\n      pop\n      jump\t// out\n        /* \"#utility.yul\":3497:3587   */\n    tag_59:\n        /* \"#utility.yul\":3531:3538   */\n      0x00\n        /* \"#utility.yul\":3574:3579   */\n      dup2\n        /* \"#utility.yul\":3567:3580   */\n      iszero\n        /* \"#utility.yul\":3560:3581   */\n      iszero\n        /* \"#utility.yul\":3549:3581   */\n      swap1\n      pop\n        /* \"#utility.yul\":3539:3587   */\n      swap2\n      swap1\n      pop\n      jump\t// out\n        /* \"#utility.yul\":3593:3670   */\n    tag_63:\n        /* \"#utility.yul\":3630:3637   */\n      0x00\n        /* \"#utility.yul\":3659:3664   */\n      dup2\n        /* \"#utility.yul\":3648:3664   */\n      swap1\n      pop\n        /* \"#utility.yul\":3638:3670   */\n      swap2\n      swap1\n      pop\n      jump\t// out\n        /* \"#utility.yul\":3676:3802   */\n    tag_87:\n        /* \"#utility.yul\":3713:3720   */\n      0x00\n        /* \"#utility.yul\":3753:3795   */\n      0xffffffffffffffffffffffffffffffffffffffff\n        /* \"#utility.yul\":3746:3751   */\n      dup3\n        /* \"#utility.yul\":3742:3796   */\n      and\n        /* \"#utility.yul\":3731:3796   */\n      swap1\n      pop\n        /* \"#utility.yul\":3721:3802   */\n      swap2\n      swap1\n      pop\n      jump\t// out\n        /* \"#utility.yul\":3808:4032   */\n    tag_69:\n        /* \"#utility.yul\":3948:3982   */\n      0x596f7520646f6e74206861766520746865207265717569726564207065726d69\n        /* \"#utility.yul\":3944:3945   */\n      0x00\n        /* \"#utility.yul\":3936:3942   */\n      dup3\n        /* \"#utility.yul\":3932:3946   */\n      add\n        /* \"#utility.yul\":3925:3983   */\n      mstore\n        /* \"#utility.yul\":4017:4024   */\n      0x7373696f6e000000000000000000000000000000000000000000000000000000\n        /* \"#utility.yul\":4012:4014   */\n      0x20\n        /* \"#utility.yul\":4004:4010   */\n      dup3\n        /* \"#utility.yul\":4000:4015   */\n      add\n        /* \"#utility.yul\":3993:4025   */\n      mstore\n        /* \"#utility.yul\":3914:4032   */\n      pop\n      jump\t// out\n        /* \"#utility.yul\":4038:4193   */\n    tag_74:\n        /* \"#utility.yul\":4178:4185   */\n      0x41444d494e000000000000000000000000000000000000000000000000000000\n        /* \"#utility.yul\":4174:4175   */\n      0x00\n        /* \"#utility.yul\":4166:4172   */\n      dup3\n        /* \"#utility.yul\":4162:4176   */\n      add\n        /* \"#utility.yul\":4155:4186   */\n      mstore\n        /* \"#utility.yul\":4144:4193   */\n      pop\n      jump\t// out\n        /* \"#utility.yul\":4199:4321   */\n    tag_43:\n        /* \"#utility.yul\":4272:4296   */\n      tag_94\n        /* \"#utility.yul\":4290:4295   */\n      dup2\n        /* \"#utility.yul\":4272:4296   */\n      tag_55\n      jump\t// in\n    tag_94:\n        /* \"#utility.yul\":4265:4270   */\n      dup2\n        /* \"#utility.yul\":4262:4297   */\n      eq\n        /* \"#utility.yul\":4252:4254   */\n      tag_95\n      jumpi\n        /* \"#utility.yul\":4311:4312   */\n      0x00\n        /* \"#utility.yul\":4308:4309   */\n      dup1\n        /* \"#utility.yul\":4301:4313   */\n      revert\n        /* \"#utility.yul\":4252:4254   */\n    tag_95:\n        /* \"#utility.yul\":4242:4321   */\n      pop\n      jump\t// out\n        /* \"#utility.yul\":4327:4449   */\n    tag_47:\n        /* \"#utility.yul\":4400:4424   */\n      tag_97\n        /* \"#utility.yul\":4418:4423   */\n      dup2\n        /* \"#utility.yul\":4400:4424   */\n      tag_63\n      jump\t// in\n    tag_97:\n        /* \"#utility.yul\":4393:4398   */\n      dup2\n        /* \"#utility.yul\":4390:4425   */\n      eq\n        /* \"#utility.yul\":4380:4382   */\n      tag_98\n      jumpi\n        /* \"#utility.yul\":4439:4440   */\n      0x00\n        /* \"#utility.yul\":4436:4437   */\n      dup1\n        /* \"#utility.yul\":4429:4441   */\n      revert\n        /* \"#utility.yul\":4380:4382   */\n    tag_98:\n        /* \"#utility.yul\":4370:4449   */\n      pop\n      jump\t// out\n\n    auxdata: 0xa26469706673582212207834228fea80bd103738b8459acf0be0fedc2f50631b33be57b134299987c9cb64736f6c63430008040033\n}\n",
				"bytecode": {
					"linkReferences": {},
					"object": "608060405234801561001057600080fd5b5061004560405160200161002390610159565b604051602081830303815290604052805190602001203361004a60201b60201c565b6101ef565b600160008084815260200190815260200160002060008373ffffffffffffffffffffffffffffffffffffffff1673ffffffffffffffffffffffffffffffffffffffff16815260200190815260200160002060006101000a81548160ff0219169083151502179055507f2ae6a113c0ed5b78a53413ffbb7679881f11145ccfba4fb92e863dfcd5a1d2f382826040516100e3929190610130565b60405180910390a15050565b6100f88161018a565b82525050565b6101078161019c565b82525050565b600061011a600583610179565b9150610125826101c6565b602082019050919050565b600060408201905061014560008301856100fe565b61015260208301846100ef565b9392505050565b600060208201905081810360008301526101728161010d565b9050919050565b600082825260208201905092915050565b6000610195826101a6565b9050919050565b6000819050919050565b600073ffffffffffffffffffffffffffffffffffffffff82169050919050565b7f41444d494e000000000000000000000000000000000000000000000000000000600082015250565b610659806101fe6000396000f3fe608060405234801561001057600080fd5b50600436106100415760003560e01c80632f2ff15d14610046578063d547741f14610062578063f8fc08b91461007e575b600080fd5b610060600480360381019061005b91906103f1565b6100ae565b005b61007c600480360381019061007791906103f1565b61017e565b005b610098600480360381019061009391906103f1565b61024e565b6040516100a591906104a0565b60405180910390f35b6040516020016100bd90610504565b6040516020818303038152906040528051906020012060008082815260200190815260200160002060003373ffffffffffffffffffffffffffffffffffffffff1673ffffffffffffffffffffffffffffffffffffffff16815260200190815260200160002060009054906101000a900460ff1661016f576040517f08c379a0000000000000000000000000000000000000000000000000000000008152600401610166906104e4565b60405180910390fd5b610179838361027d565b505050565b60405160200161018d90610504565b6040516020818303038152906040528051906020012060008082815260200190815260200160002060003373ffffffffffffffffffffffffffffffffffffffff1673ffffffffffffffffffffffffffffffffffffffff16815260200190815260200160002060009054906101000a900460ff1661023f576040517f08c379a0000000000000000000000000000000000000000000000000000000008152600401610236906104e4565b60405180910390fd5b6102498383610322565b505050565b60006020528160005260406000206020528060005260406000206000915091509054906101000a900460ff1681565b600160008084815260200190815260200160002060008373ffffffffffffffffffffffffffffffffffffffff1673ffffffffffffffffffffffffffffffffffffffff16815260200190815260200160002060006101000a81548160ff0219169083151502179055507f2ae6a113c0ed5b78a53413ffbb7679881f11145ccfba4fb92e863dfcd5a1d2f382826040516103169291906104bb565b60405180910390a15050565b600080600084815260200190815260200160002060008373ffffffffffffffffffffffffffffffffffffffff1673ffffffffffffffffffffffffffffffffffffffff16815260200190815260200160002060006101000a81548160ff0219169083151502179055507f155aaafb6329a2098580462df33ec4b7441b19729b9601c5fc17ae1cf99a8a5282826040516103bb9291906104bb565b60405180910390a15050565b6000813590506103d6816105f5565b92915050565b6000813590506103eb8161060c565b92915050565b6000806040838503121561040457600080fd5b6000610412858286016103dc565b9250506020610423858286016103c7565b9150509250929050565b61043681610535565b82525050565b61044581610547565b82525050565b61045481610553565b82525050565b6000610467602583610524565b91506104728261057d565b604082019050919050565b600061048a600583610524565b9150610495826105cc565b602082019050919050565b60006020820190506104b5600083018461043c565b92915050565b60006040820190506104d0600083018561044b565b6104dd602083018461042d565b9392505050565b600060208201905081810360008301526104fd8161045a565b9050919050565b6000602082019050818103600083015261051d8161047d565b9050919050565b600082825260208201905092915050565b60006105408261055d565b9050919050565b60008115159050919050565b6000819050919050565b600073ffffffffffffffffffffffffffffffffffffffff82169050919050565b7f596f7520646f6e74206861766520746865207265717569726564207065726d6960008201527f7373696f6e000000000000000000000000000000000000000000000000000000602082015250565b7f41444d494e000000000000000000000000000000000000000000000000000000600082015250565b6105fe81610535565b811461060957600080fd5b50565b61061581610553565b811461062057600080fd5b5056fea26469706673582212207834228fea80bd103738b8459acf0be0fedc2f50631b33be57b134299987c9cb64736f6c63430008040033",
					"opcodes": "PUSH1 0x80 PUSH1 0x40 MSTORE CALLVALUE DUP1 ISZERO PUSH2 0x10 JUMPI PUSH1 0x0 DUP1 REVERT JUMPDEST POP PUSH2 0x45 PUSH1 0x40 MLOAD PUSH1 0x20 ADD PUSH2 0x23 SWAP1 PUSH2 0x159 JUMP JUMPDEST PUSH1 0x40 MLOAD PUSH1 0x20 DUP2 DUP4 SUB SUB DUP2 MSTORE SWAP1 PUSH1 0x40 MSTORE DUP1 MLOAD SWAP1 PUSH1 0x20 ADD KECCAK256 CALLER PUSH2 0x4A PUSH1 0x20 SHL PUSH1 0x20 SHR JUMP JUMPDEST PUSH2 0x1EF JUMP JUMPDEST PUSH1 0x1 PUSH1 0x0 DUP1 DUP5 DUP2 MSTORE PUSH1 0x20 ADD SWAP1 DUP2 MSTORE PUSH1 0x20 ADD PUSH1 0x0 KECCAK256 PUSH1 0x0 DUP4 PUSH20 0xFFFFFFFFFFFFFFFFFFFFFFFFFFFFFFFFFFFFFFFF AND PUSH20 0xFFFFFFFFFFFFFFFFFFFFFFFFFFFFFFFFFFFFFFFF AND DUP2 MSTORE PUSH1 0x20 ADD SWAP1 DUP2 MSTORE PUSH1 0x20 ADD PUSH1 0x0 KECCAK256 PUSH1 0x0 PUSH2 0x100 EXP DUP2 SLOAD DUP2 PUSH1 0xFF MUL NOT AND SWAP1 DUP4 ISZERO ISZERO MUL OR SWAP1 SSTORE POP PUSH32 0x2AE6A113C0ED5B78A53413FFBB7679881F11145CCFBA4FB92E863DFCD5A1D2F3 DUP3 DUP3 PUSH1 0x40 MLOAD PUSH2 0xE3 SWAP3 SWAP2 SWAP1 PUSH2 0x130 JUMP JUMPDEST PUSH1 0x40 MLOAD DUP1 SWAP2 SUB SWAP1 LOG1 POP POP JUMP JUMPDEST PUSH2 0xF8 DUP2 PUSH2 0x18A JUMP JUMPDEST DUP3 MSTORE POP POP JUMP JUMPDEST PUSH2 0x107 DUP2 PUSH2 0x19C JUMP JUMPDEST DUP3 MSTORE POP POP JUMP JUMPDEST PUSH1 0x0 PUSH2 0x11A PUSH1 0x5 DUP4 PUSH2 0x179 JUMP JUMPDEST SWAP2 POP PUSH2 0x125 DUP3 PUSH2 0x1C6 JUMP JUMPDEST PUSH1 0x20 DUP3 ADD SWAP1 POP SWAP2 SWAP1 POP JUMP JUMPDEST PUSH1 0x0 PUSH1 0x40 DUP3 ADD SWAP1 POP PUSH2 0x145 PUSH1 0x0 DUP4 ADD DUP6 PUSH2 0xFE JUMP JUMPDEST PUSH2 0x152 PUSH1 0x20 DUP4 ADD DUP5 PUSH2 0xEF JUMP JUMPDEST SWAP4 SWAP3 POP POP POP JUMP JUMPDEST PUSH1 0x0 PUSH1 0x20 DUP3 ADD SWAP1 POP DUP2 DUP2 SUB PUSH1 0x0 DUP4 ADD MSTORE PUSH2 0x172 DUP2 PUSH2 0x10D JUMP JUMPDEST SWAP1 POP SWAP2 SWAP1 POP JUMP JUMPDEST PUSH1 0x0 DUP3 DUP3 MSTORE PUSH1 0x20 DUP3 ADD SWAP1 POP SWAP3 SWAP2 POP POP JUMP JUMPDEST PUSH1 0x0 PUSH2 0x195 DUP3 PUSH2 0x1A6 JUMP JUMPDEST SWAP1 POP SWAP2 SWAP1 POP JUMP JUMPDEST PUSH1 0x0 DUP2 SWAP1 POP SWAP2 SWAP1 POP JUMP JUMPDEST PUSH1 0x0 PUSH20 0xFFFFFFFFFFFFFFFFFFFFFFFFFFFFFFFFFFFFFFFF DUP3 AND SWAP1 POP SWAP2 SWAP1 POP JUMP JUMPDEST PUSH32 0x41444D494E000000000000000000000000000000000000000000000000000000 PUSH1 0x0 DUP3 ADD MSTORE POP JUMP JUMPDEST PUSH2 0x659 DUP1 PUSH2 0x1FE PUSH1 0x0 CODECOPY PUSH1 0x0 RETURN INVALID PUSH1 0x80 PUSH1 0x40 MSTORE CALLVALUE DUP1 ISZERO PUSH2 0x10 JUMPI PUSH1 0x0 DUP1 REVERT JUMPDEST POP PUSH1 0x4 CALLDATASIZE LT PUSH2 0x41 JUMPI PUSH1 0x0 CALLDATALOAD PUSH1 0xE0 SHR DUP1 PUSH4 0x2F2FF15D EQ PUSH2 0x46 JUMPI DUP1 PUSH4 0xD547741F EQ PUSH2 0x62 JUMPI DUP1 PUSH4 0xF8FC08B9 EQ PUSH2 0x7E JUMPI JUMPDEST PUSH1 0x0 DUP1 REVERT JUMPDEST PUSH2 0x60 PUSH1 0x4 DUP1 CALLDATASIZE SUB DUP2 ADD SWAP1 PUSH2 0x5B SWAP2 SWAP1 PUSH2 0x3F1 JUMP JUMPDEST PUSH2 0xAE JUMP JUMPDEST STOP JUMPDEST PUSH2 0x7C PUSH1 0x4 DUP1 CALLDATASIZE SUB DUP2 ADD SWAP1 PUSH2 0x77 SWAP2 SWAP1 PUSH2 0x3F1 JUMP JUMPDEST PUSH2 0x17E JUMP JUMPDEST STOP JUMPDEST PUSH2 0x98 PUSH1 0x4 DUP1 CALLDATASIZE SUB DUP2 ADD SWAP1 PUSH2 0x93 SWAP2 SWAP1 PUSH2 0x3F1 JUMP JUMPDEST PUSH2 0x24E JUMP JUMPDEST PUSH1 0x40 MLOAD PUSH2 0xA5 SWAP2 SWAP1 PUSH2 0x4A0 JUMP JUMPDEST PUSH1 0x40 MLOAD DUP1 SWAP2 SUB SWAP1 RETURN JUMPDEST PUSH1 0x40 MLOAD PUSH1 0x20 ADD PUSH2 0xBD SWAP1 PUSH2 0x504 JUMP JUMPDEST PUSH1 0x40 MLOAD PUSH1 0x20 DUP2 DUP4 SUB SUB DUP2 MSTORE SWAP1 PUSH1 0x40 MSTORE DUP1 MLOAD SWAP1 PUSH1 0x20 ADD KECCAK256 PUSH1 0x0 DUP1 DUP3 DUP2 MSTORE PUSH1 0x20 ADD SWAP1 DUP2 MSTORE PUSH1 0x20 ADD PUSH1 0x0 KECCAK256 PUSH1 0x0 CALLER PUSH20 0xFFFFFFFFFFFFFFFFFFFFFFFFFFFFFFFFFFFFFFFF AND PUSH20 0xFFFFFFFFFFFFFFFFFFFFFFFFFFFFFFFFFFFFFFFF AND DUP2 MSTORE PUSH1 0x20 ADD SWAP1 DUP2 MSTORE PUSH1 0x20 ADD PUSH1 0x0 KECCAK256 PUSH1 0x0 SWAP1 SLOAD SWAP1 PUSH2 0x100 EXP SWAP1 DIV PUSH1 0xFF AND PUSH2 0x16F JUMPI PUSH1 0x40 MLOAD PUSH32 0x8C379A000000000000000000000000000000000000000000000000000000000 DUP2 MSTORE PUSH1 0x4 ADD PUSH2 0x166 SWAP1 PUSH2 0x4E4 JUMP JUMPDEST PUSH1 0x40 MLOAD DUP1 SWAP2 SUB SWAP1 REVERT JUMPDEST PUSH2 0x179 DUP4 DUP4 PUSH2 0x27D JUMP JUMPDEST POP POP POP JUMP JUMPDEST PUSH1 0x40 MLOAD PUSH1 0x20 ADD PUSH2 0x18D SWAP1 PUSH2 0x504 JUMP JUMPDEST PUSH1 0x40 MLOAD PUSH1 0x20 DUP2 DUP4 SUB SUB DUP2 MSTORE SWAP1 PUSH1 0x40 MSTORE DUP1 MLOAD SWAP1 PUSH1 0x20 ADD KECCAK256 PUSH1 0x0 DUP1 DUP3 DUP2 MSTORE PUSH1 0x20 ADD SWAP1 DUP2 MSTORE PUSH1 0x20 ADD PUSH1 0x0 KECCAK256 PUSH1 0x0 CALLER PUSH20 0xFFFFFFFFFFFFFFFFFFFFFFFFFFFFFFFFFFFFFFFF AND PUSH20 0xFFFFFFFFFFFFFFFFFFFFFFFFFFFFFFFFFFFFFFFF AND DUP2 MSTORE PUSH1 0x20 ADD SWAP1 DUP2 MSTORE PUSH1 0x20 ADD PUSH1 0x0 KECCAK256 PUSH1 0x0 SWAP1 SLOAD SWAP1 PUSH2 0x100 EXP SWAP1 DIV PUSH1 0xFF AND PUSH2 0x23F JUMPI PUSH1 0x40 MLOAD PUSH32 0x8C379A000000000000000000000000000000000000000000000000000000000 DUP2 MSTORE PUSH1 0x4 ADD PUSH2 0x236 SWAP1 PUSH2 0x4E4 JUMP JUMPDEST PUSH1 0x40 MLOAD DUP1 SWAP2 SUB SWAP1 REVERT JUMPDEST PUSH2 0x249 DUP4 DUP4 PUSH2 0x322 JUMP JUMPDEST POP POP POP JUMP JUMPDEST PUSH1 0x0 PUSH1 0x20 MSTORE DUP2 PUSH1 0x0 MSTORE PUSH1 0x40 PUSH1 0x0 KECCAK256 PUSH1 0x20 MSTORE DUP1 PUSH1 0x0 MSTORE PUSH1 0x40 PUSH1 0x0 KECCAK256 PUSH1 0x0 SWAP2 POP SWAP2 POP SWAP1 SLOAD SWAP1 PUSH2 0x100 EXP SWAP1 DIV PUSH1 0xFF AND DUP2 JUMP JUMPDEST PUSH1 0x1 PUSH1 0x0 DUP1 DUP5 DUP2 MSTORE PUSH1 0x20 ADD SWAP1 DUP2 MSTORE PUSH1 0x20 ADD PUSH1 0x0 KECCAK256 PUSH1 0x0 DUP4 PUSH20 0xFFFFFFFFFFFFFFFFFFFFFFFFFFFFFFFFFFFFFFFF AND PUSH20 0xFFFFFFFFFFFFFFFFFFFFFFFFFFFFFFFFFFFFFFFF AND DUP2 MSTORE PUSH1 0x20 ADD SWAP1 DUP2 MSTORE PUSH1 0x20 ADD PUSH1 0x0 KECCAK256 PUSH1 0x0 PUSH2 0x100 EXP DUP2 SLOAD DUP2 PUSH1 0xFF MUL NOT AND SWAP1 DUP4 ISZERO ISZERO MUL OR SWAP1 SSTORE POP PUSH32 0x2AE6A113C0ED5B78A53413FFBB7679881F11145CCFBA4FB92E863DFCD5A1D2F3 DUP3 DUP3 PUSH1 0x40 MLOAD PUSH2 0x316 SWAP3 SWAP2 SWAP1 PUSH2 0x4BB JUMP JUMPDEST PUSH1 0x40 MLOAD DUP1 SWAP2 SUB SWAP1 LOG1 POP POP JUMP JUMPDEST PUSH1 0x0 DUP1 PUSH1 0x0 DUP5 DUP2 MSTORE PUSH1 0x20 ADD SWAP1 DUP2 MSTORE PUSH1 0x20 ADD PUSH1 0x0 KECCAK256 PUSH1 0x0 DUP4 PUSH20 0xFFFFFFFFFFFFFFFFFFFFFFFFFFFFFFFFFFFFFFFF AND PUSH20 0xFFFFFFFFFFFFFFFFFFFFFFFFFFFFFFFFFFFFFFFF AND DUP2 MSTORE PUSH1 0x20 ADD SWAP1 DUP2 MSTORE PUSH1 0x20 ADD PUSH1 0x0 KECCAK256 PUSH1 0x0 PUSH2 0x100 EXP DUP2 SLOAD DUP2 PUSH1 0xFF MUL NOT AND SWAP1 DUP4 ISZERO ISZERO MUL OR SWAP1 SSTORE POP PUSH32 0x155AAAFB6329A2098580462DF33EC4B7441B19729B9601C5FC17AE1CF99A8A52 DUP3 DUP3 PUSH1 0x40 MLOAD PUSH2 0x3BB SWAP3 SWAP2 SWAP1 PUSH2 0x4BB JUMP JUMPDEST PUSH1 0x40 MLOAD DUP1 SWAP2 SUB SWAP1 LOG1 POP POP JUMP JUMPDEST PUSH1 0x0 DUP2 CALLDATALOAD SWAP1 POP PUSH2 0x3D6 DUP2 PUSH2 0x5F5 JUMP JUMPDEST SWAP3 SWAP2 POP POP JUMP JUMPDEST PUSH1 0x0 DUP2 CALLDATALOAD SWAP1 POP PUSH2 0x3EB DUP2 PUSH2 0x60C JUMP JUMPDEST SWAP3 SWAP2 POP POP JUMP JUMPDEST PUSH1 0x0 DUP1 PUSH1 0x40 DUP4 DUP6 SUB SLT ISZERO PUSH2 0x404 JUMPI PUSH1 0x0 DUP1 REVERT JUMPDEST PUSH1 0x0 PUSH2 0x412 DUP6 DUP3 DUP7 ADD PUSH2 0x3DC JUMP JUMPDEST SWAP3 POP POP PUSH1 0x20 PUSH2 0x423 DUP6 DUP3 DUP7 ADD PUSH2 0x3C7 JUMP JUMPDEST SWAP2 POP POP SWAP3 POP SWAP3 SWAP1 POP JUMP JUMPDEST PUSH2 0x436 DUP2 PUSH2 0x535 JUMP JUMPDEST DUP3 MSTORE POP POP JUMP JUMPDEST PUSH2 0x445 DUP2 PUSH2 0x547 JUMP JUMPDEST DUP3 MSTORE POP POP JUMP JUMPDEST PUSH2 0x454 DUP2 PUSH2 0x553 JUMP JUMPDEST DUP3 MSTORE POP POP JUMP JUMPDEST PUSH1 0x0 PUSH2 0x467 PUSH1 0x25 DUP4 PUSH2 0x524 JUMP JUMPDEST SWAP2 POP PUSH2 0x472 DUP3 PUSH2 0x57D JUMP JUMPDEST PUSH1 0x40 DUP3 ADD SWAP1 POP SWAP2 SWAP1 POP JUMP JUMPDEST PUSH1 0x0 PUSH2 0x48A PUSH1 0x5 DUP4 PUSH2 0x524 JUMP JUMPDEST SWAP2 POP PUSH2 0x495 DUP3 PUSH2 0x5CC JUMP JUMPDEST PUSH1 0x20 DUP3 ADD SWAP1 POP SWAP2 SWAP1 POP JUMP JUMPDEST PUSH1 0x0 PUSH1 0x20 DUP3 ADD SWAP1 POP PUSH2 0x4B5 PUSH1 0x0 DUP4 ADD DUP5 PUSH2 0x43C JUMP JUMPDEST SWAP3 SWAP2 POP POP JUMP JUMPDEST PUSH1 0x0 PUSH1 0x40 DUP3 ADD SWAP1 POP PUSH2 0x4D0 PUSH1 0x0 DUP4 ADD DUP6 PUSH2 0x44B JUMP JUMPDEST PUSH2 0x4DD PUSH1 0x20 DUP4 ADD DUP5 PUSH2 0x42D JUMP JUMPDEST SWAP4 SWAP3 POP POP POP JUMP JUMPDEST PUSH1 0x0 PUSH1 0x20 DUP3 ADD SWAP1 POP DUP2 DUP2 SUB PUSH1 0x0 DUP4 ADD MSTORE PUSH2 0x4FD DUP2 PUSH2 0x45A JUMP JUMPDEST SWAP1 POP SWAP2 SWAP1 POP JUMP JUMPDEST PUSH1 0x0 PUSH1 0x20 DUP3 ADD SWAP1 POP DUP2 DUP2 SUB PUSH1 0x0 DUP4 ADD MSTORE PUSH2 0x51D DUP2 PUSH2 0x47D JUMP JUMPDEST SWAP1 POP SWAP2 SWAP1 POP JUMP JUMPDEST PUSH1 0x0 DUP3 DUP3 MSTORE PUSH1 0x20 DUP3 ADD SWAP1 POP SWAP3 SWAP2 POP POP JUMP JUMPDEST PUSH1 0x0 PUSH2 0x540 DUP3 PUSH2 0x55D JUMP JUMPDEST SWAP1 POP SWAP2 SWAP1 POP JUMP JUMPDEST PUSH1 0x0 DUP2 ISZERO ISZERO SWAP1 POP SWAP2 SWAP1 POP JUMP JUMPDEST PUSH1 0x0 DUP2 SWAP1 POP SWAP2 SWAP1 POP JUMP JUMPDEST PUSH1 0x0 PUSH20 0xFFFFFFFFFFFFFFFFFFFFFFFFFFFFFFFFFFFFFFFF DUP3 AND SWAP1 POP SWAP2 SWAP1 POP JUMP JUMPDEST PUSH32 0x596F7520646F6E74206861766520746865207265717569726564207065726D69 PUSH1 0x0 DUP3 ADD MSTORE PUSH32 0x7373696F6E000000000000000000000000000000000000000000000000000000 PUSH1 0x20 DUP3 ADD MSTORE POP JUMP JUMPDEST PUSH32 0x41444D494E000000000000000000000000000000000000000000000000000000 PUSH1 0x0 DUP3 ADD MSTORE POP JUMP JUMPDEST PUSH2 0x5FE DUP2 PUSH2 0x535 JUMP JUMPDEST DUP2 EQ PUSH2 0x609 JUMPI PUSH1 0x0 DUP1 REVERT JUMPDEST POP JUMP JUMPDEST PUSH2 0x615 DUP2 PUSH2 0x553 JUMP JUMPDEST DUP2 EQ PUSH2 0x620 JUMPI PUSH1 0x0 DUP1 REVERT JUMPDEST POP JUMP INVALID LOG2 PUSH5 0x6970667358 0x22 SLT KECCAK256 PUSH25 0x34228FEA80BD103738B8459ACF0BE0FEDC2F50631B33BE57B1 CALLVALUE 0x29 SWAP10 DUP8 0xC9 0xCB PUSH5 0x736F6C6343 STOP ADDMOD DIV STOP CALLER "
				},
				"gasEstimates": {
					"creation": {
						"codeDepositCost": "325000",
						"executionCost": "infinite",
						"totalCost": "infinite"
					},
					"external": {
						"grantRole(bytes32,address)": "infinite",
						"revokeRole(bytes32,address)": "infinite",
						"roles(bytes32,address)": "1809"
					},
					"internal": {
						"_grantRole(bytes32,address)": "infinite",
						"_revokeRole(bytes32,address)": "infinite"
					}
				},
				"methodIdentifiers": {
					"grantRole(bytes32,address)": "2f2ff15d",
					"revokeRole(bytes32,address)": "d547741f",
					"roles(bytes32,address)": "f8fc08b9"
				}
			},
			"storageLayout": {
				"storage": [
					{
						"astId": 23,
						"contract": "contracts/base/AccessControl.sol:AccessControl",
						"label": "roles",
						"offset": 0,
						"slot": "0",
						"type": "t_mapping(t_bytes32,t_mapping(t_address,t_bool))"
					}
				],
				"types": {
					"t_address": {
						"encoding": "inplace",
						"label": "address",
						"numberOfBytes": "20"
					},
					"t_bool": {
						"encoding": "inplace",
						"label": "bool",
						"numberOfBytes": "1"
					},
					"t_bytes32": {
						"encoding": "inplace",
						"label": "bytes32",
						"numberOfBytes": "32"
					},
					"t_mapping(t_address,t_bool)": {
						"encoding": "mapping",
						"key": "t_address",
						"label": "mapping(address => bool)",
						"numberOfBytes": "32",
						"value": "t_bool"
					},
					"t_mapping(t_bytes32,t_mapping(t_address,t_bool))": {
						"encoding": "mapping",
						"key": "t_bytes32",
						"label": "mapping(bytes32 => mapping(address => bool))",
						"numberOfBytes": "32",
						"value": "t_mapping(t_address,t_bool)"
					}
				}
			},
			"userdoc": {
				"kind": "user",
				"methods": {},
				"version": 1
			}
		}
	}
}