{
	"contracts/Vault/Vault.sol": {
		"Vault": {
			"abi": [
				{
					"inputs": [
						{
							"internalType": "address",
							"name": "_token",
							"type": "address"
						}
					],
					"stateMutability": "nonpayable",
					"type": "constructor"
				},
				{
					"inputs": [
						{
							"internalType": "address",
							"name": "",
							"type": "address"
						}
					],
					"name": "balances",
					"outputs": [
						{
							"internalType": "uint256",
							"name": "",
							"type": "uint256"
						}
					],
					"stateMutability": "view",
					"type": "function"
				},
				{
					"inputs": [
						{
							"internalType": "uint256",
							"name": "amount",
							"type": "uint256"
						}
					],
					"name": "deposit",
					"outputs": [],
					"stateMutability": "nonpayable",
					"type": "function"
				},
				{
					"inputs": [],
					"name": "token",
					"outputs": [
						{
							"internalType": "contract IERC20",
							"name": "",
							"type": "address"
						}
					],
					"stateMutability": "view",
					"type": "function"
				},
				{
					"inputs": [],
					"name": "totalBalance",
					"outputs": [
						{
							"internalType": "uint256",
							"name": "",
							"type": "uint256"
						}
					],
					"stateMutability": "view",
					"type": "function"
				},
				{
					"inputs": [
						{
							"internalType": "uint256",
							"name": "_shares",
							"type": "uint256"
						}
					],
					"name": "withdraw",
					"outputs": [],
					"stateMutability": "nonpayable",
					"type": "function"
				}
			],
			"devdoc": {
				"kind": "dev",
				"methods": {},
				"version": 1
			},
			"evm": {
				"assembly": "    /* \"contracts/Vault/Vault.sol\":119:2313  contract Vault{\r... */\n  mstore(0x40, 0x80)\n    /* \"contracts/Vault/Vault.sol\":317:386  constructor(address _token) {\r... */\n  callvalue\n  dup1\n  iszero\n  tag_1\n  jumpi\n  0x00\n  dup1\n  revert\ntag_1:\n  pop\n  mload(0x40)\n  sub(codesize, bytecodeSize)\n  dup1\n  bytecodeSize\n  dup4\n  codecopy\n  dup2\n  dup2\n  add\n  0x40\n  mstore\n  dup2\n  add\n  swap1\n  tag_2\n  swap2\n  swap1\n  tag_3\n  jump\t// in\ntag_2:\n    /* \"contracts/Vault/Vault.sol\":371:377  _token */\n  dup1\n    /* \"contracts/Vault/Vault.sol\":356:361  token */\n  0x02\n  0x00\n    /* \"contracts/Vault/Vault.sol\":356:378  token = IERC20(_token) */\n  0x0100\n  exp\n  dup2\n  sload\n  dup2\n  0xffffffffffffffffffffffffffffffffffffffff\n  mul\n  not\n  and\n  swap1\n  dup4\n  0xffffffffffffffffffffffffffffffffffffffff\n  and\n  mul\n  or\n  swap1\n  sstore\n  pop\n    /* \"contracts/Vault/Vault.sol\":317:386  constructor(address _token) {\r... */\n  pop\n    /* \"contracts/Vault/Vault.sol\":119:2313  contract Vault{\r... */\n  jump(tag_6)\n    /* \"#utility.yul\":7:150   */\ntag_8:\n    /* \"#utility.yul\":64:69   */\n  0x00\n    /* \"#utility.yul\":95:101   */\n  dup2\n    /* \"#utility.yul\":89:102   */\n  mload\n    /* \"#utility.yul\":80:102   */\n  swap1\n  pop\n    /* \"#utility.yul\":111:144   */\n  tag_10\n    /* \"#utility.yul\":138:143   */\n  dup2\n    /* \"#utility.yul\":111:144   */\n  tag_11\n  jump\t// in\ntag_10:\n    /* \"#utility.yul\":70:150   */\n  swap3\n  swap2\n  pop\n  pop\n  jump\t// out\n    /* \"#utility.yul\":156:440   */\ntag_3:\n    /* \"#utility.yul\":226:232   */\n  0x00\n    /* \"#utility.yul\":275:277   */\n  0x20\n    /* \"#utility.yul\":263:272   */\n  dup3\n    /* \"#utility.yul\":254:261   */\n  dup5\n    /* \"#utility.yul\":250:273   */\n  sub\n    /* \"#utility.yul\":246:278   */\n  slt\n    /* \"#utility.yul\":243:245   */\n  iszero\n  tag_13\n  jumpi\n    /* \"#utility.yul\":291:292   */\n  0x00\n    /* \"#utility.yul\":288:289   */\n  dup1\n    /* \"#utility.yul\":281:293   */\n  revert\n    /* \"#utility.yul\":243:245   */\ntag_13:\n    /* \"#utility.yul\":334:335   */\n  0x00\n    /* \"#utility.yul\":359:423   */\n  tag_14\n    /* \"#utility.yul\":415:422   */\n  dup5\n    /* \"#utility.yul\":406:412   */\n  dup3\n    /* \"#utility.yul\":395:404   */\n  dup6\n    /* \"#utility.yul\":391:413   */\n  add\n    /* \"#utility.yul\":359:423   */\n  tag_8\n  jump\t// in\ntag_14:\n    /* \"#utility.yul\":349:423   */\n  swap2\n  pop\n    /* \"#utility.yul\":305:433   */\n  pop\n    /* \"#utility.yul\":233:440   */\n  swap3\n  swap2\n  pop\n  pop\n  jump\t// out\n    /* \"#utility.yul\":446:542   */\ntag_15:\n    /* \"#utility.yul\":483:490   */\n  0x00\n    /* \"#utility.yul\":512:536   */\n  tag_17\n    /* \"#utility.yul\":530:535   */\n  dup3\n    /* \"#utility.yul\":512:536   */\n  tag_18\n  jump\t// in\ntag_17:\n    /* \"#utility.yul\":501:536   */\n  swap1\n  pop\n    /* \"#utility.yul\":491:542   */\n  swap2\n  swap1\n  pop\n  jump\t// out\n    /* \"#utility.yul\":548:674   */\ntag_18:\n    /* \"#utility.yul\":585:592   */\n  0x00\n    /* \"#utility.yul\":625:667   */\n  0xffffffffffffffffffffffffffffffffffffffff\n    /* \"#utility.yul\":618:623   */\n  dup3\n    /* \"#utility.yul\":614:668   */\n  and\n    /* \"#utility.yul\":603:668   */\n  swap1\n  pop\n    /* \"#utility.yul\":593:674   */\n  swap2\n  swap1\n  pop\n  jump\t// out\n    /* \"#utility.yul\":680:802   */\ntag_11:\n    /* \"#utility.yul\":753:777   */\n  tag_21\n    /* \"#utility.yul\":771:776   */\n  dup2\n    /* \"#utility.yul\":753:777   */\n  tag_15\n  jump\t// in\ntag_21:\n    /* \"#utility.yul\":746:751   */\n  dup2\n    /* \"#utility.yul\":743:778   */\n  eq\n    /* \"#utility.yul\":733:735   */\n  tag_22\n  jumpi\n    /* \"#utility.yul\":792:793   */\n  0x00\n    /* \"#utility.yul\":789:790   */\n  dup1\n    /* \"#utility.yul\":782:794   */\n  revert\n    /* \"#utility.yul\":733:735   */\ntag_22:\n    /* \"#utility.yul\":723:802   */\n  pop\n  jump\t// out\n    /* \"contracts/Vault/Vault.sol\":119:2313  contract Vault{\r... */\ntag_6:\n  dataSize(sub_0)\n  dup1\n  dataOffset(sub_0)\n  0x00\n  codecopy\n  0x00\n  return\nstop\n\nsub_0: assembly {\n        /* \"contracts/Vault/Vault.sol\":119:2313  contract Vault{\r... */\n      mstore(0x40, 0x80)\n      callvalue\n      dup1\n      iszero\n      tag_1\n      jumpi\n      0x00\n      dup1\n      revert\n    tag_1:\n      pop\n      jumpi(tag_2, lt(calldatasize, 0x04))\n      shr(0xe0, calldataload(0x00))\n      dup1\n      0x27e235e3\n      eq\n      tag_3\n      jumpi\n      dup1\n      0x2e1a7d4d\n      eq\n      tag_4\n      jumpi\n      dup1\n      0xad7a672f\n      eq\n      tag_5\n      jumpi\n      dup1\n      0xb6b55f25\n      eq\n      tag_6\n      jumpi\n      dup1\n      0xfc0c546a\n      eq\n      tag_7\n      jumpi\n    tag_2:\n      0x00\n      dup1\n      revert\n        /* \"contracts/Vault/Vault.sol\":169:212  mapping(address => uint256) public balances */\n    tag_3:\n      tag_8\n      0x04\n      dup1\n      calldatasize\n      sub\n      dup2\n      add\n      swap1\n      tag_9\n      swap2\n      swap1\n      tag_10\n      jump\t// in\n    tag_9:\n      tag_11\n      jump\t// in\n    tag_8:\n      mload(0x40)\n      tag_12\n      swap2\n      swap1\n      tag_13\n      jump\t// in\n    tag_12:\n      mload(0x40)\n      dup1\n      swap2\n      sub\n      swap1\n      return\n        /* \"contracts/Vault/Vault.sol\":2073:2291  function withdraw(uint256 _shares) external {\r... */\n    tag_4:\n      tag_14\n      0x04\n      dup1\n      calldatasize\n      sub\n      dup2\n      add\n      swap1\n      tag_15\n      swap2\n      swap1\n      tag_16\n      jump\t// in\n    tag_15:\n      tag_17\n      jump\t// in\n    tag_14:\n      stop\n        /* \"contracts/Vault/Vault.sol\":247:274  uint256 public totalBalance */\n    tag_5:\n      tag_18\n      tag_19\n      jump\t// in\n    tag_18:\n      mload(0x40)\n      tag_20\n      swap2\n      swap1\n      tag_13\n      jump\t// in\n    tag_20:\n      mload(0x40)\n      dup1\n      swap2\n      sub\n      swap1\n      return\n        /* \"contracts/Vault/Vault.sol\":931:1838  function deposit(uint256 amount) external{\r... */\n    tag_6:\n      tag_21\n      0x04\n      dup1\n      calldatasize\n      sub\n      dup2\n      add\n      swap1\n      tag_22\n      swap2\n      swap1\n      tag_16\n      jump\t// in\n    tag_22:\n      tag_23\n      jump\t// in\n    tag_21:\n      stop\n        /* \"contracts/Vault/Vault.sol\":289:308  IERC20 public token */\n    tag_7:\n      tag_24\n      tag_25\n      jump\t// in\n    tag_24:\n      mload(0x40)\n      tag_26\n      swap2\n      swap1\n      tag_27\n      jump\t// in\n    tag_26:\n      mload(0x40)\n      dup1\n      swap2\n      sub\n      swap1\n      return\n        /* \"contracts/Vault/Vault.sol\":169:212  mapping(address => uint256) public balances */\n    tag_11:\n      mstore(0x20, 0x00)\n      dup1\n      0x00\n      mstore\n      keccak256(0x00, 0x40)\n      0x00\n      swap2\n      pop\n      swap1\n      pop\n      sload\n      dup2\n      jump\t// out\n        /* \"contracts/Vault/Vault.sol\":2073:2291  function withdraw(uint256 _shares) external {\r... */\n    tag_17:\n        /* \"contracts/Vault/Vault.sol\":2128:2142  uint256 amount */\n      0x00\n        /* \"contracts/Vault/Vault.sol\":2188:2200  totalBalance */\n      sload(0x01)\n        /* \"contracts/Vault/Vault.sol\":2155:2160  token */\n      0x02\n      0x00\n      swap1\n      sload\n      swap1\n      0x0100\n      exp\n      swap1\n      div\n      0xffffffffffffffffffffffffffffffffffffffff\n      and\n        /* \"contracts/Vault/Vault.sol\":2155:2170  token.balanceOf */\n      0xffffffffffffffffffffffffffffffffffffffff\n      and\n      0x70a08231\n        /* \"contracts/Vault/Vault.sol\":2179:2183  this */\n      address\n        /* \"contracts/Vault/Vault.sol\":2155:2185  token.balanceOf(address(this)) */\n      mload(0x40)\n      dup3\n      0xffffffff\n      and\n      0xe0\n      shl\n      dup2\n      mstore\n      0x04\n      add\n      tag_29\n      swap2\n      swap1\n      tag_30\n      jump\t// in\n    tag_29:\n      0x20\n      mload(0x40)\n      dup1\n      dup4\n      sub\n      dup2\n      dup7\n      dup1\n      extcodesize\n      iszero\n      dup1\n      iszero\n      tag_31\n      jumpi\n      0x00\n      dup1\n      revert\n    tag_31:\n      pop\n      gas\n      staticcall\n      iszero\n      dup1\n      iszero\n      tag_33\n      jumpi\n      returndatasize\n      0x00\n      dup1\n      returndatacopy\n      revert(0x00, returndatasize)\n    tag_33:\n      pop\n      pop\n      pop\n      pop\n      mload(0x40)\n      returndatasize\n      not(0x1f)\n      0x1f\n      dup3\n      add\n      and\n      dup3\n      add\n      dup1\n      0x40\n      mstore\n      pop\n      dup2\n      add\n      swap1\n      tag_34\n      swap2\n      swap1\n      tag_35\n      jump\t// in\n    tag_34:\n        /* \"contracts/Vault/Vault.sol\":2145:2152  _shares */\n      dup4\n        /* \"contracts/Vault/Vault.sol\":2145:2185  _shares * token.balanceOf(address(this)) */\n      tag_36\n      swap2\n      swap1\n      tag_37\n      jump\t// in\n    tag_36:\n        /* \"contracts/Vault/Vault.sol\":2145:2200  _shares * token.balanceOf(address(this)) / totalBalance */\n      tag_38\n      swap2\n      swap1\n      tag_39\n      jump\t// in\n    tag_38:\n        /* \"contracts/Vault/Vault.sol\":2128:2200  uint256 amount = _shares * token.balanceOf(address(this)) / totalBalance */\n      swap1\n      pop\n        /* \"contracts/Vault/Vault.sol\":2211:2237  _burn(msg.sender, _shares) */\n      tag_40\n        /* \"contracts/Vault/Vault.sol\":2217:2227  msg.sender */\n      caller\n        /* \"contracts/Vault/Vault.sol\":2229:2236  _shares */\n      dup4\n        /* \"contracts/Vault/Vault.sol\":2211:2216  _burn */\n      tag_41\n        /* \"contracts/Vault/Vault.sol\":2211:2237  _burn(msg.sender, _shares) */\n      jump\t// in\n    tag_40:\n        /* \"contracts/Vault/Vault.sol\":2248:2253  token */\n      0x02\n      0x00\n      swap1\n      sload\n      swap1\n      0x0100\n      exp\n      swap1\n      div\n      0xffffffffffffffffffffffffffffffffffffffff\n      and\n        /* \"contracts/Vault/Vault.sol\":2248:2262  token.transfer */\n      0xffffffffffffffffffffffffffffffffffffffff\n      and\n      0xa9059cbb\n        /* \"contracts/Vault/Vault.sol\":2263:2273  msg.sender */\n      caller\n        /* \"contracts/Vault/Vault.sol\":2275:2281  amount */\n      dup4\n        /* \"contracts/Vault/Vault.sol\":2248:2282  token.transfer(msg.sender, amount) */\n      mload(0x40)\n      dup4\n      0xffffffff\n      and\n      0xe0\n      shl\n      dup2\n      mstore\n      0x04\n      add\n      tag_42\n      swap3\n      swap2\n      swap1\n      tag_43\n      jump\t// in\n    tag_42:\n      0x20\n      mload(0x40)\n      dup1\n      dup4\n      sub\n      dup2\n      0x00\n      dup8\n      dup1\n      extcodesize\n      iszero\n      dup1\n      iszero\n      tag_44\n      jumpi\n      0x00\n      dup1\n      revert\n    tag_44:\n      pop\n      gas\n      call\n      iszero\n      dup1\n      iszero\n      tag_46\n      jumpi\n      returndatasize\n      0x00\n      dup1\n      returndatacopy\n      revert(0x00, returndatasize)\n    tag_46:\n      pop\n      pop\n      pop\n      pop\n      mload(0x40)\n      returndatasize\n      not(0x1f)\n      0x1f\n      dup3\n      add\n      and\n      dup3\n      add\n      dup1\n      0x40\n      mstore\n      pop\n      dup2\n      add\n      swap1\n      tag_47\n      swap2\n      swap1\n      tag_48\n      jump\t// in\n    tag_47:\n      pop\n        /* \"contracts/Vault/Vault.sol\":2073:2291  function withdraw(uint256 _shares) external {\r... */\n      pop\n      pop\n      jump\t// out\n        /* \"contracts/Vault/Vault.sol\":247:274  uint256 public totalBalance */\n    tag_19:\n      sload(0x01)\n      dup2\n      jump\t// out\n        /* \"contracts/Vault/Vault.sol\":931:1838  function deposit(uint256 amount) external{\r... */\n    tag_23:\n        /* \"contracts/Vault/Vault.sol\":1000:1001  0 */\n      0x00\n        /* \"contracts/Vault/Vault.sol\":991:997  amount */\n      dup2\n        /* \"contracts/Vault/Vault.sol\":991:1001  amount > 0 */\n      gt\n        /* \"contracts/Vault/Vault.sol\":983:1035  require(amount > 0, \"amount must be greater than 0\") */\n      tag_50\n      jumpi\n      mload(0x40)\n      0x08c379a000000000000000000000000000000000000000000000000000000000\n      dup2\n      mstore\n      0x04\n      add\n      tag_51\n      swap1\n      tag_52\n      jump\t// in\n    tag_51:\n      mload(0x40)\n      dup1\n      swap2\n      sub\n      swap1\n      revert\n    tag_50:\n        /* \"contracts/Vault/Vault.sol\":1046:1060  uint256 shares */\n      0x00\n        /* \"contracts/Vault/Vault.sol\":1575:1576  0 */\n      dup1\n        /* \"contracts/Vault/Vault.sol\":1559:1571  totalBalance */\n      sload(0x01)\n        /* \"contracts/Vault/Vault.sol\":1559:1576  totalBalance == 0 */\n      eq\n        /* \"contracts/Vault/Vault.sol\":1556:1728  if(totalBalance == 0){\r... */\n      iszero\n      tag_53\n      jumpi\n        /* \"contracts/Vault/Vault.sol\":1601:1607  amount */\n      dup2\n        /* \"contracts/Vault/Vault.sol\":1592:1607  shares = amount */\n      swap1\n      pop\n        /* \"contracts/Vault/Vault.sol\":1556:1728  if(totalBalance == 0){\r... */\n      jump(tag_54)\n    tag_53:\n        /* \"contracts/Vault/Vault.sol\":1673:1678  token */\n      0x02\n      0x00\n      swap1\n      sload\n      swap1\n      0x0100\n      exp\n      swap1\n      div\n      0xffffffffffffffffffffffffffffffffffffffff\n      and\n        /* \"contracts/Vault/Vault.sol\":1673:1688  token.balanceOf */\n      0xffffffffffffffffffffffffffffffffffffffff\n      and\n      0x70a08231\n        /* \"contracts/Vault/Vault.sol\":1697:1701  this */\n      address\n        /* \"contracts/Vault/Vault.sol\":1673:1703  token.balanceOf(address(this)) */\n      mload(0x40)\n      dup3\n      0xffffffff\n      and\n      0xe0\n      shl\n      dup2\n      mstore\n      0x04\n      add\n      tag_55\n      swap2\n      swap1\n      tag_30\n      jump\t// in\n    tag_55:\n      0x20\n      mload(0x40)\n      dup1\n      dup4\n      sub\n      dup2\n      dup7\n      dup1\n      extcodesize\n      iszero\n      dup1\n      iszero\n      tag_56\n      jumpi\n      0x00\n      dup1\n      revert\n    tag_56:\n      pop\n      gas\n      staticcall\n      iszero\n      dup1\n      iszero\n      tag_58\n      jumpi\n      returndatasize\n      0x00\n      dup1\n      returndatacopy\n      revert(0x00, returndatasize)\n    tag_58:\n      pop\n      pop\n      pop\n      pop\n      mload(0x40)\n      returndatasize\n      not(0x1f)\n      0x1f\n      dup3\n      add\n      and\n      dup3\n      add\n      dup1\n      0x40\n      mstore\n      pop\n      dup2\n      add\n      swap1\n      tag_59\n      swap2\n      swap1\n      tag_35\n      jump\t// in\n    tag_59:\n        /* \"contracts/Vault/Vault.sol\":1658:1670  totalBalance */\n      sload(0x01)\n        /* \"contracts/Vault/Vault.sol\":1649:1655  amount */\n      dup4\n        /* \"contracts/Vault/Vault.sol\":1649:1670  amount * totalBalance */\n      tag_60\n      swap2\n      swap1\n      tag_37\n      jump\t// in\n    tag_60:\n        /* \"contracts/Vault/Vault.sol\":1649:1703  amount * totalBalance / token.balanceOf(address(this)) */\n      tag_61\n      swap2\n      swap1\n      tag_39\n      jump\t// in\n    tag_61:\n        /* \"contracts/Vault/Vault.sol\":1640:1703  shares = amount * totalBalance / token.balanceOf(address(this)) */\n      swap1\n      pop\n        /* \"contracts/Vault/Vault.sol\":1556:1728  if(totalBalance == 0){\r... */\n    tag_54:\n        /* \"contracts/Vault/Vault.sol\":1741:1766  _mint(msg.sender, shares) */\n      tag_62\n        /* \"contracts/Vault/Vault.sol\":1747:1757  msg.sender */\n      caller\n        /* \"contracts/Vault/Vault.sol\":1759:1765  shares */\n      dup3\n        /* \"contracts/Vault/Vault.sol\":1741:1746  _mint */\n      tag_63\n        /* \"contracts/Vault/Vault.sol\":1741:1766  _mint(msg.sender, shares) */\n      jump\t// in\n    tag_62:\n        /* \"contracts/Vault/Vault.sol\":1777:1782  token */\n      0x02\n      0x00\n      swap1\n      sload\n      swap1\n      0x0100\n      exp\n      swap1\n      div\n      0xffffffffffffffffffffffffffffffffffffffff\n      and\n        /* \"contracts/Vault/Vault.sol\":1777:1795  token.transferFrom */\n      0xffffffffffffffffffffffffffffffffffffffff\n      and\n      0x23b872dd\n        /* \"contracts/Vault/Vault.sol\":1796:1806  msg.sender */\n      caller\n        /* \"contracts/Vault/Vault.sol\":1816:1820  this */\n      address\n        /* \"contracts/Vault/Vault.sol\":1823:1829  amount */\n      dup6\n        /* \"contracts/Vault/Vault.sol\":1777:1830  token.transferFrom(msg.sender, address(this), amount) */\n      mload(0x40)\n      dup5\n      0xffffffff\n      and\n      0xe0\n      shl\n      dup2\n      mstore\n      0x04\n      add\n      tag_64\n      swap4\n      swap3\n      swap2\n      swap1\n      tag_65\n      jump\t// in\n    tag_64:\n      0x20\n      mload(0x40)\n      dup1\n      dup4\n      sub\n      dup2\n      0x00\n      dup8\n      dup1\n      extcodesize\n      iszero\n      dup1\n      iszero\n      tag_66\n      jumpi\n      0x00\n      dup1\n      revert\n    tag_66:\n      pop\n      gas\n      call\n      iszero\n      dup1\n      iszero\n      tag_68\n      jumpi\n      returndatasize\n      0x00\n      dup1\n      returndatacopy\n      revert(0x00, returndatasize)\n    tag_68:\n      pop\n      pop\n      pop\n      pop\n      mload(0x40)\n      returndatasize\n      not(0x1f)\n      0x1f\n      dup3\n      add\n      and\n      dup3\n      add\n      dup1\n      0x40\n      mstore\n      pop\n      dup2\n      add\n      swap1\n      tag_69\n      swap2\n      swap1\n      tag_48\n      jump\t// in\n    tag_69:\n      pop\n        /* \"contracts/Vault/Vault.sol\":931:1838  function deposit(uint256 amount) external{\r... */\n      pop\n      pop\n      jump\t// out\n        /* \"contracts/Vault/Vault.sol\":289:308  IERC20 public token */\n    tag_25:\n      0x02\n      0x00\n      swap1\n      sload\n      swap1\n      0x0100\n      exp\n      swap1\n      div\n      0xffffffffffffffffffffffffffffffffffffffff\n      and\n      dup2\n      jump\t// out\n        /* \"contracts/Vault/Vault.sol\":570:704  function _burn(address _from,uint256 _shares) private{\r... */\n    tag_41:\n        /* \"contracts/Vault/Vault.sol\":654:661  _shares */\n      dup1\n        /* \"contracts/Vault/Vault.sol\":635:643  balances */\n      0x00\n        /* \"contracts/Vault/Vault.sol\":635:650  balances[_from] */\n      dup1\n        /* \"contracts/Vault/Vault.sol\":644:649  _from */\n      dup5\n        /* \"contracts/Vault/Vault.sol\":635:650  balances[_from] */\n      0xffffffffffffffffffffffffffffffffffffffff\n      and\n      0xffffffffffffffffffffffffffffffffffffffff\n      and\n      dup2\n      mstore\n      0x20\n      add\n      swap1\n      dup2\n      mstore\n      0x20\n      add\n      0x00\n      keccak256\n      0x00\n        /* \"contracts/Vault/Vault.sol\":635:661  balances[_from] -= _shares */\n      dup3\n      dup3\n      sload\n      tag_71\n      swap2\n      swap1\n      tag_72\n      jump\t// in\n    tag_71:\n      swap3\n      pop\n      pop\n      dup2\n      swap1\n      sstore\n      pop\n        /* \"contracts/Vault/Vault.sol\":689:696  _shares */\n      dup1\n        /* \"contracts/Vault/Vault.sol\":673:685  totalBalance */\n      0x01\n      0x00\n        /* \"contracts/Vault/Vault.sol\":673:696  totalBalance -= _shares */\n      dup3\n      dup3\n      sload\n      tag_73\n      swap2\n      swap1\n      tag_72\n      jump\t// in\n    tag_73:\n      swap3\n      pop\n      pop\n      dup2\n      swap1\n      sstore\n      pop\n        /* \"contracts/Vault/Vault.sol\":570:704  function _burn(address _from,uint256 _shares) private{\r... */\n      pop\n      pop\n      jump\t// out\n        /* \"contracts/Vault/Vault.sol\":414:542  function _mint(address _to,uint256 _shares) private{\r... */\n    tag_63:\n        /* \"contracts/Vault/Vault.sol\":493:500  _shares */\n      dup1\n        /* \"contracts/Vault/Vault.sol\":476:484  balances */\n      0x00\n        /* \"contracts/Vault/Vault.sol\":476:489  balances[_to] */\n      dup1\n        /* \"contracts/Vault/Vault.sol\":485:488  _to */\n      dup5\n        /* \"contracts/Vault/Vault.sol\":476:489  balances[_to] */\n      0xffffffffffffffffffffffffffffffffffffffff\n      and\n      0xffffffffffffffffffffffffffffffffffffffff\n      and\n      dup2\n      mstore\n      0x20\n      add\n      swap1\n      dup2\n      mstore\n      0x20\n      add\n      0x00\n      keccak256\n      0x00\n        /* \"contracts/Vault/Vault.sol\":476:500  balances[_to] += _shares */\n      dup3\n      dup3\n      sload\n      tag_75\n      swap2\n      swap1\n      tag_76\n      jump\t// in\n    tag_75:\n      swap3\n      pop\n      pop\n      dup2\n      swap1\n      sstore\n      pop\n        /* \"contracts/Vault/Vault.sol\":527:534  _shares */\n      dup1\n        /* \"contracts/Vault/Vault.sol\":511:523  totalBalance */\n      0x01\n      0x00\n        /* \"contracts/Vault/Vault.sol\":511:534  totalBalance += _shares */\n      dup3\n      dup3\n      sload\n      tag_77\n      swap2\n      swap1\n      tag_76\n      jump\t// in\n    tag_77:\n      swap3\n      pop\n      pop\n      dup2\n      swap1\n      sstore\n      pop\n        /* \"contracts/Vault/Vault.sol\":414:542  function _mint(address _to,uint256 _shares) private{\r... */\n      pop\n      pop\n      jump\t// out\n        /* \"#utility.yul\":7:146   */\n    tag_79:\n        /* \"#utility.yul\":53:58   */\n      0x00\n        /* \"#utility.yul\":91:97   */\n      dup2\n        /* \"#utility.yul\":78:98   */\n      calldataload\n        /* \"#utility.yul\":69:98   */\n      swap1\n      pop\n        /* \"#utility.yul\":107:140   */\n      tag_81\n        /* \"#utility.yul\":134:139   */\n      dup2\n        /* \"#utility.yul\":107:140   */\n      tag_82\n      jump\t// in\n    tag_81:\n        /* \"#utility.yul\":59:146   */\n      swap3\n      swap2\n      pop\n      pop\n      jump\t// out\n        /* \"#utility.yul\":152:289   */\n    tag_83:\n        /* \"#utility.yul\":206:211   */\n      0x00\n        /* \"#utility.yul\":237:243   */\n      dup2\n        /* \"#utility.yul\":231:244   */\n      mload\n        /* \"#utility.yul\":222:244   */\n      swap1\n      pop\n        /* \"#utility.yul\":253:283   */\n      tag_85\n        /* \"#utility.yul\":277:282   */\n      dup2\n        /* \"#utility.yul\":253:283   */\n      tag_86\n      jump\t// in\n    tag_85:\n        /* \"#utility.yul\":212:289   */\n      swap3\n      swap2\n      pop\n      pop\n      jump\t// out\n        /* \"#utility.yul\":295:434   */\n    tag_87:\n        /* \"#utility.yul\":341:346   */\n      0x00\n        /* \"#utility.yul\":379:385   */\n      dup2\n        /* \"#utility.yul\":366:386   */\n      calldataload\n        /* \"#utility.yul\":357:386   */\n      swap1\n      pop\n        /* \"#utility.yul\":395:428   */\n      tag_89\n        /* \"#utility.yul\":422:427   */\n      dup2\n        /* \"#utility.yul\":395:428   */\n      tag_90\n      jump\t// in\n    tag_89:\n        /* \"#utility.yul\":347:434   */\n      swap3\n      swap2\n      pop\n      pop\n      jump\t// out\n        /* \"#utility.yul\":440:583   */\n    tag_91:\n        /* \"#utility.yul\":497:502   */\n      0x00\n        /* \"#utility.yul\":528:534   */\n      dup2\n        /* \"#utility.yul\":522:535   */\n      mload\n        /* \"#utility.yul\":513:535   */\n      swap1\n      pop\n        /* \"#utility.yul\":544:577   */\n      tag_93\n        /* \"#utility.yul\":571:576   */\n      dup2\n        /* \"#utility.yul\":544:577   */\n      tag_90\n      jump\t// in\n    tag_93:\n        /* \"#utility.yul\":503:583   */\n      swap3\n      swap2\n      pop\n      pop\n      jump\t// out\n        /* \"#utility.yul\":589:851   */\n    tag_10:\n        /* \"#utility.yul\":648:654   */\n      0x00\n        /* \"#utility.yul\":697:699   */\n      0x20\n        /* \"#utility.yul\":685:694   */\n      dup3\n        /* \"#utility.yul\":676:683   */\n      dup5\n        /* \"#utility.yul\":672:695   */\n      sub\n        /* \"#utility.yul\":668:700   */\n      slt\n        /* \"#utility.yul\":665:667   */\n      iszero\n      tag_95\n      jumpi\n        /* \"#utility.yul\":713:714   */\n      0x00\n        /* \"#utility.yul\":710:711   */\n      dup1\n        /* \"#utility.yul\":703:715   */\n      revert\n        /* \"#utility.yul\":665:667   */\n    tag_95:\n        /* \"#utility.yul\":756:757   */\n      0x00\n        /* \"#utility.yul\":781:834   */\n      tag_96\n        /* \"#utility.yul\":826:833   */\n      dup5\n        /* \"#utility.yul\":817:823   */\n      dup3\n        /* \"#utility.yul\":806:815   */\n      dup6\n        /* \"#utility.yul\":802:824   */\n      add\n        /* \"#utility.yul\":781:834   */\n      tag_79\n      jump\t// in\n    tag_96:\n        /* \"#utility.yul\":771:834   */\n      swap2\n      pop\n        /* \"#utility.yul\":727:844   */\n      pop\n        /* \"#utility.yul\":655:851   */\n      swap3\n      swap2\n      pop\n      pop\n      jump\t// out\n        /* \"#utility.yul\":857:1135   */\n    tag_48:\n        /* \"#utility.yul\":924:930   */\n      0x00\n        /* \"#utility.yul\":973:975   */\n      0x20\n        /* \"#utility.yul\":961:970   */\n      dup3\n        /* \"#utility.yul\":952:959   */\n      dup5\n        /* \"#utility.yul\":948:971   */\n      sub\n        /* \"#utility.yul\":944:976   */\n      slt\n        /* \"#utility.yul\":941:943   */\n      iszero\n      tag_98\n      jumpi\n        /* \"#utility.yul\":989:990   */\n      0x00\n        /* \"#utility.yul\":986:987   */\n      dup1\n        /* \"#utility.yul\":979:991   */\n      revert\n        /* \"#utility.yul\":941:943   */\n    tag_98:\n        /* \"#utility.yul\":1032:1033   */\n      0x00\n        /* \"#utility.yul\":1057:1118   */\n      tag_99\n        /* \"#utility.yul\":1110:1117   */\n      dup5\n        /* \"#utility.yul\":1101:1107   */\n      dup3\n        /* \"#utility.yul\":1090:1099   */\n      dup6\n        /* \"#utility.yul\":1086:1108   */\n      add\n        /* \"#utility.yul\":1057:1118   */\n      tag_83\n      jump\t// in\n    tag_99:\n        /* \"#utility.yul\":1047:1118   */\n      swap2\n      pop\n        /* \"#utility.yul\":1003:1128   */\n      pop\n        /* \"#utility.yul\":931:1135   */\n      swap3\n      swap2\n      pop\n      pop\n      jump\t// out\n        /* \"#utility.yul\":1141:1403   */\n    tag_16:\n        /* \"#utility.yul\":1200:1206   */\n      0x00\n        /* \"#utility.yul\":1249:1251   */\n      0x20\n        /* \"#utility.yul\":1237:1246   */\n      dup3\n        /* \"#utility.yul\":1228:1235   */\n      dup5\n        /* \"#utility.yul\":1224:1247   */\n      sub\n        /* \"#utility.yul\":1220:1252   */\n      slt\n        /* \"#utility.yul\":1217:1219   */\n      iszero\n      tag_101\n      jumpi\n        /* \"#utility.yul\":1265:1266   */\n      0x00\n        /* \"#utility.yul\":1262:1263   */\n      dup1\n        /* \"#utility.yul\":1255:1267   */\n      revert\n        /* \"#utility.yul\":1217:1219   */\n    tag_101:\n        /* \"#utility.yul\":1308:1309   */\n      0x00\n        /* \"#utility.yul\":1333:1386   */\n      tag_102\n        /* \"#utility.yul\":1378:1385   */\n      dup5\n        /* \"#utility.yul\":1369:1375   */\n      dup3\n        /* \"#utility.yul\":1358:1367   */\n      dup6\n        /* \"#utility.yul\":1354:1376   */\n      add\n        /* \"#utility.yul\":1333:1386   */\n      tag_87\n      jump\t// in\n    tag_102:\n        /* \"#utility.yul\":1323:1386   */\n      swap2\n      pop\n        /* \"#utility.yul\":1279:1396   */\n      pop\n        /* \"#utility.yul\":1207:1403   */\n      swap3\n      swap2\n      pop\n      pop\n      jump\t// out\n        /* \"#utility.yul\":1409:1693   */\n    tag_35:\n        /* \"#utility.yul\":1479:1485   */\n      0x00\n        /* \"#utility.yul\":1528:1530   */\n      0x20\n        /* \"#utility.yul\":1516:1525   */\n      dup3\n        /* \"#utility.yul\":1507:1514   */\n      dup5\n        /* \"#utility.yul\":1503:1526   */\n      sub\n        /* \"#utility.yul\":1499:1531   */\n      slt\n        /* \"#utility.yul\":1496:1498   */\n      iszero\n      tag_104\n      jumpi\n        /* \"#utility.yul\":1544:1545   */\n      0x00\n        /* \"#utility.yul\":1541:1542   */\n      dup1\n        /* \"#utility.yul\":1534:1546   */\n      revert\n        /* \"#utility.yul\":1496:1498   */\n    tag_104:\n        /* \"#utility.yul\":1587:1588   */\n      0x00\n        /* \"#utility.yul\":1612:1676   */\n      tag_105\n        /* \"#utility.yul\":1668:1675   */\n      dup5\n        /* \"#utility.yul\":1659:1665   */\n      dup3\n        /* \"#utility.yul\":1648:1657   */\n      dup6\n        /* \"#utility.yul\":1644:1666   */\n      add\n        /* \"#utility.yul\":1612:1676   */\n      tag_91\n      jump\t// in\n    tag_105:\n        /* \"#utility.yul\":1602:1676   */\n      swap2\n      pop\n        /* \"#utility.yul\":1558:1686   */\n      pop\n        /* \"#utility.yul\":1486:1693   */\n      swap3\n      swap2\n      pop\n      pop\n      jump\t// out\n        /* \"#utility.yul\":1699:1817   */\n    tag_106:\n        /* \"#utility.yul\":1786:1810   */\n      tag_108\n        /* \"#utility.yul\":1804:1809   */\n      dup2\n        /* \"#utility.yul\":1786:1810   */\n      tag_109\n      jump\t// in\n    tag_108:\n        /* \"#utility.yul\":1781:1784   */\n      dup3\n        /* \"#utility.yul\":1774:1811   */\n      mstore\n        /* \"#utility.yul\":1764:1817   */\n      pop\n      pop\n      jump\t// out\n        /* \"#utility.yul\":1823:1982   */\n    tag_110:\n        /* \"#utility.yul\":1924:1975   */\n      tag_112\n        /* \"#utility.yul\":1969:1974   */\n      dup2\n        /* \"#utility.yul\":1924:1975   */\n      tag_113\n      jump\t// in\n    tag_112:\n        /* \"#utility.yul\":1919:1922   */\n      dup3\n        /* \"#utility.yul\":1912:1976   */\n      mstore\n        /* \"#utility.yul\":1902:1982   */\n      pop\n      pop\n      jump\t// out\n        /* \"#utility.yul\":1988:2354   */\n    tag_114:\n        /* \"#utility.yul\":2130:2133   */\n      0x00\n        /* \"#utility.yul\":2151:2218   */\n      tag_116\n        /* \"#utility.yul\":2215:2217   */\n      0x1d\n        /* \"#utility.yul\":2210:2213   */\n      dup4\n        /* \"#utility.yul\":2151:2218   */\n      tag_117\n      jump\t// in\n    tag_116:\n        /* \"#utility.yul\":2144:2218   */\n      swap2\n      pop\n        /* \"#utility.yul\":2227:2320   */\n      tag_118\n        /* \"#utility.yul\":2316:2319   */\n      dup3\n        /* \"#utility.yul\":2227:2320   */\n      tag_119\n      jump\t// in\n    tag_118:\n        /* \"#utility.yul\":2345:2347   */\n      0x20\n        /* \"#utility.yul\":2340:2343   */\n      dup3\n        /* \"#utility.yul\":2336:2348   */\n      add\n        /* \"#utility.yul\":2329:2348   */\n      swap1\n      pop\n        /* \"#utility.yul\":2134:2354   */\n      swap2\n      swap1\n      pop\n      jump\t// out\n        /* \"#utility.yul\":2360:2478   */\n    tag_120:\n        /* \"#utility.yul\":2447:2471   */\n      tag_122\n        /* \"#utility.yul\":2465:2470   */\n      dup2\n        /* \"#utility.yul\":2447:2471   */\n      tag_123\n      jump\t// in\n    tag_122:\n        /* \"#utility.yul\":2442:2445   */\n      dup3\n        /* \"#utility.yul\":2435:2472   */\n      mstore\n        /* \"#utility.yul\":2425:2478   */\n      pop\n      pop\n      jump\t// out\n        /* \"#utility.yul\":2484:2706   */\n    tag_30:\n        /* \"#utility.yul\":2577:2581   */\n      0x00\n        /* \"#utility.yul\":2615:2617   */\n      0x20\n        /* \"#utility.yul\":2604:2613   */\n      dup3\n        /* \"#utility.yul\":2600:2618   */\n      add\n        /* \"#utility.yul\":2592:2618   */\n      swap1\n      pop\n        /* \"#utility.yul\":2628:2699   */\n      tag_125\n        /* \"#utility.yul\":2696:2697   */\n      0x00\n        /* \"#utility.yul\":2685:2694   */\n      dup4\n        /* \"#utility.yul\":2681:2698   */\n      add\n        /* \"#utility.yul\":2672:2678   */\n      dup5\n        /* \"#utility.yul\":2628:2699   */\n      tag_106\n      jump\t// in\n    tag_125:\n        /* \"#utility.yul\":2582:2706   */\n      swap3\n      swap2\n      pop\n      pop\n      jump\t// out\n        /* \"#utility.yul\":2712:3154   */\n    tag_65:\n        /* \"#utility.yul\":2861:2865   */\n      0x00\n        /* \"#utility.yul\":2899:2901   */\n      0x60\n        /* \"#utility.yul\":2888:2897   */\n      dup3\n        /* \"#utility.yul\":2884:2902   */\n      add\n        /* \"#utility.yul\":2876:2902   */\n      swap1\n      pop\n        /* \"#utility.yul\":2912:2983   */\n      tag_127\n        /* \"#utility.yul\":2980:2981   */\n      0x00\n        /* \"#utility.yul\":2969:2978   */\n      dup4\n        /* \"#utility.yul\":2965:2982   */\n      add\n        /* \"#utility.yul\":2956:2962   */\n      dup7\n        /* \"#utility.yul\":2912:2983   */\n      tag_106\n      jump\t// in\n    tag_127:\n        /* \"#utility.yul\":2993:3065   */\n      tag_128\n        /* \"#utility.yul\":3061:3063   */\n      0x20\n        /* \"#utility.yul\":3050:3059   */\n      dup4\n        /* \"#utility.yul\":3046:3064   */\n      add\n        /* \"#utility.yul\":3037:3043   */\n      dup6\n        /* \"#utility.yul\":2993:3065   */\n      tag_106\n      jump\t// in\n    tag_128:\n        /* \"#utility.yul\":3075:3147   */\n      tag_129\n        /* \"#utility.yul\":3143:3145   */\n      0x40\n        /* \"#utility.yul\":3132:3141   */\n      dup4\n        /* \"#utility.yul\":3128:3146   */\n      add\n        /* \"#utility.yul\":3119:3125   */\n      dup5\n        /* \"#utility.yul\":3075:3147   */\n      tag_120\n      jump\t// in\n    tag_129:\n        /* \"#utility.yul\":2866:3154   */\n      swap5\n      swap4\n      pop\n      pop\n      pop\n      pop\n      jump\t// out\n        /* \"#utility.yul\":3160:3492   */\n    tag_43:\n        /* \"#utility.yul\":3281:3285   */\n      0x00\n        /* \"#utility.yul\":3319:3321   */\n      0x40\n        /* \"#utility.yul\":3308:3317   */\n      dup3\n        /* \"#utility.yul\":3304:3322   */\n      add\n        /* \"#utility.yul\":3296:3322   */\n      swap1\n      pop\n        /* \"#utility.yul\":3332:3403   */\n      tag_131\n        /* \"#utility.yul\":3400:3401   */\n      0x00\n        /* \"#utility.yul\":3389:3398   */\n      dup4\n        /* \"#utility.yul\":3385:3402   */\n      add\n        /* \"#utility.yul\":3376:3382   */\n      dup6\n        /* \"#utility.yul\":3332:3403   */\n      tag_106\n      jump\t// in\n    tag_131:\n        /* \"#utility.yul\":3413:3485   */\n      tag_132\n        /* \"#utility.yul\":3481:3483   */\n      0x20\n        /* \"#utility.yul\":3470:3479   */\n      dup4\n        /* \"#utility.yul\":3466:3484   */\n      add\n        /* \"#utility.yul\":3457:3463   */\n      dup5\n        /* \"#utility.yul\":3413:3485   */\n      tag_120\n      jump\t// in\n    tag_132:\n        /* \"#utility.yul\":3286:3492   */\n      swap4\n      swap3\n      pop\n      pop\n      pop\n      jump\t// out\n        /* \"#utility.yul\":3498:3748   */\n    tag_27:\n        /* \"#utility.yul\":3605:3609   */\n      0x00\n        /* \"#utility.yul\":3643:3645   */\n      0x20\n        /* \"#utility.yul\":3632:3641   */\n      dup3\n        /* \"#utility.yul\":3628:3646   */\n      add\n        /* \"#utility.yul\":3620:3646   */\n      swap1\n      pop\n        /* \"#utility.yul\":3656:3741   */\n      tag_134\n        /* \"#utility.yul\":3738:3739   */\n      0x00\n        /* \"#utility.yul\":3727:3736   */\n      dup4\n        /* \"#utility.yul\":3723:3740   */\n      add\n        /* \"#utility.yul\":3714:3720   */\n      dup5\n        /* \"#utility.yul\":3656:3741   */\n      tag_110\n      jump\t// in\n    tag_134:\n        /* \"#utility.yul\":3610:3748   */\n      swap3\n      swap2\n      pop\n      pop\n      jump\t// out\n        /* \"#utility.yul\":3754:4173   */\n    tag_52:\n        /* \"#utility.yul\":3920:3924   */\n      0x00\n        /* \"#utility.yul\":3958:3960   */\n      0x20\n        /* \"#utility.yul\":3947:3956   */\n      dup3\n        /* \"#utility.yul\":3943:3961   */\n      add\n        /* \"#utility.yul\":3935:3961   */\n      swap1\n      pop\n        /* \"#utility.yul\":4007:4016   */\n      dup2\n        /* \"#utility.yul\":4001:4005   */\n      dup2\n        /* \"#utility.yul\":3997:4017   */\n      sub\n        /* \"#utility.yul\":3993:3994   */\n      0x00\n        /* \"#utility.yul\":3982:3991   */\n      dup4\n        /* \"#utility.yul\":3978:3995   */\n      add\n        /* \"#utility.yul\":3971:4018   */\n      mstore\n        /* \"#utility.yul\":4035:4166   */\n      tag_136\n        /* \"#utility.yul\":4161:4165   */\n      dup2\n        /* \"#utility.yul\":4035:4166   */\n      tag_114\n      jump\t// in\n    tag_136:\n        /* \"#utility.yul\":4027:4166   */\n      swap1\n      pop\n        /* \"#utility.yul\":3925:4173   */\n      swap2\n      swap1\n      pop\n      jump\t// out\n        /* \"#utility.yul\":4179:4401   */\n    tag_13:\n        /* \"#utility.yul\":4272:4276   */\n      0x00\n        /* \"#utility.yul\":4310:4312   */\n      0x20\n        /* \"#utility.yul\":4299:4308   */\n      dup3\n        /* \"#utility.yul\":4295:4313   */\n      add\n        /* \"#utility.yul\":4287:4313   */\n      swap1\n      pop\n        /* \"#utility.yul\":4323:4394   */\n      tag_138\n        /* \"#utility.yul\":4391:4392   */\n      0x00\n        /* \"#utility.yul\":4380:4389   */\n      dup4\n        /* \"#utility.yul\":4376:4393   */\n      add\n        /* \"#utility.yul\":4367:4373   */\n      dup5\n        /* \"#utility.yul\":4323:4394   */\n      tag_120\n      jump\t// in\n    tag_138:\n        /* \"#utility.yul\":4277:4401   */\n      swap3\n      swap2\n      pop\n      pop\n      jump\t// out\n        /* \"#utility.yul\":4407:4576   */\n    tag_117:\n        /* \"#utility.yul\":4491:4502   */\n      0x00\n        /* \"#utility.yul\":4525:4531   */\n      dup3\n        /* \"#utility.yul\":4520:4523   */\n      dup3\n        /* \"#utility.yul\":4513:4532   */\n      mstore\n        /* \"#utility.yul\":4565:4569   */\n      0x20\n        /* \"#utility.yul\":4560:4563   */\n      dup3\n        /* \"#utility.yul\":4556:4570   */\n      add\n        /* \"#utility.yul\":4541:4570   */\n      swap1\n      pop\n        /* \"#utility.yul\":4503:4576   */\n      swap3\n      swap2\n      pop\n      pop\n      jump\t// out\n        /* \"#utility.yul\":4582:4887   */\n    tag_76:\n        /* \"#utility.yul\":4622:4625   */\n      0x00\n        /* \"#utility.yul\":4641:4661   */\n      tag_141\n        /* \"#utility.yul\":4659:4660   */\n      dup3\n        /* \"#utility.yul\":4641:4661   */\n      tag_123\n      jump\t// in\n    tag_141:\n        /* \"#utility.yul\":4636:4661   */\n      swap2\n      pop\n        /* \"#utility.yul\":4675:4695   */\n      tag_142\n        /* \"#utility.yul\":4693:4694   */\n      dup4\n        /* \"#utility.yul\":4675:4695   */\n      tag_123\n      jump\t// in\n    tag_142:\n        /* \"#utility.yul\":4670:4695   */\n      swap3\n      pop\n        /* \"#utility.yul\":4829:4830   */\n      dup3\n        /* \"#utility.yul\":4761:4827   */\n      0xffffffffffffffffffffffffffffffffffffffffffffffffffffffffffffffff\n        /* \"#utility.yul\":4757:4831   */\n      sub\n        /* \"#utility.yul\":4754:4755   */\n      dup3\n        /* \"#utility.yul\":4751:4832   */\n      gt\n        /* \"#utility.yul\":4748:4750   */\n      iszero\n      tag_143\n      jumpi\n        /* \"#utility.yul\":4835:4853   */\n      tag_144\n      tag_145\n      jump\t// in\n    tag_144:\n        /* \"#utility.yul\":4748:4750   */\n    tag_143:\n        /* \"#utility.yul\":4879:4880   */\n      dup3\n        /* \"#utility.yul\":4876:4877   */\n      dup3\n        /* \"#utility.yul\":4872:4881   */\n      add\n        /* \"#utility.yul\":4865:4881   */\n      swap1\n      pop\n        /* \"#utility.yul\":4626:4887   */\n      swap3\n      swap2\n      pop\n      pop\n      jump\t// out\n        /* \"#utility.yul\":4893:5078   */\n    tag_39:\n        /* \"#utility.yul\":4933:4934   */\n      0x00\n        /* \"#utility.yul\":4950:4970   */\n      tag_147\n        /* \"#utility.yul\":4968:4969   */\n      dup3\n        /* \"#utility.yul\":4950:4970   */\n      tag_123\n      jump\t// in\n    tag_147:\n        /* \"#utility.yul\":4945:4970   */\n      swap2\n      pop\n        /* \"#utility.yul\":4984:5004   */\n      tag_148\n        /* \"#utility.yul\":5002:5003   */\n      dup4\n        /* \"#utility.yul\":4984:5004   */\n      tag_123\n      jump\t// in\n    tag_148:\n        /* \"#utility.yul\":4979:5004   */\n      swap3\n      pop\n        /* \"#utility.yul\":5023:5024   */\n      dup3\n        /* \"#utility.yul\":5013:5015   */\n      tag_149\n      jumpi\n        /* \"#utility.yul\":5028:5046   */\n      tag_150\n      tag_151\n      jump\t// in\n    tag_150:\n        /* \"#utility.yul\":5013:5015   */\n    tag_149:\n        /* \"#utility.yul\":5070:5071   */\n      dup3\n        /* \"#utility.yul\":5067:5068   */\n      dup3\n        /* \"#utility.yul\":5063:5072   */\n      div\n        /* \"#utility.yul\":5058:5072   */\n      swap1\n      pop\n        /* \"#utility.yul\":4935:5078   */\n      swap3\n      swap2\n      pop\n      pop\n      jump\t// out\n        /* \"#utility.yul\":5084:5432   */\n    tag_37:\n        /* \"#utility.yul\":5124:5131   */\n      0x00\n        /* \"#utility.yul\":5147:5167   */\n      tag_153\n        /* \"#utility.yul\":5165:5166   */\n      dup3\n        /* \"#utility.yul\":5147:5167   */\n      tag_123\n      jump\t// in\n    tag_153:\n        /* \"#utility.yul\":5142:5167   */\n      swap2\n      pop\n        /* \"#utility.yul\":5181:5201   */\n      tag_154\n        /* \"#utility.yul\":5199:5200   */\n      dup4\n        /* \"#utility.yul\":5181:5201   */\n      tag_123\n      jump\t// in\n    tag_154:\n        /* \"#utility.yul\":5176:5201   */\n      swap3\n      pop\n        /* \"#utility.yul\":5369:5370   */\n      dup2\n        /* \"#utility.yul\":5301:5367   */\n      0xffffffffffffffffffffffffffffffffffffffffffffffffffffffffffffffff\n        /* \"#utility.yul\":5297:5371   */\n      div\n        /* \"#utility.yul\":5294:5295   */\n      dup4\n        /* \"#utility.yul\":5291:5372   */\n      gt\n        /* \"#utility.yul\":5286:5287   */\n      dup3\n        /* \"#utility.yul\":5279:5288   */\n      iszero\n        /* \"#utility.yul\":5272:5289   */\n      iszero\n        /* \"#utility.yul\":5268:5373   */\n      and\n        /* \"#utility.yul\":5265:5267   */\n      iszero\n      tag_155\n      jumpi\n        /* \"#utility.yul\":5376:5394   */\n      tag_156\n      tag_145\n      jump\t// in\n    tag_156:\n        /* \"#utility.yul\":5265:5267   */\n    tag_155:\n        /* \"#utility.yul\":5424:5425   */\n      dup3\n        /* \"#utility.yul\":5421:5422   */\n      dup3\n        /* \"#utility.yul\":5417:5426   */\n      mul\n        /* \"#utility.yul\":5406:5426   */\n      swap1\n      pop\n        /* \"#utility.yul\":5132:5432   */\n      swap3\n      swap2\n      pop\n      pop\n      jump\t// out\n        /* \"#utility.yul\":5438:5629   */\n    tag_72:\n        /* \"#utility.yul\":5478:5482   */\n      0x00\n        /* \"#utility.yul\":5498:5518   */\n      tag_158\n        /* \"#utility.yul\":5516:5517   */\n      dup3\n        /* \"#utility.yul\":5498:5518   */\n      tag_123\n      jump\t// in\n    tag_158:\n        /* \"#utility.yul\":5493:5518   */\n      swap2\n      pop\n        /* \"#utility.yul\":5532:5552   */\n      tag_159\n        /* \"#utility.yul\":5550:5551   */\n      dup4\n        /* \"#utility.yul\":5532:5552   */\n      tag_123\n      jump\t// in\n    tag_159:\n        /* \"#utility.yul\":5527:5552   */\n      swap3\n      pop\n        /* \"#utility.yul\":5571:5572   */\n      dup3\n        /* \"#utility.yul\":5568:5569   */\n      dup3\n        /* \"#utility.yul\":5565:5573   */\n      lt\n        /* \"#utility.yul\":5562:5564   */\n      iszero\n      tag_160\n      jumpi\n        /* \"#utility.yul\":5576:5594   */\n      tag_161\n      tag_145\n      jump\t// in\n    tag_161:\n        /* \"#utility.yul\":5562:5564   */\n    tag_160:\n        /* \"#utility.yul\":5621:5622   */\n      dup3\n        /* \"#utility.yul\":5618:5619   */\n      dup3\n        /* \"#utility.yul\":5614:5623   */\n      sub\n        /* \"#utility.yul\":5606:5623   */\n      swap1\n      pop\n        /* \"#utility.yul\":5483:5629   */\n      swap3\n      swap2\n      pop\n      pop\n      jump\t// out\n        /* \"#utility.yul\":5635:5731   */\n    tag_109:\n        /* \"#utility.yul\":5672:5679   */\n      0x00\n        /* \"#utility.yul\":5701:5725   */\n      tag_163\n        /* \"#utility.yul\":5719:5724   */\n      dup3\n        /* \"#utility.yul\":5701:5725   */\n      tag_164\n      jump\t// in\n    tag_163:\n        /* \"#utility.yul\":5690:5725   */\n      swap1\n      pop\n        /* \"#utility.yul\":5680:5731   */\n      swap2\n      swap1\n      pop\n      jump\t// out\n        /* \"#utility.yul\":5737:5827   */\n    tag_165:\n        /* \"#utility.yul\":5771:5778   */\n      0x00\n        /* \"#utility.yul\":5814:5819   */\n      dup2\n        /* \"#utility.yul\":5807:5820   */\n      iszero\n        /* \"#utility.yul\":5800:5821   */\n      iszero\n        /* \"#utility.yul\":5789:5821   */\n      swap1\n      pop\n        /* \"#utility.yul\":5779:5827   */\n      swap2\n      swap1\n      pop\n      jump\t// out\n        /* \"#utility.yul\":5833:5959   */\n    tag_164:\n        /* \"#utility.yul\":5870:5877   */\n      0x00\n        /* \"#utility.yul\":5910:5952   */\n      0xffffffffffffffffffffffffffffffffffffffff\n        /* \"#utility.yul\":5903:5908   */\n      dup3\n        /* \"#utility.yul\":5899:5953   */\n      and\n        /* \"#utility.yul\":5888:5953   */\n      swap1\n      pop\n        /* \"#utility.yul\":5878:5959   */\n      swap2\n      swap1\n      pop\n      jump\t// out\n        /* \"#utility.yul\":5965:6042   */\n    tag_123:\n        /* \"#utility.yul\":6002:6009   */\n      0x00\n        /* \"#utility.yul\":6031:6036   */\n      dup2\n        /* \"#utility.yul\":6020:6036   */\n      swap1\n      pop\n        /* \"#utility.yul\":6010:6042   */\n      swap2\n      swap1\n      pop\n      jump\t// out\n        /* \"#utility.yul\":6048:6202   */\n    tag_113:\n        /* \"#utility.yul\":6112:6121   */\n      0x00\n        /* \"#utility.yul\":6145:6196   */\n      tag_170\n        /* \"#utility.yul\":6190:6195   */\n      dup3\n        /* \"#utility.yul\":6145:6196   */\n      tag_171\n      jump\t// in\n    tag_170:\n        /* \"#utility.yul\":6132:6196   */\n      swap1\n      pop\n        /* \"#utility.yul\":6122:6202   */\n      swap2\n      swap1\n      pop\n      jump\t// out\n        /* \"#utility.yul\":6208:6335   */\n    tag_171:\n        /* \"#utility.yul\":6272:6281   */\n      0x00\n        /* \"#utility.yul\":6305:6329   */\n      tag_173\n        /* \"#utility.yul\":6323:6328   */\n      dup3\n        /* \"#utility.yul\":6305:6329   */\n      tag_164\n      jump\t// in\n    tag_173:\n        /* \"#utility.yul\":6292:6329   */\n      swap1\n      pop\n        /* \"#utility.yul\":6282:6335   */\n      swap2\n      swap1\n      pop\n      jump\t// out\n        /* \"#utility.yul\":6341:6521   */\n    tag_145:\n        /* \"#utility.yul\":6389:6466   */\n      0x4e487b7100000000000000000000000000000000000000000000000000000000\n        /* \"#utility.yul\":6386:6387   */\n      0x00\n        /* \"#utility.yul\":6379:6467   */\n      mstore\n        /* \"#utility.yul\":6486:6490   */\n      0x11\n        /* \"#utility.yul\":6483:6484   */\n      0x04\n        /* \"#utility.yul\":6476:6491   */\n      mstore\n        /* \"#utility.yul\":6510:6514   */\n      0x24\n        /* \"#utility.yul\":6507:6508   */\n      0x00\n        /* \"#utility.yul\":6500:6515   */\n      revert\n        /* \"#utility.yul\":6527:6707   */\n    tag_151:\n        /* \"#utility.yul\":6575:6652   */\n      0x4e487b7100000000000000000000000000000000000000000000000000000000\n        /* \"#utility.yul\":6572:6573   */\n      0x00\n        /* \"#utility.yul\":6565:6653   */\n      mstore\n        /* \"#utility.yul\":6672:6676   */\n      0x12\n        /* \"#utility.yul\":6669:6670   */\n      0x04\n        /* \"#utility.yul\":6662:6677   */\n      mstore\n        /* \"#utility.yul\":6696:6700   */\n      0x24\n        /* \"#utility.yul\":6693:6694   */\n      0x00\n        /* \"#utility.yul\":6686:6701   */\n      revert\n        /* \"#utility.yul\":6713:6892   */\n    tag_119:\n        /* \"#utility.yul\":6853:6884   */\n      0x616d6f756e74206d7573742062652067726561746572207468616e2030000000\n        /* \"#utility.yul\":6849:6850   */\n      0x00\n        /* \"#utility.yul\":6841:6847   */\n      dup3\n        /* \"#utility.yul\":6837:6851   */\n      add\n        /* \"#utility.yul\":6830:6885   */\n      mstore\n        /* \"#utility.yul\":6819:6892   */\n      pop\n      jump\t// out\n        /* \"#utility.yul\":6898:7020   */\n    tag_82:\n        /* \"#utility.yul\":6971:6995   */\n      tag_178\n        /* \"#utility.yul\":6989:6994   */\n      dup2\n        /* \"#utility.yul\":6971:6995   */\n      tag_109\n      jump\t// in\n    tag_178:\n        /* \"#utility.yul\":6964:6969   */\n      dup2\n        /* \"#utility.yul\":6961:6996   */\n      eq\n        /* \"#utility.yul\":6951:6953   */\n      tag_179\n      jumpi\n        /* \"#utility.yul\":7010:7011   */\n      0x00\n        /* \"#utility.yul\":7007:7008   */\n      dup1\n        /* \"#utility.yul\":7000:7012   */\n      revert\n        /* \"#utility.yul\":6951:6953   */\n    tag_179:\n        /* \"#utility.yul\":6941:7020   */\n      pop\n      jump\t// out\n        /* \"#utility.yul\":7026:7142   */\n    tag_86:\n        /* \"#utility.yul\":7096:7117   */\n      tag_181\n        /* \"#utility.yul\":7111:7116   */\n      dup2\n        /* \"#utility.yul\":7096:7117   */\n      tag_165\n      jump\t// in\n    tag_181:\n        /* \"#utility.yul\":7089:7094   */\n      dup2\n        /* \"#utility.yul\":7086:7118   */\n      eq\n        /* \"#utility.yul\":7076:7078   */\n      tag_182\n      jumpi\n        /* \"#utility.yul\":7132:7133   */\n      0x00\n        /* \"#utility.yul\":7129:7130   */\n      dup1\n        /* \"#utility.yul\":7122:7134   */\n      revert\n        /* \"#utility.yul\":7076:7078   */\n    tag_182:\n        /* \"#utility.yul\":7066:7142   */\n      pop\n      jump\t// out\n        /* \"#utility.yul\":7148:7270   */\n    tag_90:\n        /* \"#utility.yul\":7221:7245   */\n      tag_184\n        /* \"#utility.yul\":7239:7244   */\n      dup2\n        /* \"#utility.yul\":7221:7245   */\n      tag_123\n      jump\t// in\n    tag_184:\n        /* \"#utility.yul\":7214:7219   */\n      dup2\n        /* \"#utility.yul\":7211:7246   */\n      eq\n        /* \"#utility.yul\":7201:7203   */\n      tag_185\n      jumpi\n        /* \"#utility.yul\":7260:7261   */\n      0x00\n        /* \"#utility.yul\":7257:7258   */\n      dup1\n        /* \"#utility.yul\":7250:7262   */\n      revert\n        /* \"#utility.yul\":7201:7203   */\n    tag_185:\n        /* \"#utility.yul\":7191:7270   */\n      pop\n      jump\t// out\n\n    auxdata: 0xa2646970667358221220d90d553a5eb8442a324aedc47a3559fe65f319fb37b53bdf4a5ba562dffca76164736f6c63430008040033\n}\n",
				"bytecode": {
					"linkReferences": {},
					"object": "608060405234801561001057600080fd5b50604051610b46380380610b468339818101604052810190610032919061008e565b80600260006101000a81548173ffffffffffffffffffffffffffffffffffffffff021916908373ffffffffffffffffffffffffffffffffffffffff16021790555050610100565b600081519050610088816100e9565b92915050565b6000602082840312156100a057600080fd5b60006100ae84828501610079565b91505092915050565b60006100c2826100c9565b9050919050565b600073ffffffffffffffffffffffffffffffffffffffff82169050919050565b6100f2816100b7565b81146100fd57600080fd5b50565b610a378061010f6000396000f3fe608060405234801561001057600080fd5b50600436106100575760003560e01c806327e235e31461005c5780632e1a7d4d1461008c578063ad7a672f146100a8578063b6b55f25146100c6578063fc0c546a146100e2575b600080fd5b610076600480360381019061007191906105de565b610100565b6040516100839190610788565b60405180910390f35b6100a660048036038101906100a19190610630565b610118565b005b6100b061029d565b6040516100bd9190610788565b60405180910390f35b6100e060048036038101906100db9190610630565b6102a3565b005b6100ea610480565b6040516100f7919061074d565b60405180910390f35b60006020528060005260406000206000915090505481565b6000600154600260009054906101000a900473ffffffffffffffffffffffffffffffffffffffff1673ffffffffffffffffffffffffffffffffffffffff166370a08231306040518263ffffffff1660e01b815260040161017891906106d2565b60206040518083038186803b15801561019057600080fd5b505afa1580156101a4573d6000803e3d6000fd5b505050506040513d601f19601f820116820180604052508101906101c89190610659565b836101d3919061083b565b6101dd919061080a565b90506101e933836104a6565b600260009054906101000a900473ffffffffffffffffffffffffffffffffffffffff1673ffffffffffffffffffffffffffffffffffffffff1663a9059cbb33836040518363ffffffff1660e01b8152600401610246929190610724565b602060405180830381600087803b15801561026057600080fd5b505af1158015610274573d6000803e3d6000fd5b505050506040513d601f19601f820116820180604052508101906102989190610607565b505050565b60015481565b600081116102e6576040517f08c379a00000000000000000000000000000000000000000000000000000000081526004016102dd90610768565b60405180910390fd5b60008060015414156102fa578190506103c0565b600260009054906101000a900473ffffffffffffffffffffffffffffffffffffffff1673ffffffffffffffffffffffffffffffffffffffff166370a08231306040518263ffffffff1660e01b815260040161035591906106d2565b60206040518083038186803b15801561036d57600080fd5b505afa158015610381573d6000803e3d6000fd5b505050506040513d601f19601f820116820180604052508101906103a59190610659565b600154836103b3919061083b565b6103bd919061080a565b90505b6103ca3382610518565b600260009054906101000a900473ffffffffffffffffffffffffffffffffffffffff1673ffffffffffffffffffffffffffffffffffffffff166323b872dd3330856040518463ffffffff1660e01b8152600401610429939291906106ed565b602060405180830381600087803b15801561044357600080fd5b505af1158015610457573d6000803e3d6000fd5b505050506040513d601f19601f8201168201806040525081019061047b9190610607565b505050565b600260009054906101000a900473ffffffffffffffffffffffffffffffffffffffff1681565b806000808473ffffffffffffffffffffffffffffffffffffffff1673ffffffffffffffffffffffffffffffffffffffff16815260200190815260200160002060008282546104f49190610895565b92505081905550806001600082825461050d9190610895565b925050819055505050565b806000808473ffffffffffffffffffffffffffffffffffffffff1673ffffffffffffffffffffffffffffffffffffffff168152602001908152602001600020600082825461056691906107b4565b92505081905550806001600082825461057f91906107b4565b925050819055505050565b600081359050610599816109bc565b92915050565b6000815190506105ae816109d3565b92915050565b6000813590506105c3816109ea565b92915050565b6000815190506105d8816109ea565b92915050565b6000602082840312156105f057600080fd5b60006105fe8482850161058a565b91505092915050565b60006020828403121561061957600080fd5b60006106278482850161059f565b91505092915050565b60006020828403121561064257600080fd5b6000610650848285016105b4565b91505092915050565b60006020828403121561066b57600080fd5b6000610679848285016105c9565b91505092915050565b61068b816108c9565b82525050565b61069a81610911565b82525050565b60006106ad601d836107a3565b91506106b882610993565b602082019050919050565b6106cc81610907565b82525050565b60006020820190506106e76000830184610682565b92915050565b60006060820190506107026000830186610682565b61070f6020830185610682565b61071c60408301846106c3565b949350505050565b60006040820190506107396000830185610682565b61074660208301846106c3565b9392505050565b60006020820190506107626000830184610691565b92915050565b60006020820190508181036000830152610781816106a0565b9050919050565b600060208201905061079d60008301846106c3565b92915050565b600082825260208201905092915050565b60006107bf82610907565b91506107ca83610907565b9250827fffffffffffffffffffffffffffffffffffffffffffffffffffffffffffffffff038211156107ff576107fe610935565b5b828201905092915050565b600061081582610907565b915061082083610907565b9250826108305761082f610964565b5b828204905092915050565b600061084682610907565b915061085183610907565b9250817fffffffffffffffffffffffffffffffffffffffffffffffffffffffffffffffff048311821515161561088a57610889610935565b5b828202905092915050565b60006108a082610907565b91506108ab83610907565b9250828210156108be576108bd610935565b5b828203905092915050565b60006108d4826108e7565b9050919050565b60008115159050919050565b600073ffffffffffffffffffffffffffffffffffffffff82169050919050565b6000819050919050565b600061091c82610923565b9050919050565b600061092e826108e7565b9050919050565b7f4e487b7100000000000000000000000000000000000000000000000000000000600052601160045260246000fd5b7f4e487b7100000000000000000000000000000000000000000000000000000000600052601260045260246000fd5b7f616d6f756e74206d7573742062652067726561746572207468616e2030000000600082015250565b6109c5816108c9565b81146109d057600080fd5b50565b6109dc816108db565b81146109e757600080fd5b50565b6109f381610907565b81146109fe57600080fd5b5056fea2646970667358221220d90d553a5eb8442a324aedc47a3559fe65f319fb37b53bdf4a5ba562dffca76164736f6c63430008040033",
					"opcodes": "PUSH1 0x80 PUSH1 0x40 MSTORE CALLVALUE DUP1 ISZERO PUSH2 0x10 JUMPI PUSH1 0x0 DUP1 REVERT JUMPDEST POP PUSH1 0x40 MLOAD PUSH2 0xB46 CODESIZE SUB DUP1 PUSH2 0xB46 DUP4 CODECOPY DUP2 DUP2 ADD PUSH1 0x40 MSTORE DUP2 ADD SWAP1 PUSH2 0x32 SWAP2 SWAP1 PUSH2 0x8E JUMP JUMPDEST DUP1 PUSH1 0x2 PUSH1 0x0 PUSH2 0x100 EXP DUP2 SLOAD DUP2 PUSH20 0xFFFFFFFFFFFFFFFFFFFFFFFFFFFFFFFFFFFFFFFF MUL NOT AND SWAP1 DUP4 PUSH20 0xFFFFFFFFFFFFFFFFFFFFFFFFFFFFFFFFFFFFFFFF AND MUL OR SWAP1 SSTORE POP POP PUSH2 0x100 JUMP JUMPDEST PUSH1 0x0 DUP2 MLOAD SWAP1 POP PUSH2 0x88 DUP2 PUSH2 0xE9 JUMP JUMPDEST SWAP3 SWAP2 POP POP JUMP JUMPDEST PUSH1 0x0 PUSH1 0x20 DUP3 DUP5 SUB SLT ISZERO PUSH2 0xA0 JUMPI PUSH1 0x0 DUP1 REVERT JUMPDEST PUSH1 0x0 PUSH2 0xAE DUP5 DUP3 DUP6 ADD PUSH2 0x79 JUMP JUMPDEST SWAP2 POP POP SWAP3 SWAP2 POP POP JUMP JUMPDEST PUSH1 0x0 PUSH2 0xC2 DUP3 PUSH2 0xC9 JUMP JUMPDEST SWAP1 POP SWAP2 SWAP1 POP JUMP JUMPDEST PUSH1 0x0 PUSH20 0xFFFFFFFFFFFFFFFFFFFFFFFFFFFFFFFFFFFFFFFF DUP3 AND SWAP1 POP SWAP2 SWAP1 POP JUMP JUMPDEST PUSH2 0xF2 DUP2 PUSH2 0xB7 JUMP JUMPDEST DUP2 EQ PUSH2 0xFD JUMPI PUSH1 0x0 DUP1 REVERT JUMPDEST POP JUMP JUMPDEST PUSH2 0xA37 DUP1 PUSH2 0x10F PUSH1 0x0 CODECOPY PUSH1 0x0 RETURN INVALID PUSH1 0x80 PUSH1 0x40 MSTORE CALLVALUE DUP1 ISZERO PUSH2 0x10 JUMPI PUSH1 0x0 DUP1 REVERT JUMPDEST POP PUSH1 0x4 CALLDATASIZE LT PUSH2 0x57 JUMPI PUSH1 0x0 CALLDATALOAD PUSH1 0xE0 SHR DUP1 PUSH4 0x27E235E3 EQ PUSH2 0x5C JUMPI DUP1 PUSH4 0x2E1A7D4D EQ PUSH2 0x8C JUMPI DUP1 PUSH4 0xAD7A672F EQ PUSH2 0xA8 JUMPI DUP1 PUSH4 0xB6B55F25 EQ PUSH2 0xC6 JUMPI DUP1 PUSH4 0xFC0C546A EQ PUSH2 0xE2 JUMPI JUMPDEST PUSH1 0x0 DUP1 REVERT JUMPDEST PUSH2 0x76 PUSH1 0x4 DUP1 CALLDATASIZE SUB DUP2 ADD SWAP1 PUSH2 0x71 SWAP2 SWAP1 PUSH2 0x5DE JUMP JUMPDEST PUSH2 0x100 JUMP JUMPDEST PUSH1 0x40 MLOAD PUSH2 0x83 SWAP2 SWAP1 PUSH2 0x788 JUMP JUMPDEST PUSH1 0x40 MLOAD DUP1 SWAP2 SUB SWAP1 RETURN JUMPDEST PUSH2 0xA6 PUSH1 0x4 DUP1 CALLDATASIZE SUB DUP2 ADD SWAP1 PUSH2 0xA1 SWAP2 SWAP1 PUSH2 0x630 JUMP JUMPDEST PUSH2 0x118 JUMP JUMPDEST STOP JUMPDEST PUSH2 0xB0 PUSH2 0x29D JUMP JUMPDEST PUSH1 0x40 MLOAD PUSH2 0xBD SWAP2 SWAP1 PUSH2 0x788 JUMP JUMPDEST PUSH1 0x40 MLOAD DUP1 SWAP2 SUB SWAP1 RETURN JUMPDEST PUSH2 0xE0 PUSH1 0x4 DUP1 CALLDATASIZE SUB DUP2 ADD SWAP1 PUSH2 0xDB SWAP2 SWAP1 PUSH2 0x630 JUMP JUMPDEST PUSH2 0x2A3 JUMP JUMPDEST STOP JUMPDEST PUSH2 0xEA PUSH2 0x480 JUMP JUMPDEST PUSH1 0x40 MLOAD PUSH2 0xF7 SWAP2 SWAP1 PUSH2 0x74D JUMP JUMPDEST PUSH1 0x40 MLOAD DUP1 SWAP2 SUB SWAP1 RETURN JUMPDEST PUSH1 0x0 PUSH1 0x20 MSTORE DUP1 PUSH1 0x0 MSTORE PUSH1 0x40 PUSH1 0x0 KECCAK256 PUSH1 0x0 SWAP2 POP SWAP1 POP SLOAD DUP2 JUMP JUMPDEST PUSH1 0x0 PUSH1 0x1 SLOAD PUSH1 0x2 PUSH1 0x0 SWAP1 SLOAD SWAP1 PUSH2 0x100 EXP SWAP1 DIV PUSH20 0xFFFFFFFFFFFFFFFFFFFFFFFFFFFFFFFFFFFFFFFF AND PUSH20 0xFFFFFFFFFFFFFFFFFFFFFFFFFFFFFFFFFFFFFFFF AND PUSH4 0x70A08231 ADDRESS PUSH1 0x40 MLOAD DUP3 PUSH4 0xFFFFFFFF AND PUSH1 0xE0 SHL DUP2 MSTORE PUSH1 0x4 ADD PUSH2 0x178 SWAP2 SWAP1 PUSH2 0x6D2 JUMP JUMPDEST PUSH1 0x20 PUSH1 0x40 MLOAD DUP1 DUP4 SUB DUP2 DUP7 DUP1 EXTCODESIZE ISZERO DUP1 ISZERO PUSH2 0x190 JUMPI PUSH1 0x0 DUP1 REVERT JUMPDEST POP GAS STATICCALL ISZERO DUP1 ISZERO PUSH2 0x1A4 JUMPI RETURNDATASIZE PUSH1 0x0 DUP1 RETURNDATACOPY RETURNDATASIZE PUSH1 0x0 REVERT JUMPDEST POP POP POP POP PUSH1 0x40 MLOAD RETURNDATASIZE PUSH1 0x1F NOT PUSH1 0x1F DUP3 ADD AND DUP3 ADD DUP1 PUSH1 0x40 MSTORE POP DUP2 ADD SWAP1 PUSH2 0x1C8 SWAP2 SWAP1 PUSH2 0x659 JUMP JUMPDEST DUP4 PUSH2 0x1D3 SWAP2 SWAP1 PUSH2 0x83B JUMP JUMPDEST PUSH2 0x1DD SWAP2 SWAP1 PUSH2 0x80A JUMP JUMPDEST SWAP1 POP PUSH2 0x1E9 CALLER DUP4 PUSH2 0x4A6 JUMP JUMPDEST PUSH1 0x2 PUSH1 0x0 SWAP1 SLOAD SWAP1 PUSH2 0x100 EXP SWAP1 DIV PUSH20 0xFFFFFFFFFFFFFFFFFFFFFFFFFFFFFFFFFFFFFFFF AND PUSH20 0xFFFFFFFFFFFFFFFFFFFFFFFFFFFFFFFFFFFFFFFF AND PUSH4 0xA9059CBB CALLER DUP4 PUSH1 0x40 MLOAD DUP4 PUSH4 0xFFFFFFFF AND PUSH1 0xE0 SHL DUP2 MSTORE PUSH1 0x4 ADD PUSH2 0x246 SWAP3 SWAP2 SWAP1 PUSH2 0x724 JUMP JUMPDEST PUSH1 0x20 PUSH1 0x40 MLOAD DUP1 DUP4 SUB DUP2 PUSH1 0x0 DUP8 DUP1 EXTCODESIZE ISZERO DUP1 ISZERO PUSH2 0x260 JUMPI PUSH1 0x0 DUP1 REVERT JUMPDEST POP GAS CALL ISZERO DUP1 ISZERO PUSH2 0x274 JUMPI RETURNDATASIZE PUSH1 0x0 DUP1 RETURNDATACOPY RETURNDATASIZE PUSH1 0x0 REVERT JUMPDEST POP POP POP POP PUSH1 0x40 MLOAD RETURNDATASIZE PUSH1 0x1F NOT PUSH1 0x1F DUP3 ADD AND DUP3 ADD DUP1 PUSH1 0x40 MSTORE POP DUP2 ADD SWAP1 PUSH2 0x298 SWAP2 SWAP1 PUSH2 0x607 JUMP JUMPDEST POP POP POP JUMP JUMPDEST PUSH1 0x1 SLOAD DUP2 JUMP JUMPDEST PUSH1 0x0 DUP2 GT PUSH2 0x2E6 JUMPI PUSH1 0x40 MLOAD PUSH32 0x8C379A000000000000000000000000000000000000000000000000000000000 DUP2 MSTORE PUSH1 0x4 ADD PUSH2 0x2DD SWAP1 PUSH2 0x768 JUMP JUMPDEST PUSH1 0x40 MLOAD DUP1 SWAP2 SUB SWAP1 REVERT JUMPDEST PUSH1 0x0 DUP1 PUSH1 0x1 SLOAD EQ ISZERO PUSH2 0x2FA JUMPI DUP2 SWAP1 POP PUSH2 0x3C0 JUMP JUMPDEST PUSH1 0x2 PUSH1 0x0 SWAP1 SLOAD SWAP1 PUSH2 0x100 EXP SWAP1 DIV PUSH20 0xFFFFFFFFFFFFFFFFFFFFFFFFFFFFFFFFFFFFFFFF AND PUSH20 0xFFFFFFFFFFFFFFFFFFFFFFFFFFFFFFFFFFFFFFFF AND PUSH4 0x70A08231 ADDRESS PUSH1 0x40 MLOAD DUP3 PUSH4 0xFFFFFFFF AND PUSH1 0xE0 SHL DUP2 MSTORE PUSH1 0x4 ADD PUSH2 0x355 SWAP2 SWAP1 PUSH2 0x6D2 JUMP JUMPDEST PUSH1 0x20 PUSH1 0x40 MLOAD DUP1 DUP4 SUB DUP2 DUP7 DUP1 EXTCODESIZE ISZERO DUP1 ISZERO PUSH2 0x36D JUMPI PUSH1 0x0 DUP1 REVERT JUMPDEST POP GAS STATICCALL ISZERO DUP1 ISZERO PUSH2 0x381 JUMPI RETURNDATASIZE PUSH1 0x0 DUP1 RETURNDATACOPY RETURNDATASIZE PUSH1 0x0 REVERT JUMPDEST POP POP POP POP PUSH1 0x40 MLOAD RETURNDATASIZE PUSH1 0x1F NOT PUSH1 0x1F DUP3 ADD AND DUP3 ADD DUP1 PUSH1 0x40 MSTORE POP DUP2 ADD SWAP1 PUSH2 0x3A5 SWAP2 SWAP1 PUSH2 0x659 JUMP JUMPDEST PUSH1 0x1 SLOAD DUP4 PUSH2 0x3B3 SWAP2 SWAP1 PUSH2 0x83B JUMP JUMPDEST PUSH2 0x3BD SWAP2 SWAP1 PUSH2 0x80A JUMP JUMPDEST SWAP1 POP JUMPDEST PUSH2 0x3CA CALLER DUP3 PUSH2 0x518 JUMP JUMPDEST PUSH1 0x2 PUSH1 0x0 SWAP1 SLOAD SWAP1 PUSH2 0x100 EXP SWAP1 DIV PUSH20 0xFFFFFFFFFFFFFFFFFFFFFFFFFFFFFFFFFFFFFFFF AND PUSH20 0xFFFFFFFFFFFFFFFFFFFFFFFFFFFFFFFFFFFFFFFF AND PUSH4 0x23B872DD CALLER ADDRESS DUP6 PUSH1 0x40 MLOAD DUP5 PUSH4 0xFFFFFFFF AND PUSH1 0xE0 SHL DUP2 MSTORE PUSH1 0x4 ADD PUSH2 0x429 SWAP4 SWAP3 SWAP2 SWAP1 PUSH2 0x6ED JUMP JUMPDEST PUSH1 0x20 PUSH1 0x40 MLOAD DUP1 DUP4 SUB DUP2 PUSH1 0x0 DUP8 DUP1 EXTCODESIZE ISZERO DUP1 ISZERO PUSH2 0x443 JUMPI PUSH1 0x0 DUP1 REVERT JUMPDEST POP GAS CALL ISZERO DUP1 ISZERO PUSH2 0x457 JUMPI RETURNDATASIZE PUSH1 0x0 DUP1 RETURNDATACOPY RETURNDATASIZE PUSH1 0x0 REVERT JUMPDEST POP POP POP POP PUSH1 0x40 MLOAD RETURNDATASIZE PUSH1 0x1F NOT PUSH1 0x1F DUP3 ADD AND DUP3 ADD DUP1 PUSH1 0x40 MSTORE POP DUP2 ADD SWAP1 PUSH2 0x47B SWAP2 SWAP1 PUSH2 0x607 JUMP JUMPDEST POP POP POP JUMP JUMPDEST PUSH1 0x2 PUSH1 0x0 SWAP1 SLOAD SWAP1 PUSH2 0x100 EXP SWAP1 DIV PUSH20 0xFFFFFFFFFFFFFFFFFFFFFFFFFFFFFFFFFFFFFFFF AND DUP2 JUMP JUMPDEST DUP1 PUSH1 0x0 DUP1 DUP5 PUSH20 0xFFFFFFFFFFFFFFFFFFFFFFFFFFFFFFFFFFFFFFFF AND PUSH20 0xFFFFFFFFFFFFFFFFFFFFFFFFFFFFFFFFFFFFFFFF AND DUP2 MSTORE PUSH1 0x20 ADD SWAP1 DUP2 MSTORE PUSH1 0x20 ADD PUSH1 0x0 KECCAK256 PUSH1 0x0 DUP3 DUP3 SLOAD PUSH2 0x4F4 SWAP2 SWAP1 PUSH2 0x895 JUMP JUMPDEST SWAP3 POP POP DUP2 SWAP1 SSTORE POP DUP1 PUSH1 0x1 PUSH1 0x0 DUP3 DUP3 SLOAD PUSH2 0x50D SWAP2 SWAP1 PUSH2 0x895 JUMP JUMPDEST SWAP3 POP POP DUP2 SWAP1 SSTORE POP POP POP JUMP JUMPDEST DUP1 PUSH1 0x0 DUP1 DUP5 PUSH20 0xFFFFFFFFFFFFFFFFFFFFFFFFFFFFFFFFFFFFFFFF AND PUSH20 0xFFFFFFFFFFFFFFFFFFFFFFFFFFFFFFFFFFFFFFFF AND DUP2 MSTORE PUSH1 0x20 ADD SWAP1 DUP2 MSTORE PUSH1 0x20 ADD PUSH1 0x0 KECCAK256 PUSH1 0x0 DUP3 DUP3 SLOAD PUSH2 0x566 SWAP2 SWAP1 PUSH2 0x7B4 JUMP JUMPDEST SWAP3 POP POP DUP2 SWAP1 SSTORE POP DUP1 PUSH1 0x1 PUSH1 0x0 DUP3 DUP3 SLOAD PUSH2 0x57F SWAP2 SWAP1 PUSH2 0x7B4 JUMP JUMPDEST SWAP3 POP POP DUP2 SWAP1 SSTORE POP POP POP JUMP JUMPDEST PUSH1 0x0 DUP2 CALLDATALOAD SWAP1 POP PUSH2 0x599 DUP2 PUSH2 0x9BC JUMP JUMPDEST SWAP3 SWAP2 POP POP JUMP JUMPDEST PUSH1 0x0 DUP2 MLOAD SWAP1 POP PUSH2 0x5AE DUP2 PUSH2 0x9D3 JUMP JUMPDEST SWAP3 SWAP2 POP POP JUMP JUMPDEST PUSH1 0x0 DUP2 CALLDATALOAD SWAP1 POP PUSH2 0x5C3 DUP2 PUSH2 0x9EA JUMP JUMPDEST SWAP3 SWAP2 POP POP JUMP JUMPDEST PUSH1 0x0 DUP2 MLOAD SWAP1 POP PUSH2 0x5D8 DUP2 PUSH2 0x9EA JUMP JUMPDEST SWAP3 SWAP2 POP POP JUMP JUMPDEST PUSH1 0x0 PUSH1 0x20 DUP3 DUP5 SUB SLT ISZERO PUSH2 0x5F0 JUMPI PUSH1 0x0 DUP1 REVERT JUMPDEST PUSH1 0x0 PUSH2 0x5FE DUP5 DUP3 DUP6 ADD PUSH2 0x58A JUMP JUMPDEST SWAP2 POP POP SWAP3 SWAP2 POP POP JUMP JUMPDEST PUSH1 0x0 PUSH1 0x20 DUP3 DUP5 SUB SLT ISZERO PUSH2 0x619 JUMPI PUSH1 0x0 DUP1 REVERT JUMPDEST PUSH1 0x0 PUSH2 0x627 DUP5 DUP3 DUP6 ADD PUSH2 0x59F JUMP JUMPDEST SWAP2 POP POP SWAP3 SWAP2 POP POP JUMP JUMPDEST PUSH1 0x0 PUSH1 0x20 DUP3 DUP5 SUB SLT ISZERO PUSH2 0x642 JUMPI PUSH1 0x0 DUP1 REVERT JUMPDEST PUSH1 0x0 PUSH2 0x650 DUP5 DUP3 DUP6 ADD PUSH2 0x5B4 JUMP JUMPDEST SWAP2 POP POP SWAP3 SWAP2 POP POP JUMP JUMPDEST PUSH1 0x0 PUSH1 0x20 DUP3 DUP5 SUB SLT ISZERO PUSH2 0x66B JUMPI PUSH1 0x0 DUP1 REVERT JUMPDEST PUSH1 0x0 PUSH2 0x679 DUP5 DUP3 DUP6 ADD PUSH2 0x5C9 JUMP JUMPDEST SWAP2 POP POP SWAP3 SWAP2 POP POP JUMP JUMPDEST PUSH2 0x68B DUP2 PUSH2 0x8C9 JUMP JUMPDEST DUP3 MSTORE POP POP JUMP JUMPDEST PUSH2 0x69A DUP2 PUSH2 0x911 JUMP JUMPDEST DUP3 MSTORE POP POP JUMP JUMPDEST PUSH1 0x0 PUSH2 0x6AD PUSH1 0x1D DUP4 PUSH2 0x7A3 JUMP JUMPDEST SWAP2 POP PUSH2 0x6B8 DUP3 PUSH2 0x993 JUMP JUMPDEST PUSH1 0x20 DUP3 ADD SWAP1 POP SWAP2 SWAP1 POP JUMP JUMPDEST PUSH2 0x6CC DUP2 PUSH2 0x907 JUMP JUMPDEST DUP3 MSTORE POP POP JUMP JUMPDEST PUSH1 0x0 PUSH1 0x20 DUP3 ADD SWAP1 POP PUSH2 0x6E7 PUSH1 0x0 DUP4 ADD DUP5 PUSH2 0x682 JUMP JUMPDEST SWAP3 SWAP2 POP POP JUMP JUMPDEST PUSH1 0x0 PUSH1 0x60 DUP3 ADD SWAP1 POP PUSH2 0x702 PUSH1 0x0 DUP4 ADD DUP7 PUSH2 0x682 JUMP JUMPDEST PUSH2 0x70F PUSH1 0x20 DUP4 ADD DUP6 PUSH2 0x682 JUMP JUMPDEST PUSH2 0x71C PUSH1 0x40 DUP4 ADD DUP5 PUSH2 0x6C3 JUMP JUMPDEST SWAP5 SWAP4 POP POP POP POP JUMP JUMPDEST PUSH1 0x0 PUSH1 0x40 DUP3 ADD SWAP1 POP PUSH2 0x739 PUSH1 0x0 DUP4 ADD DUP6 PUSH2 0x682 JUMP JUMPDEST PUSH2 0x746 PUSH1 0x20 DUP4 ADD DUP5 PUSH2 0x6C3 JUMP JUMPDEST SWAP4 SWAP3 POP POP POP JUMP JUMPDEST PUSH1 0x0 PUSH1 0x20 DUP3 ADD SWAP1 POP PUSH2 0x762 PUSH1 0x0 DUP4 ADD DUP5 PUSH2 0x691 JUMP JUMPDEST SWAP3 SWAP2 POP POP JUMP JUMPDEST PUSH1 0x0 PUSH1 0x20 DUP3 ADD SWAP1 POP DUP2 DUP2 SUB PUSH1 0x0 DUP4 ADD MSTORE PUSH2 0x781 DUP2 PUSH2 0x6A0 JUMP JUMPDEST SWAP1 POP SWAP2 SWAP1 POP JUMP JUMPDEST PUSH1 0x0 PUSH1 0x20 DUP3 ADD SWAP1 POP PUSH2 0x79D PUSH1 0x0 DUP4 ADD DUP5 PUSH2 0x6C3 JUMP JUMPDEST SWAP3 SWAP2 POP POP JUMP JUMPDEST PUSH1 0x0 DUP3 DUP3 MSTORE PUSH1 0x20 DUP3 ADD SWAP1 POP SWAP3 SWAP2 POP POP JUMP JUMPDEST PUSH1 0x0 PUSH2 0x7BF DUP3 PUSH2 0x907 JUMP JUMPDEST SWAP2 POP PUSH2 0x7CA DUP4 PUSH2 0x907 JUMP JUMPDEST SWAP3 POP DUP3 PUSH32 0xFFFFFFFFFFFFFFFFFFFFFFFFFFFFFFFFFFFFFFFFFFFFFFFFFFFFFFFFFFFFFFFF SUB DUP3 GT ISZERO PUSH2 0x7FF JUMPI PUSH2 0x7FE PUSH2 0x935 JUMP JUMPDEST JUMPDEST DUP3 DUP3 ADD SWAP1 POP SWAP3 SWAP2 POP POP JUMP JUMPDEST PUSH1 0x0 PUSH2 0x815 DUP3 PUSH2 0x907 JUMP JUMPDEST SWAP2 POP PUSH2 0x820 DUP4 PUSH2 0x907 JUMP JUMPDEST SWAP3 POP DUP3 PUSH2 0x830 JUMPI PUSH2 0x82F PUSH2 0x964 JUMP JUMPDEST JUMPDEST DUP3 DUP3 DIV SWAP1 POP SWAP3 SWAP2 POP POP JUMP JUMPDEST PUSH1 0x0 PUSH2 0x846 DUP3 PUSH2 0x907 JUMP JUMPDEST SWAP2 POP PUSH2 0x851 DUP4 PUSH2 0x907 JUMP JUMPDEST SWAP3 POP DUP2 PUSH32 0xFFFFFFFFFFFFFFFFFFFFFFFFFFFFFFFFFFFFFFFFFFFFFFFFFFFFFFFFFFFFFFFF DIV DUP4 GT DUP3 ISZERO ISZERO AND ISZERO PUSH2 0x88A JUMPI PUSH2 0x889 PUSH2 0x935 JUMP JUMPDEST JUMPDEST DUP3 DUP3 MUL SWAP1 POP SWAP3 SWAP2 POP POP JUMP JUMPDEST PUSH1 0x0 PUSH2 0x8A0 DUP3 PUSH2 0x907 JUMP JUMPDEST SWAP2 POP PUSH2 0x8AB DUP4 PUSH2 0x907 JUMP JUMPDEST SWAP3 POP DUP3 DUP3 LT ISZERO PUSH2 0x8BE JUMPI PUSH2 0x8BD PUSH2 0x935 JUMP JUMPDEST JUMPDEST DUP3 DUP3 SUB SWAP1 POP SWAP3 SWAP2 POP POP JUMP JUMPDEST PUSH1 0x0 PUSH2 0x8D4 DUP3 PUSH2 0x8E7 JUMP JUMPDEST SWAP1 POP SWAP2 SWAP1 POP JUMP JUMPDEST PUSH1 0x0 DUP2 ISZERO ISZERO SWAP1 POP SWAP2 SWAP1 POP JUMP JUMPDEST PUSH1 0x0 PUSH20 0xFFFFFFFFFFFFFFFFFFFFFFFFFFFFFFFFFFFFFFFF DUP3 AND SWAP1 POP SWAP2 SWAP1 POP JUMP JUMPDEST PUSH1 0x0 DUP2 SWAP1 POP SWAP2 SWAP1 POP JUMP JUMPDEST PUSH1 0x0 PUSH2 0x91C DUP3 PUSH2 0x923 JUMP JUMPDEST SWAP1 POP SWAP2 SWAP1 POP JUMP JUMPDEST PUSH1 0x0 PUSH2 0x92E DUP3 PUSH2 0x8E7 JUMP JUMPDEST SWAP1 POP SWAP2 SWAP1 POP JUMP JUMPDEST PUSH32 0x4E487B7100000000000000000000000000000000000000000000000000000000 PUSH1 0x0 MSTORE PUSH1 0x11 PUSH1 0x4 MSTORE PUSH1 0x24 PUSH1 0x0 REVERT JUMPDEST PUSH32 0x4E487B7100000000000000000000000000000000000000000000000000000000 PUSH1 0x0 MSTORE PUSH1 0x12 PUSH1 0x4 MSTORE PUSH1 0x24 PUSH1 0x0 REVERT JUMPDEST PUSH32 0x616D6F756E74206D7573742062652067726561746572207468616E2030000000 PUSH1 0x0 DUP3 ADD MSTORE POP JUMP JUMPDEST PUSH2 0x9C5 DUP2 PUSH2 0x8C9 JUMP JUMPDEST DUP2 EQ PUSH2 0x9D0 JUMPI PUSH1 0x0 DUP1 REVERT JUMPDEST POP JUMP JUMPDEST PUSH2 0x9DC DUP2 PUSH2 0x8DB JUMP JUMPDEST DUP2 EQ PUSH2 0x9E7 JUMPI PUSH1 0x0 DUP1 REVERT JUMPDEST POP JUMP JUMPDEST PUSH2 0x9F3 DUP2 PUSH2 0x907 JUMP JUMPDEST DUP2 EQ PUSH2 0x9FE JUMPI PUSH1 0x0 DUP1 REVERT JUMPDEST POP JUMP INVALID LOG2 PUSH5 0x6970667358 0x22 SLT KECCAK256 0xD9 0xD SSTORE GASPRICE 0x5E 0xB8 DIFFICULTY 0x2A ORIGIN 0x4A 0xED 0xC4 PUSH27 0x3559FE65F319FB37B53BDF4A5BA562DFFCA76164736F6C63430008 DIV STOP CALLER "
				},
				"gasEstimates": {
					"creation": {
						"codeDepositCost": "523000",
						"executionCost": "infinite",
						"totalCost": "infinite"
					},
					"external": {
						"balances(address)": "1492",
						"deposit(uint256)": "infinite",
						"token()": "1323",
						"totalBalance()": "1151",
						"withdraw(uint256)": "infinite"
					},
					"internal": {
						"_burn(address,uint256)": "infinite",
						"_mint(address,uint256)": "infinite"
					}
				},
				"methodIdentifiers": {
					"balances(address)": "27e235e3",
					"deposit(uint256)": "b6b55f25",
					"token()": "fc0c546a",
					"totalBalance()": "ad7a672f",
					"withdraw(uint256)": "2e1a7d4d"
				}
			},
			"storageLayout": {
				"storage": [
					{
						"astId": 5,
						"contract": "contracts/Vault/Vault.sol:Vault",
						"label": "balances",
						"offset": 0,
						"slot": "0",
						"type": "t_mapping(t_address,t_uint256)"
					},
					{
						"astId": 7,
						"contract": "contracts/Vault/Vault.sol:Vault",
						"label": "totalBalance",
						"offset": 0,
						"slot": "1",
						"type": "t_uint256"
					},
					{
						"astId": 10,
						"contract": "contracts/Vault/Vault.sol:Vault",
						"label": "token",
						"offset": 0,
						"slot": "2",
						"type": "t_contract(IERC20)224"
					}
				],
				"types": {
					"t_address": {
						"encoding": "inplace",
						"label": "address",
						"numberOfBytes": "20"
					},
					"t_contract(IERC20)224": {
						"encoding": "inplace",
						"label": "contract IERC20",
						"numberOfBytes": "20"
					},
					"t_mapping(t_address,t_uint256)": {
						"encoding": "mapping",
						"key": "t_address",
						"label": "mapping(address => uint256)",
						"numberOfBytes": "32",
						"value": "t_uint256"
					},
					"t_uint256": {
						"encoding": "inplace",
						"label": "uint256",
						"numberOfBytes": "32"
					}
				}
			},
			"userdoc": {
				"kind": "user",
				"methods": {},
				"version": 1
			}
		}
	}
}