{
	"contracts/CSAMM/CSAMM.sol": {
		"CSAMM": {
			"abi": [
				{
					"inputs": [
						{
							"internalType": "address",
							"name": "_token0",
							"type": "address"
						},
						{
							"internalType": "address",
							"name": "_token1",
							"type": "address"
						}
					],
					"stateMutability": "nonpayable",
					"type": "constructor"
				},
				{
					"inputs": [
						{
							"internalType": "uint256",
							"name": "amount0",
							"type": "uint256"
						},
						{
							"internalType": "uint256",
							"name": "amount1",
							"type": "uint256"
						}
					],
					"name": "addLiquidity",
					"outputs": [],
					"stateMutability": "nonpayable",
					"type": "function"
				},
				{
					"inputs": [
						{
							"internalType": "address",
							"name": "",
							"type": "address"
						}
					],
					"name": "balanceOf",
					"outputs": [
						{
							"internalType": "uint256",
							"name": "",
							"type": "uint256"
						}
					],
					"stateMutability": "view",
					"type": "function"
				},
				{
					"inputs": [],
					"name": "k",
					"outputs": [
						{
							"internalType": "uint256",
							"name": "",
							"type": "uint256"
						}
					],
					"stateMutability": "view",
					"type": "function"
				},
				{
					"inputs": [],
					"name": "kLast",
					"outputs": [
						{
							"internalType": "uint256",
							"name": "",
							"type": "uint256"
						}
					],
					"stateMutability": "view",
					"type": "function"
				},
				{
					"inputs": [
						{
							"internalType": "uint256",
							"name": "_shares",
							"type": "uint256"
						}
					],
					"name": "removeLiquidity",
					"outputs": [],
					"stateMutability": "nonpayable",
					"type": "function"
				},
				{
					"inputs": [],
					"name": "reserve0",
					"outputs": [
						{
							"internalType": "uint256",
							"name": "",
							"type": "uint256"
						}
					],
					"stateMutability": "view",
					"type": "function"
				},
				{
					"inputs": [],
					"name": "reserve1",
					"outputs": [
						{
							"internalType": "uint256",
							"name": "",
							"type": "uint256"
						}
					],
					"stateMutability": "view",
					"type": "function"
				},
				{
					"inputs": [
						{
							"internalType": "address",
							"name": "_tokenIn",
							"type": "address"
						},
						{
							"internalType": "uint256",
							"name": "_amount",
							"type": "uint256"
						}
					],
					"name": "swap",
					"outputs": [],
					"stateMutability": "nonpayable",
					"type": "function"
				},
				{
					"inputs": [],
					"name": "token0",
					"outputs": [
						{
							"internalType": "contract IERC20",
							"name": "",
							"type": "address"
						}
					],
					"stateMutability": "view",
					"type": "function"
				},
				{
					"inputs": [],
					"name": "token1",
					"outputs": [
						{
							"internalType": "contract IERC20",
							"name": "",
							"type": "address"
						}
					],
					"stateMutability": "view",
					"type": "function"
				},
				{
					"inputs": [],
					"name": "totalBlance",
					"outputs": [
						{
							"internalType": "uint256",
							"name": "",
							"type": "uint256"
						}
					],
					"stateMutability": "view",
					"type": "function"
				}
			],
			"devdoc": {
				"kind": "dev",
				"methods": {},
				"version": 1
			},
			"evm": {
				"assembly": "    /* \"contracts/CSAMM/CSAMM.sol\":1819:5421  contract CSAMM{\r... */\n  mstore(0x40, 0xc0)\n    /* \"contracts/CSAMM/CSAMM.sol\":2257:2380  constructor(address _token0, address _token1){\r... */\n  callvalue\n  dup1\n  iszero\n  tag_1\n  jumpi\n  0x00\n  dup1\n  revert\ntag_1:\n  pop\n  mload(0x40)\n  sub(codesize, bytecodeSize)\n  dup1\n  bytecodeSize\n  dup4\n  codecopy\n  dup2\n  dup2\n  add\n  0x40\n  mstore\n  dup2\n  add\n  swap1\n  tag_2\n  swap2\n  swap1\n  tag_3\n  jump\t// in\ntag_2:\n    /* \"contracts/CSAMM/CSAMM.sol\":2329:2336  _token0 */\n  dup2\n    /* \"contracts/CSAMM/CSAMM.sol\":2313:2337  token0 = IERC20(_token0) */\n  0xffffffffffffffffffffffffffffffffffffffff\n  and\n  0x80\n  dup2\n  0xffffffffffffffffffffffffffffffffffffffff\n  and\n  0x60\n  shl\n  dup2\n  mstore\n  pop\n  pop\n    /* \"contracts/CSAMM/CSAMM.sol\":2364:2371  _token1 */\n  dup1\n    /* \"contracts/CSAMM/CSAMM.sol\":2348:2372  token1 = IERC20(_token1) */\n  0xffffffffffffffffffffffffffffffffffffffff\n  and\n  0xa0\n  dup2\n  0xffffffffffffffffffffffffffffffffffffffff\n  and\n  0x60\n  shl\n  dup2\n  mstore\n  pop\n  pop\n    /* \"contracts/CSAMM/CSAMM.sol\":2257:2380  constructor(address _token0, address _token1){\r... */\n  pop\n  pop\n    /* \"contracts/CSAMM/CSAMM.sol\":1819:5421  contract CSAMM{\r... */\n  jump(tag_6)\n    /* \"#utility.yul\":7:150   */\ntag_8:\n    /* \"#utility.yul\":64:69   */\n  0x00\n    /* \"#utility.yul\":95:101   */\n  dup2\n    /* \"#utility.yul\":89:102   */\n  mload\n    /* \"#utility.yul\":80:102   */\n  swap1\n  pop\n    /* \"#utility.yul\":111:144   */\n  tag_10\n    /* \"#utility.yul\":138:143   */\n  dup2\n    /* \"#utility.yul\":111:144   */\n  tag_11\n  jump\t// in\ntag_10:\n    /* \"#utility.yul\":70:150   */\n  swap3\n  swap2\n  pop\n  pop\n  jump\t// out\n    /* \"#utility.yul\":156:596   */\ntag_3:\n    /* \"#utility.yul\":235:241   */\n  0x00\n    /* \"#utility.yul\":243:249   */\n  dup1\n    /* \"#utility.yul\":292:294   */\n  0x40\n    /* \"#utility.yul\":280:289   */\n  dup4\n    /* \"#utility.yul\":271:278   */\n  dup6\n    /* \"#utility.yul\":267:290   */\n  sub\n    /* \"#utility.yul\":263:295   */\n  slt\n    /* \"#utility.yul\":260:262   */\n  iszero\n  tag_13\n  jumpi\n    /* \"#utility.yul\":308:309   */\n  0x00\n    /* \"#utility.yul\":305:306   */\n  dup1\n    /* \"#utility.yul\":298:310   */\n  revert\n    /* \"#utility.yul\":260:262   */\ntag_13:\n    /* \"#utility.yul\":351:352   */\n  0x00\n    /* \"#utility.yul\":376:440   */\n  tag_14\n    /* \"#utility.yul\":432:439   */\n  dup6\n    /* \"#utility.yul\":423:429   */\n  dup3\n    /* \"#utility.yul\":412:421   */\n  dup7\n    /* \"#utility.yul\":408:430   */\n  add\n    /* \"#utility.yul\":376:440   */\n  tag_8\n  jump\t// in\ntag_14:\n    /* \"#utility.yul\":366:440   */\n  swap3\n  pop\n    /* \"#utility.yul\":322:450   */\n  pop\n    /* \"#utility.yul\":489:491   */\n  0x20\n    /* \"#utility.yul\":515:579   */\n  tag_15\n    /* \"#utility.yul\":571:578   */\n  dup6\n    /* \"#utility.yul\":562:568   */\n  dup3\n    /* \"#utility.yul\":551:560   */\n  dup7\n    /* \"#utility.yul\":547:569   */\n  add\n    /* \"#utility.yul\":515:579   */\n  tag_8\n  jump\t// in\ntag_15:\n    /* \"#utility.yul\":505:579   */\n  swap2\n  pop\n    /* \"#utility.yul\":460:589   */\n  pop\n    /* \"#utility.yul\":250:596   */\n  swap3\n  pop\n  swap3\n  swap1\n  pop\n  jump\t// out\n    /* \"#utility.yul\":602:698   */\ntag_16:\n    /* \"#utility.yul\":639:646   */\n  0x00\n    /* \"#utility.yul\":668:692   */\n  tag_18\n    /* \"#utility.yul\":686:691   */\n  dup3\n    /* \"#utility.yul\":668:692   */\n  tag_19\n  jump\t// in\ntag_18:\n    /* \"#utility.yul\":657:692   */\n  swap1\n  pop\n    /* \"#utility.yul\":647:698   */\n  swap2\n  swap1\n  pop\n  jump\t// out\n    /* \"#utility.yul\":704:830   */\ntag_19:\n    /* \"#utility.yul\":741:748   */\n  0x00\n    /* \"#utility.yul\":781:823   */\n  0xffffffffffffffffffffffffffffffffffffffff\n    /* \"#utility.yul\":774:779   */\n  dup3\n    /* \"#utility.yul\":770:824   */\n  and\n    /* \"#utility.yul\":759:824   */\n  swap1\n  pop\n    /* \"#utility.yul\":749:830   */\n  swap2\n  swap1\n  pop\n  jump\t// out\n    /* \"#utility.yul\":836:958   */\ntag_11:\n    /* \"#utility.yul\":909:933   */\n  tag_22\n    /* \"#utility.yul\":927:932   */\n  dup2\n    /* \"#utility.yul\":909:933   */\n  tag_16\n  jump\t// in\ntag_22:\n    /* \"#utility.yul\":902:907   */\n  dup2\n    /* \"#utility.yul\":899:934   */\n  eq\n    /* \"#utility.yul\":889:891   */\n  tag_23\n  jumpi\n    /* \"#utility.yul\":948:949   */\n  0x00\n    /* \"#utility.yul\":945:946   */\n  dup1\n    /* \"#utility.yul\":938:950   */\n  revert\n    /* \"#utility.yul\":889:891   */\ntag_23:\n    /* \"#utility.yul\":879:958   */\n  pop\n  jump\t// out\n    /* \"contracts/CSAMM/CSAMM.sol\":1819:5421  contract CSAMM{\r... */\ntag_6:\n  shr(0x60, mload(0x80))\n  shr(0x60, mload(0xa0))\n  codecopy(0x00, dataOffset(sub_0), dataSize(sub_0))\n  0x00\n  assignImmutable(\"0x742ccb3c5ad7b0e2030ad7fa03711e32b9f4236452343c6e16a6cf67d464d149\")\n  0x00\n  assignImmutable(\"0x7fe86492ed9171487feeb17b76d71244c5fb104d897816bb03a924e5871f3fa3\")\n  return(0x00, dataSize(sub_0))\nstop\n\nsub_0: assembly {\n        /* \"contracts/CSAMM/CSAMM.sol\":1819:5421  contract CSAMM{\r... */\n      mstore(0x40, 0x80)\n      callvalue\n      dup1\n      iszero\n      tag_1\n      jumpi\n      0x00\n      dup1\n      revert\n    tag_1:\n      pop\n      jumpi(tag_2, lt(calldatasize, 0x04))\n      shr(0xe0, calldataload(0x00))\n      dup1\n      0x7464fc3d\n      gt\n      tag_14\n      jumpi\n      dup1\n      0x7464fc3d\n      eq\n      tag_8\n      jumpi\n      dup1\n      0x9c8f9f23\n      eq\n      tag_9\n      jumpi\n      dup1\n      0x9cd441da\n      eq\n      tag_10\n      jumpi\n      dup1\n      0xb4f40c61\n      eq\n      tag_11\n      jumpi\n      dup1\n      0xd004f0f7\n      eq\n      tag_12\n      jumpi\n      dup1\n      0xd21220a7\n      eq\n      tag_13\n      jumpi\n      jump(tag_2)\n    tag_14:\n      dup1\n      0x0cb4b780\n      eq\n      tag_3\n      jumpi\n      dup1\n      0x0dfe1681\n      eq\n      tag_4\n      jumpi\n      dup1\n      0x443cb4bc\n      eq\n      tag_5\n      jumpi\n      dup1\n      0x5a76f25e\n      eq\n      tag_6\n      jumpi\n      dup1\n      0x70a08231\n      eq\n      tag_7\n      jumpi\n    tag_2:\n      0x00\n      dup1\n      revert\n        /* \"contracts/CSAMM/CSAMM.sol\":2143:2169  uint256 public totalBlance */\n    tag_3:\n      tag_15\n      tag_16\n      jump\t// in\n    tag_15:\n      mload(0x40)\n      tag_17\n      swap2\n      swap1\n      tag_18\n      jump\t// in\n    tag_17:\n      mload(0x40)\n      dup1\n      swap2\n      sub\n      swap1\n      return\n        /* \"contracts/CSAMM/CSAMM.sol\":1869:1899  IERC20 public immutable token0 */\n    tag_4:\n      tag_19\n      tag_20\n      jump\t// in\n    tag_19:\n      mload(0x40)\n      tag_21\n      swap2\n      swap1\n      tag_22\n      jump\t// in\n    tag_21:\n      mload(0x40)\n      dup1\n      swap2\n      sub\n      swap1\n      return\n        /* \"contracts/CSAMM/CSAMM.sol\":1986:2009  uint256 public reserve0 */\n    tag_5:\n      tag_23\n      tag_24\n      jump\t// in\n    tag_23:\n      mload(0x40)\n      tag_25\n      swap2\n      swap1\n      tag_18\n      jump\t// in\n    tag_25:\n      mload(0x40)\n      dup1\n      swap2\n      sub\n      swap1\n      return\n        /* \"contracts/CSAMM/CSAMM.sol\":2016:2039  uint256 public reserve1 */\n    tag_6:\n      tag_26\n      tag_27\n      jump\t// in\n    tag_26:\n      mload(0x40)\n      tag_28\n      swap2\n      swap1\n      tag_18\n      jump\t// in\n    tag_28:\n      mload(0x40)\n      dup1\n      swap2\n      sub\n      swap1\n      return\n        /* \"contracts/CSAMM/CSAMM.sol\":2202:2246  mapping(address => uint256) public balanceOf */\n    tag_7:\n      tag_29\n      0x04\n      dup1\n      calldatasize\n      sub\n      dup2\n      add\n      swap1\n      tag_30\n      swap2\n      swap1\n      tag_31\n      jump\t// in\n    tag_30:\n      tag_32\n      jump\t// in\n    tag_29:\n      mload(0x40)\n      tag_33\n      swap2\n      swap1\n      tag_18\n      jump\t// in\n    tag_33:\n      mload(0x40)\n      dup1\n      swap2\n      sub\n      swap1\n      return\n        /* \"contracts/CSAMM/CSAMM.sol\":2090:2110  uint256 public kLast */\n    tag_8:\n      tag_34\n      tag_35\n      jump\t// in\n    tag_34:\n      mload(0x40)\n      tag_36\n      swap2\n      swap1\n      tag_18\n      jump\t// in\n    tag_36:\n      mload(0x40)\n      dup1\n      swap2\n      sub\n      swap1\n      return\n        /* \"contracts/CSAMM/CSAMM.sol\":3784:4272  function removeLiquidity(uint256 _shares) external  {\r... */\n    tag_9:\n      tag_37\n      0x04\n      dup1\n      calldatasize\n      sub\n      dup2\n      add\n      swap1\n      tag_38\n      swap2\n      swap1\n      tag_39\n      jump\t// in\n    tag_38:\n      tag_40\n      jump\t// in\n    tag_37:\n      stop\n        /* \"contracts/CSAMM/CSAMM.sol\":2960:3753  function addLiquidity(uint256 amount0, uint256 amount1) external  {\r... */\n    tag_10:\n      tag_41\n      0x04\n      dup1\n      calldatasize\n      sub\n      dup2\n      add\n      swap1\n      tag_42\n      swap2\n      swap1\n      tag_43\n      jump\t// in\n    tag_42:\n      tag_44\n      jump\t// in\n    tag_41:\n      stop\n        /* \"contracts/CSAMM/CSAMM.sol\":2843:2929  function k() public view returns(uint256){\r... */\n    tag_11:\n      tag_45\n      tag_46\n      jump\t// in\n    tag_45:\n      mload(0x40)\n      tag_47\n      swap2\n      swap1\n      tag_18\n      jump\t// in\n    tag_47:\n      mload(0x40)\n      dup1\n      swap2\n      sub\n      swap1\n      return\n        /* \"contracts/CSAMM/CSAMM.sol\":4300:5418  function swap(address _tokenIn,uint256 _amount) external  {\r... */\n    tag_12:\n      tag_48\n      0x04\n      dup1\n      calldatasize\n      sub\n      dup2\n      add\n      swap1\n      tag_49\n      swap2\n      swap1\n      tag_50\n      jump\t// in\n    tag_49:\n      tag_51\n      jump\t// in\n    tag_48:\n      stop\n        /* \"contracts/CSAMM/CSAMM.sol\":1906:1936  IERC20 public immutable token1 */\n    tag_13:\n      tag_52\n      tag_53\n      jump\t// in\n    tag_52:\n      mload(0x40)\n      tag_54\n      swap2\n      swap1\n      tag_22\n      jump\t// in\n    tag_54:\n      mload(0x40)\n      dup1\n      swap2\n      sub\n      swap1\n      return\n        /* \"contracts/CSAMM/CSAMM.sol\":2143:2169  uint256 public totalBlance */\n    tag_16:\n      sload(0x03)\n      dup2\n      jump\t// out\n        /* \"contracts/CSAMM/CSAMM.sol\":1869:1899  IERC20 public immutable token0 */\n    tag_20:\n      immutable(\"0x7fe86492ed9171487feeb17b76d71244c5fb104d897816bb03a924e5871f3fa3\")\n      dup2\n      jump\t// out\n        /* \"contracts/CSAMM/CSAMM.sol\":1986:2009  uint256 public reserve0 */\n    tag_24:\n      sload(0x00)\n      dup2\n      jump\t// out\n        /* \"contracts/CSAMM/CSAMM.sol\":2016:2039  uint256 public reserve1 */\n    tag_27:\n      sload(0x01)\n      dup2\n      jump\t// out\n        /* \"contracts/CSAMM/CSAMM.sol\":2202:2246  mapping(address => uint256) public balanceOf */\n    tag_32:\n      mstore(0x20, 0x04)\n      dup1\n      0x00\n      mstore\n      keccak256(0x00, 0x40)\n      0x00\n      swap2\n      pop\n      swap1\n      pop\n      sload\n      dup2\n      jump\t// out\n        /* \"contracts/CSAMM/CSAMM.sol\":2090:2110  uint256 public kLast */\n    tag_35:\n      sload(0x02)\n      dup2\n      jump\t// out\n        /* \"contracts/CSAMM/CSAMM.sol\":3784:4272  function removeLiquidity(uint256 _shares) external  {\r... */\n    tag_40:\n        /* \"contracts/CSAMM/CSAMM.sol\":3847:3857  uint256 d0 */\n      0x00\n        /* \"contracts/CSAMM/CSAMM.sol\":3884:3895  totalBlance */\n      sload(0x03)\n        /* \"contracts/CSAMM/CSAMM.sol\":3872:3880  reserve0 */\n      sload(0x00)\n        /* \"contracts/CSAMM/CSAMM.sol\":3862:3869  _shares */\n      dup4\n        /* \"contracts/CSAMM/CSAMM.sol\":3862:3880  _shares * reserve0 */\n      tag_56\n      swap2\n      swap1\n      tag_57\n      jump\t// in\n    tag_56:\n        /* \"contracts/CSAMM/CSAMM.sol\":3861:3895  (_shares * reserve0) / totalBlance */\n      tag_58\n      swap2\n      swap1\n      tag_59\n      jump\t// in\n    tag_58:\n        /* \"contracts/CSAMM/CSAMM.sol\":3847:3895  uint256 d0 =  (_shares * reserve0) / totalBlance */\n      swap1\n      pop\n        /* \"contracts/CSAMM/CSAMM.sol\":3906:3916  uint256 d1 */\n      0x00\n        /* \"contracts/CSAMM/CSAMM.sol\":3943:3954  totalBlance */\n      sload(0x03)\n        /* \"contracts/CSAMM/CSAMM.sol\":3931:3939  reserve1 */\n      sload(0x01)\n        /* \"contracts/CSAMM/CSAMM.sol\":3921:3928  _shares */\n      dup5\n        /* \"contracts/CSAMM/CSAMM.sol\":3921:3939  _shares * reserve1 */\n      tag_60\n      swap2\n      swap1\n      tag_57\n      jump\t// in\n    tag_60:\n        /* \"contracts/CSAMM/CSAMM.sol\":3920:3954  (_shares * reserve1) / totalBlance */\n      tag_61\n      swap2\n      swap1\n      tag_59\n      jump\t// in\n    tag_61:\n        /* \"contracts/CSAMM/CSAMM.sol\":3906:3954  uint256 d1 =  (_shares * reserve1) / totalBlance */\n      swap1\n      pop\n        /* \"contracts/CSAMM/CSAMM.sol\":3989:4014  _burn(msg.sender,_shares) */\n      tag_62\n        /* \"contracts/CSAMM/CSAMM.sol\":3995:4005  msg.sender */\n      caller\n        /* \"contracts/CSAMM/CSAMM.sol\":4006:4013  _shares */\n      dup5\n        /* \"contracts/CSAMM/CSAMM.sol\":3989:3994  _burn */\n      tag_63\n        /* \"contracts/CSAMM/CSAMM.sol\":3989:4014  _burn(msg.sender,_shares) */\n      jump\t// in\n    tag_62:\n        /* \"contracts/CSAMM/CSAMM.sol\":4067:4104  _update(reserve0 - d0, reserve1 - d1) */\n      tag_64\n        /* \"contracts/CSAMM/CSAMM.sol\":4086:4088  d0 */\n      dup3\n        /* \"contracts/CSAMM/CSAMM.sol\":4075:4083  reserve0 */\n      sload(0x00)\n        /* \"contracts/CSAMM/CSAMM.sol\":4075:4088  reserve0 - d0 */\n      tag_65\n      swap2\n      swap1\n      tag_66\n      jump\t// in\n    tag_65:\n        /* \"contracts/CSAMM/CSAMM.sol\":4101:4103  d1 */\n      dup3\n        /* \"contracts/CSAMM/CSAMM.sol\":4090:4098  reserve1 */\n      sload(0x01)\n        /* \"contracts/CSAMM/CSAMM.sol\":4090:4103  reserve1 - d1 */\n      tag_67\n      swap2\n      swap1\n      tag_66\n      jump\t// in\n    tag_67:\n        /* \"contracts/CSAMM/CSAMM.sol\":4067:4074  _update */\n      tag_68\n        /* \"contracts/CSAMM/CSAMM.sol\":4067:4104  _update(reserve0 - d0, reserve1 - d1) */\n      jump\t// in\n    tag_64:\n        /* \"contracts/CSAMM/CSAMM.sol\":4124:4125  0 */\n      0x00\n        /* \"contracts/CSAMM/CSAMM.sol\":4119:4121  d0 */\n      dup3\n        /* \"contracts/CSAMM/CSAMM.sol\":4119:4125  d0 > 0 */\n      gt\n        /* \"contracts/CSAMM/CSAMM.sol\":4115:4184  if (d0 > 0){\r... */\n      iszero\n      tag_69\n      jumpi\n        /* \"contracts/CSAMM/CSAMM.sol\":4141:4147  token0 */\n      immutable(\"0x7fe86492ed9171487feeb17b76d71244c5fb104d897816bb03a924e5871f3fa3\")\n        /* \"contracts/CSAMM/CSAMM.sol\":4141:4156  token0.transfer */\n      0xffffffffffffffffffffffffffffffffffffffff\n      and\n      0xa9059cbb\n        /* \"contracts/CSAMM/CSAMM.sol\":4157:4167  msg.sender */\n      caller\n        /* \"contracts/CSAMM/CSAMM.sol\":4169:4171  d0 */\n      dup5\n        /* \"contracts/CSAMM/CSAMM.sol\":4141:4172  token0.transfer(msg.sender, d0) */\n      mload(0x40)\n      dup4\n      0xffffffff\n      and\n      0xe0\n      shl\n      dup2\n      mstore\n      0x04\n      add\n      tag_70\n      swap3\n      swap2\n      swap1\n      tag_71\n      jump\t// in\n    tag_70:\n      0x20\n      mload(0x40)\n      dup1\n      dup4\n      sub\n      dup2\n      0x00\n      dup8\n      dup1\n      extcodesize\n      iszero\n      dup1\n      iszero\n      tag_72\n      jumpi\n      0x00\n      dup1\n      revert\n    tag_72:\n      pop\n      gas\n      call\n      iszero\n      dup1\n      iszero\n      tag_74\n      jumpi\n      returndatasize\n      0x00\n      dup1\n      returndatacopy\n      revert(0x00, returndatasize)\n    tag_74:\n      pop\n      pop\n      pop\n      pop\n      mload(0x40)\n      returndatasize\n      not(0x1f)\n      0x1f\n      dup3\n      add\n      and\n      dup3\n      add\n      dup1\n      0x40\n      mstore\n      pop\n      dup2\n      add\n      swap1\n      tag_75\n      swap2\n      swap1\n      tag_76\n      jump\t// in\n    tag_75:\n      pop\n        /* \"contracts/CSAMM/CSAMM.sol\":4115:4184  if (d0 > 0){\r... */\n    tag_69:\n        /* \"contracts/CSAMM/CSAMM.sol\":4205:4206  0 */\n      0x00\n        /* \"contracts/CSAMM/CSAMM.sol\":4200:4202  d1 */\n      dup2\n        /* \"contracts/CSAMM/CSAMM.sol\":4200:4206  d1 > 0 */\n      gt\n        /* \"contracts/CSAMM/CSAMM.sol\":4196:4265  if (d1 > 0){\r... */\n      iszero\n      tag_77\n      jumpi\n        /* \"contracts/CSAMM/CSAMM.sol\":4222:4228  token1 */\n      immutable(\"0x742ccb3c5ad7b0e2030ad7fa03711e32b9f4236452343c6e16a6cf67d464d149\")\n        /* \"contracts/CSAMM/CSAMM.sol\":4222:4237  token1.transfer */\n      0xffffffffffffffffffffffffffffffffffffffff\n      and\n      0xa9059cbb\n        /* \"contracts/CSAMM/CSAMM.sol\":4238:4248  msg.sender */\n      caller\n        /* \"contracts/CSAMM/CSAMM.sol\":4250:4252  d1 */\n      dup4\n        /* \"contracts/CSAMM/CSAMM.sol\":4222:4253  token1.transfer(msg.sender, d1) */\n      mload(0x40)\n      dup4\n      0xffffffff\n      and\n      0xe0\n      shl\n      dup2\n      mstore\n      0x04\n      add\n      tag_78\n      swap3\n      swap2\n      swap1\n      tag_71\n      jump\t// in\n    tag_78:\n      0x20\n      mload(0x40)\n      dup1\n      dup4\n      sub\n      dup2\n      0x00\n      dup8\n      dup1\n      extcodesize\n      iszero\n      dup1\n      iszero\n      tag_79\n      jumpi\n      0x00\n      dup1\n      revert\n    tag_79:\n      pop\n      gas\n      call\n      iszero\n      dup1\n      iszero\n      tag_81\n      jumpi\n      returndatasize\n      0x00\n      dup1\n      returndatacopy\n      revert(0x00, returndatasize)\n    tag_81:\n      pop\n      pop\n      pop\n      pop\n      mload(0x40)\n      returndatasize\n      not(0x1f)\n      0x1f\n      dup3\n      add\n      and\n      dup3\n      add\n      dup1\n      0x40\n      mstore\n      pop\n      dup2\n      add\n      swap1\n      tag_82\n      swap2\n      swap1\n      tag_76\n      jump\t// in\n    tag_82:\n      pop\n        /* \"contracts/CSAMM/CSAMM.sol\":4196:4265  if (d1 > 0){\r... */\n    tag_77:\n        /* \"contracts/CSAMM/CSAMM.sol\":3784:4272  function removeLiquidity(uint256 _shares) external  {\r... */\n      pop\n      pop\n      pop\n      jump\t// out\n        /* \"contracts/CSAMM/CSAMM.sol\":2960:3753  function addLiquidity(uint256 amount0, uint256 amount1) external  {\r... */\n    tag_44:\n        /* \"contracts/CSAMM/CSAMM.sol\":3079:3085  token0 */\n      immutable(\"0x7fe86492ed9171487feeb17b76d71244c5fb104d897816bb03a924e5871f3fa3\")\n        /* \"contracts/CSAMM/CSAMM.sol\":3079:3098  token0.transferFrom */\n      0xffffffffffffffffffffffffffffffffffffffff\n      and\n      0x23b872dd\n        /* \"contracts/CSAMM/CSAMM.sol\":3099:3109  msg.sender */\n      caller\n        /* \"contracts/CSAMM/CSAMM.sol\":3118:3122  this */\n      address\n        /* \"contracts/CSAMM/CSAMM.sol\":3124:3131  amount0 */\n      dup6\n        /* \"contracts/CSAMM/CSAMM.sol\":3079:3132  token0.transferFrom(msg.sender,address(this),amount0) */\n      mload(0x40)\n      dup5\n      0xffffffff\n      and\n      0xe0\n      shl\n      dup2\n      mstore\n      0x04\n      add\n      tag_84\n      swap4\n      swap3\n      swap2\n      swap1\n      tag_85\n      jump\t// in\n    tag_84:\n      0x20\n      mload(0x40)\n      dup1\n      dup4\n      sub\n      dup2\n      0x00\n      dup8\n      dup1\n      extcodesize\n      iszero\n      dup1\n      iszero\n      tag_86\n      jumpi\n      0x00\n      dup1\n      revert\n    tag_86:\n      pop\n      gas\n      call\n      iszero\n      dup1\n      iszero\n      tag_88\n      jumpi\n      returndatasize\n      0x00\n      dup1\n      returndatacopy\n      revert(0x00, returndatasize)\n    tag_88:\n      pop\n      pop\n      pop\n      pop\n      mload(0x40)\n      returndatasize\n      not(0x1f)\n      0x1f\n      dup3\n      add\n      and\n      dup3\n      add\n      dup1\n      0x40\n      mstore\n      pop\n      dup2\n      add\n      swap1\n      tag_89\n      swap2\n      swap1\n      tag_76\n      jump\t// in\n    tag_89:\n      pop\n        /* \"contracts/CSAMM/CSAMM.sol\":3143:3149  token1 */\n      immutable(\"0x742ccb3c5ad7b0e2030ad7fa03711e32b9f4236452343c6e16a6cf67d464d149\")\n        /* \"contracts/CSAMM/CSAMM.sol\":3143:3162  token1.transferFrom */\n      0xffffffffffffffffffffffffffffffffffffffff\n      and\n      0x23b872dd\n        /* \"contracts/CSAMM/CSAMM.sol\":3163:3173  msg.sender */\n      caller\n        /* \"contracts/CSAMM/CSAMM.sol\":3182:3186  this */\n      address\n        /* \"contracts/CSAMM/CSAMM.sol\":3188:3195  amount1 */\n      dup5\n        /* \"contracts/CSAMM/CSAMM.sol\":3143:3196  token1.transferFrom(msg.sender,address(this),amount1) */\n      mload(0x40)\n      dup5\n      0xffffffff\n      and\n      0xe0\n      shl\n      dup2\n      mstore\n      0x04\n      add\n      tag_90\n      swap4\n      swap3\n      swap2\n      swap1\n      tag_85\n      jump\t// in\n    tag_90:\n      0x20\n      mload(0x40)\n      dup1\n      dup4\n      sub\n      dup2\n      0x00\n      dup8\n      dup1\n      extcodesize\n      iszero\n      dup1\n      iszero\n      tag_91\n      jumpi\n      0x00\n      dup1\n      revert\n    tag_91:\n      pop\n      gas\n      call\n      iszero\n      dup1\n      iszero\n      tag_93\n      jumpi\n      returndatasize\n      0x00\n      dup1\n      returndatacopy\n      revert(0x00, returndatasize)\n    tag_93:\n      pop\n      pop\n      pop\n      pop\n      mload(0x40)\n      returndatasize\n      not(0x1f)\n      0x1f\n      dup3\n      add\n      and\n      dup3\n      add\n      dup1\n      0x40\n      mstore\n      pop\n      dup2\n      add\n      swap1\n      tag_94\n      swap2\n      swap1\n      tag_76\n      jump\t// in\n    tag_94:\n      pop\n        /* \"contracts/CSAMM/CSAMM.sol\":3233:3245  uint256 bal0 */\n      0x00\n        /* \"contracts/CSAMM/CSAMM.sol\":3248:3254  token0 */\n      immutable(\"0x7fe86492ed9171487feeb17b76d71244c5fb104d897816bb03a924e5871f3fa3\")\n        /* \"contracts/CSAMM/CSAMM.sol\":3248:3264  token0.balanceOf */\n      0xffffffffffffffffffffffffffffffffffffffff\n      and\n      0x70a08231\n        /* \"contracts/CSAMM/CSAMM.sol\":3273:3277  this */\n      address\n        /* \"contracts/CSAMM/CSAMM.sol\":3248:3279  token0.balanceOf(address(this)) */\n      mload(0x40)\n      dup3\n      0xffffffff\n      and\n      0xe0\n      shl\n      dup2\n      mstore\n      0x04\n      add\n      tag_95\n      swap2\n      swap1\n      tag_96\n      jump\t// in\n    tag_95:\n      0x20\n      mload(0x40)\n      dup1\n      dup4\n      sub\n      dup2\n      dup7\n      dup1\n      extcodesize\n      iszero\n      dup1\n      iszero\n      tag_97\n      jumpi\n      0x00\n      dup1\n      revert\n    tag_97:\n      pop\n      gas\n      staticcall\n      iszero\n      dup1\n      iszero\n      tag_99\n      jumpi\n      returndatasize\n      0x00\n      dup1\n      returndatacopy\n      revert(0x00, returndatasize)\n    tag_99:\n      pop\n      pop\n      pop\n      pop\n      mload(0x40)\n      returndatasize\n      not(0x1f)\n      0x1f\n      dup3\n      add\n      and\n      dup3\n      add\n      dup1\n      0x40\n      mstore\n      pop\n      dup2\n      add\n      swap1\n      tag_100\n      swap2\n      swap1\n      tag_101\n      jump\t// in\n    tag_100:\n        /* \"contracts/CSAMM/CSAMM.sol\":3233:3279  uint256 bal0 = token0.balanceOf(address(this)) */\n      swap1\n      pop\n        /* \"contracts/CSAMM/CSAMM.sol\":3290:3302  uint256 bal1 */\n      0x00\n        /* \"contracts/CSAMM/CSAMM.sol\":3305:3311  token1 */\n      immutable(\"0x742ccb3c5ad7b0e2030ad7fa03711e32b9f4236452343c6e16a6cf67d464d149\")\n        /* \"contracts/CSAMM/CSAMM.sol\":3305:3321  token1.balanceOf */\n      0xffffffffffffffffffffffffffffffffffffffff\n      and\n      0x70a08231\n        /* \"contracts/CSAMM/CSAMM.sol\":3330:3334  this */\n      address\n        /* \"contracts/CSAMM/CSAMM.sol\":3305:3336  token1.balanceOf(address(this)) */\n      mload(0x40)\n      dup3\n      0xffffffff\n      and\n      0xe0\n      shl\n      dup2\n      mstore\n      0x04\n      add\n      tag_102\n      swap2\n      swap1\n      tag_96\n      jump\t// in\n    tag_102:\n      0x20\n      mload(0x40)\n      dup1\n      dup4\n      sub\n      dup2\n      dup7\n      dup1\n      extcodesize\n      iszero\n      dup1\n      iszero\n      tag_103\n      jumpi\n      0x00\n      dup1\n      revert\n    tag_103:\n      pop\n      gas\n      staticcall\n      iszero\n      dup1\n      iszero\n      tag_105\n      jumpi\n      returndatasize\n      0x00\n      dup1\n      returndatacopy\n      revert(0x00, returndatasize)\n    tag_105:\n      pop\n      pop\n      pop\n      pop\n      mload(0x40)\n      returndatasize\n      not(0x1f)\n      0x1f\n      dup3\n      add\n      and\n      dup3\n      add\n      dup1\n      0x40\n      mstore\n      pop\n      dup2\n      add\n      swap1\n      tag_106\n      swap2\n      swap1\n      tag_101\n      jump\t// in\n    tag_106:\n        /* \"contracts/CSAMM/CSAMM.sol\":3290:3336  uint256 bal1 = token1.balanceOf(address(this)) */\n      swap1\n      pop\n        /* \"contracts/CSAMM/CSAMM.sol\":3349:3359  uint256 d0 */\n      0x00\n        /* \"contracts/CSAMM/CSAMM.sol\":3369:3377  reserve0 */\n      dup1\n      sload\n        /* \"contracts/CSAMM/CSAMM.sol\":3362:3366  bal0 */\n      dup4\n        /* \"contracts/CSAMM/CSAMM.sol\":3362:3377  bal0 - reserve0 */\n      tag_107\n      swap2\n      swap1\n      tag_66\n      jump\t// in\n    tag_107:\n        /* \"contracts/CSAMM/CSAMM.sol\":3349:3377  uint256 d0 = bal0 - reserve0 */\n      swap1\n      pop\n        /* \"contracts/CSAMM/CSAMM.sol\":3388:3398  uint256 d1 */\n      0x00\n        /* \"contracts/CSAMM/CSAMM.sol\":3408:3416  reserve1 */\n      sload(0x01)\n        /* \"contracts/CSAMM/CSAMM.sol\":3401:3405  bal1 */\n      dup4\n        /* \"contracts/CSAMM/CSAMM.sol\":3401:3416  bal1 - reserve1 */\n      tag_108\n      swap2\n      swap1\n      tag_66\n      jump\t// in\n    tag_108:\n        /* \"contracts/CSAMM/CSAMM.sol\":3388:3416  uint256 d1 = bal1 - reserve1 */\n      swap1\n      pop\n        /* \"contracts/CSAMM/CSAMM.sol\":3459:3472  uint256 share */\n      0x00\n        /* \"contracts/CSAMM/CSAMM.sol\":3501:3502  0 */\n      dup1\n        /* \"contracts/CSAMM/CSAMM.sol\":3487:3498  totalBlance */\n      sload(0x03)\n        /* \"contracts/CSAMM/CSAMM.sol\":3487:3502  totalBlance > 0 */\n      gt\n        /* \"contracts/CSAMM/CSAMM.sol\":3483:3642  if (totalBlance > 0){\r... */\n      iszero\n      tag_109\n      jumpi\n        /* \"contracts/CSAMM/CSAMM.sol\":3565:3573  reserve1 */\n      sload(0x01)\n        /* \"contracts/CSAMM/CSAMM.sol\":3554:3562  reserve0 */\n      sload(0x00)\n        /* \"contracts/CSAMM/CSAMM.sol\":3554:3573  reserve0 + reserve1 */\n      tag_110\n      swap2\n      swap1\n      tag_111\n      jump\t// in\n    tag_110:\n        /* \"contracts/CSAMM/CSAMM.sol\":3538:3549  totalBlance */\n      sload(0x03)\n        /* \"contracts/CSAMM/CSAMM.sol\":3532:3534  d1 */\n      dup4\n        /* \"contracts/CSAMM/CSAMM.sol\":3527:3529  d0 */\n      dup6\n        /* \"contracts/CSAMM/CSAMM.sol\":3527:3534  d0 + d1 */\n      tag_112\n      swap2\n      swap1\n      tag_111\n      jump\t// in\n    tag_112:\n        /* \"contracts/CSAMM/CSAMM.sol\":3526:3549  (d0 + d1) * totalBlance */\n      tag_113\n      swap2\n      swap1\n      tag_57\n      jump\t// in\n    tag_113:\n        /* \"contracts/CSAMM/CSAMM.sol\":3525:3574  ((d0 + d1) * totalBlance) / (reserve0 + reserve1) */\n      tag_114\n      swap2\n      swap1\n      tag_59\n      jump\t// in\n    tag_114:\n        /* \"contracts/CSAMM/CSAMM.sol\":3517:3574  share = ((d0 + d1) * totalBlance) / (reserve0 + reserve1) */\n      swap1\n      pop\n        /* \"contracts/CSAMM/CSAMM.sol\":3483:3642  if (totalBlance > 0){\r... */\n      jump(tag_115)\n    tag_109:\n        /* \"contracts/CSAMM/CSAMM.sol\":3623:3630  amount1 */\n      dup6\n        /* \"contracts/CSAMM/CSAMM.sol\":3613:3620  amount0 */\n      dup8\n        /* \"contracts/CSAMM/CSAMM.sol\":3613:3630  amount0 + amount1 */\n      tag_116\n      swap2\n      swap1\n      tag_111\n      jump\t// in\n    tag_116:\n        /* \"contracts/CSAMM/CSAMM.sol\":3605:3630  share = amount0 + amount1 */\n      swap1\n      pop\n        /* \"contracts/CSAMM/CSAMM.sol\":3483:3642  if (totalBlance > 0){\r... */\n    tag_115:\n        /* \"contracts/CSAMM/CSAMM.sol\":3663:3687  _mint(msg.sender, share) */\n      tag_117\n        /* \"contracts/CSAMM/CSAMM.sol\":3669:3679  msg.sender */\n      caller\n        /* \"contracts/CSAMM/CSAMM.sol\":3681:3686  share */\n      dup3\n        /* \"contracts/CSAMM/CSAMM.sol\":3663:3668  _mint */\n      tag_118\n        /* \"contracts/CSAMM/CSAMM.sol\":3663:3687  _mint(msg.sender, share) */\n      jump\t// in\n    tag_117:\n        /* \"contracts/CSAMM/CSAMM.sol\":3727:3745  _update(bal0,bal1) */\n      tag_119\n        /* \"contracts/CSAMM/CSAMM.sol\":3735:3739  bal0 */\n      dup6\n        /* \"contracts/CSAMM/CSAMM.sol\":3740:3744  bal1 */\n      dup6\n        /* \"contracts/CSAMM/CSAMM.sol\":3727:3734  _update */\n      tag_68\n        /* \"contracts/CSAMM/CSAMM.sol\":3727:3745  _update(bal0,bal1) */\n      jump\t// in\n    tag_119:\n        /* \"contracts/CSAMM/CSAMM.sol\":2960:3753  function addLiquidity(uint256 amount0, uint256 amount1) external  {\r... */\n      pop\n      pop\n      pop\n      pop\n      pop\n      pop\n      pop\n      jump\t// out\n        /* \"contracts/CSAMM/CSAMM.sol\":2843:2929  function k() public view returns(uint256){\r... */\n    tag_46:\n        /* \"contracts/CSAMM/CSAMM.sol\":2876:2883  uint256 */\n      0x00\n        /* \"contracts/CSAMM/CSAMM.sol\":2913:2921  reserve1 */\n      sload(0x01)\n        /* \"contracts/CSAMM/CSAMM.sol\":2902:2910  reserve0 */\n      sload(0x00)\n        /* \"contracts/CSAMM/CSAMM.sol\":2902:2921  reserve0 * reserve1 */\n      tag_121\n      swap2\n      swap1\n      tag_57\n      jump\t// in\n    tag_121:\n        /* \"contracts/CSAMM/CSAMM.sol\":2895:2921  return reserve0 * reserve1 */\n      swap1\n      pop\n        /* \"contracts/CSAMM/CSAMM.sol\":2843:2929  function k() public view returns(uint256){\r... */\n      swap1\n      jump\t// out\n        /* \"contracts/CSAMM/CSAMM.sol\":4300:5418  function swap(address _tokenIn,uint256 _amount) external  {\r... */\n    tag_51:\n        /* \"contracts/CSAMM/CSAMM.sol\":4397:4403  token0 */\n      immutable(\"0x7fe86492ed9171487feeb17b76d71244c5fb104d897816bb03a924e5871f3fa3\")\n        /* \"contracts/CSAMM/CSAMM.sol\":4377:4403  IERC20(_tokenIn) == token0 */\n      0xffffffffffffffffffffffffffffffffffffffff\n      and\n        /* \"contracts/CSAMM/CSAMM.sol\":4384:4392  _tokenIn */\n      dup3\n        /* \"contracts/CSAMM/CSAMM.sol\":4377:4403  IERC20(_tokenIn) == token0 */\n      0xffffffffffffffffffffffffffffffffffffffff\n      and\n      eq\n        /* \"contracts/CSAMM/CSAMM.sol\":4377:4433  IERC20(_tokenIn) == token0 || IERC20(_tokenIn) == token1 */\n      dup1\n      tag_123\n      jumpi\n      pop\n        /* \"contracts/CSAMM/CSAMM.sol\":4427:4433  token1 */\n      immutable(\"0x742ccb3c5ad7b0e2030ad7fa03711e32b9f4236452343c6e16a6cf67d464d149\")\n        /* \"contracts/CSAMM/CSAMM.sol\":4407:4433  IERC20(_tokenIn) == token1 */\n      0xffffffffffffffffffffffffffffffffffffffff\n      and\n        /* \"contracts/CSAMM/CSAMM.sol\":4414:4422  _tokenIn */\n      dup3\n        /* \"contracts/CSAMM/CSAMM.sol\":4407:4433  IERC20(_tokenIn) == token1 */\n      0xffffffffffffffffffffffffffffffffffffffff\n      and\n      eq\n        /* \"contracts/CSAMM/CSAMM.sol\":4377:4433  IERC20(_tokenIn) == token0 || IERC20(_tokenIn) == token1 */\n    tag_123:\n        /* \"contracts/CSAMM/CSAMM.sol\":4369:4449  require(IERC20(_tokenIn) == token0 || IERC20(_tokenIn) == token1,\"fei fa token\") */\n      tag_124\n      jumpi\n      mload(0x40)\n      0x08c379a000000000000000000000000000000000000000000000000000000000\n      dup2\n      mstore\n      0x04\n      add\n      tag_125\n      swap1\n      tag_126\n      jump\t// in\n    tag_125:\n      mload(0x40)\n      dup1\n      swap2\n      sub\n      swap1\n      revert\n    tag_124:\n        /* \"contracts/CSAMM/CSAMM.sol\":4462:4475  bool isToken0 */\n      0x00\n        /* \"contracts/CSAMM/CSAMM.sol\":4498:4504  token0 */\n      immutable(\"0x7fe86492ed9171487feeb17b76d71244c5fb104d897816bb03a924e5871f3fa3\")\n        /* \"contracts/CSAMM/CSAMM.sol\":4478:4504  IERC20(_tokenIn) == token0 */\n      0xffffffffffffffffffffffffffffffffffffffff\n      and\n        /* \"contracts/CSAMM/CSAMM.sol\":4485:4493  _tokenIn */\n      dup4\n        /* \"contracts/CSAMM/CSAMM.sol\":4478:4504  IERC20(_tokenIn) == token0 */\n      0xffffffffffffffffffffffffffffffffffffffff\n      and\n      eq\n        /* \"contracts/CSAMM/CSAMM.sol\":4462:4504  bool isToken0 = IERC20(_tokenIn) == token0 */\n      swap1\n      pop\n        /* \"contracts/CSAMM/CSAMM.sol\":4570:4584  IERC20 tokenIn */\n      0x00\n        /* \"contracts/CSAMM/CSAMM.sol\":4585:4600  IERC20 tokenOut */\n      dup1\n        /* \"contracts/CSAMM/CSAMM.sol\":4601:4614  uint256 resIn */\n      0x00\n        /* \"contracts/CSAMM/CSAMM.sol\":4615:4629  uint256 resOut */\n      dup1\n        /* \"contracts/CSAMM/CSAMM.sol\":4643:4651  isToken0 */\n      dup5\n        /* \"contracts/CSAMM/CSAMM.sol\":4643:4723  isToken0 ? (token0,token1,reserve0,reserve1) : (token1,token0,reserve1,reserve0) */\n      tag_127\n      jumpi\n        /* \"contracts/CSAMM/CSAMM.sol\":4691:4697  token1 */\n      immutable(\"0x742ccb3c5ad7b0e2030ad7fa03711e32b9f4236452343c6e16a6cf67d464d149\")\n        /* \"contracts/CSAMM/CSAMM.sol\":4698:4704  token0 */\n      immutable(\"0x7fe86492ed9171487feeb17b76d71244c5fb104d897816bb03a924e5871f3fa3\")\n        /* \"contracts/CSAMM/CSAMM.sol\":4705:4713  reserve1 */\n      sload(0x01)\n        /* \"contracts/CSAMM/CSAMM.sol\":4714:4722  reserve0 */\n      sload(0x00)\n        /* \"contracts/CSAMM/CSAMM.sol\":4643:4723  isToken0 ? (token0,token1,reserve0,reserve1) : (token1,token0,reserve1,reserve0) */\n      jump(tag_128)\n    tag_127:\n        /* \"contracts/CSAMM/CSAMM.sol\":4655:4661  token0 */\n      immutable(\"0x7fe86492ed9171487feeb17b76d71244c5fb104d897816bb03a924e5871f3fa3\")\n        /* \"contracts/CSAMM/CSAMM.sol\":4662:4668  token1 */\n      immutable(\"0x742ccb3c5ad7b0e2030ad7fa03711e32b9f4236452343c6e16a6cf67d464d149\")\n        /* \"contracts/CSAMM/CSAMM.sol\":4669:4677  reserve0 */\n      sload(0x00)\n        /* \"contracts/CSAMM/CSAMM.sol\":4678:4686  reserve1 */\n      sload(0x01)\n        /* \"contracts/CSAMM/CSAMM.sol\":4643:4723  isToken0 ? (token0,token1,reserve0,reserve1) : (token1,token0,reserve1,reserve0) */\n    tag_128:\n        /* \"contracts/CSAMM/CSAMM.sol\":4569:4723  (IERC20 tokenIn,IERC20 tokenOut,uint256 resIn,uint256 resOut) = \r... */\n      swap4\n      pop\n      swap4\n      pop\n      swap4\n      pop\n      swap4\n      pop\n        /* \"contracts/CSAMM/CSAMM.sol\":4744:4751  tokenIn */\n      dup4\n        /* \"contracts/CSAMM/CSAMM.sol\":4744:4764  tokenIn.transferFrom */\n      0xffffffffffffffffffffffffffffffffffffffff\n      and\n      0x23b872dd\n        /* \"contracts/CSAMM/CSAMM.sol\":4765:4775  msg.sender */\n      caller\n        /* \"contracts/CSAMM/CSAMM.sol\":4785:4789  this */\n      address\n        /* \"contracts/CSAMM/CSAMM.sol\":4792:4799  _amount */\n      dup10\n        /* \"contracts/CSAMM/CSAMM.sol\":4744:4800  tokenIn.transferFrom(msg.sender, address(this), _amount) */\n      mload(0x40)\n      dup5\n      0xffffffff\n      and\n      0xe0\n      shl\n      dup2\n      mstore\n      0x04\n      add\n      tag_129\n      swap4\n      swap3\n      swap2\n      swap1\n      tag_85\n      jump\t// in\n    tag_129:\n      0x20\n      mload(0x40)\n      dup1\n      dup4\n      sub\n      dup2\n      0x00\n      dup8\n      dup1\n      extcodesize\n      iszero\n      dup1\n      iszero\n      tag_130\n      jumpi\n      0x00\n      dup1\n      revert\n    tag_130:\n      pop\n      gas\n      call\n      iszero\n      dup1\n      iszero\n      tag_132\n      jumpi\n      returndatasize\n      0x00\n      dup1\n      returndatacopy\n      revert(0x00, returndatasize)\n    tag_132:\n      pop\n      pop\n      pop\n      pop\n      mload(0x40)\n      returndatasize\n      not(0x1f)\n      0x1f\n      dup3\n      add\n      and\n      dup3\n      add\n      dup1\n      0x40\n      mstore\n      pop\n      dup2\n      add\n      swap1\n      tag_133\n      swap2\n      swap1\n      tag_76\n      jump\t// in\n    tag_133:\n      pop\n        /* \"contracts/CSAMM/CSAMM.sol\":4947:4963  uint256 amountIn */\n      0x00\n        /* \"contracts/CSAMM/CSAMM.sol\":5001:5006  resIn */\n      dup3\n        /* \"contracts/CSAMM/CSAMM.sol\":4966:4973  tokenIn */\n      dup6\n        /* \"contracts/CSAMM/CSAMM.sol\":4966:4983  tokenIn.balanceOf */\n      0xffffffffffffffffffffffffffffffffffffffff\n      and\n      0x70a08231\n        /* \"contracts/CSAMM/CSAMM.sol\":4992:4996  this */\n      address\n        /* \"contracts/CSAMM/CSAMM.sol\":4966:4998  tokenIn.balanceOf(address(this)) */\n      mload(0x40)\n      dup3\n      0xffffffff\n      and\n      0xe0\n      shl\n      dup2\n      mstore\n      0x04\n      add\n      tag_134\n      swap2\n      swap1\n      tag_96\n      jump\t// in\n    tag_134:\n      0x20\n      mload(0x40)\n      dup1\n      dup4\n      sub\n      dup2\n      dup7\n      dup1\n      extcodesize\n      iszero\n      dup1\n      iszero\n      tag_135\n      jumpi\n      0x00\n      dup1\n      revert\n    tag_135:\n      pop\n      gas\n      staticcall\n      iszero\n      dup1\n      iszero\n      tag_137\n      jumpi\n      returndatasize\n      0x00\n      dup1\n      returndatacopy\n      revert(0x00, returndatasize)\n    tag_137:\n      pop\n      pop\n      pop\n      pop\n      mload(0x40)\n      returndatasize\n      not(0x1f)\n      0x1f\n      dup3\n      add\n      and\n      dup3\n      add\n      dup1\n      0x40\n      mstore\n      pop\n      dup2\n      add\n      swap1\n      tag_138\n      swap2\n      swap1\n      tag_101\n      jump\t// in\n    tag_138:\n        /* \"contracts/CSAMM/CSAMM.sol\":4966:5006  tokenIn.balanceOf(address(this)) - resIn */\n      tag_139\n      swap2\n      swap1\n      tag_66\n      jump\t// in\n    tag_139:\n        /* \"contracts/CSAMM/CSAMM.sol\":4947:5006  uint256 amountIn = tokenIn.balanceOf(address(this)) - resIn */\n      swap1\n      pop\n        /* \"contracts/CSAMM/CSAMM.sol\":5068:5091  uint256 amountInWithFee */\n      0x00\n        /* \"contracts/CSAMM/CSAMM.sol\":5113:5117  1000 */\n      0x03e8\n        /* \"contracts/CSAMM/CSAMM.sol\":5106:5109  997 */\n      0x03e5\n        /* \"contracts/CSAMM/CSAMM.sol\":5095:5103  amountIn */\n      dup4\n        /* \"contracts/CSAMM/CSAMM.sol\":5095:5109  amountIn * 997 */\n      tag_140\n      swap2\n      swap1\n      tag_57\n      jump\t// in\n    tag_140:\n        /* \"contracts/CSAMM/CSAMM.sol\":5094:5117  (amountIn * 997) / 1000 */\n      tag_141\n      swap2\n      swap1\n      tag_59\n      jump\t// in\n    tag_141:\n        /* \"contracts/CSAMM/CSAMM.sol\":5068:5117  uint256 amountInWithFee = (amountIn * 997) / 1000 */\n      swap1\n      pop\n        /* \"contracts/CSAMM/CSAMM.sol\":5183:5195  uint256 res0 */\n      0x00\n        /* \"contracts/CSAMM/CSAMM.sol\":5197:5209  uint256 res1 */\n      dup1\n        /* \"contracts/CSAMM/CSAMM.sol\":5213:5221  isToken0 */\n      dup9\n        /* \"contracts/CSAMM/CSAMM.sol\":5213:5323  isToken0 ? \r... */\n      tag_142\n      jumpi\n        /* \"contracts/CSAMM/CSAMM.sol\":5290:5305  amountInWithFee */\n      dup3\n        /* \"contracts/CSAMM/CSAMM.sol\":5281:5287  resOut */\n      dup6\n        /* \"contracts/CSAMM/CSAMM.sol\":5281:5305  resOut - amountInWithFee */\n      tag_143\n      swap2\n      swap1\n      tag_66\n      jump\t// in\n    tag_143:\n        /* \"contracts/CSAMM/CSAMM.sol\":5314:5322  amountIn */\n      dup5\n        /* \"contracts/CSAMM/CSAMM.sol\":5306:5311  resIn */\n      dup8\n        /* \"contracts/CSAMM/CSAMM.sol\":5306:5322  resIn + amountIn */\n      tag_144\n      swap2\n      swap1\n      tag_111\n      jump\t// in\n    tag_144:\n        /* \"contracts/CSAMM/CSAMM.sol\":5213:5323  isToken0 ? \r... */\n      jump(tag_145)\n    tag_142:\n        /* \"contracts/CSAMM/CSAMM.sol\":5243:5251  amountIn */\n      dup4\n        /* \"contracts/CSAMM/CSAMM.sol\":5235:5240  resIn */\n      dup7\n        /* \"contracts/CSAMM/CSAMM.sol\":5235:5251  resIn + amountIn */\n      tag_146\n      swap2\n      swap1\n      tag_111\n      jump\t// in\n    tag_146:\n        /* \"contracts/CSAMM/CSAMM.sol\":5261:5276  amountInWithFee */\n      dup4\n        /* \"contracts/CSAMM/CSAMM.sol\":5252:5258  resOut */\n      dup7\n        /* \"contracts/CSAMM/CSAMM.sol\":5252:5276  resOut - amountInWithFee */\n      tag_147\n      swap2\n      swap1\n      tag_66\n      jump\t// in\n    tag_147:\n        /* \"contracts/CSAMM/CSAMM.sol\":5213:5323  isToken0 ? \r... */\n    tag_145:\n        /* \"contracts/CSAMM/CSAMM.sol\":5182:5323  (uint256 res0, uint256 res1) = isToken0 ? \r... */\n      swap2\n      pop\n      swap2\n      pop\n        /* \"contracts/CSAMM/CSAMM.sol\":5334:5353  _update(res0, res1) */\n      tag_148\n        /* \"contracts/CSAMM/CSAMM.sol\":5342:5346  res0 */\n      dup3\n        /* \"contracts/CSAMM/CSAMM.sol\":5348:5352  res1 */\n      dup3\n        /* \"contracts/CSAMM/CSAMM.sol\":5334:5341  _update */\n      tag_68\n        /* \"contracts/CSAMM/CSAMM.sol\":5334:5353  _update(res0, res1) */\n      jump\t// in\n    tag_148:\n        /* \"contracts/CSAMM/CSAMM.sol\":5364:5372  tokenOut */\n      dup7\n        /* \"contracts/CSAMM/CSAMM.sol\":5364:5381  tokenOut.transfer */\n      0xffffffffffffffffffffffffffffffffffffffff\n      and\n      0xa9059cbb\n        /* \"contracts/CSAMM/CSAMM.sol\":5382:5392  msg.sender */\n      caller\n        /* \"contracts/CSAMM/CSAMM.sol\":5394:5409  amountInWithFee */\n      dup6\n        /* \"contracts/CSAMM/CSAMM.sol\":5364:5410  tokenOut.transfer(msg.sender, amountInWithFee) */\n      mload(0x40)\n      dup4\n      0xffffffff\n      and\n      0xe0\n      shl\n      dup2\n      mstore\n      0x04\n      add\n      tag_149\n      swap3\n      swap2\n      swap1\n      tag_71\n      jump\t// in\n    tag_149:\n      0x20\n      mload(0x40)\n      dup1\n      dup4\n      sub\n      dup2\n      0x00\n      dup8\n      dup1\n      extcodesize\n      iszero\n      dup1\n      iszero\n      tag_150\n      jumpi\n      0x00\n      dup1\n      revert\n    tag_150:\n      pop\n      gas\n      call\n      iszero\n      dup1\n      iszero\n      tag_152\n      jumpi\n      returndatasize\n      0x00\n      dup1\n      returndatacopy\n      revert(0x00, returndatasize)\n    tag_152:\n      pop\n      pop\n      pop\n      pop\n      mload(0x40)\n      returndatasize\n      not(0x1f)\n      0x1f\n      dup3\n      add\n      and\n      dup3\n      add\n      dup1\n      0x40\n      mstore\n      pop\n      dup2\n      add\n      swap1\n      tag_153\n      swap2\n      swap1\n      tag_76\n      jump\t// in\n    tag_153:\n      pop\n        /* \"contracts/CSAMM/CSAMM.sol\":4300:5418  function swap(address _tokenIn,uint256 _amount) external  {\r... */\n      pop\n      pop\n      pop\n      pop\n      pop\n      pop\n      pop\n      pop\n      pop\n      pop\n      pop\n      jump\t// out\n        /* \"contracts/CSAMM/CSAMM.sol\":1906:1936  IERC20 public immutable token1 */\n    tag_53:\n      immutable(\"0x742ccb3c5ad7b0e2030ad7fa03711e32b9f4236452343c6e16a6cf67d464d149\")\n      dup2\n      jump\t// out\n        /* \"contracts/CSAMM/CSAMM.sol\":2524:2650  function _burn(address to, uint256 amount) internal {\r... */\n    tag_63:\n        /* \"contracts/CSAMM/CSAMM.sol\":2604:2610  amount */\n      dup1\n        /* \"contracts/CSAMM/CSAMM.sol\":2587:2596  balanceOf */\n      0x04\n        /* \"contracts/CSAMM/CSAMM.sol\":2587:2600  balanceOf[to] */\n      0x00\n        /* \"contracts/CSAMM/CSAMM.sol\":2597:2599  to */\n      dup5\n        /* \"contracts/CSAMM/CSAMM.sol\":2587:2600  balanceOf[to] */\n      0xffffffffffffffffffffffffffffffffffffffff\n      and\n      0xffffffffffffffffffffffffffffffffffffffff\n      and\n      dup2\n      mstore\n      0x20\n      add\n      swap1\n      dup2\n      mstore\n      0x20\n      add\n      0x00\n      keccak256\n      0x00\n        /* \"contracts/CSAMM/CSAMM.sol\":2587:2610  balanceOf[to] -= amount */\n      dup3\n      dup3\n      sload\n      tag_155\n      swap2\n      swap1\n      tag_66\n      jump\t// in\n    tag_155:\n      swap3\n      pop\n      pop\n      dup2\n      swap1\n      sstore\n      pop\n        /* \"contracts/CSAMM/CSAMM.sol\":2636:2642  amount */\n      dup1\n        /* \"contracts/CSAMM/CSAMM.sol\":2621:2632  totalBlance */\n      0x03\n      0x00\n        /* \"contracts/CSAMM/CSAMM.sol\":2621:2642  totalBlance -= amount */\n      dup3\n      dup3\n      sload\n      tag_156\n      swap2\n      swap1\n      tag_66\n      jump\t// in\n    tag_156:\n      swap3\n      pop\n      pop\n      dup2\n      swap1\n      sstore\n      pop\n        /* \"contracts/CSAMM/CSAMM.sol\":2524:2650  function _burn(address to, uint256 amount) internal {\r... */\n      pop\n      pop\n      jump\t// out\n        /* \"contracts/CSAMM/CSAMM.sol\":2660:2794  function _update(uint256 _reserve0, uint256 _reserve1) internal {\r... */\n    tag_68:\n        /* \"contracts/CSAMM/CSAMM.sol\":2746:2755  _reserve0 */\n      dup2\n        /* \"contracts/CSAMM/CSAMM.sol\":2735:2743  reserve0 */\n      0x00\n        /* \"contracts/CSAMM/CSAMM.sol\":2735:2755  reserve0 = _reserve0 */\n      dup2\n      swap1\n      sstore\n      pop\n        /* \"contracts/CSAMM/CSAMM.sol\":2777:2786  _reserve1 */\n      dup1\n        /* \"contracts/CSAMM/CSAMM.sol\":2766:2774  reserve1 */\n      0x01\n        /* \"contracts/CSAMM/CSAMM.sol\":2766:2786  reserve1 = _reserve1 */\n      dup2\n      swap1\n      sstore\n      pop\n        /* \"contracts/CSAMM/CSAMM.sol\":2660:2794  function _update(uint256 _reserve0, uint256 _reserve1) internal {\r... */\n      pop\n      pop\n      jump\t// out\n        /* \"contracts/CSAMM/CSAMM.sol\":2390:2516  function _mint(address to, uint256 amount) internal {\r... */\n    tag_118:\n        /* \"contracts/CSAMM/CSAMM.sol\":2470:2476  amount */\n      dup1\n        /* \"contracts/CSAMM/CSAMM.sol\":2453:2462  balanceOf */\n      0x04\n        /* \"contracts/CSAMM/CSAMM.sol\":2453:2466  balanceOf[to] */\n      0x00\n        /* \"contracts/CSAMM/CSAMM.sol\":2463:2465  to */\n      dup5\n        /* \"contracts/CSAMM/CSAMM.sol\":2453:2466  balanceOf[to] */\n      0xffffffffffffffffffffffffffffffffffffffff\n      and\n      0xffffffffffffffffffffffffffffffffffffffff\n      and\n      dup2\n      mstore\n      0x20\n      add\n      swap1\n      dup2\n      mstore\n      0x20\n      add\n      0x00\n      keccak256\n      0x00\n        /* \"contracts/CSAMM/CSAMM.sol\":2453:2476  balanceOf[to] += amount */\n      dup3\n      dup3\n      sload\n      tag_159\n      swap2\n      swap1\n      tag_111\n      jump\t// in\n    tag_159:\n      swap3\n      pop\n      pop\n      dup2\n      swap1\n      sstore\n      pop\n        /* \"contracts/CSAMM/CSAMM.sol\":2502:2508  amount */\n      dup1\n        /* \"contracts/CSAMM/CSAMM.sol\":2487:2498  totalBlance */\n      0x03\n      0x00\n        /* \"contracts/CSAMM/CSAMM.sol\":2487:2508  totalBlance += amount */\n      dup3\n      dup3\n      sload\n      tag_160\n      swap2\n      swap1\n      tag_111\n      jump\t// in\n    tag_160:\n      swap3\n      pop\n      pop\n      dup2\n      swap1\n      sstore\n      pop\n        /* \"contracts/CSAMM/CSAMM.sol\":2390:2516  function _mint(address to, uint256 amount) internal {\r... */\n      pop\n      pop\n      jump\t// out\n        /* \"#utility.yul\":7:146   */\n    tag_162:\n        /* \"#utility.yul\":53:58   */\n      0x00\n        /* \"#utility.yul\":91:97   */\n      dup2\n        /* \"#utility.yul\":78:98   */\n      calldataload\n        /* \"#utility.yul\":69:98   */\n      swap1\n      pop\n        /* \"#utility.yul\":107:140   */\n      tag_164\n        /* \"#utility.yul\":134:139   */\n      dup2\n        /* \"#utility.yul\":107:140   */\n      tag_165\n      jump\t// in\n    tag_164:\n        /* \"#utility.yul\":59:146   */\n      swap3\n      swap2\n      pop\n      pop\n      jump\t// out\n        /* \"#utility.yul\":152:289   */\n    tag_166:\n        /* \"#utility.yul\":206:211   */\n      0x00\n        /* \"#utility.yul\":237:243   */\n      dup2\n        /* \"#utility.yul\":231:244   */\n      mload\n        /* \"#utility.yul\":222:244   */\n      swap1\n      pop\n        /* \"#utility.yul\":253:283   */\n      tag_168\n        /* \"#utility.yul\":277:282   */\n      dup2\n        /* \"#utility.yul\":253:283   */\n      tag_169\n      jump\t// in\n    tag_168:\n        /* \"#utility.yul\":212:289   */\n      swap3\n      swap2\n      pop\n      pop\n      jump\t// out\n        /* \"#utility.yul\":295:434   */\n    tag_170:\n        /* \"#utility.yul\":341:346   */\n      0x00\n        /* \"#utility.yul\":379:385   */\n      dup2\n        /* \"#utility.yul\":366:386   */\n      calldataload\n        /* \"#utility.yul\":357:386   */\n      swap1\n      pop\n        /* \"#utility.yul\":395:428   */\n      tag_172\n        /* \"#utility.yul\":422:427   */\n      dup2\n        /* \"#utility.yul\":395:428   */\n      tag_173\n      jump\t// in\n    tag_172:\n        /* \"#utility.yul\":347:434   */\n      swap3\n      swap2\n      pop\n      pop\n      jump\t// out\n        /* \"#utility.yul\":440:583   */\n    tag_174:\n        /* \"#utility.yul\":497:502   */\n      0x00\n        /* \"#utility.yul\":528:534   */\n      dup2\n        /* \"#utility.yul\":522:535   */\n      mload\n        /* \"#utility.yul\":513:535   */\n      swap1\n      pop\n        /* \"#utility.yul\":544:577   */\n      tag_176\n        /* \"#utility.yul\":571:576   */\n      dup2\n        /* \"#utility.yul\":544:577   */\n      tag_173\n      jump\t// in\n    tag_176:\n        /* \"#utility.yul\":503:583   */\n      swap3\n      swap2\n      pop\n      pop\n      jump\t// out\n        /* \"#utility.yul\":589:851   */\n    tag_31:\n        /* \"#utility.yul\":648:654   */\n      0x00\n        /* \"#utility.yul\":697:699   */\n      0x20\n        /* \"#utility.yul\":685:694   */\n      dup3\n        /* \"#utility.yul\":676:683   */\n      dup5\n        /* \"#utility.yul\":672:695   */\n      sub\n        /* \"#utility.yul\":668:700   */\n      slt\n        /* \"#utility.yul\":665:667   */\n      iszero\n      tag_178\n      jumpi\n        /* \"#utility.yul\":713:714   */\n      0x00\n        /* \"#utility.yul\":710:711   */\n      dup1\n        /* \"#utility.yul\":703:715   */\n      revert\n        /* \"#utility.yul\":665:667   */\n    tag_178:\n        /* \"#utility.yul\":756:757   */\n      0x00\n        /* \"#utility.yul\":781:834   */\n      tag_179\n        /* \"#utility.yul\":826:833   */\n      dup5\n        /* \"#utility.yul\":817:823   */\n      dup3\n        /* \"#utility.yul\":806:815   */\n      dup6\n        /* \"#utility.yul\":802:824   */\n      add\n        /* \"#utility.yul\":781:834   */\n      tag_162\n      jump\t// in\n    tag_179:\n        /* \"#utility.yul\":771:834   */\n      swap2\n      pop\n        /* \"#utility.yul\":727:844   */\n      pop\n        /* \"#utility.yul\":655:851   */\n      swap3\n      swap2\n      pop\n      pop\n      jump\t// out\n        /* \"#utility.yul\":857:1264   */\n    tag_50:\n        /* \"#utility.yul\":925:931   */\n      0x00\n        /* \"#utility.yul\":933:939   */\n      dup1\n        /* \"#utility.yul\":982:984   */\n      0x40\n        /* \"#utility.yul\":970:979   */\n      dup4\n        /* \"#utility.yul\":961:968   */\n      dup6\n        /* \"#utility.yul\":957:980   */\n      sub\n        /* \"#utility.yul\":953:985   */\n      slt\n        /* \"#utility.yul\":950:952   */\n      iszero\n      tag_181\n      jumpi\n        /* \"#utility.yul\":998:999   */\n      0x00\n        /* \"#utility.yul\":995:996   */\n      dup1\n        /* \"#utility.yul\":988:1000   */\n      revert\n        /* \"#utility.yul\":950:952   */\n    tag_181:\n        /* \"#utility.yul\":1041:1042   */\n      0x00\n        /* \"#utility.yul\":1066:1119   */\n      tag_182\n        /* \"#utility.yul\":1111:1118   */\n      dup6\n        /* \"#utility.yul\":1102:1108   */\n      dup3\n        /* \"#utility.yul\":1091:1100   */\n      dup7\n        /* \"#utility.yul\":1087:1109   */\n      add\n        /* \"#utility.yul\":1066:1119   */\n      tag_162\n      jump\t// in\n    tag_182:\n        /* \"#utility.yul\":1056:1119   */\n      swap3\n      pop\n        /* \"#utility.yul\":1012:1129   */\n      pop\n        /* \"#utility.yul\":1168:1170   */\n      0x20\n        /* \"#utility.yul\":1194:1247   */\n      tag_183\n        /* \"#utility.yul\":1239:1246   */\n      dup6\n        /* \"#utility.yul\":1230:1236   */\n      dup3\n        /* \"#utility.yul\":1219:1228   */\n      dup7\n        /* \"#utility.yul\":1215:1237   */\n      add\n        /* \"#utility.yul\":1194:1247   */\n      tag_170\n      jump\t// in\n    tag_183:\n        /* \"#utility.yul\":1184:1247   */\n      swap2\n      pop\n        /* \"#utility.yul\":1139:1257   */\n      pop\n        /* \"#utility.yul\":940:1264   */\n      swap3\n      pop\n      swap3\n      swap1\n      pop\n      jump\t// out\n        /* \"#utility.yul\":1270:1548   */\n    tag_76:\n        /* \"#utility.yul\":1337:1343   */\n      0x00\n        /* \"#utility.yul\":1386:1388   */\n      0x20\n        /* \"#utility.yul\":1374:1383   */\n      dup3\n        /* \"#utility.yul\":1365:1372   */\n      dup5\n        /* \"#utility.yul\":1361:1384   */\n      sub\n        /* \"#utility.yul\":1357:1389   */\n      slt\n        /* \"#utility.yul\":1354:1356   */\n      iszero\n      tag_185\n      jumpi\n        /* \"#utility.yul\":1402:1403   */\n      0x00\n        /* \"#utility.yul\":1399:1400   */\n      dup1\n        /* \"#utility.yul\":1392:1404   */\n      revert\n        /* \"#utility.yul\":1354:1356   */\n    tag_185:\n        /* \"#utility.yul\":1445:1446   */\n      0x00\n        /* \"#utility.yul\":1470:1531   */\n      tag_186\n        /* \"#utility.yul\":1523:1530   */\n      dup5\n        /* \"#utility.yul\":1514:1520   */\n      dup3\n        /* \"#utility.yul\":1503:1512   */\n      dup6\n        /* \"#utility.yul\":1499:1521   */\n      add\n        /* \"#utility.yul\":1470:1531   */\n      tag_166\n      jump\t// in\n    tag_186:\n        /* \"#utility.yul\":1460:1531   */\n      swap2\n      pop\n        /* \"#utility.yul\":1416:1541   */\n      pop\n        /* \"#utility.yul\":1344:1548   */\n      swap3\n      swap2\n      pop\n      pop\n      jump\t// out\n        /* \"#utility.yul\":1554:1816   */\n    tag_39:\n        /* \"#utility.yul\":1613:1619   */\n      0x00\n        /* \"#utility.yul\":1662:1664   */\n      0x20\n        /* \"#utility.yul\":1650:1659   */\n      dup3\n        /* \"#utility.yul\":1641:1648   */\n      dup5\n        /* \"#utility.yul\":1637:1660   */\n      sub\n        /* \"#utility.yul\":1633:1665   */\n      slt\n        /* \"#utility.yul\":1630:1632   */\n      iszero\n      tag_188\n      jumpi\n        /* \"#utility.yul\":1678:1679   */\n      0x00\n        /* \"#utility.yul\":1675:1676   */\n      dup1\n        /* \"#utility.yul\":1668:1680   */\n      revert\n        /* \"#utility.yul\":1630:1632   */\n    tag_188:\n        /* \"#utility.yul\":1721:1722   */\n      0x00\n        /* \"#utility.yul\":1746:1799   */\n      tag_189\n        /* \"#utility.yul\":1791:1798   */\n      dup5\n        /* \"#utility.yul\":1782:1788   */\n      dup3\n        /* \"#utility.yul\":1771:1780   */\n      dup6\n        /* \"#utility.yul\":1767:1789   */\n      add\n        /* \"#utility.yul\":1746:1799   */\n      tag_170\n      jump\t// in\n    tag_189:\n        /* \"#utility.yul\":1736:1799   */\n      swap2\n      pop\n        /* \"#utility.yul\":1692:1809   */\n      pop\n        /* \"#utility.yul\":1620:1816   */\n      swap3\n      swap2\n      pop\n      pop\n      jump\t// out\n        /* \"#utility.yul\":1822:2106   */\n    tag_101:\n        /* \"#utility.yul\":1892:1898   */\n      0x00\n        /* \"#utility.yul\":1941:1943   */\n      0x20\n        /* \"#utility.yul\":1929:1938   */\n      dup3\n        /* \"#utility.yul\":1920:1927   */\n      dup5\n        /* \"#utility.yul\":1916:1939   */\n      sub\n        /* \"#utility.yul\":1912:1944   */\n      slt\n        /* \"#utility.yul\":1909:1911   */\n      iszero\n      tag_191\n      jumpi\n        /* \"#utility.yul\":1957:1958   */\n      0x00\n        /* \"#utility.yul\":1954:1955   */\n      dup1\n        /* \"#utility.yul\":1947:1959   */\n      revert\n        /* \"#utility.yul\":1909:1911   */\n    tag_191:\n        /* \"#utility.yul\":2000:2001   */\n      0x00\n        /* \"#utility.yul\":2025:2089   */\n      tag_192\n        /* \"#utility.yul\":2081:2088   */\n      dup5\n        /* \"#utility.yul\":2072:2078   */\n      dup3\n        /* \"#utility.yul\":2061:2070   */\n      dup6\n        /* \"#utility.yul\":2057:2079   */\n      add\n        /* \"#utility.yul\":2025:2089   */\n      tag_174\n      jump\t// in\n    tag_192:\n        /* \"#utility.yul\":2015:2089   */\n      swap2\n      pop\n        /* \"#utility.yul\":1971:2099   */\n      pop\n        /* \"#utility.yul\":1899:2106   */\n      swap3\n      swap2\n      pop\n      pop\n      jump\t// out\n        /* \"#utility.yul\":2112:2519   */\n    tag_43:\n        /* \"#utility.yul\":2180:2186   */\n      0x00\n        /* \"#utility.yul\":2188:2194   */\n      dup1\n        /* \"#utility.yul\":2237:2239   */\n      0x40\n        /* \"#utility.yul\":2225:2234   */\n      dup4\n        /* \"#utility.yul\":2216:2223   */\n      dup6\n        /* \"#utility.yul\":2212:2235   */\n      sub\n        /* \"#utility.yul\":2208:2240   */\n      slt\n        /* \"#utility.yul\":2205:2207   */\n      iszero\n      tag_194\n      jumpi\n        /* \"#utility.yul\":2253:2254   */\n      0x00\n        /* \"#utility.yul\":2250:2251   */\n      dup1\n        /* \"#utility.yul\":2243:2255   */\n      revert\n        /* \"#utility.yul\":2205:2207   */\n    tag_194:\n        /* \"#utility.yul\":2296:2297   */\n      0x00\n        /* \"#utility.yul\":2321:2374   */\n      tag_195\n        /* \"#utility.yul\":2366:2373   */\n      dup6\n        /* \"#utility.yul\":2357:2363   */\n      dup3\n        /* \"#utility.yul\":2346:2355   */\n      dup7\n        /* \"#utility.yul\":2342:2364   */\n      add\n        /* \"#utility.yul\":2321:2374   */\n      tag_170\n      jump\t// in\n    tag_195:\n        /* \"#utility.yul\":2311:2374   */\n      swap3\n      pop\n        /* \"#utility.yul\":2267:2384   */\n      pop\n        /* \"#utility.yul\":2423:2425   */\n      0x20\n        /* \"#utility.yul\":2449:2502   */\n      tag_196\n        /* \"#utility.yul\":2494:2501   */\n      dup6\n        /* \"#utility.yul\":2485:2491   */\n      dup3\n        /* \"#utility.yul\":2474:2483   */\n      dup7\n        /* \"#utility.yul\":2470:2492   */\n      add\n        /* \"#utility.yul\":2449:2502   */\n      tag_170\n      jump\t// in\n    tag_196:\n        /* \"#utility.yul\":2439:2502   */\n      swap2\n      pop\n        /* \"#utility.yul\":2394:2512   */\n      pop\n        /* \"#utility.yul\":2195:2519   */\n      swap3\n      pop\n      swap3\n      swap1\n      pop\n      jump\t// out\n        /* \"#utility.yul\":2525:2643   */\n    tag_197:\n        /* \"#utility.yul\":2612:2636   */\n      tag_199\n        /* \"#utility.yul\":2630:2635   */\n      dup2\n        /* \"#utility.yul\":2612:2636   */\n      tag_200\n      jump\t// in\n    tag_199:\n        /* \"#utility.yul\":2607:2610   */\n      dup3\n        /* \"#utility.yul\":2600:2637   */\n      mstore\n        /* \"#utility.yul\":2590:2643   */\n      pop\n      pop\n      jump\t// out\n        /* \"#utility.yul\":2649:2806   */\n    tag_201:\n        /* \"#utility.yul\":2749:2799   */\n      tag_203\n        /* \"#utility.yul\":2793:2798   */\n      dup2\n        /* \"#utility.yul\":2749:2799   */\n      tag_204\n      jump\t// in\n    tag_203:\n        /* \"#utility.yul\":2744:2747   */\n      dup3\n        /* \"#utility.yul\":2737:2800   */\n      mstore\n        /* \"#utility.yul\":2727:2806   */\n      pop\n      pop\n      jump\t// out\n        /* \"#utility.yul\":2812:3178   */\n    tag_205:\n        /* \"#utility.yul\":2954:2957   */\n      0x00\n        /* \"#utility.yul\":2975:3042   */\n      tag_207\n        /* \"#utility.yul\":3039:3041   */\n      0x0c\n        /* \"#utility.yul\":3034:3037   */\n      dup4\n        /* \"#utility.yul\":2975:3042   */\n      tag_208\n      jump\t// in\n    tag_207:\n        /* \"#utility.yul\":2968:3042   */\n      swap2\n      pop\n        /* \"#utility.yul\":3051:3144   */\n      tag_209\n        /* \"#utility.yul\":3140:3143   */\n      dup3\n        /* \"#utility.yul\":3051:3144   */\n      tag_210\n      jump\t// in\n    tag_209:\n        /* \"#utility.yul\":3169:3171   */\n      0x20\n        /* \"#utility.yul\":3164:3167   */\n      dup3\n        /* \"#utility.yul\":3160:3172   */\n      add\n        /* \"#utility.yul\":3153:3172   */\n      swap1\n      pop\n        /* \"#utility.yul\":2958:3178   */\n      swap2\n      swap1\n      pop\n      jump\t// out\n        /* \"#utility.yul\":3184:3302   */\n    tag_211:\n        /* \"#utility.yul\":3271:3295   */\n      tag_213\n        /* \"#utility.yul\":3289:3294   */\n      dup2\n        /* \"#utility.yul\":3271:3295   */\n      tag_214\n      jump\t// in\n    tag_213:\n        /* \"#utility.yul\":3266:3269   */\n      dup3\n        /* \"#utility.yul\":3259:3296   */\n      mstore\n        /* \"#utility.yul\":3249:3302   */\n      pop\n      pop\n      jump\t// out\n        /* \"#utility.yul\":3308:3530   */\n    tag_96:\n        /* \"#utility.yul\":3401:3405   */\n      0x00\n        /* \"#utility.yul\":3439:3441   */\n      0x20\n        /* \"#utility.yul\":3428:3437   */\n      dup3\n        /* \"#utility.yul\":3424:3442   */\n      add\n        /* \"#utility.yul\":3416:3442   */\n      swap1\n      pop\n        /* \"#utility.yul\":3452:3523   */\n      tag_216\n        /* \"#utility.yul\":3520:3521   */\n      0x00\n        /* \"#utility.yul\":3509:3518   */\n      dup4\n        /* \"#utility.yul\":3505:3522   */\n      add\n        /* \"#utility.yul\":3496:3502   */\n      dup5\n        /* \"#utility.yul\":3452:3523   */\n      tag_197\n      jump\t// in\n    tag_216:\n        /* \"#utility.yul\":3406:3530   */\n      swap3\n      swap2\n      pop\n      pop\n      jump\t// out\n        /* \"#utility.yul\":3536:3978   */\n    tag_85:\n        /* \"#utility.yul\":3685:3689   */\n      0x00\n        /* \"#utility.yul\":3723:3725   */\n      0x60\n        /* \"#utility.yul\":3712:3721   */\n      dup3\n        /* \"#utility.yul\":3708:3726   */\n      add\n        /* \"#utility.yul\":3700:3726   */\n      swap1\n      pop\n        /* \"#utility.yul\":3736:3807   */\n      tag_218\n        /* \"#utility.yul\":3804:3805   */\n      0x00\n        /* \"#utility.yul\":3793:3802   */\n      dup4\n        /* \"#utility.yul\":3789:3806   */\n      add\n        /* \"#utility.yul\":3780:3786   */\n      dup7\n        /* \"#utility.yul\":3736:3807   */\n      tag_197\n      jump\t// in\n    tag_218:\n        /* \"#utility.yul\":3817:3889   */\n      tag_219\n        /* \"#utility.yul\":3885:3887   */\n      0x20\n        /* \"#utility.yul\":3874:3883   */\n      dup4\n        /* \"#utility.yul\":3870:3888   */\n      add\n        /* \"#utility.yul\":3861:3867   */\n      dup6\n        /* \"#utility.yul\":3817:3889   */\n      tag_197\n      jump\t// in\n    tag_219:\n        /* \"#utility.yul\":3899:3971   */\n      tag_220\n        /* \"#utility.yul\":3967:3969   */\n      0x40\n        /* \"#utility.yul\":3956:3965   */\n      dup4\n        /* \"#utility.yul\":3952:3970   */\n      add\n        /* \"#utility.yul\":3943:3949   */\n      dup5\n        /* \"#utility.yul\":3899:3971   */\n      tag_211\n      jump\t// in\n    tag_220:\n        /* \"#utility.yul\":3690:3978   */\n      swap5\n      swap4\n      pop\n      pop\n      pop\n      pop\n      jump\t// out\n        /* \"#utility.yul\":3984:4316   */\n    tag_71:\n        /* \"#utility.yul\":4105:4109   */\n      0x00\n        /* \"#utility.yul\":4143:4145   */\n      0x40\n        /* \"#utility.yul\":4132:4141   */\n      dup3\n        /* \"#utility.yul\":4128:4146   */\n      add\n        /* \"#utility.yul\":4120:4146   */\n      swap1\n      pop\n        /* \"#utility.yul\":4156:4227   */\n      tag_222\n        /* \"#utility.yul\":4224:4225   */\n      0x00\n        /* \"#utility.yul\":4213:4222   */\n      dup4\n        /* \"#utility.yul\":4209:4226   */\n      add\n        /* \"#utility.yul\":4200:4206   */\n      dup6\n        /* \"#utility.yul\":4156:4227   */\n      tag_197\n      jump\t// in\n    tag_222:\n        /* \"#utility.yul\":4237:4309   */\n      tag_223\n        /* \"#utility.yul\":4305:4307   */\n      0x20\n        /* \"#utility.yul\":4294:4303   */\n      dup4\n        /* \"#utility.yul\":4290:4308   */\n      add\n        /* \"#utility.yul\":4281:4287   */\n      dup5\n        /* \"#utility.yul\":4237:4309   */\n      tag_211\n      jump\t// in\n    tag_223:\n        /* \"#utility.yul\":4110:4316   */\n      swap4\n      swap3\n      pop\n      pop\n      pop\n      jump\t// out\n        /* \"#utility.yul\":4322:4570   */\n    tag_22:\n        /* \"#utility.yul\":4428:4432   */\n      0x00\n        /* \"#utility.yul\":4466:4468   */\n      0x20\n        /* \"#utility.yul\":4455:4464   */\n      dup3\n        /* \"#utility.yul\":4451:4469   */\n      add\n        /* \"#utility.yul\":4443:4469   */\n      swap1\n      pop\n        /* \"#utility.yul\":4479:4563   */\n      tag_225\n        /* \"#utility.yul\":4560:4561   */\n      0x00\n        /* \"#utility.yul\":4549:4558   */\n      dup4\n        /* \"#utility.yul\":4545:4562   */\n      add\n        /* \"#utility.yul\":4536:4542   */\n      dup5\n        /* \"#utility.yul\":4479:4563   */\n      tag_201\n      jump\t// in\n    tag_225:\n        /* \"#utility.yul\":4433:4570   */\n      swap3\n      swap2\n      pop\n      pop\n      jump\t// out\n        /* \"#utility.yul\":4576:4995   */\n    tag_126:\n        /* \"#utility.yul\":4742:4746   */\n      0x00\n        /* \"#utility.yul\":4780:4782   */\n      0x20\n        /* \"#utility.yul\":4769:4778   */\n      dup3\n        /* \"#utility.yul\":4765:4783   */\n      add\n        /* \"#utility.yul\":4757:4783   */\n      swap1\n      pop\n        /* \"#utility.yul\":4829:4838   */\n      dup2\n        /* \"#utility.yul\":4823:4827   */\n      dup2\n        /* \"#utility.yul\":4819:4839   */\n      sub\n        /* \"#utility.yul\":4815:4816   */\n      0x00\n        /* \"#utility.yul\":4804:4813   */\n      dup4\n        /* \"#utility.yul\":4800:4817   */\n      add\n        /* \"#utility.yul\":4793:4840   */\n      mstore\n        /* \"#utility.yul\":4857:4988   */\n      tag_227\n        /* \"#utility.yul\":4983:4987   */\n      dup2\n        /* \"#utility.yul\":4857:4988   */\n      tag_205\n      jump\t// in\n    tag_227:\n        /* \"#utility.yul\":4849:4988   */\n      swap1\n      pop\n        /* \"#utility.yul\":4747:4995   */\n      swap2\n      swap1\n      pop\n      jump\t// out\n        /* \"#utility.yul\":5001:5223   */\n    tag_18:\n        /* \"#utility.yul\":5094:5098   */\n      0x00\n        /* \"#utility.yul\":5132:5134   */\n      0x20\n        /* \"#utility.yul\":5121:5130   */\n      dup3\n        /* \"#utility.yul\":5117:5135   */\n      add\n        /* \"#utility.yul\":5109:5135   */\n      swap1\n      pop\n        /* \"#utility.yul\":5145:5216   */\n      tag_229\n        /* \"#utility.yul\":5213:5214   */\n      0x00\n        /* \"#utility.yul\":5202:5211   */\n      dup4\n        /* \"#utility.yul\":5198:5215   */\n      add\n        /* \"#utility.yul\":5189:5195   */\n      dup5\n        /* \"#utility.yul\":5145:5216   */\n      tag_211\n      jump\t// in\n    tag_229:\n        /* \"#utility.yul\":5099:5223   */\n      swap3\n      swap2\n      pop\n      pop\n      jump\t// out\n        /* \"#utility.yul\":5229:5398   */\n    tag_208:\n        /* \"#utility.yul\":5313:5324   */\n      0x00\n        /* \"#utility.yul\":5347:5353   */\n      dup3\n        /* \"#utility.yul\":5342:5345   */\n      dup3\n        /* \"#utility.yul\":5335:5354   */\n      mstore\n        /* \"#utility.yul\":5387:5391   */\n      0x20\n        /* \"#utility.yul\":5382:5385   */\n      dup3\n        /* \"#utility.yul\":5378:5392   */\n      add\n        /* \"#utility.yul\":5363:5392   */\n      swap1\n      pop\n        /* \"#utility.yul\":5325:5398   */\n      swap3\n      swap2\n      pop\n      pop\n      jump\t// out\n        /* \"#utility.yul\":5404:5709   */\n    tag_111:\n        /* \"#utility.yul\":5444:5447   */\n      0x00\n        /* \"#utility.yul\":5463:5483   */\n      tag_232\n        /* \"#utility.yul\":5481:5482   */\n      dup3\n        /* \"#utility.yul\":5463:5483   */\n      tag_214\n      jump\t// in\n    tag_232:\n        /* \"#utility.yul\":5458:5483   */\n      swap2\n      pop\n        /* \"#utility.yul\":5497:5517   */\n      tag_233\n        /* \"#utility.yul\":5515:5516   */\n      dup4\n        /* \"#utility.yul\":5497:5517   */\n      tag_214\n      jump\t// in\n    tag_233:\n        /* \"#utility.yul\":5492:5517   */\n      swap3\n      pop\n        /* \"#utility.yul\":5651:5652   */\n      dup3\n        /* \"#utility.yul\":5583:5649   */\n      0xffffffffffffffffffffffffffffffffffffffffffffffffffffffffffffffff\n        /* \"#utility.yul\":5579:5653   */\n      sub\n        /* \"#utility.yul\":5576:5577   */\n      dup3\n        /* \"#utility.yul\":5573:5654   */\n      gt\n        /* \"#utility.yul\":5570:5572   */\n      iszero\n      tag_234\n      jumpi\n        /* \"#utility.yul\":5657:5675   */\n      tag_235\n      tag_236\n      jump\t// in\n    tag_235:\n        /* \"#utility.yul\":5570:5572   */\n    tag_234:\n        /* \"#utility.yul\":5701:5702   */\n      dup3\n        /* \"#utility.yul\":5698:5699   */\n      dup3\n        /* \"#utility.yul\":5694:5703   */\n      add\n        /* \"#utility.yul\":5687:5703   */\n      swap1\n      pop\n        /* \"#utility.yul\":5448:5709   */\n      swap3\n      swap2\n      pop\n      pop\n      jump\t// out\n        /* \"#utility.yul\":5715:5900   */\n    tag_59:\n        /* \"#utility.yul\":5755:5756   */\n      0x00\n        /* \"#utility.yul\":5772:5792   */\n      tag_238\n        /* \"#utility.yul\":5790:5791   */\n      dup3\n        /* \"#utility.yul\":5772:5792   */\n      tag_214\n      jump\t// in\n    tag_238:\n        /* \"#utility.yul\":5767:5792   */\n      swap2\n      pop\n        /* \"#utility.yul\":5806:5826   */\n      tag_239\n        /* \"#utility.yul\":5824:5825   */\n      dup4\n        /* \"#utility.yul\":5806:5826   */\n      tag_214\n      jump\t// in\n    tag_239:\n        /* \"#utility.yul\":5801:5826   */\n      swap3\n      pop\n        /* \"#utility.yul\":5845:5846   */\n      dup3\n        /* \"#utility.yul\":5835:5837   */\n      tag_240\n      jumpi\n        /* \"#utility.yul\":5850:5868   */\n      tag_241\n      tag_242\n      jump\t// in\n    tag_241:\n        /* \"#utility.yul\":5835:5837   */\n    tag_240:\n        /* \"#utility.yul\":5892:5893   */\n      dup3\n        /* \"#utility.yul\":5889:5890   */\n      dup3\n        /* \"#utility.yul\":5885:5894   */\n      div\n        /* \"#utility.yul\":5880:5894   */\n      swap1\n      pop\n        /* \"#utility.yul\":5757:5900   */\n      swap3\n      swap2\n      pop\n      pop\n      jump\t// out\n        /* \"#utility.yul\":5906:6254   */\n    tag_57:\n        /* \"#utility.yul\":5946:5953   */\n      0x00\n        /* \"#utility.yul\":5969:5989   */\n      tag_244\n        /* \"#utility.yul\":5987:5988   */\n      dup3\n        /* \"#utility.yul\":5969:5989   */\n      tag_214\n      jump\t// in\n    tag_244:\n        /* \"#utility.yul\":5964:5989   */\n      swap2\n      pop\n        /* \"#utility.yul\":6003:6023   */\n      tag_245\n        /* \"#utility.yul\":6021:6022   */\n      dup4\n        /* \"#utility.yul\":6003:6023   */\n      tag_214\n      jump\t// in\n    tag_245:\n        /* \"#utility.yul\":5998:6023   */\n      swap3\n      pop\n        /* \"#utility.yul\":6191:6192   */\n      dup2\n        /* \"#utility.yul\":6123:6189   */\n      0xffffffffffffffffffffffffffffffffffffffffffffffffffffffffffffffff\n        /* \"#utility.yul\":6119:6193   */\n      div\n        /* \"#utility.yul\":6116:6117   */\n      dup4\n        /* \"#utility.yul\":6113:6194   */\n      gt\n        /* \"#utility.yul\":6108:6109   */\n      dup3\n        /* \"#utility.yul\":6101:6110   */\n      iszero\n        /* \"#utility.yul\":6094:6111   */\n      iszero\n        /* \"#utility.yul\":6090:6195   */\n      and\n        /* \"#utility.yul\":6087:6089   */\n      iszero\n      tag_246\n      jumpi\n        /* \"#utility.yul\":6198:6216   */\n      tag_247\n      tag_236\n      jump\t// in\n    tag_247:\n        /* \"#utility.yul\":6087:6089   */\n    tag_246:\n        /* \"#utility.yul\":6246:6247   */\n      dup3\n        /* \"#utility.yul\":6243:6244   */\n      dup3\n        /* \"#utility.yul\":6239:6248   */\n      mul\n        /* \"#utility.yul\":6228:6248   */\n      swap1\n      pop\n        /* \"#utility.yul\":5954:6254   */\n      swap3\n      swap2\n      pop\n      pop\n      jump\t// out\n        /* \"#utility.yul\":6260:6451   */\n    tag_66:\n        /* \"#utility.yul\":6300:6304   */\n      0x00\n        /* \"#utility.yul\":6320:6340   */\n      tag_249\n        /* \"#utility.yul\":6338:6339   */\n      dup3\n        /* \"#utility.yul\":6320:6340   */\n      tag_214\n      jump\t// in\n    tag_249:\n        /* \"#utility.yul\":6315:6340   */\n      swap2\n      pop\n        /* \"#utility.yul\":6354:6374   */\n      tag_250\n        /* \"#utility.yul\":6372:6373   */\n      dup4\n        /* \"#utility.yul\":6354:6374   */\n      tag_214\n      jump\t// in\n    tag_250:\n        /* \"#utility.yul\":6349:6374   */\n      swap3\n      pop\n        /* \"#utility.yul\":6393:6394   */\n      dup3\n        /* \"#utility.yul\":6390:6391   */\n      dup3\n        /* \"#utility.yul\":6387:6395   */\n      lt\n        /* \"#utility.yul\":6384:6386   */\n      iszero\n      tag_251\n      jumpi\n        /* \"#utility.yul\":6398:6416   */\n      tag_252\n      tag_236\n      jump\t// in\n    tag_252:\n        /* \"#utility.yul\":6384:6386   */\n    tag_251:\n        /* \"#utility.yul\":6443:6444   */\n      dup3\n        /* \"#utility.yul\":6440:6441   */\n      dup3\n        /* \"#utility.yul\":6436:6445   */\n      sub\n        /* \"#utility.yul\":6428:6445   */\n      swap1\n      pop\n        /* \"#utility.yul\":6305:6451   */\n      swap3\n      swap2\n      pop\n      pop\n      jump\t// out\n        /* \"#utility.yul\":6457:6553   */\n    tag_200:\n        /* \"#utility.yul\":6494:6501   */\n      0x00\n        /* \"#utility.yul\":6523:6547   */\n      tag_254\n        /* \"#utility.yul\":6541:6546   */\n      dup3\n        /* \"#utility.yul\":6523:6547   */\n      tag_255\n      jump\t// in\n    tag_254:\n        /* \"#utility.yul\":6512:6547   */\n      swap1\n      pop\n        /* \"#utility.yul\":6502:6553   */\n      swap2\n      swap1\n      pop\n      jump\t// out\n        /* \"#utility.yul\":6559:6649   */\n    tag_256:\n        /* \"#utility.yul\":6593:6600   */\n      0x00\n        /* \"#utility.yul\":6636:6641   */\n      dup2\n        /* \"#utility.yul\":6629:6642   */\n      iszero\n        /* \"#utility.yul\":6622:6643   */\n      iszero\n        /* \"#utility.yul\":6611:6643   */\n      swap1\n      pop\n        /* \"#utility.yul\":6601:6649   */\n      swap2\n      swap1\n      pop\n      jump\t// out\n        /* \"#utility.yul\":6655:6781   */\n    tag_255:\n        /* \"#utility.yul\":6692:6699   */\n      0x00\n        /* \"#utility.yul\":6732:6774   */\n      0xffffffffffffffffffffffffffffffffffffffff\n        /* \"#utility.yul\":6725:6730   */\n      dup3\n        /* \"#utility.yul\":6721:6775   */\n      and\n        /* \"#utility.yul\":6710:6775   */\n      swap1\n      pop\n        /* \"#utility.yul\":6700:6781   */\n      swap2\n      swap1\n      pop\n      jump\t// out\n        /* \"#utility.yul\":6787:6864   */\n    tag_214:\n        /* \"#utility.yul\":6824:6831   */\n      0x00\n        /* \"#utility.yul\":6853:6858   */\n      dup2\n        /* \"#utility.yul\":6842:6858   */\n      swap1\n      pop\n        /* \"#utility.yul\":6832:6864   */\n      swap2\n      swap1\n      pop\n      jump\t// out\n        /* \"#utility.yul\":6870:7022   */\n    tag_204:\n        /* \"#utility.yul\":6933:6942   */\n      0x00\n        /* \"#utility.yul\":6966:7016   */\n      tag_261\n        /* \"#utility.yul\":7010:7015   */\n      dup3\n        /* \"#utility.yul\":6966:7016   */\n      tag_262\n      jump\t// in\n    tag_261:\n        /* \"#utility.yul\":6953:7016   */\n      swap1\n      pop\n        /* \"#utility.yul\":6943:7022   */\n      swap2\n      swap1\n      pop\n      jump\t// out\n        /* \"#utility.yul\":7028:7154   */\n    tag_262:\n        /* \"#utility.yul\":7091:7100   */\n      0x00\n        /* \"#utility.yul\":7124:7148   */\n      tag_264\n        /* \"#utility.yul\":7142:7147   */\n      dup3\n        /* \"#utility.yul\":7124:7148   */\n      tag_255\n      jump\t// in\n    tag_264:\n        /* \"#utility.yul\":7111:7148   */\n      swap1\n      pop\n        /* \"#utility.yul\":7101:7154   */\n      swap2\n      swap1\n      pop\n      jump\t// out\n        /* \"#utility.yul\":7160:7340   */\n    tag_236:\n        /* \"#utility.yul\":7208:7285   */\n      0x4e487b7100000000000000000000000000000000000000000000000000000000\n        /* \"#utility.yul\":7205:7206   */\n      0x00\n        /* \"#utility.yul\":7198:7286   */\n      mstore\n        /* \"#utility.yul\":7305:7309   */\n      0x11\n        /* \"#utility.yul\":7302:7303   */\n      0x04\n        /* \"#utility.yul\":7295:7310   */\n      mstore\n        /* \"#utility.yul\":7329:7333   */\n      0x24\n        /* \"#utility.yul\":7326:7327   */\n      0x00\n        /* \"#utility.yul\":7319:7334   */\n      revert\n        /* \"#utility.yul\":7346:7526   */\n    tag_242:\n        /* \"#utility.yul\":7394:7471   */\n      0x4e487b7100000000000000000000000000000000000000000000000000000000\n        /* \"#utility.yul\":7391:7392   */\n      0x00\n        /* \"#utility.yul\":7384:7472   */\n      mstore\n        /* \"#utility.yul\":7491:7495   */\n      0x12\n        /* \"#utility.yul\":7488:7489   */\n      0x04\n        /* \"#utility.yul\":7481:7496   */\n      mstore\n        /* \"#utility.yul\":7515:7519   */\n      0x24\n        /* \"#utility.yul\":7512:7513   */\n      0x00\n        /* \"#utility.yul\":7505:7520   */\n      revert\n        /* \"#utility.yul\":7532:7694   */\n    tag_210:\n        /* \"#utility.yul\":7672:7686   */\n      0x66656920666120746f6b656e0000000000000000000000000000000000000000\n        /* \"#utility.yul\":7668:7669   */\n      0x00\n        /* \"#utility.yul\":7660:7666   */\n      dup3\n        /* \"#utility.yul\":7656:7670   */\n      add\n        /* \"#utility.yul\":7649:7687   */\n      mstore\n        /* \"#utility.yul\":7638:7694   */\n      pop\n      jump\t// out\n        /* \"#utility.yul\":7700:7822   */\n    tag_165:\n        /* \"#utility.yul\":7773:7797   */\n      tag_269\n        /* \"#utility.yul\":7791:7796   */\n      dup2\n        /* \"#utility.yul\":7773:7797   */\n      tag_200\n      jump\t// in\n    tag_269:\n        /* \"#utility.yul\":7766:7771   */\n      dup2\n        /* \"#utility.yul\":7763:7798   */\n      eq\n        /* \"#utility.yul\":7753:7755   */\n      tag_270\n      jumpi\n        /* \"#utility.yul\":7812:7813   */\n      0x00\n        /* \"#utility.yul\":7809:7810   */\n      dup1\n        /* \"#utility.yul\":7802:7814   */\n      revert\n        /* \"#utility.yul\":7753:7755   */\n    tag_270:\n        /* \"#utility.yul\":7743:7822   */\n      pop\n      jump\t// out\n        /* \"#utility.yul\":7828:7944   */\n    tag_169:\n        /* \"#utility.yul\":7898:7919   */\n      tag_272\n        /* \"#utility.yul\":7913:7918   */\n      dup2\n        /* \"#utility.yul\":7898:7919   */\n      tag_256\n      jump\t// in\n    tag_272:\n        /* \"#utility.yul\":7891:7896   */\n      dup2\n        /* \"#utility.yul\":7888:7920   */\n      eq\n        /* \"#utility.yul\":7878:7880   */\n      tag_273\n      jumpi\n        /* \"#utility.yul\":7934:7935   */\n      0x00\n        /* \"#utility.yul\":7931:7932   */\n      dup1\n        /* \"#utility.yul\":7924:7936   */\n      revert\n        /* \"#utility.yul\":7878:7880   */\n    tag_273:\n        /* \"#utility.yul\":7868:7944   */\n      pop\n      jump\t// out\n        /* \"#utility.yul\":7950:8072   */\n    tag_173:\n        /* \"#utility.yul\":8023:8047   */\n      tag_275\n        /* \"#utility.yul\":8041:8046   */\n      dup2\n        /* \"#utility.yul\":8023:8047   */\n      tag_214\n      jump\t// in\n    tag_275:\n        /* \"#utility.yul\":8016:8021   */\n      dup2\n        /* \"#utility.yul\":8013:8048   */\n      eq\n        /* \"#utility.yul\":8003:8005   */\n      tag_276\n      jumpi\n        /* \"#utility.yul\":8062:8063   */\n      0x00\n        /* \"#utility.yul\":8059:8060   */\n      dup1\n        /* \"#utility.yul\":8052:8064   */\n      revert\n        /* \"#utility.yul\":8003:8005   */\n    tag_276:\n        /* \"#utility.yul\":7993:8072   */\n      pop\n      jump\t// out\n\n    auxdata: 0xa264697066735822122083f38289c5b04ef6e81d756a6697e160dfe2cd959baeb6973f2fef39a7ceb47564736f6c63430008040033\n}\n",
				"bytecode": {
					"linkReferences": {},
					"object": "60c06040523480156200001157600080fd5b50604051620013c8380380620013c88339818101604052810190620000379190620000c4565b8173ffffffffffffffffffffffffffffffffffffffff1660808173ffffffffffffffffffffffffffffffffffffffff1660601b815250508073ffffffffffffffffffffffffffffffffffffffff1660a08173ffffffffffffffffffffffffffffffffffffffff1660601b81525050505062000153565b600081519050620000be8162000139565b92915050565b60008060408385031215620000d857600080fd5b6000620000e885828601620000ad565b9250506020620000fb85828601620000ad565b9150509250929050565b6000620001128262000119565b9050919050565b600073ffffffffffffffffffffffffffffffffffffffff82169050919050565b620001448162000105565b81146200015057600080fd5b50565b60805160601c60a05160601c6111ee620001da60003960008181610387015281816104eb0152818161064a015281816107f6015281816108e3015281816109510152610baf01526000818161020c015281816102cf0152818161043b0152818161059d015281816107a10152818161088701528181610904015261093001526111ee6000f3fe608060405234801561001057600080fd5b50600436106100a95760003560e01c80637464fc3d116100715780637464fc3d146101565780639c8f9f23146101745780639cd441da14610190578063b4f40c61146101ac578063d004f0f7146101ca578063d21220a7146101e6576100a9565b80630cb4b780146100ae5780630dfe1681146100cc578063443cb4bc146100ea5780635a76f25e1461010857806370a0823114610126575b600080fd5b6100b6610204565b6040516100c39190610f3f565b60405180910390f35b6100d461020a565b6040516100e19190610f04565b60405180910390f35b6100f261022e565b6040516100ff9190610f3f565b60405180910390f35b610110610234565b60405161011d9190610f3f565b60405180910390f35b610140600480360381019061013b9190610d1d565b61023a565b60405161014d9190610f3f565b60405180910390f35b61015e610252565b60405161016b9190610f3f565b60405180910390f35b61018e60048036038101906101899190610dab565b610258565b005b6101aa60048036038101906101a59190610dfd565b610439565b005b6101b4610788565b6040516101c19190610f3f565b60405180910390f35b6101e460048036038101906101df9190610d46565b61079f565b005b6101ee610bad565b6040516101fb9190610f04565b60405180910390f35b60035481565b7f000000000000000000000000000000000000000000000000000000000000000081565b60005481565b60015481565b60046020528060005260406000206000915090505481565b60025481565b60006003546000548361026b9190610ff2565b6102759190610fc1565b905060006003546001548461028a9190610ff2565b6102949190610fc1565b90506102a03384610bd1565b6102c4826000546102b1919061104c565b826001546102bf919061104c565b610c44565b600082111561037c577f000000000000000000000000000000000000000000000000000000000000000073ffffffffffffffffffffffffffffffffffffffff1663a9059cbb33846040518363ffffffff1660e01b8152600401610328929190610edb565b602060405180830381600087803b15801561034257600080fd5b505af1158015610356573d6000803e3d6000fd5b505050506040513d601f19601f8201168201806040525081019061037a9190610d82565b505b6000811115610434577f000000000000000000000000000000000000000000000000000000000000000073ffffffffffffffffffffffffffffffffffffffff1663a9059cbb33836040518363ffffffff1660e01b81526004016103e0929190610edb565b602060405180830381600087803b1580156103fa57600080fd5b505af115801561040e573d6000803e3d6000fd5b505050506040513d601f19601f820116820180604052508101906104329190610d82565b505b505050565b7f000000000000000000000000000000000000000000000000000000000000000073ffffffffffffffffffffffffffffffffffffffff166323b872dd3330856040518463ffffffff1660e01b815260040161049693929190610ea4565b602060405180830381600087803b1580156104b057600080fd5b505af11580156104c4573d6000803e3d6000fd5b505050506040513d601f19601f820116820180604052508101906104e89190610d82565b507f000000000000000000000000000000000000000000000000000000000000000073ffffffffffffffffffffffffffffffffffffffff166323b872dd3330846040518463ffffffff1660e01b815260040161054693929190610ea4565b602060405180830381600087803b15801561056057600080fd5b505af1158015610574573d6000803e3d6000fd5b505050506040513d601f19601f820116820180604052508101906105989190610d82565b5060007f000000000000000000000000000000000000000000000000000000000000000073ffffffffffffffffffffffffffffffffffffffff166370a08231306040518263ffffffff1660e01b81526004016105f49190610e89565b60206040518083038186803b15801561060c57600080fd5b505afa158015610620573d6000803e3d6000fd5b505050506040513d601f19601f820116820180604052508101906106449190610dd4565b905060007f000000000000000000000000000000000000000000000000000000000000000073ffffffffffffffffffffffffffffffffffffffff166370a08231306040518263ffffffff1660e01b81526004016106a19190610e89565b60206040518083038186803b1580156106b957600080fd5b505afa1580156106cd573d6000803e3d6000fd5b505050506040513d601f19601f820116820180604052508101906106f19190610dd4565b90506000805483610702919061104c565b9050600060015483610714919061104c565b9050600080600354111561075c576001546000546107329190610f6b565b60035483856107419190610f6b565b61074b9190610ff2565b6107559190610fc1565b905061076b565b85876107689190610f6b565b90505b6107753382610c56565b61077f8585610c44565b50505050505050565b600060015460005461079a9190610ff2565b905090565b7f000000000000000000000000000000000000000000000000000000000000000073ffffffffffffffffffffffffffffffffffffffff168273ffffffffffffffffffffffffffffffffffffffff16148061084457507f000000000000000000000000000000000000000000000000000000000000000073ffffffffffffffffffffffffffffffffffffffff168273ffffffffffffffffffffffffffffffffffffffff16145b610883576040517f08c379a000000000000000000000000000000000000000000000000000000000815260040161087a90610f1f565b60405180910390fd5b60007f000000000000000000000000000000000000000000000000000000000000000073ffffffffffffffffffffffffffffffffffffffff168373ffffffffffffffffffffffffffffffffffffffff161490506000806000808461092e577f00000000000000000000000000000000000000000000000000000000000000007f0000000000000000000000000000000000000000000000000000000000000000600154600054610977565b7f00000000000000000000000000000000000000000000000000000000000000007f00000000000000000000000000000000000000000000000000000000000000006000546001545b93509350935093508373ffffffffffffffffffffffffffffffffffffffff166323b872dd3330896040518463ffffffff1660e01b81526004016109bc93929190610ea4565b602060405180830381600087803b1580156109d657600080fd5b505af11580156109ea573d6000803e3d6000fd5b505050506040513d601f19601f82011682018060405250810190610a0e9190610d82565b506000828573ffffffffffffffffffffffffffffffffffffffff166370a08231306040518263ffffffff1660e01b8152600401610a4b9190610e89565b60206040518083038186803b158015610a6357600080fd5b505afa158015610a77573d6000803e3d6000fd5b505050506040513d601f19601f82011682018060405250810190610a9b9190610dd4565b610aa5919061104c565b905060006103e86103e583610aba9190610ff2565b610ac49190610fc1565b905060008088610aeb578285610ada919061104c565b8487610ae69190610f6b565b610b04565b8386610af79190610f6b565b8386610b03919061104c565b5b91509150610b128282610c44565b8673ffffffffffffffffffffffffffffffffffffffff1663a9059cbb33856040518363ffffffff1660e01b8152600401610b4d929190610edb565b602060405180830381600087803b158015610b6757600080fd5b505af1158015610b7b573d6000803e3d6000fd5b505050506040513d601f19601f82011682018060405250810190610b9f9190610d82565b505050505050505050505050565b7f000000000000000000000000000000000000000000000000000000000000000081565b80600460008473ffffffffffffffffffffffffffffffffffffffff1673ffffffffffffffffffffffffffffffffffffffff1681526020019081526020016000206000828254610c20919061104c565b925050819055508060036000828254610c39919061104c565b925050819055505050565b81600081905550806001819055505050565b80600460008473ffffffffffffffffffffffffffffffffffffffff1673ffffffffffffffffffffffffffffffffffffffff1681526020019081526020016000206000828254610ca59190610f6b565b925050819055508060036000828254610cbe9190610f6b565b925050819055505050565b600081359050610cd881611173565b92915050565b600081519050610ced8161118a565b92915050565b600081359050610d02816111a1565b92915050565b600081519050610d17816111a1565b92915050565b600060208284031215610d2f57600080fd5b6000610d3d84828501610cc9565b91505092915050565b60008060408385031215610d5957600080fd5b6000610d6785828601610cc9565b9250506020610d7885828601610cf3565b9150509250929050565b600060208284031215610d9457600080fd5b6000610da284828501610cde565b91505092915050565b600060208284031215610dbd57600080fd5b6000610dcb84828501610cf3565b91505092915050565b600060208284031215610de657600080fd5b6000610df484828501610d08565b91505092915050565b60008060408385031215610e1057600080fd5b6000610e1e85828601610cf3565b9250506020610e2f85828601610cf3565b9150509250929050565b610e4281611080565b82525050565b610e51816110c8565b82525050565b6000610e64600c83610f5a565b9150610e6f8261114a565b602082019050919050565b610e83816110be565b82525050565b6000602082019050610e9e6000830184610e39565b92915050565b6000606082019050610eb96000830186610e39565b610ec66020830185610e39565b610ed36040830184610e7a565b949350505050565b6000604082019050610ef06000830185610e39565b610efd6020830184610e7a565b9392505050565b6000602082019050610f196000830184610e48565b92915050565b60006020820190508181036000830152610f3881610e57565b9050919050565b6000602082019050610f546000830184610e7a565b92915050565b600082825260208201905092915050565b6000610f76826110be565b9150610f81836110be565b9250827fffffffffffffffffffffffffffffffffffffffffffffffffffffffffffffffff03821115610fb657610fb56110ec565b5b828201905092915050565b6000610fcc826110be565b9150610fd7836110be565b925082610fe757610fe661111b565b5b828204905092915050565b6000610ffd826110be565b9150611008836110be565b9250817fffffffffffffffffffffffffffffffffffffffffffffffffffffffffffffffff0483118215151615611041576110406110ec565b5b828202905092915050565b6000611057826110be565b9150611062836110be565b925082821015611075576110746110ec565b5b828203905092915050565b600061108b8261109e565b9050919050565b60008115159050919050565b600073ffffffffffffffffffffffffffffffffffffffff82169050919050565b6000819050919050565b60006110d3826110da565b9050919050565b60006110e58261109e565b9050919050565b7f4e487b7100000000000000000000000000000000000000000000000000000000600052601160045260246000fd5b7f4e487b7100000000000000000000000000000000000000000000000000000000600052601260045260246000fd5b7f66656920666120746f6b656e0000000000000000000000000000000000000000600082015250565b61117c81611080565b811461118757600080fd5b50565b61119381611092565b811461119e57600080fd5b50565b6111aa816110be565b81146111b557600080fd5b5056fea264697066735822122083f38289c5b04ef6e81d756a6697e160dfe2cd959baeb6973f2fef39a7ceb47564736f6c63430008040033",
					"opcodes": "PUSH1 0xC0 PUSH1 0x40 MSTORE CALLVALUE DUP1 ISZERO PUSH3 0x11 JUMPI PUSH1 0x0 DUP1 REVERT JUMPDEST POP PUSH1 0x40 MLOAD PUSH3 0x13C8 CODESIZE SUB DUP1 PUSH3 0x13C8 DUP4 CODECOPY DUP2 DUP2 ADD PUSH1 0x40 MSTORE DUP2 ADD SWAP1 PUSH3 0x37 SWAP2 SWAP1 PUSH3 0xC4 JUMP JUMPDEST DUP2 PUSH20 0xFFFFFFFFFFFFFFFFFFFFFFFFFFFFFFFFFFFFFFFF AND PUSH1 0x80 DUP2 PUSH20 0xFFFFFFFFFFFFFFFFFFFFFFFFFFFFFFFFFFFFFFFF AND PUSH1 0x60 SHL DUP2 MSTORE POP POP DUP1 PUSH20 0xFFFFFFFFFFFFFFFFFFFFFFFFFFFFFFFFFFFFFFFF AND PUSH1 0xA0 DUP2 PUSH20 0xFFFFFFFFFFFFFFFFFFFFFFFFFFFFFFFFFFFFFFFF AND PUSH1 0x60 SHL DUP2 MSTORE POP POP POP POP PUSH3 0x153 JUMP JUMPDEST PUSH1 0x0 DUP2 MLOAD SWAP1 POP PUSH3 0xBE DUP2 PUSH3 0x139 JUMP JUMPDEST SWAP3 SWAP2 POP POP JUMP JUMPDEST PUSH1 0x0 DUP1 PUSH1 0x40 DUP4 DUP6 SUB SLT ISZERO PUSH3 0xD8 JUMPI PUSH1 0x0 DUP1 REVERT JUMPDEST PUSH1 0x0 PUSH3 0xE8 DUP6 DUP3 DUP7 ADD PUSH3 0xAD JUMP JUMPDEST SWAP3 POP POP PUSH1 0x20 PUSH3 0xFB DUP6 DUP3 DUP7 ADD PUSH3 0xAD JUMP JUMPDEST SWAP2 POP POP SWAP3 POP SWAP3 SWAP1 POP JUMP JUMPDEST PUSH1 0x0 PUSH3 0x112 DUP3 PUSH3 0x119 JUMP JUMPDEST SWAP1 POP SWAP2 SWAP1 POP JUMP JUMPDEST PUSH1 0x0 PUSH20 0xFFFFFFFFFFFFFFFFFFFFFFFFFFFFFFFFFFFFFFFF DUP3 AND SWAP1 POP SWAP2 SWAP1 POP JUMP JUMPDEST PUSH3 0x144 DUP2 PUSH3 0x105 JUMP JUMPDEST DUP2 EQ PUSH3 0x150 JUMPI PUSH1 0x0 DUP1 REVERT JUMPDEST POP JUMP JUMPDEST PUSH1 0x80 MLOAD PUSH1 0x60 SHR PUSH1 0xA0 MLOAD PUSH1 0x60 SHR PUSH2 0x11EE PUSH3 0x1DA PUSH1 0x0 CODECOPY PUSH1 0x0 DUP2 DUP2 PUSH2 0x387 ADD MSTORE DUP2 DUP2 PUSH2 0x4EB ADD MSTORE DUP2 DUP2 PUSH2 0x64A ADD MSTORE DUP2 DUP2 PUSH2 0x7F6 ADD MSTORE DUP2 DUP2 PUSH2 0x8E3 ADD MSTORE DUP2 DUP2 PUSH2 0x951 ADD MSTORE PUSH2 0xBAF ADD MSTORE PUSH1 0x0 DUP2 DUP2 PUSH2 0x20C ADD MSTORE DUP2 DUP2 PUSH2 0x2CF ADD MSTORE DUP2 DUP2 PUSH2 0x43B ADD MSTORE DUP2 DUP2 PUSH2 0x59D ADD MSTORE DUP2 DUP2 PUSH2 0x7A1 ADD MSTORE DUP2 DUP2 PUSH2 0x887 ADD MSTORE DUP2 DUP2 PUSH2 0x904 ADD MSTORE PUSH2 0x930 ADD MSTORE PUSH2 0x11EE PUSH1 0x0 RETURN INVALID PUSH1 0x80 PUSH1 0x40 MSTORE CALLVALUE DUP1 ISZERO PUSH2 0x10 JUMPI PUSH1 0x0 DUP1 REVERT JUMPDEST POP PUSH1 0x4 CALLDATASIZE LT PUSH2 0xA9 JUMPI PUSH1 0x0 CALLDATALOAD PUSH1 0xE0 SHR DUP1 PUSH4 0x7464FC3D GT PUSH2 0x71 JUMPI DUP1 PUSH4 0x7464FC3D EQ PUSH2 0x156 JUMPI DUP1 PUSH4 0x9C8F9F23 EQ PUSH2 0x174 JUMPI DUP1 PUSH4 0x9CD441DA EQ PUSH2 0x190 JUMPI DUP1 PUSH4 0xB4F40C61 EQ PUSH2 0x1AC JUMPI DUP1 PUSH4 0xD004F0F7 EQ PUSH2 0x1CA JUMPI DUP1 PUSH4 0xD21220A7 EQ PUSH2 0x1E6 JUMPI PUSH2 0xA9 JUMP JUMPDEST DUP1 PUSH4 0xCB4B780 EQ PUSH2 0xAE JUMPI DUP1 PUSH4 0xDFE1681 EQ PUSH2 0xCC JUMPI DUP1 PUSH4 0x443CB4BC EQ PUSH2 0xEA JUMPI DUP1 PUSH4 0x5A76F25E EQ PUSH2 0x108 JUMPI DUP1 PUSH4 0x70A08231 EQ PUSH2 0x126 JUMPI JUMPDEST PUSH1 0x0 DUP1 REVERT JUMPDEST PUSH2 0xB6 PUSH2 0x204 JUMP JUMPDEST PUSH1 0x40 MLOAD PUSH2 0xC3 SWAP2 SWAP1 PUSH2 0xF3F JUMP JUMPDEST PUSH1 0x40 MLOAD DUP1 SWAP2 SUB SWAP1 RETURN JUMPDEST PUSH2 0xD4 PUSH2 0x20A JUMP JUMPDEST PUSH1 0x40 MLOAD PUSH2 0xE1 SWAP2 SWAP1 PUSH2 0xF04 JUMP JUMPDEST PUSH1 0x40 MLOAD DUP1 SWAP2 SUB SWAP1 RETURN JUMPDEST PUSH2 0xF2 PUSH2 0x22E JUMP JUMPDEST PUSH1 0x40 MLOAD PUSH2 0xFF SWAP2 SWAP1 PUSH2 0xF3F JUMP JUMPDEST PUSH1 0x40 MLOAD DUP1 SWAP2 SUB SWAP1 RETURN JUMPDEST PUSH2 0x110 PUSH2 0x234 JUMP JUMPDEST PUSH1 0x40 MLOAD PUSH2 0x11D SWAP2 SWAP1 PUSH2 0xF3F JUMP JUMPDEST PUSH1 0x40 MLOAD DUP1 SWAP2 SUB SWAP1 RETURN JUMPDEST PUSH2 0x140 PUSH1 0x4 DUP1 CALLDATASIZE SUB DUP2 ADD SWAP1 PUSH2 0x13B SWAP2 SWAP1 PUSH2 0xD1D JUMP JUMPDEST PUSH2 0x23A JUMP JUMPDEST PUSH1 0x40 MLOAD PUSH2 0x14D SWAP2 SWAP1 PUSH2 0xF3F JUMP JUMPDEST PUSH1 0x40 MLOAD DUP1 SWAP2 SUB SWAP1 RETURN JUMPDEST PUSH2 0x15E PUSH2 0x252 JUMP JUMPDEST PUSH1 0x40 MLOAD PUSH2 0x16B SWAP2 SWAP1 PUSH2 0xF3F JUMP JUMPDEST PUSH1 0x40 MLOAD DUP1 SWAP2 SUB SWAP1 RETURN JUMPDEST PUSH2 0x18E PUSH1 0x4 DUP1 CALLDATASIZE SUB DUP2 ADD SWAP1 PUSH2 0x189 SWAP2 SWAP1 PUSH2 0xDAB JUMP JUMPDEST PUSH2 0x258 JUMP JUMPDEST STOP JUMPDEST PUSH2 0x1AA PUSH1 0x4 DUP1 CALLDATASIZE SUB DUP2 ADD SWAP1 PUSH2 0x1A5 SWAP2 SWAP1 PUSH2 0xDFD JUMP JUMPDEST PUSH2 0x439 JUMP JUMPDEST STOP JUMPDEST PUSH2 0x1B4 PUSH2 0x788 JUMP JUMPDEST PUSH1 0x40 MLOAD PUSH2 0x1C1 SWAP2 SWAP1 PUSH2 0xF3F JUMP JUMPDEST PUSH1 0x40 MLOAD DUP1 SWAP2 SUB SWAP1 RETURN JUMPDEST PUSH2 0x1E4 PUSH1 0x4 DUP1 CALLDATASIZE SUB DUP2 ADD SWAP1 PUSH2 0x1DF SWAP2 SWAP1 PUSH2 0xD46 JUMP JUMPDEST PUSH2 0x79F JUMP JUMPDEST STOP JUMPDEST PUSH2 0x1EE PUSH2 0xBAD JUMP JUMPDEST PUSH1 0x40 MLOAD PUSH2 0x1FB SWAP2 SWAP1 PUSH2 0xF04 JUMP JUMPDEST PUSH1 0x40 MLOAD DUP1 SWAP2 SUB SWAP1 RETURN JUMPDEST PUSH1 0x3 SLOAD DUP2 JUMP JUMPDEST PUSH32 0x0 DUP2 JUMP JUMPDEST PUSH1 0x0 SLOAD DUP2 JUMP JUMPDEST PUSH1 0x1 SLOAD DUP2 JUMP JUMPDEST PUSH1 0x4 PUSH1 0x20 MSTORE DUP1 PUSH1 0x0 MSTORE PUSH1 0x40 PUSH1 0x0 KECCAK256 PUSH1 0x0 SWAP2 POP SWAP1 POP SLOAD DUP2 JUMP JUMPDEST PUSH1 0x2 SLOAD DUP2 JUMP JUMPDEST PUSH1 0x0 PUSH1 0x3 SLOAD PUSH1 0x0 SLOAD DUP4 PUSH2 0x26B SWAP2 SWAP1 PUSH2 0xFF2 JUMP JUMPDEST PUSH2 0x275 SWAP2 SWAP1 PUSH2 0xFC1 JUMP JUMPDEST SWAP1 POP PUSH1 0x0 PUSH1 0x3 SLOAD PUSH1 0x1 SLOAD DUP5 PUSH2 0x28A SWAP2 SWAP1 PUSH2 0xFF2 JUMP JUMPDEST PUSH2 0x294 SWAP2 SWAP1 PUSH2 0xFC1 JUMP JUMPDEST SWAP1 POP PUSH2 0x2A0 CALLER DUP5 PUSH2 0xBD1 JUMP JUMPDEST PUSH2 0x2C4 DUP3 PUSH1 0x0 SLOAD PUSH2 0x2B1 SWAP2 SWAP1 PUSH2 0x104C JUMP JUMPDEST DUP3 PUSH1 0x1 SLOAD PUSH2 0x2BF SWAP2 SWAP1 PUSH2 0x104C JUMP JUMPDEST PUSH2 0xC44 JUMP JUMPDEST PUSH1 0x0 DUP3 GT ISZERO PUSH2 0x37C JUMPI PUSH32 0x0 PUSH20 0xFFFFFFFFFFFFFFFFFFFFFFFFFFFFFFFFFFFFFFFF AND PUSH4 0xA9059CBB CALLER DUP5 PUSH1 0x40 MLOAD DUP4 PUSH4 0xFFFFFFFF AND PUSH1 0xE0 SHL DUP2 MSTORE PUSH1 0x4 ADD PUSH2 0x328 SWAP3 SWAP2 SWAP1 PUSH2 0xEDB JUMP JUMPDEST PUSH1 0x20 PUSH1 0x40 MLOAD DUP1 DUP4 SUB DUP2 PUSH1 0x0 DUP8 DUP1 EXTCODESIZE ISZERO DUP1 ISZERO PUSH2 0x342 JUMPI PUSH1 0x0 DUP1 REVERT JUMPDEST POP GAS CALL ISZERO DUP1 ISZERO PUSH2 0x356 JUMPI RETURNDATASIZE PUSH1 0x0 DUP1 RETURNDATACOPY RETURNDATASIZE PUSH1 0x0 REVERT JUMPDEST POP POP POP POP PUSH1 0x40 MLOAD RETURNDATASIZE PUSH1 0x1F NOT PUSH1 0x1F DUP3 ADD AND DUP3 ADD DUP1 PUSH1 0x40 MSTORE POP DUP2 ADD SWAP1 PUSH2 0x37A SWAP2 SWAP1 PUSH2 0xD82 JUMP JUMPDEST POP JUMPDEST PUSH1 0x0 DUP2 GT ISZERO PUSH2 0x434 JUMPI PUSH32 0x0 PUSH20 0xFFFFFFFFFFFFFFFFFFFFFFFFFFFFFFFFFFFFFFFF AND PUSH4 0xA9059CBB CALLER DUP4 PUSH1 0x40 MLOAD DUP4 PUSH4 0xFFFFFFFF AND PUSH1 0xE0 SHL DUP2 MSTORE PUSH1 0x4 ADD PUSH2 0x3E0 SWAP3 SWAP2 SWAP1 PUSH2 0xEDB JUMP JUMPDEST PUSH1 0x20 PUSH1 0x40 MLOAD DUP1 DUP4 SUB DUP2 PUSH1 0x0 DUP8 DUP1 EXTCODESIZE ISZERO DUP1 ISZERO PUSH2 0x3FA JUMPI PUSH1 0x0 DUP1 REVERT JUMPDEST POP GAS CALL ISZERO DUP1 ISZERO PUSH2 0x40E JUMPI RETURNDATASIZE PUSH1 0x0 DUP1 RETURNDATACOPY RETURNDATASIZE PUSH1 0x0 REVERT JUMPDEST POP POP POP POP PUSH1 0x40 MLOAD RETURNDATASIZE PUSH1 0x1F NOT PUSH1 0x1F DUP3 ADD AND DUP3 ADD DUP1 PUSH1 0x40 MSTORE POP DUP2 ADD SWAP1 PUSH2 0x432 SWAP2 SWAP1 PUSH2 0xD82 JUMP JUMPDEST POP JUMPDEST POP POP POP JUMP JUMPDEST PUSH32 0x0 PUSH20 0xFFFFFFFFFFFFFFFFFFFFFFFFFFFFFFFFFFFFFFFF AND PUSH4 0x23B872DD CALLER ADDRESS DUP6 PUSH1 0x40 MLOAD DUP5 PUSH4 0xFFFFFFFF AND PUSH1 0xE0 SHL DUP2 MSTORE PUSH1 0x4 ADD PUSH2 0x496 SWAP4 SWAP3 SWAP2 SWAP1 PUSH2 0xEA4 JUMP JUMPDEST PUSH1 0x20 PUSH1 0x40 MLOAD DUP1 DUP4 SUB DUP2 PUSH1 0x0 DUP8 DUP1 EXTCODESIZE ISZERO DUP1 ISZERO PUSH2 0x4B0 JUMPI PUSH1 0x0 DUP1 REVERT JUMPDEST POP GAS CALL ISZERO DUP1 ISZERO PUSH2 0x4C4 JUMPI RETURNDATASIZE PUSH1 0x0 DUP1 RETURNDATACOPY RETURNDATASIZE PUSH1 0x0 REVERT JUMPDEST POP POP POP POP PUSH1 0x40 MLOAD RETURNDATASIZE PUSH1 0x1F NOT PUSH1 0x1F DUP3 ADD AND DUP3 ADD DUP1 PUSH1 0x40 MSTORE POP DUP2 ADD SWAP1 PUSH2 0x4E8 SWAP2 SWAP1 PUSH2 0xD82 JUMP JUMPDEST POP PUSH32 0x0 PUSH20 0xFFFFFFFFFFFFFFFFFFFFFFFFFFFFFFFFFFFFFFFF AND PUSH4 0x23B872DD CALLER ADDRESS DUP5 PUSH1 0x40 MLOAD DUP5 PUSH4 0xFFFFFFFF AND PUSH1 0xE0 SHL DUP2 MSTORE PUSH1 0x4 ADD PUSH2 0x546 SWAP4 SWAP3 SWAP2 SWAP1 PUSH2 0xEA4 JUMP JUMPDEST PUSH1 0x20 PUSH1 0x40 MLOAD DUP1 DUP4 SUB DUP2 PUSH1 0x0 DUP8 DUP1 EXTCODESIZE ISZERO DUP1 ISZERO PUSH2 0x560 JUMPI PUSH1 0x0 DUP1 REVERT JUMPDEST POP GAS CALL ISZERO DUP1 ISZERO PUSH2 0x574 JUMPI RETURNDATASIZE PUSH1 0x0 DUP1 RETURNDATACOPY RETURNDATASIZE PUSH1 0x0 REVERT JUMPDEST POP POP POP POP PUSH1 0x40 MLOAD RETURNDATASIZE PUSH1 0x1F NOT PUSH1 0x1F DUP3 ADD AND DUP3 ADD DUP1 PUSH1 0x40 MSTORE POP DUP2 ADD SWAP1 PUSH2 0x598 SWAP2 SWAP1 PUSH2 0xD82 JUMP JUMPDEST POP PUSH1 0x0 PUSH32 0x0 PUSH20 0xFFFFFFFFFFFFFFFFFFFFFFFFFFFFFFFFFFFFFFFF AND PUSH4 0x70A08231 ADDRESS PUSH1 0x40 MLOAD DUP3 PUSH4 0xFFFFFFFF AND PUSH1 0xE0 SHL DUP2 MSTORE PUSH1 0x4 ADD PUSH2 0x5F4 SWAP2 SWAP1 PUSH2 0xE89 JUMP JUMPDEST PUSH1 0x20 PUSH1 0x40 MLOAD DUP1 DUP4 SUB DUP2 DUP7 DUP1 EXTCODESIZE ISZERO DUP1 ISZERO PUSH2 0x60C JUMPI PUSH1 0x0 DUP1 REVERT JUMPDEST POP GAS STATICCALL ISZERO DUP1 ISZERO PUSH2 0x620 JUMPI RETURNDATASIZE PUSH1 0x0 DUP1 RETURNDATACOPY RETURNDATASIZE PUSH1 0x0 REVERT JUMPDEST POP POP POP POP PUSH1 0x40 MLOAD RETURNDATASIZE PUSH1 0x1F NOT PUSH1 0x1F DUP3 ADD AND DUP3 ADD DUP1 PUSH1 0x40 MSTORE POP DUP2 ADD SWAP1 PUSH2 0x644 SWAP2 SWAP1 PUSH2 0xDD4 JUMP JUMPDEST SWAP1 POP PUSH1 0x0 PUSH32 0x0 PUSH20 0xFFFFFFFFFFFFFFFFFFFFFFFFFFFFFFFFFFFFFFFF AND PUSH4 0x70A08231 ADDRESS PUSH1 0x40 MLOAD DUP3 PUSH4 0xFFFFFFFF AND PUSH1 0xE0 SHL DUP2 MSTORE PUSH1 0x4 ADD PUSH2 0x6A1 SWAP2 SWAP1 PUSH2 0xE89 JUMP JUMPDEST PUSH1 0x20 PUSH1 0x40 MLOAD DUP1 DUP4 SUB DUP2 DUP7 DUP1 EXTCODESIZE ISZERO DUP1 ISZERO PUSH2 0x6B9 JUMPI PUSH1 0x0 DUP1 REVERT JUMPDEST POP GAS STATICCALL ISZERO DUP1 ISZERO PUSH2 0x6CD JUMPI RETURNDATASIZE PUSH1 0x0 DUP1 RETURNDATACOPY RETURNDATASIZE PUSH1 0x0 REVERT JUMPDEST POP POP POP POP PUSH1 0x40 MLOAD RETURNDATASIZE PUSH1 0x1F NOT PUSH1 0x1F DUP3 ADD AND DUP3 ADD DUP1 PUSH1 0x40 MSTORE POP DUP2 ADD SWAP1 PUSH2 0x6F1 SWAP2 SWAP1 PUSH2 0xDD4 JUMP JUMPDEST SWAP1 POP PUSH1 0x0 DUP1 SLOAD DUP4 PUSH2 0x702 SWAP2 SWAP1 PUSH2 0x104C JUMP JUMPDEST SWAP1 POP PUSH1 0x0 PUSH1 0x1 SLOAD DUP4 PUSH2 0x714 SWAP2 SWAP1 PUSH2 0x104C JUMP JUMPDEST SWAP1 POP PUSH1 0x0 DUP1 PUSH1 0x3 SLOAD GT ISZERO PUSH2 0x75C JUMPI PUSH1 0x1 SLOAD PUSH1 0x0 SLOAD PUSH2 0x732 SWAP2 SWAP1 PUSH2 0xF6B JUMP JUMPDEST PUSH1 0x3 SLOAD DUP4 DUP6 PUSH2 0x741 SWAP2 SWAP1 PUSH2 0xF6B JUMP JUMPDEST PUSH2 0x74B SWAP2 SWAP1 PUSH2 0xFF2 JUMP JUMPDEST PUSH2 0x755 SWAP2 SWAP1 PUSH2 0xFC1 JUMP JUMPDEST SWAP1 POP PUSH2 0x76B JUMP JUMPDEST DUP6 DUP8 PUSH2 0x768 SWAP2 SWAP1 PUSH2 0xF6B JUMP JUMPDEST SWAP1 POP JUMPDEST PUSH2 0x775 CALLER DUP3 PUSH2 0xC56 JUMP JUMPDEST PUSH2 0x77F DUP6 DUP6 PUSH2 0xC44 JUMP JUMPDEST POP POP POP POP POP POP POP JUMP JUMPDEST PUSH1 0x0 PUSH1 0x1 SLOAD PUSH1 0x0 SLOAD PUSH2 0x79A SWAP2 SWAP1 PUSH2 0xFF2 JUMP JUMPDEST SWAP1 POP SWAP1 JUMP JUMPDEST PUSH32 0x0 PUSH20 0xFFFFFFFFFFFFFFFFFFFFFFFFFFFFFFFFFFFFFFFF AND DUP3 PUSH20 0xFFFFFFFFFFFFFFFFFFFFFFFFFFFFFFFFFFFFFFFF AND EQ DUP1 PUSH2 0x844 JUMPI POP PUSH32 0x0 PUSH20 0xFFFFFFFFFFFFFFFFFFFFFFFFFFFFFFFFFFFFFFFF AND DUP3 PUSH20 0xFFFFFFFFFFFFFFFFFFFFFFFFFFFFFFFFFFFFFFFF AND EQ JUMPDEST PUSH2 0x883 JUMPI PUSH1 0x40 MLOAD PUSH32 0x8C379A000000000000000000000000000000000000000000000000000000000 DUP2 MSTORE PUSH1 0x4 ADD PUSH2 0x87A SWAP1 PUSH2 0xF1F JUMP JUMPDEST PUSH1 0x40 MLOAD DUP1 SWAP2 SUB SWAP1 REVERT JUMPDEST PUSH1 0x0 PUSH32 0x0 PUSH20 0xFFFFFFFFFFFFFFFFFFFFFFFFFFFFFFFFFFFFFFFF AND DUP4 PUSH20 0xFFFFFFFFFFFFFFFFFFFFFFFFFFFFFFFFFFFFFFFF AND EQ SWAP1 POP PUSH1 0x0 DUP1 PUSH1 0x0 DUP1 DUP5 PUSH2 0x92E JUMPI PUSH32 0x0 PUSH32 0x0 PUSH1 0x1 SLOAD PUSH1 0x0 SLOAD PUSH2 0x977 JUMP JUMPDEST PUSH32 0x0 PUSH32 0x0 PUSH1 0x0 SLOAD PUSH1 0x1 SLOAD JUMPDEST SWAP4 POP SWAP4 POP SWAP4 POP SWAP4 POP DUP4 PUSH20 0xFFFFFFFFFFFFFFFFFFFFFFFFFFFFFFFFFFFFFFFF AND PUSH4 0x23B872DD CALLER ADDRESS DUP10 PUSH1 0x40 MLOAD DUP5 PUSH4 0xFFFFFFFF AND PUSH1 0xE0 SHL DUP2 MSTORE PUSH1 0x4 ADD PUSH2 0x9BC SWAP4 SWAP3 SWAP2 SWAP1 PUSH2 0xEA4 JUMP JUMPDEST PUSH1 0x20 PUSH1 0x40 MLOAD DUP1 DUP4 SUB DUP2 PUSH1 0x0 DUP8 DUP1 EXTCODESIZE ISZERO DUP1 ISZERO PUSH2 0x9D6 JUMPI PUSH1 0x0 DUP1 REVERT JUMPDEST POP GAS CALL ISZERO DUP1 ISZERO PUSH2 0x9EA JUMPI RETURNDATASIZE PUSH1 0x0 DUP1 RETURNDATACOPY RETURNDATASIZE PUSH1 0x0 REVERT JUMPDEST POP POP POP POP PUSH1 0x40 MLOAD RETURNDATASIZE PUSH1 0x1F NOT PUSH1 0x1F DUP3 ADD AND DUP3 ADD DUP1 PUSH1 0x40 MSTORE POP DUP2 ADD SWAP1 PUSH2 0xA0E SWAP2 SWAP1 PUSH2 0xD82 JUMP JUMPDEST POP PUSH1 0x0 DUP3 DUP6 PUSH20 0xFFFFFFFFFFFFFFFFFFFFFFFFFFFFFFFFFFFFFFFF AND PUSH4 0x70A08231 ADDRESS PUSH1 0x40 MLOAD DUP3 PUSH4 0xFFFFFFFF AND PUSH1 0xE0 SHL DUP2 MSTORE PUSH1 0x4 ADD PUSH2 0xA4B SWAP2 SWAP1 PUSH2 0xE89 JUMP JUMPDEST PUSH1 0x20 PUSH1 0x40 MLOAD DUP1 DUP4 SUB DUP2 DUP7 DUP1 EXTCODESIZE ISZERO DUP1 ISZERO PUSH2 0xA63 JUMPI PUSH1 0x0 DUP1 REVERT JUMPDEST POP GAS STATICCALL ISZERO DUP1 ISZERO PUSH2 0xA77 JUMPI RETURNDATASIZE PUSH1 0x0 DUP1 RETURNDATACOPY RETURNDATASIZE PUSH1 0x0 REVERT JUMPDEST POP POP POP POP PUSH1 0x40 MLOAD RETURNDATASIZE PUSH1 0x1F NOT PUSH1 0x1F DUP3 ADD AND DUP3 ADD DUP1 PUSH1 0x40 MSTORE POP DUP2 ADD SWAP1 PUSH2 0xA9B SWAP2 SWAP1 PUSH2 0xDD4 JUMP JUMPDEST PUSH2 0xAA5 SWAP2 SWAP1 PUSH2 0x104C JUMP JUMPDEST SWAP1 POP PUSH1 0x0 PUSH2 0x3E8 PUSH2 0x3E5 DUP4 PUSH2 0xABA SWAP2 SWAP1 PUSH2 0xFF2 JUMP JUMPDEST PUSH2 0xAC4 SWAP2 SWAP1 PUSH2 0xFC1 JUMP JUMPDEST SWAP1 POP PUSH1 0x0 DUP1 DUP9 PUSH2 0xAEB JUMPI DUP3 DUP6 PUSH2 0xADA SWAP2 SWAP1 PUSH2 0x104C JUMP JUMPDEST DUP5 DUP8 PUSH2 0xAE6 SWAP2 SWAP1 PUSH2 0xF6B JUMP JUMPDEST PUSH2 0xB04 JUMP JUMPDEST DUP4 DUP7 PUSH2 0xAF7 SWAP2 SWAP1 PUSH2 0xF6B JUMP JUMPDEST DUP4 DUP7 PUSH2 0xB03 SWAP2 SWAP1 PUSH2 0x104C JUMP JUMPDEST JUMPDEST SWAP2 POP SWAP2 POP PUSH2 0xB12 DUP3 DUP3 PUSH2 0xC44 JUMP JUMPDEST DUP7 PUSH20 0xFFFFFFFFFFFFFFFFFFFFFFFFFFFFFFFFFFFFFFFF AND PUSH4 0xA9059CBB CALLER DUP6 PUSH1 0x40 MLOAD DUP4 PUSH4 0xFFFFFFFF AND PUSH1 0xE0 SHL DUP2 MSTORE PUSH1 0x4 ADD PUSH2 0xB4D SWAP3 SWAP2 SWAP1 PUSH2 0xEDB JUMP JUMPDEST PUSH1 0x20 PUSH1 0x40 MLOAD DUP1 DUP4 SUB DUP2 PUSH1 0x0 DUP8 DUP1 EXTCODESIZE ISZERO DUP1 ISZERO PUSH2 0xB67 JUMPI PUSH1 0x0 DUP1 REVERT JUMPDEST POP GAS CALL ISZERO DUP1 ISZERO PUSH2 0xB7B JUMPI RETURNDATASIZE PUSH1 0x0 DUP1 RETURNDATACOPY RETURNDATASIZE PUSH1 0x0 REVERT JUMPDEST POP POP POP POP PUSH1 0x40 MLOAD RETURNDATASIZE PUSH1 0x1F NOT PUSH1 0x1F DUP3 ADD AND DUP3 ADD DUP1 PUSH1 0x40 MSTORE POP DUP2 ADD SWAP1 PUSH2 0xB9F SWAP2 SWAP1 PUSH2 0xD82 JUMP JUMPDEST POP POP POP POP POP POP POP POP POP POP POP POP JUMP JUMPDEST PUSH32 0x0 DUP2 JUMP JUMPDEST DUP1 PUSH1 0x4 PUSH1 0x0 DUP5 PUSH20 0xFFFFFFFFFFFFFFFFFFFFFFFFFFFFFFFFFFFFFFFF AND PUSH20 0xFFFFFFFFFFFFFFFFFFFFFFFFFFFFFFFFFFFFFFFF AND DUP2 MSTORE PUSH1 0x20 ADD SWAP1 DUP2 MSTORE PUSH1 0x20 ADD PUSH1 0x0 KECCAK256 PUSH1 0x0 DUP3 DUP3 SLOAD PUSH2 0xC20 SWAP2 SWAP1 PUSH2 0x104C JUMP JUMPDEST SWAP3 POP POP DUP2 SWAP1 SSTORE POP DUP1 PUSH1 0x3 PUSH1 0x0 DUP3 DUP3 SLOAD PUSH2 0xC39 SWAP2 SWAP1 PUSH2 0x104C JUMP JUMPDEST SWAP3 POP POP DUP2 SWAP1 SSTORE POP POP POP JUMP JUMPDEST DUP2 PUSH1 0x0 DUP2 SWAP1 SSTORE POP DUP1 PUSH1 0x1 DUP2 SWAP1 SSTORE POP POP POP JUMP JUMPDEST DUP1 PUSH1 0x4 PUSH1 0x0 DUP5 PUSH20 0xFFFFFFFFFFFFFFFFFFFFFFFFFFFFFFFFFFFFFFFF AND PUSH20 0xFFFFFFFFFFFFFFFFFFFFFFFFFFFFFFFFFFFFFFFF AND DUP2 MSTORE PUSH1 0x20 ADD SWAP1 DUP2 MSTORE PUSH1 0x20 ADD PUSH1 0x0 KECCAK256 PUSH1 0x0 DUP3 DUP3 SLOAD PUSH2 0xCA5 SWAP2 SWAP1 PUSH2 0xF6B JUMP JUMPDEST SWAP3 POP POP DUP2 SWAP1 SSTORE POP DUP1 PUSH1 0x3 PUSH1 0x0 DUP3 DUP3 SLOAD PUSH2 0xCBE SWAP2 SWAP1 PUSH2 0xF6B JUMP JUMPDEST SWAP3 POP POP DUP2 SWAP1 SSTORE POP POP POP JUMP JUMPDEST PUSH1 0x0 DUP2 CALLDATALOAD SWAP1 POP PUSH2 0xCD8 DUP2 PUSH2 0x1173 JUMP JUMPDEST SWAP3 SWAP2 POP POP JUMP JUMPDEST PUSH1 0x0 DUP2 MLOAD SWAP1 POP PUSH2 0xCED DUP2 PUSH2 0x118A JUMP JUMPDEST SWAP3 SWAP2 POP POP JUMP JUMPDEST PUSH1 0x0 DUP2 CALLDATALOAD SWAP1 POP PUSH2 0xD02 DUP2 PUSH2 0x11A1 JUMP JUMPDEST SWAP3 SWAP2 POP POP JUMP JUMPDEST PUSH1 0x0 DUP2 MLOAD SWAP1 POP PUSH2 0xD17 DUP2 PUSH2 0x11A1 JUMP JUMPDEST SWAP3 SWAP2 POP POP JUMP JUMPDEST PUSH1 0x0 PUSH1 0x20 DUP3 DUP5 SUB SLT ISZERO PUSH2 0xD2F JUMPI PUSH1 0x0 DUP1 REVERT JUMPDEST PUSH1 0x0 PUSH2 0xD3D DUP5 DUP3 DUP6 ADD PUSH2 0xCC9 JUMP JUMPDEST SWAP2 POP POP SWAP3 SWAP2 POP POP JUMP JUMPDEST PUSH1 0x0 DUP1 PUSH1 0x40 DUP4 DUP6 SUB SLT ISZERO PUSH2 0xD59 JUMPI PUSH1 0x0 DUP1 REVERT JUMPDEST PUSH1 0x0 PUSH2 0xD67 DUP6 DUP3 DUP7 ADD PUSH2 0xCC9 JUMP JUMPDEST SWAP3 POP POP PUSH1 0x20 PUSH2 0xD78 DUP6 DUP3 DUP7 ADD PUSH2 0xCF3 JUMP JUMPDEST SWAP2 POP POP SWAP3 POP SWAP3 SWAP1 POP JUMP JUMPDEST PUSH1 0x0 PUSH1 0x20 DUP3 DUP5 SUB SLT ISZERO PUSH2 0xD94 JUMPI PUSH1 0x0 DUP1 REVERT JUMPDEST PUSH1 0x0 PUSH2 0xDA2 DUP5 DUP3 DUP6 ADD PUSH2 0xCDE JUMP JUMPDEST SWAP2 POP POP SWAP3 SWAP2 POP POP JUMP JUMPDEST PUSH1 0x0 PUSH1 0x20 DUP3 DUP5 SUB SLT ISZERO PUSH2 0xDBD JUMPI PUSH1 0x0 DUP1 REVERT JUMPDEST PUSH1 0x0 PUSH2 0xDCB DUP5 DUP3 DUP6 ADD PUSH2 0xCF3 JUMP JUMPDEST SWAP2 POP POP SWAP3 SWAP2 POP POP JUMP JUMPDEST PUSH1 0x0 PUSH1 0x20 DUP3 DUP5 SUB SLT ISZERO PUSH2 0xDE6 JUMPI PUSH1 0x0 DUP1 REVERT JUMPDEST PUSH1 0x0 PUSH2 0xDF4 DUP5 DUP3 DUP6 ADD PUSH2 0xD08 JUMP JUMPDEST SWAP2 POP POP SWAP3 SWAP2 POP POP JUMP JUMPDEST PUSH1 0x0 DUP1 PUSH1 0x40 DUP4 DUP6 SUB SLT ISZERO PUSH2 0xE10 JUMPI PUSH1 0x0 DUP1 REVERT JUMPDEST PUSH1 0x0 PUSH2 0xE1E DUP6 DUP3 DUP7 ADD PUSH2 0xCF3 JUMP JUMPDEST SWAP3 POP POP PUSH1 0x20 PUSH2 0xE2F DUP6 DUP3 DUP7 ADD PUSH2 0xCF3 JUMP JUMPDEST SWAP2 POP POP SWAP3 POP SWAP3 SWAP1 POP JUMP JUMPDEST PUSH2 0xE42 DUP2 PUSH2 0x1080 JUMP JUMPDEST DUP3 MSTORE POP POP JUMP JUMPDEST PUSH2 0xE51 DUP2 PUSH2 0x10C8 JUMP JUMPDEST DUP3 MSTORE POP POP JUMP JUMPDEST PUSH1 0x0 PUSH2 0xE64 PUSH1 0xC DUP4 PUSH2 0xF5A JUMP JUMPDEST SWAP2 POP PUSH2 0xE6F DUP3 PUSH2 0x114A JUMP JUMPDEST PUSH1 0x20 DUP3 ADD SWAP1 POP SWAP2 SWAP1 POP JUMP JUMPDEST PUSH2 0xE83 DUP2 PUSH2 0x10BE JUMP JUMPDEST DUP3 MSTORE POP POP JUMP JUMPDEST PUSH1 0x0 PUSH1 0x20 DUP3 ADD SWAP1 POP PUSH2 0xE9E PUSH1 0x0 DUP4 ADD DUP5 PUSH2 0xE39 JUMP JUMPDEST SWAP3 SWAP2 POP POP JUMP JUMPDEST PUSH1 0x0 PUSH1 0x60 DUP3 ADD SWAP1 POP PUSH2 0xEB9 PUSH1 0x0 DUP4 ADD DUP7 PUSH2 0xE39 JUMP JUMPDEST PUSH2 0xEC6 PUSH1 0x20 DUP4 ADD DUP6 PUSH2 0xE39 JUMP JUMPDEST PUSH2 0xED3 PUSH1 0x40 DUP4 ADD DUP5 PUSH2 0xE7A JUMP JUMPDEST SWAP5 SWAP4 POP POP POP POP JUMP JUMPDEST PUSH1 0x0 PUSH1 0x40 DUP3 ADD SWAP1 POP PUSH2 0xEF0 PUSH1 0x0 DUP4 ADD DUP6 PUSH2 0xE39 JUMP JUMPDEST PUSH2 0xEFD PUSH1 0x20 DUP4 ADD DUP5 PUSH2 0xE7A JUMP JUMPDEST SWAP4 SWAP3 POP POP POP JUMP JUMPDEST PUSH1 0x0 PUSH1 0x20 DUP3 ADD SWAP1 POP PUSH2 0xF19 PUSH1 0x0 DUP4 ADD DUP5 PUSH2 0xE48 JUMP JUMPDEST SWAP3 SWAP2 POP POP JUMP JUMPDEST PUSH1 0x0 PUSH1 0x20 DUP3 ADD SWAP1 POP DUP2 DUP2 SUB PUSH1 0x0 DUP4 ADD MSTORE PUSH2 0xF38 DUP2 PUSH2 0xE57 JUMP JUMPDEST SWAP1 POP SWAP2 SWAP1 POP JUMP JUMPDEST PUSH1 0x0 PUSH1 0x20 DUP3 ADD SWAP1 POP PUSH2 0xF54 PUSH1 0x0 DUP4 ADD DUP5 PUSH2 0xE7A JUMP JUMPDEST SWAP3 SWAP2 POP POP JUMP JUMPDEST PUSH1 0x0 DUP3 DUP3 MSTORE PUSH1 0x20 DUP3 ADD SWAP1 POP SWAP3 SWAP2 POP POP JUMP JUMPDEST PUSH1 0x0 PUSH2 0xF76 DUP3 PUSH2 0x10BE JUMP JUMPDEST SWAP2 POP PUSH2 0xF81 DUP4 PUSH2 0x10BE JUMP JUMPDEST SWAP3 POP DUP3 PUSH32 0xFFFFFFFFFFFFFFFFFFFFFFFFFFFFFFFFFFFFFFFFFFFFFFFFFFFFFFFFFFFFFFFF SUB DUP3 GT ISZERO PUSH2 0xFB6 JUMPI PUSH2 0xFB5 PUSH2 0x10EC JUMP JUMPDEST JUMPDEST DUP3 DUP3 ADD SWAP1 POP SWAP3 SWAP2 POP POP JUMP JUMPDEST PUSH1 0x0 PUSH2 0xFCC DUP3 PUSH2 0x10BE JUMP JUMPDEST SWAP2 POP PUSH2 0xFD7 DUP4 PUSH2 0x10BE JUMP JUMPDEST SWAP3 POP DUP3 PUSH2 0xFE7 JUMPI PUSH2 0xFE6 PUSH2 0x111B JUMP JUMPDEST JUMPDEST DUP3 DUP3 DIV SWAP1 POP SWAP3 SWAP2 POP POP JUMP JUMPDEST PUSH1 0x0 PUSH2 0xFFD DUP3 PUSH2 0x10BE JUMP JUMPDEST SWAP2 POP PUSH2 0x1008 DUP4 PUSH2 0x10BE JUMP JUMPDEST SWAP3 POP DUP2 PUSH32 0xFFFFFFFFFFFFFFFFFFFFFFFFFFFFFFFFFFFFFFFFFFFFFFFFFFFFFFFFFFFFFFFF DIV DUP4 GT DUP3 ISZERO ISZERO AND ISZERO PUSH2 0x1041 JUMPI PUSH2 0x1040 PUSH2 0x10EC JUMP JUMPDEST JUMPDEST DUP3 DUP3 MUL SWAP1 POP SWAP3 SWAP2 POP POP JUMP JUMPDEST PUSH1 0x0 PUSH2 0x1057 DUP3 PUSH2 0x10BE JUMP JUMPDEST SWAP2 POP PUSH2 0x1062 DUP4 PUSH2 0x10BE JUMP JUMPDEST SWAP3 POP DUP3 DUP3 LT ISZERO PUSH2 0x1075 JUMPI PUSH2 0x1074 PUSH2 0x10EC JUMP JUMPDEST JUMPDEST DUP3 DUP3 SUB SWAP1 POP SWAP3 SWAP2 POP POP JUMP JUMPDEST PUSH1 0x0 PUSH2 0x108B DUP3 PUSH2 0x109E JUMP JUMPDEST SWAP1 POP SWAP2 SWAP1 POP JUMP JUMPDEST PUSH1 0x0 DUP2 ISZERO ISZERO SWAP1 POP SWAP2 SWAP1 POP JUMP JUMPDEST PUSH1 0x0 PUSH20 0xFFFFFFFFFFFFFFFFFFFFFFFFFFFFFFFFFFFFFFFF DUP3 AND SWAP1 POP SWAP2 SWAP1 POP JUMP JUMPDEST PUSH1 0x0 DUP2 SWAP1 POP SWAP2 SWAP1 POP JUMP JUMPDEST PUSH1 0x0 PUSH2 0x10D3 DUP3 PUSH2 0x10DA JUMP JUMPDEST SWAP1 POP SWAP2 SWAP1 POP JUMP JUMPDEST PUSH1 0x0 PUSH2 0x10E5 DUP3 PUSH2 0x109E JUMP JUMPDEST SWAP1 POP SWAP2 SWAP1 POP JUMP JUMPDEST PUSH32 0x4E487B7100000000000000000000000000000000000000000000000000000000 PUSH1 0x0 MSTORE PUSH1 0x11 PUSH1 0x4 MSTORE PUSH1 0x24 PUSH1 0x0 REVERT JUMPDEST PUSH32 0x4E487B7100000000000000000000000000000000000000000000000000000000 PUSH1 0x0 MSTORE PUSH1 0x12 PUSH1 0x4 MSTORE PUSH1 0x24 PUSH1 0x0 REVERT JUMPDEST PUSH32 0x66656920666120746F6B656E0000000000000000000000000000000000000000 PUSH1 0x0 DUP3 ADD MSTORE POP JUMP JUMPDEST PUSH2 0x117C DUP2 PUSH2 0x1080 JUMP JUMPDEST DUP2 EQ PUSH2 0x1187 JUMPI PUSH1 0x0 DUP1 REVERT JUMPDEST POP JUMP JUMPDEST PUSH2 0x1193 DUP2 PUSH2 0x1092 JUMP JUMPDEST DUP2 EQ PUSH2 0x119E JUMPI PUSH1 0x0 DUP1 REVERT JUMPDEST POP JUMP JUMPDEST PUSH2 0x11AA DUP2 PUSH2 0x10BE JUMP JUMPDEST DUP2 EQ PUSH2 0x11B5 JUMPI PUSH1 0x0 DUP1 REVERT JUMPDEST POP JUMP INVALID LOG2 PUSH5 0x6970667358 0x22 SLT KECCAK256 DUP4 RETURN DUP3 DUP10 0xC5 0xB0 0x4E 0xF6 0xE8 SAR PUSH22 0x6A6697E160DFE2CD959BAEB6973F2FEF39A7CEB47564 PUSH20 0x6F6C634300080400330000000000000000000000 "
				},
				"gasEstimates": {
					"creation": {
						"codeDepositCost": "918000",
						"executionCost": "infinite",
						"totalCost": "infinite"
					},
					"external": {
						"addLiquidity(uint256,uint256)": "infinite",
						"balanceOf(address)": "1603",
						"k()": "infinite",
						"kLast()": "1129",
						"removeLiquidity(uint256)": "infinite",
						"reserve0()": "1174",
						"reserve1()": "1196",
						"swap(address,uint256)": "infinite",
						"token0()": "infinite",
						"token1()": "infinite",
						"totalBlance()": "1130"
					},
					"internal": {
						"_burn(address,uint256)": "infinite",
						"_mint(address,uint256)": "infinite",
						"_update(uint256,uint256)": "40041"
					}
				},
				"methodIdentifiers": {
					"addLiquidity(uint256,uint256)": "9cd441da",
					"balanceOf(address)": "70a08231",
					"k()": "b4f40c61",
					"kLast()": "7464fc3d",
					"removeLiquidity(uint256)": "9c8f9f23",
					"reserve0()": "443cb4bc",
					"reserve1()": "5a76f25e",
					"swap(address,uint256)": "d004f0f7",
					"token0()": "0dfe1681",
					"token1()": "d21220a7",
					"totalBlance()": "0cb4b780"
				}
			},
			"storageLayout": {
				"storage": [
					{
						"astId": 82,
						"contract": "contracts/CSAMM/CSAMM.sol:CSAMM",
						"label": "reserve0",
						"offset": 0,
						"slot": "0",
						"type": "t_uint256"
					},
					{
						"astId": 84,
						"contract": "contracts/CSAMM/CSAMM.sol:CSAMM",
						"label": "reserve1",
						"offset": 0,
						"slot": "1",
						"type": "t_uint256"
					},
					{
						"astId": 86,
						"contract": "contracts/CSAMM/CSAMM.sol:CSAMM",
						"label": "kLast",
						"offset": 0,
						"slot": "2",
						"type": "t_uint256"
					},
					{
						"astId": 88,
						"contract": "contracts/CSAMM/CSAMM.sol:CSAMM",
						"label": "totalBlance",
						"offset": 0,
						"slot": "3",
						"type": "t_uint256"
					},
					{
						"astId": 92,
						"contract": "contracts/CSAMM/CSAMM.sol:CSAMM",
						"label": "balanceOf",
						"offset": 0,
						"slot": "4",
						"type": "t_mapping(t_address,t_uint256)"
					}
				],
				"types": {
					"t_address": {
						"encoding": "inplace",
						"label": "address",
						"numberOfBytes": "20"
					},
					"t_mapping(t_address,t_uint256)": {
						"encoding": "mapping",
						"key": "t_address",
						"label": "mapping(address => uint256)",
						"numberOfBytes": "32",
						"value": "t_uint256"
					},
					"t_uint256": {
						"encoding": "inplace",
						"label": "uint256",
						"numberOfBytes": "32"
					}
				}
			},
			"userdoc": {
				"kind": "user",
				"methods": {},
				"version": 1
			}
		}
	}
}