{
	"contracts/base/NewTest.sol": {
		"AccountFactory": {
			"abi": [
				{
					"inputs": [
						{
							"internalType": "uint256",
							"name": "",
							"type": "uint256"
						}
					],
					"name": "accounts",
					"outputs": [
						{
							"internalType": "contract Account",
							"name": "",
							"type": "address"
						}
					],
					"stateMutability": "view",
					"type": "function"
				},
				{
					"inputs": [
						{
							"internalType": "address",
							"name": "addr",
							"type": "address"
						}
					],
					"name": "createAccount",
					"outputs": [],
					"stateMutability": "payable",
					"type": "function"
				}
			],
			"devdoc": {
				"kind": "dev",
				"methods": {},
				"version": 1
			},
			"evm": {
				"assembly": "    /* \"contracts/base/NewTest.sol\":198:384  contract AccountFactory {\r... */\n  mstore(0x40, 0x80)\n  callvalue\n  dup1\n  iszero\n  tag_1\n  jumpi\n  0x00\n  dup1\n  revert\ntag_1:\n  pop\n  dataSize(sub_0)\n  dup1\n  dataOffset(sub_0)\n  0x00\n  codecopy\n  0x00\n  return\nstop\n\nsub_0: assembly {\n        /* \"contracts/base/NewTest.sol\":198:384  contract AccountFactory {\r... */\n      mstore(0x40, 0x80)\n      jumpi(tag_1, lt(calldatasize, 0x04))\n      shr(0xe0, calldataload(0x00))\n      dup1\n      0x9859387b\n      eq\n      tag_2\n      jumpi\n      dup1\n      0xf2a40db8\n      eq\n      tag_3\n      jumpi\n    tag_1:\n      0x00\n      dup1\n      revert\n        /* \"contracts/base/NewTest.sol\":263:378  function createAccount(address addr) public payable  {\r... */\n    tag_2:\n      tag_4\n      0x04\n      dup1\n      calldatasize\n      sub\n      dup2\n      add\n      swap1\n      tag_5\n      swap2\n      swap1\n      tag_6\n      jump\t// in\n    tag_5:\n      tag_7\n      jump\t// in\n    tag_4:\n      stop\n        /* \"contracts/base/NewTest.sol\":229:254  Account[] public accounts */\n    tag_3:\n      callvalue\n      dup1\n      iszero\n      tag_8\n      jumpi\n      0x00\n      dup1\n      revert\n    tag_8:\n      pop\n      tag_9\n      0x04\n      dup1\n      calldatasize\n      sub\n      dup2\n      add\n      swap1\n      tag_10\n      swap2\n      swap1\n      tag_11\n      jump\t// in\n    tag_10:\n      tag_12\n      jump\t// in\n    tag_9:\n      mload(0x40)\n      tag_13\n      swap2\n      swap1\n      tag_14\n      jump\t// in\n    tag_13:\n      mload(0x40)\n      dup1\n      swap2\n      sub\n      swap1\n      return\n        /* \"contracts/base/NewTest.sol\":263:378  function createAccount(address addr) public payable  {\r... */\n    tag_7:\n        /* \"contracts/base/NewTest.sol\":327:335  accounts */\n      0x00\n        /* \"contracts/base/NewTest.sol\":359:362  111 */\n      0x6f\n        /* \"contracts/base/NewTest.sol\":364:368  addr */\n      dup3\n        /* \"contracts/base/NewTest.sol\":341:369  new Account{value:111}(addr) */\n      mload(0x40)\n      tag_16\n      swap1\n      tag_17\n      jump\t// in\n    tag_16:\n      tag_18\n      swap2\n      swap1\n      tag_19\n      jump\t// in\n    tag_18:\n      mload(0x40)\n      dup1\n      swap2\n      sub\n      swap1\n      dup3\n      create\n      swap1\n      pop\n      dup1\n      iszero\n      dup1\n      iszero\n      tag_20\n      jumpi\n      returndatasize\n      0x00\n      dup1\n      returndatacopy\n      revert(0x00, returndatasize)\n    tag_20:\n      pop\n        /* \"contracts/base/NewTest.sol\":327:370  accounts.push(new Account{value:111}(addr)) */\n      swap1\n      dup1\n      0x01\n      dup2\n      sload\n      add\n      dup1\n      dup3\n      sstore\n      dup1\n      swap2\n      pop\n      pop\n      0x01\n      swap1\n      sub\n      swap1\n      0x00\n      mstore\n      keccak256(0x00, 0x20)\n      add\n      0x00\n      swap1\n      swap2\n      swap1\n      swap2\n      swap1\n      swap2\n      0x0100\n      exp\n      dup2\n      sload\n      dup2\n      0xffffffffffffffffffffffffffffffffffffffff\n      mul\n      not\n      and\n      swap1\n      dup4\n      0xffffffffffffffffffffffffffffffffffffffff\n      and\n      mul\n      or\n      swap1\n      sstore\n      pop\n        /* \"contracts/base/NewTest.sol\":263:378  function createAccount(address addr) public payable  {\r... */\n      pop\n      jump\t// out\n        /* \"contracts/base/NewTest.sol\":229:254  Account[] public accounts */\n    tag_12:\n      0x00\n      dup2\n      dup2\n      sload\n      dup2\n      lt\n      tag_22\n      jumpi\n      0x00\n      dup1\n      revert\n    tag_22:\n      swap1\n      0x00\n      mstore\n      keccak256(0x00, 0x20)\n      add\n      0x00\n      swap2\n      pop\n      sload\n      swap1\n      0x0100\n      exp\n      swap1\n      div\n      0xffffffffffffffffffffffffffffffffffffffff\n      and\n      dup2\n      jump\t// out\n    tag_17:\n      dataSize(sub_0)\n      dup1\n      dataOffset(sub_0)\n      dup4\n      codecopy\n      add\n      swap1\n      jump\t// out\n        /* \"#utility.yul\":7:146   */\n    tag_25:\n        /* \"#utility.yul\":53:58   */\n      0x00\n        /* \"#utility.yul\":91:97   */\n      dup2\n        /* \"#utility.yul\":78:98   */\n      calldataload\n        /* \"#utility.yul\":69:98   */\n      swap1\n      pop\n        /* \"#utility.yul\":107:140   */\n      tag_27\n        /* \"#utility.yul\":134:139   */\n      dup2\n        /* \"#utility.yul\":107:140   */\n      tag_28\n      jump\t// in\n    tag_27:\n        /* \"#utility.yul\":59:146   */\n      swap3\n      swap2\n      pop\n      pop\n      jump\t// out\n        /* \"#utility.yul\":152:291   */\n    tag_29:\n        /* \"#utility.yul\":198:203   */\n      0x00\n        /* \"#utility.yul\":236:242   */\n      dup2\n        /* \"#utility.yul\":223:243   */\n      calldataload\n        /* \"#utility.yul\":214:243   */\n      swap1\n      pop\n        /* \"#utility.yul\":252:285   */\n      tag_31\n        /* \"#utility.yul\":279:284   */\n      dup2\n        /* \"#utility.yul\":252:285   */\n      tag_32\n      jump\t// in\n    tag_31:\n        /* \"#utility.yul\":204:291   */\n      swap3\n      swap2\n      pop\n      pop\n      jump\t// out\n        /* \"#utility.yul\":297:559   */\n    tag_6:\n        /* \"#utility.yul\":356:362   */\n      0x00\n        /* \"#utility.yul\":405:407   */\n      0x20\n        /* \"#utility.yul\":393:402   */\n      dup3\n        /* \"#utility.yul\":384:391   */\n      dup5\n        /* \"#utility.yul\":380:403   */\n      sub\n        /* \"#utility.yul\":376:408   */\n      slt\n        /* \"#utility.yul\":373:375   */\n      iszero\n      tag_34\n      jumpi\n        /* \"#utility.yul\":421:422   */\n      0x00\n        /* \"#utility.yul\":418:419   */\n      dup1\n        /* \"#utility.yul\":411:423   */\n      revert\n        /* \"#utility.yul\":373:375   */\n    tag_34:\n        /* \"#utility.yul\":464:465   */\n      0x00\n        /* \"#utility.yul\":489:542   */\n      tag_35\n        /* \"#utility.yul\":534:541   */\n      dup5\n        /* \"#utility.yul\":525:531   */\n      dup3\n        /* \"#utility.yul\":514:523   */\n      dup6\n        /* \"#utility.yul\":510:532   */\n      add\n        /* \"#utility.yul\":489:542   */\n      tag_25\n      jump\t// in\n    tag_35:\n        /* \"#utility.yul\":479:542   */\n      swap2\n      pop\n        /* \"#utility.yul\":435:552   */\n      pop\n        /* \"#utility.yul\":363:559   */\n      swap3\n      swap2\n      pop\n      pop\n      jump\t// out\n        /* \"#utility.yul\":565:827   */\n    tag_11:\n        /* \"#utility.yul\":624:630   */\n      0x00\n        /* \"#utility.yul\":673:675   */\n      0x20\n        /* \"#utility.yul\":661:670   */\n      dup3\n        /* \"#utility.yul\":652:659   */\n      dup5\n        /* \"#utility.yul\":648:671   */\n      sub\n        /* \"#utility.yul\":644:676   */\n      slt\n        /* \"#utility.yul\":641:643   */\n      iszero\n      tag_37\n      jumpi\n        /* \"#utility.yul\":689:690   */\n      0x00\n        /* \"#utility.yul\":686:687   */\n      dup1\n        /* \"#utility.yul\":679:691   */\n      revert\n        /* \"#utility.yul\":641:643   */\n    tag_37:\n        /* \"#utility.yul\":732:733   */\n      0x00\n        /* \"#utility.yul\":757:810   */\n      tag_38\n        /* \"#utility.yul\":802:809   */\n      dup5\n        /* \"#utility.yul\":793:799   */\n      dup3\n        /* \"#utility.yul\":782:791   */\n      dup6\n        /* \"#utility.yul\":778:800   */\n      add\n        /* \"#utility.yul\":757:810   */\n      tag_29\n      jump\t// in\n    tag_38:\n        /* \"#utility.yul\":747:810   */\n      swap2\n      pop\n        /* \"#utility.yul\":703:820   */\n      pop\n        /* \"#utility.yul\":631:827   */\n      swap3\n      swap2\n      pop\n      pop\n      jump\t// out\n        /* \"#utility.yul\":833:951   */\n    tag_39:\n        /* \"#utility.yul\":920:944   */\n      tag_41\n        /* \"#utility.yul\":938:943   */\n      dup2\n        /* \"#utility.yul\":920:944   */\n      tag_42\n      jump\t// in\n    tag_41:\n        /* \"#utility.yul\":915:918   */\n      dup3\n        /* \"#utility.yul\":908:945   */\n      mstore\n        /* \"#utility.yul\":898:951   */\n      pop\n      pop\n      jump\t// out\n        /* \"#utility.yul\":957:1116   */\n    tag_43:\n        /* \"#utility.yul\":1058:1109   */\n      tag_45\n        /* \"#utility.yul\":1103:1108   */\n      dup2\n        /* \"#utility.yul\":1058:1109   */\n      tag_46\n      jump\t// in\n    tag_45:\n        /* \"#utility.yul\":1053:1056   */\n      dup3\n        /* \"#utility.yul\":1046:1110   */\n      mstore\n        /* \"#utility.yul\":1036:1116   */\n      pop\n      pop\n      jump\t// out\n        /* \"#utility.yul\":1122:1344   */\n    tag_19:\n        /* \"#utility.yul\":1215:1219   */\n      0x00\n        /* \"#utility.yul\":1253:1255   */\n      0x20\n        /* \"#utility.yul\":1242:1251   */\n      dup3\n        /* \"#utility.yul\":1238:1256   */\n      add\n        /* \"#utility.yul\":1230:1256   */\n      swap1\n      pop\n        /* \"#utility.yul\":1266:1337   */\n      tag_48\n        /* \"#utility.yul\":1334:1335   */\n      0x00\n        /* \"#utility.yul\":1323:1332   */\n      dup4\n        /* \"#utility.yul\":1319:1336   */\n      add\n        /* \"#utility.yul\":1310:1316   */\n      dup5\n        /* \"#utility.yul\":1266:1337   */\n      tag_39\n      jump\t// in\n    tag_48:\n        /* \"#utility.yul\":1220:1344   */\n      swap3\n      swap2\n      pop\n      pop\n      jump\t// out\n        /* \"#utility.yul\":1350:1600   */\n    tag_14:\n        /* \"#utility.yul\":1457:1461   */\n      0x00\n        /* \"#utility.yul\":1495:1497   */\n      0x20\n        /* \"#utility.yul\":1484:1493   */\n      dup3\n        /* \"#utility.yul\":1480:1498   */\n      add\n        /* \"#utility.yul\":1472:1498   */\n      swap1\n      pop\n        /* \"#utility.yul\":1508:1593   */\n      tag_50\n        /* \"#utility.yul\":1590:1591   */\n      0x00\n        /* \"#utility.yul\":1579:1588   */\n      dup4\n        /* \"#utility.yul\":1575:1592   */\n      add\n        /* \"#utility.yul\":1566:1572   */\n      dup5\n        /* \"#utility.yul\":1508:1593   */\n      tag_43\n      jump\t// in\n    tag_50:\n        /* \"#utility.yul\":1462:1600   */\n      swap3\n      swap2\n      pop\n      pop\n      jump\t// out\n        /* \"#utility.yul\":1606:1702   */\n    tag_42:\n        /* \"#utility.yul\":1643:1650   */\n      0x00\n        /* \"#utility.yul\":1672:1696   */\n      tag_52\n        /* \"#utility.yul\":1690:1695   */\n      dup3\n        /* \"#utility.yul\":1672:1696   */\n      tag_53\n      jump\t// in\n    tag_52:\n        /* \"#utility.yul\":1661:1696   */\n      swap1\n      pop\n        /* \"#utility.yul\":1651:1702   */\n      swap2\n      swap1\n      pop\n      jump\t// out\n        /* \"#utility.yul\":1708:1834   */\n    tag_53:\n        /* \"#utility.yul\":1745:1752   */\n      0x00\n        /* \"#utility.yul\":1785:1827   */\n      0xffffffffffffffffffffffffffffffffffffffff\n        /* \"#utility.yul\":1778:1783   */\n      dup3\n        /* \"#utility.yul\":1774:1828   */\n      and\n        /* \"#utility.yul\":1763:1828   */\n      swap1\n      pop\n        /* \"#utility.yul\":1753:1834   */\n      swap2\n      swap1\n      pop\n      jump\t// out\n        /* \"#utility.yul\":1840:1917   */\n    tag_55:\n        /* \"#utility.yul\":1877:1884   */\n      0x00\n        /* \"#utility.yul\":1906:1911   */\n      dup2\n        /* \"#utility.yul\":1895:1911   */\n      swap1\n      pop\n        /* \"#utility.yul\":1885:1917   */\n      swap2\n      swap1\n      pop\n      jump\t// out\n        /* \"#utility.yul\":1923:2077   */\n    tag_46:\n        /* \"#utility.yul\":1987:1996   */\n      0x00\n        /* \"#utility.yul\":2020:2071   */\n      tag_58\n        /* \"#utility.yul\":2065:2070   */\n      dup3\n        /* \"#utility.yul\":2020:2071   */\n      tag_59\n      jump\t// in\n    tag_58:\n        /* \"#utility.yul\":2007:2071   */\n      swap1\n      pop\n        /* \"#utility.yul\":1997:2077   */\n      swap2\n      swap1\n      pop\n      jump\t// out\n        /* \"#utility.yul\":2083:2210   */\n    tag_59:\n        /* \"#utility.yul\":2147:2156   */\n      0x00\n        /* \"#utility.yul\":2180:2204   */\n      tag_61\n        /* \"#utility.yul\":2198:2203   */\n      dup3\n        /* \"#utility.yul\":2180:2204   */\n      tag_53\n      jump\t// in\n    tag_61:\n        /* \"#utility.yul\":2167:2204   */\n      swap1\n      pop\n        /* \"#utility.yul\":2157:2210   */\n      swap2\n      swap1\n      pop\n      jump\t// out\n        /* \"#utility.yul\":2216:2338   */\n    tag_28:\n        /* \"#utility.yul\":2289:2313   */\n      tag_63\n        /* \"#utility.yul\":2307:2312   */\n      dup2\n        /* \"#utility.yul\":2289:2313   */\n      tag_42\n      jump\t// in\n    tag_63:\n        /* \"#utility.yul\":2282:2287   */\n      dup2\n        /* \"#utility.yul\":2279:2314   */\n      eq\n        /* \"#utility.yul\":2269:2271   */\n      tag_64\n      jumpi\n        /* \"#utility.yul\":2328:2329   */\n      0x00\n        /* \"#utility.yul\":2325:2326   */\n      dup1\n        /* \"#utility.yul\":2318:2330   */\n      revert\n        /* \"#utility.yul\":2269:2271   */\n    tag_64:\n        /* \"#utility.yul\":2259:2338   */\n      pop\n      jump\t// out\n        /* \"#utility.yul\":2344:2466   */\n    tag_32:\n        /* \"#utility.yul\":2417:2441   */\n      tag_66\n        /* \"#utility.yul\":2435:2440   */\n      dup2\n        /* \"#utility.yul\":2417:2441   */\n      tag_55\n      jump\t// in\n    tag_66:\n        /* \"#utility.yul\":2410:2415   */\n      dup2\n        /* \"#utility.yul\":2407:2442   */\n      eq\n        /* \"#utility.yul\":2397:2399   */\n      tag_67\n      jumpi\n        /* \"#utility.yul\":2456:2457   */\n      0x00\n        /* \"#utility.yul\":2453:2454   */\n      dup1\n        /* \"#utility.yul\":2446:2458   */\n      revert\n        /* \"#utility.yul\":2397:2399   */\n    tag_67:\n        /* \"#utility.yul\":2387:2466   */\n      pop\n      jump\t// out\n    stop\n\n    sub_0: assembly {\n            /* \"contracts/base/NewTest.sol\":65:192  contract Account {\r... */\n          mstore(0x40, 0x80)\n            /* \"contracts/base/NewTest.sol\":123:187  constructor(address addr) payable{\r... */\n          mload(0x40)\n          sub(codesize, bytecodeSize)\n          dup1\n          bytecodeSize\n          dup4\n          codecopy\n          dup2\n          dup2\n          add\n          0x40\n          mstore\n          dup2\n          add\n          swap1\n          tag_1\n          swap2\n          swap1\n          tag_2\n          jump\t// in\n        tag_1:\n            /* \"contracts/base/NewTest.sol\":175:179  addr */\n          dup1\n            /* \"contracts/base/NewTest.sol\":167:172  owner */\n          0x00\n          dup1\n            /* \"contracts/base/NewTest.sol\":167:179  owner = addr */\n          0x0100\n          exp\n          dup2\n          sload\n          dup2\n          0xffffffffffffffffffffffffffffffffffffffff\n          mul\n          not\n          and\n          swap1\n          dup4\n          0xffffffffffffffffffffffffffffffffffffffff\n          and\n          mul\n          or\n          swap1\n          sstore\n          pop\n            /* \"contracts/base/NewTest.sol\":123:187  constructor(address addr) payable{\r... */\n          pop\n            /* \"contracts/base/NewTest.sol\":65:192  contract Account {\r... */\n          jump(tag_5)\n            /* \"#utility.yul\":7:150   */\n        tag_7:\n            /* \"#utility.yul\":64:69   */\n          0x00\n            /* \"#utility.yul\":95:101   */\n          dup2\n            /* \"#utility.yul\":89:102   */\n          mload\n            /* \"#utility.yul\":80:102   */\n          swap1\n          pop\n            /* \"#utility.yul\":111:144   */\n          tag_9\n            /* \"#utility.yul\":138:143   */\n          dup2\n            /* \"#utility.yul\":111:144   */\n          tag_10\n          jump\t// in\n        tag_9:\n            /* \"#utility.yul\":70:150   */\n          swap3\n          swap2\n          pop\n          pop\n          jump\t// out\n            /* \"#utility.yul\":156:440   */\n        tag_2:\n            /* \"#utility.yul\":226:232   */\n          0x00\n            /* \"#utility.yul\":275:277   */\n          0x20\n            /* \"#utility.yul\":263:272   */\n          dup3\n            /* \"#utility.yul\":254:261   */\n          dup5\n            /* \"#utility.yul\":250:273   */\n          sub\n            /* \"#utility.yul\":246:278   */\n          slt\n            /* \"#utility.yul\":243:245   */\n          iszero\n          tag_12\n          jumpi\n            /* \"#utility.yul\":291:292   */\n          0x00\n            /* \"#utility.yul\":288:289   */\n          dup1\n            /* \"#utility.yul\":281:293   */\n          revert\n            /* \"#utility.yul\":243:245   */\n        tag_12:\n            /* \"#utility.yul\":334:335   */\n          0x00\n            /* \"#utility.yul\":359:423   */\n          tag_13\n            /* \"#utility.yul\":415:422   */\n          dup5\n            /* \"#utility.yul\":406:412   */\n          dup3\n            /* \"#utility.yul\":395:404   */\n          dup6\n            /* \"#utility.yul\":391:413   */\n          add\n            /* \"#utility.yul\":359:423   */\n          tag_7\n          jump\t// in\n        tag_13:\n            /* \"#utility.yul\":349:423   */\n          swap2\n          pop\n            /* \"#utility.yul\":305:433   */\n          pop\n            /* \"#utility.yul\":233:440   */\n          swap3\n          swap2\n          pop\n          pop\n          jump\t// out\n            /* \"#utility.yul\":446:542   */\n        tag_14:\n            /* \"#utility.yul\":483:490   */\n          0x00\n            /* \"#utility.yul\":512:536   */\n          tag_16\n            /* \"#utility.yul\":530:535   */\n          dup3\n            /* \"#utility.yul\":512:536   */\n          tag_17\n          jump\t// in\n        tag_16:\n            /* \"#utility.yul\":501:536   */\n          swap1\n          pop\n            /* \"#utility.yul\":491:542   */\n          swap2\n          swap1\n          pop\n          jump\t// out\n            /* \"#utility.yul\":548:674   */\n        tag_17:\n            /* \"#utility.yul\":585:592   */\n          0x00\n            /* \"#utility.yul\":625:667   */\n          0xffffffffffffffffffffffffffffffffffffffff\n            /* \"#utility.yul\":618:623   */\n          dup3\n            /* \"#utility.yul\":614:668   */\n          and\n            /* \"#utility.yul\":603:668   */\n          swap1\n          pop\n            /* \"#utility.yul\":593:674   */\n          swap2\n          swap1\n          pop\n          jump\t// out\n            /* \"#utility.yul\":680:802   */\n        tag_10:\n            /* \"#utility.yul\":753:777   */\n          tag_20\n            /* \"#utility.yul\":771:776   */\n          dup2\n            /* \"#utility.yul\":753:777   */\n          tag_14\n          jump\t// in\n        tag_20:\n            /* \"#utility.yul\":746:751   */\n          dup2\n            /* \"#utility.yul\":743:778   */\n          eq\n            /* \"#utility.yul\":733:735   */\n          tag_21\n          jumpi\n            /* \"#utility.yul\":792:793   */\n          0x00\n            /* \"#utility.yul\":789:790   */\n          dup1\n            /* \"#utility.yul\":782:794   */\n          revert\n            /* \"#utility.yul\":733:735   */\n        tag_21:\n            /* \"#utility.yul\":723:802   */\n          pop\n          jump\t// out\n            /* \"contracts/base/NewTest.sol\":65:192  contract Account {\r... */\n        tag_5:\n          dataSize(sub_0)\n          dup1\n          dataOffset(sub_0)\n          0x00\n          codecopy\n          0x00\n          return\n        stop\n\n        sub_0: assembly {\n                /* \"contracts/base/NewTest.sol\":65:192  contract Account {\r... */\n              mstore(0x40, 0x80)\n              callvalue\n              dup1\n              iszero\n              tag_1\n              jumpi\n              0x00\n              dup1\n              revert\n            tag_1:\n              pop\n              jumpi(tag_2, lt(calldatasize, 0x04))\n              shr(0xe0, calldataload(0x00))\n              dup1\n              0x8da5cb5b\n              eq\n              tag_3\n              jumpi\n            tag_2:\n              0x00\n              dup1\n              revert\n                /* \"contracts/base/NewTest.sol\":89:110  address public  owner */\n            tag_3:\n              tag_4\n              tag_5\n              jump\t// in\n            tag_4:\n              mload(0x40)\n              tag_6\n              swap2\n              swap1\n              tag_7\n              jump\t// in\n            tag_6:\n              mload(0x40)\n              dup1\n              swap2\n              sub\n              swap1\n              return\n            tag_5:\n              0x00\n              dup1\n              sload\n              swap1\n              0x0100\n              exp\n              swap1\n              div\n              0xffffffffffffffffffffffffffffffffffffffff\n              and\n              dup2\n              jump\t// out\n                /* \"#utility.yul\":7:125   */\n            tag_9:\n                /* \"#utility.yul\":94:118   */\n              tag_11\n                /* \"#utility.yul\":112:117   */\n              dup2\n                /* \"#utility.yul\":94:118   */\n              tag_12\n              jump\t// in\n            tag_11:\n                /* \"#utility.yul\":89:92   */\n              dup3\n                /* \"#utility.yul\":82:119   */\n              mstore\n                /* \"#utility.yul\":72:125   */\n              pop\n              pop\n              jump\t// out\n                /* \"#utility.yul\":131:353   */\n            tag_7:\n                /* \"#utility.yul\":224:228   */\n              0x00\n                /* \"#utility.yul\":262:264   */\n              0x20\n                /* \"#utility.yul\":251:260   */\n              dup3\n                /* \"#utility.yul\":247:265   */\n              add\n                /* \"#utility.yul\":239:265   */\n              swap1\n              pop\n                /* \"#utility.yul\":275:346   */\n              tag_14\n                /* \"#utility.yul\":343:344   */\n              0x00\n                /* \"#utility.yul\":332:341   */\n              dup4\n                /* \"#utility.yul\":328:345   */\n              add\n                /* \"#utility.yul\":319:325   */\n              dup5\n                /* \"#utility.yul\":275:346   */\n              tag_9\n              jump\t// in\n            tag_14:\n                /* \"#utility.yul\":229:353   */\n              swap3\n              swap2\n              pop\n              pop\n              jump\t// out\n                /* \"#utility.yul\":359:455   */\n            tag_12:\n                /* \"#utility.yul\":396:403   */\n              0x00\n                /* \"#utility.yul\":425:449   */\n              tag_16\n                /* \"#utility.yul\":443:448   */\n              dup3\n                /* \"#utility.yul\":425:449   */\n              tag_17\n              jump\t// in\n            tag_16:\n                /* \"#utility.yul\":414:449   */\n              swap1\n              pop\n                /* \"#utility.yul\":404:455   */\n              swap2\n              swap1\n              pop\n              jump\t// out\n                /* \"#utility.yul\":461:587   */\n            tag_17:\n                /* \"#utility.yul\":498:505   */\n              0x00\n                /* \"#utility.yul\":538:580   */\n              0xffffffffffffffffffffffffffffffffffffffff\n                /* \"#utility.yul\":531:536   */\n              dup3\n                /* \"#utility.yul\":527:581   */\n              and\n                /* \"#utility.yul\":516:581   */\n              swap1\n              pop\n                /* \"#utility.yul\":506:587   */\n              swap2\n              swap1\n              pop\n              jump\t// out\n\n            auxdata: 0xa2646970667358221220b20792931aa4c5b37e7b8601134bf7e8a0db133a9f6e94b455e7d6751e77f8ba64736f6c63430008040033\n        }\n    }\n\n    auxdata: 0xa26469706673582212206742c024e1b335e3046e136251f6b587570bc28bd638eabb1edf5b41c23ed39f64736f6c63430008040033\n}\n",
				"bytecode": {
					"linkReferences": {},
					"object": "608060405234801561001057600080fd5b506104fa806100206000396000f3fe6080604052600436106100295760003560e01c80639859387b1461002e578063f2a40db81461004a575b600080fd5b61004860048036038101906100439190610199565b610087565b005b34801561005657600080fd5b50610071600480360381019061006c91906101c2565b610123565b60405161007e9190610224565b60405180910390f35b6000606f8260405161009890610162565b6100a29190610209565b6040518091039082f09050801580156100bf573d6000803e3d6000fd5b509080600181540180825580915050600190039060005260206000200160009091909190916101000a81548173ffffffffffffffffffffffffffffffffffffffff021916908373ffffffffffffffffffffffffffffffffffffffff16021790555050565b6000818154811061013357600080fd5b906000526020600020016000915054906101000a900473ffffffffffffffffffffffffffffffffffffffff1681565b6101f7806102ce83390190565b60008135905061017e8161029f565b92915050565b600081359050610193816102b6565b92915050565b6000602082840312156101ab57600080fd5b60006101b98482850161016f565b91505092915050565b6000602082840312156101d457600080fd5b60006101e284828501610184565b91505092915050565b6101f48161023f565b82525050565b6102038161027b565b82525050565b600060208201905061021e60008301846101eb565b92915050565b600060208201905061023960008301846101fa565b92915050565b600061024a82610251565b9050919050565b600073ffffffffffffffffffffffffffffffffffffffff82169050919050565b6000819050919050565b60006102868261028d565b9050919050565b600061029882610251565b9050919050565b6102a88161023f565b81146102b357600080fd5b50565b6102bf81610271565b81146102ca57600080fd5b5056fe60806040526040516101f73803806101f783398181016040528101906100259190610080565b806000806101000a81548173ffffffffffffffffffffffffffffffffffffffff021916908373ffffffffffffffffffffffffffffffffffffffff160217905550506100f2565b60008151905061007a816100db565b92915050565b60006020828403121561009257600080fd5b60006100a08482850161006b565b91505092915050565b60006100b4826100bb565b9050919050565b600073ffffffffffffffffffffffffffffffffffffffff82169050919050565b6100e4816100a9565b81146100ef57600080fd5b50565b60f7806101006000396000f3fe6080604052348015600f57600080fd5b506004361060285760003560e01c80638da5cb5b14602d575b600080fd5b60336047565b604051603e91906078565b60405180910390f35b60008054906101000a900473ffffffffffffffffffffffffffffffffffffffff1681565b6072816091565b82525050565b6000602082019050608b6000830184606b565b92915050565b6000609a8260a1565b9050919050565b600073ffffffffffffffffffffffffffffffffffffffff8216905091905056fea2646970667358221220b20792931aa4c5b37e7b8601134bf7e8a0db133a9f6e94b455e7d6751e77f8ba64736f6c63430008040033a26469706673582212206742c024e1b335e3046e136251f6b587570bc28bd638eabb1edf5b41c23ed39f64736f6c63430008040033",
					"opcodes": "PUSH1 0x80 PUSH1 0x40 MSTORE CALLVALUE DUP1 ISZERO PUSH2 0x10 JUMPI PUSH1 0x0 DUP1 REVERT JUMPDEST POP PUSH2 0x4FA DUP1 PUSH2 0x20 PUSH1 0x0 CODECOPY PUSH1 0x0 RETURN INVALID PUSH1 0x80 PUSH1 0x40 MSTORE PUSH1 0x4 CALLDATASIZE LT PUSH2 0x29 JUMPI PUSH1 0x0 CALLDATALOAD PUSH1 0xE0 SHR DUP1 PUSH4 0x9859387B EQ PUSH2 0x2E JUMPI DUP1 PUSH4 0xF2A40DB8 EQ PUSH2 0x4A JUMPI JUMPDEST PUSH1 0x0 DUP1 REVERT JUMPDEST PUSH2 0x48 PUSH1 0x4 DUP1 CALLDATASIZE SUB DUP2 ADD SWAP1 PUSH2 0x43 SWAP2 SWAP1 PUSH2 0x199 JUMP JUMPDEST PUSH2 0x87 JUMP JUMPDEST STOP JUMPDEST CALLVALUE DUP1 ISZERO PUSH2 0x56 JUMPI PUSH1 0x0 DUP1 REVERT JUMPDEST POP PUSH2 0x71 PUSH1 0x4 DUP1 CALLDATASIZE SUB DUP2 ADD SWAP1 PUSH2 0x6C SWAP2 SWAP1 PUSH2 0x1C2 JUMP JUMPDEST PUSH2 0x123 JUMP JUMPDEST PUSH1 0x40 MLOAD PUSH2 0x7E SWAP2 SWAP1 PUSH2 0x224 JUMP JUMPDEST PUSH1 0x40 MLOAD DUP1 SWAP2 SUB SWAP1 RETURN JUMPDEST PUSH1 0x0 PUSH1 0x6F DUP3 PUSH1 0x40 MLOAD PUSH2 0x98 SWAP1 PUSH2 0x162 JUMP JUMPDEST PUSH2 0xA2 SWAP2 SWAP1 PUSH2 0x209 JUMP JUMPDEST PUSH1 0x40 MLOAD DUP1 SWAP2 SUB SWAP1 DUP3 CREATE SWAP1 POP DUP1 ISZERO DUP1 ISZERO PUSH2 0xBF JUMPI RETURNDATASIZE PUSH1 0x0 DUP1 RETURNDATACOPY RETURNDATASIZE PUSH1 0x0 REVERT JUMPDEST POP SWAP1 DUP1 PUSH1 0x1 DUP2 SLOAD ADD DUP1 DUP3 SSTORE DUP1 SWAP2 POP POP PUSH1 0x1 SWAP1 SUB SWAP1 PUSH1 0x0 MSTORE PUSH1 0x20 PUSH1 0x0 KECCAK256 ADD PUSH1 0x0 SWAP1 SWAP2 SWAP1 SWAP2 SWAP1 SWAP2 PUSH2 0x100 EXP DUP2 SLOAD DUP2 PUSH20 0xFFFFFFFFFFFFFFFFFFFFFFFFFFFFFFFFFFFFFFFF MUL NOT AND SWAP1 DUP4 PUSH20 0xFFFFFFFFFFFFFFFFFFFFFFFFFFFFFFFFFFFFFFFF AND MUL OR SWAP1 SSTORE POP POP JUMP JUMPDEST PUSH1 0x0 DUP2 DUP2 SLOAD DUP2 LT PUSH2 0x133 JUMPI PUSH1 0x0 DUP1 REVERT JUMPDEST SWAP1 PUSH1 0x0 MSTORE PUSH1 0x20 PUSH1 0x0 KECCAK256 ADD PUSH1 0x0 SWAP2 POP SLOAD SWAP1 PUSH2 0x100 EXP SWAP1 DIV PUSH20 0xFFFFFFFFFFFFFFFFFFFFFFFFFFFFFFFFFFFFFFFF AND DUP2 JUMP JUMPDEST PUSH2 0x1F7 DUP1 PUSH2 0x2CE DUP4 CODECOPY ADD SWAP1 JUMP JUMPDEST PUSH1 0x0 DUP2 CALLDATALOAD SWAP1 POP PUSH2 0x17E DUP2 PUSH2 0x29F JUMP JUMPDEST SWAP3 SWAP2 POP POP JUMP JUMPDEST PUSH1 0x0 DUP2 CALLDATALOAD SWAP1 POP PUSH2 0x193 DUP2 PUSH2 0x2B6 JUMP JUMPDEST SWAP3 SWAP2 POP POP JUMP JUMPDEST PUSH1 0x0 PUSH1 0x20 DUP3 DUP5 SUB SLT ISZERO PUSH2 0x1AB JUMPI PUSH1 0x0 DUP1 REVERT JUMPDEST PUSH1 0x0 PUSH2 0x1B9 DUP5 DUP3 DUP6 ADD PUSH2 0x16F JUMP JUMPDEST SWAP2 POP POP SWAP3 SWAP2 POP POP JUMP JUMPDEST PUSH1 0x0 PUSH1 0x20 DUP3 DUP5 SUB SLT ISZERO PUSH2 0x1D4 JUMPI PUSH1 0x0 DUP1 REVERT JUMPDEST PUSH1 0x0 PUSH2 0x1E2 DUP5 DUP3 DUP6 ADD PUSH2 0x184 JUMP JUMPDEST SWAP2 POP POP SWAP3 SWAP2 POP POP JUMP JUMPDEST PUSH2 0x1F4 DUP2 PUSH2 0x23F JUMP JUMPDEST DUP3 MSTORE POP POP JUMP JUMPDEST PUSH2 0x203 DUP2 PUSH2 0x27B JUMP JUMPDEST DUP3 MSTORE POP POP JUMP JUMPDEST PUSH1 0x0 PUSH1 0x20 DUP3 ADD SWAP1 POP PUSH2 0x21E PUSH1 0x0 DUP4 ADD DUP5 PUSH2 0x1EB JUMP JUMPDEST SWAP3 SWAP2 POP POP JUMP JUMPDEST PUSH1 0x0 PUSH1 0x20 DUP3 ADD SWAP1 POP PUSH2 0x239 PUSH1 0x0 DUP4 ADD DUP5 PUSH2 0x1FA JUMP JUMPDEST SWAP3 SWAP2 POP POP JUMP JUMPDEST PUSH1 0x0 PUSH2 0x24A DUP3 PUSH2 0x251 JUMP JUMPDEST SWAP1 POP SWAP2 SWAP1 POP JUMP JUMPDEST PUSH1 0x0 PUSH20 0xFFFFFFFFFFFFFFFFFFFFFFFFFFFFFFFFFFFFFFFF DUP3 AND SWAP1 POP SWAP2 SWAP1 POP JUMP JUMPDEST PUSH1 0x0 DUP2 SWAP1 POP SWAP2 SWAP1 POP JUMP JUMPDEST PUSH1 0x0 PUSH2 0x286 DUP3 PUSH2 0x28D JUMP JUMPDEST SWAP1 POP SWAP2 SWAP1 POP JUMP JUMPDEST PUSH1 0x0 PUSH2 0x298 DUP3 PUSH2 0x251 JUMP JUMPDEST SWAP1 POP SWAP2 SWAP1 POP JUMP JUMPDEST PUSH2 0x2A8 DUP2 PUSH2 0x23F JUMP JUMPDEST DUP2 EQ PUSH2 0x2B3 JUMPI PUSH1 0x0 DUP1 REVERT JUMPDEST POP JUMP JUMPDEST PUSH2 0x2BF DUP2 PUSH2 0x271 JUMP JUMPDEST DUP2 EQ PUSH2 0x2CA JUMPI PUSH1 0x0 DUP1 REVERT JUMPDEST POP JUMP INVALID PUSH1 0x80 PUSH1 0x40 MSTORE PUSH1 0x40 MLOAD PUSH2 0x1F7 CODESIZE SUB DUP1 PUSH2 0x1F7 DUP4 CODECOPY DUP2 DUP2 ADD PUSH1 0x40 MSTORE DUP2 ADD SWAP1 PUSH2 0x25 SWAP2 SWAP1 PUSH2 0x80 JUMP JUMPDEST DUP1 PUSH1 0x0 DUP1 PUSH2 0x100 EXP DUP2 SLOAD DUP2 PUSH20 0xFFFFFFFFFFFFFFFFFFFFFFFFFFFFFFFFFFFFFFFF MUL NOT AND SWAP1 DUP4 PUSH20 0xFFFFFFFFFFFFFFFFFFFFFFFFFFFFFFFFFFFFFFFF AND MUL OR SWAP1 SSTORE POP POP PUSH2 0xF2 JUMP JUMPDEST PUSH1 0x0 DUP2 MLOAD SWAP1 POP PUSH2 0x7A DUP2 PUSH2 0xDB JUMP JUMPDEST SWAP3 SWAP2 POP POP JUMP JUMPDEST PUSH1 0x0 PUSH1 0x20 DUP3 DUP5 SUB SLT ISZERO PUSH2 0x92 JUMPI PUSH1 0x0 DUP1 REVERT JUMPDEST PUSH1 0x0 PUSH2 0xA0 DUP5 DUP3 DUP6 ADD PUSH2 0x6B JUMP JUMPDEST SWAP2 POP POP SWAP3 SWAP2 POP POP JUMP JUMPDEST PUSH1 0x0 PUSH2 0xB4 DUP3 PUSH2 0xBB JUMP JUMPDEST SWAP1 POP SWAP2 SWAP1 POP JUMP JUMPDEST PUSH1 0x0 PUSH20 0xFFFFFFFFFFFFFFFFFFFFFFFFFFFFFFFFFFFFFFFF DUP3 AND SWAP1 POP SWAP2 SWAP1 POP JUMP JUMPDEST PUSH2 0xE4 DUP2 PUSH2 0xA9 JUMP JUMPDEST DUP2 EQ PUSH2 0xEF JUMPI PUSH1 0x0 DUP1 REVERT JUMPDEST POP JUMP JUMPDEST PUSH1 0xF7 DUP1 PUSH2 0x100 PUSH1 0x0 CODECOPY PUSH1 0x0 RETURN INVALID PUSH1 0x80 PUSH1 0x40 MSTORE CALLVALUE DUP1 ISZERO PUSH1 0xF JUMPI PUSH1 0x0 DUP1 REVERT JUMPDEST POP PUSH1 0x4 CALLDATASIZE LT PUSH1 0x28 JUMPI PUSH1 0x0 CALLDATALOAD PUSH1 0xE0 SHR DUP1 PUSH4 0x8DA5CB5B EQ PUSH1 0x2D JUMPI JUMPDEST PUSH1 0x0 DUP1 REVERT JUMPDEST PUSH1 0x33 PUSH1 0x47 JUMP JUMPDEST PUSH1 0x40 MLOAD PUSH1 0x3E SWAP2 SWAP1 PUSH1 0x78 JUMP JUMPDEST PUSH1 0x40 MLOAD DUP1 SWAP2 SUB SWAP1 RETURN JUMPDEST PUSH1 0x0 DUP1 SLOAD SWAP1 PUSH2 0x100 EXP SWAP1 DIV PUSH20 0xFFFFFFFFFFFFFFFFFFFFFFFFFFFFFFFFFFFFFFFF AND DUP2 JUMP JUMPDEST PUSH1 0x72 DUP2 PUSH1 0x91 JUMP JUMPDEST DUP3 MSTORE POP POP JUMP JUMPDEST PUSH1 0x0 PUSH1 0x20 DUP3 ADD SWAP1 POP PUSH1 0x8B PUSH1 0x0 DUP4 ADD DUP5 PUSH1 0x6B JUMP JUMPDEST SWAP3 SWAP2 POP POP JUMP JUMPDEST PUSH1 0x0 PUSH1 0x9A DUP3 PUSH1 0xA1 JUMP JUMPDEST SWAP1 POP SWAP2 SWAP1 POP JUMP JUMPDEST PUSH1 0x0 PUSH20 0xFFFFFFFFFFFFFFFFFFFFFFFFFFFFFFFFFFFFFFFF DUP3 AND SWAP1 POP SWAP2 SWAP1 POP JUMP INVALID LOG2 PUSH5 0x6970667358 0x22 SLT KECCAK256 0xB2 SMOD SWAP3 SWAP4 BYTE LOG4 0xC5 0xB3 PUSH31 0x7B8601134BF7E8A0DB133A9F6E94B455E7D6751E77F8BA64736F6C63430008 DIV STOP CALLER LOG2 PUSH5 0x6970667358 0x22 SLT KECCAK256 PUSH8 0x42C024E1B335E304 PUSH15 0x136251F6B587570BC28BD638EABB1E 0xDF JUMPDEST COINBASE 0xC2 RETURNDATACOPY 0xD3 SWAP16 PUSH5 0x736F6C6343 STOP ADDMOD DIV STOP CALLER "
				},
				"gasEstimates": {
					"creation": {
						"codeDepositCost": "254800",
						"executionCost": "294",
						"totalCost": "255094"
					},
					"external": {
						"accounts(uint256)": "2399",
						"createAccount(address)": "infinite"
					}
				},
				"methodIdentifiers": {
					"accounts(uint256)": "f2a40db8",
					"createAccount(address)": "9859387b"
				}
			},
			"storageLayout": {
				"storage": [
					{
						"astId": 18,
						"contract": "contracts/base/NewTest.sol:AccountFactory",
						"label": "accounts",
						"offset": 0,
						"slot": "0",
						"type": "t_array(t_contract(Account)14)dyn_storage"
					}
				],
				"types": {
					"t_array(t_contract(Account)14)dyn_storage": {
						"base": "t_contract(Account)14",
						"encoding": "dynamic_array",
						"label": "contract Account[]",
						"numberOfBytes": "32"
					},
					"t_contract(Account)14": {
						"encoding": "inplace",
						"label": "contract Account",
						"numberOfBytes": "20"
					}
				}
			},
			"userdoc": {
				"kind": "user",
				"methods": {},
				"version": 1
			}
		}
	}
}