{
	"contracts/base/MyCallerContract.sol": {
		"MyTargetContract": {
			"abi": [
				{
					"inputs": [],
					"name": "getX",
					"outputs": [
						{
							"internalType": "uint256",
							"name": "",
							"type": "uint256"
						}
					],
					"stateMutability": "view",
					"type": "function"
				},
				{
					"inputs": [],
					"name": "getXAndValue",
					"outputs": [
						{
							"internalType": "uint256",
							"name": "",
							"type": "uint256"
						},
						{
							"internalType": "uint256",
							"name": "",
							"type": "uint256"
						}
					],
					"stateMutability": "view",
					"type": "function"
				},
				{
					"inputs": [
						{
							"internalType": "uint256",
							"name": "_x",
							"type": "uint256"
						}
					],
					"name": "setX",
					"outputs": [],
					"stateMutability": "nonpayable",
					"type": "function"
				},
				{
					"inputs": [
						{
							"internalType": "uint256",
							"name": "_x",
							"type": "uint256"
						}
					],
					"name": "setXAndReceiveEther",
					"outputs": [],
					"stateMutability": "payable",
					"type": "function"
				}
			],
			"devdoc": {
				"kind": "dev",
				"methods": {},
				"version": 1
			},
			"evm": {
				"assembly": "    /* \"contracts/base/MyCallerContract.sol\":726:1178  contract MyTargetContract {\r... */\n  mstore(0x40, 0x80)\n  callvalue\n  dup1\n  iszero\n  tag_1\n  jumpi\n  0x00\n  dup1\n  revert\ntag_1:\n  pop\n  dataSize(sub_0)\n  dup1\n  dataOffset(sub_0)\n  0x00\n  codecopy\n  0x00\n  return\nstop\n\nsub_0: assembly {\n        /* \"contracts/base/MyCallerContract.sol\":726:1178  contract MyTargetContract {\r... */\n      mstore(0x40, 0x80)\n      jumpi(tag_1, lt(calldatasize, 0x04))\n      shr(0xe0, calldataload(0x00))\n      dup1\n      0x2b5d6086\n      eq\n      tag_2\n      jumpi\n      dup1\n      0x4018d9aa\n      eq\n      tag_3\n      jumpi\n      dup1\n      0x5197c7aa\n      eq\n      tag_4\n      jumpi\n      dup1\n      0xc9c4e00f\n      eq\n      tag_5\n      jumpi\n    tag_1:\n      0x00\n      dup1\n      revert\n        /* \"contracts/base/MyCallerContract.sol\":1074:1175  function getXAndValue() external view returns (uint256, uint256) {\r... */\n    tag_2:\n      callvalue\n      dup1\n      iszero\n      tag_6\n      jumpi\n      0x00\n      dup1\n      revert\n    tag_6:\n      pop\n      tag_7\n      tag_8\n      jump\t// in\n    tag_7:\n      mload(0x40)\n      tag_9\n      swap3\n      swap2\n      swap1\n      tag_10\n      jump\t// in\n    tag_9:\n      mload(0x40)\n      dup1\n      swap2\n      sub\n      swap1\n      return\n        /* \"contracts/base/MyCallerContract.sol\":807:864  function setX(uint _x) external {\r... */\n    tag_3:\n      callvalue\n      dup1\n      iszero\n      tag_11\n      jumpi\n      0x00\n      dup1\n      revert\n    tag_11:\n      pop\n      tag_12\n      0x04\n      dup1\n      calldatasize\n      sub\n      dup2\n      add\n      swap1\n      tag_13\n      swap2\n      swap1\n      tag_14\n      jump\t// in\n    tag_13:\n      tag_15\n      jump\t// in\n    tag_12:\n      stop\n        /* \"contracts/base/MyCallerContract.sol\":872:944  function getX() external view returns(uint)  {\r... */\n    tag_4:\n      callvalue\n      dup1\n      iszero\n      tag_16\n      jumpi\n      0x00\n      dup1\n      revert\n    tag_16:\n      pop\n      tag_17\n      tag_18\n      jump\t// in\n    tag_17:\n      mload(0x40)\n      tag_19\n      swap2\n      swap1\n      tag_20\n      jump\t// in\n    tag_19:\n      mload(0x40)\n      dup1\n      swap2\n      sub\n      swap1\n      return\n        /* \"contracts/base/MyCallerContract.sol\":954:1064  function setXAndReceiveEther(uint256 _x) external payable {\r... */\n    tag_5:\n      tag_21\n      0x04\n      dup1\n      calldatasize\n      sub\n      dup2\n      add\n      swap1\n      tag_22\n      swap2\n      swap1\n      tag_14\n      jump\t// in\n    tag_22:\n      tag_23\n      jump\t// in\n    tag_21:\n      stop\n        /* \"contracts/base/MyCallerContract.sol\":1074:1175  function getXAndValue() external view returns (uint256, uint256) {\r... */\n    tag_8:\n        /* \"contracts/base/MyCallerContract.sol\":1121:1128  uint256 */\n      0x00\n        /* \"contracts/base/MyCallerContract.sol\":1130:1137  uint256 */\n      dup1\n        /* \"contracts/base/MyCallerContract.sol\":1158:1159  x */\n      sload(0x00)\n        /* \"contracts/base/MyCallerContract.sol\":1161:1166  value */\n      sload(0x01)\n        /* \"contracts/base/MyCallerContract.sol\":1150:1167  return (x, value) */\n      swap2\n      pop\n      swap2\n      pop\n        /* \"contracts/base/MyCallerContract.sol\":1074:1175  function getXAndValue() external view returns (uint256, uint256) {\r... */\n      swap1\n      swap2\n      jump\t// out\n        /* \"contracts/base/MyCallerContract.sol\":807:864  function setX(uint _x) external {\r... */\n    tag_15:\n        /* \"contracts/base/MyCallerContract.sol\":854:856  _x */\n      dup1\n        /* \"contracts/base/MyCallerContract.sol\":850:851  x */\n      0x00\n        /* \"contracts/base/MyCallerContract.sol\":850:856  x = _x */\n      dup2\n      swap1\n      sstore\n      pop\n        /* \"contracts/base/MyCallerContract.sol\":807:864  function setX(uint _x) external {\r... */\n      pop\n      jump\t// out\n        /* \"contracts/base/MyCallerContract.sol\":872:944  function getX() external view returns(uint)  {\r... */\n    tag_18:\n        /* \"contracts/base/MyCallerContract.sol\":910:914  uint */\n      0x00\n        /* \"contracts/base/MyCallerContract.sol\":935:936  x */\n      dup1\n      sload\n        /* \"contracts/base/MyCallerContract.sol\":928:936  return x */\n      swap1\n      pop\n        /* \"contracts/base/MyCallerContract.sol\":872:944  function getX() external view returns(uint)  {\r... */\n      swap1\n      jump\t// out\n        /* \"contracts/base/MyCallerContract.sol\":954:1064  function setXAndReceiveEther(uint256 _x) external payable {\r... */\n    tag_23:\n        /* \"contracts/base/MyCallerContract.sol\":1026:1028  _x */\n      dup1\n        /* \"contracts/base/MyCallerContract.sol\":1023:1024  x */\n      0x00\n        /* \"contracts/base/MyCallerContract.sol\":1023:1028  x =_x */\n      dup2\n      swap1\n      sstore\n      pop\n        /* \"contracts/base/MyCallerContract.sol\":1047:1056  msg.value */\n      callvalue\n        /* \"contracts/base/MyCallerContract.sol\":1039:1044  value */\n      0x01\n        /* \"contracts/base/MyCallerContract.sol\":1039:1056  value = msg.value */\n      dup2\n      swap1\n      sstore\n      pop\n        /* \"contracts/base/MyCallerContract.sol\":954:1064  function setXAndReceiveEther(uint256 _x) external payable {\r... */\n      pop\n      jump\t// out\n        /* \"#utility.yul\":7:146   */\n    tag_29:\n        /* \"#utility.yul\":53:58   */\n      0x00\n        /* \"#utility.yul\":91:97   */\n      dup2\n        /* \"#utility.yul\":78:98   */\n      calldataload\n        /* \"#utility.yul\":69:98   */\n      swap1\n      pop\n        /* \"#utility.yul\":107:140   */\n      tag_31\n        /* \"#utility.yul\":134:139   */\n      dup2\n        /* \"#utility.yul\":107:140   */\n      tag_32\n      jump\t// in\n    tag_31:\n        /* \"#utility.yul\":59:146   */\n      swap3\n      swap2\n      pop\n      pop\n      jump\t// out\n        /* \"#utility.yul\":152:414   */\n    tag_14:\n        /* \"#utility.yul\":211:217   */\n      0x00\n        /* \"#utility.yul\":260:262   */\n      0x20\n        /* \"#utility.yul\":248:257   */\n      dup3\n        /* \"#utility.yul\":239:246   */\n      dup5\n        /* \"#utility.yul\":235:258   */\n      sub\n        /* \"#utility.yul\":231:263   */\n      slt\n        /* \"#utility.yul\":228:230   */\n      iszero\n      tag_34\n      jumpi\n        /* \"#utility.yul\":276:277   */\n      0x00\n        /* \"#utility.yul\":273:274   */\n      dup1\n        /* \"#utility.yul\":266:278   */\n      revert\n        /* \"#utility.yul\":228:230   */\n    tag_34:\n        /* \"#utility.yul\":319:320   */\n      0x00\n        /* \"#utility.yul\":344:397   */\n      tag_35\n        /* \"#utility.yul\":389:396   */\n      dup5\n        /* \"#utility.yul\":380:386   */\n      dup3\n        /* \"#utility.yul\":369:378   */\n      dup6\n        /* \"#utility.yul\":365:387   */\n      add\n        /* \"#utility.yul\":344:397   */\n      tag_29\n      jump\t// in\n    tag_35:\n        /* \"#utility.yul\":334:397   */\n      swap2\n      pop\n        /* \"#utility.yul\":290:407   */\n      pop\n        /* \"#utility.yul\":218:414   */\n      swap3\n      swap2\n      pop\n      pop\n      jump\t// out\n        /* \"#utility.yul\":420:538   */\n    tag_36:\n        /* \"#utility.yul\":507:531   */\n      tag_38\n        /* \"#utility.yul\":525:530   */\n      dup2\n        /* \"#utility.yul\":507:531   */\n      tag_39\n      jump\t// in\n    tag_38:\n        /* \"#utility.yul\":502:505   */\n      dup3\n        /* \"#utility.yul\":495:532   */\n      mstore\n        /* \"#utility.yul\":485:538   */\n      pop\n      pop\n      jump\t// out\n        /* \"#utility.yul\":544:766   */\n    tag_20:\n        /* \"#utility.yul\":637:641   */\n      0x00\n        /* \"#utility.yul\":675:677   */\n      0x20\n        /* \"#utility.yul\":664:673   */\n      dup3\n        /* \"#utility.yul\":660:678   */\n      add\n        /* \"#utility.yul\":652:678   */\n      swap1\n      pop\n        /* \"#utility.yul\":688:759   */\n      tag_41\n        /* \"#utility.yul\":756:757   */\n      0x00\n        /* \"#utility.yul\":745:754   */\n      dup4\n        /* \"#utility.yul\":741:758   */\n      add\n        /* \"#utility.yul\":732:738   */\n      dup5\n        /* \"#utility.yul\":688:759   */\n      tag_36\n      jump\t// in\n    tag_41:\n        /* \"#utility.yul\":642:766   */\n      swap3\n      swap2\n      pop\n      pop\n      jump\t// out\n        /* \"#utility.yul\":772:1104   */\n    tag_10:\n        /* \"#utility.yul\":893:897   */\n      0x00\n        /* \"#utility.yul\":931:933   */\n      0x40\n        /* \"#utility.yul\":920:929   */\n      dup3\n        /* \"#utility.yul\":916:934   */\n      add\n        /* \"#utility.yul\":908:934   */\n      swap1\n      pop\n        /* \"#utility.yul\":944:1015   */\n      tag_43\n        /* \"#utility.yul\":1012:1013   */\n      0x00\n        /* \"#utility.yul\":1001:1010   */\n      dup4\n        /* \"#utility.yul\":997:1014   */\n      add\n        /* \"#utility.yul\":988:994   */\n      dup6\n        /* \"#utility.yul\":944:1015   */\n      tag_36\n      jump\t// in\n    tag_43:\n        /* \"#utility.yul\":1025:1097   */\n      tag_44\n        /* \"#utility.yul\":1093:1095   */\n      0x20\n        /* \"#utility.yul\":1082:1091   */\n      dup4\n        /* \"#utility.yul\":1078:1096   */\n      add\n        /* \"#utility.yul\":1069:1075   */\n      dup5\n        /* \"#utility.yul\":1025:1097   */\n      tag_36\n      jump\t// in\n    tag_44:\n        /* \"#utility.yul\":898:1104   */\n      swap4\n      swap3\n      pop\n      pop\n      pop\n      jump\t// out\n        /* \"#utility.yul\":1110:1187   */\n    tag_39:\n        /* \"#utility.yul\":1147:1154   */\n      0x00\n        /* \"#utility.yul\":1176:1181   */\n      dup2\n        /* \"#utility.yul\":1165:1181   */\n      swap1\n      pop\n        /* \"#utility.yul\":1155:1187   */\n      swap2\n      swap1\n      pop\n      jump\t// out\n        /* \"#utility.yul\":1193:1315   */\n    tag_32:\n        /* \"#utility.yul\":1266:1290   */\n      tag_47\n        /* \"#utility.yul\":1284:1289   */\n      dup2\n        /* \"#utility.yul\":1266:1290   */\n      tag_39\n      jump\t// in\n    tag_47:\n        /* \"#utility.yul\":1259:1264   */\n      dup2\n        /* \"#utility.yul\":1256:1291   */\n      eq\n        /* \"#utility.yul\":1246:1248   */\n      tag_48\n      jumpi\n        /* \"#utility.yul\":1305:1306   */\n      0x00\n        /* \"#utility.yul\":1302:1303   */\n      dup1\n        /* \"#utility.yul\":1295:1307   */\n      revert\n        /* \"#utility.yul\":1246:1248   */\n    tag_48:\n        /* \"#utility.yul\":1236:1315   */\n      pop\n      jump\t// out\n\n    auxdata: 0xa264697066735822122034d3c73ada296899e0ae81cb50f37c74c1a537b1e31c039f1749aeda6a1b984964736f6c63430008040033\n}\n",
				"bytecode": {
					"linkReferences": {},
					"object": "608060405234801561001057600080fd5b506101fd806100206000396000f3fe60806040526004361061003f5760003560e01c80632b5d6086146100445780634018d9aa146100705780635197c7aa14610099578063c9c4e00f146100c4575b600080fd5b34801561005057600080fd5b506100596100e0565b60405161006792919061017d565b60405180910390f35b34801561007c57600080fd5b506100976004803603810190610092919061012a565b6100f1565b005b3480156100a557600080fd5b506100ae6100fb565b6040516100bb9190610162565b60405180910390f35b6100de60048036038101906100d9919061012a565b610104565b005b600080600054600154915091509091565b8060008190555050565b60008054905090565b806000819055503460018190555050565b600081359050610124816101b0565b92915050565b60006020828403121561013c57600080fd5b600061014a84828501610115565b91505092915050565b61015c816101a6565b82525050565b60006020820190506101776000830184610153565b92915050565b60006040820190506101926000830185610153565b61019f6020830184610153565b9392505050565b6000819050919050565b6101b9816101a6565b81146101c457600080fd5b5056fea264697066735822122034d3c73ada296899e0ae81cb50f37c74c1a537b1e31c039f1749aeda6a1b984964736f6c63430008040033",
					"opcodes": "PUSH1 0x80 PUSH1 0x40 MSTORE CALLVALUE DUP1 ISZERO PUSH2 0x10 JUMPI PUSH1 0x0 DUP1 REVERT JUMPDEST POP PUSH2 0x1FD DUP1 PUSH2 0x20 PUSH1 0x0 CODECOPY PUSH1 0x0 RETURN INVALID PUSH1 0x80 PUSH1 0x40 MSTORE PUSH1 0x4 CALLDATASIZE LT PUSH2 0x3F JUMPI PUSH1 0x0 CALLDATALOAD PUSH1 0xE0 SHR DUP1 PUSH4 0x2B5D6086 EQ PUSH2 0x44 JUMPI DUP1 PUSH4 0x4018D9AA EQ PUSH2 0x70 JUMPI DUP1 PUSH4 0x5197C7AA EQ PUSH2 0x99 JUMPI DUP1 PUSH4 0xC9C4E00F EQ PUSH2 0xC4 JUMPI JUMPDEST PUSH1 0x0 DUP1 REVERT JUMPDEST CALLVALUE DUP1 ISZERO PUSH2 0x50 JUMPI PUSH1 0x0 DUP1 REVERT JUMPDEST POP PUSH2 0x59 PUSH2 0xE0 JUMP JUMPDEST PUSH1 0x40 MLOAD PUSH2 0x67 SWAP3 SWAP2 SWAP1 PUSH2 0x17D JUMP JUMPDEST PUSH1 0x40 MLOAD DUP1 SWAP2 SUB SWAP1 RETURN JUMPDEST CALLVALUE DUP1 ISZERO PUSH2 0x7C JUMPI PUSH1 0x0 DUP1 REVERT JUMPDEST POP PUSH2 0x97 PUSH1 0x4 DUP1 CALLDATASIZE SUB DUP2 ADD SWAP1 PUSH2 0x92 SWAP2 SWAP1 PUSH2 0x12A JUMP JUMPDEST PUSH2 0xF1 JUMP JUMPDEST STOP JUMPDEST CALLVALUE DUP1 ISZERO PUSH2 0xA5 JUMPI PUSH1 0x0 DUP1 REVERT JUMPDEST POP PUSH2 0xAE PUSH2 0xFB JUMP JUMPDEST PUSH1 0x40 MLOAD PUSH2 0xBB SWAP2 SWAP1 PUSH2 0x162 JUMP JUMPDEST PUSH1 0x40 MLOAD DUP1 SWAP2 SUB SWAP1 RETURN JUMPDEST PUSH2 0xDE PUSH1 0x4 DUP1 CALLDATASIZE SUB DUP2 ADD SWAP1 PUSH2 0xD9 SWAP2 SWAP1 PUSH2 0x12A JUMP JUMPDEST PUSH2 0x104 JUMP JUMPDEST STOP JUMPDEST PUSH1 0x0 DUP1 PUSH1 0x0 SLOAD PUSH1 0x1 SLOAD SWAP2 POP SWAP2 POP SWAP1 SWAP2 JUMP JUMPDEST DUP1 PUSH1 0x0 DUP2 SWAP1 SSTORE POP POP JUMP JUMPDEST PUSH1 0x0 DUP1 SLOAD SWAP1 POP SWAP1 JUMP JUMPDEST DUP1 PUSH1 0x0 DUP2 SWAP1 SSTORE POP CALLVALUE PUSH1 0x1 DUP2 SWAP1 SSTORE POP POP JUMP JUMPDEST PUSH1 0x0 DUP2 CALLDATALOAD SWAP1 POP PUSH2 0x124 DUP2 PUSH2 0x1B0 JUMP JUMPDEST SWAP3 SWAP2 POP POP JUMP JUMPDEST PUSH1 0x0 PUSH1 0x20 DUP3 DUP5 SUB SLT ISZERO PUSH2 0x13C JUMPI PUSH1 0x0 DUP1 REVERT JUMPDEST PUSH1 0x0 PUSH2 0x14A DUP5 DUP3 DUP6 ADD PUSH2 0x115 JUMP JUMPDEST SWAP2 POP POP SWAP3 SWAP2 POP POP JUMP JUMPDEST PUSH2 0x15C DUP2 PUSH2 0x1A6 JUMP JUMPDEST DUP3 MSTORE POP POP JUMP JUMPDEST PUSH1 0x0 PUSH1 0x20 DUP3 ADD SWAP1 POP PUSH2 0x177 PUSH1 0x0 DUP4 ADD DUP5 PUSH2 0x153 JUMP JUMPDEST SWAP3 SWAP2 POP POP JUMP JUMPDEST PUSH1 0x0 PUSH1 0x40 DUP3 ADD SWAP1 POP PUSH2 0x192 PUSH1 0x0 DUP4 ADD DUP6 PUSH2 0x153 JUMP JUMPDEST PUSH2 0x19F PUSH1 0x20 DUP4 ADD DUP5 PUSH2 0x153 JUMP JUMPDEST SWAP4 SWAP3 POP POP POP JUMP JUMPDEST PUSH1 0x0 DUP2 SWAP1 POP SWAP2 SWAP1 POP JUMP JUMPDEST PUSH2 0x1B9 DUP2 PUSH2 0x1A6 JUMP JUMPDEST DUP2 EQ PUSH2 0x1C4 JUMPI PUSH1 0x0 DUP1 REVERT JUMPDEST POP JUMP INVALID LOG2 PUSH5 0x6970667358 0x22 SLT KECCAK256 CALLVALUE 0xD3 0xC7 GASPRICE 0xDA 0x29 PUSH9 0x99E0AE81CB50F37C74 0xC1 0xA5 CALLDATACOPY 0xB1 0xE3 SHR SUB SWAP16 OR 0x49 0xAE 0xDA PUSH11 0x1B984964736F6C63430008 DIV STOP CALLER "
				},
				"gasEstimates": {
					"creation": {
						"codeDepositCost": "101800",
						"executionCost": "147",
						"totalCost": "101947"
					},
					"external": {
						"getX()": "1159",
						"getXAndValue()": "infinite",
						"setX(uint256)": "20420",
						"setXAndReceiveEther(uint256)": "40453"
					}
				},
				"methodIdentifiers": {
					"getX()": "5197c7aa",
					"getXAndValue()": "2b5d6086",
					"setX(uint256)": "4018d9aa",
					"setXAndReceiveEther(uint256)": "c9c4e00f"
				}
			},
			"storageLayout": {
				"storage": [
					{
						"astId": 83,
						"contract": "contracts/base/MyCallerContract.sol:MyTargetContract",
						"label": "x",
						"offset": 0,
						"slot": "0",
						"type": "t_uint256"
					},
					{
						"astId": 85,
						"contract": "contracts/base/MyCallerContract.sol:MyTargetContract",
						"label": "value",
						"offset": 0,
						"slot": "1",
						"type": "t_uint256"
					}
				],
				"types": {
					"t_uint256": {
						"encoding": "inplace",
						"label": "uint256",
						"numberOfBytes": "32"
					}
				}
			},
			"userdoc": {
				"kind": "user",
				"methods": {},
				"version": 1
			}
		}
	}
}