{
	"contracts/base/MyCallerContract.sol": {
		"MyCallerContract": {
			"abi": [
				{
					"inputs": [
						{
							"internalType": "contract MyTargetContract",
							"name": "_m",
							"type": "address"
						}
					],
					"name": "getTargetX",
					"outputs": [
						{
							"internalType": "uint256",
							"name": "",
							"type": "uint256"
						}
					],
					"stateMutability": "view",
					"type": "function"
				},
				{
					"inputs": [
						{
							"internalType": "address",
							"name": "addr",
							"type": "address"
						}
					],
					"name": "getTargetX2",
					"outputs": [
						{
							"internalType": "uint256",
							"name": "",
							"type": "uint256"
						}
					],
					"stateMutability": "view",
					"type": "function"
				},
				{
					"inputs": [
						{
							"internalType": "contract MyTargetContract",
							"name": "_m",
							"type": "address"
						}
					],
					"name": "getXAndValueFromTarget",
					"outputs": [
						{
							"internalType": "uint256",
							"name": "x",
							"type": "uint256"
						},
						{
							"internalType": "uint256",
							"name": "y",
							"type": "uint256"
						}
					],
					"stateMutability": "view",
					"type": "function"
				},
				{
					"inputs": [
						{
							"internalType": "contract MyTargetContract",
							"name": "_m",
							"type": "address"
						},
						{
							"internalType": "uint256",
							"name": "_x",
							"type": "uint256"
						}
					],
					"name": "setTargetX",
					"outputs": [],
					"stateMutability": "nonpayable",
					"type": "function"
				},
				{
					"inputs": [
						{
							"internalType": "contract MyTargetContract",
							"name": "_m",
							"type": "address"
						},
						{
							"internalType": "uint256",
							"name": "_x",
							"type": "uint256"
						}
					],
					"name": "setXWithEther",
					"outputs": [],
					"stateMutability": "payable",
					"type": "function"
				}
			],
			"devdoc": {
				"kind": "dev",
				"methods": {},
				"version": 1
			},
			"evm": {
				"assembly": "    /* \"contracts/base/MyCallerContract.sol\":63:722  contract MyCallerContract {\r... */\n  mstore(0x40, 0x80)\n  callvalue\n  dup1\n  iszero\n  tag_1\n  jumpi\n  0x00\n  dup1\n  revert\ntag_1:\n  pop\n  dataSize(sub_0)\n  dup1\n  dataOffset(sub_0)\n  0x00\n  codecopy\n  0x00\n  return\nstop\n\nsub_0: assembly {\n        /* \"contracts/base/MyCallerContract.sol\":63:722  contract MyCallerContract {\r... */\n      mstore(0x40, 0x80)\n      jumpi(tag_1, lt(calldatasize, 0x04))\n      shr(0xe0, calldataload(0x00))\n      dup1\n      0x0dc6ad65\n      eq\n      tag_2\n      jumpi\n      dup1\n      0x311959a7\n      eq\n      tag_3\n      jumpi\n      dup1\n      0x52fe2c52\n      eq\n      tag_4\n      jumpi\n      dup1\n      0xcf71c510\n      eq\n      tag_5\n      jumpi\n      dup1\n      0xe9ab4ccc\n      eq\n      tag_6\n      jumpi\n    tag_1:\n      0x00\n      dup1\n      revert\n        /* \"contracts/base/MyCallerContract.sol\":96:184  function setTargetX(MyTargetContract _m,uint _x) external {\r... */\n    tag_2:\n      callvalue\n      dup1\n      iszero\n      tag_7\n      jumpi\n      0x00\n      dup1\n      revert\n    tag_7:\n      pop\n      tag_8\n      0x04\n      dup1\n      calldatasize\n      sub\n      dup2\n      add\n      swap1\n      tag_9\n      swap2\n      swap1\n      tag_10\n      jump\t// in\n    tag_9:\n      tag_11\n      jump\t// in\n    tag_8:\n      stop\n        /* \"contracts/base/MyCallerContract.sol\":194:299  function getTargetX(MyTargetContract _m) external view returns(uint)  {\r... */\n    tag_3:\n      callvalue\n      dup1\n      iszero\n      tag_12\n      jumpi\n      0x00\n      dup1\n      revert\n    tag_12:\n      pop\n      tag_13\n      0x04\n      dup1\n      calldatasize\n      sub\n      dup2\n      add\n      swap1\n      tag_14\n      swap2\n      swap1\n      tag_15\n      jump\t// in\n    tag_14:\n      tag_16\n      jump\t// in\n    tag_13:\n      mload(0x40)\n      tag_17\n      swap2\n      swap1\n      tag_18\n      jump\t// in\n    tag_17:\n      mload(0x40)\n      dup1\n      swap2\n      sub\n      swap1\n      return\n        /* \"contracts/base/MyCallerContract.sol\":307:426  function getTargetX2(address addr) external view returns(uint)  {\r... */\n    tag_4:\n      callvalue\n      dup1\n      iszero\n      tag_19\n      jumpi\n      0x00\n      dup1\n      revert\n    tag_19:\n      pop\n      tag_20\n      0x04\n      dup1\n      calldatasize\n      sub\n      dup2\n      add\n      swap1\n      tag_21\n      swap2\n      swap1\n      tag_22\n      jump\t// in\n    tag_21:\n      tag_23\n      jump\t// in\n    tag_20:\n      mload(0x40)\n      tag_24\n      swap2\n      swap1\n      tag_18\n      jump\t// in\n    tag_24:\n      mload(0x40)\n      dup1\n      swap2\n      sub\n      swap1\n      return\n        /* \"contracts/base/MyCallerContract.sol\":575:717  function getXAndValueFromTarget(MyTargetContract _m) external view returns (uint256 x, uint256 y) {\r... */\n    tag_5:\n      callvalue\n      dup1\n      iszero\n      tag_25\n      jumpi\n      0x00\n      dup1\n      revert\n    tag_25:\n      pop\n      tag_26\n      0x04\n      dup1\n      calldatasize\n      sub\n      dup2\n      add\n      swap1\n      tag_27\n      swap2\n      swap1\n      tag_15\n      jump\t// in\n    tag_27:\n      tag_28\n      jump\t// in\n    tag_26:\n      mload(0x40)\n      tag_29\n      swap3\n      swap2\n      swap1\n      tag_30\n      jump\t// in\n    tag_29:\n      mload(0x40)\n      dup1\n      swap2\n      sub\n      swap1\n      return\n        /* \"contracts/base/MyCallerContract.sol\":434:567  function setXWithEther(MyTargetContract _m,uint _x) external payable {\r... */\n    tag_6:\n      tag_31\n      0x04\n      dup1\n      calldatasize\n      sub\n      dup2\n      add\n      swap1\n      tag_32\n      swap2\n      swap1\n      tag_10\n      jump\t// in\n    tag_32:\n      tag_33\n      jump\t// in\n    tag_31:\n      stop\n        /* \"contracts/base/MyCallerContract.sol\":96:184  function setTargetX(MyTargetContract _m,uint _x) external {\r... */\n    tag_11:\n        /* \"contracts/base/MyCallerContract.sol\":165:167  _m */\n      dup2\n        /* \"contracts/base/MyCallerContract.sol\":165:172  _m.setX */\n      0xffffffffffffffffffffffffffffffffffffffff\n      and\n      0x4018d9aa\n        /* \"contracts/base/MyCallerContract.sol\":173:175  _x */\n      dup3\n        /* \"contracts/base/MyCallerContract.sol\":165:176  _m.setX(_x) */\n      mload(0x40)\n      dup3\n      0xffffffff\n      and\n      0xe0\n      shl\n      dup2\n      mstore\n      0x04\n      add\n      tag_35\n      swap2\n      swap1\n      tag_18\n      jump\t// in\n    tag_35:\n      0x00\n      mload(0x40)\n      dup1\n      dup4\n      sub\n      dup2\n      0x00\n      dup8\n      dup1\n      extcodesize\n      iszero\n      dup1\n      iszero\n      tag_36\n      jumpi\n      0x00\n      dup1\n      revert\n    tag_36:\n      pop\n      gas\n      call\n      iszero\n      dup1\n      iszero\n      tag_38\n      jumpi\n      returndatasize\n      0x00\n      dup1\n      returndatacopy\n      revert(0x00, returndatasize)\n    tag_38:\n      pop\n      pop\n      pop\n      pop\n        /* \"contracts/base/MyCallerContract.sol\":96:184  function setTargetX(MyTargetContract _m,uint _x) external {\r... */\n      pop\n      pop\n      jump\t// out\n        /* \"contracts/base/MyCallerContract.sol\":194:299  function getTargetX(MyTargetContract _m) external view returns(uint)  {\r... */\n    tag_16:\n        /* \"contracts/base/MyCallerContract.sol\":257:261  uint */\n      0x00\n        /* \"contracts/base/MyCallerContract.sol\":282:284  _m */\n      dup2\n        /* \"contracts/base/MyCallerContract.sol\":282:289  _m.getX */\n      0xffffffffffffffffffffffffffffffffffffffff\n      and\n      0x5197c7aa\n        /* \"contracts/base/MyCallerContract.sol\":282:291  _m.getX() */\n      mload(0x40)\n      dup2\n      0xffffffff\n      and\n      0xe0\n      shl\n      dup2\n      mstore\n      0x04\n      add\n      0x20\n      mload(0x40)\n      dup1\n      dup4\n      sub\n      dup2\n      dup7\n      dup1\n      extcodesize\n      iszero\n      dup1\n      iszero\n      tag_40\n      jumpi\n      0x00\n      dup1\n      revert\n    tag_40:\n      pop\n      gas\n      staticcall\n      iszero\n      dup1\n      iszero\n      tag_42\n      jumpi\n      returndatasize\n      0x00\n      dup1\n      returndatacopy\n      revert(0x00, returndatasize)\n    tag_42:\n      pop\n      pop\n      pop\n      pop\n      mload(0x40)\n      returndatasize\n      not(0x1f)\n      0x1f\n      dup3\n      add\n      and\n      dup3\n      add\n      dup1\n      0x40\n      mstore\n      pop\n      dup2\n      add\n      swap1\n      tag_43\n      swap2\n      swap1\n      tag_44\n      jump\t// in\n    tag_43:\n        /* \"contracts/base/MyCallerContract.sol\":275:291  return _m.getX() */\n      swap1\n      pop\n        /* \"contracts/base/MyCallerContract.sol\":194:299  function getTargetX(MyTargetContract _m) external view returns(uint)  {\r... */\n      swap2\n      swap1\n      pop\n      jump\t// out\n        /* \"contracts/base/MyCallerContract.sol\":307:426  function getTargetX2(address addr) external view returns(uint)  {\r... */\n    tag_23:\n        /* \"contracts/base/MyCallerContract.sol\":364:368  uint */\n      0x00\n        /* \"contracts/base/MyCallerContract.sol\":406:410  addr */\n      dup2\n        /* \"contracts/base/MyCallerContract.sol\":389:416  MyTargetContract(addr).getX */\n      0xffffffffffffffffffffffffffffffffffffffff\n      and\n      0x5197c7aa\n        /* \"contracts/base/MyCallerContract.sol\":389:418  MyTargetContract(addr).getX() */\n      mload(0x40)\n      dup2\n      0xffffffff\n      and\n      0xe0\n      shl\n      dup2\n      mstore\n      0x04\n      add\n      0x20\n      mload(0x40)\n      dup1\n      dup4\n      sub\n      dup2\n      dup7\n      dup1\n      extcodesize\n      iszero\n      dup1\n      iszero\n      tag_46\n      jumpi\n      0x00\n      dup1\n      revert\n    tag_46:\n      pop\n      gas\n      staticcall\n      iszero\n      dup1\n      iszero\n      tag_48\n      jumpi\n      returndatasize\n      0x00\n      dup1\n      returndatacopy\n      revert(0x00, returndatasize)\n    tag_48:\n      pop\n      pop\n      pop\n      pop\n      mload(0x40)\n      returndatasize\n      not(0x1f)\n      0x1f\n      dup3\n      add\n      and\n      dup3\n      add\n      dup1\n      0x40\n      mstore\n      pop\n      dup2\n      add\n      swap1\n      tag_49\n      swap2\n      swap1\n      tag_44\n      jump\t// in\n    tag_49:\n        /* \"contracts/base/MyCallerContract.sol\":382:418  return MyTargetContract(addr).getX() */\n      swap1\n      pop\n        /* \"contracts/base/MyCallerContract.sol\":307:426  function getTargetX2(address addr) external view returns(uint)  {\r... */\n      swap2\n      swap1\n      pop\n      jump\t// out\n        /* \"contracts/base/MyCallerContract.sol\":575:717  function getXAndValueFromTarget(MyTargetContract _m) external view returns (uint256 x, uint256 y) {\r... */\n    tag_28:\n        /* \"contracts/base/MyCallerContract.sol\":651:660  uint256 x */\n      0x00\n        /* \"contracts/base/MyCallerContract.sol\":662:671  uint256 y */\n      dup1\n        /* \"contracts/base/MyCallerContract.sol\":692:694  _m */\n      dup3\n        /* \"contracts/base/MyCallerContract.sol\":692:707  _m.getXAndValue */\n      0xffffffffffffffffffffffffffffffffffffffff\n      and\n      0x2b5d6086\n        /* \"contracts/base/MyCallerContract.sol\":692:709  _m.getXAndValue() */\n      mload(0x40)\n      dup2\n      0xffffffff\n      and\n      0xe0\n      shl\n      dup2\n      mstore\n      0x04\n      add\n      0x40\n      dup1\n      mload\n      dup1\n      dup4\n      sub\n      dup2\n      dup7\n      dup1\n      extcodesize\n      iszero\n      dup1\n      iszero\n      tag_51\n      jumpi\n      0x00\n      dup1\n      revert\n    tag_51:\n      pop\n      gas\n      staticcall\n      iszero\n      dup1\n      iszero\n      tag_53\n      jumpi\n      returndatasize\n      0x00\n      dup1\n      returndatacopy\n      revert(0x00, returndatasize)\n    tag_53:\n      pop\n      pop\n      pop\n      pop\n      mload(0x40)\n      returndatasize\n      not(0x1f)\n      0x1f\n      dup3\n      add\n      and\n      dup3\n      add\n      dup1\n      0x40\n      mstore\n      pop\n      dup2\n      add\n      swap1\n      tag_54\n      swap2\n      swap1\n      tag_55\n      jump\t// in\n    tag_54:\n        /* \"contracts/base/MyCallerContract.sol\":684:709  (x,y) = _m.getXAndValue() */\n      dup1\n      swap3\n      pop\n      dup2\n      swap4\n      pop\n      pop\n      pop\n        /* \"contracts/base/MyCallerContract.sol\":575:717  function getXAndValueFromTarget(MyTargetContract _m) external view returns (uint256 x, uint256 y) {\r... */\n      swap2\n      pop\n      swap2\n      jump\t// out\n        /* \"contracts/base/MyCallerContract.sol\":434:567  function setXWithEther(MyTargetContract _m,uint _x) external payable {\r... */\n    tag_33:\n        /* \"contracts/base/MyCallerContract.sol\":514:516  _m */\n      dup2\n        /* \"contracts/base/MyCallerContract.sol\":514:536  _m.setXAndReceiveEther */\n      0xffffffffffffffffffffffffffffffffffffffff\n      and\n      0xc9c4e00f\n        /* \"contracts/base/MyCallerContract.sol\":545:554  msg.value */\n      callvalue\n        /* \"contracts/base/MyCallerContract.sol\":556:558  _x */\n      dup4\n        /* \"contracts/base/MyCallerContract.sol\":514:559  _m.setXAndReceiveEther{value : msg.value}(_x) */\n      mload(0x40)\n      dup4\n      0xffffffff\n      and\n      0xe0\n      shl\n      dup2\n      mstore\n      0x04\n      add\n      tag_57\n      swap2\n      swap1\n      tag_18\n      jump\t// in\n    tag_57:\n      0x00\n      mload(0x40)\n      dup1\n      dup4\n      sub\n      dup2\n      dup6\n      dup9\n      dup1\n      extcodesize\n      iszero\n      dup1\n      iszero\n      tag_58\n      jumpi\n      0x00\n      dup1\n      revert\n    tag_58:\n      pop\n      gas\n      call\n      iszero\n      dup1\n      iszero\n      tag_60\n      jumpi\n      returndatasize\n      0x00\n      dup1\n      returndatacopy\n      revert(0x00, returndatasize)\n    tag_60:\n      pop\n      pop\n      pop\n      pop\n      pop\n        /* \"contracts/base/MyCallerContract.sol\":434:567  function setXWithEther(MyTargetContract _m,uint _x) external payable {\r... */\n      pop\n      pop\n      jump\t// out\n        /* \"#utility.yul\":7:146   */\n    tag_62:\n        /* \"#utility.yul\":53:58   */\n      0x00\n        /* \"#utility.yul\":91:97   */\n      dup2\n        /* \"#utility.yul\":78:98   */\n      calldataload\n        /* \"#utility.yul\":69:98   */\n      swap1\n      pop\n        /* \"#utility.yul\":107:140   */\n      tag_64\n        /* \"#utility.yul\":134:139   */\n      dup2\n        /* \"#utility.yul\":107:140   */\n      tag_65\n      jump\t// in\n    tag_64:\n        /* \"#utility.yul\":59:146   */\n      swap3\n      swap2\n      pop\n      pop\n      jump\t// out\n        /* \"#utility.yul\":152:339   */\n    tag_66:\n        /* \"#utility.yul\":222:227   */\n      0x00\n        /* \"#utility.yul\":260:266   */\n      dup2\n        /* \"#utility.yul\":247:267   */\n      calldataload\n        /* \"#utility.yul\":238:267   */\n      swap1\n      pop\n        /* \"#utility.yul\":276:333   */\n      tag_68\n        /* \"#utility.yul\":327:332   */\n      dup2\n        /* \"#utility.yul\":276:333   */\n      tag_69\n      jump\t// in\n    tag_68:\n        /* \"#utility.yul\":228:339   */\n      swap3\n      swap2\n      pop\n      pop\n      jump\t// out\n        /* \"#utility.yul\":345:484   */\n    tag_70:\n        /* \"#utility.yul\":391:396   */\n      0x00\n        /* \"#utility.yul\":429:435   */\n      dup2\n        /* \"#utility.yul\":416:436   */\n      calldataload\n        /* \"#utility.yul\":407:436   */\n      swap1\n      pop\n        /* \"#utility.yul\":445:478   */\n      tag_72\n        /* \"#utility.yul\":472:477   */\n      dup2\n        /* \"#utility.yul\":445:478   */\n      tag_73\n      jump\t// in\n    tag_72:\n        /* \"#utility.yul\":397:484   */\n      swap3\n      swap2\n      pop\n      pop\n      jump\t// out\n        /* \"#utility.yul\":490:633   */\n    tag_74:\n        /* \"#utility.yul\":547:552   */\n      0x00\n        /* \"#utility.yul\":578:584   */\n      dup2\n        /* \"#utility.yul\":572:585   */\n      mload\n        /* \"#utility.yul\":563:585   */\n      swap1\n      pop\n        /* \"#utility.yul\":594:627   */\n      tag_76\n        /* \"#utility.yul\":621:626   */\n      dup2\n        /* \"#utility.yul\":594:627   */\n      tag_73\n      jump\t// in\n    tag_76:\n        /* \"#utility.yul\":553:633   */\n      swap3\n      swap2\n      pop\n      pop\n      jump\t// out\n        /* \"#utility.yul\":639:901   */\n    tag_22:\n        /* \"#utility.yul\":698:704   */\n      0x00\n        /* \"#utility.yul\":747:749   */\n      0x20\n        /* \"#utility.yul\":735:744   */\n      dup3\n        /* \"#utility.yul\":726:733   */\n      dup5\n        /* \"#utility.yul\":722:745   */\n      sub\n        /* \"#utility.yul\":718:750   */\n      slt\n        /* \"#utility.yul\":715:717   */\n      iszero\n      tag_78\n      jumpi\n        /* \"#utility.yul\":763:764   */\n      0x00\n        /* \"#utility.yul\":760:761   */\n      dup1\n        /* \"#utility.yul\":753:765   */\n      revert\n        /* \"#utility.yul\":715:717   */\n    tag_78:\n        /* \"#utility.yul\":806:807   */\n      0x00\n        /* \"#utility.yul\":831:884   */\n      tag_79\n        /* \"#utility.yul\":876:883   */\n      dup5\n        /* \"#utility.yul\":867:873   */\n      dup3\n        /* \"#utility.yul\":856:865   */\n      dup6\n        /* \"#utility.yul\":852:874   */\n      add\n        /* \"#utility.yul\":831:884   */\n      tag_62\n      jump\t// in\n    tag_79:\n        /* \"#utility.yul\":821:884   */\n      swap2\n      pop\n        /* \"#utility.yul\":777:894   */\n      pop\n        /* \"#utility.yul\":705:901   */\n      swap3\n      swap2\n      pop\n      pop\n      jump\t// out\n        /* \"#utility.yul\":907:1217   */\n    tag_15:\n        /* \"#utility.yul\":990:996   */\n      0x00\n        /* \"#utility.yul\":1039:1041   */\n      0x20\n        /* \"#utility.yul\":1027:1036   */\n      dup3\n        /* \"#utility.yul\":1018:1025   */\n      dup5\n        /* \"#utility.yul\":1014:1037   */\n      sub\n        /* \"#utility.yul\":1010:1042   */\n      slt\n        /* \"#utility.yul\":1007:1009   */\n      iszero\n      tag_81\n      jumpi\n        /* \"#utility.yul\":1055:1056   */\n      0x00\n        /* \"#utility.yul\":1052:1053   */\n      dup1\n        /* \"#utility.yul\":1045:1057   */\n      revert\n        /* \"#utility.yul\":1007:1009   */\n    tag_81:\n        /* \"#utility.yul\":1098:1099   */\n      0x00\n        /* \"#utility.yul\":1123:1200   */\n      tag_82\n        /* \"#utility.yul\":1192:1199   */\n      dup5\n        /* \"#utility.yul\":1183:1189   */\n      dup3\n        /* \"#utility.yul\":1172:1181   */\n      dup6\n        /* \"#utility.yul\":1168:1190   */\n      add\n        /* \"#utility.yul\":1123:1200   */\n      tag_66\n      jump\t// in\n    tag_82:\n        /* \"#utility.yul\":1113:1200   */\n      swap2\n      pop\n        /* \"#utility.yul\":1069:1210   */\n      pop\n        /* \"#utility.yul\":997:1217   */\n      swap3\n      swap2\n      pop\n      pop\n      jump\t// out\n        /* \"#utility.yul\":1223:1678   */\n    tag_10:\n        /* \"#utility.yul\":1315:1321   */\n      0x00\n        /* \"#utility.yul\":1323:1329   */\n      dup1\n        /* \"#utility.yul\":1372:1374   */\n      0x40\n        /* \"#utility.yul\":1360:1369   */\n      dup4\n        /* \"#utility.yul\":1351:1358   */\n      dup6\n        /* \"#utility.yul\":1347:1370   */\n      sub\n        /* \"#utility.yul\":1343:1375   */\n      slt\n        /* \"#utility.yul\":1340:1342   */\n      iszero\n      tag_84\n      jumpi\n        /* \"#utility.yul\":1388:1389   */\n      0x00\n        /* \"#utility.yul\":1385:1386   */\n      dup1\n        /* \"#utility.yul\":1378:1390   */\n      revert\n        /* \"#utility.yul\":1340:1342   */\n    tag_84:\n        /* \"#utility.yul\":1431:1432   */\n      0x00\n        /* \"#utility.yul\":1456:1533   */\n      tag_85\n        /* \"#utility.yul\":1525:1532   */\n      dup6\n        /* \"#utility.yul\":1516:1522   */\n      dup3\n        /* \"#utility.yul\":1505:1514   */\n      dup7\n        /* \"#utility.yul\":1501:1523   */\n      add\n        /* \"#utility.yul\":1456:1533   */\n      tag_66\n      jump\t// in\n    tag_85:\n        /* \"#utility.yul\":1446:1533   */\n      swap3\n      pop\n        /* \"#utility.yul\":1402:1543   */\n      pop\n        /* \"#utility.yul\":1582:1584   */\n      0x20\n        /* \"#utility.yul\":1608:1661   */\n      tag_86\n        /* \"#utility.yul\":1653:1660   */\n      dup6\n        /* \"#utility.yul\":1644:1650   */\n      dup3\n        /* \"#utility.yul\":1633:1642   */\n      dup7\n        /* \"#utility.yul\":1629:1651   */\n      add\n        /* \"#utility.yul\":1608:1661   */\n      tag_70\n      jump\t// in\n    tag_86:\n        /* \"#utility.yul\":1598:1661   */\n      swap2\n      pop\n        /* \"#utility.yul\":1553:1671   */\n      pop\n        /* \"#utility.yul\":1330:1678   */\n      swap3\n      pop\n      swap3\n      swap1\n      pop\n      jump\t// out\n        /* \"#utility.yul\":1684:1968   */\n    tag_44:\n        /* \"#utility.yul\":1754:1760   */\n      0x00\n        /* \"#utility.yul\":1803:1805   */\n      0x20\n        /* \"#utility.yul\":1791:1800   */\n      dup3\n        /* \"#utility.yul\":1782:1789   */\n      dup5\n        /* \"#utility.yul\":1778:1801   */\n      sub\n        /* \"#utility.yul\":1774:1806   */\n      slt\n        /* \"#utility.yul\":1771:1773   */\n      iszero\n      tag_88\n      jumpi\n        /* \"#utility.yul\":1819:1820   */\n      0x00\n        /* \"#utility.yul\":1816:1817   */\n      dup1\n        /* \"#utility.yul\":1809:1821   */\n      revert\n        /* \"#utility.yul\":1771:1773   */\n    tag_88:\n        /* \"#utility.yul\":1862:1863   */\n      0x00\n        /* \"#utility.yul\":1887:1951   */\n      tag_89\n        /* \"#utility.yul\":1943:1950   */\n      dup5\n        /* \"#utility.yul\":1934:1940   */\n      dup3\n        /* \"#utility.yul\":1923:1932   */\n      dup6\n        /* \"#utility.yul\":1919:1941   */\n      add\n        /* \"#utility.yul\":1887:1951   */\n      tag_74\n      jump\t// in\n    tag_89:\n        /* \"#utility.yul\":1877:1951   */\n      swap2\n      pop\n        /* \"#utility.yul\":1833:1961   */\n      pop\n        /* \"#utility.yul\":1761:1968   */\n      swap3\n      swap2\n      pop\n      pop\n      jump\t// out\n        /* \"#utility.yul\":1974:2414   */\n    tag_55:\n        /* \"#utility.yul\":2053:2059   */\n      0x00\n        /* \"#utility.yul\":2061:2067   */\n      dup1\n        /* \"#utility.yul\":2110:2112   */\n      0x40\n        /* \"#utility.yul\":2098:2107   */\n      dup4\n        /* \"#utility.yul\":2089:2096   */\n      dup6\n        /* \"#utility.yul\":2085:2108   */\n      sub\n        /* \"#utility.yul\":2081:2113   */\n      slt\n        /* \"#utility.yul\":2078:2080   */\n      iszero\n      tag_91\n      jumpi\n        /* \"#utility.yul\":2126:2127   */\n      0x00\n        /* \"#utility.yul\":2123:2124   */\n      dup1\n        /* \"#utility.yul\":2116:2128   */\n      revert\n        /* \"#utility.yul\":2078:2080   */\n    tag_91:\n        /* \"#utility.yul\":2169:2170   */\n      0x00\n        /* \"#utility.yul\":2194:2258   */\n      tag_92\n        /* \"#utility.yul\":2250:2257   */\n      dup6\n        /* \"#utility.yul\":2241:2247   */\n      dup3\n        /* \"#utility.yul\":2230:2239   */\n      dup7\n        /* \"#utility.yul\":2226:2248   */\n      add\n        /* \"#utility.yul\":2194:2258   */\n      tag_74\n      jump\t// in\n    tag_92:\n        /* \"#utility.yul\":2184:2258   */\n      swap3\n      pop\n        /* \"#utility.yul\":2140:2268   */\n      pop\n        /* \"#utility.yul\":2307:2309   */\n      0x20\n        /* \"#utility.yul\":2333:2397   */\n      tag_93\n        /* \"#utility.yul\":2389:2396   */\n      dup6\n        /* \"#utility.yul\":2380:2386   */\n      dup3\n        /* \"#utility.yul\":2369:2378   */\n      dup7\n        /* \"#utility.yul\":2365:2387   */\n      add\n        /* \"#utility.yul\":2333:2397   */\n      tag_74\n      jump\t// in\n    tag_93:\n        /* \"#utility.yul\":2323:2397   */\n      swap2\n      pop\n        /* \"#utility.yul\":2278:2407   */\n      pop\n        /* \"#utility.yul\":2068:2414   */\n      swap3\n      pop\n      swap3\n      swap1\n      pop\n      jump\t// out\n        /* \"#utility.yul\":2420:2538   */\n    tag_94:\n        /* \"#utility.yul\":2507:2531   */\n      tag_96\n        /* \"#utility.yul\":2525:2530   */\n      dup2\n        /* \"#utility.yul\":2507:2531   */\n      tag_97\n      jump\t// in\n    tag_96:\n        /* \"#utility.yul\":2502:2505   */\n      dup3\n        /* \"#utility.yul\":2495:2532   */\n      mstore\n        /* \"#utility.yul\":2485:2538   */\n      pop\n      pop\n      jump\t// out\n        /* \"#utility.yul\":2544:2766   */\n    tag_18:\n        /* \"#utility.yul\":2637:2641   */\n      0x00\n        /* \"#utility.yul\":2675:2677   */\n      0x20\n        /* \"#utility.yul\":2664:2673   */\n      dup3\n        /* \"#utility.yul\":2660:2678   */\n      add\n        /* \"#utility.yul\":2652:2678   */\n      swap1\n      pop\n        /* \"#utility.yul\":2688:2759   */\n      tag_99\n        /* \"#utility.yul\":2756:2757   */\n      0x00\n        /* \"#utility.yul\":2745:2754   */\n      dup4\n        /* \"#utility.yul\":2741:2758   */\n      add\n        /* \"#utility.yul\":2732:2738   */\n      dup5\n        /* \"#utility.yul\":2688:2759   */\n      tag_94\n      jump\t// in\n    tag_99:\n        /* \"#utility.yul\":2642:2766   */\n      swap3\n      swap2\n      pop\n      pop\n      jump\t// out\n        /* \"#utility.yul\":2772:3104   */\n    tag_30:\n        /* \"#utility.yul\":2893:2897   */\n      0x00\n        /* \"#utility.yul\":2931:2933   */\n      0x40\n        /* \"#utility.yul\":2920:2929   */\n      dup3\n        /* \"#utility.yul\":2916:2934   */\n      add\n        /* \"#utility.yul\":2908:2934   */\n      swap1\n      pop\n        /* \"#utility.yul\":2944:3015   */\n      tag_101\n        /* \"#utility.yul\":3012:3013   */\n      0x00\n        /* \"#utility.yul\":3001:3010   */\n      dup4\n        /* \"#utility.yul\":2997:3014   */\n      add\n        /* \"#utility.yul\":2988:2994   */\n      dup6\n        /* \"#utility.yul\":2944:3015   */\n      tag_94\n      jump\t// in\n    tag_101:\n        /* \"#utility.yul\":3025:3097   */\n      tag_102\n        /* \"#utility.yul\":3093:3095   */\n      0x20\n        /* \"#utility.yul\":3082:3091   */\n      dup4\n        /* \"#utility.yul\":3078:3096   */\n      add\n        /* \"#utility.yul\":3069:3075   */\n      dup5\n        /* \"#utility.yul\":3025:3097   */\n      tag_94\n      jump\t// in\n    tag_102:\n        /* \"#utility.yul\":2898:3104   */\n      swap4\n      swap3\n      pop\n      pop\n      pop\n      jump\t// out\n        /* \"#utility.yul\":3110:3206   */\n    tag_103:\n        /* \"#utility.yul\":3147:3154   */\n      0x00\n        /* \"#utility.yul\":3176:3200   */\n      tag_105\n        /* \"#utility.yul\":3194:3199   */\n      dup3\n        /* \"#utility.yul\":3176:3200   */\n      tag_106\n      jump\t// in\n    tag_105:\n        /* \"#utility.yul\":3165:3200   */\n      swap1\n      pop\n        /* \"#utility.yul\":3155:3206   */\n      swap2\n      swap1\n      pop\n      jump\t// out\n        /* \"#utility.yul\":3212:3332   */\n    tag_107:\n        /* \"#utility.yul\":3273:3280   */\n      0x00\n        /* \"#utility.yul\":3302:3326   */\n      tag_109\n        /* \"#utility.yul\":3320:3325   */\n      dup3\n        /* \"#utility.yul\":3302:3326   */\n      tag_103\n      jump\t// in\n    tag_109:\n        /* \"#utility.yul\":3291:3326   */\n      swap1\n      pop\n        /* \"#utility.yul\":3281:3332   */\n      swap2\n      swap1\n      pop\n      jump\t// out\n        /* \"#utility.yul\":3338:3464   */\n    tag_106:\n        /* \"#utility.yul\":3375:3382   */\n      0x00\n        /* \"#utility.yul\":3415:3457   */\n      0xffffffffffffffffffffffffffffffffffffffff\n        /* \"#utility.yul\":3408:3413   */\n      dup3\n        /* \"#utility.yul\":3404:3458   */\n      and\n        /* \"#utility.yul\":3393:3458   */\n      swap1\n      pop\n        /* \"#utility.yul\":3383:3464   */\n      swap2\n      swap1\n      pop\n      jump\t// out\n        /* \"#utility.yul\":3470:3547   */\n    tag_97:\n        /* \"#utility.yul\":3507:3514   */\n      0x00\n        /* \"#utility.yul\":3536:3541   */\n      dup2\n        /* \"#utility.yul\":3525:3541   */\n      swap1\n      pop\n        /* \"#utility.yul\":3515:3547   */\n      swap2\n      swap1\n      pop\n      jump\t// out\n        /* \"#utility.yul\":3553:3675   */\n    tag_65:\n        /* \"#utility.yul\":3626:3650   */\n      tag_113\n        /* \"#utility.yul\":3644:3649   */\n      dup2\n        /* \"#utility.yul\":3626:3650   */\n      tag_103\n      jump\t// in\n    tag_113:\n        /* \"#utility.yul\":3619:3624   */\n      dup2\n        /* \"#utility.yul\":3616:3651   */\n      eq\n        /* \"#utility.yul\":3606:3608   */\n      tag_114\n      jumpi\n        /* \"#utility.yul\":3665:3666   */\n      0x00\n        /* \"#utility.yul\":3662:3663   */\n      dup1\n        /* \"#utility.yul\":3655:3667   */\n      revert\n        /* \"#utility.yul\":3606:3608   */\n    tag_114:\n        /* \"#utility.yul\":3596:3675   */\n      pop\n      jump\t// out\n        /* \"#utility.yul\":3681:3851   */\n    tag_69:\n        /* \"#utility.yul\":3778:3826   */\n      tag_116\n        /* \"#utility.yul\":3820:3825   */\n      dup2\n        /* \"#utility.yul\":3778:3826   */\n      tag_107\n      jump\t// in\n    tag_116:\n        /* \"#utility.yul\":3771:3776   */\n      dup2\n        /* \"#utility.yul\":3768:3827   */\n      eq\n        /* \"#utility.yul\":3758:3760   */\n      tag_117\n      jumpi\n        /* \"#utility.yul\":3841:3842   */\n      0x00\n        /* \"#utility.yul\":3838:3839   */\n      dup1\n        /* \"#utility.yul\":3831:3843   */\n      revert\n        /* \"#utility.yul\":3758:3760   */\n    tag_117:\n        /* \"#utility.yul\":3748:3851   */\n      pop\n      jump\t// out\n        /* \"#utility.yul\":3857:3979   */\n    tag_73:\n        /* \"#utility.yul\":3930:3954   */\n      tag_119\n        /* \"#utility.yul\":3948:3953   */\n      dup2\n        /* \"#utility.yul\":3930:3954   */\n      tag_97\n      jump\t// in\n    tag_119:\n        /* \"#utility.yul\":3923:3928   */\n      dup2\n        /* \"#utility.yul\":3920:3955   */\n      eq\n        /* \"#utility.yul\":3910:3912   */\n      tag_120\n      jumpi\n        /* \"#utility.yul\":3969:3970   */\n      0x00\n        /* \"#utility.yul\":3966:3967   */\n      dup1\n        /* \"#utility.yul\":3959:3971   */\n      revert\n        /* \"#utility.yul\":3910:3912   */\n    tag_120:\n        /* \"#utility.yul\":3900:3979   */\n      pop\n      jump\t// out\n\n    auxdata: 0xa26469706673582212206d070a5c35ece60fd13b1a2f6a6ab1d15f4765b52c3d9d36434624b09cdb871764736f6c63430008040033\n}\n",
				"bytecode": {
					"linkReferences": {},
					"object": "608060405234801561001057600080fd5b50610629806100206000396000f3fe60806040526004361061004a5760003560e01c80630dc6ad651461004f578063311959a71461007857806352fe2c52146100b5578063cf71c510146100f2578063e9ab4ccc14610130575b600080fd5b34801561005b57600080fd5b506100766004803603810190610071919061046c565b61014c565b005b34801561008457600080fd5b5061009f600480360381019061009a9190610443565b6101bb565b6040516100ac919061051c565b60405180910390f35b3480156100c157600080fd5b506100dc60048036038101906100d7919061041a565b610242565b6040516100e9919061051c565b60405180910390f35b3480156100fe57600080fd5b5061011960048036038101906101149190610443565b6102c9565b604051610127929190610537565b60405180910390f35b61014a6004803603810190610145919061046c565b610356565b005b8173ffffffffffffffffffffffffffffffffffffffff16634018d9aa826040518263ffffffff1660e01b8152600401610185919061051c565b600060405180830381600087803b15801561019f57600080fd5b505af11580156101b3573d6000803e3d6000fd5b505050505050565b60008173ffffffffffffffffffffffffffffffffffffffff16635197c7aa6040518163ffffffff1660e01b815260040160206040518083038186803b15801561020357600080fd5b505afa158015610217573d6000803e3d6000fd5b505050506040513d601f19601f8201168201806040525081019061023b91906104a8565b9050919050565b60008173ffffffffffffffffffffffffffffffffffffffff16635197c7aa6040518163ffffffff1660e01b815260040160206040518083038186803b15801561028a57600080fd5b505afa15801561029e573d6000803e3d6000fd5b505050506040513d601f19601f820116820180604052508101906102c291906104a8565b9050919050565b6000808273ffffffffffffffffffffffffffffffffffffffff16632b5d60866040518163ffffffff1660e01b8152600401604080518083038186803b15801561031157600080fd5b505afa158015610325573d6000803e3d6000fd5b505050506040513d601f19601f8201168201806040525081019061034991906104d1565b8092508193505050915091565b8173ffffffffffffffffffffffffffffffffffffffff1663c9c4e00f34836040518363ffffffff1660e01b8152600401610390919061051c565b6000604051808303818588803b1580156103a957600080fd5b505af11580156103bd573d6000803e3d6000fd5b50505050505050565b6000813590506103d5816105ae565b92915050565b6000813590506103ea816105c5565b92915050565b6000813590506103ff816105dc565b92915050565b600081519050610414816105dc565b92915050565b60006020828403121561042c57600080fd5b600061043a848285016103c6565b91505092915050565b60006020828403121561045557600080fd5b6000610463848285016103db565b91505092915050565b6000806040838503121561047f57600080fd5b600061048d858286016103db565b925050602061049e858286016103f0565b9150509250929050565b6000602082840312156104ba57600080fd5b60006104c884828501610405565b91505092915050565b600080604083850312156104e457600080fd5b60006104f285828601610405565b925050602061050385828601610405565b9150509250929050565b610516816105a4565b82525050565b6000602082019050610531600083018461050d565b92915050565b600060408201905061054c600083018561050d565b610559602083018461050d565b9392505050565b600061056b82610584565b9050919050565b600061057d82610560565b9050919050565b600073ffffffffffffffffffffffffffffffffffffffff82169050919050565b6000819050919050565b6105b781610560565b81146105c257600080fd5b50565b6105ce81610572565b81146105d957600080fd5b50565b6105e5816105a4565b81146105f057600080fd5b5056fea26469706673582212206d070a5c35ece60fd13b1a2f6a6ab1d15f4765b52c3d9d36434624b09cdb871764736f6c63430008040033",
					"opcodes": "PUSH1 0x80 PUSH1 0x40 MSTORE CALLVALUE DUP1 ISZERO PUSH2 0x10 JUMPI PUSH1 0x0 DUP1 REVERT JUMPDEST POP PUSH2 0x629 DUP1 PUSH2 0x20 PUSH1 0x0 CODECOPY PUSH1 0x0 RETURN INVALID PUSH1 0x80 PUSH1 0x40 MSTORE PUSH1 0x4 CALLDATASIZE LT PUSH2 0x4A JUMPI PUSH1 0x0 CALLDATALOAD PUSH1 0xE0 SHR DUP1 PUSH4 0xDC6AD65 EQ PUSH2 0x4F JUMPI DUP1 PUSH4 0x311959A7 EQ PUSH2 0x78 JUMPI DUP1 PUSH4 0x52FE2C52 EQ PUSH2 0xB5 JUMPI DUP1 PUSH4 0xCF71C510 EQ PUSH2 0xF2 JUMPI DUP1 PUSH4 0xE9AB4CCC EQ PUSH2 0x130 JUMPI JUMPDEST PUSH1 0x0 DUP1 REVERT JUMPDEST CALLVALUE DUP1 ISZERO PUSH2 0x5B JUMPI PUSH1 0x0 DUP1 REVERT JUMPDEST POP PUSH2 0x76 PUSH1 0x4 DUP1 CALLDATASIZE SUB DUP2 ADD SWAP1 PUSH2 0x71 SWAP2 SWAP1 PUSH2 0x46C JUMP JUMPDEST PUSH2 0x14C JUMP JUMPDEST STOP JUMPDEST CALLVALUE DUP1 ISZERO PUSH2 0x84 JUMPI PUSH1 0x0 DUP1 REVERT JUMPDEST POP PUSH2 0x9F PUSH1 0x4 DUP1 CALLDATASIZE SUB DUP2 ADD SWAP1 PUSH2 0x9A SWAP2 SWAP1 PUSH2 0x443 JUMP JUMPDEST PUSH2 0x1BB JUMP JUMPDEST PUSH1 0x40 MLOAD PUSH2 0xAC SWAP2 SWAP1 PUSH2 0x51C JUMP JUMPDEST PUSH1 0x40 MLOAD DUP1 SWAP2 SUB SWAP1 RETURN JUMPDEST CALLVALUE DUP1 ISZERO PUSH2 0xC1 JUMPI PUSH1 0x0 DUP1 REVERT JUMPDEST POP PUSH2 0xDC PUSH1 0x4 DUP1 CALLDATASIZE SUB DUP2 ADD SWAP1 PUSH2 0xD7 SWAP2 SWAP1 PUSH2 0x41A JUMP JUMPDEST PUSH2 0x242 JUMP JUMPDEST PUSH1 0x40 MLOAD PUSH2 0xE9 SWAP2 SWAP1 PUSH2 0x51C JUMP JUMPDEST PUSH1 0x40 MLOAD DUP1 SWAP2 SUB SWAP1 RETURN JUMPDEST CALLVALUE DUP1 ISZERO PUSH2 0xFE JUMPI PUSH1 0x0 DUP1 REVERT JUMPDEST POP PUSH2 0x119 PUSH1 0x4 DUP1 CALLDATASIZE SUB DUP2 ADD SWAP1 PUSH2 0x114 SWAP2 SWAP1 PUSH2 0x443 JUMP JUMPDEST PUSH2 0x2C9 JUMP JUMPDEST PUSH1 0x40 MLOAD PUSH2 0x127 SWAP3 SWAP2 SWAP1 PUSH2 0x537 JUMP JUMPDEST PUSH1 0x40 MLOAD DUP1 SWAP2 SUB SWAP1 RETURN JUMPDEST PUSH2 0x14A PUSH1 0x4 DUP1 CALLDATASIZE SUB DUP2 ADD SWAP1 PUSH2 0x145 SWAP2 SWAP1 PUSH2 0x46C JUMP JUMPDEST PUSH2 0x356 JUMP JUMPDEST STOP JUMPDEST DUP2 PUSH20 0xFFFFFFFFFFFFFFFFFFFFFFFFFFFFFFFFFFFFFFFF AND PUSH4 0x4018D9AA DUP3 PUSH1 0x40 MLOAD DUP3 PUSH4 0xFFFFFFFF AND PUSH1 0xE0 SHL DUP2 MSTORE PUSH1 0x4 ADD PUSH2 0x185 SWAP2 SWAP1 PUSH2 0x51C JUMP JUMPDEST PUSH1 0x0 PUSH1 0x40 MLOAD DUP1 DUP4 SUB DUP2 PUSH1 0x0 DUP8 DUP1 EXTCODESIZE ISZERO DUP1 ISZERO PUSH2 0x19F JUMPI PUSH1 0x0 DUP1 REVERT JUMPDEST POP GAS CALL ISZERO DUP1 ISZERO PUSH2 0x1B3 JUMPI RETURNDATASIZE PUSH1 0x0 DUP1 RETURNDATACOPY RETURNDATASIZE PUSH1 0x0 REVERT JUMPDEST POP POP POP POP POP POP JUMP JUMPDEST PUSH1 0x0 DUP2 PUSH20 0xFFFFFFFFFFFFFFFFFFFFFFFFFFFFFFFFFFFFFFFF AND PUSH4 0x5197C7AA PUSH1 0x40 MLOAD DUP2 PUSH4 0xFFFFFFFF AND PUSH1 0xE0 SHL DUP2 MSTORE PUSH1 0x4 ADD PUSH1 0x20 PUSH1 0x40 MLOAD DUP1 DUP4 SUB DUP2 DUP7 DUP1 EXTCODESIZE ISZERO DUP1 ISZERO PUSH2 0x203 JUMPI PUSH1 0x0 DUP1 REVERT JUMPDEST POP GAS STATICCALL ISZERO DUP1 ISZERO PUSH2 0x217 JUMPI RETURNDATASIZE PUSH1 0x0 DUP1 RETURNDATACOPY RETURNDATASIZE PUSH1 0x0 REVERT JUMPDEST POP POP POP POP PUSH1 0x40 MLOAD RETURNDATASIZE PUSH1 0x1F NOT PUSH1 0x1F DUP3 ADD AND DUP3 ADD DUP1 PUSH1 0x40 MSTORE POP DUP2 ADD SWAP1 PUSH2 0x23B SWAP2 SWAP1 PUSH2 0x4A8 JUMP JUMPDEST SWAP1 POP SWAP2 SWAP1 POP JUMP JUMPDEST PUSH1 0x0 DUP2 PUSH20 0xFFFFFFFFFFFFFFFFFFFFFFFFFFFFFFFFFFFFFFFF AND PUSH4 0x5197C7AA PUSH1 0x40 MLOAD DUP2 PUSH4 0xFFFFFFFF AND PUSH1 0xE0 SHL DUP2 MSTORE PUSH1 0x4 ADD PUSH1 0x20 PUSH1 0x40 MLOAD DUP1 DUP4 SUB DUP2 DUP7 DUP1 EXTCODESIZE ISZERO DUP1 ISZERO PUSH2 0x28A JUMPI PUSH1 0x0 DUP1 REVERT JUMPDEST POP GAS STATICCALL ISZERO DUP1 ISZERO PUSH2 0x29E JUMPI RETURNDATASIZE PUSH1 0x0 DUP1 RETURNDATACOPY RETURNDATASIZE PUSH1 0x0 REVERT JUMPDEST POP POP POP POP PUSH1 0x40 MLOAD RETURNDATASIZE PUSH1 0x1F NOT PUSH1 0x1F DUP3 ADD AND DUP3 ADD DUP1 PUSH1 0x40 MSTORE POP DUP2 ADD SWAP1 PUSH2 0x2C2 SWAP2 SWAP1 PUSH2 0x4A8 JUMP JUMPDEST SWAP1 POP SWAP2 SWAP1 POP JUMP JUMPDEST PUSH1 0x0 DUP1 DUP3 PUSH20 0xFFFFFFFFFFFFFFFFFFFFFFFFFFFFFFFFFFFFFFFF AND PUSH4 0x2B5D6086 PUSH1 0x40 MLOAD DUP2 PUSH4 0xFFFFFFFF AND PUSH1 0xE0 SHL DUP2 MSTORE PUSH1 0x4 ADD PUSH1 0x40 DUP1 MLOAD DUP1 DUP4 SUB DUP2 DUP7 DUP1 EXTCODESIZE ISZERO DUP1 ISZERO PUSH2 0x311 JUMPI PUSH1 0x0 DUP1 REVERT JUMPDEST POP GAS STATICCALL ISZERO DUP1 ISZERO PUSH2 0x325 JUMPI RETURNDATASIZE PUSH1 0x0 DUP1 RETURNDATACOPY RETURNDATASIZE PUSH1 0x0 REVERT JUMPDEST POP POP POP POP PUSH1 0x40 MLOAD RETURNDATASIZE PUSH1 0x1F NOT PUSH1 0x1F DUP3 ADD AND DUP3 ADD DUP1 PUSH1 0x40 MSTORE POP DUP2 ADD SWAP1 PUSH2 0x349 SWAP2 SWAP1 PUSH2 0x4D1 JUMP JUMPDEST DUP1 SWAP3 POP DUP2 SWAP4 POP POP POP SWAP2 POP SWAP2 JUMP JUMPDEST DUP2 PUSH20 0xFFFFFFFFFFFFFFFFFFFFFFFFFFFFFFFFFFFFFFFF AND PUSH4 0xC9C4E00F CALLVALUE DUP4 PUSH1 0x40 MLOAD DUP4 PUSH4 0xFFFFFFFF AND PUSH1 0xE0 SHL DUP2 MSTORE PUSH1 0x4 ADD PUSH2 0x390 SWAP2 SWAP1 PUSH2 0x51C JUMP JUMPDEST PUSH1 0x0 PUSH1 0x40 MLOAD DUP1 DUP4 SUB DUP2 DUP6 DUP9 DUP1 EXTCODESIZE ISZERO DUP1 ISZERO PUSH2 0x3A9 JUMPI PUSH1 0x0 DUP1 REVERT JUMPDEST POP GAS CALL ISZERO DUP1 ISZERO PUSH2 0x3BD JUMPI RETURNDATASIZE PUSH1 0x0 DUP1 RETURNDATACOPY RETURNDATASIZE PUSH1 0x0 REVERT JUMPDEST POP POP POP POP POP POP POP JUMP JUMPDEST PUSH1 0x0 DUP2 CALLDATALOAD SWAP1 POP PUSH2 0x3D5 DUP2 PUSH2 0x5AE JUMP JUMPDEST SWAP3 SWAP2 POP POP JUMP JUMPDEST PUSH1 0x0 DUP2 CALLDATALOAD SWAP1 POP PUSH2 0x3EA DUP2 PUSH2 0x5C5 JUMP JUMPDEST SWAP3 SWAP2 POP POP JUMP JUMPDEST PUSH1 0x0 DUP2 CALLDATALOAD SWAP1 POP PUSH2 0x3FF DUP2 PUSH2 0x5DC JUMP JUMPDEST SWAP3 SWAP2 POP POP JUMP JUMPDEST PUSH1 0x0 DUP2 MLOAD SWAP1 POP PUSH2 0x414 DUP2 PUSH2 0x5DC JUMP JUMPDEST SWAP3 SWAP2 POP POP JUMP JUMPDEST PUSH1 0x0 PUSH1 0x20 DUP3 DUP5 SUB SLT ISZERO PUSH2 0x42C JUMPI PUSH1 0x0 DUP1 REVERT JUMPDEST PUSH1 0x0 PUSH2 0x43A DUP5 DUP3 DUP6 ADD PUSH2 0x3C6 JUMP JUMPDEST SWAP2 POP POP SWAP3 SWAP2 POP POP JUMP JUMPDEST PUSH1 0x0 PUSH1 0x20 DUP3 DUP5 SUB SLT ISZERO PUSH2 0x455 JUMPI PUSH1 0x0 DUP1 REVERT JUMPDEST PUSH1 0x0 PUSH2 0x463 DUP5 DUP3 DUP6 ADD PUSH2 0x3DB JUMP JUMPDEST SWAP2 POP POP SWAP3 SWAP2 POP POP JUMP JUMPDEST PUSH1 0x0 DUP1 PUSH1 0x40 DUP4 DUP6 SUB SLT ISZERO PUSH2 0x47F JUMPI PUSH1 0x0 DUP1 REVERT JUMPDEST PUSH1 0x0 PUSH2 0x48D DUP6 DUP3 DUP7 ADD PUSH2 0x3DB JUMP JUMPDEST SWAP3 POP POP PUSH1 0x20 PUSH2 0x49E DUP6 DUP3 DUP7 ADD PUSH2 0x3F0 JUMP JUMPDEST SWAP2 POP POP SWAP3 POP SWAP3 SWAP1 POP JUMP JUMPDEST PUSH1 0x0 PUSH1 0x20 DUP3 DUP5 SUB SLT ISZERO PUSH2 0x4BA JUMPI PUSH1 0x0 DUP1 REVERT JUMPDEST PUSH1 0x0 PUSH2 0x4C8 DUP5 DUP3 DUP6 ADD PUSH2 0x405 JUMP JUMPDEST SWAP2 POP POP SWAP3 SWAP2 POP POP JUMP JUMPDEST PUSH1 0x0 DUP1 PUSH1 0x40 DUP4 DUP6 SUB SLT ISZERO PUSH2 0x4E4 JUMPI PUSH1 0x0 DUP1 REVERT JUMPDEST PUSH1 0x0 PUSH2 0x4F2 DUP6 DUP3 DUP7 ADD PUSH2 0x405 JUMP JUMPDEST SWAP3 POP POP PUSH1 0x20 PUSH2 0x503 DUP6 DUP3 DUP7 ADD PUSH2 0x405 JUMP JUMPDEST SWAP2 POP POP SWAP3 POP SWAP3 SWAP1 POP JUMP JUMPDEST PUSH2 0x516 DUP2 PUSH2 0x5A4 JUMP JUMPDEST DUP3 MSTORE POP POP JUMP JUMPDEST PUSH1 0x0 PUSH1 0x20 DUP3 ADD SWAP1 POP PUSH2 0x531 PUSH1 0x0 DUP4 ADD DUP5 PUSH2 0x50D JUMP JUMPDEST SWAP3 SWAP2 POP POP JUMP JUMPDEST PUSH1 0x0 PUSH1 0x40 DUP3 ADD SWAP1 POP PUSH2 0x54C PUSH1 0x0 DUP4 ADD DUP6 PUSH2 0x50D JUMP JUMPDEST PUSH2 0x559 PUSH1 0x20 DUP4 ADD DUP5 PUSH2 0x50D JUMP JUMPDEST SWAP4 SWAP3 POP POP POP JUMP JUMPDEST PUSH1 0x0 PUSH2 0x56B DUP3 PUSH2 0x584 JUMP JUMPDEST SWAP1 POP SWAP2 SWAP1 POP JUMP JUMPDEST PUSH1 0x0 PUSH2 0x57D DUP3 PUSH2 0x560 JUMP JUMPDEST SWAP1 POP SWAP2 SWAP1 POP JUMP JUMPDEST PUSH1 0x0 PUSH20 0xFFFFFFFFFFFFFFFFFFFFFFFFFFFFFFFFFFFFFFFF DUP3 AND SWAP1 POP SWAP2 SWAP1 POP JUMP JUMPDEST PUSH1 0x0 DUP2 SWAP1 POP SWAP2 SWAP1 POP JUMP JUMPDEST PUSH2 0x5B7 DUP2 PUSH2 0x560 JUMP JUMPDEST DUP2 EQ PUSH2 0x5C2 JUMPI PUSH1 0x0 DUP1 REVERT JUMPDEST POP JUMP JUMPDEST PUSH2 0x5CE DUP2 PUSH2 0x572 JUMP JUMPDEST DUP2 EQ PUSH2 0x5D9 JUMPI PUSH1 0x0 DUP1 REVERT JUMPDEST POP JUMP JUMPDEST PUSH2 0x5E5 DUP2 PUSH2 0x5A4 JUMP JUMPDEST DUP2 EQ PUSH2 0x5F0 JUMPI PUSH1 0x0 DUP1 REVERT JUMPDEST POP JUMP INVALID LOG2 PUSH5 0x6970667358 0x22 SLT KECCAK256 PUSH14 0x70A5C35ECE60FD13B1A2F6A6AB1 0xD1 0x5F SELFBALANCE PUSH6 0xB52C3D9D3643 CHAINID 0x24 0xB0 SWAP13 0xDB DUP8 OR PUSH5 0x736F6C6343 STOP ADDMOD DIV STOP CALLER "
				},
				"gasEstimates": {
					"creation": {
						"codeDepositCost": "315400",
						"executionCost": "355",
						"totalCost": "315755"
					},
					"external": {
						"getTargetX(address)": "infinite",
						"getTargetX2(address)": "infinite",
						"getXAndValueFromTarget(address)": "infinite",
						"setTargetX(address,uint256)": "infinite",
						"setXWithEther(address,uint256)": "infinite"
					}
				},
				"methodIdentifiers": {
					"getTargetX(address)": "311959a7",
					"getTargetX2(address)": "52fe2c52",
					"getXAndValueFromTarget(address)": "cf71c510",
					"setTargetX(address,uint256)": "0dc6ad65",
					"setXWithEther(address,uint256)": "e9ab4ccc"
				}
			},
			"storageLayout": {
				"storage": [],
				"types": null
			},
			"userdoc": {
				"kind": "user",
				"methods": {},
				"version": 1
			}
		}
	}
}