{
	"contracts/base/ERC20Test.sol": {
		"ERC20Impl2": {
			"abi": [
				{
					"anonymous": false,
					"inputs": [
						{
							"indexed": true,
							"internalType": "address",
							"name": "owner",
							"type": "address"
						},
						{
							"indexed": true,
							"internalType": "address",
							"name": "spender",
							"type": "address"
						},
						{
							"indexed": false,
							"internalType": "uint256",
							"name": "value",
							"type": "uint256"
						}
					],
					"name": "Approval",
					"type": "event"
				},
				{
					"anonymous": false,
					"inputs": [
						{
							"indexed": true,
							"internalType": "address",
							"name": "from",
							"type": "address"
						},
						{
							"indexed": true,
							"internalType": "address",
							"name": "to",
							"type": "address"
						},
						{
							"indexed": false,
							"internalType": "uint256",
							"name": "value",
							"type": "uint256"
						}
					],
					"name": "Transfer",
					"type": "event"
				},
				{
					"inputs": [
						{
							"internalType": "address",
							"name": "",
							"type": "address"
						},
						{
							"internalType": "address",
							"name": "",
							"type": "address"
						}
					],
					"name": "allowance",
					"outputs": [
						{
							"internalType": "uint256",
							"name": "",
							"type": "uint256"
						}
					],
					"stateMutability": "view",
					"type": "function"
				},
				{
					"inputs": [
						{
							"internalType": "address",
							"name": "spender",
							"type": "address"
						},
						{
							"internalType": "uint256",
							"name": "amount",
							"type": "uint256"
						}
					],
					"name": "approve",
					"outputs": [
						{
							"internalType": "bool",
							"name": "",
							"type": "bool"
						}
					],
					"stateMutability": "nonpayable",
					"type": "function"
				},
				{
					"inputs": [
						{
							"internalType": "address",
							"name": "",
							"type": "address"
						}
					],
					"name": "balanceOf",
					"outputs": [
						{
							"internalType": "uint256",
							"name": "",
							"type": "uint256"
						}
					],
					"stateMutability": "view",
					"type": "function"
				},
				{
					"inputs": [
						{
							"internalType": "uint256",
							"name": "amount",
							"type": "uint256"
						}
					],
					"name": "burn",
					"outputs": [],
					"stateMutability": "nonpayable",
					"type": "function"
				},
				{
					"inputs": [
						{
							"internalType": "uint256",
							"name": "amount",
							"type": "uint256"
						}
					],
					"name": "mint",
					"outputs": [],
					"stateMutability": "nonpayable",
					"type": "function"
				},
				{
					"inputs": [],
					"name": "totalSupply",
					"outputs": [
						{
							"internalType": "uint256",
							"name": "",
							"type": "uint256"
						}
					],
					"stateMutability": "view",
					"type": "function"
				},
				{
					"inputs": [
						{
							"internalType": "address",
							"name": "recipient",
							"type": "address"
						},
						{
							"internalType": "uint256",
							"name": "amount",
							"type": "uint256"
						}
					],
					"name": "transfer",
					"outputs": [
						{
							"internalType": "bool",
							"name": "",
							"type": "bool"
						}
					],
					"stateMutability": "nonpayable",
					"type": "function"
				},
				{
					"inputs": [
						{
							"internalType": "address",
							"name": "sender",
							"type": "address"
						},
						{
							"internalType": "address",
							"name": "recipient",
							"type": "address"
						},
						{
							"internalType": "uint256",
							"name": "amount",
							"type": "uint256"
						}
					],
					"name": "transferFrom",
					"outputs": [
						{
							"internalType": "bool",
							"name": "",
							"type": "bool"
						}
					],
					"stateMutability": "nonpayable",
					"type": "function"
				}
			],
			"devdoc": {
				"kind": "dev",
				"methods": {
					"approve(address,uint256)": {
						"details": "调⽤者账⼾给spender账⼾授权 amount数量代币。 如果成功，返回 true. 释放 {Approval} 事件."
					},
					"transfer(address,uint256)": {
						"details": "转账 amount 单位代币，从调⽤者账⼾到另⼀账⼾ to. 如果成功，返回 true. 释放 {Transfer} 事件."
					},
					"transferFrom(address,address,uint256)": {
						"details": "通过授权机制，从from账⼾向to账⼾转账amount数量代币。转账的部分会从调⽤者的 allowance中扣除。 如果成功，返回 true. 释放 {Transfer} 事件."
					}
				},
				"stateVariables": {
					"allowance": {
						"details": "返回owner账⼾授权给spender账⼾的额度，默认为0。 当{approve} 或 {transferFrom} 被调⽤时，allowance会改变."
					},
					"balanceOf": {
						"details": "返回账⼾account所持有的代币数."
					},
					"totalSupply": {
						"details": "返回代币总供给."
					}
				},
				"version": 1
			},
			"evm": {
				"assembly": "    /* \"contracts/base/ERC20Test.sol\":1816:4588  contract ERC20Impl2 is IERC20 {... */\n  mstore(0x40, 0x80)\n  callvalue\n  dup1\n  iszero\n  tag_1\n  jumpi\n  revert(0x00, 0x00)\ntag_1:\n  pop\n  dataSize(sub_0)\n  dup1\n  dataOffset(sub_0)\n  0x00\n  codecopy\n  0x00\n  return\nstop\n\nsub_0: assembly {\n        /* \"contracts/base/ERC20Test.sol\":1816:4588  contract ERC20Impl2 is IERC20 {... */\n      mstore(0x40, 0x80)\n      callvalue\n      dup1\n      iszero\n      tag_1\n      jumpi\n      revert(0x00, 0x00)\n    tag_1:\n      pop\n      jumpi(tag_2, lt(calldatasize, 0x04))\n      shr(0xe0, calldataload(0x00))\n      dup1\n      0x70a08231\n      gt\n      tag_11\n      jumpi\n      dup1\n      0x70a08231\n      eq\n      tag_7\n      jumpi\n      dup1\n      0xa0712d68\n      eq\n      tag_8\n      jumpi\n      dup1\n      0xa9059cbb\n      eq\n      tag_9\n      jumpi\n      dup1\n      0xdd62ed3e\n      eq\n      tag_10\n      jumpi\n      jump(tag_2)\n    tag_11:\n      dup1\n      0x095ea7b3\n      eq\n      tag_3\n      jumpi\n      dup1\n      0x18160ddd\n      eq\n      tag_4\n      jumpi\n      dup1\n      0x23b872dd\n      eq\n      tag_5\n      jumpi\n      dup1\n      0x42966c68\n      eq\n      tag_6\n      jumpi\n    tag_2:\n      revert(0x00, 0x00)\n        /* \"contracts/base/ERC20Test.sol\":3124:3383  function approve(address spender, uint256 amount) checkAmountEnough(amount) override external returns (bool){... */\n    tag_3:\n      tag_12\n      0x04\n      dup1\n      calldatasize\n      sub\n      dup2\n      add\n      swap1\n      tag_13\n      swap2\n      swap1\n      tag_14\n      jump\t// in\n    tag_13:\n      tag_15\n      jump\t// in\n    tag_12:\n      mload(0x40)\n      tag_16\n      swap2\n      swap1\n      tag_17\n      jump\t// in\n    tag_16:\n      mload(0x40)\n      dup1\n      swap2\n      sub\n      swap1\n      return\n        /* \"contracts/base/ERC20Test.sol\":1884:1920  uint256 public override  totalSupply */\n    tag_4:\n      tag_18\n      tag_19\n      jump\t// in\n    tag_18:\n      mload(0x40)\n      tag_20\n      swap2\n      swap1\n      tag_21\n      jump\t// in\n    tag_20:\n      mload(0x40)\n      dup1\n      swap2\n      sub\n      swap1\n      return\n        /* \"contracts/base/ERC20Test.sol\":3677:4177  function transferFrom(address sender, address recipient, uint256 amount) override external returns (bool){... */\n    tag_5:\n      tag_22\n      0x04\n      dup1\n      calldatasize\n      sub\n      dup2\n      add\n      swap1\n      tag_23\n      swap2\n      swap1\n      tag_24\n      jump\t// in\n    tag_23:\n      tag_25\n      jump\t// in\n    tag_22:\n      mload(0x40)\n      tag_26\n      swap2\n      swap1\n      tag_17\n      jump\t// in\n    tag_26:\n      mload(0x40)\n      dup1\n      swap2\n      sub\n      swap1\n      return\n        /* \"contracts/base/ERC20Test.sol\":4395:4585  function burn(uint amount) external {... */\n    tag_6:\n      tag_27\n      0x04\n      dup1\n      calldatasize\n      sub\n      dup2\n      add\n      swap1\n      tag_28\n      swap2\n      swap1\n      tag_29\n      jump\t// in\n    tag_28:\n      tag_30\n      jump\t// in\n    tag_27:\n      stop\n        /* \"contracts/base/ERC20Test.sol\":1972:2025  mapping(address => uint256) public override balanceOf */\n    tag_7:\n      tag_31\n      0x04\n      dup1\n      calldatasize\n      sub\n      dup2\n      add\n      swap1\n      tag_32\n      swap2\n      swap1\n      tag_33\n      jump\t// in\n    tag_32:\n      tag_34\n      jump\t// in\n    tag_31:\n      mload(0x40)\n      tag_35\n      swap2\n      swap1\n      tag_21\n      jump\t// in\n    tag_35:\n      mload(0x40)\n      dup1\n      swap2\n      sub\n      swap1\n      return\n        /* \"contracts/base/ERC20Test.sol\":4191:4381  function mint(uint amount) external {... */\n    tag_8:\n      tag_36\n      0x04\n      dup1\n      calldatasize\n      sub\n      dup2\n      add\n      swap1\n      tag_37\n      swap2\n      swap1\n      tag_29\n      jump\t// in\n    tag_37:\n      tag_38\n      jump\t// in\n    tag_36:\n      stop\n        /* \"contracts/base/ERC20Test.sol\":2556:2903  function transfer(address recipient, uint256 amount) checkAmountEnough(amount) override external returns(bool){... */\n    tag_9:\n      tag_39\n      0x04\n      dup1\n      calldatasize\n      sub\n      dup2\n      add\n      swap1\n      tag_40\n      swap2\n      swap1\n      tag_14\n      jump\t// in\n    tag_40:\n      tag_41\n      jump\t// in\n    tag_39:\n      mload(0x40)\n      tag_42\n      swap2\n      swap1\n      tag_17\n      jump\t// in\n    tag_42:\n      mload(0x40)\n      dup1\n      swap2\n      sub\n      swap1\n      return\n        /* \"contracts/base/ERC20Test.sol\":2090:2164  mapping(address => mapping(address => uint256)) public override  allowance */\n    tag_10:\n      tag_43\n      0x04\n      dup1\n      calldatasize\n      sub\n      dup2\n      add\n      swap1\n      tag_44\n      swap2\n      swap1\n      tag_45\n      jump\t// in\n    tag_44:\n      tag_46\n      jump\t// in\n    tag_43:\n      mload(0x40)\n      tag_47\n      swap2\n      swap1\n      tag_21\n      jump\t// in\n    tag_47:\n      mload(0x40)\n      dup1\n      swap2\n      sub\n      swap1\n      return\n        /* \"contracts/base/ERC20Test.sol\":3124:3383  function approve(address spender, uint256 amount) checkAmountEnough(amount) override external returns (bool){... */\n    tag_15:\n        /* \"contracts/base/ERC20Test.sol\":3227:3231  bool */\n      0x00\n        /* \"contracts/base/ERC20Test.sol\":3192:3198  amount */\n      dup2\n        /* \"contracts/base/ERC20Test.sol\":2277:2283  amount */\n      dup1\n        /* \"contracts/base/ERC20Test.sol\":2252:2261  balanceOf */\n      0x01\n        /* \"contracts/base/ERC20Test.sol\":2252:2273  balanceOf[msg.sender] */\n      0x00\n        /* \"contracts/base/ERC20Test.sol\":2262:2272  msg.sender */\n      caller\n        /* \"contracts/base/ERC20Test.sol\":2252:2273  balanceOf[msg.sender] */\n      0xffffffffffffffffffffffffffffffffffffffff\n      and\n      0xffffffffffffffffffffffffffffffffffffffff\n      and\n      dup2\n      mstore\n      0x20\n      add\n      swap1\n      dup2\n      mstore\n      0x20\n      add\n      0x00\n      keccak256\n      sload\n        /* \"contracts/base/ERC20Test.sol\":2252:2283  balanceOf[msg.sender] >= amount */\n      lt\n      iszero\n        /* \"contracts/base/ERC20Test.sol\":2244:2308  require(balanceOf[msg.sender] >= amount, \"amount is not enough\") */\n      tag_49\n      jumpi\n      mload(0x40)\n      0x08c379a000000000000000000000000000000000000000000000000000000000\n      dup2\n      mstore\n      0x04\n      add\n      tag_50\n      swap1\n      tag_51\n      jump\t// in\n    tag_50:\n      mload(0x40)\n      dup1\n      swap2\n      sub\n      swap1\n      revert\n    tag_49:\n        /* \"contracts/base/ERC20Test.sol\":3280:3286  amount */\n      dup3\n        /* \"contracts/base/ERC20Test.sol\":3247:3256  allowance */\n      0x02\n        /* \"contracts/base/ERC20Test.sol\":3247:3268  allowance[msg.sender] */\n      0x00\n        /* \"contracts/base/ERC20Test.sol\":3257:3267  msg.sender */\n      caller\n        /* \"contracts/base/ERC20Test.sol\":3247:3268  allowance[msg.sender] */\n      0xffffffffffffffffffffffffffffffffffffffff\n      and\n      0xffffffffffffffffffffffffffffffffffffffff\n      and\n      dup2\n      mstore\n      0x20\n      add\n      swap1\n      dup2\n      mstore\n      0x20\n      add\n      0x00\n      keccak256\n        /* \"contracts/base/ERC20Test.sol\":3247:3277  allowance[msg.sender][spender] */\n      0x00\n        /* \"contracts/base/ERC20Test.sol\":3269:3276  spender */\n      dup7\n        /* \"contracts/base/ERC20Test.sol\":3247:3277  allowance[msg.sender][spender] */\n      0xffffffffffffffffffffffffffffffffffffffff\n      and\n      0xffffffffffffffffffffffffffffffffffffffff\n      and\n      dup2\n      mstore\n      0x20\n      add\n      swap1\n      dup2\n      mstore\n      0x20\n      add\n      0x00\n      keccak256\n        /* \"contracts/base/ERC20Test.sol\":3247:3286  allowance[msg.sender][spender] = amount */\n      dup2\n      swap1\n      sstore\n      pop\n        /* \"contracts/base/ERC20Test.sol\":3329:3336  spender */\n      dup4\n        /* \"contracts/base/ERC20Test.sol\":3307:3345  Approval(msg.sender,  spender, amount) */\n      0xffffffffffffffffffffffffffffffffffffffff\n      and\n        /* \"contracts/base/ERC20Test.sol\":3316:3326  msg.sender */\n      caller\n        /* \"contracts/base/ERC20Test.sol\":3307:3345  Approval(msg.sender,  spender, amount) */\n      0xffffffffffffffffffffffffffffffffffffffff\n      and\n      0x8c5be1e5ebec7d5bd14f71427d1e84f3dd0314c0f7b2291e5b200ac8c7c3b925\n        /* \"contracts/base/ERC20Test.sol\":3338:3344  amount */\n      dup6\n        /* \"contracts/base/ERC20Test.sol\":3307:3345  Approval(msg.sender,  spender, amount) */\n      mload(0x40)\n      tag_53\n      swap2\n      swap1\n      tag_21\n      jump\t// in\n    tag_53:\n      mload(0x40)\n      dup1\n      swap2\n      sub\n      swap1\n      log3\n        /* \"contracts/base/ERC20Test.sol\":3367:3371  true */\n      0x01\n        /* \"contracts/base/ERC20Test.sol\":3360:3371  return true */\n      swap2\n      pop\n        /* \"contracts/base/ERC20Test.sol\":3124:3383  function approve(address spender, uint256 amount) checkAmountEnough(amount) override external returns (bool){... */\n      pop\n      swap3\n      swap2\n      pop\n      pop\n      jump\t// out\n        /* \"contracts/base/ERC20Test.sol\":1884:1920  uint256 public override  totalSupply */\n    tag_19:\n      sload(0x00)\n      dup2\n      jump\t// out\n        /* \"contracts/base/ERC20Test.sol\":3677:4177  function transferFrom(address sender, address recipient, uint256 amount) override external returns (bool){... */\n    tag_25:\n        /* \"contracts/base/ERC20Test.sol\":3777:3781  bool */\n      0x00\n        /* \"contracts/base/ERC20Test.sol\":3838:3844  amount */\n      dup2\n        /* \"contracts/base/ERC20Test.sol\":3805:3814  allowance */\n      0x02\n        /* \"contracts/base/ERC20Test.sol\":3805:3822  allowance[sender] */\n      0x00\n        /* \"contracts/base/ERC20Test.sol\":3815:3821  sender */\n      dup7\n        /* \"contracts/base/ERC20Test.sol\":3805:3822  allowance[sender] */\n      0xffffffffffffffffffffffffffffffffffffffff\n      and\n      0xffffffffffffffffffffffffffffffffffffffff\n      and\n      dup2\n      mstore\n      0x20\n      add\n      swap1\n      dup2\n      mstore\n      0x20\n      add\n      0x00\n      keccak256\n        /* \"contracts/base/ERC20Test.sol\":3805:3834  allowance[sender][msg.sender] */\n      0x00\n        /* \"contracts/base/ERC20Test.sol\":3823:3833  msg.sender */\n      caller\n        /* \"contracts/base/ERC20Test.sol\":3805:3834  allowance[sender][msg.sender] */\n      0xffffffffffffffffffffffffffffffffffffffff\n      and\n      0xffffffffffffffffffffffffffffffffffffffff\n      and\n      dup2\n      mstore\n      0x20\n      add\n      swap1\n      dup2\n      mstore\n      0x20\n      add\n      0x00\n      keccak256\n      sload\n        /* \"contracts/base/ERC20Test.sol\":3805:3844  allowance[sender][msg.sender] >= amount */\n      lt\n      iszero\n        /* \"contracts/base/ERC20Test.sol\":3797:3869  require(allowance[sender][msg.sender] >= amount, \"amount is not enough\") */\n      tag_55\n      jumpi\n      mload(0x40)\n      0x08c379a000000000000000000000000000000000000000000000000000000000\n      dup2\n      mstore\n      0x04\n      add\n      tag_56\n      swap1\n      tag_51\n      jump\t// in\n    tag_56:\n      mload(0x40)\n      dup1\n      swap2\n      sub\n      swap1\n      revert\n    tag_55:\n        /* \"contracts/base/ERC20Test.sol\":3913:3919  amount */\n      dup2\n        /* \"contracts/base/ERC20Test.sol\":3892:3901  balanceOf */\n      0x01\n        /* \"contracts/base/ERC20Test.sol\":3892:3909  balanceOf[sender] */\n      0x00\n        /* \"contracts/base/ERC20Test.sol\":3902:3908  sender */\n      dup7\n        /* \"contracts/base/ERC20Test.sol\":3892:3909  balanceOf[sender] */\n      0xffffffffffffffffffffffffffffffffffffffff\n      and\n      0xffffffffffffffffffffffffffffffffffffffff\n      and\n      dup2\n      mstore\n      0x20\n      add\n      swap1\n      dup2\n      mstore\n      0x20\n      add\n      0x00\n      keccak256\n      sload\n        /* \"contracts/base/ERC20Test.sol\":3892:3919  balanceOf[sender] >= amount */\n      lt\n      iszero\n        /* \"contracts/base/ERC20Test.sol\":3884:3944  require(balanceOf[sender] >= amount, \"amount is not enough\") */\n      tag_57\n      jumpi\n      mload(0x40)\n      0x08c379a000000000000000000000000000000000000000000000000000000000\n      dup2\n      mstore\n      0x04\n      add\n      tag_58\n      swap1\n      tag_51\n      jump\t// in\n    tag_58:\n      mload(0x40)\n      dup1\n      swap2\n      sub\n      swap1\n      revert\n    tag_57:\n        /* \"contracts/base/ERC20Test.sol\":3992:3998  amount */\n      dup2\n        /* \"contracts/base/ERC20Test.sol\":3959:3968  allowance */\n      0x02\n        /* \"contracts/base/ERC20Test.sol\":3959:3976  allowance[sender] */\n      0x00\n        /* \"contracts/base/ERC20Test.sol\":3969:3975  sender */\n      dup7\n        /* \"contracts/base/ERC20Test.sol\":3959:3976  allowance[sender] */\n      0xffffffffffffffffffffffffffffffffffffffff\n      and\n      0xffffffffffffffffffffffffffffffffffffffff\n      and\n      dup2\n      mstore\n      0x20\n      add\n      swap1\n      dup2\n      mstore\n      0x20\n      add\n      0x00\n      keccak256\n        /* \"contracts/base/ERC20Test.sol\":3959:3988  allowance[sender][msg.sender] */\n      0x00\n        /* \"contracts/base/ERC20Test.sol\":3977:3987  msg.sender */\n      caller\n        /* \"contracts/base/ERC20Test.sol\":3959:3988  allowance[sender][msg.sender] */\n      0xffffffffffffffffffffffffffffffffffffffff\n      and\n      0xffffffffffffffffffffffffffffffffffffffff\n      and\n      dup2\n      mstore\n      0x20\n      add\n      swap1\n      dup2\n      mstore\n      0x20\n      add\n      0x00\n      keccak256\n      0x00\n        /* \"contracts/base/ERC20Test.sol\":3959:3998  allowance[sender][msg.sender] -= amount */\n      dup3\n      dup3\n      sload\n      tag_59\n      swap2\n      swap1\n      tag_60\n      jump\t// in\n    tag_59:\n      swap3\n      pop\n      pop\n      dup2\n      swap1\n      sstore\n      pop\n        /* \"contracts/base/ERC20Test.sol\":4033:4039  amount */\n      dup2\n        /* \"contracts/base/ERC20Test.sol\":4013:4022  balanceOf */\n      0x01\n        /* \"contracts/base/ERC20Test.sol\":4013:4030  balanceOf[sender] */\n      0x00\n        /* \"contracts/base/ERC20Test.sol\":4023:4029  sender */\n      dup7\n        /* \"contracts/base/ERC20Test.sol\":4013:4030  balanceOf[sender] */\n      0xffffffffffffffffffffffffffffffffffffffff\n      and\n      0xffffffffffffffffffffffffffffffffffffffff\n      and\n      dup2\n      mstore\n      0x20\n      add\n      swap1\n      dup2\n      mstore\n      0x20\n      add\n      0x00\n      keccak256\n      0x00\n        /* \"contracts/base/ERC20Test.sol\":4013:4039  balanceOf[sender] -=amount */\n      dup3\n      dup3\n      sload\n      tag_61\n      swap2\n      swap1\n      tag_60\n      jump\t// in\n    tag_61:\n      swap3\n      pop\n      pop\n      dup2\n      swap1\n      sstore\n      pop\n        /* \"contracts/base/ERC20Test.sol\":4077:4083  amount */\n      dup2\n        /* \"contracts/base/ERC20Test.sol\":4054:4063  balanceOf */\n      0x01\n        /* \"contracts/base/ERC20Test.sol\":4054:4074  balanceOf[recipient] */\n      0x00\n        /* \"contracts/base/ERC20Test.sol\":4064:4073  recipient */\n      dup6\n        /* \"contracts/base/ERC20Test.sol\":4054:4074  balanceOf[recipient] */\n      0xffffffffffffffffffffffffffffffffffffffff\n      and\n      0xffffffffffffffffffffffffffffffffffffffff\n      and\n      dup2\n      mstore\n      0x20\n      add\n      swap1\n      dup2\n      mstore\n      0x20\n      add\n      0x00\n      keccak256\n      0x00\n        /* \"contracts/base/ERC20Test.sol\":4054:4083  balanceOf[recipient] +=amount */\n      dup3\n      dup3\n      sload\n      tag_62\n      swap2\n      swap1\n      tag_63\n      jump\t// in\n    tag_62:\n      swap3\n      pop\n      pop\n      dup2\n      swap1\n      sstore\n      pop\n        /* \"contracts/base/ERC20Test.sol\":4121:4130  recipient */\n      dup3\n        /* \"contracts/base/ERC20Test.sol\":4103:4139  Transfer(sender,  recipient, amount) */\n      0xffffffffffffffffffffffffffffffffffffffff\n      and\n        /* \"contracts/base/ERC20Test.sol\":4112:4118  sender */\n      dup5\n        /* \"contracts/base/ERC20Test.sol\":4103:4139  Transfer(sender,  recipient, amount) */\n      0xffffffffffffffffffffffffffffffffffffffff\n      and\n      0xddf252ad1be2c89b69c2b068fc378daa952ba7f163c4a11628f55a4df523b3ef\n        /* \"contracts/base/ERC20Test.sol\":4132:4138  amount */\n      dup5\n        /* \"contracts/base/ERC20Test.sol\":4103:4139  Transfer(sender,  recipient, amount) */\n      mload(0x40)\n      tag_64\n      swap2\n      swap1\n      tag_21\n      jump\t// in\n    tag_64:\n      mload(0x40)\n      dup1\n      swap2\n      sub\n      swap1\n      log3\n        /* \"contracts/base/ERC20Test.sol\":4161:4165  true */\n      0x01\n        /* \"contracts/base/ERC20Test.sol\":4154:4165  return true */\n      swap1\n      pop\n        /* \"contracts/base/ERC20Test.sol\":3677:4177  function transferFrom(address sender, address recipient, uint256 amount) override external returns (bool){... */\n      swap4\n      swap3\n      pop\n      pop\n      pop\n      jump\t// out\n        /* \"contracts/base/ERC20Test.sol\":4395:4585  function burn(uint amount) external {... */\n    tag_30:\n        /* \"contracts/base/ERC20Test.sol\":4471:4477  amount */\n      dup1\n        /* \"contracts/base/ERC20Test.sol\":4446:4455  balanceOf */\n      0x01\n        /* \"contracts/base/ERC20Test.sol\":4446:4467  balanceOf[msg.sender] */\n      0x00\n        /* \"contracts/base/ERC20Test.sol\":4456:4466  msg.sender */\n      caller\n        /* \"contracts/base/ERC20Test.sol\":4446:4467  balanceOf[msg.sender] */\n      0xffffffffffffffffffffffffffffffffffffffff\n      and\n      0xffffffffffffffffffffffffffffffffffffffff\n      and\n      dup2\n      mstore\n      0x20\n      add\n      swap1\n      dup2\n      mstore\n      0x20\n      add\n      0x00\n      keccak256\n      0x00\n        /* \"contracts/base/ERC20Test.sol\":4446:4477  balanceOf[msg.sender] -= amount */\n      dup3\n      dup3\n      sload\n      tag_66\n      swap2\n      swap1\n      tag_60\n      jump\t// in\n    tag_66:\n      swap3\n      pop\n      pop\n      dup2\n      swap1\n      sstore\n      pop\n        /* \"contracts/base/ERC20Test.sol\":4507:4513  amount */\n      dup1\n        /* \"contracts/base/ERC20Test.sol\":4492:4503  totalSupply */\n      0x00\n      0x00\n        /* \"contracts/base/ERC20Test.sol\":4492:4513  totalSupply -= amount */\n      dup3\n      dup3\n      sload\n      tag_67\n      swap2\n      swap1\n      tag_60\n      jump\t// in\n    tag_67:\n      swap3\n      pop\n      pop\n      dup2\n      swap1\n      sstore\n      pop\n        /* \"contracts/base/ERC20Test.sol\":4562:4563  0 */\n      0x00\n        /* \"contracts/base/ERC20Test.sol\":4533:4573  Transfer(msg.sender, address(0), amount) */\n      0xffffffffffffffffffffffffffffffffffffffff\n      and\n        /* \"contracts/base/ERC20Test.sol\":4542:4552  msg.sender */\n      caller\n        /* \"contracts/base/ERC20Test.sol\":4533:4573  Transfer(msg.sender, address(0), amount) */\n      0xffffffffffffffffffffffffffffffffffffffff\n      and\n      0xddf252ad1be2c89b69c2b068fc378daa952ba7f163c4a11628f55a4df523b3ef\n        /* \"contracts/base/ERC20Test.sol\":4566:4572  amount */\n      dup4\n        /* \"contracts/base/ERC20Test.sol\":4533:4573  Transfer(msg.sender, address(0), amount) */\n      mload(0x40)\n      tag_68\n      swap2\n      swap1\n      tag_21\n      jump\t// in\n    tag_68:\n      mload(0x40)\n      dup1\n      swap2\n      sub\n      swap1\n      log3\n        /* \"contracts/base/ERC20Test.sol\":4395:4585  function burn(uint amount) external {... */\n      pop\n      jump\t// out\n        /* \"contracts/base/ERC20Test.sol\":1972:2025  mapping(address => uint256) public override balanceOf */\n    tag_34:\n      mstore(0x20, 0x01)\n      dup1\n      0x00\n      mstore\n      keccak256(0x00, 0x40)\n      0x00\n      swap2\n      pop\n      swap1\n      pop\n      sload\n      dup2\n      jump\t// out\n        /* \"contracts/base/ERC20Test.sol\":4191:4381  function mint(uint amount) external {... */\n    tag_38:\n        /* \"contracts/base/ERC20Test.sol\":4267:4273  amount */\n      dup1\n        /* \"contracts/base/ERC20Test.sol\":4242:4251  balanceOf */\n      0x01\n        /* \"contracts/base/ERC20Test.sol\":4242:4263  balanceOf[msg.sender] */\n      0x00\n        /* \"contracts/base/ERC20Test.sol\":4252:4262  msg.sender */\n      caller\n        /* \"contracts/base/ERC20Test.sol\":4242:4263  balanceOf[msg.sender] */\n      0xffffffffffffffffffffffffffffffffffffffff\n      and\n      0xffffffffffffffffffffffffffffffffffffffff\n      and\n      dup2\n      mstore\n      0x20\n      add\n      swap1\n      dup2\n      mstore\n      0x20\n      add\n      0x00\n      keccak256\n      0x00\n        /* \"contracts/base/ERC20Test.sol\":4242:4273  balanceOf[msg.sender] += amount */\n      dup3\n      dup3\n      sload\n      tag_70\n      swap2\n      swap1\n      tag_63\n      jump\t// in\n    tag_70:\n      swap3\n      pop\n      pop\n      dup2\n      swap1\n      sstore\n      pop\n        /* \"contracts/base/ERC20Test.sol\":4303:4309  amount */\n      dup1\n        /* \"contracts/base/ERC20Test.sol\":4288:4299  totalSupply */\n      0x00\n      0x00\n        /* \"contracts/base/ERC20Test.sol\":4288:4309  totalSupply += amount */\n      dup3\n      dup3\n      sload\n      tag_71\n      swap2\n      swap1\n      tag_63\n      jump\t// in\n    tag_71:\n      swap3\n      pop\n      pop\n      dup2\n      swap1\n      sstore\n      pop\n        /* \"contracts/base/ERC20Test.sol\":4350:4360  msg.sender */\n      caller\n        /* \"contracts/base/ERC20Test.sol\":4329:4369  Transfer(address(0), msg.sender, amount) */\n      0xffffffffffffffffffffffffffffffffffffffff\n      and\n        /* \"contracts/base/ERC20Test.sol\":4346:4347  0 */\n      0x00\n        /* \"contracts/base/ERC20Test.sol\":4329:4369  Transfer(address(0), msg.sender, amount) */\n      0xffffffffffffffffffffffffffffffffffffffff\n      and\n      0xddf252ad1be2c89b69c2b068fc378daa952ba7f163c4a11628f55a4df523b3ef\n        /* \"contracts/base/ERC20Test.sol\":4362:4368  amount */\n      dup4\n        /* \"contracts/base/ERC20Test.sol\":4329:4369  Transfer(address(0), msg.sender, amount) */\n      mload(0x40)\n      tag_72\n      swap2\n      swap1\n      tag_21\n      jump\t// in\n    tag_72:\n      mload(0x40)\n      dup1\n      swap2\n      sub\n      swap1\n      log3\n        /* \"contracts/base/ERC20Test.sol\":4191:4381  function mint(uint amount) external {... */\n      pop\n      jump\t// out\n        /* \"contracts/base/ERC20Test.sol\":2556:2903  function transfer(address recipient, uint256 amount) checkAmountEnough(amount) override external returns(bool){... */\n    tag_41:\n        /* \"contracts/base/ERC20Test.sol\":2661:2665  bool */\n      0x00\n        /* \"contracts/base/ERC20Test.sol\":2627:2633  amount */\n      dup2\n        /* \"contracts/base/ERC20Test.sol\":2277:2283  amount */\n      dup1\n        /* \"contracts/base/ERC20Test.sol\":2252:2261  balanceOf */\n      0x01\n        /* \"contracts/base/ERC20Test.sol\":2252:2273  balanceOf[msg.sender] */\n      0x00\n        /* \"contracts/base/ERC20Test.sol\":2262:2272  msg.sender */\n      caller\n        /* \"contracts/base/ERC20Test.sol\":2252:2273  balanceOf[msg.sender] */\n      0xffffffffffffffffffffffffffffffffffffffff\n      and\n      0xffffffffffffffffffffffffffffffffffffffff\n      and\n      dup2\n      mstore\n      0x20\n      add\n      swap1\n      dup2\n      mstore\n      0x20\n      add\n      0x00\n      keccak256\n      sload\n        /* \"contracts/base/ERC20Test.sol\":2252:2283  balanceOf[msg.sender] >= amount */\n      lt\n      iszero\n        /* \"contracts/base/ERC20Test.sol\":2244:2308  require(balanceOf[msg.sender] >= amount, \"amount is not enough\") */\n      tag_74\n      jumpi\n      mload(0x40)\n      0x08c379a000000000000000000000000000000000000000000000000000000000\n      dup2\n      mstore\n      0x04\n      add\n      tag_75\n      swap1\n      tag_51\n      jump\t// in\n    tag_75:\n      mload(0x40)\n      dup1\n      swap2\n      sub\n      swap1\n      revert\n    tag_74:\n        /* \"contracts/base/ERC20Test.sol\":2718:2724  amount */\n      dup3\n        /* \"contracts/base/ERC20Test.sol\":2693:2702  balanceOf */\n      0x01\n        /* \"contracts/base/ERC20Test.sol\":2693:2714  balanceOf[msg.sender] */\n      0x00\n        /* \"contracts/base/ERC20Test.sol\":2703:2713  msg.sender */\n      caller\n        /* \"contracts/base/ERC20Test.sol\":2693:2714  balanceOf[msg.sender] */\n      0xffffffffffffffffffffffffffffffffffffffff\n      and\n      0xffffffffffffffffffffffffffffffffffffffff\n      and\n      dup2\n      mstore\n      0x20\n      add\n      swap1\n      dup2\n      mstore\n      0x20\n      add\n      0x00\n      keccak256\n      0x00\n        /* \"contracts/base/ERC20Test.sol\":2693:2724  balanceOf[msg.sender] -= amount */\n      dup3\n      dup3\n      sload\n      tag_77\n      swap2\n      swap1\n      tag_60\n      jump\t// in\n    tag_77:\n      swap3\n      pop\n      pop\n      dup2\n      swap1\n      sstore\n      pop\n        /* \"contracts/base/ERC20Test.sol\":2775:2781  amount */\n      dup3\n        /* \"contracts/base/ERC20Test.sol\":2751:2760  balanceOf */\n      0x01\n        /* \"contracts/base/ERC20Test.sol\":2751:2771  balanceOf[recipient] */\n      0x00\n        /* \"contracts/base/ERC20Test.sol\":2761:2770  recipient */\n      dup7\n        /* \"contracts/base/ERC20Test.sol\":2751:2771  balanceOf[recipient] */\n      0xffffffffffffffffffffffffffffffffffffffff\n      and\n      0xffffffffffffffffffffffffffffffffffffffff\n      and\n      dup2\n      mstore\n      0x20\n      add\n      swap1\n      dup2\n      mstore\n      0x20\n      add\n      0x00\n      keccak256\n      0x00\n        /* \"contracts/base/ERC20Test.sol\":2751:2781  balanceOf[recipient] += amount */\n      dup3\n      dup3\n      sload\n      tag_78\n      swap2\n      swap1\n      tag_63\n      jump\t// in\n    tag_78:\n      swap3\n      pop\n      pop\n      dup2\n      swap1\n      sstore\n      pop\n        /* \"contracts/base/ERC20Test.sol\":2835:2844  recipient */\n      dup4\n        /* \"contracts/base/ERC20Test.sol\":2813:2853  Transfer(msg.sender,  recipient, amount) */\n      0xffffffffffffffffffffffffffffffffffffffff\n      and\n        /* \"contracts/base/ERC20Test.sol\":2822:2832  msg.sender */\n      caller\n        /* \"contracts/base/ERC20Test.sol\":2813:2853  Transfer(msg.sender,  recipient, amount) */\n      0xffffffffffffffffffffffffffffffffffffffff\n      and\n      0xddf252ad1be2c89b69c2b068fc378daa952ba7f163c4a11628f55a4df523b3ef\n        /* \"contracts/base/ERC20Test.sol\":2846:2852  amount */\n      dup6\n        /* \"contracts/base/ERC20Test.sol\":2813:2853  Transfer(msg.sender,  recipient, amount) */\n      mload(0x40)\n      tag_79\n      swap2\n      swap1\n      tag_21\n      jump\t// in\n    tag_79:\n      mload(0x40)\n      dup1\n      swap2\n      sub\n      swap1\n      log3\n        /* \"contracts/base/ERC20Test.sol\":2887:2891  true */\n      0x01\n        /* \"contracts/base/ERC20Test.sol\":2880:2891  return true */\n      swap2\n      pop\n        /* \"contracts/base/ERC20Test.sol\":2556:2903  function transfer(address recipient, uint256 amount) checkAmountEnough(amount) override external returns(bool){... */\n      pop\n      swap3\n      swap2\n      pop\n      pop\n      jump\t// out\n        /* \"contracts/base/ERC20Test.sol\":2090:2164  mapping(address => mapping(address => uint256)) public override  allowance */\n    tag_46:\n      mstore(0x20, 0x02)\n      dup2\n      0x00\n      mstore\n      mstore(0x20, keccak256(0x00, 0x40))\n      dup1\n      0x00\n      mstore\n      keccak256(0x00, 0x40)\n      0x00\n      swap2\n      pop\n      swap2\n      pop\n      pop\n      sload\n      dup2\n      jump\t// out\n        /* \"#utility.yul\":88:205   */\n    tag_81:\n        /* \"#utility.yul\":197:198   */\n      0x00\n        /* \"#utility.yul\":194:195   */\n      0x00\n        /* \"#utility.yul\":187:199   */\n      revert\n        /* \"#utility.yul\":334:460   */\n    tag_83:\n        /* \"#utility.yul\":371:378   */\n      0x00\n        /* \"#utility.yul\":411:453   */\n      0xffffffffffffffffffffffffffffffffffffffff\n        /* \"#utility.yul\":404:409   */\n      dup3\n        /* \"#utility.yul\":400:454   */\n      and\n        /* \"#utility.yul\":389:454   */\n      swap1\n      pop\n        /* \"#utility.yul\":334:460   */\n      swap2\n      swap1\n      pop\n      jump\t// out\n        /* \"#utility.yul\":466:562   */\n    tag_84:\n        /* \"#utility.yul\":503:510   */\n      0x00\n        /* \"#utility.yul\":532:556   */\n      tag_103\n        /* \"#utility.yul\":550:555   */\n      dup3\n        /* \"#utility.yul\":532:556   */\n      tag_83\n      jump\t// in\n    tag_103:\n        /* \"#utility.yul\":521:556   */\n      swap1\n      pop\n        /* \"#utility.yul\":466:562   */\n      swap2\n      swap1\n      pop\n      jump\t// out\n        /* \"#utility.yul\":568:690   */\n    tag_85:\n        /* \"#utility.yul\":641:665   */\n      tag_105\n        /* \"#utility.yul\":659:664   */\n      dup2\n        /* \"#utility.yul\":641:665   */\n      tag_84\n      jump\t// in\n    tag_105:\n        /* \"#utility.yul\":634:639   */\n      dup2\n        /* \"#utility.yul\":631:666   */\n      eq\n        /* \"#utility.yul\":621:684   */\n      tag_106\n      jumpi\n        /* \"#utility.yul\":680:681   */\n      0x00\n        /* \"#utility.yul\":677:678   */\n      0x00\n        /* \"#utility.yul\":670:682   */\n      revert\n        /* \"#utility.yul\":621:684   */\n    tag_106:\n        /* \"#utility.yul\":568:690   */\n      pop\n      jump\t// out\n        /* \"#utility.yul\":696:835   */\n    tag_86:\n        /* \"#utility.yul\":742:747   */\n      0x00\n        /* \"#utility.yul\":780:786   */\n      dup2\n        /* \"#utility.yul\":767:787   */\n      calldataload\n        /* \"#utility.yul\":758:787   */\n      swap1\n      pop\n        /* \"#utility.yul\":796:829   */\n      tag_108\n        /* \"#utility.yul\":823:828   */\n      dup2\n        /* \"#utility.yul\":796:829   */\n      tag_85\n      jump\t// in\n    tag_108:\n        /* \"#utility.yul\":696:835   */\n      swap3\n      swap2\n      pop\n      pop\n      jump\t// out\n        /* \"#utility.yul\":841:918   */\n    tag_87:\n        /* \"#utility.yul\":878:885   */\n      0x00\n        /* \"#utility.yul\":907:912   */\n      dup2\n        /* \"#utility.yul\":896:912   */\n      swap1\n      pop\n        /* \"#utility.yul\":841:918   */\n      swap2\n      swap1\n      pop\n      jump\t// out\n        /* \"#utility.yul\":924:1046   */\n    tag_88:\n        /* \"#utility.yul\":997:1021   */\n      tag_111\n        /* \"#utility.yul\":1015:1020   */\n      dup2\n        /* \"#utility.yul\":997:1021   */\n      tag_87\n      jump\t// in\n    tag_111:\n        /* \"#utility.yul\":990:995   */\n      dup2\n        /* \"#utility.yul\":987:1022   */\n      eq\n        /* \"#utility.yul\":977:1040   */\n      tag_112\n      jumpi\n        /* \"#utility.yul\":1036:1037   */\n      0x00\n        /* \"#utility.yul\":1033:1034   */\n      0x00\n        /* \"#utility.yul\":1026:1038   */\n      revert\n        /* \"#utility.yul\":977:1040   */\n    tag_112:\n        /* \"#utility.yul\":924:1046   */\n      pop\n      jump\t// out\n        /* \"#utility.yul\":1052:1191   */\n    tag_89:\n        /* \"#utility.yul\":1098:1103   */\n      0x00\n        /* \"#utility.yul\":1136:1142   */\n      dup2\n        /* \"#utility.yul\":1123:1143   */\n      calldataload\n        /* \"#utility.yul\":1114:1143   */\n      swap1\n      pop\n        /* \"#utility.yul\":1152:1185   */\n      tag_114\n        /* \"#utility.yul\":1179:1184   */\n      dup2\n        /* \"#utility.yul\":1152:1185   */\n      tag_88\n      jump\t// in\n    tag_114:\n        /* \"#utility.yul\":1052:1191   */\n      swap3\n      swap2\n      pop\n      pop\n      jump\t// out\n        /* \"#utility.yul\":1197:1671   */\n    tag_14:\n        /* \"#utility.yul\":1265:1271   */\n      0x00\n        /* \"#utility.yul\":1273:1279   */\n      0x00\n        /* \"#utility.yul\":1322:1324   */\n      0x40\n        /* \"#utility.yul\":1310:1319   */\n      dup4\n        /* \"#utility.yul\":1301:1308   */\n      dup6\n        /* \"#utility.yul\":1297:1320   */\n      sub\n        /* \"#utility.yul\":1293:1325   */\n      slt\n        /* \"#utility.yul\":1290:1409   */\n      iszero\n      tag_116\n      jumpi\n        /* \"#utility.yul\":1328:1407   */\n      tag_117\n      tag_81\n      jump\t// in\n    tag_117:\n        /* \"#utility.yul\":1290:1409   */\n    tag_116:\n        /* \"#utility.yul\":1448:1449   */\n      0x00\n        /* \"#utility.yul\":1473:1526   */\n      tag_118\n        /* \"#utility.yul\":1518:1525   */\n      dup6\n        /* \"#utility.yul\":1509:1515   */\n      dup3\n        /* \"#utility.yul\":1498:1507   */\n      dup7\n        /* \"#utility.yul\":1494:1516   */\n      add\n        /* \"#utility.yul\":1473:1526   */\n      tag_86\n      jump\t// in\n    tag_118:\n        /* \"#utility.yul\":1463:1526   */\n      swap3\n      pop\n        /* \"#utility.yul\":1419:1536   */\n      pop\n        /* \"#utility.yul\":1575:1577   */\n      0x20\n        /* \"#utility.yul\":1601:1654   */\n      tag_119\n        /* \"#utility.yul\":1646:1653   */\n      dup6\n        /* \"#utility.yul\":1637:1643   */\n      dup3\n        /* \"#utility.yul\":1626:1635   */\n      dup7\n        /* \"#utility.yul\":1622:1644   */\n      add\n        /* \"#utility.yul\":1601:1654   */\n      tag_89\n      jump\t// in\n    tag_119:\n        /* \"#utility.yul\":1591:1654   */\n      swap2\n      pop\n        /* \"#utility.yul\":1546:1664   */\n      pop\n        /* \"#utility.yul\":1197:1671   */\n      swap3\n      pop\n      swap3\n      swap1\n      pop\n      jump\t// out\n        /* \"#utility.yul\":1677:1767   */\n    tag_90:\n        /* \"#utility.yul\":1711:1718   */\n      0x00\n        /* \"#utility.yul\":1754:1759   */\n      dup2\n        /* \"#utility.yul\":1747:1760   */\n      iszero\n        /* \"#utility.yul\":1740:1761   */\n      iszero\n        /* \"#utility.yul\":1729:1761   */\n      swap1\n      pop\n        /* \"#utility.yul\":1677:1767   */\n      swap2\n      swap1\n      pop\n      jump\t// out\n        /* \"#utility.yul\":1773:1882   */\n    tag_91:\n        /* \"#utility.yul\":1854:1875   */\n      tag_122\n        /* \"#utility.yul\":1869:1874   */\n      dup2\n        /* \"#utility.yul\":1854:1875   */\n      tag_90\n      jump\t// in\n    tag_122:\n        /* \"#utility.yul\":1849:1852   */\n      dup3\n        /* \"#utility.yul\":1842:1876   */\n      mstore\n        /* \"#utility.yul\":1773:1882   */\n      pop\n      pop\n      jump\t// out\n        /* \"#utility.yul\":1888:2098   */\n    tag_17:\n        /* \"#utility.yul\":1975:1979   */\n      0x00\n        /* \"#utility.yul\":2013:2015   */\n      0x20\n        /* \"#utility.yul\":2002:2011   */\n      dup3\n        /* \"#utility.yul\":1998:2016   */\n      add\n        /* \"#utility.yul\":1990:2016   */\n      swap1\n      pop\n        /* \"#utility.yul\":2026:2091   */\n      tag_124\n        /* \"#utility.yul\":2088:2089   */\n      0x00\n        /* \"#utility.yul\":2077:2086   */\n      dup4\n        /* \"#utility.yul\":2073:2090   */\n      add\n        /* \"#utility.yul\":2064:2070   */\n      dup5\n        /* \"#utility.yul\":2026:2091   */\n      tag_91\n      jump\t// in\n    tag_124:\n        /* \"#utility.yul\":1888:2098   */\n      swap3\n      swap2\n      pop\n      pop\n      jump\t// out\n        /* \"#utility.yul\":2104:2222   */\n    tag_92:\n        /* \"#utility.yul\":2191:2215   */\n      tag_126\n        /* \"#utility.yul\":2209:2214   */\n      dup2\n        /* \"#utility.yul\":2191:2215   */\n      tag_87\n      jump\t// in\n    tag_126:\n        /* \"#utility.yul\":2186:2189   */\n      dup3\n        /* \"#utility.yul\":2179:2216   */\n      mstore\n        /* \"#utility.yul\":2104:2222   */\n      pop\n      pop\n      jump\t// out\n        /* \"#utility.yul\":2228:2450   */\n    tag_21:\n        /* \"#utility.yul\":2321:2325   */\n      0x00\n        /* \"#utility.yul\":2359:2361   */\n      0x20\n        /* \"#utility.yul\":2348:2357   */\n      dup3\n        /* \"#utility.yul\":2344:2362   */\n      add\n        /* \"#utility.yul\":2336:2362   */\n      swap1\n      pop\n        /* \"#utility.yul\":2372:2443   */\n      tag_128\n        /* \"#utility.yul\":2440:2441   */\n      0x00\n        /* \"#utility.yul\":2429:2438   */\n      dup4\n        /* \"#utility.yul\":2425:2442   */\n      add\n        /* \"#utility.yul\":2416:2422   */\n      dup5\n        /* \"#utility.yul\":2372:2443   */\n      tag_92\n      jump\t// in\n    tag_128:\n        /* \"#utility.yul\":2228:2450   */\n      swap3\n      swap2\n      pop\n      pop\n      jump\t// out\n        /* \"#utility.yul\":2456:3075   */\n    tag_24:\n        /* \"#utility.yul\":2533:2539   */\n      0x00\n        /* \"#utility.yul\":2541:2547   */\n      0x00\n        /* \"#utility.yul\":2549:2555   */\n      0x00\n        /* \"#utility.yul\":2598:2600   */\n      0x60\n        /* \"#utility.yul\":2586:2595   */\n      dup5\n        /* \"#utility.yul\":2577:2584   */\n      dup7\n        /* \"#utility.yul\":2573:2596   */\n      sub\n        /* \"#utility.yul\":2569:2601   */\n      slt\n        /* \"#utility.yul\":2566:2685   */\n      iszero\n      tag_130\n      jumpi\n        /* \"#utility.yul\":2604:2683   */\n      tag_131\n      tag_81\n      jump\t// in\n    tag_131:\n        /* \"#utility.yul\":2566:2685   */\n    tag_130:\n        /* \"#utility.yul\":2724:2725   */\n      0x00\n        /* \"#utility.yul\":2749:2802   */\n      tag_132\n        /* \"#utility.yul\":2794:2801   */\n      dup7\n        /* \"#utility.yul\":2785:2791   */\n      dup3\n        /* \"#utility.yul\":2774:2783   */\n      dup8\n        /* \"#utility.yul\":2770:2792   */\n      add\n        /* \"#utility.yul\":2749:2802   */\n      tag_86\n      jump\t// in\n    tag_132:\n        /* \"#utility.yul\":2739:2802   */\n      swap4\n      pop\n        /* \"#utility.yul\":2695:2812   */\n      pop\n        /* \"#utility.yul\":2851:2853   */\n      0x20\n        /* \"#utility.yul\":2877:2930   */\n      tag_133\n        /* \"#utility.yul\":2922:2929   */\n      dup7\n        /* \"#utility.yul\":2913:2919   */\n      dup3\n        /* \"#utility.yul\":2902:2911   */\n      dup8\n        /* \"#utility.yul\":2898:2920   */\n      add\n        /* \"#utility.yul\":2877:2930   */\n      tag_86\n      jump\t// in\n    tag_133:\n        /* \"#utility.yul\":2867:2930   */\n      swap3\n      pop\n        /* \"#utility.yul\":2822:2940   */\n      pop\n        /* \"#utility.yul\":2979:2981   */\n      0x40\n        /* \"#utility.yul\":3005:3058   */\n      tag_134\n        /* \"#utility.yul\":3050:3057   */\n      dup7\n        /* \"#utility.yul\":3041:3047   */\n      dup3\n        /* \"#utility.yul\":3030:3039   */\n      dup8\n        /* \"#utility.yul\":3026:3048   */\n      add\n        /* \"#utility.yul\":3005:3058   */\n      tag_89\n      jump\t// in\n    tag_134:\n        /* \"#utility.yul\":2995:3058   */\n      swap2\n      pop\n        /* \"#utility.yul\":2950:3068   */\n      pop\n        /* \"#utility.yul\":2456:3075   */\n      swap3\n      pop\n      swap3\n      pop\n      swap3\n      jump\t// out\n        /* \"#utility.yul\":3081:3410   */\n    tag_29:\n        /* \"#utility.yul\":3140:3146   */\n      0x00\n        /* \"#utility.yul\":3189:3191   */\n      0x20\n        /* \"#utility.yul\":3177:3186   */\n      dup3\n        /* \"#utility.yul\":3168:3175   */\n      dup5\n        /* \"#utility.yul\":3164:3187   */\n      sub\n        /* \"#utility.yul\":3160:3192   */\n      slt\n        /* \"#utility.yul\":3157:3276   */\n      iszero\n      tag_136\n      jumpi\n        /* \"#utility.yul\":3195:3274   */\n      tag_137\n      tag_81\n      jump\t// in\n    tag_137:\n        /* \"#utility.yul\":3157:3276   */\n    tag_136:\n        /* \"#utility.yul\":3315:3316   */\n      0x00\n        /* \"#utility.yul\":3340:3393   */\n      tag_138\n        /* \"#utility.yul\":3385:3392   */\n      dup5\n        /* \"#utility.yul\":3376:3382   */\n      dup3\n        /* \"#utility.yul\":3365:3374   */\n      dup6\n        /* \"#utility.yul\":3361:3383   */\n      add\n        /* \"#utility.yul\":3340:3393   */\n      tag_89\n      jump\t// in\n    tag_138:\n        /* \"#utility.yul\":3330:3393   */\n      swap2\n      pop\n        /* \"#utility.yul\":3286:3403   */\n      pop\n        /* \"#utility.yul\":3081:3410   */\n      swap3\n      swap2\n      pop\n      pop\n      jump\t// out\n        /* \"#utility.yul\":3416:3745   */\n    tag_33:\n        /* \"#utility.yul\":3475:3481   */\n      0x00\n        /* \"#utility.yul\":3524:3526   */\n      0x20\n        /* \"#utility.yul\":3512:3521   */\n      dup3\n        /* \"#utility.yul\":3503:3510   */\n      dup5\n        /* \"#utility.yul\":3499:3522   */\n      sub\n        /* \"#utility.yul\":3495:3527   */\n      slt\n        /* \"#utility.yul\":3492:3611   */\n      iszero\n      tag_140\n      jumpi\n        /* \"#utility.yul\":3530:3609   */\n      tag_141\n      tag_81\n      jump\t// in\n    tag_141:\n        /* \"#utility.yul\":3492:3611   */\n    tag_140:\n        /* \"#utility.yul\":3650:3651   */\n      0x00\n        /* \"#utility.yul\":3675:3728   */\n      tag_142\n        /* \"#utility.yul\":3720:3727   */\n      dup5\n        /* \"#utility.yul\":3711:3717   */\n      dup3\n        /* \"#utility.yul\":3700:3709   */\n      dup6\n        /* \"#utility.yul\":3696:3718   */\n      add\n        /* \"#utility.yul\":3675:3728   */\n      tag_86\n      jump\t// in\n    tag_142:\n        /* \"#utility.yul\":3665:3728   */\n      swap2\n      pop\n        /* \"#utility.yul\":3621:3738   */\n      pop\n        /* \"#utility.yul\":3416:3745   */\n      swap3\n      swap2\n      pop\n      pop\n      jump\t// out\n        /* \"#utility.yul\":3751:4225   */\n    tag_45:\n        /* \"#utility.yul\":3819:3825   */\n      0x00\n        /* \"#utility.yul\":3827:3833   */\n      0x00\n        /* \"#utility.yul\":3876:3878   */\n      0x40\n        /* \"#utility.yul\":3864:3873   */\n      dup4\n        /* \"#utility.yul\":3855:3862   */\n      dup6\n        /* \"#utility.yul\":3851:3874   */\n      sub\n        /* \"#utility.yul\":3847:3879   */\n      slt\n        /* \"#utility.yul\":3844:3963   */\n      iszero\n      tag_144\n      jumpi\n        /* \"#utility.yul\":3882:3961   */\n      tag_145\n      tag_81\n      jump\t// in\n    tag_145:\n        /* \"#utility.yul\":3844:3963   */\n    tag_144:\n        /* \"#utility.yul\":4002:4003   */\n      0x00\n        /* \"#utility.yul\":4027:4080   */\n      tag_146\n        /* \"#utility.yul\":4072:4079   */\n      dup6\n        /* \"#utility.yul\":4063:4069   */\n      dup3\n        /* \"#utility.yul\":4052:4061   */\n      dup7\n        /* \"#utility.yul\":4048:4070   */\n      add\n        /* \"#utility.yul\":4027:4080   */\n      tag_86\n      jump\t// in\n    tag_146:\n        /* \"#utility.yul\":4017:4080   */\n      swap3\n      pop\n        /* \"#utility.yul\":3973:4090   */\n      pop\n        /* \"#utility.yul\":4129:4131   */\n      0x20\n        /* \"#utility.yul\":4155:4208   */\n      tag_147\n        /* \"#utility.yul\":4200:4207   */\n      dup6\n        /* \"#utility.yul\":4191:4197   */\n      dup3\n        /* \"#utility.yul\":4180:4189   */\n      dup7\n        /* \"#utility.yul\":4176:4198   */\n      add\n        /* \"#utility.yul\":4155:4208   */\n      tag_86\n      jump\t// in\n    tag_147:\n        /* \"#utility.yul\":4145:4208   */\n      swap2\n      pop\n        /* \"#utility.yul\":4100:4218   */\n      pop\n        /* \"#utility.yul\":3751:4225   */\n      swap3\n      pop\n      swap3\n      swap1\n      pop\n      jump\t// out\n        /* \"#utility.yul\":4231:4400   */\n    tag_93:\n        /* \"#utility.yul\":4315:4326   */\n      0x00\n        /* \"#utility.yul\":4349:4355   */\n      dup3\n        /* \"#utility.yul\":4344:4347   */\n      dup3\n        /* \"#utility.yul\":4337:4356   */\n      mstore\n        /* \"#utility.yul\":4389:4393   */\n      0x20\n        /* \"#utility.yul\":4384:4387   */\n      dup3\n        /* \"#utility.yul\":4380:4394   */\n      add\n        /* \"#utility.yul\":4365:4394   */\n      swap1\n      pop\n        /* \"#utility.yul\":4231:4400   */\n      swap3\n      swap2\n      pop\n      pop\n      jump\t// out\n        /* \"#utility.yul\":4406:4576   */\n    tag_94:\n        /* \"#utility.yul\":4546:4568   */\n      0x616d6f756e74206973206e6f7420656e6f756768000000000000000000000000\n        /* \"#utility.yul\":4542:4543   */\n      0x00\n        /* \"#utility.yul\":4534:4540   */\n      dup3\n        /* \"#utility.yul\":4530:4544   */\n      add\n        /* \"#utility.yul\":4523:4569   */\n      mstore\n        /* \"#utility.yul\":4406:4576   */\n      pop\n      jump\t// out\n        /* \"#utility.yul\":4582:4948   */\n    tag_95:\n        /* \"#utility.yul\":4724:4727   */\n      0x00\n        /* \"#utility.yul\":4745:4812   */\n      tag_151\n        /* \"#utility.yul\":4809:4811   */\n      0x14\n        /* \"#utility.yul\":4804:4807   */\n      dup4\n        /* \"#utility.yul\":4745:4812   */\n      tag_93\n      jump\t// in\n    tag_151:\n        /* \"#utility.yul\":4738:4812   */\n      swap2\n      pop\n        /* \"#utility.yul\":4821:4914   */\n      tag_152\n        /* \"#utility.yul\":4910:4913   */\n      dup3\n        /* \"#utility.yul\":4821:4914   */\n      tag_94\n      jump\t// in\n    tag_152:\n        /* \"#utility.yul\":4939:4941   */\n      0x20\n        /* \"#utility.yul\":4934:4937   */\n      dup3\n        /* \"#utility.yul\":4930:4942   */\n      add\n        /* \"#utility.yul\":4923:4942   */\n      swap1\n      pop\n        /* \"#utility.yul\":4582:4948   */\n      swap2\n      swap1\n      pop\n      jump\t// out\n        /* \"#utility.yul\":4954:5373   */\n    tag_51:\n        /* \"#utility.yul\":5120:5124   */\n      0x00\n        /* \"#utility.yul\":5158:5160   */\n      0x20\n        /* \"#utility.yul\":5147:5156   */\n      dup3\n        /* \"#utility.yul\":5143:5161   */\n      add\n        /* \"#utility.yul\":5135:5161   */\n      swap1\n      pop\n        /* \"#utility.yul\":5207:5216   */\n      dup2\n        /* \"#utility.yul\":5201:5205   */\n      dup2\n        /* \"#utility.yul\":5197:5217   */\n      sub\n        /* \"#utility.yul\":5193:5194   */\n      0x00\n        /* \"#utility.yul\":5182:5191   */\n      dup4\n        /* \"#utility.yul\":5178:5195   */\n      add\n        /* \"#utility.yul\":5171:5218   */\n      mstore\n        /* \"#utility.yul\":5235:5366   */\n      tag_154\n        /* \"#utility.yul\":5361:5365   */\n      dup2\n        /* \"#utility.yul\":5235:5366   */\n      tag_95\n      jump\t// in\n    tag_154:\n        /* \"#utility.yul\":5227:5366   */\n      swap1\n      pop\n        /* \"#utility.yul\":4954:5373   */\n      swap2\n      swap1\n      pop\n      jump\t// out\n        /* \"#utility.yul\":5379:5559   */\n    tag_96:\n        /* \"#utility.yul\":5427:5504   */\n      0x4e487b7100000000000000000000000000000000000000000000000000000000\n        /* \"#utility.yul\":5424:5425   */\n      0x00\n        /* \"#utility.yul\":5417:5505   */\n      mstore\n        /* \"#utility.yul\":5524:5528   */\n      0x11\n        /* \"#utility.yul\":5521:5522   */\n      0x04\n        /* \"#utility.yul\":5514:5529   */\n      mstore\n        /* \"#utility.yul\":5548:5552   */\n      0x24\n        /* \"#utility.yul\":5545:5546   */\n      0x00\n        /* \"#utility.yul\":5538:5553   */\n      revert\n        /* \"#utility.yul\":5565:5759   */\n    tag_60:\n        /* \"#utility.yul\":5605:5609   */\n      0x00\n        /* \"#utility.yul\":5625:5645   */\n      tag_157\n        /* \"#utility.yul\":5643:5644   */\n      dup3\n        /* \"#utility.yul\":5625:5645   */\n      tag_87\n      jump\t// in\n    tag_157:\n        /* \"#utility.yul\":5620:5645   */\n      swap2\n      pop\n        /* \"#utility.yul\":5659:5679   */\n      tag_158\n        /* \"#utility.yul\":5677:5678   */\n      dup4\n        /* \"#utility.yul\":5659:5679   */\n      tag_87\n      jump\t// in\n    tag_158:\n        /* \"#utility.yul\":5654:5679   */\n      swap3\n      pop\n        /* \"#utility.yul\":5703:5704   */\n      dup3\n        /* \"#utility.yul\":5700:5701   */\n      dup3\n        /* \"#utility.yul\":5696:5705   */\n      sub\n        /* \"#utility.yul\":5688:5705   */\n      swap1\n      pop\n        /* \"#utility.yul\":5727:5728   */\n      dup2\n        /* \"#utility.yul\":5721:5725   */\n      dup2\n        /* \"#utility.yul\":5718:5729   */\n      gt\n        /* \"#utility.yul\":5715:5752   */\n      iszero\n      tag_159\n      jumpi\n        /* \"#utility.yul\":5732:5750   */\n      tag_160\n      tag_96\n      jump\t// in\n    tag_160:\n        /* \"#utility.yul\":5715:5752   */\n    tag_159:\n        /* \"#utility.yul\":5565:5759   */\n      swap3\n      swap2\n      pop\n      pop\n      jump\t// out\n        /* \"#utility.yul\":5765:5956   */\n    tag_63:\n        /* \"#utility.yul\":5805:5808   */\n      0x00\n        /* \"#utility.yul\":5824:5844   */\n      tag_162\n        /* \"#utility.yul\":5842:5843   */\n      dup3\n        /* \"#utility.yul\":5824:5844   */\n      tag_87\n      jump\t// in\n    tag_162:\n        /* \"#utility.yul\":5819:5844   */\n      swap2\n      pop\n        /* \"#utility.yul\":5858:5878   */\n      tag_163\n        /* \"#utility.yul\":5876:5877   */\n      dup4\n        /* \"#utility.yul\":5858:5878   */\n      tag_87\n      jump\t// in\n    tag_163:\n        /* \"#utility.yul\":5853:5878   */\n      swap3\n      pop\n        /* \"#utility.yul\":5901:5902   */\n      dup3\n        /* \"#utility.yul\":5898:5899   */\n      dup3\n        /* \"#utility.yul\":5894:5903   */\n      add\n        /* \"#utility.yul\":5887:5903   */\n      swap1\n      pop\n        /* \"#utility.yul\":5922:5925   */\n      dup1\n        /* \"#utility.yul\":5919:5920   */\n      dup3\n        /* \"#utility.yul\":5916:5926   */\n      gt\n        /* \"#utility.yul\":5913:5949   */\n      iszero\n      tag_164\n      jumpi\n        /* \"#utility.yul\":5929:5947   */\n      tag_165\n      tag_96\n      jump\t// in\n    tag_165:\n        /* \"#utility.yul\":5913:5949   */\n    tag_164:\n        /* \"#utility.yul\":5765:5956   */\n      swap3\n      swap2\n      pop\n      pop\n      jump\t// out\n\n    auxdata: 0xa2646970667358221220d754646e469ae64fb2781302a7133fc49c54bc8cd74c3ab592e0142fb33843ae64736f6c634300081e0033\n}\n",
				"bytecode": {
					"linkReferences": {},
					"object": "6080604052348015600e575f5ffd5b50610ce48061001c5f395ff3fe608060405234801561000f575f5ffd5b5060043610610086575f3560e01c806370a082311161005957806370a0823114610124578063a0712d6814610154578063a9059cbb14610170578063dd62ed3e146101a057610086565b8063095ea7b31461008a57806318160ddd146100ba57806323b872dd146100d857806342966c6814610108575b5f5ffd5b6100a4600480360381019061009f9190610a26565b6101d0565b6040516100b19190610a7e565b60405180910390f35b6100c261033f565b6040516100cf9190610aa6565b60405180910390f35b6100f260048036038101906100ed9190610abf565b610344565b6040516100ff9190610a7e565b60405180910390f35b610122600480360381019061011d9190610b0f565b610624565b005b61013e60048036038101906101399190610b3a565b6106f6565b60405161014b9190610aa6565b60405180910390f35b61016e60048036038101906101699190610b0f565b61070b565b005b61018a60048036038101906101859190610a26565b6107dd565b6040516101979190610a7e565b60405180910390f35b6101ba60048036038101906101b59190610b65565b610975565b6040516101c79190610aa6565b60405180910390f35b5f818060015f3373ffffffffffffffffffffffffffffffffffffffff1673ffffffffffffffffffffffffffffffffffffffff1681526020019081526020015f20541015610252576040517f08c379a000000000000000000000000000000000000000000000000000000000815260040161024990610bfd565b60405180910390fd5b8260025f3373ffffffffffffffffffffffffffffffffffffffff1673ffffffffffffffffffffffffffffffffffffffff1681526020019081526020015f205f8673ffffffffffffffffffffffffffffffffffffffff1673ffffffffffffffffffffffffffffffffffffffff1681526020019081526020015f20819055508373ffffffffffffffffffffffffffffffffffffffff163373ffffffffffffffffffffffffffffffffffffffff167f8c5be1e5ebec7d5bd14f71427d1e84f3dd0314c0f7b2291e5b200ac8c7c3b9258560405161032c9190610aa6565b60405180910390a3600191505092915050565b5f5481565b5f8160025f8673ffffffffffffffffffffffffffffffffffffffff1673ffffffffffffffffffffffffffffffffffffffff1681526020019081526020015f205f3373ffffffffffffffffffffffffffffffffffffffff1673ffffffffffffffffffffffffffffffffffffffff1681526020019081526020015f20541015610400576040517f08c379a00000000000000000000000000000000000000000000000000000000081526004016103f790610bfd565b60405180910390fd5b8160015f8673ffffffffffffffffffffffffffffffffffffffff1673ffffffffffffffffffffffffffffffffffffffff1681526020019081526020015f20541015610480576040517f08c379a000000000000000000000000000000000000000000000000000000000815260040161047790610bfd565b60405180910390fd5b8160025f8673ffffffffffffffffffffffffffffffffffffffff1673ffffffffffffffffffffffffffffffffffffffff1681526020019081526020015f205f3373ffffffffffffffffffffffffffffffffffffffff1673ffffffffffffffffffffffffffffffffffffffff1681526020019081526020015f205f8282546105079190610c48565b925050819055508160015f8673ffffffffffffffffffffffffffffffffffffffff1673ffffffffffffffffffffffffffffffffffffffff1681526020019081526020015f205f82825461055a9190610c48565b925050819055508160015f8573ffffffffffffffffffffffffffffffffffffffff1673ffffffffffffffffffffffffffffffffffffffff1681526020019081526020015f205f8282546105ad9190610c7b565b925050819055508273ffffffffffffffffffffffffffffffffffffffff168473ffffffffffffffffffffffffffffffffffffffff167fddf252ad1be2c89b69c2b068fc378daa952ba7f163c4a11628f55a4df523b3ef846040516106119190610aa6565b60405180910390a3600190509392505050565b8060015f3373ffffffffffffffffffffffffffffffffffffffff1673ffffffffffffffffffffffffffffffffffffffff1681526020019081526020015f205f8282546106709190610c48565b92505081905550805f5f8282546106879190610c48565b925050819055505f73ffffffffffffffffffffffffffffffffffffffff163373ffffffffffffffffffffffffffffffffffffffff167fddf252ad1be2c89b69c2b068fc378daa952ba7f163c4a11628f55a4df523b3ef836040516106eb9190610aa6565b60405180910390a350565b6001602052805f5260405f205f915090505481565b8060015f3373ffffffffffffffffffffffffffffffffffffffff1673ffffffffffffffffffffffffffffffffffffffff1681526020019081526020015f205f8282546107579190610c7b565b92505081905550805f5f82825461076e9190610c7b565b925050819055503373ffffffffffffffffffffffffffffffffffffffff165f73ffffffffffffffffffffffffffffffffffffffff167fddf252ad1be2c89b69c2b068fc378daa952ba7f163c4a11628f55a4df523b3ef836040516107d29190610aa6565b60405180910390a350565b5f818060015f3373ffffffffffffffffffffffffffffffffffffffff1673ffffffffffffffffffffffffffffffffffffffff1681526020019081526020015f2054101561085f576040517f08c379a000000000000000000000000000000000000000000000000000000000815260040161085690610bfd565b60405180910390fd5b8260015f3373ffffffffffffffffffffffffffffffffffffffff1673ffffffffffffffffffffffffffffffffffffffff1681526020019081526020015f205f8282546108ab9190610c48565b925050819055508260015f8673ffffffffffffffffffffffffffffffffffffffff1673ffffffffffffffffffffffffffffffffffffffff1681526020019081526020015f205f8282546108fe9190610c7b565b925050819055508373ffffffffffffffffffffffffffffffffffffffff163373ffffffffffffffffffffffffffffffffffffffff167fddf252ad1be2c89b69c2b068fc378daa952ba7f163c4a11628f55a4df523b3ef856040516109629190610aa6565b60405180910390a3600191505092915050565b6002602052815f5260405f20602052805f5260405f205f91509150505481565b5f5ffd5b5f73ffffffffffffffffffffffffffffffffffffffff82169050919050565b5f6109c282610999565b9050919050565b6109d2816109b8565b81146109dc575f5ffd5b50565b5f813590506109ed816109c9565b92915050565b5f819050919050565b610a05816109f3565b8114610a0f575f5ffd5b50565b5f81359050610a20816109fc565b92915050565b5f5f60408385031215610a3c57610a3b610995565b5b5f610a49858286016109df565b9250506020610a5a85828601610a12565b9150509250929050565b5f8115159050919050565b610a7881610a64565b82525050565b5f602082019050610a915f830184610a6f565b92915050565b610aa0816109f3565b82525050565b5f602082019050610ab95f830184610a97565b92915050565b5f5f5f60608486031215610ad657610ad5610995565b5b5f610ae3868287016109df565b9350506020610af4868287016109df565b9250506040610b0586828701610a12565b9150509250925092565b5f60208284031215610b2457610b23610995565b5b5f610b3184828501610a12565b91505092915050565b5f60208284031215610b4f57610b4e610995565b5b5f610b5c848285016109df565b91505092915050565b5f5f60408385031215610b7b57610b7a610995565b5b5f610b88858286016109df565b9250506020610b99858286016109df565b9150509250929050565b5f82825260208201905092915050565b7f616d6f756e74206973206e6f7420656e6f7567680000000000000000000000005f82015250565b5f610be7601483610ba3565b9150610bf282610bb3565b602082019050919050565b5f6020820190508181035f830152610c1481610bdb565b9050919050565b7f4e487b71000000000000000000000000000000000000000000000000000000005f52601160045260245ffd5b5f610c52826109f3565b9150610c5d836109f3565b9250828203905081811115610c7557610c74610c1b565b5b92915050565b5f610c85826109f3565b9150610c90836109f3565b9250828201905080821115610ca857610ca7610c1b565b5b9291505056fea2646970667358221220d754646e469ae64fb2781302a7133fc49c54bc8cd74c3ab592e0142fb33843ae64736f6c634300081e0033",
					"opcodes": "PUSH1 0x80 PUSH1 0x40 MSTORE CALLVALUE DUP1 ISZERO PUSH1 0xE JUMPI PUSH0 PUSH0 REVERT JUMPDEST POP PUSH2 0xCE4 DUP1 PUSH2 0x1C PUSH0 CODECOPY PUSH0 RETURN INVALID PUSH1 0x80 PUSH1 0x40 MSTORE CALLVALUE DUP1 ISZERO PUSH2 0xF JUMPI PUSH0 PUSH0 REVERT JUMPDEST POP PUSH1 0x4 CALLDATASIZE LT PUSH2 0x86 JUMPI PUSH0 CALLDATALOAD PUSH1 0xE0 SHR DUP1 PUSH4 0x70A08231 GT PUSH2 0x59 JUMPI DUP1 PUSH4 0x70A08231 EQ PUSH2 0x124 JUMPI DUP1 PUSH4 0xA0712D68 EQ PUSH2 0x154 JUMPI DUP1 PUSH4 0xA9059CBB EQ PUSH2 0x170 JUMPI DUP1 PUSH4 0xDD62ED3E EQ PUSH2 0x1A0 JUMPI PUSH2 0x86 JUMP JUMPDEST DUP1 PUSH4 0x95EA7B3 EQ PUSH2 0x8A JUMPI DUP1 PUSH4 0x18160DDD EQ PUSH2 0xBA JUMPI DUP1 PUSH4 0x23B872DD EQ PUSH2 0xD8 JUMPI DUP1 PUSH4 0x42966C68 EQ PUSH2 0x108 JUMPI JUMPDEST PUSH0 PUSH0 REVERT JUMPDEST PUSH2 0xA4 PUSH1 0x4 DUP1 CALLDATASIZE SUB DUP2 ADD SWAP1 PUSH2 0x9F SWAP2 SWAP1 PUSH2 0xA26 JUMP JUMPDEST PUSH2 0x1D0 JUMP JUMPDEST PUSH1 0x40 MLOAD PUSH2 0xB1 SWAP2 SWAP1 PUSH2 0xA7E JUMP JUMPDEST PUSH1 0x40 MLOAD DUP1 SWAP2 SUB SWAP1 RETURN JUMPDEST PUSH2 0xC2 PUSH2 0x33F JUMP JUMPDEST PUSH1 0x40 MLOAD PUSH2 0xCF SWAP2 SWAP1 PUSH2 0xAA6 JUMP JUMPDEST PUSH1 0x40 MLOAD DUP1 SWAP2 SUB SWAP1 RETURN JUMPDEST PUSH2 0xF2 PUSH1 0x4 DUP1 CALLDATASIZE SUB DUP2 ADD SWAP1 PUSH2 0xED SWAP2 SWAP1 PUSH2 0xABF JUMP JUMPDEST PUSH2 0x344 JUMP JUMPDEST PUSH1 0x40 MLOAD PUSH2 0xFF SWAP2 SWAP1 PUSH2 0xA7E JUMP JUMPDEST PUSH1 0x40 MLOAD DUP1 SWAP2 SUB SWAP1 RETURN JUMPDEST PUSH2 0x122 PUSH1 0x4 DUP1 CALLDATASIZE SUB DUP2 ADD SWAP1 PUSH2 0x11D SWAP2 SWAP1 PUSH2 0xB0F JUMP JUMPDEST PUSH2 0x624 JUMP JUMPDEST STOP JUMPDEST PUSH2 0x13E PUSH1 0x4 DUP1 CALLDATASIZE SUB DUP2 ADD SWAP1 PUSH2 0x139 SWAP2 SWAP1 PUSH2 0xB3A JUMP JUMPDEST PUSH2 0x6F6 JUMP JUMPDEST PUSH1 0x40 MLOAD PUSH2 0x14B SWAP2 SWAP1 PUSH2 0xAA6 JUMP JUMPDEST PUSH1 0x40 MLOAD DUP1 SWAP2 SUB SWAP1 RETURN JUMPDEST PUSH2 0x16E PUSH1 0x4 DUP1 CALLDATASIZE SUB DUP2 ADD SWAP1 PUSH2 0x169 SWAP2 SWAP1 PUSH2 0xB0F JUMP JUMPDEST PUSH2 0x70B JUMP JUMPDEST STOP JUMPDEST PUSH2 0x18A PUSH1 0x4 DUP1 CALLDATASIZE SUB DUP2 ADD SWAP1 PUSH2 0x185 SWAP2 SWAP1 PUSH2 0xA26 JUMP JUMPDEST PUSH2 0x7DD JUMP JUMPDEST PUSH1 0x40 MLOAD PUSH2 0x197 SWAP2 SWAP1 PUSH2 0xA7E JUMP JUMPDEST PUSH1 0x40 MLOAD DUP1 SWAP2 SUB SWAP1 RETURN JUMPDEST PUSH2 0x1BA PUSH1 0x4 DUP1 CALLDATASIZE SUB DUP2 ADD SWAP1 PUSH2 0x1B5 SWAP2 SWAP1 PUSH2 0xB65 JUMP JUMPDEST PUSH2 0x975 JUMP JUMPDEST PUSH1 0x40 MLOAD PUSH2 0x1C7 SWAP2 SWAP1 PUSH2 0xAA6 JUMP JUMPDEST PUSH1 0x40 MLOAD DUP1 SWAP2 SUB SWAP1 RETURN JUMPDEST PUSH0 DUP2 DUP1 PUSH1 0x1 PUSH0 CALLER PUSH20 0xFFFFFFFFFFFFFFFFFFFFFFFFFFFFFFFFFFFFFFFF AND PUSH20 0xFFFFFFFFFFFFFFFFFFFFFFFFFFFFFFFFFFFFFFFF AND DUP2 MSTORE PUSH1 0x20 ADD SWAP1 DUP2 MSTORE PUSH1 0x20 ADD PUSH0 KECCAK256 SLOAD LT ISZERO PUSH2 0x252 JUMPI PUSH1 0x40 MLOAD PUSH32 0x8C379A000000000000000000000000000000000000000000000000000000000 DUP2 MSTORE PUSH1 0x4 ADD PUSH2 0x249 SWAP1 PUSH2 0xBFD JUMP JUMPDEST PUSH1 0x40 MLOAD DUP1 SWAP2 SUB SWAP1 REVERT JUMPDEST DUP3 PUSH1 0x2 PUSH0 CALLER PUSH20 0xFFFFFFFFFFFFFFFFFFFFFFFFFFFFFFFFFFFFFFFF AND PUSH20 0xFFFFFFFFFFFFFFFFFFFFFFFFFFFFFFFFFFFFFFFF AND DUP2 MSTORE PUSH1 0x20 ADD SWAP1 DUP2 MSTORE PUSH1 0x20 ADD PUSH0 KECCAK256 PUSH0 DUP7 PUSH20 0xFFFFFFFFFFFFFFFFFFFFFFFFFFFFFFFFFFFFFFFF AND PUSH20 0xFFFFFFFFFFFFFFFFFFFFFFFFFFFFFFFFFFFFFFFF AND DUP2 MSTORE PUSH1 0x20 ADD SWAP1 DUP2 MSTORE PUSH1 0x20 ADD PUSH0 KECCAK256 DUP2 SWAP1 SSTORE POP DUP4 PUSH20 0xFFFFFFFFFFFFFFFFFFFFFFFFFFFFFFFFFFFFFFFF AND CALLER PUSH20 0xFFFFFFFFFFFFFFFFFFFFFFFFFFFFFFFFFFFFFFFF AND PUSH32 0x8C5BE1E5EBEC7D5BD14F71427D1E84F3DD0314C0F7B2291E5B200AC8C7C3B925 DUP6 PUSH1 0x40 MLOAD PUSH2 0x32C SWAP2 SWAP1 PUSH2 0xAA6 JUMP JUMPDEST PUSH1 0x40 MLOAD DUP1 SWAP2 SUB SWAP1 LOG3 PUSH1 0x1 SWAP2 POP POP SWAP3 SWAP2 POP POP JUMP JUMPDEST PUSH0 SLOAD DUP2 JUMP JUMPDEST PUSH0 DUP2 PUSH1 0x2 PUSH0 DUP7 PUSH20 0xFFFFFFFFFFFFFFFFFFFFFFFFFFFFFFFFFFFFFFFF AND PUSH20 0xFFFFFFFFFFFFFFFFFFFFFFFFFFFFFFFFFFFFFFFF AND DUP2 MSTORE PUSH1 0x20 ADD SWAP1 DUP2 MSTORE PUSH1 0x20 ADD PUSH0 KECCAK256 PUSH0 CALLER PUSH20 0xFFFFFFFFFFFFFFFFFFFFFFFFFFFFFFFFFFFFFFFF AND PUSH20 0xFFFFFFFFFFFFFFFFFFFFFFFFFFFFFFFFFFFFFFFF AND DUP2 MSTORE PUSH1 0x20 ADD SWAP1 DUP2 MSTORE PUSH1 0x20 ADD PUSH0 KECCAK256 SLOAD LT ISZERO PUSH2 0x400 JUMPI PUSH1 0x40 MLOAD PUSH32 0x8C379A000000000000000000000000000000000000000000000000000000000 DUP2 MSTORE PUSH1 0x4 ADD PUSH2 0x3F7 SWAP1 PUSH2 0xBFD JUMP JUMPDEST PUSH1 0x40 MLOAD DUP1 SWAP2 SUB SWAP1 REVERT JUMPDEST DUP2 PUSH1 0x1 PUSH0 DUP7 PUSH20 0xFFFFFFFFFFFFFFFFFFFFFFFFFFFFFFFFFFFFFFFF AND PUSH20 0xFFFFFFFFFFFFFFFFFFFFFFFFFFFFFFFFFFFFFFFF AND DUP2 MSTORE PUSH1 0x20 ADD SWAP1 DUP2 MSTORE PUSH1 0x20 ADD PUSH0 KECCAK256 SLOAD LT ISZERO PUSH2 0x480 JUMPI PUSH1 0x40 MLOAD PUSH32 0x8C379A000000000000000000000000000000000000000000000000000000000 DUP2 MSTORE PUSH1 0x4 ADD PUSH2 0x477 SWAP1 PUSH2 0xBFD JUMP JUMPDEST PUSH1 0x40 MLOAD DUP1 SWAP2 SUB SWAP1 REVERT JUMPDEST DUP2 PUSH1 0x2 PUSH0 DUP7 PUSH20 0xFFFFFFFFFFFFFFFFFFFFFFFFFFFFFFFFFFFFFFFF AND PUSH20 0xFFFFFFFFFFFFFFFFFFFFFFFFFFFFFFFFFFFFFFFF AND DUP2 MSTORE PUSH1 0x20 ADD SWAP1 DUP2 MSTORE PUSH1 0x20 ADD PUSH0 KECCAK256 PUSH0 CALLER PUSH20 0xFFFFFFFFFFFFFFFFFFFFFFFFFFFFFFFFFFFFFFFF AND PUSH20 0xFFFFFFFFFFFFFFFFFFFFFFFFFFFFFFFFFFFFFFFF AND DUP2 MSTORE PUSH1 0x20 ADD SWAP1 DUP2 MSTORE PUSH1 0x20 ADD PUSH0 KECCAK256 PUSH0 DUP3 DUP3 SLOAD PUSH2 0x507 SWAP2 SWAP1 PUSH2 0xC48 JUMP JUMPDEST SWAP3 POP POP DUP2 SWAP1 SSTORE POP DUP2 PUSH1 0x1 PUSH0 DUP7 PUSH20 0xFFFFFFFFFFFFFFFFFFFFFFFFFFFFFFFFFFFFFFFF AND PUSH20 0xFFFFFFFFFFFFFFFFFFFFFFFFFFFFFFFFFFFFFFFF AND DUP2 MSTORE PUSH1 0x20 ADD SWAP1 DUP2 MSTORE PUSH1 0x20 ADD PUSH0 KECCAK256 PUSH0 DUP3 DUP3 SLOAD PUSH2 0x55A SWAP2 SWAP1 PUSH2 0xC48 JUMP JUMPDEST SWAP3 POP POP DUP2 SWAP1 SSTORE POP DUP2 PUSH1 0x1 PUSH0 DUP6 PUSH20 0xFFFFFFFFFFFFFFFFFFFFFFFFFFFFFFFFFFFFFFFF AND PUSH20 0xFFFFFFFFFFFFFFFFFFFFFFFFFFFFFFFFFFFFFFFF AND DUP2 MSTORE PUSH1 0x20 ADD SWAP1 DUP2 MSTORE PUSH1 0x20 ADD PUSH0 KECCAK256 PUSH0 DUP3 DUP3 SLOAD PUSH2 0x5AD SWAP2 SWAP1 PUSH2 0xC7B JUMP JUMPDEST SWAP3 POP POP DUP2 SWAP1 SSTORE POP DUP3 PUSH20 0xFFFFFFFFFFFFFFFFFFFFFFFFFFFFFFFFFFFFFFFF AND DUP5 PUSH20 0xFFFFFFFFFFFFFFFFFFFFFFFFFFFFFFFFFFFFFFFF AND PUSH32 0xDDF252AD1BE2C89B69C2B068FC378DAA952BA7F163C4A11628F55A4DF523B3EF DUP5 PUSH1 0x40 MLOAD PUSH2 0x611 SWAP2 SWAP1 PUSH2 0xAA6 JUMP JUMPDEST PUSH1 0x40 MLOAD DUP1 SWAP2 SUB SWAP1 LOG3 PUSH1 0x1 SWAP1 POP SWAP4 SWAP3 POP POP POP JUMP JUMPDEST DUP1 PUSH1 0x1 PUSH0 CALLER PUSH20 0xFFFFFFFFFFFFFFFFFFFFFFFFFFFFFFFFFFFFFFFF AND PUSH20 0xFFFFFFFFFFFFFFFFFFFFFFFFFFFFFFFFFFFFFFFF AND DUP2 MSTORE PUSH1 0x20 ADD SWAP1 DUP2 MSTORE PUSH1 0x20 ADD PUSH0 KECCAK256 PUSH0 DUP3 DUP3 SLOAD PUSH2 0x670 SWAP2 SWAP1 PUSH2 0xC48 JUMP JUMPDEST SWAP3 POP POP DUP2 SWAP1 SSTORE POP DUP1 PUSH0 PUSH0 DUP3 DUP3 SLOAD PUSH2 0x687 SWAP2 SWAP1 PUSH2 0xC48 JUMP JUMPDEST SWAP3 POP POP DUP2 SWAP1 SSTORE POP PUSH0 PUSH20 0xFFFFFFFFFFFFFFFFFFFFFFFFFFFFFFFFFFFFFFFF AND CALLER PUSH20 0xFFFFFFFFFFFFFFFFFFFFFFFFFFFFFFFFFFFFFFFF AND PUSH32 0xDDF252AD1BE2C89B69C2B068FC378DAA952BA7F163C4A11628F55A4DF523B3EF DUP4 PUSH1 0x40 MLOAD PUSH2 0x6EB SWAP2 SWAP1 PUSH2 0xAA6 JUMP JUMPDEST PUSH1 0x40 MLOAD DUP1 SWAP2 SUB SWAP1 LOG3 POP JUMP JUMPDEST PUSH1 0x1 PUSH1 0x20 MSTORE DUP1 PUSH0 MSTORE PUSH1 0x40 PUSH0 KECCAK256 PUSH0 SWAP2 POP SWAP1 POP SLOAD DUP2 JUMP JUMPDEST DUP1 PUSH1 0x1 PUSH0 CALLER PUSH20 0xFFFFFFFFFFFFFFFFFFFFFFFFFFFFFFFFFFFFFFFF AND PUSH20 0xFFFFFFFFFFFFFFFFFFFFFFFFFFFFFFFFFFFFFFFF AND DUP2 MSTORE PUSH1 0x20 ADD SWAP1 DUP2 MSTORE PUSH1 0x20 ADD PUSH0 KECCAK256 PUSH0 DUP3 DUP3 SLOAD PUSH2 0x757 SWAP2 SWAP1 PUSH2 0xC7B JUMP JUMPDEST SWAP3 POP POP DUP2 SWAP1 SSTORE POP DUP1 PUSH0 PUSH0 DUP3 DUP3 SLOAD PUSH2 0x76E SWAP2 SWAP1 PUSH2 0xC7B JUMP JUMPDEST SWAP3 POP POP DUP2 SWAP1 SSTORE POP CALLER PUSH20 0xFFFFFFFFFFFFFFFFFFFFFFFFFFFFFFFFFFFFFFFF AND PUSH0 PUSH20 0xFFFFFFFFFFFFFFFFFFFFFFFFFFFFFFFFFFFFFFFF AND PUSH32 0xDDF252AD1BE2C89B69C2B068FC378DAA952BA7F163C4A11628F55A4DF523B3EF DUP4 PUSH1 0x40 MLOAD PUSH2 0x7D2 SWAP2 SWAP1 PUSH2 0xAA6 JUMP JUMPDEST PUSH1 0x40 MLOAD DUP1 SWAP2 SUB SWAP1 LOG3 POP JUMP JUMPDEST PUSH0 DUP2 DUP1 PUSH1 0x1 PUSH0 CALLER PUSH20 0xFFFFFFFFFFFFFFFFFFFFFFFFFFFFFFFFFFFFFFFF AND PUSH20 0xFFFFFFFFFFFFFFFFFFFFFFFFFFFFFFFFFFFFFFFF AND DUP2 MSTORE PUSH1 0x20 ADD SWAP1 DUP2 MSTORE PUSH1 0x20 ADD PUSH0 KECCAK256 SLOAD LT ISZERO PUSH2 0x85F JUMPI PUSH1 0x40 MLOAD PUSH32 0x8C379A000000000000000000000000000000000000000000000000000000000 DUP2 MSTORE PUSH1 0x4 ADD PUSH2 0x856 SWAP1 PUSH2 0xBFD JUMP JUMPDEST PUSH1 0x40 MLOAD DUP1 SWAP2 SUB SWAP1 REVERT JUMPDEST DUP3 PUSH1 0x1 PUSH0 CALLER PUSH20 0xFFFFFFFFFFFFFFFFFFFFFFFFFFFFFFFFFFFFFFFF AND PUSH20 0xFFFFFFFFFFFFFFFFFFFFFFFFFFFFFFFFFFFFFFFF AND DUP2 MSTORE PUSH1 0x20 ADD SWAP1 DUP2 MSTORE PUSH1 0x20 ADD PUSH0 KECCAK256 PUSH0 DUP3 DUP3 SLOAD PUSH2 0x8AB SWAP2 SWAP1 PUSH2 0xC48 JUMP JUMPDEST SWAP3 POP POP DUP2 SWAP1 SSTORE POP DUP3 PUSH1 0x1 PUSH0 DUP7 PUSH20 0xFFFFFFFFFFFFFFFFFFFFFFFFFFFFFFFFFFFFFFFF AND PUSH20 0xFFFFFFFFFFFFFFFFFFFFFFFFFFFFFFFFFFFFFFFF AND DUP2 MSTORE PUSH1 0x20 ADD SWAP1 DUP2 MSTORE PUSH1 0x20 ADD PUSH0 KECCAK256 PUSH0 DUP3 DUP3 SLOAD PUSH2 0x8FE SWAP2 SWAP1 PUSH2 0xC7B JUMP JUMPDEST SWAP3 POP POP DUP2 SWAP1 SSTORE POP DUP4 PUSH20 0xFFFFFFFFFFFFFFFFFFFFFFFFFFFFFFFFFFFFFFFF AND CALLER PUSH20 0xFFFFFFFFFFFFFFFFFFFFFFFFFFFFFFFFFFFFFFFF AND PUSH32 0xDDF252AD1BE2C89B69C2B068FC378DAA952BA7F163C4A11628F55A4DF523B3EF DUP6 PUSH1 0x40 MLOAD PUSH2 0x962 SWAP2 SWAP1 PUSH2 0xAA6 JUMP JUMPDEST PUSH1 0x40 MLOAD DUP1 SWAP2 SUB SWAP1 LOG3 PUSH1 0x1 SWAP2 POP POP SWAP3 SWAP2 POP POP JUMP JUMPDEST PUSH1 0x2 PUSH1 0x20 MSTORE DUP2 PUSH0 MSTORE PUSH1 0x40 PUSH0 KECCAK256 PUSH1 0x20 MSTORE DUP1 PUSH0 MSTORE PUSH1 0x40 PUSH0 KECCAK256 PUSH0 SWAP2 POP SWAP2 POP POP SLOAD DUP2 JUMP JUMPDEST PUSH0 PUSH0 REVERT JUMPDEST PUSH0 PUSH20 0xFFFFFFFFFFFFFFFFFFFFFFFFFFFFFFFFFFFFFFFF DUP3 AND SWAP1 POP SWAP2 SWAP1 POP JUMP JUMPDEST PUSH0 PUSH2 0x9C2 DUP3 PUSH2 0x999 JUMP JUMPDEST SWAP1 POP SWAP2 SWAP1 POP JUMP JUMPDEST PUSH2 0x9D2 DUP2 PUSH2 0x9B8 JUMP JUMPDEST DUP2 EQ PUSH2 0x9DC JUMPI PUSH0 PUSH0 REVERT JUMPDEST POP JUMP JUMPDEST PUSH0 DUP2 CALLDATALOAD SWAP1 POP PUSH2 0x9ED DUP2 PUSH2 0x9C9 JUMP JUMPDEST SWAP3 SWAP2 POP POP JUMP JUMPDEST PUSH0 DUP2 SWAP1 POP SWAP2 SWAP1 POP JUMP JUMPDEST PUSH2 0xA05 DUP2 PUSH2 0x9F3 JUMP JUMPDEST DUP2 EQ PUSH2 0xA0F JUMPI PUSH0 PUSH0 REVERT JUMPDEST POP JUMP JUMPDEST PUSH0 DUP2 CALLDATALOAD SWAP1 POP PUSH2 0xA20 DUP2 PUSH2 0x9FC JUMP JUMPDEST SWAP3 SWAP2 POP POP JUMP JUMPDEST PUSH0 PUSH0 PUSH1 0x40 DUP4 DUP6 SUB SLT ISZERO PUSH2 0xA3C JUMPI PUSH2 0xA3B PUSH2 0x995 JUMP JUMPDEST JUMPDEST PUSH0 PUSH2 0xA49 DUP6 DUP3 DUP7 ADD PUSH2 0x9DF JUMP JUMPDEST SWAP3 POP POP PUSH1 0x20 PUSH2 0xA5A DUP6 DUP3 DUP7 ADD PUSH2 0xA12 JUMP JUMPDEST SWAP2 POP POP SWAP3 POP SWAP3 SWAP1 POP JUMP JUMPDEST PUSH0 DUP2 ISZERO ISZERO SWAP1 POP SWAP2 SWAP1 POP JUMP JUMPDEST PUSH2 0xA78 DUP2 PUSH2 0xA64 JUMP JUMPDEST DUP3 MSTORE POP POP JUMP JUMPDEST PUSH0 PUSH1 0x20 DUP3 ADD SWAP1 POP PUSH2 0xA91 PUSH0 DUP4 ADD DUP5 PUSH2 0xA6F JUMP JUMPDEST SWAP3 SWAP2 POP POP JUMP JUMPDEST PUSH2 0xAA0 DUP2 PUSH2 0x9F3 JUMP JUMPDEST DUP3 MSTORE POP POP JUMP JUMPDEST PUSH0 PUSH1 0x20 DUP3 ADD SWAP1 POP PUSH2 0xAB9 PUSH0 DUP4 ADD DUP5 PUSH2 0xA97 JUMP JUMPDEST SWAP3 SWAP2 POP POP JUMP JUMPDEST PUSH0 PUSH0 PUSH0 PUSH1 0x60 DUP5 DUP7 SUB SLT ISZERO PUSH2 0xAD6 JUMPI PUSH2 0xAD5 PUSH2 0x995 JUMP JUMPDEST JUMPDEST PUSH0 PUSH2 0xAE3 DUP7 DUP3 DUP8 ADD PUSH2 0x9DF JUMP JUMPDEST SWAP4 POP POP PUSH1 0x20 PUSH2 0xAF4 DUP7 DUP3 DUP8 ADD PUSH2 0x9DF JUMP JUMPDEST SWAP3 POP POP PUSH1 0x40 PUSH2 0xB05 DUP7 DUP3 DUP8 ADD PUSH2 0xA12 JUMP JUMPDEST SWAP2 POP POP SWAP3 POP SWAP3 POP SWAP3 JUMP JUMPDEST PUSH0 PUSH1 0x20 DUP3 DUP5 SUB SLT ISZERO PUSH2 0xB24 JUMPI PUSH2 0xB23 PUSH2 0x995 JUMP JUMPDEST JUMPDEST PUSH0 PUSH2 0xB31 DUP5 DUP3 DUP6 ADD PUSH2 0xA12 JUMP JUMPDEST SWAP2 POP POP SWAP3 SWAP2 POP POP JUMP JUMPDEST PUSH0 PUSH1 0x20 DUP3 DUP5 SUB SLT ISZERO PUSH2 0xB4F JUMPI PUSH2 0xB4E PUSH2 0x995 JUMP JUMPDEST JUMPDEST PUSH0 PUSH2 0xB5C DUP5 DUP3 DUP6 ADD PUSH2 0x9DF JUMP JUMPDEST SWAP2 POP POP SWAP3 SWAP2 POP POP JUMP JUMPDEST PUSH0 PUSH0 PUSH1 0x40 DUP4 DUP6 SUB SLT ISZERO PUSH2 0xB7B JUMPI PUSH2 0xB7A PUSH2 0x995 JUMP JUMPDEST JUMPDEST PUSH0 PUSH2 0xB88 DUP6 DUP3 DUP7 ADD PUSH2 0x9DF JUMP JUMPDEST SWAP3 POP POP PUSH1 0x20 PUSH2 0xB99 DUP6 DUP3 DUP7 ADD PUSH2 0x9DF JUMP JUMPDEST SWAP2 POP POP SWAP3 POP SWAP3 SWAP1 POP JUMP JUMPDEST PUSH0 DUP3 DUP3 MSTORE PUSH1 0x20 DUP3 ADD SWAP1 POP SWAP3 SWAP2 POP POP JUMP JUMPDEST PUSH32 0x616D6F756E74206973206E6F7420656E6F756768000000000000000000000000 PUSH0 DUP3 ADD MSTORE POP JUMP JUMPDEST PUSH0 PUSH2 0xBE7 PUSH1 0x14 DUP4 PUSH2 0xBA3 JUMP JUMPDEST SWAP2 POP PUSH2 0xBF2 DUP3 PUSH2 0xBB3 JUMP JUMPDEST PUSH1 0x20 DUP3 ADD SWAP1 POP SWAP2 SWAP1 POP JUMP JUMPDEST PUSH0 PUSH1 0x20 DUP3 ADD SWAP1 POP DUP2 DUP2 SUB PUSH0 DUP4 ADD MSTORE PUSH2 0xC14 DUP2 PUSH2 0xBDB JUMP JUMPDEST SWAP1 POP SWAP2 SWAP1 POP JUMP JUMPDEST PUSH32 0x4E487B7100000000000000000000000000000000000000000000000000000000 PUSH0 MSTORE PUSH1 0x11 PUSH1 0x4 MSTORE PUSH1 0x24 PUSH0 REVERT JUMPDEST PUSH0 PUSH2 0xC52 DUP3 PUSH2 0x9F3 JUMP JUMPDEST SWAP2 POP PUSH2 0xC5D DUP4 PUSH2 0x9F3 JUMP JUMPDEST SWAP3 POP DUP3 DUP3 SUB SWAP1 POP DUP2 DUP2 GT ISZERO PUSH2 0xC75 JUMPI PUSH2 0xC74 PUSH2 0xC1B JUMP JUMPDEST JUMPDEST SWAP3 SWAP2 POP POP JUMP JUMPDEST PUSH0 PUSH2 0xC85 DUP3 PUSH2 0x9F3 JUMP JUMPDEST SWAP2 POP PUSH2 0xC90 DUP4 PUSH2 0x9F3 JUMP JUMPDEST SWAP3 POP DUP3 DUP3 ADD SWAP1 POP DUP1 DUP3 GT ISZERO PUSH2 0xCA8 JUMPI PUSH2 0xCA7 PUSH2 0xC1B JUMP JUMPDEST JUMPDEST SWAP3 SWAP2 POP POP JUMP INVALID LOG2 PUSH5 0x6970667358 0x22 SLT KECCAK256 0xD7 SLOAD PUSH5 0x6E469AE64F 0xB2 PUSH25 0x1302A7133FC49C54BC8CD74C3AB592E0142FB33843AE64736F PUSH13 0x634300081E0033000000000000 "
				},
				"gasEstimates": {
					"creation": {
						"codeDepositCost": "660000",
						"executionCost": "694",
						"totalCost": "660694"
					},
					"external": {
						"allowance(address,address)": "infinite",
						"approve(address,uint256)": "infinite",
						"balanceOf(address)": "2802",
						"burn(uint256)": "infinite",
						"mint(uint256)": "infinite",
						"totalSupply()": "2447",
						"transfer(address,uint256)": "infinite",
						"transferFrom(address,address,uint256)": "infinite"
					}
				},
				"methodIdentifiers": {
					"allowance(address,address)": "dd62ed3e",
					"approve(address,uint256)": "095ea7b3",
					"balanceOf(address)": "70a08231",
					"burn(uint256)": "42966c68",
					"mint(uint256)": "a0712d68",
					"totalSupply()": "18160ddd",
					"transfer(address,uint256)": "a9059cbb",
					"transferFrom(address,address,uint256)": "23b872dd"
				}
			},
			"storageLayout": {
				"storage": [
					{
						"astId": 79,
						"contract": "contracts/base/ERC20Test.sol:ERC20Impl2",
						"label": "totalSupply",
						"offset": 0,
						"slot": "0",
						"type": "t_uint256"
					},
					{
						"astId": 84,
						"contract": "contracts/base/ERC20Test.sol:ERC20Impl2",
						"label": "balanceOf",
						"offset": 0,
						"slot": "1",
						"type": "t_mapping(t_address,t_uint256)"
					},
					{
						"astId": 91,
						"contract": "contracts/base/ERC20Test.sol:ERC20Impl2",
						"label": "allowance",
						"offset": 0,
						"slot": "2",
						"type": "t_mapping(t_address,t_mapping(t_address,t_uint256))"
					}
				],
				"types": {
					"t_address": {
						"encoding": "inplace",
						"label": "address",
						"numberOfBytes": "20"
					},
					"t_mapping(t_address,t_mapping(t_address,t_uint256))": {
						"encoding": "mapping",
						"key": "t_address",
						"label": "mapping(address => mapping(address => uint256))",
						"numberOfBytes": "32",
						"value": "t_mapping(t_address,t_uint256)"
					},
					"t_mapping(t_address,t_uint256)": {
						"encoding": "mapping",
						"key": "t_address",
						"label": "mapping(address => uint256)",
						"numberOfBytes": "32",
						"value": "t_uint256"
					},
					"t_uint256": {
						"encoding": "inplace",
						"label": "uint256",
						"numberOfBytes": "32"
					}
				}
			},
			"userdoc": {
				"kind": "user",
				"methods": {},
				"version": 1
			}
		}
	}
}