{
	"contracts/base/GasGolf.sol": {
		"TimeLock": {
			"abi": [
				{
					"inputs": [],
					"stateMutability": "nonpayable",
					"type": "constructor"
				},
				{
					"inputs": [
						{
							"internalType": "bytes32",
							"name": "txId",
							"type": "bytes32"
						}
					],
					"name": "AlreadyQueuedError",
					"type": "error"
				},
				{
					"inputs": [
						{
							"internalType": "bytes32",
							"name": "txId",
							"type": "bytes32"
						}
					],
					"name": "CallFailError",
					"type": "error"
				},
				{
					"inputs": [
						{
							"internalType": "bytes32",
							"name": "txId",
							"type": "bytes32"
						}
					],
					"name": "CancelError",
					"type": "error"
				},
				{
					"inputs": [
						{
							"internalType": "address",
							"name": "_to",
							"type": "address"
						},
						{
							"internalType": "uint256",
							"name": "_amont",
							"type": "uint256"
						},
						{
							"internalType": "string",
							"name": "funName",
							"type": "string"
						},
						{
							"internalType": "uint256",
							"name": "timestamp",
							"type": "uint256"
						}
					],
					"name": "QueuedTxNotExist",
					"type": "error"
				},
				{
					"inputs": [
						{
							"internalType": "address",
							"name": "_to",
							"type": "address"
						},
						{
							"internalType": "uint256",
							"name": "_amont",
							"type": "uint256"
						},
						{
							"internalType": "string",
							"name": "funName",
							"type": "string"
						},
						{
							"internalType": "uint256",
							"name": "timestamp",
							"type": "uint256"
						},
						{
							"internalType": "string",
							"name": "errorMessage",
							"type": "string"
						}
					],
					"name": "TimeError",
					"type": "error"
				},
				{
					"anonymous": false,
					"inputs": [
						{
							"indexed": false,
							"internalType": "bytes32",
							"name": "_txId",
							"type": "bytes32"
						}
					],
					"name": "CancelSuceess",
					"type": "event"
				},
				{
					"anonymous": false,
					"inputs": [
						{
							"indexed": false,
							"internalType": "bytes32",
							"name": "txId",
							"type": "bytes32"
						}
					],
					"name": "TransactionExecuteSuccess",
					"type": "event"
				},
				{
					"anonymous": false,
					"inputs": [
						{
							"indexed": false,
							"internalType": "address",
							"name": "_to",
							"type": "address"
						},
						{
							"indexed": false,
							"internalType": "uint256",
							"name": "_amont",
							"type": "uint256"
						},
						{
							"indexed": false,
							"internalType": "string",
							"name": "funName",
							"type": "string"
						},
						{
							"indexed": false,
							"internalType": "uint256",
							"name": "timestamp",
							"type": "uint256"
						}
					],
					"name": "TransactionQueueing",
					"type": "event"
				},
				{
					"inputs": [],
					"name": "MAX_TIME",
					"outputs": [
						{
							"internalType": "uint256",
							"name": "",
							"type": "uint256"
						}
					],
					"stateMutability": "view",
					"type": "function"
				},
				{
					"inputs": [],
					"name": "MIN_TIME",
					"outputs": [
						{
							"internalType": "uint256",
							"name": "",
							"type": "uint256"
						}
					],
					"stateMutability": "view",
					"type": "function"
				},
				{
					"inputs": [
						{
							"internalType": "bytes32",
							"name": "_txId",
							"type": "bytes32"
						}
					],
					"name": "cancel",
					"outputs": [],
					"stateMutability": "nonpayable",
					"type": "function"
				},
				{
					"inputs": [
						{
							"internalType": "address",
							"name": "_to",
							"type": "address"
						},
						{
							"internalType": "uint256",
							"name": "_amont",
							"type": "uint256"
						},
						{
							"internalType": "string",
							"name": "funName",
							"type": "string"
						},
						{
							"internalType": "uint256",
							"name": "timestamp",
							"type": "uint256"
						},
						{
							"internalType": "bytes",
							"name": "_data",
							"type": "bytes"
						}
					],
					"name": "execute",
					"outputs": [
						{
							"internalType": "bool",
							"name": "",
							"type": "bool"
						}
					],
					"stateMutability": "payable",
					"type": "function"
				},
				{
					"inputs": [],
					"name": "owner",
					"outputs": [
						{
							"internalType": "address",
							"name": "",
							"type": "address"
						}
					],
					"stateMutability": "view",
					"type": "function"
				},
				{
					"inputs": [
						{
							"internalType": "address",
							"name": "_to",
							"type": "address"
						},
						{
							"internalType": "uint256",
							"name": "_amont",
							"type": "uint256"
						},
						{
							"internalType": "string",
							"name": "funName",
							"type": "string"
						},
						{
							"internalType": "uint256",
							"name": "timestamp",
							"type": "uint256"
						}
					],
					"name": "queue",
					"outputs": [
						{
							"internalType": "bool",
							"name": "",
							"type": "bool"
						}
					],
					"stateMutability": "nonpayable",
					"type": "function"
				},
				{
					"inputs": [
						{
							"internalType": "bytes32",
							"name": "",
							"type": "bytes32"
						}
					],
					"name": "queueMapping",
					"outputs": [
						{
							"internalType": "bool",
							"name": "",
							"type": "bool"
						}
					],
					"stateMutability": "view",
					"type": "function"
				},
				{
					"stateMutability": "payable",
					"type": "receive"
				}
			],
			"devdoc": {
				"kind": "dev",
				"methods": {},
				"version": 1
			},
			"evm": {
				"assembly": "    /* \"contracts/base/GasGolf.sol\":529:4446  contract TimeLock {... */\n  mstore(0x40, 0x80)\n    /* \"contracts/base/GasGolf.sol\":1514:1565  constructor() {... */\n  callvalue\n  dup1\n  iszero\n  tag_1\n  jumpi\n  revert(0x00, 0x00)\ntag_1:\n  pop\n    /* \"contracts/base/GasGolf.sol\":1547:1557  msg.sender */\n  caller\n    /* \"contracts/base/GasGolf.sol\":1539:1544  owner */\n  0x01\n  0x00\n    /* \"contracts/base/GasGolf.sol\":1539:1557  owner = msg.sender */\n  0x0100\n  exp\n  dup2\n  sload\n  dup2\n  0xffffffffffffffffffffffffffffffffffffffff\n  mul\n  not\n  and\n  swap1\n  dup4\n  0xffffffffffffffffffffffffffffffffffffffff\n  and\n  mul\n  or\n  swap1\n  sstore\n  pop\n    /* \"contracts/base/GasGolf.sol\":529:4446  contract TimeLock {... */\n  dataSize(sub_0)\n  dup1\n  dataOffset(sub_0)\n  0x00\n  codecopy\n  0x00\n  return\nstop\n\nsub_0: assembly {\n        /* \"contracts/base/GasGolf.sol\":529:4446  contract TimeLock {... */\n      mstore(0x40, 0x80)\n      jumpi(tag_1, lt(calldatasize, 0x04))\n      shr(0xe0, calldataload(0x00))\n      dup1\n      0x8ff07b5b\n      gt\n      tag_10\n      jumpi\n      dup1\n      0x8ff07b5b\n      eq\n      tag_6\n      jumpi\n      dup1\n      0x9fbe8f1d\n      eq\n      tag_7\n      jumpi\n      dup1\n      0xa8fc999e\n      eq\n      tag_8\n      jumpi\n      dup1\n      0xc4d252f5\n      eq\n      tag_9\n      jumpi\n      jump(tag_2)\n    tag_10:\n      dup1\n      0x161dabef\n      eq\n      tag_3\n      jumpi\n      dup1\n      0x26949984\n      eq\n      tag_4\n      jumpi\n      dup1\n      0x8da5cb5b\n      eq\n      tag_5\n      jumpi\n      jump(tag_2)\n    tag_1:\n      jumpi(tag_2, calldatasize)\n      stop\n    tag_2:\n      revert(0x00, 0x00)\n        /* \"contracts/base/GasGolf.sol\":3013:4239  function execute(address _to, uint _amont,string calldata funName,uint timestamp,bytes calldata _data) payable external onlyOwner returns (bool){... */\n    tag_3:\n      tag_13\n      0x04\n      dup1\n      calldatasize\n      sub\n      dup2\n      add\n      swap1\n      tag_14\n      swap2\n      swap1\n      tag_15\n      jump\t// in\n    tag_14:\n      tag_16\n      jump\t// in\n    tag_13:\n      mload(0x40)\n      tag_17\n      swap2\n      swap1\n      tag_18\n      jump\t// in\n    tag_17:\n      mload(0x40)\n      dup1\n      swap2\n      sub\n      swap1\n      return\n        /* \"contracts/base/GasGolf.sol\":762:798  uint public constant MAX_TIME = 1000 */\n    tag_4:\n      callvalue\n      dup1\n      iszero\n      tag_19\n      jumpi\n      revert(0x00, 0x00)\n    tag_19:\n      pop\n      tag_20\n      tag_21\n      jump\t// in\n    tag_20:\n      mload(0x40)\n      tag_22\n      swap2\n      swap1\n      tag_23\n      jump\t// in\n    tag_22:\n      mload(0x40)\n      dup1\n      swap2\n      sub\n      swap1\n      return\n        /* \"contracts/base/GasGolf.sol\":692:712  address public owner */\n    tag_5:\n      callvalue\n      dup1\n      iszero\n      tag_24\n      jumpi\n      revert(0x00, 0x00)\n    tag_24:\n      pop\n      tag_25\n      tag_26\n      jump\t// in\n    tag_25:\n      mload(0x40)\n      tag_27\n      swap2\n      swap1\n      tag_28\n      jump\t// in\n    tag_27:\n      mload(0x40)\n      dup1\n      swap2\n      sub\n      swap1\n      return\n        /* \"contracts/base/GasGolf.sol\":721:755  uint public constant MIN_TIME = 10 */\n    tag_6:\n      callvalue\n      dup1\n      iszero\n      tag_29\n      jumpi\n      revert(0x00, 0x00)\n    tag_29:\n      pop\n      tag_30\n      tag_31\n      jump\t// in\n    tag_30:\n      mload(0x40)\n      tag_32\n      swap2\n      swap1\n      tag_23\n      jump\t// in\n    tag_32:\n      mload(0x40)\n      dup1\n      swap2\n      sub\n      swap1\n      return\n        /* \"contracts/base/GasGolf.sol\":618:662  mapping(bytes32 => bool) public queueMapping */\n    tag_7:\n      callvalue\n      dup1\n      iszero\n      tag_33\n      jumpi\n      revert(0x00, 0x00)\n    tag_33:\n      pop\n      tag_34\n      0x04\n      dup1\n      calldatasize\n      sub\n      dup2\n      add\n      swap1\n      tag_35\n      swap2\n      swap1\n      tag_36\n      jump\t// in\n    tag_35:\n      tag_37\n      jump\t// in\n    tag_34:\n      mload(0x40)\n      tag_38\n      swap2\n      swap1\n      tag_18\n      jump\t// in\n    tag_38:\n      mload(0x40)\n      dup1\n      swap2\n      sub\n      swap1\n      return\n        /* \"contracts/base/GasGolf.sol\":1876:2628  function queue(address _to, uint _amont,string calldata funName,uint timestamp) onlyOwner  public returns (bool)  {... */\n    tag_8:\n      callvalue\n      dup1\n      iszero\n      tag_39\n      jumpi\n      revert(0x00, 0x00)\n    tag_39:\n      pop\n      tag_40\n      0x04\n      dup1\n      calldatasize\n      sub\n      dup2\n      add\n      swap1\n      tag_41\n      swap2\n      swap1\n      tag_42\n      jump\t// in\n    tag_41:\n      tag_43\n      jump\t// in\n    tag_40:\n      mload(0x40)\n      tag_44\n      swap2\n      swap1\n      tag_18\n      jump\t// in\n    tag_44:\n      mload(0x40)\n      dup1\n      swap2\n      sub\n      swap1\n      return\n        /* \"contracts/base/GasGolf.sol\":4247:4443  function cancel(bytes32 _txId) external onlyOwner {... */\n    tag_9:\n      callvalue\n      dup1\n      iszero\n      tag_45\n      jumpi\n      revert(0x00, 0x00)\n    tag_45:\n      pop\n      tag_46\n      0x04\n      dup1\n      calldatasize\n      sub\n      dup2\n      add\n      swap1\n      tag_47\n      swap2\n      swap1\n      tag_36\n      jump\t// in\n    tag_47:\n      tag_48\n      jump\t// in\n    tag_46:\n      stop\n        /* \"contracts/base/GasGolf.sol\":3013:4239  function execute(address _to, uint _amont,string calldata funName,uint timestamp,bytes calldata _data) payable external onlyOwner returns (bool){... */\n    tag_16:\n        /* \"contracts/base/GasGolf.sol\":3152:3156  bool */\n      0x00\n        /* \"contracts/base/GasGolf.sol\":1666:1671  owner */\n      0x01\n      0x00\n      swap1\n      sload\n      swap1\n      0x0100\n      exp\n      swap1\n      div\n      0xffffffffffffffffffffffffffffffffffffffff\n      and\n        /* \"contracts/base/GasGolf.sol\":1654:1671  msg.sender==owner */\n      0xffffffffffffffffffffffffffffffffffffffff\n      and\n        /* \"contracts/base/GasGolf.sol\":1654:1664  msg.sender */\n      caller\n        /* \"contracts/base/GasGolf.sol\":1654:1671  msg.sender==owner */\n      0xffffffffffffffffffffffffffffffffffffffff\n      and\n      eq\n        /* \"contracts/base/GasGolf.sol\":1646:1684  require(msg.sender==owner,\"not owner\") */\n      tag_50\n      jumpi\n      mload(0x40)\n      0x08c379a000000000000000000000000000000000000000000000000000000000\n      dup2\n      mstore\n      0x04\n      add\n      tag_51\n      swap1\n      tag_52\n      jump\t// in\n    tag_51:\n      mload(0x40)\n      dup1\n      swap2\n      sub\n      swap1\n      revert\n    tag_50:\n        /* \"contracts/base/GasGolf.sol\":3191:3192  0 */\n      0x00\n        /* \"contracts/base/GasGolf.sol\":3176:3193  _to != address(0) */\n      0xffffffffffffffffffffffffffffffffffffffff\n      and\n        /* \"contracts/base/GasGolf.sol\":3176:3179  _to */\n      dup9\n        /* \"contracts/base/GasGolf.sol\":3176:3193  _to != address(0) */\n      0xffffffffffffffffffffffffffffffffffffffff\n      and\n      sub\n        /* \"contracts/base/GasGolf.sol\":3168:3232  require(_to != address(0), \"_to address cannot be address zero\") */\n      tag_54\n      jumpi\n      mload(0x40)\n      0x08c379a000000000000000000000000000000000000000000000000000000000\n      dup2\n      mstore\n      0x04\n      add\n      tag_55\n      swap1\n      tag_56\n      jump\t// in\n    tag_55:\n      mload(0x40)\n      dup1\n      swap2\n      sub\n      swap1\n      revert\n    tag_54:\n        /* \"contracts/base/GasGolf.sol\":3264:3265  0 */\n      0x00\n        /* \"contracts/base/GasGolf.sol\":3251:3260  timestamp */\n      dup5\n        /* \"contracts/base/GasGolf.sol\":3251:3265  timestamp != 0 */\n      sub\n        /* \"contracts/base/GasGolf.sol\":3243:3294  require(timestamp != 0, \"timestamp cannot be zero\") */\n      tag_57\n      jumpi\n      mload(0x40)\n      0x08c379a000000000000000000000000000000000000000000000000000000000\n      dup2\n      mstore\n      0x04\n      add\n      tag_58\n      swap1\n      tag_59\n      jump\t// in\n    tag_58:\n      mload(0x40)\n      dup1\n      swap2\n      sub\n      swap1\n      revert\n    tag_57:\n        /* \"contracts/base/GasGolf.sol\":3307:3319  bytes32 txId */\n      0x00\n        /* \"contracts/base/GasGolf.sol\":3322:3359  getTxId(_to,_amont,funName,timestamp) */\n      tag_60\n        /* \"contracts/base/GasGolf.sol\":3330:3333  _to */\n      dup10\n        /* \"contracts/base/GasGolf.sol\":3334:3340  _amont */\n      dup10\n        /* \"contracts/base/GasGolf.sol\":3341:3348  funName */\n      dup10\n      dup10\n        /* \"contracts/base/GasGolf.sol\":3349:3358  timestamp */\n      dup10\n        /* \"contracts/base/GasGolf.sol\":3322:3329  getTxId */\n      tag_61\n        /* \"contracts/base/GasGolf.sol\":3322:3359  getTxId(_to,_amont,funName,timestamp) */\n      jump\t// in\n    tag_60:\n        /* \"contracts/base/GasGolf.sol\":3307:3359  bytes32 txId = getTxId(_to,_amont,funName,timestamp) */\n      swap1\n      pop\n        /* \"contracts/base/GasGolf.sol\":3375:3387  queueMapping */\n      0x00\n        /* \"contracts/base/GasGolf.sol\":3375:3393  queueMapping[txId] */\n      0x00\n        /* \"contracts/base/GasGolf.sol\":3388:3392  txId */\n      dup3\n        /* \"contracts/base/GasGolf.sol\":3375:3393  queueMapping[txId] */\n      dup2\n      mstore\n      0x20\n      add\n      swap1\n      dup2\n      mstore\n      0x20\n      add\n      0x00\n      keccak256\n      0x00\n      swap1\n      sload\n      swap1\n      0x0100\n      exp\n      swap1\n      div\n      0xff\n      and\n        /* \"contracts/base/GasGolf.sol\":3370:3477  if (!queueMapping[txId]){... */\n      tag_62\n      jumpi\n        /* \"contracts/base/GasGolf.sol\":3433:3436  _to */\n      dup9\n        /* \"contracts/base/GasGolf.sol\":3437:3443  _amont */\n      dup9\n        /* \"contracts/base/GasGolf.sol\":3446:3453  funName */\n      dup9\n      dup9\n        /* \"contracts/base/GasGolf.sol\":3455:3464  timestamp */\n      dup9\n        /* \"contracts/base/GasGolf.sol\":3416:3465  QueuedTxNotExist(_to,_amont , funName ,timestamp) */\n      mload(0x40)\n      0x6aceb94d00000000000000000000000000000000000000000000000000000000\n      dup2\n      mstore\n      0x04\n      add\n      tag_63\n      swap6\n      swap5\n      swap4\n      swap3\n      swap2\n      swap1\n      tag_64\n      jump\t// in\n    tag_63:\n      mload(0x40)\n      dup1\n      swap2\n      sub\n      swap1\n      revert\n        /* \"contracts/base/GasGolf.sol\":3370:3477  if (!queueMapping[txId]){... */\n    tag_62:\n        /* \"contracts/base/GasGolf.sol\":753:755  10 */\n      0x0a\n        /* \"contracts/base/GasGolf.sol\":3535:3544  timestamp */\n      dup6\n        /* \"contracts/base/GasGolf.sol\":3535:3554  timestamp+ MIN_TIME */\n      tag_65\n      swap2\n      swap1\n      tag_66\n      jump\t// in\n    tag_65:\n        /* \"contracts/base/GasGolf.sol\":3515:3530  block.timestamp */\n      timestamp\n        /* \"contracts/base/GasGolf.sol\":3515:3554  block.timestamp   < timestamp+ MIN_TIME */\n      lt\n        /* \"contracts/base/GasGolf.sol\":3515:3598  block.timestamp   < timestamp+ MIN_TIME || block.timestamp   >  timestamp+ MAX_TIME */\n      dup1\n      tag_67\n      jumpi\n      pop\n        /* \"contracts/base/GasGolf.sol\":794:798  1000 */\n      0x03e8\n        /* \"contracts/base/GasGolf.sol\":3579:3588  timestamp */\n      dup6\n        /* \"contracts/base/GasGolf.sol\":3579:3598  timestamp+ MAX_TIME */\n      tag_68\n      swap2\n      swap1\n      tag_66\n      jump\t// in\n    tag_68:\n        /* \"contracts/base/GasGolf.sol\":3558:3573  block.timestamp */\n      timestamp\n        /* \"contracts/base/GasGolf.sol\":3558:3598  block.timestamp   >  timestamp+ MAX_TIME */\n      gt\n        /* \"contracts/base/GasGolf.sol\":3515:3598  block.timestamp   < timestamp+ MIN_TIME || block.timestamp   >  timestamp+ MAX_TIME */\n    tag_67:\n        /* \"contracts/base/GasGolf.sol\":3512:3698  if(block.timestamp   < timestamp+ MIN_TIME || block.timestamp   >  timestamp+ MAX_TIME) {... */\n      iszero\n      tag_69\n      jumpi\n        /* \"contracts/base/GasGolf.sol\":3632:3635  _to */\n      dup9\n        /* \"contracts/base/GasGolf.sol\":3637:3643  _amont */\n      dup9\n        /* \"contracts/base/GasGolf.sol\":3646:3653  funName */\n      dup9\n      dup9\n        /* \"contracts/base/GasGolf.sol\":3655:3664  timestamp */\n      dup9\n        /* \"contracts/base/GasGolf.sol\":3622:3686  TimeError(_to, _amont , funName ,timestamp,\"execute time error\") */\n      mload(0x40)\n      0x0ff2c46600000000000000000000000000000000000000000000000000000000\n      dup2\n      mstore\n      0x04\n      add\n      tag_70\n      swap6\n      swap5\n      swap4\n      swap3\n      swap2\n      swap1\n      tag_71\n      jump\t// in\n    tag_70:\n      mload(0x40)\n      dup1\n      swap2\n      sub\n      swap1\n      revert\n        /* \"contracts/base/GasGolf.sol\":3512:3698  if(block.timestamp   < timestamp+ MIN_TIME || block.timestamp   >  timestamp+ MAX_TIME) {... */\n    tag_69:\n        /* \"contracts/base/GasGolf.sol\":3708:3725  bytes memory data */\n      0x60\n        /* \"contracts/base/GasGolf.sol\":3764:3765  0 */\n      0x00\n        /* \"contracts/base/GasGolf.sol\":3746:3753  funName */\n      dup9\n      dup9\n        /* \"contracts/base/GasGolf.sol\":3740:3761  bytes(funName).length */\n      swap1\n      pop\n        /* \"contracts/base/GasGolf.sol\":3740:3765  bytes(funName).length > 0 */\n      gt\n        /* \"contracts/base/GasGolf.sol\":3736:3901  if (bytes(funName).length > 0){... */\n      iszero\n      tag_72\n      jumpi\n        /* \"contracts/base/GasGolf.sol\":3828:3835  funName */\n      dup8\n      dup8\n        /* \"contracts/base/GasGolf.sol\":3812:3837  keccak256(bytes(funName)) */\n      mload(0x40)\n      tag_73\n      swap3\n      swap2\n      swap1\n      tag_74\n      jump\t// in\n    tag_73:\n      mload(0x40)\n      dup1\n      swap2\n      sub\n      swap1\n      keccak256\n        /* \"contracts/base/GasGolf.sol\":3839:3844  _data */\n      dup6\n      dup6\n        /* \"contracts/base/GasGolf.sol\":3788:3845  abi.encodePacked(bytes4(keccak256(bytes(funName))),_data) */\n      add(0x20, mload(0x40))\n      tag_75\n      swap4\n      swap3\n      swap2\n      swap1\n      tag_76\n      jump\t// in\n    tag_75:\n      mload(0x40)\n      0x20\n      dup2\n      dup4\n      sub\n      sub\n      dup2\n      mstore\n      swap1\n      0x40\n      mstore\n        /* \"contracts/base/GasGolf.sol\":3781:3845  data = abi.encodePacked(bytes4(keccak256(bytes(funName))),_data) */\n      swap1\n      pop\n        /* \"contracts/base/GasGolf.sol\":3736:3901  if (bytes(funName).length > 0){... */\n      jump(tag_77)\n    tag_72:\n        /* \"contracts/base/GasGolf.sol\":3884:3889  _data */\n      dup5\n      dup5\n        /* \"contracts/base/GasGolf.sol\":3877:3889  data = _data */\n      dup1\n      dup1\n      0x1f\n      add\n      0x20\n      dup1\n      swap2\n      div\n      mul\n      0x20\n      add\n      mload(0x40)\n      swap1\n      dup2\n      add\n      0x40\n      mstore\n      dup1\n      swap4\n      swap3\n      swap2\n      swap1\n      dup2\n      dup2\n      mstore\n      0x20\n      add\n      dup4\n      dup4\n      dup1\n      dup3\n      dup5\n      calldatacopy\n      0x00\n      dup2\n      dup5\n      add\n      mstore\n      not(0x1f)\n      0x1f\n      dup3\n      add\n      and\n      swap1\n      pop\n      dup1\n      dup4\n      add\n      swap3\n      pop\n      pop\n      pop\n      pop\n      pop\n      pop\n      pop\n      swap1\n      pop\n        /* \"contracts/base/GasGolf.sol\":3736:3901  if (bytes(funName).length > 0){... */\n    tag_77:\n        /* \"contracts/base/GasGolf.sol\":3955:3967  bool success */\n      0x00\n        /* \"contracts/base/GasGolf.sol\":3968:3987  bytes memory result */\n      0x00\n        /* \"contracts/base/GasGolf.sol\":3991:3994  _to */\n      dup12\n        /* \"contracts/base/GasGolf.sol\":3991:3999  _to.call */\n      0xffffffffffffffffffffffffffffffffffffffff\n      and\n        /* \"contracts/base/GasGolf.sol\":4006:4012  _amont */\n      dup12\n        /* \"contracts/base/GasGolf.sol\":4014:4019  _data */\n      dup9\n      dup9\n        /* \"contracts/base/GasGolf.sol\":3991:4020  _to.call{value:_amont}(_data) */\n      mload(0x40)\n      tag_78\n      swap3\n      swap2\n      swap1\n      tag_74\n      jump\t// in\n    tag_78:\n      0x00\n      mload(0x40)\n      dup1\n      dup4\n      sub\n      dup2\n      dup6\n      dup8\n      gas\n      call\n      swap3\n      pop\n      pop\n      pop\n      returndatasize\n      dup1\n      0x00\n      dup2\n      eq\n      tag_81\n      jumpi\n      mload(0x40)\n      swap2\n      pop\n      and(add(returndatasize, 0x3f), not(0x1f))\n      dup3\n      add\n      0x40\n      mstore\n      returndatasize\n      dup3\n      mstore\n      returndatasize\n      0x00\n      0x20\n      dup5\n      add\n      returndatacopy\n      jump(tag_80)\n    tag_81:\n      0x60\n      swap2\n      pop\n    tag_80:\n      pop\n        /* \"contracts/base/GasGolf.sol\":3954:4020  (bool success,bytes memory result) = _to.call{value:_amont}(_data) */\n      swap2\n      pop\n      swap2\n      pop\n        /* \"contracts/base/GasGolf.sol\":4036:4043  success */\n      dup2\n        /* \"contracts/base/GasGolf.sol\":4031:4097  if (!success){... */\n      tag_82\n      jumpi\n        /* \"contracts/base/GasGolf.sol\":4080:4084  txId */\n      dup4\n        /* \"contracts/base/GasGolf.sol\":4066:4085  CallFailError(txId) */\n      mload(0x40)\n      0x9c020eb800000000000000000000000000000000000000000000000000000000\n      dup2\n      mstore\n      0x04\n      add\n      tag_83\n      swap2\n      swap1\n      tag_84\n      jump\t// in\n    tag_83:\n      mload(0x40)\n      dup1\n      swap2\n      sub\n      swap1\n      revert\n        /* \"contracts/base/GasGolf.sol\":4031:4097  if (!success){... */\n    tag_82:\n        /* \"contracts/base/GasGolf.sol\":4152:4157  false */\n      0x00\n        /* \"contracts/base/GasGolf.sol\":4131:4143  queueMapping */\n      0x00\n        /* \"contracts/base/GasGolf.sol\":4131:4149  queueMapping[txId] */\n      0x00\n        /* \"contracts/base/GasGolf.sol\":4144:4148  txId */\n      dup7\n        /* \"contracts/base/GasGolf.sol\":4131:4149  queueMapping[txId] */\n      dup2\n      mstore\n      0x20\n      add\n      swap1\n      dup2\n      mstore\n      0x20\n      add\n      0x00\n      keccak256\n      0x00\n        /* \"contracts/base/GasGolf.sol\":4131:4157  queueMapping[txId] = false */\n      0x0100\n      exp\n      dup2\n      sload\n      dup2\n      0xff\n      mul\n      not\n      and\n      swap1\n      dup4\n      iszero\n      iszero\n      mul\n      or\n      swap1\n      sstore\n      pop\n        /* \"contracts/base/GasGolf.sol\":4173:4204  TransactionExecuteSuccess(txId) */\n      0x60e7f8dae2c3321b31151d4f73826636445ba8d1853e369e9d9c3bf13d3f09ca\n        /* \"contracts/base/GasGolf.sol\":4199:4203  txId */\n      dup5\n        /* \"contracts/base/GasGolf.sol\":4173:4204  TransactionExecuteSuccess(txId) */\n      mload(0x40)\n      tag_85\n      swap2\n      swap1\n      tag_84\n      jump\t// in\n    tag_85:\n      mload(0x40)\n      dup1\n      swap2\n      sub\n      swap1\n      log1\n        /* \"contracts/base/GasGolf.sol\":4222:4229  success */\n      dup2\n        /* \"contracts/base/GasGolf.sol\":4215:4229  return success */\n      swap5\n      pop\n      pop\n      pop\n      pop\n      pop\n        /* \"contracts/base/GasGolf.sol\":3013:4239  function execute(address _to, uint _amont,string calldata funName,uint timestamp,bytes calldata _data) payable external onlyOwner returns (bool){... */\n      swap8\n      swap7\n      pop\n      pop\n      pop\n      pop\n      pop\n      pop\n      pop\n      jump\t// out\n        /* \"contracts/base/GasGolf.sol\":762:798  uint public constant MAX_TIME = 1000 */\n    tag_21:\n        /* \"contracts/base/GasGolf.sol\":794:798  1000 */\n      0x03e8\n        /* \"contracts/base/GasGolf.sol\":762:798  uint public constant MAX_TIME = 1000 */\n      dup2\n      jump\t// out\n        /* \"contracts/base/GasGolf.sol\":692:712  address public owner */\n    tag_26:\n      0x01\n      0x00\n      swap1\n      sload\n      swap1\n      0x0100\n      exp\n      swap1\n      div\n      0xffffffffffffffffffffffffffffffffffffffff\n      and\n      dup2\n      jump\t// out\n        /* \"contracts/base/GasGolf.sol\":721:755  uint public constant MIN_TIME = 10 */\n    tag_31:\n        /* \"contracts/base/GasGolf.sol\":753:755  10 */\n      0x0a\n        /* \"contracts/base/GasGolf.sol\":721:755  uint public constant MIN_TIME = 10 */\n      dup2\n      jump\t// out\n        /* \"contracts/base/GasGolf.sol\":618:662  mapping(bytes32 => bool) public queueMapping */\n    tag_37:\n      mstore(0x20, 0x00)\n      dup1\n      0x00\n      mstore\n      keccak256(0x00, 0x40)\n      0x00\n      swap2\n      pop\n      sload\n      swap1\n      0x0100\n      exp\n      swap1\n      div\n      0xff\n      and\n      dup2\n      jump\t// out\n        /* \"contracts/base/GasGolf.sol\":1876:2628  function queue(address _to, uint _amont,string calldata funName,uint timestamp) onlyOwner  public returns (bool)  {... */\n    tag_43:\n        /* \"contracts/base/GasGolf.sol\":1983:1987  bool */\n      0x00\n        /* \"contracts/base/GasGolf.sol\":1666:1671  owner */\n      0x01\n      0x00\n      swap1\n      sload\n      swap1\n      0x0100\n      exp\n      swap1\n      div\n      0xffffffffffffffffffffffffffffffffffffffff\n      and\n        /* \"contracts/base/GasGolf.sol\":1654:1671  msg.sender==owner */\n      0xffffffffffffffffffffffffffffffffffffffff\n      and\n        /* \"contracts/base/GasGolf.sol\":1654:1664  msg.sender */\n      caller\n        /* \"contracts/base/GasGolf.sol\":1654:1671  msg.sender==owner */\n      0xffffffffffffffffffffffffffffffffffffffff\n      and\n      eq\n        /* \"contracts/base/GasGolf.sol\":1646:1684  require(msg.sender==owner,\"not owner\") */\n      tag_87\n      jumpi\n      mload(0x40)\n      0x08c379a000000000000000000000000000000000000000000000000000000000\n      dup2\n      mstore\n      0x04\n      add\n      tag_88\n      swap1\n      tag_52\n      jump\t// in\n    tag_88:\n      mload(0x40)\n      dup1\n      swap2\n      sub\n      swap1\n      revert\n    tag_87:\n        /* \"contracts/base/GasGolf.sol\":2024:2025  0 */\n      0x00\n        /* \"contracts/base/GasGolf.sol\":2009:2026  _to != address(0) */\n      0xffffffffffffffffffffffffffffffffffffffff\n      and\n        /* \"contracts/base/GasGolf.sol\":2009:2012  _to */\n      dup7\n        /* \"contracts/base/GasGolf.sol\":2009:2026  _to != address(0) */\n      0xffffffffffffffffffffffffffffffffffffffff\n      and\n      sub\n        /* \"contracts/base/GasGolf.sol\":2001:2065  require(_to != address(0), \"_to address cannot be address zero\") */\n      tag_90\n      jumpi\n      mload(0x40)\n      0x08c379a000000000000000000000000000000000000000000000000000000000\n      dup2\n      mstore\n      0x04\n      add\n      tag_91\n      swap1\n      tag_56\n      jump\t// in\n    tag_91:\n      mload(0x40)\n      dup1\n      swap2\n      sub\n      swap1\n      revert\n    tag_90:\n        /* \"contracts/base/GasGolf.sol\":2097:2098  0 */\n      0x00\n        /* \"contracts/base/GasGolf.sol\":2084:2093  timestamp */\n      dup3\n        /* \"contracts/base/GasGolf.sol\":2084:2098  timestamp != 0 */\n      sub\n        /* \"contracts/base/GasGolf.sol\":2076:2127  require(timestamp != 0, \"timestamp cannot be zero\") */\n      tag_92\n      jumpi\n      mload(0x40)\n      0x08c379a000000000000000000000000000000000000000000000000000000000\n      dup2\n      mstore\n      0x04\n      add\n      tag_93\n      swap1\n      tag_59\n      jump\t// in\n    tag_93:\n      mload(0x40)\n      dup1\n      swap2\n      sub\n      swap1\n      revert\n    tag_92:\n        /* \"contracts/base/GasGolf.sol\":753:755  10 */\n      0x0a\n        /* \"contracts/base/GasGolf.sol\":2179:2194  block.timestamp */\n      timestamp\n        /* \"contracts/base/GasGolf.sol\":2179:2205  block.timestamp + MIN_TIME */\n      tag_94\n      swap2\n      swap1\n      tag_66\n      jump\t// in\n    tag_94:\n        /* \"contracts/base/GasGolf.sol\":2167:2176  timestamp */\n      dup3\n        /* \"contracts/base/GasGolf.sol\":2167:2205  timestamp < block.timestamp + MIN_TIME */\n      lt\n        /* \"contracts/base/GasGolf.sol\":2167:2247  timestamp < block.timestamp + MIN_TIME || timestamp > block.timestamp + MAX_TIME */\n      dup1\n      tag_95\n      jumpi\n      pop\n        /* \"contracts/base/GasGolf.sol\":794:798  1000 */\n      0x03e8\n        /* \"contracts/base/GasGolf.sol\":2221:2236  block.timestamp */\n      timestamp\n        /* \"contracts/base/GasGolf.sol\":2221:2247  block.timestamp + MAX_TIME */\n      tag_96\n      swap2\n      swap1\n      tag_66\n      jump\t// in\n    tag_96:\n        /* \"contracts/base/GasGolf.sol\":2209:2218  timestamp */\n      dup3\n        /* \"contracts/base/GasGolf.sol\":2209:2247  timestamp > block.timestamp + MAX_TIME */\n      gt\n        /* \"contracts/base/GasGolf.sol\":2167:2247  timestamp < block.timestamp + MIN_TIME || timestamp > block.timestamp + MAX_TIME */\n    tag_95:\n        /* \"contracts/base/GasGolf.sol\":2164:2339  if(timestamp < block.timestamp + MIN_TIME || timestamp > block.timestamp + MAX_TIME) {... */\n      iszero\n      tag_97\n      jumpi\n        /* \"contracts/base/GasGolf.sol\":2281:2284  _to */\n      dup6\n        /* \"contracts/base/GasGolf.sol\":2286:2292  _amont */\n      dup6\n        /* \"contracts/base/GasGolf.sol\":2295:2302  funName */\n      dup6\n      dup6\n        /* \"contracts/base/GasGolf.sol\":2304:2313  timestamp */\n      dup6\n        /* \"contracts/base/GasGolf.sol\":2271:2327  TimeError(_to, _amont , funName ,timestamp,\"time error\") */\n      mload(0x40)\n      0x0ff2c46600000000000000000000000000000000000000000000000000000000\n      dup2\n      mstore\n      0x04\n      add\n      tag_98\n      swap6\n      swap5\n      swap4\n      swap3\n      swap2\n      swap1\n      tag_99\n      jump\t// in\n    tag_98:\n      mload(0x40)\n      dup1\n      swap2\n      sub\n      swap1\n      revert\n        /* \"contracts/base/GasGolf.sol\":2164:2339  if(timestamp < block.timestamp + MIN_TIME || timestamp > block.timestamp + MAX_TIME) {... */\n    tag_97:\n        /* \"contracts/base/GasGolf.sol\":2349:2361  bytes32 txId */\n      0x00\n        /* \"contracts/base/GasGolf.sol\":2364:2401  getTxId(_to,_amont,funName,timestamp) */\n      tag_100\n        /* \"contracts/base/GasGolf.sol\":2372:2375  _to */\n      dup8\n        /* \"contracts/base/GasGolf.sol\":2376:2382  _amont */\n      dup8\n        /* \"contracts/base/GasGolf.sol\":2383:2390  funName */\n      dup8\n      dup8\n        /* \"contracts/base/GasGolf.sol\":2391:2400  timestamp */\n      dup8\n        /* \"contracts/base/GasGolf.sol\":2364:2371  getTxId */\n      tag_61\n        /* \"contracts/base/GasGolf.sol\":2364:2401  getTxId(_to,_amont,funName,timestamp) */\n      jump\t// in\n    tag_100:\n        /* \"contracts/base/GasGolf.sol\":2349:2401  bytes32 txId = getTxId(_to,_amont,funName,timestamp) */\n      swap1\n      pop\n        /* \"contracts/base/GasGolf.sol\":2415:2427  queueMapping */\n      0x00\n        /* \"contracts/base/GasGolf.sol\":2415:2433  queueMapping[txId] */\n      0x00\n        /* \"contracts/base/GasGolf.sol\":2428:2432  txId */\n      dup3\n        /* \"contracts/base/GasGolf.sol\":2415:2433  queueMapping[txId] */\n      dup2\n      mstore\n      0x20\n      add\n      swap1\n      dup2\n      mstore\n      0x20\n      add\n      0x00\n      keccak256\n      0x00\n      swap1\n      sload\n      swap1\n      0x0100\n      exp\n      swap1\n      div\n      0xff\n      and\n        /* \"contracts/base/GasGolf.sol\":2412:2492  if(queueMapping[txId]){... */\n      iszero\n      tag_101\n      jumpi\n        /* \"contracts/base/GasGolf.sol\":2475:2479  txId */\n      dup1\n        /* \"contracts/base/GasGolf.sol\":2456:2480  AlreadyQueuedError(txId) */\n      mload(0x40)\n      0x995042be00000000000000000000000000000000000000000000000000000000\n      dup2\n      mstore\n      0x04\n      add\n      tag_102\n      swap2\n      swap1\n      tag_84\n      jump\t// in\n    tag_102:\n      mload(0x40)\n      dup1\n      swap2\n      sub\n      swap1\n      revert\n        /* \"contracts/base/GasGolf.sol\":2412:2492  if(queueMapping[txId]){... */\n    tag_101:\n        /* \"contracts/base/GasGolf.sol\":2525:2529  true */\n      0x01\n        /* \"contracts/base/GasGolf.sol\":2504:2516  queueMapping */\n      0x00\n        /* \"contracts/base/GasGolf.sol\":2504:2522  queueMapping[txId] */\n      0x00\n        /* \"contracts/base/GasGolf.sol\":2517:2521  txId */\n      dup4\n        /* \"contracts/base/GasGolf.sol\":2504:2522  queueMapping[txId] */\n      dup2\n      mstore\n      0x20\n      add\n      swap1\n      dup2\n      mstore\n      0x20\n      add\n      0x00\n      keccak256\n      0x00\n        /* \"contracts/base/GasGolf.sol\":2504:2529  queueMapping[txId] = true */\n      0x0100\n      exp\n      dup2\n      sload\n      dup2\n      0xff\n      mul\n      not\n      and\n      swap1\n      dup4\n      iszero\n      iszero\n      mul\n      or\n      swap1\n      sstore\n      pop\n        /* \"contracts/base/GasGolf.sol\":2545:2598  TransactionQueueing(_to,_amont , funName ,timestamp ) */\n      0x9cee5db012f9a6b2e7f49190113215669856d2bc4fb953afc7bb12e07d4d1914\n        /* \"contracts/base/GasGolf.sol\":2565:2568  _to */\n      dup8\n        /* \"contracts/base/GasGolf.sol\":2569:2575  _amont */\n      dup8\n        /* \"contracts/base/GasGolf.sol\":2578:2585  funName */\n      dup8\n      dup8\n        /* \"contracts/base/GasGolf.sol\":2587:2596  timestamp */\n      dup8\n        /* \"contracts/base/GasGolf.sol\":2545:2598  TransactionQueueing(_to,_amont , funName ,timestamp ) */\n      mload(0x40)\n      tag_103\n      swap6\n      swap5\n      swap4\n      swap3\n      swap2\n      swap1\n      tag_64\n      jump\t// in\n    tag_103:\n      mload(0x40)\n      dup1\n      swap2\n      sub\n      swap1\n      log1\n        /* \"contracts/base/GasGolf.sol\":2616:2620  true */\n      0x01\n        /* \"contracts/base/GasGolf.sol\":2609:2620  return true */\n      swap2\n      pop\n      pop\n        /* \"contracts/base/GasGolf.sol\":1876:2628  function queue(address _to, uint _amont,string calldata funName,uint timestamp) onlyOwner  public returns (bool)  {... */\n      swap6\n      swap5\n      pop\n      pop\n      pop\n      pop\n      pop\n      jump\t// out\n        /* \"contracts/base/GasGolf.sol\":4247:4443  function cancel(bytes32 _txId) external onlyOwner {... */\n    tag_48:\n        /* \"contracts/base/GasGolf.sol\":1666:1671  owner */\n      0x01\n      0x00\n      swap1\n      sload\n      swap1\n      0x0100\n      exp\n      swap1\n      div\n      0xffffffffffffffffffffffffffffffffffffffff\n      and\n        /* \"contracts/base/GasGolf.sol\":1654:1671  msg.sender==owner */\n      0xffffffffffffffffffffffffffffffffffffffff\n      and\n        /* \"contracts/base/GasGolf.sol\":1654:1664  msg.sender */\n      caller\n        /* \"contracts/base/GasGolf.sol\":1654:1671  msg.sender==owner */\n      0xffffffffffffffffffffffffffffffffffffffff\n      and\n      eq\n        /* \"contracts/base/GasGolf.sol\":1646:1684  require(msg.sender==owner,\"not owner\") */\n      tag_105\n      jumpi\n      mload(0x40)\n      0x08c379a000000000000000000000000000000000000000000000000000000000\n      dup2\n      mstore\n      0x04\n      add\n      tag_106\n      swap1\n      tag_52\n      jump\t// in\n    tag_106:\n      mload(0x40)\n      dup1\n      swap2\n      sub\n      swap1\n      revert\n    tag_105:\n        /* \"contracts/base/GasGolf.sol\":4313:4325  queueMapping */\n      0x00\n        /* \"contracts/base/GasGolf.sol\":4313:4332  queueMapping[_txId] */\n      0x00\n        /* \"contracts/base/GasGolf.sol\":4326:4331  _txId */\n      dup3\n        /* \"contracts/base/GasGolf.sol\":4313:4332  queueMapping[_txId] */\n      dup2\n      mstore\n      0x20\n      add\n      swap1\n      dup2\n      mstore\n      0x20\n      add\n      0x00\n      keccak256\n      0x00\n      swap1\n      sload\n      swap1\n      0x0100\n      exp\n      swap1\n      div\n      0xff\n      and\n        /* \"contracts/base/GasGolf.sol\":4308:4359  if (!queueMapping[_txId]) revert CancelError(_txId) */\n      tag_108\n      jumpi\n        /* \"contracts/base/GasGolf.sol\":4353:4358  _txId */\n      dup1\n        /* \"contracts/base/GasGolf.sol\":4341:4359  CancelError(_txId) */\n      mload(0x40)\n      0xebf199f000000000000000000000000000000000000000000000000000000000\n      dup2\n      mstore\n      0x04\n      add\n      tag_109\n      swap2\n      swap1\n      tag_84\n      jump\t// in\n    tag_109:\n      mload(0x40)\n      dup1\n      swap2\n      sub\n      swap1\n      revert\n        /* \"contracts/base/GasGolf.sol\":4308:4359  if (!queueMapping[_txId]) revert CancelError(_txId) */\n    tag_108:\n        /* \"contracts/base/GasGolf.sol\":4394:4399  false */\n      0x00\n        /* \"contracts/base/GasGolf.sol\":4372:4384  queueMapping */\n      0x00\n        /* \"contracts/base/GasGolf.sol\":4372:4391  queueMapping[_txId] */\n      0x00\n        /* \"contracts/base/GasGolf.sol\":4385:4390  _txId */\n      dup4\n        /* \"contracts/base/GasGolf.sol\":4372:4391  queueMapping[_txId] */\n      dup2\n      mstore\n      0x20\n      add\n      swap1\n      dup2\n      mstore\n      0x20\n      add\n      0x00\n      keccak256\n      0x00\n        /* \"contracts/base/GasGolf.sol\":4372:4399  queueMapping[_txId] = false */\n      0x0100\n      exp\n      dup2\n      sload\n      dup2\n      0xff\n      mul\n      not\n      and\n      swap1\n      dup4\n      iszero\n      iszero\n      mul\n      or\n      swap1\n      sstore\n      pop\n        /* \"contracts/base/GasGolf.sol\":4415:4435  CancelSuceess(_txId) */\n      0x3b2f935b2a0ae98eac73ab20c3a507b077e5b2bd5b71382664ce4b6332abdf93\n        /* \"contracts/base/GasGolf.sol\":4429:4434  _txId */\n      dup2\n        /* \"contracts/base/GasGolf.sol\":4415:4435  CancelSuceess(_txId) */\n      mload(0x40)\n      tag_110\n      swap2\n      swap1\n      tag_84\n      jump\t// in\n    tag_110:\n      mload(0x40)\n      dup1\n      swap2\n      sub\n      swap1\n      log1\n        /* \"contracts/base/GasGolf.sol\":4247:4443  function cancel(bytes32 _txId) external onlyOwner {... */\n      pop\n      jump\t// out\n        /* \"contracts/base/GasGolf.sol\":2638:2854  function getTxId(address _to, uint _amont,string calldata funName,uint timestamp) internal pure returns (bytes32){... */\n    tag_61:\n        /* \"contracts/base/GasGolf.sol\":2743:2750  bytes32 */\n      0x00\n        /* \"contracts/base/GasGolf.sol\":2804:2807  _to */\n      dup6\n        /* \"contracts/base/GasGolf.sol\":2808:2814  _amont */\n      dup6\n        /* \"contracts/base/GasGolf.sol\":2816:2825  timestamp */\n      dup4\n        /* \"contracts/base/GasGolf.sol\":2827:2834  funName */\n      dup7\n      dup7\n        /* \"contracts/base/GasGolf.sol\":2793:2835  abi.encode(_to,_amont ,timestamp ,funName) */\n      add(0x20, mload(0x40))\n      tag_112\n      swap6\n      swap5\n      swap4\n      swap3\n      swap2\n      swap1\n      tag_113\n      jump\t// in\n    tag_112:\n      mload(0x40)\n      0x20\n      dup2\n      dup4\n      sub\n      sub\n      dup2\n      mstore\n      swap1\n      0x40\n      mstore\n        /* \"contracts/base/GasGolf.sol\":2769:2846  keccak256(... */\n      dup1\n      mload\n      swap1\n      0x20\n      add\n      keccak256\n        /* \"contracts/base/GasGolf.sol\":2762:2846  return keccak256(... */\n      swap1\n      pop\n        /* \"contracts/base/GasGolf.sol\":2638:2854  function getTxId(address _to, uint _amont,string calldata funName,uint timestamp) internal pure returns (bytes32){... */\n      swap6\n      swap5\n      pop\n      pop\n      pop\n      pop\n      pop\n      jump\t// out\n        /* \"#utility.yul\":88:205   */\n    tag_115:\n        /* \"#utility.yul\":197:198   */\n      0x00\n        /* \"#utility.yul\":194:195   */\n      0x00\n        /* \"#utility.yul\":187:199   */\n      revert\n        /* \"#utility.yul\":211:328   */\n    tag_116:\n        /* \"#utility.yul\":320:321   */\n      0x00\n        /* \"#utility.yul\":317:318   */\n      0x00\n        /* \"#utility.yul\":310:322   */\n      revert\n        /* \"#utility.yul\":334:460   */\n    tag_117:\n        /* \"#utility.yul\":371:378   */\n      0x00\n        /* \"#utility.yul\":411:453   */\n      0xffffffffffffffffffffffffffffffffffffffff\n        /* \"#utility.yul\":404:409   */\n      dup3\n        /* \"#utility.yul\":400:454   */\n      and\n        /* \"#utility.yul\":389:454   */\n      swap1\n      pop\n        /* \"#utility.yul\":334:460   */\n      swap2\n      swap1\n      pop\n      jump\t// out\n        /* \"#utility.yul\":466:562   */\n    tag_118:\n        /* \"#utility.yul\":503:510   */\n      0x00\n        /* \"#utility.yul\":532:556   */\n      tag_163\n        /* \"#utility.yul\":550:555   */\n      dup3\n        /* \"#utility.yul\":532:556   */\n      tag_117\n      jump\t// in\n    tag_163:\n        /* \"#utility.yul\":521:556   */\n      swap1\n      pop\n        /* \"#utility.yul\":466:562   */\n      swap2\n      swap1\n      pop\n      jump\t// out\n        /* \"#utility.yul\":568:690   */\n    tag_119:\n        /* \"#utility.yul\":641:665   */\n      tag_165\n        /* \"#utility.yul\":659:664   */\n      dup2\n        /* \"#utility.yul\":641:665   */\n      tag_118\n      jump\t// in\n    tag_165:\n        /* \"#utility.yul\":634:639   */\n      dup2\n        /* \"#utility.yul\":631:666   */\n      eq\n        /* \"#utility.yul\":621:684   */\n      tag_166\n      jumpi\n        /* \"#utility.yul\":680:681   */\n      0x00\n        /* \"#utility.yul\":677:678   */\n      0x00\n        /* \"#utility.yul\":670:682   */\n      revert\n        /* \"#utility.yul\":621:684   */\n    tag_166:\n        /* \"#utility.yul\":568:690   */\n      pop\n      jump\t// out\n        /* \"#utility.yul\":696:835   */\n    tag_120:\n        /* \"#utility.yul\":742:747   */\n      0x00\n        /* \"#utility.yul\":780:786   */\n      dup2\n        /* \"#utility.yul\":767:787   */\n      calldataload\n        /* \"#utility.yul\":758:787   */\n      swap1\n      pop\n        /* \"#utility.yul\":796:829   */\n      tag_168\n        /* \"#utility.yul\":823:828   */\n      dup2\n        /* \"#utility.yul\":796:829   */\n      tag_119\n      jump\t// in\n    tag_168:\n        /* \"#utility.yul\":696:835   */\n      swap3\n      swap2\n      pop\n      pop\n      jump\t// out\n        /* \"#utility.yul\":841:918   */\n    tag_121:\n        /* \"#utility.yul\":878:885   */\n      0x00\n        /* \"#utility.yul\":907:912   */\n      dup2\n        /* \"#utility.yul\":896:912   */\n      swap1\n      pop\n        /* \"#utility.yul\":841:918   */\n      swap2\n      swap1\n      pop\n      jump\t// out\n        /* \"#utility.yul\":924:1046   */\n    tag_122:\n        /* \"#utility.yul\":997:1021   */\n      tag_171\n        /* \"#utility.yul\":1015:1020   */\n      dup2\n        /* \"#utility.yul\":997:1021   */\n      tag_121\n      jump\t// in\n    tag_171:\n        /* \"#utility.yul\":990:995   */\n      dup2\n        /* \"#utility.yul\":987:1022   */\n      eq\n        /* \"#utility.yul\":977:1040   */\n      tag_172\n      jumpi\n        /* \"#utility.yul\":1036:1037   */\n      0x00\n        /* \"#utility.yul\":1033:1034   */\n      0x00\n        /* \"#utility.yul\":1026:1038   */\n      revert\n        /* \"#utility.yul\":977:1040   */\n    tag_172:\n        /* \"#utility.yul\":924:1046   */\n      pop\n      jump\t// out\n        /* \"#utility.yul\":1052:1191   */\n    tag_123:\n        /* \"#utility.yul\":1098:1103   */\n      0x00\n        /* \"#utility.yul\":1136:1142   */\n      dup2\n        /* \"#utility.yul\":1123:1143   */\n      calldataload\n        /* \"#utility.yul\":1114:1143   */\n      swap1\n      pop\n        /* \"#utility.yul\":1152:1185   */\n      tag_174\n        /* \"#utility.yul\":1179:1184   */\n      dup2\n        /* \"#utility.yul\":1152:1185   */\n      tag_122\n      jump\t// in\n    tag_174:\n        /* \"#utility.yul\":1052:1191   */\n      swap3\n      swap2\n      pop\n      pop\n      jump\t// out\n        /* \"#utility.yul\":1197:1314   */\n    tag_124:\n        /* \"#utility.yul\":1306:1307   */\n      0x00\n        /* \"#utility.yul\":1303:1304   */\n      0x00\n        /* \"#utility.yul\":1296:1308   */\n      revert\n        /* \"#utility.yul\":1320:1437   */\n    tag_125:\n        /* \"#utility.yul\":1429:1430   */\n      0x00\n        /* \"#utility.yul\":1426:1427   */\n      0x00\n        /* \"#utility.yul\":1419:1431   */\n      revert\n        /* \"#utility.yul\":1443:1560   */\n    tag_126:\n        /* \"#utility.yul\":1552:1553   */\n      0x00\n        /* \"#utility.yul\":1549:1550   */\n      0x00\n        /* \"#utility.yul\":1542:1554   */\n      revert\n        /* \"#utility.yul\":1580:2133   */\n    tag_127:\n        /* \"#utility.yul\":1638:1646   */\n      0x00\n        /* \"#utility.yul\":1648:1654   */\n      0x00\n        /* \"#utility.yul\":1698:1701   */\n      dup4\n        /* \"#utility.yul\":1691:1695   */\n      0x1f\n        /* \"#utility.yul\":1683:1689   */\n      dup5\n        /* \"#utility.yul\":1679:1696   */\n      add\n        /* \"#utility.yul\":1675:1702   */\n      slt\n        /* \"#utility.yul\":1665:1787   */\n      tag_179\n      jumpi\n        /* \"#utility.yul\":1706:1785   */\n      tag_180\n      tag_124\n      jump\t// in\n    tag_180:\n        /* \"#utility.yul\":1665:1787   */\n    tag_179:\n        /* \"#utility.yul\":1819:1825   */\n      dup3\n        /* \"#utility.yul\":1806:1826   */\n      calldataload\n        /* \"#utility.yul\":1796:1826   */\n      swap1\n      pop\n        /* \"#utility.yul\":1849:1867   */\n      0xffffffffffffffff\n        /* \"#utility.yul\":1841:1847   */\n      dup2\n        /* \"#utility.yul\":1838:1868   */\n      gt\n        /* \"#utility.yul\":1835:1952   */\n      iszero\n      tag_181\n      jumpi\n        /* \"#utility.yul\":1871:1950   */\n      tag_182\n      tag_125\n      jump\t// in\n    tag_182:\n        /* \"#utility.yul\":1835:1952   */\n    tag_181:\n        /* \"#utility.yul\":1985:1989   */\n      0x20\n        /* \"#utility.yul\":1977:1983   */\n      dup4\n        /* \"#utility.yul\":1973:1990   */\n      add\n        /* \"#utility.yul\":1961:1990   */\n      swap2\n      pop\n        /* \"#utility.yul\":2039:2042   */\n      dup4\n        /* \"#utility.yul\":2031:2035   */\n      0x01\n        /* \"#utility.yul\":2023:2029   */\n      dup3\n        /* \"#utility.yul\":2019:2036   */\n      mul\n        /* \"#utility.yul\":2009:2017   */\n      dup4\n        /* \"#utility.yul\":2005:2037   */\n      add\n        /* \"#utility.yul\":2002:2043   */\n      gt\n        /* \"#utility.yul\":1999:2127   */\n      iszero\n      tag_183\n      jumpi\n        /* \"#utility.yul\":2046:2125   */\n      tag_184\n      tag_126\n      jump\t// in\n    tag_184:\n        /* \"#utility.yul\":1999:2127   */\n    tag_183:\n        /* \"#utility.yul\":1580:2133   */\n      swap3\n      pop\n      swap3\n      swap1\n      pop\n      jump\t// out\n        /* \"#utility.yul\":2152:2704   */\n    tag_128:\n        /* \"#utility.yul\":2209:2217   */\n      0x00\n        /* \"#utility.yul\":2219:2225   */\n      0x00\n        /* \"#utility.yul\":2269:2272   */\n      dup4\n        /* \"#utility.yul\":2262:2266   */\n      0x1f\n        /* \"#utility.yul\":2254:2260   */\n      dup5\n        /* \"#utility.yul\":2250:2267   */\n      add\n        /* \"#utility.yul\":2246:2273   */\n      slt\n        /* \"#utility.yul\":2236:2358   */\n      tag_186\n      jumpi\n        /* \"#utility.yul\":2277:2356   */\n      tag_187\n      tag_124\n      jump\t// in\n    tag_187:\n        /* \"#utility.yul\":2236:2358   */\n    tag_186:\n        /* \"#utility.yul\":2390:2396   */\n      dup3\n        /* \"#utility.yul\":2377:2397   */\n      calldataload\n        /* \"#utility.yul\":2367:2397   */\n      swap1\n      pop\n        /* \"#utility.yul\":2420:2438   */\n      0xffffffffffffffff\n        /* \"#utility.yul\":2412:2418   */\n      dup2\n        /* \"#utility.yul\":2409:2439   */\n      gt\n        /* \"#utility.yul\":2406:2523   */\n      iszero\n      tag_188\n      jumpi\n        /* \"#utility.yul\":2442:2521   */\n      tag_189\n      tag_125\n      jump\t// in\n    tag_189:\n        /* \"#utility.yul\":2406:2523   */\n    tag_188:\n        /* \"#utility.yul\":2556:2560   */\n      0x20\n        /* \"#utility.yul\":2548:2554   */\n      dup4\n        /* \"#utility.yul\":2544:2561   */\n      add\n        /* \"#utility.yul\":2532:2561   */\n      swap2\n      pop\n        /* \"#utility.yul\":2610:2613   */\n      dup4\n        /* \"#utility.yul\":2602:2606   */\n      0x01\n        /* \"#utility.yul\":2594:2600   */\n      dup3\n        /* \"#utility.yul\":2590:2607   */\n      mul\n        /* \"#utility.yul\":2580:2588   */\n      dup4\n        /* \"#utility.yul\":2576:2608   */\n      add\n        /* \"#utility.yul\":2573:2614   */\n      gt\n        /* \"#utility.yul\":2570:2698   */\n      iszero\n      tag_190\n      jumpi\n        /* \"#utility.yul\":2617:2696   */\n      tag_191\n      tag_126\n      jump\t// in\n    tag_191:\n        /* \"#utility.yul\":2570:2698   */\n    tag_190:\n        /* \"#utility.yul\":2152:2704   */\n      swap3\n      pop\n      swap3\n      swap1\n      pop\n      jump\t// out\n        /* \"#utility.yul\":2710:4019   */\n    tag_15:\n        /* \"#utility.yul\":2828:2834   */\n      0x00\n        /* \"#utility.yul\":2836:2842   */\n      0x00\n        /* \"#utility.yul\":2844:2850   */\n      0x00\n        /* \"#utility.yul\":2852:2858   */\n      0x00\n        /* \"#utility.yul\":2860:2866   */\n      0x00\n        /* \"#utility.yul\":2868:2874   */\n      0x00\n        /* \"#utility.yul\":2876:2882   */\n      0x00\n        /* \"#utility.yul\":2925:2928   */\n      0xa0\n        /* \"#utility.yul\":2913:2922   */\n      dup9\n        /* \"#utility.yul\":2904:2911   */\n      dup11\n        /* \"#utility.yul\":2900:2923   */\n      sub\n        /* \"#utility.yul\":2896:2929   */\n      slt\n        /* \"#utility.yul\":2893:3013   */\n      iszero\n      tag_193\n      jumpi\n        /* \"#utility.yul\":2932:3011   */\n      tag_194\n      tag_115\n      jump\t// in\n    tag_194:\n        /* \"#utility.yul\":2893:3013   */\n    tag_193:\n        /* \"#utility.yul\":3052:3053   */\n      0x00\n        /* \"#utility.yul\":3077:3130   */\n      tag_195\n        /* \"#utility.yul\":3122:3129   */\n      dup11\n        /* \"#utility.yul\":3113:3119   */\n      dup3\n        /* \"#utility.yul\":3102:3111   */\n      dup12\n        /* \"#utility.yul\":3098:3120   */\n      add\n        /* \"#utility.yul\":3077:3130   */\n      tag_120\n      jump\t// in\n    tag_195:\n        /* \"#utility.yul\":3067:3130   */\n      swap8\n      pop\n        /* \"#utility.yul\":3023:3140   */\n      pop\n        /* \"#utility.yul\":3179:3181   */\n      0x20\n        /* \"#utility.yul\":3205:3258   */\n      tag_196\n        /* \"#utility.yul\":3250:3257   */\n      dup11\n        /* \"#utility.yul\":3241:3247   */\n      dup3\n        /* \"#utility.yul\":3230:3239   */\n      dup12\n        /* \"#utility.yul\":3226:3248   */\n      add\n        /* \"#utility.yul\":3205:3258   */\n      tag_123\n      jump\t// in\n    tag_196:\n        /* \"#utility.yul\":3195:3258   */\n      swap7\n      pop\n        /* \"#utility.yul\":3150:3268   */\n      pop\n        /* \"#utility.yul\":3335:3337   */\n      0x40\n        /* \"#utility.yul\":3324:3333   */\n      dup9\n        /* \"#utility.yul\":3320:3338   */\n      add\n        /* \"#utility.yul\":3307:3339   */\n      calldataload\n        /* \"#utility.yul\":3366:3384   */\n      0xffffffffffffffff\n        /* \"#utility.yul\":3358:3364   */\n      dup2\n        /* \"#utility.yul\":3355:3385   */\n      gt\n        /* \"#utility.yul\":3352:3469   */\n      iszero\n      tag_197\n      jumpi\n        /* \"#utility.yul\":3388:3467   */\n      tag_198\n      tag_116\n      jump\t// in\n    tag_198:\n        /* \"#utility.yul\":3352:3469   */\n    tag_197:\n        /* \"#utility.yul\":3501:3566   */\n      tag_199\n        /* \"#utility.yul\":3558:3565   */\n      dup11\n        /* \"#utility.yul\":3549:3555   */\n      dup3\n        /* \"#utility.yul\":3538:3547   */\n      dup12\n        /* \"#utility.yul\":3534:3556   */\n      add\n        /* \"#utility.yul\":3501:3566   */\n      tag_127\n      jump\t// in\n    tag_199:\n        /* \"#utility.yul\":3483:3566   */\n      swap6\n      pop\n      swap6\n      pop\n        /* \"#utility.yul\":3278:3576   */\n      pop\n        /* \"#utility.yul\":3615:3617   */\n      0x60\n        /* \"#utility.yul\":3641:3694   */\n      tag_200\n        /* \"#utility.yul\":3686:3693   */\n      dup11\n        /* \"#utility.yul\":3677:3683   */\n      dup3\n        /* \"#utility.yul\":3666:3675   */\n      dup12\n        /* \"#utility.yul\":3662:3684   */\n      add\n        /* \"#utility.yul\":3641:3694   */\n      tag_123\n      jump\t// in\n    tag_200:\n        /* \"#utility.yul\":3631:3694   */\n      swap4\n      pop\n        /* \"#utility.yul\":3586:3704   */\n      pop\n        /* \"#utility.yul\":3771:3774   */\n      0x80\n        /* \"#utility.yul\":3760:3769   */\n      dup9\n        /* \"#utility.yul\":3756:3775   */\n      add\n        /* \"#utility.yul\":3743:3776   */\n      calldataload\n        /* \"#utility.yul\":3803:3821   */\n      0xffffffffffffffff\n        /* \"#utility.yul\":3795:3801   */\n      dup2\n        /* \"#utility.yul\":3792:3822   */\n      gt\n        /* \"#utility.yul\":3789:3906   */\n      iszero\n      tag_201\n      jumpi\n        /* \"#utility.yul\":3825:3904   */\n      tag_202\n      tag_116\n      jump\t// in\n    tag_202:\n        /* \"#utility.yul\":3789:3906   */\n    tag_201:\n        /* \"#utility.yul\":3938:4002   */\n      tag_203\n        /* \"#utility.yul\":3994:4001   */\n      dup11\n        /* \"#utility.yul\":3985:3991   */\n      dup3\n        /* \"#utility.yul\":3974:3983   */\n      dup12\n        /* \"#utility.yul\":3970:3992   */\n      add\n        /* \"#utility.yul\":3938:4002   */\n      tag_128\n      jump\t// in\n    tag_203:\n        /* \"#utility.yul\":3920:4002   */\n      swap3\n      pop\n      swap3\n      pop\n        /* \"#utility.yul\":3714:4012   */\n      pop\n        /* \"#utility.yul\":2710:4019   */\n      swap3\n      swap6\n      swap9\n      swap2\n      swap5\n      swap8\n      pop\n      swap3\n      swap6\n      pop\n      jump\t// out\n        /* \"#utility.yul\":4025:4115   */\n    tag_129:\n        /* \"#utility.yul\":4059:4066   */\n      0x00\n        /* \"#utility.yul\":4102:4107   */\n      dup2\n        /* \"#utility.yul\":4095:4108   */\n      iszero\n        /* \"#utility.yul\":4088:4109   */\n      iszero\n        /* \"#utility.yul\":4077:4109   */\n      swap1\n      pop\n        /* \"#utility.yul\":4025:4115   */\n      swap2\n      swap1\n      pop\n      jump\t// out\n        /* \"#utility.yul\":4121:4230   */\n    tag_130:\n        /* \"#utility.yul\":4202:4223   */\n      tag_206\n        /* \"#utility.yul\":4217:4222   */\n      dup2\n        /* \"#utility.yul\":4202:4223   */\n      tag_129\n      jump\t// in\n    tag_206:\n        /* \"#utility.yul\":4197:4200   */\n      dup3\n        /* \"#utility.yul\":4190:4224   */\n      mstore\n        /* \"#utility.yul\":4121:4230   */\n      pop\n      pop\n      jump\t// out\n        /* \"#utility.yul\":4236:4446   */\n    tag_18:\n        /* \"#utility.yul\":4323:4327   */\n      0x00\n        /* \"#utility.yul\":4361:4363   */\n      0x20\n        /* \"#utility.yul\":4350:4359   */\n      dup3\n        /* \"#utility.yul\":4346:4364   */\n      add\n        /* \"#utility.yul\":4338:4364   */\n      swap1\n      pop\n        /* \"#utility.yul\":4374:4439   */\n      tag_208\n        /* \"#utility.yul\":4436:4437   */\n      0x00\n        /* \"#utility.yul\":4425:4434   */\n      dup4\n        /* \"#utility.yul\":4421:4438   */\n      add\n        /* \"#utility.yul\":4412:4418   */\n      dup5\n        /* \"#utility.yul\":4374:4439   */\n      tag_130\n      jump\t// in\n    tag_208:\n        /* \"#utility.yul\":4236:4446   */\n      swap3\n      swap2\n      pop\n      pop\n      jump\t// out\n        /* \"#utility.yul\":4452:4570   */\n    tag_131:\n        /* \"#utility.yul\":4539:4563   */\n      tag_210\n        /* \"#utility.yul\":4557:4562   */\n      dup2\n        /* \"#utility.yul\":4539:4563   */\n      tag_121\n      jump\t// in\n    tag_210:\n        /* \"#utility.yul\":4534:4537   */\n      dup3\n        /* \"#utility.yul\":4527:4564   */\n      mstore\n        /* \"#utility.yul\":4452:4570   */\n      pop\n      pop\n      jump\t// out\n        /* \"#utility.yul\":4576:4798   */\n    tag_23:\n        /* \"#utility.yul\":4669:4673   */\n      0x00\n        /* \"#utility.yul\":4707:4709   */\n      0x20\n        /* \"#utility.yul\":4696:4705   */\n      dup3\n        /* \"#utility.yul\":4692:4710   */\n      add\n        /* \"#utility.yul\":4684:4710   */\n      swap1\n      pop\n        /* \"#utility.yul\":4720:4791   */\n      tag_212\n        /* \"#utility.yul\":4788:4789   */\n      0x00\n        /* \"#utility.yul\":4777:4786   */\n      dup4\n        /* \"#utility.yul\":4773:4790   */\n      add\n        /* \"#utility.yul\":4764:4770   */\n      dup5\n        /* \"#utility.yul\":4720:4791   */\n      tag_131\n      jump\t// in\n    tag_212:\n        /* \"#utility.yul\":4576:4798   */\n      swap3\n      swap2\n      pop\n      pop\n      jump\t// out\n        /* \"#utility.yul\":4804:4922   */\n    tag_132:\n        /* \"#utility.yul\":4891:4915   */\n      tag_214\n        /* \"#utility.yul\":4909:4914   */\n      dup2\n        /* \"#utility.yul\":4891:4915   */\n      tag_118\n      jump\t// in\n    tag_214:\n        /* \"#utility.yul\":4886:4889   */\n      dup3\n        /* \"#utility.yul\":4879:4916   */\n      mstore\n        /* \"#utility.yul\":4804:4922   */\n      pop\n      pop\n      jump\t// out\n        /* \"#utility.yul\":4928:5150   */\n    tag_28:\n        /* \"#utility.yul\":5021:5025   */\n      0x00\n        /* \"#utility.yul\":5059:5061   */\n      0x20\n        /* \"#utility.yul\":5048:5057   */\n      dup3\n        /* \"#utility.yul\":5044:5062   */\n      add\n        /* \"#utility.yul\":5036:5062   */\n      swap1\n      pop\n        /* \"#utility.yul\":5072:5143   */\n      tag_216\n        /* \"#utility.yul\":5140:5141   */\n      0x00\n        /* \"#utility.yul\":5129:5138   */\n      dup4\n        /* \"#utility.yul\":5125:5142   */\n      add\n        /* \"#utility.yul\":5116:5122   */\n      dup5\n        /* \"#utility.yul\":5072:5143   */\n      tag_132\n      jump\t// in\n    tag_216:\n        /* \"#utility.yul\":4928:5150   */\n      swap3\n      swap2\n      pop\n      pop\n      jump\t// out\n        /* \"#utility.yul\":5156:5233   */\n    tag_133:\n        /* \"#utility.yul\":5193:5200   */\n      0x00\n        /* \"#utility.yul\":5222:5227   */\n      dup2\n        /* \"#utility.yul\":5211:5227   */\n      swap1\n      pop\n        /* \"#utility.yul\":5156:5233   */\n      swap2\n      swap1\n      pop\n      jump\t// out\n        /* \"#utility.yul\":5239:5361   */\n    tag_134:\n        /* \"#utility.yul\":5312:5336   */\n      tag_219\n        /* \"#utility.yul\":5330:5335   */\n      dup2\n        /* \"#utility.yul\":5312:5336   */\n      tag_133\n      jump\t// in\n    tag_219:\n        /* \"#utility.yul\":5305:5310   */\n      dup2\n        /* \"#utility.yul\":5302:5337   */\n      eq\n        /* \"#utility.yul\":5292:5355   */\n      tag_220\n      jumpi\n        /* \"#utility.yul\":5351:5352   */\n      0x00\n        /* \"#utility.yul\":5348:5349   */\n      0x00\n        /* \"#utility.yul\":5341:5353   */\n      revert\n        /* \"#utility.yul\":5292:5355   */\n    tag_220:\n        /* \"#utility.yul\":5239:5361   */\n      pop\n      jump\t// out\n        /* \"#utility.yul\":5367:5506   */\n    tag_135:\n        /* \"#utility.yul\":5413:5418   */\n      0x00\n        /* \"#utility.yul\":5451:5457   */\n      dup2\n        /* \"#utility.yul\":5438:5458   */\n      calldataload\n        /* \"#utility.yul\":5429:5458   */\n      swap1\n      pop\n        /* \"#utility.yul\":5467:5500   */\n      tag_222\n        /* \"#utility.yul\":5494:5499   */\n      dup2\n        /* \"#utility.yul\":5467:5500   */\n      tag_134\n      jump\t// in\n    tag_222:\n        /* \"#utility.yul\":5367:5506   */\n      swap3\n      swap2\n      pop\n      pop\n      jump\t// out\n        /* \"#utility.yul\":5512:5841   */\n    tag_36:\n        /* \"#utility.yul\":5571:5577   */\n      0x00\n        /* \"#utility.yul\":5620:5622   */\n      0x20\n        /* \"#utility.yul\":5608:5617   */\n      dup3\n        /* \"#utility.yul\":5599:5606   */\n      dup5\n        /* \"#utility.yul\":5595:5618   */\n      sub\n        /* \"#utility.yul\":5591:5623   */\n      slt\n        /* \"#utility.yul\":5588:5707   */\n      iszero\n      tag_224\n      jumpi\n        /* \"#utility.yul\":5626:5705   */\n      tag_225\n      tag_115\n      jump\t// in\n    tag_225:\n        /* \"#utility.yul\":5588:5707   */\n    tag_224:\n        /* \"#utility.yul\":5746:5747   */\n      0x00\n        /* \"#utility.yul\":5771:5824   */\n      tag_226\n        /* \"#utility.yul\":5816:5823   */\n      dup5\n        /* \"#utility.yul\":5807:5813   */\n      dup3\n        /* \"#utility.yul\":5796:5805   */\n      dup6\n        /* \"#utility.yul\":5792:5814   */\n      add\n        /* \"#utility.yul\":5771:5824   */\n      tag_135\n      jump\t// in\n    tag_226:\n        /* \"#utility.yul\":5761:5824   */\n      swap2\n      pop\n        /* \"#utility.yul\":5717:5834   */\n      pop\n        /* \"#utility.yul\":5512:5841   */\n      swap3\n      swap2\n      pop\n      pop\n      jump\t// out\n        /* \"#utility.yul\":5847:6812   */\n    tag_42:\n        /* \"#utility.yul\":5945:5951   */\n      0x00\n        /* \"#utility.yul\":5953:5959   */\n      0x00\n        /* \"#utility.yul\":5961:5967   */\n      0x00\n        /* \"#utility.yul\":5969:5975   */\n      0x00\n        /* \"#utility.yul\":5977:5983   */\n      0x00\n        /* \"#utility.yul\":6026:6029   */\n      0x80\n        /* \"#utility.yul\":6014:6023   */\n      dup7\n        /* \"#utility.yul\":6005:6012   */\n      dup9\n        /* \"#utility.yul\":6001:6024   */\n      sub\n        /* \"#utility.yul\":5997:6030   */\n      slt\n        /* \"#utility.yul\":5994:6114   */\n      iszero\n      tag_228\n      jumpi\n        /* \"#utility.yul\":6033:6112   */\n      tag_229\n      tag_115\n      jump\t// in\n    tag_229:\n        /* \"#utility.yul\":5994:6114   */\n    tag_228:\n        /* \"#utility.yul\":6153:6154   */\n      0x00\n        /* \"#utility.yul\":6178:6231   */\n      tag_230\n        /* \"#utility.yul\":6223:6230   */\n      dup9\n        /* \"#utility.yul\":6214:6220   */\n      dup3\n        /* \"#utility.yul\":6203:6212   */\n      dup10\n        /* \"#utility.yul\":6199:6221   */\n      add\n        /* \"#utility.yul\":6178:6231   */\n      tag_120\n      jump\t// in\n    tag_230:\n        /* \"#utility.yul\":6168:6231   */\n      swap6\n      pop\n        /* \"#utility.yul\":6124:6241   */\n      pop\n        /* \"#utility.yul\":6280:6282   */\n      0x20\n        /* \"#utility.yul\":6306:6359   */\n      tag_231\n        /* \"#utility.yul\":6351:6358   */\n      dup9\n        /* \"#utility.yul\":6342:6348   */\n      dup3\n        /* \"#utility.yul\":6331:6340   */\n      dup10\n        /* \"#utility.yul\":6327:6349   */\n      add\n        /* \"#utility.yul\":6306:6359   */\n      tag_123\n      jump\t// in\n    tag_231:\n        /* \"#utility.yul\":6296:6359   */\n      swap5\n      pop\n        /* \"#utility.yul\":6251:6369   */\n      pop\n        /* \"#utility.yul\":6436:6438   */\n      0x40\n        /* \"#utility.yul\":6425:6434   */\n      dup7\n        /* \"#utility.yul\":6421:6439   */\n      add\n        /* \"#utility.yul\":6408:6440   */\n      calldataload\n        /* \"#utility.yul\":6467:6485   */\n      0xffffffffffffffff\n        /* \"#utility.yul\":6459:6465   */\n      dup2\n        /* \"#utility.yul\":6456:6486   */\n      gt\n        /* \"#utility.yul\":6453:6570   */\n      iszero\n      tag_232\n      jumpi\n        /* \"#utility.yul\":6489:6568   */\n      tag_233\n      tag_116\n      jump\t// in\n    tag_233:\n        /* \"#utility.yul\":6453:6570   */\n    tag_232:\n        /* \"#utility.yul\":6602:6667   */\n      tag_234\n        /* \"#utility.yul\":6659:6666   */\n      dup9\n        /* \"#utility.yul\":6650:6656   */\n      dup3\n        /* \"#utility.yul\":6639:6648   */\n      dup10\n        /* \"#utility.yul\":6635:6657   */\n      add\n        /* \"#utility.yul\":6602:6667   */\n      tag_127\n      jump\t// in\n    tag_234:\n        /* \"#utility.yul\":6584:6667   */\n      swap4\n      pop\n      swap4\n      pop\n        /* \"#utility.yul\":6379:6677   */\n      pop\n        /* \"#utility.yul\":6716:6718   */\n      0x60\n        /* \"#utility.yul\":6742:6795   */\n      tag_235\n        /* \"#utility.yul\":6787:6794   */\n      dup9\n        /* \"#utility.yul\":6778:6784   */\n      dup3\n        /* \"#utility.yul\":6767:6776   */\n      dup10\n        /* \"#utility.yul\":6763:6785   */\n      add\n        /* \"#utility.yul\":6742:6795   */\n      tag_123\n      jump\t// in\n    tag_235:\n        /* \"#utility.yul\":6732:6795   */\n      swap2\n      pop\n        /* \"#utility.yul\":6687:6805   */\n      pop\n        /* \"#utility.yul\":5847:6812   */\n      swap3\n      swap6\n      pop\n      swap3\n      swap6\n      swap1\n      swap4\n      pop\n      jump\t// out\n        /* \"#utility.yul\":6818:6987   */\n    tag_136:\n        /* \"#utility.yul\":6902:6913   */\n      0x00\n        /* \"#utility.yul\":6936:6942   */\n      dup3\n        /* \"#utility.yul\":6931:6934   */\n      dup3\n        /* \"#utility.yul\":6924:6943   */\n      mstore\n        /* \"#utility.yul\":6976:6980   */\n      0x20\n        /* \"#utility.yul\":6971:6974   */\n      dup3\n        /* \"#utility.yul\":6967:6981   */\n      add\n        /* \"#utility.yul\":6952:6981   */\n      swap1\n      pop\n        /* \"#utility.yul\":6818:6987   */\n      swap3\n      swap2\n      pop\n      pop\n      jump\t// out\n        /* \"#utility.yul\":6993:7152   */\n    tag_137:\n        /* \"#utility.yul\":7133:7144   */\n      0x6e6f74206f776e65720000000000000000000000000000000000000000000000\n        /* \"#utility.yul\":7129:7130   */\n      0x00\n        /* \"#utility.yul\":7121:7127   */\n      dup3\n        /* \"#utility.yul\":7117:7131   */\n      add\n        /* \"#utility.yul\":7110:7145   */\n      mstore\n        /* \"#utility.yul\":6993:7152   */\n      pop\n      jump\t// out\n        /* \"#utility.yul\":7158:7523   */\n    tag_138:\n        /* \"#utility.yul\":7300:7303   */\n      0x00\n        /* \"#utility.yul\":7321:7387   */\n      tag_239\n        /* \"#utility.yul\":7385:7386   */\n      0x09\n        /* \"#utility.yul\":7380:7383   */\n      dup4\n        /* \"#utility.yul\":7321:7387   */\n      tag_136\n      jump\t// in\n    tag_239:\n        /* \"#utility.yul\":7314:7387   */\n      swap2\n      pop\n        /* \"#utility.yul\":7396:7489   */\n      tag_240\n        /* \"#utility.yul\":7485:7488   */\n      dup3\n        /* \"#utility.yul\":7396:7489   */\n      tag_137\n      jump\t// in\n    tag_240:\n        /* \"#utility.yul\":7514:7516   */\n      0x20\n        /* \"#utility.yul\":7509:7512   */\n      dup3\n        /* \"#utility.yul\":7505:7517   */\n      add\n        /* \"#utility.yul\":7498:7517   */\n      swap1\n      pop\n        /* \"#utility.yul\":7158:7523   */\n      swap2\n      swap1\n      pop\n      jump\t// out\n        /* \"#utility.yul\":7529:7948   */\n    tag_52:\n        /* \"#utility.yul\":7695:7699   */\n      0x00\n        /* \"#utility.yul\":7733:7735   */\n      0x20\n        /* \"#utility.yul\":7722:7731   */\n      dup3\n        /* \"#utility.yul\":7718:7736   */\n      add\n        /* \"#utility.yul\":7710:7736   */\n      swap1\n      pop\n        /* \"#utility.yul\":7782:7791   */\n      dup2\n        /* \"#utility.yul\":7776:7780   */\n      dup2\n        /* \"#utility.yul\":7772:7792   */\n      sub\n        /* \"#utility.yul\":7768:7769   */\n      0x00\n        /* \"#utility.yul\":7757:7766   */\n      dup4\n        /* \"#utility.yul\":7753:7770   */\n      add\n        /* \"#utility.yul\":7746:7793   */\n      mstore\n        /* \"#utility.yul\":7810:7941   */\n      tag_242\n        /* \"#utility.yul\":7936:7940   */\n      dup2\n        /* \"#utility.yul\":7810:7941   */\n      tag_138\n      jump\t// in\n    tag_242:\n        /* \"#utility.yul\":7802:7941   */\n      swap1\n      pop\n        /* \"#utility.yul\":7529:7948   */\n      swap2\n      swap1\n      pop\n      jump\t// out\n        /* \"#utility.yul\":7954:8175   */\n    tag_139:\n        /* \"#utility.yul\":8094:8128   */\n      0x5f746f20616464726573732063616e6e6f742062652061646472657373207a65\n        /* \"#utility.yul\":8090:8091   */\n      0x00\n        /* \"#utility.yul\":8082:8088   */\n      dup3\n        /* \"#utility.yul\":8078:8092   */\n      add\n        /* \"#utility.yul\":8071:8129   */\n      mstore\n        /* \"#utility.yul\":8163:8167   */\n      0x726f000000000000000000000000000000000000000000000000000000000000\n        /* \"#utility.yul\":8158:8160   */\n      0x20\n        /* \"#utility.yul\":8150:8156   */\n      dup3\n        /* \"#utility.yul\":8146:8161   */\n      add\n        /* \"#utility.yul\":8139:8168   */\n      mstore\n        /* \"#utility.yul\":7954:8175   */\n      pop\n      jump\t// out\n        /* \"#utility.yul\":8181:8547   */\n    tag_140:\n        /* \"#utility.yul\":8323:8326   */\n      0x00\n        /* \"#utility.yul\":8344:8411   */\n      tag_245\n        /* \"#utility.yul\":8408:8410   */\n      0x22\n        /* \"#utility.yul\":8403:8406   */\n      dup4\n        /* \"#utility.yul\":8344:8411   */\n      tag_136\n      jump\t// in\n    tag_245:\n        /* \"#utility.yul\":8337:8411   */\n      swap2\n      pop\n        /* \"#utility.yul\":8420:8513   */\n      tag_246\n        /* \"#utility.yul\":8509:8512   */\n      dup3\n        /* \"#utility.yul\":8420:8513   */\n      tag_139\n      jump\t// in\n    tag_246:\n        /* \"#utility.yul\":8538:8540   */\n      0x40\n        /* \"#utility.yul\":8533:8536   */\n      dup3\n        /* \"#utility.yul\":8529:8541   */\n      add\n        /* \"#utility.yul\":8522:8541   */\n      swap1\n      pop\n        /* \"#utility.yul\":8181:8547   */\n      swap2\n      swap1\n      pop\n      jump\t// out\n        /* \"#utility.yul\":8553:8972   */\n    tag_56:\n        /* \"#utility.yul\":8719:8723   */\n      0x00\n        /* \"#utility.yul\":8757:8759   */\n      0x20\n        /* \"#utility.yul\":8746:8755   */\n      dup3\n        /* \"#utility.yul\":8742:8760   */\n      add\n        /* \"#utility.yul\":8734:8760   */\n      swap1\n      pop\n        /* \"#utility.yul\":8806:8815   */\n      dup2\n        /* \"#utility.yul\":8800:8804   */\n      dup2\n        /* \"#utility.yul\":8796:8816   */\n      sub\n        /* \"#utility.yul\":8792:8793   */\n      0x00\n        /* \"#utility.yul\":8781:8790   */\n      dup4\n        /* \"#utility.yul\":8777:8794   */\n      add\n        /* \"#utility.yul\":8770:8817   */\n      mstore\n        /* \"#utility.yul\":8834:8965   */\n      tag_248\n        /* \"#utility.yul\":8960:8964   */\n      dup2\n        /* \"#utility.yul\":8834:8965   */\n      tag_140\n      jump\t// in\n    tag_248:\n        /* \"#utility.yul\":8826:8965   */\n      swap1\n      pop\n        /* \"#utility.yul\":8553:8972   */\n      swap2\n      swap1\n      pop\n      jump\t// out\n        /* \"#utility.yul\":8978:9152   */\n    tag_141:\n        /* \"#utility.yul\":9118:9144   */\n      0x74696d657374616d702063616e6e6f74206265207a65726f0000000000000000\n        /* \"#utility.yul\":9114:9115   */\n      0x00\n        /* \"#utility.yul\":9106:9112   */\n      dup3\n        /* \"#utility.yul\":9102:9116   */\n      add\n        /* \"#utility.yul\":9095:9145   */\n      mstore\n        /* \"#utility.yul\":8978:9152   */\n      pop\n      jump\t// out\n        /* \"#utility.yul\":9158:9524   */\n    tag_142:\n        /* \"#utility.yul\":9300:9303   */\n      0x00\n        /* \"#utility.yul\":9321:9388   */\n      tag_251\n        /* \"#utility.yul\":9385:9387   */\n      0x18\n        /* \"#utility.yul\":9380:9383   */\n      dup4\n        /* \"#utility.yul\":9321:9388   */\n      tag_136\n      jump\t// in\n    tag_251:\n        /* \"#utility.yul\":9314:9388   */\n      swap2\n      pop\n        /* \"#utility.yul\":9397:9490   */\n      tag_252\n        /* \"#utility.yul\":9486:9489   */\n      dup3\n        /* \"#utility.yul\":9397:9490   */\n      tag_141\n      jump\t// in\n    tag_252:\n        /* \"#utility.yul\":9515:9517   */\n      0x20\n        /* \"#utility.yul\":9510:9513   */\n      dup3\n        /* \"#utility.yul\":9506:9518   */\n      add\n        /* \"#utility.yul\":9499:9518   */\n      swap1\n      pop\n        /* \"#utility.yul\":9158:9524   */\n      swap2\n      swap1\n      pop\n      jump\t// out\n        /* \"#utility.yul\":9530:9949   */\n    tag_59:\n        /* \"#utility.yul\":9696:9700   */\n      0x00\n        /* \"#utility.yul\":9734:9736   */\n      0x20\n        /* \"#utility.yul\":9723:9732   */\n      dup3\n        /* \"#utility.yul\":9719:9737   */\n      add\n        /* \"#utility.yul\":9711:9737   */\n      swap1\n      pop\n        /* \"#utility.yul\":9783:9792   */\n      dup2\n        /* \"#utility.yul\":9777:9781   */\n      dup2\n        /* \"#utility.yul\":9773:9793   */\n      sub\n        /* \"#utility.yul\":9769:9770   */\n      0x00\n        /* \"#utility.yul\":9758:9767   */\n      dup4\n        /* \"#utility.yul\":9754:9771   */\n      add\n        /* \"#utility.yul\":9747:9794   */\n      mstore\n        /* \"#utility.yul\":9811:9942   */\n      tag_254\n        /* \"#utility.yul\":9937:9941   */\n      dup2\n        /* \"#utility.yul\":9811:9942   */\n      tag_142\n      jump\t// in\n    tag_254:\n        /* \"#utility.yul\":9803:9942   */\n      swap1\n      pop\n        /* \"#utility.yul\":9530:9949   */\n      swap2\n      swap1\n      pop\n      jump\t// out\n        /* \"#utility.yul\":9955:10103   */\n    tag_143:\n        /* \"#utility.yul\":10053:10059   */\n      dup3\n        /* \"#utility.yul\":10048:10051   */\n      dup2\n        /* \"#utility.yul\":10043:10046   */\n      dup4\n        /* \"#utility.yul\":10030:10060   */\n      calldatacopy\n        /* \"#utility.yul\":10094:10095   */\n      0x00\n        /* \"#utility.yul\":10085:10091   */\n      dup4\n        /* \"#utility.yul\":10080:10083   */\n      dup4\n        /* \"#utility.yul\":10076:10092   */\n      add\n        /* \"#utility.yul\":10069:10096   */\n      mstore\n        /* \"#utility.yul\":9955:10103   */\n      pop\n      pop\n      pop\n      jump\t// out\n        /* \"#utility.yul\":10109:10211   */\n    tag_144:\n        /* \"#utility.yul\":10150:10156   */\n      0x00\n        /* \"#utility.yul\":10201:10203   */\n      0x1f\n        /* \"#utility.yul\":10197:10204   */\n      not\n        /* \"#utility.yul\":10192:10194   */\n      0x1f\n        /* \"#utility.yul\":10185:10190   */\n      dup4\n        /* \"#utility.yul\":10181:10195   */\n      add\n        /* \"#utility.yul\":10177:10205   */\n      and\n        /* \"#utility.yul\":10167:10205   */\n      swap1\n      pop\n        /* \"#utility.yul\":10109:10211   */\n      swap2\n      swap1\n      pop\n      jump\t// out\n        /* \"#utility.yul\":10241:10558   */\n    tag_145:\n        /* \"#utility.yul\":10339:10342   */\n      0x00\n        /* \"#utility.yul\":10360:10431   */\n      tag_258\n        /* \"#utility.yul\":10424:10430   */\n      dup4\n        /* \"#utility.yul\":10419:10422   */\n      dup6\n        /* \"#utility.yul\":10360:10431   */\n      tag_136\n      jump\t// in\n    tag_258:\n        /* \"#utility.yul\":10353:10431   */\n      swap4\n      pop\n        /* \"#utility.yul\":10441:10497   */\n      tag_259\n        /* \"#utility.yul\":10490:10496   */\n      dup4\n        /* \"#utility.yul\":10485:10488   */\n      dup6\n        /* \"#utility.yul\":10478:10483   */\n      dup5\n        /* \"#utility.yul\":10441:10497   */\n      tag_143\n      jump\t// in\n    tag_259:\n        /* \"#utility.yul\":10522:10551   */\n      tag_260\n        /* \"#utility.yul\":10544:10550   */\n      dup4\n        /* \"#utility.yul\":10522:10551   */\n      tag_144\n      jump\t// in\n    tag_260:\n        /* \"#utility.yul\":10517:10520   */\n      dup5\n        /* \"#utility.yul\":10513:10552   */\n      add\n        /* \"#utility.yul\":10506:10552   */\n      swap1\n      pop\n        /* \"#utility.yul\":10241:10558   */\n      swap4\n      swap3\n      pop\n      pop\n      pop\n      jump\t// out\n        /* \"#utility.yul\":10564:11228   */\n    tag_64:\n        /* \"#utility.yul\":10771:10775   */\n      0x00\n        /* \"#utility.yul\":10809:10812   */\n      0x80\n        /* \"#utility.yul\":10798:10807   */\n      dup3\n        /* \"#utility.yul\":10794:10813   */\n      add\n        /* \"#utility.yul\":10786:10813   */\n      swap1\n      pop\n        /* \"#utility.yul\":10823:10894   */\n      tag_262\n        /* \"#utility.yul\":10891:10892   */\n      0x00\n        /* \"#utility.yul\":10880:10889   */\n      dup4\n        /* \"#utility.yul\":10876:10893   */\n      add\n        /* \"#utility.yul\":10867:10873   */\n      dup9\n        /* \"#utility.yul\":10823:10894   */\n      tag_132\n      jump\t// in\n    tag_262:\n        /* \"#utility.yul\":10904:10976   */\n      tag_263\n        /* \"#utility.yul\":10972:10974   */\n      0x20\n        /* \"#utility.yul\":10961:10970   */\n      dup4\n        /* \"#utility.yul\":10957:10975   */\n      add\n        /* \"#utility.yul\":10948:10954   */\n      dup8\n        /* \"#utility.yul\":10904:10976   */\n      tag_131\n      jump\t// in\n    tag_263:\n        /* \"#utility.yul\":11023:11032   */\n      dup2\n        /* \"#utility.yul\":11017:11021   */\n      dup2\n        /* \"#utility.yul\":11013:11033   */\n      sub\n        /* \"#utility.yul\":11008:11010   */\n      0x40\n        /* \"#utility.yul\":10997:11006   */\n      dup4\n        /* \"#utility.yul\":10993:11011   */\n      add\n        /* \"#utility.yul\":10986:11034   */\n      mstore\n        /* \"#utility.yul\":11051:11139   */\n      tag_264\n        /* \"#utility.yul\":11134:11138   */\n      dup2\n        /* \"#utility.yul\":11125:11131   */\n      dup6\n        /* \"#utility.yul\":11117:11123   */\n      dup8\n        /* \"#utility.yul\":11051:11139   */\n      tag_145\n      jump\t// in\n    tag_264:\n        /* \"#utility.yul\":11043:11139   */\n      swap1\n      pop\n        /* \"#utility.yul\":11149:11221   */\n      tag_265\n        /* \"#utility.yul\":11217:11219   */\n      0x60\n        /* \"#utility.yul\":11206:11215   */\n      dup4\n        /* \"#utility.yul\":11202:11220   */\n      add\n        /* \"#utility.yul\":11193:11199   */\n      dup5\n        /* \"#utility.yul\":11149:11221   */\n      tag_131\n      jump\t// in\n    tag_265:\n        /* \"#utility.yul\":10564:11228   */\n      swap7\n      swap6\n      pop\n      pop\n      pop\n      pop\n      pop\n      pop\n      jump\t// out\n        /* \"#utility.yul\":11234:11414   */\n    tag_146:\n        /* \"#utility.yul\":11282:11359   */\n      0x4e487b7100000000000000000000000000000000000000000000000000000000\n        /* \"#utility.yul\":11279:11280   */\n      0x00\n        /* \"#utility.yul\":11272:11360   */\n      mstore\n        /* \"#utility.yul\":11379:11383   */\n      0x11\n        /* \"#utility.yul\":11376:11377   */\n      0x04\n        /* \"#utility.yul\":11369:11384   */\n      mstore\n        /* \"#utility.yul\":11403:11407   */\n      0x24\n        /* \"#utility.yul\":11400:11401   */\n      0x00\n        /* \"#utility.yul\":11393:11408   */\n      revert\n        /* \"#utility.yul\":11420:11611   */\n    tag_66:\n        /* \"#utility.yul\":11460:11463   */\n      0x00\n        /* \"#utility.yul\":11479:11499   */\n      tag_268\n        /* \"#utility.yul\":11497:11498   */\n      dup3\n        /* \"#utility.yul\":11479:11499   */\n      tag_121\n      jump\t// in\n    tag_268:\n        /* \"#utility.yul\":11474:11499   */\n      swap2\n      pop\n        /* \"#utility.yul\":11513:11533   */\n      tag_269\n        /* \"#utility.yul\":11531:11532   */\n      dup4\n        /* \"#utility.yul\":11513:11533   */\n      tag_121\n      jump\t// in\n    tag_269:\n        /* \"#utility.yul\":11508:11533   */\n      swap3\n      pop\n        /* \"#utility.yul\":11556:11557   */\n      dup3\n        /* \"#utility.yul\":11553:11554   */\n      dup3\n        /* \"#utility.yul\":11549:11558   */\n      add\n        /* \"#utility.yul\":11542:11558   */\n      swap1\n      pop\n        /* \"#utility.yul\":11577:11580   */\n      dup1\n        /* \"#utility.yul\":11574:11575   */\n      dup3\n        /* \"#utility.yul\":11571:11581   */\n      gt\n        /* \"#utility.yul\":11568:11604   */\n      iszero\n      tag_270\n      jumpi\n        /* \"#utility.yul\":11584:11602   */\n      tag_271\n      tag_146\n      jump\t// in\n    tag_271:\n        /* \"#utility.yul\":11568:11604   */\n    tag_270:\n        /* \"#utility.yul\":11420:11611   */\n      swap3\n      swap2\n      pop\n      pop\n      jump\t// out\n        /* \"#utility.yul\":11617:11785   */\n    tag_147:\n        /* \"#utility.yul\":11757:11777   */\n      0x657865637574652074696d65206572726f720000000000000000000000000000\n        /* \"#utility.yul\":11753:11754   */\n      0x00\n        /* \"#utility.yul\":11745:11751   */\n      dup3\n        /* \"#utility.yul\":11741:11755   */\n      add\n        /* \"#utility.yul\":11734:11778   */\n      mstore\n        /* \"#utility.yul\":11617:11785   */\n      pop\n      jump\t// out\n        /* \"#utility.yul\":11791:12157   */\n    tag_148:\n        /* \"#utility.yul\":11933:11936   */\n      0x00\n        /* \"#utility.yul\":11954:12021   */\n      tag_274\n        /* \"#utility.yul\":12018:12020   */\n      0x12\n        /* \"#utility.yul\":12013:12016   */\n      dup4\n        /* \"#utility.yul\":11954:12021   */\n      tag_136\n      jump\t// in\n    tag_274:\n        /* \"#utility.yul\":11947:12021   */\n      swap2\n      pop\n        /* \"#utility.yul\":12030:12123   */\n      tag_275\n        /* \"#utility.yul\":12119:12122   */\n      dup3\n        /* \"#utility.yul\":12030:12123   */\n      tag_147\n      jump\t// in\n    tag_275:\n        /* \"#utility.yul\":12148:12150   */\n      0x20\n        /* \"#utility.yul\":12143:12146   */\n      dup3\n        /* \"#utility.yul\":12139:12151   */\n      add\n        /* \"#utility.yul\":12132:12151   */\n      swap1\n      pop\n        /* \"#utility.yul\":11791:12157   */\n      swap2\n      swap1\n      pop\n      jump\t// out\n        /* \"#utility.yul\":12163:13135   */\n    tag_71:\n        /* \"#utility.yul\":12471:12475   */\n      0x00\n        /* \"#utility.yul\":12509:12512   */\n      0xa0\n        /* \"#utility.yul\":12498:12507   */\n      dup3\n        /* \"#utility.yul\":12494:12513   */\n      add\n        /* \"#utility.yul\":12486:12513   */\n      swap1\n      pop\n        /* \"#utility.yul\":12523:12594   */\n      tag_277\n        /* \"#utility.yul\":12591:12592   */\n      0x00\n        /* \"#utility.yul\":12580:12589   */\n      dup4\n        /* \"#utility.yul\":12576:12593   */\n      add\n        /* \"#utility.yul\":12567:12573   */\n      dup9\n        /* \"#utility.yul\":12523:12594   */\n      tag_132\n      jump\t// in\n    tag_277:\n        /* \"#utility.yul\":12604:12676   */\n      tag_278\n        /* \"#utility.yul\":12672:12674   */\n      0x20\n        /* \"#utility.yul\":12661:12670   */\n      dup4\n        /* \"#utility.yul\":12657:12675   */\n      add\n        /* \"#utility.yul\":12648:12654   */\n      dup8\n        /* \"#utility.yul\":12604:12676   */\n      tag_131\n      jump\t// in\n    tag_278:\n        /* \"#utility.yul\":12723:12732   */\n      dup2\n        /* \"#utility.yul\":12717:12721   */\n      dup2\n        /* \"#utility.yul\":12713:12733   */\n      sub\n        /* \"#utility.yul\":12708:12710   */\n      0x40\n        /* \"#utility.yul\":12697:12706   */\n      dup4\n        /* \"#utility.yul\":12693:12711   */\n      add\n        /* \"#utility.yul\":12686:12734   */\n      mstore\n        /* \"#utility.yul\":12751:12839   */\n      tag_279\n        /* \"#utility.yul\":12834:12838   */\n      dup2\n        /* \"#utility.yul\":12825:12831   */\n      dup6\n        /* \"#utility.yul\":12817:12823   */\n      dup8\n        /* \"#utility.yul\":12751:12839   */\n      tag_145\n      jump\t// in\n    tag_279:\n        /* \"#utility.yul\":12743:12839   */\n      swap1\n      pop\n        /* \"#utility.yul\":12849:12921   */\n      tag_280\n        /* \"#utility.yul\":12917:12919   */\n      0x60\n        /* \"#utility.yul\":12906:12915   */\n      dup4\n        /* \"#utility.yul\":12902:12920   */\n      add\n        /* \"#utility.yul\":12893:12899   */\n      dup5\n        /* \"#utility.yul\":12849:12921   */\n      tag_131\n      jump\t// in\n    tag_280:\n        /* \"#utility.yul\":12969:12978   */\n      dup2\n        /* \"#utility.yul\":12963:12967   */\n      dup2\n        /* \"#utility.yul\":12959:12979   */\n      sub\n        /* \"#utility.yul\":12953:12956   */\n      0x80\n        /* \"#utility.yul\":12942:12951   */\n      dup4\n        /* \"#utility.yul\":12938:12957   */\n      add\n        /* \"#utility.yul\":12931:12980   */\n      mstore\n        /* \"#utility.yul\":12997:13128   */\n      tag_281\n        /* \"#utility.yul\":13123:13127   */\n      dup2\n        /* \"#utility.yul\":12997:13128   */\n      tag_148\n      jump\t// in\n    tag_281:\n        /* \"#utility.yul\":12989:13128   */\n      swap1\n      pop\n        /* \"#utility.yul\":12163:13135   */\n      swap7\n      swap6\n      pop\n      pop\n      pop\n      pop\n      pop\n      pop\n      jump\t// out\n        /* \"#utility.yul\":13141:13288   */\n    tag_149:\n        /* \"#utility.yul\":13242:13253   */\n      0x00\n        /* \"#utility.yul\":13279:13282   */\n      dup2\n        /* \"#utility.yul\":13264:13282   */\n      swap1\n      pop\n        /* \"#utility.yul\":13141:13288   */\n      swap3\n      swap2\n      pop\n      pop\n      jump\t// out\n        /* \"#utility.yul\":13316:13643   */\n    tag_150:\n        /* \"#utility.yul\":13430:13433   */\n      0x00\n        /* \"#utility.yul\":13451:13539   */\n      tag_284\n        /* \"#utility.yul\":13532:13538   */\n      dup4\n        /* \"#utility.yul\":13527:13530   */\n      dup6\n        /* \"#utility.yul\":13451:13539   */\n      tag_149\n      jump\t// in\n    tag_284:\n        /* \"#utility.yul\":13444:13539   */\n      swap4\n      pop\n        /* \"#utility.yul\":13549:13605   */\n      tag_285\n        /* \"#utility.yul\":13598:13604   */\n      dup4\n        /* \"#utility.yul\":13593:13596   */\n      dup6\n        /* \"#utility.yul\":13586:13591   */\n      dup5\n        /* \"#utility.yul\":13549:13605   */\n      tag_143\n      jump\t// in\n    tag_285:\n        /* \"#utility.yul\":13630:13636   */\n      dup3\n        /* \"#utility.yul\":13625:13628   */\n      dup5\n        /* \"#utility.yul\":13621:13637   */\n      add\n        /* \"#utility.yul\":13614:13637   */\n      swap1\n      pop\n        /* \"#utility.yul\":13316:13643   */\n      swap4\n      swap3\n      pop\n      pop\n      pop\n      jump\t// out\n        /* \"#utility.yul\":13649:13940   */\n    tag_74:\n        /* \"#utility.yul\":13789:13792   */\n      0x00\n        /* \"#utility.yul\":13811:13914   */\n      tag_287\n        /* \"#utility.yul\":13910:13913   */\n      dup3\n        /* \"#utility.yul\":13901:13907   */\n      dup5\n        /* \"#utility.yul\":13893:13899   */\n      dup7\n        /* \"#utility.yul\":13811:13914   */\n      tag_150\n      jump\t// in\n    tag_287:\n        /* \"#utility.yul\":13804:13914   */\n      swap2\n      pop\n        /* \"#utility.yul\":13931:13934   */\n      dup2\n        /* \"#utility.yul\":13924:13934   */\n      swap1\n      pop\n        /* \"#utility.yul\":13649:13940   */\n      swap4\n      swap3\n      pop\n      pop\n      pop\n      jump\t// out\n        /* \"#utility.yul\":13946:14095   */\n    tag_151:\n        /* \"#utility.yul\":13982:13989   */\n      0x00\n        /* \"#utility.yul\":14022:14088   */\n      0xffffffff00000000000000000000000000000000000000000000000000000000\n        /* \"#utility.yul\":14015:14020   */\n      dup3\n        /* \"#utility.yul\":14011:14089   */\n      and\n        /* \"#utility.yul\":14000:14089   */\n      swap1\n      pop\n        /* \"#utility.yul\":13946:14095   */\n      swap2\n      swap1\n      pop\n      jump\t// out\n        /* \"#utility.yul\":14101:14179   */\n    tag_152:\n        /* \"#utility.yul\":14139:14146   */\n      0x00\n        /* \"#utility.yul\":14168:14173   */\n      dup2\n        /* \"#utility.yul\":14157:14173   */\n      swap1\n      pop\n        /* \"#utility.yul\":14101:14179   */\n      swap2\n      swap1\n      pop\n      jump\t// out\n        /* \"#utility.yul\":14185:14338   */\n    tag_153:\n        /* \"#utility.yul\":14288:14331   */\n      tag_291\n        /* \"#utility.yul\":14307:14330   */\n      tag_292\n        /* \"#utility.yul\":14324:14329   */\n      dup3\n        /* \"#utility.yul\":14307:14330   */\n      tag_151\n      jump\t// in\n    tag_292:\n        /* \"#utility.yul\":14288:14331   */\n      tag_152\n      jump\t// in\n    tag_291:\n        /* \"#utility.yul\":14283:14286   */\n      dup3\n        /* \"#utility.yul\":14276:14332   */\n      mstore\n        /* \"#utility.yul\":14185:14338   */\n      pop\n      pop\n      jump\t// out\n        /* \"#utility.yul\":14344:14771   */\n    tag_76:\n        /* \"#utility.yul\":14510:14513   */\n      0x00\n        /* \"#utility.yul\":14525:14598   */\n      tag_294\n        /* \"#utility.yul\":14594:14597   */\n      dup3\n        /* \"#utility.yul\":14585:14591   */\n      dup7\n        /* \"#utility.yul\":14525:14598   */\n      tag_153\n      jump\t// in\n    tag_294:\n        /* \"#utility.yul\":14623:14624   */\n      0x04\n        /* \"#utility.yul\":14618:14621   */\n      dup3\n        /* \"#utility.yul\":14614:14625   */\n      add\n        /* \"#utility.yul\":14607:14625   */\n      swap2\n      pop\n        /* \"#utility.yul\":14642:14745   */\n      tag_295\n        /* \"#utility.yul\":14741:14744   */\n      dup3\n        /* \"#utility.yul\":14732:14738   */\n      dup5\n        /* \"#utility.yul\":14724:14730   */\n      dup7\n        /* \"#utility.yul\":14642:14745   */\n      tag_150\n      jump\t// in\n    tag_295:\n        /* \"#utility.yul\":14635:14745   */\n      swap2\n      pop\n        /* \"#utility.yul\":14762:14765   */\n      dup2\n        /* \"#utility.yul\":14755:14765   */\n      swap1\n      pop\n        /* \"#utility.yul\":14344:14771   */\n      swap5\n      swap4\n      pop\n      pop\n      pop\n      pop\n      jump\t// out\n        /* \"#utility.yul\":14777:14895   */\n    tag_154:\n        /* \"#utility.yul\":14864:14888   */\n      tag_297\n        /* \"#utility.yul\":14882:14887   */\n      dup2\n        /* \"#utility.yul\":14864:14888   */\n      tag_133\n      jump\t// in\n    tag_297:\n        /* \"#utility.yul\":14859:14862   */\n      dup3\n        /* \"#utility.yul\":14852:14889   */\n      mstore\n        /* \"#utility.yul\":14777:14895   */\n      pop\n      pop\n      jump\t// out\n        /* \"#utility.yul\":14901:15123   */\n    tag_84:\n        /* \"#utility.yul\":14994:14998   */\n      0x00\n        /* \"#utility.yul\":15032:15034   */\n      0x20\n        /* \"#utility.yul\":15021:15030   */\n      dup3\n        /* \"#utility.yul\":15017:15035   */\n      add\n        /* \"#utility.yul\":15009:15035   */\n      swap1\n      pop\n        /* \"#utility.yul\":15045:15116   */\n      tag_299\n        /* \"#utility.yul\":15113:15114   */\n      0x00\n        /* \"#utility.yul\":15102:15111   */\n      dup4\n        /* \"#utility.yul\":15098:15115   */\n      add\n        /* \"#utility.yul\":15089:15095   */\n      dup5\n        /* \"#utility.yul\":15045:15116   */\n      tag_154\n      jump\t// in\n    tag_299:\n        /* \"#utility.yul\":14901:15123   */\n      swap3\n      swap2\n      pop\n      pop\n      jump\t// out\n        /* \"#utility.yul\":15129:15289   */\n    tag_155:\n        /* \"#utility.yul\":15269:15281   */\n      0x74696d65206572726f7200000000000000000000000000000000000000000000\n        /* \"#utility.yul\":15265:15266   */\n      0x00\n        /* \"#utility.yul\":15257:15263   */\n      dup3\n        /* \"#utility.yul\":15253:15267   */\n      add\n        /* \"#utility.yul\":15246:15282   */\n      mstore\n        /* \"#utility.yul\":15129:15289   */\n      pop\n      jump\t// out\n        /* \"#utility.yul\":15295:15661   */\n    tag_156:\n        /* \"#utility.yul\":15437:15440   */\n      0x00\n        /* \"#utility.yul\":15458:15525   */\n      tag_302\n        /* \"#utility.yul\":15522:15524   */\n      0x0a\n        /* \"#utility.yul\":15517:15520   */\n      dup4\n        /* \"#utility.yul\":15458:15525   */\n      tag_136\n      jump\t// in\n    tag_302:\n        /* \"#utility.yul\":15451:15525   */\n      swap2\n      pop\n        /* \"#utility.yul\":15534:15627   */\n      tag_303\n        /* \"#utility.yul\":15623:15626   */\n      dup3\n        /* \"#utility.yul\":15534:15627   */\n      tag_155\n      jump\t// in\n    tag_303:\n        /* \"#utility.yul\":15652:15654   */\n      0x20\n        /* \"#utility.yul\":15647:15650   */\n      dup3\n        /* \"#utility.yul\":15643:15655   */\n      add\n        /* \"#utility.yul\":15636:15655   */\n      swap1\n      pop\n        /* \"#utility.yul\":15295:15661   */\n      swap2\n      swap1\n      pop\n      jump\t// out\n        /* \"#utility.yul\":15667:16639   */\n    tag_99:\n        /* \"#utility.yul\":15975:15979   */\n      0x00\n        /* \"#utility.yul\":16013:16016   */\n      0xa0\n        /* \"#utility.yul\":16002:16011   */\n      dup3\n        /* \"#utility.yul\":15998:16017   */\n      add\n        /* \"#utility.yul\":15990:16017   */\n      swap1\n      pop\n        /* \"#utility.yul\":16027:16098   */\n      tag_305\n        /* \"#utility.yul\":16095:16096   */\n      0x00\n        /* \"#utility.yul\":16084:16093   */\n      dup4\n        /* \"#utility.yul\":16080:16097   */\n      add\n        /* \"#utility.yul\":16071:16077   */\n      dup9\n        /* \"#utility.yul\":16027:16098   */\n      tag_132\n      jump\t// in\n    tag_305:\n        /* \"#utility.yul\":16108:16180   */\n      tag_306\n        /* \"#utility.yul\":16176:16178   */\n      0x20\n        /* \"#utility.yul\":16165:16174   */\n      dup4\n        /* \"#utility.yul\":16161:16179   */\n      add\n        /* \"#utility.yul\":16152:16158   */\n      dup8\n        /* \"#utility.yul\":16108:16180   */\n      tag_131\n      jump\t// in\n    tag_306:\n        /* \"#utility.yul\":16227:16236   */\n      dup2\n        /* \"#utility.yul\":16221:16225   */\n      dup2\n        /* \"#utility.yul\":16217:16237   */\n      sub\n        /* \"#utility.yul\":16212:16214   */\n      0x40\n        /* \"#utility.yul\":16201:16210   */\n      dup4\n        /* \"#utility.yul\":16197:16215   */\n      add\n        /* \"#utility.yul\":16190:16238   */\n      mstore\n        /* \"#utility.yul\":16255:16343   */\n      tag_307\n        /* \"#utility.yul\":16338:16342   */\n      dup2\n        /* \"#utility.yul\":16329:16335   */\n      dup6\n        /* \"#utility.yul\":16321:16327   */\n      dup8\n        /* \"#utility.yul\":16255:16343   */\n      tag_145\n      jump\t// in\n    tag_307:\n        /* \"#utility.yul\":16247:16343   */\n      swap1\n      pop\n        /* \"#utility.yul\":16353:16425   */\n      tag_308\n        /* \"#utility.yul\":16421:16423   */\n      0x60\n        /* \"#utility.yul\":16410:16419   */\n      dup4\n        /* \"#utility.yul\":16406:16424   */\n      add\n        /* \"#utility.yul\":16397:16403   */\n      dup5\n        /* \"#utility.yul\":16353:16425   */\n      tag_131\n      jump\t// in\n    tag_308:\n        /* \"#utility.yul\":16473:16482   */\n      dup2\n        /* \"#utility.yul\":16467:16471   */\n      dup2\n        /* \"#utility.yul\":16463:16483   */\n      sub\n        /* \"#utility.yul\":16457:16460   */\n      0x80\n        /* \"#utility.yul\":16446:16455   */\n      dup4\n        /* \"#utility.yul\":16442:16461   */\n      add\n        /* \"#utility.yul\":16435:16484   */\n      mstore\n        /* \"#utility.yul\":16501:16632   */\n      tag_309\n        /* \"#utility.yul\":16627:16631   */\n      dup2\n        /* \"#utility.yul\":16501:16632   */\n      tag_156\n      jump\t// in\n    tag_309:\n        /* \"#utility.yul\":16493:16632   */\n      swap1\n      pop\n        /* \"#utility.yul\":15667:16639   */\n      swap7\n      swap6\n      pop\n      pop\n      pop\n      pop\n      pop\n      pop\n      jump\t// out\n        /* \"#utility.yul\":16645:17309   */\n    tag_113:\n        /* \"#utility.yul\":16852:16856   */\n      0x00\n        /* \"#utility.yul\":16890:16893   */\n      0x80\n        /* \"#utility.yul\":16879:16888   */\n      dup3\n        /* \"#utility.yul\":16875:16894   */\n      add\n        /* \"#utility.yul\":16867:16894   */\n      swap1\n      pop\n        /* \"#utility.yul\":16904:16975   */\n      tag_311\n        /* \"#utility.yul\":16972:16973   */\n      0x00\n        /* \"#utility.yul\":16961:16970   */\n      dup4\n        /* \"#utility.yul\":16957:16974   */\n      add\n        /* \"#utility.yul\":16948:16954   */\n      dup9\n        /* \"#utility.yul\":16904:16975   */\n      tag_132\n      jump\t// in\n    tag_311:\n        /* \"#utility.yul\":16985:17057   */\n      tag_312\n        /* \"#utility.yul\":17053:17055   */\n      0x20\n        /* \"#utility.yul\":17042:17051   */\n      dup4\n        /* \"#utility.yul\":17038:17056   */\n      add\n        /* \"#utility.yul\":17029:17035   */\n      dup8\n        /* \"#utility.yul\":16985:17057   */\n      tag_131\n      jump\t// in\n    tag_312:\n        /* \"#utility.yul\":17067:17139   */\n      tag_313\n        /* \"#utility.yul\":17135:17137   */\n      0x40\n        /* \"#utility.yul\":17124:17133   */\n      dup4\n        /* \"#utility.yul\":17120:17138   */\n      add\n        /* \"#utility.yul\":17111:17117   */\n      dup7\n        /* \"#utility.yul\":17067:17139   */\n      tag_131\n      jump\t// in\n    tag_313:\n        /* \"#utility.yul\":17186:17195   */\n      dup2\n        /* \"#utility.yul\":17180:17184   */\n      dup2\n        /* \"#utility.yul\":17176:17196   */\n      sub\n        /* \"#utility.yul\":17171:17173   */\n      0x60\n        /* \"#utility.yul\":17160:17169   */\n      dup4\n        /* \"#utility.yul\":17156:17174   */\n      add\n        /* \"#utility.yul\":17149:17197   */\n      mstore\n        /* \"#utility.yul\":17214:17302   */\n      tag_314\n        /* \"#utility.yul\":17297:17301   */\n      dup2\n        /* \"#utility.yul\":17288:17294   */\n      dup5\n        /* \"#utility.yul\":17280:17286   */\n      dup7\n        /* \"#utility.yul\":17214:17302   */\n      tag_145\n      jump\t// in\n    tag_314:\n        /* \"#utility.yul\":17206:17302   */\n      swap1\n      pop\n        /* \"#utility.yul\":16645:17309   */\n      swap7\n      swap6\n      pop\n      pop\n      pop\n      pop\n      pop\n      pop\n      jump\t// out\n\n    auxdata: 0xa26469706673582212204bf9033d80f4c7bd2e92c548b19f84ae6a919a6a67f51a47ec680940f95ec41d64736f6c634300081e0033\n}\n",
				"bytecode": {
					"linkReferences": {},
					"object": "6080604052348015600e575f5ffd5b503360015f6101000a81548173ffffffffffffffffffffffffffffffffffffffff021916908373ffffffffffffffffffffffffffffffffffffffff1602179055506112928061005c5f395ff3fe608060405260043610610073575f3560e01c80638ff07b5b1161004d5780638ff07b5b146101025780639fbe8f1d1461012c578063a8fc999e14610168578063c4d252f5146101a45761007a565b8063161dabef1461007e57806326949984146100ae5780638da5cb5b146100d85761007a565b3661007a57005b5f5ffd5b61009860048036038101906100939190610b5c565b6101cc565b6040516100a59190610c2d565b60405180910390f35b3480156100b9575f5ffd5b506100c26105a8565b6040516100cf9190610c55565b60405180910390f35b3480156100e3575f5ffd5b506100ec6105ae565b6040516100f99190610c7d565b60405180910390f35b34801561010d575f5ffd5b506101166105d3565b6040516101239190610c55565b60405180910390f35b348015610137575f5ffd5b50610152600480360381019061014d9190610cc9565b6105d8565b60405161015f9190610c2d565b60405180910390f35b348015610173575f5ffd5b5061018e60048036038101906101899190610cf4565b6105f4565b60405161019b9190610c2d565b60405180910390f35b3480156101af575f5ffd5b506101ca60048036038101906101c59190610cc9565b610888565b005b5f60015f9054906101000a900473ffffffffffffffffffffffffffffffffffffffff1673ffffffffffffffffffffffffffffffffffffffff163373ffffffffffffffffffffffffffffffffffffffff161461025c576040517f08c379a000000000000000000000000000000000000000000000000000000000815260040161025390610dd2565b60405180910390fd5b5f73ffffffffffffffffffffffffffffffffffffffff168873ffffffffffffffffffffffffffffffffffffffff16036102ca576040517f08c379a00000000000000000000000000000000000000000000000000000000081526004016102c190610e60565b60405180910390fd5b5f840361030c576040517f08c379a000000000000000000000000000000000000000000000000000000000815260040161030390610ec8565b60405180910390fd5b5f61031a89898989896109d6565b90505f5f8281526020019081526020015f205f9054906101000a900460ff166103825788888888886040517f6aceb94d000000000000000000000000000000000000000000000000000000008152600401610379959493929190610f30565b60405180910390fd5b600a8561038f9190610fa9565b4210806103a857506103e8856103a59190610fa9565b42115b156103f25788888888886040517f0ff2c4660000000000000000000000000000000000000000000000000000000081526004016103e9959493929190611026565b60405180910390fd5b60605f88889050111561044157878760405161040f9291906110b3565b6040518091039020858560405160200161042b93929190611116565b6040516020818303038152906040529050610488565b84848080601f0160208091040260200160405190810160405280939291908181526020018383808284375f81840152601f19601f8201169050808301925050505050505090505b5f5f8b73ffffffffffffffffffffffffffffffffffffffff168b88886040516104b29291906110b3565b5f6040518083038185875af1925050503d805f81146104ec576040519150601f19603f3d011682016040523d82523d5f602084013e6104f1565b606091505b50915091508161053857836040517f9c020eb800000000000000000000000000000000000000000000000000000000815260040161052f919061114e565b60405180910390fd5b5f5f5f8681526020019081526020015f205f6101000a81548160ff0219169083151502179055507f60e7f8dae2c3321b31151d4f73826636445ba8d1853e369e9d9c3bf13d3f09ca8460405161058e919061114e565b60405180910390a181945050505050979650505050505050565b6103e881565b60015f9054906101000a900473ffffffffffffffffffffffffffffffffffffffff1681565b600a81565b5f602052805f5260405f205f915054906101000a900460ff1681565b5f60015f9054906101000a900473ffffffffffffffffffffffffffffffffffffffff1673ffffffffffffffffffffffffffffffffffffffff163373ffffffffffffffffffffffffffffffffffffffff1614610684576040517f08c379a000000000000000000000000000000000000000000000000000000000815260040161067b90610dd2565b60405180910390fd5b5f73ffffffffffffffffffffffffffffffffffffffff168673ffffffffffffffffffffffffffffffffffffffff16036106f2576040517f08c379a00000000000000000000000000000000000000000000000000000000081526004016106e990610e60565b60405180910390fd5b5f8203610734576040517f08c379a000000000000000000000000000000000000000000000000000000000815260040161072b90610ec8565b60405180910390fd5b600a426107419190610fa9565b82108061075a57506103e8426107579190610fa9565b82115b156107a45785858585856040517f0ff2c46600000000000000000000000000000000000000000000000000000000815260040161079b9594939291906111b1565b60405180910390fd5b5f6107b287878787876109d6565b90505f5f8281526020019081526020015f205f9054906101000a900460ff161561081357806040517f995042be00000000000000000000000000000000000000000000000000000000815260040161080a919061114e565b60405180910390fd5b60015f5f8381526020019081526020015f205f6101000a81548160ff0219169083151502179055507f9cee5db012f9a6b2e7f49190113215669856d2bc4fb953afc7bb12e07d4d19148787878787604051610872959493929190610f30565b60405180910390a1600191505095945050505050565b60015f9054906101000a900473ffffffffffffffffffffffffffffffffffffffff1673ffffffffffffffffffffffffffffffffffffffff163373ffffffffffffffffffffffffffffffffffffffff1614610917576040517f08c379a000000000000000000000000000000000000000000000000000000000815260040161090e90610dd2565b60405180910390fd5b5f5f8281526020019081526020015f205f9054906101000a900460ff1661097557806040517febf199f000000000000000000000000000000000000000000000000000000000815260040161096c919061114e565b60405180910390fd5b5f5f5f8381526020019081526020015f205f6101000a81548160ff0219169083151502179055507f3b2f935b2a0ae98eac73ab20c3a507b077e5b2bd5b71382664ce4b6332abdf93816040516109cb919061114e565b60405180910390a150565b5f85858386866040516020016109f0959493929190611210565b60405160208183030381529060405280519060200120905095945050505050565b5f5ffd5b5f5ffd5b5f73ffffffffffffffffffffffffffffffffffffffff82169050919050565b5f610a4282610a19565b9050919050565b610a5281610a38565b8114610a5c575f5ffd5b50565b5f81359050610a6d81610a49565b92915050565b5f819050919050565b610a8581610a73565b8114610a8f575f5ffd5b50565b5f81359050610aa081610a7c565b92915050565b5f5ffd5b5f5ffd5b5f5ffd5b5f5f83601f840112610ac757610ac6610aa6565b5b8235905067ffffffffffffffff811115610ae457610ae3610aaa565b5b602083019150836001820283011115610b0057610aff610aae565b5b9250929050565b5f5f83601f840112610b1c57610b1b610aa6565b5b8235905067ffffffffffffffff811115610b3957610b38610aaa565b5b602083019150836001820283011115610b5557610b54610aae565b5b9250929050565b5f5f5f5f5f5f5f60a0888a031215610b7757610b76610a11565b5b5f610b848a828b01610a5f565b9750506020610b958a828b01610a92565b965050604088013567ffffffffffffffff811115610bb657610bb5610a15565b5b610bc28a828b01610ab2565b95509550506060610bd58a828b01610a92565b935050608088013567ffffffffffffffff811115610bf657610bf5610a15565b5b610c028a828b01610b07565b925092505092959891949750929550565b5f8115159050919050565b610c2781610c13565b82525050565b5f602082019050610c405f830184610c1e565b92915050565b610c4f81610a73565b82525050565b5f602082019050610c685f830184610c46565b92915050565b610c7781610a38565b82525050565b5f602082019050610c905f830184610c6e565b92915050565b5f819050919050565b610ca881610c96565b8114610cb2575f5ffd5b50565b5f81359050610cc381610c9f565b92915050565b5f60208284031215610cde57610cdd610a11565b5b5f610ceb84828501610cb5565b91505092915050565b5f5f5f5f5f60808688031215610d0d57610d0c610a11565b5b5f610d1a88828901610a5f565b9550506020610d2b88828901610a92565b945050604086013567ffffffffffffffff811115610d4c57610d4b610a15565b5b610d5888828901610ab2565b93509350506060610d6b88828901610a92565b9150509295509295909350565b5f82825260208201905092915050565b7f6e6f74206f776e657200000000000000000000000000000000000000000000005f82015250565b5f610dbc600983610d78565b9150610dc782610d88565b602082019050919050565b5f6020820190508181035f830152610de981610db0565b9050919050565b7f5f746f20616464726573732063616e6e6f742062652061646472657373207a655f8201527f726f000000000000000000000000000000000000000000000000000000000000602082015250565b5f610e4a602283610d78565b9150610e5582610df0565b604082019050919050565b5f6020820190508181035f830152610e7781610e3e565b9050919050565b7f74696d657374616d702063616e6e6f74206265207a65726f00000000000000005f82015250565b5f610eb2601883610d78565b9150610ebd82610e7e565b602082019050919050565b5f6020820190508181035f830152610edf81610ea6565b9050919050565b828183375f83830152505050565b5f601f19601f8301169050919050565b5f610f0f8385610d78565b9350610f1c838584610ee6565b610f2583610ef4565b840190509392505050565b5f608082019050610f435f830188610c6e565b610f506020830187610c46565b8181036040830152610f63818587610f04565b9050610f726060830184610c46565b9695505050505050565b7f4e487b71000000000000000000000000000000000000000000000000000000005f52601160045260245ffd5b5f610fb382610a73565b9150610fbe83610a73565b9250828201905080821115610fd657610fd5610f7c565b5b92915050565b7f657865637574652074696d65206572726f7200000000000000000000000000005f82015250565b5f611010601283610d78565b915061101b82610fdc565b602082019050919050565b5f60a0820190506110395f830188610c6e565b6110466020830187610c46565b8181036040830152611059818587610f04565b90506110686060830184610c46565b818103608083015261107981611004565b90509695505050505050565b5f81905092915050565b5f61109a8385611085565b93506110a7838584610ee6565b82840190509392505050565b5f6110bf82848661108f565b91508190509392505050565b5f7fffffffff0000000000000000000000000000000000000000000000000000000082169050919050565b5f819050919050565b61111061110b826110cb565b6110f6565b82525050565b5f61112182866110ff565b60048201915061113282848661108f565b9150819050949350505050565b61114881610c96565b82525050565b5f6020820190506111615f83018461113f565b92915050565b7f74696d65206572726f72000000000000000000000000000000000000000000005f82015250565b5f61119b600a83610d78565b91506111a682611167565b602082019050919050565b5f60a0820190506111c45f830188610c6e565b6111d16020830187610c46565b81810360408301526111e4818587610f04565b90506111f36060830184610c46565b81810360808301526112048161118f565b90509695505050505050565b5f6080820190506112235f830188610c6e565b6112306020830187610c46565b61123d6040830186610c46565b8181036060830152611250818486610f04565b9050969550505050505056fea26469706673582212204bf9033d80f4c7bd2e92c548b19f84ae6a919a6a67f51a47ec680940f95ec41d64736f6c634300081e0033",
					"opcodes": "PUSH1 0x80 PUSH1 0x40 MSTORE CALLVALUE DUP1 ISZERO PUSH1 0xE JUMPI PUSH0 PUSH0 REVERT JUMPDEST POP CALLER PUSH1 0x1 PUSH0 PUSH2 0x100 EXP DUP2 SLOAD DUP2 PUSH20 0xFFFFFFFFFFFFFFFFFFFFFFFFFFFFFFFFFFFFFFFF MUL NOT AND SWAP1 DUP4 PUSH20 0xFFFFFFFFFFFFFFFFFFFFFFFFFFFFFFFFFFFFFFFF AND MUL OR SWAP1 SSTORE POP PUSH2 0x1292 DUP1 PUSH2 0x5C PUSH0 CODECOPY PUSH0 RETURN INVALID PUSH1 0x80 PUSH1 0x40 MSTORE PUSH1 0x4 CALLDATASIZE LT PUSH2 0x73 JUMPI PUSH0 CALLDATALOAD PUSH1 0xE0 SHR DUP1 PUSH4 0x8FF07B5B GT PUSH2 0x4D JUMPI DUP1 PUSH4 0x8FF07B5B EQ PUSH2 0x102 JUMPI DUP1 PUSH4 0x9FBE8F1D EQ PUSH2 0x12C JUMPI DUP1 PUSH4 0xA8FC999E EQ PUSH2 0x168 JUMPI DUP1 PUSH4 0xC4D252F5 EQ PUSH2 0x1A4 JUMPI PUSH2 0x7A JUMP JUMPDEST DUP1 PUSH4 0x161DABEF EQ PUSH2 0x7E JUMPI DUP1 PUSH4 0x26949984 EQ PUSH2 0xAE JUMPI DUP1 PUSH4 0x8DA5CB5B EQ PUSH2 0xD8 JUMPI PUSH2 0x7A JUMP JUMPDEST CALLDATASIZE PUSH2 0x7A JUMPI STOP JUMPDEST PUSH0 PUSH0 REVERT JUMPDEST PUSH2 0x98 PUSH1 0x4 DUP1 CALLDATASIZE SUB DUP2 ADD SWAP1 PUSH2 0x93 SWAP2 SWAP1 PUSH2 0xB5C JUMP JUMPDEST PUSH2 0x1CC JUMP JUMPDEST PUSH1 0x40 MLOAD PUSH2 0xA5 SWAP2 SWAP1 PUSH2 0xC2D JUMP JUMPDEST PUSH1 0x40 MLOAD DUP1 SWAP2 SUB SWAP1 RETURN JUMPDEST CALLVALUE DUP1 ISZERO PUSH2 0xB9 JUMPI PUSH0 PUSH0 REVERT JUMPDEST POP PUSH2 0xC2 PUSH2 0x5A8 JUMP JUMPDEST PUSH1 0x40 MLOAD PUSH2 0xCF SWAP2 SWAP1 PUSH2 0xC55 JUMP JUMPDEST PUSH1 0x40 MLOAD DUP1 SWAP2 SUB SWAP1 RETURN JUMPDEST CALLVALUE DUP1 ISZERO PUSH2 0xE3 JUMPI PUSH0 PUSH0 REVERT JUMPDEST POP PUSH2 0xEC PUSH2 0x5AE JUMP JUMPDEST PUSH1 0x40 MLOAD PUSH2 0xF9 SWAP2 SWAP1 PUSH2 0xC7D JUMP JUMPDEST PUSH1 0x40 MLOAD DUP1 SWAP2 SUB SWAP1 RETURN JUMPDEST CALLVALUE DUP1 ISZERO PUSH2 0x10D JUMPI PUSH0 PUSH0 REVERT JUMPDEST POP PUSH2 0x116 PUSH2 0x5D3 JUMP JUMPDEST PUSH1 0x40 MLOAD PUSH2 0x123 SWAP2 SWAP1 PUSH2 0xC55 JUMP JUMPDEST PUSH1 0x40 MLOAD DUP1 SWAP2 SUB SWAP1 RETURN JUMPDEST CALLVALUE DUP1 ISZERO PUSH2 0x137 JUMPI PUSH0 PUSH0 REVERT JUMPDEST POP PUSH2 0x152 PUSH1 0x4 DUP1 CALLDATASIZE SUB DUP2 ADD SWAP1 PUSH2 0x14D SWAP2 SWAP1 PUSH2 0xCC9 JUMP JUMPDEST PUSH2 0x5D8 JUMP JUMPDEST PUSH1 0x40 MLOAD PUSH2 0x15F SWAP2 SWAP1 PUSH2 0xC2D JUMP JUMPDEST PUSH1 0x40 MLOAD DUP1 SWAP2 SUB SWAP1 RETURN JUMPDEST CALLVALUE DUP1 ISZERO PUSH2 0x173 JUMPI PUSH0 PUSH0 REVERT JUMPDEST POP PUSH2 0x18E PUSH1 0x4 DUP1 CALLDATASIZE SUB DUP2 ADD SWAP1 PUSH2 0x189 SWAP2 SWAP1 PUSH2 0xCF4 JUMP JUMPDEST PUSH2 0x5F4 JUMP JUMPDEST PUSH1 0x40 MLOAD PUSH2 0x19B SWAP2 SWAP1 PUSH2 0xC2D JUMP JUMPDEST PUSH1 0x40 MLOAD DUP1 SWAP2 SUB SWAP1 RETURN JUMPDEST CALLVALUE DUP1 ISZERO PUSH2 0x1AF JUMPI PUSH0 PUSH0 REVERT JUMPDEST POP PUSH2 0x1CA PUSH1 0x4 DUP1 CALLDATASIZE SUB DUP2 ADD SWAP1 PUSH2 0x1C5 SWAP2 SWAP1 PUSH2 0xCC9 JUMP JUMPDEST PUSH2 0x888 JUMP JUMPDEST STOP JUMPDEST PUSH0 PUSH1 0x1 PUSH0 SWAP1 SLOAD SWAP1 PUSH2 0x100 EXP SWAP1 DIV PUSH20 0xFFFFFFFFFFFFFFFFFFFFFFFFFFFFFFFFFFFFFFFF AND PUSH20 0xFFFFFFFFFFFFFFFFFFFFFFFFFFFFFFFFFFFFFFFF AND CALLER PUSH20 0xFFFFFFFFFFFFFFFFFFFFFFFFFFFFFFFFFFFFFFFF AND EQ PUSH2 0x25C JUMPI PUSH1 0x40 MLOAD PUSH32 0x8C379A000000000000000000000000000000000000000000000000000000000 DUP2 MSTORE PUSH1 0x4 ADD PUSH2 0x253 SWAP1 PUSH2 0xDD2 JUMP JUMPDEST PUSH1 0x40 MLOAD DUP1 SWAP2 SUB SWAP1 REVERT JUMPDEST PUSH0 PUSH20 0xFFFFFFFFFFFFFFFFFFFFFFFFFFFFFFFFFFFFFFFF AND DUP9 PUSH20 0xFFFFFFFFFFFFFFFFFFFFFFFFFFFFFFFFFFFFFFFF AND SUB PUSH2 0x2CA JUMPI PUSH1 0x40 MLOAD PUSH32 0x8C379A000000000000000000000000000000000000000000000000000000000 DUP2 MSTORE PUSH1 0x4 ADD PUSH2 0x2C1 SWAP1 PUSH2 0xE60 JUMP JUMPDEST PUSH1 0x40 MLOAD DUP1 SWAP2 SUB SWAP1 REVERT JUMPDEST PUSH0 DUP5 SUB PUSH2 0x30C JUMPI PUSH1 0x40 MLOAD PUSH32 0x8C379A000000000000000000000000000000000000000000000000000000000 DUP2 MSTORE PUSH1 0x4 ADD PUSH2 0x303 SWAP1 PUSH2 0xEC8 JUMP JUMPDEST PUSH1 0x40 MLOAD DUP1 SWAP2 SUB SWAP1 REVERT JUMPDEST PUSH0 PUSH2 0x31A DUP10 DUP10 DUP10 DUP10 DUP10 PUSH2 0x9D6 JUMP JUMPDEST SWAP1 POP PUSH0 PUSH0 DUP3 DUP2 MSTORE PUSH1 0x20 ADD SWAP1 DUP2 MSTORE PUSH1 0x20 ADD PUSH0 KECCAK256 PUSH0 SWAP1 SLOAD SWAP1 PUSH2 0x100 EXP SWAP1 DIV PUSH1 0xFF AND PUSH2 0x382 JUMPI DUP9 DUP9 DUP9 DUP9 DUP9 PUSH1 0x40 MLOAD PUSH32 0x6ACEB94D00000000000000000000000000000000000000000000000000000000 DUP2 MSTORE PUSH1 0x4 ADD PUSH2 0x379 SWAP6 SWAP5 SWAP4 SWAP3 SWAP2 SWAP1 PUSH2 0xF30 JUMP JUMPDEST PUSH1 0x40 MLOAD DUP1 SWAP2 SUB SWAP1 REVERT JUMPDEST PUSH1 0xA DUP6 PUSH2 0x38F SWAP2 SWAP1 PUSH2 0xFA9 JUMP JUMPDEST TIMESTAMP LT DUP1 PUSH2 0x3A8 JUMPI POP PUSH2 0x3E8 DUP6 PUSH2 0x3A5 SWAP2 SWAP1 PUSH2 0xFA9 JUMP JUMPDEST TIMESTAMP GT JUMPDEST ISZERO PUSH2 0x3F2 JUMPI DUP9 DUP9 DUP9 DUP9 DUP9 PUSH1 0x40 MLOAD PUSH32 0xFF2C46600000000000000000000000000000000000000000000000000000000 DUP2 MSTORE PUSH1 0x4 ADD PUSH2 0x3E9 SWAP6 SWAP5 SWAP4 SWAP3 SWAP2 SWAP1 PUSH2 0x1026 JUMP JUMPDEST PUSH1 0x40 MLOAD DUP1 SWAP2 SUB SWAP1 REVERT JUMPDEST PUSH1 0x60 PUSH0 DUP9 DUP9 SWAP1 POP GT ISZERO PUSH2 0x441 JUMPI DUP8 DUP8 PUSH1 0x40 MLOAD PUSH2 0x40F SWAP3 SWAP2 SWAP1 PUSH2 0x10B3 JUMP JUMPDEST PUSH1 0x40 MLOAD DUP1 SWAP2 SUB SWAP1 KECCAK256 DUP6 DUP6 PUSH1 0x40 MLOAD PUSH1 0x20 ADD PUSH2 0x42B SWAP4 SWAP3 SWAP2 SWAP1 PUSH2 0x1116 JUMP JUMPDEST PUSH1 0x40 MLOAD PUSH1 0x20 DUP2 DUP4 SUB SUB DUP2 MSTORE SWAP1 PUSH1 0x40 MSTORE SWAP1 POP PUSH2 0x488 JUMP JUMPDEST DUP5 DUP5 DUP1 DUP1 PUSH1 0x1F ADD PUSH1 0x20 DUP1 SWAP2 DIV MUL PUSH1 0x20 ADD PUSH1 0x40 MLOAD SWAP1 DUP2 ADD PUSH1 0x40 MSTORE DUP1 SWAP4 SWAP3 SWAP2 SWAP1 DUP2 DUP2 MSTORE PUSH1 0x20 ADD DUP4 DUP4 DUP1 DUP3 DUP5 CALLDATACOPY PUSH0 DUP2 DUP5 ADD MSTORE PUSH1 0x1F NOT PUSH1 0x1F DUP3 ADD AND SWAP1 POP DUP1 DUP4 ADD SWAP3 POP POP POP POP POP POP POP SWAP1 POP JUMPDEST PUSH0 PUSH0 DUP12 PUSH20 0xFFFFFFFFFFFFFFFFFFFFFFFFFFFFFFFFFFFFFFFF AND DUP12 DUP9 DUP9 PUSH1 0x40 MLOAD PUSH2 0x4B2 SWAP3 SWAP2 SWAP1 PUSH2 0x10B3 JUMP JUMPDEST PUSH0 PUSH1 0x40 MLOAD DUP1 DUP4 SUB DUP2 DUP6 DUP8 GAS CALL SWAP3 POP POP POP RETURNDATASIZE DUP1 PUSH0 DUP2 EQ PUSH2 0x4EC JUMPI PUSH1 0x40 MLOAD SWAP2 POP PUSH1 0x1F NOT PUSH1 0x3F RETURNDATASIZE ADD AND DUP3 ADD PUSH1 0x40 MSTORE RETURNDATASIZE DUP3 MSTORE RETURNDATASIZE PUSH0 PUSH1 0x20 DUP5 ADD RETURNDATACOPY PUSH2 0x4F1 JUMP JUMPDEST PUSH1 0x60 SWAP2 POP JUMPDEST POP SWAP2 POP SWAP2 POP DUP2 PUSH2 0x538 JUMPI DUP4 PUSH1 0x40 MLOAD PUSH32 0x9C020EB800000000000000000000000000000000000000000000000000000000 DUP2 MSTORE PUSH1 0x4 ADD PUSH2 0x52F SWAP2 SWAP1 PUSH2 0x114E JUMP JUMPDEST PUSH1 0x40 MLOAD DUP1 SWAP2 SUB SWAP1 REVERT JUMPDEST PUSH0 PUSH0 PUSH0 DUP7 DUP2 MSTORE PUSH1 0x20 ADD SWAP1 DUP2 MSTORE PUSH1 0x20 ADD PUSH0 KECCAK256 PUSH0 PUSH2 0x100 EXP DUP2 SLOAD DUP2 PUSH1 0xFF MUL NOT AND SWAP1 DUP4 ISZERO ISZERO MUL OR SWAP1 SSTORE POP PUSH32 0x60E7F8DAE2C3321B31151D4F73826636445BA8D1853E369E9D9C3BF13D3F09CA DUP5 PUSH1 0x40 MLOAD PUSH2 0x58E SWAP2 SWAP1 PUSH2 0x114E JUMP JUMPDEST PUSH1 0x40 MLOAD DUP1 SWAP2 SUB SWAP1 LOG1 DUP2 SWAP5 POP POP POP POP POP SWAP8 SWAP7 POP POP POP POP POP POP POP JUMP JUMPDEST PUSH2 0x3E8 DUP2 JUMP JUMPDEST PUSH1 0x1 PUSH0 SWAP1 SLOAD SWAP1 PUSH2 0x100 EXP SWAP1 DIV PUSH20 0xFFFFFFFFFFFFFFFFFFFFFFFFFFFFFFFFFFFFFFFF AND DUP2 JUMP JUMPDEST PUSH1 0xA DUP2 JUMP JUMPDEST PUSH0 PUSH1 0x20 MSTORE DUP1 PUSH0 MSTORE PUSH1 0x40 PUSH0 KECCAK256 PUSH0 SWAP2 POP SLOAD SWAP1 PUSH2 0x100 EXP SWAP1 DIV PUSH1 0xFF AND DUP2 JUMP JUMPDEST PUSH0 PUSH1 0x1 PUSH0 SWAP1 SLOAD SWAP1 PUSH2 0x100 EXP SWAP1 DIV PUSH20 0xFFFFFFFFFFFFFFFFFFFFFFFFFFFFFFFFFFFFFFFF AND PUSH20 0xFFFFFFFFFFFFFFFFFFFFFFFFFFFFFFFFFFFFFFFF AND CALLER PUSH20 0xFFFFFFFFFFFFFFFFFFFFFFFFFFFFFFFFFFFFFFFF AND EQ PUSH2 0x684 JUMPI PUSH1 0x40 MLOAD PUSH32 0x8C379A000000000000000000000000000000000000000000000000000000000 DUP2 MSTORE PUSH1 0x4 ADD PUSH2 0x67B SWAP1 PUSH2 0xDD2 JUMP JUMPDEST PUSH1 0x40 MLOAD DUP1 SWAP2 SUB SWAP1 REVERT JUMPDEST PUSH0 PUSH20 0xFFFFFFFFFFFFFFFFFFFFFFFFFFFFFFFFFFFFFFFF AND DUP7 PUSH20 0xFFFFFFFFFFFFFFFFFFFFFFFFFFFFFFFFFFFFFFFF AND SUB PUSH2 0x6F2 JUMPI PUSH1 0x40 MLOAD PUSH32 0x8C379A000000000000000000000000000000000000000000000000000000000 DUP2 MSTORE PUSH1 0x4 ADD PUSH2 0x6E9 SWAP1 PUSH2 0xE60 JUMP JUMPDEST PUSH1 0x40 MLOAD DUP1 SWAP2 SUB SWAP1 REVERT JUMPDEST PUSH0 DUP3 SUB PUSH2 0x734 JUMPI PUSH1 0x40 MLOAD PUSH32 0x8C379A000000000000000000000000000000000000000000000000000000000 DUP2 MSTORE PUSH1 0x4 ADD PUSH2 0x72B SWAP1 PUSH2 0xEC8 JUMP JUMPDEST PUSH1 0x40 MLOAD DUP1 SWAP2 SUB SWAP1 REVERT JUMPDEST PUSH1 0xA TIMESTAMP PUSH2 0x741 SWAP2 SWAP1 PUSH2 0xFA9 JUMP JUMPDEST DUP3 LT DUP1 PUSH2 0x75A JUMPI POP PUSH2 0x3E8 TIMESTAMP PUSH2 0x757 SWAP2 SWAP1 PUSH2 0xFA9 JUMP JUMPDEST DUP3 GT JUMPDEST ISZERO PUSH2 0x7A4 JUMPI DUP6 DUP6 DUP6 DUP6 DUP6 PUSH1 0x40 MLOAD PUSH32 0xFF2C46600000000000000000000000000000000000000000000000000000000 DUP2 MSTORE PUSH1 0x4 ADD PUSH2 0x79B SWAP6 SWAP5 SWAP4 SWAP3 SWAP2 SWAP1 PUSH2 0x11B1 JUMP JUMPDEST PUSH1 0x40 MLOAD DUP1 SWAP2 SUB SWAP1 REVERT JUMPDEST PUSH0 PUSH2 0x7B2 DUP8 DUP8 DUP8 DUP8 DUP8 PUSH2 0x9D6 JUMP JUMPDEST SWAP1 POP PUSH0 PUSH0 DUP3 DUP2 MSTORE PUSH1 0x20 ADD SWAP1 DUP2 MSTORE PUSH1 0x20 ADD PUSH0 KECCAK256 PUSH0 SWAP1 SLOAD SWAP1 PUSH2 0x100 EXP SWAP1 DIV PUSH1 0xFF AND ISZERO PUSH2 0x813 JUMPI DUP1 PUSH1 0x40 MLOAD PUSH32 0x995042BE00000000000000000000000000000000000000000000000000000000 DUP2 MSTORE PUSH1 0x4 ADD PUSH2 0x80A SWAP2 SWAP1 PUSH2 0x114E JUMP JUMPDEST PUSH1 0x40 MLOAD DUP1 SWAP2 SUB SWAP1 REVERT JUMPDEST PUSH1 0x1 PUSH0 PUSH0 DUP4 DUP2 MSTORE PUSH1 0x20 ADD SWAP1 DUP2 MSTORE PUSH1 0x20 ADD PUSH0 KECCAK256 PUSH0 PUSH2 0x100 EXP DUP2 SLOAD DUP2 PUSH1 0xFF MUL NOT AND SWAP1 DUP4 ISZERO ISZERO MUL OR SWAP1 SSTORE POP PUSH32 0x9CEE5DB012F9A6B2E7F49190113215669856D2BC4FB953AFC7BB12E07D4D1914 DUP8 DUP8 DUP8 DUP8 DUP8 PUSH1 0x40 MLOAD PUSH2 0x872 SWAP6 SWAP5 SWAP4 SWAP3 SWAP2 SWAP1 PUSH2 0xF30 JUMP JUMPDEST PUSH1 0x40 MLOAD DUP1 SWAP2 SUB SWAP1 LOG1 PUSH1 0x1 SWAP2 POP POP SWAP6 SWAP5 POP POP POP POP POP JUMP JUMPDEST PUSH1 0x1 PUSH0 SWAP1 SLOAD SWAP1 PUSH2 0x100 EXP SWAP1 DIV PUSH20 0xFFFFFFFFFFFFFFFFFFFFFFFFFFFFFFFFFFFFFFFF AND PUSH20 0xFFFFFFFFFFFFFFFFFFFFFFFFFFFFFFFFFFFFFFFF AND CALLER PUSH20 0xFFFFFFFFFFFFFFFFFFFFFFFFFFFFFFFFFFFFFFFF AND EQ PUSH2 0x917 JUMPI PUSH1 0x40 MLOAD PUSH32 0x8C379A000000000000000000000000000000000000000000000000000000000 DUP2 MSTORE PUSH1 0x4 ADD PUSH2 0x90E SWAP1 PUSH2 0xDD2 JUMP JUMPDEST PUSH1 0x40 MLOAD DUP1 SWAP2 SUB SWAP1 REVERT JUMPDEST PUSH0 PUSH0 DUP3 DUP2 MSTORE PUSH1 0x20 ADD SWAP1 DUP2 MSTORE PUSH1 0x20 ADD PUSH0 KECCAK256 PUSH0 SWAP1 SLOAD SWAP1 PUSH2 0x100 EXP SWAP1 DIV PUSH1 0xFF AND PUSH2 0x975 JUMPI DUP1 PUSH1 0x40 MLOAD PUSH32 0xEBF199F000000000000000000000000000000000000000000000000000000000 DUP2 MSTORE PUSH1 0x4 ADD PUSH2 0x96C SWAP2 SWAP1 PUSH2 0x114E JUMP JUMPDEST PUSH1 0x40 MLOAD DUP1 SWAP2 SUB SWAP1 REVERT JUMPDEST PUSH0 PUSH0 PUSH0 DUP4 DUP2 MSTORE PUSH1 0x20 ADD SWAP1 DUP2 MSTORE PUSH1 0x20 ADD PUSH0 KECCAK256 PUSH0 PUSH2 0x100 EXP DUP2 SLOAD DUP2 PUSH1 0xFF MUL NOT AND SWAP1 DUP4 ISZERO ISZERO MUL OR SWAP1 SSTORE POP PUSH32 0x3B2F935B2A0AE98EAC73AB20C3A507B077E5B2BD5B71382664CE4B6332ABDF93 DUP2 PUSH1 0x40 MLOAD PUSH2 0x9CB SWAP2 SWAP1 PUSH2 0x114E JUMP JUMPDEST PUSH1 0x40 MLOAD DUP1 SWAP2 SUB SWAP1 LOG1 POP JUMP JUMPDEST PUSH0 DUP6 DUP6 DUP4 DUP7 DUP7 PUSH1 0x40 MLOAD PUSH1 0x20 ADD PUSH2 0x9F0 SWAP6 SWAP5 SWAP4 SWAP3 SWAP2 SWAP1 PUSH2 0x1210 JUMP JUMPDEST PUSH1 0x40 MLOAD PUSH1 0x20 DUP2 DUP4 SUB SUB DUP2 MSTORE SWAP1 PUSH1 0x40 MSTORE DUP1 MLOAD SWAP1 PUSH1 0x20 ADD KECCAK256 SWAP1 POP SWAP6 SWAP5 POP POP POP POP POP JUMP JUMPDEST PUSH0 PUSH0 REVERT JUMPDEST PUSH0 PUSH0 REVERT JUMPDEST PUSH0 PUSH20 0xFFFFFFFFFFFFFFFFFFFFFFFFFFFFFFFFFFFFFFFF DUP3 AND SWAP1 POP SWAP2 SWAP1 POP JUMP JUMPDEST PUSH0 PUSH2 0xA42 DUP3 PUSH2 0xA19 JUMP JUMPDEST SWAP1 POP SWAP2 SWAP1 POP JUMP JUMPDEST PUSH2 0xA52 DUP2 PUSH2 0xA38 JUMP JUMPDEST DUP2 EQ PUSH2 0xA5C JUMPI PUSH0 PUSH0 REVERT JUMPDEST POP JUMP JUMPDEST PUSH0 DUP2 CALLDATALOAD SWAP1 POP PUSH2 0xA6D DUP2 PUSH2 0xA49 JUMP JUMPDEST SWAP3 SWAP2 POP POP JUMP JUMPDEST PUSH0 DUP2 SWAP1 POP SWAP2 SWAP1 POP JUMP JUMPDEST PUSH2 0xA85 DUP2 PUSH2 0xA73 JUMP JUMPDEST DUP2 EQ PUSH2 0xA8F JUMPI PUSH0 PUSH0 REVERT JUMPDEST POP JUMP JUMPDEST PUSH0 DUP2 CALLDATALOAD SWAP1 POP PUSH2 0xAA0 DUP2 PUSH2 0xA7C JUMP JUMPDEST SWAP3 SWAP2 POP POP JUMP JUMPDEST PUSH0 PUSH0 REVERT JUMPDEST PUSH0 PUSH0 REVERT JUMPDEST PUSH0 PUSH0 REVERT JUMPDEST PUSH0 PUSH0 DUP4 PUSH1 0x1F DUP5 ADD SLT PUSH2 0xAC7 JUMPI PUSH2 0xAC6 PUSH2 0xAA6 JUMP JUMPDEST JUMPDEST DUP3 CALLDATALOAD SWAP1 POP PUSH8 0xFFFFFFFFFFFFFFFF DUP2 GT ISZERO PUSH2 0xAE4 JUMPI PUSH2 0xAE3 PUSH2 0xAAA JUMP JUMPDEST JUMPDEST PUSH1 0x20 DUP4 ADD SWAP2 POP DUP4 PUSH1 0x1 DUP3 MUL DUP4 ADD GT ISZERO PUSH2 0xB00 JUMPI PUSH2 0xAFF PUSH2 0xAAE JUMP JUMPDEST JUMPDEST SWAP3 POP SWAP3 SWAP1 POP JUMP JUMPDEST PUSH0 PUSH0 DUP4 PUSH1 0x1F DUP5 ADD SLT PUSH2 0xB1C JUMPI PUSH2 0xB1B PUSH2 0xAA6 JUMP JUMPDEST JUMPDEST DUP3 CALLDATALOAD SWAP1 POP PUSH8 0xFFFFFFFFFFFFFFFF DUP2 GT ISZERO PUSH2 0xB39 JUMPI PUSH2 0xB38 PUSH2 0xAAA JUMP JUMPDEST JUMPDEST PUSH1 0x20 DUP4 ADD SWAP2 POP DUP4 PUSH1 0x1 DUP3 MUL DUP4 ADD GT ISZERO PUSH2 0xB55 JUMPI PUSH2 0xB54 PUSH2 0xAAE JUMP JUMPDEST JUMPDEST SWAP3 POP SWAP3 SWAP1 POP JUMP JUMPDEST PUSH0 PUSH0 PUSH0 PUSH0 PUSH0 PUSH0 PUSH0 PUSH1 0xA0 DUP9 DUP11 SUB SLT ISZERO PUSH2 0xB77 JUMPI PUSH2 0xB76 PUSH2 0xA11 JUMP JUMPDEST JUMPDEST PUSH0 PUSH2 0xB84 DUP11 DUP3 DUP12 ADD PUSH2 0xA5F JUMP JUMPDEST SWAP8 POP POP PUSH1 0x20 PUSH2 0xB95 DUP11 DUP3 DUP12 ADD PUSH2 0xA92 JUMP JUMPDEST SWAP7 POP POP PUSH1 0x40 DUP9 ADD CALLDATALOAD PUSH8 0xFFFFFFFFFFFFFFFF DUP2 GT ISZERO PUSH2 0xBB6 JUMPI PUSH2 0xBB5 PUSH2 0xA15 JUMP JUMPDEST JUMPDEST PUSH2 0xBC2 DUP11 DUP3 DUP12 ADD PUSH2 0xAB2 JUMP JUMPDEST SWAP6 POP SWAP6 POP POP PUSH1 0x60 PUSH2 0xBD5 DUP11 DUP3 DUP12 ADD PUSH2 0xA92 JUMP JUMPDEST SWAP4 POP POP PUSH1 0x80 DUP9 ADD CALLDATALOAD PUSH8 0xFFFFFFFFFFFFFFFF DUP2 GT ISZERO PUSH2 0xBF6 JUMPI PUSH2 0xBF5 PUSH2 0xA15 JUMP JUMPDEST JUMPDEST PUSH2 0xC02 DUP11 DUP3 DUP12 ADD PUSH2 0xB07 JUMP JUMPDEST SWAP3 POP SWAP3 POP POP SWAP3 SWAP6 SWAP9 SWAP2 SWAP5 SWAP8 POP SWAP3 SWAP6 POP JUMP JUMPDEST PUSH0 DUP2 ISZERO ISZERO SWAP1 POP SWAP2 SWAP1 POP JUMP JUMPDEST PUSH2 0xC27 DUP2 PUSH2 0xC13 JUMP JUMPDEST DUP3 MSTORE POP POP JUMP JUMPDEST PUSH0 PUSH1 0x20 DUP3 ADD SWAP1 POP PUSH2 0xC40 PUSH0 DUP4 ADD DUP5 PUSH2 0xC1E JUMP JUMPDEST SWAP3 SWAP2 POP POP JUMP JUMPDEST PUSH2 0xC4F DUP2 PUSH2 0xA73 JUMP JUMPDEST DUP3 MSTORE POP POP JUMP JUMPDEST PUSH0 PUSH1 0x20 DUP3 ADD SWAP1 POP PUSH2 0xC68 PUSH0 DUP4 ADD DUP5 PUSH2 0xC46 JUMP JUMPDEST SWAP3 SWAP2 POP POP JUMP JUMPDEST PUSH2 0xC77 DUP2 PUSH2 0xA38 JUMP JUMPDEST DUP3 MSTORE POP POP JUMP JUMPDEST PUSH0 PUSH1 0x20 DUP3 ADD SWAP1 POP PUSH2 0xC90 PUSH0 DUP4 ADD DUP5 PUSH2 0xC6E JUMP JUMPDEST SWAP3 SWAP2 POP POP JUMP JUMPDEST PUSH0 DUP2 SWAP1 POP SWAP2 SWAP1 POP JUMP JUMPDEST PUSH2 0xCA8 DUP2 PUSH2 0xC96 JUMP JUMPDEST DUP2 EQ PUSH2 0xCB2 JUMPI PUSH0 PUSH0 REVERT JUMPDEST POP JUMP JUMPDEST PUSH0 DUP2 CALLDATALOAD SWAP1 POP PUSH2 0xCC3 DUP2 PUSH2 0xC9F JUMP JUMPDEST SWAP3 SWAP2 POP POP JUMP JUMPDEST PUSH0 PUSH1 0x20 DUP3 DUP5 SUB SLT ISZERO PUSH2 0xCDE JUMPI PUSH2 0xCDD PUSH2 0xA11 JUMP JUMPDEST JUMPDEST PUSH0 PUSH2 0xCEB DUP5 DUP3 DUP6 ADD PUSH2 0xCB5 JUMP JUMPDEST SWAP2 POP POP SWAP3 SWAP2 POP POP JUMP JUMPDEST PUSH0 PUSH0 PUSH0 PUSH0 PUSH0 PUSH1 0x80 DUP7 DUP9 SUB SLT ISZERO PUSH2 0xD0D JUMPI PUSH2 0xD0C PUSH2 0xA11 JUMP JUMPDEST JUMPDEST PUSH0 PUSH2 0xD1A DUP9 DUP3 DUP10 ADD PUSH2 0xA5F JUMP JUMPDEST SWAP6 POP POP PUSH1 0x20 PUSH2 0xD2B DUP9 DUP3 DUP10 ADD PUSH2 0xA92 JUMP JUMPDEST SWAP5 POP POP PUSH1 0x40 DUP7 ADD CALLDATALOAD PUSH8 0xFFFFFFFFFFFFFFFF DUP2 GT ISZERO PUSH2 0xD4C JUMPI PUSH2 0xD4B PUSH2 0xA15 JUMP JUMPDEST JUMPDEST PUSH2 0xD58 DUP9 DUP3 DUP10 ADD PUSH2 0xAB2 JUMP JUMPDEST SWAP4 POP SWAP4 POP POP PUSH1 0x60 PUSH2 0xD6B DUP9 DUP3 DUP10 ADD PUSH2 0xA92 JUMP JUMPDEST SWAP2 POP POP SWAP3 SWAP6 POP SWAP3 SWAP6 SWAP1 SWAP4 POP JUMP JUMPDEST PUSH0 DUP3 DUP3 MSTORE PUSH1 0x20 DUP3 ADD SWAP1 POP SWAP3 SWAP2 POP POP JUMP JUMPDEST PUSH32 0x6E6F74206F776E65720000000000000000000000000000000000000000000000 PUSH0 DUP3 ADD MSTORE POP JUMP JUMPDEST PUSH0 PUSH2 0xDBC PUSH1 0x9 DUP4 PUSH2 0xD78 JUMP JUMPDEST SWAP2 POP PUSH2 0xDC7 DUP3 PUSH2 0xD88 JUMP JUMPDEST PUSH1 0x20 DUP3 ADD SWAP1 POP SWAP2 SWAP1 POP JUMP JUMPDEST PUSH0 PUSH1 0x20 DUP3 ADD SWAP1 POP DUP2 DUP2 SUB PUSH0 DUP4 ADD MSTORE PUSH2 0xDE9 DUP2 PUSH2 0xDB0 JUMP JUMPDEST SWAP1 POP SWAP2 SWAP1 POP JUMP JUMPDEST PUSH32 0x5F746F20616464726573732063616E6E6F742062652061646472657373207A65 PUSH0 DUP3 ADD MSTORE PUSH32 0x726F000000000000000000000000000000000000000000000000000000000000 PUSH1 0x20 DUP3 ADD MSTORE POP JUMP JUMPDEST PUSH0 PUSH2 0xE4A PUSH1 0x22 DUP4 PUSH2 0xD78 JUMP JUMPDEST SWAP2 POP PUSH2 0xE55 DUP3 PUSH2 0xDF0 JUMP JUMPDEST PUSH1 0x40 DUP3 ADD SWAP1 POP SWAP2 SWAP1 POP JUMP JUMPDEST PUSH0 PUSH1 0x20 DUP3 ADD SWAP1 POP DUP2 DUP2 SUB PUSH0 DUP4 ADD MSTORE PUSH2 0xE77 DUP2 PUSH2 0xE3E JUMP JUMPDEST SWAP1 POP SWAP2 SWAP1 POP JUMP JUMPDEST PUSH32 0x74696D657374616D702063616E6E6F74206265207A65726F0000000000000000 PUSH0 DUP3 ADD MSTORE POP JUMP JUMPDEST PUSH0 PUSH2 0xEB2 PUSH1 0x18 DUP4 PUSH2 0xD78 JUMP JUMPDEST SWAP2 POP PUSH2 0xEBD DUP3 PUSH2 0xE7E JUMP JUMPDEST PUSH1 0x20 DUP3 ADD SWAP1 POP SWAP2 SWAP1 POP JUMP JUMPDEST PUSH0 PUSH1 0x20 DUP3 ADD SWAP1 POP DUP2 DUP2 SUB PUSH0 DUP4 ADD MSTORE PUSH2 0xEDF DUP2 PUSH2 0xEA6 JUMP JUMPDEST SWAP1 POP SWAP2 SWAP1 POP JUMP JUMPDEST DUP3 DUP2 DUP4 CALLDATACOPY PUSH0 DUP4 DUP4 ADD MSTORE POP POP POP JUMP JUMPDEST PUSH0 PUSH1 0x1F NOT PUSH1 0x1F DUP4 ADD AND SWAP1 POP SWAP2 SWAP1 POP JUMP JUMPDEST PUSH0 PUSH2 0xF0F DUP4 DUP6 PUSH2 0xD78 JUMP JUMPDEST SWAP4 POP PUSH2 0xF1C DUP4 DUP6 DUP5 PUSH2 0xEE6 JUMP JUMPDEST PUSH2 0xF25 DUP4 PUSH2 0xEF4 JUMP JUMPDEST DUP5 ADD SWAP1 POP SWAP4 SWAP3 POP POP POP JUMP JUMPDEST PUSH0 PUSH1 0x80 DUP3 ADD SWAP1 POP PUSH2 0xF43 PUSH0 DUP4 ADD DUP9 PUSH2 0xC6E JUMP JUMPDEST PUSH2 0xF50 PUSH1 0x20 DUP4 ADD DUP8 PUSH2 0xC46 JUMP JUMPDEST DUP2 DUP2 SUB PUSH1 0x40 DUP4 ADD MSTORE PUSH2 0xF63 DUP2 DUP6 DUP8 PUSH2 0xF04 JUMP JUMPDEST SWAP1 POP PUSH2 0xF72 PUSH1 0x60 DUP4 ADD DUP5 PUSH2 0xC46 JUMP JUMPDEST SWAP7 SWAP6 POP POP POP POP POP POP JUMP JUMPDEST PUSH32 0x4E487B7100000000000000000000000000000000000000000000000000000000 PUSH0 MSTORE PUSH1 0x11 PUSH1 0x4 MSTORE PUSH1 0x24 PUSH0 REVERT JUMPDEST PUSH0 PUSH2 0xFB3 DUP3 PUSH2 0xA73 JUMP JUMPDEST SWAP2 POP PUSH2 0xFBE DUP4 PUSH2 0xA73 JUMP JUMPDEST SWAP3 POP DUP3 DUP3 ADD SWAP1 POP DUP1 DUP3 GT ISZERO PUSH2 0xFD6 JUMPI PUSH2 0xFD5 PUSH2 0xF7C JUMP JUMPDEST JUMPDEST SWAP3 SWAP2 POP POP JUMP JUMPDEST PUSH32 0x657865637574652074696D65206572726F720000000000000000000000000000 PUSH0 DUP3 ADD MSTORE POP JUMP JUMPDEST PUSH0 PUSH2 0x1010 PUSH1 0x12 DUP4 PUSH2 0xD78 JUMP JUMPDEST SWAP2 POP PUSH2 0x101B DUP3 PUSH2 0xFDC JUMP JUMPDEST PUSH1 0x20 DUP3 ADD SWAP1 POP SWAP2 SWAP1 POP JUMP JUMPDEST PUSH0 PUSH1 0xA0 DUP3 ADD SWAP1 POP PUSH2 0x1039 PUSH0 DUP4 ADD DUP9 PUSH2 0xC6E JUMP JUMPDEST PUSH2 0x1046 PUSH1 0x20 DUP4 ADD DUP8 PUSH2 0xC46 JUMP JUMPDEST DUP2 DUP2 SUB PUSH1 0x40 DUP4 ADD MSTORE PUSH2 0x1059 DUP2 DUP6 DUP8 PUSH2 0xF04 JUMP JUMPDEST SWAP1 POP PUSH2 0x1068 PUSH1 0x60 DUP4 ADD DUP5 PUSH2 0xC46 JUMP JUMPDEST DUP2 DUP2 SUB PUSH1 0x80 DUP4 ADD MSTORE PUSH2 0x1079 DUP2 PUSH2 0x1004 JUMP JUMPDEST SWAP1 POP SWAP7 SWAP6 POP POP POP POP POP POP JUMP JUMPDEST PUSH0 DUP2 SWAP1 POP SWAP3 SWAP2 POP POP JUMP JUMPDEST PUSH0 PUSH2 0x109A DUP4 DUP6 PUSH2 0x1085 JUMP JUMPDEST SWAP4 POP PUSH2 0x10A7 DUP4 DUP6 DUP5 PUSH2 0xEE6 JUMP JUMPDEST DUP3 DUP5 ADD SWAP1 POP SWAP4 SWAP3 POP POP POP JUMP JUMPDEST PUSH0 PUSH2 0x10BF DUP3 DUP5 DUP7 PUSH2 0x108F JUMP JUMPDEST SWAP2 POP DUP2 SWAP1 POP SWAP4 SWAP3 POP POP POP JUMP JUMPDEST PUSH0 PUSH32 0xFFFFFFFF00000000000000000000000000000000000000000000000000000000 DUP3 AND SWAP1 POP SWAP2 SWAP1 POP JUMP JUMPDEST PUSH0 DUP2 SWAP1 POP SWAP2 SWAP1 POP JUMP JUMPDEST PUSH2 0x1110 PUSH2 0x110B DUP3 PUSH2 0x10CB JUMP JUMPDEST PUSH2 0x10F6 JUMP JUMPDEST DUP3 MSTORE POP POP JUMP JUMPDEST PUSH0 PUSH2 0x1121 DUP3 DUP7 PUSH2 0x10FF JUMP JUMPDEST PUSH1 0x4 DUP3 ADD SWAP2 POP PUSH2 0x1132 DUP3 DUP5 DUP7 PUSH2 0x108F JUMP JUMPDEST SWAP2 POP DUP2 SWAP1 POP SWAP5 SWAP4 POP POP POP POP JUMP JUMPDEST PUSH2 0x1148 DUP2 PUSH2 0xC96 JUMP JUMPDEST DUP3 MSTORE POP POP JUMP JUMPDEST PUSH0 PUSH1 0x20 DUP3 ADD SWAP1 POP PUSH2 0x1161 PUSH0 DUP4 ADD DUP5 PUSH2 0x113F JUMP JUMPDEST SWAP3 SWAP2 POP POP JUMP JUMPDEST PUSH32 0x74696D65206572726F7200000000000000000000000000000000000000000000 PUSH0 DUP3 ADD MSTORE POP JUMP JUMPDEST PUSH0 PUSH2 0x119B PUSH1 0xA DUP4 PUSH2 0xD78 JUMP JUMPDEST SWAP2 POP PUSH2 0x11A6 DUP3 PUSH2 0x1167 JUMP JUMPDEST PUSH1 0x20 DUP3 ADD SWAP1 POP SWAP2 SWAP1 POP JUMP JUMPDEST PUSH0 PUSH1 0xA0 DUP3 ADD SWAP1 POP PUSH2 0x11C4 PUSH0 DUP4 ADD DUP9 PUSH2 0xC6E JUMP JUMPDEST PUSH2 0x11D1 PUSH1 0x20 DUP4 ADD DUP8 PUSH2 0xC46 JUMP JUMPDEST DUP2 DUP2 SUB PUSH1 0x40 DUP4 ADD MSTORE PUSH2 0x11E4 DUP2 DUP6 DUP8 PUSH2 0xF04 JUMP JUMPDEST SWAP1 POP PUSH2 0x11F3 PUSH1 0x60 DUP4 ADD DUP5 PUSH2 0xC46 JUMP JUMPDEST DUP2 DUP2 SUB PUSH1 0x80 DUP4 ADD MSTORE PUSH2 0x1204 DUP2 PUSH2 0x118F JUMP JUMPDEST SWAP1 POP SWAP7 SWAP6 POP POP POP POP POP POP JUMP JUMPDEST PUSH0 PUSH1 0x80 DUP3 ADD SWAP1 POP PUSH2 0x1223 PUSH0 DUP4 ADD DUP9 PUSH2 0xC6E JUMP JUMPDEST PUSH2 0x1230 PUSH1 0x20 DUP4 ADD DUP8 PUSH2 0xC46 JUMP JUMPDEST PUSH2 0x123D PUSH1 0x40 DUP4 ADD DUP7 PUSH2 0xC46 JUMP JUMPDEST DUP2 DUP2 SUB PUSH1 0x60 DUP4 ADD MSTORE PUSH2 0x1250 DUP2 DUP5 DUP7 PUSH2 0xF04 JUMP JUMPDEST SWAP1 POP SWAP7 SWAP6 POP POP POP POP POP POP JUMP INVALID LOG2 PUSH5 0x6970667358 0x22 SLT KECCAK256 0x4B EXTDELEGATECALL SUB RETURNDATASIZE DUP1 DELEGATECALL 0xC7 0xBD 0x2E SWAP3 0xC5 BASEFEE 0xB1 SWAP16 DUP5 0xAE PUSH11 0x919A6A67F51A47EC680940 EXTDELEGATECALL MCOPY 0xC4 SAR PUSH5 0x736F6C6343 STOP ADDMOD 0x1E STOP CALLER "
				},
				"gasEstimates": {
					"creation": {
						"codeDepositCost": "950800",
						"executionCost": "25251",
						"totalCost": "976051"
					},
					"external": {
						"MAX_TIME()": "348",
						"MIN_TIME()": "325",
						"cancel(bytes32)": "infinite",
						"execute(address,uint256,string,uint256,bytes)": "infinite",
						"owner()": "2553",
						"queue(address,uint256,string,uint256)": "infinite",
						"queueMapping(bytes32)": "2806"
					},
					"internal": {
						"getTxId(address,uint256,string calldata,uint256)": "infinite"
					}
				},
				"methodIdentifiers": {
					"MAX_TIME()": "26949984",
					"MIN_TIME()": "8ff07b5b",
					"cancel(bytes32)": "c4d252f5",
					"execute(address,uint256,string,uint256,bytes)": "161dabef",
					"owner()": "8da5cb5b",
					"queue(address,uint256,string,uint256)": "a8fc999e",
					"queueMapping(bytes32)": "9fbe8f1d"
				}
			},
			"storageLayout": {
				"storage": [
					{
						"astId": 6,
						"contract": "contracts/base/GasGolf.sol:TimeLock",
						"label": "queueMapping",
						"offset": 0,
						"slot": "0",
						"type": "t_mapping(t_bytes32,t_bool)"
					},
					{
						"astId": 8,
						"contract": "contracts/base/GasGolf.sol:TimeLock",
						"label": "owner",
						"offset": 0,
						"slot": "1",
						"type": "t_address"
					}
				],
				"types": {
					"t_address": {
						"encoding": "inplace",
						"label": "address",
						"numberOfBytes": "20"
					},
					"t_bool": {
						"encoding": "inplace",
						"label": "bool",
						"numberOfBytes": "1"
					},
					"t_bytes32": {
						"encoding": "inplace",
						"label": "bytes32",
						"numberOfBytes": "32"
					},
					"t_mapping(t_bytes32,t_bool)": {
						"encoding": "mapping",
						"key": "t_bytes32",
						"label": "mapping(bytes32 => bool)",
						"numberOfBytes": "32",
						"value": "t_bool"
					}
				}
			},
			"userdoc": {
				"kind": "user",
				"methods": {
					"execute(address,uint256,string,uint256,bytes)": {
						"notice": "_to:合约地址 _amont:金额 funName:函数名称 timestamp:时间 _data:函数的参数"
					},
					"queue(address,uint256,string,uint256)": {
						"notice": "_to:合约地址 _amont:金额 funName:函数名称 timestamp:时间"
					}
				},
				"notice": "基本流程 3. ： ◦ 事务队列：通过 queue 函数⼴播即将执⾏的交易。 ◦ 等待期：根据Time\u0001Lock合约设定的时间（从24⼩时到⼏天不等）等待。\u0001 ◦ 执⾏交易：等待期过后，调⽤ execute 函数执⾏交易。 4. 安全机制：提供⽤⼾响应时间以确保交易的安全性，防⽌恶意操作。 5. 合约实例：介绍 TestTimeLock 合约和 test 函数的关系及其安全特性。",
				"version": 1
			}
		}
	}
}