{
	"contracts/base/Chat.sol": {
		"Chat": {
			"abi": [
				{
					"anonymous": false,
					"inputs": [
						{
							"indexed": true,
							"internalType": "address",
							"name": "_from",
							"type": "address"
						},
						{
							"indexed": true,
							"internalType": "address",
							"name": "_to",
							"type": "address"
						},
						{
							"indexed": false,
							"internalType": "string",
							"name": "message",
							"type": "string"
						}
					],
					"name": "LogMessage",
					"type": "event"
				},
				{
					"inputs": [
						{
							"internalType": "address",
							"name": "_to",
							"type": "address"
						},
						{
							"internalType": "string",
							"name": "message",
							"type": "string"
						}
					],
					"name": "sendMessage",
					"outputs": [],
					"stateMutability": "nonpayable",
					"type": "function"
				}
			],
			"devdoc": {
				"kind": "dev",
				"methods": {},
				"version": 1
			},
			"evm": {
				"assembly": "    /* \"contracts/base/Chat.sol\":63:294  contract Chat {\r... */\n  mstore(0x40, 0x80)\n  callvalue\n  dup1\n  iszero\n  tag_1\n  jumpi\n  0x00\n  dup1\n  revert\ntag_1:\n  pop\n  dataSize(sub_0)\n  dup1\n  dataOffset(sub_0)\n  0x00\n  codecopy\n  0x00\n  return\nstop\n\nsub_0: assembly {\n        /* \"contracts/base/Chat.sol\":63:294  contract Chat {\r... */\n      mstore(0x40, 0x80)\n      callvalue\n      dup1\n      iszero\n      tag_1\n      jumpi\n      0x00\n      dup1\n      revert\n    tag_1:\n      pop\n      jumpi(tag_2, lt(calldatasize, 0x04))\n      shr(0xe0, calldataload(0x00))\n      dup1\n      0xde6f24bb\n      eq\n      tag_3\n      jumpi\n    tag_2:\n      0x00\n      dup1\n      revert\n        /* \"contracts/base/Chat.sol\":168:291  function sendMessage(address _to,string memory message) external {\r... */\n    tag_3:\n      tag_4\n      0x04\n      dup1\n      calldatasize\n      sub\n      dup2\n      add\n      swap1\n      tag_5\n      swap2\n      swap1\n      tag_6\n      jump\t// in\n    tag_5:\n      tag_7\n      jump\t// in\n    tag_4:\n      stop\n    tag_7:\n        /* \"contracts/base/Chat.sol\":271:274  _to */\n      dup2\n        /* \"contracts/base/Chat.sol\":249:283  LogMessage(msg.sender,_to,message) */\n      0xffffffffffffffffffffffffffffffffffffffff\n      and\n        /* \"contracts/base/Chat.sol\":260:270  msg.sender */\n      caller\n        /* \"contracts/base/Chat.sol\":249:283  LogMessage(msg.sender,_to,message) */\n      0xffffffffffffffffffffffffffffffffffffffff\n      and\n      0x3941a98530dbc17a1e76e2f744770b59c9eec8463cb41e22d4aa553455f322dd\n        /* \"contracts/base/Chat.sol\":275:282  message */\n      dup4\n        /* \"contracts/base/Chat.sol\":249:283  LogMessage(msg.sender,_to,message) */\n      mload(0x40)\n      tag_9\n      swap2\n      swap1\n      tag_10\n      jump\t// in\n    tag_9:\n      mload(0x40)\n      dup1\n      swap2\n      sub\n      swap1\n      log3\n        /* \"contracts/base/Chat.sol\":168:291  function sendMessage(address _to,string memory message) external {\r... */\n      pop\n      pop\n      jump\t// out\n        /* \"#utility.yul\":7:352   */\n    tag_12:\n        /* \"#utility.yul\":85:90   */\n      0x00\n        /* \"#utility.yul\":110:176   */\n      tag_14\n        /* \"#utility.yul\":126:175   */\n      tag_15\n        /* \"#utility.yul\":168:174   */\n      dup5\n        /* \"#utility.yul\":126:175   */\n      tag_16\n      jump\t// in\n    tag_15:\n        /* \"#utility.yul\":110:176   */\n      tag_17\n      jump\t// in\n    tag_14:\n        /* \"#utility.yul\":101:176   */\n      swap1\n      pop\n        /* \"#utility.yul\":199:205   */\n      dup3\n        /* \"#utility.yul\":192:197   */\n      dup2\n        /* \"#utility.yul\":185:206   */\n      mstore\n        /* \"#utility.yul\":237:241   */\n      0x20\n        /* \"#utility.yul\":230:235   */\n      dup2\n        /* \"#utility.yul\":226:242   */\n      add\n        /* \"#utility.yul\":275:278   */\n      dup5\n        /* \"#utility.yul\":266:272   */\n      dup5\n        /* \"#utility.yul\":261:264   */\n      dup5\n        /* \"#utility.yul\":257:273   */\n      add\n        /* \"#utility.yul\":254:279   */\n      gt\n        /* \"#utility.yul\":251:253   */\n      iszero\n      tag_18\n      jumpi\n        /* \"#utility.yul\":292:293   */\n      0x00\n        /* \"#utility.yul\":289:290   */\n      dup1\n        /* \"#utility.yul\":282:294   */\n      revert\n        /* \"#utility.yul\":251:253   */\n    tag_18:\n        /* \"#utility.yul\":305:346   */\n      tag_19\n        /* \"#utility.yul\":339:345   */\n      dup5\n        /* \"#utility.yul\":334:337   */\n      dup3\n        /* \"#utility.yul\":329:332   */\n      dup6\n        /* \"#utility.yul\":305:346   */\n      tag_20\n      jump\t// in\n    tag_19:\n        /* \"#utility.yul\":91:352   */\n      pop\n      swap4\n      swap3\n      pop\n      pop\n      pop\n      jump\t// out\n        /* \"#utility.yul\":358:497   */\n    tag_21:\n        /* \"#utility.yul\":404:409   */\n      0x00\n        /* \"#utility.yul\":442:448   */\n      dup2\n        /* \"#utility.yul\":429:449   */\n      calldataload\n        /* \"#utility.yul\":420:449   */\n      swap1\n      pop\n        /* \"#utility.yul\":458:491   */\n      tag_23\n        /* \"#utility.yul\":485:490   */\n      dup2\n        /* \"#utility.yul\":458:491   */\n      tag_24\n      jump\t// in\n    tag_23:\n        /* \"#utility.yul\":410:497   */\n      swap3\n      swap2\n      pop\n      pop\n      jump\t// out\n        /* \"#utility.yul\":517:790   */\n    tag_25:\n        /* \"#utility.yul\":573:578   */\n      0x00\n        /* \"#utility.yul\":622:625   */\n      dup3\n        /* \"#utility.yul\":615:619   */\n      0x1f\n        /* \"#utility.yul\":607:613   */\n      dup4\n        /* \"#utility.yul\":603:620   */\n      add\n        /* \"#utility.yul\":599:626   */\n      slt\n        /* \"#utility.yul\":589:591   */\n      tag_27\n      jumpi\n        /* \"#utility.yul\":640:641   */\n      0x00\n        /* \"#utility.yul\":637:638   */\n      dup1\n        /* \"#utility.yul\":630:642   */\n      revert\n        /* \"#utility.yul\":589:591   */\n    tag_27:\n        /* \"#utility.yul\":680:686   */\n      dup2\n        /* \"#utility.yul\":667:687   */\n      calldataload\n        /* \"#utility.yul\":705:784   */\n      tag_28\n        /* \"#utility.yul\":780:783   */\n      dup5\n        /* \"#utility.yul\":772:778   */\n      dup3\n        /* \"#utility.yul\":765:769   */\n      0x20\n        /* \"#utility.yul\":757:763   */\n      dup7\n        /* \"#utility.yul\":753:770   */\n      add\n        /* \"#utility.yul\":705:784   */\n      tag_12\n      jump\t// in\n    tag_28:\n        /* \"#utility.yul\":696:784   */\n      swap2\n      pop\n        /* \"#utility.yul\":579:790   */\n      pop\n      swap3\n      swap2\n      pop\n      pop\n      jump\t// out\n        /* \"#utility.yul\":796:1316   */\n    tag_6:\n        /* \"#utility.yul\":874:880   */\n      0x00\n        /* \"#utility.yul\":882:888   */\n      dup1\n        /* \"#utility.yul\":931:933   */\n      0x40\n        /* \"#utility.yul\":919:928   */\n      dup4\n        /* \"#utility.yul\":910:917   */\n      dup6\n        /* \"#utility.yul\":906:929   */\n      sub\n        /* \"#utility.yul\":902:934   */\n      slt\n        /* \"#utility.yul\":899:901   */\n      iszero\n      tag_30\n      jumpi\n        /* \"#utility.yul\":947:948   */\n      0x00\n        /* \"#utility.yul\":944:945   */\n      dup1\n        /* \"#utility.yul\":937:949   */\n      revert\n        /* \"#utility.yul\":899:901   */\n    tag_30:\n        /* \"#utility.yul\":990:991   */\n      0x00\n        /* \"#utility.yul\":1015:1068   */\n      tag_31\n        /* \"#utility.yul\":1060:1067   */\n      dup6\n        /* \"#utility.yul\":1051:1057   */\n      dup3\n        /* \"#utility.yul\":1040:1049   */\n      dup7\n        /* \"#utility.yul\":1036:1058   */\n      add\n        /* \"#utility.yul\":1015:1068   */\n      tag_21\n      jump\t// in\n    tag_31:\n        /* \"#utility.yul\":1005:1068   */\n      swap3\n      pop\n        /* \"#utility.yul\":961:1078   */\n      pop\n        /* \"#utility.yul\":1145:1147   */\n      0x20\n        /* \"#utility.yul\":1134:1143   */\n      dup4\n        /* \"#utility.yul\":1130:1148   */\n      add\n        /* \"#utility.yul\":1117:1149   */\n      calldataload\n        /* \"#utility.yul\":1176:1194   */\n      0xffffffffffffffff\n        /* \"#utility.yul\":1168:1174   */\n      dup2\n        /* \"#utility.yul\":1165:1195   */\n      gt\n        /* \"#utility.yul\":1162:1164   */\n      iszero\n      tag_32\n      jumpi\n        /* \"#utility.yul\":1208:1209   */\n      0x00\n        /* \"#utility.yul\":1205:1206   */\n      dup1\n        /* \"#utility.yul\":1198:1210   */\n      revert\n        /* \"#utility.yul\":1162:1164   */\n    tag_32:\n        /* \"#utility.yul\":1236:1299   */\n      tag_33\n        /* \"#utility.yul\":1291:1298   */\n      dup6\n        /* \"#utility.yul\":1282:1288   */\n      dup3\n        /* \"#utility.yul\":1271:1280   */\n      dup7\n        /* \"#utility.yul\":1267:1289   */\n      add\n        /* \"#utility.yul\":1236:1299   */\n      tag_25\n      jump\t// in\n    tag_33:\n        /* \"#utility.yul\":1226:1299   */\n      swap2\n      pop\n        /* \"#utility.yul\":1088:1309   */\n      pop\n        /* \"#utility.yul\":889:1316   */\n      swap3\n      pop\n      swap3\n      swap1\n      pop\n      jump\t// out\n        /* \"#utility.yul\":1322:1686   */\n    tag_34:\n        /* \"#utility.yul\":1410:1413   */\n      0x00\n        /* \"#utility.yul\":1438:1477   */\n      tag_36\n        /* \"#utility.yul\":1471:1476   */\n      dup3\n        /* \"#utility.yul\":1438:1477   */\n      tag_37\n      jump\t// in\n    tag_36:\n        /* \"#utility.yul\":1493:1564   */\n      tag_38\n        /* \"#utility.yul\":1557:1563   */\n      dup2\n        /* \"#utility.yul\":1552:1555   */\n      dup6\n        /* \"#utility.yul\":1493:1564   */\n      tag_39\n      jump\t// in\n    tag_38:\n        /* \"#utility.yul\":1486:1564   */\n      swap4\n      pop\n        /* \"#utility.yul\":1573:1625   */\n      tag_40\n        /* \"#utility.yul\":1618:1624   */\n      dup2\n        /* \"#utility.yul\":1613:1616   */\n      dup6\n        /* \"#utility.yul\":1606:1610   */\n      0x20\n        /* \"#utility.yul\":1599:1604   */\n      dup7\n        /* \"#utility.yul\":1595:1611   */\n      add\n        /* \"#utility.yul\":1573:1625   */\n      tag_41\n      jump\t// in\n    tag_40:\n        /* \"#utility.yul\":1650:1679   */\n      tag_42\n        /* \"#utility.yul\":1672:1678   */\n      dup2\n        /* \"#utility.yul\":1650:1679   */\n      tag_43\n      jump\t// in\n    tag_42:\n        /* \"#utility.yul\":1645:1648   */\n      dup5\n        /* \"#utility.yul\":1641:1680   */\n      add\n        /* \"#utility.yul\":1634:1680   */\n      swap2\n      pop\n        /* \"#utility.yul\":1414:1686   */\n      pop\n      swap3\n      swap2\n      pop\n      pop\n      jump\t// out\n        /* \"#utility.yul\":1692:2005   */\n    tag_10:\n        /* \"#utility.yul\":1805:1809   */\n      0x00\n        /* \"#utility.yul\":1843:1845   */\n      0x20\n        /* \"#utility.yul\":1832:1841   */\n      dup3\n        /* \"#utility.yul\":1828:1846   */\n      add\n        /* \"#utility.yul\":1820:1846   */\n      swap1\n      pop\n        /* \"#utility.yul\":1892:1901   */\n      dup2\n        /* \"#utility.yul\":1886:1890   */\n      dup2\n        /* \"#utility.yul\":1882:1902   */\n      sub\n        /* \"#utility.yul\":1878:1879   */\n      0x00\n        /* \"#utility.yul\":1867:1876   */\n      dup4\n        /* \"#utility.yul\":1863:1880   */\n      add\n        /* \"#utility.yul\":1856:1903   */\n      mstore\n        /* \"#utility.yul\":1920:1998   */\n      tag_45\n        /* \"#utility.yul\":1993:1997   */\n      dup2\n        /* \"#utility.yul\":1984:1990   */\n      dup5\n        /* \"#utility.yul\":1920:1998   */\n      tag_34\n      jump\t// in\n    tag_45:\n        /* \"#utility.yul\":1912:1998   */\n      swap1\n      pop\n        /* \"#utility.yul\":1810:2005   */\n      swap3\n      swap2\n      pop\n      pop\n      jump\t// out\n        /* \"#utility.yul\":2011:2140   */\n    tag_17:\n        /* \"#utility.yul\":2045:2051   */\n      0x00\n        /* \"#utility.yul\":2072:2092   */\n      tag_47\n      tag_48\n      jump\t// in\n    tag_47:\n        /* \"#utility.yul\":2062:2092   */\n      swap1\n      pop\n        /* \"#utility.yul\":2101:2134   */\n      tag_49\n        /* \"#utility.yul\":2129:2133   */\n      dup3\n        /* \"#utility.yul\":2121:2127   */\n      dup3\n        /* \"#utility.yul\":2101:2134   */\n      tag_50\n      jump\t// in\n    tag_49:\n        /* \"#utility.yul\":2052:2140   */\n      swap2\n      swap1\n      pop\n      jump\t// out\n        /* \"#utility.yul\":2146:2221   */\n    tag_48:\n        /* \"#utility.yul\":2179:2185   */\n      0x00\n        /* \"#utility.yul\":2212:2214   */\n      0x40\n        /* \"#utility.yul\":2206:2215   */\n      mload\n        /* \"#utility.yul\":2196:2215   */\n      swap1\n      pop\n        /* \"#utility.yul\":2186:2221   */\n      swap1\n      jump\t// out\n        /* \"#utility.yul\":2227:2535   */\n    tag_16:\n        /* \"#utility.yul\":2289:2293   */\n      0x00\n        /* \"#utility.yul\":2379:2397   */\n      0xffffffffffffffff\n        /* \"#utility.yul\":2371:2377   */\n      dup3\n        /* \"#utility.yul\":2368:2398   */\n      gt\n        /* \"#utility.yul\":2365:2367   */\n      iszero\n      tag_53\n      jumpi\n        /* \"#utility.yul\":2401:2419   */\n      tag_54\n      tag_55\n      jump\t// in\n    tag_54:\n        /* \"#utility.yul\":2365:2367   */\n    tag_53:\n        /* \"#utility.yul\":2439:2468   */\n      tag_56\n        /* \"#utility.yul\":2461:2467   */\n      dup3\n        /* \"#utility.yul\":2439:2468   */\n      tag_43\n      jump\t// in\n    tag_56:\n        /* \"#utility.yul\":2431:2468   */\n      swap1\n      pop\n        /* \"#utility.yul\":2523:2527   */\n      0x20\n        /* \"#utility.yul\":2517:2521   */\n      dup2\n        /* \"#utility.yul\":2513:2528   */\n      add\n        /* \"#utility.yul\":2505:2528   */\n      swap1\n      pop\n        /* \"#utility.yul\":2294:2535   */\n      swap2\n      swap1\n      pop\n      jump\t// out\n        /* \"#utility.yul\":2541:2640   */\n    tag_37:\n        /* \"#utility.yul\":2593:2599   */\n      0x00\n        /* \"#utility.yul\":2627:2632   */\n      dup2\n        /* \"#utility.yul\":2621:2633   */\n      mload\n        /* \"#utility.yul\":2611:2633   */\n      swap1\n      pop\n        /* \"#utility.yul\":2600:2640   */\n      swap2\n      swap1\n      pop\n      jump\t// out\n        /* \"#utility.yul\":2646:2815   */\n    tag_39:\n        /* \"#utility.yul\":2730:2741   */\n      0x00\n        /* \"#utility.yul\":2764:2770   */\n      dup3\n        /* \"#utility.yul\":2759:2762   */\n      dup3\n        /* \"#utility.yul\":2752:2771   */\n      mstore\n        /* \"#utility.yul\":2804:2808   */\n      0x20\n        /* \"#utility.yul\":2799:2802   */\n      dup3\n        /* \"#utility.yul\":2795:2809   */\n      add\n        /* \"#utility.yul\":2780:2809   */\n      swap1\n      pop\n        /* \"#utility.yul\":2742:2815   */\n      swap3\n      swap2\n      pop\n      pop\n      jump\t// out\n        /* \"#utility.yul\":2821:2917   */\n    tag_59:\n        /* \"#utility.yul\":2858:2865   */\n      0x00\n        /* \"#utility.yul\":2887:2911   */\n      tag_61\n        /* \"#utility.yul\":2905:2910   */\n      dup3\n        /* \"#utility.yul\":2887:2911   */\n      tag_62\n      jump\t// in\n    tag_61:\n        /* \"#utility.yul\":2876:2911   */\n      swap1\n      pop\n        /* \"#utility.yul\":2866:2917   */\n      swap2\n      swap1\n      pop\n      jump\t// out\n        /* \"#utility.yul\":2923:3049   */\n    tag_62:\n        /* \"#utility.yul\":2960:2967   */\n      0x00\n        /* \"#utility.yul\":3000:3042   */\n      0xffffffffffffffffffffffffffffffffffffffff\n        /* \"#utility.yul\":2993:2998   */\n      dup3\n        /* \"#utility.yul\":2989:3043   */\n      and\n        /* \"#utility.yul\":2978:3043   */\n      swap1\n      pop\n        /* \"#utility.yul\":2968:3049   */\n      swap2\n      swap1\n      pop\n      jump\t// out\n        /* \"#utility.yul\":3055:3209   */\n    tag_20:\n        /* \"#utility.yul\":3139:3145   */\n      dup3\n        /* \"#utility.yul\":3134:3137   */\n      dup2\n        /* \"#utility.yul\":3129:3132   */\n      dup4\n        /* \"#utility.yul\":3116:3146   */\n      calldatacopy\n        /* \"#utility.yul\":3201:3202   */\n      0x00\n        /* \"#utility.yul\":3192:3198   */\n      dup4\n        /* \"#utility.yul\":3187:3190   */\n      dup4\n        /* \"#utility.yul\":3183:3199   */\n      add\n        /* \"#utility.yul\":3176:3203   */\n      mstore\n        /* \"#utility.yul\":3106:3209   */\n      pop\n      pop\n      pop\n      jump\t// out\n        /* \"#utility.yul\":3215:3522   */\n    tag_41:\n        /* \"#utility.yul\":3283:3284   */\n      0x00\n        /* \"#utility.yul\":3293:3406   */\n    tag_66:\n        /* \"#utility.yul\":3307:3313   */\n      dup4\n        /* \"#utility.yul\":3304:3305   */\n      dup2\n        /* \"#utility.yul\":3301:3314   */\n      lt\n        /* \"#utility.yul\":3293:3406   */\n      iszero\n      tag_68\n      jumpi\n        /* \"#utility.yul\":3392:3393   */\n      dup1\n        /* \"#utility.yul\":3387:3390   */\n      dup3\n        /* \"#utility.yul\":3383:3394   */\n      add\n        /* \"#utility.yul\":3377:3395   */\n      mload\n        /* \"#utility.yul\":3373:3374   */\n      dup2\n        /* \"#utility.yul\":3368:3371   */\n      dup5\n        /* \"#utility.yul\":3364:3375   */\n      add\n        /* \"#utility.yul\":3357:3396   */\n      mstore\n        /* \"#utility.yul\":3329:3331   */\n      0x20\n        /* \"#utility.yul\":3326:3327   */\n      dup2\n        /* \"#utility.yul\":3322:3332   */\n      add\n        /* \"#utility.yul\":3317:3332   */\n      swap1\n      pop\n        /* \"#utility.yul\":3293:3406   */\n      jump(tag_66)\n    tag_68:\n        /* \"#utility.yul\":3424:3430   */\n      dup4\n        /* \"#utility.yul\":3421:3422   */\n      dup2\n        /* \"#utility.yul\":3418:3431   */\n      gt\n        /* \"#utility.yul\":3415:3417   */\n      iszero\n      tag_69\n      jumpi\n        /* \"#utility.yul\":3504:3505   */\n      0x00\n        /* \"#utility.yul\":3495:3501   */\n      dup5\n        /* \"#utility.yul\":3490:3493   */\n      dup5\n        /* \"#utility.yul\":3486:3502   */\n      add\n        /* \"#utility.yul\":3479:3506   */\n      mstore\n        /* \"#utility.yul\":3415:3417   */\n    tag_69:\n        /* \"#utility.yul\":3264:3522   */\n      pop\n      pop\n      pop\n      pop\n      jump\t// out\n        /* \"#utility.yul\":3528:3809   */\n    tag_50:\n        /* \"#utility.yul\":3611:3638   */\n      tag_71\n        /* \"#utility.yul\":3633:3637   */\n      dup3\n        /* \"#utility.yul\":3611:3638   */\n      tag_43\n      jump\t// in\n    tag_71:\n        /* \"#utility.yul\":3603:3609   */\n      dup2\n        /* \"#utility.yul\":3599:3639   */\n      add\n        /* \"#utility.yul\":3741:3747   */\n      dup2\n        /* \"#utility.yul\":3729:3739   */\n      dup2\n        /* \"#utility.yul\":3726:3748   */\n      lt\n        /* \"#utility.yul\":3705:3723   */\n      0xffffffffffffffff\n        /* \"#utility.yul\":3693:3703   */\n      dup3\n        /* \"#utility.yul\":3690:3724   */\n      gt\n        /* \"#utility.yul\":3687:3749   */\n      or\n        /* \"#utility.yul\":3684:3686   */\n      iszero\n      tag_72\n      jumpi\n        /* \"#utility.yul\":3752:3770   */\n      tag_73\n      tag_55\n      jump\t// in\n    tag_73:\n        /* \"#utility.yul\":3684:3686   */\n    tag_72:\n        /* \"#utility.yul\":3792:3802   */\n      dup1\n        /* \"#utility.yul\":3788:3790   */\n      0x40\n        /* \"#utility.yul\":3781:3803   */\n      mstore\n        /* \"#utility.yul\":3571:3809   */\n      pop\n      pop\n      pop\n      jump\t// out\n        /* \"#utility.yul\":3815:3995   */\n    tag_55:\n        /* \"#utility.yul\":3863:3940   */\n      0x4e487b7100000000000000000000000000000000000000000000000000000000\n        /* \"#utility.yul\":3860:3861   */\n      0x00\n        /* \"#utility.yul\":3853:3941   */\n      mstore\n        /* \"#utility.yul\":3960:3964   */\n      0x41\n        /* \"#utility.yul\":3957:3958   */\n      0x04\n        /* \"#utility.yul\":3950:3965   */\n      mstore\n        /* \"#utility.yul\":3984:3988   */\n      0x24\n        /* \"#utility.yul\":3981:3982   */\n      0x00\n        /* \"#utility.yul\":3974:3989   */\n      revert\n        /* \"#utility.yul\":4001:4103   */\n    tag_43:\n        /* \"#utility.yul\":4042:4048   */\n      0x00\n        /* \"#utility.yul\":4093:4095   */\n      0x1f\n        /* \"#utility.yul\":4089:4096   */\n      not\n        /* \"#utility.yul\":4084:4086   */\n      0x1f\n        /* \"#utility.yul\":4077:4082   */\n      dup4\n        /* \"#utility.yul\":4073:4087   */\n      add\n        /* \"#utility.yul\":4069:4097   */\n      and\n        /* \"#utility.yul\":4059:4097   */\n      swap1\n      pop\n        /* \"#utility.yul\":4049:4103   */\n      swap2\n      swap1\n      pop\n      jump\t// out\n        /* \"#utility.yul\":4109:4231   */\n    tag_24:\n        /* \"#utility.yul\":4182:4206   */\n      tag_77\n        /* \"#utility.yul\":4200:4205   */\n      dup2\n        /* \"#utility.yul\":4182:4206   */\n      tag_59\n      jump\t// in\n    tag_77:\n        /* \"#utility.yul\":4175:4180   */\n      dup2\n        /* \"#utility.yul\":4172:4207   */\n      eq\n        /* \"#utility.yul\":4162:4164   */\n      tag_78\n      jumpi\n        /* \"#utility.yul\":4221:4222   */\n      0x00\n        /* \"#utility.yul\":4218:4219   */\n      dup1\n        /* \"#utility.yul\":4211:4223   */\n      revert\n        /* \"#utility.yul\":4162:4164   */\n    tag_78:\n        /* \"#utility.yul\":4152:4231   */\n      pop\n      jump\t// out\n\n    auxdata: 0xa2646970667358221220890dd790699f6cc0df5fb72f64c34551cc520d8a041540652702efb1d0574cdd64736f6c63430008040033\n}\n",
				"bytecode": {
					"linkReferences": {},
					"object": "608060405234801561001057600080fd5b50610385806100206000396000f3fe608060405234801561001057600080fd5b506004361061002b5760003560e01c8063de6f24bb14610030575b600080fd5b61004a60048036038101906100459190610132565b61004c565b005b8173ffffffffffffffffffffffffffffffffffffffff163373ffffffffffffffffffffffffffffffffffffffff167f3941a98530dbc17a1e76e2f744770b59c9eec8463cb41e22d4aa553455f322dd836040516100a991906101bf565b60405180910390a35050565b60006100c86100c384610206565b6101e1565b9050828152602081018484840111156100e057600080fd5b6100eb848285610285565b509392505050565b60008135905061010281610338565b92915050565b600082601f83011261011957600080fd5b81356101298482602086016100b5565b91505092915050565b6000806040838503121561014557600080fd5b6000610153858286016100f3565b925050602083013567ffffffffffffffff81111561017057600080fd5b61017c85828601610108565b9150509250929050565b600061019182610237565b61019b8185610242565b93506101ab818560208601610294565b6101b481610327565b840191505092915050565b600060208201905081810360008301526101d98184610186565b905092915050565b60006101eb6101fc565b90506101f782826102c7565b919050565b6000604051905090565b600067ffffffffffffffff821115610221576102206102f8565b5b61022a82610327565b9050602081019050919050565b600081519050919050565b600082825260208201905092915050565b600061025e82610265565b9050919050565b600073ffffffffffffffffffffffffffffffffffffffff82169050919050565b82818337600083830152505050565b60005b838110156102b2578082015181840152602081019050610297565b838111156102c1576000848401525b50505050565b6102d082610327565b810181811067ffffffffffffffff821117156102ef576102ee6102f8565b5b80604052505050565b7f4e487b7100000000000000000000000000000000000000000000000000000000600052604160045260246000fd5b6000601f19601f8301169050919050565b61034181610253565b811461034c57600080fd5b5056fea2646970667358221220890dd790699f6cc0df5fb72f64c34551cc520d8a041540652702efb1d0574cdd64736f6c63430008040033",
					"opcodes": "PUSH1 0x80 PUSH1 0x40 MSTORE CALLVALUE DUP1 ISZERO PUSH2 0x10 JUMPI PUSH1 0x0 DUP1 REVERT JUMPDEST POP PUSH2 0x385 DUP1 PUSH2 0x20 PUSH1 0x0 CODECOPY PUSH1 0x0 RETURN INVALID PUSH1 0x80 PUSH1 0x40 MSTORE CALLVALUE DUP1 ISZERO PUSH2 0x10 JUMPI PUSH1 0x0 DUP1 REVERT JUMPDEST POP PUSH1 0x4 CALLDATASIZE LT PUSH2 0x2B JUMPI PUSH1 0x0 CALLDATALOAD PUSH1 0xE0 SHR DUP1 PUSH4 0xDE6F24BB EQ PUSH2 0x30 JUMPI JUMPDEST PUSH1 0x0 DUP1 REVERT JUMPDEST PUSH2 0x4A PUSH1 0x4 DUP1 CALLDATASIZE SUB DUP2 ADD SWAP1 PUSH2 0x45 SWAP2 SWAP1 PUSH2 0x132 JUMP JUMPDEST PUSH2 0x4C JUMP JUMPDEST STOP JUMPDEST DUP2 PUSH20 0xFFFFFFFFFFFFFFFFFFFFFFFFFFFFFFFFFFFFFFFF AND CALLER PUSH20 0xFFFFFFFFFFFFFFFFFFFFFFFFFFFFFFFFFFFFFFFF AND PUSH32 0x3941A98530DBC17A1E76E2F744770B59C9EEC8463CB41E22D4AA553455F322DD DUP4 PUSH1 0x40 MLOAD PUSH2 0xA9 SWAP2 SWAP1 PUSH2 0x1BF JUMP JUMPDEST PUSH1 0x40 MLOAD DUP1 SWAP2 SUB SWAP1 LOG3 POP POP JUMP JUMPDEST PUSH1 0x0 PUSH2 0xC8 PUSH2 0xC3 DUP5 PUSH2 0x206 JUMP JUMPDEST PUSH2 0x1E1 JUMP JUMPDEST SWAP1 POP DUP3 DUP2 MSTORE PUSH1 0x20 DUP2 ADD DUP5 DUP5 DUP5 ADD GT ISZERO PUSH2 0xE0 JUMPI PUSH1 0x0 DUP1 REVERT JUMPDEST PUSH2 0xEB DUP5 DUP3 DUP6 PUSH2 0x285 JUMP JUMPDEST POP SWAP4 SWAP3 POP POP POP JUMP JUMPDEST PUSH1 0x0 DUP2 CALLDATALOAD SWAP1 POP PUSH2 0x102 DUP2 PUSH2 0x338 JUMP JUMPDEST SWAP3 SWAP2 POP POP JUMP JUMPDEST PUSH1 0x0 DUP3 PUSH1 0x1F DUP4 ADD SLT PUSH2 0x119 JUMPI PUSH1 0x0 DUP1 REVERT JUMPDEST DUP2 CALLDATALOAD PUSH2 0x129 DUP5 DUP3 PUSH1 0x20 DUP7 ADD PUSH2 0xB5 JUMP JUMPDEST SWAP2 POP POP SWAP3 SWAP2 POP POP JUMP JUMPDEST PUSH1 0x0 DUP1 PUSH1 0x40 DUP4 DUP6 SUB SLT ISZERO PUSH2 0x145 JUMPI PUSH1 0x0 DUP1 REVERT JUMPDEST PUSH1 0x0 PUSH2 0x153 DUP6 DUP3 DUP7 ADD PUSH2 0xF3 JUMP JUMPDEST SWAP3 POP POP PUSH1 0x20 DUP4 ADD CALLDATALOAD PUSH8 0xFFFFFFFFFFFFFFFF DUP2 GT ISZERO PUSH2 0x170 JUMPI PUSH1 0x0 DUP1 REVERT JUMPDEST PUSH2 0x17C DUP6 DUP3 DUP7 ADD PUSH2 0x108 JUMP JUMPDEST SWAP2 POP POP SWAP3 POP SWAP3 SWAP1 POP JUMP JUMPDEST PUSH1 0x0 PUSH2 0x191 DUP3 PUSH2 0x237 JUMP JUMPDEST PUSH2 0x19B DUP2 DUP6 PUSH2 0x242 JUMP JUMPDEST SWAP4 POP PUSH2 0x1AB DUP2 DUP6 PUSH1 0x20 DUP7 ADD PUSH2 0x294 JUMP JUMPDEST PUSH2 0x1B4 DUP2 PUSH2 0x327 JUMP JUMPDEST DUP5 ADD SWAP2 POP POP SWAP3 SWAP2 POP POP JUMP JUMPDEST PUSH1 0x0 PUSH1 0x20 DUP3 ADD SWAP1 POP DUP2 DUP2 SUB PUSH1 0x0 DUP4 ADD MSTORE PUSH2 0x1D9 DUP2 DUP5 PUSH2 0x186 JUMP JUMPDEST SWAP1 POP SWAP3 SWAP2 POP POP JUMP JUMPDEST PUSH1 0x0 PUSH2 0x1EB PUSH2 0x1FC JUMP JUMPDEST SWAP1 POP PUSH2 0x1F7 DUP3 DUP3 PUSH2 0x2C7 JUMP JUMPDEST SWAP2 SWAP1 POP JUMP JUMPDEST PUSH1 0x0 PUSH1 0x40 MLOAD SWAP1 POP SWAP1 JUMP JUMPDEST PUSH1 0x0 PUSH8 0xFFFFFFFFFFFFFFFF DUP3 GT ISZERO PUSH2 0x221 JUMPI PUSH2 0x220 PUSH2 0x2F8 JUMP JUMPDEST JUMPDEST PUSH2 0x22A DUP3 PUSH2 0x327 JUMP JUMPDEST SWAP1 POP PUSH1 0x20 DUP2 ADD SWAP1 POP SWAP2 SWAP1 POP JUMP JUMPDEST PUSH1 0x0 DUP2 MLOAD SWAP1 POP SWAP2 SWAP1 POP JUMP JUMPDEST PUSH1 0x0 DUP3 DUP3 MSTORE PUSH1 0x20 DUP3 ADD SWAP1 POP SWAP3 SWAP2 POP POP JUMP JUMPDEST PUSH1 0x0 PUSH2 0x25E DUP3 PUSH2 0x265 JUMP JUMPDEST SWAP1 POP SWAP2 SWAP1 POP JUMP JUMPDEST PUSH1 0x0 PUSH20 0xFFFFFFFFFFFFFFFFFFFFFFFFFFFFFFFFFFFFFFFF DUP3 AND SWAP1 POP SWAP2 SWAP1 POP JUMP JUMPDEST DUP3 DUP2 DUP4 CALLDATACOPY PUSH1 0x0 DUP4 DUP4 ADD MSTORE POP POP POP JUMP JUMPDEST PUSH1 0x0 JUMPDEST DUP4 DUP2 LT ISZERO PUSH2 0x2B2 JUMPI DUP1 DUP3 ADD MLOAD DUP2 DUP5 ADD MSTORE PUSH1 0x20 DUP2 ADD SWAP1 POP PUSH2 0x297 JUMP JUMPDEST DUP4 DUP2 GT ISZERO PUSH2 0x2C1 JUMPI PUSH1 0x0 DUP5 DUP5 ADD MSTORE JUMPDEST POP POP POP POP JUMP JUMPDEST PUSH2 0x2D0 DUP3 PUSH2 0x327 JUMP JUMPDEST DUP2 ADD DUP2 DUP2 LT PUSH8 0xFFFFFFFFFFFFFFFF DUP3 GT OR ISZERO PUSH2 0x2EF JUMPI PUSH2 0x2EE PUSH2 0x2F8 JUMP JUMPDEST JUMPDEST DUP1 PUSH1 0x40 MSTORE POP POP POP JUMP JUMPDEST PUSH32 0x4E487B7100000000000000000000000000000000000000000000000000000000 PUSH1 0x0 MSTORE PUSH1 0x41 PUSH1 0x4 MSTORE PUSH1 0x24 PUSH1 0x0 REVERT JUMPDEST PUSH1 0x0 PUSH1 0x1F NOT PUSH1 0x1F DUP4 ADD AND SWAP1 POP SWAP2 SWAP1 POP JUMP JUMPDEST PUSH2 0x341 DUP2 PUSH2 0x253 JUMP JUMPDEST DUP2 EQ PUSH2 0x34C JUMPI PUSH1 0x0 DUP1 REVERT JUMPDEST POP JUMP INVALID LOG2 PUSH5 0x6970667358 0x22 SLT KECCAK256 DUP10 0xD 0xD7 SWAP1 PUSH10 0x9F6CC0DF5FB72F64C345 MLOAD 0xCC MSTORE 0xD DUP11 DIV ISZERO BLOCKHASH PUSH6 0x2702EFB1D057 0x4C 0xDD PUSH5 0x736F6C6343 STOP ADDMOD DIV STOP CALLER "
				},
				"gasEstimates": {
					"creation": {
						"codeDepositCost": "180200",
						"executionCost": "226",
						"totalCost": "180426"
					},
					"external": {
						"sendMessage(address,string)": "infinite"
					}
				},
				"methodIdentifiers": {
					"sendMessage(address,string)": "de6f24bb"
				}
			},
			"storageLayout": {
				"storage": [],
				"types": null
			},
			"userdoc": {
				"kind": "user",
				"methods": {},
				"version": 1
			}
		}
	}
}