{
	"contracts/base/CallTest.sol": {
		"TestContract": {
			"abi": [
				{
					"anonymous": false,
					"inputs": [
						{
							"indexed": false,
							"internalType": "address",
							"name": "caller",
							"type": "address"
						},
						{
							"indexed": false,
							"internalType": "uint256",
							"name": "amount",
							"type": "uint256"
						},
						{
							"indexed": false,
							"internalType": "string",
							"name": "message",
							"type": "string"
						}
					],
					"name": "Log",
					"type": "event"
				},
				{
					"stateMutability": "payable",
					"type": "fallback"
				},
				{
					"inputs": [
						{
							"internalType": "string",
							"name": "_msg",
							"type": "string"
						},
						{
							"internalType": "uint256",
							"name": "_num",
							"type": "uint256"
						}
					],
					"name": "foo",
					"outputs": [],
					"stateMutability": "payable",
					"type": "function"
				},
				{
					"inputs": [],
					"name": "message",
					"outputs": [
						{
							"internalType": "string",
							"name": "",
							"type": "string"
						}
					],
					"stateMutability": "view",
					"type": "function"
				},
				{
					"inputs": [],
					"name": "number",
					"outputs": [
						{
							"internalType": "uint256",
							"name": "",
							"type": "uint256"
						}
					],
					"stateMutability": "view",
					"type": "function"
				},
				{
					"stateMutability": "payable",
					"type": "receive"
				}
			],
			"devdoc": {
				"kind": "dev",
				"methods": {},
				"version": 1
			},
			"evm": {
				"assembly": "    /* \"contracts/base/CallTest.sol\":63:535  contract TestContract {\r... */\n  mstore(0x40, 0x80)\n  callvalue\n  dup1\n  iszero\n  tag_1\n  jumpi\n  0x00\n  dup1\n  revert\ntag_1:\n  pop\n  dataSize(sub_0)\n  dup1\n  dataOffset(sub_0)\n  0x00\n  codecopy\n  0x00\n  return\nstop\n\nsub_0: assembly {\n        /* \"contracts/base/CallTest.sol\":63:535  contract TestContract {\r... */\n      mstore(0x40, 0x80)\n      jumpi(tag_1, lt(calldatasize, 0x04))\n      shr(0xe0, calldataload(0x00))\n      dup1\n      0x24ccab8f\n      eq\n      tag_3\n      jumpi\n      dup1\n      0x8381f58a\n      eq\n      tag_4\n      jumpi\n      dup1\n      0xe21f37ce\n      eq\n      tag_5\n      jumpi\n      jump(tag_2)\n    tag_1:\n      jumpi(tag_2, calldatasize)\n        /* \"contracts/base/CallTest.sol\":496:524  Log(msg.sender,msg.value,\"\") */\n      0x4e3358e5bdb38f499a83fbcd33d16343569f3b6fe53021022dede6364017b4a8\n        /* \"contracts/base/CallTest.sol\":500:510  msg.sender */\n      caller\n        /* \"contracts/base/CallTest.sol\":511:520  msg.value */\n      callvalue\n        /* \"contracts/base/CallTest.sol\":496:524  Log(msg.sender,msg.value,\"\") */\n      mload(0x40)\n      tag_8\n      swap3\n      swap2\n      swap1\n      tag_9\n      jump\t// in\n    tag_8:\n      mload(0x40)\n      dup1\n      swap2\n      sub\n      swap1\n      log1\n        /* \"contracts/base/CallTest.sol\":63:535  contract TestContract {\r... */\n      stop\n    tag_2:\n        /* \"contracts/base/CallTest.sol\":387:434  Log(msg.sender,msg.value,\"Fallback was called\") */\n      0x4e3358e5bdb38f499a83fbcd33d16343569f3b6fe53021022dede6364017b4a8\n        /* \"contracts/base/CallTest.sol\":391:401  msg.sender */\n      caller\n        /* \"contracts/base/CallTest.sol\":402:411  msg.value */\n      callvalue\n        /* \"contracts/base/CallTest.sol\":387:434  Log(msg.sender,msg.value,\"Fallback was called\") */\n      mload(0x40)\n      tag_12\n      swap3\n      swap2\n      swap1\n      tag_13\n      jump\t// in\n    tag_12:\n      mload(0x40)\n      dup1\n      swap2\n      sub\n      swap1\n      log1\n        /* \"contracts/base/CallTest.sol\":63:535  contract TestContract {\r... */\n      stop\n        /* \"contracts/base/CallTest.sol\":213:334  function foo(string memory _msg, uint256 _num) external payable {\r... */\n    tag_3:\n      tag_14\n      0x04\n      dup1\n      calldatasize\n      sub\n      dup2\n      add\n      swap1\n      tag_15\n      swap2\n      swap1\n      tag_16\n      jump\t// in\n    tag_15:\n      tag_17\n      jump\t// in\n    tag_14:\n      stop\n        /* \"contracts/base/CallTest.sol\":120:138  uint public number */\n    tag_4:\n      callvalue\n      dup1\n      iszero\n      tag_18\n      jumpi\n      0x00\n      dup1\n      revert\n    tag_18:\n      pop\n      tag_19\n      tag_20\n      jump\t// in\n    tag_19:\n      mload(0x40)\n      tag_21\n      swap2\n      swap1\n      tag_22\n      jump\t// in\n    tag_21:\n      mload(0x40)\n      dup1\n      swap2\n      sub\n      swap1\n      return\n        /* \"contracts/base/CallTest.sol\":92:113  string public message */\n    tag_5:\n      callvalue\n      dup1\n      iszero\n      tag_23\n      jumpi\n      0x00\n      dup1\n      revert\n    tag_23:\n      pop\n      tag_24\n      tag_25\n      jump\t// in\n    tag_24:\n      mload(0x40)\n      tag_26\n      swap2\n      swap1\n      tag_27\n      jump\t// in\n    tag_26:\n      mload(0x40)\n      dup1\n      swap2\n      sub\n      swap1\n      return\n        /* \"contracts/base/CallTest.sol\":213:334  function foo(string memory _msg, uint256 _num) external payable {\r... */\n    tag_17:\n        /* \"contracts/base/CallTest.sol\":298:302  _msg */\n      dup2\n        /* \"contracts/base/CallTest.sol\":288:295  message */\n      0x00\n        /* \"contracts/base/CallTest.sol\":288:302  message = _msg */\n      swap1\n      dup1\n      mload\n      swap1\n      0x20\n      add\n      swap1\n      tag_29\n      swap3\n      swap2\n      swap1\n      tag_30\n      jump\t// in\n    tag_29:\n      pop\n        /* \"contracts/base/CallTest.sol\":322:326  _num */\n      dup1\n        /* \"contracts/base/CallTest.sol\":313:319  number */\n      0x01\n        /* \"contracts/base/CallTest.sol\":313:326  number = _num */\n      dup2\n      swap1\n      sstore\n      pop\n        /* \"contracts/base/CallTest.sol\":213:334  function foo(string memory _msg, uint256 _num) external payable {\r... */\n      pop\n      pop\n      jump\t// out\n        /* \"contracts/base/CallTest.sol\":120:138  uint public number */\n    tag_20:\n      sload(0x01)\n      dup2\n      jump\t// out\n        /* \"contracts/base/CallTest.sol\":92:113  string public message */\n    tag_25:\n      0x00\n      dup1\n      sload\n      tag_31\n      swap1\n      tag_32\n      jump\t// in\n    tag_31:\n      dup1\n      0x1f\n      add\n      0x20\n      dup1\n      swap2\n      div\n      mul\n      0x20\n      add\n      mload(0x40)\n      swap1\n      dup2\n      add\n      0x40\n      mstore\n      dup1\n      swap3\n      swap2\n      swap1\n      dup2\n      dup2\n      mstore\n      0x20\n      add\n      dup3\n      dup1\n      sload\n      tag_33\n      swap1\n      tag_32\n      jump\t// in\n    tag_33:\n      dup1\n      iszero\n      tag_34\n      jumpi\n      dup1\n      0x1f\n      lt\n      tag_35\n      jumpi\n      0x0100\n      dup1\n      dup4\n      sload\n      div\n      mul\n      dup4\n      mstore\n      swap2\n      0x20\n      add\n      swap2\n      jump(tag_34)\n    tag_35:\n      dup3\n      add\n      swap2\n      swap1\n      0x00\n      mstore\n      keccak256(0x00, 0x20)\n      swap1\n    tag_36:\n      dup2\n      sload\n      dup2\n      mstore\n      swap1\n      0x01\n      add\n      swap1\n      0x20\n      add\n      dup1\n      dup4\n      gt\n      tag_36\n      jumpi\n      dup3\n      swap1\n      sub\n      0x1f\n      and\n      dup3\n      add\n      swap2\n    tag_34:\n      pop\n      pop\n      pop\n      pop\n      pop\n      dup2\n      jump\t// out\n    tag_30:\n      dup3\n      dup1\n      sload\n      tag_37\n      swap1\n      tag_32\n      jump\t// in\n    tag_37:\n      swap1\n      0x00\n      mstore\n      keccak256(0x00, 0x20)\n      swap1\n      0x1f\n      add\n      0x20\n      swap1\n      div\n      dup2\n      add\n      swap3\n      dup3\n      tag_39\n      jumpi\n      0x00\n      dup6\n      sstore\n      jump(tag_38)\n    tag_39:\n      dup3\n      0x1f\n      lt\n      tag_40\n      jumpi\n      dup1\n      mload\n      not(0xff)\n      and\n      dup4\n      dup1\n      add\n      or\n      dup6\n      sstore\n      jump(tag_38)\n    tag_40:\n      dup3\n      dup1\n      add\n      0x01\n      add\n      dup6\n      sstore\n      dup3\n      iszero\n      tag_38\n      jumpi\n      swap2\n      dup3\n      add\n    tag_41:\n      dup3\n      dup2\n      gt\n      iszero\n      tag_42\n      jumpi\n      dup3\n      mload\n      dup3\n      sstore\n      swap2\n      0x20\n      add\n      swap2\n      swap1\n      0x01\n      add\n      swap1\n      jump(tag_41)\n    tag_42:\n    tag_38:\n      pop\n      swap1\n      pop\n      tag_43\n      swap2\n      swap1\n      tag_44\n      jump\t// in\n    tag_43:\n      pop\n      swap1\n      jump\t// out\n    tag_44:\n    tag_45:\n      dup1\n      dup3\n      gt\n      iszero\n      tag_46\n      jumpi\n      0x00\n      dup2\n      0x00\n      swap1\n      sstore\n      pop\n      0x01\n      add\n      jump(tag_45)\n    tag_46:\n      pop\n      swap1\n      jump\t// out\n        /* \"#utility.yul\":7:352   */\n    tag_48:\n        /* \"#utility.yul\":85:90   */\n      0x00\n        /* \"#utility.yul\":110:176   */\n      tag_50\n        /* \"#utility.yul\":126:175   */\n      tag_51\n        /* \"#utility.yul\":168:174   */\n      dup5\n        /* \"#utility.yul\":126:175   */\n      tag_52\n      jump\t// in\n    tag_51:\n        /* \"#utility.yul\":110:176   */\n      tag_53\n      jump\t// in\n    tag_50:\n        /* \"#utility.yul\":101:176   */\n      swap1\n      pop\n        /* \"#utility.yul\":199:205   */\n      dup3\n        /* \"#utility.yul\":192:197   */\n      dup2\n        /* \"#utility.yul\":185:206   */\n      mstore\n        /* \"#utility.yul\":237:241   */\n      0x20\n        /* \"#utility.yul\":230:235   */\n      dup2\n        /* \"#utility.yul\":226:242   */\n      add\n        /* \"#utility.yul\":275:278   */\n      dup5\n        /* \"#utility.yul\":266:272   */\n      dup5\n        /* \"#utility.yul\":261:264   */\n      dup5\n        /* \"#utility.yul\":257:273   */\n      add\n        /* \"#utility.yul\":254:279   */\n      gt\n        /* \"#utility.yul\":251:253   */\n      iszero\n      tag_54\n      jumpi\n        /* \"#utility.yul\":292:293   */\n      0x00\n        /* \"#utility.yul\":289:290   */\n      dup1\n        /* \"#utility.yul\":282:294   */\n      revert\n        /* \"#utility.yul\":251:253   */\n    tag_54:\n        /* \"#utility.yul\":305:346   */\n      tag_55\n        /* \"#utility.yul\":339:345   */\n      dup5\n        /* \"#utility.yul\":334:337   */\n      dup3\n        /* \"#utility.yul\":329:332   */\n      dup6\n        /* \"#utility.yul\":305:346   */\n      tag_56\n      jump\t// in\n    tag_55:\n        /* \"#utility.yul\":91:352   */\n      pop\n      swap4\n      swap3\n      pop\n      pop\n      pop\n      jump\t// out\n        /* \"#utility.yul\":372:645   */\n    tag_57:\n        /* \"#utility.yul\":428:433   */\n      0x00\n        /* \"#utility.yul\":477:480   */\n      dup3\n        /* \"#utility.yul\":470:474   */\n      0x1f\n        /* \"#utility.yul\":462:468   */\n      dup4\n        /* \"#utility.yul\":458:475   */\n      add\n        /* \"#utility.yul\":454:481   */\n      slt\n        /* \"#utility.yul\":444:446   */\n      tag_59\n      jumpi\n        /* \"#utility.yul\":495:496   */\n      0x00\n        /* \"#utility.yul\":492:493   */\n      dup1\n        /* \"#utility.yul\":485:497   */\n      revert\n        /* \"#utility.yul\":444:446   */\n    tag_59:\n        /* \"#utility.yul\":535:541   */\n      dup2\n        /* \"#utility.yul\":522:542   */\n      calldataload\n        /* \"#utility.yul\":560:639   */\n      tag_60\n        /* \"#utility.yul\":635:638   */\n      dup5\n        /* \"#utility.yul\":627:633   */\n      dup3\n        /* \"#utility.yul\":620:624   */\n      0x20\n        /* \"#utility.yul\":612:618   */\n      dup7\n        /* \"#utility.yul\":608:625   */\n      add\n        /* \"#utility.yul\":560:639   */\n      tag_48\n      jump\t// in\n    tag_60:\n        /* \"#utility.yul\":551:639   */\n      swap2\n      pop\n        /* \"#utility.yul\":434:645   */\n      pop\n      swap3\n      swap2\n      pop\n      pop\n      jump\t// out\n        /* \"#utility.yul\":651:790   */\n    tag_61:\n        /* \"#utility.yul\":697:702   */\n      0x00\n        /* \"#utility.yul\":735:741   */\n      dup2\n        /* \"#utility.yul\":722:742   */\n      calldataload\n        /* \"#utility.yul\":713:742   */\n      swap1\n      pop\n        /* \"#utility.yul\":751:784   */\n      tag_63\n        /* \"#utility.yul\":778:783   */\n      dup2\n        /* \"#utility.yul\":751:784   */\n      tag_64\n      jump\t// in\n    tag_63:\n        /* \"#utility.yul\":703:790   */\n      swap3\n      swap2\n      pop\n      pop\n      jump\t// out\n        /* \"#utility.yul\":796:1316   */\n    tag_16:\n        /* \"#utility.yul\":874:880   */\n      0x00\n        /* \"#utility.yul\":882:888   */\n      dup1\n        /* \"#utility.yul\":931:933   */\n      0x40\n        /* \"#utility.yul\":919:928   */\n      dup4\n        /* \"#utility.yul\":910:917   */\n      dup6\n        /* \"#utility.yul\":906:929   */\n      sub\n        /* \"#utility.yul\":902:934   */\n      slt\n        /* \"#utility.yul\":899:901   */\n      iszero\n      tag_66\n      jumpi\n        /* \"#utility.yul\":947:948   */\n      0x00\n        /* \"#utility.yul\":944:945   */\n      dup1\n        /* \"#utility.yul\":937:949   */\n      revert\n        /* \"#utility.yul\":899:901   */\n    tag_66:\n        /* \"#utility.yul\":1018:1019   */\n      0x00\n        /* \"#utility.yul\":1007:1016   */\n      dup4\n        /* \"#utility.yul\":1003:1020   */\n      add\n        /* \"#utility.yul\":990:1021   */\n      calldataload\n        /* \"#utility.yul\":1048:1066   */\n      0xffffffffffffffff\n        /* \"#utility.yul\":1040:1046   */\n      dup2\n        /* \"#utility.yul\":1037:1067   */\n      gt\n        /* \"#utility.yul\":1034:1036   */\n      iszero\n      tag_67\n      jumpi\n        /* \"#utility.yul\":1080:1081   */\n      0x00\n        /* \"#utility.yul\":1077:1078   */\n      dup1\n        /* \"#utility.yul\":1070:1082   */\n      revert\n        /* \"#utility.yul\":1034:1036   */\n    tag_67:\n        /* \"#utility.yul\":1108:1171   */\n      tag_68\n        /* \"#utility.yul\":1163:1170   */\n      dup6\n        /* \"#utility.yul\":1154:1160   */\n      dup3\n        /* \"#utility.yul\":1143:1152   */\n      dup7\n        /* \"#utility.yul\":1139:1161   */\n      add\n        /* \"#utility.yul\":1108:1171   */\n      tag_57\n      jump\t// in\n    tag_68:\n        /* \"#utility.yul\":1098:1171   */\n      swap3\n      pop\n        /* \"#utility.yul\":961:1181   */\n      pop\n        /* \"#utility.yul\":1220:1222   */\n      0x20\n        /* \"#utility.yul\":1246:1299   */\n      tag_69\n        /* \"#utility.yul\":1291:1298   */\n      dup6\n        /* \"#utility.yul\":1282:1288   */\n      dup3\n        /* \"#utility.yul\":1271:1280   */\n      dup7\n        /* \"#utility.yul\":1267:1289   */\n      add\n        /* \"#utility.yul\":1246:1299   */\n      tag_61\n      jump\t// in\n    tag_69:\n        /* \"#utility.yul\":1236:1299   */\n      swap2\n      pop\n        /* \"#utility.yul\":1191:1309   */\n      pop\n        /* \"#utility.yul\":889:1316   */\n      swap3\n      pop\n      swap3\n      swap1\n      pop\n      jump\t// out\n        /* \"#utility.yul\":1322:1440   */\n    tag_70:\n        /* \"#utility.yul\":1409:1433   */\n      tag_72\n        /* \"#utility.yul\":1427:1432   */\n      dup2\n        /* \"#utility.yul\":1409:1433   */\n      tag_73\n      jump\t// in\n    tag_72:\n        /* \"#utility.yul\":1404:1407   */\n      dup3\n        /* \"#utility.yul\":1397:1434   */\n      mstore\n        /* \"#utility.yul\":1387:1440   */\n      pop\n      pop\n      jump\t// out\n        /* \"#utility.yul\":1446:1810   */\n    tag_74:\n        /* \"#utility.yul\":1534:1537   */\n      0x00\n        /* \"#utility.yul\":1562:1601   */\n      tag_76\n        /* \"#utility.yul\":1595:1600   */\n      dup3\n        /* \"#utility.yul\":1562:1601   */\n      tag_77\n      jump\t// in\n    tag_76:\n        /* \"#utility.yul\":1617:1688   */\n      tag_78\n        /* \"#utility.yul\":1681:1687   */\n      dup2\n        /* \"#utility.yul\":1676:1679   */\n      dup6\n        /* \"#utility.yul\":1617:1688   */\n      tag_79\n      jump\t// in\n    tag_78:\n        /* \"#utility.yul\":1610:1688   */\n      swap4\n      pop\n        /* \"#utility.yul\":1697:1749   */\n      tag_80\n        /* \"#utility.yul\":1742:1748   */\n      dup2\n        /* \"#utility.yul\":1737:1740   */\n      dup6\n        /* \"#utility.yul\":1730:1734   */\n      0x20\n        /* \"#utility.yul\":1723:1728   */\n      dup7\n        /* \"#utility.yul\":1719:1735   */\n      add\n        /* \"#utility.yul\":1697:1749   */\n      tag_81\n      jump\t// in\n    tag_80:\n        /* \"#utility.yul\":1774:1803   */\n      tag_82\n        /* \"#utility.yul\":1796:1802   */\n      dup2\n        /* \"#utility.yul\":1774:1803   */\n      tag_83\n      jump\t// in\n    tag_82:\n        /* \"#utility.yul\":1769:1772   */\n      dup5\n        /* \"#utility.yul\":1765:1804   */\n      add\n        /* \"#utility.yul\":1758:1804   */\n      swap2\n      pop\n        /* \"#utility.yul\":1538:1810   */\n      pop\n      swap3\n      swap2\n      pop\n      pop\n      jump\t// out\n        /* \"#utility.yul\":1816:2182   */\n    tag_84:\n        /* \"#utility.yul\":1958:1961   */\n      0x00\n        /* \"#utility.yul\":1979:2046   */\n      tag_86\n        /* \"#utility.yul\":2043:2045   */\n      0x13\n        /* \"#utility.yul\":2038:2041   */\n      dup4\n        /* \"#utility.yul\":1979:2046   */\n      tag_79\n      jump\t// in\n    tag_86:\n        /* \"#utility.yul\":1972:2046   */\n      swap2\n      pop\n        /* \"#utility.yul\":2055:2148   */\n      tag_87\n        /* \"#utility.yul\":2144:2147   */\n      dup3\n        /* \"#utility.yul\":2055:2148   */\n      tag_88\n      jump\t// in\n    tag_87:\n        /* \"#utility.yul\":2173:2175   */\n      0x20\n        /* \"#utility.yul\":2168:2171   */\n      dup3\n        /* \"#utility.yul\":2164:2176   */\n      add\n        /* \"#utility.yul\":2157:2176   */\n      swap1\n      pop\n        /* \"#utility.yul\":1962:2182   */\n      swap2\n      swap1\n      pop\n      jump\t// out\n        /* \"#utility.yul\":2188:2552   */\n    tag_89:\n        /* \"#utility.yul\":2330:2333   */\n      0x00\n        /* \"#utility.yul\":2351:2417   */\n      tag_91\n        /* \"#utility.yul\":2415:2416   */\n      0x00\n        /* \"#utility.yul\":2410:2413   */\n      dup4\n        /* \"#utility.yul\":2351:2417   */\n      tag_79\n      jump\t// in\n    tag_91:\n        /* \"#utility.yul\":2344:2417   */\n      swap2\n      pop\n        /* \"#utility.yul\":2426:2519   */\n      tag_92\n        /* \"#utility.yul\":2515:2518   */\n      dup3\n        /* \"#utility.yul\":2426:2519   */\n      tag_93\n      jump\t// in\n    tag_92:\n        /* \"#utility.yul\":2544:2545   */\n      0x00\n        /* \"#utility.yul\":2539:2542   */\n      dup3\n        /* \"#utility.yul\":2535:2546   */\n      add\n        /* \"#utility.yul\":2528:2546   */\n      swap1\n      pop\n        /* \"#utility.yul\":2334:2552   */\n      swap2\n      swap1\n      pop\n      jump\t// out\n        /* \"#utility.yul\":2558:2676   */\n    tag_94:\n        /* \"#utility.yul\":2645:2669   */\n      tag_96\n        /* \"#utility.yul\":2663:2668   */\n      dup2\n        /* \"#utility.yul\":2645:2669   */\n      tag_97\n      jump\t// in\n    tag_96:\n        /* \"#utility.yul\":2640:2643   */\n      dup3\n        /* \"#utility.yul\":2633:2670   */\n      mstore\n        /* \"#utility.yul\":2623:2676   */\n      pop\n      pop\n      jump\t// out\n        /* \"#utility.yul\":2682:3321   */\n    tag_13:\n        /* \"#utility.yul\":2904:2908   */\n      0x00\n        /* \"#utility.yul\":2942:2944   */\n      0x60\n        /* \"#utility.yul\":2931:2940   */\n      dup3\n        /* \"#utility.yul\":2927:2945   */\n      add\n        /* \"#utility.yul\":2919:2945   */\n      swap1\n      pop\n        /* \"#utility.yul\":2955:3026   */\n      tag_99\n        /* \"#utility.yul\":3023:3024   */\n      0x00\n        /* \"#utility.yul\":3012:3021   */\n      dup4\n        /* \"#utility.yul\":3008:3025   */\n      add\n        /* \"#utility.yul\":2999:3005   */\n      dup6\n        /* \"#utility.yul\":2955:3026   */\n      tag_70\n      jump\t// in\n    tag_99:\n        /* \"#utility.yul\":3036:3108   */\n      tag_100\n        /* \"#utility.yul\":3104:3106   */\n      0x20\n        /* \"#utility.yul\":3093:3102   */\n      dup4\n        /* \"#utility.yul\":3089:3107   */\n      add\n        /* \"#utility.yul\":3080:3086   */\n      dup5\n        /* \"#utility.yul\":3036:3108   */\n      tag_94\n      jump\t// in\n    tag_100:\n        /* \"#utility.yul\":3155:3164   */\n      dup2\n        /* \"#utility.yul\":3149:3153   */\n      dup2\n        /* \"#utility.yul\":3145:3165   */\n      sub\n        /* \"#utility.yul\":3140:3142   */\n      0x40\n        /* \"#utility.yul\":3129:3138   */\n      dup4\n        /* \"#utility.yul\":3125:3143   */\n      add\n        /* \"#utility.yul\":3118:3166   */\n      mstore\n        /* \"#utility.yul\":3183:3314   */\n      tag_101\n        /* \"#utility.yul\":3309:3313   */\n      dup2\n        /* \"#utility.yul\":3183:3314   */\n      tag_84\n      jump\t// in\n    tag_101:\n        /* \"#utility.yul\":3175:3314   */\n      swap1\n      pop\n        /* \"#utility.yul\":2909:3321   */\n      swap4\n      swap3\n      pop\n      pop\n      pop\n      jump\t// out\n        /* \"#utility.yul\":3327:3966   */\n    tag_9:\n        /* \"#utility.yul\":3549:3553   */\n      0x00\n        /* \"#utility.yul\":3587:3589   */\n      0x60\n        /* \"#utility.yul\":3576:3585   */\n      dup3\n        /* \"#utility.yul\":3572:3590   */\n      add\n        /* \"#utility.yul\":3564:3590   */\n      swap1\n      pop\n        /* \"#utility.yul\":3600:3671   */\n      tag_103\n        /* \"#utility.yul\":3668:3669   */\n      0x00\n        /* \"#utility.yul\":3657:3666   */\n      dup4\n        /* \"#utility.yul\":3653:3670   */\n      add\n        /* \"#utility.yul\":3644:3650   */\n      dup6\n        /* \"#utility.yul\":3600:3671   */\n      tag_70\n      jump\t// in\n    tag_103:\n        /* \"#utility.yul\":3681:3753   */\n      tag_104\n        /* \"#utility.yul\":3749:3751   */\n      0x20\n        /* \"#utility.yul\":3738:3747   */\n      dup4\n        /* \"#utility.yul\":3734:3752   */\n      add\n        /* \"#utility.yul\":3725:3731   */\n      dup5\n        /* \"#utility.yul\":3681:3753   */\n      tag_94\n      jump\t// in\n    tag_104:\n        /* \"#utility.yul\":3800:3809   */\n      dup2\n        /* \"#utility.yul\":3794:3798   */\n      dup2\n        /* \"#utility.yul\":3790:3810   */\n      sub\n        /* \"#utility.yul\":3785:3787   */\n      0x40\n        /* \"#utility.yul\":3774:3783   */\n      dup4\n        /* \"#utility.yul\":3770:3788   */\n      add\n        /* \"#utility.yul\":3763:3811   */\n      mstore\n        /* \"#utility.yul\":3828:3959   */\n      tag_105\n        /* \"#utility.yul\":3954:3958   */\n      dup2\n        /* \"#utility.yul\":3828:3959   */\n      tag_89\n      jump\t// in\n    tag_105:\n        /* \"#utility.yul\":3820:3959   */\n      swap1\n      pop\n        /* \"#utility.yul\":3554:3966   */\n      swap4\n      swap3\n      pop\n      pop\n      pop\n      jump\t// out\n        /* \"#utility.yul\":3972:4285   */\n    tag_27:\n        /* \"#utility.yul\":4085:4089   */\n      0x00\n        /* \"#utility.yul\":4123:4125   */\n      0x20\n        /* \"#utility.yul\":4112:4121   */\n      dup3\n        /* \"#utility.yul\":4108:4126   */\n      add\n        /* \"#utility.yul\":4100:4126   */\n      swap1\n      pop\n        /* \"#utility.yul\":4172:4181   */\n      dup2\n        /* \"#utility.yul\":4166:4170   */\n      dup2\n        /* \"#utility.yul\":4162:4182   */\n      sub\n        /* \"#utility.yul\":4158:4159   */\n      0x00\n        /* \"#utility.yul\":4147:4156   */\n      dup4\n        /* \"#utility.yul\":4143:4160   */\n      add\n        /* \"#utility.yul\":4136:4183   */\n      mstore\n        /* \"#utility.yul\":4200:4278   */\n      tag_107\n        /* \"#utility.yul\":4273:4277   */\n      dup2\n        /* \"#utility.yul\":4264:4270   */\n      dup5\n        /* \"#utility.yul\":4200:4278   */\n      tag_74\n      jump\t// in\n    tag_107:\n        /* \"#utility.yul\":4192:4278   */\n      swap1\n      pop\n        /* \"#utility.yul\":4090:4285   */\n      swap3\n      swap2\n      pop\n      pop\n      jump\t// out\n        /* \"#utility.yul\":4291:4513   */\n    tag_22:\n        /* \"#utility.yul\":4384:4388   */\n      0x00\n        /* \"#utility.yul\":4422:4424   */\n      0x20\n        /* \"#utility.yul\":4411:4420   */\n      dup3\n        /* \"#utility.yul\":4407:4425   */\n      add\n        /* \"#utility.yul\":4399:4425   */\n      swap1\n      pop\n        /* \"#utility.yul\":4435:4506   */\n      tag_109\n        /* \"#utility.yul\":4503:4504   */\n      0x00\n        /* \"#utility.yul\":4492:4501   */\n      dup4\n        /* \"#utility.yul\":4488:4505   */\n      add\n        /* \"#utility.yul\":4479:4485   */\n      dup5\n        /* \"#utility.yul\":4435:4506   */\n      tag_94\n      jump\t// in\n    tag_109:\n        /* \"#utility.yul\":4389:4513   */\n      swap3\n      swap2\n      pop\n      pop\n      jump\t// out\n        /* \"#utility.yul\":4519:4648   */\n    tag_53:\n        /* \"#utility.yul\":4553:4559   */\n      0x00\n        /* \"#utility.yul\":4580:4600   */\n      tag_111\n      tag_112\n      jump\t// in\n    tag_111:\n        /* \"#utility.yul\":4570:4600   */\n      swap1\n      pop\n        /* \"#utility.yul\":4609:4642   */\n      tag_113\n        /* \"#utility.yul\":4637:4641   */\n      dup3\n        /* \"#utility.yul\":4629:4635   */\n      dup3\n        /* \"#utility.yul\":4609:4642   */\n      tag_114\n      jump\t// in\n    tag_113:\n        /* \"#utility.yul\":4560:4648   */\n      swap2\n      swap1\n      pop\n      jump\t// out\n        /* \"#utility.yul\":4654:4729   */\n    tag_112:\n        /* \"#utility.yul\":4687:4693   */\n      0x00\n        /* \"#utility.yul\":4720:4722   */\n      0x40\n        /* \"#utility.yul\":4714:4723   */\n      mload\n        /* \"#utility.yul\":4704:4723   */\n      swap1\n      pop\n        /* \"#utility.yul\":4694:4729   */\n      swap1\n      jump\t// out\n        /* \"#utility.yul\":4735:5043   */\n    tag_52:\n        /* \"#utility.yul\":4797:4801   */\n      0x00\n        /* \"#utility.yul\":4887:4905   */\n      0xffffffffffffffff\n        /* \"#utility.yul\":4879:4885   */\n      dup3\n        /* \"#utility.yul\":4876:4906   */\n      gt\n        /* \"#utility.yul\":4873:4875   */\n      iszero\n      tag_117\n      jumpi\n        /* \"#utility.yul\":4909:4927   */\n      tag_118\n      tag_119\n      jump\t// in\n    tag_118:\n        /* \"#utility.yul\":4873:4875   */\n    tag_117:\n        /* \"#utility.yul\":4947:4976   */\n      tag_120\n        /* \"#utility.yul\":4969:4975   */\n      dup3\n        /* \"#utility.yul\":4947:4976   */\n      tag_83\n      jump\t// in\n    tag_120:\n        /* \"#utility.yul\":4939:4976   */\n      swap1\n      pop\n        /* \"#utility.yul\":5031:5035   */\n      0x20\n        /* \"#utility.yul\":5025:5029   */\n      dup2\n        /* \"#utility.yul\":5021:5036   */\n      add\n        /* \"#utility.yul\":5013:5036   */\n      swap1\n      pop\n        /* \"#utility.yul\":4802:5043   */\n      swap2\n      swap1\n      pop\n      jump\t// out\n        /* \"#utility.yul\":5049:5148   */\n    tag_77:\n        /* \"#utility.yul\":5101:5107   */\n      0x00\n        /* \"#utility.yul\":5135:5140   */\n      dup2\n        /* \"#utility.yul\":5129:5141   */\n      mload\n        /* \"#utility.yul\":5119:5141   */\n      swap1\n      pop\n        /* \"#utility.yul\":5108:5148   */\n      swap2\n      swap1\n      pop\n      jump\t// out\n        /* \"#utility.yul\":5154:5323   */\n    tag_79:\n        /* \"#utility.yul\":5238:5249   */\n      0x00\n        /* \"#utility.yul\":5272:5278   */\n      dup3\n        /* \"#utility.yul\":5267:5270   */\n      dup3\n        /* \"#utility.yul\":5260:5279   */\n      mstore\n        /* \"#utility.yul\":5312:5316   */\n      0x20\n        /* \"#utility.yul\":5307:5310   */\n      dup3\n        /* \"#utility.yul\":5303:5317   */\n      add\n        /* \"#utility.yul\":5288:5317   */\n      swap1\n      pop\n        /* \"#utility.yul\":5250:5323   */\n      swap3\n      swap2\n      pop\n      pop\n      jump\t// out\n        /* \"#utility.yul\":5329:5425   */\n    tag_73:\n        /* \"#utility.yul\":5366:5373   */\n      0x00\n        /* \"#utility.yul\":5395:5419   */\n      tag_124\n        /* \"#utility.yul\":5413:5418   */\n      dup3\n        /* \"#utility.yul\":5395:5419   */\n      tag_125\n      jump\t// in\n    tag_124:\n        /* \"#utility.yul\":5384:5419   */\n      swap1\n      pop\n        /* \"#utility.yul\":5374:5425   */\n      swap2\n      swap1\n      pop\n      jump\t// out\n        /* \"#utility.yul\":5431:5557   */\n    tag_125:\n        /* \"#utility.yul\":5468:5475   */\n      0x00\n        /* \"#utility.yul\":5508:5550   */\n      0xffffffffffffffffffffffffffffffffffffffff\n        /* \"#utility.yul\":5501:5506   */\n      dup3\n        /* \"#utility.yul\":5497:5551   */\n      and\n        /* \"#utility.yul\":5486:5551   */\n      swap1\n      pop\n        /* \"#utility.yul\":5476:5557   */\n      swap2\n      swap1\n      pop\n      jump\t// out\n        /* \"#utility.yul\":5563:5640   */\n    tag_97:\n        /* \"#utility.yul\":5600:5607   */\n      0x00\n        /* \"#utility.yul\":5629:5634   */\n      dup2\n        /* \"#utility.yul\":5618:5634   */\n      swap1\n      pop\n        /* \"#utility.yul\":5608:5640   */\n      swap2\n      swap1\n      pop\n      jump\t// out\n        /* \"#utility.yul\":5646:5800   */\n    tag_56:\n        /* \"#utility.yul\":5730:5736   */\n      dup3\n        /* \"#utility.yul\":5725:5728   */\n      dup2\n        /* \"#utility.yul\":5720:5723   */\n      dup4\n        /* \"#utility.yul\":5707:5737   */\n      calldatacopy\n        /* \"#utility.yul\":5792:5793   */\n      0x00\n        /* \"#utility.yul\":5783:5789   */\n      dup4\n        /* \"#utility.yul\":5778:5781   */\n      dup4\n        /* \"#utility.yul\":5774:5790   */\n      add\n        /* \"#utility.yul\":5767:5794   */\n      mstore\n        /* \"#utility.yul\":5697:5800   */\n      pop\n      pop\n      pop\n      jump\t// out\n        /* \"#utility.yul\":5806:6113   */\n    tag_81:\n        /* \"#utility.yul\":5874:5875   */\n      0x00\n        /* \"#utility.yul\":5884:5997   */\n    tag_130:\n        /* \"#utility.yul\":5898:5904   */\n      dup4\n        /* \"#utility.yul\":5895:5896   */\n      dup2\n        /* \"#utility.yul\":5892:5905   */\n      lt\n        /* \"#utility.yul\":5884:5997   */\n      iszero\n      tag_132\n      jumpi\n        /* \"#utility.yul\":5983:5984   */\n      dup1\n        /* \"#utility.yul\":5978:5981   */\n      dup3\n        /* \"#utility.yul\":5974:5985   */\n      add\n        /* \"#utility.yul\":5968:5986   */\n      mload\n        /* \"#utility.yul\":5964:5965   */\n      dup2\n        /* \"#utility.yul\":5959:5962   */\n      dup5\n        /* \"#utility.yul\":5955:5966   */\n      add\n        /* \"#utility.yul\":5948:5987   */\n      mstore\n        /* \"#utility.yul\":5920:5922   */\n      0x20\n        /* \"#utility.yul\":5917:5918   */\n      dup2\n        /* \"#utility.yul\":5913:5923   */\n      add\n        /* \"#utility.yul\":5908:5923   */\n      swap1\n      pop\n        /* \"#utility.yul\":5884:5997   */\n      jump(tag_130)\n    tag_132:\n        /* \"#utility.yul\":6015:6021   */\n      dup4\n        /* \"#utility.yul\":6012:6013   */\n      dup2\n        /* \"#utility.yul\":6009:6022   */\n      gt\n        /* \"#utility.yul\":6006:6008   */\n      iszero\n      tag_133\n      jumpi\n        /* \"#utility.yul\":6095:6096   */\n      0x00\n        /* \"#utility.yul\":6086:6092   */\n      dup5\n        /* \"#utility.yul\":6081:6084   */\n      dup5\n        /* \"#utility.yul\":6077:6093   */\n      add\n        /* \"#utility.yul\":6070:6097   */\n      mstore\n        /* \"#utility.yul\":6006:6008   */\n    tag_133:\n        /* \"#utility.yul\":5855:6113   */\n      pop\n      pop\n      pop\n      pop\n      jump\t// out\n        /* \"#utility.yul\":6119:6439   */\n    tag_32:\n        /* \"#utility.yul\":6163:6169   */\n      0x00\n        /* \"#utility.yul\":6200:6201   */\n      0x02\n        /* \"#utility.yul\":6194:6198   */\n      dup3\n        /* \"#utility.yul\":6190:6202   */\n      div\n        /* \"#utility.yul\":6180:6202   */\n      swap1\n      pop\n        /* \"#utility.yul\":6247:6248   */\n      0x01\n        /* \"#utility.yul\":6241:6245   */\n      dup3\n        /* \"#utility.yul\":6237:6249   */\n      and\n        /* \"#utility.yul\":6268:6286   */\n      dup1\n        /* \"#utility.yul\":6258:6260   */\n      tag_135\n      jumpi\n        /* \"#utility.yul\":6324:6328   */\n      0x7f\n        /* \"#utility.yul\":6316:6322   */\n      dup3\n        /* \"#utility.yul\":6312:6329   */\n      and\n        /* \"#utility.yul\":6302:6329   */\n      swap2\n      pop\n        /* \"#utility.yul\":6258:6260   */\n    tag_135:\n        /* \"#utility.yul\":6386:6388   */\n      0x20\n        /* \"#utility.yul\":6378:6384   */\n      dup3\n        /* \"#utility.yul\":6375:6389   */\n      lt\n        /* \"#utility.yul\":6355:6373   */\n      dup2\n        /* \"#utility.yul\":6352:6390   */\n      eq\n        /* \"#utility.yul\":6349:6351   */\n      iszero\n      tag_136\n      jumpi\n        /* \"#utility.yul\":6405:6423   */\n      tag_137\n      tag_138\n      jump\t// in\n    tag_137:\n        /* \"#utility.yul\":6349:6351   */\n    tag_136:\n        /* \"#utility.yul\":6170:6439   */\n      pop\n      swap2\n      swap1\n      pop\n      jump\t// out\n        /* \"#utility.yul\":6445:6726   */\n    tag_114:\n        /* \"#utility.yul\":6528:6555   */\n      tag_140\n        /* \"#utility.yul\":6550:6554   */\n      dup3\n        /* \"#utility.yul\":6528:6555   */\n      tag_83\n      jump\t// in\n    tag_140:\n        /* \"#utility.yul\":6520:6526   */\n      dup2\n        /* \"#utility.yul\":6516:6556   */\n      add\n        /* \"#utility.yul\":6658:6664   */\n      dup2\n        /* \"#utility.yul\":6646:6656   */\n      dup2\n        /* \"#utility.yul\":6643:6665   */\n      lt\n        /* \"#utility.yul\":6622:6640   */\n      0xffffffffffffffff\n        /* \"#utility.yul\":6610:6620   */\n      dup3\n        /* \"#utility.yul\":6607:6641   */\n      gt\n        /* \"#utility.yul\":6604:6666   */\n      or\n        /* \"#utility.yul\":6601:6603   */\n      iszero\n      tag_141\n      jumpi\n        /* \"#utility.yul\":6669:6687   */\n      tag_142\n      tag_119\n      jump\t// in\n    tag_142:\n        /* \"#utility.yul\":6601:6603   */\n    tag_141:\n        /* \"#utility.yul\":6709:6719   */\n      dup1\n        /* \"#utility.yul\":6705:6707   */\n      0x40\n        /* \"#utility.yul\":6698:6720   */\n      mstore\n        /* \"#utility.yul\":6488:6726   */\n      pop\n      pop\n      pop\n      jump\t// out\n        /* \"#utility.yul\":6732:6912   */\n    tag_138:\n        /* \"#utility.yul\":6780:6857   */\n      0x4e487b7100000000000000000000000000000000000000000000000000000000\n        /* \"#utility.yul\":6777:6778   */\n      0x00\n        /* \"#utility.yul\":6770:6858   */\n      mstore\n        /* \"#utility.yul\":6877:6881   */\n      0x22\n        /* \"#utility.yul\":6874:6875   */\n      0x04\n        /* \"#utility.yul\":6867:6882   */\n      mstore\n        /* \"#utility.yul\":6901:6905   */\n      0x24\n        /* \"#utility.yul\":6898:6899   */\n      0x00\n        /* \"#utility.yul\":6891:6906   */\n      revert\n        /* \"#utility.yul\":6918:7098   */\n    tag_119:\n        /* \"#utility.yul\":6966:7043   */\n      0x4e487b7100000000000000000000000000000000000000000000000000000000\n        /* \"#utility.yul\":6963:6964   */\n      0x00\n        /* \"#utility.yul\":6956:7044   */\n      mstore\n        /* \"#utility.yul\":7063:7067   */\n      0x41\n        /* \"#utility.yul\":7060:7061   */\n      0x04\n        /* \"#utility.yul\":7053:7068   */\n      mstore\n        /* \"#utility.yul\":7087:7091   */\n      0x24\n        /* \"#utility.yul\":7084:7085   */\n      0x00\n        /* \"#utility.yul\":7077:7092   */\n      revert\n        /* \"#utility.yul\":7104:7206   */\n    tag_83:\n        /* \"#utility.yul\":7145:7151   */\n      0x00\n        /* \"#utility.yul\":7196:7198   */\n      0x1f\n        /* \"#utility.yul\":7192:7199   */\n      not\n        /* \"#utility.yul\":7187:7189   */\n      0x1f\n        /* \"#utility.yul\":7180:7185   */\n      dup4\n        /* \"#utility.yul\":7176:7190   */\n      add\n        /* \"#utility.yul\":7172:7200   */\n      and\n        /* \"#utility.yul\":7162:7200   */\n      swap1\n      pop\n        /* \"#utility.yul\":7152:7206   */\n      swap2\n      swap1\n      pop\n      jump\t// out\n        /* \"#utility.yul\":7212:7381   */\n    tag_88:\n        /* \"#utility.yul\":7352:7373   */\n      0x46616c6c6261636b207761732063616c6c656400000000000000000000000000\n        /* \"#utility.yul\":7348:7349   */\n      0x00\n        /* \"#utility.yul\":7340:7346   */\n      dup3\n        /* \"#utility.yul\":7336:7350   */\n      add\n        /* \"#utility.yul\":7329:7374   */\n      mstore\n        /* \"#utility.yul\":7318:7381   */\n      pop\n      jump\t// out\n        /* \"#utility.yul\":7387:7501   */\n    tag_93:\n        /* \"#utility.yul\":7493:7501   */\n      pop\n      jump\t// out\n        /* \"#utility.yul\":7507:7629   */\n    tag_64:\n        /* \"#utility.yul\":7580:7604   */\n      tag_149\n        /* \"#utility.yul\":7598:7603   */\n      dup2\n        /* \"#utility.yul\":7580:7604   */\n      tag_97\n      jump\t// in\n    tag_149:\n        /* \"#utility.yul\":7573:7578   */\n      dup2\n        /* \"#utility.yul\":7570:7605   */\n      eq\n        /* \"#utility.yul\":7560:7562   */\n      tag_150\n      jumpi\n        /* \"#utility.yul\":7619:7620   */\n      0x00\n        /* \"#utility.yul\":7616:7617   */\n      dup1\n        /* \"#utility.yul\":7609:7621   */\n      revert\n        /* \"#utility.yul\":7560:7562   */\n    tag_150:\n        /* \"#utility.yul\":7550:7629   */\n      pop\n      jump\t// out\n\n    auxdata: 0xa2646970667358221220b2d1a4679a99231f9fdac35952e01a9a974ce8933ebd97de0b873e81a62fa4ca64736f6c63430008040033\n}\n",
				"bytecode": {
					"linkReferences": {},
					"object": "608060405234801561001057600080fd5b506106dc806100206000396000f3fe6080604052600436106100385760003560e01c806324ccab8f146100b35780638381f58a146100cf578063e21f37ce146100fa57610078565b36610078577f4e3358e5bdb38f499a83fbcd33d16343569f3b6fe53021022dede6364017b4a8333460405161006e929190610428565b60405180910390a1005b7f4e3358e5bdb38f499a83fbcd33d16343569f3b6fe53021022dede6364017b4a833346040516100a99291906103ec565b60405180910390a1005b6100cd60048036038101906100c891906102fb565b610125565b005b3480156100db57600080fd5b506100e4610147565b6040516100f19190610486565b60405180910390f35b34801561010657600080fd5b5061010f61014d565b60405161011c9190610464565b60405180910390f35b816000908051906020019061013b9291906101db565b50806001819055505050565b60015481565b6000805461015a90610591565b80601f016020809104026020016040519081016040528092919081815260200182805461018690610591565b80156101d35780601f106101a8576101008083540402835291602001916101d3565b820191906000526020600020905b8154815290600101906020018083116101b657829003601f168201915b505050505081565b8280546101e790610591565b90600052602060002090601f0160209004810192826102095760008555610250565b82601f1061022257805160ff1916838001178555610250565b82800160010185558215610250579182015b8281111561024f578251825591602001919060010190610234565b5b50905061025d9190610261565b5090565b5b8082111561027a576000816000905550600101610262565b5090565b600061029161028c846104c6565b6104a1565b9050828152602081018484840111156102a957600080fd5b6102b484828561054f565b509392505050565b600082601f8301126102cd57600080fd5b81356102dd84826020860161027e565b91505092915050565b6000813590506102f58161068f565b92915050565b6000806040838503121561030e57600080fd5b600083013567ffffffffffffffff81111561032857600080fd5b610334858286016102bc565b9250506020610345858286016102e6565b9150509250929050565b61035881610513565b82525050565b6000610369826104f7565b6103738185610502565b935061038381856020860161055e565b61038c81610652565b840191505092915050565b60006103a4601383610502565b91506103af82610663565b602082019050919050565b60006103c7600083610502565b91506103d28261068c565b600082019050919050565b6103e681610545565b82525050565b6000606082019050610401600083018561034f565b61040e60208301846103dd565b818103604083015261041f81610397565b90509392505050565b600060608201905061043d600083018561034f565b61044a60208301846103dd565b818103604083015261045b816103ba565b90509392505050565b6000602082019050818103600083015261047e818461035e565b905092915050565b600060208201905061049b60008301846103dd565b92915050565b60006104ab6104bc565b90506104b782826105c3565b919050565b6000604051905090565b600067ffffffffffffffff8211156104e1576104e0610623565b5b6104ea82610652565b9050602081019050919050565b600081519050919050565b600082825260208201905092915050565b600061051e82610525565b9050919050565b600073ffffffffffffffffffffffffffffffffffffffff82169050919050565b6000819050919050565b82818337600083830152505050565b60005b8381101561057c578082015181840152602081019050610561565b8381111561058b576000848401525b50505050565b600060028204905060018216806105a957607f821691505b602082108114156105bd576105bc6105f4565b5b50919050565b6105cc82610652565b810181811067ffffffffffffffff821117156105eb576105ea610623565b5b80604052505050565b7f4e487b7100000000000000000000000000000000000000000000000000000000600052602260045260246000fd5b7f4e487b7100000000000000000000000000000000000000000000000000000000600052604160045260246000fd5b6000601f19601f8301169050919050565b7f46616c6c6261636b207761732063616c6c656400000000000000000000000000600082015250565b50565b61069881610545565b81146106a357600080fd5b5056fea2646970667358221220b2d1a4679a99231f9fdac35952e01a9a974ce8933ebd97de0b873e81a62fa4ca64736f6c63430008040033",
					"opcodes": "PUSH1 0x80 PUSH1 0x40 MSTORE CALLVALUE DUP1 ISZERO PUSH2 0x10 JUMPI PUSH1 0x0 DUP1 REVERT JUMPDEST POP PUSH2 0x6DC DUP1 PUSH2 0x20 PUSH1 0x0 CODECOPY PUSH1 0x0 RETURN INVALID PUSH1 0x80 PUSH1 0x40 MSTORE PUSH1 0x4 CALLDATASIZE LT PUSH2 0x38 JUMPI PUSH1 0x0 CALLDATALOAD PUSH1 0xE0 SHR DUP1 PUSH4 0x24CCAB8F EQ PUSH2 0xB3 JUMPI DUP1 PUSH4 0x8381F58A EQ PUSH2 0xCF JUMPI DUP1 PUSH4 0xE21F37CE EQ PUSH2 0xFA JUMPI PUSH2 0x78 JUMP JUMPDEST CALLDATASIZE PUSH2 0x78 JUMPI PUSH32 0x4E3358E5BDB38F499A83FBCD33D16343569F3B6FE53021022DEDE6364017B4A8 CALLER CALLVALUE PUSH1 0x40 MLOAD PUSH2 0x6E SWAP3 SWAP2 SWAP1 PUSH2 0x428 JUMP JUMPDEST PUSH1 0x40 MLOAD DUP1 SWAP2 SUB SWAP1 LOG1 STOP JUMPDEST PUSH32 0x4E3358E5BDB38F499A83FBCD33D16343569F3B6FE53021022DEDE6364017B4A8 CALLER CALLVALUE PUSH1 0x40 MLOAD PUSH2 0xA9 SWAP3 SWAP2 SWAP1 PUSH2 0x3EC JUMP JUMPDEST PUSH1 0x40 MLOAD DUP1 SWAP2 SUB SWAP1 LOG1 STOP JUMPDEST PUSH2 0xCD PUSH1 0x4 DUP1 CALLDATASIZE SUB DUP2 ADD SWAP1 PUSH2 0xC8 SWAP2 SWAP1 PUSH2 0x2FB JUMP JUMPDEST PUSH2 0x125 JUMP JUMPDEST STOP JUMPDEST CALLVALUE DUP1 ISZERO PUSH2 0xDB JUMPI PUSH1 0x0 DUP1 REVERT JUMPDEST POP PUSH2 0xE4 PUSH2 0x147 JUMP JUMPDEST PUSH1 0x40 MLOAD PUSH2 0xF1 SWAP2 SWAP1 PUSH2 0x486 JUMP JUMPDEST PUSH1 0x40 MLOAD DUP1 SWAP2 SUB SWAP1 RETURN JUMPDEST CALLVALUE DUP1 ISZERO PUSH2 0x106 JUMPI PUSH1 0x0 DUP1 REVERT JUMPDEST POP PUSH2 0x10F PUSH2 0x14D JUMP JUMPDEST PUSH1 0x40 MLOAD PUSH2 0x11C SWAP2 SWAP1 PUSH2 0x464 JUMP JUMPDEST PUSH1 0x40 MLOAD DUP1 SWAP2 SUB SWAP1 RETURN JUMPDEST DUP2 PUSH1 0x0 SWAP1 DUP1 MLOAD SWAP1 PUSH1 0x20 ADD SWAP1 PUSH2 0x13B SWAP3 SWAP2 SWAP1 PUSH2 0x1DB JUMP JUMPDEST POP DUP1 PUSH1 0x1 DUP2 SWAP1 SSTORE POP POP POP JUMP JUMPDEST PUSH1 0x1 SLOAD DUP2 JUMP JUMPDEST PUSH1 0x0 DUP1 SLOAD PUSH2 0x15A SWAP1 PUSH2 0x591 JUMP JUMPDEST DUP1 PUSH1 0x1F ADD PUSH1 0x20 DUP1 SWAP2 DIV MUL PUSH1 0x20 ADD PUSH1 0x40 MLOAD SWAP1 DUP2 ADD PUSH1 0x40 MSTORE DUP1 SWAP3 SWAP2 SWAP1 DUP2 DUP2 MSTORE PUSH1 0x20 ADD DUP3 DUP1 SLOAD PUSH2 0x186 SWAP1 PUSH2 0x591 JUMP JUMPDEST DUP1 ISZERO PUSH2 0x1D3 JUMPI DUP1 PUSH1 0x1F LT PUSH2 0x1A8 JUMPI PUSH2 0x100 DUP1 DUP4 SLOAD DIV MUL DUP4 MSTORE SWAP2 PUSH1 0x20 ADD SWAP2 PUSH2 0x1D3 JUMP JUMPDEST DUP3 ADD SWAP2 SWAP1 PUSH1 0x0 MSTORE PUSH1 0x20 PUSH1 0x0 KECCAK256 SWAP1 JUMPDEST DUP2 SLOAD DUP2 MSTORE SWAP1 PUSH1 0x1 ADD SWAP1 PUSH1 0x20 ADD DUP1 DUP4 GT PUSH2 0x1B6 JUMPI DUP3 SWAP1 SUB PUSH1 0x1F AND DUP3 ADD SWAP2 JUMPDEST POP POP POP POP POP DUP2 JUMP JUMPDEST DUP3 DUP1 SLOAD PUSH2 0x1E7 SWAP1 PUSH2 0x591 JUMP JUMPDEST SWAP1 PUSH1 0x0 MSTORE PUSH1 0x20 PUSH1 0x0 KECCAK256 SWAP1 PUSH1 0x1F ADD PUSH1 0x20 SWAP1 DIV DUP2 ADD SWAP3 DUP3 PUSH2 0x209 JUMPI PUSH1 0x0 DUP6 SSTORE PUSH2 0x250 JUMP JUMPDEST DUP3 PUSH1 0x1F LT PUSH2 0x222 JUMPI DUP1 MLOAD PUSH1 0xFF NOT AND DUP4 DUP1 ADD OR DUP6 SSTORE PUSH2 0x250 JUMP JUMPDEST DUP3 DUP1 ADD PUSH1 0x1 ADD DUP6 SSTORE DUP3 ISZERO PUSH2 0x250 JUMPI SWAP2 DUP3 ADD JUMPDEST DUP3 DUP2 GT ISZERO PUSH2 0x24F JUMPI DUP3 MLOAD DUP3 SSTORE SWAP2 PUSH1 0x20 ADD SWAP2 SWAP1 PUSH1 0x1 ADD SWAP1 PUSH2 0x234 JUMP JUMPDEST JUMPDEST POP SWAP1 POP PUSH2 0x25D SWAP2 SWAP1 PUSH2 0x261 JUMP JUMPDEST POP SWAP1 JUMP JUMPDEST JUMPDEST DUP1 DUP3 GT ISZERO PUSH2 0x27A JUMPI PUSH1 0x0 DUP2 PUSH1 0x0 SWAP1 SSTORE POP PUSH1 0x1 ADD PUSH2 0x262 JUMP JUMPDEST POP SWAP1 JUMP JUMPDEST PUSH1 0x0 PUSH2 0x291 PUSH2 0x28C DUP5 PUSH2 0x4C6 JUMP JUMPDEST PUSH2 0x4A1 JUMP JUMPDEST SWAP1 POP DUP3 DUP2 MSTORE PUSH1 0x20 DUP2 ADD DUP5 DUP5 DUP5 ADD GT ISZERO PUSH2 0x2A9 JUMPI PUSH1 0x0 DUP1 REVERT JUMPDEST PUSH2 0x2B4 DUP5 DUP3 DUP6 PUSH2 0x54F JUMP JUMPDEST POP SWAP4 SWAP3 POP POP POP JUMP JUMPDEST PUSH1 0x0 DUP3 PUSH1 0x1F DUP4 ADD SLT PUSH2 0x2CD JUMPI PUSH1 0x0 DUP1 REVERT JUMPDEST DUP2 CALLDATALOAD PUSH2 0x2DD DUP5 DUP3 PUSH1 0x20 DUP7 ADD PUSH2 0x27E JUMP JUMPDEST SWAP2 POP POP SWAP3 SWAP2 POP POP JUMP JUMPDEST PUSH1 0x0 DUP2 CALLDATALOAD SWAP1 POP PUSH2 0x2F5 DUP2 PUSH2 0x68F JUMP JUMPDEST SWAP3 SWAP2 POP POP JUMP JUMPDEST PUSH1 0x0 DUP1 PUSH1 0x40 DUP4 DUP6 SUB SLT ISZERO PUSH2 0x30E JUMPI PUSH1 0x0 DUP1 REVERT JUMPDEST PUSH1 0x0 DUP4 ADD CALLDATALOAD PUSH8 0xFFFFFFFFFFFFFFFF DUP2 GT ISZERO PUSH2 0x328 JUMPI PUSH1 0x0 DUP1 REVERT JUMPDEST PUSH2 0x334 DUP6 DUP3 DUP7 ADD PUSH2 0x2BC JUMP JUMPDEST SWAP3 POP POP PUSH1 0x20 PUSH2 0x345 DUP6 DUP3 DUP7 ADD PUSH2 0x2E6 JUMP JUMPDEST SWAP2 POP POP SWAP3 POP SWAP3 SWAP1 POP JUMP JUMPDEST PUSH2 0x358 DUP2 PUSH2 0x513 JUMP JUMPDEST DUP3 MSTORE POP POP JUMP JUMPDEST PUSH1 0x0 PUSH2 0x369 DUP3 PUSH2 0x4F7 JUMP JUMPDEST PUSH2 0x373 DUP2 DUP6 PUSH2 0x502 JUMP JUMPDEST SWAP4 POP PUSH2 0x383 DUP2 DUP6 PUSH1 0x20 DUP7 ADD PUSH2 0x55E JUMP JUMPDEST PUSH2 0x38C DUP2 PUSH2 0x652 JUMP JUMPDEST DUP5 ADD SWAP2 POP POP SWAP3 SWAP2 POP POP JUMP JUMPDEST PUSH1 0x0 PUSH2 0x3A4 PUSH1 0x13 DUP4 PUSH2 0x502 JUMP JUMPDEST SWAP2 POP PUSH2 0x3AF DUP3 PUSH2 0x663 JUMP JUMPDEST PUSH1 0x20 DUP3 ADD SWAP1 POP SWAP2 SWAP1 POP JUMP JUMPDEST PUSH1 0x0 PUSH2 0x3C7 PUSH1 0x0 DUP4 PUSH2 0x502 JUMP JUMPDEST SWAP2 POP PUSH2 0x3D2 DUP3 PUSH2 0x68C JUMP JUMPDEST PUSH1 0x0 DUP3 ADD SWAP1 POP SWAP2 SWAP1 POP JUMP JUMPDEST PUSH2 0x3E6 DUP2 PUSH2 0x545 JUMP JUMPDEST DUP3 MSTORE POP POP JUMP JUMPDEST PUSH1 0x0 PUSH1 0x60 DUP3 ADD SWAP1 POP PUSH2 0x401 PUSH1 0x0 DUP4 ADD DUP6 PUSH2 0x34F JUMP JUMPDEST PUSH2 0x40E PUSH1 0x20 DUP4 ADD DUP5 PUSH2 0x3DD JUMP JUMPDEST DUP2 DUP2 SUB PUSH1 0x40 DUP4 ADD MSTORE PUSH2 0x41F DUP2 PUSH2 0x397 JUMP JUMPDEST SWAP1 POP SWAP4 SWAP3 POP POP POP JUMP JUMPDEST PUSH1 0x0 PUSH1 0x60 DUP3 ADD SWAP1 POP PUSH2 0x43D PUSH1 0x0 DUP4 ADD DUP6 PUSH2 0x34F JUMP JUMPDEST PUSH2 0x44A PUSH1 0x20 DUP4 ADD DUP5 PUSH2 0x3DD JUMP JUMPDEST DUP2 DUP2 SUB PUSH1 0x40 DUP4 ADD MSTORE PUSH2 0x45B DUP2 PUSH2 0x3BA JUMP JUMPDEST SWAP1 POP SWAP4 SWAP3 POP POP POP JUMP JUMPDEST PUSH1 0x0 PUSH1 0x20 DUP3 ADD SWAP1 POP DUP2 DUP2 SUB PUSH1 0x0 DUP4 ADD MSTORE PUSH2 0x47E DUP2 DUP5 PUSH2 0x35E JUMP JUMPDEST SWAP1 POP SWAP3 SWAP2 POP POP JUMP JUMPDEST PUSH1 0x0 PUSH1 0x20 DUP3 ADD SWAP1 POP PUSH2 0x49B PUSH1 0x0 DUP4 ADD DUP5 PUSH2 0x3DD JUMP JUMPDEST SWAP3 SWAP2 POP POP JUMP JUMPDEST PUSH1 0x0 PUSH2 0x4AB PUSH2 0x4BC JUMP JUMPDEST SWAP1 POP PUSH2 0x4B7 DUP3 DUP3 PUSH2 0x5C3 JUMP JUMPDEST SWAP2 SWAP1 POP JUMP JUMPDEST PUSH1 0x0 PUSH1 0x40 MLOAD SWAP1 POP SWAP1 JUMP JUMPDEST PUSH1 0x0 PUSH8 0xFFFFFFFFFFFFFFFF DUP3 GT ISZERO PUSH2 0x4E1 JUMPI PUSH2 0x4E0 PUSH2 0x623 JUMP JUMPDEST JUMPDEST PUSH2 0x4EA DUP3 PUSH2 0x652 JUMP JUMPDEST SWAP1 POP PUSH1 0x20 DUP2 ADD SWAP1 POP SWAP2 SWAP1 POP JUMP JUMPDEST PUSH1 0x0 DUP2 MLOAD SWAP1 POP SWAP2 SWAP1 POP JUMP JUMPDEST PUSH1 0x0 DUP3 DUP3 MSTORE PUSH1 0x20 DUP3 ADD SWAP1 POP SWAP3 SWAP2 POP POP JUMP JUMPDEST PUSH1 0x0 PUSH2 0x51E DUP3 PUSH2 0x525 JUMP JUMPDEST SWAP1 POP SWAP2 SWAP1 POP JUMP JUMPDEST PUSH1 0x0 PUSH20 0xFFFFFFFFFFFFFFFFFFFFFFFFFFFFFFFFFFFFFFFF DUP3 AND SWAP1 POP SWAP2 SWAP1 POP JUMP JUMPDEST PUSH1 0x0 DUP2 SWAP1 POP SWAP2 SWAP1 POP JUMP JUMPDEST DUP3 DUP2 DUP4 CALLDATACOPY PUSH1 0x0 DUP4 DUP4 ADD MSTORE POP POP POP JUMP JUMPDEST PUSH1 0x0 JUMPDEST DUP4 DUP2 LT ISZERO PUSH2 0x57C JUMPI DUP1 DUP3 ADD MLOAD DUP2 DUP5 ADD MSTORE PUSH1 0x20 DUP2 ADD SWAP1 POP PUSH2 0x561 JUMP JUMPDEST DUP4 DUP2 GT ISZERO PUSH2 0x58B JUMPI PUSH1 0x0 DUP5 DUP5 ADD MSTORE JUMPDEST POP POP POP POP JUMP JUMPDEST PUSH1 0x0 PUSH1 0x2 DUP3 DIV SWAP1 POP PUSH1 0x1 DUP3 AND DUP1 PUSH2 0x5A9 JUMPI PUSH1 0x7F DUP3 AND SWAP2 POP JUMPDEST PUSH1 0x20 DUP3 LT DUP2 EQ ISZERO PUSH2 0x5BD JUMPI PUSH2 0x5BC PUSH2 0x5F4 JUMP JUMPDEST JUMPDEST POP SWAP2 SWAP1 POP JUMP JUMPDEST PUSH2 0x5CC DUP3 PUSH2 0x652 JUMP JUMPDEST DUP2 ADD DUP2 DUP2 LT PUSH8 0xFFFFFFFFFFFFFFFF DUP3 GT OR ISZERO PUSH2 0x5EB JUMPI PUSH2 0x5EA PUSH2 0x623 JUMP JUMPDEST JUMPDEST DUP1 PUSH1 0x40 MSTORE POP POP POP JUMP JUMPDEST PUSH32 0x4E487B7100000000000000000000000000000000000000000000000000000000 PUSH1 0x0 MSTORE PUSH1 0x22 PUSH1 0x4 MSTORE PUSH1 0x24 PUSH1 0x0 REVERT JUMPDEST PUSH32 0x4E487B7100000000000000000000000000000000000000000000000000000000 PUSH1 0x0 MSTORE PUSH1 0x41 PUSH1 0x4 MSTORE PUSH1 0x24 PUSH1 0x0 REVERT JUMPDEST PUSH1 0x0 PUSH1 0x1F NOT PUSH1 0x1F DUP4 ADD AND SWAP1 POP SWAP2 SWAP1 POP JUMP JUMPDEST PUSH32 0x46616C6C6261636B207761732063616C6C656400000000000000000000000000 PUSH1 0x0 DUP3 ADD MSTORE POP JUMP JUMPDEST POP JUMP JUMPDEST PUSH2 0x698 DUP2 PUSH2 0x545 JUMP JUMPDEST DUP2 EQ PUSH2 0x6A3 JUMPI PUSH1 0x0 DUP1 REVERT JUMPDEST POP JUMP INVALID LOG2 PUSH5 0x6970667358 0x22 SLT KECCAK256 0xB2 0xD1 LOG4 PUSH8 0x9A99231F9FDAC359 MSTORE 0xE0 BYTE SWAP11 SWAP8 0x4C 0xE8 SWAP4 RETURNDATACOPY 0xBD SWAP8 0xDE SIGNEXTEND DUP8 RETURNDATACOPY DUP2 0xA6 0x2F LOG4 0xCA PUSH5 0x736F6C6343 STOP ADDMOD DIV STOP CALLER "
				},
				"gasEstimates": {
					"creation": {
						"codeDepositCost": "351200",
						"executionCost": "386",
						"totalCost": "351586"
					},
					"external": {
						"": "2696",
						"foo(string,uint256)": "infinite",
						"message()": "infinite",
						"number()": "1129"
					}
				},
				"methodIdentifiers": {
					"foo(string,uint256)": "24ccab8f",
					"message()": "e21f37ce",
					"number()": "8381f58a"
				}
			},
			"storageLayout": {
				"storage": [
					{
						"astId": 3,
						"contract": "contracts/base/CallTest.sol:TestContract",
						"label": "message",
						"offset": 0,
						"slot": "0",
						"type": "t_string_storage"
					},
					{
						"astId": 5,
						"contract": "contracts/base/CallTest.sol:TestContract",
						"label": "number",
						"offset": 0,
						"slot": "1",
						"type": "t_uint256"
					}
				],
				"types": {
					"t_string_storage": {
						"encoding": "bytes",
						"label": "string",
						"numberOfBytes": "32"
					},
					"t_uint256": {
						"encoding": "inplace",
						"label": "uint256",
						"numberOfBytes": "32"
					}
				}
			},
			"userdoc": {
				"kind": "user",
				"methods": {},
				"version": 1
			}
		}
	}
}