{
	"contracts/base/CallTest.sol": {
		"Caller": {
			"abi": [
				{
					"anonymous": false,
					"inputs": [
						{
							"indexed": false,
							"internalType": "address",
							"name": "caller",
							"type": "address"
						},
						{
							"indexed": false,
							"internalType": "uint256",
							"name": "amount",
							"type": "uint256"
						},
						{
							"indexed": false,
							"internalType": "string",
							"name": "message",
							"type": "string"
						}
					],
					"name": "Log",
					"type": "event"
				},
				{
					"inputs": [
						{
							"internalType": "address",
							"name": "_testContract",
							"type": "address"
						},
						{
							"internalType": "string",
							"name": "_msg",
							"type": "string"
						},
						{
							"internalType": "uint256",
							"name": "_num",
							"type": "uint256"
						}
					],
					"name": "callFoo",
					"outputs": [],
					"stateMutability": "payable",
					"type": "function"
				},
				{
					"inputs": [
						{
							"internalType": "address",
							"name": "_testContract",
							"type": "address"
						}
					],
					"name": "callNonExistentFunction",
					"outputs": [],
					"stateMutability": "nonpayable",
					"type": "function"
				},
				{
					"inputs": [],
					"name": "data",
					"outputs": [
						{
							"internalType": "bytes",
							"name": "",
							"type": "bytes"
						}
					],
					"stateMutability": "view",
					"type": "function"
				},
				{
					"stateMutability": "payable",
					"type": "receive"
				}
			],
			"devdoc": {
				"kind": "dev",
				"methods": {},
				"version": 1
			},
			"evm": {
				"assembly": "    /* \"contracts/base/CallTest.sol\":541:1338  contract Caller {\r... */\n  mstore(0x40, 0x80)\n  callvalue\n  dup1\n  iszero\n  tag_1\n  jumpi\n  0x00\n  dup1\n  revert\ntag_1:\n  pop\n  dataSize(sub_0)\n  dup1\n  dataOffset(sub_0)\n  0x00\n  codecopy\n  0x00\n  return\nstop\n\nsub_0: assembly {\n        /* \"contracts/base/CallTest.sol\":541:1338  contract Caller {\r... */\n      mstore(0x40, 0x80)\n      jumpi(tag_1, lt(calldatasize, 0x04))\n      shr(0xe0, calldataload(0x00))\n      dup1\n      0x172a57d7\n      eq\n      tag_3\n      jumpi\n      dup1\n      0x73d4a13a\n      eq\n      tag_4\n      jumpi\n      dup1\n      0xdd5f151e\n      eq\n      tag_5\n      jumpi\n      jump(tag_2)\n    tag_1:\n      jumpi(tag_2, calldatasize)\n        /* \"contracts/base/CallTest.sol\":1299:1327  Log(msg.sender,msg.value,\"\") */\n      0x4e3358e5bdb38f499a83fbcd33d16343569f3b6fe53021022dede6364017b4a8\n        /* \"contracts/base/CallTest.sol\":1303:1313  msg.sender */\n      caller\n        /* \"contracts/base/CallTest.sol\":1314:1323  msg.value */\n      callvalue\n        /* \"contracts/base/CallTest.sol\":1299:1327  Log(msg.sender,msg.value,\"\") */\n      mload(0x40)\n      tag_8\n      swap3\n      swap2\n      swap1\n      tag_9\n      jump\t// in\n    tag_8:\n      mload(0x40)\n      dup1\n      swap2\n      sub\n      swap1\n      log1\n        /* \"contracts/base/CallTest.sol\":541:1338  contract Caller {\r... */\n      stop\n    tag_2:\n      0x00\n      dup1\n      revert\n        /* \"contracts/base/CallTest.sol\":970:1244  function callNonExistentFunction(address _testContract) external{\r... */\n    tag_3:\n      callvalue\n      dup1\n      iszero\n      tag_10\n      jumpi\n      0x00\n      dup1\n      revert\n    tag_10:\n      pop\n      tag_11\n      0x04\n      dup1\n      calldatasize\n      sub\n      dup2\n      add\n      swap1\n      tag_12\n      swap2\n      swap1\n      tag_13\n      jump\t// in\n    tag_12:\n      tag_14\n      jump\t// in\n    tag_11:\n      stop\n        /* \"contracts/base/CallTest.sol\":628:645  bytes public data */\n    tag_4:\n      callvalue\n      dup1\n      iszero\n      tag_15\n      jumpi\n      0x00\n      dup1\n      revert\n    tag_15:\n      pop\n      tag_16\n      tag_17\n      jump\t// in\n    tag_16:\n      mload(0x40)\n      tag_18\n      swap2\n      swap1\n      tag_19\n      jump\t// in\n    tag_18:\n      mload(0x40)\n      dup1\n      swap2\n      sub\n      swap1\n      return\n        /* \"contracts/base/CallTest.sol\":652:962  function callFoo(address _testContract, string memory _msg, uint256 _num) external payable {\r... */\n    tag_5:\n      tag_20\n      0x04\n      dup1\n      calldatasize\n      sub\n      dup2\n      add\n      swap1\n      tag_21\n      swap2\n      swap1\n      tag_22\n      jump\t// in\n    tag_21:\n      tag_23\n      jump\t// in\n    tag_20:\n      stop\n        /* \"contracts/base/CallTest.sol\":970:1244  function callNonExistentFunction(address _testContract) external{\r... */\n    tag_14:\n        /* \"contracts/base/CallTest.sol\":1046:1058  bool success */\n      0x00\n        /* \"contracts/base/CallTest.sol\":1060:1078  bytes memory _data */\n      dup1\n        /* \"contracts/base/CallTest.sol\":1092:1105  _testContract */\n      dup3\n        /* \"contracts/base/CallTest.sol\":1092:1110  _testContract.call */\n      0xffffffffffffffffffffffffffffffffffffffff\n      and\n        /* \"contracts/base/CallTest.sol\":1117:1120  111 */\n      0x6f\n        /* \"contracts/base/CallTest.sol\":1122:1169  abi.encodeWithSignature(\"foo1(string,uint256)\") */\n      add(0x24, mload(0x40))\n      mload(0x40)\n      0x20\n      dup2\n      dup4\n      sub\n      sub\n      dup2\n      mstore\n      swap1\n      0x40\n      mstore\n      and(not(0xffffffffffffffffffffffffffffffffffffffffffffffffffffffff), 0x7fa40c3e00000000000000000000000000000000000000000000000000000000)\n      0x20\n      dup3\n      add\n      dup1\n      mload\n      0xffffffffffffffffffffffffffffffffffffffffffffffffffffffff\n      dup4\n      dup2\n      dup4\n      and\n      or\n      dup4\n      mstore\n      pop\n      pop\n      pop\n      pop\n        /* \"contracts/base/CallTest.sol\":1092:1170  _testContract.call{value:111}(abi.encodeWithSignature(\"foo1(string,uint256)\")) */\n      mload(0x40)\n      tag_25\n      swap2\n      swap1\n      tag_26\n      jump\t// in\n    tag_25:\n      0x00\n      mload(0x40)\n      dup1\n      dup4\n      sub\n      dup2\n      dup6\n      dup8\n      gas\n      call\n      swap3\n      pop\n      pop\n      pop\n      returndatasize\n      dup1\n      0x00\n      dup2\n      eq\n      tag_29\n      jumpi\n      mload(0x40)\n      swap2\n      pop\n      and(add(returndatasize, 0x3f), not(0x1f))\n      dup3\n      add\n      0x40\n      mstore\n      returndatasize\n      dup3\n      mstore\n      returndatasize\n      0x00\n      0x20\n      dup5\n      add\n      returndatacopy\n      jump(tag_28)\n    tag_29:\n      0x60\n      swap2\n      pop\n    tag_28:\n      pop\n        /* \"contracts/base/CallTest.sol\":1045:1170  (bool success, bytes memory _data) = \r... */\n      swap2\n      pop\n      swap2\n      pop\n        /* \"contracts/base/CallTest.sol\":1190:1197  success */\n      dup2\n        /* \"contracts/base/CallTest.sol\":1182:1213  require(success, \"call failed\") */\n      tag_30\n      jumpi\n      mload(0x40)\n      0x08c379a000000000000000000000000000000000000000000000000000000000\n      dup2\n      mstore\n      0x04\n      add\n      tag_31\n      swap1\n      tag_32\n      jump\t// in\n    tag_31:\n      mload(0x40)\n      dup1\n      swap2\n      sub\n      swap1\n      revert\n    tag_30:\n        /* \"contracts/base/CallTest.sol\":1231:1236  _data */\n      dup1\n        /* \"contracts/base/CallTest.sol\":1224:1228  data */\n      0x00\n        /* \"contracts/base/CallTest.sol\":1224:1236  data = _data */\n      swap1\n      dup1\n      mload\n      swap1\n      0x20\n      add\n      swap1\n      tag_33\n      swap3\n      swap2\n      swap1\n      tag_34\n      jump\t// in\n    tag_33:\n      pop\n        /* \"contracts/base/CallTest.sol\":970:1244  function callNonExistentFunction(address _testContract) external{\r... */\n      pop\n      pop\n      pop\n      jump\t// out\n        /* \"contracts/base/CallTest.sol\":628:645  bytes public data */\n    tag_17:\n      0x00\n      dup1\n      sload\n      tag_35\n      swap1\n      tag_36\n      jump\t// in\n    tag_35:\n      dup1\n      0x1f\n      add\n      0x20\n      dup1\n      swap2\n      div\n      mul\n      0x20\n      add\n      mload(0x40)\n      swap1\n      dup2\n      add\n      0x40\n      mstore\n      dup1\n      swap3\n      swap2\n      swap1\n      dup2\n      dup2\n      mstore\n      0x20\n      add\n      dup3\n      dup1\n      sload\n      tag_37\n      swap1\n      tag_36\n      jump\t// in\n    tag_37:\n      dup1\n      iszero\n      tag_38\n      jumpi\n      dup1\n      0x1f\n      lt\n      tag_39\n      jumpi\n      0x0100\n      dup1\n      dup4\n      sload\n      div\n      mul\n      dup4\n      mstore\n      swap2\n      0x20\n      add\n      swap2\n      jump(tag_38)\n    tag_39:\n      dup3\n      add\n      swap2\n      swap1\n      0x00\n      mstore\n      keccak256(0x00, 0x20)\n      swap1\n    tag_40:\n      dup2\n      sload\n      dup2\n      mstore\n      swap1\n      0x01\n      add\n      swap1\n      0x20\n      add\n      dup1\n      dup4\n      gt\n      tag_40\n      jumpi\n      dup3\n      swap1\n      sub\n      0x1f\n      and\n      dup3\n      add\n      swap2\n    tag_38:\n      pop\n      pop\n      pop\n      pop\n      pop\n      dup2\n      jump\t// out\n        /* \"contracts/base/CallTest.sol\":652:962  function callFoo(address _testContract, string memory _msg, uint256 _num) external payable {\r... */\n    tag_23:\n        /* \"contracts/base/CallTest.sol\":755:767  bool success */\n      0x00\n        /* \"contracts/base/CallTest.sol\":769:787  bytes memory _data */\n      dup1\n        /* \"contracts/base/CallTest.sol\":801:814  _testContract */\n      dup5\n        /* \"contracts/base/CallTest.sol\":801:819  _testContract.call */\n      0xffffffffffffffffffffffffffffffffffffffff\n      and\n        /* \"contracts/base/CallTest.sol\":826:830  _num */\n      dup4\n        /* \"contracts/base/CallTest.sol\":878:882  _msg */\n      dup6\n        /* \"contracts/base/CallTest.sol\":883:887  _num */\n      dup6\n        /* \"contracts/base/CallTest.sol\":832:888  abi.encodeWithSignature(\"foo(string,uint256)\",_msg,_num) */\n      add(0x24, mload(0x40))\n      tag_42\n      swap3\n      swap2\n      swap1\n      tag_43\n      jump\t// in\n    tag_42:\n      mload(0x40)\n      0x20\n      dup2\n      dup4\n      sub\n      sub\n      dup2\n      mstore\n      swap1\n      0x40\n      mstore\n      and(not(0xffffffffffffffffffffffffffffffffffffffffffffffffffffffff), 0x24ccab8f00000000000000000000000000000000000000000000000000000000)\n      0x20\n      dup3\n      add\n      dup1\n      mload\n      0xffffffffffffffffffffffffffffffffffffffffffffffffffffffff\n      dup4\n      dup2\n      dup4\n      and\n      or\n      dup4\n      mstore\n      pop\n      pop\n      pop\n      pop\n        /* \"contracts/base/CallTest.sol\":801:889  _testContract.call{value:_num}(abi.encodeWithSignature(\"foo(string,uint256)\",_msg,_num)) */\n      mload(0x40)\n      tag_44\n      swap2\n      swap1\n      tag_26\n      jump\t// in\n    tag_44:\n      0x00\n      mload(0x40)\n      dup1\n      dup4\n      sub\n      dup2\n      dup6\n      dup8\n      gas\n      call\n      swap3\n      pop\n      pop\n      pop\n      returndatasize\n      dup1\n      0x00\n      dup2\n      eq\n      tag_47\n      jumpi\n      mload(0x40)\n      swap2\n      pop\n      and(add(returndatasize, 0x3f), not(0x1f))\n      dup3\n      add\n      0x40\n      mstore\n      returndatasize\n      dup3\n      mstore\n      returndatasize\n      0x00\n      0x20\n      dup5\n      add\n      returndatacopy\n      jump(tag_46)\n    tag_47:\n      0x60\n      swap2\n      pop\n    tag_46:\n      pop\n        /* \"contracts/base/CallTest.sol\":754:889  (bool success, bytes memory _data) = \r... */\n      swap2\n      pop\n      swap2\n      pop\n        /* \"contracts/base/CallTest.sol\":908:915  success */\n      dup2\n        /* \"contracts/base/CallTest.sol\":900:931  require(success, \"call failed\") */\n      tag_48\n      jumpi\n      mload(0x40)\n      0x08c379a000000000000000000000000000000000000000000000000000000000\n      dup2\n      mstore\n      0x04\n      add\n      tag_49\n      swap1\n      tag_32\n      jump\t// in\n    tag_49:\n      mload(0x40)\n      dup1\n      swap2\n      sub\n      swap1\n      revert\n    tag_48:\n        /* \"contracts/base/CallTest.sol\":949:954  _data */\n      dup1\n        /* \"contracts/base/CallTest.sol\":942:946  data */\n      0x00\n        /* \"contracts/base/CallTest.sol\":942:954  data = _data */\n      swap1\n      dup1\n      mload\n      swap1\n      0x20\n      add\n      swap1\n      tag_50\n      swap3\n      swap2\n      swap1\n      tag_34\n      jump\t// in\n    tag_50:\n      pop\n        /* \"contracts/base/CallTest.sol\":652:962  function callFoo(address _testContract, string memory _msg, uint256 _num) external payable {\r... */\n      pop\n      pop\n      pop\n      pop\n      pop\n      jump\t// out\n    tag_34:\n      dup3\n      dup1\n      sload\n      tag_51\n      swap1\n      tag_36\n      jump\t// in\n    tag_51:\n      swap1\n      0x00\n      mstore\n      keccak256(0x00, 0x20)\n      swap1\n      0x1f\n      add\n      0x20\n      swap1\n      div\n      dup2\n      add\n      swap3\n      dup3\n      tag_53\n      jumpi\n      0x00\n      dup6\n      sstore\n      jump(tag_52)\n    tag_53:\n      dup3\n      0x1f\n      lt\n      tag_54\n      jumpi\n      dup1\n      mload\n      not(0xff)\n      and\n      dup4\n      dup1\n      add\n      or\n      dup6\n      sstore\n      jump(tag_52)\n    tag_54:\n      dup3\n      dup1\n      add\n      0x01\n      add\n      dup6\n      sstore\n      dup3\n      iszero\n      tag_52\n      jumpi\n      swap2\n      dup3\n      add\n    tag_55:\n      dup3\n      dup2\n      gt\n      iszero\n      tag_56\n      jumpi\n      dup3\n      mload\n      dup3\n      sstore\n      swap2\n      0x20\n      add\n      swap2\n      swap1\n      0x01\n      add\n      swap1\n      jump(tag_55)\n    tag_56:\n    tag_52:\n      pop\n      swap1\n      pop\n      tag_57\n      swap2\n      swap1\n      tag_58\n      jump\t// in\n    tag_57:\n      pop\n      swap1\n      jump\t// out\n    tag_58:\n    tag_59:\n      dup1\n      dup3\n      gt\n      iszero\n      tag_60\n      jumpi\n      0x00\n      dup2\n      0x00\n      swap1\n      sstore\n      pop\n      0x01\n      add\n      jump(tag_59)\n    tag_60:\n      pop\n      swap1\n      jump\t// out\n        /* \"#utility.yul\":7:352   */\n    tag_62:\n        /* \"#utility.yul\":85:90   */\n      0x00\n        /* \"#utility.yul\":110:176   */\n      tag_64\n        /* \"#utility.yul\":126:175   */\n      tag_65\n        /* \"#utility.yul\":168:174   */\n      dup5\n        /* \"#utility.yul\":126:175   */\n      tag_66\n      jump\t// in\n    tag_65:\n        /* \"#utility.yul\":110:176   */\n      tag_67\n      jump\t// in\n    tag_64:\n        /* \"#utility.yul\":101:176   */\n      swap1\n      pop\n        /* \"#utility.yul\":199:205   */\n      dup3\n        /* \"#utility.yul\":192:197   */\n      dup2\n        /* \"#utility.yul\":185:206   */\n      mstore\n        /* \"#utility.yul\":237:241   */\n      0x20\n        /* \"#utility.yul\":230:235   */\n      dup2\n        /* \"#utility.yul\":226:242   */\n      add\n        /* \"#utility.yul\":275:278   */\n      dup5\n        /* \"#utility.yul\":266:272   */\n      dup5\n        /* \"#utility.yul\":261:264   */\n      dup5\n        /* \"#utility.yul\":257:273   */\n      add\n        /* \"#utility.yul\":254:279   */\n      gt\n        /* \"#utility.yul\":251:253   */\n      iszero\n      tag_68\n      jumpi\n        /* \"#utility.yul\":292:293   */\n      0x00\n        /* \"#utility.yul\":289:290   */\n      dup1\n        /* \"#utility.yul\":282:294   */\n      revert\n        /* \"#utility.yul\":251:253   */\n    tag_68:\n        /* \"#utility.yul\":305:346   */\n      tag_69\n        /* \"#utility.yul\":339:345   */\n      dup5\n        /* \"#utility.yul\":334:337   */\n      dup3\n        /* \"#utility.yul\":329:332   */\n      dup6\n        /* \"#utility.yul\":305:346   */\n      tag_70\n      jump\t// in\n    tag_69:\n        /* \"#utility.yul\":91:352   */\n      pop\n      swap4\n      swap3\n      pop\n      pop\n      pop\n      jump\t// out\n        /* \"#utility.yul\":358:497   */\n    tag_71:\n        /* \"#utility.yul\":404:409   */\n      0x00\n        /* \"#utility.yul\":442:448   */\n      dup2\n        /* \"#utility.yul\":429:449   */\n      calldataload\n        /* \"#utility.yul\":420:449   */\n      swap1\n      pop\n        /* \"#utility.yul\":458:491   */\n      tag_73\n        /* \"#utility.yul\":485:490   */\n      dup2\n        /* \"#utility.yul\":458:491   */\n      tag_74\n      jump\t// in\n    tag_73:\n        /* \"#utility.yul\":410:497   */\n      swap3\n      swap2\n      pop\n      pop\n      jump\t// out\n        /* \"#utility.yul\":517:790   */\n    tag_75:\n        /* \"#utility.yul\":573:578   */\n      0x00\n        /* \"#utility.yul\":622:625   */\n      dup3\n        /* \"#utility.yul\":615:619   */\n      0x1f\n        /* \"#utility.yul\":607:613   */\n      dup4\n        /* \"#utility.yul\":603:620   */\n      add\n        /* \"#utility.yul\":599:626   */\n      slt\n        /* \"#utility.yul\":589:591   */\n      tag_77\n      jumpi\n        /* \"#utility.yul\":640:641   */\n      0x00\n        /* \"#utility.yul\":637:638   */\n      dup1\n        /* \"#utility.yul\":630:642   */\n      revert\n        /* \"#utility.yul\":589:591   */\n    tag_77:\n        /* \"#utility.yul\":680:686   */\n      dup2\n        /* \"#utility.yul\":667:687   */\n      calldataload\n        /* \"#utility.yul\":705:784   */\n      tag_78\n        /* \"#utility.yul\":780:783   */\n      dup5\n        /* \"#utility.yul\":772:778   */\n      dup3\n        /* \"#utility.yul\":765:769   */\n      0x20\n        /* \"#utility.yul\":757:763   */\n      dup7\n        /* \"#utility.yul\":753:770   */\n      add\n        /* \"#utility.yul\":705:784   */\n      tag_62\n      jump\t// in\n    tag_78:\n        /* \"#utility.yul\":696:784   */\n      swap2\n      pop\n        /* \"#utility.yul\":579:790   */\n      pop\n      swap3\n      swap2\n      pop\n      pop\n      jump\t// out\n        /* \"#utility.yul\":796:935   */\n    tag_79:\n        /* \"#utility.yul\":842:847   */\n      0x00\n        /* \"#utility.yul\":880:886   */\n      dup2\n        /* \"#utility.yul\":867:887   */\n      calldataload\n        /* \"#utility.yul\":858:887   */\n      swap1\n      pop\n        /* \"#utility.yul\":896:929   */\n      tag_81\n        /* \"#utility.yul\":923:928   */\n      dup2\n        /* \"#utility.yul\":896:929   */\n      tag_82\n      jump\t// in\n    tag_81:\n        /* \"#utility.yul\":848:935   */\n      swap3\n      swap2\n      pop\n      pop\n      jump\t// out\n        /* \"#utility.yul\":941:1203   */\n    tag_13:\n        /* \"#utility.yul\":1000:1006   */\n      0x00\n        /* \"#utility.yul\":1049:1051   */\n      0x20\n        /* \"#utility.yul\":1037:1046   */\n      dup3\n        /* \"#utility.yul\":1028:1035   */\n      dup5\n        /* \"#utility.yul\":1024:1047   */\n      sub\n        /* \"#utility.yul\":1020:1052   */\n      slt\n        /* \"#utility.yul\":1017:1019   */\n      iszero\n      tag_84\n      jumpi\n        /* \"#utility.yul\":1065:1066   */\n      0x00\n        /* \"#utility.yul\":1062:1063   */\n      dup1\n        /* \"#utility.yul\":1055:1067   */\n      revert\n        /* \"#utility.yul\":1017:1019   */\n    tag_84:\n        /* \"#utility.yul\":1108:1109   */\n      0x00\n        /* \"#utility.yul\":1133:1186   */\n      tag_85\n        /* \"#utility.yul\":1178:1185   */\n      dup5\n        /* \"#utility.yul\":1169:1175   */\n      dup3\n        /* \"#utility.yul\":1158:1167   */\n      dup6\n        /* \"#utility.yul\":1154:1176   */\n      add\n        /* \"#utility.yul\":1133:1186   */\n      tag_71\n      jump\t// in\n    tag_85:\n        /* \"#utility.yul\":1123:1186   */\n      swap2\n      pop\n        /* \"#utility.yul\":1079:1196   */\n      pop\n        /* \"#utility.yul\":1007:1203   */\n      swap3\n      swap2\n      pop\n      pop\n      jump\t// out\n        /* \"#utility.yul\":1209:1874   */\n    tag_22:\n        /* \"#utility.yul\":1296:1302   */\n      0x00\n        /* \"#utility.yul\":1304:1310   */\n      dup1\n        /* \"#utility.yul\":1312:1318   */\n      0x00\n        /* \"#utility.yul\":1361:1363   */\n      0x60\n        /* \"#utility.yul\":1349:1358   */\n      dup5\n        /* \"#utility.yul\":1340:1347   */\n      dup7\n        /* \"#utility.yul\":1336:1359   */\n      sub\n        /* \"#utility.yul\":1332:1364   */\n      slt\n        /* \"#utility.yul\":1329:1331   */\n      iszero\n      tag_87\n      jumpi\n        /* \"#utility.yul\":1377:1378   */\n      0x00\n        /* \"#utility.yul\":1374:1375   */\n      dup1\n        /* \"#utility.yul\":1367:1379   */\n      revert\n        /* \"#utility.yul\":1329:1331   */\n    tag_87:\n        /* \"#utility.yul\":1420:1421   */\n      0x00\n        /* \"#utility.yul\":1445:1498   */\n      tag_88\n        /* \"#utility.yul\":1490:1497   */\n      dup7\n        /* \"#utility.yul\":1481:1487   */\n      dup3\n        /* \"#utility.yul\":1470:1479   */\n      dup8\n        /* \"#utility.yul\":1466:1488   */\n      add\n        /* \"#utility.yul\":1445:1498   */\n      tag_71\n      jump\t// in\n    tag_88:\n        /* \"#utility.yul\":1435:1498   */\n      swap4\n      pop\n        /* \"#utility.yul\":1391:1508   */\n      pop\n        /* \"#utility.yul\":1575:1577   */\n      0x20\n        /* \"#utility.yul\":1564:1573   */\n      dup5\n        /* \"#utility.yul\":1560:1578   */\n      add\n        /* \"#utility.yul\":1547:1579   */\n      calldataload\n        /* \"#utility.yul\":1606:1624   */\n      0xffffffffffffffff\n        /* \"#utility.yul\":1598:1604   */\n      dup2\n        /* \"#utility.yul\":1595:1625   */\n      gt\n        /* \"#utility.yul\":1592:1594   */\n      iszero\n      tag_89\n      jumpi\n        /* \"#utility.yul\":1638:1639   */\n      0x00\n        /* \"#utility.yul\":1635:1636   */\n      dup1\n        /* \"#utility.yul\":1628:1640   */\n      revert\n        /* \"#utility.yul\":1592:1594   */\n    tag_89:\n        /* \"#utility.yul\":1666:1729   */\n      tag_90\n        /* \"#utility.yul\":1721:1728   */\n      dup7\n        /* \"#utility.yul\":1712:1718   */\n      dup3\n        /* \"#utility.yul\":1701:1710   */\n      dup8\n        /* \"#utility.yul\":1697:1719   */\n      add\n        /* \"#utility.yul\":1666:1729   */\n      tag_75\n      jump\t// in\n    tag_90:\n        /* \"#utility.yul\":1656:1729   */\n      swap3\n      pop\n        /* \"#utility.yul\":1518:1739   */\n      pop\n        /* \"#utility.yul\":1778:1780   */\n      0x40\n        /* \"#utility.yul\":1804:1857   */\n      tag_91\n        /* \"#utility.yul\":1849:1856   */\n      dup7\n        /* \"#utility.yul\":1840:1846   */\n      dup3\n        /* \"#utility.yul\":1829:1838   */\n      dup8\n        /* \"#utility.yul\":1825:1847   */\n      add\n        /* \"#utility.yul\":1804:1857   */\n      tag_79\n      jump\t// in\n    tag_91:\n        /* \"#utility.yul\":1794:1857   */\n      swap2\n      pop\n        /* \"#utility.yul\":1749:1867   */\n      pop\n        /* \"#utility.yul\":1319:1874   */\n      swap3\n      pop\n      swap3\n      pop\n      swap3\n      jump\t// out\n        /* \"#utility.yul\":1880:1998   */\n    tag_92:\n        /* \"#utility.yul\":1967:1991   */\n      tag_94\n        /* \"#utility.yul\":1985:1990   */\n      dup2\n        /* \"#utility.yul\":1967:1991   */\n      tag_95\n      jump\t// in\n    tag_94:\n        /* \"#utility.yul\":1962:1965   */\n      dup3\n        /* \"#utility.yul\":1955:1992   */\n      mstore\n        /* \"#utility.yul\":1945:1998   */\n      pop\n      pop\n      jump\t// out\n        /* \"#utility.yul\":2004:2364   */\n    tag_96:\n        /* \"#utility.yul\":2090:2093   */\n      0x00\n        /* \"#utility.yul\":2118:2156   */\n      tag_98\n        /* \"#utility.yul\":2150:2155   */\n      dup3\n        /* \"#utility.yul\":2118:2156   */\n      tag_99\n      jump\t// in\n    tag_98:\n        /* \"#utility.yul\":2172:2242   */\n      tag_100\n        /* \"#utility.yul\":2235:2241   */\n      dup2\n        /* \"#utility.yul\":2230:2233   */\n      dup6\n        /* \"#utility.yul\":2172:2242   */\n      tag_101\n      jump\t// in\n    tag_100:\n        /* \"#utility.yul\":2165:2242   */\n      swap4\n      pop\n        /* \"#utility.yul\":2251:2303   */\n      tag_102\n        /* \"#utility.yul\":2296:2302   */\n      dup2\n        /* \"#utility.yul\":2291:2294   */\n      dup6\n        /* \"#utility.yul\":2284:2288   */\n      0x20\n        /* \"#utility.yul\":2277:2282   */\n      dup7\n        /* \"#utility.yul\":2273:2289   */\n      add\n        /* \"#utility.yul\":2251:2303   */\n      tag_103\n      jump\t// in\n    tag_102:\n        /* \"#utility.yul\":2328:2357   */\n      tag_104\n        /* \"#utility.yul\":2350:2356   */\n      dup2\n        /* \"#utility.yul\":2328:2357   */\n      tag_105\n      jump\t// in\n    tag_104:\n        /* \"#utility.yul\":2323:2326   */\n      dup5\n        /* \"#utility.yul\":2319:2358   */\n      add\n        /* \"#utility.yul\":2312:2358   */\n      swap2\n      pop\n        /* \"#utility.yul\":2094:2364   */\n      pop\n      swap3\n      swap2\n      pop\n      pop\n      jump\t// out\n        /* \"#utility.yul\":2370:2743   */\n    tag_106:\n        /* \"#utility.yul\":2474:2477   */\n      0x00\n        /* \"#utility.yul\":2502:2540   */\n      tag_108\n        /* \"#utility.yul\":2534:2539   */\n      dup3\n        /* \"#utility.yul\":2502:2540   */\n      tag_99\n      jump\t// in\n    tag_108:\n        /* \"#utility.yul\":2556:2644   */\n      tag_109\n        /* \"#utility.yul\":2637:2643   */\n      dup2\n        /* \"#utility.yul\":2632:2635   */\n      dup6\n        /* \"#utility.yul\":2556:2644   */\n      tag_110\n      jump\t// in\n    tag_109:\n        /* \"#utility.yul\":2549:2644   */\n      swap4\n      pop\n        /* \"#utility.yul\":2653:2705   */\n      tag_111\n        /* \"#utility.yul\":2698:2704   */\n      dup2\n        /* \"#utility.yul\":2693:2696   */\n      dup6\n        /* \"#utility.yul\":2686:2690   */\n      0x20\n        /* \"#utility.yul\":2679:2684   */\n      dup7\n        /* \"#utility.yul\":2675:2691   */\n      add\n        /* \"#utility.yul\":2653:2705   */\n      tag_103\n      jump\t// in\n    tag_111:\n        /* \"#utility.yul\":2730:2736   */\n      dup1\n        /* \"#utility.yul\":2725:2728   */\n      dup5\n        /* \"#utility.yul\":2721:2737   */\n      add\n        /* \"#utility.yul\":2714:2737   */\n      swap2\n      pop\n        /* \"#utility.yul\":2478:2743   */\n      pop\n      swap3\n      swap2\n      pop\n      pop\n      jump\t// out\n        /* \"#utility.yul\":2749:3113   */\n    tag_112:\n        /* \"#utility.yul\":2837:2840   */\n      0x00\n        /* \"#utility.yul\":2865:2904   */\n      tag_114\n        /* \"#utility.yul\":2898:2903   */\n      dup3\n        /* \"#utility.yul\":2865:2904   */\n      tag_115\n      jump\t// in\n    tag_114:\n        /* \"#utility.yul\":2920:2991   */\n      tag_116\n        /* \"#utility.yul\":2984:2990   */\n      dup2\n        /* \"#utility.yul\":2979:2982   */\n      dup6\n        /* \"#utility.yul\":2920:2991   */\n      tag_117\n      jump\t// in\n    tag_116:\n        /* \"#utility.yul\":2913:2991   */\n      swap4\n      pop\n        /* \"#utility.yul\":3000:3052   */\n      tag_118\n        /* \"#utility.yul\":3045:3051   */\n      dup2\n        /* \"#utility.yul\":3040:3043   */\n      dup6\n        /* \"#utility.yul\":3033:3037   */\n      0x20\n        /* \"#utility.yul\":3026:3031   */\n      dup7\n        /* \"#utility.yul\":3022:3038   */\n      add\n        /* \"#utility.yul\":3000:3052   */\n      tag_103\n      jump\t// in\n    tag_118:\n        /* \"#utility.yul\":3077:3106   */\n      tag_119\n        /* \"#utility.yul\":3099:3105   */\n      dup2\n        /* \"#utility.yul\":3077:3106   */\n      tag_105\n      jump\t// in\n    tag_119:\n        /* \"#utility.yul\":3072:3075   */\n      dup5\n        /* \"#utility.yul\":3068:3107   */\n      add\n        /* \"#utility.yul\":3061:3107   */\n      swap2\n      pop\n        /* \"#utility.yul\":2841:3113   */\n      pop\n      swap3\n      swap2\n      pop\n      pop\n      jump\t// out\n        /* \"#utility.yul\":3119:3485   */\n    tag_120:\n        /* \"#utility.yul\":3261:3264   */\n      0x00\n        /* \"#utility.yul\":3282:3349   */\n      tag_122\n        /* \"#utility.yul\":3346:3348   */\n      0x0b\n        /* \"#utility.yul\":3341:3344   */\n      dup4\n        /* \"#utility.yul\":3282:3349   */\n      tag_117\n      jump\t// in\n    tag_122:\n        /* \"#utility.yul\":3275:3349   */\n      swap2\n      pop\n        /* \"#utility.yul\":3358:3451   */\n      tag_123\n        /* \"#utility.yul\":3447:3450   */\n      dup3\n        /* \"#utility.yul\":3358:3451   */\n      tag_124\n      jump\t// in\n    tag_123:\n        /* \"#utility.yul\":3476:3478   */\n      0x20\n        /* \"#utility.yul\":3471:3474   */\n      dup3\n        /* \"#utility.yul\":3467:3479   */\n      add\n        /* \"#utility.yul\":3460:3479   */\n      swap1\n      pop\n        /* \"#utility.yul\":3265:3485   */\n      swap2\n      swap1\n      pop\n      jump\t// out\n        /* \"#utility.yul\":3491:3855   */\n    tag_125:\n        /* \"#utility.yul\":3633:3636   */\n      0x00\n        /* \"#utility.yul\":3654:3720   */\n      tag_127\n        /* \"#utility.yul\":3718:3719   */\n      0x00\n        /* \"#utility.yul\":3713:3716   */\n      dup4\n        /* \"#utility.yul\":3654:3720   */\n      tag_117\n      jump\t// in\n    tag_127:\n        /* \"#utility.yul\":3647:3720   */\n      swap2\n      pop\n        /* \"#utility.yul\":3729:3822   */\n      tag_128\n        /* \"#utility.yul\":3818:3821   */\n      dup3\n        /* \"#utility.yul\":3729:3822   */\n      tag_129\n      jump\t// in\n    tag_128:\n        /* \"#utility.yul\":3847:3848   */\n      0x00\n        /* \"#utility.yul\":3842:3845   */\n      dup3\n        /* \"#utility.yul\":3838:3849   */\n      add\n        /* \"#utility.yul\":3831:3849   */\n      swap1\n      pop\n        /* \"#utility.yul\":3637:3855   */\n      swap2\n      swap1\n      pop\n      jump\t// out\n        /* \"#utility.yul\":3861:3979   */\n    tag_130:\n        /* \"#utility.yul\":3948:3972   */\n      tag_132\n        /* \"#utility.yul\":3966:3971   */\n      dup2\n        /* \"#utility.yul\":3948:3972   */\n      tag_133\n      jump\t// in\n    tag_132:\n        /* \"#utility.yul\":3943:3946   */\n      dup3\n        /* \"#utility.yul\":3936:3973   */\n      mstore\n        /* \"#utility.yul\":3926:3979   */\n      pop\n      pop\n      jump\t// out\n        /* \"#utility.yul\":3985:4256   */\n    tag_26:\n        /* \"#utility.yul\":4115:4118   */\n      0x00\n        /* \"#utility.yul\":4137:4230   */\n      tag_135\n        /* \"#utility.yul\":4226:4229   */\n      dup3\n        /* \"#utility.yul\":4217:4223   */\n      dup5\n        /* \"#utility.yul\":4137:4230   */\n      tag_106\n      jump\t// in\n    tag_135:\n        /* \"#utility.yul\":4130:4230   */\n      swap2\n      pop\n        /* \"#utility.yul\":4247:4250   */\n      dup2\n        /* \"#utility.yul\":4240:4250   */\n      swap1\n      pop\n        /* \"#utility.yul\":4119:4256   */\n      swap3\n      swap2\n      pop\n      pop\n      jump\t// out\n        /* \"#utility.yul\":4262:4901   */\n    tag_9:\n        /* \"#utility.yul\":4484:4488   */\n      0x00\n        /* \"#utility.yul\":4522:4524   */\n      0x60\n        /* \"#utility.yul\":4511:4520   */\n      dup3\n        /* \"#utility.yul\":4507:4525   */\n      add\n        /* \"#utility.yul\":4499:4525   */\n      swap1\n      pop\n        /* \"#utility.yul\":4535:4606   */\n      tag_137\n        /* \"#utility.yul\":4603:4604   */\n      0x00\n        /* \"#utility.yul\":4592:4601   */\n      dup4\n        /* \"#utility.yul\":4588:4605   */\n      add\n        /* \"#utility.yul\":4579:4585   */\n      dup6\n        /* \"#utility.yul\":4535:4606   */\n      tag_92\n      jump\t// in\n    tag_137:\n        /* \"#utility.yul\":4616:4688   */\n      tag_138\n        /* \"#utility.yul\":4684:4686   */\n      0x20\n        /* \"#utility.yul\":4673:4682   */\n      dup4\n        /* \"#utility.yul\":4669:4687   */\n      add\n        /* \"#utility.yul\":4660:4666   */\n      dup5\n        /* \"#utility.yul\":4616:4688   */\n      tag_130\n      jump\t// in\n    tag_138:\n        /* \"#utility.yul\":4735:4744   */\n      dup2\n        /* \"#utility.yul\":4729:4733   */\n      dup2\n        /* \"#utility.yul\":4725:4745   */\n      sub\n        /* \"#utility.yul\":4720:4722   */\n      0x40\n        /* \"#utility.yul\":4709:4718   */\n      dup4\n        /* \"#utility.yul\":4705:4723   */\n      add\n        /* \"#utility.yul\":4698:4746   */\n      mstore\n        /* \"#utility.yul\":4763:4894   */\n      tag_139\n        /* \"#utility.yul\":4889:4893   */\n      dup2\n        /* \"#utility.yul\":4763:4894   */\n      tag_125\n      jump\t// in\n    tag_139:\n        /* \"#utility.yul\":4755:4894   */\n      swap1\n      pop\n        /* \"#utility.yul\":4489:4901   */\n      swap4\n      swap3\n      pop\n      pop\n      pop\n      jump\t// out\n        /* \"#utility.yul\":4907:5216   */\n    tag_19:\n        /* \"#utility.yul\":5018:5022   */\n      0x00\n        /* \"#utility.yul\":5056:5058   */\n      0x20\n        /* \"#utility.yul\":5045:5054   */\n      dup3\n        /* \"#utility.yul\":5041:5059   */\n      add\n        /* \"#utility.yul\":5033:5059   */\n      swap1\n      pop\n        /* \"#utility.yul\":5105:5114   */\n      dup2\n        /* \"#utility.yul\":5099:5103   */\n      dup2\n        /* \"#utility.yul\":5095:5115   */\n      sub\n        /* \"#utility.yul\":5091:5092   */\n      0x00\n        /* \"#utility.yul\":5080:5089   */\n      dup4\n        /* \"#utility.yul\":5076:5093   */\n      add\n        /* \"#utility.yul\":5069:5116   */\n      mstore\n        /* \"#utility.yul\":5133:5209   */\n      tag_141\n        /* \"#utility.yul\":5204:5208   */\n      dup2\n        /* \"#utility.yul\":5195:5201   */\n      dup5\n        /* \"#utility.yul\":5133:5209   */\n      tag_96\n      jump\t// in\n    tag_141:\n        /* \"#utility.yul\":5125:5209   */\n      swap1\n      pop\n        /* \"#utility.yul\":5023:5216   */\n      swap3\n      swap2\n      pop\n      pop\n      jump\t// out\n        /* \"#utility.yul\":5222:5645   */\n    tag_43:\n        /* \"#utility.yul\":5363:5367   */\n      0x00\n        /* \"#utility.yul\":5401:5403   */\n      0x40\n        /* \"#utility.yul\":5390:5399   */\n      dup3\n        /* \"#utility.yul\":5386:5404   */\n      add\n        /* \"#utility.yul\":5378:5404   */\n      swap1\n      pop\n        /* \"#utility.yul\":5450:5459   */\n      dup2\n        /* \"#utility.yul\":5444:5448   */\n      dup2\n        /* \"#utility.yul\":5440:5460   */\n      sub\n        /* \"#utility.yul\":5436:5437   */\n      0x00\n        /* \"#utility.yul\":5425:5434   */\n      dup4\n        /* \"#utility.yul\":5421:5438   */\n      add\n        /* \"#utility.yul\":5414:5461   */\n      mstore\n        /* \"#utility.yul\":5478:5556   */\n      tag_143\n        /* \"#utility.yul\":5551:5555   */\n      dup2\n        /* \"#utility.yul\":5542:5548   */\n      dup6\n        /* \"#utility.yul\":5478:5556   */\n      tag_112\n      jump\t// in\n    tag_143:\n        /* \"#utility.yul\":5470:5556   */\n      swap1\n      pop\n        /* \"#utility.yul\":5566:5638   */\n      tag_144\n        /* \"#utility.yul\":5634:5636   */\n      0x20\n        /* \"#utility.yul\":5623:5632   */\n      dup4\n        /* \"#utility.yul\":5619:5637   */\n      add\n        /* \"#utility.yul\":5610:5616   */\n      dup5\n        /* \"#utility.yul\":5566:5638   */\n      tag_130\n      jump\t// in\n    tag_144:\n        /* \"#utility.yul\":5368:5645   */\n      swap4\n      swap3\n      pop\n      pop\n      pop\n      jump\t// out\n        /* \"#utility.yul\":5651:6070   */\n    tag_32:\n        /* \"#utility.yul\":5817:5821   */\n      0x00\n        /* \"#utility.yul\":5855:5857   */\n      0x20\n        /* \"#utility.yul\":5844:5853   */\n      dup3\n        /* \"#utility.yul\":5840:5858   */\n      add\n        /* \"#utility.yul\":5832:5858   */\n      swap1\n      pop\n        /* \"#utility.yul\":5904:5913   */\n      dup2\n        /* \"#utility.yul\":5898:5902   */\n      dup2\n        /* \"#utility.yul\":5894:5914   */\n      sub\n        /* \"#utility.yul\":5890:5891   */\n      0x00\n        /* \"#utility.yul\":5879:5888   */\n      dup4\n        /* \"#utility.yul\":5875:5892   */\n      add\n        /* \"#utility.yul\":5868:5915   */\n      mstore\n        /* \"#utility.yul\":5932:6063   */\n      tag_146\n        /* \"#utility.yul\":6058:6062   */\n      dup2\n        /* \"#utility.yul\":5932:6063   */\n      tag_120\n      jump\t// in\n    tag_146:\n        /* \"#utility.yul\":5924:6063   */\n      swap1\n      pop\n        /* \"#utility.yul\":5822:6070   */\n      swap2\n      swap1\n      pop\n      jump\t// out\n        /* \"#utility.yul\":6076:6205   */\n    tag_67:\n        /* \"#utility.yul\":6110:6116   */\n      0x00\n        /* \"#utility.yul\":6137:6157   */\n      tag_148\n      tag_149\n      jump\t// in\n    tag_148:\n        /* \"#utility.yul\":6127:6157   */\n      swap1\n      pop\n        /* \"#utility.yul\":6166:6199   */\n      tag_150\n        /* \"#utility.yul\":6194:6198   */\n      dup3\n        /* \"#utility.yul\":6186:6192   */\n      dup3\n        /* \"#utility.yul\":6166:6199   */\n      tag_151\n      jump\t// in\n    tag_150:\n        /* \"#utility.yul\":6117:6205   */\n      swap2\n      swap1\n      pop\n      jump\t// out\n        /* \"#utility.yul\":6211:6286   */\n    tag_149:\n        /* \"#utility.yul\":6244:6250   */\n      0x00\n        /* \"#utility.yul\":6277:6279   */\n      0x40\n        /* \"#utility.yul\":6271:6280   */\n      mload\n        /* \"#utility.yul\":6261:6280   */\n      swap1\n      pop\n        /* \"#utility.yul\":6251:6286   */\n      swap1\n      jump\t// out\n        /* \"#utility.yul\":6292:6600   */\n    tag_66:\n        /* \"#utility.yul\":6354:6358   */\n      0x00\n        /* \"#utility.yul\":6444:6462   */\n      0xffffffffffffffff\n        /* \"#utility.yul\":6436:6442   */\n      dup3\n        /* \"#utility.yul\":6433:6463   */\n      gt\n        /* \"#utility.yul\":6430:6432   */\n      iszero\n      tag_154\n      jumpi\n        /* \"#utility.yul\":6466:6484   */\n      tag_155\n      tag_156\n      jump\t// in\n    tag_155:\n        /* \"#utility.yul\":6430:6432   */\n    tag_154:\n        /* \"#utility.yul\":6504:6533   */\n      tag_157\n        /* \"#utility.yul\":6526:6532   */\n      dup3\n        /* \"#utility.yul\":6504:6533   */\n      tag_105\n      jump\t// in\n    tag_157:\n        /* \"#utility.yul\":6496:6533   */\n      swap1\n      pop\n        /* \"#utility.yul\":6588:6592   */\n      0x20\n        /* \"#utility.yul\":6582:6586   */\n      dup2\n        /* \"#utility.yul\":6578:6593   */\n      add\n        /* \"#utility.yul\":6570:6593   */\n      swap1\n      pop\n        /* \"#utility.yul\":6359:6600   */\n      swap2\n      swap1\n      pop\n      jump\t// out\n        /* \"#utility.yul\":6606:6704   */\n    tag_99:\n        /* \"#utility.yul\":6657:6663   */\n      0x00\n        /* \"#utility.yul\":6691:6696   */\n      dup2\n        /* \"#utility.yul\":6685:6697   */\n      mload\n        /* \"#utility.yul\":6675:6697   */\n      swap1\n      pop\n        /* \"#utility.yul\":6664:6704   */\n      swap2\n      swap1\n      pop\n      jump\t// out\n        /* \"#utility.yul\":6710:6809   */\n    tag_115:\n        /* \"#utility.yul\":6762:6768   */\n      0x00\n        /* \"#utility.yul\":6796:6801   */\n      dup2\n        /* \"#utility.yul\":6790:6802   */\n      mload\n        /* \"#utility.yul\":6780:6802   */\n      swap1\n      pop\n        /* \"#utility.yul\":6769:6809   */\n      swap2\n      swap1\n      pop\n      jump\t// out\n        /* \"#utility.yul\":6815:6983   */\n    tag_101:\n        /* \"#utility.yul\":6898:6909   */\n      0x00\n        /* \"#utility.yul\":6932:6938   */\n      dup3\n        /* \"#utility.yul\":6927:6930   */\n      dup3\n        /* \"#utility.yul\":6920:6939   */\n      mstore\n        /* \"#utility.yul\":6972:6976   */\n      0x20\n        /* \"#utility.yul\":6967:6970   */\n      dup3\n        /* \"#utility.yul\":6963:6977   */\n      add\n        /* \"#utility.yul\":6948:6977   */\n      swap1\n      pop\n        /* \"#utility.yul\":6910:6983   */\n      swap3\n      swap2\n      pop\n      pop\n      jump\t// out\n        /* \"#utility.yul\":6989:7136   */\n    tag_110:\n        /* \"#utility.yul\":7090:7101   */\n      0x00\n        /* \"#utility.yul\":7127:7130   */\n      dup2\n        /* \"#utility.yul\":7112:7130   */\n      swap1\n      pop\n        /* \"#utility.yul\":7102:7136   */\n      swap3\n      swap2\n      pop\n      pop\n      jump\t// out\n        /* \"#utility.yul\":7142:7311   */\n    tag_117:\n        /* \"#utility.yul\":7226:7237   */\n      0x00\n        /* \"#utility.yul\":7260:7266   */\n      dup3\n        /* \"#utility.yul\":7255:7258   */\n      dup3\n        /* \"#utility.yul\":7248:7267   */\n      mstore\n        /* \"#utility.yul\":7300:7304   */\n      0x20\n        /* \"#utility.yul\":7295:7298   */\n      dup3\n        /* \"#utility.yul\":7291:7305   */\n      add\n        /* \"#utility.yul\":7276:7305   */\n      swap1\n      pop\n        /* \"#utility.yul\":7238:7311   */\n      swap3\n      swap2\n      pop\n      pop\n      jump\t// out\n        /* \"#utility.yul\":7317:7413   */\n    tag_95:\n        /* \"#utility.yul\":7354:7361   */\n      0x00\n        /* \"#utility.yul\":7383:7407   */\n      tag_164\n        /* \"#utility.yul\":7401:7406   */\n      dup3\n        /* \"#utility.yul\":7383:7407   */\n      tag_165\n      jump\t// in\n    tag_164:\n        /* \"#utility.yul\":7372:7407   */\n      swap1\n      pop\n        /* \"#utility.yul\":7362:7413   */\n      swap2\n      swap1\n      pop\n      jump\t// out\n        /* \"#utility.yul\":7419:7545   */\n    tag_165:\n        /* \"#utility.yul\":7456:7463   */\n      0x00\n        /* \"#utility.yul\":7496:7538   */\n      0xffffffffffffffffffffffffffffffffffffffff\n        /* \"#utility.yul\":7489:7494   */\n      dup3\n        /* \"#utility.yul\":7485:7539   */\n      and\n        /* \"#utility.yul\":7474:7539   */\n      swap1\n      pop\n        /* \"#utility.yul\":7464:7545   */\n      swap2\n      swap1\n      pop\n      jump\t// out\n        /* \"#utility.yul\":7551:7628   */\n    tag_133:\n        /* \"#utility.yul\":7588:7595   */\n      0x00\n        /* \"#utility.yul\":7617:7622   */\n      dup2\n        /* \"#utility.yul\":7606:7622   */\n      swap1\n      pop\n        /* \"#utility.yul\":7596:7628   */\n      swap2\n      swap1\n      pop\n      jump\t// out\n        /* \"#utility.yul\":7634:7788   */\n    tag_70:\n        /* \"#utility.yul\":7718:7724   */\n      dup3\n        /* \"#utility.yul\":7713:7716   */\n      dup2\n        /* \"#utility.yul\":7708:7711   */\n      dup4\n        /* \"#utility.yul\":7695:7725   */\n      calldatacopy\n        /* \"#utility.yul\":7780:7781   */\n      0x00\n        /* \"#utility.yul\":7771:7777   */\n      dup4\n        /* \"#utility.yul\":7766:7769   */\n      dup4\n        /* \"#utility.yul\":7762:7778   */\n      add\n        /* \"#utility.yul\":7755:7782   */\n      mstore\n        /* \"#utility.yul\":7685:7788   */\n      pop\n      pop\n      pop\n      jump\t// out\n        /* \"#utility.yul\":7794:8101   */\n    tag_103:\n        /* \"#utility.yul\":7862:7863   */\n      0x00\n        /* \"#utility.yul\":7872:7985   */\n    tag_170:\n        /* \"#utility.yul\":7886:7892   */\n      dup4\n        /* \"#utility.yul\":7883:7884   */\n      dup2\n        /* \"#utility.yul\":7880:7893   */\n      lt\n        /* \"#utility.yul\":7872:7985   */\n      iszero\n      tag_172\n      jumpi\n        /* \"#utility.yul\":7971:7972   */\n      dup1\n        /* \"#utility.yul\":7966:7969   */\n      dup3\n        /* \"#utility.yul\":7962:7973   */\n      add\n        /* \"#utility.yul\":7956:7974   */\n      mload\n        /* \"#utility.yul\":7952:7953   */\n      dup2\n        /* \"#utility.yul\":7947:7950   */\n      dup5\n        /* \"#utility.yul\":7943:7954   */\n      add\n        /* \"#utility.yul\":7936:7975   */\n      mstore\n        /* \"#utility.yul\":7908:7910   */\n      0x20\n        /* \"#utility.yul\":7905:7906   */\n      dup2\n        /* \"#utility.yul\":7901:7911   */\n      add\n        /* \"#utility.yul\":7896:7911   */\n      swap1\n      pop\n        /* \"#utility.yul\":7872:7985   */\n      jump(tag_170)\n    tag_172:\n        /* \"#utility.yul\":8003:8009   */\n      dup4\n        /* \"#utility.yul\":8000:8001   */\n      dup2\n        /* \"#utility.yul\":7997:8010   */\n      gt\n        /* \"#utility.yul\":7994:7996   */\n      iszero\n      tag_173\n      jumpi\n        /* \"#utility.yul\":8083:8084   */\n      0x00\n        /* \"#utility.yul\":8074:8080   */\n      dup5\n        /* \"#utility.yul\":8069:8072   */\n      dup5\n        /* \"#utility.yul\":8065:8081   */\n      add\n        /* \"#utility.yul\":8058:8085   */\n      mstore\n        /* \"#utility.yul\":7994:7996   */\n    tag_173:\n        /* \"#utility.yul\":7843:8101   */\n      pop\n      pop\n      pop\n      pop\n      jump\t// out\n        /* \"#utility.yul\":8107:8427   */\n    tag_36:\n        /* \"#utility.yul\":8151:8157   */\n      0x00\n        /* \"#utility.yul\":8188:8189   */\n      0x02\n        /* \"#utility.yul\":8182:8186   */\n      dup3\n        /* \"#utility.yul\":8178:8190   */\n      div\n        /* \"#utility.yul\":8168:8190   */\n      swap1\n      pop\n        /* \"#utility.yul\":8235:8236   */\n      0x01\n        /* \"#utility.yul\":8229:8233   */\n      dup3\n        /* \"#utility.yul\":8225:8237   */\n      and\n        /* \"#utility.yul\":8256:8274   */\n      dup1\n        /* \"#utility.yul\":8246:8248   */\n      tag_175\n      jumpi\n        /* \"#utility.yul\":8312:8316   */\n      0x7f\n        /* \"#utility.yul\":8304:8310   */\n      dup3\n        /* \"#utility.yul\":8300:8317   */\n      and\n        /* \"#utility.yul\":8290:8317   */\n      swap2\n      pop\n        /* \"#utility.yul\":8246:8248   */\n    tag_175:\n        /* \"#utility.yul\":8374:8376   */\n      0x20\n        /* \"#utility.yul\":8366:8372   */\n      dup3\n        /* \"#utility.yul\":8363:8377   */\n      lt\n        /* \"#utility.yul\":8343:8361   */\n      dup2\n        /* \"#utility.yul\":8340:8378   */\n      eq\n        /* \"#utility.yul\":8337:8339   */\n      iszero\n      tag_176\n      jumpi\n        /* \"#utility.yul\":8393:8411   */\n      tag_177\n      tag_178\n      jump\t// in\n    tag_177:\n        /* \"#utility.yul\":8337:8339   */\n    tag_176:\n        /* \"#utility.yul\":8158:8427   */\n      pop\n      swap2\n      swap1\n      pop\n      jump\t// out\n        /* \"#utility.yul\":8433:8714   */\n    tag_151:\n        /* \"#utility.yul\":8516:8543   */\n      tag_180\n        /* \"#utility.yul\":8538:8542   */\n      dup3\n        /* \"#utility.yul\":8516:8543   */\n      tag_105\n      jump\t// in\n    tag_180:\n        /* \"#utility.yul\":8508:8514   */\n      dup2\n        /* \"#utility.yul\":8504:8544   */\n      add\n        /* \"#utility.yul\":8646:8652   */\n      dup2\n        /* \"#utility.yul\":8634:8644   */\n      dup2\n        /* \"#utility.yul\":8631:8653   */\n      lt\n        /* \"#utility.yul\":8610:8628   */\n      0xffffffffffffffff\n        /* \"#utility.yul\":8598:8608   */\n      dup3\n        /* \"#utility.yul\":8595:8629   */\n      gt\n        /* \"#utility.yul\":8592:8654   */\n      or\n        /* \"#utility.yul\":8589:8591   */\n      iszero\n      tag_181\n      jumpi\n        /* \"#utility.yul\":8657:8675   */\n      tag_182\n      tag_156\n      jump\t// in\n    tag_182:\n        /* \"#utility.yul\":8589:8591   */\n    tag_181:\n        /* \"#utility.yul\":8697:8707   */\n      dup1\n        /* \"#utility.yul\":8693:8695   */\n      0x40\n        /* \"#utility.yul\":8686:8708   */\n      mstore\n        /* \"#utility.yul\":8476:8714   */\n      pop\n      pop\n      pop\n      jump\t// out\n        /* \"#utility.yul\":8720:8900   */\n    tag_178:\n        /* \"#utility.yul\":8768:8845   */\n      0x4e487b7100000000000000000000000000000000000000000000000000000000\n        /* \"#utility.yul\":8765:8766   */\n      0x00\n        /* \"#utility.yul\":8758:8846   */\n      mstore\n        /* \"#utility.yul\":8865:8869   */\n      0x22\n        /* \"#utility.yul\":8862:8863   */\n      0x04\n        /* \"#utility.yul\":8855:8870   */\n      mstore\n        /* \"#utility.yul\":8889:8893   */\n      0x24\n        /* \"#utility.yul\":8886:8887   */\n      0x00\n        /* \"#utility.yul\":8879:8894   */\n      revert\n        /* \"#utility.yul\":8906:9086   */\n    tag_156:\n        /* \"#utility.yul\":8954:9031   */\n      0x4e487b7100000000000000000000000000000000000000000000000000000000\n        /* \"#utility.yul\":8951:8952   */\n      0x00\n        /* \"#utility.yul\":8944:9032   */\n      mstore\n        /* \"#utility.yul\":9051:9055   */\n      0x41\n        /* \"#utility.yul\":9048:9049   */\n      0x04\n        /* \"#utility.yul\":9041:9056   */\n      mstore\n        /* \"#utility.yul\":9075:9079   */\n      0x24\n        /* \"#utility.yul\":9072:9073   */\n      0x00\n        /* \"#utility.yul\":9065:9080   */\n      revert\n        /* \"#utility.yul\":9092:9194   */\n    tag_105:\n        /* \"#utility.yul\":9133:9139   */\n      0x00\n        /* \"#utility.yul\":9184:9186   */\n      0x1f\n        /* \"#utility.yul\":9180:9187   */\n      not\n        /* \"#utility.yul\":9175:9177   */\n      0x1f\n        /* \"#utility.yul\":9168:9173   */\n      dup4\n        /* \"#utility.yul\":9164:9178   */\n      add\n        /* \"#utility.yul\":9160:9188   */\n      and\n        /* \"#utility.yul\":9150:9188   */\n      swap1\n      pop\n        /* \"#utility.yul\":9140:9194   */\n      swap2\n      swap1\n      pop\n      jump\t// out\n        /* \"#utility.yul\":9200:9361   */\n    tag_124:\n        /* \"#utility.yul\":9340:9353   */\n      0x63616c6c206661696c6564000000000000000000000000000000000000000000\n        /* \"#utility.yul\":9336:9337   */\n      0x00\n        /* \"#utility.yul\":9328:9334   */\n      dup3\n        /* \"#utility.yul\":9324:9338   */\n      add\n        /* \"#utility.yul\":9317:9354   */\n      mstore\n        /* \"#utility.yul\":9306:9361   */\n      pop\n      jump\t// out\n        /* \"#utility.yul\":9367:9481   */\n    tag_129:\n        /* \"#utility.yul\":9473:9481   */\n      pop\n      jump\t// out\n        /* \"#utility.yul\":9487:9609   */\n    tag_74:\n        /* \"#utility.yul\":9560:9584   */\n      tag_189\n        /* \"#utility.yul\":9578:9583   */\n      dup2\n        /* \"#utility.yul\":9560:9584   */\n      tag_95\n      jump\t// in\n    tag_189:\n        /* \"#utility.yul\":9553:9558   */\n      dup2\n        /* \"#utility.yul\":9550:9585   */\n      eq\n        /* \"#utility.yul\":9540:9542   */\n      tag_190\n      jumpi\n        /* \"#utility.yul\":9599:9600   */\n      0x00\n        /* \"#utility.yul\":9596:9597   */\n      dup1\n        /* \"#utility.yul\":9589:9601   */\n      revert\n        /* \"#utility.yul\":9540:9542   */\n    tag_190:\n        /* \"#utility.yul\":9530:9609   */\n      pop\n      jump\t// out\n        /* \"#utility.yul\":9615:9737   */\n    tag_82:\n        /* \"#utility.yul\":9688:9712   */\n      tag_192\n        /* \"#utility.yul\":9706:9711   */\n      dup2\n        /* \"#utility.yul\":9688:9712   */\n      tag_133\n      jump\t// in\n    tag_192:\n        /* \"#utility.yul\":9681:9686   */\n      dup2\n        /* \"#utility.yul\":9678:9713   */\n      eq\n        /* \"#utility.yul\":9668:9670   */\n      tag_193\n      jumpi\n        /* \"#utility.yul\":9727:9728   */\n      0x00\n        /* \"#utility.yul\":9724:9725   */\n      dup1\n        /* \"#utility.yul\":9717:9729   */\n      revert\n        /* \"#utility.yul\":9668:9670   */\n    tag_193:\n        /* \"#utility.yul\":9658:9737   */\n      pop\n      jump\t// out\n\n    auxdata: 0xa2646970667358221220bb61318ae57043aa30b6247260c02fa32fa7dc317b31faadb5b083b06376480164736f6c63430008040033\n}\n",
				"bytecode": {
					"linkReferences": {},
					"object": "608060405234801561001057600080fd5b50610a31806100206000396000f3fe6080604052600436106100385760003560e01c8063172a57d71461007d57806373d4a13a146100a6578063dd5f151e146100d157610078565b36610078577f4e3358e5bdb38f499a83fbcd33d16343569f3b6fe53021022dede6364017b4a8333460405161006e92919061070a565b60405180910390a1005b600080fd5b34801561008957600080fd5b506100a4600480360381019061009f919061055c565b6100ed565b005b3480156100b257600080fd5b506100bb61023c565b6040516100c89190610746565b60405180910390f35b6100eb60048036038101906100e69190610585565b6102ca565b005b6000808273ffffffffffffffffffffffffffffffffffffffff16606f6040516024016040516020818303038152906040527f7fa40c3e000000000000000000000000000000000000000000000000000000007bffffffffffffffffffffffffffffffffffffffffffffffffffffffff19166020820180517bffffffffffffffffffffffffffffffffffffffffffffffffffffffff838183161783525050505060405161019991906106f3565b60006040518083038185875af1925050503d80600081146101d6576040519150601f19603f3d011682016040523d82523d6000602084013e6101db565b606091505b509150915081610220576040517f08c379a000000000000000000000000000000000000000000000000000000000815260040161021790610798565b60405180910390fd5b8060009080519060200190610236929190610427565b50505050565b60008054610249906108cf565b80601f0160208091040260200160405190810160405280929190818152602001828054610275906108cf565b80156102c25780601f10610297576101008083540402835291602001916102c2565b820191906000526020600020905b8154815290600101906020018083116102a557829003601f168201915b505050505081565b6000808473ffffffffffffffffffffffffffffffffffffffff168385856040516024016102f8929190610768565b6040516020818303038152906040527f24ccab8f000000000000000000000000000000000000000000000000000000007bffffffffffffffffffffffffffffffffffffffffffffffffffffffff19166020820180517bffffffffffffffffffffffffffffffffffffffffffffffffffffffff838183161783525050505060405161038291906106f3565b60006040518083038185875af1925050503d80600081146103bf576040519150601f19603f3d011682016040523d82523d6000602084013e6103c4565b606091505b509150915081610409576040517f08c379a000000000000000000000000000000000000000000000000000000000815260040161040090610798565b60405180910390fd5b806000908051906020019061041f929190610427565b505050505050565b828054610433906108cf565b90600052602060002090601f016020900481019282610455576000855561049c565b82601f1061046e57805160ff191683800117855561049c565b8280016001018555821561049c579182015b8281111561049b578251825591602001919060010190610480565b5b5090506104a991906104ad565b5090565b5b808211156104c65760008160009055506001016104ae565b5090565b60006104dd6104d8846107dd565b6107b8565b9050828152602081018484840111156104f557600080fd5b61050084828561088d565b509392505050565b600081359050610517816109cd565b92915050565b600082601f83011261052e57600080fd5b813561053e8482602086016104ca565b91505092915050565b600081359050610556816109e4565b92915050565b60006020828403121561056e57600080fd5b600061057c84828501610508565b91505092915050565b60008060006060848603121561059a57600080fd5b60006105a886828701610508565b935050602084013567ffffffffffffffff8111156105c557600080fd5b6105d18682870161051d565b92505060406105e286828701610547565b9150509250925092565b6105f581610851565b82525050565b60006106068261080e565b6106108185610824565b935061062081856020860161089c565b61062981610990565b840191505092915050565b600061063f8261080e565b6106498185610835565b935061065981856020860161089c565b80840191505092915050565b600061067082610819565b61067a8185610840565b935061068a81856020860161089c565b61069381610990565b840191505092915050565b60006106ab600b83610840565b91506106b6826109a1565b602082019050919050565b60006106ce600083610840565b91506106d9826109ca565b600082019050919050565b6106ed81610883565b82525050565b60006106ff8284610634565b915081905092915050565b600060608201905061071f60008301856105ec565b61072c60208301846106e4565b818103604083015261073d816106c1565b90509392505050565b6000602082019050818103600083015261076081846105fb565b905092915050565b600060408201905081810360008301526107828185610665565b905061079160208301846106e4565b9392505050565b600060208201905081810360008301526107b18161069e565b9050919050565b60006107c26107d3565b90506107ce8282610901565b919050565b6000604051905090565b600067ffffffffffffffff8211156107f8576107f7610961565b5b61080182610990565b9050602081019050919050565b600081519050919050565b600081519050919050565b600082825260208201905092915050565b600081905092915050565b600082825260208201905092915050565b600061085c82610863565b9050919050565b600073ffffffffffffffffffffffffffffffffffffffff82169050919050565b6000819050919050565b82818337600083830152505050565b60005b838110156108ba57808201518184015260208101905061089f565b838111156108c9576000848401525b50505050565b600060028204905060018216806108e757607f821691505b602082108114156108fb576108fa610932565b5b50919050565b61090a82610990565b810181811067ffffffffffffffff8211171561092957610928610961565b5b80604052505050565b7f4e487b7100000000000000000000000000000000000000000000000000000000600052602260045260246000fd5b7f4e487b7100000000000000000000000000000000000000000000000000000000600052604160045260246000fd5b6000601f19601f8301169050919050565b7f63616c6c206661696c6564000000000000000000000000000000000000000000600082015250565b50565b6109d681610851565b81146109e157600080fd5b50565b6109ed81610883565b81146109f857600080fd5b5056fea2646970667358221220bb61318ae57043aa30b6247260c02fa32fa7dc317b31faadb5b083b06376480164736f6c63430008040033",
					"opcodes": "PUSH1 0x80 PUSH1 0x40 MSTORE CALLVALUE DUP1 ISZERO PUSH2 0x10 JUMPI PUSH1 0x0 DUP1 REVERT JUMPDEST POP PUSH2 0xA31 DUP1 PUSH2 0x20 PUSH1 0x0 CODECOPY PUSH1 0x0 RETURN INVALID PUSH1 0x80 PUSH1 0x40 MSTORE PUSH1 0x4 CALLDATASIZE LT PUSH2 0x38 JUMPI PUSH1 0x0 CALLDATALOAD PUSH1 0xE0 SHR DUP1 PUSH4 0x172A57D7 EQ PUSH2 0x7D JUMPI DUP1 PUSH4 0x73D4A13A EQ PUSH2 0xA6 JUMPI DUP1 PUSH4 0xDD5F151E EQ PUSH2 0xD1 JUMPI PUSH2 0x78 JUMP JUMPDEST CALLDATASIZE PUSH2 0x78 JUMPI PUSH32 0x4E3358E5BDB38F499A83FBCD33D16343569F3B6FE53021022DEDE6364017B4A8 CALLER CALLVALUE PUSH1 0x40 MLOAD PUSH2 0x6E SWAP3 SWAP2 SWAP1 PUSH2 0x70A JUMP JUMPDEST PUSH1 0x40 MLOAD DUP1 SWAP2 SUB SWAP1 LOG1 STOP JUMPDEST PUSH1 0x0 DUP1 REVERT JUMPDEST CALLVALUE DUP1 ISZERO PUSH2 0x89 JUMPI PUSH1 0x0 DUP1 REVERT JUMPDEST POP PUSH2 0xA4 PUSH1 0x4 DUP1 CALLDATASIZE SUB DUP2 ADD SWAP1 PUSH2 0x9F SWAP2 SWAP1 PUSH2 0x55C JUMP JUMPDEST PUSH2 0xED JUMP JUMPDEST STOP JUMPDEST CALLVALUE DUP1 ISZERO PUSH2 0xB2 JUMPI PUSH1 0x0 DUP1 REVERT JUMPDEST POP PUSH2 0xBB PUSH2 0x23C JUMP JUMPDEST PUSH1 0x40 MLOAD PUSH2 0xC8 SWAP2 SWAP1 PUSH2 0x746 JUMP JUMPDEST PUSH1 0x40 MLOAD DUP1 SWAP2 SUB SWAP1 RETURN JUMPDEST PUSH2 0xEB PUSH1 0x4 DUP1 CALLDATASIZE SUB DUP2 ADD SWAP1 PUSH2 0xE6 SWAP2 SWAP1 PUSH2 0x585 JUMP JUMPDEST PUSH2 0x2CA JUMP JUMPDEST STOP JUMPDEST PUSH1 0x0 DUP1 DUP3 PUSH20 0xFFFFFFFFFFFFFFFFFFFFFFFFFFFFFFFFFFFFFFFF AND PUSH1 0x6F PUSH1 0x40 MLOAD PUSH1 0x24 ADD PUSH1 0x40 MLOAD PUSH1 0x20 DUP2 DUP4 SUB SUB DUP2 MSTORE SWAP1 PUSH1 0x40 MSTORE PUSH32 0x7FA40C3E00000000000000000000000000000000000000000000000000000000 PUSH28 0xFFFFFFFFFFFFFFFFFFFFFFFFFFFFFFFFFFFFFFFFFFFFFFFFFFFFFFFF NOT AND PUSH1 0x20 DUP3 ADD DUP1 MLOAD PUSH28 0xFFFFFFFFFFFFFFFFFFFFFFFFFFFFFFFFFFFFFFFFFFFFFFFFFFFFFFFF DUP4 DUP2 DUP4 AND OR DUP4 MSTORE POP POP POP POP PUSH1 0x40 MLOAD PUSH2 0x199 SWAP2 SWAP1 PUSH2 0x6F3 JUMP JUMPDEST PUSH1 0x0 PUSH1 0x40 MLOAD DUP1 DUP4 SUB DUP2 DUP6 DUP8 GAS CALL SWAP3 POP POP POP RETURNDATASIZE DUP1 PUSH1 0x0 DUP2 EQ PUSH2 0x1D6 JUMPI PUSH1 0x40 MLOAD SWAP2 POP PUSH1 0x1F NOT PUSH1 0x3F RETURNDATASIZE ADD AND DUP3 ADD PUSH1 0x40 MSTORE RETURNDATASIZE DUP3 MSTORE RETURNDATASIZE PUSH1 0x0 PUSH1 0x20 DUP5 ADD RETURNDATACOPY PUSH2 0x1DB JUMP JUMPDEST PUSH1 0x60 SWAP2 POP JUMPDEST POP SWAP2 POP SWAP2 POP DUP2 PUSH2 0x220 JUMPI PUSH1 0x40 MLOAD PUSH32 0x8C379A000000000000000000000000000000000000000000000000000000000 DUP2 MSTORE PUSH1 0x4 ADD PUSH2 0x217 SWAP1 PUSH2 0x798 JUMP JUMPDEST PUSH1 0x40 MLOAD DUP1 SWAP2 SUB SWAP1 REVERT JUMPDEST DUP1 PUSH1 0x0 SWAP1 DUP1 MLOAD SWAP1 PUSH1 0x20 ADD SWAP1 PUSH2 0x236 SWAP3 SWAP2 SWAP1 PUSH2 0x427 JUMP JUMPDEST POP POP POP POP JUMP JUMPDEST PUSH1 0x0 DUP1 SLOAD PUSH2 0x249 SWAP1 PUSH2 0x8CF JUMP JUMPDEST DUP1 PUSH1 0x1F ADD PUSH1 0x20 DUP1 SWAP2 DIV MUL PUSH1 0x20 ADD PUSH1 0x40 MLOAD SWAP1 DUP2 ADD PUSH1 0x40 MSTORE DUP1 SWAP3 SWAP2 SWAP1 DUP2 DUP2 MSTORE PUSH1 0x20 ADD DUP3 DUP1 SLOAD PUSH2 0x275 SWAP1 PUSH2 0x8CF JUMP JUMPDEST DUP1 ISZERO PUSH2 0x2C2 JUMPI DUP1 PUSH1 0x1F LT PUSH2 0x297 JUMPI PUSH2 0x100 DUP1 DUP4 SLOAD DIV MUL DUP4 MSTORE SWAP2 PUSH1 0x20 ADD SWAP2 PUSH2 0x2C2 JUMP JUMPDEST DUP3 ADD SWAP2 SWAP1 PUSH1 0x0 MSTORE PUSH1 0x20 PUSH1 0x0 KECCAK256 SWAP1 JUMPDEST DUP2 SLOAD DUP2 MSTORE SWAP1 PUSH1 0x1 ADD SWAP1 PUSH1 0x20 ADD DUP1 DUP4 GT PUSH2 0x2A5 JUMPI DUP3 SWAP1 SUB PUSH1 0x1F AND DUP3 ADD SWAP2 JUMPDEST POP POP POP POP POP DUP2 JUMP JUMPDEST PUSH1 0x0 DUP1 DUP5 PUSH20 0xFFFFFFFFFFFFFFFFFFFFFFFFFFFFFFFFFFFFFFFF AND DUP4 DUP6 DUP6 PUSH1 0x40 MLOAD PUSH1 0x24 ADD PUSH2 0x2F8 SWAP3 SWAP2 SWAP1 PUSH2 0x768 JUMP JUMPDEST PUSH1 0x40 MLOAD PUSH1 0x20 DUP2 DUP4 SUB SUB DUP2 MSTORE SWAP1 PUSH1 0x40 MSTORE PUSH32 0x24CCAB8F00000000000000000000000000000000000000000000000000000000 PUSH28 0xFFFFFFFFFFFFFFFFFFFFFFFFFFFFFFFFFFFFFFFFFFFFFFFFFFFFFFFF NOT AND PUSH1 0x20 DUP3 ADD DUP1 MLOAD PUSH28 0xFFFFFFFFFFFFFFFFFFFFFFFFFFFFFFFFFFFFFFFFFFFFFFFFFFFFFFFF DUP4 DUP2 DUP4 AND OR DUP4 MSTORE POP POP POP POP PUSH1 0x40 MLOAD PUSH2 0x382 SWAP2 SWAP1 PUSH2 0x6F3 JUMP JUMPDEST PUSH1 0x0 PUSH1 0x40 MLOAD DUP1 DUP4 SUB DUP2 DUP6 DUP8 GAS CALL SWAP3 POP POP POP RETURNDATASIZE DUP1 PUSH1 0x0 DUP2 EQ PUSH2 0x3BF JUMPI PUSH1 0x40 MLOAD SWAP2 POP PUSH1 0x1F NOT PUSH1 0x3F RETURNDATASIZE ADD AND DUP3 ADD PUSH1 0x40 MSTORE RETURNDATASIZE DUP3 MSTORE RETURNDATASIZE PUSH1 0x0 PUSH1 0x20 DUP5 ADD RETURNDATACOPY PUSH2 0x3C4 JUMP JUMPDEST PUSH1 0x60 SWAP2 POP JUMPDEST POP SWAP2 POP SWAP2 POP DUP2 PUSH2 0x409 JUMPI PUSH1 0x40 MLOAD PUSH32 0x8C379A000000000000000000000000000000000000000000000000000000000 DUP2 MSTORE PUSH1 0x4 ADD PUSH2 0x400 SWAP1 PUSH2 0x798 JUMP JUMPDEST PUSH1 0x40 MLOAD DUP1 SWAP2 SUB SWAP1 REVERT JUMPDEST DUP1 PUSH1 0x0 SWAP1 DUP1 MLOAD SWAP1 PUSH1 0x20 ADD SWAP1 PUSH2 0x41F SWAP3 SWAP2 SWAP1 PUSH2 0x427 JUMP JUMPDEST POP POP POP POP POP POP JUMP JUMPDEST DUP3 DUP1 SLOAD PUSH2 0x433 SWAP1 PUSH2 0x8CF JUMP JUMPDEST SWAP1 PUSH1 0x0 MSTORE PUSH1 0x20 PUSH1 0x0 KECCAK256 SWAP1 PUSH1 0x1F ADD PUSH1 0x20 SWAP1 DIV DUP2 ADD SWAP3 DUP3 PUSH2 0x455 JUMPI PUSH1 0x0 DUP6 SSTORE PUSH2 0x49C JUMP JUMPDEST DUP3 PUSH1 0x1F LT PUSH2 0x46E JUMPI DUP1 MLOAD PUSH1 0xFF NOT AND DUP4 DUP1 ADD OR DUP6 SSTORE PUSH2 0x49C JUMP JUMPDEST DUP3 DUP1 ADD PUSH1 0x1 ADD DUP6 SSTORE DUP3 ISZERO PUSH2 0x49C JUMPI SWAP2 DUP3 ADD JUMPDEST DUP3 DUP2 GT ISZERO PUSH2 0x49B JUMPI DUP3 MLOAD DUP3 SSTORE SWAP2 PUSH1 0x20 ADD SWAP2 SWAP1 PUSH1 0x1 ADD SWAP1 PUSH2 0x480 JUMP JUMPDEST JUMPDEST POP SWAP1 POP PUSH2 0x4A9 SWAP2 SWAP1 PUSH2 0x4AD JUMP JUMPDEST POP SWAP1 JUMP JUMPDEST JUMPDEST DUP1 DUP3 GT ISZERO PUSH2 0x4C6 JUMPI PUSH1 0x0 DUP2 PUSH1 0x0 SWAP1 SSTORE POP PUSH1 0x1 ADD PUSH2 0x4AE JUMP JUMPDEST POP SWAP1 JUMP JUMPDEST PUSH1 0x0 PUSH2 0x4DD PUSH2 0x4D8 DUP5 PUSH2 0x7DD JUMP JUMPDEST PUSH2 0x7B8 JUMP JUMPDEST SWAP1 POP DUP3 DUP2 MSTORE PUSH1 0x20 DUP2 ADD DUP5 DUP5 DUP5 ADD GT ISZERO PUSH2 0x4F5 JUMPI PUSH1 0x0 DUP1 REVERT JUMPDEST PUSH2 0x500 DUP5 DUP3 DUP6 PUSH2 0x88D JUMP JUMPDEST POP SWAP4 SWAP3 POP POP POP JUMP JUMPDEST PUSH1 0x0 DUP2 CALLDATALOAD SWAP1 POP PUSH2 0x517 DUP2 PUSH2 0x9CD JUMP JUMPDEST SWAP3 SWAP2 POP POP JUMP JUMPDEST PUSH1 0x0 DUP3 PUSH1 0x1F DUP4 ADD SLT PUSH2 0x52E JUMPI PUSH1 0x0 DUP1 REVERT JUMPDEST DUP2 CALLDATALOAD PUSH2 0x53E DUP5 DUP3 PUSH1 0x20 DUP7 ADD PUSH2 0x4CA JUMP JUMPDEST SWAP2 POP POP SWAP3 SWAP2 POP POP JUMP JUMPDEST PUSH1 0x0 DUP2 CALLDATALOAD SWAP1 POP PUSH2 0x556 DUP2 PUSH2 0x9E4 JUMP JUMPDEST SWAP3 SWAP2 POP POP JUMP JUMPDEST PUSH1 0x0 PUSH1 0x20 DUP3 DUP5 SUB SLT ISZERO PUSH2 0x56E JUMPI PUSH1 0x0 DUP1 REVERT JUMPDEST PUSH1 0x0 PUSH2 0x57C DUP5 DUP3 DUP6 ADD PUSH2 0x508 JUMP JUMPDEST SWAP2 POP POP SWAP3 SWAP2 POP POP JUMP JUMPDEST PUSH1 0x0 DUP1 PUSH1 0x0 PUSH1 0x60 DUP5 DUP7 SUB SLT ISZERO PUSH2 0x59A JUMPI PUSH1 0x0 DUP1 REVERT JUMPDEST PUSH1 0x0 PUSH2 0x5A8 DUP7 DUP3 DUP8 ADD PUSH2 0x508 JUMP JUMPDEST SWAP4 POP POP PUSH1 0x20 DUP5 ADD CALLDATALOAD PUSH8 0xFFFFFFFFFFFFFFFF DUP2 GT ISZERO PUSH2 0x5C5 JUMPI PUSH1 0x0 DUP1 REVERT JUMPDEST PUSH2 0x5D1 DUP7 DUP3 DUP8 ADD PUSH2 0x51D JUMP JUMPDEST SWAP3 POP POP PUSH1 0x40 PUSH2 0x5E2 DUP7 DUP3 DUP8 ADD PUSH2 0x547 JUMP JUMPDEST SWAP2 POP POP SWAP3 POP SWAP3 POP SWAP3 JUMP JUMPDEST PUSH2 0x5F5 DUP2 PUSH2 0x851 JUMP JUMPDEST DUP3 MSTORE POP POP JUMP JUMPDEST PUSH1 0x0 PUSH2 0x606 DUP3 PUSH2 0x80E JUMP JUMPDEST PUSH2 0x610 DUP2 DUP6 PUSH2 0x824 JUMP JUMPDEST SWAP4 POP PUSH2 0x620 DUP2 DUP6 PUSH1 0x20 DUP7 ADD PUSH2 0x89C JUMP JUMPDEST PUSH2 0x629 DUP2 PUSH2 0x990 JUMP JUMPDEST DUP5 ADD SWAP2 POP POP SWAP3 SWAP2 POP POP JUMP JUMPDEST PUSH1 0x0 PUSH2 0x63F DUP3 PUSH2 0x80E JUMP JUMPDEST PUSH2 0x649 DUP2 DUP6 PUSH2 0x835 JUMP JUMPDEST SWAP4 POP PUSH2 0x659 DUP2 DUP6 PUSH1 0x20 DUP7 ADD PUSH2 0x89C JUMP JUMPDEST DUP1 DUP5 ADD SWAP2 POP POP SWAP3 SWAP2 POP POP JUMP JUMPDEST PUSH1 0x0 PUSH2 0x670 DUP3 PUSH2 0x819 JUMP JUMPDEST PUSH2 0x67A DUP2 DUP6 PUSH2 0x840 JUMP JUMPDEST SWAP4 POP PUSH2 0x68A DUP2 DUP6 PUSH1 0x20 DUP7 ADD PUSH2 0x89C JUMP JUMPDEST PUSH2 0x693 DUP2 PUSH2 0x990 JUMP JUMPDEST DUP5 ADD SWAP2 POP POP SWAP3 SWAP2 POP POP JUMP JUMPDEST PUSH1 0x0 PUSH2 0x6AB PUSH1 0xB DUP4 PUSH2 0x840 JUMP JUMPDEST SWAP2 POP PUSH2 0x6B6 DUP3 PUSH2 0x9A1 JUMP JUMPDEST PUSH1 0x20 DUP3 ADD SWAP1 POP SWAP2 SWAP1 POP JUMP JUMPDEST PUSH1 0x0 PUSH2 0x6CE PUSH1 0x0 DUP4 PUSH2 0x840 JUMP JUMPDEST SWAP2 POP PUSH2 0x6D9 DUP3 PUSH2 0x9CA JUMP JUMPDEST PUSH1 0x0 DUP3 ADD SWAP1 POP SWAP2 SWAP1 POP JUMP JUMPDEST PUSH2 0x6ED DUP2 PUSH2 0x883 JUMP JUMPDEST DUP3 MSTORE POP POP JUMP JUMPDEST PUSH1 0x0 PUSH2 0x6FF DUP3 DUP5 PUSH2 0x634 JUMP JUMPDEST SWAP2 POP DUP2 SWAP1 POP SWAP3 SWAP2 POP POP JUMP JUMPDEST PUSH1 0x0 PUSH1 0x60 DUP3 ADD SWAP1 POP PUSH2 0x71F PUSH1 0x0 DUP4 ADD DUP6 PUSH2 0x5EC JUMP JUMPDEST PUSH2 0x72C PUSH1 0x20 DUP4 ADD DUP5 PUSH2 0x6E4 JUMP JUMPDEST DUP2 DUP2 SUB PUSH1 0x40 DUP4 ADD MSTORE PUSH2 0x73D DUP2 PUSH2 0x6C1 JUMP JUMPDEST SWAP1 POP SWAP4 SWAP3 POP POP POP JUMP JUMPDEST PUSH1 0x0 PUSH1 0x20 DUP3 ADD SWAP1 POP DUP2 DUP2 SUB PUSH1 0x0 DUP4 ADD MSTORE PUSH2 0x760 DUP2 DUP5 PUSH2 0x5FB JUMP JUMPDEST SWAP1 POP SWAP3 SWAP2 POP POP JUMP JUMPDEST PUSH1 0x0 PUSH1 0x40 DUP3 ADD SWAP1 POP DUP2 DUP2 SUB PUSH1 0x0 DUP4 ADD MSTORE PUSH2 0x782 DUP2 DUP6 PUSH2 0x665 JUMP JUMPDEST SWAP1 POP PUSH2 0x791 PUSH1 0x20 DUP4 ADD DUP5 PUSH2 0x6E4 JUMP JUMPDEST SWAP4 SWAP3 POP POP POP JUMP JUMPDEST PUSH1 0x0 PUSH1 0x20 DUP3 ADD SWAP1 POP DUP2 DUP2 SUB PUSH1 0x0 DUP4 ADD MSTORE PUSH2 0x7B1 DUP2 PUSH2 0x69E JUMP JUMPDEST SWAP1 POP SWAP2 SWAP1 POP JUMP JUMPDEST PUSH1 0x0 PUSH2 0x7C2 PUSH2 0x7D3 JUMP JUMPDEST SWAP1 POP PUSH2 0x7CE DUP3 DUP3 PUSH2 0x901 JUMP JUMPDEST SWAP2 SWAP1 POP JUMP JUMPDEST PUSH1 0x0 PUSH1 0x40 MLOAD SWAP1 POP SWAP1 JUMP JUMPDEST PUSH1 0x0 PUSH8 0xFFFFFFFFFFFFFFFF DUP3 GT ISZERO PUSH2 0x7F8 JUMPI PUSH2 0x7F7 PUSH2 0x961 JUMP JUMPDEST JUMPDEST PUSH2 0x801 DUP3 PUSH2 0x990 JUMP JUMPDEST SWAP1 POP PUSH1 0x20 DUP2 ADD SWAP1 POP SWAP2 SWAP1 POP JUMP JUMPDEST PUSH1 0x0 DUP2 MLOAD SWAP1 POP SWAP2 SWAP1 POP JUMP JUMPDEST PUSH1 0x0 DUP2 MLOAD SWAP1 POP SWAP2 SWAP1 POP JUMP JUMPDEST PUSH1 0x0 DUP3 DUP3 MSTORE PUSH1 0x20 DUP3 ADD SWAP1 POP SWAP3 SWAP2 POP POP JUMP JUMPDEST PUSH1 0x0 DUP2 SWAP1 POP SWAP3 SWAP2 POP POP JUMP JUMPDEST PUSH1 0x0 DUP3 DUP3 MSTORE PUSH1 0x20 DUP3 ADD SWAP1 POP SWAP3 SWAP2 POP POP JUMP JUMPDEST PUSH1 0x0 PUSH2 0x85C DUP3 PUSH2 0x863 JUMP JUMPDEST SWAP1 POP SWAP2 SWAP1 POP JUMP JUMPDEST PUSH1 0x0 PUSH20 0xFFFFFFFFFFFFFFFFFFFFFFFFFFFFFFFFFFFFFFFF DUP3 AND SWAP1 POP SWAP2 SWAP1 POP JUMP JUMPDEST PUSH1 0x0 DUP2 SWAP1 POP SWAP2 SWAP1 POP JUMP JUMPDEST DUP3 DUP2 DUP4 CALLDATACOPY PUSH1 0x0 DUP4 DUP4 ADD MSTORE POP POP POP JUMP JUMPDEST PUSH1 0x0 JUMPDEST DUP4 DUP2 LT ISZERO PUSH2 0x8BA JUMPI DUP1 DUP3 ADD MLOAD DUP2 DUP5 ADD MSTORE PUSH1 0x20 DUP2 ADD SWAP1 POP PUSH2 0x89F JUMP JUMPDEST DUP4 DUP2 GT ISZERO PUSH2 0x8C9 JUMPI PUSH1 0x0 DUP5 DUP5 ADD MSTORE JUMPDEST POP POP POP POP JUMP JUMPDEST PUSH1 0x0 PUSH1 0x2 DUP3 DIV SWAP1 POP PUSH1 0x1 DUP3 AND DUP1 PUSH2 0x8E7 JUMPI PUSH1 0x7F DUP3 AND SWAP2 POP JUMPDEST PUSH1 0x20 DUP3 LT DUP2 EQ ISZERO PUSH2 0x8FB JUMPI PUSH2 0x8FA PUSH2 0x932 JUMP JUMPDEST JUMPDEST POP SWAP2 SWAP1 POP JUMP JUMPDEST PUSH2 0x90A DUP3 PUSH2 0x990 JUMP JUMPDEST DUP2 ADD DUP2 DUP2 LT PUSH8 0xFFFFFFFFFFFFFFFF DUP3 GT OR ISZERO PUSH2 0x929 JUMPI PUSH2 0x928 PUSH2 0x961 JUMP JUMPDEST JUMPDEST DUP1 PUSH1 0x40 MSTORE POP POP POP JUMP JUMPDEST PUSH32 0x4E487B7100000000000000000000000000000000000000000000000000000000 PUSH1 0x0 MSTORE PUSH1 0x22 PUSH1 0x4 MSTORE PUSH1 0x24 PUSH1 0x0 REVERT JUMPDEST PUSH32 0x4E487B7100000000000000000000000000000000000000000000000000000000 PUSH1 0x0 MSTORE PUSH1 0x41 PUSH1 0x4 MSTORE PUSH1 0x24 PUSH1 0x0 REVERT JUMPDEST PUSH1 0x0 PUSH1 0x1F NOT PUSH1 0x1F DUP4 ADD AND SWAP1 POP SWAP2 SWAP1 POP JUMP JUMPDEST PUSH32 0x63616C6C206661696C6564000000000000000000000000000000000000000000 PUSH1 0x0 DUP3 ADD MSTORE POP JUMP JUMPDEST POP JUMP JUMPDEST PUSH2 0x9D6 DUP2 PUSH2 0x851 JUMP JUMPDEST DUP2 EQ PUSH2 0x9E1 JUMPI PUSH1 0x0 DUP1 REVERT JUMPDEST POP JUMP JUMPDEST PUSH2 0x9ED DUP2 PUSH2 0x883 JUMP JUMPDEST DUP2 EQ PUSH2 0x9F8 JUMPI PUSH1 0x0 DUP1 REVERT JUMPDEST POP JUMP INVALID LOG2 PUSH5 0x6970667358 0x22 SLT KECCAK256 0xBB PUSH2 0x318A 0xE5 PUSH17 0x43AA30B6247260C02FA32FA7DC317B31FA 0xAD 0xB5 0xB0 DUP4 0xB0 PUSH4 0x76480164 PUSH20 0x6F6C634300080400330000000000000000000000 "
				},
				"gasEstimates": {
					"creation": {
						"codeDepositCost": "521800",
						"executionCost": "556",
						"totalCost": "522356"
					},
					"external": {
						"callFoo(address,string,uint256)": "infinite",
						"callNonExistentFunction(address)": "infinite",
						"data()": "infinite"
					}
				},
				"methodIdentifiers": {
					"callFoo(address,string,uint256)": "dd5f151e",
					"callNonExistentFunction(address)": "172a57d7",
					"data()": "73d4a13a"
				}
			},
			"storageLayout": {
				"storage": [
					{
						"astId": 64,
						"contract": "contracts/base/CallTest.sol:Caller",
						"label": "data",
						"offset": 0,
						"slot": "0",
						"type": "t_bytes_storage"
					}
				],
				"types": {
					"t_bytes_storage": {
						"encoding": "bytes",
						"label": "bytes",
						"numberOfBytes": "32"
					}
				}
			},
			"userdoc": {
				"kind": "user",
				"methods": {},
				"version": 1
			}
		}
	}
}