{
	"contracts/base/CrowdFund.sol": {
		"CrowdFund": {
			"abi": [
				{
					"inputs": [
						{
							"internalType": "address",
							"name": "_token",
							"type": "address"
						}
					],
					"stateMutability": "nonpayable",
					"type": "constructor"
				},
				{
					"anonymous": false,
					"inputs": [
						{
							"indexed": false,
							"internalType": "uint256",
							"name": "_no",
							"type": "uint256"
						},
						{
							"indexed": false,
							"internalType": "uint256",
							"name": "amount",
							"type": "uint256"
						},
						{
							"indexed": false,
							"internalType": "address",
							"name": "addr",
							"type": "address"
						}
					],
					"name": "BackDonate",
					"type": "event"
				},
				{
					"anonymous": false,
					"inputs": [
						{
							"indexed": false,
							"internalType": "uint256",
							"name": "no",
							"type": "uint256"
						}
					],
					"name": "Cancel",
					"type": "event"
				},
				{
					"anonymous": false,
					"inputs": [
						{
							"indexed": false,
							"internalType": "address",
							"name": "founder",
							"type": "address"
						},
						{
							"indexed": false,
							"internalType": "uint32",
							"name": "_startTime",
							"type": "uint32"
						},
						{
							"indexed": false,
							"internalType": "uint32",
							"name": "_endTime",
							"type": "uint32"
						},
						{
							"indexed": false,
							"internalType": "uint256",
							"name": "target",
							"type": "uint256"
						},
						{
							"indexed": false,
							"internalType": "uint256",
							"name": "no",
							"type": "uint256"
						}
					],
					"name": "CreateCrowdFund",
					"type": "event"
				},
				{
					"anonymous": false,
					"inputs": [
						{
							"indexed": false,
							"internalType": "uint256",
							"name": "_no",
							"type": "uint256"
						},
						{
							"indexed": false,
							"internalType": "address",
							"name": "addr",
							"type": "address"
						},
						{
							"indexed": false,
							"internalType": "uint256",
							"name": "amount",
							"type": "uint256"
						}
					],
					"name": "Donate",
					"type": "event"
				},
				{
					"anonymous": false,
					"inputs": [
						{
							"indexed": false,
							"internalType": "uint256",
							"name": "_no",
							"type": "uint256"
						},
						{
							"indexed": false,
							"internalType": "uint256",
							"name": "amount",
							"type": "uint256"
						},
						{
							"indexed": false,
							"internalType": "address",
							"name": "addr",
							"type": "address"
						}
					],
					"name": "Refund",
					"type": "event"
				},
				{
					"anonymous": false,
					"inputs": [
						{
							"indexed": false,
							"internalType": "uint256",
							"name": "no",
							"type": "uint256"
						},
						{
							"indexed": false,
							"internalType": "uint256",
							"name": "amount",
							"type": "uint256"
						}
					],
					"name": "Withdraw",
					"type": "event"
				},
				{
					"inputs": [
						{
							"internalType": "uint256",
							"name": "_no",
							"type": "uint256"
						},
						{
							"internalType": "uint256",
							"name": "amount",
							"type": "uint256"
						}
					],
					"name": "backDonate",
					"outputs": [],
					"stateMutability": "nonpayable",
					"type": "function"
				},
				{
					"inputs": [
						{
							"internalType": "uint256",
							"name": "_no",
							"type": "uint256"
						}
					],
					"name": "cancel",
					"outputs": [],
					"stateMutability": "nonpayable",
					"type": "function"
				},
				{
					"inputs": [
						{
							"internalType": "uint256",
							"name": "",
							"type": "uint256"
						},
						{
							"internalType": "address",
							"name": "",
							"type": "address"
						}
					],
					"name": "countAddrAmount",
					"outputs": [
						{
							"internalType": "uint256",
							"name": "",
							"type": "uint256"
						}
					],
					"stateMutability": "view",
					"type": "function"
				},
				{
					"inputs": [
						{
							"internalType": "uint256",
							"name": "target",
							"type": "uint256"
						},
						{
							"internalType": "uint32",
							"name": "_startTime",
							"type": "uint32"
						},
						{
							"internalType": "uint32",
							"name": "second",
							"type": "uint32"
						}
					],
					"name": "createCrowdFund",
					"outputs": [],
					"stateMutability": "nonpayable",
					"type": "function"
				},
				{
					"inputs": [
						{
							"internalType": "uint256",
							"name": "",
							"type": "uint256"
						}
					],
					"name": "crowdInfoNum",
					"outputs": [
						{
							"internalType": "uint32",
							"name": "startTime",
							"type": "uint32"
						},
						{
							"internalType": "uint32",
							"name": "endTime",
							"type": "uint32"
						},
						{
							"internalType": "uint256",
							"name": "targetFund",
							"type": "uint256"
						},
						{
							"internalType": "uint256",
							"name": "pledged",
							"type": "uint256"
						},
						{
							"internalType": "uint256",
							"name": "roundNumber",
							"type": "uint256"
						},
						{
							"internalType": "bool",
							"name": "startStatus",
							"type": "bool"
						},
						{
							"internalType": "bool",
							"name": "endStatus",
							"type": "bool"
						}
					],
					"stateMutability": "view",
					"type": "function"
				},
				{
					"inputs": [
						{
							"internalType": "uint256",
							"name": "_no",
							"type": "uint256"
						},
						{
							"internalType": "uint256",
							"name": "amount",
							"type": "uint256"
						}
					],
					"name": "donate",
					"outputs": [],
					"stateMutability": "nonpayable",
					"type": "function"
				},
				{
					"inputs": [],
					"name": "founder",
					"outputs": [
						{
							"internalType": "address",
							"name": "",
							"type": "address"
						}
					],
					"stateMutability": "view",
					"type": "function"
				},
				{
					"inputs": [],
					"name": "no",
					"outputs": [
						{
							"internalType": "uint256",
							"name": "",
							"type": "uint256"
						}
					],
					"stateMutability": "view",
					"type": "function"
				},
				{
					"inputs": [
						{
							"internalType": "uint256",
							"name": "_no",
							"type": "uint256"
						}
					],
					"name": "refund",
					"outputs": [],
					"stateMutability": "nonpayable",
					"type": "function"
				},
				{
					"inputs": [],
					"name": "token",
					"outputs": [
						{
							"internalType": "contract IERC20",
							"name": "",
							"type": "address"
						}
					],
					"stateMutability": "view",
					"type": "function"
				},
				{
					"inputs": [
						{
							"internalType": "uint256",
							"name": "_no",
							"type": "uint256"
						},
						{
							"internalType": "uint256",
							"name": "amount",
							"type": "uint256"
						}
					],
					"name": "withdraw",
					"outputs": [],
					"stateMutability": "nonpayable",
					"type": "function"
				}
			],
			"devdoc": {
				"kind": "dev",
				"methods": {},
				"version": 1
			},
			"evm": {
				"assembly": "    /* \"contracts/base/CrowdFund.sol\":868:5567  contract CrowdFund {\r... */\n  mstore(0x40, 0xa0)\n    /* \"contracts/base/CrowdFund.sol\":2048:2146  constructor(address _token) {\r... */\n  callvalue\n  dup1\n  iszero\n  tag_1\n  jumpi\n  0x00\n  dup1\n  revert\ntag_1:\n  pop\n  mload(0x40)\n  sub(codesize, bytecodeSize)\n  dup1\n  bytecodeSize\n  dup4\n  codecopy\n  dup2\n  dup2\n  add\n  0x40\n  mstore\n  dup2\n  add\n  swap1\n  tag_2\n  swap2\n  swap1\n  tag_3\n  jump\t// in\ntag_2:\n    /* \"contracts/base/CrowdFund.sol\":2101:2107  _token */\n  dup1\n    /* \"contracts/base/CrowdFund.sol\":2086:2108  token = IERC20(_token) */\n  0xffffffffffffffffffffffffffffffffffffffff\n  and\n  0x80\n  dup2\n  0xffffffffffffffffffffffffffffffffffffffff\n  and\n  0x60\n  shl\n  dup2\n  mstore\n  pop\n  pop\n    /* \"contracts/base/CrowdFund.sol\":2128:2138  msg.sender */\n  caller\n    /* \"contracts/base/CrowdFund.sol\":2118:2125  founder */\n  0x02\n  0x00\n    /* \"contracts/base/CrowdFund.sol\":2118:2138  founder = msg.sender */\n  0x0100\n  exp\n  dup2\n  sload\n  dup2\n  0xffffffffffffffffffffffffffffffffffffffff\n  mul\n  not\n  and\n  swap1\n  dup4\n  0xffffffffffffffffffffffffffffffffffffffff\n  and\n  mul\n  or\n  swap1\n  sstore\n  pop\n    /* \"contracts/base/CrowdFund.sol\":2048:2146  constructor(address _token) {\r... */\n  pop\n    /* \"contracts/base/CrowdFund.sol\":868:5567  contract CrowdFund {\r... */\n  jump(tag_6)\n    /* \"#utility.yul\":7:150   */\ntag_8:\n    /* \"#utility.yul\":64:69   */\n  0x00\n    /* \"#utility.yul\":95:101   */\n  dup2\n    /* \"#utility.yul\":89:102   */\n  mload\n    /* \"#utility.yul\":80:102   */\n  swap1\n  pop\n    /* \"#utility.yul\":111:144   */\n  tag_10\n    /* \"#utility.yul\":138:143   */\n  dup2\n    /* \"#utility.yul\":111:144   */\n  tag_11\n  jump\t// in\ntag_10:\n    /* \"#utility.yul\":70:150   */\n  swap3\n  swap2\n  pop\n  pop\n  jump\t// out\n    /* \"#utility.yul\":156:440   */\ntag_3:\n    /* \"#utility.yul\":226:232   */\n  0x00\n    /* \"#utility.yul\":275:277   */\n  0x20\n    /* \"#utility.yul\":263:272   */\n  dup3\n    /* \"#utility.yul\":254:261   */\n  dup5\n    /* \"#utility.yul\":250:273   */\n  sub\n    /* \"#utility.yul\":246:278   */\n  slt\n    /* \"#utility.yul\":243:245   */\n  iszero\n  tag_13\n  jumpi\n    /* \"#utility.yul\":291:292   */\n  0x00\n    /* \"#utility.yul\":288:289   */\n  dup1\n    /* \"#utility.yul\":281:293   */\n  revert\n    /* \"#utility.yul\":243:245   */\ntag_13:\n    /* \"#utility.yul\":334:335   */\n  0x00\n    /* \"#utility.yul\":359:423   */\n  tag_14\n    /* \"#utility.yul\":415:422   */\n  dup5\n    /* \"#utility.yul\":406:412   */\n  dup3\n    /* \"#utility.yul\":395:404   */\n  dup6\n    /* \"#utility.yul\":391:413   */\n  add\n    /* \"#utility.yul\":359:423   */\n  tag_8\n  jump\t// in\ntag_14:\n    /* \"#utility.yul\":349:423   */\n  swap2\n  pop\n    /* \"#utility.yul\":305:433   */\n  pop\n    /* \"#utility.yul\":233:440   */\n  swap3\n  swap2\n  pop\n  pop\n  jump\t// out\n    /* \"#utility.yul\":446:542   */\ntag_15:\n    /* \"#utility.yul\":483:490   */\n  0x00\n    /* \"#utility.yul\":512:536   */\n  tag_17\n    /* \"#utility.yul\":530:535   */\n  dup3\n    /* \"#utility.yul\":512:536   */\n  tag_18\n  jump\t// in\ntag_17:\n    /* \"#utility.yul\":501:536   */\n  swap1\n  pop\n    /* \"#utility.yul\":491:542   */\n  swap2\n  swap1\n  pop\n  jump\t// out\n    /* \"#utility.yul\":548:674   */\ntag_18:\n    /* \"#utility.yul\":585:592   */\n  0x00\n    /* \"#utility.yul\":625:667   */\n  0xffffffffffffffffffffffffffffffffffffffff\n    /* \"#utility.yul\":618:623   */\n  dup3\n    /* \"#utility.yul\":614:668   */\n  and\n    /* \"#utility.yul\":603:668   */\n  swap1\n  pop\n    /* \"#utility.yul\":593:674   */\n  swap2\n  swap1\n  pop\n  jump\t// out\n    /* \"#utility.yul\":680:802   */\ntag_11:\n    /* \"#utility.yul\":753:777   */\n  tag_21\n    /* \"#utility.yul\":771:776   */\n  dup2\n    /* \"#utility.yul\":753:777   */\n  tag_15\n  jump\t// in\ntag_21:\n    /* \"#utility.yul\":746:751   */\n  dup2\n    /* \"#utility.yul\":743:778   */\n  eq\n    /* \"#utility.yul\":733:735   */\n  tag_22\n  jumpi\n    /* \"#utility.yul\":792:793   */\n  0x00\n    /* \"#utility.yul\":789:790   */\n  dup1\n    /* \"#utility.yul\":782:794   */\n  revert\n    /* \"#utility.yul\":733:735   */\ntag_22:\n    /* \"#utility.yul\":723:802   */\n  pop\n  jump\t// out\n    /* \"contracts/base/CrowdFund.sol\":868:5567  contract CrowdFund {\r... */\ntag_6:\n  shr(0x60, mload(0x80))\n  codecopy(0x00, dataOffset(sub_0), dataSize(sub_0))\n  0x00\n  assignImmutable(\"0x9cce9eb03c9f29c6481fca9f0f942b15bef0bbbc47fda0ddb44df157019835d9\")\n  return(0x00, dataSize(sub_0))\nstop\n\nsub_0: assembly {\n        /* \"contracts/base/CrowdFund.sol\":868:5567  contract CrowdFund {\r... */\n      mstore(0x40, 0x80)\n      callvalue\n      dup1\n      iszero\n      tag_1\n      jumpi\n      0x00\n      dup1\n      revert\n    tag_1:\n      pop\n      jumpi(tag_2, lt(calldatasize, 0x04))\n      shr(0xe0, calldataload(0x00))\n      dup1\n      0x4b0529fb\n      gt\n      tag_14\n      jumpi\n      dup1\n      0x4b0529fb\n      eq\n      tag_8\n      jumpi\n      dup1\n      0x4d853ee5\n      eq\n      tag_9\n      jumpi\n      dup1\n      0xab2c44bf\n      eq\n      tag_10\n      jumpi\n      dup1\n      0xb6c52ae8\n      eq\n      tag_11\n      jumpi\n      dup1\n      0xdeb75501\n      eq\n      tag_12\n      jumpi\n      dup1\n      0xfc0c546a\n      eq\n      tag_13\n      jumpi\n      jump(tag_2)\n    tag_14:\n      dup1\n      0x0cdd53f6\n      eq\n      tag_3\n      jumpi\n      dup1\n      0x1569e51b\n      eq\n      tag_4\n      jumpi\n      dup1\n      0x278ecde1\n      eq\n      tag_5\n      jumpi\n      dup1\n      0x40e58ee5\n      eq\n      tag_6\n      jumpi\n      dup1\n      0x441a3e70\n      eq\n      tag_7\n      jumpi\n    tag_2:\n      0x00\n      dup1\n      revert\n        /* \"contracts/base/CrowdFund.sol\":3554:4066  function donate(uint _no,uint amount) external {\r... */\n    tag_3:\n      tag_15\n      0x04\n      dup1\n      calldatasize\n      sub\n      dup2\n      add\n      swap1\n      tag_16\n      swap2\n      swap1\n      tag_17\n      jump\t// in\n    tag_16:\n      tag_18\n      jump\t// in\n    tag_15:\n      stop\n        /* \"contracts/base/CrowdFund.sol\":1543:1589  mapping(uint => CrowdInfo) public crowdInfoNum */\n    tag_4:\n      tag_19\n      0x04\n      dup1\n      calldatasize\n      sub\n      dup2\n      add\n      swap1\n      tag_20\n      swap2\n      swap1\n      tag_21\n      jump\t// in\n    tag_20:\n      tag_22\n      jump\t// in\n    tag_19:\n      mload(0x40)\n      tag_23\n      swap8\n      swap7\n      swap6\n      swap5\n      swap4\n      swap3\n      swap2\n      swap1\n      tag_24\n      jump\t// in\n    tag_23:\n      mload(0x40)\n      dup1\n      swap2\n      sub\n      swap1\n      return\n        /* \"contracts/base/CrowdFund.sol\":4543:5035  function refund(uint _no) external {\r... */\n    tag_5:\n      tag_25\n      0x04\n      dup1\n      calldatasize\n      sub\n      dup2\n      add\n      swap1\n      tag_26\n      swap2\n      swap1\n      tag_21\n      jump\t// in\n    tag_26:\n      tag_27\n      jump\t// in\n    tag_25:\n      stop\n        /* \"contracts/base/CrowdFund.sol\":3017:3509  function cancel(uint _no) external{\r... */\n    tag_6:\n      tag_28\n      0x04\n      dup1\n      calldatasize\n      sub\n      dup2\n      add\n      swap1\n      tag_29\n      swap2\n      swap1\n      tag_21\n      jump\t// in\n    tag_29:\n      tag_30\n      jump\t// in\n    tag_28:\n      stop\n        /* \"contracts/base/CrowdFund.sol\":5080:5562  function withdraw(uint _no,uint amount) external {\r... */\n    tag_7:\n      tag_31\n      0x04\n      dup1\n      calldatasize\n      sub\n      dup2\n      add\n      swap1\n      tag_32\n      swap2\n      swap1\n      tag_17\n      jump\t// in\n    tag_32:\n      tag_33\n      jump\t// in\n    tag_31:\n      stop\n        /* \"contracts/base/CrowdFund.sol\":2189:2974  function createCrowdFund(uint256 target, uint32  _startTime,uint32 second) external {\r... */\n    tag_8:\n      tag_34\n      0x04\n      dup1\n      calldatasize\n      sub\n      dup2\n      add\n      swap1\n      tag_35\n      swap2\n      swap1\n      tag_36\n      jump\t// in\n    tag_35:\n      tag_37\n      jump\t// in\n    tag_34:\n      stop\n        /* \"contracts/base/CrowdFund.sol\":1619:1641  address public founder */\n    tag_9:\n      tag_38\n      tag_39\n      jump\t// in\n    tag_38:\n      mload(0x40)\n      tag_40\n      swap2\n      swap1\n      tag_41\n      jump\t// in\n    tag_40:\n      mload(0x40)\n      dup1\n      swap2\n      sub\n      swap1\n      return\n        /* \"contracts/base/CrowdFund.sol\":1439:1504  mapping(uint => mapping(address => uint)) public  countAddrAmount */\n    tag_10:\n      tag_42\n      0x04\n      dup1\n      calldatasize\n      sub\n      dup2\n      add\n      swap1\n      tag_43\n      swap2\n      swap1\n      tag_44\n      jump\t// in\n    tag_43:\n      tag_45\n      jump\t// in\n    tag_42:\n      mload(0x40)\n      tag_46\n      swap2\n      swap1\n      tag_47\n      jump\t// in\n    tag_46:\n      mload(0x40)\n      dup1\n      swap2\n      sub\n      swap1\n      return\n        /* \"contracts/base/CrowdFund.sol\":1686:1700  uint public no */\n    tag_11:\n      tag_48\n      tag_49\n      jump\t// in\n    tag_48:\n      mload(0x40)\n      tag_50\n      swap2\n      swap1\n      tag_47\n      jump\t// in\n    tag_50:\n      mload(0x40)\n      dup1\n      swap2\n      sub\n      swap1\n      return\n        /* \"contracts/base/CrowdFund.sol\":4117:4497  function backDonate(uint _no,uint amount) external{\r... */\n    tag_12:\n      tag_51\n      0x04\n      dup1\n      calldatasize\n      sub\n      dup2\n      add\n      swap1\n      tag_52\n      swap2\n      swap1\n      tag_17\n      jump\t// in\n    tag_52:\n      tag_53\n      jump\t// in\n    tag_51:\n      stop\n        /* \"contracts/base/CrowdFund.sol\":914:943  IERC20 public immutable token */\n    tag_13:\n      tag_54\n      tag_55\n      jump\t// in\n    tag_54:\n      mload(0x40)\n      tag_56\n      swap2\n      swap1\n      tag_57\n      jump\t// in\n    tag_56:\n      mload(0x40)\n      dup1\n      swap2\n      sub\n      swap1\n      return\n        /* \"contracts/base/CrowdFund.sol\":3554:4066  function donate(uint _no,uint amount) external {\r... */\n    tag_18:\n        /* \"contracts/base/CrowdFund.sol\":3612:3639  CrowdInfo storage crowdInfo */\n      0x00\n        /* \"contracts/base/CrowdFund.sol\":3642:3654  crowdInfoNum */\n      0x01\n        /* \"contracts/base/CrowdFund.sol\":3642:3659  crowdInfoNum[_no] */\n      0x00\n        /* \"contracts/base/CrowdFund.sol\":3655:3658  _no */\n      dup5\n        /* \"contracts/base/CrowdFund.sol\":3642:3659  crowdInfoNum[_no] */\n      dup2\n      mstore\n      0x20\n      add\n      swap1\n      dup2\n      mstore\n      0x20\n      add\n      0x00\n      keccak256\n        /* \"contracts/base/CrowdFund.sol\":3612:3659  CrowdInfo storage crowdInfo = crowdInfoNum[_no] */\n      swap1\n      pop\n        /* \"contracts/base/CrowdFund.sol\":3679:3688  crowdInfo */\n      dup1\n        /* \"contracts/base/CrowdFund.sol\":3679:3700  crowdInfo.startStatus */\n      0x04\n      add\n      0x00\n      swap1\n      sload\n      swap1\n      0x0100\n      exp\n      swap1\n      div\n      0xff\n      and\n        /* \"contracts/base/CrowdFund.sol\":3671:3714  require(crowdInfo.startStatus, \"crowd end\") */\n      tag_59\n      jumpi\n      mload(0x40)\n      0x08c379a000000000000000000000000000000000000000000000000000000000\n      dup2\n      mstore\n      0x04\n      add\n      tag_60\n      swap1\n      tag_61\n      jump\t// in\n    tag_60:\n      mload(0x40)\n      dup1\n      swap2\n      sub\n      swap1\n      revert\n    tag_59:\n        /* \"contracts/base/CrowdFund.sol\":3753:3762  crowdInfo */\n      dup1\n        /* \"contracts/base/CrowdFund.sol\":3753:3772  crowdInfo.startTime */\n      0x00\n      add\n      0x00\n      swap1\n      sload\n      swap1\n      0x0100\n      exp\n      swap1\n      div\n      0xffffffff\n      and\n        /* \"contracts/base/CrowdFund.sol\":3734:3772  block.timestamp >= crowdInfo.startTime */\n      0xffffffff\n      and\n        /* \"contracts/base/CrowdFund.sol\":3734:3749  block.timestamp */\n      timestamp\n        /* \"contracts/base/CrowdFund.sol\":3734:3772  block.timestamp >= crowdInfo.startTime */\n      lt\n      iszero\n        /* \"contracts/base/CrowdFund.sol\":3734:3812  block.timestamp >= crowdInfo.startTime && block.timestamp <= crowdInfo.endTime */\n      dup1\n      iszero\n      tag_62\n      jumpi\n      pop\n        /* \"contracts/base/CrowdFund.sol\":3795:3804  crowdInfo */\n      dup1\n        /* \"contracts/base/CrowdFund.sol\":3795:3812  crowdInfo.endTime */\n      0x00\n      add\n      0x04\n      swap1\n      sload\n      swap1\n      0x0100\n      exp\n      swap1\n      div\n      0xffffffff\n      and\n        /* \"contracts/base/CrowdFund.sol\":3776:3812  block.timestamp <= crowdInfo.endTime */\n      0xffffffff\n      and\n        /* \"contracts/base/CrowdFund.sol\":3776:3791  block.timestamp */\n      timestamp\n        /* \"contracts/base/CrowdFund.sol\":3776:3812  block.timestamp <= crowdInfo.endTime */\n      gt\n      iszero\n        /* \"contracts/base/CrowdFund.sol\":3734:3812  block.timestamp >= crowdInfo.startTime && block.timestamp <= crowdInfo.endTime */\n    tag_62:\n        /* \"contracts/base/CrowdFund.sol\":3726:3845  require(block.timestamp >= crowdInfo.startTime && block.timestamp <= crowdInfo.endTime \r... */\n      tag_63\n      jumpi\n      mload(0x40)\n      0x08c379a000000000000000000000000000000000000000000000000000000000\n      dup2\n      mstore\n      0x04\n      add\n      tag_64\n      swap1\n      tag_65\n      jump\t// in\n    tag_64:\n      mload(0x40)\n      dup1\n      swap2\n      sub\n      swap1\n      revert\n    tag_63:\n        /* \"contracts/base/CrowdFund.sol\":3873:3874  0 */\n      0x00\n        /* \"contracts/base/CrowdFund.sol\":3864:3870  amount */\n      dup3\n        /* \"contracts/base/CrowdFund.sol\":3864:3874  amount > 0 */\n      gt\n        /* \"contracts/base/CrowdFund.sol\":3856:3902  require(amount > 0 , \"donate value must ge 0\") */\n      tag_66\n      jumpi\n      mload(0x40)\n      0x08c379a000000000000000000000000000000000000000000000000000000000\n      dup2\n      mstore\n      0x04\n      add\n      tag_67\n      swap1\n      tag_68\n      jump\t// in\n    tag_67:\n      mload(0x40)\n      dup1\n      swap2\n      sub\n      swap1\n      revert\n    tag_66:\n        /* \"contracts/base/CrowdFund.sol\":3936:3942  amount */\n      dup2\n        /* \"contracts/base/CrowdFund.sol\":3915:3924  crowdInfo */\n      dup2\n        /* \"contracts/base/CrowdFund.sol\":3915:3932  crowdInfo.pledged */\n      0x02\n      add\n      0x00\n        /* \"contracts/base/CrowdFund.sol\":3915:3942  crowdInfo.pledged += amount */\n      dup3\n      dup3\n      sload\n      tag_69\n      swap2\n      swap1\n      tag_70\n      jump\t// in\n    tag_69:\n      swap3\n      pop\n      pop\n      dup2\n      swap1\n      sstore\n      pop\n        /* \"contracts/base/CrowdFund.sol\":4007:4013  amount */\n      dup2\n        /* \"contracts/base/CrowdFund.sol\":3953:3968  countAddrAmount */\n      0x00\n        /* \"contracts/base/CrowdFund.sol\":3953:3991  countAddrAmount[crowdInfo.roundNumber] */\n      dup1\n        /* \"contracts/base/CrowdFund.sol\":3969:3978  crowdInfo */\n      dup4\n        /* \"contracts/base/CrowdFund.sol\":3969:3990  crowdInfo.roundNumber */\n      0x03\n      add\n      sload\n        /* \"contracts/base/CrowdFund.sol\":3953:3991  countAddrAmount[crowdInfo.roundNumber] */\n      dup2\n      mstore\n      0x20\n      add\n      swap1\n      dup2\n      mstore\n      0x20\n      add\n      0x00\n      keccak256\n        /* \"contracts/base/CrowdFund.sol\":3953:4003  countAddrAmount[crowdInfo.roundNumber][msg.sender] */\n      0x00\n        /* \"contracts/base/CrowdFund.sol\":3992:4002  msg.sender */\n      caller\n        /* \"contracts/base/CrowdFund.sol\":3953:4003  countAddrAmount[crowdInfo.roundNumber][msg.sender] */\n      0xffffffffffffffffffffffffffffffffffffffff\n      and\n      0xffffffffffffffffffffffffffffffffffffffff\n      and\n      dup2\n      mstore\n      0x20\n      add\n      swap1\n      dup2\n      mstore\n      0x20\n      add\n      0x00\n      keccak256\n      0x00\n        /* \"contracts/base/CrowdFund.sol\":3953:4013  countAddrAmount[crowdInfo.roundNumber][msg.sender] += amount */\n      dup3\n      dup3\n      sload\n      tag_71\n      swap2\n      swap1\n      tag_70\n      jump\t// in\n    tag_71:\n      swap3\n      pop\n      pop\n      dup2\n      swap1\n      sstore\n      pop\n        /* \"contracts/base/CrowdFund.sol\":4029:4058  Donate(_no,msg.sender,amount) */\n      0x48def02da8c59b50861e25bab759a8a0c0de6fab6448ef85f32ce59397947d80\n        /* \"contracts/base/CrowdFund.sol\":4036:4039  _no */\n      dup4\n        /* \"contracts/base/CrowdFund.sol\":4040:4050  msg.sender */\n      caller\n        /* \"contracts/base/CrowdFund.sol\":4051:4057  amount */\n      dup5\n        /* \"contracts/base/CrowdFund.sol\":4029:4058  Donate(_no,msg.sender,amount) */\n      mload(0x40)\n      tag_72\n      swap4\n      swap3\n      swap2\n      swap1\n      tag_73\n      jump\t// in\n    tag_72:\n      mload(0x40)\n      dup1\n      swap2\n      sub\n      swap1\n      log1\n        /* \"contracts/base/CrowdFund.sol\":3554:4066  function donate(uint _no,uint amount) external {\r... */\n      pop\n      pop\n      pop\n      jump\t// out\n        /* \"contracts/base/CrowdFund.sol\":1543:1589  mapping(uint => CrowdInfo) public crowdInfoNum */\n    tag_22:\n      mstore(0x20, 0x01)\n      dup1\n      0x00\n      mstore\n      keccak256(0x00, 0x40)\n      0x00\n      swap2\n      pop\n      swap1\n      pop\n      dup1\n      0x00\n      add\n      0x00\n      swap1\n      sload\n      swap1\n      0x0100\n      exp\n      swap1\n      div\n      0xffffffff\n      and\n      swap1\n      dup1\n      0x00\n      add\n      0x04\n      swap1\n      sload\n      swap1\n      0x0100\n      exp\n      swap1\n      div\n      0xffffffff\n      and\n      swap1\n      dup1\n      0x01\n      add\n      sload\n      swap1\n      dup1\n      0x02\n      add\n      sload\n      swap1\n      dup1\n      0x03\n      add\n      sload\n      swap1\n      dup1\n      0x04\n      add\n      0x00\n      swap1\n      sload\n      swap1\n      0x0100\n      exp\n      swap1\n      div\n      0xff\n      and\n      swap1\n      dup1\n      0x04\n      add\n      0x01\n      swap1\n      sload\n      swap1\n      0x0100\n      exp\n      swap1\n      div\n      0xff\n      and\n      swap1\n      pop\n      dup8\n      jump\t// out\n        /* \"contracts/base/CrowdFund.sol\":4543:5035  function refund(uint _no) external {\r... */\n    tag_27:\n        /* \"contracts/base/CrowdFund.sol\":4590:4617  CrowdInfo storage crowdInfo */\n      0x00\n        /* \"contracts/base/CrowdFund.sol\":4620:4632  crowdInfoNum */\n      0x01\n        /* \"contracts/base/CrowdFund.sol\":4620:4637  crowdInfoNum[_no] */\n      0x00\n        /* \"contracts/base/CrowdFund.sol\":4633:4636  _no */\n      dup4\n        /* \"contracts/base/CrowdFund.sol\":4620:4637  crowdInfoNum[_no] */\n      dup2\n      mstore\n      0x20\n      add\n      swap1\n      dup2\n      mstore\n      0x20\n      add\n      0x00\n      keccak256\n        /* \"contracts/base/CrowdFund.sol\":4590:4637  CrowdInfo storage crowdInfo = crowdInfoNum[_no] */\n      swap1\n      pop\n        /* \"contracts/base/CrowdFund.sol\":4675:4684  crowdInfo */\n      dup1\n        /* \"contracts/base/CrowdFund.sol\":4675:4692  crowdInfo.endTime */\n      0x00\n      add\n      0x04\n      swap1\n      sload\n      swap1\n      0x0100\n      exp\n      swap1\n      div\n      0xffffffff\n      and\n        /* \"contracts/base/CrowdFund.sol\":4657:4692  block.timestamp > crowdInfo.endTime */\n      0xffffffff\n      and\n        /* \"contracts/base/CrowdFund.sol\":4657:4672  block.timestamp */\n      timestamp\n        /* \"contracts/base/CrowdFund.sol\":4657:4692  block.timestamp > crowdInfo.endTime */\n      gt\n        /* \"contracts/base/CrowdFund.sol\":4649:4706  require(block.timestamp > crowdInfo.endTime, \"not ended\") */\n      tag_75\n      jumpi\n      mload(0x40)\n      0x08c379a000000000000000000000000000000000000000000000000000000000\n      dup2\n      mstore\n      0x04\n      add\n      tag_76\n      swap1\n      tag_77\n      jump\t// in\n    tag_76:\n      mload(0x40)\n      dup1\n      swap2\n      sub\n      swap1\n      revert\n    tag_75:\n        /* \"contracts/base/CrowdFund.sol\":4757:4766  crowdInfo */\n      dup1\n        /* \"contracts/base/CrowdFund.sol\":4757:4777  crowdInfo.targetFund */\n      0x01\n      add\n      sload\n        /* \"contracts/base/CrowdFund.sol\":4737:4746  crowdInfo */\n      dup2\n        /* \"contracts/base/CrowdFund.sol\":4737:4754  crowdInfo.pledged */\n      0x02\n      add\n      sload\n        /* \"contracts/base/CrowdFund.sol\":4737:4777  crowdInfo.pledged < crowdInfo.targetFund */\n      lt\n        /* \"contracts/base/CrowdFund.sol\":4729:4797  require(crowdInfo.pledged < crowdInfo.targetFund, \"pledged >= goal\") */\n      tag_78\n      jumpi\n      mload(0x40)\n      0x08c379a000000000000000000000000000000000000000000000000000000000\n      dup2\n      mstore\n      0x04\n      add\n      tag_79\n      swap1\n      tag_80\n      jump\t// in\n    tag_79:\n      mload(0x40)\n      dup1\n      swap2\n      sub\n      swap1\n      revert\n    tag_78:\n        /* \"contracts/base/CrowdFund.sol\":4809:4820  uint amount */\n      0x00\n        /* \"contracts/base/CrowdFund.sol\":4823:4838  countAddrAmount */\n      dup1\n        /* \"contracts/base/CrowdFund.sol\":4823:4843  countAddrAmount[_no] */\n      0x00\n        /* \"contracts/base/CrowdFund.sol\":4839:4842  _no */\n      dup5\n        /* \"contracts/base/CrowdFund.sol\":4823:4843  countAddrAmount[_no] */\n      dup2\n      mstore\n      0x20\n      add\n      swap1\n      dup2\n      mstore\n      0x20\n      add\n      0x00\n      keccak256\n        /* \"contracts/base/CrowdFund.sol\":4823:4855  countAddrAmount[_no][msg.sender] */\n      0x00\n        /* \"contracts/base/CrowdFund.sol\":4844:4854  msg.sender */\n      caller\n        /* \"contracts/base/CrowdFund.sol\":4823:4855  countAddrAmount[_no][msg.sender] */\n      0xffffffffffffffffffffffffffffffffffffffff\n      and\n      0xffffffffffffffffffffffffffffffffffffffff\n      and\n      dup2\n      mstore\n      0x20\n      add\n      swap1\n      dup2\n      mstore\n      0x20\n      add\n      0x00\n      keccak256\n      sload\n        /* \"contracts/base/CrowdFund.sol\":4809:4855  uint amount = countAddrAmount[_no][msg.sender] */\n      swap1\n      pop\n        /* \"contracts/base/CrowdFund.sol\":4903:4904  0 */\n      0x00\n        /* \"contracts/base/CrowdFund.sol\":4868:4883  countAddrAmount */\n      dup1\n        /* \"contracts/base/CrowdFund.sol\":4868:4888  countAddrAmount[_no] */\n      0x00\n        /* \"contracts/base/CrowdFund.sol\":4884:4887  _no */\n      dup6\n        /* \"contracts/base/CrowdFund.sol\":4868:4888  countAddrAmount[_no] */\n      dup2\n      mstore\n      0x20\n      add\n      swap1\n      dup2\n      mstore\n      0x20\n      add\n      0x00\n      keccak256\n        /* \"contracts/base/CrowdFund.sol\":4868:4900  countAddrAmount[_no][msg.sender] */\n      0x00\n        /* \"contracts/base/CrowdFund.sol\":4889:4899  msg.sender */\n      caller\n        /* \"contracts/base/CrowdFund.sol\":4868:4900  countAddrAmount[_no][msg.sender] */\n      0xffffffffffffffffffffffffffffffffffffffff\n      and\n      0xffffffffffffffffffffffffffffffffffffffff\n      and\n      dup2\n      mstore\n      0x20\n      add\n      swap1\n      dup2\n      mstore\n      0x20\n      add\n      0x00\n      keccak256\n        /* \"contracts/base/CrowdFund.sol\":4868:4904  countAddrAmount[_no][msg.sender] = 0 */\n      dup2\n      swap1\n      sstore\n      pop\n        /* \"contracts/base/CrowdFund.sol\":4916:4921  token */\n      immutable(\"0x9cce9eb03c9f29c6481fca9f0f942b15bef0bbbc47fda0ddb44df157019835d9\")\n        /* \"contracts/base/CrowdFund.sol\":4916:4930  token.transfer */\n      0xffffffffffffffffffffffffffffffffffffffff\n      and\n      0xa9059cbb\n        /* \"contracts/base/CrowdFund.sol\":4931:4941  msg.sender */\n      caller\n        /* \"contracts/base/CrowdFund.sol\":4943:4949  amount */\n      dup4\n        /* \"contracts/base/CrowdFund.sol\":4916:4950  token.transfer(msg.sender, amount) */\n      mload(0x40)\n      dup4\n      0xffffffff\n      and\n      0xe0\n      shl\n      dup2\n      mstore\n      0x04\n      add\n      tag_81\n      swap3\n      swap2\n      swap1\n      tag_82\n      jump\t// in\n    tag_81:\n      0x20\n      mload(0x40)\n      dup1\n      dup4\n      sub\n      dup2\n      0x00\n      dup8\n      dup1\n      extcodesize\n      iszero\n      dup1\n      iszero\n      tag_83\n      jumpi\n      0x00\n      dup1\n      revert\n    tag_83:\n      pop\n      gas\n      call\n      iszero\n      dup1\n      iszero\n      tag_85\n      jumpi\n      returndatasize\n      0x00\n      dup1\n      returndatacopy\n      revert(0x00, returndatasize)\n    tag_85:\n      pop\n      pop\n      pop\n      pop\n      mload(0x40)\n      returndatasize\n      not(0x1f)\n      0x1f\n      dup3\n      add\n      and\n      dup3\n      add\n      dup1\n      0x40\n      mstore\n      pop\n      dup2\n      add\n      swap1\n      tag_86\n      swap2\n      swap1\n      tag_87\n      jump\t// in\n    tag_86:\n      pop\n        /* \"contracts/base/CrowdFund.sol\":4962:4971  crowdInfo */\n      dup2\n        /* \"contracts/base/CrowdFund.sol\":4962:4979  crowdInfo.pledged */\n      0x02\n      add\n      0x00\n        /* \"contracts/base/CrowdFund.sol\":4962:4981  crowdInfo.pledged-- */\n      dup2\n      sload\n      dup1\n      swap3\n      swap2\n      swap1\n      tag_88\n      swap1\n      tag_89\n      jump\t// in\n    tag_88:\n      swap2\n      swap1\n      pop\n      sstore\n      pop\n        /* \"contracts/base/CrowdFund.sol\":4998:5027  Refund(_no,amount,msg.sender) */\n      0xfe438001a6dd8298a7672e341088143b150c2227f220b57280a002f5357612b7\n        /* \"contracts/base/CrowdFund.sol\":5005:5008  _no */\n      dup4\n        /* \"contracts/base/CrowdFund.sol\":5009:5015  amount */\n      dup3\n        /* \"contracts/base/CrowdFund.sol\":5016:5026  msg.sender */\n      caller\n        /* \"contracts/base/CrowdFund.sol\":4998:5027  Refund(_no,amount,msg.sender) */\n      mload(0x40)\n      tag_90\n      swap4\n      swap3\n      swap2\n      swap1\n      tag_91\n      jump\t// in\n    tag_90:\n      mload(0x40)\n      dup1\n      swap2\n      sub\n      swap1\n      log1\n        /* \"contracts/base/CrowdFund.sol\":4543:5035  function refund(uint _no) external {\r... */\n      pop\n      pop\n      pop\n      jump\t// out\n        /* \"contracts/base/CrowdFund.sol\":3017:3509  function cancel(uint _no) external{\r... */\n    tag_30:\n        /* \"contracts/base/CrowdFund.sol\":3062:3089  CrowdInfo storage crowdInfo */\n      0x00\n        /* \"contracts/base/CrowdFund.sol\":3092:3104  crowdInfoNum */\n      0x01\n        /* \"contracts/base/CrowdFund.sol\":3092:3109  crowdInfoNum[_no] */\n      0x00\n        /* \"contracts/base/CrowdFund.sol\":3105:3108  _no */\n      dup4\n        /* \"contracts/base/CrowdFund.sol\":3092:3109  crowdInfoNum[_no] */\n      dup2\n      mstore\n      0x20\n      add\n      swap1\n      dup2\n      mstore\n      0x20\n      add\n      0x00\n      keccak256\n        /* \"contracts/base/CrowdFund.sol\":3062:3109  CrowdInfo storage crowdInfo = crowdInfoNum[_no] */\n      swap1\n      pop\n        /* \"contracts/base/CrowdFund.sol\":3139:3149  msg.sender */\n      caller\n        /* \"contracts/base/CrowdFund.sol\":3128:3149  founder == msg.sender */\n      0xffffffffffffffffffffffffffffffffffffffff\n      and\n        /* \"contracts/base/CrowdFund.sol\":3128:3135  founder */\n      0x02\n      0x00\n      swap1\n      sload\n      swap1\n      0x0100\n      exp\n      swap1\n      div\n      0xffffffffffffffffffffffffffffffffffffffff\n      and\n        /* \"contracts/base/CrowdFund.sol\":3128:3149  founder == msg.sender */\n      0xffffffffffffffffffffffffffffffffffffffff\n      and\n      eq\n        /* \"contracts/base/CrowdFund.sol\":3120:3173  require(founder == msg.sender, \"only founder cancel\") */\n      tag_93\n      jumpi\n      mload(0x40)\n      0x08c379a000000000000000000000000000000000000000000000000000000000\n      dup2\n      mstore\n      0x04\n      add\n      tag_94\n      swap1\n      tag_95\n      jump\t// in\n    tag_94:\n      mload(0x40)\n      dup1\n      swap2\n      sub\n      swap1\n      revert\n    tag_93:\n        /* \"contracts/base/CrowdFund.sol\":3192:3201  crowdInfo */\n      dup1\n        /* \"contracts/base/CrowdFund.sol\":3192:3213  crowdInfo.startStatus */\n      0x04\n      add\n      0x00\n      swap1\n      sload\n      swap1\n      0x0100\n      exp\n      swap1\n      div\n      0xff\n      and\n        /* \"contracts/base/CrowdFund.sol\":3184:3227  require(crowdInfo.startStatus, \"crowd end\") */\n      tag_96\n      jumpi\n      mload(0x40)\n      0x08c379a000000000000000000000000000000000000000000000000000000000\n      dup2\n      mstore\n      0x04\n      add\n      tag_97\n      swap1\n      tag_61\n      jump\t// in\n    tag_97:\n      mload(0x40)\n      dup1\n      swap2\n      sub\n      swap1\n      revert\n    tag_96:\n        /* \"contracts/base/CrowdFund.sol\":3265:3274  crowdInfo */\n      dup1\n        /* \"contracts/base/CrowdFund.sol\":3265:3284  crowdInfo.startTime */\n      0x00\n      add\n      0x00\n      swap1\n      sload\n      swap1\n      0x0100\n      exp\n      swap1\n      div\n      0xffffffff\n      and\n        /* \"contracts/base/CrowdFund.sol\":3246:3284  block.timestamp >= crowdInfo.startTime */\n      0xffffffff\n      and\n        /* \"contracts/base/CrowdFund.sol\":3246:3261  block.timestamp */\n      timestamp\n        /* \"contracts/base/CrowdFund.sol\":3246:3284  block.timestamp >= crowdInfo.startTime */\n      lt\n      iszero\n        /* \"contracts/base/CrowdFund.sol\":3246:3324  block.timestamp >= crowdInfo.startTime && block.timestamp <= crowdInfo.endTime */\n      dup1\n      iszero\n      tag_98\n      jumpi\n      pop\n        /* \"contracts/base/CrowdFund.sol\":3307:3316  crowdInfo */\n      dup1\n        /* \"contracts/base/CrowdFund.sol\":3307:3324  crowdInfo.endTime */\n      0x00\n      add\n      0x04\n      swap1\n      sload\n      swap1\n      0x0100\n      exp\n      swap1\n      div\n      0xffffffff\n      and\n        /* \"contracts/base/CrowdFund.sol\":3288:3324  block.timestamp <= crowdInfo.endTime */\n      0xffffffff\n      and\n        /* \"contracts/base/CrowdFund.sol\":3288:3303  block.timestamp */\n      timestamp\n        /* \"contracts/base/CrowdFund.sol\":3288:3324  block.timestamp <= crowdInfo.endTime */\n      gt\n      iszero\n        /* \"contracts/base/CrowdFund.sol\":3246:3324  block.timestamp >= crowdInfo.startTime && block.timestamp <= crowdInfo.endTime */\n    tag_98:\n        /* \"contracts/base/CrowdFund.sol\":3238:3362  require(block.timestamp >= crowdInfo.startTime && block.timestamp <= crowdInfo.endTime \r... */\n      tag_99\n      jumpi\n      mload(0x40)\n      0x08c379a000000000000000000000000000000000000000000000000000000000\n      dup2\n      mstore\n      0x04\n      add\n      tag_100\n      swap1\n      tag_101\n      jump\t// in\n    tag_100:\n      mload(0x40)\n      dup1\n      swap2\n      sub\n      swap1\n      revert\n    tag_99:\n        /* \"contracts/base/CrowdFund.sol\":3397:3402  false */\n      0x00\n        /* \"contracts/base/CrowdFund.sol\":3373:3382  crowdInfo */\n      dup2\n        /* \"contracts/base/CrowdFund.sol\":3373:3394  crowdInfo.startStatus */\n      0x04\n      add\n      0x00\n        /* \"contracts/base/CrowdFund.sol\":3373:3402  crowdInfo.startStatus = false */\n      0x0100\n      exp\n      dup2\n      sload\n      dup2\n      0xff\n      mul\n      not\n      and\n      swap1\n      dup4\n      iszero\n      iszero\n      mul\n      or\n      swap1\n      sstore\n      pop\n        /* \"contracts/base/CrowdFund.sol\":3435:3439  true */\n      0x01\n        /* \"contracts/base/CrowdFund.sol\":3413:3422  crowdInfo */\n      dup2\n        /* \"contracts/base/CrowdFund.sol\":3413:3432  crowdInfo.endStatus */\n      0x04\n      add\n      0x01\n        /* \"contracts/base/CrowdFund.sol\":3413:3439  crowdInfo.endStatus = true */\n      0x0100\n      exp\n      dup2\n      sload\n      dup2\n      0xff\n      mul\n      not\n      and\n      swap1\n      dup4\n      iszero\n      iszero\n      mul\n      or\n      swap1\n      sstore\n      pop\n        /* \"contracts/base/CrowdFund.sol\":3457:3469  crowdInfoNum */\n      0x01\n        /* \"contracts/base/CrowdFund.sol\":3457:3474  crowdInfoNum[_no] */\n      0x00\n        /* \"contracts/base/CrowdFund.sol\":3470:3473  _no */\n      dup4\n        /* \"contracts/base/CrowdFund.sol\":3457:3474  crowdInfoNum[_no] */\n      dup2\n      mstore\n      0x20\n      add\n      swap1\n      dup2\n      mstore\n      0x20\n      add\n      0x00\n      keccak256\n      0x00\n        /* \"contracts/base/CrowdFund.sol\":3450:3474  delete crowdInfoNum[_no] */\n      dup1\n      dup3\n      add\n      exp(0x0100, 0x00)\n      dup2\n      sload\n      swap1\n      0xffffffff\n      mul\n      not\n      and\n      swap1\n      sstore\n      0x00\n      dup3\n      add\n      exp(0x0100, 0x04)\n      dup2\n      sload\n      swap1\n      0xffffffff\n      mul\n      not\n      and\n      swap1\n      sstore\n      0x01\n      dup3\n      add\n      0x00\n      swap1\n      sstore\n      0x02\n      dup3\n      add\n      0x00\n      swap1\n      sstore\n      0x03\n      dup3\n      add\n      0x00\n      swap1\n      sstore\n      0x04\n      dup3\n      add\n      exp(0x0100, 0x00)\n      dup2\n      sload\n      swap1\n      0xff\n      mul\n      not\n      and\n      swap1\n      sstore\n      0x04\n      dup3\n      add\n      exp(0x0100, 0x01)\n      dup2\n      sload\n      swap1\n      0xff\n      mul\n      not\n      and\n      swap1\n      sstore\n      pop\n      pop\n        /* \"contracts/base/CrowdFund.sol\":3490:3501  Cancel(_no) */\n      0x8bf30e7ff26833413be5f69e1d373744864d600b664204b4a2f9844a8eedb9ed\n        /* \"contracts/base/CrowdFund.sol\":3497:3500  _no */\n      dup3\n        /* \"contracts/base/CrowdFund.sol\":3490:3501  Cancel(_no) */\n      mload(0x40)\n      tag_102\n      swap2\n      swap1\n      tag_47\n      jump\t// in\n    tag_102:\n      mload(0x40)\n      dup1\n      swap2\n      sub\n      swap1\n      log1\n        /* \"contracts/base/CrowdFund.sol\":3017:3509  function cancel(uint _no) external{\r... */\n      pop\n      pop\n      jump\t// out\n        /* \"contracts/base/CrowdFund.sol\":5080:5562  function withdraw(uint _no,uint amount) external {\r... */\n    tag_33:\n        /* \"contracts/base/CrowdFund.sol\":5140:5167  CrowdInfo storage crowdInfo */\n      0x00\n        /* \"contracts/base/CrowdFund.sol\":5170:5182  crowdInfoNum */\n      0x01\n        /* \"contracts/base/CrowdFund.sol\":5170:5187  crowdInfoNum[_no] */\n      0x00\n        /* \"contracts/base/CrowdFund.sol\":5183:5186  _no */\n      dup5\n        /* \"contracts/base/CrowdFund.sol\":5170:5187  crowdInfoNum[_no] */\n      dup2\n      mstore\n      0x20\n      add\n      swap1\n      dup2\n      mstore\n      0x20\n      add\n      0x00\n      keccak256\n        /* \"contracts/base/CrowdFund.sol\":5140:5187  CrowdInfo storage crowdInfo = crowdInfoNum[_no] */\n      swap1\n      pop\n        /* \"contracts/base/CrowdFund.sol\":5217:5227  msg.sender */\n      caller\n        /* \"contracts/base/CrowdFund.sol\":5206:5227  founder == msg.sender */\n      0xffffffffffffffffffffffffffffffffffffffff\n      and\n        /* \"contracts/base/CrowdFund.sol\":5206:5213  founder */\n      0x02\n      0x00\n      swap1\n      sload\n      swap1\n      0x0100\n      exp\n      swap1\n      div\n      0xffffffffffffffffffffffffffffffffffffffff\n      and\n        /* \"contracts/base/CrowdFund.sol\":5206:5227  founder == msg.sender */\n      0xffffffffffffffffffffffffffffffffffffffff\n      and\n      eq\n        /* \"contracts/base/CrowdFund.sol\":5198:5253  require(founder == msg.sender, \"only founder withdraw\") */\n      tag_104\n      jumpi\n      mload(0x40)\n      0x08c379a000000000000000000000000000000000000000000000000000000000\n      dup2\n      mstore\n      0x04\n      add\n      tag_105\n      swap1\n      tag_106\n      jump\t// in\n    tag_105:\n      mload(0x40)\n      dup1\n      swap2\n      sub\n      swap1\n      revert\n    tag_104:\n        /* \"contracts/base/CrowdFund.sol\":5290:5299  crowdInfo */\n      dup1\n        /* \"contracts/base/CrowdFund.sol\":5290:5307  crowdInfo.endTime */\n      0x00\n      add\n      0x04\n      swap1\n      sload\n      swap1\n      0x0100\n      exp\n      swap1\n      div\n      0xffffffff\n      and\n        /* \"contracts/base/CrowdFund.sol\":5272:5307  block.timestamp > crowdInfo.endTime */\n      0xffffffff\n      and\n        /* \"contracts/base/CrowdFund.sol\":5272:5287  block.timestamp */\n      timestamp\n        /* \"contracts/base/CrowdFund.sol\":5272:5307  block.timestamp > crowdInfo.endTime */\n      gt\n        /* \"contracts/base/CrowdFund.sol\":5264:5328  require(block.timestamp > crowdInfo.endTime , \"end time error \") */\n      tag_107\n      jumpi\n      mload(0x40)\n      0x08c379a000000000000000000000000000000000000000000000000000000000\n      dup2\n      mstore\n      0x04\n      add\n      tag_108\n      swap1\n      tag_109\n      jump\t// in\n    tag_108:\n      mload(0x40)\n      dup1\n      swap2\n      sub\n      swap1\n      revert\n    tag_107:\n        /* \"contracts/base/CrowdFund.sol\":5339:5351  uint _amount */\n      0x00\n        /* \"contracts/base/CrowdFund.sol\":5354:5363  crowdInfo */\n      dup2\n        /* \"contracts/base/CrowdFund.sol\":5354:5374  crowdInfo.targetFund */\n      0x01\n      add\n      sload\n        /* \"contracts/base/CrowdFund.sol\":5339:5374  uint _amount = crowdInfo.targetFund */\n      swap1\n      pop\n        /* \"contracts/base/CrowdFund.sol\":5404:5410  amount */\n      dup3\n        /* \"contracts/base/CrowdFund.sol\":5393:5400  _amount */\n      dup2\n        /* \"contracts/base/CrowdFund.sol\":5393:5410  _amount >= amount */\n      lt\n      iszero\n        /* \"contracts/base/CrowdFund.sol\":5385:5438  require(_amount >= amount, \"not enough funds error \") */\n      tag_110\n      jumpi\n      mload(0x40)\n      0x08c379a000000000000000000000000000000000000000000000000000000000\n      dup2\n      mstore\n      0x04\n      add\n      tag_111\n      swap1\n      tag_112\n      jump\t// in\n    tag_111:\n      mload(0x40)\n      dup1\n      swap2\n      sub\n      swap1\n      revert\n    tag_110:\n        /* \"contracts/base/CrowdFund.sol\":5470:5476  amount */\n      dup3\n        /* \"contracts/base/CrowdFund.sol\":5449:5458  crowdInfo */\n      dup3\n        /* \"contracts/base/CrowdFund.sol\":5449:5466  crowdInfo.pledged */\n      0x02\n      add\n      0x00\n        /* \"contracts/base/CrowdFund.sol\":5449:5476  crowdInfo.pledged -= amount */\n      dup3\n      dup3\n      sload\n      tag_113\n      swap2\n      swap1\n      tag_114\n      jump\t// in\n    tag_113:\n      swap3\n      pop\n      pop\n      dup2\n      swap1\n      sstore\n      pop\n        /* \"contracts/base/CrowdFund.sol\":5487:5492  token */\n      immutable(\"0x9cce9eb03c9f29c6481fca9f0f942b15bef0bbbc47fda0ddb44df157019835d9\")\n        /* \"contracts/base/CrowdFund.sol\":5487:5501  token.transfer */\n      0xffffffffffffffffffffffffffffffffffffffff\n      and\n      0xa9059cbb\n        /* \"contracts/base/CrowdFund.sol\":5502:5509  founder */\n      0x02\n      0x00\n      swap1\n      sload\n      swap1\n      0x0100\n      exp\n      swap1\n      div\n      0xffffffffffffffffffffffffffffffffffffffff\n      and\n        /* \"contracts/base/CrowdFund.sol\":5511:5517  amount */\n      dup6\n        /* \"contracts/base/CrowdFund.sol\":5487:5518  token.transfer(founder, amount) */\n      mload(0x40)\n      dup4\n      0xffffffff\n      and\n      0xe0\n      shl\n      dup2\n      mstore\n      0x04\n      add\n      tag_115\n      swap3\n      swap2\n      swap1\n      tag_82\n      jump\t// in\n    tag_115:\n      0x20\n      mload(0x40)\n      dup1\n      dup4\n      sub\n      dup2\n      0x00\n      dup8\n      dup1\n      extcodesize\n      iszero\n      dup1\n      iszero\n      tag_116\n      jumpi\n      0x00\n      dup1\n      revert\n    tag_116:\n      pop\n      gas\n      call\n      iszero\n      dup1\n      iszero\n      tag_118\n      jumpi\n      returndatasize\n      0x00\n      dup1\n      returndatacopy\n      revert(0x00, returndatasize)\n    tag_118:\n      pop\n      pop\n      pop\n      pop\n      mload(0x40)\n      returndatasize\n      not(0x1f)\n      0x1f\n      dup3\n      add\n      and\n      dup3\n      add\n      dup1\n      0x40\n      mstore\n      pop\n      dup2\n      add\n      swap1\n      tag_119\n      swap2\n      swap1\n      tag_87\n      jump\t// in\n    tag_119:\n      pop\n        /* \"contracts/base/CrowdFund.sol\":5534:5554  Withdraw(_no,amount) */\n      0x56ca301a9219608c91e7bcee90e083c19671d2cdcc96752c7af291cee5f9c8c8\n        /* \"contracts/base/CrowdFund.sol\":5543:5546  _no */\n      dup5\n        /* \"contracts/base/CrowdFund.sol\":5547:5553  amount */\n      dup5\n        /* \"contracts/base/CrowdFund.sol\":5534:5554  Withdraw(_no,amount) */\n      mload(0x40)\n      tag_120\n      swap3\n      swap2\n      swap1\n      tag_121\n      jump\t// in\n    tag_120:\n      mload(0x40)\n      dup1\n      swap2\n      sub\n      swap1\n      log1\n        /* \"contracts/base/CrowdFund.sol\":5080:5562  function withdraw(uint _no,uint amount) external {\r... */\n      pop\n      pop\n      pop\n      pop\n      jump\t// out\n        /* \"contracts/base/CrowdFund.sol\":2189:2974  function createCrowdFund(uint256 target, uint32  _startTime,uint32 second) external {\r... */\n    tag_37:\n        /* \"contracts/base/CrowdFund.sol\":2322:2324  20 */\n      0x14\n        /* \"contracts/base/CrowdFund.sol\":2305:2320  block.timestamp */\n      timestamp\n        /* \"contracts/base/CrowdFund.sol\":2305:2324  block.timestamp +20 */\n      tag_123\n      swap2\n      swap1\n      tag_70\n      jump\t// in\n    tag_123:\n        /* \"contracts/base/CrowdFund.sol\":2292:2302  _startTime */\n      dup3\n        /* \"contracts/base/CrowdFund.sol\":2292:2324  _startTime > block.timestamp +20 */\n      0xffffffff\n      and\n      gt\n        /* \"contracts/base/CrowdFund.sol\":2284:2356  require(_startTime > block.timestamp +20, \"create crowdfund time error\") */\n      tag_124\n      jumpi\n      mload(0x40)\n      0x08c379a000000000000000000000000000000000000000000000000000000000\n      dup2\n      mstore\n      0x04\n      add\n      tag_125\n      swap1\n      tag_126\n      jump\t// in\n    tag_125:\n      mload(0x40)\n      dup1\n      swap2\n      sub\n      swap1\n      revert\n    tag_124:\n        /* \"contracts/base/CrowdFund.sol\":2384:2385  0 */\n      0x00\n        /* \"contracts/base/CrowdFund.sol\":2375:2381  target */\n      dup4\n        /* \"contracts/base/CrowdFund.sol\":2375:2385  target > 0 */\n      gt\n        /* \"contracts/base/CrowdFund.sol\":2367:2407  require(target > 0, \" amount must ge 0\") */\n      tag_127\n      jumpi\n      mload(0x40)\n      0x08c379a000000000000000000000000000000000000000000000000000000000\n      dup2\n      mstore\n      0x04\n      add\n      tag_128\n      swap1\n      tag_129\n      jump\t// in\n    tag_128:\n      mload(0x40)\n      dup1\n      swap2\n      sub\n      swap1\n      revert\n    tag_127:\n        /* \"contracts/base/CrowdFund.sol\":2418:2433  uint32 _endTime */\n      0x00\n        /* \"contracts/base/CrowdFund.sol\":2461:2467  second */\n      dup2\n        /* \"contracts/base/CrowdFund.sol\":2443:2467  block.timestamp + second */\n      0xffffffff\n      and\n        /* \"contracts/base/CrowdFund.sol\":2443:2458  block.timestamp */\n      timestamp\n        /* \"contracts/base/CrowdFund.sol\":2443:2467  block.timestamp + second */\n      tag_130\n      swap2\n      swap1\n      tag_70\n      jump\t// in\n    tag_130:\n        /* \"contracts/base/CrowdFund.sol\":2418:2468  uint32 _endTime = uint32(block.timestamp + second) */\n      swap1\n      pop\n        /* \"contracts/base/CrowdFund.sol\":2499:2514  block.timestamp */\n      timestamp\n        /* \"contracts/base/CrowdFund.sol\":2487:2495  _endTime */\n      dup2\n        /* \"contracts/base/CrowdFund.sol\":2487:2514  _endTime  > block.timestamp */\n      0xffffffff\n      and\n      gt\n        /* \"contracts/base/CrowdFund.sol\":2479:2532  require(_endTime  > block.timestamp, \" second error\") */\n      tag_131\n      jumpi\n      mload(0x40)\n      0x08c379a000000000000000000000000000000000000000000000000000000000\n      dup2\n      mstore\n      0x04\n      add\n      tag_132\n      swap1\n      tag_133\n      jump\t// in\n    tag_132:\n      mload(0x40)\n      dup1\n      swap2\n      sub\n      swap1\n      revert\n    tag_131:\n        /* \"contracts/base/CrowdFund.sol\":2562:2572  msg.sender */\n      caller\n        /* \"contracts/base/CrowdFund.sol\":2551:2572  founder == msg.sender */\n      0xffffffffffffffffffffffffffffffffffffffff\n      and\n        /* \"contracts/base/CrowdFund.sol\":2551:2558  founder */\n      0x02\n      0x00\n      swap1\n      sload\n      swap1\n      0x0100\n      exp\n      swap1\n      div\n      0xffffffffffffffffffffffffffffffffffffffff\n      and\n        /* \"contracts/base/CrowdFund.sol\":2551:2572  founder == msg.sender */\n      0xffffffffffffffffffffffffffffffffffffffff\n      and\n      eq\n        /* \"contracts/base/CrowdFund.sol\":2543:2596  require(founder == msg.sender, \"only founder create\") */\n      tag_134\n      jumpi\n      mload(0x40)\n      0x08c379a000000000000000000000000000000000000000000000000000000000\n      dup2\n      mstore\n      0x04\n      add\n      tag_135\n      swap1\n      tag_136\n      jump\t// in\n    tag_135:\n      mload(0x40)\n      dup1\n      swap2\n      sub\n      swap1\n      revert\n    tag_134:\n        /* \"contracts/base/CrowdFund.sol\":2607:2609  no */\n      0x03\n      0x00\n        /* \"contracts/base/CrowdFund.sol\":2607:2611  no++ */\n      dup2\n      sload\n      dup1\n      swap3\n      swap2\n      swap1\n      tag_137\n      swap1\n      tag_138\n      jump\t// in\n    tag_137:\n      swap2\n      swap1\n      pop\n      sstore\n      pop\n        /* \"contracts/base/CrowdFund.sol\":2640:2888  CrowdInfo({\r... */\n      mload(0x40)\n      dup1\n      0xe0\n      add\n      0x40\n      mstore\n      dup1\n        /* \"contracts/base/CrowdFund.sol\":2675:2685  _startTime */\n      dup5\n        /* \"contracts/base/CrowdFund.sol\":2640:2888  CrowdInfo({\r... */\n      0xffffffff\n      and\n      dup2\n      mstore\n      0x20\n      add\n        /* \"contracts/base/CrowdFund.sol\":2708:2716  _endTime */\n      dup3\n        /* \"contracts/base/CrowdFund.sol\":2640:2888  CrowdInfo({\r... */\n      0xffffffff\n      and\n      dup2\n      mstore\n      0x20\n      add\n        /* \"contracts/base/CrowdFund.sol\":2742:2748  target */\n      dup6\n        /* \"contracts/base/CrowdFund.sol\":2640:2888  CrowdInfo({\r... */\n      dup2\n      mstore\n      0x20\n      add\n        /* \"contracts/base/CrowdFund.sol\":2861:2862  0 */\n      0x00\n        /* \"contracts/base/CrowdFund.sol\":2640:2888  CrowdInfo({\r... */\n      dup2\n      mstore\n      0x20\n      add\n        /* \"contracts/base/CrowdFund.sol\":2775:2777  no */\n      sload(0x03)\n        /* \"contracts/base/CrowdFund.sol\":2640:2888  CrowdInfo({\r... */\n      dup2\n      mstore\n      0x20\n      add\n        /* \"contracts/base/CrowdFund.sol\":2804:2808  true */\n      0x01\n        /* \"contracts/base/CrowdFund.sol\":2640:2888  CrowdInfo({\r... */\n      iszero\n      iszero\n      dup2\n      mstore\n      0x20\n      add\n        /* \"contracts/base/CrowdFund.sol\":2833:2838  false */\n      0x00\n        /* \"contracts/base/CrowdFund.sol\":2640:2888  CrowdInfo({\r... */\n      iszero\n      iszero\n      dup2\n      mstore\n      pop\n        /* \"contracts/base/CrowdFund.sol\":2622:2634  crowdInfoNum */\n      0x01\n        /* \"contracts/base/CrowdFund.sol\":2622:2638  crowdInfoNum[no] */\n      0x00\n        /* \"contracts/base/CrowdFund.sol\":2635:2637  no */\n      sload(0x03)\n        /* \"contracts/base/CrowdFund.sol\":2622:2638  crowdInfoNum[no] */\n      dup2\n      mstore\n      0x20\n      add\n      swap1\n      dup2\n      mstore\n      0x20\n      add\n      0x00\n      keccak256\n        /* \"contracts/base/CrowdFund.sol\":2622:2888  crowdInfoNum[no]= CrowdInfo({\r... */\n      0x00\n      dup3\n      add\n      mload\n      dup2\n      0x00\n      add\n      exp(0x0100, 0x00)\n      dup2\n      sload\n      dup2\n      0xffffffff\n      mul\n      not\n      and\n      swap1\n      dup4\n      0xffffffff\n      and\n      mul\n      or\n      swap1\n      sstore\n      pop\n      0x20\n      dup3\n      add\n      mload\n      dup2\n      0x00\n      add\n      exp(0x0100, 0x04)\n      dup2\n      sload\n      dup2\n      0xffffffff\n      mul\n      not\n      and\n      swap1\n      dup4\n      0xffffffff\n      and\n      mul\n      or\n      swap1\n      sstore\n      pop\n      0x40\n      dup3\n      add\n      mload\n      dup2\n      0x01\n      add\n      sstore\n      0x60\n      dup3\n      add\n      mload\n      dup2\n      0x02\n      add\n      sstore\n      0x80\n      dup3\n      add\n      mload\n      dup2\n      0x03\n      add\n      sstore\n      0xa0\n      dup3\n      add\n      mload\n      dup2\n      0x04\n      add\n      exp(0x0100, 0x00)\n      dup2\n      sload\n      dup2\n      0xff\n      mul\n      not\n      and\n      swap1\n      dup4\n      iszero\n      iszero\n      mul\n      or\n      swap1\n      sstore\n      pop\n      0xc0\n      dup3\n      add\n      mload\n      dup2\n      0x04\n      add\n      exp(0x0100, 0x01)\n      dup2\n      sload\n      dup2\n      0xff\n      mul\n      not\n      and\n      swap1\n      dup4\n      iszero\n      iszero\n      mul\n      or\n      swap1\n      sstore\n      pop\n      swap1\n      pop\n      pop\n        /* \"contracts/base/CrowdFund.sol\":2903:2960  CreateCrowdFund(msg.sender,_startTime,_endTime,target,no) */\n      0xc72e4b427a443470025444af0220655796b8be7649dcd5e804864f8ad41f493a\n        /* \"contracts/base/CrowdFund.sol\":2919:2929  msg.sender */\n      caller\n        /* \"contracts/base/CrowdFund.sol\":2930:2940  _startTime */\n      dup5\n        /* \"contracts/base/CrowdFund.sol\":2941:2949  _endTime */\n      dup4\n        /* \"contracts/base/CrowdFund.sol\":2950:2956  target */\n      dup8\n        /* \"contracts/base/CrowdFund.sol\":2957:2959  no */\n      sload(0x03)\n        /* \"contracts/base/CrowdFund.sol\":2903:2960  CreateCrowdFund(msg.sender,_startTime,_endTime,target,no) */\n      mload(0x40)\n      tag_139\n      swap6\n      swap5\n      swap4\n      swap3\n      swap2\n      swap1\n      tag_140\n      jump\t// in\n    tag_139:\n      mload(0x40)\n      dup1\n      swap2\n      sub\n      swap1\n      log1\n        /* \"contracts/base/CrowdFund.sol\":2189:2974  function createCrowdFund(uint256 target, uint32  _startTime,uint32 second) external {\r... */\n      pop\n      pop\n      pop\n      pop\n      jump\t// out\n        /* \"contracts/base/CrowdFund.sol\":1619:1641  address public founder */\n    tag_39:\n      0x02\n      0x00\n      swap1\n      sload\n      swap1\n      0x0100\n      exp\n      swap1\n      div\n      0xffffffffffffffffffffffffffffffffffffffff\n      and\n      dup2\n      jump\t// out\n        /* \"contracts/base/CrowdFund.sol\":1439:1504  mapping(uint => mapping(address => uint)) public  countAddrAmount */\n    tag_45:\n      mstore(0x20, 0x00)\n      dup2\n      0x00\n      mstore\n      mstore(0x20, keccak256(0x00, 0x40))\n      dup1\n      0x00\n      mstore\n      keccak256(0x00, 0x40)\n      0x00\n      swap2\n      pop\n      swap2\n      pop\n      pop\n      sload\n      dup2\n      jump\t// out\n        /* \"contracts/base/CrowdFund.sol\":1686:1700  uint public no */\n    tag_49:\n      sload(0x03)\n      dup2\n      jump\t// out\n        /* \"contracts/base/CrowdFund.sol\":4117:4497  function backDonate(uint _no,uint amount) external{\r... */\n    tag_53:\n        /* \"contracts/base/CrowdFund.sol\":4178:4205  CrowdInfo storage crowdInfo */\n      0x00\n        /* \"contracts/base/CrowdFund.sol\":4208:4220  crowdInfoNum */\n      0x01\n        /* \"contracts/base/CrowdFund.sol\":4208:4225  crowdInfoNum[_no] */\n      0x00\n        /* \"contracts/base/CrowdFund.sol\":4221:4224  _no */\n      dup5\n        /* \"contracts/base/CrowdFund.sol\":4208:4225  crowdInfoNum[_no] */\n      dup2\n      mstore\n      0x20\n      add\n      swap1\n      dup2\n      mstore\n      0x20\n      add\n      0x00\n      keccak256\n        /* \"contracts/base/CrowdFund.sol\":4178:4225  CrowdInfo storage crowdInfo = crowdInfoNum[_no] */\n      swap1\n      pop\n        /* \"contracts/base/CrowdFund.sol\":4273:4282  crowdInfo */\n      dup1\n        /* \"contracts/base/CrowdFund.sol\":4273:4290  crowdInfo.endTime */\n      0x00\n      add\n      0x04\n      swap1\n      sload\n      swap1\n      0x0100\n      exp\n      swap1\n      div\n      0xffffffff\n      and\n        /* \"contracts/base/CrowdFund.sol\":4254:4290  block.timestamp <= crowdInfo.endTime */\n      0xffffffff\n      and\n        /* \"contracts/base/CrowdFund.sol\":4254:4269  block.timestamp */\n      timestamp\n        /* \"contracts/base/CrowdFund.sol\":4254:4290  block.timestamp <= crowdInfo.endTime */\n      gt\n      iszero\n        /* \"contracts/base/CrowdFund.sol\":4246:4300  require(block.timestamp <= crowdInfo.endTime, \"ended\") */\n      tag_142\n      jumpi\n      mload(0x40)\n      0x08c379a000000000000000000000000000000000000000000000000000000000\n      dup2\n      mstore\n      0x04\n      add\n      tag_143\n      swap1\n      tag_144\n      jump\t// in\n    tag_143:\n      mload(0x40)\n      dup1\n      swap2\n      sub\n      swap1\n      revert\n    tag_142:\n        /* \"contracts/base/CrowdFund.sol\":4333:4339  amount */\n      dup2\n        /* \"contracts/base/CrowdFund.sol\":4312:4321  crowdInfo */\n      dup2\n        /* \"contracts/base/CrowdFund.sol\":4312:4329  crowdInfo.pledged */\n      0x02\n      add\n      0x00\n        /* \"contracts/base/CrowdFund.sol\":4312:4339  crowdInfo.pledged -= amount */\n      dup3\n      dup3\n      sload\n      tag_145\n      swap2\n      swap1\n      tag_114\n      jump\t// in\n    tag_145:\n      swap3\n      pop\n      pop\n      dup2\n      swap1\n      sstore\n      pop\n        /* \"contracts/base/CrowdFund.sol\":4387:4393  amount */\n      dup2\n        /* \"contracts/base/CrowdFund.sol\":4351:4366  countAddrAmount */\n      0x00\n        /* \"contracts/base/CrowdFund.sol\":4351:4371  countAddrAmount[_no] */\n      dup1\n        /* \"contracts/base/CrowdFund.sol\":4367:4370  _no */\n      dup6\n        /* \"contracts/base/CrowdFund.sol\":4351:4371  countAddrAmount[_no] */\n      dup2\n      mstore\n      0x20\n      add\n      swap1\n      dup2\n      mstore\n      0x20\n      add\n      0x00\n      keccak256\n        /* \"contracts/base/CrowdFund.sol\":4351:4383  countAddrAmount[_no][msg.sender] */\n      0x00\n        /* \"contracts/base/CrowdFund.sol\":4372:4382  msg.sender */\n      caller\n        /* \"contracts/base/CrowdFund.sol\":4351:4383  countAddrAmount[_no][msg.sender] */\n      0xffffffffffffffffffffffffffffffffffffffff\n      and\n      0xffffffffffffffffffffffffffffffffffffffff\n      and\n      dup2\n      mstore\n      0x20\n      add\n      swap1\n      dup2\n      mstore\n      0x20\n      add\n      0x00\n      keccak256\n      0x00\n        /* \"contracts/base/CrowdFund.sol\":4351:4393  countAddrAmount[_no][msg.sender] -= amount */\n      dup3\n      dup3\n      sload\n      tag_146\n      swap2\n      swap1\n      tag_114\n      jump\t// in\n    tag_146:\n      swap3\n      pop\n      pop\n      dup2\n      swap1\n      sstore\n      pop\n        /* \"contracts/base/CrowdFund.sol\":4405:4410  token */\n      immutable(\"0x9cce9eb03c9f29c6481fca9f0f942b15bef0bbbc47fda0ddb44df157019835d9\")\n        /* \"contracts/base/CrowdFund.sol\":4405:4419  token.transfer */\n      0xffffffffffffffffffffffffffffffffffffffff\n      and\n      0xa9059cbb\n        /* \"contracts/base/CrowdFund.sol\":4420:4430  msg.sender */\n      caller\n        /* \"contracts/base/CrowdFund.sol\":4432:4438  amount */\n      dup5\n        /* \"contracts/base/CrowdFund.sol\":4405:4439  token.transfer(msg.sender, amount) */\n      mload(0x40)\n      dup4\n      0xffffffff\n      and\n      0xe0\n      shl\n      dup2\n      mstore\n      0x04\n      add\n      tag_147\n      swap3\n      swap2\n      swap1\n      tag_82\n      jump\t// in\n    tag_147:\n      0x20\n      mload(0x40)\n      dup1\n      dup4\n      sub\n      dup2\n      0x00\n      dup8\n      dup1\n      extcodesize\n      iszero\n      dup1\n      iszero\n      tag_148\n      jumpi\n      0x00\n      dup1\n      revert\n    tag_148:\n      pop\n      gas\n      call\n      iszero\n      dup1\n      iszero\n      tag_150\n      jumpi\n      returndatasize\n      0x00\n      dup1\n      returndatacopy\n      revert(0x00, returndatasize)\n    tag_150:\n      pop\n      pop\n      pop\n      pop\n      mload(0x40)\n      returndatasize\n      not(0x1f)\n      0x1f\n      dup3\n      add\n      and\n      dup3\n      add\n      dup1\n      0x40\n      mstore\n      pop\n      dup2\n      add\n      swap1\n      tag_151\n      swap2\n      swap1\n      tag_87\n      jump\t// in\n    tag_151:\n      pop\n        /* \"contracts/base/CrowdFund.sol\":4456:4489  BackDonate(_no,amount,msg.sender) */\n      0xe5434fda030c7c4d083d8209210ffca9271514f52bd75b42446ded1c42365050\n        /* \"contracts/base/CrowdFund.sol\":4467:4470  _no */\n      dup4\n        /* \"contracts/base/CrowdFund.sol\":4471:4477  amount */\n      dup4\n        /* \"contracts/base/CrowdFund.sol\":4478:4488  msg.sender */\n      caller\n        /* \"contracts/base/CrowdFund.sol\":4456:4489  BackDonate(_no,amount,msg.sender) */\n      mload(0x40)\n      tag_152\n      swap4\n      swap3\n      swap2\n      swap1\n      tag_91\n      jump\t// in\n    tag_152:\n      mload(0x40)\n      dup1\n      swap2\n      sub\n      swap1\n      log1\n        /* \"contracts/base/CrowdFund.sol\":4117:4497  function backDonate(uint _no,uint amount) external{\r... */\n      pop\n      pop\n      pop\n      jump\t// out\n        /* \"contracts/base/CrowdFund.sol\":914:943  IERC20 public immutable token */\n    tag_55:\n      immutable(\"0x9cce9eb03c9f29c6481fca9f0f942b15bef0bbbc47fda0ddb44df157019835d9\")\n      dup2\n      jump\t// out\n        /* \"#utility.yul\":7:146   */\n    tag_154:\n        /* \"#utility.yul\":53:58   */\n      0x00\n        /* \"#utility.yul\":91:97   */\n      dup2\n        /* \"#utility.yul\":78:98   */\n      calldataload\n        /* \"#utility.yul\":69:98   */\n      swap1\n      pop\n        /* \"#utility.yul\":107:140   */\n      tag_156\n        /* \"#utility.yul\":134:139   */\n      dup2\n        /* \"#utility.yul\":107:140   */\n      tag_157\n      jump\t// in\n    tag_156:\n        /* \"#utility.yul\":59:146   */\n      swap3\n      swap2\n      pop\n      pop\n      jump\t// out\n        /* \"#utility.yul\":152:289   */\n    tag_158:\n        /* \"#utility.yul\":206:211   */\n      0x00\n        /* \"#utility.yul\":237:243   */\n      dup2\n        /* \"#utility.yul\":231:244   */\n      mload\n        /* \"#utility.yul\":222:244   */\n      swap1\n      pop\n        /* \"#utility.yul\":253:283   */\n      tag_160\n        /* \"#utility.yul\":277:282   */\n      dup2\n        /* \"#utility.yul\":253:283   */\n      tag_161\n      jump\t// in\n    tag_160:\n        /* \"#utility.yul\":212:289   */\n      swap3\n      swap2\n      pop\n      pop\n      jump\t// out\n        /* \"#utility.yul\":295:434   */\n    tag_162:\n        /* \"#utility.yul\":341:346   */\n      0x00\n        /* \"#utility.yul\":379:385   */\n      dup2\n        /* \"#utility.yul\":366:386   */\n      calldataload\n        /* \"#utility.yul\":357:386   */\n      swap1\n      pop\n        /* \"#utility.yul\":395:428   */\n      tag_164\n        /* \"#utility.yul\":422:427   */\n      dup2\n        /* \"#utility.yul\":395:428   */\n      tag_165\n      jump\t// in\n    tag_164:\n        /* \"#utility.yul\":347:434   */\n      swap3\n      swap2\n      pop\n      pop\n      jump\t// out\n        /* \"#utility.yul\":440:577   */\n    tag_166:\n        /* \"#utility.yul\":485:490   */\n      0x00\n        /* \"#utility.yul\":523:529   */\n      dup2\n        /* \"#utility.yul\":510:530   */\n      calldataload\n        /* \"#utility.yul\":501:530   */\n      swap1\n      pop\n        /* \"#utility.yul\":539:571   */\n      tag_168\n        /* \"#utility.yul\":565:570   */\n      dup2\n        /* \"#utility.yul\":539:571   */\n      tag_169\n      jump\t// in\n    tag_168:\n        /* \"#utility.yul\":491:577   */\n      swap3\n      swap2\n      pop\n      pop\n      jump\t// out\n        /* \"#utility.yul\":583:861   */\n    tag_87:\n        /* \"#utility.yul\":650:656   */\n      0x00\n        /* \"#utility.yul\":699:701   */\n      0x20\n        /* \"#utility.yul\":687:696   */\n      dup3\n        /* \"#utility.yul\":678:685   */\n      dup5\n        /* \"#utility.yul\":674:697   */\n      sub\n        /* \"#utility.yul\":670:702   */\n      slt\n        /* \"#utility.yul\":667:669   */\n      iszero\n      tag_171\n      jumpi\n        /* \"#utility.yul\":715:716   */\n      0x00\n        /* \"#utility.yul\":712:713   */\n      dup1\n        /* \"#utility.yul\":705:717   */\n      revert\n        /* \"#utility.yul\":667:669   */\n    tag_171:\n        /* \"#utility.yul\":758:759   */\n      0x00\n        /* \"#utility.yul\":783:844   */\n      tag_172\n        /* \"#utility.yul\":836:843   */\n      dup5\n        /* \"#utility.yul\":827:833   */\n      dup3\n        /* \"#utility.yul\":816:825   */\n      dup6\n        /* \"#utility.yul\":812:834   */\n      add\n        /* \"#utility.yul\":783:844   */\n      tag_158\n      jump\t// in\n    tag_172:\n        /* \"#utility.yul\":773:844   */\n      swap2\n      pop\n        /* \"#utility.yul\":729:854   */\n      pop\n        /* \"#utility.yul\":657:861   */\n      swap3\n      swap2\n      pop\n      pop\n      jump\t// out\n        /* \"#utility.yul\":867:1129   */\n    tag_21:\n        /* \"#utility.yul\":926:932   */\n      0x00\n        /* \"#utility.yul\":975:977   */\n      0x20\n        /* \"#utility.yul\":963:972   */\n      dup3\n        /* \"#utility.yul\":954:961   */\n      dup5\n        /* \"#utility.yul\":950:973   */\n      sub\n        /* \"#utility.yul\":946:978   */\n      slt\n        /* \"#utility.yul\":943:945   */\n      iszero\n      tag_174\n      jumpi\n        /* \"#utility.yul\":991:992   */\n      0x00\n        /* \"#utility.yul\":988:989   */\n      dup1\n        /* \"#utility.yul\":981:993   */\n      revert\n        /* \"#utility.yul\":943:945   */\n    tag_174:\n        /* \"#utility.yul\":1034:1035   */\n      0x00\n        /* \"#utility.yul\":1059:1112   */\n      tag_175\n        /* \"#utility.yul\":1104:1111   */\n      dup5\n        /* \"#utility.yul\":1095:1101   */\n      dup3\n        /* \"#utility.yul\":1084:1093   */\n      dup6\n        /* \"#utility.yul\":1080:1102   */\n      add\n        /* \"#utility.yul\":1059:1112   */\n      tag_162\n      jump\t// in\n    tag_175:\n        /* \"#utility.yul\":1049:1112   */\n      swap2\n      pop\n        /* \"#utility.yul\":1005:1122   */\n      pop\n        /* \"#utility.yul\":933:1129   */\n      swap3\n      swap2\n      pop\n      pop\n      jump\t// out\n        /* \"#utility.yul\":1135:1542   */\n    tag_44:\n        /* \"#utility.yul\":1203:1209   */\n      0x00\n        /* \"#utility.yul\":1211:1217   */\n      dup1\n        /* \"#utility.yul\":1260:1262   */\n      0x40\n        /* \"#utility.yul\":1248:1257   */\n      dup4\n        /* \"#utility.yul\":1239:1246   */\n      dup6\n        /* \"#utility.yul\":1235:1258   */\n      sub\n        /* \"#utility.yul\":1231:1263   */\n      slt\n        /* \"#utility.yul\":1228:1230   */\n      iszero\n      tag_177\n      jumpi\n        /* \"#utility.yul\":1276:1277   */\n      0x00\n        /* \"#utility.yul\":1273:1274   */\n      dup1\n        /* \"#utility.yul\":1266:1278   */\n      revert\n        /* \"#utility.yul\":1228:1230   */\n    tag_177:\n        /* \"#utility.yul\":1319:1320   */\n      0x00\n        /* \"#utility.yul\":1344:1397   */\n      tag_178\n        /* \"#utility.yul\":1389:1396   */\n      dup6\n        /* \"#utility.yul\":1380:1386   */\n      dup3\n        /* \"#utility.yul\":1369:1378   */\n      dup7\n        /* \"#utility.yul\":1365:1387   */\n      add\n        /* \"#utility.yul\":1344:1397   */\n      tag_162\n      jump\t// in\n    tag_178:\n        /* \"#utility.yul\":1334:1397   */\n      swap3\n      pop\n        /* \"#utility.yul\":1290:1407   */\n      pop\n        /* \"#utility.yul\":1446:1448   */\n      0x20\n        /* \"#utility.yul\":1472:1525   */\n      tag_179\n        /* \"#utility.yul\":1517:1524   */\n      dup6\n        /* \"#utility.yul\":1508:1514   */\n      dup3\n        /* \"#utility.yul\":1497:1506   */\n      dup7\n        /* \"#utility.yul\":1493:1515   */\n      add\n        /* \"#utility.yul\":1472:1525   */\n      tag_154\n      jump\t// in\n    tag_179:\n        /* \"#utility.yul\":1462:1525   */\n      swap2\n      pop\n        /* \"#utility.yul\":1417:1535   */\n      pop\n        /* \"#utility.yul\":1218:1542   */\n      swap3\n      pop\n      swap3\n      swap1\n      pop\n      jump\t// out\n        /* \"#utility.yul\":1548:1955   */\n    tag_17:\n        /* \"#utility.yul\":1616:1622   */\n      0x00\n        /* \"#utility.yul\":1624:1630   */\n      dup1\n        /* \"#utility.yul\":1673:1675   */\n      0x40\n        /* \"#utility.yul\":1661:1670   */\n      dup4\n        /* \"#utility.yul\":1652:1659   */\n      dup6\n        /* \"#utility.yul\":1648:1671   */\n      sub\n        /* \"#utility.yul\":1644:1676   */\n      slt\n        /* \"#utility.yul\":1641:1643   */\n      iszero\n      tag_181\n      jumpi\n        /* \"#utility.yul\":1689:1690   */\n      0x00\n        /* \"#utility.yul\":1686:1687   */\n      dup1\n        /* \"#utility.yul\":1679:1691   */\n      revert\n        /* \"#utility.yul\":1641:1643   */\n    tag_181:\n        /* \"#utility.yul\":1732:1733   */\n      0x00\n        /* \"#utility.yul\":1757:1810   */\n      tag_182\n        /* \"#utility.yul\":1802:1809   */\n      dup6\n        /* \"#utility.yul\":1793:1799   */\n      dup3\n        /* \"#utility.yul\":1782:1791   */\n      dup7\n        /* \"#utility.yul\":1778:1800   */\n      add\n        /* \"#utility.yul\":1757:1810   */\n      tag_162\n      jump\t// in\n    tag_182:\n        /* \"#utility.yul\":1747:1810   */\n      swap3\n      pop\n        /* \"#utility.yul\":1703:1820   */\n      pop\n        /* \"#utility.yul\":1859:1861   */\n      0x20\n        /* \"#utility.yul\":1885:1938   */\n      tag_183\n        /* \"#utility.yul\":1930:1937   */\n      dup6\n        /* \"#utility.yul\":1921:1927   */\n      dup3\n        /* \"#utility.yul\":1910:1919   */\n      dup7\n        /* \"#utility.yul\":1906:1928   */\n      add\n        /* \"#utility.yul\":1885:1938   */\n      tag_162\n      jump\t// in\n    tag_183:\n        /* \"#utility.yul\":1875:1938   */\n      swap2\n      pop\n        /* \"#utility.yul\":1830:1948   */\n      pop\n        /* \"#utility.yul\":1631:1955   */\n      swap3\n      pop\n      swap3\n      swap1\n      pop\n      jump\t// out\n        /* \"#utility.yul\":1961:2509   */\n    tag_36:\n        /* \"#utility.yul\":2036:2042   */\n      0x00\n        /* \"#utility.yul\":2044:2050   */\n      dup1\n        /* \"#utility.yul\":2052:2058   */\n      0x00\n        /* \"#utility.yul\":2101:2103   */\n      0x60\n        /* \"#utility.yul\":2089:2098   */\n      dup5\n        /* \"#utility.yul\":2080:2087   */\n      dup7\n        /* \"#utility.yul\":2076:2099   */\n      sub\n        /* \"#utility.yul\":2072:2104   */\n      slt\n        /* \"#utility.yul\":2069:2071   */\n      iszero\n      tag_185\n      jumpi\n        /* \"#utility.yul\":2117:2118   */\n      0x00\n        /* \"#utility.yul\":2114:2115   */\n      dup1\n        /* \"#utility.yul\":2107:2119   */\n      revert\n        /* \"#utility.yul\":2069:2071   */\n    tag_185:\n        /* \"#utility.yul\":2160:2161   */\n      0x00\n        /* \"#utility.yul\":2185:2238   */\n      tag_186\n        /* \"#utility.yul\":2230:2237   */\n      dup7\n        /* \"#utility.yul\":2221:2227   */\n      dup3\n        /* \"#utility.yul\":2210:2219   */\n      dup8\n        /* \"#utility.yul\":2206:2228   */\n      add\n        /* \"#utility.yul\":2185:2238   */\n      tag_162\n      jump\t// in\n    tag_186:\n        /* \"#utility.yul\":2175:2238   */\n      swap4\n      pop\n        /* \"#utility.yul\":2131:2248   */\n      pop\n        /* \"#utility.yul\":2287:2289   */\n      0x20\n        /* \"#utility.yul\":2313:2365   */\n      tag_187\n        /* \"#utility.yul\":2357:2364   */\n      dup7\n        /* \"#utility.yul\":2348:2354   */\n      dup3\n        /* \"#utility.yul\":2337:2346   */\n      dup8\n        /* \"#utility.yul\":2333:2355   */\n      add\n        /* \"#utility.yul\":2313:2365   */\n      tag_166\n      jump\t// in\n    tag_187:\n        /* \"#utility.yul\":2303:2365   */\n      swap3\n      pop\n        /* \"#utility.yul\":2258:2375   */\n      pop\n        /* \"#utility.yul\":2414:2416   */\n      0x40\n        /* \"#utility.yul\":2440:2492   */\n      tag_188\n        /* \"#utility.yul\":2484:2491   */\n      dup7\n        /* \"#utility.yul\":2475:2481   */\n      dup3\n        /* \"#utility.yul\":2464:2473   */\n      dup8\n        /* \"#utility.yul\":2460:2482   */\n      add\n        /* \"#utility.yul\":2440:2492   */\n      tag_166\n      jump\t// in\n    tag_188:\n        /* \"#utility.yul\":2430:2492   */\n      swap2\n      pop\n        /* \"#utility.yul\":2385:2502   */\n      pop\n        /* \"#utility.yul\":2059:2509   */\n      swap3\n      pop\n      swap3\n      pop\n      swap3\n      jump\t// out\n        /* \"#utility.yul\":2515:2633   */\n    tag_189:\n        /* \"#utility.yul\":2602:2626   */\n      tag_191\n        /* \"#utility.yul\":2620:2625   */\n      dup2\n        /* \"#utility.yul\":2602:2626   */\n      tag_192\n      jump\t// in\n    tag_191:\n        /* \"#utility.yul\":2597:2600   */\n      dup3\n        /* \"#utility.yul\":2590:2627   */\n      mstore\n        /* \"#utility.yul\":2580:2633   */\n      pop\n      pop\n      jump\t// out\n        /* \"#utility.yul\":2639:2748   */\n    tag_193:\n        /* \"#utility.yul\":2720:2741   */\n      tag_195\n        /* \"#utility.yul\":2735:2740   */\n      dup2\n        /* \"#utility.yul\":2720:2741   */\n      tag_196\n      jump\t// in\n    tag_195:\n        /* \"#utility.yul\":2715:2718   */\n      dup3\n        /* \"#utility.yul\":2708:2742   */\n      mstore\n        /* \"#utility.yul\":2698:2748   */\n      pop\n      pop\n      jump\t// out\n        /* \"#utility.yul\":2754:2911   */\n    tag_197:\n        /* \"#utility.yul\":2854:2904   */\n      tag_199\n        /* \"#utility.yul\":2898:2903   */\n      dup2\n        /* \"#utility.yul\":2854:2904   */\n      tag_200\n      jump\t// in\n    tag_199:\n        /* \"#utility.yul\":2849:2852   */\n      dup3\n        /* \"#utility.yul\":2842:2905   */\n      mstore\n        /* \"#utility.yul\":2832:2911   */\n      pop\n      pop\n      jump\t// out\n        /* \"#utility.yul\":2917:3283   */\n    tag_201:\n        /* \"#utility.yul\":3059:3062   */\n      0x00\n        /* \"#utility.yul\":3080:3147   */\n      tag_203\n        /* \"#utility.yul\":3144:3146   */\n      0x0d\n        /* \"#utility.yul\":3139:3142   */\n      dup4\n        /* \"#utility.yul\":3080:3147   */\n      tag_204\n      jump\t// in\n    tag_203:\n        /* \"#utility.yul\":3073:3147   */\n      swap2\n      pop\n        /* \"#utility.yul\":3156:3249   */\n      tag_205\n        /* \"#utility.yul\":3245:3248   */\n      dup3\n        /* \"#utility.yul\":3156:3249   */\n      tag_206\n      jump\t// in\n    tag_205:\n        /* \"#utility.yul\":3274:3276   */\n      0x20\n        /* \"#utility.yul\":3269:3272   */\n      dup3\n        /* \"#utility.yul\":3265:3277   */\n      add\n        /* \"#utility.yul\":3258:3277   */\n      swap1\n      pop\n        /* \"#utility.yul\":3063:3283   */\n      swap2\n      swap1\n      pop\n      jump\t// out\n        /* \"#utility.yul\":3289:3655   */\n    tag_207:\n        /* \"#utility.yul\":3431:3434   */\n      0x00\n        /* \"#utility.yul\":3452:3519   */\n      tag_209\n        /* \"#utility.yul\":3516:3518   */\n      0x15\n        /* \"#utility.yul\":3511:3514   */\n      dup4\n        /* \"#utility.yul\":3452:3519   */\n      tag_204\n      jump\t// in\n    tag_209:\n        /* \"#utility.yul\":3445:3519   */\n      swap2\n      pop\n        /* \"#utility.yul\":3528:3621   */\n      tag_210\n        /* \"#utility.yul\":3617:3620   */\n      dup3\n        /* \"#utility.yul\":3528:3621   */\n      tag_211\n      jump\t// in\n    tag_210:\n        /* \"#utility.yul\":3646:3648   */\n      0x20\n        /* \"#utility.yul\":3641:3644   */\n      dup3\n        /* \"#utility.yul\":3637:3649   */\n      add\n        /* \"#utility.yul\":3630:3649   */\n      swap1\n      pop\n        /* \"#utility.yul\":3435:3655   */\n      swap2\n      swap1\n      pop\n      jump\t// out\n        /* \"#utility.yul\":3661:4027   */\n    tag_212:\n        /* \"#utility.yul\":3803:3806   */\n      0x00\n        /* \"#utility.yul\":3824:3891   */\n      tag_214\n        /* \"#utility.yul\":3888:3890   */\n      0x16\n        /* \"#utility.yul\":3883:3886   */\n      dup4\n        /* \"#utility.yul\":3824:3891   */\n      tag_204\n      jump\t// in\n    tag_214:\n        /* \"#utility.yul\":3817:3891   */\n      swap2\n      pop\n        /* \"#utility.yul\":3900:3993   */\n      tag_215\n        /* \"#utility.yul\":3989:3992   */\n      dup3\n        /* \"#utility.yul\":3900:3993   */\n      tag_216\n      jump\t// in\n    tag_215:\n        /* \"#utility.yul\":4018:4020   */\n      0x20\n        /* \"#utility.yul\":4013:4016   */\n      dup3\n        /* \"#utility.yul\":4009:4021   */\n      add\n        /* \"#utility.yul\":4002:4021   */\n      swap1\n      pop\n        /* \"#utility.yul\":3807:4027   */\n      swap2\n      swap1\n      pop\n      jump\t// out\n        /* \"#utility.yul\":4033:4398   */\n    tag_217:\n        /* \"#utility.yul\":4175:4178   */\n      0x00\n        /* \"#utility.yul\":4196:4262   */\n      tag_219\n        /* \"#utility.yul\":4260:4261   */\n      0x09\n        /* \"#utility.yul\":4255:4258   */\n      dup4\n        /* \"#utility.yul\":4196:4262   */\n      tag_204\n      jump\t// in\n    tag_219:\n        /* \"#utility.yul\":4189:4262   */\n      swap2\n      pop\n        /* \"#utility.yul\":4271:4364   */\n      tag_220\n        /* \"#utility.yul\":4360:4363   */\n      dup3\n        /* \"#utility.yul\":4271:4364   */\n      tag_221\n      jump\t// in\n    tag_220:\n        /* \"#utility.yul\":4389:4391   */\n      0x20\n        /* \"#utility.yul\":4384:4387   */\n      dup3\n        /* \"#utility.yul\":4380:4392   */\n      add\n        /* \"#utility.yul\":4373:4392   */\n      swap1\n      pop\n        /* \"#utility.yul\":4179:4398   */\n      swap2\n      swap1\n      pop\n      jump\t// out\n        /* \"#utility.yul\":4404:4770   */\n    tag_222:\n        /* \"#utility.yul\":4546:4549   */\n      0x00\n        /* \"#utility.yul\":4567:4634   */\n      tag_224\n        /* \"#utility.yul\":4631:4633   */\n      0x17\n        /* \"#utility.yul\":4626:4629   */\n      dup4\n        /* \"#utility.yul\":4567:4634   */\n      tag_204\n      jump\t// in\n    tag_224:\n        /* \"#utility.yul\":4560:4634   */\n      swap2\n      pop\n        /* \"#utility.yul\":4643:4736   */\n      tag_225\n        /* \"#utility.yul\":4732:4735   */\n      dup3\n        /* \"#utility.yul\":4643:4736   */\n      tag_226\n      jump\t// in\n    tag_225:\n        /* \"#utility.yul\":4761:4763   */\n      0x20\n        /* \"#utility.yul\":4756:4759   */\n      dup3\n        /* \"#utility.yul\":4752:4764   */\n      add\n        /* \"#utility.yul\":4745:4764   */\n      swap1\n      pop\n        /* \"#utility.yul\":4550:4770   */\n      swap2\n      swap1\n      pop\n      jump\t// out\n        /* \"#utility.yul\":4776:5142   */\n    tag_227:\n        /* \"#utility.yul\":4918:4921   */\n      0x00\n        /* \"#utility.yul\":4939:5006   */\n      tag_229\n        /* \"#utility.yul\":5003:5005   */\n      0x11\n        /* \"#utility.yul\":4998:5001   */\n      dup4\n        /* \"#utility.yul\":4939:5006   */\n      tag_204\n      jump\t// in\n    tag_229:\n        /* \"#utility.yul\":4932:5006   */\n      swap2\n      pop\n        /* \"#utility.yul\":5015:5108   */\n      tag_230\n        /* \"#utility.yul\":5104:5107   */\n      dup3\n        /* \"#utility.yul\":5015:5108   */\n      tag_231\n      jump\t// in\n    tag_230:\n        /* \"#utility.yul\":5133:5135   */\n      0x20\n        /* \"#utility.yul\":5128:5131   */\n      dup3\n        /* \"#utility.yul\":5124:5136   */\n      add\n        /* \"#utility.yul\":5117:5136   */\n      swap1\n      pop\n        /* \"#utility.yul\":4922:5142   */\n      swap2\n      swap1\n      pop\n      jump\t// out\n        /* \"#utility.yul\":5148:5514   */\n    tag_232:\n        /* \"#utility.yul\":5290:5293   */\n      0x00\n        /* \"#utility.yul\":5311:5378   */\n      tag_234\n        /* \"#utility.yul\":5375:5377   */\n      0x13\n        /* \"#utility.yul\":5370:5373   */\n      dup4\n        /* \"#utility.yul\":5311:5378   */\n      tag_204\n      jump\t// in\n    tag_234:\n        /* \"#utility.yul\":5304:5378   */\n      swap2\n      pop\n        /* \"#utility.yul\":5387:5480   */\n      tag_235\n        /* \"#utility.yul\":5476:5479   */\n      dup3\n        /* \"#utility.yul\":5387:5480   */\n      tag_236\n      jump\t// in\n    tag_235:\n        /* \"#utility.yul\":5505:5507   */\n      0x20\n        /* \"#utility.yul\":5500:5503   */\n      dup3\n        /* \"#utility.yul\":5496:5508   */\n      add\n        /* \"#utility.yul\":5489:5508   */\n      swap1\n      pop\n        /* \"#utility.yul\":5294:5514   */\n      swap2\n      swap1\n      pop\n      jump\t// out\n        /* \"#utility.yul\":5520:5886   */\n    tag_237:\n        /* \"#utility.yul\":5662:5665   */\n      0x00\n        /* \"#utility.yul\":5683:5750   */\n      tag_239\n        /* \"#utility.yul\":5747:5749   */\n      0x1b\n        /* \"#utility.yul\":5742:5745   */\n      dup4\n        /* \"#utility.yul\":5683:5750   */\n      tag_204\n      jump\t// in\n    tag_239:\n        /* \"#utility.yul\":5676:5750   */\n      swap2\n      pop\n        /* \"#utility.yul\":5759:5852   */\n      tag_240\n        /* \"#utility.yul\":5848:5851   */\n      dup3\n        /* \"#utility.yul\":5759:5852   */\n      tag_241\n      jump\t// in\n    tag_240:\n        /* \"#utility.yul\":5877:5879   */\n      0x20\n        /* \"#utility.yul\":5872:5875   */\n      dup3\n        /* \"#utility.yul\":5868:5880   */\n      add\n        /* \"#utility.yul\":5861:5880   */\n      swap1\n      pop\n        /* \"#utility.yul\":5666:5886   */\n      swap2\n      swap1\n      pop\n      jump\t// out\n        /* \"#utility.yul\":5892:6258   */\n    tag_242:\n        /* \"#utility.yul\":6034:6037   */\n      0x00\n        /* \"#utility.yul\":6055:6122   */\n      tag_244\n        /* \"#utility.yul\":6119:6121   */\n      0x16\n        /* \"#utility.yul\":6114:6117   */\n      dup4\n        /* \"#utility.yul\":6055:6122   */\n      tag_204\n      jump\t// in\n    tag_244:\n        /* \"#utility.yul\":6048:6122   */\n      swap2\n      pop\n        /* \"#utility.yul\":6131:6224   */\n      tag_245\n        /* \"#utility.yul\":6220:6223   */\n      dup3\n        /* \"#utility.yul\":6131:6224   */\n      tag_246\n      jump\t// in\n    tag_245:\n        /* \"#utility.yul\":6249:6251   */\n      0x20\n        /* \"#utility.yul\":6244:6247   */\n      dup3\n        /* \"#utility.yul\":6240:6252   */\n      add\n        /* \"#utility.yul\":6233:6252   */\n      swap1\n      pop\n        /* \"#utility.yul\":6038:6258   */\n      swap2\n      swap1\n      pop\n      jump\t// out\n        /* \"#utility.yul\":6264:6630   */\n    tag_247:\n        /* \"#utility.yul\":6406:6409   */\n      0x00\n        /* \"#utility.yul\":6427:6494   */\n      tag_249\n        /* \"#utility.yul\":6491:6493   */\n      0x0f\n        /* \"#utility.yul\":6486:6489   */\n      dup4\n        /* \"#utility.yul\":6427:6494   */\n      tag_204\n      jump\t// in\n    tag_249:\n        /* \"#utility.yul\":6420:6494   */\n      swap2\n      pop\n        /* \"#utility.yul\":6503:6596   */\n      tag_250\n        /* \"#utility.yul\":6592:6595   */\n      dup3\n        /* \"#utility.yul\":6503:6596   */\n      tag_251\n      jump\t// in\n    tag_250:\n        /* \"#utility.yul\":6621:6623   */\n      0x20\n        /* \"#utility.yul\":6616:6619   */\n      dup3\n        /* \"#utility.yul\":6612:6624   */\n      add\n        /* \"#utility.yul\":6605:6624   */\n      swap1\n      pop\n        /* \"#utility.yul\":6410:6630   */\n      swap2\n      swap1\n      pop\n      jump\t// out\n        /* \"#utility.yul\":6636:7002   */\n    tag_252:\n        /* \"#utility.yul\":6778:6781   */\n      0x00\n        /* \"#utility.yul\":6799:6866   */\n      tag_254\n        /* \"#utility.yul\":6863:6865   */\n      0x13\n        /* \"#utility.yul\":6858:6861   */\n      dup4\n        /* \"#utility.yul\":6799:6866   */\n      tag_204\n      jump\t// in\n    tag_254:\n        /* \"#utility.yul\":6792:6866   */\n      swap2\n      pop\n        /* \"#utility.yul\":6875:6968   */\n      tag_255\n        /* \"#utility.yul\":6964:6967   */\n      dup3\n        /* \"#utility.yul\":6875:6968   */\n      tag_256\n      jump\t// in\n    tag_255:\n        /* \"#utility.yul\":6993:6995   */\n      0x20\n        /* \"#utility.yul\":6988:6991   */\n      dup3\n        /* \"#utility.yul\":6984:6996   */\n      add\n        /* \"#utility.yul\":6977:6996   */\n      swap1\n      pop\n        /* \"#utility.yul\":6782:7002   */\n      swap2\n      swap1\n      pop\n      jump\t// out\n        /* \"#utility.yul\":7008:7374   */\n    tag_257:\n        /* \"#utility.yul\":7150:7153   */\n      0x00\n        /* \"#utility.yul\":7171:7238   */\n      tag_259\n        /* \"#utility.yul\":7235:7237   */\n      0x0f\n        /* \"#utility.yul\":7230:7233   */\n      dup4\n        /* \"#utility.yul\":7171:7238   */\n      tag_204\n      jump\t// in\n    tag_259:\n        /* \"#utility.yul\":7164:7238   */\n      swap2\n      pop\n        /* \"#utility.yul\":7247:7340   */\n      tag_260\n        /* \"#utility.yul\":7336:7339   */\n      dup3\n        /* \"#utility.yul\":7247:7340   */\n      tag_261\n      jump\t// in\n    tag_260:\n        /* \"#utility.yul\":7365:7367   */\n      0x20\n        /* \"#utility.yul\":7360:7363   */\n      dup3\n        /* \"#utility.yul\":7356:7368   */\n      add\n        /* \"#utility.yul\":7349:7368   */\n      swap1\n      pop\n        /* \"#utility.yul\":7154:7374   */\n      swap2\n      swap1\n      pop\n      jump\t// out\n        /* \"#utility.yul\":7380:7745   */\n    tag_262:\n        /* \"#utility.yul\":7522:7525   */\n      0x00\n        /* \"#utility.yul\":7543:7609   */\n      tag_264\n        /* \"#utility.yul\":7607:7608   */\n      0x05\n        /* \"#utility.yul\":7602:7605   */\n      dup4\n        /* \"#utility.yul\":7543:7609   */\n      tag_204\n      jump\t// in\n    tag_264:\n        /* \"#utility.yul\":7536:7609   */\n      swap2\n      pop\n        /* \"#utility.yul\":7618:7711   */\n      tag_265\n        /* \"#utility.yul\":7707:7710   */\n      dup3\n        /* \"#utility.yul\":7618:7711   */\n      tag_266\n      jump\t// in\n    tag_265:\n        /* \"#utility.yul\":7736:7738   */\n      0x20\n        /* \"#utility.yul\":7731:7734   */\n      dup3\n        /* \"#utility.yul\":7727:7739   */\n      add\n        /* \"#utility.yul\":7720:7739   */\n      swap1\n      pop\n        /* \"#utility.yul\":7526:7745   */\n      swap2\n      swap1\n      pop\n      jump\t// out\n        /* \"#utility.yul\":7751:8117   */\n    tag_267:\n        /* \"#utility.yul\":7893:7896   */\n      0x00\n        /* \"#utility.yul\":7914:7981   */\n      tag_269\n        /* \"#utility.yul\":7978:7980   */\n      0x11\n        /* \"#utility.yul\":7973:7976   */\n      dup4\n        /* \"#utility.yul\":7914:7981   */\n      tag_204\n      jump\t// in\n    tag_269:\n        /* \"#utility.yul\":7907:7981   */\n      swap2\n      pop\n        /* \"#utility.yul\":7990:8083   */\n      tag_270\n        /* \"#utility.yul\":8079:8082   */\n      dup3\n        /* \"#utility.yul\":7990:8083   */\n      tag_271\n      jump\t// in\n    tag_270:\n        /* \"#utility.yul\":8108:8110   */\n      0x20\n        /* \"#utility.yul\":8103:8106   */\n      dup3\n        /* \"#utility.yul\":8099:8111   */\n      add\n        /* \"#utility.yul\":8092:8111   */\n      swap1\n      pop\n        /* \"#utility.yul\":7897:8117   */\n      swap2\n      swap1\n      pop\n      jump\t// out\n        /* \"#utility.yul\":8123:8488   */\n    tag_272:\n        /* \"#utility.yul\":8265:8268   */\n      0x00\n        /* \"#utility.yul\":8286:8352   */\n      tag_274\n        /* \"#utility.yul\":8350:8351   */\n      0x09\n        /* \"#utility.yul\":8345:8348   */\n      dup4\n        /* \"#utility.yul\":8286:8352   */\n      tag_204\n      jump\t// in\n    tag_274:\n        /* \"#utility.yul\":8279:8352   */\n      swap2\n      pop\n        /* \"#utility.yul\":8361:8454   */\n      tag_275\n        /* \"#utility.yul\":8450:8453   */\n      dup3\n        /* \"#utility.yul\":8361:8454   */\n      tag_276\n      jump\t// in\n    tag_275:\n        /* \"#utility.yul\":8479:8481   */\n      0x20\n        /* \"#utility.yul\":8474:8477   */\n      dup3\n        /* \"#utility.yul\":8470:8482   */\n      add\n        /* \"#utility.yul\":8463:8482   */\n      swap1\n      pop\n        /* \"#utility.yul\":8269:8488   */\n      swap2\n      swap1\n      pop\n      jump\t// out\n        /* \"#utility.yul\":8494:8612   */\n    tag_277:\n        /* \"#utility.yul\":8581:8605   */\n      tag_279\n        /* \"#utility.yul\":8599:8604   */\n      dup2\n        /* \"#utility.yul\":8581:8605   */\n      tag_280\n      jump\t// in\n    tag_279:\n        /* \"#utility.yul\":8576:8579   */\n      dup3\n        /* \"#utility.yul\":8569:8606   */\n      mstore\n        /* \"#utility.yul\":8559:8612   */\n      pop\n      pop\n      jump\t// out\n        /* \"#utility.yul\":8618:8733   */\n    tag_281:\n        /* \"#utility.yul\":8703:8726   */\n      tag_283\n        /* \"#utility.yul\":8720:8725   */\n      dup2\n        /* \"#utility.yul\":8703:8726   */\n      tag_284\n      jump\t// in\n    tag_283:\n        /* \"#utility.yul\":8698:8701   */\n      dup3\n        /* \"#utility.yul\":8691:8727   */\n      mstore\n        /* \"#utility.yul\":8681:8733   */\n      pop\n      pop\n      jump\t// out\n        /* \"#utility.yul\":8739:8961   */\n    tag_41:\n        /* \"#utility.yul\":8832:8836   */\n      0x00\n        /* \"#utility.yul\":8870:8872   */\n      0x20\n        /* \"#utility.yul\":8859:8868   */\n      dup3\n        /* \"#utility.yul\":8855:8873   */\n      add\n        /* \"#utility.yul\":8847:8873   */\n      swap1\n      pop\n        /* \"#utility.yul\":8883:8954   */\n      tag_286\n        /* \"#utility.yul\":8951:8952   */\n      0x00\n        /* \"#utility.yul\":8940:8949   */\n      dup4\n        /* \"#utility.yul\":8936:8953   */\n      add\n        /* \"#utility.yul\":8927:8933   */\n      dup5\n        /* \"#utility.yul\":8883:8954   */\n      tag_189\n      jump\t// in\n    tag_286:\n        /* \"#utility.yul\":8837:8961   */\n      swap3\n      swap2\n      pop\n      pop\n      jump\t// out\n        /* \"#utility.yul\":8967:9299   */\n    tag_82:\n        /* \"#utility.yul\":9088:9092   */\n      0x00\n        /* \"#utility.yul\":9126:9128   */\n      0x40\n        /* \"#utility.yul\":9115:9124   */\n      dup3\n        /* \"#utility.yul\":9111:9129   */\n      add\n        /* \"#utility.yul\":9103:9129   */\n      swap1\n      pop\n        /* \"#utility.yul\":9139:9210   */\n      tag_288\n        /* \"#utility.yul\":9207:9208   */\n      0x00\n        /* \"#utility.yul\":9196:9205   */\n      dup4\n        /* \"#utility.yul\":9192:9209   */\n      add\n        /* \"#utility.yul\":9183:9189   */\n      dup6\n        /* \"#utility.yul\":9139:9210   */\n      tag_189\n      jump\t// in\n    tag_288:\n        /* \"#utility.yul\":9220:9292   */\n      tag_289\n        /* \"#utility.yul\":9288:9290   */\n      0x20\n        /* \"#utility.yul\":9277:9286   */\n      dup4\n        /* \"#utility.yul\":9273:9291   */\n      add\n        /* \"#utility.yul\":9264:9270   */\n      dup5\n        /* \"#utility.yul\":9220:9292   */\n      tag_277\n      jump\t// in\n    tag_289:\n        /* \"#utility.yul\":9093:9299   */\n      swap4\n      swap3\n      pop\n      pop\n      pop\n      jump\t// out\n        /* \"#utility.yul\":9305:9961   */\n    tag_140:\n        /* \"#utility.yul\":9506:9510   */\n      0x00\n        /* \"#utility.yul\":9544:9547   */\n      0xa0\n        /* \"#utility.yul\":9533:9542   */\n      dup3\n        /* \"#utility.yul\":9529:9548   */\n      add\n        /* \"#utility.yul\":9521:9548   */\n      swap1\n      pop\n        /* \"#utility.yul\":9558:9629   */\n      tag_291\n        /* \"#utility.yul\":9626:9627   */\n      0x00\n        /* \"#utility.yul\":9615:9624   */\n      dup4\n        /* \"#utility.yul\":9611:9628   */\n      add\n        /* \"#utility.yul\":9602:9608   */\n      dup9\n        /* \"#utility.yul\":9558:9629   */\n      tag_189\n      jump\t// in\n    tag_291:\n        /* \"#utility.yul\":9639:9709   */\n      tag_292\n        /* \"#utility.yul\":9705:9707   */\n      0x20\n        /* \"#utility.yul\":9694:9703   */\n      dup4\n        /* \"#utility.yul\":9690:9708   */\n      add\n        /* \"#utility.yul\":9681:9687   */\n      dup8\n        /* \"#utility.yul\":9639:9709   */\n      tag_281\n      jump\t// in\n    tag_292:\n        /* \"#utility.yul\":9719:9789   */\n      tag_293\n        /* \"#utility.yul\":9785:9787   */\n      0x40\n        /* \"#utility.yul\":9774:9783   */\n      dup4\n        /* \"#utility.yul\":9770:9788   */\n      add\n        /* \"#utility.yul\":9761:9767   */\n      dup7\n        /* \"#utility.yul\":9719:9789   */\n      tag_281\n      jump\t// in\n    tag_293:\n        /* \"#utility.yul\":9799:9871   */\n      tag_294\n        /* \"#utility.yul\":9867:9869   */\n      0x60\n        /* \"#utility.yul\":9856:9865   */\n      dup4\n        /* \"#utility.yul\":9852:9870   */\n      add\n        /* \"#utility.yul\":9843:9849   */\n      dup6\n        /* \"#utility.yul\":9799:9871   */\n      tag_277\n      jump\t// in\n    tag_294:\n        /* \"#utility.yul\":9881:9954   */\n      tag_295\n        /* \"#utility.yul\":9949:9952   */\n      0x80\n        /* \"#utility.yul\":9938:9947   */\n      dup4\n        /* \"#utility.yul\":9934:9953   */\n      add\n        /* \"#utility.yul\":9925:9931   */\n      dup5\n        /* \"#utility.yul\":9881:9954   */\n      tag_277\n      jump\t// in\n    tag_295:\n        /* \"#utility.yul\":9511:9961   */\n      swap7\n      swap6\n      pop\n      pop\n      pop\n      pop\n      pop\n      pop\n      jump\t// out\n        /* \"#utility.yul\":9967:10215   */\n    tag_57:\n        /* \"#utility.yul\":10073:10077   */\n      0x00\n        /* \"#utility.yul\":10111:10113   */\n      0x20\n        /* \"#utility.yul\":10100:10109   */\n      dup3\n        /* \"#utility.yul\":10096:10114   */\n      add\n        /* \"#utility.yul\":10088:10114   */\n      swap1\n      pop\n        /* \"#utility.yul\":10124:10208   */\n      tag_297\n        /* \"#utility.yul\":10205:10206   */\n      0x00\n        /* \"#utility.yul\":10194:10203   */\n      dup4\n        /* \"#utility.yul\":10190:10207   */\n      add\n        /* \"#utility.yul\":10181:10187   */\n      dup5\n        /* \"#utility.yul\":10124:10208   */\n      tag_197\n      jump\t// in\n    tag_297:\n        /* \"#utility.yul\":10078:10215   */\n      swap3\n      swap2\n      pop\n      pop\n      jump\t// out\n        /* \"#utility.yul\":10221:10640   */\n    tag_133:\n        /* \"#utility.yul\":10387:10391   */\n      0x00\n        /* \"#utility.yul\":10425:10427   */\n      0x20\n        /* \"#utility.yul\":10414:10423   */\n      dup3\n        /* \"#utility.yul\":10410:10428   */\n      add\n        /* \"#utility.yul\":10402:10428   */\n      swap1\n      pop\n        /* \"#utility.yul\":10474:10483   */\n      dup2\n        /* \"#utility.yul\":10468:10472   */\n      dup2\n        /* \"#utility.yul\":10464:10484   */\n      sub\n        /* \"#utility.yul\":10460:10461   */\n      0x00\n        /* \"#utility.yul\":10449:10458   */\n      dup4\n        /* \"#utility.yul\":10445:10462   */\n      add\n        /* \"#utility.yul\":10438:10485   */\n      mstore\n        /* \"#utility.yul\":10502:10633   */\n      tag_299\n        /* \"#utility.yul\":10628:10632   */\n      dup2\n        /* \"#utility.yul\":10502:10633   */\n      tag_201\n      jump\t// in\n    tag_299:\n        /* \"#utility.yul\":10494:10633   */\n      swap1\n      pop\n        /* \"#utility.yul\":10392:10640   */\n      swap2\n      swap1\n      pop\n      jump\t// out\n        /* \"#utility.yul\":10646:11065   */\n    tag_106:\n        /* \"#utility.yul\":10812:10816   */\n      0x00\n        /* \"#utility.yul\":10850:10852   */\n      0x20\n        /* \"#utility.yul\":10839:10848   */\n      dup3\n        /* \"#utility.yul\":10835:10853   */\n      add\n        /* \"#utility.yul\":10827:10853   */\n      swap1\n      pop\n        /* \"#utility.yul\":10899:10908   */\n      dup2\n        /* \"#utility.yul\":10893:10897   */\n      dup2\n        /* \"#utility.yul\":10889:10909   */\n      sub\n        /* \"#utility.yul\":10885:10886   */\n      0x00\n        /* \"#utility.yul\":10874:10883   */\n      dup4\n        /* \"#utility.yul\":10870:10887   */\n      add\n        /* \"#utility.yul\":10863:10910   */\n      mstore\n        /* \"#utility.yul\":10927:11058   */\n      tag_301\n        /* \"#utility.yul\":11053:11057   */\n      dup2\n        /* \"#utility.yul\":10927:11058   */\n      tag_207\n      jump\t// in\n    tag_301:\n        /* \"#utility.yul\":10919:11058   */\n      swap1\n      pop\n        /* \"#utility.yul\":10817:11065   */\n      swap2\n      swap1\n      pop\n      jump\t// out\n        /* \"#utility.yul\":11071:11490   */\n    tag_68:\n        /* \"#utility.yul\":11237:11241   */\n      0x00\n        /* \"#utility.yul\":11275:11277   */\n      0x20\n        /* \"#utility.yul\":11264:11273   */\n      dup3\n        /* \"#utility.yul\":11260:11278   */\n      add\n        /* \"#utility.yul\":11252:11278   */\n      swap1\n      pop\n        /* \"#utility.yul\":11324:11333   */\n      dup2\n        /* \"#utility.yul\":11318:11322   */\n      dup2\n        /* \"#utility.yul\":11314:11334   */\n      sub\n        /* \"#utility.yul\":11310:11311   */\n      0x00\n        /* \"#utility.yul\":11299:11308   */\n      dup4\n        /* \"#utility.yul\":11295:11312   */\n      add\n        /* \"#utility.yul\":11288:11335   */\n      mstore\n        /* \"#utility.yul\":11352:11483   */\n      tag_303\n        /* \"#utility.yul\":11478:11482   */\n      dup2\n        /* \"#utility.yul\":11352:11483   */\n      tag_212\n      jump\t// in\n    tag_303:\n        /* \"#utility.yul\":11344:11483   */\n      swap1\n      pop\n        /* \"#utility.yul\":11242:11490   */\n      swap2\n      swap1\n      pop\n      jump\t// out\n        /* \"#utility.yul\":11496:11915   */\n    tag_61:\n        /* \"#utility.yul\":11662:11666   */\n      0x00\n        /* \"#utility.yul\":11700:11702   */\n      0x20\n        /* \"#utility.yul\":11689:11698   */\n      dup3\n        /* \"#utility.yul\":11685:11703   */\n      add\n        /* \"#utility.yul\":11677:11703   */\n      swap1\n      pop\n        /* \"#utility.yul\":11749:11758   */\n      dup2\n        /* \"#utility.yul\":11743:11747   */\n      dup2\n        /* \"#utility.yul\":11739:11759   */\n      sub\n        /* \"#utility.yul\":11735:11736   */\n      0x00\n        /* \"#utility.yul\":11724:11733   */\n      dup4\n        /* \"#utility.yul\":11720:11737   */\n      add\n        /* \"#utility.yul\":11713:11760   */\n      mstore\n        /* \"#utility.yul\":11777:11908   */\n      tag_305\n        /* \"#utility.yul\":11903:11907   */\n      dup2\n        /* \"#utility.yul\":11777:11908   */\n      tag_217\n      jump\t// in\n    tag_305:\n        /* \"#utility.yul\":11769:11908   */\n      swap1\n      pop\n        /* \"#utility.yul\":11667:11915   */\n      swap2\n      swap1\n      pop\n      jump\t// out\n        /* \"#utility.yul\":11921:12340   */\n    tag_112:\n        /* \"#utility.yul\":12087:12091   */\n      0x00\n        /* \"#utility.yul\":12125:12127   */\n      0x20\n        /* \"#utility.yul\":12114:12123   */\n      dup3\n        /* \"#utility.yul\":12110:12128   */\n      add\n        /* \"#utility.yul\":12102:12128   */\n      swap1\n      pop\n        /* \"#utility.yul\":12174:12183   */\n      dup2\n        /* \"#utility.yul\":12168:12172   */\n      dup2\n        /* \"#utility.yul\":12164:12184   */\n      sub\n        /* \"#utility.yul\":12160:12161   */\n      0x00\n        /* \"#utility.yul\":12149:12158   */\n      dup4\n        /* \"#utility.yul\":12145:12162   */\n      add\n        /* \"#utility.yul\":12138:12185   */\n      mstore\n        /* \"#utility.yul\":12202:12333   */\n      tag_307\n        /* \"#utility.yul\":12328:12332   */\n      dup2\n        /* \"#utility.yul\":12202:12333   */\n      tag_222\n      jump\t// in\n    tag_307:\n        /* \"#utility.yul\":12194:12333   */\n      swap1\n      pop\n        /* \"#utility.yul\":12092:12340   */\n      swap2\n      swap1\n      pop\n      jump\t// out\n        /* \"#utility.yul\":12346:12765   */\n    tag_129:\n        /* \"#utility.yul\":12512:12516   */\n      0x00\n        /* \"#utility.yul\":12550:12552   */\n      0x20\n        /* \"#utility.yul\":12539:12548   */\n      dup3\n        /* \"#utility.yul\":12535:12553   */\n      add\n        /* \"#utility.yul\":12527:12553   */\n      swap1\n      pop\n        /* \"#utility.yul\":12599:12608   */\n      dup2\n        /* \"#utility.yul\":12593:12597   */\n      dup2\n        /* \"#utility.yul\":12589:12609   */\n      sub\n        /* \"#utility.yul\":12585:12586   */\n      0x00\n        /* \"#utility.yul\":12574:12583   */\n      dup4\n        /* \"#utility.yul\":12570:12587   */\n      add\n        /* \"#utility.yul\":12563:12610   */\n      mstore\n        /* \"#utility.yul\":12627:12758   */\n      tag_309\n        /* \"#utility.yul\":12753:12757   */\n      dup2\n        /* \"#utility.yul\":12627:12758   */\n      tag_227\n      jump\t// in\n    tag_309:\n        /* \"#utility.yul\":12619:12758   */\n      swap1\n      pop\n        /* \"#utility.yul\":12517:12765   */\n      swap2\n      swap1\n      pop\n      jump\t// out\n        /* \"#utility.yul\":12771:13190   */\n    tag_136:\n        /* \"#utility.yul\":12937:12941   */\n      0x00\n        /* \"#utility.yul\":12975:12977   */\n      0x20\n        /* \"#utility.yul\":12964:12973   */\n      dup3\n        /* \"#utility.yul\":12960:12978   */\n      add\n        /* \"#utility.yul\":12952:12978   */\n      swap1\n      pop\n        /* \"#utility.yul\":13024:13033   */\n      dup2\n        /* \"#utility.yul\":13018:13022   */\n      dup2\n        /* \"#utility.yul\":13014:13034   */\n      sub\n        /* \"#utility.yul\":13010:13011   */\n      0x00\n        /* \"#utility.yul\":12999:13008   */\n      dup4\n        /* \"#utility.yul\":12995:13012   */\n      add\n        /* \"#utility.yul\":12988:13035   */\n      mstore\n        /* \"#utility.yul\":13052:13183   */\n      tag_311\n        /* \"#utility.yul\":13178:13182   */\n      dup2\n        /* \"#utility.yul\":13052:13183   */\n      tag_232\n      jump\t// in\n    tag_311:\n        /* \"#utility.yul\":13044:13183   */\n      swap1\n      pop\n        /* \"#utility.yul\":12942:13190   */\n      swap2\n      swap1\n      pop\n      jump\t// out\n        /* \"#utility.yul\":13196:13615   */\n    tag_126:\n        /* \"#utility.yul\":13362:13366   */\n      0x00\n        /* \"#utility.yul\":13400:13402   */\n      0x20\n        /* \"#utility.yul\":13389:13398   */\n      dup3\n        /* \"#utility.yul\":13385:13403   */\n      add\n        /* \"#utility.yul\":13377:13403   */\n      swap1\n      pop\n        /* \"#utility.yul\":13449:13458   */\n      dup2\n        /* \"#utility.yul\":13443:13447   */\n      dup2\n        /* \"#utility.yul\":13439:13459   */\n      sub\n        /* \"#utility.yul\":13435:13436   */\n      0x00\n        /* \"#utility.yul\":13424:13433   */\n      dup4\n        /* \"#utility.yul\":13420:13437   */\n      add\n        /* \"#utility.yul\":13413:13460   */\n      mstore\n        /* \"#utility.yul\":13477:13608   */\n      tag_313\n        /* \"#utility.yul\":13603:13607   */\n      dup2\n        /* \"#utility.yul\":13477:13608   */\n      tag_237\n      jump\t// in\n    tag_313:\n        /* \"#utility.yul\":13469:13608   */\n      swap1\n      pop\n        /* \"#utility.yul\":13367:13615   */\n      swap2\n      swap1\n      pop\n      jump\t// out\n        /* \"#utility.yul\":13621:14040   */\n    tag_101:\n        /* \"#utility.yul\":13787:13791   */\n      0x00\n        /* \"#utility.yul\":13825:13827   */\n      0x20\n        /* \"#utility.yul\":13814:13823   */\n      dup3\n        /* \"#utility.yul\":13810:13828   */\n      add\n        /* \"#utility.yul\":13802:13828   */\n      swap1\n      pop\n        /* \"#utility.yul\":13874:13883   */\n      dup2\n        /* \"#utility.yul\":13868:13872   */\n      dup2\n        /* \"#utility.yul\":13864:13884   */\n      sub\n        /* \"#utility.yul\":13860:13861   */\n      0x00\n        /* \"#utility.yul\":13849:13858   */\n      dup4\n        /* \"#utility.yul\":13845:13862   */\n      add\n        /* \"#utility.yul\":13838:13885   */\n      mstore\n        /* \"#utility.yul\":13902:14033   */\n      tag_315\n        /* \"#utility.yul\":14028:14032   */\n      dup2\n        /* \"#utility.yul\":13902:14033   */\n      tag_242\n      jump\t// in\n    tag_315:\n        /* \"#utility.yul\":13894:14033   */\n      swap1\n      pop\n        /* \"#utility.yul\":13792:14040   */\n      swap2\n      swap1\n      pop\n      jump\t// out\n        /* \"#utility.yul\":14046:14465   */\n    tag_109:\n        /* \"#utility.yul\":14212:14216   */\n      0x00\n        /* \"#utility.yul\":14250:14252   */\n      0x20\n        /* \"#utility.yul\":14239:14248   */\n      dup3\n        /* \"#utility.yul\":14235:14253   */\n      add\n        /* \"#utility.yul\":14227:14253   */\n      swap1\n      pop\n        /* \"#utility.yul\":14299:14308   */\n      dup2\n        /* \"#utility.yul\":14293:14297   */\n      dup2\n        /* \"#utility.yul\":14289:14309   */\n      sub\n        /* \"#utility.yul\":14285:14286   */\n      0x00\n        /* \"#utility.yul\":14274:14283   */\n      dup4\n        /* \"#utility.yul\":14270:14287   */\n      add\n        /* \"#utility.yul\":14263:14310   */\n      mstore\n        /* \"#utility.yul\":14327:14458   */\n      tag_317\n        /* \"#utility.yul\":14453:14457   */\n      dup2\n        /* \"#utility.yul\":14327:14458   */\n      tag_247\n      jump\t// in\n    tag_317:\n        /* \"#utility.yul\":14319:14458   */\n      swap1\n      pop\n        /* \"#utility.yul\":14217:14465   */\n      swap2\n      swap1\n      pop\n      jump\t// out\n        /* \"#utility.yul\":14471:14890   */\n    tag_95:\n        /* \"#utility.yul\":14637:14641   */\n      0x00\n        /* \"#utility.yul\":14675:14677   */\n      0x20\n        /* \"#utility.yul\":14664:14673   */\n      dup3\n        /* \"#utility.yul\":14660:14678   */\n      add\n        /* \"#utility.yul\":14652:14678   */\n      swap1\n      pop\n        /* \"#utility.yul\":14724:14733   */\n      dup2\n        /* \"#utility.yul\":14718:14722   */\n      dup2\n        /* \"#utility.yul\":14714:14734   */\n      sub\n        /* \"#utility.yul\":14710:14711   */\n      0x00\n        /* \"#utility.yul\":14699:14708   */\n      dup4\n        /* \"#utility.yul\":14695:14712   */\n      add\n        /* \"#utility.yul\":14688:14735   */\n      mstore\n        /* \"#utility.yul\":14752:14883   */\n      tag_319\n        /* \"#utility.yul\":14878:14882   */\n      dup2\n        /* \"#utility.yul\":14752:14883   */\n      tag_252\n      jump\t// in\n    tag_319:\n        /* \"#utility.yul\":14744:14883   */\n      swap1\n      pop\n        /* \"#utility.yul\":14642:14890   */\n      swap2\n      swap1\n      pop\n      jump\t// out\n        /* \"#utility.yul\":14896:15315   */\n    tag_80:\n        /* \"#utility.yul\":15062:15066   */\n      0x00\n        /* \"#utility.yul\":15100:15102   */\n      0x20\n        /* \"#utility.yul\":15089:15098   */\n      dup3\n        /* \"#utility.yul\":15085:15103   */\n      add\n        /* \"#utility.yul\":15077:15103   */\n      swap1\n      pop\n        /* \"#utility.yul\":15149:15158   */\n      dup2\n        /* \"#utility.yul\":15143:15147   */\n      dup2\n        /* \"#utility.yul\":15139:15159   */\n      sub\n        /* \"#utility.yul\":15135:15136   */\n      0x00\n        /* \"#utility.yul\":15124:15133   */\n      dup4\n        /* \"#utility.yul\":15120:15137   */\n      add\n        /* \"#utility.yul\":15113:15160   */\n      mstore\n        /* \"#utility.yul\":15177:15308   */\n      tag_321\n        /* \"#utility.yul\":15303:15307   */\n      dup2\n        /* \"#utility.yul\":15177:15308   */\n      tag_257\n      jump\t// in\n    tag_321:\n        /* \"#utility.yul\":15169:15308   */\n      swap1\n      pop\n        /* \"#utility.yul\":15067:15315   */\n      swap2\n      swap1\n      pop\n      jump\t// out\n        /* \"#utility.yul\":15321:15740   */\n    tag_144:\n        /* \"#utility.yul\":15487:15491   */\n      0x00\n        /* \"#utility.yul\":15525:15527   */\n      0x20\n        /* \"#utility.yul\":15514:15523   */\n      dup3\n        /* \"#utility.yul\":15510:15528   */\n      add\n        /* \"#utility.yul\":15502:15528   */\n      swap1\n      pop\n        /* \"#utility.yul\":15574:15583   */\n      dup2\n        /* \"#utility.yul\":15568:15572   */\n      dup2\n        /* \"#utility.yul\":15564:15584   */\n      sub\n        /* \"#utility.yul\":15560:15561   */\n      0x00\n        /* \"#utility.yul\":15549:15558   */\n      dup4\n        /* \"#utility.yul\":15545:15562   */\n      add\n        /* \"#utility.yul\":15538:15585   */\n      mstore\n        /* \"#utility.yul\":15602:15733   */\n      tag_323\n        /* \"#utility.yul\":15728:15732   */\n      dup2\n        /* \"#utility.yul\":15602:15733   */\n      tag_262\n      jump\t// in\n    tag_323:\n        /* \"#utility.yul\":15594:15733   */\n      swap1\n      pop\n        /* \"#utility.yul\":15492:15740   */\n      swap2\n      swap1\n      pop\n      jump\t// out\n        /* \"#utility.yul\":15746:16165   */\n    tag_65:\n        /* \"#utility.yul\":15912:15916   */\n      0x00\n        /* \"#utility.yul\":15950:15952   */\n      0x20\n        /* \"#utility.yul\":15939:15948   */\n      dup3\n        /* \"#utility.yul\":15935:15953   */\n      add\n        /* \"#utility.yul\":15927:15953   */\n      swap1\n      pop\n        /* \"#utility.yul\":15999:16008   */\n      dup2\n        /* \"#utility.yul\":15993:15997   */\n      dup2\n        /* \"#utility.yul\":15989:16009   */\n      sub\n        /* \"#utility.yul\":15985:15986   */\n      0x00\n        /* \"#utility.yul\":15974:15983   */\n      dup4\n        /* \"#utility.yul\":15970:15987   */\n      add\n        /* \"#utility.yul\":15963:16010   */\n      mstore\n        /* \"#utility.yul\":16027:16158   */\n      tag_325\n        /* \"#utility.yul\":16153:16157   */\n      dup2\n        /* \"#utility.yul\":16027:16158   */\n      tag_267\n      jump\t// in\n    tag_325:\n        /* \"#utility.yul\":16019:16158   */\n      swap1\n      pop\n        /* \"#utility.yul\":15917:16165   */\n      swap2\n      swap1\n      pop\n      jump\t// out\n        /* \"#utility.yul\":16171:16590   */\n    tag_77:\n        /* \"#utility.yul\":16337:16341   */\n      0x00\n        /* \"#utility.yul\":16375:16377   */\n      0x20\n        /* \"#utility.yul\":16364:16373   */\n      dup3\n        /* \"#utility.yul\":16360:16378   */\n      add\n        /* \"#utility.yul\":16352:16378   */\n      swap1\n      pop\n        /* \"#utility.yul\":16424:16433   */\n      dup2\n        /* \"#utility.yul\":16418:16422   */\n      dup2\n        /* \"#utility.yul\":16414:16434   */\n      sub\n        /* \"#utility.yul\":16410:16411   */\n      0x00\n        /* \"#utility.yul\":16399:16408   */\n      dup4\n        /* \"#utility.yul\":16395:16412   */\n      add\n        /* \"#utility.yul\":16388:16435   */\n      mstore\n        /* \"#utility.yul\":16452:16583   */\n      tag_327\n        /* \"#utility.yul\":16578:16582   */\n      dup2\n        /* \"#utility.yul\":16452:16583   */\n      tag_272\n      jump\t// in\n    tag_327:\n        /* \"#utility.yul\":16444:16583   */\n      swap1\n      pop\n        /* \"#utility.yul\":16342:16590   */\n      swap2\n      swap1\n      pop\n      jump\t// out\n        /* \"#utility.yul\":16596:16818   */\n    tag_47:\n        /* \"#utility.yul\":16689:16693   */\n      0x00\n        /* \"#utility.yul\":16727:16729   */\n      0x20\n        /* \"#utility.yul\":16716:16725   */\n      dup3\n        /* \"#utility.yul\":16712:16730   */\n      add\n        /* \"#utility.yul\":16704:16730   */\n      swap1\n      pop\n        /* \"#utility.yul\":16740:16811   */\n      tag_329\n        /* \"#utility.yul\":16808:16809   */\n      0x00\n        /* \"#utility.yul\":16797:16806   */\n      dup4\n        /* \"#utility.yul\":16793:16810   */\n      add\n        /* \"#utility.yul\":16784:16790   */\n      dup5\n        /* \"#utility.yul\":16740:16811   */\n      tag_277\n      jump\t// in\n    tag_329:\n        /* \"#utility.yul\":16694:16818   */\n      swap3\n      swap2\n      pop\n      pop\n      jump\t// out\n        /* \"#utility.yul\":16824:17266   */\n    tag_73:\n        /* \"#utility.yul\":16973:16977   */\n      0x00\n        /* \"#utility.yul\":17011:17013   */\n      0x60\n        /* \"#utility.yul\":17000:17009   */\n      dup3\n        /* \"#utility.yul\":16996:17014   */\n      add\n        /* \"#utility.yul\":16988:17014   */\n      swap1\n      pop\n        /* \"#utility.yul\":17024:17095   */\n      tag_331\n        /* \"#utility.yul\":17092:17093   */\n      0x00\n        /* \"#utility.yul\":17081:17090   */\n      dup4\n        /* \"#utility.yul\":17077:17094   */\n      add\n        /* \"#utility.yul\":17068:17074   */\n      dup7\n        /* \"#utility.yul\":17024:17095   */\n      tag_277\n      jump\t// in\n    tag_331:\n        /* \"#utility.yul\":17105:17177   */\n      tag_332\n        /* \"#utility.yul\":17173:17175   */\n      0x20\n        /* \"#utility.yul\":17162:17171   */\n      dup4\n        /* \"#utility.yul\":17158:17176   */\n      add\n        /* \"#utility.yul\":17149:17155   */\n      dup6\n        /* \"#utility.yul\":17105:17177   */\n      tag_189\n      jump\t// in\n    tag_332:\n        /* \"#utility.yul\":17187:17259   */\n      tag_333\n        /* \"#utility.yul\":17255:17257   */\n      0x40\n        /* \"#utility.yul\":17244:17253   */\n      dup4\n        /* \"#utility.yul\":17240:17258   */\n      add\n        /* \"#utility.yul\":17231:17237   */\n      dup5\n        /* \"#utility.yul\":17187:17259   */\n      tag_277\n      jump\t// in\n    tag_333:\n        /* \"#utility.yul\":16978:17266   */\n      swap5\n      swap4\n      pop\n      pop\n      pop\n      pop\n      jump\t// out\n        /* \"#utility.yul\":17272:17604   */\n    tag_121:\n        /* \"#utility.yul\":17393:17397   */\n      0x00\n        /* \"#utility.yul\":17431:17433   */\n      0x40\n        /* \"#utility.yul\":17420:17429   */\n      dup3\n        /* \"#utility.yul\":17416:17434   */\n      add\n        /* \"#utility.yul\":17408:17434   */\n      swap1\n      pop\n        /* \"#utility.yul\":17444:17515   */\n      tag_335\n        /* \"#utility.yul\":17512:17513   */\n      0x00\n        /* \"#utility.yul\":17501:17510   */\n      dup4\n        /* \"#utility.yul\":17497:17514   */\n      add\n        /* \"#utility.yul\":17488:17494   */\n      dup6\n        /* \"#utility.yul\":17444:17515   */\n      tag_277\n      jump\t// in\n    tag_335:\n        /* \"#utility.yul\":17525:17597   */\n      tag_336\n        /* \"#utility.yul\":17593:17595   */\n      0x20\n        /* \"#utility.yul\":17582:17591   */\n      dup4\n        /* \"#utility.yul\":17578:17596   */\n      add\n        /* \"#utility.yul\":17569:17575   */\n      dup5\n        /* \"#utility.yul\":17525:17597   */\n      tag_277\n      jump\t// in\n    tag_336:\n        /* \"#utility.yul\":17398:17604   */\n      swap4\n      swap3\n      pop\n      pop\n      pop\n      jump\t// out\n        /* \"#utility.yul\":17610:18052   */\n    tag_91:\n        /* \"#utility.yul\":17759:17763   */\n      0x00\n        /* \"#utility.yul\":17797:17799   */\n      0x60\n        /* \"#utility.yul\":17786:17795   */\n      dup3\n        /* \"#utility.yul\":17782:17800   */\n      add\n        /* \"#utility.yul\":17774:17800   */\n      swap1\n      pop\n        /* \"#utility.yul\":17810:17881   */\n      tag_338\n        /* \"#utility.yul\":17878:17879   */\n      0x00\n        /* \"#utility.yul\":17867:17876   */\n      dup4\n        /* \"#utility.yul\":17863:17880   */\n      add\n        /* \"#utility.yul\":17854:17860   */\n      dup7\n        /* \"#utility.yul\":17810:17881   */\n      tag_277\n      jump\t// in\n    tag_338:\n        /* \"#utility.yul\":17891:17963   */\n      tag_339\n        /* \"#utility.yul\":17959:17961   */\n      0x20\n        /* \"#utility.yul\":17948:17957   */\n      dup4\n        /* \"#utility.yul\":17944:17962   */\n      add\n        /* \"#utility.yul\":17935:17941   */\n      dup6\n        /* \"#utility.yul\":17891:17963   */\n      tag_277\n      jump\t// in\n    tag_339:\n        /* \"#utility.yul\":17973:18045   */\n      tag_340\n        /* \"#utility.yul\":18041:18043   */\n      0x40\n        /* \"#utility.yul\":18030:18039   */\n      dup4\n        /* \"#utility.yul\":18026:18044   */\n      add\n        /* \"#utility.yul\":18017:18023   */\n      dup5\n        /* \"#utility.yul\":17973:18045   */\n      tag_189\n      jump\t// in\n    tag_340:\n        /* \"#utility.yul\":17764:18052   */\n      swap5\n      swap4\n      pop\n      pop\n      pop\n      pop\n      jump\t// out\n        /* \"#utility.yul\":18058:18912   */\n    tag_24:\n        /* \"#utility.yul\":18303:18307   */\n      0x00\n        /* \"#utility.yul\":18341:18344   */\n      0xe0\n        /* \"#utility.yul\":18330:18339   */\n      dup3\n        /* \"#utility.yul\":18326:18345   */\n      add\n        /* \"#utility.yul\":18318:18345   */\n      swap1\n      pop\n        /* \"#utility.yul\":18355:18424   */\n      tag_342\n        /* \"#utility.yul\":18421:18422   */\n      0x00\n        /* \"#utility.yul\":18410:18419   */\n      dup4\n        /* \"#utility.yul\":18406:18423   */\n      add\n        /* \"#utility.yul\":18397:18403   */\n      dup11\n        /* \"#utility.yul\":18355:18424   */\n      tag_281\n      jump\t// in\n    tag_342:\n        /* \"#utility.yul\":18434:18504   */\n      tag_343\n        /* \"#utility.yul\":18500:18502   */\n      0x20\n        /* \"#utility.yul\":18489:18498   */\n      dup4\n        /* \"#utility.yul\":18485:18503   */\n      add\n        /* \"#utility.yul\":18476:18482   */\n      dup10\n        /* \"#utility.yul\":18434:18504   */\n      tag_281\n      jump\t// in\n    tag_343:\n        /* \"#utility.yul\":18514:18586   */\n      tag_344\n        /* \"#utility.yul\":18582:18584   */\n      0x40\n        /* \"#utility.yul\":18571:18580   */\n      dup4\n        /* \"#utility.yul\":18567:18585   */\n      add\n        /* \"#utility.yul\":18558:18564   */\n      dup9\n        /* \"#utility.yul\":18514:18586   */\n      tag_277\n      jump\t// in\n    tag_344:\n        /* \"#utility.yul\":18596:18668   */\n      tag_345\n        /* \"#utility.yul\":18664:18666   */\n      0x60\n        /* \"#utility.yul\":18653:18662   */\n      dup4\n        /* \"#utility.yul\":18649:18667   */\n      add\n        /* \"#utility.yul\":18640:18646   */\n      dup8\n        /* \"#utility.yul\":18596:18668   */\n      tag_277\n      jump\t// in\n    tag_345:\n        /* \"#utility.yul\":18678:18751   */\n      tag_346\n        /* \"#utility.yul\":18746:18749   */\n      0x80\n        /* \"#utility.yul\":18735:18744   */\n      dup4\n        /* \"#utility.yul\":18731:18750   */\n      add\n        /* \"#utility.yul\":18722:18728   */\n      dup7\n        /* \"#utility.yul\":18678:18751   */\n      tag_277\n      jump\t// in\n    tag_346:\n        /* \"#utility.yul\":18761:18828   */\n      tag_347\n        /* \"#utility.yul\":18823:18826   */\n      0xa0\n        /* \"#utility.yul\":18812:18821   */\n      dup4\n        /* \"#utility.yul\":18808:18827   */\n      add\n        /* \"#utility.yul\":18799:18805   */\n      dup6\n        /* \"#utility.yul\":18761:18828   */\n      tag_193\n      jump\t// in\n    tag_347:\n        /* \"#utility.yul\":18838:18905   */\n      tag_348\n        /* \"#utility.yul\":18900:18903   */\n      0xc0\n        /* \"#utility.yul\":18889:18898   */\n      dup4\n        /* \"#utility.yul\":18885:18904   */\n      add\n        /* \"#utility.yul\":18876:18882   */\n      dup5\n        /* \"#utility.yul\":18838:18905   */\n      tag_193\n      jump\t// in\n    tag_348:\n        /* \"#utility.yul\":18308:18912   */\n      swap9\n      swap8\n      pop\n      pop\n      pop\n      pop\n      pop\n      pop\n      pop\n      pop\n      jump\t// out\n        /* \"#utility.yul\":18918:19087   */\n    tag_204:\n        /* \"#utility.yul\":19002:19013   */\n      0x00\n        /* \"#utility.yul\":19036:19042   */\n      dup3\n        /* \"#utility.yul\":19031:19034   */\n      dup3\n        /* \"#utility.yul\":19024:19043   */\n      mstore\n        /* \"#utility.yul\":19076:19080   */\n      0x20\n        /* \"#utility.yul\":19071:19074   */\n      dup3\n        /* \"#utility.yul\":19067:19081   */\n      add\n        /* \"#utility.yul\":19052:19081   */\n      swap1\n      pop\n        /* \"#utility.yul\":19014:19087   */\n      swap3\n      swap2\n      pop\n      pop\n      jump\t// out\n        /* \"#utility.yul\":19093:19398   */\n    tag_70:\n        /* \"#utility.yul\":19133:19136   */\n      0x00\n        /* \"#utility.yul\":19152:19172   */\n      tag_351\n        /* \"#utility.yul\":19170:19171   */\n      dup3\n        /* \"#utility.yul\":19152:19172   */\n      tag_280\n      jump\t// in\n    tag_351:\n        /* \"#utility.yul\":19147:19172   */\n      swap2\n      pop\n        /* \"#utility.yul\":19186:19206   */\n      tag_352\n        /* \"#utility.yul\":19204:19205   */\n      dup4\n        /* \"#utility.yul\":19186:19206   */\n      tag_280\n      jump\t// in\n    tag_352:\n        /* \"#utility.yul\":19181:19206   */\n      swap3\n      pop\n        /* \"#utility.yul\":19340:19341   */\n      dup3\n        /* \"#utility.yul\":19272:19338   */\n      0xffffffffffffffffffffffffffffffffffffffffffffffffffffffffffffffff\n        /* \"#utility.yul\":19268:19342   */\n      sub\n        /* \"#utility.yul\":19265:19266   */\n      dup3\n        /* \"#utility.yul\":19262:19343   */\n      gt\n        /* \"#utility.yul\":19259:19261   */\n      iszero\n      tag_353\n      jumpi\n        /* \"#utility.yul\":19346:19364   */\n      tag_354\n      tag_355\n      jump\t// in\n    tag_354:\n        /* \"#utility.yul\":19259:19261   */\n    tag_353:\n        /* \"#utility.yul\":19390:19391   */\n      dup3\n        /* \"#utility.yul\":19387:19388   */\n      dup3\n        /* \"#utility.yul\":19383:19392   */\n      add\n        /* \"#utility.yul\":19376:19392   */\n      swap1\n      pop\n        /* \"#utility.yul\":19137:19398   */\n      swap3\n      swap2\n      pop\n      pop\n      jump\t// out\n        /* \"#utility.yul\":19404:19595   */\n    tag_114:\n        /* \"#utility.yul\":19444:19448   */\n      0x00\n        /* \"#utility.yul\":19464:19484   */\n      tag_357\n        /* \"#utility.yul\":19482:19483   */\n      dup3\n        /* \"#utility.yul\":19464:19484   */\n      tag_280\n      jump\t// in\n    tag_357:\n        /* \"#utility.yul\":19459:19484   */\n      swap2\n      pop\n        /* \"#utility.yul\":19498:19518   */\n      tag_358\n        /* \"#utility.yul\":19516:19517   */\n      dup4\n        /* \"#utility.yul\":19498:19518   */\n      tag_280\n      jump\t// in\n    tag_358:\n        /* \"#utility.yul\":19493:19518   */\n      swap3\n      pop\n        /* \"#utility.yul\":19537:19538   */\n      dup3\n        /* \"#utility.yul\":19534:19535   */\n      dup3\n        /* \"#utility.yul\":19531:19539   */\n      lt\n        /* \"#utility.yul\":19528:19530   */\n      iszero\n      tag_359\n      jumpi\n        /* \"#utility.yul\":19542:19560   */\n      tag_360\n      tag_355\n      jump\t// in\n    tag_360:\n        /* \"#utility.yul\":19528:19530   */\n    tag_359:\n        /* \"#utility.yul\":19587:19588   */\n      dup3\n        /* \"#utility.yul\":19584:19585   */\n      dup3\n        /* \"#utility.yul\":19580:19589   */\n      sub\n        /* \"#utility.yul\":19572:19589   */\n      swap1\n      pop\n        /* \"#utility.yul\":19449:19595   */\n      swap3\n      swap2\n      pop\n      pop\n      jump\t// out\n        /* \"#utility.yul\":19601:19697   */\n    tag_192:\n        /* \"#utility.yul\":19638:19645   */\n      0x00\n        /* \"#utility.yul\":19667:19691   */\n      tag_362\n        /* \"#utility.yul\":19685:19690   */\n      dup3\n        /* \"#utility.yul\":19667:19691   */\n      tag_363\n      jump\t// in\n    tag_362:\n        /* \"#utility.yul\":19656:19691   */\n      swap1\n      pop\n        /* \"#utility.yul\":19646:19697   */\n      swap2\n      swap1\n      pop\n      jump\t// out\n        /* \"#utility.yul\":19703:19793   */\n    tag_196:\n        /* \"#utility.yul\":19737:19744   */\n      0x00\n        /* \"#utility.yul\":19780:19785   */\n      dup2\n        /* \"#utility.yul\":19773:19786   */\n      iszero\n        /* \"#utility.yul\":19766:19787   */\n      iszero\n        /* \"#utility.yul\":19755:19787   */\n      swap1\n      pop\n        /* \"#utility.yul\":19745:19793   */\n      swap2\n      swap1\n      pop\n      jump\t// out\n        /* \"#utility.yul\":19799:19925   */\n    tag_363:\n        /* \"#utility.yul\":19836:19843   */\n      0x00\n        /* \"#utility.yul\":19876:19918   */\n      0xffffffffffffffffffffffffffffffffffffffff\n        /* \"#utility.yul\":19869:19874   */\n      dup3\n        /* \"#utility.yul\":19865:19919   */\n      and\n        /* \"#utility.yul\":19854:19919   */\n      swap1\n      pop\n        /* \"#utility.yul\":19844:19925   */\n      swap2\n      swap1\n      pop\n      jump\t// out\n        /* \"#utility.yul\":19931:20008   */\n    tag_280:\n        /* \"#utility.yul\":19968:19975   */\n      0x00\n        /* \"#utility.yul\":19997:20002   */\n      dup2\n        /* \"#utility.yul\":19986:20002   */\n      swap1\n      pop\n        /* \"#utility.yul\":19976:20008   */\n      swap2\n      swap1\n      pop\n      jump\t// out\n        /* \"#utility.yul\":20014:20107   */\n    tag_284:\n        /* \"#utility.yul\":20050:20057   */\n      0x00\n        /* \"#utility.yul\":20090:20100   */\n      0xffffffff\n        /* \"#utility.yul\":20083:20088   */\n      dup3\n        /* \"#utility.yul\":20079:20101   */\n      and\n        /* \"#utility.yul\":20068:20101   */\n      swap1\n      pop\n        /* \"#utility.yul\":20058:20107   */\n      swap2\n      swap1\n      pop\n      jump\t// out\n        /* \"#utility.yul\":20113:20265   */\n    tag_200:\n        /* \"#utility.yul\":20176:20185   */\n      0x00\n        /* \"#utility.yul\":20209:20259   */\n      tag_369\n        /* \"#utility.yul\":20253:20258   */\n      dup3\n        /* \"#utility.yul\":20209:20259   */\n      tag_370\n      jump\t// in\n    tag_369:\n        /* \"#utility.yul\":20196:20259   */\n      swap1\n      pop\n        /* \"#utility.yul\":20186:20265   */\n      swap2\n      swap1\n      pop\n      jump\t// out\n        /* \"#utility.yul\":20271:20397   */\n    tag_370:\n        /* \"#utility.yul\":20334:20343   */\n      0x00\n        /* \"#utility.yul\":20367:20391   */\n      tag_372\n        /* \"#utility.yul\":20385:20390   */\n      dup3\n        /* \"#utility.yul\":20367:20391   */\n      tag_363\n      jump\t// in\n    tag_372:\n        /* \"#utility.yul\":20354:20391   */\n      swap1\n      pop\n        /* \"#utility.yul\":20344:20397   */\n      swap2\n      swap1\n      pop\n      jump\t// out\n        /* \"#utility.yul\":20403:20574   */\n    tag_89:\n        /* \"#utility.yul\":20442:20445   */\n      0x00\n        /* \"#utility.yul\":20465:20489   */\n      tag_374\n        /* \"#utility.yul\":20483:20488   */\n      dup3\n        /* \"#utility.yul\":20465:20489   */\n      tag_280\n      jump\t// in\n    tag_374:\n        /* \"#utility.yul\":20456:20489   */\n      swap2\n      pop\n        /* \"#utility.yul\":20511:20515   */\n      0x00\n        /* \"#utility.yul\":20504:20509   */\n      dup3\n        /* \"#utility.yul\":20501:20516   */\n      eq\n        /* \"#utility.yul\":20498:20500   */\n      iszero\n      tag_375\n      jumpi\n        /* \"#utility.yul\":20519:20537   */\n      tag_376\n      tag_355\n      jump\t// in\n    tag_376:\n        /* \"#utility.yul\":20498:20500   */\n    tag_375:\n        /* \"#utility.yul\":20566:20567   */\n      0x01\n        /* \"#utility.yul\":20559:20564   */\n      dup3\n        /* \"#utility.yul\":20555:20568   */\n      sub\n        /* \"#utility.yul\":20548:20568   */\n      swap1\n      pop\n        /* \"#utility.yul\":20446:20574   */\n      swap2\n      swap1\n      pop\n      jump\t// out\n        /* \"#utility.yul\":20580:20813   */\n    tag_138:\n        /* \"#utility.yul\":20619:20622   */\n      0x00\n        /* \"#utility.yul\":20642:20666   */\n      tag_378\n        /* \"#utility.yul\":20660:20665   */\n      dup3\n        /* \"#utility.yul\":20642:20666   */\n      tag_280\n      jump\t// in\n    tag_378:\n        /* \"#utility.yul\":20633:20666   */\n      swap2\n      pop\n        /* \"#utility.yul\":20688:20754   */\n      0xffffffffffffffffffffffffffffffffffffffffffffffffffffffffffffffff\n        /* \"#utility.yul\":20681:20686   */\n      dup3\n        /* \"#utility.yul\":20678:20755   */\n      eq\n        /* \"#utility.yul\":20675:20677   */\n      iszero\n      tag_379\n      jumpi\n        /* \"#utility.yul\":20758:20776   */\n      tag_380\n      tag_355\n      jump\t// in\n    tag_380:\n        /* \"#utility.yul\":20675:20677   */\n    tag_379:\n        /* \"#utility.yul\":20805:20806   */\n      0x01\n        /* \"#utility.yul\":20798:20803   */\n      dup3\n        /* \"#utility.yul\":20794:20807   */\n      add\n        /* \"#utility.yul\":20787:20807   */\n      swap1\n      pop\n        /* \"#utility.yul\":20623:20813   */\n      swap2\n      swap1\n      pop\n      jump\t// out\n        /* \"#utility.yul\":20819:20999   */\n    tag_355:\n        /* \"#utility.yul\":20867:20944   */\n      0x4e487b7100000000000000000000000000000000000000000000000000000000\n        /* \"#utility.yul\":20864:20865   */\n      0x00\n        /* \"#utility.yul\":20857:20945   */\n      mstore\n        /* \"#utility.yul\":20964:20968   */\n      0x11\n        /* \"#utility.yul\":20961:20962   */\n      0x04\n        /* \"#utility.yul\":20954:20969   */\n      mstore\n        /* \"#utility.yul\":20988:20992   */\n      0x24\n        /* \"#utility.yul\":20985:20986   */\n      0x00\n        /* \"#utility.yul\":20978:20993   */\n      revert\n        /* \"#utility.yul\":21005:21168   */\n    tag_206:\n        /* \"#utility.yul\":21145:21160   */\n      0x207365636f6e64206572726f7200000000000000000000000000000000000000\n        /* \"#utility.yul\":21141:21142   */\n      0x00\n        /* \"#utility.yul\":21133:21139   */\n      dup3\n        /* \"#utility.yul\":21129:21143   */\n      add\n        /* \"#utility.yul\":21122:21161   */\n      mstore\n        /* \"#utility.yul\":21111:21168   */\n      pop\n      jump\t// out\n        /* \"#utility.yul\":21174:21345   */\n    tag_211:\n        /* \"#utility.yul\":21314:21337   */\n      0x6f6e6c7920666f756e6465722077697468647261770000000000000000000000\n        /* \"#utility.yul\":21310:21311   */\n      0x00\n        /* \"#utility.yul\":21302:21308   */\n      dup3\n        /* \"#utility.yul\":21298:21312   */\n      add\n        /* \"#utility.yul\":21291:21338   */\n      mstore\n        /* \"#utility.yul\":21280:21345   */\n      pop\n      jump\t// out\n        /* \"#utility.yul\":21351:21523   */\n    tag_216:\n        /* \"#utility.yul\":21491:21515   */\n      0x646f6e6174652076616c7565206d757374206765203000000000000000000000\n        /* \"#utility.yul\":21487:21488   */\n      0x00\n        /* \"#utility.yul\":21479:21485   */\n      dup3\n        /* \"#utility.yul\":21475:21489   */\n      add\n        /* \"#utility.yul\":21468:21516   */\n      mstore\n        /* \"#utility.yul\":21457:21523   */\n      pop\n      jump\t// out\n        /* \"#utility.yul\":21529:21688   */\n    tag_221:\n        /* \"#utility.yul\":21669:21680   */\n      0x63726f776420656e640000000000000000000000000000000000000000000000\n        /* \"#utility.yul\":21665:21666   */\n      0x00\n        /* \"#utility.yul\":21657:21663   */\n      dup3\n        /* \"#utility.yul\":21653:21667   */\n      add\n        /* \"#utility.yul\":21646:21681   */\n      mstore\n        /* \"#utility.yul\":21635:21688   */\n      pop\n      jump\t// out\n        /* \"#utility.yul\":21694:21867   */\n    tag_226:\n        /* \"#utility.yul\":21834:21859   */\n      0x6e6f7420656e6f7567682066756e6473206572726f7220000000000000000000\n        /* \"#utility.yul\":21830:21831   */\n      0x00\n        /* \"#utility.yul\":21822:21828   */\n      dup3\n        /* \"#utility.yul\":21818:21832   */\n      add\n        /* \"#utility.yul\":21811:21860   */\n      mstore\n        /* \"#utility.yul\":21800:21867   */\n      pop\n      jump\t// out\n        /* \"#utility.yul\":21873:22040   */\n    tag_231:\n        /* \"#utility.yul\":22013:22032   */\n      0x20616d6f756e74206d7573742067652030000000000000000000000000000000\n        /* \"#utility.yul\":22009:22010   */\n      0x00\n        /* \"#utility.yul\":22001:22007   */\n      dup3\n        /* \"#utility.yul\":21997:22011   */\n      add\n        /* \"#utility.yul\":21990:22033   */\n      mstore\n        /* \"#utility.yul\":21979:22040   */\n      pop\n      jump\t// out\n        /* \"#utility.yul\":22046:22215   */\n    tag_236:\n        /* \"#utility.yul\":22186:22207   */\n      0x6f6e6c7920666f756e6465722063726561746500000000000000000000000000\n        /* \"#utility.yul\":22182:22183   */\n      0x00\n        /* \"#utility.yul\":22174:22180   */\n      dup3\n        /* \"#utility.yul\":22170:22184   */\n      add\n        /* \"#utility.yul\":22163:22208   */\n      mstore\n        /* \"#utility.yul\":22152:22215   */\n      pop\n      jump\t// out\n        /* \"#utility.yul\":22221:22398   */\n    tag_241:\n        /* \"#utility.yul\":22361:22390   */\n      0x6372656174652063726f776466756e642074696d65206572726f720000000000\n        /* \"#utility.yul\":22357:22358   */\n      0x00\n        /* \"#utility.yul\":22349:22355   */\n      dup3\n        /* \"#utility.yul\":22345:22359   */\n      add\n        /* \"#utility.yul\":22338:22391   */\n      mstore\n        /* \"#utility.yul\":22327:22398   */\n      pop\n      jump\t// out\n        /* \"#utility.yul\":22404:22576   */\n    tag_246:\n        /* \"#utility.yul\":22544:22568   */\n      0x6f6e6c792073746172742074696d652063616e63656c00000000000000000000\n        /* \"#utility.yul\":22540:22541   */\n      0x00\n        /* \"#utility.yul\":22532:22538   */\n      dup3\n        /* \"#utility.yul\":22528:22542   */\n      add\n        /* \"#utility.yul\":22521:22569   */\n      mstore\n        /* \"#utility.yul\":22510:22576   */\n      pop\n      jump\t// out\n        /* \"#utility.yul\":22582:22747   */\n    tag_251:\n        /* \"#utility.yul\":22722:22739   */\n      0x656e642074696d65206572726f72200000000000000000000000000000000000\n        /* \"#utility.yul\":22718:22719   */\n      0x00\n        /* \"#utility.yul\":22710:22716   */\n      dup3\n        /* \"#utility.yul\":22706:22720   */\n      add\n        /* \"#utility.yul\":22699:22740   */\n      mstore\n        /* \"#utility.yul\":22688:22747   */\n      pop\n      jump\t// out\n        /* \"#utility.yul\":22753:22922   */\n    tag_256:\n        /* \"#utility.yul\":22893:22914   */\n      0x6f6e6c7920666f756e6465722063616e63656c00000000000000000000000000\n        /* \"#utility.yul\":22889:22890   */\n      0x00\n        /* \"#utility.yul\":22881:22887   */\n      dup3\n        /* \"#utility.yul\":22877:22891   */\n      add\n        /* \"#utility.yul\":22870:22915   */\n      mstore\n        /* \"#utility.yul\":22859:22922   */\n      pop\n      jump\t// out\n        /* \"#utility.yul\":22928:23093   */\n    tag_261:\n        /* \"#utility.yul\":23068:23085   */\n      0x706c6564676564203e3d20676f616c0000000000000000000000000000000000\n        /* \"#utility.yul\":23064:23065   */\n      0x00\n        /* \"#utility.yul\":23056:23062   */\n      dup3\n        /* \"#utility.yul\":23052:23066   */\n      add\n        /* \"#utility.yul\":23045:23086   */\n      mstore\n        /* \"#utility.yul\":23034:23093   */\n      pop\n      jump\t// out\n        /* \"#utility.yul\":23099:23254   */\n    tag_266:\n        /* \"#utility.yul\":23239:23246   */\n      0x656e646564000000000000000000000000000000000000000000000000000000\n        /* \"#utility.yul\":23235:23236   */\n      0x00\n        /* \"#utility.yul\":23227:23233   */\n      dup3\n        /* \"#utility.yul\":23223:23237   */\n      add\n        /* \"#utility.yul\":23216:23247   */\n      mstore\n        /* \"#utility.yul\":23205:23254   */\n      pop\n      jump\t// out\n        /* \"#utility.yul\":23260:23427   */\n    tag_271:\n        /* \"#utility.yul\":23400:23419   */\n      0x646f6e6174652074696d65206572726f72000000000000000000000000000000\n        /* \"#utility.yul\":23396:23397   */\n      0x00\n        /* \"#utility.yul\":23388:23394   */\n      dup3\n        /* \"#utility.yul\":23384:23398   */\n      add\n        /* \"#utility.yul\":23377:23420   */\n      mstore\n        /* \"#utility.yul\":23366:23427   */\n      pop\n      jump\t// out\n        /* \"#utility.yul\":23433:23592   */\n    tag_276:\n        /* \"#utility.yul\":23573:23584   */\n      0x6e6f7420656e6465640000000000000000000000000000000000000000000000\n        /* \"#utility.yul\":23569:23570   */\n      0x00\n        /* \"#utility.yul\":23561:23567   */\n      dup3\n        /* \"#utility.yul\":23557:23571   */\n      add\n        /* \"#utility.yul\":23550:23585   */\n      mstore\n        /* \"#utility.yul\":23539:23592   */\n      pop\n      jump\t// out\n        /* \"#utility.yul\":23598:23720   */\n    tag_157:\n        /* \"#utility.yul\":23671:23695   */\n      tag_398\n        /* \"#utility.yul\":23689:23694   */\n      dup2\n        /* \"#utility.yul\":23671:23695   */\n      tag_192\n      jump\t// in\n    tag_398:\n        /* \"#utility.yul\":23664:23669   */\n      dup2\n        /* \"#utility.yul\":23661:23696   */\n      eq\n        /* \"#utility.yul\":23651:23653   */\n      tag_399\n      jumpi\n        /* \"#utility.yul\":23710:23711   */\n      0x00\n        /* \"#utility.yul\":23707:23708   */\n      dup1\n        /* \"#utility.yul\":23700:23712   */\n      revert\n        /* \"#utility.yul\":23651:23653   */\n    tag_399:\n        /* \"#utility.yul\":23641:23720   */\n      pop\n      jump\t// out\n        /* \"#utility.yul\":23726:23842   */\n    tag_161:\n        /* \"#utility.yul\":23796:23817   */\n      tag_401\n        /* \"#utility.yul\":23811:23816   */\n      dup2\n        /* \"#utility.yul\":23796:23817   */\n      tag_196\n      jump\t// in\n    tag_401:\n        /* \"#utility.yul\":23789:23794   */\n      dup2\n        /* \"#utility.yul\":23786:23818   */\n      eq\n        /* \"#utility.yul\":23776:23778   */\n      tag_402\n      jumpi\n        /* \"#utility.yul\":23832:23833   */\n      0x00\n        /* \"#utility.yul\":23829:23830   */\n      dup1\n        /* \"#utility.yul\":23822:23834   */\n      revert\n        /* \"#utility.yul\":23776:23778   */\n    tag_402:\n        /* \"#utility.yul\":23766:23842   */\n      pop\n      jump\t// out\n        /* \"#utility.yul\":23848:23970   */\n    tag_165:\n        /* \"#utility.yul\":23921:23945   */\n      tag_404\n        /* \"#utility.yul\":23939:23944   */\n      dup2\n        /* \"#utility.yul\":23921:23945   */\n      tag_280\n      jump\t// in\n    tag_404:\n        /* \"#utility.yul\":23914:23919   */\n      dup2\n        /* \"#utility.yul\":23911:23946   */\n      eq\n        /* \"#utility.yul\":23901:23903   */\n      tag_405\n      jumpi\n        /* \"#utility.yul\":23960:23961   */\n      0x00\n        /* \"#utility.yul\":23957:23958   */\n      dup1\n        /* \"#utility.yul\":23950:23962   */\n      revert\n        /* \"#utility.yul\":23901:23903   */\n    tag_405:\n        /* \"#utility.yul\":23891:23970   */\n      pop\n      jump\t// out\n        /* \"#utility.yul\":23976:24096   */\n    tag_169:\n        /* \"#utility.yul\":24048:24071   */\n      tag_407\n        /* \"#utility.yul\":24065:24070   */\n      dup2\n        /* \"#utility.yul\":24048:24071   */\n      tag_284\n      jump\t// in\n    tag_407:\n        /* \"#utility.yul\":24041:24046   */\n      dup2\n        /* \"#utility.yul\":24038:24072   */\n      eq\n        /* \"#utility.yul\":24028:24030   */\n      tag_408\n      jumpi\n        /* \"#utility.yul\":24086:24087   */\n      0x00\n        /* \"#utility.yul\":24083:24084   */\n      dup1\n        /* \"#utility.yul\":24076:24088   */\n      revert\n        /* \"#utility.yul\":24028:24030   */\n    tag_408:\n        /* \"#utility.yul\":24018:24096   */\n      pop\n      jump\t// out\n\n    auxdata: 0xa264697066735822122048bc46ae9e699b775e1a58f60e6fdad56d53b923e188c9c035e37859b0e7f82c64736f6c63430008040033\n}\n",
				"bytecode": {
					"linkReferences": {},
					"object": "60a06040523480156200001157600080fd5b5060405162001ecd38038062001ecd8339818101604052810190620000379190620000cd565b8073ffffffffffffffffffffffffffffffffffffffff1660808173ffffffffffffffffffffffffffffffffffffffff1660601b8152505033600260006101000a81548173ffffffffffffffffffffffffffffffffffffffff021916908373ffffffffffffffffffffffffffffffffffffffff1602179055505062000147565b600081519050620000c7816200012d565b92915050565b600060208284031215620000e057600080fd5b6000620000f084828501620000b6565b91505092915050565b600062000106826200010d565b9050919050565b600073ffffffffffffffffffffffffffffffffffffffff82169050919050565b6200013881620000f9565b81146200014457600080fd5b50565b60805160601c611d526200017b600039600081816105ed01528181610ad30152818161101801526111060152611d526000f3fe608060405234801561001057600080fd5b50600436106100a95760003560e01c80634b0529fb116100715780634b0529fb146101545780634d853ee514610170578063ab2c44bf1461018e578063b6c52ae8146101be578063deb75501146101dc578063fc0c546a146101f8576100a9565b80630cdd53f6146100ae5780631569e51b146100ca578063278ecde11461010057806340e58ee51461011c578063441a3e7014610138575b600080fd5b6100c860048036038101906100c3919061120a565b610216565b005b6100e460048036038101906100df91906111a5565b610409565b6040516100f79796959493929190611831565b60405180910390f35b61011a600480360381019061011591906111a5565b610485565b005b610136600480360381019061013191906111a5565b6106f3565b005b610152600480360381019061014d919061120a565b610967565b005b61016e60048036038101906101699190611246565b610be0565b005b610178610ed0565b60405161018591906114ed565b60405180910390f35b6101a860048036038101906101a391906111ce565b610ef6565b6040516101b5919061177f565b60405180910390f35b6101c6610f1b565b6040516101d3919061177f565b60405180910390f35b6101f660048036038101906101f1919061120a565b610f21565b005b610200611104565b60405161020d9190611584565b60405180910390f35b60006001600084815260200190815260200160002090508060040160009054906101000a900460ff1661027e576040517f08c379a0000000000000000000000000000000000000000000000000000000008152600401610275906115ff565b60405180910390fd5b8060000160009054906101000a900463ffffffff1663ffffffff1642101580156102c257508060000160049054906101000a900463ffffffff1663ffffffff164211155b610301576040517f08c379a00000000000000000000000000000000000000000000000000000000081526004016102f89061173f565b60405180910390fd5b60008211610344576040517f08c379a000000000000000000000000000000000000000000000000000000000815260040161033b906115df565b60405180910390fd5b8181600201600082825461035891906118b1565b92505081905550816000808360030154815260200190815260200160002060003373ffffffffffffffffffffffffffffffffffffffff1673ffffffffffffffffffffffffffffffffffffffff16815260200190815260200160002060008282546103c291906118b1565b925050819055507f48def02da8c59b50861e25bab759a8a0c0de6fab6448ef85f32ce59397947d808333846040516103fc9392919061179a565b60405180910390a1505050565b60016020528060005260406000206000915090508060000160009054906101000a900463ffffffff16908060000160049054906101000a900463ffffffff16908060010154908060020154908060030154908060040160009054906101000a900460ff16908060040160019054906101000a900460ff16905087565b60006001600083815260200190815260200160002090508060000160049054906101000a900463ffffffff1663ffffffff1642116104f8576040517f08c379a00000000000000000000000000000000000000000000000000000000081526004016104ef9061175f565b60405180910390fd5b8060010154816002015410610542576040517f08c379a0000000000000000000000000000000000000000000000000000000008152600401610539906116ff565b60405180910390fd5b600080600084815260200190815260200160002060003373ffffffffffffffffffffffffffffffffffffffff1673ffffffffffffffffffffffffffffffffffffffff168152602001908152602001600020549050600080600085815260200190815260200160002060003373ffffffffffffffffffffffffffffffffffffffff1673ffffffffffffffffffffffffffffffffffffffff168152602001908152602001600020819055507f000000000000000000000000000000000000000000000000000000000000000073ffffffffffffffffffffffffffffffffffffffff1663a9059cbb33836040518363ffffffff1660e01b8152600401610646929190611508565b602060405180830381600087803b15801561066057600080fd5b505af1158015610674573d6000803e3d6000fd5b505050506040513d601f19601f82011682018060405250810190610698919061117c565b508160020160008154809291906106ae906119b7565b91905055507ffe438001a6dd8298a7672e341088143b150c2227f220b57280a002f5357612b78382336040516106e6939291906117fa565b60405180910390a1505050565b60006001600083815260200190815260200160002090503373ffffffffffffffffffffffffffffffffffffffff16600260009054906101000a900473ffffffffffffffffffffffffffffffffffffffff1673ffffffffffffffffffffffffffffffffffffffff161461079a576040517f08c379a0000000000000000000000000000000000000000000000000000000008152600401610791906116df565b60405180910390fd5b8060040160009054906101000a900460ff166107eb576040517f08c379a00000000000000000000000000000000000000000000000000000000081526004016107e2906115ff565b60405180910390fd5b8060000160009054906101000a900463ffffffff1663ffffffff16421015801561082f57508060000160049054906101000a900463ffffffff1663ffffffff164211155b61086e576040517f08c379a00000000000000000000000000000000000000000000000000000000081526004016108659061169f565b60405180910390fd5b60008160040160006101000a81548160ff02191690831515021790555060018160040160016101000a81548160ff02191690831515021790555060016000838152602001908152602001600020600080820160006101000a81549063ffffffff02191690556000820160046101000a81549063ffffffff02191690556001820160009055600282016000905560038201600090556004820160006101000a81549060ff02191690556004820160016101000a81549060ff021916905550507f8bf30e7ff26833413be5f69e1d373744864d600b664204b4a2f9844a8eedb9ed8260405161095b919061177f565b60405180910390a15050565b60006001600084815260200190815260200160002090503373ffffffffffffffffffffffffffffffffffffffff16600260009054906101000a900473ffffffffffffffffffffffffffffffffffffffff1673ffffffffffffffffffffffffffffffffffffffff1614610a0e576040517f08c379a0000000000000000000000000000000000000000000000000000000008152600401610a05906115bf565b60405180910390fd5b8060000160049054906101000a900463ffffffff1663ffffffff164211610a6a576040517f08c379a0000000000000000000000000000000000000000000000000000000008152600401610a61906116bf565b60405180910390fd5b60008160010154905082811015610ab6576040517f08c379a0000000000000000000000000000000000000000000000000000000008152600401610aad9061161f565b60405180910390fd5b82826002016000828254610aca9190611907565b925050819055507f000000000000000000000000000000000000000000000000000000000000000073ffffffffffffffffffffffffffffffffffffffff1663a9059cbb600260009054906101000a900473ffffffffffffffffffffffffffffffffffffffff16856040518363ffffffff1660e01b8152600401610b4e929190611508565b602060405180830381600087803b158015610b6857600080fd5b505af1158015610b7c573d6000803e3d6000fd5b505050506040513d601f19601f82011682018060405250810190610ba0919061117c565b507f56ca301a9219608c91e7bcee90e083c19671d2cdcc96752c7af291cee5f9c8c88484604051610bd29291906117d1565b60405180910390a150505050565b601442610bed91906118b1565b8263ffffffff1611610c34576040517f08c379a0000000000000000000000000000000000000000000000000000000008152600401610c2b9061167f565b60405180910390fd5b60008311610c77576040517f08c379a0000000000000000000000000000000000000000000000000000000008152600401610c6e9061163f565b60405180910390fd5b60008163ffffffff1642610c8b91906118b1565b9050428163ffffffff1611610cd5576040517f08c379a0000000000000000000000000000000000000000000000000000000008152600401610ccc9061159f565b60405180910390fd5b3373ffffffffffffffffffffffffffffffffffffffff16600260009054906101000a900473ffffffffffffffffffffffffffffffffffffffff1673ffffffffffffffffffffffffffffffffffffffff1614610d65576040517f08c379a0000000000000000000000000000000000000000000000000000000008152600401610d5c9061165f565b60405180910390fd5b60036000815480929190610d78906119e1565b91905055506040518060e001604052808463ffffffff1681526020018263ffffffff1681526020018581526020016000815260200160035481526020016001151581526020016000151581525060016000600354815260200190815260200160002060008201518160000160006101000a81548163ffffffff021916908363ffffffff16021790555060208201518160000160046101000a81548163ffffffff021916908363ffffffff16021790555060408201518160010155606082015181600201556080820151816003015560a08201518160040160006101000a81548160ff02191690831515021790555060c08201518160040160016101000a81548160ff0219169083151502179055509050507fc72e4b427a443470025444af0220655796b8be7649dcd5e804864f8ad41f493a33848387600354604051610ec2959493929190611531565b60405180910390a150505050565b600260009054906101000a900473ffffffffffffffffffffffffffffffffffffffff1681565b6000602052816000526040600020602052806000526040600020600091509150505481565b60035481565b60006001600084815260200190815260200160002090508060000160049054906101000a900463ffffffff1663ffffffff16421115610f95576040517f08c379a0000000000000000000000000000000000000000000000000000000008152600401610f8c9061171f565b60405180910390fd5b81816002016000828254610fa99190611907565b925050819055508160008085815260200190815260200160002060003373ffffffffffffffffffffffffffffffffffffffff1673ffffffffffffffffffffffffffffffffffffffff168152602001908152602001600020600082825461100f9190611907565b925050819055507f000000000000000000000000000000000000000000000000000000000000000073ffffffffffffffffffffffffffffffffffffffff1663a9059cbb33846040518363ffffffff1660e01b8152600401611071929190611508565b602060405180830381600087803b15801561108b57600080fd5b505af115801561109f573d6000803e3d6000fd5b505050506040513d601f19601f820116820180604052508101906110c3919061117c565b507fe5434fda030c7c4d083d8209210ffca9271514f52bd75b42446ded1c423650508383336040516110f7939291906117fa565b60405180910390a1505050565b7f000000000000000000000000000000000000000000000000000000000000000081565b60008135905061113781611cc0565b92915050565b60008151905061114c81611cd7565b92915050565b60008135905061116181611cee565b92915050565b60008135905061117681611d05565b92915050565b60006020828403121561118e57600080fd5b600061119c8482850161113d565b91505092915050565b6000602082840312156111b757600080fd5b60006111c584828501611152565b91505092915050565b600080604083850312156111e157600080fd5b60006111ef85828601611152565b925050602061120085828601611128565b9150509250929050565b6000806040838503121561121d57600080fd5b600061122b85828601611152565b925050602061123c85828601611152565b9150509250929050565b60008060006060848603121561125b57600080fd5b600061126986828701611152565b935050602061127a86828701611167565b925050604061128b86828701611167565b9150509250925092565b61129e8161193b565b82525050565b6112ad8161194d565b82525050565b6112bc81611993565b82525050565b60006112cf600d836118a0565b91506112da82611a59565b602082019050919050565b60006112f26015836118a0565b91506112fd82611a82565b602082019050919050565b60006113156016836118a0565b915061132082611aab565b602082019050919050565b60006113386009836118a0565b915061134382611ad4565b602082019050919050565b600061135b6017836118a0565b915061136682611afd565b602082019050919050565b600061137e6011836118a0565b915061138982611b26565b602082019050919050565b60006113a16013836118a0565b91506113ac82611b4f565b602082019050919050565b60006113c4601b836118a0565b91506113cf82611b78565b602082019050919050565b60006113e76016836118a0565b91506113f282611ba1565b602082019050919050565b600061140a600f836118a0565b915061141582611bca565b602082019050919050565b600061142d6013836118a0565b915061143882611bf3565b602082019050919050565b6000611450600f836118a0565b915061145b82611c1c565b602082019050919050565b60006114736005836118a0565b915061147e82611c45565b602082019050919050565b60006114966011836118a0565b91506114a182611c6e565b602082019050919050565b60006114b96009836118a0565b91506114c482611c97565b602082019050919050565b6114d881611979565b82525050565b6114e781611983565b82525050565b60006020820190506115026000830184611295565b92915050565b600060408201905061151d6000830185611295565b61152a60208301846114cf565b9392505050565b600060a0820190506115466000830188611295565b61155360208301876114de565b61156060408301866114de565b61156d60608301856114cf565b61157a60808301846114cf565b9695505050505050565b600060208201905061159960008301846112b3565b92915050565b600060208201905081810360008301526115b8816112c2565b9050919050565b600060208201905081810360008301526115d8816112e5565b9050919050565b600060208201905081810360008301526115f881611308565b9050919050565b600060208201905081810360008301526116188161132b565b9050919050565b600060208201905081810360008301526116388161134e565b9050919050565b6000602082019050818103600083015261165881611371565b9050919050565b6000602082019050818103600083015261167881611394565b9050919050565b60006020820190508181036000830152611698816113b7565b9050919050565b600060208201905081810360008301526116b8816113da565b9050919050565b600060208201905081810360008301526116d8816113fd565b9050919050565b600060208201905081810360008301526116f881611420565b9050919050565b6000602082019050818103600083015261171881611443565b9050919050565b6000602082019050818103600083015261173881611466565b9050919050565b6000602082019050818103600083015261175881611489565b9050919050565b60006020820190508181036000830152611778816114ac565b9050919050565b600060208201905061179460008301846114cf565b92915050565b60006060820190506117af60008301866114cf565b6117bc6020830185611295565b6117c960408301846114cf565b949350505050565b60006040820190506117e660008301856114cf565b6117f360208301846114cf565b9392505050565b600060608201905061180f60008301866114cf565b61181c60208301856114cf565b6118296040830184611295565b949350505050565b600060e082019050611846600083018a6114de565b61185360208301896114de565b61186060408301886114cf565b61186d60608301876114cf565b61187a60808301866114cf565b61188760a08301856112a4565b61189460c08301846112a4565b98975050505050505050565b600082825260208201905092915050565b60006118bc82611979565b91506118c783611979565b9250827fffffffffffffffffffffffffffffffffffffffffffffffffffffffffffffffff038211156118fc576118fb611a2a565b5b828201905092915050565b600061191282611979565b915061191d83611979565b9250828210156119305761192f611a2a565b5b828203905092915050565b600061194682611959565b9050919050565b60008115159050919050565b600073ffffffffffffffffffffffffffffffffffffffff82169050919050565b6000819050919050565b600063ffffffff82169050919050565b600061199e826119a5565b9050919050565b60006119b082611959565b9050919050565b60006119c282611979565b915060008214156119d6576119d5611a2a565b5b600182039050919050565b60006119ec82611979565b91507fffffffffffffffffffffffffffffffffffffffffffffffffffffffffffffffff821415611a1f57611a1e611a2a565b5b600182019050919050565b7f4e487b7100000000000000000000000000000000000000000000000000000000600052601160045260246000fd5b7f207365636f6e64206572726f7200000000000000000000000000000000000000600082015250565b7f6f6e6c7920666f756e6465722077697468647261770000000000000000000000600082015250565b7f646f6e6174652076616c7565206d757374206765203000000000000000000000600082015250565b7f63726f776420656e640000000000000000000000000000000000000000000000600082015250565b7f6e6f7420656e6f7567682066756e6473206572726f7220000000000000000000600082015250565b7f20616d6f756e74206d7573742067652030000000000000000000000000000000600082015250565b7f6f6e6c7920666f756e6465722063726561746500000000000000000000000000600082015250565b7f6372656174652063726f776466756e642074696d65206572726f720000000000600082015250565b7f6f6e6c792073746172742074696d652063616e63656c00000000000000000000600082015250565b7f656e642074696d65206572726f72200000000000000000000000000000000000600082015250565b7f6f6e6c7920666f756e6465722063616e63656c00000000000000000000000000600082015250565b7f706c6564676564203e3d20676f616c0000000000000000000000000000000000600082015250565b7f656e646564000000000000000000000000000000000000000000000000000000600082015250565b7f646f6e6174652074696d65206572726f72000000000000000000000000000000600082015250565b7f6e6f7420656e6465640000000000000000000000000000000000000000000000600082015250565b611cc98161193b565b8114611cd457600080fd5b50565b611ce08161194d565b8114611ceb57600080fd5b50565b611cf781611979565b8114611d0257600080fd5b50565b611d0e81611983565b8114611d1957600080fd5b5056fea264697066735822122048bc46ae9e699b775e1a58f60e6fdad56d53b923e188c9c035e37859b0e7f82c64736f6c63430008040033",
					"opcodes": "PUSH1 0xA0 PUSH1 0x40 MSTORE CALLVALUE DUP1 ISZERO PUSH3 0x11 JUMPI PUSH1 0x0 DUP1 REVERT JUMPDEST POP PUSH1 0x40 MLOAD PUSH3 0x1ECD CODESIZE SUB DUP1 PUSH3 0x1ECD DUP4 CODECOPY DUP2 DUP2 ADD PUSH1 0x40 MSTORE DUP2 ADD SWAP1 PUSH3 0x37 SWAP2 SWAP1 PUSH3 0xCD JUMP JUMPDEST DUP1 PUSH20 0xFFFFFFFFFFFFFFFFFFFFFFFFFFFFFFFFFFFFFFFF AND PUSH1 0x80 DUP2 PUSH20 0xFFFFFFFFFFFFFFFFFFFFFFFFFFFFFFFFFFFFFFFF AND PUSH1 0x60 SHL DUP2 MSTORE POP POP CALLER PUSH1 0x2 PUSH1 0x0 PUSH2 0x100 EXP DUP2 SLOAD DUP2 PUSH20 0xFFFFFFFFFFFFFFFFFFFFFFFFFFFFFFFFFFFFFFFF MUL NOT AND SWAP1 DUP4 PUSH20 0xFFFFFFFFFFFFFFFFFFFFFFFFFFFFFFFFFFFFFFFF AND MUL OR SWAP1 SSTORE POP POP PUSH3 0x147 JUMP JUMPDEST PUSH1 0x0 DUP2 MLOAD SWAP1 POP PUSH3 0xC7 DUP2 PUSH3 0x12D JUMP JUMPDEST SWAP3 SWAP2 POP POP JUMP JUMPDEST PUSH1 0x0 PUSH1 0x20 DUP3 DUP5 SUB SLT ISZERO PUSH3 0xE0 JUMPI PUSH1 0x0 DUP1 REVERT JUMPDEST PUSH1 0x0 PUSH3 0xF0 DUP5 DUP3 DUP6 ADD PUSH3 0xB6 JUMP JUMPDEST SWAP2 POP POP SWAP3 SWAP2 POP POP JUMP JUMPDEST PUSH1 0x0 PUSH3 0x106 DUP3 PUSH3 0x10D JUMP JUMPDEST SWAP1 POP SWAP2 SWAP1 POP JUMP JUMPDEST PUSH1 0x0 PUSH20 0xFFFFFFFFFFFFFFFFFFFFFFFFFFFFFFFFFFFFFFFF DUP3 AND SWAP1 POP SWAP2 SWAP1 POP JUMP JUMPDEST PUSH3 0x138 DUP2 PUSH3 0xF9 JUMP JUMPDEST DUP2 EQ PUSH3 0x144 JUMPI PUSH1 0x0 DUP1 REVERT JUMPDEST POP JUMP JUMPDEST PUSH1 0x80 MLOAD PUSH1 0x60 SHR PUSH2 0x1D52 PUSH3 0x17B PUSH1 0x0 CODECOPY PUSH1 0x0 DUP2 DUP2 PUSH2 0x5ED ADD MSTORE DUP2 DUP2 PUSH2 0xAD3 ADD MSTORE DUP2 DUP2 PUSH2 0x1018 ADD MSTORE PUSH2 0x1106 ADD MSTORE PUSH2 0x1D52 PUSH1 0x0 RETURN INVALID PUSH1 0x80 PUSH1 0x40 MSTORE CALLVALUE DUP1 ISZERO PUSH2 0x10 JUMPI PUSH1 0x0 DUP1 REVERT JUMPDEST POP PUSH1 0x4 CALLDATASIZE LT PUSH2 0xA9 JUMPI PUSH1 0x0 CALLDATALOAD PUSH1 0xE0 SHR DUP1 PUSH4 0x4B0529FB GT PUSH2 0x71 JUMPI DUP1 PUSH4 0x4B0529FB EQ PUSH2 0x154 JUMPI DUP1 PUSH4 0x4D853EE5 EQ PUSH2 0x170 JUMPI DUP1 PUSH4 0xAB2C44BF EQ PUSH2 0x18E JUMPI DUP1 PUSH4 0xB6C52AE8 EQ PUSH2 0x1BE JUMPI DUP1 PUSH4 0xDEB75501 EQ PUSH2 0x1DC JUMPI DUP1 PUSH4 0xFC0C546A EQ PUSH2 0x1F8 JUMPI PUSH2 0xA9 JUMP JUMPDEST DUP1 PUSH4 0xCDD53F6 EQ PUSH2 0xAE JUMPI DUP1 PUSH4 0x1569E51B EQ PUSH2 0xCA JUMPI DUP1 PUSH4 0x278ECDE1 EQ PUSH2 0x100 JUMPI DUP1 PUSH4 0x40E58EE5 EQ PUSH2 0x11C JUMPI DUP1 PUSH4 0x441A3E70 EQ PUSH2 0x138 JUMPI JUMPDEST PUSH1 0x0 DUP1 REVERT JUMPDEST PUSH2 0xC8 PUSH1 0x4 DUP1 CALLDATASIZE SUB DUP2 ADD SWAP1 PUSH2 0xC3 SWAP2 SWAP1 PUSH2 0x120A JUMP JUMPDEST PUSH2 0x216 JUMP JUMPDEST STOP JUMPDEST PUSH2 0xE4 PUSH1 0x4 DUP1 CALLDATASIZE SUB DUP2 ADD SWAP1 PUSH2 0xDF SWAP2 SWAP1 PUSH2 0x11A5 JUMP JUMPDEST PUSH2 0x409 JUMP JUMPDEST PUSH1 0x40 MLOAD PUSH2 0xF7 SWAP8 SWAP7 SWAP6 SWAP5 SWAP4 SWAP3 SWAP2 SWAP1 PUSH2 0x1831 JUMP JUMPDEST PUSH1 0x40 MLOAD DUP1 SWAP2 SUB SWAP1 RETURN JUMPDEST PUSH2 0x11A PUSH1 0x4 DUP1 CALLDATASIZE SUB DUP2 ADD SWAP1 PUSH2 0x115 SWAP2 SWAP1 PUSH2 0x11A5 JUMP JUMPDEST PUSH2 0x485 JUMP JUMPDEST STOP JUMPDEST PUSH2 0x136 PUSH1 0x4 DUP1 CALLDATASIZE SUB DUP2 ADD SWAP1 PUSH2 0x131 SWAP2 SWAP1 PUSH2 0x11A5 JUMP JUMPDEST PUSH2 0x6F3 JUMP JUMPDEST STOP JUMPDEST PUSH2 0x152 PUSH1 0x4 DUP1 CALLDATASIZE SUB DUP2 ADD SWAP1 PUSH2 0x14D SWAP2 SWAP1 PUSH2 0x120A JUMP JUMPDEST PUSH2 0x967 JUMP JUMPDEST STOP JUMPDEST PUSH2 0x16E PUSH1 0x4 DUP1 CALLDATASIZE SUB DUP2 ADD SWAP1 PUSH2 0x169 SWAP2 SWAP1 PUSH2 0x1246 JUMP JUMPDEST PUSH2 0xBE0 JUMP JUMPDEST STOP JUMPDEST PUSH2 0x178 PUSH2 0xED0 JUMP JUMPDEST PUSH1 0x40 MLOAD PUSH2 0x185 SWAP2 SWAP1 PUSH2 0x14ED JUMP JUMPDEST PUSH1 0x40 MLOAD DUP1 SWAP2 SUB SWAP1 RETURN JUMPDEST PUSH2 0x1A8 PUSH1 0x4 DUP1 CALLDATASIZE SUB DUP2 ADD SWAP1 PUSH2 0x1A3 SWAP2 SWAP1 PUSH2 0x11CE JUMP JUMPDEST PUSH2 0xEF6 JUMP JUMPDEST PUSH1 0x40 MLOAD PUSH2 0x1B5 SWAP2 SWAP1 PUSH2 0x177F JUMP JUMPDEST PUSH1 0x40 MLOAD DUP1 SWAP2 SUB SWAP1 RETURN JUMPDEST PUSH2 0x1C6 PUSH2 0xF1B JUMP JUMPDEST PUSH1 0x40 MLOAD PUSH2 0x1D3 SWAP2 SWAP1 PUSH2 0x177F JUMP JUMPDEST PUSH1 0x40 MLOAD DUP1 SWAP2 SUB SWAP1 RETURN JUMPDEST PUSH2 0x1F6 PUSH1 0x4 DUP1 CALLDATASIZE SUB DUP2 ADD SWAP1 PUSH2 0x1F1 SWAP2 SWAP1 PUSH2 0x120A JUMP JUMPDEST PUSH2 0xF21 JUMP JUMPDEST STOP JUMPDEST PUSH2 0x200 PUSH2 0x1104 JUMP JUMPDEST PUSH1 0x40 MLOAD PUSH2 0x20D SWAP2 SWAP1 PUSH2 0x1584 JUMP JUMPDEST PUSH1 0x40 MLOAD DUP1 SWAP2 SUB SWAP1 RETURN JUMPDEST PUSH1 0x0 PUSH1 0x1 PUSH1 0x0 DUP5 DUP2 MSTORE PUSH1 0x20 ADD SWAP1 DUP2 MSTORE PUSH1 0x20 ADD PUSH1 0x0 KECCAK256 SWAP1 POP DUP1 PUSH1 0x4 ADD PUSH1 0x0 SWAP1 SLOAD SWAP1 PUSH2 0x100 EXP SWAP1 DIV PUSH1 0xFF AND PUSH2 0x27E JUMPI PUSH1 0x40 MLOAD PUSH32 0x8C379A000000000000000000000000000000000000000000000000000000000 DUP2 MSTORE PUSH1 0x4 ADD PUSH2 0x275 SWAP1 PUSH2 0x15FF JUMP JUMPDEST PUSH1 0x40 MLOAD DUP1 SWAP2 SUB SWAP1 REVERT JUMPDEST DUP1 PUSH1 0x0 ADD PUSH1 0x0 SWAP1 SLOAD SWAP1 PUSH2 0x100 EXP SWAP1 DIV PUSH4 0xFFFFFFFF AND PUSH4 0xFFFFFFFF AND TIMESTAMP LT ISZERO DUP1 ISZERO PUSH2 0x2C2 JUMPI POP DUP1 PUSH1 0x0 ADD PUSH1 0x4 SWAP1 SLOAD SWAP1 PUSH2 0x100 EXP SWAP1 DIV PUSH4 0xFFFFFFFF AND PUSH4 0xFFFFFFFF AND TIMESTAMP GT ISZERO JUMPDEST PUSH2 0x301 JUMPI PUSH1 0x40 MLOAD PUSH32 0x8C379A000000000000000000000000000000000000000000000000000000000 DUP2 MSTORE PUSH1 0x4 ADD PUSH2 0x2F8 SWAP1 PUSH2 0x173F JUMP JUMPDEST PUSH1 0x40 MLOAD DUP1 SWAP2 SUB SWAP1 REVERT JUMPDEST PUSH1 0x0 DUP3 GT PUSH2 0x344 JUMPI PUSH1 0x40 MLOAD PUSH32 0x8C379A000000000000000000000000000000000000000000000000000000000 DUP2 MSTORE PUSH1 0x4 ADD PUSH2 0x33B SWAP1 PUSH2 0x15DF JUMP JUMPDEST PUSH1 0x40 MLOAD DUP1 SWAP2 SUB SWAP1 REVERT JUMPDEST DUP2 DUP2 PUSH1 0x2 ADD PUSH1 0x0 DUP3 DUP3 SLOAD PUSH2 0x358 SWAP2 SWAP1 PUSH2 0x18B1 JUMP JUMPDEST SWAP3 POP POP DUP2 SWAP1 SSTORE POP DUP2 PUSH1 0x0 DUP1 DUP4 PUSH1 0x3 ADD SLOAD DUP2 MSTORE PUSH1 0x20 ADD SWAP1 DUP2 MSTORE PUSH1 0x20 ADD PUSH1 0x0 KECCAK256 PUSH1 0x0 CALLER PUSH20 0xFFFFFFFFFFFFFFFFFFFFFFFFFFFFFFFFFFFFFFFF AND PUSH20 0xFFFFFFFFFFFFFFFFFFFFFFFFFFFFFFFFFFFFFFFF AND DUP2 MSTORE PUSH1 0x20 ADD SWAP1 DUP2 MSTORE PUSH1 0x20 ADD PUSH1 0x0 KECCAK256 PUSH1 0x0 DUP3 DUP3 SLOAD PUSH2 0x3C2 SWAP2 SWAP1 PUSH2 0x18B1 JUMP JUMPDEST SWAP3 POP POP DUP2 SWAP1 SSTORE POP PUSH32 0x48DEF02DA8C59B50861E25BAB759A8A0C0DE6FAB6448EF85F32CE59397947D80 DUP4 CALLER DUP5 PUSH1 0x40 MLOAD PUSH2 0x3FC SWAP4 SWAP3 SWAP2 SWAP1 PUSH2 0x179A JUMP JUMPDEST PUSH1 0x40 MLOAD DUP1 SWAP2 SUB SWAP1 LOG1 POP POP POP JUMP JUMPDEST PUSH1 0x1 PUSH1 0x20 MSTORE DUP1 PUSH1 0x0 MSTORE PUSH1 0x40 PUSH1 0x0 KECCAK256 PUSH1 0x0 SWAP2 POP SWAP1 POP DUP1 PUSH1 0x0 ADD PUSH1 0x0 SWAP1 SLOAD SWAP1 PUSH2 0x100 EXP SWAP1 DIV PUSH4 0xFFFFFFFF AND SWAP1 DUP1 PUSH1 0x0 ADD PUSH1 0x4 SWAP1 SLOAD SWAP1 PUSH2 0x100 EXP SWAP1 DIV PUSH4 0xFFFFFFFF AND SWAP1 DUP1 PUSH1 0x1 ADD SLOAD SWAP1 DUP1 PUSH1 0x2 ADD SLOAD SWAP1 DUP1 PUSH1 0x3 ADD SLOAD SWAP1 DUP1 PUSH1 0x4 ADD PUSH1 0x0 SWAP1 SLOAD SWAP1 PUSH2 0x100 EXP SWAP1 DIV PUSH1 0xFF AND SWAP1 DUP1 PUSH1 0x4 ADD PUSH1 0x1 SWAP1 SLOAD SWAP1 PUSH2 0x100 EXP SWAP1 DIV PUSH1 0xFF AND SWAP1 POP DUP8 JUMP JUMPDEST PUSH1 0x0 PUSH1 0x1 PUSH1 0x0 DUP4 DUP2 MSTORE PUSH1 0x20 ADD SWAP1 DUP2 MSTORE PUSH1 0x20 ADD PUSH1 0x0 KECCAK256 SWAP1 POP DUP1 PUSH1 0x0 ADD PUSH1 0x4 SWAP1 SLOAD SWAP1 PUSH2 0x100 EXP SWAP1 DIV PUSH4 0xFFFFFFFF AND PUSH4 0xFFFFFFFF AND TIMESTAMP GT PUSH2 0x4F8 JUMPI PUSH1 0x40 MLOAD PUSH32 0x8C379A000000000000000000000000000000000000000000000000000000000 DUP2 MSTORE PUSH1 0x4 ADD PUSH2 0x4EF SWAP1 PUSH2 0x175F JUMP JUMPDEST PUSH1 0x40 MLOAD DUP1 SWAP2 SUB SWAP1 REVERT JUMPDEST DUP1 PUSH1 0x1 ADD SLOAD DUP2 PUSH1 0x2 ADD SLOAD LT PUSH2 0x542 JUMPI PUSH1 0x40 MLOAD PUSH32 0x8C379A000000000000000000000000000000000000000000000000000000000 DUP2 MSTORE PUSH1 0x4 ADD PUSH2 0x539 SWAP1 PUSH2 0x16FF JUMP JUMPDEST PUSH1 0x40 MLOAD DUP1 SWAP2 SUB SWAP1 REVERT JUMPDEST PUSH1 0x0 DUP1 PUSH1 0x0 DUP5 DUP2 MSTORE PUSH1 0x20 ADD SWAP1 DUP2 MSTORE PUSH1 0x20 ADD PUSH1 0x0 KECCAK256 PUSH1 0x0 CALLER PUSH20 0xFFFFFFFFFFFFFFFFFFFFFFFFFFFFFFFFFFFFFFFF AND PUSH20 0xFFFFFFFFFFFFFFFFFFFFFFFFFFFFFFFFFFFFFFFF AND DUP2 MSTORE PUSH1 0x20 ADD SWAP1 DUP2 MSTORE PUSH1 0x20 ADD PUSH1 0x0 KECCAK256 SLOAD SWAP1 POP PUSH1 0x0 DUP1 PUSH1 0x0 DUP6 DUP2 MSTORE PUSH1 0x20 ADD SWAP1 DUP2 MSTORE PUSH1 0x20 ADD PUSH1 0x0 KECCAK256 PUSH1 0x0 CALLER PUSH20 0xFFFFFFFFFFFFFFFFFFFFFFFFFFFFFFFFFFFFFFFF AND PUSH20 0xFFFFFFFFFFFFFFFFFFFFFFFFFFFFFFFFFFFFFFFF AND DUP2 MSTORE PUSH1 0x20 ADD SWAP1 DUP2 MSTORE PUSH1 0x20 ADD PUSH1 0x0 KECCAK256 DUP2 SWAP1 SSTORE POP PUSH32 0x0 PUSH20 0xFFFFFFFFFFFFFFFFFFFFFFFFFFFFFFFFFFFFFFFF AND PUSH4 0xA9059CBB CALLER DUP4 PUSH1 0x40 MLOAD DUP4 PUSH4 0xFFFFFFFF AND PUSH1 0xE0 SHL DUP2 MSTORE PUSH1 0x4 ADD PUSH2 0x646 SWAP3 SWAP2 SWAP1 PUSH2 0x1508 JUMP JUMPDEST PUSH1 0x20 PUSH1 0x40 MLOAD DUP1 DUP4 SUB DUP2 PUSH1 0x0 DUP8 DUP1 EXTCODESIZE ISZERO DUP1 ISZERO PUSH2 0x660 JUMPI PUSH1 0x0 DUP1 REVERT JUMPDEST POP GAS CALL ISZERO DUP1 ISZERO PUSH2 0x674 JUMPI RETURNDATASIZE PUSH1 0x0 DUP1 RETURNDATACOPY RETURNDATASIZE PUSH1 0x0 REVERT JUMPDEST POP POP POP POP PUSH1 0x40 MLOAD RETURNDATASIZE PUSH1 0x1F NOT PUSH1 0x1F DUP3 ADD AND DUP3 ADD DUP1 PUSH1 0x40 MSTORE POP DUP2 ADD SWAP1 PUSH2 0x698 SWAP2 SWAP1 PUSH2 0x117C JUMP JUMPDEST POP DUP2 PUSH1 0x2 ADD PUSH1 0x0 DUP2 SLOAD DUP1 SWAP3 SWAP2 SWAP1 PUSH2 0x6AE SWAP1 PUSH2 0x19B7 JUMP JUMPDEST SWAP2 SWAP1 POP SSTORE POP PUSH32 0xFE438001A6DD8298A7672E341088143B150C2227F220B57280A002F5357612B7 DUP4 DUP3 CALLER PUSH1 0x40 MLOAD PUSH2 0x6E6 SWAP4 SWAP3 SWAP2 SWAP1 PUSH2 0x17FA JUMP JUMPDEST PUSH1 0x40 MLOAD DUP1 SWAP2 SUB SWAP1 LOG1 POP POP POP JUMP JUMPDEST PUSH1 0x0 PUSH1 0x1 PUSH1 0x0 DUP4 DUP2 MSTORE PUSH1 0x20 ADD SWAP1 DUP2 MSTORE PUSH1 0x20 ADD PUSH1 0x0 KECCAK256 SWAP1 POP CALLER PUSH20 0xFFFFFFFFFFFFFFFFFFFFFFFFFFFFFFFFFFFFFFFF AND PUSH1 0x2 PUSH1 0x0 SWAP1 SLOAD SWAP1 PUSH2 0x100 EXP SWAP1 DIV PUSH20 0xFFFFFFFFFFFFFFFFFFFFFFFFFFFFFFFFFFFFFFFF AND PUSH20 0xFFFFFFFFFFFFFFFFFFFFFFFFFFFFFFFFFFFFFFFF AND EQ PUSH2 0x79A JUMPI PUSH1 0x40 MLOAD PUSH32 0x8C379A000000000000000000000000000000000000000000000000000000000 DUP2 MSTORE PUSH1 0x4 ADD PUSH2 0x791 SWAP1 PUSH2 0x16DF JUMP JUMPDEST PUSH1 0x40 MLOAD DUP1 SWAP2 SUB SWAP1 REVERT JUMPDEST DUP1 PUSH1 0x4 ADD PUSH1 0x0 SWAP1 SLOAD SWAP1 PUSH2 0x100 EXP SWAP1 DIV PUSH1 0xFF AND PUSH2 0x7EB JUMPI PUSH1 0x40 MLOAD PUSH32 0x8C379A000000000000000000000000000000000000000000000000000000000 DUP2 MSTORE PUSH1 0x4 ADD PUSH2 0x7E2 SWAP1 PUSH2 0x15FF JUMP JUMPDEST PUSH1 0x40 MLOAD DUP1 SWAP2 SUB SWAP1 REVERT JUMPDEST DUP1 PUSH1 0x0 ADD PUSH1 0x0 SWAP1 SLOAD SWAP1 PUSH2 0x100 EXP SWAP1 DIV PUSH4 0xFFFFFFFF AND PUSH4 0xFFFFFFFF AND TIMESTAMP LT ISZERO DUP1 ISZERO PUSH2 0x82F JUMPI POP DUP1 PUSH1 0x0 ADD PUSH1 0x4 SWAP1 SLOAD SWAP1 PUSH2 0x100 EXP SWAP1 DIV PUSH4 0xFFFFFFFF AND PUSH4 0xFFFFFFFF AND TIMESTAMP GT ISZERO JUMPDEST PUSH2 0x86E JUMPI PUSH1 0x40 MLOAD PUSH32 0x8C379A000000000000000000000000000000000000000000000000000000000 DUP2 MSTORE PUSH1 0x4 ADD PUSH2 0x865 SWAP1 PUSH2 0x169F JUMP JUMPDEST PUSH1 0x40 MLOAD DUP1 SWAP2 SUB SWAP1 REVERT JUMPDEST PUSH1 0x0 DUP2 PUSH1 0x4 ADD PUSH1 0x0 PUSH2 0x100 EXP DUP2 SLOAD DUP2 PUSH1 0xFF MUL NOT AND SWAP1 DUP4 ISZERO ISZERO MUL OR SWAP1 SSTORE POP PUSH1 0x1 DUP2 PUSH1 0x4 ADD PUSH1 0x1 PUSH2 0x100 EXP DUP2 SLOAD DUP2 PUSH1 0xFF MUL NOT AND SWAP1 DUP4 ISZERO ISZERO MUL OR SWAP1 SSTORE POP PUSH1 0x1 PUSH1 0x0 DUP4 DUP2 MSTORE PUSH1 0x20 ADD SWAP1 DUP2 MSTORE PUSH1 0x20 ADD PUSH1 0x0 KECCAK256 PUSH1 0x0 DUP1 DUP3 ADD PUSH1 0x0 PUSH2 0x100 EXP DUP2 SLOAD SWAP1 PUSH4 0xFFFFFFFF MUL NOT AND SWAP1 SSTORE PUSH1 0x0 DUP3 ADD PUSH1 0x4 PUSH2 0x100 EXP DUP2 SLOAD SWAP1 PUSH4 0xFFFFFFFF MUL NOT AND SWAP1 SSTORE PUSH1 0x1 DUP3 ADD PUSH1 0x0 SWAP1 SSTORE PUSH1 0x2 DUP3 ADD PUSH1 0x0 SWAP1 SSTORE PUSH1 0x3 DUP3 ADD PUSH1 0x0 SWAP1 SSTORE PUSH1 0x4 DUP3 ADD PUSH1 0x0 PUSH2 0x100 EXP DUP2 SLOAD SWAP1 PUSH1 0xFF MUL NOT AND SWAP1 SSTORE PUSH1 0x4 DUP3 ADD PUSH1 0x1 PUSH2 0x100 EXP DUP2 SLOAD SWAP1 PUSH1 0xFF MUL NOT AND SWAP1 SSTORE POP POP PUSH32 0x8BF30E7FF26833413BE5F69E1D373744864D600B664204B4A2F9844A8EEDB9ED DUP3 PUSH1 0x40 MLOAD PUSH2 0x95B SWAP2 SWAP1 PUSH2 0x177F JUMP JUMPDEST PUSH1 0x40 MLOAD DUP1 SWAP2 SUB SWAP1 LOG1 POP POP JUMP JUMPDEST PUSH1 0x0 PUSH1 0x1 PUSH1 0x0 DUP5 DUP2 MSTORE PUSH1 0x20 ADD SWAP1 DUP2 MSTORE PUSH1 0x20 ADD PUSH1 0x0 KECCAK256 SWAP1 POP CALLER PUSH20 0xFFFFFFFFFFFFFFFFFFFFFFFFFFFFFFFFFFFFFFFF AND PUSH1 0x2 PUSH1 0x0 SWAP1 SLOAD SWAP1 PUSH2 0x100 EXP SWAP1 DIV PUSH20 0xFFFFFFFFFFFFFFFFFFFFFFFFFFFFFFFFFFFFFFFF AND PUSH20 0xFFFFFFFFFFFFFFFFFFFFFFFFFFFFFFFFFFFFFFFF AND EQ PUSH2 0xA0E JUMPI PUSH1 0x40 MLOAD PUSH32 0x8C379A000000000000000000000000000000000000000000000000000000000 DUP2 MSTORE PUSH1 0x4 ADD PUSH2 0xA05 SWAP1 PUSH2 0x15BF JUMP JUMPDEST PUSH1 0x40 MLOAD DUP1 SWAP2 SUB SWAP1 REVERT JUMPDEST DUP1 PUSH1 0x0 ADD PUSH1 0x4 SWAP1 SLOAD SWAP1 PUSH2 0x100 EXP SWAP1 DIV PUSH4 0xFFFFFFFF AND PUSH4 0xFFFFFFFF AND TIMESTAMP GT PUSH2 0xA6A JUMPI PUSH1 0x40 MLOAD PUSH32 0x8C379A000000000000000000000000000000000000000000000000000000000 DUP2 MSTORE PUSH1 0x4 ADD PUSH2 0xA61 SWAP1 PUSH2 0x16BF JUMP JUMPDEST PUSH1 0x40 MLOAD DUP1 SWAP2 SUB SWAP1 REVERT JUMPDEST PUSH1 0x0 DUP2 PUSH1 0x1 ADD SLOAD SWAP1 POP DUP3 DUP2 LT ISZERO PUSH2 0xAB6 JUMPI PUSH1 0x40 MLOAD PUSH32 0x8C379A000000000000000000000000000000000000000000000000000000000 DUP2 MSTORE PUSH1 0x4 ADD PUSH2 0xAAD SWAP1 PUSH2 0x161F JUMP JUMPDEST PUSH1 0x40 MLOAD DUP1 SWAP2 SUB SWAP1 REVERT JUMPDEST DUP3 DUP3 PUSH1 0x2 ADD PUSH1 0x0 DUP3 DUP3 SLOAD PUSH2 0xACA SWAP2 SWAP1 PUSH2 0x1907 JUMP JUMPDEST SWAP3 POP POP DUP2 SWAP1 SSTORE POP PUSH32 0x0 PUSH20 0xFFFFFFFFFFFFFFFFFFFFFFFFFFFFFFFFFFFFFFFF AND PUSH4 0xA9059CBB PUSH1 0x2 PUSH1 0x0 SWAP1 SLOAD SWAP1 PUSH2 0x100 EXP SWAP1 DIV PUSH20 0xFFFFFFFFFFFFFFFFFFFFFFFFFFFFFFFFFFFFFFFF AND DUP6 PUSH1 0x40 MLOAD DUP4 PUSH4 0xFFFFFFFF AND PUSH1 0xE0 SHL DUP2 MSTORE PUSH1 0x4 ADD PUSH2 0xB4E SWAP3 SWAP2 SWAP1 PUSH2 0x1508 JUMP JUMPDEST PUSH1 0x20 PUSH1 0x40 MLOAD DUP1 DUP4 SUB DUP2 PUSH1 0x0 DUP8 DUP1 EXTCODESIZE ISZERO DUP1 ISZERO PUSH2 0xB68 JUMPI PUSH1 0x0 DUP1 REVERT JUMPDEST POP GAS CALL ISZERO DUP1 ISZERO PUSH2 0xB7C JUMPI RETURNDATASIZE PUSH1 0x0 DUP1 RETURNDATACOPY RETURNDATASIZE PUSH1 0x0 REVERT JUMPDEST POP POP POP POP PUSH1 0x40 MLOAD RETURNDATASIZE PUSH1 0x1F NOT PUSH1 0x1F DUP3 ADD AND DUP3 ADD DUP1 PUSH1 0x40 MSTORE POP DUP2 ADD SWAP1 PUSH2 0xBA0 SWAP2 SWAP1 PUSH2 0x117C JUMP JUMPDEST POP PUSH32 0x56CA301A9219608C91E7BCEE90E083C19671D2CDCC96752C7AF291CEE5F9C8C8 DUP5 DUP5 PUSH1 0x40 MLOAD PUSH2 0xBD2 SWAP3 SWAP2 SWAP1 PUSH2 0x17D1 JUMP JUMPDEST PUSH1 0x40 MLOAD DUP1 SWAP2 SUB SWAP1 LOG1 POP POP POP POP JUMP JUMPDEST PUSH1 0x14 TIMESTAMP PUSH2 0xBED SWAP2 SWAP1 PUSH2 0x18B1 JUMP JUMPDEST DUP3 PUSH4 0xFFFFFFFF AND GT PUSH2 0xC34 JUMPI PUSH1 0x40 MLOAD PUSH32 0x8C379A000000000000000000000000000000000000000000000000000000000 DUP2 MSTORE PUSH1 0x4 ADD PUSH2 0xC2B SWAP1 PUSH2 0x167F JUMP JUMPDEST PUSH1 0x40 MLOAD DUP1 SWAP2 SUB SWAP1 REVERT JUMPDEST PUSH1 0x0 DUP4 GT PUSH2 0xC77 JUMPI PUSH1 0x40 MLOAD PUSH32 0x8C379A000000000000000000000000000000000000000000000000000000000 DUP2 MSTORE PUSH1 0x4 ADD PUSH2 0xC6E SWAP1 PUSH2 0x163F JUMP JUMPDEST PUSH1 0x40 MLOAD DUP1 SWAP2 SUB SWAP1 REVERT JUMPDEST PUSH1 0x0 DUP2 PUSH4 0xFFFFFFFF AND TIMESTAMP PUSH2 0xC8B SWAP2 SWAP1 PUSH2 0x18B1 JUMP JUMPDEST SWAP1 POP TIMESTAMP DUP2 PUSH4 0xFFFFFFFF AND GT PUSH2 0xCD5 JUMPI PUSH1 0x40 MLOAD PUSH32 0x8C379A000000000000000000000000000000000000000000000000000000000 DUP2 MSTORE PUSH1 0x4 ADD PUSH2 0xCCC SWAP1 PUSH2 0x159F JUMP JUMPDEST PUSH1 0x40 MLOAD DUP1 SWAP2 SUB SWAP1 REVERT JUMPDEST CALLER PUSH20 0xFFFFFFFFFFFFFFFFFFFFFFFFFFFFFFFFFFFFFFFF AND PUSH1 0x2 PUSH1 0x0 SWAP1 SLOAD SWAP1 PUSH2 0x100 EXP SWAP1 DIV PUSH20 0xFFFFFFFFFFFFFFFFFFFFFFFFFFFFFFFFFFFFFFFF AND PUSH20 0xFFFFFFFFFFFFFFFFFFFFFFFFFFFFFFFFFFFFFFFF AND EQ PUSH2 0xD65 JUMPI PUSH1 0x40 MLOAD PUSH32 0x8C379A000000000000000000000000000000000000000000000000000000000 DUP2 MSTORE PUSH1 0x4 ADD PUSH2 0xD5C SWAP1 PUSH2 0x165F JUMP JUMPDEST PUSH1 0x40 MLOAD DUP1 SWAP2 SUB SWAP1 REVERT JUMPDEST PUSH1 0x3 PUSH1 0x0 DUP2 SLOAD DUP1 SWAP3 SWAP2 SWAP1 PUSH2 0xD78 SWAP1 PUSH2 0x19E1 JUMP JUMPDEST SWAP2 SWAP1 POP SSTORE POP PUSH1 0x40 MLOAD DUP1 PUSH1 0xE0 ADD PUSH1 0x40 MSTORE DUP1 DUP5 PUSH4 0xFFFFFFFF AND DUP2 MSTORE PUSH1 0x20 ADD DUP3 PUSH4 0xFFFFFFFF AND DUP2 MSTORE PUSH1 0x20 ADD DUP6 DUP2 MSTORE PUSH1 0x20 ADD PUSH1 0x0 DUP2 MSTORE PUSH1 0x20 ADD PUSH1 0x3 SLOAD DUP2 MSTORE PUSH1 0x20 ADD PUSH1 0x1 ISZERO ISZERO DUP2 MSTORE PUSH1 0x20 ADD PUSH1 0x0 ISZERO ISZERO DUP2 MSTORE POP PUSH1 0x1 PUSH1 0x0 PUSH1 0x3 SLOAD DUP2 MSTORE PUSH1 0x20 ADD SWAP1 DUP2 MSTORE PUSH1 0x20 ADD PUSH1 0x0 KECCAK256 PUSH1 0x0 DUP3 ADD MLOAD DUP2 PUSH1 0x0 ADD PUSH1 0x0 PUSH2 0x100 EXP DUP2 SLOAD DUP2 PUSH4 0xFFFFFFFF MUL NOT AND SWAP1 DUP4 PUSH4 0xFFFFFFFF AND MUL OR SWAP1 SSTORE POP PUSH1 0x20 DUP3 ADD MLOAD DUP2 PUSH1 0x0 ADD PUSH1 0x4 PUSH2 0x100 EXP DUP2 SLOAD DUP2 PUSH4 0xFFFFFFFF MUL NOT AND SWAP1 DUP4 PUSH4 0xFFFFFFFF AND MUL OR SWAP1 SSTORE POP PUSH1 0x40 DUP3 ADD MLOAD DUP2 PUSH1 0x1 ADD SSTORE PUSH1 0x60 DUP3 ADD MLOAD DUP2 PUSH1 0x2 ADD SSTORE PUSH1 0x80 DUP3 ADD MLOAD DUP2 PUSH1 0x3 ADD SSTORE PUSH1 0xA0 DUP3 ADD MLOAD DUP2 PUSH1 0x4 ADD PUSH1 0x0 PUSH2 0x100 EXP DUP2 SLOAD DUP2 PUSH1 0xFF MUL NOT AND SWAP1 DUP4 ISZERO ISZERO MUL OR SWAP1 SSTORE POP PUSH1 0xC0 DUP3 ADD MLOAD DUP2 PUSH1 0x4 ADD PUSH1 0x1 PUSH2 0x100 EXP DUP2 SLOAD DUP2 PUSH1 0xFF MUL NOT AND SWAP1 DUP4 ISZERO ISZERO MUL OR SWAP1 SSTORE POP SWAP1 POP POP PUSH32 0xC72E4B427A443470025444AF0220655796B8BE7649DCD5E804864F8AD41F493A CALLER DUP5 DUP4 DUP8 PUSH1 0x3 SLOAD PUSH1 0x40 MLOAD PUSH2 0xEC2 SWAP6 SWAP5 SWAP4 SWAP3 SWAP2 SWAP1 PUSH2 0x1531 JUMP JUMPDEST PUSH1 0x40 MLOAD DUP1 SWAP2 SUB SWAP1 LOG1 POP POP POP POP JUMP JUMPDEST PUSH1 0x2 PUSH1 0x0 SWAP1 SLOAD SWAP1 PUSH2 0x100 EXP SWAP1 DIV PUSH20 0xFFFFFFFFFFFFFFFFFFFFFFFFFFFFFFFFFFFFFFFF AND DUP2 JUMP JUMPDEST PUSH1 0x0 PUSH1 0x20 MSTORE DUP2 PUSH1 0x0 MSTORE PUSH1 0x40 PUSH1 0x0 KECCAK256 PUSH1 0x20 MSTORE DUP1 PUSH1 0x0 MSTORE PUSH1 0x40 PUSH1 0x0 KECCAK256 PUSH1 0x0 SWAP2 POP SWAP2 POP POP SLOAD DUP2 JUMP JUMPDEST PUSH1 0x3 SLOAD DUP2 JUMP JUMPDEST PUSH1 0x0 PUSH1 0x1 PUSH1 0x0 DUP5 DUP2 MSTORE PUSH1 0x20 ADD SWAP1 DUP2 MSTORE PUSH1 0x20 ADD PUSH1 0x0 KECCAK256 SWAP1 POP DUP1 PUSH1 0x0 ADD PUSH1 0x4 SWAP1 SLOAD SWAP1 PUSH2 0x100 EXP SWAP1 DIV PUSH4 0xFFFFFFFF AND PUSH4 0xFFFFFFFF AND TIMESTAMP GT ISZERO PUSH2 0xF95 JUMPI PUSH1 0x40 MLOAD PUSH32 0x8C379A000000000000000000000000000000000000000000000000000000000 DUP2 MSTORE PUSH1 0x4 ADD PUSH2 0xF8C SWAP1 PUSH2 0x171F JUMP JUMPDEST PUSH1 0x40 MLOAD DUP1 SWAP2 SUB SWAP1 REVERT JUMPDEST DUP2 DUP2 PUSH1 0x2 ADD PUSH1 0x0 DUP3 DUP3 SLOAD PUSH2 0xFA9 SWAP2 SWAP1 PUSH2 0x1907 JUMP JUMPDEST SWAP3 POP POP DUP2 SWAP1 SSTORE POP DUP2 PUSH1 0x0 DUP1 DUP6 DUP2 MSTORE PUSH1 0x20 ADD SWAP1 DUP2 MSTORE PUSH1 0x20 ADD PUSH1 0x0 KECCAK256 PUSH1 0x0 CALLER PUSH20 0xFFFFFFFFFFFFFFFFFFFFFFFFFFFFFFFFFFFFFFFF AND PUSH20 0xFFFFFFFFFFFFFFFFFFFFFFFFFFFFFFFFFFFFFFFF AND DUP2 MSTORE PUSH1 0x20 ADD SWAP1 DUP2 MSTORE PUSH1 0x20 ADD PUSH1 0x0 KECCAK256 PUSH1 0x0 DUP3 DUP3 SLOAD PUSH2 0x100F SWAP2 SWAP1 PUSH2 0x1907 JUMP JUMPDEST SWAP3 POP POP DUP2 SWAP1 SSTORE POP PUSH32 0x0 PUSH20 0xFFFFFFFFFFFFFFFFFFFFFFFFFFFFFFFFFFFFFFFF AND PUSH4 0xA9059CBB CALLER DUP5 PUSH1 0x40 MLOAD DUP4 PUSH4 0xFFFFFFFF AND PUSH1 0xE0 SHL DUP2 MSTORE PUSH1 0x4 ADD PUSH2 0x1071 SWAP3 SWAP2 SWAP1 PUSH2 0x1508 JUMP JUMPDEST PUSH1 0x20 PUSH1 0x40 MLOAD DUP1 DUP4 SUB DUP2 PUSH1 0x0 DUP8 DUP1 EXTCODESIZE ISZERO DUP1 ISZERO PUSH2 0x108B JUMPI PUSH1 0x0 DUP1 REVERT JUMPDEST POP GAS CALL ISZERO DUP1 ISZERO PUSH2 0x109F JUMPI RETURNDATASIZE PUSH1 0x0 DUP1 RETURNDATACOPY RETURNDATASIZE PUSH1 0x0 REVERT JUMPDEST POP POP POP POP PUSH1 0x40 MLOAD RETURNDATASIZE PUSH1 0x1F NOT PUSH1 0x1F DUP3 ADD AND DUP3 ADD DUP1 PUSH1 0x40 MSTORE POP DUP2 ADD SWAP1 PUSH2 0x10C3 SWAP2 SWAP1 PUSH2 0x117C JUMP JUMPDEST POP PUSH32 0xE5434FDA030C7C4D083D8209210FFCA9271514F52BD75B42446DED1C42365050 DUP4 DUP4 CALLER PUSH1 0x40 MLOAD PUSH2 0x10F7 SWAP4 SWAP3 SWAP2 SWAP1 PUSH2 0x17FA JUMP JUMPDEST PUSH1 0x40 MLOAD DUP1 SWAP2 SUB SWAP1 LOG1 POP POP POP JUMP JUMPDEST PUSH32 0x0 DUP2 JUMP JUMPDEST PUSH1 0x0 DUP2 CALLDATALOAD SWAP1 POP PUSH2 0x1137 DUP2 PUSH2 0x1CC0 JUMP JUMPDEST SWAP3 SWAP2 POP POP JUMP JUMPDEST PUSH1 0x0 DUP2 MLOAD SWAP1 POP PUSH2 0x114C DUP2 PUSH2 0x1CD7 JUMP JUMPDEST SWAP3 SWAP2 POP POP JUMP JUMPDEST PUSH1 0x0 DUP2 CALLDATALOAD SWAP1 POP PUSH2 0x1161 DUP2 PUSH2 0x1CEE JUMP JUMPDEST SWAP3 SWAP2 POP POP JUMP JUMPDEST PUSH1 0x0 DUP2 CALLDATALOAD SWAP1 POP PUSH2 0x1176 DUP2 PUSH2 0x1D05 JUMP JUMPDEST SWAP3 SWAP2 POP POP JUMP JUMPDEST PUSH1 0x0 PUSH1 0x20 DUP3 DUP5 SUB SLT ISZERO PUSH2 0x118E JUMPI PUSH1 0x0 DUP1 REVERT JUMPDEST PUSH1 0x0 PUSH2 0x119C DUP5 DUP3 DUP6 ADD PUSH2 0x113D JUMP JUMPDEST SWAP2 POP POP SWAP3 SWAP2 POP POP JUMP JUMPDEST PUSH1 0x0 PUSH1 0x20 DUP3 DUP5 SUB SLT ISZERO PUSH2 0x11B7 JUMPI PUSH1 0x0 DUP1 REVERT JUMPDEST PUSH1 0x0 PUSH2 0x11C5 DUP5 DUP3 DUP6 ADD PUSH2 0x1152 JUMP JUMPDEST SWAP2 POP POP SWAP3 SWAP2 POP POP JUMP JUMPDEST PUSH1 0x0 DUP1 PUSH1 0x40 DUP4 DUP6 SUB SLT ISZERO PUSH2 0x11E1 JUMPI PUSH1 0x0 DUP1 REVERT JUMPDEST PUSH1 0x0 PUSH2 0x11EF DUP6 DUP3 DUP7 ADD PUSH2 0x1152 JUMP JUMPDEST SWAP3 POP POP PUSH1 0x20 PUSH2 0x1200 DUP6 DUP3 DUP7 ADD PUSH2 0x1128 JUMP JUMPDEST SWAP2 POP POP SWAP3 POP SWAP3 SWAP1 POP JUMP JUMPDEST PUSH1 0x0 DUP1 PUSH1 0x40 DUP4 DUP6 SUB SLT ISZERO PUSH2 0x121D JUMPI PUSH1 0x0 DUP1 REVERT JUMPDEST PUSH1 0x0 PUSH2 0x122B DUP6 DUP3 DUP7 ADD PUSH2 0x1152 JUMP JUMPDEST SWAP3 POP POP PUSH1 0x20 PUSH2 0x123C DUP6 DUP3 DUP7 ADD PUSH2 0x1152 JUMP JUMPDEST SWAP2 POP POP SWAP3 POP SWAP3 SWAP1 POP JUMP JUMPDEST PUSH1 0x0 DUP1 PUSH1 0x0 PUSH1 0x60 DUP5 DUP7 SUB SLT ISZERO PUSH2 0x125B JUMPI PUSH1 0x0 DUP1 REVERT JUMPDEST PUSH1 0x0 PUSH2 0x1269 DUP7 DUP3 DUP8 ADD PUSH2 0x1152 JUMP JUMPDEST SWAP4 POP POP PUSH1 0x20 PUSH2 0x127A DUP7 DUP3 DUP8 ADD PUSH2 0x1167 JUMP JUMPDEST SWAP3 POP POP PUSH1 0x40 PUSH2 0x128B DUP7 DUP3 DUP8 ADD PUSH2 0x1167 JUMP JUMPDEST SWAP2 POP POP SWAP3 POP SWAP3 POP SWAP3 JUMP JUMPDEST PUSH2 0x129E DUP2 PUSH2 0x193B JUMP JUMPDEST DUP3 MSTORE POP POP JUMP JUMPDEST PUSH2 0x12AD DUP2 PUSH2 0x194D JUMP JUMPDEST DUP3 MSTORE POP POP JUMP JUMPDEST PUSH2 0x12BC DUP2 PUSH2 0x1993 JUMP JUMPDEST DUP3 MSTORE POP POP JUMP JUMPDEST PUSH1 0x0 PUSH2 0x12CF PUSH1 0xD DUP4 PUSH2 0x18A0 JUMP JUMPDEST SWAP2 POP PUSH2 0x12DA DUP3 PUSH2 0x1A59 JUMP JUMPDEST PUSH1 0x20 DUP3 ADD SWAP1 POP SWAP2 SWAP1 POP JUMP JUMPDEST PUSH1 0x0 PUSH2 0x12F2 PUSH1 0x15 DUP4 PUSH2 0x18A0 JUMP JUMPDEST SWAP2 POP PUSH2 0x12FD DUP3 PUSH2 0x1A82 JUMP JUMPDEST PUSH1 0x20 DUP3 ADD SWAP1 POP SWAP2 SWAP1 POP JUMP JUMPDEST PUSH1 0x0 PUSH2 0x1315 PUSH1 0x16 DUP4 PUSH2 0x18A0 JUMP JUMPDEST SWAP2 POP PUSH2 0x1320 DUP3 PUSH2 0x1AAB JUMP JUMPDEST PUSH1 0x20 DUP3 ADD SWAP1 POP SWAP2 SWAP1 POP JUMP JUMPDEST PUSH1 0x0 PUSH2 0x1338 PUSH1 0x9 DUP4 PUSH2 0x18A0 JUMP JUMPDEST SWAP2 POP PUSH2 0x1343 DUP3 PUSH2 0x1AD4 JUMP JUMPDEST PUSH1 0x20 DUP3 ADD SWAP1 POP SWAP2 SWAP1 POP JUMP JUMPDEST PUSH1 0x0 PUSH2 0x135B PUSH1 0x17 DUP4 PUSH2 0x18A0 JUMP JUMPDEST SWAP2 POP PUSH2 0x1366 DUP3 PUSH2 0x1AFD JUMP JUMPDEST PUSH1 0x20 DUP3 ADD SWAP1 POP SWAP2 SWAP1 POP JUMP JUMPDEST PUSH1 0x0 PUSH2 0x137E PUSH1 0x11 DUP4 PUSH2 0x18A0 JUMP JUMPDEST SWAP2 POP PUSH2 0x1389 DUP3 PUSH2 0x1B26 JUMP JUMPDEST PUSH1 0x20 DUP3 ADD SWAP1 POP SWAP2 SWAP1 POP JUMP JUMPDEST PUSH1 0x0 PUSH2 0x13A1 PUSH1 0x13 DUP4 PUSH2 0x18A0 JUMP JUMPDEST SWAP2 POP PUSH2 0x13AC DUP3 PUSH2 0x1B4F JUMP JUMPDEST PUSH1 0x20 DUP3 ADD SWAP1 POP SWAP2 SWAP1 POP JUMP JUMPDEST PUSH1 0x0 PUSH2 0x13C4 PUSH1 0x1B DUP4 PUSH2 0x18A0 JUMP JUMPDEST SWAP2 POP PUSH2 0x13CF DUP3 PUSH2 0x1B78 JUMP JUMPDEST PUSH1 0x20 DUP3 ADD SWAP1 POP SWAP2 SWAP1 POP JUMP JUMPDEST PUSH1 0x0 PUSH2 0x13E7 PUSH1 0x16 DUP4 PUSH2 0x18A0 JUMP JUMPDEST SWAP2 POP PUSH2 0x13F2 DUP3 PUSH2 0x1BA1 JUMP JUMPDEST PUSH1 0x20 DUP3 ADD SWAP1 POP SWAP2 SWAP1 POP JUMP JUMPDEST PUSH1 0x0 PUSH2 0x140A PUSH1 0xF DUP4 PUSH2 0x18A0 JUMP JUMPDEST SWAP2 POP PUSH2 0x1415 DUP3 PUSH2 0x1BCA JUMP JUMPDEST PUSH1 0x20 DUP3 ADD SWAP1 POP SWAP2 SWAP1 POP JUMP JUMPDEST PUSH1 0x0 PUSH2 0x142D PUSH1 0x13 DUP4 PUSH2 0x18A0 JUMP JUMPDEST SWAP2 POP PUSH2 0x1438 DUP3 PUSH2 0x1BF3 JUMP JUMPDEST PUSH1 0x20 DUP3 ADD SWAP1 POP SWAP2 SWAP1 POP JUMP JUMPDEST PUSH1 0x0 PUSH2 0x1450 PUSH1 0xF DUP4 PUSH2 0x18A0 JUMP JUMPDEST SWAP2 POP PUSH2 0x145B DUP3 PUSH2 0x1C1C JUMP JUMPDEST PUSH1 0x20 DUP3 ADD SWAP1 POP SWAP2 SWAP1 POP JUMP JUMPDEST PUSH1 0x0 PUSH2 0x1473 PUSH1 0x5 DUP4 PUSH2 0x18A0 JUMP JUMPDEST SWAP2 POP PUSH2 0x147E DUP3 PUSH2 0x1C45 JUMP JUMPDEST PUSH1 0x20 DUP3 ADD SWAP1 POP SWAP2 SWAP1 POP JUMP JUMPDEST PUSH1 0x0 PUSH2 0x1496 PUSH1 0x11 DUP4 PUSH2 0x18A0 JUMP JUMPDEST SWAP2 POP PUSH2 0x14A1 DUP3 PUSH2 0x1C6E JUMP JUMPDEST PUSH1 0x20 DUP3 ADD SWAP1 POP SWAP2 SWAP1 POP JUMP JUMPDEST PUSH1 0x0 PUSH2 0x14B9 PUSH1 0x9 DUP4 PUSH2 0x18A0 JUMP JUMPDEST SWAP2 POP PUSH2 0x14C4 DUP3 PUSH2 0x1C97 JUMP JUMPDEST PUSH1 0x20 DUP3 ADD SWAP1 POP SWAP2 SWAP1 POP JUMP JUMPDEST PUSH2 0x14D8 DUP2 PUSH2 0x1979 JUMP JUMPDEST DUP3 MSTORE POP POP JUMP JUMPDEST PUSH2 0x14E7 DUP2 PUSH2 0x1983 JUMP JUMPDEST DUP3 MSTORE POP POP JUMP JUMPDEST PUSH1 0x0 PUSH1 0x20 DUP3 ADD SWAP1 POP PUSH2 0x1502 PUSH1 0x0 DUP4 ADD DUP5 PUSH2 0x1295 JUMP JUMPDEST SWAP3 SWAP2 POP POP JUMP JUMPDEST PUSH1 0x0 PUSH1 0x40 DUP3 ADD SWAP1 POP PUSH2 0x151D PUSH1 0x0 DUP4 ADD DUP6 PUSH2 0x1295 JUMP JUMPDEST PUSH2 0x152A PUSH1 0x20 DUP4 ADD DUP5 PUSH2 0x14CF JUMP JUMPDEST SWAP4 SWAP3 POP POP POP JUMP JUMPDEST PUSH1 0x0 PUSH1 0xA0 DUP3 ADD SWAP1 POP PUSH2 0x1546 PUSH1 0x0 DUP4 ADD DUP9 PUSH2 0x1295 JUMP JUMPDEST PUSH2 0x1553 PUSH1 0x20 DUP4 ADD DUP8 PUSH2 0x14DE JUMP JUMPDEST PUSH2 0x1560 PUSH1 0x40 DUP4 ADD DUP7 PUSH2 0x14DE JUMP JUMPDEST PUSH2 0x156D PUSH1 0x60 DUP4 ADD DUP6 PUSH2 0x14CF JUMP JUMPDEST PUSH2 0x157A PUSH1 0x80 DUP4 ADD DUP5 PUSH2 0x14CF JUMP JUMPDEST SWAP7 SWAP6 POP POP POP POP POP POP JUMP JUMPDEST PUSH1 0x0 PUSH1 0x20 DUP3 ADD SWAP1 POP PUSH2 0x1599 PUSH1 0x0 DUP4 ADD DUP5 PUSH2 0x12B3 JUMP JUMPDEST SWAP3 SWAP2 POP POP JUMP JUMPDEST PUSH1 0x0 PUSH1 0x20 DUP3 ADD SWAP1 POP DUP2 DUP2 SUB PUSH1 0x0 DUP4 ADD MSTORE PUSH2 0x15B8 DUP2 PUSH2 0x12C2 JUMP JUMPDEST SWAP1 POP SWAP2 SWAP1 POP JUMP JUMPDEST PUSH1 0x0 PUSH1 0x20 DUP3 ADD SWAP1 POP DUP2 DUP2 SUB PUSH1 0x0 DUP4 ADD MSTORE PUSH2 0x15D8 DUP2 PUSH2 0x12E5 JUMP JUMPDEST SWAP1 POP SWAP2 SWAP1 POP JUMP JUMPDEST PUSH1 0x0 PUSH1 0x20 DUP3 ADD SWAP1 POP DUP2 DUP2 SUB PUSH1 0x0 DUP4 ADD MSTORE PUSH2 0x15F8 DUP2 PUSH2 0x1308 JUMP JUMPDEST SWAP1 POP SWAP2 SWAP1 POP JUMP JUMPDEST PUSH1 0x0 PUSH1 0x20 DUP3 ADD SWAP1 POP DUP2 DUP2 SUB PUSH1 0x0 DUP4 ADD MSTORE PUSH2 0x1618 DUP2 PUSH2 0x132B JUMP JUMPDEST SWAP1 POP SWAP2 SWAP1 POP JUMP JUMPDEST PUSH1 0x0 PUSH1 0x20 DUP3 ADD SWAP1 POP DUP2 DUP2 SUB PUSH1 0x0 DUP4 ADD MSTORE PUSH2 0x1638 DUP2 PUSH2 0x134E JUMP JUMPDEST SWAP1 POP SWAP2 SWAP1 POP JUMP JUMPDEST PUSH1 0x0 PUSH1 0x20 DUP3 ADD SWAP1 POP DUP2 DUP2 SUB PUSH1 0x0 DUP4 ADD MSTORE PUSH2 0x1658 DUP2 PUSH2 0x1371 JUMP JUMPDEST SWAP1 POP SWAP2 SWAP1 POP JUMP JUMPDEST PUSH1 0x0 PUSH1 0x20 DUP3 ADD SWAP1 POP DUP2 DUP2 SUB PUSH1 0x0 DUP4 ADD MSTORE PUSH2 0x1678 DUP2 PUSH2 0x1394 JUMP JUMPDEST SWAP1 POP SWAP2 SWAP1 POP JUMP JUMPDEST PUSH1 0x0 PUSH1 0x20 DUP3 ADD SWAP1 POP DUP2 DUP2 SUB PUSH1 0x0 DUP4 ADD MSTORE PUSH2 0x1698 DUP2 PUSH2 0x13B7 JUMP JUMPDEST SWAP1 POP SWAP2 SWAP1 POP JUMP JUMPDEST PUSH1 0x0 PUSH1 0x20 DUP3 ADD SWAP1 POP DUP2 DUP2 SUB PUSH1 0x0 DUP4 ADD MSTORE PUSH2 0x16B8 DUP2 PUSH2 0x13DA JUMP JUMPDEST SWAP1 POP SWAP2 SWAP1 POP JUMP JUMPDEST PUSH1 0x0 PUSH1 0x20 DUP3 ADD SWAP1 POP DUP2 DUP2 SUB PUSH1 0x0 DUP4 ADD MSTORE PUSH2 0x16D8 DUP2 PUSH2 0x13FD JUMP JUMPDEST SWAP1 POP SWAP2 SWAP1 POP JUMP JUMPDEST PUSH1 0x0 PUSH1 0x20 DUP3 ADD SWAP1 POP DUP2 DUP2 SUB PUSH1 0x0 DUP4 ADD MSTORE PUSH2 0x16F8 DUP2 PUSH2 0x1420 JUMP JUMPDEST SWAP1 POP SWAP2 SWAP1 POP JUMP JUMPDEST PUSH1 0x0 PUSH1 0x20 DUP3 ADD SWAP1 POP DUP2 DUP2 SUB PUSH1 0x0 DUP4 ADD MSTORE PUSH2 0x1718 DUP2 PUSH2 0x1443 JUMP JUMPDEST SWAP1 POP SWAP2 SWAP1 POP JUMP JUMPDEST PUSH1 0x0 PUSH1 0x20 DUP3 ADD SWAP1 POP DUP2 DUP2 SUB PUSH1 0x0 DUP4 ADD MSTORE PUSH2 0x1738 DUP2 PUSH2 0x1466 JUMP JUMPDEST SWAP1 POP SWAP2 SWAP1 POP JUMP JUMPDEST PUSH1 0x0 PUSH1 0x20 DUP3 ADD SWAP1 POP DUP2 DUP2 SUB PUSH1 0x0 DUP4 ADD MSTORE PUSH2 0x1758 DUP2 PUSH2 0x1489 JUMP JUMPDEST SWAP1 POP SWAP2 SWAP1 POP JUMP JUMPDEST PUSH1 0x0 PUSH1 0x20 DUP3 ADD SWAP1 POP DUP2 DUP2 SUB PUSH1 0x0 DUP4 ADD MSTORE PUSH2 0x1778 DUP2 PUSH2 0x14AC JUMP JUMPDEST SWAP1 POP SWAP2 SWAP1 POP JUMP JUMPDEST PUSH1 0x0 PUSH1 0x20 DUP3 ADD SWAP1 POP PUSH2 0x1794 PUSH1 0x0 DUP4 ADD DUP5 PUSH2 0x14CF JUMP JUMPDEST SWAP3 SWAP2 POP POP JUMP JUMPDEST PUSH1 0x0 PUSH1 0x60 DUP3 ADD SWAP1 POP PUSH2 0x17AF PUSH1 0x0 DUP4 ADD DUP7 PUSH2 0x14CF JUMP JUMPDEST PUSH2 0x17BC PUSH1 0x20 DUP4 ADD DUP6 PUSH2 0x1295 JUMP JUMPDEST PUSH2 0x17C9 PUSH1 0x40 DUP4 ADD DUP5 PUSH2 0x14CF JUMP JUMPDEST SWAP5 SWAP4 POP POP POP POP JUMP JUMPDEST PUSH1 0x0 PUSH1 0x40 DUP3 ADD SWAP1 POP PUSH2 0x17E6 PUSH1 0x0 DUP4 ADD DUP6 PUSH2 0x14CF JUMP JUMPDEST PUSH2 0x17F3 PUSH1 0x20 DUP4 ADD DUP5 PUSH2 0x14CF JUMP JUMPDEST SWAP4 SWAP3 POP POP POP JUMP JUMPDEST PUSH1 0x0 PUSH1 0x60 DUP3 ADD SWAP1 POP PUSH2 0x180F PUSH1 0x0 DUP4 ADD DUP7 PUSH2 0x14CF JUMP JUMPDEST PUSH2 0x181C PUSH1 0x20 DUP4 ADD DUP6 PUSH2 0x14CF JUMP JUMPDEST PUSH2 0x1829 PUSH1 0x40 DUP4 ADD DUP5 PUSH2 0x1295 JUMP JUMPDEST SWAP5 SWAP4 POP POP POP POP JUMP JUMPDEST PUSH1 0x0 PUSH1 0xE0 DUP3 ADD SWAP1 POP PUSH2 0x1846 PUSH1 0x0 DUP4 ADD DUP11 PUSH2 0x14DE JUMP JUMPDEST PUSH2 0x1853 PUSH1 0x20 DUP4 ADD DUP10 PUSH2 0x14DE JUMP JUMPDEST PUSH2 0x1860 PUSH1 0x40 DUP4 ADD DUP9 PUSH2 0x14CF JUMP JUMPDEST PUSH2 0x186D PUSH1 0x60 DUP4 ADD DUP8 PUSH2 0x14CF JUMP JUMPDEST PUSH2 0x187A PUSH1 0x80 DUP4 ADD DUP7 PUSH2 0x14CF JUMP JUMPDEST PUSH2 0x1887 PUSH1 0xA0 DUP4 ADD DUP6 PUSH2 0x12A4 JUMP JUMPDEST PUSH2 0x1894 PUSH1 0xC0 DUP4 ADD DUP5 PUSH2 0x12A4 JUMP JUMPDEST SWAP9 SWAP8 POP POP POP POP POP POP POP POP JUMP JUMPDEST PUSH1 0x0 DUP3 DUP3 MSTORE PUSH1 0x20 DUP3 ADD SWAP1 POP SWAP3 SWAP2 POP POP JUMP JUMPDEST PUSH1 0x0 PUSH2 0x18BC DUP3 PUSH2 0x1979 JUMP JUMPDEST SWAP2 POP PUSH2 0x18C7 DUP4 PUSH2 0x1979 JUMP JUMPDEST SWAP3 POP DUP3 PUSH32 0xFFFFFFFFFFFFFFFFFFFFFFFFFFFFFFFFFFFFFFFFFFFFFFFFFFFFFFFFFFFFFFFF SUB DUP3 GT ISZERO PUSH2 0x18FC JUMPI PUSH2 0x18FB PUSH2 0x1A2A JUMP JUMPDEST JUMPDEST DUP3 DUP3 ADD SWAP1 POP SWAP3 SWAP2 POP POP JUMP JUMPDEST PUSH1 0x0 PUSH2 0x1912 DUP3 PUSH2 0x1979 JUMP JUMPDEST SWAP2 POP PUSH2 0x191D DUP4 PUSH2 0x1979 JUMP JUMPDEST SWAP3 POP DUP3 DUP3 LT ISZERO PUSH2 0x1930 JUMPI PUSH2 0x192F PUSH2 0x1A2A JUMP JUMPDEST JUMPDEST DUP3 DUP3 SUB SWAP1 POP SWAP3 SWAP2 POP POP JUMP JUMPDEST PUSH1 0x0 PUSH2 0x1946 DUP3 PUSH2 0x1959 JUMP JUMPDEST SWAP1 POP SWAP2 SWAP1 POP JUMP JUMPDEST PUSH1 0x0 DUP2 ISZERO ISZERO SWAP1 POP SWAP2 SWAP1 POP JUMP JUMPDEST PUSH1 0x0 PUSH20 0xFFFFFFFFFFFFFFFFFFFFFFFFFFFFFFFFFFFFFFFF DUP3 AND SWAP1 POP SWAP2 SWAP1 POP JUMP JUMPDEST PUSH1 0x0 DUP2 SWAP1 POP SWAP2 SWAP1 POP JUMP JUMPDEST PUSH1 0x0 PUSH4 0xFFFFFFFF DUP3 AND SWAP1 POP SWAP2 SWAP1 POP JUMP JUMPDEST PUSH1 0x0 PUSH2 0x199E DUP3 PUSH2 0x19A5 JUMP JUMPDEST SWAP1 POP SWAP2 SWAP1 POP JUMP JUMPDEST PUSH1 0x0 PUSH2 0x19B0 DUP3 PUSH2 0x1959 JUMP JUMPDEST SWAP1 POP SWAP2 SWAP1 POP JUMP JUMPDEST PUSH1 0x0 PUSH2 0x19C2 DUP3 PUSH2 0x1979 JUMP JUMPDEST SWAP2 POP PUSH1 0x0 DUP3 EQ ISZERO PUSH2 0x19D6 JUMPI PUSH2 0x19D5 PUSH2 0x1A2A JUMP JUMPDEST JUMPDEST PUSH1 0x1 DUP3 SUB SWAP1 POP SWAP2 SWAP1 POP JUMP JUMPDEST PUSH1 0x0 PUSH2 0x19EC DUP3 PUSH2 0x1979 JUMP JUMPDEST SWAP2 POP PUSH32 0xFFFFFFFFFFFFFFFFFFFFFFFFFFFFFFFFFFFFFFFFFFFFFFFFFFFFFFFFFFFFFFFF DUP3 EQ ISZERO PUSH2 0x1A1F JUMPI PUSH2 0x1A1E PUSH2 0x1A2A JUMP JUMPDEST JUMPDEST PUSH1 0x1 DUP3 ADD SWAP1 POP SWAP2 SWAP1 POP JUMP JUMPDEST PUSH32 0x4E487B7100000000000000000000000000000000000000000000000000000000 PUSH1 0x0 MSTORE PUSH1 0x11 PUSH1 0x4 MSTORE PUSH1 0x24 PUSH1 0x0 REVERT JUMPDEST PUSH32 0x207365636F6E64206572726F7200000000000000000000000000000000000000 PUSH1 0x0 DUP3 ADD MSTORE POP JUMP JUMPDEST PUSH32 0x6F6E6C7920666F756E6465722077697468647261770000000000000000000000 PUSH1 0x0 DUP3 ADD MSTORE POP JUMP JUMPDEST PUSH32 0x646F6E6174652076616C7565206D757374206765203000000000000000000000 PUSH1 0x0 DUP3 ADD MSTORE POP JUMP JUMPDEST PUSH32 0x63726F776420656E640000000000000000000000000000000000000000000000 PUSH1 0x0 DUP3 ADD MSTORE POP JUMP JUMPDEST PUSH32 0x6E6F7420656E6F7567682066756E6473206572726F7220000000000000000000 PUSH1 0x0 DUP3 ADD MSTORE POP JUMP JUMPDEST PUSH32 0x20616D6F756E74206D7573742067652030000000000000000000000000000000 PUSH1 0x0 DUP3 ADD MSTORE POP JUMP JUMPDEST PUSH32 0x6F6E6C7920666F756E6465722063726561746500000000000000000000000000 PUSH1 0x0 DUP3 ADD MSTORE POP JUMP JUMPDEST PUSH32 0x6372656174652063726F776466756E642074696D65206572726F720000000000 PUSH1 0x0 DUP3 ADD MSTORE POP JUMP JUMPDEST PUSH32 0x6F6E6C792073746172742074696D652063616E63656C00000000000000000000 PUSH1 0x0 DUP3 ADD MSTORE POP JUMP JUMPDEST PUSH32 0x656E642074696D65206572726F72200000000000000000000000000000000000 PUSH1 0x0 DUP3 ADD MSTORE POP JUMP JUMPDEST PUSH32 0x6F6E6C7920666F756E6465722063616E63656C00000000000000000000000000 PUSH1 0x0 DUP3 ADD MSTORE POP JUMP JUMPDEST PUSH32 0x706C6564676564203E3D20676F616C0000000000000000000000000000000000 PUSH1 0x0 DUP3 ADD MSTORE POP JUMP JUMPDEST PUSH32 0x656E646564000000000000000000000000000000000000000000000000000000 PUSH1 0x0 DUP3 ADD MSTORE POP JUMP JUMPDEST PUSH32 0x646F6E6174652074696D65206572726F72000000000000000000000000000000 PUSH1 0x0 DUP3 ADD MSTORE POP JUMP JUMPDEST PUSH32 0x6E6F7420656E6465640000000000000000000000000000000000000000000000 PUSH1 0x0 DUP3 ADD MSTORE POP JUMP JUMPDEST PUSH2 0x1CC9 DUP2 PUSH2 0x193B JUMP JUMPDEST DUP2 EQ PUSH2 0x1CD4 JUMPI PUSH1 0x0 DUP1 REVERT JUMPDEST POP JUMP JUMPDEST PUSH2 0x1CE0 DUP2 PUSH2 0x194D JUMP JUMPDEST DUP2 EQ PUSH2 0x1CEB JUMPI PUSH1 0x0 DUP1 REVERT JUMPDEST POP JUMP JUMPDEST PUSH2 0x1CF7 DUP2 PUSH2 0x1979 JUMP JUMPDEST DUP2 EQ PUSH2 0x1D02 JUMPI PUSH1 0x0 DUP1 REVERT JUMPDEST POP JUMP JUMPDEST PUSH2 0x1D0E DUP2 PUSH2 0x1983 JUMP JUMPDEST DUP2 EQ PUSH2 0x1D19 JUMPI PUSH1 0x0 DUP1 REVERT JUMPDEST POP JUMP INVALID LOG2 PUSH5 0x6970667358 0x22 SLT KECCAK256 0x48 0xBC CHAINID 0xAE SWAP15 PUSH10 0x9B775E1A58F60E6FDAD5 PUSH14 0x53B923E188C9C035E37859B0E7F8 0x2C PUSH5 0x736F6C6343 STOP ADDMOD DIV STOP CALLER "
				},
				"gasEstimates": {
					"creation": {
						"codeDepositCost": "1501200",
						"executionCost": "infinite",
						"totalCost": "infinite"
					},
					"external": {
						"backDonate(uint256,uint256)": "infinite",
						"cancel(uint256)": "infinite",
						"countAddrAmount(uint256,address)": "infinite",
						"createCrowdFund(uint256,uint32,uint32)": "infinite",
						"crowdInfoNum(uint256)": "infinite",
						"donate(uint256,uint256)": "infinite",
						"founder()": "1236",
						"no()": "1195",
						"refund(uint256)": "infinite",
						"token()": "infinite",
						"withdraw(uint256,uint256)": "infinite"
					}
				},
				"methodIdentifiers": {
					"backDonate(uint256,uint256)": "deb75501",
					"cancel(uint256)": "40e58ee5",
					"countAddrAmount(uint256,address)": "ab2c44bf",
					"createCrowdFund(uint256,uint32,uint32)": "4b0529fb",
					"crowdInfoNum(uint256)": "1569e51b",
					"donate(uint256,uint256)": "0cdd53f6",
					"founder()": "4d853ee5",
					"no()": "b6c52ae8",
					"refund(uint256)": "278ecde1",
					"token()": "fc0c546a",
					"withdraw(uint256,uint256)": "441a3e70"
				}
			},
			"storageLayout": {
				"storage": [
					{
						"astId": 47,
						"contract": "contracts/base/CrowdFund.sol:CrowdFund",
						"label": "countAddrAmount",
						"offset": 0,
						"slot": "0",
						"type": "t_mapping(t_uint256,t_mapping(t_address,t_uint256))"
					},
					{
						"astId": 52,
						"contract": "contracts/base/CrowdFund.sol:CrowdFund",
						"label": "crowdInfoNum",
						"offset": 0,
						"slot": "1",
						"type": "t_mapping(t_uint256,t_struct(CrowdInfo)41_storage)"
					},
					{
						"astId": 54,
						"contract": "contracts/base/CrowdFund.sol:CrowdFund",
						"label": "founder",
						"offset": 0,
						"slot": "2",
						"type": "t_address"
					},
					{
						"astId": 56,
						"contract": "contracts/base/CrowdFund.sol:CrowdFund",
						"label": "no",
						"offset": 0,
						"slot": "3",
						"type": "t_uint256"
					}
				],
				"types": {
					"t_address": {
						"encoding": "inplace",
						"label": "address",
						"numberOfBytes": "20"
					},
					"t_bool": {
						"encoding": "inplace",
						"label": "bool",
						"numberOfBytes": "1"
					},
					"t_mapping(t_address,t_uint256)": {
						"encoding": "mapping",
						"key": "t_address",
						"label": "mapping(address => uint256)",
						"numberOfBytes": "32",
						"value": "t_uint256"
					},
					"t_mapping(t_uint256,t_mapping(t_address,t_uint256))": {
						"encoding": "mapping",
						"key": "t_uint256",
						"label": "mapping(uint256 => mapping(address => uint256))",
						"numberOfBytes": "32",
						"value": "t_mapping(t_address,t_uint256)"
					},
					"t_mapping(t_uint256,t_struct(CrowdInfo)41_storage)": {
						"encoding": "mapping",
						"key": "t_uint256",
						"label": "mapping(uint256 => struct CrowdFund.CrowdInfo)",
						"numberOfBytes": "32",
						"value": "t_struct(CrowdInfo)41_storage"
					},
					"t_struct(CrowdInfo)41_storage": {
						"encoding": "inplace",
						"label": "struct CrowdFund.CrowdInfo",
						"members": [
							{
								"astId": 28,
								"contract": "contracts/base/CrowdFund.sol:CrowdFund",
								"label": "startTime",
								"offset": 0,
								"slot": "0",
								"type": "t_uint32"
							},
							{
								"astId": 30,
								"contract": "contracts/base/CrowdFund.sol:CrowdFund",
								"label": "endTime",
								"offset": 4,
								"slot": "0",
								"type": "t_uint32"
							},
							{
								"astId": 32,
								"contract": "contracts/base/CrowdFund.sol:CrowdFund",
								"label": "targetFund",
								"offset": 0,
								"slot": "1",
								"type": "t_uint256"
							},
							{
								"astId": 34,
								"contract": "contracts/base/CrowdFund.sol:CrowdFund",
								"label": "pledged",
								"offset": 0,
								"slot": "2",
								"type": "t_uint256"
							},
							{
								"astId": 36,
								"contract": "contracts/base/CrowdFund.sol:CrowdFund",
								"label": "roundNumber",
								"offset": 0,
								"slot": "3",
								"type": "t_uint256"
							},
							{
								"astId": 38,
								"contract": "contracts/base/CrowdFund.sol:CrowdFund",
								"label": "startStatus",
								"offset": 0,
								"slot": "4",
								"type": "t_bool"
							},
							{
								"astId": 40,
								"contract": "contracts/base/CrowdFund.sol:CrowdFund",
								"label": "endStatus",
								"offset": 1,
								"slot": "4",
								"type": "t_bool"
							}
						],
						"numberOfBytes": "160"
					},
					"t_uint256": {
						"encoding": "inplace",
						"label": "uint256",
						"numberOfBytes": "32"
					},
					"t_uint32": {
						"encoding": "inplace",
						"label": "uint32",
						"numberOfBytes": "4"
					}
				}
			},
			"userdoc": {
				"kind": "user",
				"methods": {},
				"version": 1
			}
		}
	}
}