{
	"data": {
		"bytecode": {
			"linkReferences": {},
			"object": "60a060405261268960070b60809060070b60c01b81525034801561002257600080fd5b506000808190555060805160c01c61058e6100486000396000610155015261058e6000f3fe608060405234801561001057600080fd5b50600436106100885760003560e01c806386b714e21161005b57806386b714e2146100f1578063b3bcfa821461010f578063dbdb6f4c14610119578063f8a8fd6d1461014957610088565b80630c55699c1461008d57806328897238146100ab578063371303c0146100c95780634e70b1dc146100d3575b600080fd5b610095610153565b6040516100a29190610336565b60405180910390f35b6100b3610177565b6040516100c0919061031b565b60405180910390f35b6100d161017d565b005b6100db610198565b6040516100e8919061031b565b60405180910390f35b6100f961019e565b6040516101069190610351565b60405180910390f35b6101176101d7565b005b610133600480360381019061012e9190610288565b6101f2565b604051610140919061031b565b60405180910390f35b610151610211565b005b7f000000000000000000000000000000000000000000000000000000000000000081565b60015481565b600160008082825461018f919061038f565b92505081905550565b60005481565b6040518060400160405280600481526020017f313233300000000000000000000000000000000000000000000000000000000081525081565b60016000808282546101e99190610423565b92505081905550565b60008183610200919061038f565b600181905550600154905092915050565b3073ffffffffffffffffffffffffffffffffffffffff1663371303c06040518163ffffffff1660e01b8152600401600060405180830381600087803b15801561025957600080fd5b505af115801561026d573d6000803e3d6000fd5b50505050565b60008135905061028281610541565b92915050565b6000806040838503121561029b57600080fd5b60006102a985828601610273565b92505060206102ba85828601610273565b9150509250929050565b6102cd816104b7565b82525050565b6102dc816104c1565b82525050565b60006102ed82610373565b6102f7818561037e565b93506103078185602086016104ce565b61031081610530565b840191505092915050565b600060208201905061033060008301846102c4565b92915050565b600060208201905061034b60008301846102d3565b92915050565b6000602082019050818103600083015261036b81846102e2565b905092915050565b600081519050919050565b600082825260208201905092915050565b600061039a826104b7565b91506103a5836104b7565b9250817f7fffffffffffffffffffffffffffffffffffffffffffffffffffffffffffffff038313600083121516156103e0576103df610501565b5b817f800000000000000000000000000000000000000000000000000000000000000003831260008312161561041857610417610501565b5b828201905092915050565b600061042e826104b7565b9150610439836104b7565b9250827f80000000000000000000000000000000000000000000000000000000000000000182126000841215161561047457610473610501565b5b827f7fffffffffffffffffffffffffffffffffffffffffffffffffffffffffffffff0182136000841216156104ac576104ab610501565b5b828203905092915050565b6000819050919050565b60008160070b9050919050565b60005b838110156104ec5780820151818401526020810190506104d1565b838111156104fb576000848401525b50505050565b7f4e487b7100000000000000000000000000000000000000000000000000000000600052601160045260246000fd5b6000601f19601f8301169050919050565b61054a816104b7565b811461055557600080fd5b5056fea26469706673582212209708c81a8a2fcbfb5d01a7b48c88f43865c970eb32a4ad32a38b9a7fc992dbc664736f6c63430008030033",
			"opcodes": "PUSH1 0xA0 PUSH1 0x40 MSTORE PUSH2 0x2689 PUSH1 0x7 SIGNEXTEND PUSH1 0x80 SWAP1 PUSH1 0x7 SIGNEXTEND PUSH1 0xC0 SHL DUP2 MSTORE POP CALLVALUE DUP1 ISZERO PUSH2 0x22 JUMPI PUSH1 0x0 DUP1 REVERT JUMPDEST POP PUSH1 0x0 DUP1 DUP2 SWAP1 SSTORE POP PUSH1 0x80 MLOAD PUSH1 0xC0 SHR PUSH2 0x58E PUSH2 0x48 PUSH1 0x0 CODECOPY PUSH1 0x0 PUSH2 0x155 ADD MSTORE PUSH2 0x58E PUSH1 0x0 RETURN INVALID PUSH1 0x80 PUSH1 0x40 MSTORE CALLVALUE DUP1 ISZERO PUSH2 0x10 JUMPI PUSH1 0x0 DUP1 REVERT JUMPDEST POP PUSH1 0x4 CALLDATASIZE LT PUSH2 0x88 JUMPI PUSH1 0x0 CALLDATALOAD PUSH1 0xE0 SHR DUP1 PUSH4 0x86B714E2 GT PUSH2 0x5B JUMPI DUP1 PUSH4 0x86B714E2 EQ PUSH2 0xF1 JUMPI DUP1 PUSH4 0xB3BCFA82 EQ PUSH2 0x10F JUMPI DUP1 PUSH4 0xDBDB6F4C EQ PUSH2 0x119 JUMPI DUP1 PUSH4 0xF8A8FD6D EQ PUSH2 0x149 JUMPI PUSH2 0x88 JUMP JUMPDEST DUP1 PUSH4 0xC55699C EQ PUSH2 0x8D JUMPI DUP1 PUSH4 0x28897238 EQ PUSH2 0xAB JUMPI DUP1 PUSH4 0x371303C0 EQ PUSH2 0xC9 JUMPI DUP1 PUSH4 0x4E70B1DC EQ PUSH2 0xD3 JUMPI JUMPDEST PUSH1 0x0 DUP1 REVERT JUMPDEST PUSH2 0x95 PUSH2 0x153 JUMP JUMPDEST PUSH1 0x40 MLOAD PUSH2 0xA2 SWAP2 SWAP1 PUSH2 0x336 JUMP JUMPDEST PUSH1 0x40 MLOAD DUP1 SWAP2 SUB SWAP1 RETURN JUMPDEST PUSH2 0xB3 PUSH2 0x177 JUMP JUMPDEST PUSH1 0x40 MLOAD PUSH2 0xC0 SWAP2 SWAP1 PUSH2 0x31B JUMP JUMPDEST PUSH1 0x40 MLOAD DUP1 SWAP2 SUB SWAP1 RETURN JUMPDEST PUSH2 0xD1 PUSH2 0x17D JUMP JUMPDEST STOP JUMPDEST PUSH2 0xDB PUSH2 0x198 JUMP JUMPDEST PUSH1 0x40 MLOAD PUSH2 0xE8 SWAP2 SWAP1 PUSH2 0x31B JUMP JUMPDEST PUSH1 0x40 MLOAD DUP1 SWAP2 SUB SWAP1 RETURN JUMPDEST PUSH2 0xF9 PUSH2 0x19E JUMP JUMPDEST PUSH1 0x40 MLOAD PUSH2 0x106 SWAP2 SWAP1 PUSH2 0x351 JUMP JUMPDEST PUSH1 0x40 MLOAD DUP1 SWAP2 SUB SWAP1 RETURN JUMPDEST PUSH2 0x117 PUSH2 0x1D7 JUMP JUMPDEST STOP JUMPDEST PUSH2 0x133 PUSH1 0x4 DUP1 CALLDATASIZE SUB DUP2 ADD SWAP1 PUSH2 0x12E SWAP2 SWAP1 PUSH2 0x288 JUMP JUMPDEST PUSH2 0x1F2 JUMP JUMPDEST PUSH1 0x40 MLOAD PUSH2 0x140 SWAP2 SWAP1 PUSH2 0x31B JUMP JUMPDEST PUSH1 0x40 MLOAD DUP1 SWAP2 SUB SWAP1 RETURN JUMPDEST PUSH2 0x151 PUSH2 0x211 JUMP JUMPDEST STOP JUMPDEST PUSH32 0x0 DUP2 JUMP JUMPDEST PUSH1 0x1 SLOAD DUP2 JUMP JUMPDEST PUSH1 0x1 PUSH1 0x0 DUP1 DUP3 DUP3 SLOAD PUSH2 0x18F SWAP2 SWAP1 PUSH2 0x38F JUMP JUMPDEST SWAP3 POP POP DUP2 SWAP1 SSTORE POP JUMP JUMPDEST PUSH1 0x0 SLOAD DUP2 JUMP JUMPDEST PUSH1 0x40 MLOAD DUP1 PUSH1 0x40 ADD PUSH1 0x40 MSTORE DUP1 PUSH1 0x4 DUP2 MSTORE PUSH1 0x20 ADD PUSH32 0x3132333000000000000000000000000000000000000000000000000000000000 DUP2 MSTORE POP DUP2 JUMP JUMPDEST PUSH1 0x1 PUSH1 0x0 DUP1 DUP3 DUP3 SLOAD PUSH2 0x1E9 SWAP2 SWAP1 PUSH2 0x423 JUMP JUMPDEST SWAP3 POP POP DUP2 SWAP1 SSTORE POP JUMP JUMPDEST PUSH1 0x0 DUP2 DUP4 PUSH2 0x200 SWAP2 SWAP1 PUSH2 0x38F JUMP JUMPDEST PUSH1 0x1 DUP2 SWAP1 SSTORE POP PUSH1 0x1 SLOAD SWAP1 POP SWAP3 SWAP2 POP POP JUMP JUMPDEST ADDRESS PUSH20 0xFFFFFFFFFFFFFFFFFFFFFFFFFFFFFFFFFFFFFFFF AND PUSH4 0x371303C0 PUSH1 0x40 MLOAD DUP2 PUSH4 0xFFFFFFFF AND PUSH1 0xE0 SHL DUP2 MSTORE PUSH1 0x4 ADD PUSH1 0x0 PUSH1 0x40 MLOAD DUP1 DUP4 SUB DUP2 PUSH1 0x0 DUP8 DUP1 EXTCODESIZE ISZERO DUP1 ISZERO PUSH2 0x259 JUMPI PUSH1 0x0 DUP1 REVERT JUMPDEST POP GAS CALL ISZERO DUP1 ISZERO PUSH2 0x26D JUMPI RETURNDATASIZE PUSH1 0x0 DUP1 RETURNDATACOPY RETURNDATASIZE PUSH1 0x0 REVERT JUMPDEST POP POP POP POP JUMP JUMPDEST PUSH1 0x0 DUP2 CALLDATALOAD SWAP1 POP PUSH2 0x282 DUP2 PUSH2 0x541 JUMP JUMPDEST SWAP3 SWAP2 POP POP JUMP JUMPDEST PUSH1 0x0 DUP1 PUSH1 0x40 DUP4 DUP6 SUB SLT ISZERO PUSH2 0x29B JUMPI PUSH1 0x0 DUP1 REVERT JUMPDEST PUSH1 0x0 PUSH2 0x2A9 DUP6 DUP3 DUP7 ADD PUSH2 0x273 JUMP JUMPDEST SWAP3 POP POP PUSH1 0x20 PUSH2 0x2BA DUP6 DUP3 DUP7 ADD PUSH2 0x273 JUMP JUMPDEST SWAP2 POP POP SWAP3 POP SWAP3 SWAP1 POP JUMP JUMPDEST PUSH2 0x2CD DUP2 PUSH2 0x4B7 JUMP JUMPDEST DUP3 MSTORE POP POP JUMP JUMPDEST PUSH2 0x2DC DUP2 PUSH2 0x4C1 JUMP JUMPDEST DUP3 MSTORE POP POP JUMP JUMPDEST PUSH1 0x0 PUSH2 0x2ED DUP3 PUSH2 0x373 JUMP JUMPDEST PUSH2 0x2F7 DUP2 DUP6 PUSH2 0x37E JUMP JUMPDEST SWAP4 POP PUSH2 0x307 DUP2 DUP6 PUSH1 0x20 DUP7 ADD PUSH2 0x4CE JUMP JUMPDEST PUSH2 0x310 DUP2 PUSH2 0x530 JUMP JUMPDEST DUP5 ADD SWAP2 POP POP SWAP3 SWAP2 POP POP JUMP JUMPDEST PUSH1 0x0 PUSH1 0x20 DUP3 ADD SWAP1 POP PUSH2 0x330 PUSH1 0x0 DUP4 ADD DUP5 PUSH2 0x2C4 JUMP JUMPDEST SWAP3 SWAP2 POP POP JUMP JUMPDEST PUSH1 0x0 PUSH1 0x20 DUP3 ADD SWAP1 POP PUSH2 0x34B PUSH1 0x0 DUP4 ADD DUP5 PUSH2 0x2D3 JUMP JUMPDEST SWAP3 SWAP2 POP POP JUMP JUMPDEST PUSH1 0x0 PUSH1 0x20 DUP3 ADD SWAP1 POP DUP2 DUP2 SUB PUSH1 0x0 DUP4 ADD MSTORE PUSH2 0x36B DUP2 DUP5 PUSH2 0x2E2 JUMP JUMPDEST SWAP1 POP SWAP3 SWAP2 POP POP JUMP JUMPDEST PUSH1 0x0 DUP2 MLOAD SWAP1 POP SWAP2 SWAP1 POP JUMP JUMPDEST PUSH1 0x0 DUP3 DUP3 MSTORE PUSH1 0x20 DUP3 ADD SWAP1 POP SWAP3 SWAP2 POP POP JUMP JUMPDEST PUSH1 0x0 PUSH2 0x39A DUP3 PUSH2 0x4B7 JUMP JUMPDEST SWAP2 POP PUSH2 0x3A5 DUP4 PUSH2 0x4B7 JUMP JUMPDEST SWAP3 POP DUP2 PUSH32 0x7FFFFFFFFFFFFFFFFFFFFFFFFFFFFFFFFFFFFFFFFFFFFFFFFFFFFFFFFFFFFFFF SUB DUP4 SGT PUSH1 0x0 DUP4 SLT ISZERO AND ISZERO PUSH2 0x3E0 JUMPI PUSH2 0x3DF PUSH2 0x501 JUMP JUMPDEST JUMPDEST DUP2 PUSH32 0x8000000000000000000000000000000000000000000000000000000000000000 SUB DUP4 SLT PUSH1 0x0 DUP4 SLT AND ISZERO PUSH2 0x418 JUMPI PUSH2 0x417 PUSH2 0x501 JUMP JUMPDEST JUMPDEST DUP3 DUP3 ADD SWAP1 POP SWAP3 SWAP2 POP POP JUMP JUMPDEST PUSH1 0x0 PUSH2 0x42E DUP3 PUSH2 0x4B7 JUMP JUMPDEST SWAP2 POP PUSH2 0x439 DUP4 PUSH2 0x4B7 JUMP JUMPDEST SWAP3 POP DUP3 PUSH32 0x8000000000000000000000000000000000000000000000000000000000000000 ADD DUP3 SLT PUSH1 0x0 DUP5 SLT ISZERO AND ISZERO PUSH2 0x474 JUMPI PUSH2 0x473 PUSH2 0x501 JUMP JUMPDEST JUMPDEST DUP3 PUSH32 0x7FFFFFFFFFFFFFFFFFFFFFFFFFFFFFFFFFFFFFFFFFFFFFFFFFFFFFFFFFFFFFFF ADD DUP3 SGT PUSH1 0x0 DUP5 SLT AND ISZERO PUSH2 0x4AC JUMPI PUSH2 0x4AB PUSH2 0x501 JUMP JUMPDEST JUMPDEST DUP3 DUP3 SUB SWAP1 POP SWAP3 SWAP2 POP POP JUMP JUMPDEST PUSH1 0x0 DUP2 SWAP1 POP SWAP2 SWAP1 POP JUMP JUMPDEST PUSH1 0x0 DUP2 PUSH1 0x7 SIGNEXTEND SWAP1 POP SWAP2 SWAP1 POP JUMP JUMPDEST PUSH1 0x0 JUMPDEST DUP4 DUP2 LT ISZERO PUSH2 0x4EC JUMPI DUP1 DUP3 ADD MLOAD DUP2 DUP5 ADD MSTORE PUSH1 0x20 DUP2 ADD SWAP1 POP PUSH2 0x4D1 JUMP JUMPDEST DUP4 DUP2 GT ISZERO PUSH2 0x4FB JUMPI PUSH1 0x0 DUP5 DUP5 ADD MSTORE JUMPDEST POP POP POP POP JUMP JUMPDEST PUSH32 0x4E487B7100000000000000000000000000000000000000000000000000000000 PUSH1 0x0 MSTORE PUSH1 0x11 PUSH1 0x4 MSTORE PUSH1 0x24 PUSH1 0x0 REVERT JUMPDEST PUSH1 0x0 PUSH1 0x1F NOT PUSH1 0x1F DUP4 ADD AND SWAP1 POP SWAP2 SWAP1 POP JUMP JUMPDEST PUSH2 0x54A DUP2 PUSH2 0x4B7 JUMP JUMPDEST DUP2 EQ PUSH2 0x555 JUMPI PUSH1 0x0 DUP1 REVERT JUMPDEST POP JUMP INVALID LOG2 PUSH5 0x6970667358 0x22 SLT KECCAK256 SWAP8 ADDMOD 0xC8 BYTE DUP11 0x2F 0xCB 0xFB 0x5D ADD 0xA7 0xB4 DUP13 DUP9 DELEGATECALL CODESIZE PUSH6 0xC970EB32A4AD ORIGIN LOG3 DUP12 SWAP11 PUSH32 0xC992DBC664736F6C634300080300330000000000000000000000000000000000 "
		},
		"gasEstimates": {
			"creation": {
				"codeDepositCost": "284400",
				"executionCost": "infinite",
				"totalCost": "infinite"
			},
			"external": {
				"dec()": "infinite",
				"i1()": "1152",
				"inc()": "infinite",
				"num()": "1196",
				"s()": "infinite",
				"test()": "infinite",
				"test2(int256,int256)": "infinite",
				"x()": "infinite"
			}
		},
		"methodIdentifiers": {
			"dec()": "b3bcfa82",
			"i1()": "28897238",
			"inc()": "371303c0",
			"num()": "4e70b1dc",
			"s()": "86b714e2",
			"test()": "f8a8fd6d",
			"test2(int256,int256)": "dbdb6f4c",
			"x()": "0c55699c"
		}
	},
	"abi": [
		{
			"inputs": [],
			"stateMutability": "nonpayable",
			"type": "constructor"
		},
		{
			"inputs": [],
			"name": "dec",
			"outputs": [],
			"stateMutability": "nonpayable",
			"type": "function"
		},
		{
			"inputs": [],
			"name": "i1",
			"outputs": [
				{
					"internalType": "int256",
					"name": "",
					"type": "int256"
				}
			],
			"stateMutability": "view",
			"type": "function"
		},
		{
			"inputs": [],
			"name": "inc",
			"outputs": [],
			"stateMutability": "nonpayable",
			"type": "function"
		},
		{
			"inputs": [],
			"name": "num",
			"outputs": [
				{
					"internalType": "int256",
					"name": "",
					"type": "int256"
				}
			],
			"stateMutability": "view",
			"type": "function"
		},
		{
			"inputs": [],
			"name": "s",
			"outputs": [
				{
					"internalType": "string",
					"name": "",
					"type": "string"
				}
			],
			"stateMutability": "view",
			"type": "function"
		},
		{
			"inputs": [],
			"name": "test",
			"outputs": [],
			"stateMutability": "nonpayable",
			"type": "function"
		},
		{
			"inputs": [
				{
					"internalType": "int256",
					"name": "a",
					"type": "int256"
				},
				{
					"internalType": "int256",
					"name": "b",
					"type": "int256"
				}
			],
			"name": "test2",
			"outputs": [
				{
					"internalType": "int256",
					"name": "c",
					"type": "int256"
				}
			],
			"stateMutability": "nonpayable",
			"type": "function"
		},
		{
			"inputs": [],
			"name": "x",
			"outputs": [
				{
					"internalType": "int64",
					"name": "",
					"type": "int64"
				}
			],
			"stateMutability": "view",
			"type": "function"
		}
	]
}