{
	"contracts/base/functionTest.sol": {
		"functionTest": {
			"abi": [
				{
					"inputs": [],
					"name": "A",
					"outputs": [
						{
							"internalType": "uint256",
							"name": "",
							"type": "uint256"
						}
					],
					"stateMutability": "view",
					"type": "function"
				},
				{
					"inputs": [],
					"name": "A_",
					"outputs": [
						{
							"internalType": "int256",
							"name": "",
							"type": "int256"
						}
					],
					"stateMutability": "view",
					"type": "function"
				},
				{
					"inputs": [],
					"name": "count",
					"outputs": [
						{
							"internalType": "uint256",
							"name": "",
							"type": "uint256"
						}
					],
					"stateMutability": "view",
					"type": "function"
				},
				{
					"inputs": [],
					"name": "test1",
					"outputs": [
						{
							"internalType": "uint256",
							"name": "",
							"type": "uint256"
						}
					],
					"stateMutability": "view",
					"type": "function"
				},
				{
					"inputs": [],
					"name": "test2",
					"outputs": [
						{
							"internalType": "uint256",
							"name": "",
							"type": "uint256"
						}
					],
					"stateMutability": "pure",
					"type": "function"
				},
				{
					"inputs": [],
					"name": "test3",
					"outputs": [
						{
							"internalType": "uint256",
							"name": "",
							"type": "uint256"
						}
					],
					"stateMutability": "payable",
					"type": "function"
				},
				{
					"inputs": [],
					"name": "testBool",
					"outputs": [
						{
							"internalType": "bool",
							"name": "",
							"type": "bool"
						}
					],
					"stateMutability": "view",
					"type": "function"
				}
			],
			"devdoc": {
				"kind": "dev",
				"methods": {},
				"version": 1
			},
			"evm": {
				"assembly": "    /* \"contracts/base/functionTest.sol\":63:440  contract functionTest{\r... */\n  mstore(0x40, 0x80)\n    /* \"contracts/base/functionTest.sol\":109:110  1 */\n  0x01\n    /* \"contracts/base/functionTest.sol\":89:110  uint public count = 1 */\n  0x00\n  sstore\n    /* \"contracts/base/functionTest.sol\":177:181  true */\n  0x01\n    /* \"contracts/base/functionTest.sol\":153:181  bool public testBool =  true */\n  dup1\n  exp(0x0100, 0x00)\n  dup2\n  sload\n  dup2\n  0xff\n  mul\n  not\n  and\n  swap1\n  dup4\n  iszero\n  iszero\n  mul\n  or\n  swap1\n  sstore\n  pop\n    /* \"contracts/base/functionTest.sol\":63:440  contract functionTest{\r... */\n  callvalue\n  dup1\n  iszero\n  tag_1\n  jumpi\n  0x00\n  dup1\n  revert\ntag_1:\n  pop\n  dataSize(sub_0)\n  dup1\n  dataOffset(sub_0)\n  0x00\n  codecopy\n  0x00\n  return\nstop\n\nsub_0: assembly {\n        /* \"contracts/base/functionTest.sol\":63:440  contract functionTest{\r... */\n      mstore(0x40, 0x80)\n      jumpi(tag_1, lt(calldatasize, 0x04))\n      shr(0xe0, calldataload(0x00))\n      dup1\n      0x66e41cb7\n      gt\n      tag_9\n      jumpi\n      dup1\n      0x66e41cb7\n      eq\n      tag_5\n      jumpi\n      dup1\n      0x6b59084d\n      eq\n      tag_6\n      jumpi\n      dup1\n      0x9bba7a05\n      eq\n      tag_7\n      jumpi\n      dup1\n      0xf446c1d0\n      eq\n      tag_8\n      jumpi\n      jump(tag_1)\n    tag_9:\n      dup1\n      0x06661abd\n      eq\n      tag_2\n      jumpi\n      dup1\n      0x0a8e8e01\n      eq\n      tag_3\n      jumpi\n      dup1\n      0x36aacafa\n      eq\n      tag_4\n      jumpi\n    tag_1:\n      0x00\n      dup1\n      revert\n        /* \"contracts/base/functionTest.sol\":89:110  uint public count = 1 */\n    tag_2:\n      callvalue\n      dup1\n      iszero\n      tag_10\n      jumpi\n      0x00\n      dup1\n      revert\n    tag_10:\n      pop\n      tag_11\n      tag_12\n      jump\t// in\n    tag_11:\n      mload(0x40)\n      tag_13\n      swap2\n      swap1\n      tag_14\n      jump\t// in\n    tag_13:\n      mload(0x40)\n      dup1\n      swap2\n      sub\n      swap1\n      return\n        /* \"contracts/base/functionTest.sol\":368:435  function test3() payable public returns(uint) {\r... */\n    tag_3:\n      tag_15\n      tag_16\n      jump\t// in\n    tag_15:\n      mload(0x40)\n      tag_17\n      swap2\n      swap1\n      tag_14\n      jump\t// in\n    tag_17:\n      mload(0x40)\n      dup1\n      swap2\n      sub\n      swap1\n      return\n        /* \"contracts/base/functionTest.sol\":153:181  bool public testBool =  true */\n    tag_4:\n      callvalue\n      dup1\n      iszero\n      tag_18\n      jumpi\n      0x00\n      dup1\n      revert\n    tag_18:\n      pop\n      tag_19\n      tag_20\n      jump\t// in\n    tag_19:\n      mload(0x40)\n      tag_21\n      swap2\n      swap1\n      tag_22\n      jump\t// in\n    tag_21:\n      mload(0x40)\n      dup1\n      swap2\n      sub\n      swap1\n      return\n        /* \"contracts/base/functionTest.sol\":296:362  function test2() pure public returns (uint) {\r... */\n    tag_5:\n      callvalue\n      dup1\n      iszero\n      tag_23\n      jumpi\n      0x00\n      dup1\n      revert\n    tag_23:\n      pop\n      tag_24\n      tag_25\n      jump\t// in\n    tag_24:\n      mload(0x40)\n      tag_26\n      swap2\n      swap1\n      tag_14\n      jump\t// in\n    tag_26:\n      mload(0x40)\n      dup1\n      swap2\n      sub\n      swap1\n      return\n        /* \"contracts/base/functionTest.sol\":222:290  function test1() view public returns (uint){\r... */\n    tag_6:\n      callvalue\n      dup1\n      iszero\n      tag_27\n      jumpi\n      0x00\n      dup1\n      revert\n    tag_27:\n      pop\n      tag_28\n      tag_29\n      jump\t// in\n    tag_28:\n      mload(0x40)\n      tag_30\n      swap2\n      swap1\n      tag_14\n      jump\t// in\n    tag_30:\n      mload(0x40)\n      dup1\n      swap2\n      sub\n      swap1\n      return\n        /* \"contracts/base/functionTest.sol\":186:215  int public constant A_ = -128 */\n    tag_7:\n      callvalue\n      dup1\n      iszero\n      tag_31\n      jumpi\n      0x00\n      dup1\n      revert\n    tag_31:\n      pop\n      tag_32\n      tag_33\n      jump\t// in\n    tag_32:\n      mload(0x40)\n      tag_34\n      swap2\n      swap1\n      tag_35\n      jump\t// in\n    tag_34:\n      mload(0x40)\n      dup1\n      swap2\n      sub\n      swap1\n      return\n        /* \"contracts/base/functionTest.sol\":117:148  uint256 public constant A = 256 */\n    tag_8:\n      callvalue\n      dup1\n      iszero\n      tag_36\n      jumpi\n      0x00\n      dup1\n      revert\n    tag_36:\n      pop\n      tag_37\n      tag_38\n      jump\t// in\n    tag_37:\n      mload(0x40)\n      tag_39\n      swap2\n      swap1\n      tag_14\n      jump\t// in\n    tag_39:\n      mload(0x40)\n      dup1\n      swap2\n      sub\n      swap1\n      return\n        /* \"contracts/base/functionTest.sol\":89:110  uint public count = 1 */\n    tag_12:\n      sload(0x00)\n      dup2\n      jump\t// out\n        /* \"contracts/base/functionTest.sol\":368:435  function test3() payable public returns(uint) {\r... */\n    tag_16:\n        /* \"contracts/base/functionTest.sol\":408:412  uint */\n      0x00\n        /* \"contracts/base/functionTest.sol\":428:429  1 */\n      0x01\n        /* \"contracts/base/functionTest.sol\":421:429  return 1 */\n      swap1\n      pop\n        /* \"contracts/base/functionTest.sol\":368:435  function test3() payable public returns(uint) {\r... */\n      swap1\n      jump\t// out\n        /* \"contracts/base/functionTest.sol\":153:181  bool public testBool =  true */\n    tag_20:\n      0x01\n      0x00\n      swap1\n      sload\n      swap1\n      0x0100\n      exp\n      swap1\n      div\n      0xff\n      and\n      dup2\n      jump\t// out\n        /* \"contracts/base/functionTest.sol\":296:362  function test2() pure public returns (uint) {\r... */\n    tag_25:\n        /* \"contracts/base/functionTest.sol\":334:338  uint */\n      0x00\n        /* \"contracts/base/functionTest.sol\":354:355  1 */\n      0x01\n        /* \"contracts/base/functionTest.sol\":347:355  return 1 */\n      swap1\n      pop\n        /* \"contracts/base/functionTest.sol\":296:362  function test2() pure public returns (uint) {\r... */\n      swap1\n      jump\t// out\n        /* \"contracts/base/functionTest.sol\":222:290  function test1() view public returns (uint){\r... */\n    tag_29:\n        /* \"contracts/base/functionTest.sol\":260:264  uint */\n      0x00\n        /* \"contracts/base/functionTest.sol\":279:284  count */\n      dup1\n      sload\n        /* \"contracts/base/functionTest.sol\":272:284  return count */\n      swap1\n      pop\n        /* \"contracts/base/functionTest.sol\":222:290  function test1() view public returns (uint){\r... */\n      swap1\n      jump\t// out\n        /* \"contracts/base/functionTest.sol\":186:215  int public constant A_ = -128 */\n    tag_33:\n        /* \"contracts/base/functionTest.sol\":211:215  -128 */\n      0xffffffffffffffffffffffffffffffffffffffffffffffffffffffffffffff80\n        /* \"contracts/base/functionTest.sol\":186:215  int public constant A_ = -128 */\n      dup2\n      jump\t// out\n        /* \"contracts/base/functionTest.sol\":117:148  uint256 public constant A = 256 */\n    tag_38:\n        /* \"contracts/base/functionTest.sol\":145:148  256 */\n      0x0100\n        /* \"contracts/base/functionTest.sol\":117:148  uint256 public constant A = 256 */\n      dup2\n      jump\t// out\n        /* \"#utility.yul\":7:116   */\n    tag_44:\n        /* \"#utility.yul\":88:109   */\n      tag_46\n        /* \"#utility.yul\":103:108   */\n      dup2\n        /* \"#utility.yul\":88:109   */\n      tag_47\n      jump\t// in\n    tag_46:\n        /* \"#utility.yul\":83:86   */\n      dup3\n        /* \"#utility.yul\":76:110   */\n      mstore\n        /* \"#utility.yul\":66:116   */\n      pop\n      pop\n      jump\t// out\n        /* \"#utility.yul\":122:237   */\n    tag_48:\n        /* \"#utility.yul\":207:230   */\n      tag_50\n        /* \"#utility.yul\":224:229   */\n      dup2\n        /* \"#utility.yul\":207:230   */\n      tag_51\n      jump\t// in\n    tag_50:\n        /* \"#utility.yul\":202:205   */\n      dup3\n        /* \"#utility.yul\":195:231   */\n      mstore\n        /* \"#utility.yul\":185:237   */\n      pop\n      pop\n      jump\t// out\n        /* \"#utility.yul\":243:361   */\n    tag_52:\n        /* \"#utility.yul\":330:354   */\n      tag_54\n        /* \"#utility.yul\":348:353   */\n      dup2\n        /* \"#utility.yul\":330:354   */\n      tag_55\n      jump\t// in\n    tag_54:\n        /* \"#utility.yul\":325:328   */\n      dup3\n        /* \"#utility.yul\":318:355   */\n      mstore\n        /* \"#utility.yul\":308:361   */\n      pop\n      pop\n      jump\t// out\n        /* \"#utility.yul\":367:577   */\n    tag_22:\n      0x00\n        /* \"#utility.yul\":492:494   */\n      0x20\n        /* \"#utility.yul\":481:490   */\n      dup3\n        /* \"#utility.yul\":477:495   */\n      add\n        /* \"#utility.yul\":469:495   */\n      swap1\n      pop\n        /* \"#utility.yul\":505:570   */\n      tag_57\n        /* \"#utility.yul\":567:568   */\n      0x00\n        /* \"#utility.yul\":556:565   */\n      dup4\n        /* \"#utility.yul\":552:569   */\n      add\n        /* \"#utility.yul\":543:549   */\n      dup5\n        /* \"#utility.yul\":505:570   */\n      tag_44\n      jump\t// in\n    tag_57:\n        /* \"#utility.yul\":459:577   */\n      swap3\n      swap2\n      pop\n      pop\n      jump\t// out\n        /* \"#utility.yul\":583:801   */\n    tag_35:\n      0x00\n        /* \"#utility.yul\":712:714   */\n      0x20\n        /* \"#utility.yul\":701:710   */\n      dup3\n        /* \"#utility.yul\":697:715   */\n      add\n        /* \"#utility.yul\":689:715   */\n      swap1\n      pop\n        /* \"#utility.yul\":725:794   */\n      tag_59\n        /* \"#utility.yul\":791:792   */\n      0x00\n        /* \"#utility.yul\":780:789   */\n      dup4\n        /* \"#utility.yul\":776:793   */\n      add\n        /* \"#utility.yul\":767:773   */\n      dup5\n        /* \"#utility.yul\":725:794   */\n      tag_48\n      jump\t// in\n    tag_59:\n        /* \"#utility.yul\":679:801   */\n      swap3\n      swap2\n      pop\n      pop\n      jump\t// out\n        /* \"#utility.yul\":807:1029   */\n    tag_14:\n      0x00\n        /* \"#utility.yul\":938:940   */\n      0x20\n        /* \"#utility.yul\":927:936   */\n      dup3\n        /* \"#utility.yul\":923:941   */\n      add\n        /* \"#utility.yul\":915:941   */\n      swap1\n      pop\n        /* \"#utility.yul\":951:1022   */\n      tag_61\n        /* \"#utility.yul\":1019:1020   */\n      0x00\n        /* \"#utility.yul\":1008:1017   */\n      dup4\n        /* \"#utility.yul\":1004:1021   */\n      add\n        /* \"#utility.yul\":995:1001   */\n      dup5\n        /* \"#utility.yul\":951:1022   */\n      tag_52\n      jump\t// in\n    tag_61:\n        /* \"#utility.yul\":905:1029   */\n      swap3\n      swap2\n      pop\n      pop\n      jump\t// out\n        /* \"#utility.yul\":1035:1125   */\n    tag_47:\n      0x00\n        /* \"#utility.yul\":1112:1117   */\n      dup2\n        /* \"#utility.yul\":1105:1118   */\n      iszero\n        /* \"#utility.yul\":1098:1119   */\n      iszero\n        /* \"#utility.yul\":1087:1119   */\n      swap1\n      pop\n        /* \"#utility.yul\":1077:1125   */\n      swap2\n      swap1\n      pop\n      jump\t// out\n        /* \"#utility.yul\":1131:1207   */\n    tag_51:\n      0x00\n        /* \"#utility.yul\":1196:1201   */\n      dup2\n        /* \"#utility.yul\":1185:1201   */\n      swap1\n      pop\n        /* \"#utility.yul\":1175:1207   */\n      swap2\n      swap1\n      pop\n      jump\t// out\n        /* \"#utility.yul\":1213:1290   */\n    tag_55:\n      0x00\n        /* \"#utility.yul\":1279:1284   */\n      dup2\n        /* \"#utility.yul\":1268:1284   */\n      swap1\n      pop\n        /* \"#utility.yul\":1258:1290   */\n      swap2\n      swap1\n      pop\n      jump\t// out\n\n    auxdata: 0xa2646970667358221220bd2cdf6dd7ad1d6709c8c8288343881abf7d5d5b9701177b82915a6dad81bff764736f6c63430008030033\n}\n",
				"bytecode": {
					"linkReferences": {},
					"object": "6080604052600160005560018060006101000a81548160ff02191690831515021790555034801561002f57600080fd5b506102c78061003f6000396000f3fe6080604052600436106100705760003560e01c806366e41cb71161004e57806366e41cb7146100e95780636b59084d146101145780639bba7a051461013f578063f446c1d01461016a57610070565b806306661abd146100755780630a8e8e01146100a057806336aacafa146100be575b600080fd5b34801561008157600080fd5b5061008a610195565b6040516100979190610256565b60405180910390f35b6100a861019b565b6040516100b59190610256565b60405180910390f35b3480156100ca57600080fd5b506100d36101a4565b6040516100e09190610220565b60405180910390f35b3480156100f557600080fd5b506100fe6101b7565b60405161010b9190610256565b60405180910390f35b34801561012057600080fd5b506101296101c0565b6040516101369190610256565b60405180910390f35b34801561014b57600080fd5b506101546101c9565b604051610161919061023b565b60405180910390f35b34801561017657600080fd5b5061017f6101ed565b60405161018c9190610256565b60405180910390f35b60005481565b60006001905090565b600160009054906101000a900460ff1681565b60006001905090565b60008054905090565b7fffffffffffffffffffffffffffffffffffffffffffffffffffffffffffffff8081565b61010081565b6101fc81610271565b82525050565b61020b8161027d565b82525050565b61021a81610287565b82525050565b600060208201905061023560008301846101f3565b92915050565b60006020820190506102506000830184610202565b92915050565b600060208201905061026b6000830184610211565b92915050565b60008115159050919050565b6000819050919050565b600081905091905056fea2646970667358221220bd2cdf6dd7ad1d6709c8c8288343881abf7d5d5b9701177b82915a6dad81bff764736f6c63430008030033",
					"opcodes": "PUSH1 0x80 PUSH1 0x40 MSTORE PUSH1 0x1 PUSH1 0x0 SSTORE PUSH1 0x1 DUP1 PUSH1 0x0 PUSH2 0x100 EXP DUP2 SLOAD DUP2 PUSH1 0xFF MUL NOT AND SWAP1 DUP4 ISZERO ISZERO MUL OR SWAP1 SSTORE POP CALLVALUE DUP1 ISZERO PUSH2 0x2F JUMPI PUSH1 0x0 DUP1 REVERT JUMPDEST POP PUSH2 0x2C7 DUP1 PUSH2 0x3F PUSH1 0x0 CODECOPY PUSH1 0x0 RETURN INVALID PUSH1 0x80 PUSH1 0x40 MSTORE PUSH1 0x4 CALLDATASIZE LT PUSH2 0x70 JUMPI PUSH1 0x0 CALLDATALOAD PUSH1 0xE0 SHR DUP1 PUSH4 0x66E41CB7 GT PUSH2 0x4E JUMPI DUP1 PUSH4 0x66E41CB7 EQ PUSH2 0xE9 JUMPI DUP1 PUSH4 0x6B59084D EQ PUSH2 0x114 JUMPI DUP1 PUSH4 0x9BBA7A05 EQ PUSH2 0x13F JUMPI DUP1 PUSH4 0xF446C1D0 EQ PUSH2 0x16A JUMPI PUSH2 0x70 JUMP JUMPDEST DUP1 PUSH4 0x6661ABD EQ PUSH2 0x75 JUMPI DUP1 PUSH4 0xA8E8E01 EQ PUSH2 0xA0 JUMPI DUP1 PUSH4 0x36AACAFA EQ PUSH2 0xBE JUMPI JUMPDEST PUSH1 0x0 DUP1 REVERT JUMPDEST CALLVALUE DUP1 ISZERO PUSH2 0x81 JUMPI PUSH1 0x0 DUP1 REVERT JUMPDEST POP PUSH2 0x8A PUSH2 0x195 JUMP JUMPDEST PUSH1 0x40 MLOAD PUSH2 0x97 SWAP2 SWAP1 PUSH2 0x256 JUMP JUMPDEST PUSH1 0x40 MLOAD DUP1 SWAP2 SUB SWAP1 RETURN JUMPDEST PUSH2 0xA8 PUSH2 0x19B JUMP JUMPDEST PUSH1 0x40 MLOAD PUSH2 0xB5 SWAP2 SWAP1 PUSH2 0x256 JUMP JUMPDEST PUSH1 0x40 MLOAD DUP1 SWAP2 SUB SWAP1 RETURN JUMPDEST CALLVALUE DUP1 ISZERO PUSH2 0xCA JUMPI PUSH1 0x0 DUP1 REVERT JUMPDEST POP PUSH2 0xD3 PUSH2 0x1A4 JUMP JUMPDEST PUSH1 0x40 MLOAD PUSH2 0xE0 SWAP2 SWAP1 PUSH2 0x220 JUMP JUMPDEST PUSH1 0x40 MLOAD DUP1 SWAP2 SUB SWAP1 RETURN JUMPDEST CALLVALUE DUP1 ISZERO PUSH2 0xF5 JUMPI PUSH1 0x0 DUP1 REVERT JUMPDEST POP PUSH2 0xFE PUSH2 0x1B7 JUMP JUMPDEST PUSH1 0x40 MLOAD PUSH2 0x10B SWAP2 SWAP1 PUSH2 0x256 JUMP JUMPDEST PUSH1 0x40 MLOAD DUP1 SWAP2 SUB SWAP1 RETURN JUMPDEST CALLVALUE DUP1 ISZERO PUSH2 0x120 JUMPI PUSH1 0x0 DUP1 REVERT JUMPDEST POP PUSH2 0x129 PUSH2 0x1C0 JUMP JUMPDEST PUSH1 0x40 MLOAD PUSH2 0x136 SWAP2 SWAP1 PUSH2 0x256 JUMP JUMPDEST PUSH1 0x40 MLOAD DUP1 SWAP2 SUB SWAP1 RETURN JUMPDEST CALLVALUE DUP1 ISZERO PUSH2 0x14B JUMPI PUSH1 0x0 DUP1 REVERT JUMPDEST POP PUSH2 0x154 PUSH2 0x1C9 JUMP JUMPDEST PUSH1 0x40 MLOAD PUSH2 0x161 SWAP2 SWAP1 PUSH2 0x23B JUMP JUMPDEST PUSH1 0x40 MLOAD DUP1 SWAP2 SUB SWAP1 RETURN JUMPDEST CALLVALUE DUP1 ISZERO PUSH2 0x176 JUMPI PUSH1 0x0 DUP1 REVERT JUMPDEST POP PUSH2 0x17F PUSH2 0x1ED JUMP JUMPDEST PUSH1 0x40 MLOAD PUSH2 0x18C SWAP2 SWAP1 PUSH2 0x256 JUMP JUMPDEST PUSH1 0x40 MLOAD DUP1 SWAP2 SUB SWAP1 RETURN JUMPDEST PUSH1 0x0 SLOAD DUP2 JUMP JUMPDEST PUSH1 0x0 PUSH1 0x1 SWAP1 POP SWAP1 JUMP JUMPDEST PUSH1 0x1 PUSH1 0x0 SWAP1 SLOAD SWAP1 PUSH2 0x100 EXP SWAP1 DIV PUSH1 0xFF AND DUP2 JUMP JUMPDEST PUSH1 0x0 PUSH1 0x1 SWAP1 POP SWAP1 JUMP JUMPDEST PUSH1 0x0 DUP1 SLOAD SWAP1 POP SWAP1 JUMP JUMPDEST PUSH32 0xFFFFFFFFFFFFFFFFFFFFFFFFFFFFFFFFFFFFFFFFFFFFFFFFFFFFFFFFFFFFFF80 DUP2 JUMP JUMPDEST PUSH2 0x100 DUP2 JUMP JUMPDEST PUSH2 0x1FC DUP2 PUSH2 0x271 JUMP JUMPDEST DUP3 MSTORE POP POP JUMP JUMPDEST PUSH2 0x20B DUP2 PUSH2 0x27D JUMP JUMPDEST DUP3 MSTORE POP POP JUMP JUMPDEST PUSH2 0x21A DUP2 PUSH2 0x287 JUMP JUMPDEST DUP3 MSTORE POP POP JUMP JUMPDEST PUSH1 0x0 PUSH1 0x20 DUP3 ADD SWAP1 POP PUSH2 0x235 PUSH1 0x0 DUP4 ADD DUP5 PUSH2 0x1F3 JUMP JUMPDEST SWAP3 SWAP2 POP POP JUMP JUMPDEST PUSH1 0x0 PUSH1 0x20 DUP3 ADD SWAP1 POP PUSH2 0x250 PUSH1 0x0 DUP4 ADD DUP5 PUSH2 0x202 JUMP JUMPDEST SWAP3 SWAP2 POP POP JUMP JUMPDEST PUSH1 0x0 PUSH1 0x20 DUP3 ADD SWAP1 POP PUSH2 0x26B PUSH1 0x0 DUP4 ADD DUP5 PUSH2 0x211 JUMP JUMPDEST SWAP3 SWAP2 POP POP JUMP JUMPDEST PUSH1 0x0 DUP2 ISZERO ISZERO SWAP1 POP SWAP2 SWAP1 POP JUMP JUMPDEST PUSH1 0x0 DUP2 SWAP1 POP SWAP2 SWAP1 POP JUMP JUMPDEST PUSH1 0x0 DUP2 SWAP1 POP SWAP2 SWAP1 POP JUMP INVALID LOG2 PUSH5 0x6970667358 0x22 SLT KECCAK256 0xBD 0x2C 0xDF PUSH14 0xD7AD1D6709C8C8288343881ABF7D 0x5D JUMPDEST SWAP8 ADD OR PUSH28 0x82915A6DAD81BFF764736F6C63430008030033000000000000000000 "
				},
				"gasEstimates": {
					"creation": {
						"codeDepositCost": "142200",
						"executionCost": "41063",
						"totalCost": "183263"
					},
					"external": {
						"A()": "395",
						"A_()": "373",
						"count()": "1130",
						"test1()": "1159",
						"test2()": "337",
						"test3()": "336",
						"testBool()": "1216"
					}
				},
				"methodIdentifiers": {
					"A()": "f446c1d0",
					"A_()": "9bba7a05",
					"count()": "06661abd",
					"test1()": "6b59084d",
					"test2()": "66e41cb7",
					"test3()": "0a8e8e01",
					"testBool()": "36aacafa"
				}
			},
			"storageLayout": {
				"storage": [
					{
						"astId": 4,
						"contract": "contracts/base/functionTest.sol:functionTest",
						"label": "count",
						"offset": 0,
						"slot": "0",
						"type": "t_uint256"
					},
					{
						"astId": 10,
						"contract": "contracts/base/functionTest.sol:functionTest",
						"label": "testBool",
						"offset": 0,
						"slot": "1",
						"type": "t_bool"
					}
				],
				"types": {
					"t_bool": {
						"encoding": "inplace",
						"label": "bool",
						"numberOfBytes": "1"
					},
					"t_uint256": {
						"encoding": "inplace",
						"label": "uint256",
						"numberOfBytes": "32"
					}
				}
			},
			"userdoc": {
				"kind": "user",
				"methods": {},
				"version": 1
			}
		}
	}
}