{
	"contracts/base/IfElse.sol": {
		"IfElse": {
			"abi": [
				{
					"inputs": [
						{
							"internalType": "int256",
							"name": "x",
							"type": "int256"
						}
					],
					"name": "processNumber",
					"outputs": [
						{
							"internalType": "int256",
							"name": "",
							"type": "int256"
						}
					],
					"stateMutability": "pure",
					"type": "function"
				}
			],
			"devdoc": {
				"kind": "dev",
				"methods": {},
				"version": 1
			},
			"evm": {
				"assembly": "    /* \"contracts/base/IfElse.sol\":63:459  contract IfElse{\r... */\n  mstore(0x40, 0x80)\n  callvalue\n  dup1\n  iszero\n  tag_1\n  jumpi\n  0x00\n  dup1\n  revert\ntag_1:\n  pop\n  dataSize(sub_0)\n  dup1\n  dataOffset(sub_0)\n  0x00\n  codecopy\n  0x00\n  return\nstop\n\nsub_0: assembly {\n        /* \"contracts/base/IfElse.sol\":63:459  contract IfElse{\r... */\n      mstore(0x40, 0x80)\n      callvalue\n      dup1\n      iszero\n      tag_1\n      jumpi\n      0x00\n      dup1\n      revert\n    tag_1:\n      pop\n      jumpi(tag_2, lt(calldatasize, 0x04))\n      shr(0xe0, calldataload(0x00))\n      dup1\n      0x743fd81c\n      eq\n      tag_3\n      jumpi\n    tag_2:\n      0x00\n      dup1\n      revert\n        /* \"contracts/base/IfElse.sol\":87:312  function processNumber(int x) external pure returns (int) {\r... */\n    tag_3:\n      tag_4\n      0x04\n      dup1\n      calldatasize\n      sub\n      dup2\n      add\n      swap1\n      tag_5\n      swap2\n      swap1\n      tag_6\n      jump\t// in\n    tag_5:\n      tag_7\n      jump\t// in\n    tag_4:\n      mload(0x40)\n      tag_8\n      swap2\n      swap1\n      tag_9\n      jump\t// in\n    tag_8:\n      mload(0x40)\n      dup1\n      swap2\n      sub\n      swap1\n      return\n    tag_7:\n        /* \"contracts/base/IfElse.sol\":140:143  int */\n      0x00\n        /* \"contracts/base/IfElse.sol\":163:165  10 */\n      0x0a\n        /* \"contracts/base/IfElse.sol\":159:160  x */\n      dup3\n        /* \"contracts/base/IfElse.sol\":159:165  x < 10 */\n      slt\n        /* \"contracts/base/IfElse.sol\":156:305  if(x < 10){\r... */\n      iszero\n      tag_11\n      jumpi\n        /* \"contracts/base/IfElse.sol\":189:190  1 */\n      0x01\n        /* \"contracts/base/IfElse.sol\":181:190  return  1 */\n      swap1\n      pop\n      jump(tag_10)\n        /* \"contracts/base/IfElse.sol\":156:305  if(x < 10){\r... */\n    tag_11:\n        /* \"contracts/base/IfElse.sol\":216:218  10 */\n      0x0a\n        /* \"contracts/base/IfElse.sol\":211:212  x */\n      dup3\n        /* \"contracts/base/IfElse.sol\":211:218  x >= 10 */\n      slt\n      iszero\n        /* \"contracts/base/IfElse.sol\":211:229  x >= 10 && x <= 20 */\n      dup1\n      iszero\n      tag_13\n      jumpi\n      pop\n        /* \"contracts/base/IfElse.sol\":227:229  20 */\n      0x14\n        /* \"contracts/base/IfElse.sol\":222:223  x */\n      dup3\n        /* \"contracts/base/IfElse.sol\":222:229  x <= 20 */\n      sgt\n      iszero\n        /* \"contracts/base/IfElse.sol\":211:229  x >= 10 && x <= 20 */\n    tag_13:\n        /* \"contracts/base/IfElse.sol\":207:305  if (x >= 10 && x <= 20){\r... */\n      iszero\n      tag_14\n      jumpi\n        /* \"contracts/base/IfElse.sol\":252:253  2 */\n      0x02\n        /* \"contracts/base/IfElse.sol\":245:253  return 2 */\n      swap1\n      pop\n      jump(tag_10)\n        /* \"contracts/base/IfElse.sol\":207:305  if (x >= 10 && x <= 20){\r... */\n    tag_14:\n        /* \"contracts/base/IfElse.sol\":292:293  3 */\n      0x03\n        /* \"contracts/base/IfElse.sol\":285:293  return 3 */\n      swap1\n      pop\n        /* \"contracts/base/IfElse.sol\":87:312  function processNumber(int x) external pure returns (int) {\r... */\n    tag_10:\n      swap2\n      swap1\n      pop\n      jump\t// out\n        /* \"#utility.yul\":7:144   */\n    tag_17:\n      0x00\n        /* \"#utility.yul\":90:96   */\n      dup2\n        /* \"#utility.yul\":77:97   */\n      calldataload\n        /* \"#utility.yul\":68:97   */\n      swap1\n      pop\n        /* \"#utility.yul\":106:138   */\n      tag_19\n        /* \"#utility.yul\":132:137   */\n      dup2\n        /* \"#utility.yul\":106:138   */\n      tag_20\n      jump\t// in\n    tag_19:\n        /* \"#utility.yul\":58:144   */\n      swap3\n      swap2\n      pop\n      pop\n      jump\t// out\n        /* \"#utility.yul\":150:410   */\n    tag_6:\n      0x00\n        /* \"#utility.yul\":257:259   */\n      0x20\n        /* \"#utility.yul\":245:254   */\n      dup3\n        /* \"#utility.yul\":236:243   */\n      dup5\n        /* \"#utility.yul\":232:255   */\n      sub\n        /* \"#utility.yul\":228:260   */\n      slt\n        /* \"#utility.yul\":225:227   */\n      iszero\n      tag_22\n      jumpi\n        /* \"#utility.yul\":273:274   */\n      0x00\n        /* \"#utility.yul\":270:271   */\n      dup1\n        /* \"#utility.yul\":263:275   */\n      revert\n        /* \"#utility.yul\":225:227   */\n    tag_22:\n        /* \"#utility.yul\":316:317   */\n      0x00\n        /* \"#utility.yul\":341:393   */\n      tag_23\n        /* \"#utility.yul\":385:392   */\n      dup5\n        /* \"#utility.yul\":376:382   */\n      dup3\n        /* \"#utility.yul\":365:374   */\n      dup6\n        /* \"#utility.yul\":361:383   */\n      add\n        /* \"#utility.yul\":341:393   */\n      tag_17\n      jump\t// in\n    tag_23:\n        /* \"#utility.yul\":331:393   */\n      swap2\n      pop\n        /* \"#utility.yul\":287:403   */\n      pop\n        /* \"#utility.yul\":215:410   */\n      swap3\n      swap2\n      pop\n      pop\n      jump\t// out\n        /* \"#utility.yul\":416:531   */\n    tag_24:\n        /* \"#utility.yul\":501:524   */\n      tag_26\n        /* \"#utility.yul\":518:523   */\n      dup2\n        /* \"#utility.yul\":501:524   */\n      tag_27\n      jump\t// in\n    tag_26:\n        /* \"#utility.yul\":496:499   */\n      dup3\n        /* \"#utility.yul\":489:525   */\n      mstore\n        /* \"#utility.yul\":479:531   */\n      pop\n      pop\n      jump\t// out\n        /* \"#utility.yul\":537:755   */\n    tag_9:\n      0x00\n        /* \"#utility.yul\":666:668   */\n      0x20\n        /* \"#utility.yul\":655:664   */\n      dup3\n        /* \"#utility.yul\":651:669   */\n      add\n        /* \"#utility.yul\":643:669   */\n      swap1\n      pop\n        /* \"#utility.yul\":679:748   */\n      tag_29\n        /* \"#utility.yul\":745:746   */\n      0x00\n        /* \"#utility.yul\":734:743   */\n      dup4\n        /* \"#utility.yul\":730:747   */\n      add\n        /* \"#utility.yul\":721:727   */\n      dup5\n        /* \"#utility.yul\":679:748   */\n      tag_24\n      jump\t// in\n    tag_29:\n        /* \"#utility.yul\":633:755   */\n      swap3\n      swap2\n      pop\n      pop\n      jump\t// out\n        /* \"#utility.yul\":761:837   */\n    tag_27:\n      0x00\n        /* \"#utility.yul\":826:831   */\n      dup2\n        /* \"#utility.yul\":815:831   */\n      swap1\n      pop\n        /* \"#utility.yul\":805:837   */\n      swap2\n      swap1\n      pop\n      jump\t// out\n        /* \"#utility.yul\":843:963   */\n    tag_20:\n        /* \"#utility.yul\":915:938   */\n      tag_32\n        /* \"#utility.yul\":932:937   */\n      dup2\n        /* \"#utility.yul\":915:938   */\n      tag_27\n      jump\t// in\n    tag_32:\n        /* \"#utility.yul\":908:913   */\n      dup2\n        /* \"#utility.yul\":905:939   */\n      eq\n        /* \"#utility.yul\":895:897   */\n      tag_33\n      jumpi\n        /* \"#utility.yul\":953:954   */\n      0x00\n        /* \"#utility.yul\":950:951   */\n      dup1\n        /* \"#utility.yul\":943:955   */\n      revert\n        /* \"#utility.yul\":895:897   */\n    tag_33:\n        /* \"#utility.yul\":885:963   */\n      pop\n      jump\t// out\n\n    auxdata: 0xa2646970667358221220276236fc87600d984d9c014ced240d1213cc7a75701a69e2eff3c7770f7be25464736f6c63430008030033\n}\n",
				"bytecode": {
					"linkReferences": {},
					"object": "608060405234801561001057600080fd5b5061015d806100206000396000f3fe608060405234801561001057600080fd5b506004361061002b5760003560e01c8063743fd81c14610030575b600080fd5b61004a600480360381019061004591906100b3565b610060565b60405161005791906100eb565b60405180910390f35b6000600a8212156100745760019050610099565b600a8212158015610086575060148213155b156100945760029050610099565b600390505b919050565b6000813590506100ad81610110565b92915050565b6000602082840312156100c557600080fd5b60006100d38482850161009e565b91505092915050565b6100e581610106565b82525050565b600060208201905061010060008301846100dc565b92915050565b6000819050919050565b61011981610106565b811461012457600080fd5b5056fea2646970667358221220276236fc87600d984d9c014ced240d1213cc7a75701a69e2eff3c7770f7be25464736f6c63430008030033",
					"opcodes": "PUSH1 0x80 PUSH1 0x40 MSTORE CALLVALUE DUP1 ISZERO PUSH2 0x10 JUMPI PUSH1 0x0 DUP1 REVERT JUMPDEST POP PUSH2 0x15D DUP1 PUSH2 0x20 PUSH1 0x0 CODECOPY PUSH1 0x0 RETURN INVALID PUSH1 0x80 PUSH1 0x40 MSTORE CALLVALUE DUP1 ISZERO PUSH2 0x10 JUMPI PUSH1 0x0 DUP1 REVERT JUMPDEST POP PUSH1 0x4 CALLDATASIZE LT PUSH2 0x2B JUMPI PUSH1 0x0 CALLDATALOAD PUSH1 0xE0 SHR DUP1 PUSH4 0x743FD81C EQ PUSH2 0x30 JUMPI JUMPDEST PUSH1 0x0 DUP1 REVERT JUMPDEST PUSH2 0x4A PUSH1 0x4 DUP1 CALLDATASIZE SUB DUP2 ADD SWAP1 PUSH2 0x45 SWAP2 SWAP1 PUSH2 0xB3 JUMP JUMPDEST PUSH2 0x60 JUMP JUMPDEST PUSH1 0x40 MLOAD PUSH2 0x57 SWAP2 SWAP1 PUSH2 0xEB JUMP JUMPDEST PUSH1 0x40 MLOAD DUP1 SWAP2 SUB SWAP1 RETURN JUMPDEST PUSH1 0x0 PUSH1 0xA DUP3 SLT ISZERO PUSH2 0x74 JUMPI PUSH1 0x1 SWAP1 POP PUSH2 0x99 JUMP JUMPDEST PUSH1 0xA DUP3 SLT ISZERO DUP1 ISZERO PUSH2 0x86 JUMPI POP PUSH1 0x14 DUP3 SGT ISZERO JUMPDEST ISZERO PUSH2 0x94 JUMPI PUSH1 0x2 SWAP1 POP PUSH2 0x99 JUMP JUMPDEST PUSH1 0x3 SWAP1 POP JUMPDEST SWAP2 SWAP1 POP JUMP JUMPDEST PUSH1 0x0 DUP2 CALLDATALOAD SWAP1 POP PUSH2 0xAD DUP2 PUSH2 0x110 JUMP JUMPDEST SWAP3 SWAP2 POP POP JUMP JUMPDEST PUSH1 0x0 PUSH1 0x20 DUP3 DUP5 SUB SLT ISZERO PUSH2 0xC5 JUMPI PUSH1 0x0 DUP1 REVERT JUMPDEST PUSH1 0x0 PUSH2 0xD3 DUP5 DUP3 DUP6 ADD PUSH2 0x9E JUMP JUMPDEST SWAP2 POP POP SWAP3 SWAP2 POP POP JUMP JUMPDEST PUSH2 0xE5 DUP2 PUSH2 0x106 JUMP JUMPDEST DUP3 MSTORE POP POP JUMP JUMPDEST PUSH1 0x0 PUSH1 0x20 DUP3 ADD SWAP1 POP PUSH2 0x100 PUSH1 0x0 DUP4 ADD DUP5 PUSH2 0xDC JUMP JUMPDEST SWAP3 SWAP2 POP POP JUMP JUMPDEST PUSH1 0x0 DUP2 SWAP1 POP SWAP2 SWAP1 POP JUMP JUMPDEST PUSH2 0x119 DUP2 PUSH2 0x106 JUMP JUMPDEST DUP2 EQ PUSH2 0x124 JUMPI PUSH1 0x0 DUP1 REVERT JUMPDEST POP JUMP INVALID LOG2 PUSH5 0x6970667358 0x22 SLT KECCAK256 0x27 PUSH3 0x36FC87 PUSH1 0xD SWAP9 0x4D SWAP13 ADD 0x4C 0xED 0x24 0xD SLT SGT 0xCC PUSH27 0x75701A69E2EFF3C7770F7BE25464736F6C63430008030033000000 "
				},
				"gasEstimates": {
					"creation": {
						"codeDepositCost": "69800",
						"executionCost": "117",
						"totalCost": "69917"
					},
					"external": {
						"processNumber(int256)": "infinite"
					}
				},
				"methodIdentifiers": {
					"processNumber(int256)": "743fd81c"
				}
			},
			"storageLayout": {
				"storage": [],
				"types": null
			},
			"userdoc": {
				"kind": "user",
				"methods": {},
				"version": 1
			}
		}
	}
}