{
	"contracts/base/GlobalInfoViewer.sol": {
		"GlobalInfoViewer": {
			"abi": [
				{
					"inputs": [],
					"name": "viewGlobalInfo",
					"outputs": [
						{
							"internalType": "address",
							"name": "",
							"type": "address"
						},
						{
							"internalType": "uint256",
							"name": "",
							"type": "uint256"
						},
						{
							"internalType": "uint256",
							"name": "",
							"type": "uint256"
						}
					],
					"stateMutability": "view",
					"type": "function"
				}
			],
			"devdoc": {
				"kind": "dev",
				"methods": {},
				"version": 1
			},
			"evm": {
				"assembly": "    /* \"contracts/base/GlobalInfoViewer.sol\":63:348  contract GlobalInfoViewer{\r... */\n  mstore(0x40, 0x80)\n  callvalue\n  dup1\n  iszero\n  tag_1\n  jumpi\n  0x00\n  dup1\n  revert\ntag_1:\n  pop\n  dataSize(sub_0)\n  dup1\n  dataOffset(sub_0)\n  0x00\n  codecopy\n  0x00\n  return\nstop\n\nsub_0: assembly {\n        /* \"contracts/base/GlobalInfoViewer.sol\":63:348  contract GlobalInfoViewer{\r... */\n      mstore(0x40, 0x80)\n      callvalue\n      dup1\n      iszero\n      tag_1\n      jumpi\n      0x00\n      dup1\n      revert\n    tag_1:\n      pop\n      jumpi(tag_2, lt(calldatasize, 0x04))\n      shr(0xe0, calldataload(0x00))\n      dup1\n      0x2952d065\n      eq\n      tag_3\n      jumpi\n    tag_2:\n      0x00\n      dup1\n      revert\n        /* \"contracts/base/GlobalInfoViewer.sol\":97:345  function viewGlobalInfo() external view returns (address,uint,uint){\r... */\n    tag_3:\n      tag_4\n      tag_5\n      jump\t// in\n    tag_4:\n      mload(0x40)\n      tag_6\n      swap4\n      swap3\n      swap2\n      swap1\n      tag_7\n      jump\t// in\n    tag_6:\n      mload(0x40)\n      dup1\n      swap2\n      sub\n      swap1\n      return\n    tag_5:\n        /* \"contracts/base/GlobalInfoViewer.sol\":146:153  address */\n      0x00\n        /* \"contracts/base/GlobalInfoViewer.sol\":154:158  uint */\n      dup1\n        /* \"contracts/base/GlobalInfoViewer.sol\":159:163  uint */\n      0x00\n        /* \"contracts/base/GlobalInfoViewer.sol\":175:188  address owner */\n      dup1\n        /* \"contracts/base/GlobalInfoViewer.sol\":191:201  msg.sender */\n      caller\n        /* \"contracts/base/GlobalInfoViewer.sol\":175:201  address owner = msg.sender */\n      swap1\n      pop\n        /* \"contracts/base/GlobalInfoViewer.sol\":212:225  uint blockNum */\n      0x00\n        /* \"contracts/base/GlobalInfoViewer.sol\":228:240  block.number */\n      number\n        /* \"contracts/base/GlobalInfoViewer.sol\":212:240  uint blockNum = block.number */\n      swap1\n      pop\n        /* \"contracts/base/GlobalInfoViewer.sol\":251:270  uint blockTimestamp */\n      0x00\n        /* \"contracts/base/GlobalInfoViewer.sol\":273:288  block.timestamp */\n      timestamp\n        /* \"contracts/base/GlobalInfoViewer.sol\":251:288  uint blockTimestamp = block.timestamp */\n      swap1\n      pop\n        /* \"contracts/base/GlobalInfoViewer.sol\":307:312  owner */\n      dup3\n        /* \"contracts/base/GlobalInfoViewer.sol\":313:321  blockNum */\n      dup3\n        /* \"contracts/base/GlobalInfoViewer.sol\":322:336  blockTimestamp */\n      dup3\n        /* \"contracts/base/GlobalInfoViewer.sol\":299:337  return (owner,blockNum,blockTimestamp) */\n      swap6\n      pop\n      swap6\n      pop\n      swap6\n      pop\n      pop\n      pop\n      pop\n        /* \"contracts/base/GlobalInfoViewer.sol\":97:345  function viewGlobalInfo() external view returns (address,uint,uint){\r... */\n      swap1\n      swap2\n      swap3\n      jump\t// out\n        /* \"#utility.yul\":7:125   */\n    tag_10:\n        /* \"#utility.yul\":94:118   */\n      tag_12\n        /* \"#utility.yul\":112:117   */\n      dup2\n        /* \"#utility.yul\":94:118   */\n      tag_13\n      jump\t// in\n    tag_12:\n        /* \"#utility.yul\":89:92   */\n      dup3\n        /* \"#utility.yul\":82:119   */\n      mstore\n        /* \"#utility.yul\":72:125   */\n      pop\n      pop\n      jump\t// out\n        /* \"#utility.yul\":131:249   */\n    tag_14:\n        /* \"#utility.yul\":218:242   */\n      tag_16\n        /* \"#utility.yul\":236:241   */\n      dup2\n        /* \"#utility.yul\":218:242   */\n      tag_17\n      jump\t// in\n    tag_16:\n        /* \"#utility.yul\":213:216   */\n      dup3\n        /* \"#utility.yul\":206:243   */\n      mstore\n        /* \"#utility.yul\":196:249   */\n      pop\n      pop\n      jump\t// out\n        /* \"#utility.yul\":255:697   */\n    tag_7:\n      0x00\n        /* \"#utility.yul\":442:444   */\n      0x60\n        /* \"#utility.yul\":431:440   */\n      dup3\n        /* \"#utility.yul\":427:445   */\n      add\n        /* \"#utility.yul\":419:445   */\n      swap1\n      pop\n        /* \"#utility.yul\":455:526   */\n      tag_19\n        /* \"#utility.yul\":523:524   */\n      0x00\n        /* \"#utility.yul\":512:521   */\n      dup4\n        /* \"#utility.yul\":508:525   */\n      add\n        /* \"#utility.yul\":499:505   */\n      dup7\n        /* \"#utility.yul\":455:526   */\n      tag_10\n      jump\t// in\n    tag_19:\n        /* \"#utility.yul\":536:608   */\n      tag_20\n        /* \"#utility.yul\":604:606   */\n      0x20\n        /* \"#utility.yul\":593:602   */\n      dup4\n        /* \"#utility.yul\":589:607   */\n      add\n        /* \"#utility.yul\":580:586   */\n      dup6\n        /* \"#utility.yul\":536:608   */\n      tag_14\n      jump\t// in\n    tag_20:\n        /* \"#utility.yul\":618:690   */\n      tag_21\n        /* \"#utility.yul\":686:688   */\n      0x40\n        /* \"#utility.yul\":675:684   */\n      dup4\n        /* \"#utility.yul\":671:689   */\n      add\n        /* \"#utility.yul\":662:668   */\n      dup5\n        /* \"#utility.yul\":618:690   */\n      tag_14\n      jump\t// in\n    tag_21:\n        /* \"#utility.yul\":409:697   */\n      swap5\n      swap4\n      pop\n      pop\n      pop\n      pop\n      jump\t// out\n        /* \"#utility.yul\":703:799   */\n    tag_13:\n      0x00\n        /* \"#utility.yul\":769:793   */\n      tag_23\n        /* \"#utility.yul\":787:792   */\n      dup3\n        /* \"#utility.yul\":769:793   */\n      tag_24\n      jump\t// in\n    tag_23:\n        /* \"#utility.yul\":758:793   */\n      swap1\n      pop\n        /* \"#utility.yul\":748:799   */\n      swap2\n      swap1\n      pop\n      jump\t// out\n        /* \"#utility.yul\":805:931   */\n    tag_24:\n      0x00\n        /* \"#utility.yul\":882:924   */\n      0xffffffffffffffffffffffffffffffffffffffff\n        /* \"#utility.yul\":875:880   */\n      dup3\n        /* \"#utility.yul\":871:925   */\n      and\n        /* \"#utility.yul\":860:925   */\n      swap1\n      pop\n        /* \"#utility.yul\":850:931   */\n      swap2\n      swap1\n      pop\n      jump\t// out\n        /* \"#utility.yul\":937:1014   */\n    tag_17:\n      0x00\n        /* \"#utility.yul\":1003:1008   */\n      dup2\n        /* \"#utility.yul\":992:1008   */\n      swap1\n      pop\n        /* \"#utility.yul\":982:1014   */\n      swap2\n      swap1\n      pop\n      jump\t// out\n\n    auxdata: 0xa2646970667358221220ac1b47291c3e6c7e118c1e9157274cb0d6420561fff901532af66687ec4783a664736f6c63430008030033\n}\n",
				"bytecode": {
					"linkReferences": {},
					"object": "608060405234801561001057600080fd5b50610128806100206000396000f3fe6080604052348015600f57600080fd5b506004361060285760003560e01c80632952d06514602d575b600080fd5b60336049565b6040516040939291906087565b60405180910390f35b60008060008033905060004390506000429050828282955095509550505050909192565b60748160b8565b82525050565b60818160e8565b82525050565b6000606082019050609a6000830186606d565b60a56020830185607a565b60b06040830184607a565b949350505050565b600060c18260c8565b9050919050565b600073ffffffffffffffffffffffffffffffffffffffff82169050919050565b600081905091905056fea2646970667358221220ac1b47291c3e6c7e118c1e9157274cb0d6420561fff901532af66687ec4783a664736f6c63430008030033",
					"opcodes": "PUSH1 0x80 PUSH1 0x40 MSTORE CALLVALUE DUP1 ISZERO PUSH2 0x10 JUMPI PUSH1 0x0 DUP1 REVERT JUMPDEST POP PUSH2 0x128 DUP1 PUSH2 0x20 PUSH1 0x0 CODECOPY PUSH1 0x0 RETURN INVALID PUSH1 0x80 PUSH1 0x40 MSTORE CALLVALUE DUP1 ISZERO PUSH1 0xF JUMPI PUSH1 0x0 DUP1 REVERT JUMPDEST POP PUSH1 0x4 CALLDATASIZE LT PUSH1 0x28 JUMPI PUSH1 0x0 CALLDATALOAD PUSH1 0xE0 SHR DUP1 PUSH4 0x2952D065 EQ PUSH1 0x2D JUMPI JUMPDEST PUSH1 0x0 DUP1 REVERT JUMPDEST PUSH1 0x33 PUSH1 0x49 JUMP JUMPDEST PUSH1 0x40 MLOAD PUSH1 0x40 SWAP4 SWAP3 SWAP2 SWAP1 PUSH1 0x87 JUMP JUMPDEST PUSH1 0x40 MLOAD DUP1 SWAP2 SUB SWAP1 RETURN JUMPDEST PUSH1 0x0 DUP1 PUSH1 0x0 DUP1 CALLER SWAP1 POP PUSH1 0x0 NUMBER SWAP1 POP PUSH1 0x0 TIMESTAMP SWAP1 POP DUP3 DUP3 DUP3 SWAP6 POP SWAP6 POP SWAP6 POP POP POP POP SWAP1 SWAP2 SWAP3 JUMP JUMPDEST PUSH1 0x74 DUP2 PUSH1 0xB8 JUMP JUMPDEST DUP3 MSTORE POP POP JUMP JUMPDEST PUSH1 0x81 DUP2 PUSH1 0xE8 JUMP JUMPDEST DUP3 MSTORE POP POP JUMP JUMPDEST PUSH1 0x0 PUSH1 0x60 DUP3 ADD SWAP1 POP PUSH1 0x9A PUSH1 0x0 DUP4 ADD DUP7 PUSH1 0x6D JUMP JUMPDEST PUSH1 0xA5 PUSH1 0x20 DUP4 ADD DUP6 PUSH1 0x7A JUMP JUMPDEST PUSH1 0xB0 PUSH1 0x40 DUP4 ADD DUP5 PUSH1 0x7A JUMP JUMPDEST SWAP5 SWAP4 POP POP POP POP JUMP JUMPDEST PUSH1 0x0 PUSH1 0xC1 DUP3 PUSH1 0xC8 JUMP JUMPDEST SWAP1 POP SWAP2 SWAP1 POP JUMP JUMPDEST PUSH1 0x0 PUSH20 0xFFFFFFFFFFFFFFFFFFFFFFFFFFFFFFFFFFFFFFFF DUP3 AND SWAP1 POP SWAP2 SWAP1 POP JUMP JUMPDEST PUSH1 0x0 DUP2 SWAP1 POP SWAP2 SWAP1 POP JUMP INVALID LOG2 PUSH5 0x6970667358 0x22 SLT KECCAK256 0xAC SHL SELFBALANCE 0x29 SHR RETURNDATACOPY PUSH13 0x7E118C1E9157274CB0D6420561 SELFDESTRUCT 0xF9 ADD MSTORE8 0x2A 0xF6 PUSH7 0x87EC4783A66473 PUSH16 0x6C634300080300330000000000000000 "
				},
				"gasEstimates": {
					"creation": {
						"codeDepositCost": "59200",
						"executionCost": "111",
						"totalCost": "59311"
					},
					"external": {
						"viewGlobalInfo()": "infinite"
					}
				},
				"methodIdentifiers": {
					"viewGlobalInfo()": "2952d065"
				}
			},
			"storageLayout": {
				"storage": [],
				"types": null
			},
			"userdoc": {
				"kind": "user",
				"methods": {},
				"version": 1
			}
		}
	}
}