{
	"data": {
		"bytecode": {
			"linkReferences": {},
			"object": "60a0604052348015600e575f5ffd5b503373ffffffffffffffffffffffffffffffffffffffff1660808173ffffffffffffffffffffffffffffffffffffffff16815250506080516118056100695f395f818161021001528181610591015261088901526118055ff3fe608060405234801561000f575f5ffd5b5060043610610091575f3560e01c8063b9be315211610064578063b9be31521461011d578063c279919f1461013b578063c91ec7121461016b578063d3bc6e5e14610187578063f4286695146101b757610091565b806335a893a1146100955780635cc48aa7146100c55780635f74bbde146100e3578063a7388967146100ff575b5f5ffd5b6100af60048036038101906100aa9190610c15565b6101d3565b6040516100bc9190610c7f565b60405180910390f35b6100cd61020e565b6040516100da9190610c7f565b60405180910390f35b6100fd60048036038101906100f89190610cc2565b610232565b005b610107610528565b6040516101149190610d0f565b60405180910390f35b610125610533565b6040516101329190610d0f565b60405180910390f35b61015560048036038101906101509190610c15565b61053d565b6040516101629190610c7f565b60405180910390f35b61018560048036038101906101809190610e64565b610578565b005b6101a1600480360381019061019c9190610c15565b610835565b6040516101ae9190610c7f565b60405180910390f35b6101d160048036038101906101cc9190610f4b565b610870565b005b600281815481106101e2575f80fd5b905f5260205f20015f915054906101000a900473ffffffffffffffffffffffffffffffffffffffff1681565b7f000000000000000000000000000000000000000000000000000000000000000081565b5f60055f3373ffffffffffffffffffffffffffffffffffffffff1673ffffffffffffffffffffffffffffffffffffffff1681526020019081526020015f2090505f60035f8573ffffffffffffffffffffffffffffffffffffffff1673ffffffffffffffffffffffffffffffffffffffff1681526020019081526020015f2090505f815f0154116102c0575f5ffd5b5f825f0154116102ce575f5ffd5b8160030160149054906101000a900460ff166102e8575f5ffd5b8160030160159054906101000a900460ff1615610303575f5ffd5b5f8260030160146101000a81548160ff02191690831515021790555082826001018190555060018260030160156101000a81548160ff021916908315150217905550806003015f81546103559061105f565b91905081905550600633908060018154018082558091505060019003905f5260205f20015f9091909190916101000a81548173ffffffffffffffffffffffffffffffffffffffff021916908373ffffffffffffffffffffffffffffffffffffffff1602179055508160075f3373ffffffffffffffffffffffffffffffffffffffff1673ffffffffffffffffffffffffffffffffffffffff1681526020019081526020015f205f820154815f0155600182015481600101556002820181600201908161042091906112b8565b50600382015f9054906101000a900473ffffffffffffffffffffffffffffffffffffffff16816003015f6101000a81548173ffffffffffffffffffffffffffffffffffffffff021916908373ffffffffffffffffffffffffffffffffffffffff1602179055506003820160149054906101000a900460ff168160030160146101000a81548160ff0219169083151502179055506003820160159054906101000a900460ff168160030160156101000a81548160ff021916908315150217905550600482018160040190816104f491906112b8565b506005820181600501908161050991906112b8565b506006820181600601908161051e91906112b8565b5090505050505050565b6001805f0154905081565b5f805f0154905081565b6004818154811061054c575f80fd5b905f5260205f20015f915054906101000a900473ffffffffffffffffffffffffffffffffffffffff1681565b3373ffffffffffffffffffffffffffffffffffffffff167f000000000000000000000000000000000000000000000000000000000000000073ffffffffffffffffffffffffffffffffffffffff1614610606576040517f08c379a00000000000000000000000000000000000000000000000000000000081526004016105fd906113f7565b60405180910390fd5b5f73ffffffffffffffffffffffffffffffffffffffff168573ffffffffffffffffffffffffffffffffffffffff1603610674576040517f08c379a000000000000000000000000000000000000000000000000000000000815260040161066b9061145f565b60405180910390fd5b5f60035f8773ffffffffffffffffffffffffffffffffffffffff1673ffffffffffffffffffffffffffffffffffffffff1681526020019081526020015f2090506106be6001610bb1565b5f6106c96001610bc5565b905080825f0181905550848260040190816106e49190611487565b5086826002015f6101000a81548173ffffffffffffffffffffffffffffffffffffffff021916908373ffffffffffffffffffffffffffffffffffffffff160217905550828260060190816107389190611487565b508582600101908161074a9190611487565b508382600501908161075c9190611487565b50600287908060018154018082558091505060019003905f5260205f20015f9091909190916101000a81548173ffffffffffffffffffffffffffffffffffffffff021916908373ffffffffffffffffffffffffffffffffffffffff160217905550815f01547fd297f12b256bb8485a6013fb5e302017018123e99a0ebb20756c09e1707b4b908686868660030154876002015f9054906101000a900473ffffffffffffffffffffffffffffffffffffffff16886001016040516108249695949392919061161d565b60405180910390a250505050505050565b60068181548110610844575f80fd5b905f5260205f20015f915054906101000a900473ffffffffffffffffffffffffffffffffffffffff1681565b3373ffffffffffffffffffffffffffffffffffffffff167f000000000000000000000000000000000000000000000000000000000000000073ffffffffffffffffffffffffffffffffffffffff16146108fe576040517f08c379a00000000000000000000000000000000000000000000000000000000081526004016108f5906113f7565b60405180910390fd5b5f73ffffffffffffffffffffffffffffffffffffffff168473ffffffffffffffffffffffffffffffffffffffff160361096c576040517f08c379a0000000000000000000000000000000000000000000000000000000008152600401610963906116e2565b60405180910390fd5b5f60055f8673ffffffffffffffffffffffffffffffffffffffff1673ffffffffffffffffffffffffffffffffffffffff1681526020019081526020015f2090508060030160159054906101000a900460ff16156109fe576040517f08c379a00000000000000000000000000000000000000000000000000000000081526004016109f590611723565b60405180910390fd5b610a075f610bb1565b5f610a115f610bc5565b905080825f018190555084826004019081610a2c9190611487565b5082826006019081610a3e9190611487565b5086826002019081610a509190611487565b5083826005019081610a629190611487565b5060018260030160146101000a81548160ff0219169083151502179055505f8260030160156101000a81548160ff02191690831515021790555085826003015f6101000a81548173ffffffffffffffffffffffffffffffffffffffff021916908373ffffffffffffffffffffffffffffffffffffffff160217905550600486908060018154018082558091505060019003905f5260205f20015f9091909190916101000a81548173ffffffffffffffffffffffffffffffffffffffff021916908373ffffffffffffffffffffffffffffffffffffffff160217905550815f01547fef9d5b1677d944ffd5a9d237f55ffa010255778eec11ef5d83efabb9a13d482c8585898660030160149054906101000a900460ff168760030160159054906101000a900460ff1688600201604051610ba09695949392919061175b565b60405180910390a250505050505050565b6001815f015f828254019250508190555050565b5f815f01549050919050565b5f604051905090565b5f5ffd5b5f5ffd5b5f819050919050565b610bf481610be2565b8114610bfe575f5ffd5b50565b5f81359050610c0f81610beb565b92915050565b5f60208284031215610c2a57610c29610bda565b5b5f610c3784828501610c01565b91505092915050565b5f73ffffffffffffffffffffffffffffffffffffffff82169050919050565b5f610c6982610c40565b9050919050565b610c7981610c5f565b82525050565b5f602082019050610c925f830184610c70565b92915050565b610ca181610c5f565b8114610cab575f5ffd5b50565b5f81359050610cbc81610c98565b92915050565b5f5f60408385031215610cd857610cd7610bda565b5b5f610ce585828601610cae565b9250506020610cf685828601610c01565b9150509250929050565b610d0981610be2565b82525050565b5f602082019050610d225f830184610d00565b92915050565b5f5ffd5b5f5ffd5b5f601f19601f8301169050919050565b7f4e487b71000000000000000000000000000000000000000000000000000000005f52604160045260245ffd5b610d7682610d30565b810181811067ffffffffffffffff82111715610d9557610d94610d40565b5b80604052505050565b5f610da7610bd1565b9050610db38282610d6d565b919050565b5f67ffffffffffffffff821115610dd257610dd1610d40565b5b610ddb82610d30565b9050602081019050919050565b828183375f83830152505050565b5f610e08610e0384610db8565b610d9e565b905082815260208101848484011115610e2457610e23610d2c565b5b610e2f848285610de8565b509392505050565b5f82601f830112610e4b57610e4a610d28565b5b8135610e5b848260208601610df6565b91505092915050565b5f5f5f5f5f60a08688031215610e7d57610e7c610bda565b5b5f610e8a88828901610cae565b955050602086013567ffffffffffffffff811115610eab57610eaa610bde565b5b610eb788828901610e37565b945050604086013567ffffffffffffffff811115610ed857610ed7610bde565b5b610ee488828901610e37565b935050606086013567ffffffffffffffff811115610f0557610f04610bde565b5b610f1188828901610e37565b925050608086013567ffffffffffffffff811115610f3257610f31610bde565b5b610f3e88828901610e37565b9150509295509295909350565b5f5f5f5f5f60a08688031215610f6457610f63610bda565b5b5f86013567ffffffffffffffff811115610f8157610f80610bde565b5b610f8d88828901610e37565b9550506020610f9e88828901610cae565b945050604086013567ffffffffffffffff811115610fbf57610fbe610bde565b5b610fcb88828901610e37565b935050606086013567ffffffffffffffff811115610fec57610feb610bde565b5b610ff888828901610e37565b925050608086013567ffffffffffffffff81111561101957611018610bde565b5b61102588828901610e37565b9150509295509295909350565b7f4e487b71000000000000000000000000000000000000000000000000000000005f52601160045260245ffd5b5f61106982610be2565b91507fffffffffffffffffffffffffffffffffffffffffffffffffffffffffffffffff820361109b5761109a611032565b5b600182019050919050565b7f4e487b71000000000000000000000000000000000000000000000000000000005f52602260045260245ffd5b5f60028204905060018216806110ea57607f821691505b6020821081036110fd576110fc6110a6565b5b50919050565b5f81549050611111816110d3565b9050919050565b5f819050815f5260205f209050919050565b5f6020601f8301049050919050565b5f82821b905092915050565b5f600883026111747fffffffffffffffffffffffffffffffffffffffffffffffffffffffffffffffff82611139565b61117e8683611139565b95508019841693508086168417925050509392505050565b5f819050919050565b5f6111b96111b46111af84610be2565b611196565b610be2565b9050919050565b5f819050919050565b6111d28361119f565b6111e66111de826111c0565b848454611145565b825550505050565b5f5f905090565b6111fd6111ee565b6112088184846111c9565b505050565b5b8181101561122b576112205f826111f5565b60018101905061120e565b5050565b601f8211156112705761124181611118565b61124a8461112a565b81016020851015611259578190505b61126d6112658561112a565b83018261120d565b50505b505050565b5f82821c905092915050565b5f6112905f1984600802611275565b1980831691505092915050565b5f6112a88383611281565b9150826002028217905092915050565b8181036112c657505061139b565b6112cf82611103565b67ffffffffffffffff8111156112e8576112e7610d40565b5b6112f282546110d3565b6112fd82828561122f565b5f601f83116001811461132a575f8415611318578287015490505b611322858261129d565b865550611394565b601f19841661133887611118565b965061134386611118565b5f5b8281101561136a57848901548255600182019150600185019450602081019050611345565b868310156113875784890154611383601f891682611281565b8355505b6001600288020188555050505b5050505050505b565b5f82825260208201905092915050565b7f596f752068617665206e6f20617a7574686f72697a6174696f6e2000000000005f82015250565b5f6113e1601b8361139d565b91506113ec826113ad565b602082019050919050565b5f6020820190508181035f83015261140e816113d5565b9050919050565b7f63616e64696461746541646472657373206572726f72000000000000000000005f82015250565b5f61144960168361139d565b915061145482611415565b602082019050919050565b5f6020820190508181035f8301526114768161143d565b9050919050565b5f81519050919050565b6114908261147d565b67ffffffffffffffff8111156114a9576114a8610d40565b5b6114b382546110d3565b6114be82828561122f565b5f60209050601f8311600181146114ef575f84156114dd578287015190505b6114e7858261129d565b86555061154e565b601f1984166114fd86611118565b5f5b82811015611524578489015182556001820191506020850194506020810190506114ff565b86831015611541578489015161153d601f891682611281565b8355505b6001600288020188555050505b505050505050565b8281835e5f83830152505050565b5f61156e8261147d565b611578818561139d565b9350611588818560208601611556565b61159181610d30565b840191505092915050565b5f81546115a8816110d3565b6115b2818661139d565b9450600182165f81146115cc57600181146115e257611614565b60ff198316865281151560200286019350611614565b6115eb85611118565b5f5b8381101561160c578154818901526001820191506020810190506115ed565b808801955050505b50505092915050565b5f60c0820190508181035f8301526116358189611564565b905081810360208301526116498188611564565b9050818103604083015261165d8187611564565b905061166c6060830186610d00565b6116796080830185610c70565b81810360a083015261168b818461159c565b9050979650505050505050565b7f7573657241646472206572726f720000000000000000000000000000000000005f82015250565b5f6116cc600e8361139d565b91506116d782611698565b602082019050919050565b5f6020820190508181035f8301526116f9816116c0565b9050919050565b50565b5f61170e5f8361139d565b915061171982611700565b5f82019050919050565b5f6020820190508181035f83015261173a81611703565b9050919050565b5f8115159050919050565b61175581611741565b82525050565b5f60c0820190508181035f8301526117738189611564565b905081810360208301526117878188611564565b90506117966040830187610c70565b6117a3606083018661174c565b6117b0608083018561174c565b81810360a08301526117c2818461159c565b905097965050505050505056fea2646970667358221220aa38737b18ad1d11211bc042bf1e9e41df8bb145fc1f82b4b4019b3c9b56afaa64736f6c634300081e0033",
			"opcodes": "PUSH1 0xA0 PUSH1 0x40 MSTORE CALLVALUE DUP1 ISZERO PUSH1 0xE JUMPI PUSH0 PUSH0 REVERT JUMPDEST POP CALLER PUSH20 0xFFFFFFFFFFFFFFFFFFFFFFFFFFFFFFFFFFFFFFFF AND PUSH1 0x80 DUP2 PUSH20 0xFFFFFFFFFFFFFFFFFFFFFFFFFFFFFFFFFFFFFFFF AND DUP2 MSTORE POP POP PUSH1 0x80 MLOAD PUSH2 0x1805 PUSH2 0x69 PUSH0 CODECOPY PUSH0 DUP2 DUP2 PUSH2 0x210 ADD MSTORE DUP2 DUP2 PUSH2 0x591 ADD MSTORE PUSH2 0x889 ADD MSTORE PUSH2 0x1805 PUSH0 RETURN INVALID PUSH1 0x80 PUSH1 0x40 MSTORE CALLVALUE DUP1 ISZERO PUSH2 0xF JUMPI PUSH0 PUSH0 REVERT JUMPDEST POP PUSH1 0x4 CALLDATASIZE LT PUSH2 0x91 JUMPI PUSH0 CALLDATALOAD PUSH1 0xE0 SHR DUP1 PUSH4 0xB9BE3152 GT PUSH2 0x64 JUMPI DUP1 PUSH4 0xB9BE3152 EQ PUSH2 0x11D JUMPI DUP1 PUSH4 0xC279919F EQ PUSH2 0x13B JUMPI DUP1 PUSH4 0xC91EC712 EQ PUSH2 0x16B JUMPI DUP1 PUSH4 0xD3BC6E5E EQ PUSH2 0x187 JUMPI DUP1 PUSH4 0xF4286695 EQ PUSH2 0x1B7 JUMPI PUSH2 0x91 JUMP JUMPDEST DUP1 PUSH4 0x35A893A1 EQ PUSH2 0x95 JUMPI DUP1 PUSH4 0x5CC48AA7 EQ PUSH2 0xC5 JUMPI DUP1 PUSH4 0x5F74BBDE EQ PUSH2 0xE3 JUMPI DUP1 PUSH4 0xA7388967 EQ PUSH2 0xFF JUMPI JUMPDEST PUSH0 PUSH0 REVERT JUMPDEST PUSH2 0xAF PUSH1 0x4 DUP1 CALLDATASIZE SUB DUP2 ADD SWAP1 PUSH2 0xAA SWAP2 SWAP1 PUSH2 0xC15 JUMP JUMPDEST PUSH2 0x1D3 JUMP JUMPDEST PUSH1 0x40 MLOAD PUSH2 0xBC SWAP2 SWAP1 PUSH2 0xC7F JUMP JUMPDEST PUSH1 0x40 MLOAD DUP1 SWAP2 SUB SWAP1 RETURN JUMPDEST PUSH2 0xCD PUSH2 0x20E JUMP JUMPDEST PUSH1 0x40 MLOAD PUSH2 0xDA SWAP2 SWAP1 PUSH2 0xC7F JUMP JUMPDEST PUSH1 0x40 MLOAD DUP1 SWAP2 SUB SWAP1 RETURN JUMPDEST PUSH2 0xFD PUSH1 0x4 DUP1 CALLDATASIZE SUB DUP2 ADD SWAP1 PUSH2 0xF8 SWAP2 SWAP1 PUSH2 0xCC2 JUMP JUMPDEST PUSH2 0x232 JUMP JUMPDEST STOP JUMPDEST PUSH2 0x107 PUSH2 0x528 JUMP JUMPDEST PUSH1 0x40 MLOAD PUSH2 0x114 SWAP2 SWAP1 PUSH2 0xD0F JUMP JUMPDEST PUSH1 0x40 MLOAD DUP1 SWAP2 SUB SWAP1 RETURN JUMPDEST PUSH2 0x125 PUSH2 0x533 JUMP JUMPDEST PUSH1 0x40 MLOAD PUSH2 0x132 SWAP2 SWAP1 PUSH2 0xD0F JUMP JUMPDEST PUSH1 0x40 MLOAD DUP1 SWAP2 SUB SWAP1 RETURN JUMPDEST PUSH2 0x155 PUSH1 0x4 DUP1 CALLDATASIZE SUB DUP2 ADD SWAP1 PUSH2 0x150 SWAP2 SWAP1 PUSH2 0xC15 JUMP JUMPDEST PUSH2 0x53D JUMP JUMPDEST PUSH1 0x40 MLOAD PUSH2 0x162 SWAP2 SWAP1 PUSH2 0xC7F JUMP JUMPDEST PUSH1 0x40 MLOAD DUP1 SWAP2 SUB SWAP1 RETURN JUMPDEST PUSH2 0x185 PUSH1 0x4 DUP1 CALLDATASIZE SUB DUP2 ADD SWAP1 PUSH2 0x180 SWAP2 SWAP1 PUSH2 0xE64 JUMP JUMPDEST PUSH2 0x578 JUMP JUMPDEST STOP JUMPDEST PUSH2 0x1A1 PUSH1 0x4 DUP1 CALLDATASIZE SUB DUP2 ADD SWAP1 PUSH2 0x19C SWAP2 SWAP1 PUSH2 0xC15 JUMP JUMPDEST PUSH2 0x835 JUMP JUMPDEST PUSH1 0x40 MLOAD PUSH2 0x1AE SWAP2 SWAP1 PUSH2 0xC7F JUMP JUMPDEST PUSH1 0x40 MLOAD DUP1 SWAP2 SUB SWAP1 RETURN JUMPDEST PUSH2 0x1D1 PUSH1 0x4 DUP1 CALLDATASIZE SUB DUP2 ADD SWAP1 PUSH2 0x1CC SWAP2 SWAP1 PUSH2 0xF4B JUMP JUMPDEST PUSH2 0x870 JUMP JUMPDEST STOP JUMPDEST PUSH1 0x2 DUP2 DUP2 SLOAD DUP2 LT PUSH2 0x1E2 JUMPI PUSH0 DUP1 REVERT JUMPDEST SWAP1 PUSH0 MSTORE PUSH1 0x20 PUSH0 KECCAK256 ADD PUSH0 SWAP2 POP SLOAD SWAP1 PUSH2 0x100 EXP SWAP1 DIV PUSH20 0xFFFFFFFFFFFFFFFFFFFFFFFFFFFFFFFFFFFFFFFF AND DUP2 JUMP JUMPDEST PUSH32 0x0 DUP2 JUMP JUMPDEST PUSH0 PUSH1 0x5 PUSH0 CALLER PUSH20 0xFFFFFFFFFFFFFFFFFFFFFFFFFFFFFFFFFFFFFFFF AND PUSH20 0xFFFFFFFFFFFFFFFFFFFFFFFFFFFFFFFFFFFFFFFF AND DUP2 MSTORE PUSH1 0x20 ADD SWAP1 DUP2 MSTORE PUSH1 0x20 ADD PUSH0 KECCAK256 SWAP1 POP PUSH0 PUSH1 0x3 PUSH0 DUP6 PUSH20 0xFFFFFFFFFFFFFFFFFFFFFFFFFFFFFFFFFFFFFFFF AND PUSH20 0xFFFFFFFFFFFFFFFFFFFFFFFFFFFFFFFFFFFFFFFF AND DUP2 MSTORE PUSH1 0x20 ADD SWAP1 DUP2 MSTORE PUSH1 0x20 ADD PUSH0 KECCAK256 SWAP1 POP PUSH0 DUP2 PUSH0 ADD SLOAD GT PUSH2 0x2C0 JUMPI PUSH0 PUSH0 REVERT JUMPDEST PUSH0 DUP3 PUSH0 ADD SLOAD GT PUSH2 0x2CE JUMPI PUSH0 PUSH0 REVERT JUMPDEST DUP2 PUSH1 0x3 ADD PUSH1 0x14 SWAP1 SLOAD SWAP1 PUSH2 0x100 EXP SWAP1 DIV PUSH1 0xFF AND PUSH2 0x2E8 JUMPI PUSH0 PUSH0 REVERT JUMPDEST DUP2 PUSH1 0x3 ADD PUSH1 0x15 SWAP1 SLOAD SWAP1 PUSH2 0x100 EXP SWAP1 DIV PUSH1 0xFF AND ISZERO PUSH2 0x303 JUMPI PUSH0 PUSH0 REVERT JUMPDEST PUSH0 DUP3 PUSH1 0x3 ADD PUSH1 0x14 PUSH2 0x100 EXP DUP2 SLOAD DUP2 PUSH1 0xFF MUL NOT AND SWAP1 DUP4 ISZERO ISZERO MUL OR SWAP1 SSTORE POP DUP3 DUP3 PUSH1 0x1 ADD DUP2 SWAP1 SSTORE POP PUSH1 0x1 DUP3 PUSH1 0x3 ADD PUSH1 0x15 PUSH2 0x100 EXP DUP2 SLOAD DUP2 PUSH1 0xFF MUL NOT AND SWAP1 DUP4 ISZERO ISZERO MUL OR SWAP1 SSTORE POP DUP1 PUSH1 0x3 ADD PUSH0 DUP2 SLOAD PUSH2 0x355 SWAP1 PUSH2 0x105F JUMP JUMPDEST SWAP2 SWAP1 POP DUP2 SWAP1 SSTORE POP PUSH1 0x6 CALLER SWAP1 DUP1 PUSH1 0x1 DUP2 SLOAD ADD DUP1 DUP3 SSTORE DUP1 SWAP2 POP POP PUSH1 0x1 SWAP1 SUB SWAP1 PUSH0 MSTORE PUSH1 0x20 PUSH0 KECCAK256 ADD PUSH0 SWAP1 SWAP2 SWAP1 SWAP2 SWAP1 SWAP2 PUSH2 0x100 EXP DUP2 SLOAD DUP2 PUSH20 0xFFFFFFFFFFFFFFFFFFFFFFFFFFFFFFFFFFFFFFFF MUL NOT AND SWAP1 DUP4 PUSH20 0xFFFFFFFFFFFFFFFFFFFFFFFFFFFFFFFFFFFFFFFF AND MUL OR SWAP1 SSTORE POP DUP2 PUSH1 0x7 PUSH0 CALLER PUSH20 0xFFFFFFFFFFFFFFFFFFFFFFFFFFFFFFFFFFFFFFFF AND PUSH20 0xFFFFFFFFFFFFFFFFFFFFFFFFFFFFFFFFFFFFFFFF AND DUP2 MSTORE PUSH1 0x20 ADD SWAP1 DUP2 MSTORE PUSH1 0x20 ADD PUSH0 KECCAK256 PUSH0 DUP3 ADD SLOAD DUP2 PUSH0 ADD SSTORE PUSH1 0x1 DUP3 ADD SLOAD DUP2 PUSH1 0x1 ADD SSTORE PUSH1 0x2 DUP3 ADD DUP2 PUSH1 0x2 ADD SWAP1 DUP2 PUSH2 0x420 SWAP2 SWAP1 PUSH2 0x12B8 JUMP JUMPDEST POP PUSH1 0x3 DUP3 ADD PUSH0 SWAP1 SLOAD SWAP1 PUSH2 0x100 EXP SWAP1 DIV PUSH20 0xFFFFFFFFFFFFFFFFFFFFFFFFFFFFFFFFFFFFFFFF AND DUP2 PUSH1 0x3 ADD PUSH0 PUSH2 0x100 EXP DUP2 SLOAD DUP2 PUSH20 0xFFFFFFFFFFFFFFFFFFFFFFFFFFFFFFFFFFFFFFFF MUL NOT AND SWAP1 DUP4 PUSH20 0xFFFFFFFFFFFFFFFFFFFFFFFFFFFFFFFFFFFFFFFF AND MUL OR SWAP1 SSTORE POP PUSH1 0x3 DUP3 ADD PUSH1 0x14 SWAP1 SLOAD SWAP1 PUSH2 0x100 EXP SWAP1 DIV PUSH1 0xFF AND DUP2 PUSH1 0x3 ADD PUSH1 0x14 PUSH2 0x100 EXP DUP2 SLOAD DUP2 PUSH1 0xFF MUL NOT AND SWAP1 DUP4 ISZERO ISZERO MUL OR SWAP1 SSTORE POP PUSH1 0x3 DUP3 ADD PUSH1 0x15 SWAP1 SLOAD SWAP1 PUSH2 0x100 EXP SWAP1 DIV PUSH1 0xFF AND DUP2 PUSH1 0x3 ADD PUSH1 0x15 PUSH2 0x100 EXP DUP2 SLOAD DUP2 PUSH1 0xFF MUL NOT AND SWAP1 DUP4 ISZERO ISZERO MUL OR SWAP1 SSTORE POP PUSH1 0x4 DUP3 ADD DUP2 PUSH1 0x4 ADD SWAP1 DUP2 PUSH2 0x4F4 SWAP2 SWAP1 PUSH2 0x12B8 JUMP JUMPDEST POP PUSH1 0x5 DUP3 ADD DUP2 PUSH1 0x5 ADD SWAP1 DUP2 PUSH2 0x509 SWAP2 SWAP1 PUSH2 0x12B8 JUMP JUMPDEST POP PUSH1 0x6 DUP3 ADD DUP2 PUSH1 0x6 ADD SWAP1 DUP2 PUSH2 0x51E SWAP2 SWAP1 PUSH2 0x12B8 JUMP JUMPDEST POP SWAP1 POP POP POP POP POP POP JUMP JUMPDEST PUSH1 0x1 DUP1 PUSH0 ADD SLOAD SWAP1 POP DUP2 JUMP JUMPDEST PUSH0 DUP1 PUSH0 ADD SLOAD SWAP1 POP DUP2 JUMP JUMPDEST PUSH1 0x4 DUP2 DUP2 SLOAD DUP2 LT PUSH2 0x54C JUMPI PUSH0 DUP1 REVERT JUMPDEST SWAP1 PUSH0 MSTORE PUSH1 0x20 PUSH0 KECCAK256 ADD PUSH0 SWAP2 POP SLOAD SWAP1 PUSH2 0x100 EXP SWAP1 DIV PUSH20 0xFFFFFFFFFFFFFFFFFFFFFFFFFFFFFFFFFFFFFFFF AND DUP2 JUMP JUMPDEST CALLER PUSH20 0xFFFFFFFFFFFFFFFFFFFFFFFFFFFFFFFFFFFFFFFF AND PUSH32 0x0 PUSH20 0xFFFFFFFFFFFFFFFFFFFFFFFFFFFFFFFFFFFFFFFF AND EQ PUSH2 0x606 JUMPI PUSH1 0x40 MLOAD PUSH32 0x8C379A000000000000000000000000000000000000000000000000000000000 DUP2 MSTORE PUSH1 0x4 ADD PUSH2 0x5FD SWAP1 PUSH2 0x13F7 JUMP JUMPDEST PUSH1 0x40 MLOAD DUP1 SWAP2 SUB SWAP1 REVERT JUMPDEST PUSH0 PUSH20 0xFFFFFFFFFFFFFFFFFFFFFFFFFFFFFFFFFFFFFFFF AND DUP6 PUSH20 0xFFFFFFFFFFFFFFFFFFFFFFFFFFFFFFFFFFFFFFFF AND SUB PUSH2 0x674 JUMPI PUSH1 0x40 MLOAD PUSH32 0x8C379A000000000000000000000000000000000000000000000000000000000 DUP2 MSTORE PUSH1 0x4 ADD PUSH2 0x66B SWAP1 PUSH2 0x145F JUMP JUMPDEST PUSH1 0x40 MLOAD DUP1 SWAP2 SUB SWAP1 REVERT JUMPDEST PUSH0 PUSH1 0x3 PUSH0 DUP8 PUSH20 0xFFFFFFFFFFFFFFFFFFFFFFFFFFFFFFFFFFFFFFFF AND PUSH20 0xFFFFFFFFFFFFFFFFFFFFFFFFFFFFFFFFFFFFFFFF AND DUP2 MSTORE PUSH1 0x20 ADD SWAP1 DUP2 MSTORE PUSH1 0x20 ADD PUSH0 KECCAK256 SWAP1 POP PUSH2 0x6BE PUSH1 0x1 PUSH2 0xBB1 JUMP JUMPDEST PUSH0 PUSH2 0x6C9 PUSH1 0x1 PUSH2 0xBC5 JUMP JUMPDEST SWAP1 POP DUP1 DUP3 PUSH0 ADD DUP2 SWAP1 SSTORE POP DUP5 DUP3 PUSH1 0x4 ADD SWAP1 DUP2 PUSH2 0x6E4 SWAP2 SWAP1 PUSH2 0x1487 JUMP JUMPDEST POP DUP7 DUP3 PUSH1 0x2 ADD PUSH0 PUSH2 0x100 EXP DUP2 SLOAD DUP2 PUSH20 0xFFFFFFFFFFFFFFFFFFFFFFFFFFFFFFFFFFFFFFFF MUL NOT AND SWAP1 DUP4 PUSH20 0xFFFFFFFFFFFFFFFFFFFFFFFFFFFFFFFFFFFFFFFF AND MUL OR SWAP1 SSTORE POP DUP3 DUP3 PUSH1 0x6 ADD SWAP1 DUP2 PUSH2 0x738 SWAP2 SWAP1 PUSH2 0x1487 JUMP JUMPDEST POP DUP6 DUP3 PUSH1 0x1 ADD SWAP1 DUP2 PUSH2 0x74A SWAP2 SWAP1 PUSH2 0x1487 JUMP JUMPDEST POP DUP4 DUP3 PUSH1 0x5 ADD SWAP1 DUP2 PUSH2 0x75C SWAP2 SWAP1 PUSH2 0x1487 JUMP JUMPDEST POP PUSH1 0x2 DUP8 SWAP1 DUP1 PUSH1 0x1 DUP2 SLOAD ADD DUP1 DUP3 SSTORE DUP1 SWAP2 POP POP PUSH1 0x1 SWAP1 SUB SWAP1 PUSH0 MSTORE PUSH1 0x20 PUSH0 KECCAK256 ADD PUSH0 SWAP1 SWAP2 SWAP1 SWAP2 SWAP1 SWAP2 PUSH2 0x100 EXP DUP2 SLOAD DUP2 PUSH20 0xFFFFFFFFFFFFFFFFFFFFFFFFFFFFFFFFFFFFFFFF MUL NOT AND SWAP1 DUP4 PUSH20 0xFFFFFFFFFFFFFFFFFFFFFFFFFFFFFFFFFFFFFFFF AND MUL OR SWAP1 SSTORE POP DUP2 PUSH0 ADD SLOAD PUSH32 0xD297F12B256BB8485A6013FB5E302017018123E99A0EBB20756C09E1707B4B90 DUP7 DUP7 DUP7 DUP7 PUSH1 0x3 ADD SLOAD DUP8 PUSH1 0x2 ADD PUSH0 SWAP1 SLOAD SWAP1 PUSH2 0x100 EXP SWAP1 DIV PUSH20 0xFFFFFFFFFFFFFFFFFFFFFFFFFFFFFFFFFFFFFFFF AND DUP9 PUSH1 0x1 ADD PUSH1 0x40 MLOAD PUSH2 0x824 SWAP7 SWAP6 SWAP5 SWAP4 SWAP3 SWAP2 SWAP1 PUSH2 0x161D JUMP JUMPDEST PUSH1 0x40 MLOAD DUP1 SWAP2 SUB SWAP1 LOG2 POP POP POP POP POP POP POP JUMP JUMPDEST PUSH1 0x6 DUP2 DUP2 SLOAD DUP2 LT PUSH2 0x844 JUMPI PUSH0 DUP1 REVERT JUMPDEST SWAP1 PUSH0 MSTORE PUSH1 0x20 PUSH0 KECCAK256 ADD PUSH0 SWAP2 POP SLOAD SWAP1 PUSH2 0x100 EXP SWAP1 DIV PUSH20 0xFFFFFFFFFFFFFFFFFFFFFFFFFFFFFFFFFFFFFFFF AND DUP2 JUMP JUMPDEST CALLER PUSH20 0xFFFFFFFFFFFFFFFFFFFFFFFFFFFFFFFFFFFFFFFF AND PUSH32 0x0 PUSH20 0xFFFFFFFFFFFFFFFFFFFFFFFFFFFFFFFFFFFFFFFF AND EQ PUSH2 0x8FE JUMPI PUSH1 0x40 MLOAD PUSH32 0x8C379A000000000000000000000000000000000000000000000000000000000 DUP2 MSTORE PUSH1 0x4 ADD PUSH2 0x8F5 SWAP1 PUSH2 0x13F7 JUMP JUMPDEST PUSH1 0x40 MLOAD DUP1 SWAP2 SUB SWAP1 REVERT JUMPDEST PUSH0 PUSH20 0xFFFFFFFFFFFFFFFFFFFFFFFFFFFFFFFFFFFFFFFF AND DUP5 PUSH20 0xFFFFFFFFFFFFFFFFFFFFFFFFFFFFFFFFFFFFFFFF AND SUB PUSH2 0x96C JUMPI PUSH1 0x40 MLOAD PUSH32 0x8C379A000000000000000000000000000000000000000000000000000000000 DUP2 MSTORE PUSH1 0x4 ADD PUSH2 0x963 SWAP1 PUSH2 0x16E2 JUMP JUMPDEST PUSH1 0x40 MLOAD DUP1 SWAP2 SUB SWAP1 REVERT JUMPDEST PUSH0 PUSH1 0x5 PUSH0 DUP7 PUSH20 0xFFFFFFFFFFFFFFFFFFFFFFFFFFFFFFFFFFFFFFFF AND PUSH20 0xFFFFFFFFFFFFFFFFFFFFFFFFFFFFFFFFFFFFFFFF AND DUP2 MSTORE PUSH1 0x20 ADD SWAP1 DUP2 MSTORE PUSH1 0x20 ADD PUSH0 KECCAK256 SWAP1 POP DUP1 PUSH1 0x3 ADD PUSH1 0x15 SWAP1 SLOAD SWAP1 PUSH2 0x100 EXP SWAP1 DIV PUSH1 0xFF AND ISZERO PUSH2 0x9FE JUMPI PUSH1 0x40 MLOAD PUSH32 0x8C379A000000000000000000000000000000000000000000000000000000000 DUP2 MSTORE PUSH1 0x4 ADD PUSH2 0x9F5 SWAP1 PUSH2 0x1723 JUMP JUMPDEST PUSH1 0x40 MLOAD DUP1 SWAP2 SUB SWAP1 REVERT JUMPDEST PUSH2 0xA07 PUSH0 PUSH2 0xBB1 JUMP JUMPDEST PUSH0 PUSH2 0xA11 PUSH0 PUSH2 0xBC5 JUMP JUMPDEST SWAP1 POP DUP1 DUP3 PUSH0 ADD DUP2 SWAP1 SSTORE POP DUP5 DUP3 PUSH1 0x4 ADD SWAP1 DUP2 PUSH2 0xA2C SWAP2 SWAP1 PUSH2 0x1487 JUMP JUMPDEST POP DUP3 DUP3 PUSH1 0x6 ADD SWAP1 DUP2 PUSH2 0xA3E SWAP2 SWAP1 PUSH2 0x1487 JUMP JUMPDEST POP DUP7 DUP3 PUSH1 0x2 ADD SWAP1 DUP2 PUSH2 0xA50 SWAP2 SWAP1 PUSH2 0x1487 JUMP JUMPDEST POP DUP4 DUP3 PUSH1 0x5 ADD SWAP1 DUP2 PUSH2 0xA62 SWAP2 SWAP1 PUSH2 0x1487 JUMP JUMPDEST POP PUSH1 0x1 DUP3 PUSH1 0x3 ADD PUSH1 0x14 PUSH2 0x100 EXP DUP2 SLOAD DUP2 PUSH1 0xFF MUL NOT AND SWAP1 DUP4 ISZERO ISZERO MUL OR SWAP1 SSTORE POP PUSH0 DUP3 PUSH1 0x3 ADD PUSH1 0x15 PUSH2 0x100 EXP DUP2 SLOAD DUP2 PUSH1 0xFF MUL NOT AND SWAP1 DUP4 ISZERO ISZERO MUL OR SWAP1 SSTORE POP DUP6 DUP3 PUSH1 0x3 ADD PUSH0 PUSH2 0x100 EXP DUP2 SLOAD DUP2 PUSH20 0xFFFFFFFFFFFFFFFFFFFFFFFFFFFFFFFFFFFFFFFF MUL NOT AND SWAP1 DUP4 PUSH20 0xFFFFFFFFFFFFFFFFFFFFFFFFFFFFFFFFFFFFFFFF AND MUL OR SWAP1 SSTORE POP PUSH1 0x4 DUP7 SWAP1 DUP1 PUSH1 0x1 DUP2 SLOAD ADD DUP1 DUP3 SSTORE DUP1 SWAP2 POP POP PUSH1 0x1 SWAP1 SUB SWAP1 PUSH0 MSTORE PUSH1 0x20 PUSH0 KECCAK256 ADD PUSH0 SWAP1 SWAP2 SWAP1 SWAP2 SWAP1 SWAP2 PUSH2 0x100 EXP DUP2 SLOAD DUP2 PUSH20 0xFFFFFFFFFFFFFFFFFFFFFFFFFFFFFFFFFFFFFFFF MUL NOT AND SWAP1 DUP4 PUSH20 0xFFFFFFFFFFFFFFFFFFFFFFFFFFFFFFFFFFFFFFFF AND MUL OR SWAP1 SSTORE POP DUP2 PUSH0 ADD SLOAD PUSH32 0xEF9D5B1677D944FFD5A9D237F55FFA010255778EEC11EF5D83EFABB9A13D482C DUP6 DUP6 DUP10 DUP7 PUSH1 0x3 ADD PUSH1 0x14 SWAP1 SLOAD SWAP1 PUSH2 0x100 EXP SWAP1 DIV PUSH1 0xFF AND DUP8 PUSH1 0x3 ADD PUSH1 0x15 SWAP1 SLOAD SWAP1 PUSH2 0x100 EXP SWAP1 DIV PUSH1 0xFF AND DUP9 PUSH1 0x2 ADD PUSH1 0x40 MLOAD PUSH2 0xBA0 SWAP7 SWAP6 SWAP5 SWAP4 SWAP3 SWAP2 SWAP1 PUSH2 0x175B JUMP JUMPDEST PUSH1 0x40 MLOAD DUP1 SWAP2 SUB SWAP1 LOG2 POP POP POP POP POP POP POP JUMP JUMPDEST PUSH1 0x1 DUP2 PUSH0 ADD PUSH0 DUP3 DUP3 SLOAD ADD SWAP3 POP POP DUP2 SWAP1 SSTORE POP POP JUMP JUMPDEST PUSH0 DUP2 PUSH0 ADD SLOAD SWAP1 POP SWAP2 SWAP1 POP JUMP JUMPDEST PUSH0 PUSH1 0x40 MLOAD SWAP1 POP SWAP1 JUMP JUMPDEST PUSH0 PUSH0 REVERT JUMPDEST PUSH0 PUSH0 REVERT JUMPDEST PUSH0 DUP2 SWAP1 POP SWAP2 SWAP1 POP JUMP JUMPDEST PUSH2 0xBF4 DUP2 PUSH2 0xBE2 JUMP JUMPDEST DUP2 EQ PUSH2 0xBFE JUMPI PUSH0 PUSH0 REVERT JUMPDEST POP JUMP JUMPDEST PUSH0 DUP2 CALLDATALOAD SWAP1 POP PUSH2 0xC0F DUP2 PUSH2 0xBEB JUMP JUMPDEST SWAP3 SWAP2 POP POP JUMP JUMPDEST PUSH0 PUSH1 0x20 DUP3 DUP5 SUB SLT ISZERO PUSH2 0xC2A JUMPI PUSH2 0xC29 PUSH2 0xBDA JUMP JUMPDEST JUMPDEST PUSH0 PUSH2 0xC37 DUP5 DUP3 DUP6 ADD PUSH2 0xC01 JUMP JUMPDEST SWAP2 POP POP SWAP3 SWAP2 POP POP JUMP JUMPDEST PUSH0 PUSH20 0xFFFFFFFFFFFFFFFFFFFFFFFFFFFFFFFFFFFFFFFF DUP3 AND SWAP1 POP SWAP2 SWAP1 POP JUMP JUMPDEST PUSH0 PUSH2 0xC69 DUP3 PUSH2 0xC40 JUMP JUMPDEST SWAP1 POP SWAP2 SWAP1 POP JUMP JUMPDEST PUSH2 0xC79 DUP2 PUSH2 0xC5F JUMP JUMPDEST DUP3 MSTORE POP POP JUMP JUMPDEST PUSH0 PUSH1 0x20 DUP3 ADD SWAP1 POP PUSH2 0xC92 PUSH0 DUP4 ADD DUP5 PUSH2 0xC70 JUMP JUMPDEST SWAP3 SWAP2 POP POP JUMP JUMPDEST PUSH2 0xCA1 DUP2 PUSH2 0xC5F JUMP JUMPDEST DUP2 EQ PUSH2 0xCAB JUMPI PUSH0 PUSH0 REVERT JUMPDEST POP JUMP JUMPDEST PUSH0 DUP2 CALLDATALOAD SWAP1 POP PUSH2 0xCBC DUP2 PUSH2 0xC98 JUMP JUMPDEST SWAP3 SWAP2 POP POP JUMP JUMPDEST PUSH0 PUSH0 PUSH1 0x40 DUP4 DUP6 SUB SLT ISZERO PUSH2 0xCD8 JUMPI PUSH2 0xCD7 PUSH2 0xBDA JUMP JUMPDEST JUMPDEST PUSH0 PUSH2 0xCE5 DUP6 DUP3 DUP7 ADD PUSH2 0xCAE JUMP JUMPDEST SWAP3 POP POP PUSH1 0x20 PUSH2 0xCF6 DUP6 DUP3 DUP7 ADD PUSH2 0xC01 JUMP JUMPDEST SWAP2 POP POP SWAP3 POP SWAP3 SWAP1 POP JUMP JUMPDEST PUSH2 0xD09 DUP2 PUSH2 0xBE2 JUMP JUMPDEST DUP3 MSTORE POP POP JUMP JUMPDEST PUSH0 PUSH1 0x20 DUP3 ADD SWAP1 POP PUSH2 0xD22 PUSH0 DUP4 ADD DUP5 PUSH2 0xD00 JUMP JUMPDEST SWAP3 SWAP2 POP POP JUMP JUMPDEST PUSH0 PUSH0 REVERT JUMPDEST PUSH0 PUSH0 REVERT JUMPDEST PUSH0 PUSH1 0x1F NOT PUSH1 0x1F DUP4 ADD AND SWAP1 POP SWAP2 SWAP1 POP JUMP JUMPDEST PUSH32 0x4E487B7100000000000000000000000000000000000000000000000000000000 PUSH0 MSTORE PUSH1 0x41 PUSH1 0x4 MSTORE PUSH1 0x24 PUSH0 REVERT JUMPDEST PUSH2 0xD76 DUP3 PUSH2 0xD30 JUMP JUMPDEST DUP2 ADD DUP2 DUP2 LT PUSH8 0xFFFFFFFFFFFFFFFF DUP3 GT OR ISZERO PUSH2 0xD95 JUMPI PUSH2 0xD94 PUSH2 0xD40 JUMP JUMPDEST JUMPDEST DUP1 PUSH1 0x40 MSTORE POP POP POP JUMP JUMPDEST PUSH0 PUSH2 0xDA7 PUSH2 0xBD1 JUMP JUMPDEST SWAP1 POP PUSH2 0xDB3 DUP3 DUP3 PUSH2 0xD6D JUMP JUMPDEST SWAP2 SWAP1 POP JUMP JUMPDEST PUSH0 PUSH8 0xFFFFFFFFFFFFFFFF DUP3 GT ISZERO PUSH2 0xDD2 JUMPI PUSH2 0xDD1 PUSH2 0xD40 JUMP JUMPDEST JUMPDEST PUSH2 0xDDB DUP3 PUSH2 0xD30 JUMP JUMPDEST SWAP1 POP PUSH1 0x20 DUP2 ADD SWAP1 POP SWAP2 SWAP1 POP JUMP JUMPDEST DUP3 DUP2 DUP4 CALLDATACOPY PUSH0 DUP4 DUP4 ADD MSTORE POP POP POP JUMP JUMPDEST PUSH0 PUSH2 0xE08 PUSH2 0xE03 DUP5 PUSH2 0xDB8 JUMP JUMPDEST PUSH2 0xD9E JUMP JUMPDEST SWAP1 POP DUP3 DUP2 MSTORE PUSH1 0x20 DUP2 ADD DUP5 DUP5 DUP5 ADD GT ISZERO PUSH2 0xE24 JUMPI PUSH2 0xE23 PUSH2 0xD2C JUMP JUMPDEST JUMPDEST PUSH2 0xE2F DUP5 DUP3 DUP6 PUSH2 0xDE8 JUMP JUMPDEST POP SWAP4 SWAP3 POP POP POP JUMP JUMPDEST PUSH0 DUP3 PUSH1 0x1F DUP4 ADD SLT PUSH2 0xE4B JUMPI PUSH2 0xE4A PUSH2 0xD28 JUMP JUMPDEST JUMPDEST DUP2 CALLDATALOAD PUSH2 0xE5B DUP5 DUP3 PUSH1 0x20 DUP7 ADD PUSH2 0xDF6 JUMP JUMPDEST SWAP2 POP POP SWAP3 SWAP2 POP POP JUMP JUMPDEST PUSH0 PUSH0 PUSH0 PUSH0 PUSH0 PUSH1 0xA0 DUP7 DUP9 SUB SLT ISZERO PUSH2 0xE7D JUMPI PUSH2 0xE7C PUSH2 0xBDA JUMP JUMPDEST JUMPDEST PUSH0 PUSH2 0xE8A DUP9 DUP3 DUP10 ADD PUSH2 0xCAE JUMP JUMPDEST SWAP6 POP POP PUSH1 0x20 DUP7 ADD CALLDATALOAD PUSH8 0xFFFFFFFFFFFFFFFF DUP2 GT ISZERO PUSH2 0xEAB JUMPI PUSH2 0xEAA PUSH2 0xBDE JUMP JUMPDEST JUMPDEST PUSH2 0xEB7 DUP9 DUP3 DUP10 ADD PUSH2 0xE37 JUMP JUMPDEST SWAP5 POP POP PUSH1 0x40 DUP7 ADD CALLDATALOAD PUSH8 0xFFFFFFFFFFFFFFFF DUP2 GT ISZERO PUSH2 0xED8 JUMPI PUSH2 0xED7 PUSH2 0xBDE JUMP JUMPDEST JUMPDEST PUSH2 0xEE4 DUP9 DUP3 DUP10 ADD PUSH2 0xE37 JUMP JUMPDEST SWAP4 POP POP PUSH1 0x60 DUP7 ADD CALLDATALOAD PUSH8 0xFFFFFFFFFFFFFFFF DUP2 GT ISZERO PUSH2 0xF05 JUMPI PUSH2 0xF04 PUSH2 0xBDE JUMP JUMPDEST JUMPDEST PUSH2 0xF11 DUP9 DUP3 DUP10 ADD PUSH2 0xE37 JUMP JUMPDEST SWAP3 POP POP PUSH1 0x80 DUP7 ADD CALLDATALOAD PUSH8 0xFFFFFFFFFFFFFFFF DUP2 GT ISZERO PUSH2 0xF32 JUMPI PUSH2 0xF31 PUSH2 0xBDE JUMP JUMPDEST JUMPDEST PUSH2 0xF3E DUP9 DUP3 DUP10 ADD PUSH2 0xE37 JUMP JUMPDEST SWAP2 POP POP SWAP3 SWAP6 POP SWAP3 SWAP6 SWAP1 SWAP4 POP JUMP JUMPDEST PUSH0 PUSH0 PUSH0 PUSH0 PUSH0 PUSH1 0xA0 DUP7 DUP9 SUB SLT ISZERO PUSH2 0xF64 JUMPI PUSH2 0xF63 PUSH2 0xBDA JUMP JUMPDEST JUMPDEST PUSH0 DUP7 ADD CALLDATALOAD PUSH8 0xFFFFFFFFFFFFFFFF DUP2 GT ISZERO PUSH2 0xF81 JUMPI PUSH2 0xF80 PUSH2 0xBDE JUMP JUMPDEST JUMPDEST PUSH2 0xF8D DUP9 DUP3 DUP10 ADD PUSH2 0xE37 JUMP JUMPDEST SWAP6 POP POP PUSH1 0x20 PUSH2 0xF9E DUP9 DUP3 DUP10 ADD PUSH2 0xCAE JUMP JUMPDEST SWAP5 POP POP PUSH1 0x40 DUP7 ADD CALLDATALOAD PUSH8 0xFFFFFFFFFFFFFFFF DUP2 GT ISZERO PUSH2 0xFBF JUMPI PUSH2 0xFBE PUSH2 0xBDE JUMP JUMPDEST JUMPDEST PUSH2 0xFCB DUP9 DUP3 DUP10 ADD PUSH2 0xE37 JUMP JUMPDEST SWAP4 POP POP PUSH1 0x60 DUP7 ADD CALLDATALOAD PUSH8 0xFFFFFFFFFFFFFFFF DUP2 GT ISZERO PUSH2 0xFEC JUMPI PUSH2 0xFEB PUSH2 0xBDE JUMP JUMPDEST JUMPDEST PUSH2 0xFF8 DUP9 DUP3 DUP10 ADD PUSH2 0xE37 JUMP JUMPDEST SWAP3 POP POP PUSH1 0x80 DUP7 ADD CALLDATALOAD PUSH8 0xFFFFFFFFFFFFFFFF DUP2 GT ISZERO PUSH2 0x1019 JUMPI PUSH2 0x1018 PUSH2 0xBDE JUMP JUMPDEST JUMPDEST PUSH2 0x1025 DUP9 DUP3 DUP10 ADD PUSH2 0xE37 JUMP JUMPDEST SWAP2 POP POP SWAP3 SWAP6 POP SWAP3 SWAP6 SWAP1 SWAP4 POP JUMP JUMPDEST PUSH32 0x4E487B7100000000000000000000000000000000000000000000000000000000 PUSH0 MSTORE PUSH1 0x11 PUSH1 0x4 MSTORE PUSH1 0x24 PUSH0 REVERT JUMPDEST PUSH0 PUSH2 0x1069 DUP3 PUSH2 0xBE2 JUMP JUMPDEST SWAP2 POP PUSH32 0xFFFFFFFFFFFFFFFFFFFFFFFFFFFFFFFFFFFFFFFFFFFFFFFFFFFFFFFFFFFFFFFF DUP3 SUB PUSH2 0x109B JUMPI PUSH2 0x109A PUSH2 0x1032 JUMP JUMPDEST JUMPDEST PUSH1 0x1 DUP3 ADD SWAP1 POP SWAP2 SWAP1 POP JUMP JUMPDEST PUSH32 0x4E487B7100000000000000000000000000000000000000000000000000000000 PUSH0 MSTORE PUSH1 0x22 PUSH1 0x4 MSTORE PUSH1 0x24 PUSH0 REVERT JUMPDEST PUSH0 PUSH1 0x2 DUP3 DIV SWAP1 POP PUSH1 0x1 DUP3 AND DUP1 PUSH2 0x10EA JUMPI PUSH1 0x7F DUP3 AND SWAP2 POP JUMPDEST PUSH1 0x20 DUP3 LT DUP2 SUB PUSH2 0x10FD JUMPI PUSH2 0x10FC PUSH2 0x10A6 JUMP JUMPDEST JUMPDEST POP SWAP2 SWAP1 POP JUMP JUMPDEST PUSH0 DUP2 SLOAD SWAP1 POP PUSH2 0x1111 DUP2 PUSH2 0x10D3 JUMP JUMPDEST SWAP1 POP SWAP2 SWAP1 POP JUMP JUMPDEST PUSH0 DUP2 SWAP1 POP DUP2 PUSH0 MSTORE PUSH1 0x20 PUSH0 KECCAK256 SWAP1 POP SWAP2 SWAP1 POP JUMP JUMPDEST PUSH0 PUSH1 0x20 PUSH1 0x1F DUP4 ADD DIV SWAP1 POP SWAP2 SWAP1 POP JUMP JUMPDEST PUSH0 DUP3 DUP3 SHL SWAP1 POP SWAP3 SWAP2 POP POP JUMP JUMPDEST PUSH0 PUSH1 0x8 DUP4 MUL PUSH2 0x1174 PUSH32 0xFFFFFFFFFFFFFFFFFFFFFFFFFFFFFFFFFFFFFFFFFFFFFFFFFFFFFFFFFFFFFFFF DUP3 PUSH2 0x1139 JUMP JUMPDEST PUSH2 0x117E DUP7 DUP4 PUSH2 0x1139 JUMP JUMPDEST SWAP6 POP DUP1 NOT DUP5 AND SWAP4 POP DUP1 DUP7 AND DUP5 OR SWAP3 POP POP POP SWAP4 SWAP3 POP POP POP JUMP JUMPDEST PUSH0 DUP2 SWAP1 POP SWAP2 SWAP1 POP JUMP JUMPDEST PUSH0 PUSH2 0x11B9 PUSH2 0x11B4 PUSH2 0x11AF DUP5 PUSH2 0xBE2 JUMP JUMPDEST PUSH2 0x1196 JUMP JUMPDEST PUSH2 0xBE2 JUMP JUMPDEST SWAP1 POP SWAP2 SWAP1 POP JUMP JUMPDEST PUSH0 DUP2 SWAP1 POP SWAP2 SWAP1 POP JUMP JUMPDEST PUSH2 0x11D2 DUP4 PUSH2 0x119F JUMP JUMPDEST PUSH2 0x11E6 PUSH2 0x11DE DUP3 PUSH2 0x11C0 JUMP JUMPDEST DUP5 DUP5 SLOAD PUSH2 0x1145 JUMP JUMPDEST DUP3 SSTORE POP POP POP POP JUMP JUMPDEST PUSH0 PUSH0 SWAP1 POP SWAP1 JUMP JUMPDEST PUSH2 0x11FD PUSH2 0x11EE JUMP JUMPDEST PUSH2 0x1208 DUP2 DUP5 DUP5 PUSH2 0x11C9 JUMP JUMPDEST POP POP POP JUMP JUMPDEST JUMPDEST DUP2 DUP2 LT ISZERO PUSH2 0x122B JUMPI PUSH2 0x1220 PUSH0 DUP3 PUSH2 0x11F5 JUMP JUMPDEST PUSH1 0x1 DUP2 ADD SWAP1 POP PUSH2 0x120E JUMP JUMPDEST POP POP JUMP JUMPDEST PUSH1 0x1F DUP3 GT ISZERO PUSH2 0x1270 JUMPI PUSH2 0x1241 DUP2 PUSH2 0x1118 JUMP JUMPDEST PUSH2 0x124A DUP5 PUSH2 0x112A JUMP JUMPDEST DUP2 ADD PUSH1 0x20 DUP6 LT ISZERO PUSH2 0x1259 JUMPI DUP2 SWAP1 POP JUMPDEST PUSH2 0x126D PUSH2 0x1265 DUP6 PUSH2 0x112A JUMP JUMPDEST DUP4 ADD DUP3 PUSH2 0x120D JUMP JUMPDEST POP POP JUMPDEST POP POP POP JUMP JUMPDEST PUSH0 DUP3 DUP3 SHR SWAP1 POP SWAP3 SWAP2 POP POP JUMP JUMPDEST PUSH0 PUSH2 0x1290 PUSH0 NOT DUP5 PUSH1 0x8 MUL PUSH2 0x1275 JUMP JUMPDEST NOT DUP1 DUP4 AND SWAP2 POP POP SWAP3 SWAP2 POP POP JUMP JUMPDEST PUSH0 PUSH2 0x12A8 DUP4 DUP4 PUSH2 0x1281 JUMP JUMPDEST SWAP2 POP DUP3 PUSH1 0x2 MUL DUP3 OR SWAP1 POP SWAP3 SWAP2 POP POP JUMP JUMPDEST DUP2 DUP2 SUB PUSH2 0x12C6 JUMPI POP POP PUSH2 0x139B JUMP JUMPDEST PUSH2 0x12CF DUP3 PUSH2 0x1103 JUMP JUMPDEST PUSH8 0xFFFFFFFFFFFFFFFF DUP2 GT ISZERO PUSH2 0x12E8 JUMPI PUSH2 0x12E7 PUSH2 0xD40 JUMP JUMPDEST JUMPDEST PUSH2 0x12F2 DUP3 SLOAD PUSH2 0x10D3 JUMP JUMPDEST PUSH2 0x12FD DUP3 DUP3 DUP6 PUSH2 0x122F JUMP JUMPDEST PUSH0 PUSH1 0x1F DUP4 GT PUSH1 0x1 DUP2 EQ PUSH2 0x132A JUMPI PUSH0 DUP5 ISZERO PUSH2 0x1318 JUMPI DUP3 DUP8 ADD SLOAD SWAP1 POP JUMPDEST PUSH2 0x1322 DUP6 DUP3 PUSH2 0x129D JUMP JUMPDEST DUP7 SSTORE POP PUSH2 0x1394 JUMP JUMPDEST PUSH1 0x1F NOT DUP5 AND PUSH2 0x1338 DUP8 PUSH2 0x1118 JUMP JUMPDEST SWAP7 POP PUSH2 0x1343 DUP7 PUSH2 0x1118 JUMP JUMPDEST PUSH0 JUMPDEST DUP3 DUP2 LT ISZERO PUSH2 0x136A JUMPI DUP5 DUP10 ADD SLOAD DUP3 SSTORE PUSH1 0x1 DUP3 ADD SWAP2 POP PUSH1 0x1 DUP6 ADD SWAP5 POP PUSH1 0x20 DUP2 ADD SWAP1 POP PUSH2 0x1345 JUMP JUMPDEST DUP7 DUP4 LT ISZERO PUSH2 0x1387 JUMPI DUP5 DUP10 ADD SLOAD PUSH2 0x1383 PUSH1 0x1F DUP10 AND DUP3 PUSH2 0x1281 JUMP JUMPDEST DUP4 SSTORE POP JUMPDEST PUSH1 0x1 PUSH1 0x2 DUP9 MUL ADD DUP9 SSTORE POP POP POP JUMPDEST POP POP POP POP POP POP JUMPDEST JUMP JUMPDEST PUSH0 DUP3 DUP3 MSTORE PUSH1 0x20 DUP3 ADD SWAP1 POP SWAP3 SWAP2 POP POP JUMP JUMPDEST PUSH32 0x596F752068617665206E6F20617A7574686F72697A6174696F6E200000000000 PUSH0 DUP3 ADD MSTORE POP JUMP JUMPDEST PUSH0 PUSH2 0x13E1 PUSH1 0x1B DUP4 PUSH2 0x139D JUMP JUMPDEST SWAP2 POP PUSH2 0x13EC DUP3 PUSH2 0x13AD JUMP JUMPDEST PUSH1 0x20 DUP3 ADD SWAP1 POP SWAP2 SWAP1 POP JUMP JUMPDEST PUSH0 PUSH1 0x20 DUP3 ADD SWAP1 POP DUP2 DUP2 SUB PUSH0 DUP4 ADD MSTORE PUSH2 0x140E DUP2 PUSH2 0x13D5 JUMP JUMPDEST SWAP1 POP SWAP2 SWAP1 POP JUMP JUMPDEST PUSH32 0x63616E64696461746541646472657373206572726F7200000000000000000000 PUSH0 DUP3 ADD MSTORE POP JUMP JUMPDEST PUSH0 PUSH2 0x1449 PUSH1 0x16 DUP4 PUSH2 0x139D JUMP JUMPDEST SWAP2 POP PUSH2 0x1454 DUP3 PUSH2 0x1415 JUMP JUMPDEST PUSH1 0x20 DUP3 ADD SWAP1 POP SWAP2 SWAP1 POP JUMP JUMPDEST PUSH0 PUSH1 0x20 DUP3 ADD SWAP1 POP DUP2 DUP2 SUB PUSH0 DUP4 ADD MSTORE PUSH2 0x1476 DUP2 PUSH2 0x143D JUMP JUMPDEST SWAP1 POP SWAP2 SWAP1 POP JUMP JUMPDEST PUSH0 DUP2 MLOAD SWAP1 POP SWAP2 SWAP1 POP JUMP JUMPDEST PUSH2 0x1490 DUP3 PUSH2 0x147D JUMP JUMPDEST PUSH8 0xFFFFFFFFFFFFFFFF DUP2 GT ISZERO PUSH2 0x14A9 JUMPI PUSH2 0x14A8 PUSH2 0xD40 JUMP JUMPDEST JUMPDEST PUSH2 0x14B3 DUP3 SLOAD PUSH2 0x10D3 JUMP JUMPDEST PUSH2 0x14BE DUP3 DUP3 DUP6 PUSH2 0x122F JUMP JUMPDEST PUSH0 PUSH1 0x20 SWAP1 POP PUSH1 0x1F DUP4 GT PUSH1 0x1 DUP2 EQ PUSH2 0x14EF JUMPI PUSH0 DUP5 ISZERO PUSH2 0x14DD JUMPI DUP3 DUP8 ADD MLOAD SWAP1 POP JUMPDEST PUSH2 0x14E7 DUP6 DUP3 PUSH2 0x129D JUMP JUMPDEST DUP7 SSTORE POP PUSH2 0x154E JUMP JUMPDEST PUSH1 0x1F NOT DUP5 AND PUSH2 0x14FD DUP7 PUSH2 0x1118 JUMP JUMPDEST PUSH0 JUMPDEST DUP3 DUP2 LT ISZERO PUSH2 0x1524 JUMPI DUP5 DUP10 ADD MLOAD DUP3 SSTORE PUSH1 0x1 DUP3 ADD SWAP2 POP PUSH1 0x20 DUP6 ADD SWAP5 POP PUSH1 0x20 DUP2 ADD SWAP1 POP PUSH2 0x14FF JUMP JUMPDEST DUP7 DUP4 LT ISZERO PUSH2 0x1541 JUMPI DUP5 DUP10 ADD MLOAD PUSH2 0x153D PUSH1 0x1F DUP10 AND DUP3 PUSH2 0x1281 JUMP JUMPDEST DUP4 SSTORE POP JUMPDEST PUSH1 0x1 PUSH1 0x2 DUP9 MUL ADD DUP9 SSTORE POP POP POP JUMPDEST POP POP POP POP POP POP JUMP JUMPDEST DUP3 DUP2 DUP4 MCOPY PUSH0 DUP4 DUP4 ADD MSTORE POP POP POP JUMP JUMPDEST PUSH0 PUSH2 0x156E DUP3 PUSH2 0x147D JUMP JUMPDEST PUSH2 0x1578 DUP2 DUP6 PUSH2 0x139D JUMP JUMPDEST SWAP4 POP PUSH2 0x1588 DUP2 DUP6 PUSH1 0x20 DUP7 ADD PUSH2 0x1556 JUMP JUMPDEST PUSH2 0x1591 DUP2 PUSH2 0xD30 JUMP JUMPDEST DUP5 ADD SWAP2 POP POP SWAP3 SWAP2 POP POP JUMP JUMPDEST PUSH0 DUP2 SLOAD PUSH2 0x15A8 DUP2 PUSH2 0x10D3 JUMP JUMPDEST PUSH2 0x15B2 DUP2 DUP7 PUSH2 0x139D JUMP JUMPDEST SWAP5 POP PUSH1 0x1 DUP3 AND PUSH0 DUP2 EQ PUSH2 0x15CC JUMPI PUSH1 0x1 DUP2 EQ PUSH2 0x15E2 JUMPI PUSH2 0x1614 JUMP JUMPDEST PUSH1 0xFF NOT DUP4 AND DUP7 MSTORE DUP2 ISZERO ISZERO PUSH1 0x20 MUL DUP7 ADD SWAP4 POP PUSH2 0x1614 JUMP JUMPDEST PUSH2 0x15EB DUP6 PUSH2 0x1118 JUMP JUMPDEST PUSH0 JUMPDEST DUP4 DUP2 LT ISZERO PUSH2 0x160C JUMPI DUP2 SLOAD DUP2 DUP10 ADD MSTORE PUSH1 0x1 DUP3 ADD SWAP2 POP PUSH1 0x20 DUP2 ADD SWAP1 POP PUSH2 0x15ED JUMP JUMPDEST DUP1 DUP9 ADD SWAP6 POP POP POP JUMPDEST POP POP POP SWAP3 SWAP2 POP POP JUMP JUMPDEST PUSH0 PUSH1 0xC0 DUP3 ADD SWAP1 POP DUP2 DUP2 SUB PUSH0 DUP4 ADD MSTORE PUSH2 0x1635 DUP2 DUP10 PUSH2 0x1564 JUMP JUMPDEST SWAP1 POP DUP2 DUP2 SUB PUSH1 0x20 DUP4 ADD MSTORE PUSH2 0x1649 DUP2 DUP9 PUSH2 0x1564 JUMP JUMPDEST SWAP1 POP DUP2 DUP2 SUB PUSH1 0x40 DUP4 ADD MSTORE PUSH2 0x165D DUP2 DUP8 PUSH2 0x1564 JUMP JUMPDEST SWAP1 POP PUSH2 0x166C PUSH1 0x60 DUP4 ADD DUP7 PUSH2 0xD00 JUMP JUMPDEST PUSH2 0x1679 PUSH1 0x80 DUP4 ADD DUP6 PUSH2 0xC70 JUMP JUMPDEST DUP2 DUP2 SUB PUSH1 0xA0 DUP4 ADD MSTORE PUSH2 0x168B DUP2 DUP5 PUSH2 0x159C JUMP JUMPDEST SWAP1 POP SWAP8 SWAP7 POP POP POP POP POP POP POP JUMP JUMPDEST PUSH32 0x7573657241646472206572726F72000000000000000000000000000000000000 PUSH0 DUP3 ADD MSTORE POP JUMP JUMPDEST PUSH0 PUSH2 0x16CC PUSH1 0xE DUP4 PUSH2 0x139D JUMP JUMPDEST SWAP2 POP PUSH2 0x16D7 DUP3 PUSH2 0x1698 JUMP JUMPDEST PUSH1 0x20 DUP3 ADD SWAP1 POP SWAP2 SWAP1 POP JUMP JUMPDEST PUSH0 PUSH1 0x20 DUP3 ADD SWAP1 POP DUP2 DUP2 SUB PUSH0 DUP4 ADD MSTORE PUSH2 0x16F9 DUP2 PUSH2 0x16C0 JUMP JUMPDEST SWAP1 POP SWAP2 SWAP1 POP JUMP JUMPDEST POP JUMP JUMPDEST PUSH0 PUSH2 0x170E PUSH0 DUP4 PUSH2 0x139D JUMP JUMPDEST SWAP2 POP PUSH2 0x1719 DUP3 PUSH2 0x1700 JUMP JUMPDEST PUSH0 DUP3 ADD SWAP1 POP SWAP2 SWAP1 POP JUMP JUMPDEST PUSH0 PUSH1 0x20 DUP3 ADD SWAP1 POP DUP2 DUP2 SUB PUSH0 DUP4 ADD MSTORE PUSH2 0x173A DUP2 PUSH2 0x1703 JUMP JUMPDEST SWAP1 POP SWAP2 SWAP1 POP JUMP JUMPDEST PUSH0 DUP2 ISZERO ISZERO SWAP1 POP SWAP2 SWAP1 POP JUMP JUMPDEST PUSH2 0x1755 DUP2 PUSH2 0x1741 JUMP JUMPDEST DUP3 MSTORE POP POP JUMP JUMPDEST PUSH0 PUSH1 0xC0 DUP3 ADD SWAP1 POP DUP2 DUP2 SUB PUSH0 DUP4 ADD MSTORE PUSH2 0x1773 DUP2 DUP10 PUSH2 0x1564 JUMP JUMPDEST SWAP1 POP DUP2 DUP2 SUB PUSH1 0x20 DUP4 ADD MSTORE PUSH2 0x1787 DUP2 DUP9 PUSH2 0x1564 JUMP JUMPDEST SWAP1 POP PUSH2 0x1796 PUSH1 0x40 DUP4 ADD DUP8 PUSH2 0xC70 JUMP JUMPDEST PUSH2 0x17A3 PUSH1 0x60 DUP4 ADD DUP7 PUSH2 0x174C JUMP JUMPDEST PUSH2 0x17B0 PUSH1 0x80 DUP4 ADD DUP6 PUSH2 0x174C JUMP JUMPDEST DUP2 DUP2 SUB PUSH1 0xA0 DUP4 ADD MSTORE PUSH2 0x17C2 DUP2 DUP5 PUSH2 0x159C JUMP JUMPDEST SWAP1 POP SWAP8 SWAP7 POP POP POP POP POP POP POP JUMP INVALID LOG2 PUSH5 0x6970667358 0x22 SLT KECCAK256 0xAA CODESIZE PUSH20 0x7B18AD1D11211BC042BF1E9E41DF8BB145FC1F82 0xB4 0xB4 ADD SWAP12 EXTCODECOPY SWAP12 JUMP 0xAF 0xAA PUSH5 0x736F6C6343 STOP ADDMOD 0x1E STOP CALLER "
		},
		"gasEstimates": {
			"creation": {
				"codeDepositCost": "1229800",
				"executionCost": "infinite",
				"totalCost": "infinite"
			},
			"external": {
				"_candidateId()": "2505",
				"_voterId()": "2437",
				"candidateArray(uint256)": "4945",
				"setCandidate(address,string,string,string,string)": "infinite",
				"vote(address,uint256)": "infinite",
				"voterArray(uint256)": "4966",
				"voterRight(string,address,string,string,string)": "infinite",
				"voteredArray(uint256)": "5010",
				"votingOrganizer()": "infinite"
			}
		},
		"methodIdentifiers": {
			"_candidateId()": "a7388967",
			"_voterId()": "b9be3152",
			"candidateArray(uint256)": "35a893a1",
			"setCandidate(address,string,string,string,string)": "c91ec712",
			"vote(address,uint256)": "5f74bbde",
			"voterArray(uint256)": "c279919f",
			"voterRight(string,address,string,string,string)": "f4286695",
			"voteredArray(uint256)": "d3bc6e5e",
			"votingOrganizer()": "5cc48aa7"
		}
	},
	"abi": [
		{
			"inputs": [],
			"stateMutability": "nonpayable",
			"type": "constructor"
		},
		{
			"anonymous": false,
			"inputs": [
				{
					"indexed": true,
					"internalType": "uint256",
					"name": "candidateId",
					"type": "uint256"
				},
				{
					"indexed": false,
					"internalType": "string",
					"name": "age",
					"type": "string"
				},
				{
					"indexed": false,
					"internalType": "string",
					"name": "name",
					"type": "string"
				},
				{
					"indexed": false,
					"internalType": "string",
					"name": "image",
					"type": "string"
				},
				{
					"indexed": false,
					"internalType": "uint256",
					"name": "voteCount",
					"type": "uint256"
				},
				{
					"indexed": false,
					"internalType": "address",
					"name": "_address",
					"type": "address"
				},
				{
					"indexed": false,
					"internalType": "string",
					"name": "ipfs",
					"type": "string"
				}
			],
			"name": "CandidateCreate",
			"type": "event"
		},
		{
			"anonymous": false,
			"inputs": [
				{
					"indexed": true,
					"internalType": "uint256",
					"name": "voter_voterId",
					"type": "uint256"
				},
				{
					"indexed": false,
					"internalType": "string",
					"name": "voter_name",
					"type": "string"
				},
				{
					"indexed": false,
					"internalType": "string",
					"name": "voter_image",
					"type": "string"
				},
				{
					"indexed": false,
					"internalType": "address",
					"name": "voter_address",
					"type": "address"
				},
				{
					"indexed": false,
					"internalType": "bool",
					"name": "voter_allowed",
					"type": "bool"
				},
				{
					"indexed": false,
					"internalType": "bool",
					"name": "voter_voted",
					"type": "bool"
				},
				{
					"indexed": false,
					"internalType": "string",
					"name": "voter_ipfs",
					"type": "string"
				}
			],
			"name": "VoterCreated",
			"type": "event"
		},
		{
			"inputs": [],
			"name": "_candidateId",
			"outputs": [
				{
					"internalType": "uint256",
					"name": "_value",
					"type": "uint256"
				}
			],
			"stateMutability": "view",
			"type": "function"
		},
		{
			"inputs": [],
			"name": "_voterId",
			"outputs": [
				{
					"internalType": "uint256",
					"name": "_value",
					"type": "uint256"
				}
			],
			"stateMutability": "view",
			"type": "function"
		},
		{
			"inputs": [
				{
					"internalType": "uint256",
					"name": "",
					"type": "uint256"
				}
			],
			"name": "candidateArray",
			"outputs": [
				{
					"internalType": "address",
					"name": "",
					"type": "address"
				}
			],
			"stateMutability": "view",
			"type": "function"
		},
		{
			"inputs": [
				{
					"internalType": "address",
					"name": "_candidateAddress",
					"type": "address"
				},
				{
					"internalType": "string",
					"name": "ipfs",
					"type": "string"
				},
				{
					"internalType": "string",
					"name": "age",
					"type": "string"
				},
				{
					"internalType": "string",
					"name": "name",
					"type": "string"
				},
				{
					"internalType": "string",
					"name": "image",
					"type": "string"
				}
			],
			"name": "setCandidate",
			"outputs": [],
			"stateMutability": "nonpayable",
			"type": "function"
		},
		{
			"inputs": [
				{
					"internalType": "address",
					"name": "_candidateAddress",
					"type": "address"
				},
				{
					"internalType": "uint256",
					"name": "_candidateVoteId",
					"type": "uint256"
				}
			],
			"name": "vote",
			"outputs": [],
			"stateMutability": "nonpayable",
			"type": "function"
		},
		{
			"inputs": [
				{
					"internalType": "uint256",
					"name": "",
					"type": "uint256"
				}
			],
			"name": "voterArray",
			"outputs": [
				{
					"internalType": "address",
					"name": "",
					"type": "address"
				}
			],
			"stateMutability": "view",
			"type": "function"
		},
		{
			"inputs": [
				{
					"internalType": "string",
					"name": "ipfs",
					"type": "string"
				},
				{
					"internalType": "address",
					"name": "voterAddr",
					"type": "address"
				},
				{
					"internalType": "string",
					"name": "age",
					"type": "string"
				},
				{
					"internalType": "string",
					"name": "name",
					"type": "string"
				},
				{
					"internalType": "string",
					"name": "image",
					"type": "string"
				}
			],
			"name": "voterRight",
			"outputs": [],
			"stateMutability": "nonpayable",
			"type": "function"
		},
		{
			"inputs": [
				{
					"internalType": "uint256",
					"name": "",
					"type": "uint256"
				}
			],
			"name": "voteredArray",
			"outputs": [
				{
					"internalType": "address",
					"name": "",
					"type": "address"
				}
			],
			"stateMutability": "view",
			"type": "function"
		},
		{
			"inputs": [],
			"name": "votingOrganizer",
			"outputs": [
				{
					"internalType": "address",
					"name": "",
					"type": "address"
				}
			],
			"stateMutability": "view",
			"type": "function"
		}
	]
}